{
  "abi": [
    {
      "inputs": [
        {
          "internalType": "contract IMangrove",
          "name": "_MGV",
          "type": "address"
        },
        {
          "internalType": "address",
          "name": "deployer",
          "type": "address"
        }
      ],
      "stateMutability": "nonpayable",
      "type": "constructor"
    },
    {
      "anonymous": false,
      "inputs": [
        {
          "indexed": true,
          "internalType": "contract IMangrove",
          "name": "mangrove",
          "type": "address"
        },
        {
          "indexed": true,
          "internalType": "address",
          "name": "user",
          "type": "address"
        },
        {
          "indexed": false,
          "internalType": "uint256",
          "name": "amount",
          "type": "uint256"
        }
      ],
      "name": "CreditMgvUser",
      "type": "event"
    },
    {
      "anonymous": false,
      "inputs": [
        {
          "indexed": true,
          "internalType": "contract IMangrove",
          "name": "mangrove",
          "type": "address"
        },
        {
          "indexed": true,
          "internalType": "address",
          "name": "user",
          "type": "address"
        },
        {
          "indexed": false,
          "internalType": "uint256",
          "name": "amount",
          "type": "uint256"
        }
      ],
      "name": "DebitMgvUser",
      "type": "event"
    },
    {
      "anonymous": false,
      "inputs": [
        {
          "indexed": false,
          "internalType": "contract IMangrove",
          "name": "mangrove",
          "type": "address"
        },
        {
          "indexed": true,
          "internalType": "contract IERC20",
          "name": "outbound_tkn",
          "type": "address"
        },
        {
          "indexed": true,
          "internalType": "contract IERC20",
          "name": "inbound_tkn",
          "type": "address"
        },
        {
          "indexed": true,
          "internalType": "uint256",
          "name": "offerId",
          "type": "uint256"
        },
        {
          "indexed": false,
          "internalType": "bytes32",
          "name": "reason",
          "type": "bytes32"
        }
      ],
      "name": "LogIncident",
      "type": "event"
    },
    {
      "anonymous": false,
      "inputs": [
        {
          "indexed": false,
          "internalType": "contract IMangrove",
          "name": "mangrove",
          "type": "address"
        },
        {
          "indexed": true,
          "internalType": "contract IERC20",
          "name": "outbound_tkn",
          "type": "address"
        },
        {
          "indexed": true,
          "internalType": "contract IERC20",
          "name": "inbound_tkn",
          "type": "address"
        },
        {
          "indexed": true,
          "internalType": "uint256",
          "name": "offerId",
          "type": "uint256"
        },
        {
          "indexed": false,
          "internalType": "address",
          "name": "owner",
          "type": "address"
        }
      ],
      "name": "NewOwnedOffer",
      "type": "event"
    },
    {
      "anonymous": false,
      "inputs": [
        {
          "indexed": false,
          "internalType": "contract IMangrove",
          "name": "mangrove",
          "type": "address"
        },
        {
          "indexed": true,
          "internalType": "contract IERC20",
          "name": "base",
          "type": "address"
        },
        {
          "indexed": true,
          "internalType": "contract IERC20",
          "name": "quote",
          "type": "address"
        },
        {
          "indexed": true,
          "internalType": "address",
          "name": "taker",
          "type": "address"
        },
        {
          "indexed": false,
          "internalType": "bool",
          "name": "selling",
          "type": "bool"
        },
        {
          "indexed": false,
          "internalType": "uint256",
          "name": "takerGot",
          "type": "uint256"
        },
        {
          "indexed": false,
          "internalType": "uint256",
          "name": "takerGave",
          "type": "uint256"
        },
        {
          "indexed": false,
          "internalType": "uint256",
          "name": "penalty",
          "type": "uint256"
        },
        {
          "indexed": false,
          "internalType": "uint256",
          "name": "restingOrderId",
          "type": "uint256"
        }
      ],
      "name": "OrderSummary",
      "type": "event"
    },
    {
      "anonymous": false,
      "inputs": [
        {
          "indexed": false,
          "internalType": "uint256",
          "name": "",
          "type": "uint256"
        }
      ],
      "name": "SetGasreq",
      "type": "event"
    },
    {
      "anonymous": false,
      "inputs": [
        {
          "indexed": false,
          "internalType": "contract AbstractRouter",
          "name": "",
          "type": "address"
        }
      ],
      "name": "SetRouter",
      "type": "event"
    },
    {
      "inputs": [],
      "name": "MGV",
      "outputs": [
        {
          "internalType": "contract IMangrove",
          "name": "",
          "type": "address"
        }
      ],
      "stateMutability": "view",
      "type": "function"
    },
    {
      "inputs": [
        {
          "internalType": "contract IERC20[]",
          "name": "tokens",
          "type": "address[]"
        }
      ],
      "name": "activate",
      "outputs": [],
      "stateMutability": "nonpayable",
      "type": "function"
    },
    {
      "inputs": [],
      "name": "admin",
      "outputs": [
        {
          "internalType": "address",
          "name": "",
          "type": "address"
        }
      ],
      "stateMutability": "view",
      "type": "function"
    },
    {
      "inputs": [
        {
          "internalType": "contract IERC20",
          "name": "outbound_tkn",
          "type": "address"
        }
      ],
      "name": "approveMangrove",
      "outputs": [],
      "stateMutability": "nonpayable",
      "type": "function"
    },
    {
      "inputs": [
        {
          "internalType": "contract IERC20",
          "name": "token",
          "type": "address"
        }
      ],
      "name": "approveRouter",
      "outputs": [],
      "stateMutability": "nonpayable",
      "type": "function"
    },
    {
      "inputs": [
        {
          "internalType": "contract IERC20[]",
          "name": "tokens",
          "type": "address[]"
        }
      ],
      "name": "checkList",
      "outputs": [],
      "stateMutability": "view",
      "type": "function"
    },
    {
      "inputs": [
        {
          "internalType": "contract IERC20",
          "name": "",
          "type": "address"
        },
        {
          "internalType": "contract IERC20",
          "name": "",
          "type": "address"
        },
        {
          "internalType": "uint256",
          "name": "",
          "type": "uint256"
        }
      ],
      "name": "expiring",
      "outputs": [
        {
          "internalType": "uint256",
          "name": "",
          "type": "uint256"
        }
      ],
      "stateMutability": "view",
      "type": "function"
    },
    {
      "inputs": [
        {
          "internalType": "contract IERC20",
          "name": "outbound_tkn",
          "type": "address"
        },
        {
          "internalType": "contract IERC20",
          "name": "inbound_tkn",
          "type": "address"
        },
        {
          "internalType": "uint256",
          "name": "gasreq",
          "type": "uint256"
        },
        {
          "internalType": "uint256",
          "name": "gasprice",
          "type": "uint256"
        },
        {
          "internalType": "uint256",
          "name": "offerId",
          "type": "uint256"
        }
      ],
      "name": "getMissingProvision",
      "outputs": [
        {
          "internalType": "uint256",
          "name": "",
          "type": "uint256"
        }
      ],
      "stateMutability": "view",
      "type": "function"
    },
    {
      "inputs": [],
      "name": "has_router",
      "outputs": [
        {
          "internalType": "bool",
          "name": "",
          "type": "bool"
        }
      ],
      "stateMutability": "view",
      "type": "function"
    },
    {
      "inputs": [
        {
          "components": [
            {
              "internalType": "address",
              "name": "outbound_tkn",
              "type": "address"
            },
            {
              "internalType": "address",
              "name": "inbound_tkn",
              "type": "address"
            },
            {
              "internalType": "uint256",
              "name": "offerId",
              "type": "uint256"
            },
            {
              "internalType": "t",
              "name": "offer",
              "type": "uint256"
            },
            {
              "internalType": "uint256",
              "name": "wants",
              "type": "uint256"
            },
            {
              "internalType": "uint256",
              "name": "gives",
              "type": "uint256"
            },
            {
              "internalType": "t",
              "name": "offerDetail",
              "type": "uint256"
            },
            {
              "internalType": "t",
              "name": "global",
              "type": "uint256"
            },
            {
              "internalType": "t",
              "name": "local",
              "type": "uint256"
            }
          ],
          "internalType": "struct MgvLib.SingleOrder",
          "name": "order",
          "type": "tuple"
        }
      ],
      "name": "makerExecute",
      "outputs": [
        {
          "internalType": "bytes32",
          "name": "ret",
          "type": "bytes32"
        }
      ],
      "stateMutability": "nonpayable",
      "type": "function"
    },
    {
      "inputs": [
        {
          "components": [
            {
              "internalType": "address",
              "name": "outbound_tkn",
              "type": "address"
            },
            {
              "internalType": "address",
              "name": "inbound_tkn",
              "type": "address"
            },
            {
              "internalType": "uint256",
              "name": "offerId",
              "type": "uint256"
            },
            {
              "internalType": "t",
              "name": "offer",
              "type": "uint256"
            },
            {
              "internalType": "uint256",
              "name": "wants",
              "type": "uint256"
            },
            {
              "internalType": "uint256",
              "name": "gives",
              "type": "uint256"
            },
            {
              "internalType": "t",
              "name": "offerDetail",
              "type": "uint256"
            },
            {
              "internalType": "t",
              "name": "global",
              "type": "uint256"
            },
            {
              "internalType": "t",
              "name": "local",
              "type": "uint256"
            }
          ],
          "internalType": "struct MgvLib.SingleOrder",
          "name": "order",
          "type": "tuple"
        },
        {
          "components": [
            {
              "internalType": "bytes32",
              "name": "makerData",
              "type": "bytes32"
            },
            {
              "internalType": "bytes32",
              "name": "mgvData",
              "type": "bytes32"
            }
          ],
          "internalType": "struct MgvLib.OrderResult",
          "name": "result",
          "type": "tuple"
        }
      ],
      "name": "makerPosthook",
      "outputs": [],
      "stateMutability": "nonpayable",
      "type": "function"
    },
    {
      "inputs": [
        {
          "components": [
            {
              "internalType": "contract IERC20",
              "name": "outbound_tkn",
              "type": "address"
            },
            {
              "internalType": "contract IERC20",
              "name": "inbound_tkn",
              "type": "address"
            },
            {
              "internalType": "uint256",
              "name": "wants",
              "type": "uint256"
            },
            {
              "internalType": "uint256",
              "name": "gives",
              "type": "uint256"
            },
            {
              "internalType": "uint256",
              "name": "gasreq",
              "type": "uint256"
            },
            {
              "internalType": "uint256",
              "name": "gasprice",
              "type": "uint256"
            },
            {
              "internalType": "uint256",
              "name": "pivotId",
              "type": "uint256"
            },
            {
              "internalType": "uint256",
              "name": "offerId",
              "type": "uint256"
            }
          ],
          "internalType": "struct IOfferLogic.MakerOrder",
          "name": "mko",
          "type": "tuple"
        }
      ],
      "name": "newOffer",
      "outputs": [
        {
          "internalType": "uint256",
          "name": "offerId",
          "type": "uint256"
        }
      ],
      "stateMutability": "payable",
      "type": "function"
    },
    {
      "inputs": [
        {
          "internalType": "contract IERC20",
          "name": "outbound_tkn",
          "type": "address"
        },
        {
          "internalType": "contract IERC20",
          "name": "inbound_tkn",
          "type": "address"
        },
        {
          "internalType": "uint256[]",
          "name": "offerIds",
          "type": "uint256[]"
        }
      ],
      "name": "offerOwners",
      "outputs": [
        {
          "internalType": "address[]",
          "name": "_offerOwners",
          "type": "address[]"
        }
      ],
      "stateMutability": "view",
      "type": "function"
    },
    {
      "inputs": [
        {
          "internalType": "address",
          "name": "owner",
          "type": "address"
        },
        {
          "internalType": "contract IERC20",
          "name": "outbound_tkn",
          "type": "address"
        },
        {
          "internalType": "contract IERC20",
          "name": "inbound_tkn",
          "type": "address"
        }
      ],
      "name": "offersOfOwner",
      "outputs": [
        {
          "internalType": "uint256[]",
          "name": "live",
          "type": "uint256[]"
        },
        {
          "internalType": "uint256[]",
          "name": "dead",
          "type": "uint256[]"
        }
      ],
      "stateMutability": "view",
      "type": "function"
    },
    {
      "inputs": [],
      "name": "ofr_gasreq",
      "outputs": [
        {
          "internalType": "uint256",
          "name": "",
          "type": "uint256"
        }
      ],
      "stateMutability": "view",
      "type": "function"
    },
    {
      "inputs": [
        {
          "internalType": "contract IERC20",
          "name": "outbound_tkn",
          "type": "address"
        },
        {
          "internalType": "contract IERC20",
          "name": "inbound_tkn",
          "type": "address"
        },
        {
          "internalType": "uint256",
          "name": "offerId",
          "type": "uint256"
        }
      ],
      "name": "ownerOf",
      "outputs": [
        {
          "internalType": "address",
          "name": "owner",
          "type": "address"
        }
      ],
      "stateMutability": "view",
      "type": "function"
    },
    {
      "inputs": [
        {
          "internalType": "contract IERC20",
          "name": "outbound_tkn",
          "type": "address"
        },
        {
          "internalType": "contract IERC20",
          "name": "inbound_tkn",
          "type": "address"
        },
        {
          "internalType": "uint256",
          "name": "offerId",
          "type": "uint256"
        },
        {
          "internalType": "bool",
          "name": "deprovision",
          "type": "bool"
        }
      ],
      "name": "retractOffer",
      "outputs": [
        {
          "internalType": "uint256",
          "name": "free_wei",
          "type": "uint256"
        }
      ],
      "stateMutability": "nonpayable",
      "type": "function"
    },
    {
      "inputs": [],
      "name": "router",
      "outputs": [
        {
          "internalType": "contract AbstractRouter",
          "name": "",
          "type": "address"
        }
      ],
      "stateMutability": "view",
      "type": "function"
    },
    {
      "inputs": [
        {
          "internalType": "address",
          "name": "_admin",
          "type": "address"
        }
      ],
      "name": "set_admin",
      "outputs": [],
      "stateMutability": "nonpayable",
      "type": "function"
    },
    {
      "inputs": [
        {
          "internalType": "uint256",
          "name": "gasreq",
          "type": "uint256"
        }
      ],
      "name": "set_gasreq",
      "outputs": [],
      "stateMutability": "nonpayable",
      "type": "function"
    },
    {
      "inputs": [
        {
          "internalType": "contract AbstractRouter",
          "name": "router_",
          "type": "address"
        }
      ],
      "name": "set_router",
      "outputs": [],
      "stateMutability": "nonpayable",
      "type": "function"
    },
    {
      "inputs": [
        {
          "components": [
            {
              "internalType": "contract IERC20",
              "name": "base",
              "type": "address"
            },
            {
              "internalType": "contract IERC20",
              "name": "quote",
              "type": "address"
            },
            {
              "internalType": "bool",
              "name": "partialFillNotAllowed",
              "type": "bool"
            },
            {
              "internalType": "bool",
              "name": "selling",
              "type": "bool"
            },
            {
              "internalType": "uint256",
              "name": "wants",
              "type": "uint256"
            },
            {
              "internalType": "uint256",
              "name": "makerWants",
              "type": "uint256"
            },
            {
              "internalType": "uint256",
              "name": "gives",
              "type": "uint256"
            },
            {
              "internalType": "uint256",
              "name": "makerGives",
              "type": "uint256"
            },
            {
              "internalType": "bool",
              "name": "restingOrder",
              "type": "bool"
            },
            {
              "internalType": "uint256",
              "name": "retryNumber",
              "type": "uint256"
            },
            {
              "internalType": "uint256",
              "name": "gasForMarketOrder",
              "type": "uint256"
            },
            {
              "internalType": "uint256",
              "name": "blocksToLiveForRestingOrder",
              "type": "uint256"
            }
          ],
          "internalType": "struct IOrderLogic.TakerOrder",
          "name": "tko",
          "type": "tuple"
        }
      ],
      "name": "take",
      "outputs": [
        {
          "components": [
            {
              "internalType": "uint256",
              "name": "takerGot",
              "type": "uint256"
            },
            {
              "internalType": "uint256",
              "name": "takerGave",
              "type": "uint256"
            },
            {
              "internalType": "uint256",
              "name": "bounty",
              "type": "uint256"
            },
            {
              "internalType": "uint256",
              "name": "fee",
              "type": "uint256"
            },
            {
              "internalType": "uint256",
              "name": "offerId",
              "type": "uint256"
            }
          ],
          "internalType": "struct IOrderLogic.TakerOrderResult",
          "name": "res",
          "type": "tuple"
        }
      ],
      "stateMutability": "payable",
      "type": "function"
    },
    {
      "inputs": [
        {
          "internalType": "contract IERC20",
          "name": "token",
          "type": "address"
        }
      ],
      "name": "tokenBalance",
      "outputs": [
        {
          "internalType": "uint256",
          "name": "",
          "type": "uint256"
        }
      ],
      "stateMutability": "view",
      "type": "function"
    },
    {
      "inputs": [
        {
          "components": [
            {
              "internalType": "contract IERC20",
              "name": "outbound_tkn",
              "type": "address"
            },
            {
              "internalType": "contract IERC20",
              "name": "inbound_tkn",
              "type": "address"
            },
            {
              "internalType": "uint256",
              "name": "wants",
              "type": "uint256"
            },
            {
              "internalType": "uint256",
              "name": "gives",
              "type": "uint256"
            },
            {
              "internalType": "uint256",
              "name": "gasreq",
              "type": "uint256"
            },
            {
              "internalType": "uint256",
              "name": "gasprice",
              "type": "uint256"
            },
            {
              "internalType": "uint256",
              "name": "pivotId",
              "type": "uint256"
            },
            {
              "internalType": "uint256",
              "name": "offerId",
              "type": "uint256"
            }
          ],
          "internalType": "struct IOfferLogic.MakerOrder",
          "name": "mko",
          "type": "tuple"
        }
      ],
      "name": "updateOffer",
      "outputs": [],
      "stateMutability": "payable",
      "type": "function"
    },
    {
      "inputs": [
        {
          "internalType": "uint256",
          "name": "amount",
          "type": "uint256"
        },
        {
          "internalType": "address payable",
          "name": "receiver",
          "type": "address"
        }
      ],
      "name": "withdrawFromMangrove",
      "outputs": [],
      "stateMutability": "nonpayable",
      "type": "function"
    },
    {
      "inputs": [
        {
          "internalType": "contract IERC20",
          "name": "token",
          "type": "address"
        },
        {
          "internalType": "address",
          "name": "receiver",
          "type": "address"
        },
        {
          "internalType": "uint256",
          "name": "amount",
          "type": "uint256"
        }
      ],
      "name": "withdrawToken",
      "outputs": [
        {
          "internalType": "bool",
          "name": "success",
          "type": "bool"
        }
      ],
      "stateMutability": "nonpayable",
      "type": "function"
    },
    {
      "stateMutability": "payable",
      "type": "receive"
    }
  ],
  "bytecode": {
    "object": "0x60a06040523480156200001157600080fd5b506040516200597038038062005970833981016040819052620000349162000612565b8181816040516200004590620005eb565b604051809103906000f08015801562000062573d6000803e3d6000fd5b5062015f9082828282813380620000c05760405162461bcd60e51b815260206004820152601860248201527f616363657373436f6e74726f6c6c65642f307841646d696e000000000000000060448201526064015b60405180910390fd5b80620000d66200026960201b6200286f1760201c565b80546001600160a01b0319166001600160a01b03929092169190911790555062ffffff811681146200014b5760405162461bcd60e51b815260206004820152601b60248201527f4d616e67726f76654f666665722f676173726571546f6f4869676800000000006044820152606401620000b7565b6001600160a01b038216608052806200016f6200028d602090811b6200289317901c565b5550506001600160a01b038216620001bf5760405162461bcd60e51b815260206004820152601260248201527126bab63a34aab9b2b917983c2937baba32b960711b6044820152606401620000b7565b620001ca82620002b1565b505050505050336001600160a01b0316816001600160a01b0316146200025f57620001f5816200045b565b620001ff62000556565b60405163e9333fab60e01b81526001600160a01b038381166004830152919091169063e9333fab90602401600060405180830381600087803b1580156200024557600080fd5b505af11580156200025a573d6000803e3d6000fd5b505050505b5050505062000651565b7f7d382ebca3e46505071795e192d28166a3d4bd0685585591bc6c5b8df6769fd290565b7fae7e31c3220e851db9f204a28b279dfe52b973600b0a456991089c220ae7222490565b620002bb620005c5565b6001600160a01b0316336001600160a01b03161480620002ee57506080516001600160a01b0316336001600160a01b0316145b6200033c5760405162461bcd60e51b815260206004820152601860248201527f416363657373436f6e74726f6c6c65642f496e76616c696400000000000000006044820152606401620000b7565b6001600160a01b038116620003945760405162461bcd60e51b815260206004820152601c60248201527f6d67764f666665722f7365745f726f757465722f3078526f75746572000000006044820152606401620000b7565b80620003aa6200028d60201b620028931760201c565b60010180546001600160a01b0319166001600160a01b039283161790556040516381bac14f60e01b8152306004820152908216906381bac14f90602401600060405180830381600087803b1580156200040257600080fd5b505af115801562000417573d6000803e3d6000fd5b50506040516001600160a01b03841681527f6de4326a8b9054d72d9dbab97d27bc4edffadee7d966f5af9cc4eafdaf8e54559250602001905060405180910390a150565b62000465620005c5565b6001600160a01b0316336001600160a01b031614620004c75760405162461bcd60e51b815260206004820152601860248201527f416363657373436f6e74726f6c6c65642f496e76616c696400000000000000006044820152606401620000b7565b6001600160a01b0381166200051f5760405162461bcd60e51b815260206004820152601860248201527f416363657373436f6e74726f6c6c65642f307841646d696e00000000000000006044820152606401620000b7565b80620005356200026960201b6200286f1760201c565b80546001600160a01b0319166001600160a01b039290921691909117905550565b6000806200056e6200028d60201b620028931760201c565b600101546001600160a01b0316905080620005c05760405162461bcd60e51b815260206004820152601160248201527036b3bb27b33332b917983c2937baba32b960791b6044820152606401620000b7565b919050565b6000620005dc6200026960201b6200286f1760201c565b546001600160a01b0316919050565b611004806200496c83390190565b6001600160a01b03811681146200060f57600080fd5b50565b600080604083850312156200062657600080fd5b82516200063381620005f9565b60208401519092506200064681620005f9565b809150509250929050565b60805161423b62000731600039600081816103840152818161074b0152818161094401528181610ae701528181610ba501528181610e57015281816111d20152818161164a015281816116d00152818161188f0152818161192101528181611ade01528181611c0601528181611cc101528181611d6601528181611feb015281816121f701528181612283015281816123e3015281816127a3015281816129bb01528181612a4401528181612ad601528181612d5f01528181612f1e015281816131b0015281816132d2015281816137d90152613a9c015261423b6000f3fe6080604052600436106101855760003560e01c80639f2211cb116100d1578063e9333fab1161008a578063f851a44011610064578063f851a440146104e0578063f887ea40146104f5578063f92495e51461050a578063fc488a381461052a57600080fd5b8063e9333fab14610480578063eedc966a146104a0578063f259cd27146104c057600080fd5b80639f2211cb146103be578063ad97db1b146103de578063d1baa1ef146103fe578063db11851e14610413578063dec8c86b14610433578063e4c34f841461046057600080fd5b80635293840d1161013e5780636c49c32c116101185780636c49c32c1461031d5780637144df241461033d57806384b627f91461035d57806399fa5e2d1461037257600080fd5b80635293840d146102955780635486c95f146102b55780636a1c7d05146102c857600080fd5b806301e336671461019157806303eb17e2146101c657806310aded60146101e857806337b966bf146101fb5780633d3d130d146102295780634e7effa81461024957600080fd5b3661018c57005b600080fd5b34801561019d57600080fd5b506101b16101ac366004613b2e565b61054a565b60405190151581526020015b60405180910390f35b3480156101d257600080fd5b506101e66101e1366004613bbb565b610647565b005b6101e66101f6366004613bfd565b610698565b34801561020757600080fd5b5061021b610216366004613c10565b6106ff565b6040516101bd929190613c96565b34801561023557600080fd5b506101e6610244366004613cd7565b610ae5565b34801561025557600080fd5b50610287610264366004613b2e565b600160209081526000938452604080852082529284528284209052825290205481565b6040519081526020016101bd565b3480156102a157600080fd5b506101e66102b0366004613bbb565b610c09565b6102876102c3366004613bfd565b610c8d565b6102db6102d6366004613d1a565b610cae565b6040516101bd9190600060a082019050825182526020830151602083015260408301516040830152606083015160608301526080830151608083015292915050565b34801561032957600080fd5b50610287610338366004613d2d565b6116cc565b34801561034957600080fd5b506101e6610358366004613d4a565b611839565b34801561036957600080fd5b506101b1611aa8565b34801561037e57600080fd5b506103a67f000000000000000000000000000000000000000000000000000000000000000081565b6040516001600160a01b0390911681526020016101bd565b3480156103ca57600080fd5b506101e66103d9366004613d7a565b611ac7565b3480156103ea57600080fd5b506102876103f9366004613da5565b611ba7565b34801561040a57600080fd5b50610287611f20565b34801561041f57600080fd5b506101e661042e366004613d7a565b611fbe565b34801561043f57600080fd5b5061045361044e366004613df8565b612138565b6040516101bd9190613e5d565b34801561046c57600080fd5b5061028761047b366004613eaa565b6121e9565b34801561048c57600080fd5b506101e661049b366004613d7a565b612485565b3480156104ac57600080fd5b506102876104bb366004613d7a565b61253d565b3480156104cc57600080fd5b506101e66104db366004613d7a565b6125b5565b3480156104ec57600080fd5b506103a661268a565b34801561050157600080fd5b506103a66126a3565b34801561051657600080fd5b506103a6610525366004613b2e565b612703565b34801561053657600080fd5b506101e6610545366004613efb565b612776565b60006001600160a01b0383166105b25760405162461bcd60e51b815260206004820152602260248201527f4d756c7469557365722f7769746864726177546f6b656e2f307852656365697660448201526132b960f11b60648201526084015b60405180910390fd5b6105ba6126a3565b6040516310baa6cf60e11b81526001600160a01b03868116600483015233602483015285811660448301526064820185905291909116906321754d9e906084016020604051808303816000875af1158015610619573d6000803e3d6000fd5b505050506040513d601f19601f8201168201806040525081019061063d9190613f14565b90505b9392505050565b60005b818110156106935761068183838381811061066757610667613f31565b905060200201602081019061067c9190613d7a565b6128b7565b8061068b81613f5d565b91505061064a565b505050565b6106b06106aa36839003830183613f8c565b34612925565b6106fc5760405162461bcd60e51b815260206004820152601960248201527f4d756c7469557365722f7570646174654f666665724661696c0000000000000060448201526064016105a9565b50565b6001600160a01b0380831660009081526002602090815260408083208585168452825280832093871683529281528282208280529052908120546060918291908190805b82156108a6577f00000000000000000000000000000000000000000000000000000000000000006001600160a01b03166327507458816368c13d6b8b8b886040518463ffffffff1660e01b815260040161079f93929190614038565b602060405180830381865afa1580156107bc573d6000803e3d6000fd5b505050506040513d601f19601f820116820180604052508101906107e0919061405c565b6040518263ffffffff1660e01b81526004016107fe91815260200190565b602060405180830381865afa15801561081b573d6000803e3d6000fd5b505050506040513d601f19601f8201168201806040525081019061083f9190613f14565b15610856578161084e81613f5d565b925050610864565b8061086081613f5d565b9150505b6001600160a01b0380891660009081526002602090815260408083208b851684528252808320938d168352928152828220958252949094529092205491610743565b8167ffffffffffffffff8111156108bf576108bf613f76565b6040519080825280602002602001820160405280156108e8578160200160208202803683370190505b5095508067ffffffffffffffff81111561090457610904613f76565b60405190808252806020026020018201604052801561092d578160200160208202803683370190505b50945083925060009150600090505b8215610ad9577f00000000000000000000000000000000000000000000000000000000000000006001600160a01b03166327507458816368c13d6b8b8b886040518463ffffffff1660e01b815260040161099893929190614038565b602060405180830381865afa1580156109b5573d6000803e3d6000fd5b505050506040513d601f19601f820116820180604052508101906109d9919061405c565b6040518263ffffffff1660e01b81526004016109f791815260200190565b602060405180830381865afa158015610a14573d6000803e3d6000fd5b505050506040513d601f19601f82011682018060405250810190610a389190613f14565b15610a6c57828683610a4981613f5d565b945081518110610a5b57610a5b613f31565b602002602001018181525050610a97565b828582610a7881613f5d565b935081518110610a8a57610a8a613f31565b6020026020010181815250505b6001600160a01b0380891660009081526002602090815260408083208b851684528252808320938d16835292815282822095825294909452909220549161093c565b50505050935093915050565b7f00000000000000000000000000000000000000000000000000000000000000006001600160a01b0381161580610b245750336001600160a01b038216145b610b405760405162461bcd60e51b81526004016105a990614075565b81602001356f6d67762f74726164655375636365737360801b03610b6d57610b6783612e62565b50505050565b60408301803590610b819060208601613d7a565b6001600160a01b0316610b976020860186613d7a565b604080516001600160a01b037f0000000000000000000000000000000000000000000000000000000000000000811682528735602083015292909216917f736a3993b9f8b1c5603896c76376792887f376b1fe7fc981e09a16530bf1e4e0910160405180910390a4610b678383612ea0565b610c1161268a565b6001600160a01b0316336001600160a01b031614610c415760405162461bcd60e51b81526004016105a990614075565b60005b8181101561069357610c7b838383818110610c6157610c61613f31565b9050602002016020810190610c769190613d7a565b613104565b80610c8581613f5d565b915050610c44565b6000610ca8610ca136849003840184613f8c565b333461318b565b92915050565b610ce06040518060a0016040528060008152602001600081526020016000815260200160008152602001600081525090565b600080610cf360808501606086016140ac565b610d1957610d046020850185613d7a565b610d146040860160208701613d7a565b610d36565b610d296040850160208601613d7a565b610d366020860186613d7a565b915091506000610d446126a3565b6001600160a01b031663333dbb0d83338860c0013560016040518563ffffffff1660e01b8152600401610d7a94939291906140c9565b6020604051808303816000875af1158015610d99573d6000803e3d6000fd5b505050506040513d601f19601f82011682018060405250810190610dbd919061405c565b90508460c001358114610e125760405162461bcd60e51b815260206004820152601a60248201527f6d67764f726465722f6d6f2f7472616e73666572496e4661696c00000000000060448201526064016105a9565b60005b610e2561012087013560016140f2565b811015610fc35761014086013515801590610e4457508561014001355a105b610fc35760008080806001600160a01b037f00000000000000000000000000000000000000000000000000000000000000001663fbffe5fd89898d608001358e60c001358f6060016020810190610e9b91906140ac565b610ea6576001610ea9565b60005b6040516001600160e01b031960e088901b1681526001600160a01b039586166004820152949093166024850152604484019190915260648301521515608482015260a4016080604051808303816000875af1158015610f0c573d6000803e3d6000fd5b505050506040513d601f19601f82011682018060405250810190610f30919061410a565b93509350935093508389600001818151610f4a91906140f2565b905250602089018051849190610f619083906140f2565b905250604089018051839190610f789083906140f2565b905250606089018051829190610f8f9083906140f2565b90525083158015610f9e575081155b15610fac5750505050610fc3565b505050508080610fbb90613f5d565b915050610e15565b506000610fd086866133ee565b9050610fe260608701604088016140ac565b1580610feb5750805b806110035750611003610120870161010088016140ac565b61104b5760405162461bcd60e51b81526020600482015260196024820152781b59dd93dc99195c8bdb5bcbdb9bd4185c9d1a585b119a5b1b603a1b60448201526064016105a9565b8451156110bf5761105a6126a3565b855160405163137476d160e11b81526001600160a01b0392909216916326e8eda29161108c9188913391600401614038565b600060405180830381600087803b1580156110a657600080fd5b505af11580156110ba573d6000803e3d6000fd5b505050505b6110d1610120870161010088016140ac565b80156110db575080155b156114c25760408051610100810182526001600160a01b038086168252861660208201526060870151875161116993830191611116916140f2565b6111249060a08b0135614140565b815260200187602001518960e0013561113d9190614140565b815260200161114a611f20565b815260200160008152602001600081526020016000815250333461318b565b6080860181905261117f90339085908790613437565b336111906040880160208901613d7a565b6001600160a01b03166111a66020890189613d7a565b6001600160a01b03167f587734843819064f2153f96c808d1aeacaceccfa595ec4b9ed484c4bff687f7c7f000000000000000000000000000000000000000000000000000000000000000061120160808c0160608d016140ac565b8a5160208c01516040808e015160808f015191516112519695949392906001600160a01b03969096168652931515602086015260408501929092526060840152608083015260a082015260c00190565b60405180910390a484608001516000036113f15761127560608701604088016140ac565b156112be5760405162461bcd60e51b81526020600482015260196024820152781b59dd93dc99195c8bdb5bcbdb9bd4185c9d1a585b119a5b1b603a1b60448201526064016105a9565b6112dc833387602001518960c001356112d79190614140565b6134b8565b6113285760405162461bcd60e51b815260206004820152601a60248201527f6d67764f726465722f6d6f2f7472616e73666572496e4661696c00000000000060448201526064016105a9565b600085604001513461133a91906140f2565b11156113e8576040850151600090339061135490346140f2565b604051600081818185875af1925050503d8060008114611390576040519150601f19603f3d011682016040523d82523d6000602084013e611395565b606091505b50509050806113e65760405162461bcd60e51b815260206004820152601f60248201527f6d67764f726465722f6d6f2f726566756e6450726f766973696f6e4661696c0060448201526064016105a9565b505b50505050919050565b6113f96126a3565b6001600160a01b03166326e8eda2843388602001518a60c0013561141d9190614140565b6040518463ffffffff1660e01b815260040161143b93929190614038565b600060405180830381600087803b15801561145557600080fd5b505af1158015611469573d6000803e3d6000fd5b50505050610160860135156113e857611487610160870135436140f2565b6001600160a01b038085166000908152600160209081526040808320938916835292815282822060808a015183529052205550505050919050565b6114ca6126a3565b6001600160a01b03166326e8eda2843388602001518a60c001356114ee9190614140565b6040518463ffffffff1660e01b815260040161150c93929190614038565b600060405180830381600087803b15801561152657600080fd5b505af115801561153a573d6000803e3d6000fd5b50505050600085604001513461155091906140f2565b11156115f7576040850151600090339061156a90346140f2565b604051600081818185875af1925050503d80600081146115a6576040519150601f19603f3d011682016040523d82523d6000602084013e6115ab565b606091505b50509050806115f55760405162461bcd60e51b81526020600482015260166024820152751b59dd93dc99195c8bdb5bcbdc99599d5b9911985a5b60521b60448201526064016105a9565b505b336116086040880160208901613d7a565b6001600160a01b031661161e6020890189613d7a565b6001600160a01b03167f587734843819064f2153f96c808d1aeacaceccfa595ec4b9ed484c4bff687f7c7f000000000000000000000000000000000000000000000000000000000000000061167960808c0160608d016140ac565b8a516020808d01516040808f015181516001600160a01b039097168752941515928601929092529084019190915260608301526080820152600060a082015260c00160405180910390a450505050919050565b60007f00000000000000000000000000000000000000000000000000000000000000006001600160a01b038116158061170d5750336001600160a01b038216145b6117295760405162461bcd60e51b81526004016105a990614075565b611732836135ae565b6117775760405162461bcd60e51b81526020600482015260166024820152751b59dd93d999995c8bd8589bdc9d0bdc995b9959d95960521b60448201526064016105a9565b60006117878460a0013585613633565b11156117d55760405162461bcd60e51b815260206004820152601860248201527f6d67764f666665722f61626f72742f7075744661696c6564000000000000000060448201526064016105a9565b60006117e58460800135856136e1565b11156118335760405162461bcd60e51b815260206004820152601860248201527f6d67764f666665722f61626f72742f6765744661696c6564000000000000000060448201526064016105a9565b50919050565b61184161268a565b6001600160a01b0316336001600160a01b0316146118715760405162461bcd60e51b81526004016105a990614075565b600019820361190b576040516370a0823160e01b81523060048201527f00000000000000000000000000000000000000000000000000000000000000006001600160a01b0316906370a0823190602401602060405180830381865afa1580156118de573d6000803e3d6000fd5b505050506040513d601f19601f82011682018060405250810190611902919061405c565b91508115611aa4575b604051632e1a7d4d60e01b8152600481018390527f00000000000000000000000000000000000000000000000000000000000000006001600160a01b031690632e1a7d4d906024016020604051808303816000875af1158015611972573d6000803e3d6000fd5b505050506040513d601f19601f820116820180604052508101906119969190613f14565b6119f05760405162461bcd60e51b815260206004820152602560248201527f6d67764f666665722f776974686472617746726f6d4d67762f776974686472616044820152641dd1985a5b60da1b60648201526084016105a9565b6000816001600160a01b03168360405160006040518083038185875af1925050503d8060008114611a3d576040519150601f19603f3d011682016040523d82523d6000602084013e611a42565b606091505b50509050806106935760405162461bcd60e51b815260206004820152602860248201527f6d67764f666665722f776974686472617746726f6d4d67762f70617961626c6560448201526710d85b1b11985a5b60c21b60648201526084016105a9565b5050565b600080611ab3612893565b600101546001600160a01b03161415919050565b60405163095ea7b360e01b81526001600160a01b037f000000000000000000000000000000000000000000000000000000000000000081166004830152600019602483015282169063095ea7b3906044016020604051808303816000875af1158015611b37573d6000803e3d6000fd5b505050506040513d601f19601f82011682018060405250810190611b5b9190613f14565b6106fc5760405162461bcd60e51b815260206004820152601d60248201527f6d67764f666665722f617070726f76654d616e67726f76652f4661696c00000060448201526064016105a9565b6001600160a01b03848116600090815260208181526040808320878516845282528083208684528252808320815180830190925254938416808252600160a01b9094046001600160601b0316918101919091529091331480611c3157507f00000000000000000000000000000000000000000000000000000000000000006001600160a01b031633145b611c7d5760405162461bcd60e51b815260206004820152601f60248201527f4d756c74692f726574726163744f666665722f756e617574686f72697a65640060448201526064016105a9565b60208101516001600160601b031615611cb25782611c9c576000611ca2565b80602001515b6001600160601b03169150611d4a565b60405163ad97db1b60e01b81527f00000000000000000000000000000000000000000000000000000000000000006001600160a01b03169063ad97db1b90611d049089908990899089906004016140c9565b6020604051808303816000875af1158015611d23573d6000803e3d6000fd5b505050506040513d601f19601f82011682018060405250810190611d47919061405c565b91505b8115611f1757604051632e1a7d4d60e01b8152600481018390527f00000000000000000000000000000000000000000000000000000000000000006001600160a01b031690632e1a7d4d906024016020604051808303816000875af1158015611db7573d6000803e3d6000fd5b505050506040513d601f19601f82011682018060405250810190611ddb9190613f14565b611e205760405162461bcd60e51b8152602060048201526016602482015275135d5b1d1a555cd95c8bddda5d1a191c985dd1985a5b60521b60448201526064016105a9565b60408051808201825282516001600160a01b039081168252600060208084018281528b841683528282528583208b8516845282528583208a8452909152848220935190516001600160601b0316600160a01b0292169190911790915590513390849060006040518083038185875af1925050503d8060008114611ebf576040519150601f19603f3d011682016040523d82523d6000602084013e611ec4565b606091505b5050905080611f155760405162461bcd60e51b815260206004820152601960248201527f4d756c7469557365722f7765695472616e736665724661696c0000000000000060448201526064016105a9565b505b50949350505050565b6000611f2a611aa8565b15611fb057611f376126a3565b6001600160a01b0316630417ffda6040518163ffffffff1660e01b8152600401602060405180830381865afa158015611f74573d6000803e3d6000fd5b505050506040513d601f19601f82011682018060405250810190611f98919061405c565b611fa0612893565b54611fab91906140f2565b905090565b611fb8612893565b54919050565b611fc661268a565b6001600160a01b0316336001600160a01b0316148061200d5750336001600160a01b037f000000000000000000000000000000000000000000000000000000000000000016145b6120295760405162461bcd60e51b81526004016105a990614075565b6001600160a01b03811661207f5760405162461bcd60e51b815260206004820152601c60248201527f6d67764f666665722f7365745f726f757465722f3078526f757465720000000060448201526064016105a9565b80612088612893565b60010180546001600160a01b0319166001600160a01b039283161790556040516381bac14f60e01b8152306004820152908216906381bac14f90602401600060405180830381600087803b1580156120df57600080fd5b505af11580156120f3573d6000803e3d6000fd5b50506040516001600160a01b03841681527f6de4326a8b9054d72d9dbab97d27bc4edffadee7d966f5af9cc4eafdaf8e5455925060200190505b60405180910390a150565b60608167ffffffffffffffff81111561215357612153613f76565b60405190808252806020026020018201604052801561217c578160200160208202803683370190505b50905060005b82811015611f17576121ad86868686858181106121a1576121a1613f31565b90506020020135612703565b8282815181106121bf576121bf613f31565b6001600160a01b0390921660209283029190910190910152806121e181613f5d565b915050612182565b600080806001600160a01b037f00000000000000000000000000000000000000000000000000000000000000001663cbf75c9a89896040518363ffffffff1660e01b815260040161223b929190614157565b6040805180830381865afa158015612257573d6000803e3d6000fd5b505050506040513d601f19601f8201168201806040525081019061227b9190614171565b9150915060007f00000000000000000000000000000000000000000000000000000000000000006001600160a01b0316635722647b6122b78b90565b8a886040518463ffffffff1660e01b81526004016122d793929190614038565b602060405180830381865afa1580156122f4573d6000803e3d6000fd5b505050506040513d601f19601f82011682018060405250810190612318919061405c565b9050600086604085901c61ffff16111561233b575061ffff604084901c1661233e565b50855b62ffffff881061235357612350611f20565b97505b60008161236962ffffff606087901c168b6140f2565b6123739190614195565b61238190633b9aca00614195565b9050600061ffff602085901c166123a862ffffff603087901c811690604888901c166140f2565b6123b29190614195565b6123c090633b9aca00614195565b6040516370a0823160e01b81523060048201529091506000906001600160a01b037f000000000000000000000000000000000000000000000000000000000000000016906370a0823190602401602060405180830381865afa15801561242a573d6000803e3d6000fd5b505050506040513d601f19601f8201168201806040525081019061244e919061405c565b61245890836140f2565b9050828110156124715761246c8184614140565b612474565b60005b9d9c50505050505050505050505050565b61248d61268a565b6001600160a01b0316336001600160a01b0316146124bd5760405162461bcd60e51b81526004016105a990614075565b6001600160a01b0381166125135760405162461bcd60e51b815260206004820152601860248201527f416363657373436f6e74726f6c6c65642f307841646d696e000000000000000060448201526064016105a9565b8061251c61286f565b80546001600160a01b0319166001600160a01b039290921691909117905550565b60006125476126a3565b6001600160a01b03166305684fde83336040518363ffffffff1660e01b8152600401612574929190614157565b602060405180830381865afa158015612591573d6000803e3d6000fd5b505050506040513d601f19601f82011682018060405250810190610ca8919061405c565b806001600160a01b031663095ea7b36125cc6126a3565b6040516001600160e01b031960e084901b1681526001600160a01b03909116600482015260001960248201526044016020604051808303816000875af115801561261a573d6000803e3d6000fd5b505050506040513d601f19601f8201168201806040525081019061263e9190613f14565b6106fc5760405162461bcd60e51b815260206004820152601b60248201527f6d67764f666665722f617070726f7665526f757465722f4661696c000000000060448201526064016105a9565b600061269461286f565b546001600160a01b0316919050565b6000806126ae612893565b600101546001600160a01b03169050806126fe5760405162461bcd60e51b815260206004820152601160248201527036b3bb27b33332b917983c2937baba32b960791b60448201526064016105a9565b919050565b6001600160a01b038084166000908152602081815260408083208685168452825280832085845290915290205416806106405760405162461bcd60e51b815260206004820152601560248201527436bab63a34aab9b2b917bab735b7bbb727b33332b960591b60448201526064016105a9565b61277e61268a565b6001600160a01b0316336001600160a01b031614806127c55750336001600160a01b037f000000000000000000000000000000000000000000000000000000000000000016145b6127e15760405162461bcd60e51b81526004016105a990614075565b808162ffffff16146128355760405162461bcd60e51b815260206004820152601860248201527f6d67764f666665722f6761737265712f6f766572666c6f77000000000000000060448201526064016105a9565b8061283e612893565b556040518181527fafef3ad374c0b972e3c793be825735801fa05cc4c67157d98d9a111b4027988d9060200161212d565b7f7d382ebca3e46505071795e192d28166a3d4bd0685585591bc6c5b8df6769fd290565b7fae7e31c3220e851db9f204a28b279dfe52b973600b0a456991089c220ae7222490565b6128bf6126a3565b6001600160a01b031663a01dccd882336040518363ffffffff1660e01b81526004016128ec929190614157565b60006040518083038186803b15801561290457600080fd5b505afa158015612918573d6000803e3d6000fd5b505050506106fc816137b0565b81516001600160a01b039081166000908152602081815260408083208287015185168452825280832060e0870151845282528083208151808301835290549485168152600160a01b9094046001600160601b031684830152805160808101825283815291820183905281018290526060810182905290919081516001600160a01b03163314806129dd5750336001600160a01b037f000000000000000000000000000000000000000000000000000000000000000016145b612a295760405162461bcd60e51b815260206004820152601e60248201527f4d756c74692f7570646174654f666665722f756e617574686f72697a6564000060448201526064016105a9565b8451602086015160e0870151604051635722647b60e01b81527f00000000000000000000000000000000000000000000000000000000000000006001600160a01b031693635722647b93612a84939192909190600401614038565b602060405180830381865afa158015612aa1573d6000803e3d6000fd5b505050506040513d601f19601f82011682018060405250810190612ac5919061405c565b604082015284516001600160a01b037f0000000000000000000000000000000000000000000000000000000000000000169063cbf75c9a9060208801516040518363ffffffff1660e01b8152600401612b1f929190614157565b6040805180830381865afa158015612b3b573d6000803e3d6000fd5b505050506040513d601f19601f82011682018060405250810190612b5f9190614171565b6020830152815260608101849052608085015162ffffff10612b85578460800151612b8d565b612b8d611f20565b6080860152604081015160201c61ffff1660a08601819052600003612c6f5760208201516001600160601b031615612c455781602001516001600160601b031681606001818151612bde91906140f2565b90525060408051808201825283516001600160a01b039081168252600060208084018281528a51841683528282528583208b83015185168452825285832060e08c01518452909152939020915192516001600160601b0316600160a01b0292169190911790555b60808501516060808301516020840151612c6593921c62ffffff1661389e565b60a0860152612cf0565b8315612cf057602081015160601c62ffffff16604082015160481c62ffffff16612c9991906140f2565b60a0860151612cac90633b9aca00614195565b612cb69190614195565b81606001818151612cc791906140f2565b90525060808501516060808301516020840151612cea93921c62ffffff1661389e565b60a08601525b805160401c61ffff168560a001511015612d5d5760405162461bcd60e51b815260206004820152602860248201527f4d756c7469557365722f7570646174654f666665722f4e6f74456e6f756768506044820152673937bb34b9b4b7b760c11b60648201526084016105a9565b7f00000000000000000000000000000000000000000000000000000000000000006001600160a01b0316636a4f769185612d98886000015190565b602089015189604001518a606001518b608001518c60a001518d60c001518e60e001516040518a63ffffffff1660e01b8152600401612e1d9897969594939291906001600160a01b03988916815296909716602087015260408601949094526060850192909252608084015260a083015260c082015260e08101919091526101000190565b6000604051808303818588803b158015612e3657600080fd5b505af193505050508015612e48575060015b612e5757600092505050610ca8565b506001949350505050565b6000612e6d82613939565b9050806126fe57611833612e846020840184613d7a565b612e946040850160208601613d7a565b84604001356001611ba7565b600080612eb06020850185613d7a565b90506000612ec46040860160208701613d7a565b6001600160a01b03838116600090815260208181526040808320858516845282528083208a820135845282528083208151808301909252548085168252600160a01b90046001600160601b031681830152939450909182917f00000000000000000000000000000000000000000000000000000000000000009091169063cbf75c9a90612f53908b018b613d7a565b612f6360408c0160208d01613d7a565b6040518363ffffffff1660e01b8152600401612f80929190614157565b6040805180830381865afa158015612f9c573d6000803e3d6000fd5b505050506040513d601f19601f82011682018060405250810190612fc09190614171565b90925090506000612fdd61ffff604085901c16633b9aca00614195565b9050600060c08a013560301c62ffffff1660c08b013560481c62ffffff1661300591906140f2565b61301e61ffff60c08d013560201c16633b9aca00614195565b6130289190614195565b9050600082606085901c62ffffff165a60c08e013560481c62ffffff1661304f9190614140565b61305b90610bb86140f2565b61306591906140f2565b61306f9190614195565b905060008282101561308a576130858284614140565b61308d565b60005b60408051808201825298516001600160a01b039081168a526001600160601b039283166020808c019182529c82166000908152808e528381209c831681529b8d52828c209f8301358c529e909b5290982096519b51909716600160a01b029a90971699909917909355506001979650505050505050565b61310d81611ac7565b613115611aa8565b156106fc57613123816125b5565b61312b6126a3565b604051630716a76760e21b81526001600160a01b0383811660048301529190911690631c5a9d9c90602401600060405180830381600087803b15801561317057600080fd5b505af1158015613184573d6000803e3d6000fd5b5050505050565b825160208401516040516365fbae4d60e11b8152600092839283926001600160a01b037f0000000000000000000000000000000000000000000000000000000000000000169263cbf75c9a926131e392600401614157565b6040805180830381865afa1580156131ff573d6000803e3d6000fd5b505050506040513d601f19601f820116820180604052508101906132239190614171565b9150915062ffffff8016866080015111613241578560800151613249565b613249611f20565b608087018190526132649085606084901c62ffffff1661389e565b60a0870181905261ffff604084901c1611156132d05760405162461bcd60e51b815260206004820152602560248201527f4d756c7469557365722f6e65774f666665722f4e6f74456e6f75676850726f7660448201526434b9b4b7b760d91b60648201526084016105a9565b7f00000000000000000000000000000000000000000000000000000000000000006001600160a01b03166349f6d2dc8561330b896000015190565b60208a01518a604001518b606001518c608001518d60a001518e60c001516040518963ffffffff1660e01b815260040161338497969594939291906001600160a01b03978816815295909616602086015260408501939093526060840191909152608083015260a082015260c081019190915260e00190565b60206040518083038185885af11580156133a2573d6000803e3d6000fd5b50505050506040513d601f19601f820116820180604052508101906133c7919061405c565b60e08701819052865160208801516133df9288613a10565b50505060e08301519392505050565b600061340060808401606085016140ac565b15613418578260c00135826020015110159050610ca8565b6060820151825160808501359161342e916140f2565b10159050610ca8565b6001600160a01b0383811660009081526002602090815260408083208685168452825280832093881683529281528282208280529052208054908290558015613184576001600160a01b0393841660009081526002602090815260408083209587168352948152848220969095168152948452828520918552925290912055565b60008115806134cf57506001600160a01b03831630145b156134dc57506001610640565b604080516001600160a01b038581166024830152604480830186905283518084039091018152606490920183526020820180516001600160e01b031663a9059cbb60e01b179052915160009283929088169161353891906141b4565b6000604051808303816000865af19150503d8060008114613575576040519150601f19603f3d011682016040523d82523d6000602084013e61357a565b606091505b50915091508180156135a45750805115806135a45750808060200190518101906135a49190613f14565b9695505050505050565b6000806001816135c16020860186613d7a565b6001600160a01b03166001600160a01b0316815260200190815260200160002060008460200160208101906135f69190613d7a565b6001600160a01b03168152602080820192909252604090810160009081208683013582529092529020549050801580610640575043111592915050565b6000806136436020840184613d7a565b905060006136576040850160208601613d7a565b9050600061366a83838760400135612703565b90506136746126a3565b6001600160a01b03166326e8eda28383896040518463ffffffff1660e01b81526004016136a393929190614038565b600060405180830381600087803b1580156136bd57600080fd5b505af11580156136d1573d6000803e3d6000fd5b5060009998505050505050505050565b6000806136f16020840184613d7a565b905060006137056040850160208601613d7a565b9050600061371883838760400135612703565b905060006137246126a3565b6001600160a01b031663333dbb0d85848a60016040518563ffffffff1660e01b815260040161375694939291906140c9565b6020604051808303816000875af1158015613775573d6000803e3d6000fd5b505050506040513d601f19601f82011682018060405250810190613799919061405c565b90506137a58188614140565b979650505050505050565b604051636eb1769f60e11b81526000906001600160a01b0383169063dd62ed3e906138019030907f000000000000000000000000000000000000000000000000000000000000000090600401614157565b602060405180830381865afa15801561381e573d6000803e3d6000fd5b505050506040513d601f19601f82011682018060405250810190613842919061405c565b116106fc5760405162461bcd60e51b815260206004820152602660248201527f4d616e67726f76654f666665722f41646d696e4d757374417070726f76654d616044820152656e67726f766560d01b60648201526084016105a9565b6000806138ab85846140f2565b6138b990633b9aca00614195565b9050808410156139205760405162461bcd60e51b815260206004820152602c60248201527f4d756c7469557365722f6465726976655f67617370726963652f4e6f74456e6f60448201526b3ab3b4283937bb34b9b4b7b760a11b60648201526084016105a9565b80848161392f5761392f6141ef565b0495945050505050565b60008061394583613ad1565b9050600061395284613af1565b905081600003613966575060019392505050565b604080516101008101909152613a0890806139846020880188613d7a565b6001600160a01b031681526020018660200160208101906139a59190613d7a565b6001600160a01b03168152602081018490526040810185905260600160c087013560481c62ffffff16815260209081019060c0880135901c61ffff168152602001606087013560c01c63ffffffff16815260200186604001358152506000612925565b949350505050565b6040805180820182526001600160a01b038084168252600060208084018281528984168084528383528684208a86168086529084528785208a865290935292869020945190516001600160601b0316600160a01b029316929092179092559151849291907f460a431c86ecaea27134277388c72021356689d9eb62c3b25a5e4a97da7a8a1490613ac3907f0000000000000000000000000000000000000000000000000000000000000000908790614157565b60405180910390a450505050565b600060808201356001600160601b036060840135165b610ca89190614140565b600060a0820135606080840135901c6001600160601b0316613ae7565b6001600160a01b03811681146106fc57600080fd5b80356126fe81613b0e565b600080600060608486031215613b4357600080fd5b8335613b4e81613b0e565b92506020840135613b5e81613b0e565b929592945050506040919091013590565b60008083601f840112613b8157600080fd5b50813567ffffffffffffffff811115613b9957600080fd5b6020830191508360208260051b8501011115613bb457600080fd5b9250929050565b60008060208385031215613bce57600080fd5b823567ffffffffffffffff811115613be557600080fd5b613bf185828601613b6f565b90969095509350505050565b6000610100828403121561183357600080fd5b600080600060608486031215613c2557600080fd5b8335613c3081613b0e565b92506020840135613c4081613b0e565b91506040840135613c5081613b0e565b809150509250925092565b600081518084526020808501945080840160005b83811015613c8b57815187529582019590820190600101613c6f565b509495945050505050565b604081526000613ca96040830185613c5b565b8281036020840152613cbb8185613c5b565b95945050505050565b6000610120828403121561183357600080fd5b600080828403610160811215613cec57600080fd5b613cf68585613cc4565b9250604061011f1982011215613d0b57600080fd5b50610120830190509250929050565b6000610180828403121561183357600080fd5b60006101208284031215613d4057600080fd5b6106408383613cc4565b60008060408385031215613d5d57600080fd5b823591506020830135613d6f81613b0e565b809150509250929050565b600060208284031215613d8c57600080fd5b813561064081613b0e565b80151581146106fc57600080fd5b60008060008060808587031215613dbb57600080fd5b8435613dc681613b0e565b93506020850135613dd681613b0e565b9250604085013591506060850135613ded81613d97565b939692955090935050565b60008060008060608587031215613e0e57600080fd5b8435613e1981613b0e565b93506020850135613e2981613b0e565b9250604085013567ffffffffffffffff811115613e4557600080fd5b613e5187828801613b6f565b95989497509550505050565b6020808252825182820181905260009190848201906040850190845b81811015613e9e5783516001600160a01b031683529284019291840191600101613e79565b50909695505050505050565b600080600080600060a08688031215613ec257600080fd5b8535613ecd81613b0e565b94506020860135613edd81613b0e565b94979496505050506040830135926060810135926080909101359150565b600060208284031215613f0d57600080fd5b5035919050565b600060208284031215613f2657600080fd5b815161064081613d97565b634e487b7160e01b600052603260045260246000fd5b634e487b7160e01b600052601160045260246000fd5b600060018201613f6f57613f6f613f47565b5060010190565b634e487b7160e01b600052604160045260246000fd5b6000610100808385031215613fa057600080fd5b6040519081019067ffffffffffffffff82118183101715613fd157634e487b7160e01b600052604160045260246000fd5b81604052613fde84613b23565b8152613fec60208501613b23565b602082015260408401356040820152606084013560608201526080840135608082015260a084013560a082015260c084013560c082015260e084013560e0820152809250505092915050565b6001600160a01b039384168152919092166020820152604081019190915260600190565b60006020828403121561406e57600080fd5b5051919050565b60208082526018908201527f416363657373436f6e74726f6c6c65642f496e76616c69640000000000000000604082015260600190565b6000602082840312156140be57600080fd5b813561064081613d97565b6001600160a01b0394851681529290931660208301526040820152901515606082015260800190565b6000821982111561410557614105613f47565b500190565b6000806000806080858703121561412057600080fd5b505082516020840151604085015160609095015191969095509092509050565b60008282101561415257614152613f47565b500390565b6001600160a01b0392831681529116602082015260400190565b6000806040838503121561418457600080fd5b505080516020909101519092909150565b60008160001904831182151516156141af576141af613f47565b500290565b6000825160005b818110156141d557602081860181015185830152016141bb565b818111156141e4576000828501525b509190910192915050565b634e487b7160e01b600052601260045260246000fdfea264697066735822122091548e2d3f264f4131698f2a4a558632ff2a1992bbcd07458338d16191d4e6e564736f6c634300080e0033608060405234801561001057600080fd5b5061c35033806100675760405162461bcd60e51b815260206004820152601860248201527f616363657373436f6e74726f6c6c65642f307841646d696e000000000000000060448201526064015b60405180910390fd5b8061007a61010a60201b6107e51760201c565b80546001600160a01b0319166001600160a01b03929092169190911790555062ffffff811681146100ed5760405162461bcd60e51b815260206004820152601660248201527f526f757465722f6f76657268656164546f6f4869676800000000000000000000604482015260640161005e565b8061010061012e60201b6108091760201c565b6001015550610152565b7f7d382ebca3e46505071795e192d28166a3d4bd0685585591bc6c5b8df6769fd290565b7ff2910982afb88211fa9894801aaf0314409ca240a0a8904897b9f5ba323ca53390565b610ea3806101616000396000f3fe608060405234801561001057600080fd5b50600436106100cf5760003560e01c8063362aecb11161008c578063cf5e7bd311610066578063cf5e7bd314610199578063e9333fab146101ac578063f850a81c146101bf578063f851a440146101d257600080fd5b8063362aecb11461016057806381bac14f14610173578063a01dccd81461018657600080fd5b80630417ffda146100d457806305684fde146100ef5780631c5a9d9c1461010257806321754d9e1461011757806326e8eda21461013a578063333dbb0d1461014d575b600080fd5b6100dc6101f2565b6040519081526020015b60405180910390f35b6100dc6100fd366004610bc3565b610205565b610115610110366004610bfc565b61027a565b005b61012a610125366004610c19565b6102cd565b60405190151581526020016100e6565b610115610148366004610c6a565b61030b565b6100dc61015b366004610cb9565b610341565b61012a61016e366004610bfc565b6103fd565b610115610181366004610bfc565b610429565b610115610194366004610bc3565b6104a7565b6101156101a7366004610bfc565b61057d565b6101156101ba366004610bfc565b6105ce565b6101156101cd366004610d0c565b6106b6565b6101da6107cc565b6040516001600160a01b0390911681526020016100e6565b60006101fc610809565b60010154905090565b6040516370a0823160e01b81526001600160a01b038281166004830152600091908416906370a0823190602401602060405180830381865afa15801561024f573d6000803e3d6000fd5b505050506040513d601f19601f820116820180604052508101906102739190610d92565b9392505050565b6102826107cc565b6001600160a01b0316336001600160a01b031614806102a557506102a5336103fd565b6102ca5760405162461bcd60e51b81526004016102c190610dab565b60405180910390fd5b50565b60006102d8336103fd565b6102f45760405162461bcd60e51b81526004016102c190610dab565b6103008585858561082d565b90505b949350505050565b610314336103fd565b6103305760405162461bcd60e51b81526004016102c190610dab565b61033c8383338461083b565b505050565b600061034c336103fd565b6103685760405162461bcd60e51b81526004016102c190610dab565b6040516370a0823160e01b81523360048201526000906001600160a01b038716906370a0823190602401602060405180830381865afa1580156103af573d6000803e3d6000fd5b505050506040513d601f19601f820116820180604052508101906103d39190610d92565b90508381106103e6576000915050610303565b6103f38686338787610893565b9695505050505050565b6000610407610809565b6001600160a01b03909216600090815260209290925250604090205460ff1690565b6104316107cc565b6001600160a01b0316336001600160a01b031614806104545750610454336103fd565b6104705760405162461bcd60e51b81526004016102c190610dab565b600161047a610809565b6001600160a01b039290921660009081526020929092526040909120805460ff1916911515919091179055565b604051636eb1769f60e11b81523360048201523060248201526000906001600160a01b0384169063dd62ed3e90604401602060405180830381865afa1580156104f4573d6000803e3d6000fd5b505050506040513d601f19601f820116820180604052508101906105189190610d92565b1161056f5760405162461bcd60e51b815260206004820152602160248201527f526f757465722f4e6f74417070726f76656442794d616b6572436f6e747261636044820152601d60fa1b60648201526084016102c1565b61057982826108ba565b5050565b6105856107cc565b6001600160a01b0316336001600160a01b031614806105a857506105a8336103fd565b6105c45760405162461bcd60e51b81526004016102c190610dab565b600061047a610809565b6105d66107cc565b6001600160a01b0316336001600160a01b0316146106365760405162461bcd60e51b815260206004820152601860248201527f416363657373436f6e74726f6c6c65642f496e76616c6964000000000000000060448201526064016102c1565b6001600160a01b03811661068c5760405162461bcd60e51b815260206004820152601860248201527f416363657373436f6e74726f6c6c65642f307841646d696e000000000000000060448201526064016102c1565b806106956107e5565b80546001600160a01b0319166001600160a01b039290921691909117905550565b6106bf336103fd565b6106db5760405162461bcd60e51b81526004016102c190610dab565b60005b828110156107c65760008484838181106106fa576106fa610dd8565b905060200201602081019061070f9190610bfc565b6040516370a0823160e01b81523360048201526001600160a01b0391909116906370a0823190602401602060405180830381865afa158015610755573d6000803e3d6000fd5b505050506040513d601f19601f820116820180604052508101906107799190610d92565b905080156107b3576107b385858481811061079657610796610dd8565b90506020020160208101906107ab9190610bfc565b84338461083b565b50806107be81610dee565b9150506106de565b50505050565b60006107d66107e5565b546001600160a01b0316919050565b7f7d382ebca3e46505071795e192d28166a3d4bd0685585591bc6c5b8df6769fd290565b7ff2910982afb88211fa9894801aaf0314409ca240a0a8904897b9f5ba323ca53390565b600061030085858585610998565b61084784838584610998565b6107c65760405162461bcd60e51b815260206004820152601e60248201527f53696d706c65526f757465722f707573682f7472616e736665724661696c000060448201526064016102c1565b60006108a186868686610998565b156108ad5750816108b1565b5060005b95945050505050565b6001600160a01b0381163014806109425750604051636eb1769f60e11b81526001600160a01b0382811660048301523060248301526000919084169063dd62ed3e90604401602060405180830381865afa15801561091c573d6000803e3d6000fd5b505050506040513d601f19601f820116820180604052508101906109409190610d92565b115b6105795760405162461bcd60e51b815260206004820152602160248201527f53696d706c65526f757465722f4e6f74417070726f76656442795265736572766044820152606560f81b60648201526084016102c1565b60008115806109b85750826001600160a01b0316846001600160a01b0316145b156109c557506001610303565b306001600160a01b038516036109e7576109e0858484610ac2565b9050610303565b604080516001600160a01b0386811660248301528581166044830152606480830186905283518084039091018152608490920183526020820180516001600160e01b03166323b872dd60e01b1790529151600092839290891691610a4b9190610e15565b6000604051808303816000865af19150503d8060008114610a88576040519150601f19603f3d011682016040523d82523d6000602084013e610a8d565b606091505b5091509150818015610ab7575080511580610ab7575080806020019051810190610ab79190610e50565b979650505050505050565b6000811580610ad957506001600160a01b03831630145b15610ae657506001610273565b604080516001600160a01b038581166024830152604480830186905283518084039091018152606490920183526020820180516001600160e01b031663a9059cbb60e01b1790529151600092839290881691610b429190610e15565b6000604051808303816000865af19150503d8060008114610b7f576040519150601f19603f3d011682016040523d82523d6000602084013e610b84565b606091505b50915091508180156103f35750805115806103f35750808060200190518101906103f39190610e50565b6001600160a01b03811681146102ca57600080fd5b60008060408385031215610bd657600080fd5b8235610be181610bae565b91506020830135610bf181610bae565b809150509250929050565b600060208284031215610c0e57600080fd5b813561027381610bae565b60008060008060808587031215610c2f57600080fd5b8435610c3a81610bae565b93506020850135610c4a81610bae565b92506040850135610c5a81610bae565b9396929550929360600135925050565b600080600060608486031215610c7f57600080fd5b8335610c8a81610bae565b92506020840135610c9a81610bae565b929592945050506040919091013590565b80151581146102ca57600080fd5b60008060008060808587031215610ccf57600080fd5b8435610cda81610bae565b93506020850135610cea81610bae565b9250604085013591506060850135610d0181610cab565b939692955090935050565b600080600060408486031215610d2157600080fd5b833567ffffffffffffffff80821115610d3957600080fd5b818601915086601f830112610d4d57600080fd5b813581811115610d5c57600080fd5b8760208260051b8501011115610d7157600080fd5b60209283019550935050840135610d8781610bae565b809150509250925092565b600060208284031215610da457600080fd5b5051919050565b602080825260139082015272149bdd5d195c8bdd5b985d5d1a1bdc9a5e9959606a1b604082015260600190565b634e487b7160e01b600052603260045260246000fd5b600060018201610e0e57634e487b7160e01b600052601160045260246000fd5b5060010190565b6000825160005b81811015610e365760208186018101518583015201610e1c565b81811115610e45576000828501525b509190910192915050565b600060208284031215610e6257600080fd5b815161027381610cab56fea2646970667358221220f4e191b1be5a22571f21b2f90ceb3d6b24b8d7face090b8958379a401d212a0264736f6c634300080e0033",
    "linkReferences": {}
  },
  "methodIdentifiers": {
    "MGV()": "99fa5e2d",
    "activate(address[])": "5293840d",
    "admin()": "f851a440",
    "approveMangrove(address)": "9f2211cb",
    "approveRouter(address)": "f259cd27",
    "checkList(address[])": "03eb17e2",
    "expiring(address,address,uint256)": "4e7effa8",
    "getMissingProvision(address,address,uint256,uint256,uint256)": "e4c34f84",
    "has_router()": "84b627f9",
    "makerExecute((address,address,uint256,uint256,uint256,uint256,uint256,uint256,uint256))": "6c49c32c",
    "makerPosthook((address,address,uint256,uint256,uint256,uint256,uint256,uint256,uint256),(bytes32,bytes32))": "3d3d130d",
    "newOffer((address,address,uint256,uint256,uint256,uint256,uint256,uint256))": "5486c95f",
    "offerOwners(address,address,uint256[])": "dec8c86b",
    "offersOfOwner(address,address,address)": "37b966bf",
    "ofr_gasreq()": "d1baa1ef",
    "ownerOf(address,address,uint256)": "f92495e5",
    "retractOffer(address,address,uint256,bool)": "ad97db1b",
    "router()": "f887ea40",
    "set_admin(address)": "e9333fab",
    "set_gasreq(uint256)": "fc488a38",
    "set_router(address)": "db11851e",
    "take((address,address,bool,bool,uint256,uint256,uint256,uint256,bool,uint256,uint256,uint256))": "6a1c7d05",
    "tokenBalance(address)": "eedc966a",
    "updateOffer((address,address,uint256,uint256,uint256,uint256,uint256,uint256))": "10aded60",
    "withdrawFromMangrove(uint256,address)": "7144df24",
    "withdrawToken(address,address,uint256)": "01e33667"
  },
  "id": 22
}