{
  "abi": [
    {
      "inputs": [
        {
          "internalType": "contract IMangrove",
          "name": "_MGV",
          "type": "address"
        },
        {
          "internalType": "address",
          "name": "deployer",
          "type": "address"
        }
      ],
      "stateMutability": "nonpayable",
      "type": "constructor"
    },
    {
      "anonymous": false,
      "inputs": [
        {
          "indexed": true,
          "internalType": "contract IMangrove",
          "name": "mangrove",
          "type": "address"
        },
        {
          "indexed": true,
          "internalType": "address",
          "name": "user",
          "type": "address"
        },
        {
          "indexed": false,
          "internalType": "uint256",
          "name": "amount",
          "type": "uint256"
        }
      ],
      "name": "CreditMgvUser",
      "type": "event"
    },
    {
      "anonymous": false,
      "inputs": [
        {
          "indexed": true,
          "internalType": "contract IMangrove",
          "name": "mangrove",
          "type": "address"
        },
        {
          "indexed": true,
          "internalType": "address",
          "name": "user",
          "type": "address"
        },
        {
          "indexed": false,
          "internalType": "uint256",
          "name": "amount",
          "type": "uint256"
        }
      ],
      "name": "DebitMgvUser",
      "type": "event"
    },
    {
      "anonymous": false,
      "inputs": [
        {
          "indexed": false,
          "internalType": "contract IMangrove",
          "name": "mangrove",
          "type": "address"
        },
        {
          "indexed": true,
          "internalType": "contract IERC20",
          "name": "outbound_tkn",
          "type": "address"
        },
        {
          "indexed": true,
          "internalType": "contract IERC20",
          "name": "inbound_tkn",
          "type": "address"
        },
        {
          "indexed": true,
          "internalType": "uint256",
          "name": "offerId",
          "type": "uint256"
        },
        {
          "indexed": false,
          "internalType": "bytes32",
          "name": "reason",
          "type": "bytes32"
        }
      ],
      "name": "LogIncident",
      "type": "event"
    },
    {
      "anonymous": false,
      "inputs": [
        {
          "indexed": false,
          "internalType": "contract IMangrove",
          "name": "mangrove",
          "type": "address"
        },
        {
          "indexed": true,
          "internalType": "contract IERC20",
          "name": "outbound_tkn",
          "type": "address"
        },
        {
          "indexed": true,
          "internalType": "contract IERC20",
          "name": "inbound_tkn",
          "type": "address"
        },
        {
          "indexed": true,
          "internalType": "uint256",
          "name": "offerId",
          "type": "uint256"
        },
        {
          "indexed": false,
          "internalType": "address",
          "name": "owner",
          "type": "address"
        }
      ],
      "name": "NewOwnedOffer",
      "type": "event"
    },
    {
      "anonymous": false,
      "inputs": [
        {
          "indexed": false,
          "internalType": "uint256",
          "name": "",
          "type": "uint256"
        }
      ],
      "name": "SetGasreq",
      "type": "event"
    },
    {
      "anonymous": false,
      "inputs": [
        {
          "indexed": false,
          "internalType": "contract AbstractRouter",
          "name": "",
          "type": "address"
        }
      ],
      "name": "SetRouter",
      "type": "event"
    },
    {
      "inputs": [],
      "name": "MGV",
      "outputs": [
        {
          "internalType": "contract IMangrove",
          "name": "",
          "type": "address"
        }
      ],
      "stateMutability": "view",
      "type": "function"
    },
    {
      "inputs": [
        {
          "internalType": "contract IERC20[]",
          "name": "tokens",
          "type": "address[]"
        }
      ],
      "name": "activate",
      "outputs": [],
      "stateMutability": "nonpayable",
      "type": "function"
    },
    {
      "inputs": [],
      "name": "admin",
      "outputs": [
        {
          "internalType": "address",
          "name": "",
          "type": "address"
        }
      ],
      "stateMutability": "view",
      "type": "function"
    },
    {
      "inputs": [
        {
          "internalType": "contract IERC20",
          "name": "outbound_tkn",
          "type": "address"
        }
      ],
      "name": "approveMangrove",
      "outputs": [],
      "stateMutability": "nonpayable",
      "type": "function"
    },
    {
      "inputs": [
        {
          "internalType": "contract IERC20",
          "name": "token",
          "type": "address"
        }
      ],
      "name": "approveRouter",
      "outputs": [],
      "stateMutability": "nonpayable",
      "type": "function"
    },
    {
      "inputs": [
        {
          "internalType": "contract IERC20[]",
          "name": "tokens",
          "type": "address[]"
        }
      ],
      "name": "checkList",
      "outputs": [],
      "stateMutability": "view",
      "type": "function"
    },
    {
      "inputs": [
        {
          "internalType": "contract IERC20",
          "name": "outbound_tkn",
          "type": "address"
        },
        {
          "internalType": "contract IERC20",
          "name": "inbound_tkn",
          "type": "address"
        },
        {
          "internalType": "uint256",
          "name": "gasreq",
          "type": "uint256"
        },
        {
          "internalType": "uint256",
          "name": "gasprice",
          "type": "uint256"
        },
        {
          "internalType": "uint256",
          "name": "offerId",
          "type": "uint256"
        }
      ],
      "name": "getMissingProvision",
      "outputs": [
        {
          "internalType": "uint256",
          "name": "",
          "type": "uint256"
        }
      ],
      "stateMutability": "view",
      "type": "function"
    },
    {
      "inputs": [],
      "name": "has_router",
      "outputs": [
        {
          "internalType": "bool",
          "name": "",
          "type": "bool"
        }
      ],
      "stateMutability": "view",
      "type": "function"
    },
    {
      "inputs": [
        {
          "components": [
            {
              "internalType": "address",
              "name": "outbound_tkn",
              "type": "address"
            },
            {
              "internalType": "address",
              "name": "inbound_tkn",
              "type": "address"
            },
            {
              "internalType": "uint256",
              "name": "offerId",
              "type": "uint256"
            },
            {
              "internalType": "t",
              "name": "offer",
              "type": "uint256"
            },
            {
              "internalType": "uint256",
              "name": "wants",
              "type": "uint256"
            },
            {
              "internalType": "uint256",
              "name": "gives",
              "type": "uint256"
            },
            {
              "internalType": "t",
              "name": "offerDetail",
              "type": "uint256"
            },
            {
              "internalType": "t",
              "name": "global",
              "type": "uint256"
            },
            {
              "internalType": "t",
              "name": "local",
              "type": "uint256"
            }
          ],
          "internalType": "struct MgvLib.SingleOrder",
          "name": "order",
          "type": "tuple"
        }
      ],
      "name": "makerExecute",
      "outputs": [
        {
          "internalType": "bytes32",
          "name": "ret",
          "type": "bytes32"
        }
      ],
      "stateMutability": "nonpayable",
      "type": "function"
    },
    {
      "inputs": [
        {
          "components": [
            {
              "internalType": "address",
              "name": "outbound_tkn",
              "type": "address"
            },
            {
              "internalType": "address",
              "name": "inbound_tkn",
              "type": "address"
            },
            {
              "internalType": "uint256",
              "name": "offerId",
              "type": "uint256"
            },
            {
              "internalType": "t",
              "name": "offer",
              "type": "uint256"
            },
            {
              "internalType": "uint256",
              "name": "wants",
              "type": "uint256"
            },
            {
              "internalType": "uint256",
              "name": "gives",
              "type": "uint256"
            },
            {
              "internalType": "t",
              "name": "offerDetail",
              "type": "uint256"
            },
            {
              "internalType": "t",
              "name": "global",
              "type": "uint256"
            },
            {
              "internalType": "t",
              "name": "local",
              "type": "uint256"
            }
          ],
          "internalType": "struct MgvLib.SingleOrder",
          "name": "order",
          "type": "tuple"
        },
        {
          "components": [
            {
              "internalType": "bytes32",
              "name": "makerData",
              "type": "bytes32"
            },
            {
              "internalType": "bytes32",
              "name": "mgvData",
              "type": "bytes32"
            }
          ],
          "internalType": "struct MgvLib.OrderResult",
          "name": "result",
          "type": "tuple"
        }
      ],
      "name": "makerPosthook",
      "outputs": [],
      "stateMutability": "nonpayable",
      "type": "function"
    },
    {
      "inputs": [
        {
          "components": [
            {
              "internalType": "contract IERC20",
              "name": "outbound_tkn",
              "type": "address"
            },
            {
              "internalType": "contract IERC20",
              "name": "inbound_tkn",
              "type": "address"
            },
            {
              "internalType": "uint256",
              "name": "wants",
              "type": "uint256"
            },
            {
              "internalType": "uint256",
              "name": "gives",
              "type": "uint256"
            },
            {
              "internalType": "uint256",
              "name": "gasreq",
              "type": "uint256"
            },
            {
              "internalType": "uint256",
              "name": "gasprice",
              "type": "uint256"
            },
            {
              "internalType": "uint256",
              "name": "pivotId",
              "type": "uint256"
            },
            {
              "internalType": "uint256",
              "name": "offerId",
              "type": "uint256"
            }
          ],
          "internalType": "struct IOfferLogic.MakerOrder",
          "name": "mko",
          "type": "tuple"
        }
      ],
      "name": "newOffer",
      "outputs": [
        {
          "internalType": "uint256",
          "name": "offerId",
          "type": "uint256"
        }
      ],
      "stateMutability": "payable",
      "type": "function"
    },
    {
      "inputs": [
        {
          "internalType": "contract IERC20",
          "name": "outbound_tkn",
          "type": "address"
        },
        {
          "internalType": "contract IERC20",
          "name": "inbound_tkn",
          "type": "address"
        },
        {
          "internalType": "uint256[]",
          "name": "offerIds",
          "type": "uint256[]"
        }
      ],
      "name": "offerOwners",
      "outputs": [
        {
          "internalType": "address[]",
          "name": "_offerOwners",
          "type": "address[]"
        }
      ],
      "stateMutability": "view",
      "type": "function"
    },
    {
      "inputs": [],
      "name": "ofr_gasreq",
      "outputs": [
        {
          "internalType": "uint256",
          "name": "",
          "type": "uint256"
        }
      ],
      "stateMutability": "view",
      "type": "function"
    },
    {
      "inputs": [
        {
          "internalType": "contract IERC20",
          "name": "outbound_tkn",
          "type": "address"
        },
        {
          "internalType": "contract IERC20",
          "name": "inbound_tkn",
          "type": "address"
        },
        {
          "internalType": "uint256",
          "name": "offerId",
          "type": "uint256"
        }
      ],
      "name": "ownerOf",
      "outputs": [
        {
          "internalType": "address",
          "name": "owner",
          "type": "address"
        }
      ],
      "stateMutability": "view",
      "type": "function"
    },
    {
      "inputs": [
        {
          "internalType": "contract IERC20",
          "name": "outbound_tkn",
          "type": "address"
        },
        {
          "internalType": "contract IERC20",
          "name": "inbound_tkn",
          "type": "address"
        },
        {
          "internalType": "uint256",
          "name": "offerId",
          "type": "uint256"
        },
        {
          "internalType": "bool",
          "name": "deprovision",
          "type": "bool"
        }
      ],
      "name": "retractOffer",
      "outputs": [
        {
          "internalType": "uint256",
          "name": "free_wei",
          "type": "uint256"
        }
      ],
      "stateMutability": "nonpayable",
      "type": "function"
    },
    {
      "inputs": [],
      "name": "router",
      "outputs": [
        {
          "internalType": "contract AbstractRouter",
          "name": "",
          "type": "address"
        }
      ],
      "stateMutability": "view",
      "type": "function"
    },
    {
      "inputs": [
        {
          "internalType": "address",
          "name": "_admin",
          "type": "address"
        }
      ],
      "name": "set_admin",
      "outputs": [],
      "stateMutability": "nonpayable",
      "type": "function"
    },
    {
      "inputs": [
        {
          "internalType": "uint256",
          "name": "gasreq",
          "type": "uint256"
        }
      ],
      "name": "set_gasreq",
      "outputs": [],
      "stateMutability": "nonpayable",
      "type": "function"
    },
    {
      "inputs": [
        {
          "internalType": "contract AbstractRouter",
          "name": "router_",
          "type": "address"
        }
      ],
      "name": "set_router",
      "outputs": [],
      "stateMutability": "nonpayable",
      "type": "function"
    },
    {
      "inputs": [
        {
          "internalType": "contract IERC20",
          "name": "token",
          "type": "address"
        }
      ],
      "name": "tokenBalance",
      "outputs": [
        {
          "internalType": "uint256",
          "name": "",
          "type": "uint256"
        }
      ],
      "stateMutability": "view",
      "type": "function"
    },
    {
      "inputs": [
        {
          "components": [
            {
              "internalType": "contract IERC20",
              "name": "outbound_tkn",
              "type": "address"
            },
            {
              "internalType": "contract IERC20",
              "name": "inbound_tkn",
              "type": "address"
            },
            {
              "internalType": "uint256",
              "name": "wants",
              "type": "uint256"
            },
            {
              "internalType": "uint256",
              "name": "gives",
              "type": "uint256"
            },
            {
              "internalType": "uint256",
              "name": "gasreq",
              "type": "uint256"
            },
            {
              "internalType": "uint256",
              "name": "gasprice",
              "type": "uint256"
            },
            {
              "internalType": "uint256",
              "name": "pivotId",
              "type": "uint256"
            },
            {
              "internalType": "uint256",
              "name": "offerId",
              "type": "uint256"
            }
          ],
          "internalType": "struct IOfferLogic.MakerOrder",
          "name": "mko",
          "type": "tuple"
        }
      ],
      "name": "updateOffer",
      "outputs": [],
      "stateMutability": "payable",
      "type": "function"
    },
    {
      "inputs": [
        {
          "internalType": "uint256",
          "name": "amount",
          "type": "uint256"
        },
        {
          "internalType": "address payable",
          "name": "receiver",
          "type": "address"
        }
      ],
      "name": "withdrawFromMangrove",
      "outputs": [],
      "stateMutability": "nonpayable",
      "type": "function"
    },
    {
      "inputs": [
        {
          "internalType": "contract IERC20",
          "name": "token",
          "type": "address"
        },
        {
          "internalType": "address",
          "name": "receiver",
          "type": "address"
        },
        {
          "internalType": "uint256",
          "name": "amount",
          "type": "uint256"
        }
      ],
      "name": "withdrawToken",
      "outputs": [
        {
          "internalType": "bool",
          "name": "success",
          "type": "bool"
        }
      ],
      "stateMutability": "nonpayable",
      "type": "function"
    },
    {
      "stateMutability": "payable",
      "type": "receive"
    }
  ],
  "bytecode": {
    "object": "0x60a06040523480156200001157600080fd5b50604051620044fb380380620044fb8339810160408190526200003491620005fe565b816040516200004390620005d7565b604051809103906000f08015801562000060573d6000803e3d6000fd5b5061753082813380620000ba5760405162461bcd60e51b815260206004820152601860248201527f616363657373436f6e74726f6c6c65642f307841646d696e000000000000000060448201526064015b60405180910390fd5b80620000d06200025560201b620019471760201c565b80546001600160a01b0319166001600160a01b03929092169190911790555062ffffff81168114620001455760405162461bcd60e51b815260206004820152601b60248201527f4d616e67726f76654f666665722f676173726571546f6f4869676800000000006044820152606401620000b1565b6001600160a01b038216608052806200016962000279602090811b6200196b17901c565b5550506001600160a01b038216620001b95760405162461bcd60e51b815260206004820152601260248201527126bab63a34aab9b2b917983c2937baba32b960711b6044820152606401620000b1565b620001c4826200029d565b5050506001600160a01b03811633146200024d57620001e38162000447565b620001ed62000542565b60405163e9333fab60e01b81526001600160a01b038381166004830152919091169063e9333fab90602401600060405180830381600087803b1580156200023357600080fd5b505af115801562000248573d6000803e3d6000fd5b505050505b50506200063d565b7f7d382ebca3e46505071795e192d28166a3d4bd0685585591bc6c5b8df6769fd290565b7fae7e31c3220e851db9f204a28b279dfe52b973600b0a456991089c220ae7222490565b620002a7620005b1565b6001600160a01b0316336001600160a01b03161480620002da57506080516001600160a01b0316336001600160a01b0316145b620003285760405162461bcd60e51b815260206004820152601860248201527f416363657373436f6e74726f6c6c65642f496e76616c696400000000000000006044820152606401620000b1565b6001600160a01b038116620003805760405162461bcd60e51b815260206004820152601c60248201527f6d67764f666665722f7365745f726f757465722f3078526f75746572000000006044820152606401620000b1565b80620003966200027960201b6200196b1760201c565b60010180546001600160a01b0319166001600160a01b039283161790556040516381bac14f60e01b8152306004820152908216906381bac14f90602401600060405180830381600087803b158015620003ee57600080fd5b505af115801562000403573d6000803e3d6000fd5b50506040516001600160a01b03841681527f6de4326a8b9054d72d9dbab97d27bc4edffadee7d966f5af9cc4eafdaf8e54559250602001905060405180910390a150565b62000451620005b1565b6001600160a01b0316336001600160a01b031614620004b35760405162461bcd60e51b815260206004820152601860248201527f416363657373436f6e74726f6c6c65642f496e76616c696400000000000000006044820152606401620000b1565b6001600160a01b0381166200050b5760405162461bcd60e51b815260206004820152601860248201527f416363657373436f6e74726f6c6c65642f307841646d696e00000000000000006044820152606401620000b1565b80620005216200025560201b620019471760201c565b80546001600160a01b0319166001600160a01b039290921691909117905550565b6000806200055a6200027960201b6200196b1760201c565b600101546001600160a01b0316905080620005ac5760405162461bcd60e51b815260206004820152601160248201527036b3bb27b33332b917983c2937baba32b960791b6044820152606401620000b1565b919050565b6000620005c86200025560201b620019471760201c565b546001600160a01b0316919050565b61100480620034f783390190565b6001600160a01b0381168114620005fb57600080fd5b50565b600080604083850312156200061257600080fd5b82516200061f81620005e5565b60208401519092506200063281620005e5565b809150509250929050565b608051612dfd620006fa60003960008181610282015281816105ff015281816106b7015281816107c401528181610935015281816109c701528181610b8401528181610cac01528181610d6201528181610e28015281816110ad015281816112b901528181611345015281816114bb0152818161187b01528181611a9301528181611b3901528181611bb701528181611e4001528181611fc1015281816122530152818161237501528181612651015261283d0152612dfd6000f3fe6080604052600436106101445760003560e01c8063ad97db1b116100b6578063eedc966a1161006f578063eedc966a1461039e578063f259cd27146103be578063f851a440146103de578063f887ea40146103f3578063f92495e514610408578063fc488a381461042857600080fd5b8063ad97db1b146102dc578063d1baa1ef146102fc578063db11851e14610311578063dec8c86b14610331578063e4c34f841461035e578063e9333fab1461037e57600080fd5b80635486c95f116101085780635486c95f146101fa5780636c49c32c1461021b5780637144df241461023b57806384b627f91461025b57806399fa5e2d146102705780639f2211cb146102bc57600080fd5b806301e336671461015057806303eb17e21461018557806310aded60146101a75780633d3d130d146101ba5780635293840d146101da57600080fd5b3661014b57005b600080fd5b34801561015c57600080fd5b5061017061016b366004612892565b610448565b60405190151581526020015b60405180910390f35b34801561019157600080fd5b506101a56101a036600461291f565b610545565b005b6101a56101b5366004612961565b610596565b3480156101c657600080fd5b506101a56101d5366004612987565b6105fd565b3480156101e657600080fd5b506101a56101f536600461291f565b61071b565b61020d610208366004612961565b61079f565b60405190815260200161017c565b34801561022757600080fd5b5061020d6102363660046129ca565b6107c0565b34801561024757600080fd5b506101a56102563660046129e7565b6108df565b34801561026757600080fd5b50610170610b4e565b34801561027c57600080fd5b506102a47f000000000000000000000000000000000000000000000000000000000000000081565b6040516001600160a01b03909116815260200161017c565b3480156102c857600080fd5b506101a56102d7366004612a17565b610b6d565b3480156102e857600080fd5b5061020d6102f7366004612a42565b610c4d565b34801561030857600080fd5b5061020d610fe2565b34801561031d57600080fd5b506101a561032c366004612a17565b611080565b34801561033d57600080fd5b5061035161034c366004612a95565b6111fa565b60405161017c9190612afa565b34801561036a57600080fd5b5061020d610379366004612b47565b6112ab565b34801561038a57600080fd5b506101a5610399366004612a17565b61155d565b3480156103aa57600080fd5b5061020d6103b9366004612a17565b611615565b3480156103ca57600080fd5b506101a56103d9366004612a17565b61168d565b3480156103ea57600080fd5b506102a4611762565b3480156103ff57600080fd5b506102a461177b565b34801561041457600080fd5b506102a4610423366004612892565b6117db565b34801561043457600080fd5b506101a5610443366004612b98565b61184e565b60006001600160a01b0383166104b05760405162461bcd60e51b815260206004820152602260248201527f4d756c7469557365722f7769746864726177546f6b656e2f307852656365697660448201526132b960f11b60648201526084015b60405180910390fd5b6104b861177b565b6040516310baa6cf60e11b81526001600160a01b03868116600483015233602483015285811660448301526064820185905291909116906321754d9e906084016020604051808303816000875af1158015610517573d6000803e3d6000fd5b505050506040513d601f19601f8201168201806040525081019061053b9190612bb1565b90505b9392505050565b60005b818110156105915761057f83838381811061056557610565612bce565b905060200201602081019061057a9190612a17565b61198f565b8061058981612bfa565b915050610548565b505050565b6105ae6105a836839003830183612c29565b346119fd565b6105fa5760405162461bcd60e51b815260206004820152601960248201527f4d756c7469557365722f7570646174654f666665724661696c0000000000000060448201526064016104a7565b50565b7f00000000000000000000000000000000000000000000000000000000000000006001600160a01b038116158061063c5750336001600160a01b038216145b6106585760405162461bcd60e51b81526004016104a790612cd5565b81602001356f6d67762f74726164655375636365737360801b0361067f5760015b50505050565b604083018035906106939060208601612a17565b6001600160a01b03166106a96020860186612a17565b604080516001600160a01b037f0000000000000000000000000000000000000000000000000000000000000000811682528735602083015292909216917f736a3993b9f8b1c5603896c76376792887f376b1fe7fc981e09a16530bf1e4e0910160405180910390a46106798383611f43565b610723611762565b6001600160a01b0316336001600160a01b0316146107535760405162461bcd60e51b81526004016104a790612cd5565b60005b818110156105915761078d83838381811061077357610773612bce565b90506020020160208101906107889190612a17565b6121a7565b8061079781612bfa565b915050610756565b60006107ba6107b336849003840184612c29565b333461222e565b92915050565b60007f00000000000000000000000000000000000000000000000000000000000000006001600160a01b03811615806108015750336001600160a01b038216145b61081d5760405162461bcd60e51b81526004016104a790612cd5565b600061082d8460a0013585612491565b111561087b5760405162461bcd60e51b815260206004820152601860248201527f6d67764f666665722f61626f72742f7075744661696c6564000000000000000060448201526064016104a7565b600061088b84608001358561254a565b11156108d95760405162461bcd60e51b815260206004820152601860248201527f6d67764f666665722f61626f72742f6765744661696c6564000000000000000060448201526064016104a7565b50919050565b6108e7611762565b6001600160a01b0316336001600160a01b0316146109175760405162461bcd60e51b81526004016104a790612cd5565b60001982036109b1576040516370a0823160e01b81523060048201527f00000000000000000000000000000000000000000000000000000000000000006001600160a01b0316906370a0823190602401602060405180830381865afa158015610984573d6000803e3d6000fd5b505050506040513d601f19601f820116820180604052508101906109a89190612d0c565b91508115610b4a575b604051632e1a7d4d60e01b8152600481018390527f00000000000000000000000000000000000000000000000000000000000000006001600160a01b031690632e1a7d4d906024016020604051808303816000875af1158015610a18573d6000803e3d6000fd5b505050506040513d601f19601f82011682018060405250810190610a3c9190612bb1565b610a965760405162461bcd60e51b815260206004820152602560248201527f6d67764f666665722f776974686472617746726f6d4d67762f776974686472616044820152641dd1985a5b60da1b60648201526084016104a7565b6000816001600160a01b03168360405160006040518083038185875af1925050503d8060008114610ae3576040519150601f19603f3d011682016040523d82523d6000602084013e610ae8565b606091505b50509050806105915760405162461bcd60e51b815260206004820152602860248201527f6d67764f666665722f776974686472617746726f6d4d67762f70617961626c6560448201526710d85b1b11985a5b60c21b60648201526084016104a7565b5050565b600080610b5961196b565b600101546001600160a01b03161415919050565b60405163095ea7b360e01b81526001600160a01b037f000000000000000000000000000000000000000000000000000000000000000081166004830152600019602483015282169063095ea7b3906044016020604051808303816000875af1158015610bdd573d6000803e3d6000fd5b505050506040513d601f19601f82011682018060405250810190610c019190612bb1565b6105fa5760405162461bcd60e51b815260206004820152601d60248201527f6d67764f666665722f617070726f76654d616e67726f76652f4661696c00000060448201526064016104a7565b6001600160a01b03848116600090815260208181526040808320878516845282528083208684528252808320815180830190925254938416808252600160a01b9094046001600160601b0316918101919091529091331480610cd757507f00000000000000000000000000000000000000000000000000000000000000006001600160a01b031633145b610d235760405162461bcd60e51b815260206004820152601f60248201527f4d756c74692f726574726163744f666665722f756e617574686f72697a65640060448201526064016104a7565b60208101516001600160601b031615610d585782610d42576000610d48565b80602001515b6001600160601b03169150610e0c565b6001600160a01b037f00000000000000000000000000000000000000000000000000000000000000001663ad97db1b87876040516001600160e01b031960e085901b1681526001600160a01b039283166004820152911660248201526044810187905285151560648201526084016020604051808303816000875af1158015610de5573d6000803e3d6000fd5b505050506040513d601f19601f82011682018060405250810190610e099190612d0c565b91505b8115610fd957604051632e1a7d4d60e01b8152600481018390527f00000000000000000000000000000000000000000000000000000000000000006001600160a01b031690632e1a7d4d906024016020604051808303816000875af1158015610e79573d6000803e3d6000fd5b505050506040513d601f19601f82011682018060405250810190610e9d9190612bb1565b610ee25760405162461bcd60e51b8152602060048201526016602482015275135d5b1d1a555cd95c8bddda5d1a191c985dd1985a5b60521b60448201526064016104a7565b60408051808201825282516001600160a01b039081168252600060208084018281528b841683528282528583208b8516845282528583208a8452909152848220935190516001600160601b0316600160a01b0292169190911790915590513390849060006040518083038185875af1925050503d8060008114610f81576040519150601f19603f3d011682016040523d82523d6000602084013e610f86565b606091505b5050905080610fd75760405162461bcd60e51b815260206004820152601960248201527f4d756c7469557365722f7765695472616e736665724661696c0000000000000060448201526064016104a7565b505b50949350505050565b6000610fec610b4e565b1561107257610ff961177b565b6001600160a01b0316630417ffda6040518163ffffffff1660e01b8152600401602060405180830381865afa158015611036573d6000803e3d6000fd5b505050506040513d601f19601f8201168201806040525081019061105a9190612d0c565b61106261196b565b5461106d9190612d25565b905090565b61107a61196b565b54919050565b611088611762565b6001600160a01b0316336001600160a01b031614806110cf5750336001600160a01b037f000000000000000000000000000000000000000000000000000000000000000016145b6110eb5760405162461bcd60e51b81526004016104a790612cd5565b6001600160a01b0381166111415760405162461bcd60e51b815260206004820152601c60248201527f6d67764f666665722f7365745f726f757465722f3078526f757465720000000060448201526064016104a7565b8061114a61196b565b60010180546001600160a01b0319166001600160a01b039283161790556040516381bac14f60e01b8152306004820152908216906381bac14f90602401600060405180830381600087803b1580156111a157600080fd5b505af11580156111b5573d6000803e3d6000fd5b50506040516001600160a01b03841681527f6de4326a8b9054d72d9dbab97d27bc4edffadee7d966f5af9cc4eafdaf8e5455925060200190505b60405180910390a150565b60608167ffffffffffffffff81111561121557611215612c13565b60405190808252806020026020018201604052801561123e578160200160208202803683370190505b50905060005b82811015610fd95761126f868686868581811061126357611263612bce565b905060200201356117db565b82828151811061128157611281612bce565b6001600160a01b0390921660209283029190910190910152806112a381612bfa565b915050611244565b600080806001600160a01b037f00000000000000000000000000000000000000000000000000000000000000001663cbf75c9a89896040518363ffffffff1660e01b81526004016112fd929190612d3d565b6040805180830381865afa158015611319573d6000803e3d6000fd5b505050506040513d601f19601f8201168201806040525081019061133d9190612d57565b9150915060007f00000000000000000000000000000000000000000000000000000000000000006001600160a01b0316635722647b6113798b90565b8a6040516001600160e01b031960e085901b1681526001600160a01b0392831660048201529116602482015260448101889052606401602060405180830381865afa1580156113cc573d6000803e3d6000fd5b505050506040513d601f19601f820116820180604052508101906113f09190612d0c565b9050600086604085901c61ffff161115611413575061ffff604084901c16611416565b50855b62ffffff881061142b57611428610fe2565b97505b60008161144162ffffff606087901c168b612d25565b61144b9190612d7b565b61145990633b9aca00612d7b565b9050600061ffff602085901c1661148062ffffff603087901c811690604888901c16612d25565b61148a9190612d7b565b61149890633b9aca00612d7b565b6040516370a0823160e01b81523060048201529091506000906001600160a01b037f000000000000000000000000000000000000000000000000000000000000000016906370a0823190602401602060405180830381865afa158015611502573d6000803e3d6000fd5b505050506040513d601f19601f820116820180604052508101906115269190612d0c565b6115309083612d25565b905082811015611549576115448184612d9a565b61154c565b60005b9d9c50505050505050505050505050565b611565611762565b6001600160a01b0316336001600160a01b0316146115955760405162461bcd60e51b81526004016104a790612cd5565b6001600160a01b0381166115eb5760405162461bcd60e51b815260206004820152601860248201527f416363657373436f6e74726f6c6c65642f307841646d696e000000000000000060448201526064016104a7565b806115f4611947565b80546001600160a01b0319166001600160a01b039290921691909117905550565b600061161f61177b565b6001600160a01b03166305684fde83336040518363ffffffff1660e01b815260040161164c929190612d3d565b602060405180830381865afa158015611669573d6000803e3d6000fd5b505050506040513d601f19601f820116820180604052508101906107ba9190612d0c565b806001600160a01b031663095ea7b36116a461177b565b6040516001600160e01b031960e084901b1681526001600160a01b03909116600482015260001960248201526044016020604051808303816000875af11580156116f2573d6000803e3d6000fd5b505050506040513d601f19601f820116820180604052508101906117169190612bb1565b6105fa5760405162461bcd60e51b815260206004820152601b60248201527f6d67764f666665722f617070726f7665526f757465722f4661696c000000000060448201526064016104a7565b600061176c611947565b546001600160a01b0316919050565b60008061178661196b565b600101546001600160a01b03169050806117d65760405162461bcd60e51b815260206004820152601160248201527036b3bb27b33332b917983c2937baba32b960791b60448201526064016104a7565b919050565b6001600160a01b0380841660009081526020818152604080832086851684528252808320858452909152902054168061053e5760405162461bcd60e51b815260206004820152601560248201527436bab63a34aab9b2b917bab735b7bbb727b33332b960591b60448201526064016104a7565b611856611762565b6001600160a01b0316336001600160a01b0316148061189d5750336001600160a01b037f000000000000000000000000000000000000000000000000000000000000000016145b6118b95760405162461bcd60e51b81526004016104a790612cd5565b808162ffffff161461190d5760405162461bcd60e51b815260206004820152601860248201527f6d67764f666665722f6761737265712f6f766572666c6f77000000000000000060448201526064016104a7565b8061191661196b565b556040518181527fafef3ad374c0b972e3c793be825735801fa05cc4c67157d98d9a111b4027988d906020016111ef565b7f7d382ebca3e46505071795e192d28166a3d4bd0685585591bc6c5b8df6769fd290565b7fae7e31c3220e851db9f204a28b279dfe52b973600b0a456991089c220ae7222490565b61199761177b565b6001600160a01b031663a01dccd882336040518363ffffffff1660e01b81526004016119c4929190612d3d565b60006040518083038186803b1580156119dc57600080fd5b505afa1580156119f0573d6000803e3d6000fd5b505050506105fa81612628565b81516001600160a01b039081166000908152602081815260408083208287015185168452825280832060e0870151845282528083208151808301835290549485168152600160a01b9094046001600160601b031684830152805160808101825283815291820183905281018290526060810182905290919081516001600160a01b0316331480611ab55750336001600160a01b037f000000000000000000000000000000000000000000000000000000000000000016145b611b015760405162461bcd60e51b815260206004820152601e60248201527f4d756c74692f7570646174654f666665722f756e617574686f72697a6564000060448201526064016104a7565b8451602086015160e0870151604051635722647b60e01b81526001600160a01b039384166004820152918316602483015260448201527f000000000000000000000000000000000000000000000000000000000000000090911690635722647b90606401602060405180830381865afa158015611b82573d6000803e3d6000fd5b505050506040513d601f19601f82011682018060405250810190611ba69190612d0c565b604082015284516001600160a01b037f0000000000000000000000000000000000000000000000000000000000000000169063cbf75c9a9060208801516040518363ffffffff1660e01b8152600401611c00929190612d3d565b6040805180830381865afa158015611c1c573d6000803e3d6000fd5b505050506040513d601f19601f82011682018060405250810190611c409190612d57565b6020830152815260608101849052608085015162ffffff10611c66578460800151611c6e565b611c6e610fe2565b6080860152604081015160201c61ffff1660a08601819052600003611d505760208201516001600160601b031615611d265781602001516001600160601b031681606001818151611cbf9190612d25565b90525060408051808201825283516001600160a01b039081168252600060208084018281528a51841683528282528583208b83015185168452825285832060e08c01518452909152939020915192516001600160601b0316600160a01b0292169190911790555b60808501516060808301516020840151611d4693921c62ffffff16612716565b60a0860152611dd1565b8315611dd157602081015160601c62ffffff16604082015160481c62ffffff16611d7a9190612d25565b60a0860151611d8d90633b9aca00612d7b565b611d979190612d7b565b81606001818151611da89190612d25565b90525060808501516060808301516020840151611dcb93921c62ffffff16612716565b60a08601525b805160401c61ffff168560a001511015611e3e5760405162461bcd60e51b815260206004820152602860248201527f4d756c7469557365722f7570646174654f666665722f4e6f74456e6f756768506044820152673937bb34b9b4b7b760c11b60648201526084016104a7565b7f00000000000000000000000000000000000000000000000000000000000000006001600160a01b0316636a4f769185611e79886000015190565b602089015189604001518a606001518b608001518c60a001518d60c001518e60e001516040518a63ffffffff1660e01b8152600401611efe9897969594939291906001600160a01b03988916815296909716602087015260408601949094526060850192909252608084015260a083015260c082015260e08101919091526101000190565b6000604051808303818588803b158015611f1757600080fd5b505af193505050508015611f29575060015b611f38576000925050506107ba565b506001949350505050565b600080611f536020850185612a17565b90506000611f676040860160208701612a17565b6001600160a01b03838116600090815260208181526040808320858516845282528083208a820135845282528083208151808301909252548085168252600160a01b90046001600160601b031681830152939450909182917f00000000000000000000000000000000000000000000000000000000000000009091169063cbf75c9a90611ff6908b018b612a17565b61200660408c0160208d01612a17565b6040518363ffffffff1660e01b8152600401612023929190612d3d565b6040805180830381865afa15801561203f573d6000803e3d6000fd5b505050506040513d601f19601f820116820180604052508101906120639190612d57565b9092509050600061208061ffff604085901c16633b9aca00612d7b565b9050600060c08a013560301c62ffffff1660c08b013560481c62ffffff166120a89190612d25565b6120c161ffff60c08d013560201c16633b9aca00612d7b565b6120cb9190612d7b565b9050600082606085901c62ffffff165a60c08e013560481c62ffffff166120f29190612d9a565b6120fe90610bb8612d25565b6121089190612d25565b6121129190612d7b565b905060008282101561212d576121288284612d9a565b612130565b60005b60408051808201825298516001600160a01b039081168a526001600160601b039283166020808c019182529c82166000908152808e528381209c831681529b8d52828c209f8301358c529e909b5290982096519b51909716600160a01b029a90971699909917909355506001979650505050505050565b6121b081610b6d565b6121b8610b4e565b156105fa576121c68161168d565b6121ce61177b565b604051630716a76760e21b81526001600160a01b0383811660048301529190911690631c5a9d9c90602401600060405180830381600087803b15801561221357600080fd5b505af1158015612227573d6000803e3d6000fd5b5050505050565b825160208401516040516365fbae4d60e11b8152600092839283926001600160a01b037f0000000000000000000000000000000000000000000000000000000000000000169263cbf75c9a9261228692600401612d3d565b6040805180830381865afa1580156122a2573d6000803e3d6000fd5b505050506040513d601f19601f820116820180604052508101906122c69190612d57565b9150915062ffffff80168660800151116122e45785608001516122ec565b6122ec610fe2565b608087018190526123079085606084901c62ffffff16612716565b60a0870181905261ffff604084901c1611156123735760405162461bcd60e51b815260206004820152602560248201527f4d756c7469557365722f6e65774f666665722f4e6f74456e6f75676850726f7660448201526434b9b4b7b760d91b60648201526084016104a7565b7f00000000000000000000000000000000000000000000000000000000000000006001600160a01b03166349f6d2dc856123ae896000015190565b60208a01518a604001518b606001518c608001518d60a001518e60c001516040518963ffffffff1660e01b815260040161242797969594939291906001600160a01b03978816815295909616602086015260408501939093526060840191909152608083015260a082015260c081019190915260e00190565b60206040518083038185885af1158015612445573d6000803e3d6000fd5b50505050506040513d601f19601f8201168201806040525081019061246a9190612d0c565b60e087018190528651602088015161248292886127b1565b50505060e08301519392505050565b6000806124a16020840184612a17565b905060006124b56040850160208601612a17565b905060006124c8838387604001356117db565b90506124d261177b565b60405163137476d160e11b81526001600160a01b03848116600483015283811660248301526044820189905291909116906326e8eda290606401600060405180830381600087803b15801561252657600080fd5b505af115801561253a573d6000803e3d6000fd5b5060009998505050505050505050565b60008061255a6020840184612a17565b9050600061256e6040850160208601612a17565b90506000612581838387604001356117db565b9050600061258d61177b565b60405163333dbb0d60e01b81526001600160a01b0386811660048301528481166024830152604482018a905260016064830152919091169063333dbb0d906084016020604051808303816000875af11580156125ed573d6000803e3d6000fd5b505050506040513d601f19601f820116820180604052508101906126119190612d0c565b905061261d8188612d9a565b979650505050505050565b604051636eb1769f60e11b81526000906001600160a01b0383169063dd62ed3e906126799030907f000000000000000000000000000000000000000000000000000000000000000090600401612d3d565b602060405180830381865afa158015612696573d6000803e3d6000fd5b505050506040513d601f19601f820116820180604052508101906126ba9190612d0c565b116105fa5760405162461bcd60e51b815260206004820152602660248201527f4d616e67726f76654f666665722f41646d696e4d757374417070726f76654d616044820152656e67726f766560d01b60648201526084016104a7565b6000806127238584612d25565b61273190633b9aca00612d7b565b9050808410156127985760405162461bcd60e51b815260206004820152602c60248201527f4d756c7469557365722f6465726976655f67617370726963652f4e6f74456e6f60448201526b3ab3b4283937bb34b9b4b7b760a11b60648201526084016104a7565b8084816127a7576127a7612db1565b0495945050505050565b6040805180820182526001600160a01b038084168252600060208084018281528984168084528383528684208a86168086529084528785208a865290935292869020945190516001600160601b0316600160a01b029316929092179092559151849291907f460a431c86ecaea27134277388c72021356689d9eb62c3b25a5e4a97da7a8a1490612864907f0000000000000000000000000000000000000000000000000000000000000000908790612d3d565b60405180910390a450505050565b6001600160a01b03811681146105fa57600080fd5b80356117d681612872565b6000806000606084860312156128a757600080fd5b83356128b281612872565b925060208401356128c281612872565b929592945050506040919091013590565b60008083601f8401126128e557600080fd5b50813567ffffffffffffffff8111156128fd57600080fd5b6020830191508360208260051b850101111561291857600080fd5b9250929050565b6000806020838503121561293257600080fd5b823567ffffffffffffffff81111561294957600080fd5b612955858286016128d3565b90969095509350505050565b600061010082840312156108d957600080fd5b600061012082840312156108d957600080fd5b60008082840361016081121561299c57600080fd5b6129a68585612974565b9250604061011f19820112156129bb57600080fd5b50610120830190509250929050565b600061012082840312156129dd57600080fd5b61053e8383612974565b600080604083850312156129fa57600080fd5b823591506020830135612a0c81612872565b809150509250929050565b600060208284031215612a2957600080fd5b813561053e81612872565b80151581146105fa57600080fd5b60008060008060808587031215612a5857600080fd5b8435612a6381612872565b93506020850135612a7381612872565b9250604085013591506060850135612a8a81612a34565b939692955090935050565b60008060008060608587031215612aab57600080fd5b8435612ab681612872565b93506020850135612ac681612872565b9250604085013567ffffffffffffffff811115612ae257600080fd5b612aee878288016128d3565b95989497509550505050565b6020808252825182820181905260009190848201906040850190845b81811015612b3b5783516001600160a01b031683529284019291840191600101612b16565b50909695505050505050565b600080600080600060a08688031215612b5f57600080fd5b8535612b6a81612872565b94506020860135612b7a81612872565b94979496505050506040830135926060810135926080909101359150565b600060208284031215612baa57600080fd5b5035919050565b600060208284031215612bc357600080fd5b815161053e81612a34565b634e487b7160e01b600052603260045260246000fd5b634e487b7160e01b600052601160045260246000fd5b600060018201612c0c57612c0c612be4565b5060010190565b634e487b7160e01b600052604160045260246000fd5b6000610100808385031215612c3d57600080fd5b6040519081019067ffffffffffffffff82118183101715612c6e57634e487b7160e01b600052604160045260246000fd5b81604052612c7b84612887565b8152612c8960208501612887565b602082015260408401356040820152606084013560608201526080840135608082015260a084013560a082015260c084013560c082015260e084013560e0820152809250505092915050565b60208082526018908201527f416363657373436f6e74726f6c6c65642f496e76616c69640000000000000000604082015260600190565b600060208284031215612d1e57600080fd5b5051919050565b60008219821115612d3857612d38612be4565b500190565b6001600160a01b0392831681529116602082015260400190565b60008060408385031215612d6a57600080fd5b505080516020909101519092909150565b6000816000190483118215151615612d9557612d95612be4565b500290565b600082821015612dac57612dac612be4565b500390565b634e487b7160e01b600052601260045260246000fdfea264697066735822122052c8997fb674788ef7535c5724e373b5fce220468345d79047fe428a5f688d0c64736f6c634300080e0033608060405234801561001057600080fd5b5061c35033806100675760405162461bcd60e51b815260206004820152601860248201527f616363657373436f6e74726f6c6c65642f307841646d696e000000000000000060448201526064015b60405180910390fd5b8061007a61010a60201b6107e51760201c565b80546001600160a01b0319166001600160a01b03929092169190911790555062ffffff811681146100ed5760405162461bcd60e51b815260206004820152601660248201527f526f757465722f6f76657268656164546f6f4869676800000000000000000000604482015260640161005e565b8061010061012e60201b6108091760201c565b6001015550610152565b7f7d382ebca3e46505071795e192d28166a3d4bd0685585591bc6c5b8df6769fd290565b7ff2910982afb88211fa9894801aaf0314409ca240a0a8904897b9f5ba323ca53390565b610ea3806101616000396000f3fe608060405234801561001057600080fd5b50600436106100cf5760003560e01c8063362aecb11161008c578063cf5e7bd311610066578063cf5e7bd314610199578063e9333fab146101ac578063f850a81c146101bf578063f851a440146101d257600080fd5b8063362aecb11461016057806381bac14f14610173578063a01dccd81461018657600080fd5b80630417ffda146100d457806305684fde146100ef5780631c5a9d9c1461010257806321754d9e1461011757806326e8eda21461013a578063333dbb0d1461014d575b600080fd5b6100dc6101f2565b6040519081526020015b60405180910390f35b6100dc6100fd366004610bc3565b610205565b610115610110366004610bfc565b61027a565b005b61012a610125366004610c19565b6102cd565b60405190151581526020016100e6565b610115610148366004610c6a565b61030b565b6100dc61015b366004610cb9565b610341565b61012a61016e366004610bfc565b6103fd565b610115610181366004610bfc565b610429565b610115610194366004610bc3565b6104a7565b6101156101a7366004610bfc565b61057d565b6101156101ba366004610bfc565b6105ce565b6101156101cd366004610d0c565b6106b6565b6101da6107cc565b6040516001600160a01b0390911681526020016100e6565b60006101fc610809565b60010154905090565b6040516370a0823160e01b81526001600160a01b038281166004830152600091908416906370a0823190602401602060405180830381865afa15801561024f573d6000803e3d6000fd5b505050506040513d601f19601f820116820180604052508101906102739190610d92565b9392505050565b6102826107cc565b6001600160a01b0316336001600160a01b031614806102a557506102a5336103fd565b6102ca5760405162461bcd60e51b81526004016102c190610dab565b60405180910390fd5b50565b60006102d8336103fd565b6102f45760405162461bcd60e51b81526004016102c190610dab565b6103008585858561082d565b90505b949350505050565b610314336103fd565b6103305760405162461bcd60e51b81526004016102c190610dab565b61033c8383338461083b565b505050565b600061034c336103fd565b6103685760405162461bcd60e51b81526004016102c190610dab565b6040516370a0823160e01b81523360048201526000906001600160a01b038716906370a0823190602401602060405180830381865afa1580156103af573d6000803e3d6000fd5b505050506040513d601f19601f820116820180604052508101906103d39190610d92565b90508381106103e6576000915050610303565b6103f38686338787610893565b9695505050505050565b6000610407610809565b6001600160a01b03909216600090815260209290925250604090205460ff1690565b6104316107cc565b6001600160a01b0316336001600160a01b031614806104545750610454336103fd565b6104705760405162461bcd60e51b81526004016102c190610dab565b600161047a610809565b6001600160a01b039290921660009081526020929092526040909120805460ff1916911515919091179055565b604051636eb1769f60e11b81523360048201523060248201526000906001600160a01b0384169063dd62ed3e90604401602060405180830381865afa1580156104f4573d6000803e3d6000fd5b505050506040513d601f19601f820116820180604052508101906105189190610d92565b1161056f5760405162461bcd60e51b815260206004820152602160248201527f526f757465722f4e6f74417070726f76656442794d616b6572436f6e747261636044820152601d60fa1b60648201526084016102c1565b61057982826108ba565b5050565b6105856107cc565b6001600160a01b0316336001600160a01b031614806105a857506105a8336103fd565b6105c45760405162461bcd60e51b81526004016102c190610dab565b600061047a610809565b6105d66107cc565b6001600160a01b0316336001600160a01b0316146106365760405162461bcd60e51b815260206004820152601860248201527f416363657373436f6e74726f6c6c65642f496e76616c6964000000000000000060448201526064016102c1565b6001600160a01b03811661068c5760405162461bcd60e51b815260206004820152601860248201527f416363657373436f6e74726f6c6c65642f307841646d696e000000000000000060448201526064016102c1565b806106956107e5565b80546001600160a01b0319166001600160a01b039290921691909117905550565b6106bf336103fd565b6106db5760405162461bcd60e51b81526004016102c190610dab565b60005b828110156107c65760008484838181106106fa576106fa610dd8565b905060200201602081019061070f9190610bfc565b6040516370a0823160e01b81523360048201526001600160a01b0391909116906370a0823190602401602060405180830381865afa158015610755573d6000803e3d6000fd5b505050506040513d601f19601f820116820180604052508101906107799190610d92565b905080156107b3576107b385858481811061079657610796610dd8565b90506020020160208101906107ab9190610bfc565b84338461083b565b50806107be81610dee565b9150506106de565b50505050565b60006107d66107e5565b546001600160a01b0316919050565b7f7d382ebca3e46505071795e192d28166a3d4bd0685585591bc6c5b8df6769fd290565b7ff2910982afb88211fa9894801aaf0314409ca240a0a8904897b9f5ba323ca53390565b600061030085858585610998565b61084784838584610998565b6107c65760405162461bcd60e51b815260206004820152601e60248201527f53696d706c65526f757465722f707573682f7472616e736665724661696c000060448201526064016102c1565b60006108a186868686610998565b156108ad5750816108b1565b5060005b95945050505050565b6001600160a01b0381163014806109425750604051636eb1769f60e11b81526001600160a01b0382811660048301523060248301526000919084169063dd62ed3e90604401602060405180830381865afa15801561091c573d6000803e3d6000fd5b505050506040513d601f19601f820116820180604052508101906109409190610d92565b115b6105795760405162461bcd60e51b815260206004820152602160248201527f53696d706c65526f757465722f4e6f74417070726f76656442795265736572766044820152606560f81b60648201526084016102c1565b60008115806109b85750826001600160a01b0316846001600160a01b0316145b156109c557506001610303565b306001600160a01b038516036109e7576109e0858484610ac2565b9050610303565b604080516001600160a01b0386811660248301528581166044830152606480830186905283518084039091018152608490920183526020820180516001600160e01b03166323b872dd60e01b1790529151600092839290891691610a4b9190610e15565b6000604051808303816000865af19150503d8060008114610a88576040519150601f19603f3d011682016040523d82523d6000602084013e610a8d565b606091505b5091509150818015610ab7575080511580610ab7575080806020019051810190610ab79190610e50565b979650505050505050565b6000811580610ad957506001600160a01b03831630145b15610ae657506001610273565b604080516001600160a01b038581166024830152604480830186905283518084039091018152606490920183526020820180516001600160e01b031663a9059cbb60e01b1790529151600092839290881691610b429190610e15565b6000604051808303816000865af19150503d8060008114610b7f576040519150601f19603f3d011682016040523d82523d6000602084013e610b84565b606091505b50915091508180156103f35750805115806103f35750808060200190518101906103f39190610e50565b6001600160a01b03811681146102ca57600080fd5b60008060408385031215610bd657600080fd5b8235610be181610bae565b91506020830135610bf181610bae565b809150509250929050565b600060208284031215610c0e57600080fd5b813561027381610bae565b60008060008060808587031215610c2f57600080fd5b8435610c3a81610bae565b93506020850135610c4a81610bae565b92506040850135610c5a81610bae565b9396929550929360600135925050565b600080600060608486031215610c7f57600080fd5b8335610c8a81610bae565b92506020840135610c9a81610bae565b929592945050506040919091013590565b80151581146102ca57600080fd5b60008060008060808587031215610ccf57600080fd5b8435610cda81610bae565b93506020850135610cea81610bae565b9250604085013591506060850135610d0181610cab565b939692955090935050565b600080600060408486031215610d2157600080fd5b833567ffffffffffffffff80821115610d3957600080fd5b818601915086601f830112610d4d57600080fd5b813581811115610d5c57600080fd5b8760208260051b8501011115610d7157600080fd5b60209283019550935050840135610d8781610bae565b809150509250925092565b600060208284031215610da457600080fd5b5051919050565b602080825260139082015272149bdd5d195c8bdd5b985d5d1a1bdc9a5e9959606a1b604082015260600190565b634e487b7160e01b600052603260045260246000fd5b600060018201610e0e57634e487b7160e01b600052601160045260246000fd5b5060010190565b6000825160005b81811015610e365760208186018101518583015201610e1c565b81811115610e45576000828501525b509190910192915050565b600060208284031215610e6257600080fd5b815161027381610cab56fea2646970667358221220f4e191b1be5a22571f21b2f90ceb3d6b24b8d7face090b8958379a401d212a0264736f6c634300080e0033",
    "linkReferences": {}
  },
  "methodIdentifiers": {
    "MGV()": "99fa5e2d",
    "activate(address[])": "5293840d",
    "admin()": "f851a440",
    "approveMangrove(address)": "9f2211cb",
    "approveRouter(address)": "f259cd27",
    "checkList(address[])": "03eb17e2",
    "getMissingProvision(address,address,uint256,uint256,uint256)": "e4c34f84",
    "has_router()": "84b627f9",
    "makerExecute((address,address,uint256,uint256,uint256,uint256,uint256,uint256,uint256))": "6c49c32c",
    "makerPosthook((address,address,uint256,uint256,uint256,uint256,uint256,uint256,uint256),(bytes32,bytes32))": "3d3d130d",
    "newOffer((address,address,uint256,uint256,uint256,uint256,uint256,uint256))": "5486c95f",
    "offerOwners(address,address,uint256[])": "dec8c86b",
    "ofr_gasreq()": "d1baa1ef",
    "ownerOf(address,address,uint256)": "f92495e5",
    "retractOffer(address,address,uint256,bool)": "ad97db1b",
    "router()": "f887ea40",
    "set_admin(address)": "e9333fab",
    "set_gasreq(uint256)": "fc488a38",
    "set_router(address)": "db11851e",
    "tokenBalance(address)": "eedc966a",
    "updateOffer((address,address,uint256,uint256,uint256,uint256,uint256,uint256))": "10aded60",
    "withdrawFromMangrove(uint256,address)": "7144df24",
    "withdrawToken(address,address,uint256)": "01e33667"
  },
  "id": 43
}