{
  "abi": [
    {
      "inputs": [
        {
          "internalType": "contract IPool",
          "name": "pool",
          "type": "address"
        },
        {
          "internalType": "contract IPriceOracleGetter",
          "name": "oracle",
          "type": "address"
        }
      ],
      "stateMutability": "nonpayable",
      "type": "constructor"
    },
    {
      "inputs": [
        {
          "internalType": "address",
          "name": "asset",
          "type": "address"
        },
        {
          "internalType": "bool",
          "name": "tryBorrow",
          "type": "bool"
        },
        {
          "internalType": "address",
          "name": "onBehalf",
          "type": "address"
        }
      ],
      "name": "$maxGettableUnderlying",
      "outputs": [
        {
          "internalType": "uint256",
          "name": "",
          "type": "uint256"
        },
        {
          "internalType": "uint256",
          "name": "",
          "type": "uint256"
        }
      ],
      "stateMutability": "view",
      "type": "function"
    },
    {
      "inputs": [
        {
          "internalType": "uint256",
          "name": "interestRateMode",
          "type": "uint256"
        },
        {
          "internalType": "uint256",
          "name": "referralCode",
          "type": "uint256"
        },
        {
          "internalType": "contract IERC20",
          "name": "token",
          "type": "address"
        },
        {
          "internalType": "address",
          "name": "onBehalfOf",
          "type": "address"
        },
        {
          "internalType": "uint256",
          "name": "amount",
          "type": "uint256"
        },
        {
          "internalType": "bool",
          "name": "strict",
          "type": "bool"
        },
        {
          "internalType": "address",
          "name": "recipient",
          "type": "address"
        }
      ],
      "name": "$redeemThenBorrow",
      "outputs": [
        {
          "internalType": "uint256",
          "name": "",
          "type": "uint256"
        }
      ],
      "stateMutability": "nonpayable",
      "type": "function"
    },
    {
      "inputs": [
        {
          "internalType": "uint256",
          "name": "interestRateMode",
          "type": "uint256"
        },
        {
          "internalType": "uint256",
          "name": "referralCode",
          "type": "uint256"
        },
        {
          "internalType": "contract IERC20",
          "name": "token",
          "type": "address"
        },
        {
          "internalType": "address",
          "name": "onBehalf",
          "type": "address"
        },
        {
          "internalType": "uint256",
          "name": "amount",
          "type": "uint256"
        }
      ],
      "name": "$repayThenDeposit",
      "outputs": [],
      "stateMutability": "nonpayable",
      "type": "function"
    },
    {
      "inputs": [],
      "name": "ORACLE",
      "outputs": [
        {
          "internalType": "contract IPriceOracleGetter",
          "name": "",
          "type": "address"
        }
      ],
      "stateMutability": "view",
      "type": "function"
    },
    {
      "inputs": [],
      "name": "POOL",
      "outputs": [
        {
          "internalType": "contract IPool",
          "name": "",
          "type": "address"
        }
      ],
      "stateMutability": "view",
      "type": "function"
    }
  ],
  "bytecode": {
    "object": "0x60c060405234801561001057600080fd5b5060405161129738038061129783398101604081905261002f9161005e565b6001600160a01b039182166080521660a052610098565b6001600160a01b038116811461005b57600080fd5b50565b6000806040838503121561007157600080fd5b825161007c81610046565b602084015190925061008d81610046565b809150509250929050565b60805160a0516111a46100f3600039600081816076015261082c01526000818160ba0152818161016201528181610223015281816102d8015281816103ed015281816104d30152818161064b01526106f901526111a46000f3fe608060405234801561001057600080fd5b50600436106100575760003560e01c8063038efb8a1461005c57806338013f02146100715780637535d246146100b55780639105b83a146100dc578063fd8c0451146100fd575b600080fd5b61006f61006a366004610c13565b610125565b005b6100987f000000000000000000000000000000000000000000000000000000000000000081565b6040516001600160a01b0390911681526020015b60405180910390f35b6100987f000000000000000000000000000000000000000000000000000000000000000081565b6100ef6100ea366004610c73565b610288565b6040519081526020016100ac565b61011061010b366004610cee565b6105b6565b604080519283526020830191909152016100ac565b80156102815760405163573ade8160e01b81526001600160a01b0384811660048301526024820183905260448201879052838116606483015282917f00000000000000000000000000000000000000000000000000000000000000009091169063573ade81906084016020604051808303816000875af19250505080156101c9575060408051601f3d908101601f191682019092526101c691810190610d39565b60015b156101eb576101d88183610d68565b9150816000036101e9575050610281565b505b60405163617ba03760e01b81526001600160a01b03858116600483015260248201839052848116604483015261ffff871660648301527f0000000000000000000000000000000000000000000000000000000000000000169063617ba03790608401600060405180830381600087803b15801561026757600080fd5b505af115801561027b573d6000803e3d6000fd5b50505050505b5050505050565b6000806000610299886001896105b6565b9150915084156102b5578582106102b057856102b2565b815b91505b6040516335ea6a7560e01b81526001600160a01b038981166004830152610353917f0000000000000000000000000000000000000000000000000000000000000000909116906335ea6a75906024016101e060405180830381865afa158015610322573d6000803e3d6000fd5b505050506040513d601f19601f820116820180604052508101906103469190610e5e565b61010001518830856109d7565b6103b95760405162461bcd60e51b815260206004820152602c60248201527f416176654d6f64756c652f72656465656d5468656e426f72726f772f61546b6e60448201526b151c985b9cd9995c91985a5b60a21b60648201526084015b60405180910390fd5b811561045c57604051631a4ca37b60e21b81526001600160a01b0389811660048301526024820184905285811660448301527f000000000000000000000000000000000000000000000000000000000000000016906369328dec906064016020604051808303816000875af1158015610436573d6000803e3d6000fd5b505050506040513d601f19601f8201168201806040525081019061045a9190610d39565b505b8582101580610469575080155b15610476575090506105ab565b6104808287610d68565b955085811161048f5780610491565b855b60405163a415bcad60e01b81526001600160a01b038a8116600483015260248201839052604482018d905261ffff8c16606483015289811660848301529192507f00000000000000000000000000000000000000000000000000000000000000009091169063a415bcad9060a401600060405180830381600087803b15801561051957600080fd5b505af115801561052d573d6000803e3d6000fd5b5050505061053c888583610b03565b61059c5760405162461bcd60e51b815260206004820152602b60248201527f416176654d6f64756c652f72656465656d5468656e426f72726f772f546b6e5460448201526a1c985b9cd9995c91985a5b60aa1b60648201526084016103b0565b6105a68183610f81565b925050505b979650505050505050565b6000806105e46040518060800160405280600081526020016000815260200160008152602001600081525090565b61062c60405180610100016040528060008152602001600081526020016000815260200160008152602001600081526020016000815260200160008152602001600081525090565b604051632fe4a15f60e21b81526001600160a01b0386811660048301527f0000000000000000000000000000000000000000000000000000000000000000169063bf92857c9060240160c060405180830381865afa158015610692573d6000803e3d6000fd5b505050506040513d601f19601f820116820180604052508101906106b69190610f99565b60c0870152608086015260a08501526040808501919091526020840191909152908252516335ea6a7560e01b81526001600160a01b0388811660048301526000917f0000000000000000000000000000000000000000000000000000000000000000909116906335ea6a75906024016101e060405180830381865afa158015610743573d6000803e3d6000fd5b505050506040513d601f19601f820116820180604052508101906107679190610e5e565b80515160ff603082901c1660408681019190915261ffff601083901c81166020808901919091529216865261010083015181516370a0823160e01b81526001600160a01b038b8116600483015292519495509116926370a08231926024808401939192918290030181865afa1580156107e4573d6000803e3d6000fd5b505050506040513d601f19601f820116820180604052508101906108089190610d39565b60e083015260405163b3596f0760e01b81526001600160a01b0389811660048301527f0000000000000000000000000000000000000000000000000000000000000000169063b3596f0790602401602060405180830381865afa158015610873573d6000803e3d6000fd5b505050506040513d601f19601f820116820180604052508101906108979190610d39565b60608401526020820151825160a0840151612710916108b591610fe3565b6108bf9190611002565b6108c99190610d68565b60608084019190915283015160208401516000916108e691610fe3565b60408501516108f690600a61110a565b84606001516109059190610fe3565b61091190612710610fe3565b61091b9190611002565b90508260e001518110610932578260e00151610934565b805b90508761094a579450600093506109cf92505050565b83516000906127109061095d9084610fe3565b6109679190611002565b9050600085606001518660400151600a610981919061110a565b86604001516109909190610fe3565b61099a9190611002565b9050808211156109b657826000975097505050505050506109cf565b60006109c28383610d68565b9398509296505050505050505b935093915050565b60008115806109f75750826001600160a01b0316846001600160a01b0316145b15610a0457506001610afb565b306001600160a01b03851603610a2657610a1f858484610b03565b9050610afb565b604080516001600160a01b0386811660248301528581166044830152606480830186905283518084039091018152608490920183526020820180516001600160e01b03166323b872dd60e01b1790529151600092839290891691610a8a9190611116565b6000604051808303816000865af19150503d8060008114610ac7576040519150601f19603f3d011682016040523d82523d6000602084013e610acc565b606091505b5091509150818015610af6575080511580610af6575080806020019051810190610af69190611151565b925050505b949350505050565b6000811580610b1a57506001600160a01b03831630145b15610b2757506001610bf4565b604080516001600160a01b038581166024830152604480830186905283518084039091018152606490920183526020820180516001600160e01b031663a9059cbb60e01b1790529151600092839290881691610b839190611116565b6000604051808303816000865af19150503d8060008114610bc0576040519150601f19603f3d011682016040523d82523d6000602084013e610bc5565b606091505b5091509150818015610bef575080511580610bef575080806020019051810190610bef9190611151565b925050505b9392505050565b6001600160a01b0381168114610c1057600080fd5b50565b600080600080600060a08688031215610c2b57600080fd5b85359450602086013593506040860135610c4481610bfb565b92506060860135610c5481610bfb565b949793965091946080013592915050565b8015158114610c1057600080fd5b600080600080600080600060e0888a031215610c8e57600080fd5b87359650602088013595506040880135610ca781610bfb565b94506060880135610cb781610bfb565b93506080880135925060a0880135610cce81610c65565b915060c0880135610cde81610bfb565b8091505092959891949750929550565b600080600060608486031215610d0357600080fd5b8335610d0e81610bfb565b92506020840135610d1e81610c65565b91506040840135610d2e81610bfb565b809150509250925092565b600060208284031215610d4b57600080fd5b5051919050565b634e487b7160e01b600052601160045260246000fd5b600082821015610d7a57610d7a610d52565b500390565b6040516101e0810167ffffffffffffffff81118282101715610db157634e487b7160e01b600052604160045260246000fd5b60405290565b600060208284031215610dc957600080fd5b6040516020810181811067ffffffffffffffff82111715610dfa57634e487b7160e01b600052604160045260246000fd5b6040529151825250919050565b80516fffffffffffffffffffffffffffffffff81168114610e2757600080fd5b919050565b805164ffffffffff81168114610e2757600080fd5b805161ffff81168114610e2757600080fd5b8051610e2781610bfb565b60006101e08284031215610e7157600080fd5b610e79610d7f565b610e838484610db7565b8152610e9160208401610e07565b6020820152610ea260408401610e07565b6040820152610eb360608401610e07565b6060820152610ec460808401610e07565b6080820152610ed560a08401610e07565b60a0820152610ee660c08401610e2c565b60c0820152610ef760e08401610e41565b60e0820152610100610f0a818501610e53565b90820152610120610f1c848201610e53565b90820152610140610f2e848201610e53565b90820152610160610f40848201610e53565b90820152610180610f52848201610e07565b908201526101a0610f64848201610e07565b908201526101c0610f76848201610e07565b908201529392505050565b60008219821115610f9457610f94610d52565b500190565b60008060008060008060c08789031215610fb257600080fd5b865195506020870151945060408701519350606087015192506080870151915060a087015190509295509295509295565b6000816000190483118215151615610ffd57610ffd610d52565b500290565b60008261101f57634e487b7160e01b600052601260045260246000fd5b500490565b600181815b8085111561105f57816000190482111561104557611045610d52565b8085161561105257918102915b93841c9390800290611029565b509250929050565b60008261107657506001611104565b8161108357506000611104565b816001811461109957600281146110a3576110bf565b6001915050611104565b60ff8411156110b4576110b4610d52565b50506001821b611104565b5060208310610133831016604e8410600b84101617156110e2575081810a611104565b6110ec8383611024565b806000190482111561110057611100610d52565b0290505b92915050565b6000610bf48383611067565b6000825160005b81811015611137576020818601810151858301520161111d565b81811115611146576000828501525b509190910192915050565b60006020828403121561116357600080fd5b8151610bf481610c6556fea26469706673582212202e65fe620d9541e85d9c722a1adce8512b8a2ea13f7dc3e86afa85aba6b7cf4164736f6c634300080e0033",
    "linkReferences": {}
  },
  "methodIdentifiers": {
    "$maxGettableUnderlying(address,bool,address)": "fd8c0451",
    "$redeemThenBorrow(uint256,uint256,address,address,uint256,bool,address)": "9105b83a",
    "$repayThenDeposit(uint256,uint256,address,address,uint256)": "038efb8a",
    "ORACLE()": "38013f02",
    "POOL()": "7535d246"
  },
  "id": 34
}