{
  "abi": [
    {
      "inputs": [
        {
          "internalType": "contract AbstractMangrove",
          "name": "mgv",
          "type": "address"
        },
        {
          "internalType": "contract IERC20",
          "name": "base",
          "type": "address"
        },
        {
          "internalType": "contract IERC20",
          "name": "quote",
          "type": "address"
        }
      ],
      "stateMutability": "nonpayable",
      "type": "constructor"
    },
    {
      "anonymous": false,
      "inputs": [
        {
          "indexed": false,
          "internalType": "address",
          "name": "mgv",
          "type": "address"
        },
        {
          "indexed": false,
          "internalType": "address",
          "name": "base",
          "type": "address"
        },
        {
          "indexed": false,
          "internalType": "address",
          "name": "quote",
          "type": "address"
        },
        {
          "indexed": false,
          "internalType": "uint256",
          "name": "offerId",
          "type": "uint256"
        },
        {
          "indexed": false,
          "internalType": "uint256",
          "name": "takerWants",
          "type": "uint256"
        },
        {
          "indexed": false,
          "internalType": "uint256",
          "name": "takerGives",
          "type": "uint256"
        }
      ],
      "name": "Execute",
      "type": "event"
    },
    {
      "inputs": [
        {
          "internalType": "contract IERC20",
          "name": "token",
          "type": "address"
        },
        {
          "internalType": "uint256",
          "name": "amount",
          "type": "uint256"
        }
      ],
      "name": "approveMgv",
      "outputs": [],
      "stateMutability": "nonpayable",
      "type": "function"
    },
    {
      "inputs": [
        {
          "internalType": "bytes32",
          "name": "mgvData",
          "type": "bytes32"
        }
      ],
      "name": "expect",
      "outputs": [],
      "stateMutability": "nonpayable",
      "type": "function"
    },
    {
      "inputs": [
        {
          "internalType": "address",
          "name": "mgv",
          "type": "address"
        },
        {
          "internalType": "address",
          "name": "base",
          "type": "address"
        },
        {
          "internalType": "address",
          "name": "quote",
          "type": "address"
        },
        {
          "internalType": "uint256",
          "name": "offerId",
          "type": "uint256"
        },
        {
          "internalType": "uint256",
          "name": "takerWants",
          "type": "uint256"
        },
        {
          "internalType": "uint256",
          "name": "takerGives",
          "type": "uint256"
        }
      ],
      "name": "logExecute",
      "outputs": [],
      "stateMutability": "nonpayable",
      "type": "function"
    },
    {
      "inputs": [
        {
          "components": [
            {
              "internalType": "address",
              "name": "outbound_tkn",
              "type": "address"
            },
            {
              "internalType": "address",
              "name": "inbound_tkn",
              "type": "address"
            },
            {
              "internalType": "uint256",
              "name": "offerId",
              "type": "uint256"
            },
            {
              "internalType": "t",
              "name": "offer",
              "type": "uint256"
            },
            {
              "internalType": "uint256",
              "name": "wants",
              "type": "uint256"
            },
            {
              "internalType": "uint256",
              "name": "gives",
              "type": "uint256"
            },
            {
              "internalType": "t",
              "name": "offerDetail",
              "type": "uint256"
            },
            {
              "internalType": "t",
              "name": "global",
              "type": "uint256"
            },
            {
              "internalType": "t",
              "name": "local",
              "type": "uint256"
            }
          ],
          "internalType": "struct MgvLib.SingleOrder",
          "name": "order",
          "type": "tuple"
        }
      ],
      "name": "makerExecute",
      "outputs": [
        {
          "internalType": "bytes32",
          "name": "",
          "type": "bytes32"
        }
      ],
      "stateMutability": "nonpayable",
      "type": "function"
    },
    {
      "inputs": [
        {
          "components": [
            {
              "internalType": "address",
              "name": "outbound_tkn",
              "type": "address"
            },
            {
              "internalType": "address",
              "name": "inbound_tkn",
              "type": "address"
            },
            {
              "internalType": "uint256",
              "name": "offerId",
              "type": "uint256"
            },
            {
              "internalType": "t",
              "name": "offer",
              "type": "uint256"
            },
            {
              "internalType": "uint256",
              "name": "wants",
              "type": "uint256"
            },
            {
              "internalType": "uint256",
              "name": "gives",
              "type": "uint256"
            },
            {
              "internalType": "t",
              "name": "offerDetail",
              "type": "uint256"
            },
            {
              "internalType": "t",
              "name": "global",
              "type": "uint256"
            },
            {
              "internalType": "t",
              "name": "local",
              "type": "uint256"
            }
          ],
          "internalType": "struct MgvLib.SingleOrder",
          "name": "order",
          "type": "tuple"
        },
        {
          "components": [
            {
              "internalType": "bytes32",
              "name": "makerData",
              "type": "bytes32"
            },
            {
              "internalType": "bytes32",
              "name": "mgvData",
              "type": "bytes32"
            }
          ],
          "internalType": "struct MgvLib.OrderResult",
          "name": "result",
          "type": "tuple"
        }
      ],
      "name": "makerPosthook",
      "outputs": [],
      "stateMutability": "nonpayable",
      "type": "function"
    },
    {
      "inputs": [],
      "name": "mgvBalance",
      "outputs": [
        {
          "internalType": "uint256",
          "name": "",
          "type": "uint256"
        }
      ],
      "stateMutability": "view",
      "type": "function"
    },
    {
      "inputs": [
        {
          "internalType": "address",
          "name": "base",
          "type": "address"
        },
        {
          "internalType": "address",
          "name": "quote",
          "type": "address"
        },
        {
          "internalType": "uint256",
          "name": "wants",
          "type": "uint256"
        },
        {
          "internalType": "uint256",
          "name": "gives",
          "type": "uint256"
        },
        {
          "internalType": "uint256",
          "name": "gasreq",
          "type": "uint256"
        },
        {
          "internalType": "uint256",
          "name": "pivotId",
          "type": "uint256"
        }
      ],
      "name": "newOffer",
      "outputs": [
        {
          "internalType": "uint256",
          "name": "",
          "type": "uint256"
        }
      ],
      "stateMutability": "nonpayable",
      "type": "function"
    },
    {
      "inputs": [
        {
          "internalType": "uint256",
          "name": "wants",
          "type": "uint256"
        },
        {
          "internalType": "uint256",
          "name": "gives",
          "type": "uint256"
        },
        {
          "internalType": "uint256",
          "name": "gasreq",
          "type": "uint256"
        },
        {
          "internalType": "uint256",
          "name": "pivotId",
          "type": "uint256"
        }
      ],
      "name": "newOffer",
      "outputs": [
        {
          "internalType": "uint256",
          "name": "",
          "type": "uint256"
        }
      ],
      "stateMutability": "nonpayable",
      "type": "function"
    },
    {
      "inputs": [
        {
          "internalType": "uint256",
          "name": "wants",
          "type": "uint256"
        },
        {
          "internalType": "uint256",
          "name": "gives",
          "type": "uint256"
        },
        {
          "internalType": "uint256",
          "name": "gasreq",
          "type": "uint256"
        },
        {
          "internalType": "uint256",
          "name": "gasprice",
          "type": "uint256"
        },
        {
          "internalType": "uint256",
          "name": "pivotId",
          "type": "uint256"
        }
      ],
      "name": "newOffer",
      "outputs": [
        {
          "internalType": "uint256",
          "name": "",
          "type": "uint256"
        }
      ],
      "stateMutability": "nonpayable",
      "type": "function"
    },
    {
      "inputs": [
        {
          "internalType": "uint256",
          "name": "wants",
          "type": "uint256"
        },
        {
          "internalType": "uint256",
          "name": "gives",
          "type": "uint256"
        },
        {
          "internalType": "uint256",
          "name": "gasreq",
          "type": "uint256"
        },
        {
          "internalType": "uint256",
          "name": "pivotId",
          "type": "uint256"
        },
        {
          "internalType": "uint256",
          "name": "amount",
          "type": "uint256"
        }
      ],
      "name": "newOfferWithFunding",
      "outputs": [
        {
          "internalType": "uint256",
          "name": "",
          "type": "uint256"
        }
      ],
      "stateMutability": "nonpayable",
      "type": "function"
    },
    {
      "inputs": [
        {
          "internalType": "uint256",
          "name": "wants",
          "type": "uint256"
        },
        {
          "internalType": "uint256",
          "name": "gives",
          "type": "uint256"
        },
        {
          "internalType": "uint256",
          "name": "gasreq",
          "type": "uint256"
        },
        {
          "internalType": "uint256",
          "name": "gasprice",
          "type": "uint256"
        },
        {
          "internalType": "uint256",
          "name": "pivotId",
          "type": "uint256"
        },
        {
          "internalType": "uint256",
          "name": "amount",
          "type": "uint256"
        }
      ],
      "name": "newOfferWithFunding",
      "outputs": [
        {
          "internalType": "uint256",
          "name": "",
          "type": "uint256"
        }
      ],
      "stateMutability": "nonpayable",
      "type": "function"
    },
    {
      "inputs": [
        {
          "internalType": "address",
          "name": "base",
          "type": "address"
        },
        {
          "internalType": "address",
          "name": "quote",
          "type": "address"
        },
        {
          "internalType": "uint256",
          "name": "wants",
          "type": "uint256"
        },
        {
          "internalType": "uint256",
          "name": "gives",
          "type": "uint256"
        },
        {
          "internalType": "uint256",
          "name": "gasreq",
          "type": "uint256"
        },
        {
          "internalType": "uint256",
          "name": "pivotId",
          "type": "uint256"
        },
        {
          "internalType": "uint256",
          "name": "amount",
          "type": "uint256"
        }
      ],
      "name": "newOfferWithFunding",
      "outputs": [
        {
          "internalType": "uint256",
          "name": "",
          "type": "uint256"
        }
      ],
      "stateMutability": "nonpayable",
      "type": "function"
    },
    {
      "inputs": [
        {
          "internalType": "uint256",
          "name": "amount",
          "type": "uint256"
        }
      ],
      "name": "provisionMgv",
      "outputs": [],
      "stateMutability": "nonpayable",
      "type": "function"
    },
    {
      "inputs": [
        {
          "internalType": "uint256",
          "name": "offerId",
          "type": "uint256"
        }
      ],
      "name": "retractOffer",
      "outputs": [
        {
          "internalType": "uint256",
          "name": "",
          "type": "uint256"
        }
      ],
      "stateMutability": "nonpayable",
      "type": "function"
    },
    {
      "inputs": [
        {
          "internalType": "uint256",
          "name": "offerId",
          "type": "uint256"
        }
      ],
      "name": "retractOfferWithDeprovision",
      "outputs": [
        {
          "internalType": "uint256",
          "name": "",
          "type": "uint256"
        }
      ],
      "stateMutability": "nonpayable",
      "type": "function"
    },
    {
      "inputs": [
        {
          "internalType": "bool",
          "name": "should",
          "type": "bool"
        }
      ],
      "name": "setShouldFailHook",
      "outputs": [],
      "stateMutability": "nonpayable",
      "type": "function"
    },
    {
      "inputs": [
        {
          "internalType": "bool",
          "name": "should",
          "type": "bool"
        }
      ],
      "name": "shouldAbort",
      "outputs": [],
      "stateMutability": "nonpayable",
      "type": "function"
    },
    {
      "inputs": [
        {
          "internalType": "bool",
          "name": "should",
          "type": "bool"
        }
      ],
      "name": "shouldFail",
      "outputs": [],
      "stateMutability": "nonpayable",
      "type": "function"
    },
    {
      "inputs": [
        {
          "internalType": "bool",
          "name": "should",
          "type": "bool"
        }
      ],
      "name": "shouldRepost",
      "outputs": [],
      "stateMutability": "nonpayable",
      "type": "function"
    },
    {
      "inputs": [
        {
          "internalType": "bool",
          "name": "should",
          "type": "bool"
        }
      ],
      "name": "shouldRevert",
      "outputs": [],
      "stateMutability": "nonpayable",
      "type": "function"
    },
    {
      "inputs": [
        {
          "internalType": "contract IERC20",
          "name": "token",
          "type": "address"
        },
        {
          "internalType": "address",
          "name": "to",
          "type": "address"
        },
        {
          "internalType": "uint256",
          "name": "amount",
          "type": "uint256"
        }
      ],
      "name": "transferToken",
      "outputs": [],
      "stateMutability": "nonpayable",
      "type": "function"
    },
    {
      "inputs": [
        {
          "internalType": "uint256",
          "name": "wants",
          "type": "uint256"
        },
        {
          "internalType": "uint256",
          "name": "gives",
          "type": "uint256"
        },
        {
          "internalType": "uint256",
          "name": "gasreq",
          "type": "uint256"
        },
        {
          "internalType": "uint256",
          "name": "pivotId",
          "type": "uint256"
        },
        {
          "internalType": "uint256",
          "name": "offerId",
          "type": "uint256"
        }
      ],
      "name": "updateOffer",
      "outputs": [],
      "stateMutability": "nonpayable",
      "type": "function"
    },
    {
      "inputs": [
        {
          "internalType": "uint256",
          "name": "wants",
          "type": "uint256"
        },
        {
          "internalType": "uint256",
          "name": "gives",
          "type": "uint256"
        },
        {
          "internalType": "uint256",
          "name": "gasreq",
          "type": "uint256"
        },
        {
          "internalType": "uint256",
          "name": "pivotId",
          "type": "uint256"
        },
        {
          "internalType": "uint256",
          "name": "offerId",
          "type": "uint256"
        },
        {
          "internalType": "uint256",
          "name": "amount",
          "type": "uint256"
        }
      ],
      "name": "updateOfferWithFunding",
      "outputs": [],
      "stateMutability": "nonpayable",
      "type": "function"
    },
    {
      "inputs": [
        {
          "internalType": "uint256",
          "name": "amount",
          "type": "uint256"
        }
      ],
      "name": "withdrawMgv",
      "outputs": [
        {
          "internalType": "bool",
          "name": "",
          "type": "bool"
        }
      ],
      "stateMutability": "nonpayable",
      "type": "function"
    },
    {
      "stateMutability": "payable",
      "type": "receive"
    }
  ],
  "bytecode": {
    "object": "0x608060405234801561001057600080fd5b5060405162001454380380620014548339810160408190526100319161008b565b600080546001600160a01b039485166001600160a01b0319918216179091556001805493851693821693909317909255600280549190931691161790556100d8565b6001600160a01b038116811461008857600080fd5b50565b6000806000606084860312156100a057600080fd5b83516100ab81610073565b60208501519093506100bc81610073565b60408501519092506100cd81610073565b809150509250925092565b61136c80620000e86000396000f3fe60806040526004361061014f5760003560e01c8063a47395f6116100b6578063e67ecda11161006f578063e67ecda1146103fe578063e923c6511461041e578063f5537ede1461043e578063fc3816c81461045e578063fc8349f21461047e578063ffae399e146104ae57600080fd5b8063a47395f614610325578063c4c6c87d1461035e578063cafffca81461037e578063ccfbf94d1461039e578063cda30c3b146103be578063d3845fea146103de57600080fd5b80635a4924e8116101085780635a4924e8146102495780636c49c32c146102775780637a943a37146102975780637ec95ff3146102d05780638b0af9bb146102f0578063a3cfe14d1461030557600080fd5b80630cc9d6561461015b5780632644c05c1461017d57806333ac5efd1461019d5780633d3d130d146101bd57806353e575ac146101dd578063557f49c31461021057600080fd5b3661015657005b600080fd5b34801561016757600080fd5b5061017b610176366004610f27565b6104e7565b005b34801561018957600080fd5b5061017b610198366004610f8c565b610530565b3480156101a957600080fd5b5061017b6101b8366004610fc7565b6105ae565b3480156101c957600080fd5b5061017b6101d8366004611023565b610630565b3480156101e957600080fd5b506101fd6101f8366004610f8c565b610755565b6040519081526020015b60405180910390f35b34801561021c57600080fd5b5061017b61022b366004611074565b60028054911515600160a81b0260ff60a81b19909216919091179055565b34801561025557600080fd5b5061017b610264366004611074565b6004805460ff1916911515919091179055565b34801561028357600080fd5b506101fd610292366004611098565b6107e9565b3480156102a357600080fd5b5061017b6102b2366004611074565b60028054911515600160b81b0260ff60b81b19909216919091179055565b3480156102dc57600080fd5b506101fd6102eb366004610fc7565b610950565b3480156102fc57600080fd5b506101fd6109e5565b34801561031157600080fd5b5061017b6103203660046110b5565b610a57565b34801561033157600080fd5b5061017b610340366004611074565b60028054911515600160a01b0260ff60a01b19909216919091179055565b34801561036a57600080fd5b506101fd6103793660046110e1565b610ad3565b34801561038a57600080fd5b506101fd6103993660046110e1565b610b66565b3480156103aa57600080fd5b506101fd6103b93660046110fa565b610bb7565b3480156103ca57600080fd5b506101fd6103d9366004611153565b610c37565b3480156103ea57600080fd5b5061017b6103f93660046110e1565b610cc9565b34801561040a57600080fd5b5061017b6104193660046110e1565b600355565b34801561042a57600080fd5b506101fd610439366004610f8c565b610d0f565b34801561044a57600080fd5b5061017b610459366004611185565b610d98565b34801561046a57600080fd5b506101fd6104793660046111c6565b610e11565b34801561048a57600080fd5b5061049e6104993660046110e1565b610e9f565b6040519015158152602001610207565b3480156104ba57600080fd5b5061017b6104c9366004611074565b60028054911515600160b01b0260ff60b01b19909216919091179055565b7f1d40f406e1d1d9e4f71d0e95a7eaf3dc4b8636e5fa6479de475eaebd4f15c0c286868686868660405161052096959493929190611228565b60405180910390a1505050505050565b60008054600154600254604051636a4f769160e01b81526001600160a01b0393841694636a4f7691946105759481169316918b918b918b91908b908b90600401611261565b600060405180830381600087803b15801561058f57600080fd5b505af11580156105a3573d6000803e3d6000fd5b505050505050505050565b60008054600154600254604051636a4f769160e01b81526001600160a01b0393841694636a4f76919487946105f694908216939116918d918d918d918d908d90600401611261565b6000604051808303818588803b15801561060f57600080fd5b505af1158015610623573d6000803e3d6000fd5b5050505050505050505050565b60045460ff16156106765760405162461bcd60e51b815260206004820152600c60248201526b1c1bdcdd1a1bdbdad1985a5b60a21b604482015260640160405180910390fd5b600254600160b81b900460ff1615610751576000546001600160a01b0316636a4f76916106a660208501856112a5565b6106b660408601602087016112a5565b606080870135901c6bffffffffffffffffffffffff166bffffffffffffffffffffffff60608801351660c088013560481c62ffffff16600060608a013560e01c8a604001356040518963ffffffff1660e01b815260040161071e989796959493929190611261565b600060405180830381600087803b15801561073857600080fd5b505af115801561074c573d6000803e3d6000fd5b505050505b5050565b6000805460015460025460405163127db4b760e21b81526001600160a01b03938416936349f6d2dc93879361079c939183169216908c908c908c908a908d906004016112c2565b60206040518083038185885af11580156107ba573d6000803e3d6000fd5b50505050506040513d601f19601f820116820180604052508101906107df9190611300565b9695505050505050565b600254600090600160b01b900460ff1615610824576040805160208082019092526f1d195cdd13585ad95c8bdc995d995c9d60821b81529081fd5b7f1d40f406e1d1d9e4f71d0e95a7eaf3dc4b8636e5fa6479de475eaebd4f15c0c23361085360208501856112a5565b61086360408601602087016112a5565b856040013586608001358760a0013560405161088496959493929190611228565b60405180910390a1600254600160a01b900460ff1615610927576108ab60208301836112a5565b6000805460405163095ea7b360e01b81526001600160a01b0391821660048201526024810192909252919091169063095ea7b3906044016020604051808303816000875af1158015610901573d6000803e3d6000fd5b505050506040513d601f19601f820116820180604052508101906109259190611319565b505b600254600160a81b900460ff161561094857506418589bdc9d60da1b919050565b506000919050565b6000805460015460025460405163127db4b760e21b81526001600160a01b03938416936349f6d2dc938793610997939183169216908d908d908d908d908d906004016112c2565b60206040518083038185885af11580156109b5573d6000803e3d6000fd5b50505050506040513d601f19601f820116820180604052508101906109da9190611300565b979650505050505050565b600080546040516370a0823160e01b81523060048201526001600160a01b03909116906370a0823190602401602060405180830381865afa158015610a2e573d6000803e3d6000fd5b505050506040513d601f19601f82011682018060405250810190610a529190611300565b905090565b60005460405163095ea7b360e01b81526001600160a01b039182166004820152602481018390529083169063095ea7b3906044016020604051808303816000875af1158015610aaa573d6000803e3d6000fd5b505050506040513d601f19601f82011682018060405250810190610ace9190611319565b505050565b6000805460015460025460405163ad97db1b60e01b81526001600160a01b0392831660048201529082166024820152604481018590526064810184905291169063ad97db1b906084015b6020604051808303816000875af1158015610b3c573d6000803e3d6000fd5b505050506040513d601f19601f82011682018060405250810190610b609190611300565b92915050565b600080546001805460025460405163ad97db1b60e01b81526001600160a01b03928316600482015290821660248201526044810186905260648101929092529091169063ad97db1b90608401610b1d565b6000805460405163127db4b760e21b81526001600160a01b03909116906349f6d2dc90610bf4908a908a908a908a908a9089908b906004016112c2565b6020604051808303816000875af1158015610c13573d6000803e3d6000fd5b505050506040513d601f19601f820116820180604052508101906109da9190611300565b6000805460015460025460405163127db4b760e21b81526001600160a01b03938416936349f6d2dc93610c7d93908216929116908a908a908a9089908b906004016112c2565b6020604051808303816000875af1158015610c9c573d6000803e3d6000fd5b505050506040513d601f19601f82011682018060405250810190610cc09190611300565b95945050505050565b600054604051630460488160e31b81523060048201526001600160a01b039091169063230244089083906024016000604051808303818588803b15801561073857600080fd5b6000805460015460025460405163127db4b760e21b81526001600160a01b03938416936349f6d2dc93610d5593908216929116908b908b908b908b908b906004016112c2565b6020604051808303816000875af1158015610d74573d6000803e3d6000fd5b505050506040513d601f19601f820116820180604052508101906107df9190611300565b60405163a9059cbb60e01b81526001600160a01b0383811660048301526024820183905284169063a9059cbb906044016020604051808303816000875af1158015610de7573d6000803e3d6000fd5b505050506040513d601f19601f82011682018060405250810190610e0b9190611319565b50505050565b6000805460405163127db4b760e21b81526001600160a01b03909116906349f6d2dc908490610e50908c908c908c908c908c908a908d906004016112c2565b60206040518083038185885af1158015610e6e573d6000803e3d6000fd5b50505050506040513d601f19601f82011682018060405250810190610e939190611300565b98975050505050505050565b60008054604051632e1a7d4d60e01b8152600481018490526001600160a01b0390911690632e1a7d4d906024016020604051808303816000875af1158015610eeb573d6000803e3d6000fd5b505050506040513d601f19601f82011682018060405250810190610b609190611319565b6001600160a01b0381168114610f2457600080fd5b50565b60008060008060008060c08789031215610f4057600080fd5b8635610f4b81610f0f565b95506020870135610f5b81610f0f565b94506040870135610f6b81610f0f565b959894975094956060810135955060808101359460a0909101359350915050565b600080600080600060a08688031215610fa457600080fd5b505083359560208501359550604085013594606081013594506080013592509050565b60008060008060008060c08789031215610fe057600080fd5b505084359660208601359650604086013595606081013595506080810135945060a0013592509050565b6000610120828403121561101d57600080fd5b50919050565b60008082840361016081121561103857600080fd5b611042858561100a565b9250604061011f198201121561105757600080fd5b50610120830190509250929050565b8015158114610f2457600080fd5b60006020828403121561108657600080fd5b813561109181611066565b9392505050565b600061012082840312156110ab57600080fd5b611091838361100a565b600080604083850312156110c857600080fd5b82356110d381610f0f565b946020939093013593505050565b6000602082840312156110f357600080fd5b5035919050565b60008060008060008060c0878903121561111357600080fd5b863561111e81610f0f565b9550602087013561112e81610f0f565b95989597505050506040840135936060810135936080820135935060a0909101359150565b6000806000806080858703121561116957600080fd5b5050823594602084013594506040840135936060013592509050565b60008060006060848603121561119a57600080fd5b83356111a581610f0f565b925060208401356111b581610f0f565b929592945050506040919091013590565b600080600080600080600060e0888a0312156111e157600080fd5b87356111ec81610f0f565b965060208801356111fc81610f0f565b96999698505050506040850135946060810135946080820135945060a0820135935060c0909101359150565b6001600160a01b03968716815294861660208601529290941660408401526060830152608082019290925260a081019190915260c00190565b6001600160a01b03988916815296909716602087015260408601949094526060850192909252608084015260a083015260c082015260e08101919091526101000190565b6000602082840312156112b757600080fd5b813561109181610f0f565b6001600160a01b03978816815295909616602086015260408501939093526060840191909152608083015260a082015260c081019190915260e00190565b60006020828403121561131257600080fd5b5051919050565b60006020828403121561132b57600080fd5b81516110918161106656fea2646970667358221220180bfa48f62375fdcb702a60388bb5104cf6be26fe3d281975baabc0c702194f64736f6c634300080e0033",
    "linkReferences": {}
  },
  "methodIdentifiers": {
    "approveMgv(address,uint256)": "a3cfe14d",
    "expect(bytes32)": "e67ecda1",
    "logExecute(address,address,address,uint256,uint256,uint256)": "0cc9d656",
    "makerExecute((address,address,uint256,uint256,uint256,uint256,uint256,uint256,uint256))": "6c49c32c",
    "makerPosthook((address,address,uint256,uint256,uint256,uint256,uint256,uint256,uint256),(bytes32,bytes32))": "3d3d130d",
    "mgvBalance()": "8b0af9bb",
    "newOffer(address,address,uint256,uint256,uint256,uint256)": "ccfbf94d",
    "newOffer(uint256,uint256,uint256,uint256)": "cda30c3b",
    "newOffer(uint256,uint256,uint256,uint256,uint256)": "e923c651",
    "newOfferWithFunding(address,address,uint256,uint256,uint256,uint256,uint256)": "fc3816c8",
    "newOfferWithFunding(uint256,uint256,uint256,uint256,uint256)": "53e575ac",
    "newOfferWithFunding(uint256,uint256,uint256,uint256,uint256,uint256)": "7ec95ff3",
    "provisionMgv(uint256)": "d3845fea",
    "retractOffer(uint256)": "c4c6c87d",
    "retractOfferWithDeprovision(uint256)": "cafffca8",
    "setShouldFailHook(bool)": "5a4924e8",
    "shouldAbort(bool)": "557f49c3",
    "shouldFail(bool)": "a47395f6",
    "shouldRepost(bool)": "7a943a37",
    "shouldRevert(bool)": "ffae399e",
    "transferToken(address,address,uint256)": "f5537ede",
    "updateOffer(uint256,uint256,uint256,uint256,uint256)": "2644c05c",
    "updateOfferWithFunding(uint256,uint256,uint256,uint256,uint256,uint256)": "33ac5efd",
    "withdrawMgv(uint256)": "fc8349f2"
  },
  "id": 98
}