{
  "abi": [
    {
      "inputs": [
        {
          "internalType": "contract IMangrove",
          "name": "_MGV",
          "type": "address"
        },
        {
          "internalType": "address",
          "name": "deployer",
          "type": "address"
        }
      ],
      "stateMutability": "nonpayable",
      "type": "constructor"
    },
    {
      "anonymous": false,
      "inputs": [
        {
          "indexed": false,
          "internalType": "contract IMangrove",
          "name": "mangrove",
          "type": "address"
        },
        {
          "indexed": true,
          "internalType": "contract IERC20",
          "name": "outbound_tkn",
          "type": "address"
        },
        {
          "indexed": true,
          "internalType": "contract IERC20",
          "name": "inbound_tkn",
          "type": "address"
        },
        {
          "indexed": true,
          "internalType": "uint256",
          "name": "offerId",
          "type": "uint256"
        },
        {
          "indexed": false,
          "internalType": "bytes32",
          "name": "reason",
          "type": "bytes32"
        }
      ],
      "name": "LogIncident",
      "type": "event"
    },
    {
      "anonymous": false,
      "inputs": [
        {
          "indexed": false,
          "internalType": "uint256",
          "name": "",
          "type": "uint256"
        }
      ],
      "name": "SetGasreq",
      "type": "event"
    },
    {
      "anonymous": false,
      "inputs": [
        {
          "indexed": false,
          "internalType": "contract AbstractRouter",
          "name": "",
          "type": "address"
        }
      ],
      "name": "SetRouter",
      "type": "event"
    },
    {
      "inputs": [],
      "name": "MGV",
      "outputs": [
        {
          "internalType": "contract IMangrove",
          "name": "",
          "type": "address"
        }
      ],
      "stateMutability": "view",
      "type": "function"
    },
    {
      "inputs": [
        {
          "internalType": "contract IERC20[]",
          "name": "tokens",
          "type": "address[]"
        }
      ],
      "name": "activate",
      "outputs": [],
      "stateMutability": "nonpayable",
      "type": "function"
    },
    {
      "inputs": [],
      "name": "admin",
      "outputs": [
        {
          "internalType": "address",
          "name": "",
          "type": "address"
        }
      ],
      "stateMutability": "view",
      "type": "function"
    },
    {
      "inputs": [
        {
          "internalType": "contract IERC20",
          "name": "outbound_tkn",
          "type": "address"
        }
      ],
      "name": "approveMangrove",
      "outputs": [],
      "stateMutability": "nonpayable",
      "type": "function"
    },
    {
      "inputs": [
        {
          "internalType": "contract IERC20",
          "name": "token",
          "type": "address"
        }
      ],
      "name": "approveRouter",
      "outputs": [],
      "stateMutability": "nonpayable",
      "type": "function"
    },
    {
      "inputs": [
        {
          "internalType": "contract IERC20[]",
          "name": "tokens",
          "type": "address[]"
        }
      ],
      "name": "checkList",
      "outputs": [],
      "stateMutability": "view",
      "type": "function"
    },
    {
      "inputs": [
        {
          "internalType": "contract IERC20",
          "name": "outbound_tkn",
          "type": "address"
        },
        {
          "internalType": "contract IERC20",
          "name": "inbound_tkn",
          "type": "address"
        },
        {
          "internalType": "uint256",
          "name": "gasreq",
          "type": "uint256"
        },
        {
          "internalType": "uint256",
          "name": "gasprice",
          "type": "uint256"
        },
        {
          "internalType": "uint256",
          "name": "offerId",
          "type": "uint256"
        }
      ],
      "name": "getMissingProvision",
      "outputs": [
        {
          "internalType": "uint256",
          "name": "",
          "type": "uint256"
        }
      ],
      "stateMutability": "view",
      "type": "function"
    },
    {
      "inputs": [],
      "name": "has_router",
      "outputs": [
        {
          "internalType": "bool",
          "name": "",
          "type": "bool"
        }
      ],
      "stateMutability": "view",
      "type": "function"
    },
    {
      "inputs": [
        {
          "components": [
            {
              "internalType": "address",
              "name": "outbound_tkn",
              "type": "address"
            },
            {
              "internalType": "address",
              "name": "inbound_tkn",
              "type": "address"
            },
            {
              "internalType": "uint256",
              "name": "offerId",
              "type": "uint256"
            },
            {
              "internalType": "t",
              "name": "offer",
              "type": "uint256"
            },
            {
              "internalType": "uint256",
              "name": "wants",
              "type": "uint256"
            },
            {
              "internalType": "uint256",
              "name": "gives",
              "type": "uint256"
            },
            {
              "internalType": "t",
              "name": "offerDetail",
              "type": "uint256"
            },
            {
              "internalType": "t",
              "name": "global",
              "type": "uint256"
            },
            {
              "internalType": "t",
              "name": "local",
              "type": "uint256"
            }
          ],
          "internalType": "struct MgvLib.SingleOrder",
          "name": "order",
          "type": "tuple"
        }
      ],
      "name": "makerExecute",
      "outputs": [
        {
          "internalType": "bytes32",
          "name": "ret",
          "type": "bytes32"
        }
      ],
      "stateMutability": "nonpayable",
      "type": "function"
    },
    {
      "inputs": [
        {
          "components": [
            {
              "internalType": "address",
              "name": "outbound_tkn",
              "type": "address"
            },
            {
              "internalType": "address",
              "name": "inbound_tkn",
              "type": "address"
            },
            {
              "internalType": "uint256",
              "name": "offerId",
              "type": "uint256"
            },
            {
              "internalType": "t",
              "name": "offer",
              "type": "uint256"
            },
            {
              "internalType": "uint256",
              "name": "wants",
              "type": "uint256"
            },
            {
              "internalType": "uint256",
              "name": "gives",
              "type": "uint256"
            },
            {
              "internalType": "t",
              "name": "offerDetail",
              "type": "uint256"
            },
            {
              "internalType": "t",
              "name": "global",
              "type": "uint256"
            },
            {
              "internalType": "t",
              "name": "local",
              "type": "uint256"
            }
          ],
          "internalType": "struct MgvLib.SingleOrder",
          "name": "order",
          "type": "tuple"
        },
        {
          "components": [
            {
              "internalType": "bytes32",
              "name": "makerData",
              "type": "bytes32"
            },
            {
              "internalType": "bytes32",
              "name": "mgvData",
              "type": "bytes32"
            }
          ],
          "internalType": "struct MgvLib.OrderResult",
          "name": "result",
          "type": "tuple"
        }
      ],
      "name": "makerPosthook",
      "outputs": [],
      "stateMutability": "nonpayable",
      "type": "function"
    },
    {
      "inputs": [
        {
          "components": [
            {
              "internalType": "contract IERC20",
              "name": "outbound_tkn",
              "type": "address"
            },
            {
              "internalType": "contract IERC20",
              "name": "inbound_tkn",
              "type": "address"
            },
            {
              "internalType": "uint256",
              "name": "wants",
              "type": "uint256"
            },
            {
              "internalType": "uint256",
              "name": "gives",
              "type": "uint256"
            },
            {
              "internalType": "uint256",
              "name": "gasreq",
              "type": "uint256"
            },
            {
              "internalType": "uint256",
              "name": "gasprice",
              "type": "uint256"
            },
            {
              "internalType": "uint256",
              "name": "pivotId",
              "type": "uint256"
            },
            {
              "internalType": "uint256",
              "name": "offerId",
              "type": "uint256"
            }
          ],
          "internalType": "struct IOfferLogic.MakerOrder",
          "name": "mko",
          "type": "tuple"
        }
      ],
      "name": "newOffer",
      "outputs": [
        {
          "internalType": "uint256",
          "name": "",
          "type": "uint256"
        }
      ],
      "stateMutability": "payable",
      "type": "function"
    },
    {
      "inputs": [],
      "name": "ofr_gasreq",
      "outputs": [
        {
          "internalType": "uint256",
          "name": "",
          "type": "uint256"
        }
      ],
      "stateMutability": "view",
      "type": "function"
    },
    {
      "inputs": [],
      "name": "reserve",
      "outputs": [
        {
          "internalType": "address",
          "name": "",
          "type": "address"
        }
      ],
      "stateMutability": "view",
      "type": "function"
    },
    {
      "inputs": [
        {
          "internalType": "contract IERC20",
          "name": "outbound_tkn",
          "type": "address"
        },
        {
          "internalType": "contract IERC20",
          "name": "inbound_tkn",
          "type": "address"
        },
        {
          "internalType": "uint256",
          "name": "offerId",
          "type": "uint256"
        },
        {
          "internalType": "bool",
          "name": "deprovision",
          "type": "bool"
        }
      ],
      "name": "retractOffer",
      "outputs": [
        {
          "internalType": "uint256",
          "name": "free_wei",
          "type": "uint256"
        }
      ],
      "stateMutability": "nonpayable",
      "type": "function"
    },
    {
      "inputs": [],
      "name": "router",
      "outputs": [
        {
          "internalType": "contract AbstractRouter",
          "name": "",
          "type": "address"
        }
      ],
      "stateMutability": "view",
      "type": "function"
    },
    {
      "inputs": [
        {
          "internalType": "address",
          "name": "_admin",
          "type": "address"
        }
      ],
      "name": "set_admin",
      "outputs": [],
      "stateMutability": "nonpayable",
      "type": "function"
    },
    {
      "inputs": [
        {
          "internalType": "uint256",
          "name": "gasreq",
          "type": "uint256"
        }
      ],
      "name": "set_gasreq",
      "outputs": [],
      "stateMutability": "nonpayable",
      "type": "function"
    },
    {
      "inputs": [
        {
          "internalType": "address",
          "name": "_reserve",
          "type": "address"
        }
      ],
      "name": "set_reserve",
      "outputs": [],
      "stateMutability": "nonpayable",
      "type": "function"
    },
    {
      "inputs": [
        {
          "internalType": "contract AbstractRouter",
          "name": "router_",
          "type": "address"
        }
      ],
      "name": "set_router",
      "outputs": [],
      "stateMutability": "nonpayable",
      "type": "function"
    },
    {
      "inputs": [
        {
          "internalType": "contract IERC20",
          "name": "token",
          "type": "address"
        }
      ],
      "name": "tokenBalance",
      "outputs": [
        {
          "internalType": "uint256",
          "name": "",
          "type": "uint256"
        }
      ],
      "stateMutability": "view",
      "type": "function"
    },
    {
      "inputs": [
        {
          "components": [
            {
              "internalType": "contract IERC20",
              "name": "outbound_tkn",
              "type": "address"
            },
            {
              "internalType": "contract IERC20",
              "name": "inbound_tkn",
              "type": "address"
            },
            {
              "internalType": "uint256",
              "name": "wants",
              "type": "uint256"
            },
            {
              "internalType": "uint256",
              "name": "gives",
              "type": "uint256"
            },
            {
              "internalType": "uint256",
              "name": "gasreq",
              "type": "uint256"
            },
            {
              "internalType": "uint256",
              "name": "gasprice",
              "type": "uint256"
            },
            {
              "internalType": "uint256",
              "name": "pivotId",
              "type": "uint256"
            },
            {
              "internalType": "uint256",
              "name": "offerId",
              "type": "uint256"
            }
          ],
          "internalType": "struct IOfferLogic.MakerOrder",
          "name": "mko",
          "type": "tuple"
        }
      ],
      "name": "updateOffer",
      "outputs": [],
      "stateMutability": "payable",
      "type": "function"
    },
    {
      "inputs": [
        {
          "internalType": "uint256",
          "name": "amount",
          "type": "uint256"
        },
        {
          "internalType": "address payable",
          "name": "receiver",
          "type": "address"
        }
      ],
      "name": "withdrawFromMangrove",
      "outputs": [],
      "stateMutability": "nonpayable",
      "type": "function"
    },
    {
      "inputs": [
        {
          "internalType": "contract IERC20",
          "name": "token",
          "type": "address"
        },
        {
          "internalType": "address",
          "name": "receiver",
          "type": "address"
        },
        {
          "internalType": "uint256",
          "name": "amount",
          "type": "uint256"
        }
      ],
      "name": "withdrawToken",
      "outputs": [
        {
          "internalType": "bool",
          "name": "success",
          "type": "bool"
        }
      ],
      "stateMutability": "nonpayable",
      "type": "function"
    },
    {
      "stateMutability": "payable",
      "type": "receive"
    }
  ],
  "bytecode": {
    "object": "0x60a06040523480156200001157600080fd5b506040516200404c3803806200404c8339810160408190526200003491620006d5565b8161c3506040516200004690620006ae565b604051809103906000f08015801562000063573d6000803e3d6000fd5b5082828282823380620000bd5760405162461bcd60e51b815260206004820152601860248201527f616363657373436f6e74726f6c6c65642f307841646d696e000000000000000060448201526064015b60405180910390fd5b80620000d36200024260201b62001a801760201c565b80546001600160a01b0319166001600160a01b03929092169190911790555062ffffff81168114620001485760405162461bcd60e51b815260206004820152601b60248201527f4d616e67726f76654f666665722f676173726571546f6f4869676800000000006044820152606401620000b4565b6001600160a01b038216608052806200016c62000266602090811b62001aa417901c565b5550506001600160a01b0381166200018f5762000189306200028a565b620001a5565b6200019a816200028a565b620001a58162000393565b505050505050336001600160a01b0316816001600160a01b0316146200023a57620001d0816200052c565b620001da620005f5565b60405163e9333fab60e01b81526001600160a01b038381166004830152919091169063e9333fab90602401600060405180830381600087803b1580156200022057600080fd5b505af115801562000235573d6000803e3d6000fd5b505050505b505062000714565b7f7d382ebca3e46505071795e192d28166a3d4bd0685585591bc6c5b8df6769fd290565b7fae7e31c3220e851db9f204a28b279dfe52b973600b0a456991089c220ae7222490565b6200029462000664565b6001600160a01b0316336001600160a01b03161480620002c757506080516001600160a01b0316336001600160a01b0316145b620003045760405162461bcd60e51b815260206004820152601860248201526000805160206200402c8339815191526044820152606401620000b4565b6001600160a01b0381166200035c5760405162461bcd60e51b815260206004820152601460248201527f53696e676c65557365722f3078526573657276650000000000000000000000006044820152606401620000b4565b80620003726200068a60201b62001ac81760201c565b80546001600160a01b0319166001600160a01b039290921691909117905550565b6200039d62000664565b6001600160a01b0316336001600160a01b03161480620003d057506080516001600160a01b0316336001600160a01b0316145b6200040d5760405162461bcd60e51b815260206004820152601860248201526000805160206200402c8339815191526044820152606401620000b4565b6001600160a01b038116620004655760405162461bcd60e51b815260206004820152601c60248201527f6d67764f666665722f7365745f726f757465722f3078526f75746572000000006044820152606401620000b4565b806200047b6200026660201b62001aa41760201c565b60010180546001600160a01b0319166001600160a01b039283161790556040516381bac14f60e01b8152306004820152908216906381bac14f90602401600060405180830381600087803b158015620004d357600080fd5b505af1158015620004e8573d6000803e3d6000fd5b50506040516001600160a01b03841681527f6de4326a8b9054d72d9dbab97d27bc4edffadee7d966f5af9cc4eafdaf8e54559250602001905060405180910390a150565b6200053662000664565b6001600160a01b0316336001600160a01b031614620005875760405162461bcd60e51b815260206004820152601860248201526000805160206200402c8339815191526044820152606401620000b4565b6001600160a01b038116620005df5760405162461bcd60e51b815260206004820152601860248201527f416363657373436f6e74726f6c6c65642f307841646d696e00000000000000006044820152606401620000b4565b80620003726200024260201b62001a801760201c565b6000806200060d6200026660201b62001aa41760201c565b600101546001600160a01b03169050806200065f5760405162461bcd60e51b815260206004820152601160248201527036b3bb27b33332b917983c2937baba32b960791b6044820152606401620000b4565b919050565b60006200067b6200024260201b62001a801760201c565b546001600160a01b0316919050565b7f7bccd2960a07f28b1420615e9ead32d6e77e21d42f4a6c1a1fe785dae226653290565b611004806200302883390190565b6001600160a01b0381168114620006d257600080fd5b50565b60008060408385031215620006e957600080fd5b8251620006f681620006bc565b60208401519092506200070981620006bc565b809150509250929050565b60805161286c620007bc600039600081816102a201528181610625015281816106f3015281816107b101528181610842015281816109b701528181610acb01528181610bde01528181610c7001528181610e2d01528181610f2501528181610f99015281816110240152818161127b015281816113d601528181611473015281816115e9015281816119b401528181611cb701528181611e2c0152612024015261286c6000f3fe6080604052600436106101445760003560e01c80639f2211cb116100b6578063e9333fab1161006f578063e9333fab14610386578063eedc966a146103a6578063f259cd27146103c6578063f851a440146103e6578063f887ea40146103fb578063fc488a381461041057600080fd5b80639f2211cb146102dc578063ad97db1b146102fc578063cd3293de1461031c578063d1baa1ef14610331578063db11851e14610346578063e4c34f841461036657600080fd5b80635293840d116101085780635293840d146101fa5780635486c95f1461021a5780636c49c32c1461023b5780637144df241461025b57806384b627f91461027b57806399fa5e2d1461029057600080fd5b806301e336671461015057806303eb17e21461018557806310aded60146101a75780633d3d130d146101ba5780633d77fcde146101da57600080fd5b3661014b57005b600080fd5b34801561015c57600080fd5b5061017061016b366004612349565b610430565b60405190151581526020015b60405180910390f35b34801561019157600080fd5b506101a56101a036600461238a565b61059a565b005b6101a56101b53660046123ff565b6105eb565b3480156101c657600080fd5b506101a56101d53660046124be565b6106f1565b3480156101e657600080fd5b506101a56101f5366004612501565b610815565b34801561020657600080fd5b506101a561021536600461238a565b6108f7565b61022d6102283660046123ff565b61097b565b60405190815260200161017c565b34801561024757600080fd5b5061022d61025636600461251e565b610ac7565b34801561026757600080fd5b506101a561027636600461253b565b610b88565b34801561028757600080fd5b50610170610df7565b34801561029c57600080fd5b506102c47f000000000000000000000000000000000000000000000000000000000000000081565b6040516001600160a01b03909116815260200161017c565b3480156102e857600080fd5b506101a56102f7366004612501565b610e16565b34801561030857600080fd5b5061022d610317366004612579565b610ef6565b34801561032857600080fd5b506102c4611197565b34801561033d57600080fd5b5061022d6111b0565b34801561035257600080fd5b506101a5610361366004612501565b61124e565b34801561037257600080fd5b5061022d6103813660046125cc565b6113c8565b34801561039257600080fd5b506101a56103a1366004612501565b61168b565b3480156103b257600080fd5b5061022d6103c1366004612501565b611722565b3480156103d257600080fd5b506101a56103e1366004612501565b61184d565b3480156103f257600080fd5b506102c4611922565b34801561040757600080fd5b506102c461192c565b34801561041c57600080fd5b506101a561042b36600461261d565b611987565b600061043a611922565b6001600160a01b0316336001600160a01b0316146104735760405162461bcd60e51b815260040161046a90612636565b60405180910390fd5b6001600160a01b0383166104d55760405162461bcd60e51b815260206004820152602360248201527f53696e676c65557365722f7769746864726177546f6b656e2f307852656365696044820152623b32b960e91b606482015260840161046a565b6104dd610df7565b6104f3576104ec848484611aec565b9050610593565b6104fb61192c565b6001600160a01b03166321754d9e85610512611197565b6040516001600160e01b031960e085901b1681526001600160a01b03928316600482015290821660248201529086166044820152606481018590526084016020604051808303816000875af115801561056f573d6000803e3d6000fd5b505050506040513d601f19601f820116820180604052508101906104ec919061266d565b9392505050565b60005b818110156105e6576105d48383838181106105ba576105ba61268a565b90506020020160208101906105cf9190612501565b611be2565b806105de816126b6565b91505061059d565b505050565b6105f3611922565b6001600160a01b0316336001600160a01b0316146106235760405162461bcd60e51b815260040161046a90612636565b7f00000000000000000000000000000000000000000000000000000000000000006001600160a01b0316636a4f769134836000015184602001518560400151866060015162ffffff8016886080015111610681578760800151610689565b6106896111b0565b8860a001518960c001518a60e001516040518a63ffffffff1660e01b81526004016106bb9897969594939291906126cf565b6000604051808303818588803b1580156106d457600080fd5b505af11580156106e8573d6000803e3d6000fd5b50505050505b50565b7f00000000000000000000000000000000000000000000000000000000000000006001600160a01b03811615806107305750336001600160a01b038216145b61074c5760405162461bcd60e51b815260040161046a90612636565b81602001356f6d67762f74726164655375636365737360801b036107795761077383611c76565b50505050565b6040830180359061078d9060208601612501565b6001600160a01b03166107a36020860186612501565b604080516001600160a01b037f0000000000000000000000000000000000000000000000000000000000000000811682528735602083015292909216917f736a3993b9f8b1c5603896c76376792887f376b1fe7fc981e09a16530bf1e4e0910160405180910390a46107738383611eab565b61081d611922565b6001600160a01b0316336001600160a01b031614806108645750336001600160a01b037f000000000000000000000000000000000000000000000000000000000000000016145b6108805760405162461bcd60e51b815260040161046a90612636565b6001600160a01b0381166108cd5760405162461bcd60e51b815260206004820152601460248201527353696e676c65557365722f30785265736572766560601b604482015260640161046a565b806108d6611ac8565b80546001600160a01b0319166001600160a01b039290921691909117905550565b6108ff611922565b6001600160a01b0316336001600160a01b03161461092f5760405162461bcd60e51b815260040161046a90612636565b60005b818110156105e65761096983838381811061094f5761094f61268a565b90506020020160208101906109649190612501565b611eb4565b80610973816126b6565b915050610932565b6000610985611922565b6001600160a01b0316336001600160a01b0316146109b55760405162461bcd60e51b815260040161046a90612636565b7f00000000000000000000000000000000000000000000000000000000000000006001600160a01b03166349f6d2dc34846000015185602001518660400151876060015162ffffff801689608001511015610a14578860800151610a1c565b610a1c6111b0565b60a08a015160c08b01516040516001600160e01b031960e08b901b1681526001600160a01b03978816600482015296909516602487015260448601939093526064850191909152608484015260a483015260c482015260e40160206040518083038185885af1158015610a93573d6000803e3d6000fd5b50505050506040513d601f19601f82011682018060405250810190610ab89190612713565b60e0830181905290505b919050565b60007f00000000000000000000000000000000000000000000000000000000000000006001600160a01b0381161580610b085750336001600160a01b038216145b610b245760405162461bcd60e51b815260040161046a90612636565b6000610b34846080013585611f3b565b1115610b825760405162461bcd60e51b815260206004820152601860248201527f6d67764f666665722f61626f72742f6765744661696c65640000000000000000604482015260640161046a565b50919050565b610b90611922565b6001600160a01b0316336001600160a01b031614610bc05760405162461bcd60e51b815260040161046a90612636565b6000198203610c5a576040516370a0823160e01b81523060048201527f00000000000000000000000000000000000000000000000000000000000000006001600160a01b0316906370a0823190602401602060405180830381865afa158015610c2d573d6000803e3d6000fd5b505050506040513d601f19601f82011682018060405250810190610c519190612713565b91508115610df3575b604051632e1a7d4d60e01b8152600481018390527f00000000000000000000000000000000000000000000000000000000000000006001600160a01b031690632e1a7d4d906024016020604051808303816000875af1158015610cc1573d6000803e3d6000fd5b505050506040513d601f19601f82011682018060405250810190610ce5919061266d565b610d3f5760405162461bcd60e51b815260206004820152602560248201527f6d67764f666665722f776974686472617746726f6d4d67762f776974686472616044820152641dd1985a5b60da1b606482015260840161046a565b6000816001600160a01b03168360405160006040518083038185875af1925050503d8060008114610d8c576040519150601f19603f3d011682016040523d82523d6000602084013e610d91565b606091505b50509050806105e65760405162461bcd60e51b815260206004820152602860248201527f6d67764f666665722f776974686472617746726f6d4d67762f70617961626c6560448201526710d85b1b11985a5b60c21b606482015260840161046a565b5050565b600080610e02611aa4565b600101546001600160a01b03161415919050565b60405163095ea7b360e01b81526001600160a01b037f000000000000000000000000000000000000000000000000000000000000000081166004830152600019602483015282169063095ea7b3906044016020604051808303816000875af1158015610e86573d6000803e3d6000fd5b505050506040513d601f19601f82011682018060405250810190610eaa919061266d565b6106ee5760405162461bcd60e51b815260206004820152601d60248201527f6d67764f666665722f617070726f76654d616e67726f76652f4661696c000000604482015260640161046a565b6000610f00611922565b6001600160a01b0316336001600160a01b03161480610f475750336001600160a01b037f000000000000000000000000000000000000000000000000000000000000000016145b610f635760405162461bcd60e51b815260040161046a90612636565b60405163ad97db1b60e01b81526001600160a01b03868116600483015285811660248301526044820185905283151560648301527f0000000000000000000000000000000000000000000000000000000000000000169063ad97db1b906084016020604051808303816000875af1158015610fe2573d6000803e3d6000fd5b505050506040513d601f19601f820116820180604052508101906110069190612713565b9050801561118f57604051632e1a7d4d60e01b8152600481018290527f00000000000000000000000000000000000000000000000000000000000000006001600160a01b031690632e1a7d4d906024016020604051808303816000875af1158015611075573d6000803e3d6000fd5b505050506040513d601f19601f82011682018060405250810190611099919061266d565b6110f55760405162461bcd60e51b815260206004820152602760248201527f53696e676c65557365722f776974686472617746726f6d4d67762f77697468646044820152661c985dd1985a5b60ca1b606482015260840161046a565b604051600090339083908381818185875af1925050503d8060008114611137576040519150601f19603f3d011682016040523d82523d6000602084013e61113c565b606091505b505090508061118d5760405162461bcd60e51b815260206004820152601a60248201527f53696e676c65557365722f7765695472616e736665724661696c000000000000604482015260640161046a565b505b949350505050565b60006111a1611ac8565b546001600160a01b0316919050565b60006111ba610df7565b15611240576111c761192c565b6001600160a01b0316630417ffda6040518163ffffffff1660e01b8152600401602060405180830381865afa158015611204573d6000803e3d6000fd5b505050506040513d601f19601f820116820180604052508101906112289190612713565b611230611aa4565b5461123b919061272c565b905090565b611248611aa4565b54919050565b611256611922565b6001600160a01b0316336001600160a01b0316148061129d5750336001600160a01b037f000000000000000000000000000000000000000000000000000000000000000016145b6112b95760405162461bcd60e51b815260040161046a90612636565b6001600160a01b03811661130f5760405162461bcd60e51b815260206004820152601c60248201527f6d67764f666665722f7365745f726f757465722f3078526f7574657200000000604482015260640161046a565b80611318611aa4565b60010180546001600160a01b0319166001600160a01b039283161790556040516381bac14f60e01b8152306004820152908216906381bac14f90602401600060405180830381600087803b15801561136f57600080fd5b505af1158015611383573d6000803e3d6000fd5b50506040516001600160a01b03841681527f6de4326a8b9054d72d9dbab97d27bc4edffadee7d966f5af9cc4eafdaf8e5455925060200190505b60405180910390a150565b600080806001600160a01b037f00000000000000000000000000000000000000000000000000000000000000001663cbf75c9a89896040516001600160e01b031960e085901b1681526001600160a01b039283166004820152911660248201526044016040805180830381865afa158015611447573d6000803e3d6000fd5b505050506040513d601f19601f8201168201806040525081019061146b9190612744565b9150915060007f00000000000000000000000000000000000000000000000000000000000000006001600160a01b0316635722647b6114a78b90565b8a6040516001600160e01b031960e085901b1681526001600160a01b0392831660048201529116602482015260448101889052606401602060405180830381865afa1580156114fa573d6000803e3d6000fd5b505050506040513d601f19601f8201168201806040525081019061151e9190612713565b9050600086604085901c61ffff161115611541575061ffff604084901c16611544565b50855b62ffffff8810611559576115566111b0565b97505b60008161156f62ffffff606087901c168b61272c565b6115799190612768565b61158790633b9aca00612768565b9050600061ffff602085901c166115ae62ffffff603087901c811690604888901c1661272c565b6115b89190612768565b6115c690633b9aca00612768565b6040516370a0823160e01b81523060048201529091506000906001600160a01b037f000000000000000000000000000000000000000000000000000000000000000016906370a0823190602401602060405180830381865afa158015611630573d6000803e3d6000fd5b505050506040513d601f19601f820116820180604052508101906116549190612713565b61165e908361272c565b905082811015611677576116728184612787565b61167a565b60005b9d9c50505050505050505050505050565b611693611922565b6001600160a01b0316336001600160a01b0316146116c35760405162461bcd60e51b815260040161046a90612636565b6001600160a01b0381166117195760405162461bcd60e51b815260206004820152601860248201527f416363657373436f6e74726f6c6c65642f307841646d696e0000000000000000604482015260640161046a565b806108d6611a80565b60008061172d611aa4565b600101546001600160a01b0316905080156117ce57806001600160a01b03166305684fde8461175a611197565b6040516001600160e01b031960e085901b1681526001600160a01b03928316600482015291166024820152604401602060405180830381865afa1580156117a5573d6000803e3d6000fd5b505050506040513d601f19601f820116820180604052508101906117c99190612713565b610593565b826001600160a01b03166370a082316117e5611197565b6040516001600160e01b031960e084901b1681526001600160a01b039091166004820152602401602060405180830381865afa158015611829573d6000803e3d6000fd5b505050506040513d601f19601f820116820180604052508101906105939190612713565b806001600160a01b031663095ea7b361186461192c565b6040516001600160e01b031960e084901b1681526001600160a01b03909116600482015260001960248201526044016020604051808303816000875af11580156118b2573d6000803e3d6000fd5b505050506040513d601f19601f820116820180604052508101906118d6919061266d565b6106ee5760405162461bcd60e51b815260206004820152601b60248201527f6d67764f666665722f617070726f7665526f757465722f4661696c0000000000604482015260640161046a565b60006111a1611a80565b600080611937611aa4565b600101546001600160a01b0316905080610ac25760405162461bcd60e51b815260206004820152601160248201527036b3bb27b33332b917983c2937baba32b960791b604482015260640161046a565b61198f611922565b6001600160a01b0316336001600160a01b031614806119d65750336001600160a01b037f000000000000000000000000000000000000000000000000000000000000000016145b6119f25760405162461bcd60e51b815260040161046a90612636565b808162ffffff1614611a465760405162461bcd60e51b815260206004820152601860248201527f6d67764f666665722f6761737265712f6f766572666c6f770000000000000000604482015260640161046a565b80611a4f611aa4565b556040518181527fafef3ad374c0b972e3c793be825735801fa05cc4c67157d98d9a111b4027988d906020016113bd565b7f7d382ebca3e46505071795e192d28166a3d4bd0685585591bc6c5b8df6769fd290565b7fae7e31c3220e851db9f204a28b279dfe52b973600b0a456991089c220ae7222490565b7f7bccd2960a07f28b1420615e9ead32d6e77e21d42f4a6c1a1fe785dae226653290565b6000811580611b0357506001600160a01b03831630145b15611b1057506001610593565b604080516001600160a01b038581166024830152604480830186905283518084039091018152606490920183526020820180516001600160e01b031663a9059cbb60e01b1790529151600092839290881691611b6c919061279e565b6000604051808303816000865af19150503d8060008114611ba9576040519150601f19603f3d011682016040523d82523d6000602084013e611bae565b606091505b5091509150818015611bd8575080511580611bd8575080806020019051810190611bd8919061266d565b9695505050505050565b611bea610df7565b15611c6d57611bf761192c565b6001600160a01b031663a01dccd882611c0e611197565b6040516001600160e01b031960e085901b1681526001600160a01b0392831660048201529116602482015260440160006040518083038186803b158015611c5457600080fd5b505afa158015611c68573d6000803e3d6000fd5b505050505b6106ee81612007565b6000611c81826120f7565b506000611c8d836121a8565b905080600003611ca05750600192915050565b6000611cab846121cd565b90506001600160a01b037f000000000000000000000000000000000000000000000000000000000000000016636a4f7691611ce96020870187612501565b611cf96040880160208901612501565b848660c08a013560481c62ffffff1660c08b013560201c61ffff1660608c013560c01c63ffffffff168c604001356040518963ffffffff1660e01b8152600401611d4a9897969594939291906126cf565b600060405180830381600087803b158015611d6457600080fd5b505af1925050508015611d75575060015b611ea1573d808015611da3576040519150601f19603f3d011682016040523d82523d6000602084013e611da8565b606091505b50805160208201207fc5fc8c2459087ad4f0e957e465df485864a3b1a379c2653ffe7c554981ede67001611e965760408501803590611dea9060208801612501565b6001600160a01b0316611e006020880188612501565b6001600160a01b03167f736a3993b9f8b1c5603896c76376792887f376b1fe7fc981e09a16530bf1e4e07f0000000000000000000000000000000000000000000000000000000000000000604051611e8d91906001600160a01b039190911681527f50657273697374656e742f686f6f6b2f6f75744f6650726f766973696f6e0000602082015260400190565b60405180910390a45b506000949350505050565b5060019392505050565b60015b92915050565b611ebd81610e16565b611ec5610df7565b156106ee57611ed38161184d565b611edb61192c565b604051630716a76760e21b81526001600160a01b0383811660048301529190911690631c5a9d9c90602401600060405180830381600087803b158015611f2057600080fd5b505af1158015611f34573d6000803e3d6000fd5b5050505050565b600080611f56611f4e6020850185612501565b8560006121ef565b9050838110611f69576000915050611eae565b6000611f786020850185612501565b6040516370a0823160e01b81523060048201526001600160a01b0391909116906370a0823190602401602060405180830381865afa158015611fbe573d6000803e3d6000fd5b505050506040513d601f19601f82011682018060405250810190611fe29190612713565b905084811015611ffb57611ff68186612787565b611ffe565b60005b92505050611eae565b604051636eb1769f60e11b81523060048201526001600160a01b037f0000000000000000000000000000000000000000000000000000000000000000811660248301526000919083169063dd62ed3e90604401602060405180830381865afa158015612077573d6000803e3d6000fd5b505050506040513d601f19601f8201168201806040525081019061209b9190612713565b116106ee5760405162461bcd60e51b815260206004820152602660248201527f4d616e67726f76654f666665722f41646d696e4d757374417070726f76654d616044820152656e67726f766560d01b606482015260840161046a565b604080516002808252606082018352600092839291906020830190803683370190505090506121296020840184612501565b8160008151811061213c5761213c61268a565b6001600160a01b039092166020928302919091018201526121639060408501908501612501565b816001815181106121765761217661268a565b60200260200101906001600160a01b031690816001600160a01b03168152505061219f816122b8565b50600192915050565b600060808201356bffffffffffffffffffffffff6060840135165b611eae9190612787565b600060a0820135606080840135901c6bffffffffffffffffffffffff166121c3565b6000806121fa611aa4565b600101546001600160a01b0316905080612218576000915050610593565b806001600160a01b031663333dbb0d86612230611197565b6040516001600160e01b031960e085901b1681526001600160a01b039283166004820152911660248201526044810187905285151560648201526084016020604051808303816000875af115801561228c573d6000803e3d6000fd5b505050506040513d601f19601f820116820180604052508101906122b09190612713565b915050610593565b60006122c2611aa4565b600101546001600160a01b03169050806122da575050565b806001600160a01b031663f850a81c836122f2611197565b6040518363ffffffff1660e01b815260040161230f9291906127d9565b600060405180830381600087803b1580156106d457600080fd5b6001600160a01b03811681146106ee57600080fd5b8035610ac281612329565b60008060006060848603121561235e57600080fd5b833561236981612329565b9250602084013561237981612329565b929592945050506040919091013590565b6000806020838503121561239d57600080fd5b823567ffffffffffffffff808211156123b557600080fd5b818501915085601f8301126123c957600080fd5b8135818111156123d857600080fd5b8660208260051b85010111156123ed57600080fd5b60209290920196919550909350505050565b600061010080838503121561241357600080fd5b6040519081019067ffffffffffffffff8211818310171561244457634e487b7160e01b600052604160045260246000fd5b816040526124518461233e565b815261245f6020850161233e565b602082015260408401356040820152606084013560608201526080840135608082015260a084013560a082015260c084013560c082015260e084013560e0820152809250505092915050565b60006101208284031215610b8257600080fd5b6000808284036101608112156124d357600080fd5b6124dd85856124ab565b9250604061011f19820112156124f257600080fd5b50610120830190509250929050565b60006020828403121561251357600080fd5b813561059381612329565b6000610120828403121561253157600080fd5b61059383836124ab565b6000806040838503121561254e57600080fd5b82359150602083013561256081612329565b809150509250929050565b80151581146106ee57600080fd5b6000806000806080858703121561258f57600080fd5b843561259a81612329565b935060208501356125aa81612329565b92506040850135915060608501356125c18161256b565b939692955090935050565b600080600080600060a086880312156125e457600080fd5b85356125ef81612329565b945060208601356125ff81612329565b94979496505050506040830135926060810135926080909101359150565b60006020828403121561262f57600080fd5b5035919050565b60208082526018908201527f416363657373436f6e74726f6c6c65642f496e76616c69640000000000000000604082015260600190565b60006020828403121561267f57600080fd5b81516105938161256b565b634e487b7160e01b600052603260045260246000fd5b634e487b7160e01b600052601160045260246000fd5b6000600182016126c8576126c86126a0565b5060010190565b6001600160a01b03988916815296909716602087015260408601949094526060850192909252608084015260a083015260c082015260e08101919091526101000190565b60006020828403121561272557600080fd5b5051919050565b6000821982111561273f5761273f6126a0565b500190565b6000806040838503121561275757600080fd5b505080516020909101519092909150565b6000816000190483118215151615612782576127826126a0565b500290565b600082821015612799576127996126a0565b500390565b6000825160005b818110156127bf57602081860181015185830152016127a5565b818111156127ce576000828501525b509190910192915050565b604080825283519082018190526000906020906060840190828701845b8281101561281b5781516001600160a01b0316845292840192908401906001016127f6565b5050506001600160a01b03949094169201919091525091905056fea2646970667358221220fbb865ecb63ab9990595e2c185f8c7fbefafc39f8452451e8ff9c2b539c2ce9464736f6c634300080e0033608060405234801561001057600080fd5b5061c35033806100675760405162461bcd60e51b815260206004820152601860248201527f616363657373436f6e74726f6c6c65642f307841646d696e000000000000000060448201526064015b60405180910390fd5b8061007a61010a60201b6107e51760201c565b80546001600160a01b0319166001600160a01b03929092169190911790555062ffffff811681146100ed5760405162461bcd60e51b815260206004820152601660248201527f526f757465722f6f76657268656164546f6f4869676800000000000000000000604482015260640161005e565b8061010061012e60201b6108091760201c565b6001015550610152565b7f7d382ebca3e46505071795e192d28166a3d4bd0685585591bc6c5b8df6769fd290565b7ff2910982afb88211fa9894801aaf0314409ca240a0a8904897b9f5ba323ca53390565b610ea3806101616000396000f3fe608060405234801561001057600080fd5b50600436106100cf5760003560e01c8063362aecb11161008c578063cf5e7bd311610066578063cf5e7bd314610199578063e9333fab146101ac578063f850a81c146101bf578063f851a440146101d257600080fd5b8063362aecb11461016057806381bac14f14610173578063a01dccd81461018657600080fd5b80630417ffda146100d457806305684fde146100ef5780631c5a9d9c1461010257806321754d9e1461011757806326e8eda21461013a578063333dbb0d1461014d575b600080fd5b6100dc6101f2565b6040519081526020015b60405180910390f35b6100dc6100fd366004610bc3565b610205565b610115610110366004610bfc565b61027a565b005b61012a610125366004610c19565b6102cd565b60405190151581526020016100e6565b610115610148366004610c6a565b61030b565b6100dc61015b366004610cb9565b610341565b61012a61016e366004610bfc565b6103fd565b610115610181366004610bfc565b610429565b610115610194366004610bc3565b6104a7565b6101156101a7366004610bfc565b61057d565b6101156101ba366004610bfc565b6105ce565b6101156101cd366004610d0c565b6106b6565b6101da6107cc565b6040516001600160a01b0390911681526020016100e6565b60006101fc610809565b60010154905090565b6040516370a0823160e01b81526001600160a01b038281166004830152600091908416906370a0823190602401602060405180830381865afa15801561024f573d6000803e3d6000fd5b505050506040513d601f19601f820116820180604052508101906102739190610d92565b9392505050565b6102826107cc565b6001600160a01b0316336001600160a01b031614806102a557506102a5336103fd565b6102ca5760405162461bcd60e51b81526004016102c190610dab565b60405180910390fd5b50565b60006102d8336103fd565b6102f45760405162461bcd60e51b81526004016102c190610dab565b6103008585858561082d565b90505b949350505050565b610314336103fd565b6103305760405162461bcd60e51b81526004016102c190610dab565b61033c8383338461083b565b505050565b600061034c336103fd565b6103685760405162461bcd60e51b81526004016102c190610dab565b6040516370a0823160e01b81523360048201526000906001600160a01b038716906370a0823190602401602060405180830381865afa1580156103af573d6000803e3d6000fd5b505050506040513d601f19601f820116820180604052508101906103d39190610d92565b90508381106103e6576000915050610303565b6103f38686338787610893565b9695505050505050565b6000610407610809565b6001600160a01b03909216600090815260209290925250604090205460ff1690565b6104316107cc565b6001600160a01b0316336001600160a01b031614806104545750610454336103fd565b6104705760405162461bcd60e51b81526004016102c190610dab565b600161047a610809565b6001600160a01b039290921660009081526020929092526040909120805460ff1916911515919091179055565b604051636eb1769f60e11b81523360048201523060248201526000906001600160a01b0384169063dd62ed3e90604401602060405180830381865afa1580156104f4573d6000803e3d6000fd5b505050506040513d601f19601f820116820180604052508101906105189190610d92565b1161056f5760405162461bcd60e51b815260206004820152602160248201527f526f757465722f4e6f74417070726f76656442794d616b6572436f6e747261636044820152601d60fa1b60648201526084016102c1565b61057982826108ba565b5050565b6105856107cc565b6001600160a01b0316336001600160a01b031614806105a857506105a8336103fd565b6105c45760405162461bcd60e51b81526004016102c190610dab565b600061047a610809565b6105d66107cc565b6001600160a01b0316336001600160a01b0316146106365760405162461bcd60e51b815260206004820152601860248201527f416363657373436f6e74726f6c6c65642f496e76616c6964000000000000000060448201526064016102c1565b6001600160a01b03811661068c5760405162461bcd60e51b815260206004820152601860248201527f416363657373436f6e74726f6c6c65642f307841646d696e000000000000000060448201526064016102c1565b806106956107e5565b80546001600160a01b0319166001600160a01b039290921691909117905550565b6106bf336103fd565b6106db5760405162461bcd60e51b81526004016102c190610dab565b60005b828110156107c65760008484838181106106fa576106fa610dd8565b905060200201602081019061070f9190610bfc565b6040516370a0823160e01b81523360048201526001600160a01b0391909116906370a0823190602401602060405180830381865afa158015610755573d6000803e3d6000fd5b505050506040513d601f19601f820116820180604052508101906107799190610d92565b905080156107b3576107b385858481811061079657610796610dd8565b90506020020160208101906107ab9190610bfc565b84338461083b565b50806107be81610dee565b9150506106de565b50505050565b60006107d66107e5565b546001600160a01b0316919050565b7f7d382ebca3e46505071795e192d28166a3d4bd0685585591bc6c5b8df6769fd290565b7ff2910982afb88211fa9894801aaf0314409ca240a0a8904897b9f5ba323ca53390565b600061030085858585610998565b61084784838584610998565b6107c65760405162461bcd60e51b815260206004820152601e60248201527f53696d706c65526f757465722f707573682f7472616e736665724661696c000060448201526064016102c1565b60006108a186868686610998565b156108ad5750816108b1565b5060005b95945050505050565b6001600160a01b0381163014806109425750604051636eb1769f60e11b81526001600160a01b0382811660048301523060248301526000919084169063dd62ed3e90604401602060405180830381865afa15801561091c573d6000803e3d6000fd5b505050506040513d601f19601f820116820180604052508101906109409190610d92565b115b6105795760405162461bcd60e51b815260206004820152602160248201527f53696d706c65526f757465722f4e6f74417070726f76656442795265736572766044820152606560f81b60648201526084016102c1565b60008115806109b85750826001600160a01b0316846001600160a01b0316145b156109c557506001610303565b306001600160a01b038516036109e7576109e0858484610ac2565b9050610303565b604080516001600160a01b0386811660248301528581166044830152606480830186905283518084039091018152608490920183526020820180516001600160e01b03166323b872dd60e01b1790529151600092839290891691610a4b9190610e15565b6000604051808303816000865af19150503d8060008114610a88576040519150601f19603f3d011682016040523d82523d6000602084013e610a8d565b606091505b5091509150818015610ab7575080511580610ab7575080806020019051810190610ab79190610e50565b979650505050505050565b6000811580610ad957506001600160a01b03831630145b15610ae657506001610273565b604080516001600160a01b038581166024830152604480830186905283518084039091018152606490920183526020820180516001600160e01b031663a9059cbb60e01b1790529151600092839290881691610b429190610e15565b6000604051808303816000865af19150503d8060008114610b7f576040519150601f19603f3d011682016040523d82523d6000602084013e610b84565b606091505b50915091508180156103f35750805115806103f35750808060200190518101906103f39190610e50565b6001600160a01b03811681146102ca57600080fd5b60008060408385031215610bd657600080fd5b8235610be181610bae565b91506020830135610bf181610bae565b809150509250929050565b600060208284031215610c0e57600080fd5b813561027381610bae565b60008060008060808587031215610c2f57600080fd5b8435610c3a81610bae565b93506020850135610c4a81610bae565b92506040850135610c5a81610bae565b9396929550929360600135925050565b600080600060608486031215610c7f57600080fd5b8335610c8a81610bae565b92506020840135610c9a81610bae565b929592945050506040919091013590565b80151581146102ca57600080fd5b60008060008060808587031215610ccf57600080fd5b8435610cda81610bae565b93506020850135610cea81610bae565b9250604085013591506060850135610d0181610cab565b939692955090935050565b600080600060408486031215610d2157600080fd5b833567ffffffffffffffff80821115610d3957600080fd5b818601915086601f830112610d4d57600080fd5b813581811115610d5c57600080fd5b8760208260051b8501011115610d7157600080fd5b60209283019550935050840135610d8781610bae565b809150509250925092565b600060208284031215610da457600080fd5b5051919050565b602080825260139082015272149bdd5d195c8bdd5b985d5d1a1bdc9a5e9959606a1b604082015260600190565b634e487b7160e01b600052603260045260246000fd5b600060018201610e0e57634e487b7160e01b600052601160045260246000fd5b5060010190565b6000825160005b81811015610e365760208186018101518583015201610e1c565b81811115610e45576000828501525b509190910192915050565b600060208284031215610e6257600080fd5b815161027381610cab56fea2646970667358221220f4e191b1be5a22571f21b2f90ceb3d6b24b8d7face090b8958379a401d212a0264736f6c634300080e0033416363657373436f6e74726f6c6c65642f496e76616c69640000000000000000",
    "linkReferences": {}
  },
  "methodIdentifiers": {
    "MGV()": "99fa5e2d",
    "activate(address[])": "5293840d",
    "admin()": "f851a440",
    "approveMangrove(address)": "9f2211cb",
    "approveRouter(address)": "f259cd27",
    "checkList(address[])": "03eb17e2",
    "getMissingProvision(address,address,uint256,uint256,uint256)": "e4c34f84",
    "has_router()": "84b627f9",
    "makerExecute((address,address,uint256,uint256,uint256,uint256,uint256,uint256,uint256))": "6c49c32c",
    "makerPosthook((address,address,uint256,uint256,uint256,uint256,uint256,uint256,uint256),(bytes32,bytes32))": "3d3d130d",
    "newOffer((address,address,uint256,uint256,uint256,uint256,uint256,uint256))": "5486c95f",
    "ofr_gasreq()": "d1baa1ef",
    "reserve()": "cd3293de",
    "retractOffer(address,address,uint256,bool)": "ad97db1b",
    "router()": "f887ea40",
    "set_admin(address)": "e9333fab",
    "set_gasreq(uint256)": "fc488a38",
    "set_reserve(address)": "3d77fcde",
    "set_router(address)": "db11851e",
    "tokenBalance(address)": "eedc966a",
    "updateOffer((address,address,uint256,uint256,uint256,uint256,uint256,uint256))": "10aded60",
    "withdrawFromMangrove(uint256,address)": "7144df24",
    "withdrawToken(address,address,uint256)": "01e33667"
  },
  "id": 79
}