{
  "abi": [
    {
      "inputs": [
        {
          "internalType": "address",
          "name": "_addressesProvider",
          "type": "address"
        },
        {
          "internalType": "uint256",
          "name": "_referralCode",
          "type": "uint256"
        }
      ],
      "stateMutability": "nonpayable",
      "type": "constructor"
    },
    {
      "anonymous": false,
      "inputs": [
        {
          "indexed": true,
          "internalType": "address",
          "name": "outbound_tkn",
          "type": "address"
        },
        {
          "indexed": true,
          "internalType": "address",
          "name": "inbound_tkn",
          "type": "address"
        },
        {
          "indexed": true,
          "internalType": "uint256",
          "name": "offerId",
          "type": "uint256"
        },
        {
          "indexed": false,
          "internalType": "uint256",
          "name": "amount",
          "type": "uint256"
        },
        {
          "indexed": false,
          "internalType": "string",
          "name": "errorCode",
          "type": "string"
        }
      ],
      "name": "ErrorOnMint",
      "type": "event"
    },
    {
      "anonymous": false,
      "inputs": [
        {
          "indexed": true,
          "internalType": "address",
          "name": "outbound_tkn",
          "type": "address"
        },
        {
          "indexed": true,
          "internalType": "address",
          "name": "inbound_tkn",
          "type": "address"
        },
        {
          "indexed": true,
          "internalType": "uint256",
          "name": "offerId",
          "type": "uint256"
        },
        {
          "indexed": false,
          "internalType": "uint256",
          "name": "amount",
          "type": "uint256"
        },
        {
          "indexed": false,
          "internalType": "string",
          "name": "errorCode",
          "type": "string"
        }
      ],
      "name": "ErrorOnRedeem",
      "type": "event"
    },
    {
      "inputs": [],
      "name": "lendingPool",
      "outputs": [
        {
          "internalType": "contract ILendingPool",
          "name": "",
          "type": "address"
        }
      ],
      "stateMutability": "view",
      "type": "function"
    },
    {
      "inputs": [
        {
          "internalType": "contract IERC20",
          "name": "asset",
          "type": "address"
        },
        {
          "internalType": "bool",
          "name": "tryBorrow",
          "type": "bool"
        },
        {
          "internalType": "address",
          "name": "onBehalf",
          "type": "address"
        }
      ],
      "name": "maxGettableUnderlying",
      "outputs": [
        {
          "internalType": "uint256",
          "name": "",
          "type": "uint256"
        },
        {
          "internalType": "uint256",
          "name": "",
          "type": "uint256"
        }
      ],
      "stateMutability": "view",
      "type": "function"
    },
    {
      "inputs": [
        {
          "internalType": "contract IERC20",
          "name": "asset",
          "type": "address"
        }
      ],
      "name": "overlying",
      "outputs": [
        {
          "internalType": "contract IERC20",
          "name": "aToken",
          "type": "address"
        }
      ],
      "stateMutability": "view",
      "type": "function"
    },
    {
      "inputs": [],
      "name": "priceOracle",
      "outputs": [
        {
          "internalType": "contract IPriceOracleGetter",
          "name": "",
          "type": "address"
        }
      ],
      "stateMutability": "view",
      "type": "function"
    }
  ],
  "bytecode": {
    "object": "0x60c06040523480156200001157600080fd5b5060405162000ebb38038062000ebb83398101604081905262000034916200025f565b808161ffff16146200008d5760405162461bcd60e51b815260206004820152601e60248201527f526566657272616c20636f64652073686f756c642062652075696e743136000060448201526064015b60405180910390fd5b6000805461ffff19811661ffff90911617815560408051630261bf8b60e01b815290516001600160a01b03851691630261bf8b9160048083019260209291908290030181865afa158015620000e6573d6000803e3d6000fd5b505050506040513d601f19601f820116820180604052508101906200010c91906200028e565b90506000836001600160a01b031663fca513a86040518163ffffffff1660e01b8152600401602060405180830381865afa1580156200014f573d6000803e3d6000fd5b505050506040513d601f19601f820116820180604052508101906200017591906200028e565b90506001600160a01b038216620001cf5760405162461bcd60e51b815260206004820152601b60248201527f496e76616c6964206c656e64696e67506f6f6c20616464726573730000000000604482015260640162000084565b6001600160a01b038116620002275760405162461bcd60e51b815260206004820152601b60248201527f496e76616c69642070726963654f7261636c6520616464726573730000000000604482015260640162000084565b6001600160a01b039182166080521660a05250620002b39050565b80516001600160a01b03811681146200025a57600080fd5b919050565b600080604083850312156200027357600080fd5b6200027e8362000242565b9150602083015190509250929050565b600060208284031215620002a157600080fd5b620002ac8262000242565b9392505050565b60805160a051610bc8620002f36000396000818160ae015261040601526000818160d5015281816101190152818161022601526102d40152610bc86000f3fe608060405234801561001057600080fd5b506004361061004c5760003560e01c80630efc8fd2146100515780632197c31e146100815780632630c12f146100a9578063a59a9973146100d0575b600080fd5b61006461005f366004610744565b6100f7565b6040516001600160a01b0390911681526020015b60405180910390f35b61009461008f366004610761565b610191565b60408051928352602083019190915201610078565b6100647f000000000000000000000000000000000000000000000000000000000000000081565b6100647f000000000000000000000000000000000000000000000000000000000000000081565b6040516335ea6a7560e01b81526001600160a01b0382811660048301526000917f0000000000000000000000000000000000000000000000000000000000000000909116906335ea6a759060240161018060405180830381865afa158015610163573d6000803e3d6000fd5b505050506040513d601f19601f82011682018060405250810190610187919061088f565b60e0015192915050565b6000806101bf6040518060800160405280600081526020016000815260200160008152602001600081525090565b61020760405180610100016040528060008152602001600081526020016000815260200160008152602001600081526020016000815260200160008152602001600081525090565b604051632fe4a15f60e21b81526001600160a01b0386811660048301527f0000000000000000000000000000000000000000000000000000000000000000169063bf92857c9060240160c060405180830381865afa15801561026d573d6000803e3d6000fd5b505050506040513d601f19601f82011682018060405250810190610291919061097c565b60c0870152608086015260a08501526040808501919091526020840191909152908252516335ea6a7560e01b81526001600160a01b0388811660048301526000917f0000000000000000000000000000000000000000000000000000000000000000909116906335ea6a759060240161018060405180830381865afa15801561031e573d6000803e3d6000fd5b505050506040513d601f19601f82011682018060405250810190610342919061088f565b80515160ff603082901c1660408681019190915261ffff601083901c81166020808901919091529216865260e083015181516370a0823160e01b81526001600160a01b038b8116600483015292519495509116926370a08231926024808401939192918290030181865afa1580156103be573d6000803e3d6000fd5b505050506040513d601f19601f820116820180604052508101906103e291906109c6565b60e083015260405163b3596f0760e01b81526001600160a01b0389811660048301527f0000000000000000000000000000000000000000000000000000000000000000169063b3596f0790602401602060405180830381865afa15801561044d573d6000803e3d6000fd5b505050506040513d601f19601f8201168201806040525081019061047191906109c6565b606084015260a082015182516104a1916104979161048f9190610594565b6127106105df565b8360200151610612565b606083015260408301516000906104ef906104bd90600a610ad9565b84606001516104cc9190610ae5565b6104d890612710610ae5565b6104ea86602001518760600151610594565b6105df565b90506104ff818460e0015161064c565b9050876105155794506000935061058c92505050565b600061052861048f838760000151610594565b9050600061055761054d86604001518860400151600a6105489190610ad9565b610594565b87606001516105df565b905080821115610573578260009750975050505050505061058c565b600061057f8284610612565b9398509296505050505050505b935093915050565b60006105d683836040518060400160405280601781526020017f6d756c7469706c69636174696f6e206f766572666c6f77000000000000000000815250610662565b90505b92915050565b60006105d683836040518060400160405280600e81526020016d646976696465206279207a65726f60901b8152506106c9565b60006105d68383604051806040016040528060158152602001747375627472616374696f6e20756e646572666c6f7760581b8152506106fd565b600081831061065b57816105d6565b5090919050565b600083158061066f575082155b1561067c575060006106c2565b60006106888486610ae5565b9050836106958683610b04565b1483906106be5760405162461bcd60e51b81526004016106b59190610b26565b60405180910390fd5b5090505b9392505050565b600081836106ea5760405162461bcd60e51b81526004016106b59190610b26565b506106f58385610b04565b949350505050565b600081848411156107215760405162461bcd60e51b81526004016106b59190610b26565b506106f58385610b7b565b6001600160a01b038116811461074157600080fd5b50565b60006020828403121561075657600080fd5b81356106c28161072c565b60008060006060848603121561077657600080fd5b83356107818161072c565b92506020840135801515811461079657600080fd5b915060408401356107a68161072c565b809150509250925092565b604051610180810167ffffffffffffffff811182821017156107e357634e487b7160e01b600052604160045260246000fd5b60405290565b6000602082840312156107fb57600080fd5b6040516020810181811067ffffffffffffffff8211171561082c57634e487b7160e01b600052604160045260246000fd5b6040529151825250919050565b80516fffffffffffffffffffffffffffffffff8116811461085957600080fd5b919050565b805164ffffffffff8116811461085957600080fd5b80516108598161072c565b805160ff8116811461085957600080fd5b600061018082840312156108a257600080fd5b6108aa6107b1565b6108b484846107e9565b81526108c260208401610839565b60208201526108d360408401610839565b60408201526108e460608401610839565b60608201526108f560808401610839565b608082015261090660a08401610839565b60a082015261091760c0840161085e565b60c082015261092860e08401610873565b60e082015261010061093b818501610873565b9082015261012061094d848201610873565b9082015261014061095f848201610873565b9082015261016061097184820161087e565b908201529392505050565b60008060008060008060c0878903121561099557600080fd5b865195506020870151945060408701519350606087015192506080870151915060a087015190509295509295509295565b6000602082840312156109d857600080fd5b5051919050565b634e487b7160e01b600052601160045260246000fd5b600181815b80851115610a30578160001904821115610a1657610a166109df565b80851615610a2357918102915b93841c93908002906109fa565b509250929050565b600082610a47575060016105d9565b81610a54575060006105d9565b8160018114610a6a5760028114610a7457610a90565b60019150506105d9565b60ff841115610a8557610a856109df565b50506001821b6105d9565b5060208310610133831016604e8410600b8410161715610ab3575081810a6105d9565b610abd83836109f5565b8060001904821115610ad157610ad16109df565b029392505050565b60006105d68383610a38565b6000816000190483118215151615610aff57610aff6109df565b500290565b600082610b2157634e487b7160e01b600052601260045260246000fd5b500490565b600060208083528351808285015260005b81811015610b5357858101830151858201604001528201610b37565b81811115610b65576000604083870101525b50601f01601f1916929092016040019392505050565b600082821015610b8d57610b8d6109df565b50039056fea264697066735822122084660c4aa7323f8c1665fe2d335cdf7c9dfa7895725c200938f24b8ce7a4101564736f6c634300080e0033",
    "linkReferences": {}
  },
  "methodIdentifiers": {
    "lendingPool()": "a59a9973",
    "maxGettableUnderlying(address,bool,address)": "2197c31e",
    "overlying(address)": "0efc8fd2",
    "priceOracle()": "2630c12f"
  },
  "id": 36
}