{
  "abi": [
    {
      "inputs": [
        {
          "internalType": "address",
          "name": "governance",
          "type": "address"
        },
        {
          "internalType": "uint256",
          "name": "gasprice",
          "type": "uint256"
        },
        {
          "internalType": "uint256",
          "name": "gasmax",
          "type": "uint256"
        }
      ],
      "stateMutability": "nonpayable",
      "type": "constructor"
    },
    {
      "anonymous": false,
      "inputs": [
        {
          "indexed": true,
          "internalType": "address",
          "name": "outbound_tkn",
          "type": "address"
        },
        {
          "indexed": true,
          "internalType": "address",
          "name": "inbound_tkn",
          "type": "address"
        },
        {
          "indexed": false,
          "internalType": "address",
          "name": "owner",
          "type": "address"
        },
        {
          "indexed": false,
          "internalType": "address",
          "name": "spender",
          "type": "address"
        },
        {
          "indexed": false,
          "internalType": "uint256",
          "name": "value",
          "type": "uint256"
        }
      ],
      "name": "Approval",
      "type": "event"
    },
    {
      "anonymous": false,
      "inputs": [
        {
          "indexed": true,
          "internalType": "address",
          "name": "maker",
          "type": "address"
        },
        {
          "indexed": false,
          "internalType": "uint256",
          "name": "amount",
          "type": "uint256"
        }
      ],
      "name": "Credit",
      "type": "event"
    },
    {
      "anonymous": false,
      "inputs": [
        {
          "indexed": true,
          "internalType": "address",
          "name": "maker",
          "type": "address"
        },
        {
          "indexed": false,
          "internalType": "uint256",
          "name": "amount",
          "type": "uint256"
        }
      ],
      "name": "Debit",
      "type": "event"
    },
    {
      "anonymous": false,
      "inputs": [],
      "name": "Kill",
      "type": "event"
    },
    {
      "anonymous": false,
      "inputs": [],
      "name": "NewMgv",
      "type": "event"
    },
    {
      "anonymous": false,
      "inputs": [
        {
          "indexed": true,
          "internalType": "address",
          "name": "outbound_tkn",
          "type": "address"
        },
        {
          "indexed": true,
          "internalType": "address",
          "name": "inbound_tkn",
          "type": "address"
        },
        {
          "indexed": false,
          "internalType": "uint256",
          "name": "id",
          "type": "uint256"
        },
        {
          "indexed": false,
          "internalType": "address",
          "name": "taker",
          "type": "address"
        },
        {
          "indexed": false,
          "internalType": "uint256",
          "name": "takerWants",
          "type": "uint256"
        },
        {
          "indexed": false,
          "internalType": "uint256",
          "name": "takerGives",
          "type": "uint256"
        },
        {
          "indexed": false,
          "internalType": "bytes32",
          "name": "mgvData",
          "type": "bytes32"
        }
      ],
      "name": "OfferFail",
      "type": "event"
    },
    {
      "anonymous": false,
      "inputs": [
        {
          "indexed": true,
          "internalType": "address",
          "name": "outbound_tkn",
          "type": "address"
        },
        {
          "indexed": true,
          "internalType": "address",
          "name": "inbound_tkn",
          "type": "address"
        },
        {
          "indexed": false,
          "internalType": "uint256",
          "name": "id",
          "type": "uint256"
        }
      ],
      "name": "OfferRetract",
      "type": "event"
    },
    {
      "anonymous": false,
      "inputs": [
        {
          "indexed": true,
          "internalType": "address",
          "name": "outbound_tkn",
          "type": "address"
        },
        {
          "indexed": true,
          "internalType": "address",
          "name": "inbound_tkn",
          "type": "address"
        },
        {
          "indexed": false,
          "internalType": "uint256",
          "name": "id",
          "type": "uint256"
        },
        {
          "indexed": false,
          "internalType": "address",
          "name": "taker",
          "type": "address"
        },
        {
          "indexed": false,
          "internalType": "uint256",
          "name": "takerWants",
          "type": "uint256"
        },
        {
          "indexed": false,
          "internalType": "uint256",
          "name": "takerGives",
          "type": "uint256"
        }
      ],
      "name": "OfferSuccess",
      "type": "event"
    },
    {
      "anonymous": false,
      "inputs": [
        {
          "indexed": true,
          "internalType": "address",
          "name": "outbound_tkn",
          "type": "address"
        },
        {
          "indexed": true,
          "internalType": "address",
          "name": "inbound_tkn",
          "type": "address"
        },
        {
          "indexed": false,
          "internalType": "address",
          "name": "maker",
          "type": "address"
        },
        {
          "indexed": false,
          "internalType": "uint256",
          "name": "wants",
          "type": "uint256"
        },
        {
          "indexed": false,
          "internalType": "uint256",
          "name": "gives",
          "type": "uint256"
        },
        {
          "indexed": false,
          "internalType": "uint256",
          "name": "gasprice",
          "type": "uint256"
        },
        {
          "indexed": false,
          "internalType": "uint256",
          "name": "gasreq",
          "type": "uint256"
        },
        {
          "indexed": false,
          "internalType": "uint256",
          "name": "id",
          "type": "uint256"
        },
        {
          "indexed": false,
          "internalType": "uint256",
          "name": "prev",
          "type": "uint256"
        }
      ],
      "name": "OfferWrite",
      "type": "event"
    },
    {
      "anonymous": false,
      "inputs": [
        {
          "indexed": true,
          "internalType": "address",
          "name": "outbound_tkn",
          "type": "address"
        },
        {
          "indexed": true,
          "internalType": "address",
          "name": "inbound_tkn",
          "type": "address"
        },
        {
          "indexed": true,
          "internalType": "address",
          "name": "taker",
          "type": "address"
        },
        {
          "indexed": false,
          "internalType": "uint256",
          "name": "takerGot",
          "type": "uint256"
        },
        {
          "indexed": false,
          "internalType": "uint256",
          "name": "takerGave",
          "type": "uint256"
        },
        {
          "indexed": false,
          "internalType": "uint256",
          "name": "penalty",
          "type": "uint256"
        },
        {
          "indexed": false,
          "internalType": "uint256",
          "name": "feePaid",
          "type": "uint256"
        }
      ],
      "name": "OrderComplete",
      "type": "event"
    },
    {
      "anonymous": false,
      "inputs": [],
      "name": "OrderStart",
      "type": "event"
    },
    {
      "anonymous": false,
      "inputs": [
        {
          "indexed": true,
          "internalType": "address",
          "name": "outbound_tkn",
          "type": "address"
        },
        {
          "indexed": true,
          "internalType": "address",
          "name": "inbound_tkn",
          "type": "address"
        },
        {
          "indexed": false,
          "internalType": "uint256",
          "name": "offerId",
          "type": "uint256"
        },
        {
          "indexed": false,
          "internalType": "bytes32",
          "name": "posthookData",
          "type": "bytes32"
        }
      ],
      "name": "PosthookFail",
      "type": "event"
    },
    {
      "anonymous": false,
      "inputs": [
        {
          "indexed": true,
          "internalType": "address",
          "name": "outbound_tkn",
          "type": "address"
        },
        {
          "indexed": true,
          "internalType": "address",
          "name": "inbound_tkn",
          "type": "address"
        },
        {
          "indexed": false,
          "internalType": "bool",
          "name": "value",
          "type": "bool"
        }
      ],
      "name": "SetActive",
      "type": "event"
    },
    {
      "anonymous": false,
      "inputs": [
        {
          "indexed": true,
          "internalType": "address",
          "name": "outbound_tkn",
          "type": "address"
        },
        {
          "indexed": true,
          "internalType": "address",
          "name": "inbound_tkn",
          "type": "address"
        },
        {
          "indexed": false,
          "internalType": "uint256",
          "name": "value",
          "type": "uint256"
        }
      ],
      "name": "SetDensity",
      "type": "event"
    },
    {
      "anonymous": false,
      "inputs": [
        {
          "indexed": true,
          "internalType": "address",
          "name": "outbound_tkn",
          "type": "address"
        },
        {
          "indexed": true,
          "internalType": "address",
          "name": "inbound_tkn",
          "type": "address"
        },
        {
          "indexed": false,
          "internalType": "uint256",
          "name": "value",
          "type": "uint256"
        }
      ],
      "name": "SetFee",
      "type": "event"
    },
    {
      "anonymous": false,
      "inputs": [
        {
          "indexed": true,
          "internalType": "address",
          "name": "outbound_tkn",
          "type": "address"
        },
        {
          "indexed": true,
          "internalType": "address",
          "name": "inbound_tkn",
          "type": "address"
        },
        {
          "indexed": false,
          "internalType": "uint256",
          "name": "offer_gasbase",
          "type": "uint256"
        }
      ],
      "name": "SetGasbase",
      "type": "event"
    },
    {
      "anonymous": false,
      "inputs": [
        {
          "indexed": false,
          "internalType": "uint256",
          "name": "value",
          "type": "uint256"
        }
      ],
      "name": "SetGasmax",
      "type": "event"
    },
    {
      "anonymous": false,
      "inputs": [
        {
          "indexed": false,
          "internalType": "uint256",
          "name": "value",
          "type": "uint256"
        }
      ],
      "name": "SetGasprice",
      "type": "event"
    },
    {
      "anonymous": false,
      "inputs": [
        {
          "indexed": false,
          "internalType": "address",
          "name": "value",
          "type": "address"
        }
      ],
      "name": "SetGovernance",
      "type": "event"
    },
    {
      "anonymous": false,
      "inputs": [
        {
          "indexed": false,
          "internalType": "address",
          "name": "value",
          "type": "address"
        }
      ],
      "name": "SetMonitor",
      "type": "event"
    },
    {
      "anonymous": false,
      "inputs": [
        {
          "indexed": false,
          "internalType": "bool",
          "name": "value",
          "type": "bool"
        }
      ],
      "name": "SetNotify",
      "type": "event"
    },
    {
      "anonymous": false,
      "inputs": [
        {
          "indexed": false,
          "internalType": "bool",
          "name": "value",
          "type": "bool"
        }
      ],
      "name": "SetUseOracle",
      "type": "event"
    },
    {
      "anonymous": false,
      "inputs": [
        {
          "indexed": false,
          "internalType": "address",
          "name": "value",
          "type": "address"
        }
      ],
      "name": "SetVault",
      "type": "event"
    },
    {
      "inputs": [],
      "name": "DOMAIN_SEPARATOR",
      "outputs": [
        {
          "internalType": "bytes32",
          "name": "",
          "type": "bytes32"
        }
      ],
      "stateMutability": "view",
      "type": "function"
    },
    {
      "inputs": [],
      "name": "PERMIT_TYPEHASH",
      "outputs": [
        {
          "internalType": "bytes32",
          "name": "",
          "type": "bytes32"
        }
      ],
      "stateMutability": "view",
      "type": "function"
    },
    {
      "inputs": [
        {
          "internalType": "address",
          "name": "outbound_tkn",
          "type": "address"
        },
        {
          "internalType": "address",
          "name": "inbound_tkn",
          "type": "address"
        },
        {
          "internalType": "uint256",
          "name": "fee",
          "type": "uint256"
        },
        {
          "internalType": "uint256",
          "name": "density",
          "type": "uint256"
        },
        {
          "internalType": "uint256",
          "name": "offer_gasbase",
          "type": "uint256"
        }
      ],
      "name": "activate",
      "outputs": [],
      "stateMutability": "nonpayable",
      "type": "function"
    },
    {
      "inputs": [
        {
          "internalType": "address",
          "name": "",
          "type": "address"
        },
        {
          "internalType": "address",
          "name": "",
          "type": "address"
        },
        {
          "internalType": "address",
          "name": "",
          "type": "address"
        },
        {
          "internalType": "address",
          "name": "",
          "type": "address"
        }
      ],
      "name": "allowances",
      "outputs": [
        {
          "internalType": "uint256",
          "name": "",
          "type": "uint256"
        }
      ],
      "stateMutability": "view",
      "type": "function"
    },
    {
      "inputs": [
        {
          "internalType": "address",
          "name": "outbound_tkn",
          "type": "address"
        },
        {
          "internalType": "address",
          "name": "inbound_tkn",
          "type": "address"
        },
        {
          "internalType": "address",
          "name": "spender",
          "type": "address"
        },
        {
          "internalType": "uint256",
          "name": "value",
          "type": "uint256"
        }
      ],
      "name": "approve",
      "outputs": [
        {
          "internalType": "bool",
          "name": "",
          "type": "bool"
        }
      ],
      "stateMutability": "nonpayable",
      "type": "function"
    },
    {
      "inputs": [
        {
          "internalType": "address",
          "name": "",
          "type": "address"
        }
      ],
      "name": "balanceOf",
      "outputs": [
        {
          "internalType": "uint256",
          "name": "",
          "type": "uint256"
        }
      ],
      "stateMutability": "view",
      "type": "function"
    },
    {
      "inputs": [
        {
          "internalType": "address",
          "name": "outbound_tkn",
          "type": "address"
        },
        {
          "internalType": "address",
          "name": "inbound_tkn",
          "type": "address"
        }
      ],
      "name": "best",
      "outputs": [
        {
          "internalType": "uint256",
          "name": "",
          "type": "uint256"
        }
      ],
      "stateMutability": "view",
      "type": "function"
    },
    {
      "inputs": [
        {
          "internalType": "address",
          "name": "outbound_tkn",
          "type": "address"
        },
        {
          "internalType": "address",
          "name": "inbound_tkn",
          "type": "address"
        }
      ],
      "name": "config",
      "outputs": [
        {
          "internalType": "t",
          "name": "_global",
          "type": "uint256"
        },
        {
          "internalType": "t",
          "name": "_local",
          "type": "uint256"
        }
      ],
      "stateMutability": "view",
      "type": "function"
    },
    {
      "inputs": [
        {
          "internalType": "address",
          "name": "outbound_tkn",
          "type": "address"
        },
        {
          "internalType": "address",
          "name": "inbound_tkn",
          "type": "address"
        }
      ],
      "name": "configInfo",
      "outputs": [
        {
          "components": [
            {
              "internalType": "address",
              "name": "monitor",
              "type": "address"
            },
            {
              "internalType": "bool",
              "name": "useOracle",
              "type": "bool"
            },
            {
              "internalType": "bool",
              "name": "notify",
              "type": "bool"
            },
            {
              "internalType": "uint256",
              "name": "gasprice",
              "type": "uint256"
            },
            {
              "internalType": "uint256",
              "name": "gasmax",
              "type": "uint256"
            },
            {
              "internalType": "bool",
              "name": "dead",
              "type": "bool"
            }
          ],
          "internalType": "struct GlobalStruct",
          "name": "global",
          "type": "tuple"
        },
        {
          "components": [
            {
              "internalType": "bool",
              "name": "active",
              "type": "bool"
            },
            {
              "internalType": "uint256",
              "name": "fee",
              "type": "uint256"
            },
            {
              "internalType": "uint256",
              "name": "density",
              "type": "uint256"
            },
            {
              "internalType": "uint256",
              "name": "offer_gasbase",
              "type": "uint256"
            },
            {
              "internalType": "bool",
              "name": "lock",
              "type": "bool"
            },
            {
              "internalType": "uint256",
              "name": "best",
              "type": "uint256"
            },
            {
              "internalType": "uint256",
              "name": "last",
              "type": "uint256"
            }
          ],
          "internalType": "struct LocalStruct",
          "name": "local",
          "type": "tuple"
        }
      ],
      "stateMutability": "view",
      "type": "function"
    },
    {
      "inputs": [
        {
          "internalType": "address",
          "name": "outbound_tkn",
          "type": "address"
        },
        {
          "internalType": "address",
          "name": "inbound_tkn",
          "type": "address"
        }
      ],
      "name": "deactivate",
      "outputs": [],
      "stateMutability": "nonpayable",
      "type": "function"
    },
    {
      "inputs": [
        {
          "components": [
            {
              "internalType": "address",
              "name": "outbound_tkn",
              "type": "address"
            },
            {
              "internalType": "address",
              "name": "inbound_tkn",
              "type": "address"
            },
            {
              "internalType": "uint256",
              "name": "offerId",
              "type": "uint256"
            },
            {
              "internalType": "t",
              "name": "offer",
              "type": "uint256"
            },
            {
              "internalType": "uint256",
              "name": "wants",
              "type": "uint256"
            },
            {
              "internalType": "uint256",
              "name": "gives",
              "type": "uint256"
            },
            {
              "internalType": "t",
              "name": "offerDetail",
              "type": "uint256"
            },
            {
              "internalType": "t",
              "name": "global",
              "type": "uint256"
            },
            {
              "internalType": "t",
              "name": "local",
              "type": "uint256"
            }
          ],
          "internalType": "struct MgvLib.SingleOrder",
          "name": "sor",
          "type": "tuple"
        },
        {
          "internalType": "address",
          "name": "taker",
          "type": "address"
        }
      ],
      "name": "flashloan",
      "outputs": [
        {
          "internalType": "uint256",
          "name": "gasused",
          "type": "uint256"
        }
      ],
      "stateMutability": "nonpayable",
      "type": "function"
    },
    {
      "inputs": [
        {
          "internalType": "address",
          "name": "maker",
          "type": "address"
        }
      ],
      "name": "fund",
      "outputs": [],
      "stateMutability": "payable",
      "type": "function"
    },
    {
      "inputs": [],
      "name": "fund",
      "outputs": [],
      "stateMutability": "payable",
      "type": "function"
    },
    {
      "inputs": [],
      "name": "governance",
      "outputs": [
        {
          "internalType": "address",
          "name": "",
          "type": "address"
        }
      ],
      "stateMutability": "view",
      "type": "function"
    },
    {
      "inputs": [
        {
          "internalType": "t",
          "name": "offer",
          "type": "uint256"
        }
      ],
      "name": "isLive",
      "outputs": [
        {
          "internalType": "bool",
          "name": "",
          "type": "bool"
        }
      ],
      "stateMutability": "pure",
      "type": "function"
    },
    {
      "inputs": [],
      "name": "kill",
      "outputs": [],
      "stateMutability": "nonpayable",
      "type": "function"
    },
    {
      "inputs": [
        {
          "internalType": "address",
          "name": "outbound_tkn",
          "type": "address"
        },
        {
          "internalType": "address",
          "name": "inbound_tkn",
          "type": "address"
        }
      ],
      "name": "locked",
      "outputs": [
        {
          "internalType": "bool",
          "name": "",
          "type": "bool"
        }
      ],
      "stateMutability": "view",
      "type": "function"
    },
    {
      "inputs": [
        {
          "internalType": "address",
          "name": "outbound_tkn",
          "type": "address"
        },
        {
          "internalType": "address",
          "name": "inbound_tkn",
          "type": "address"
        },
        {
          "internalType": "uint256",
          "name": "takerWants",
          "type": "uint256"
        },
        {
          "internalType": "uint256",
          "name": "takerGives",
          "type": "uint256"
        },
        {
          "internalType": "bool",
          "name": "fillWants",
          "type": "bool"
        }
      ],
      "name": "marketOrder",
      "outputs": [
        {
          "internalType": "uint256",
          "name": "",
          "type": "uint256"
        },
        {
          "internalType": "uint256",
          "name": "",
          "type": "uint256"
        },
        {
          "internalType": "uint256",
          "name": "",
          "type": "uint256"
        },
        {
          "internalType": "uint256",
          "name": "",
          "type": "uint256"
        }
      ],
      "stateMutability": "nonpayable",
      "type": "function"
    },
    {
      "inputs": [
        {
          "internalType": "address",
          "name": "outbound_tkn",
          "type": "address"
        },
        {
          "internalType": "address",
          "name": "inbound_tkn",
          "type": "address"
        },
        {
          "internalType": "uint256",
          "name": "takerWants",
          "type": "uint256"
        },
        {
          "internalType": "uint256",
          "name": "takerGives",
          "type": "uint256"
        },
        {
          "internalType": "bool",
          "name": "fillWants",
          "type": "bool"
        },
        {
          "internalType": "address",
          "name": "taker",
          "type": "address"
        }
      ],
      "name": "marketOrderFor",
      "outputs": [
        {
          "internalType": "uint256",
          "name": "takerGot",
          "type": "uint256"
        },
        {
          "internalType": "uint256",
          "name": "takerGave",
          "type": "uint256"
        },
        {
          "internalType": "uint256",
          "name": "bounty",
          "type": "uint256"
        },
        {
          "internalType": "uint256",
          "name": "feePaid",
          "type": "uint256"
        }
      ],
      "stateMutability": "nonpayable",
      "type": "function"
    },
    {
      "inputs": [
        {
          "internalType": "address",
          "name": "outbound_tkn",
          "type": "address"
        },
        {
          "internalType": "address",
          "name": "inbound_tkn",
          "type": "address"
        },
        {
          "internalType": "uint256",
          "name": "wants",
          "type": "uint256"
        },
        {
          "internalType": "uint256",
          "name": "gives",
          "type": "uint256"
        },
        {
          "internalType": "uint256",
          "name": "gasreq",
          "type": "uint256"
        },
        {
          "internalType": "uint256",
          "name": "gasprice",
          "type": "uint256"
        },
        {
          "internalType": "uint256",
          "name": "pivotId",
          "type": "uint256"
        }
      ],
      "name": "newOffer",
      "outputs": [
        {
          "internalType": "uint256",
          "name": "",
          "type": "uint256"
        }
      ],
      "stateMutability": "payable",
      "type": "function"
    },
    {
      "inputs": [
        {
          "internalType": "address",
          "name": "",
          "type": "address"
        }
      ],
      "name": "nonces",
      "outputs": [
        {
          "internalType": "uint256",
          "name": "",
          "type": "uint256"
        }
      ],
      "stateMutability": "view",
      "type": "function"
    },
    {
      "inputs": [
        {
          "internalType": "address",
          "name": "",
          "type": "address"
        },
        {
          "internalType": "address",
          "name": "",
          "type": "address"
        },
        {
          "internalType": "uint256",
          "name": "",
          "type": "uint256"
        }
      ],
      "name": "offerDetails",
      "outputs": [
        {
          "internalType": "t",
          "name": "",
          "type": "uint256"
        }
      ],
      "stateMutability": "view",
      "type": "function"
    },
    {
      "inputs": [
        {
          "internalType": "address",
          "name": "outbound_tkn",
          "type": "address"
        },
        {
          "internalType": "address",
          "name": "inbound_tkn",
          "type": "address"
        },
        {
          "internalType": "uint256",
          "name": "offerId",
          "type": "uint256"
        }
      ],
      "name": "offerInfo",
      "outputs": [
        {
          "components": [
            {
              "internalType": "uint256",
              "name": "prev",
              "type": "uint256"
            },
            {
              "internalType": "uint256",
              "name": "next",
              "type": "uint256"
            },
            {
              "internalType": "uint256",
              "name": "wants",
              "type": "uint256"
            },
            {
              "internalType": "uint256",
              "name": "gives",
              "type": "uint256"
            }
          ],
          "internalType": "struct OfferStruct",
          "name": "offer",
          "type": "tuple"
        },
        {
          "components": [
            {
              "internalType": "address",
              "name": "maker",
              "type": "address"
            },
            {
              "internalType": "uint256",
              "name": "gasreq",
              "type": "uint256"
            },
            {
              "internalType": "uint256",
              "name": "offer_gasbase",
              "type": "uint256"
            },
            {
              "internalType": "uint256",
              "name": "gasprice",
              "type": "uint256"
            }
          ],
          "internalType": "struct OfferDetailStruct",
          "name": "offerDetail",
          "type": "tuple"
        }
      ],
      "stateMutability": "view",
      "type": "function"
    },
    {
      "inputs": [
        {
          "internalType": "address",
          "name": "",
          "type": "address"
        },
        {
          "internalType": "address",
          "name": "",
          "type": "address"
        },
        {
          "internalType": "uint256",
          "name": "",
          "type": "uint256"
        }
      ],
      "name": "offers",
      "outputs": [
        {
          "internalType": "t",
          "name": "",
          "type": "uint256"
        }
      ],
      "stateMutability": "view",
      "type": "function"
    },
    {
      "inputs": [
        {
          "internalType": "address",
          "name": "outbound_tkn",
          "type": "address"
        },
        {
          "internalType": "address",
          "name": "inbound_tkn",
          "type": "address"
        },
        {
          "internalType": "address",
          "name": "owner",
          "type": "address"
        },
        {
          "internalType": "address",
          "name": "spender",
          "type": "address"
        },
        {
          "internalType": "uint256",
          "name": "value",
          "type": "uint256"
        },
        {
          "internalType": "uint256",
          "name": "deadline",
          "type": "uint256"
        },
        {
          "internalType": "uint8",
          "name": "v",
          "type": "uint8"
        },
        {
          "internalType": "bytes32",
          "name": "r",
          "type": "bytes32"
        },
        {
          "internalType": "bytes32",
          "name": "s",
          "type": "bytes32"
        }
      ],
      "name": "permit",
      "outputs": [],
      "stateMutability": "nonpayable",
      "type": "function"
    },
    {
      "inputs": [
        {
          "internalType": "address",
          "name": "outbound_tkn",
          "type": "address"
        },
        {
          "internalType": "address",
          "name": "inbound_tkn",
          "type": "address"
        },
        {
          "internalType": "uint256",
          "name": "offerId",
          "type": "uint256"
        },
        {
          "internalType": "bool",
          "name": "deprovision",
          "type": "bool"
        }
      ],
      "name": "retractOffer",
      "outputs": [
        {
          "internalType": "uint256",
          "name": "provision",
          "type": "uint256"
        }
      ],
      "stateMutability": "nonpayable",
      "type": "function"
    },
    {
      "inputs": [
        {
          "internalType": "address",
          "name": "outbound_tkn",
          "type": "address"
        },
        {
          "internalType": "address",
          "name": "inbound_tkn",
          "type": "address"
        },
        {
          "internalType": "uint256",
          "name": "density",
          "type": "uint256"
        }
      ],
      "name": "setDensity",
      "outputs": [],
      "stateMutability": "nonpayable",
      "type": "function"
    },
    {
      "inputs": [
        {
          "internalType": "address",
          "name": "outbound_tkn",
          "type": "address"
        },
        {
          "internalType": "address",
          "name": "inbound_tkn",
          "type": "address"
        },
        {
          "internalType": "uint256",
          "name": "fee",
          "type": "uint256"
        }
      ],
      "name": "setFee",
      "outputs": [],
      "stateMutability": "nonpayable",
      "type": "function"
    },
    {
      "inputs": [
        {
          "internalType": "address",
          "name": "outbound_tkn",
          "type": "address"
        },
        {
          "internalType": "address",
          "name": "inbound_tkn",
          "type": "address"
        },
        {
          "internalType": "uint256",
          "name": "offer_gasbase",
          "type": "uint256"
        }
      ],
      "name": "setGasbase",
      "outputs": [],
      "stateMutability": "nonpayable",
      "type": "function"
    },
    {
      "inputs": [
        {
          "internalType": "uint256",
          "name": "gasmax",
          "type": "uint256"
        }
      ],
      "name": "setGasmax",
      "outputs": [],
      "stateMutability": "nonpayable",
      "type": "function"
    },
    {
      "inputs": [
        {
          "internalType": "uint256",
          "name": "gasprice",
          "type": "uint256"
        }
      ],
      "name": "setGasprice",
      "outputs": [],
      "stateMutability": "nonpayable",
      "type": "function"
    },
    {
      "inputs": [
        {
          "internalType": "address",
          "name": "governanceAddress",
          "type": "address"
        }
      ],
      "name": "setGovernance",
      "outputs": [],
      "stateMutability": "nonpayable",
      "type": "function"
    },
    {
      "inputs": [
        {
          "internalType": "address",
          "name": "monitor",
          "type": "address"
        }
      ],
      "name": "setMonitor",
      "outputs": [],
      "stateMutability": "nonpayable",
      "type": "function"
    },
    {
      "inputs": [
        {
          "internalType": "bool",
          "name": "notify",
          "type": "bool"
        }
      ],
      "name": "setNotify",
      "outputs": [],
      "stateMutability": "nonpayable",
      "type": "function"
    },
    {
      "inputs": [
        {
          "internalType": "bool",
          "name": "useOracle",
          "type": "bool"
        }
      ],
      "name": "setUseOracle",
      "outputs": [],
      "stateMutability": "nonpayable",
      "type": "function"
    },
    {
      "inputs": [
        {
          "internalType": "address",
          "name": "vaultAddress",
          "type": "address"
        }
      ],
      "name": "setVault",
      "outputs": [],
      "stateMutability": "nonpayable",
      "type": "function"
    },
    {
      "inputs": [
        {
          "internalType": "address",
          "name": "outbound_tkn",
          "type": "address"
        },
        {
          "internalType": "address",
          "name": "inbound_tkn",
          "type": "address"
        },
        {
          "internalType": "uint256[4][]",
          "name": "targets",
          "type": "uint256[4][]"
        },
        {
          "internalType": "bool",
          "name": "fillWants",
          "type": "bool"
        }
      ],
      "name": "snipes",
      "outputs": [
        {
          "internalType": "uint256",
          "name": "",
          "type": "uint256"
        },
        {
          "internalType": "uint256",
          "name": "",
          "type": "uint256"
        },
        {
          "internalType": "uint256",
          "name": "",
          "type": "uint256"
        },
        {
          "internalType": "uint256",
          "name": "",
          "type": "uint256"
        },
        {
          "internalType": "uint256",
          "name": "",
          "type": "uint256"
        }
      ],
      "stateMutability": "nonpayable",
      "type": "function"
    },
    {
      "inputs": [
        {
          "internalType": "address",
          "name": "outbound_tkn",
          "type": "address"
        },
        {
          "internalType": "address",
          "name": "inbound_tkn",
          "type": "address"
        },
        {
          "internalType": "uint256[4][]",
          "name": "targets",
          "type": "uint256[4][]"
        },
        {
          "internalType": "bool",
          "name": "fillWants",
          "type": "bool"
        },
        {
          "internalType": "address",
          "name": "taker",
          "type": "address"
        }
      ],
      "name": "snipesFor",
      "outputs": [
        {
          "internalType": "uint256",
          "name": "successes",
          "type": "uint256"
        },
        {
          "internalType": "uint256",
          "name": "takerGot",
          "type": "uint256"
        },
        {
          "internalType": "uint256",
          "name": "takerGave",
          "type": "uint256"
        },
        {
          "internalType": "uint256",
          "name": "bounty",
          "type": "uint256"
        },
        {
          "internalType": "uint256",
          "name": "feePaid",
          "type": "uint256"
        }
      ],
      "stateMutability": "nonpayable",
      "type": "function"
    },
    {
      "inputs": [
        {
          "internalType": "address",
          "name": "outbound_tkn",
          "type": "address"
        },
        {
          "internalType": "address",
          "name": "inbound_tkn",
          "type": "address"
        },
        {
          "internalType": "uint256",
          "name": "wants",
          "type": "uint256"
        },
        {
          "internalType": "uint256",
          "name": "gives",
          "type": "uint256"
        },
        {
          "internalType": "uint256",
          "name": "gasreq",
          "type": "uint256"
        },
        {
          "internalType": "uint256",
          "name": "gasprice",
          "type": "uint256"
        },
        {
          "internalType": "uint256",
          "name": "pivotId",
          "type": "uint256"
        },
        {
          "internalType": "uint256",
          "name": "offerId",
          "type": "uint256"
        }
      ],
      "name": "updateOffer",
      "outputs": [],
      "stateMutability": "payable",
      "type": "function"
    },
    {
      "inputs": [],
      "name": "vault",
      "outputs": [
        {
          "internalType": "address",
          "name": "",
          "type": "address"
        }
      ],
      "stateMutability": "view",
      "type": "function"
    },
    {
      "inputs": [
        {
          "internalType": "uint256",
          "name": "amount",
          "type": "uint256"
        }
      ],
      "name": "withdraw",
      "outputs": [
        {
          "internalType": "bool",
          "name": "noRevert",
          "type": "bool"
        }
      ],
      "stateMutability": "nonpayable",
      "type": "function"
    },
    {
      "stateMutability": "payable",
      "type": "receive"
    }
  ],
  "bytecode": {
    "object": "0x60a06040523480156200001157600080fd5b50604051620055e4380380620055e4833981016040819052620000349162000484565b828282604051806040016040528060088152602001674d616e67726f766560c01b815250808484847f72201d073f249840099a96530e189c4291c1852040b1e96ff1f606db656be4ff60405160405180910390a1620000938362000165565b6200009e82620001c4565b620000a98162000277565b620000b48362000327565b5050815160208084019190912060408051808201825260018152603160f81b9084015280517f8b73c3c69bb8fe3d512ecc4cf759cc79239f7b179b0ffacaa9a75d522b39400f938101939093528201527fc89efdaa54c0f20c7adf612882df0950f5a951637e0307cdcb4c672f298b8bc660608201524660808201523060a082015260c001905060408051601f19818403018152919052805160209091012060805250620004c99650505050505050565b6200016f620003d8565b600080546001600160a01b0319166001600160a01b0383169081179091556040519081527fd459c7242e23d490831b5676a611c4342d899d28f342d89ae80793e56a930f30906020015b60405180910390a150565b620001ce620003d8565b61ffff81168114620002275760405162461bcd60e51b815260206004820152601a60248201527f6d67762f636f6e6669672f67617370726963652f31366269747300000000000060448201526064015b60405180910390fd5b62000243816001546200044960201b62001e221790919060201c565b6001556040518181527fdbebd814ae648f654dcc50c734aa76e55a32e96b7d85303a08e2ddf11874a0dd90602001620001b9565b62000281620003d8565b808162ffffff1614620002d75760405162461bcd60e51b815260206004820152601860248201527f6d67762f636f6e6669672f6761736d61782f323462697473000000000000000060448201526064016200021e565b620002f3816001546200046760201b62001e451790919060201c565b6001556040518181527f8cdff0cd5ed2543bcdf7eb93d8ec1c23626e579925f4531beeef15d84cf78d1890602001620001b9565b62000331620003d8565b6001600160a01b038116620003895760405162461bcd60e51b815260206004820152601360248201527f6d67762f636f6e6669672f676f762f6e6f74300000000000000000000000000060448201526064016200021e565b600380546001600160a01b0319166001600160a01b0383169081179091556040519081527f24a8c4807b324a269a51827c3446b8ac1cc13810d7d0c0ca1efafabddd7b621990602001620001b9565b6003546001600160a01b0316331480620003f157503330145b806200040657506003546001600160a01b0316155b620004475760405162461bcd60e51b815260206004820152601060248201526f1b59dd8bdd5b985d5d1a1bdc9a5e995960821b60448201526064016200021e565b565b60401b69ffff00000000000000001661ffff60401b19919091161790565b60281b67ffffff00000000001662ffffff60281b19919091161790565b6000806000606084860312156200049a57600080fd5b83516001600160a01b0381168114620004b257600080fd5b602085015160409095015190969495509392505050565b6080516150f8620004ec60003960008181610364015261177e01526150f86000f3fe60806040526004361061024a5760003560e01c80636d27de6711610139578063b60d4288116100b6578063dc7e98df1161007a578063dc7e98df146108a8578063def5ddaa146108c8578063fbb66910146108e8578063fbfa77cf14610908578063fbffe5fd14610928578063fcaa7e2e1461094857600080fd5b8063b60d4288146107e4578063c7bb25d0146107ec578063cbf75c9a14610833578063d0ee509914610868578063db20266f1461088857600080fd5b8063aa4dd282116100fd578063aa4dd28214610744578063ab033ea914610764578063ad97db1b14610784578063b09d2a16146107a4578063b2b12057146107c457600080fd5b80636d27de671461061457806370a08231146106545780637ecebe00146106815780638c66715c146106ae57806395999ee31461072457600080fd5b80635722647b116101c7578063644e67031161018b578063644e6703146104cc5780636804f613146105835780636817031b146105a357806368c13d6b146105c35780636a4f76911461060157600080fd5b80635722647b146103f657806359eba454146104345780635a611f4e146104545780635aa6e675146104745780635cd82390146104ac57600080fd5b806330adf81f1161020e57806330adf81f146103105780633644e5151461035257806341c0e1b51461038657806346e142fa1461039b57806349f6d2dc146103e357600080fd5b80630b73a18f1461025f578063230244081461027f578063275074581461029257806327d097c6146102d05780632e1a7d4d146102f057600080fd5b3661025a5761025833610968565b005b600080fd5b34801561026b57600080fd5b5061025861027a366004614926565b61098f565b61025861028d366004614973565b610968565b34801561029e57600080fd5b506102bb6102ad36600461498e565b6001600160601b0316151590565b60405190151581526020015b60405180910390f35b3480156102dc57600080fd5b506102586102eb3660046149a7565b610a2d565b3480156102fc57600080fd5b506102bb61030b36600461498e565b610b08565b34801561031c57600080fd5b506103447fb7bf278e51ab1478b10530c0300f911d9ed3562fc93ab5e6593368fe23c077a281565b6040519081526020016102c7565b34801561035e57600080fd5b506103447f000000000000000000000000000000000000000000000000000000000000000081565b34801561039257600080fd5b50610258610b62565b3480156103a757600080fd5b506103bb6103b6366004614a36565b610baa565b604080519586526020860194909452928401919091526060830152608082015260a0016102c7565b6103446103f1366004614aaf565b610bd6565b34801561040257600080fd5b506103446104113660046149a7565b600560209081526000938452604080852082529284528284209052825290205481565b34801561044057600080fd5b506102bb61044f366004614b0d565b610d41565b34801561046057600080fd5b5061025861046f366004614b58565b610dca565b34801561048057600080fd5b50600354610494906001600160a01b031681565b6040516001600160a01b0390911681526020016102c7565b3480156104b857600080fd5b506102586104c7366004614973565b610e24565b3480156104d857600080fd5b506104ec6104e7366004614b75565b610e84565b6040805183516001600160a01b0316815260208085015115158183015284830151151582840152606080860151818401526080808701518185015260a0968701511515878501528551151560c0808601919091529286015160e0850152938501516101008401528401516101208301529183015115156101408201529282015161016084015201516101808201526101a0016102c7565b34801561058f57600080fd5b5061025861059e366004614b58565b610f87565b3480156105af57600080fd5b506102586105be366004614973565b610fd1565b3480156105cf57600080fd5b506103446105de3660046149a7565b600460209081526000938452604080852082529284528284209052825290205481565b61025861060f366004614ba8565b611027565b34801561062057600080fd5b5061063461062f366004614c0f565b61113a565b6040805194855260208501939093529183015260608201526080016102c7565b34801561066057600080fd5b5061034461066f366004614973565b60066020526000908152604090205481565b34801561068d57600080fd5b5061034461069c366004614973565b60086020526000908152604090205481565b3480156106ba57600080fd5b506106ce6106c93660046149a7565b611171565b60408051835181526020808501518183015284830151828401526060948501518583015283516001600160a01b0316608083015283015160a08201529082015160c082015291015160e0820152610100016102c7565b34801561073057600080fd5b5061025861073f36600461498e565b61124d565b34801561075057600080fd5b5061034461075f366004614c77565b6112e9565b34801561077057600080fd5b5061025861077f366004614973565b61141e565b34801561079057600080fd5b5061034461079f366004614caa565b6114c0565b3480156107b057600080fd5b506102586107bf366004614cf9565b611692565b3480156107d057600080fd5b506103bb6107df366004614d8f565b61198b565b6102586119c7565b3480156107f857600080fd5b50610344610807366004614e09565b600760209081526000948552604080862082529385528385208152918452828420909152825290205481565b34801561083f57600080fd5b5061085361084e366004614b75565b6119d2565b604080519283526020830191909152016102c7565b34801561087457600080fd5b50610258610883366004614b75565b611acf565b34801561089457600080fd5b506102bb6108a3366004614b75565b611b40565b3480156108b457600080fd5b506102586108c33660046149a7565b611b7b565b3480156108d457600080fd5b506103446108e3366004614b75565b611c3b565b3480156108f457600080fd5b506102586109033660046149a7565b611c73565b34801561091457600080fd5b50600054610494906001600160a01b031681565b34801561093457600080fd5b50610634610943366004614e5d565b611d60565b34801561095457600080fd5b5061025861096336600461498e565b611d87565b60006109756000806119d2565b50905061098181611e64565b61098b8234611ea7565b5050565b610997611f03565b6001600160a01b0385811660008181526002602090815260408083209489168084529482529182902080546001600160f81b0316600160f81b17905581516001815291517fc4ad6e84469caa93e473acfa6c029fcf9d3757d8e268e6233c150771e9f88da69281900390910190a3610a10858585611b7b565b610a1b858584611c73565b610a26858583610a2d565b5050505050565b610a35611f03565b808162ffffff1614610a8e5760405162461bcd60e51b815260206004820152601f60248201527f6d67762f636f6e6669672f6f666665725f676173626173652f3234626974730060448201526064015b60405180910390fd5b6001600160a01b03838116600081815260026020908152604080832094871680845294825291829020805462ffffff60601b191662ffffff60601b606088901b1617905590518481527fc5859916e5f3fc1ed4d2cfb8c7a6cf709580f228fa0c9d9e0fa468744c7e4a9191015b60405180910390a3505050565b6000610b143383611f6e565b60405133908390600081818185875af1925050503d8060008114610b54576040519150601f19603f3d011682016040523d82523d6000602084013e610b59565b606091505b50909392505050565b610b6a611f03565b60015464ff000000001916640100000000176001556040517fbe26733c2bf6ff3ea5ba8cfe744422bd49052ff9ed5685c9e81e6f9321dbaddd90600090a1565b6000806000806000610bc08a8a8a8a8a33612033565b939e929d50909b50995090975095505050505050565b6000610be06147d2565b610bea89896119d2565b6101208301819052610100830191909152610c0490612180565b610c188161010001518261012001516121cc565b3415610c2857610c283334611ea7565b61012081015160181c63ffffffff166001016080820181905263ffffffff811614610c8b5760405162461bcd60e51b81526020600482015260136024820152726d67762f6f6666657249644f766572666c6f7760681b6044820152606401610a85565b6080810151610120820151610cb79160181b66ffffffff0000001666ffffffff00000019919091161790565b6101208201526001600160a01b03808a16825288166020820152604081018790526060810186905260a0810185905260c0810184905260e08101839052610cff81600061221c565b61012081015181516001600160a01b03908116600090815260026020908152604080832082870151909416835292905220556080015198975050505050505050565b6001600160a01b038085166000818152600760209081526040808320888616808552908352818420338086529084528285209689168552959092528083208690555191939092917f6e791f456e6f5034d4928b936c32bf7e650d8228543ce7985d632ab03934837d91610db79188908890614eaa565b60405180910390a3506001949350505050565b610dd2611f03565b60015460ff60501b191660ff60501b605083901b161760015560405181151581527f9b84fe4d9ffc14a6f7ec50c18884ee0d4bb8165aa718a28558df12ab4bd32b14906020015b60405180910390a150565b610e2c611f03565b6001546001600160601b03166001600160601b0319606083901b16176001556040516001600160a01b03821681527ff592e42c32883b35bebfbf9d9b801570a25d5ccbba452310746ad2cfd20d548f90602001610e19565b6040805160c081018252600080825260208201819052918101829052606081018290526080810182905260a0810191909152610efa6040518060e0016040528060001515815260200160008152602001600081526020016000815260200160001515815260200160008152602001600081525090565b600080610f0786866119d2565b91509150610f71826040805160c081018252606083811c8252605884901c60ff9081161515602080850191909152605086901c82161515848601529385901c61ffff1691830191909152602884901c62ffffff1660808301529290911c909116151560a082015290565b9350610f7c81612999565b925050509250929050565b610f8f611f03565b600154610f9c9082612a47565b60015560405181151581527fbf39fbfab835c119637f4dbc4fb0f428c559c210200405d1ec25ddb50a93f9d490602001610e19565b610fd9611f03565b600080546001600160a01b0319166001600160a01b0383169081179091556040519081527fd459c7242e23d490831b5676a611c4342d899d28f342d89ae80793e56a930f3090602001610e19565b61102f6147d2565b61103989896119d2565b610120830181905261010083019190915261105390612180565b6110678161010001518261012001516121cc565b3415611077576110773334611ea7565b6001600160a01b03808a16808352908916602080840182905260408085018b9052606085018a90526080850186905260a0850189905260c0850188905260e0850187905260009384526004825280842092845291815281832085845290529020546101408201526101208101516110ef82600161221c565b610120820151811461112e5761012082015182516001600160a01b03908116600090815260026020908152604080832082880151909416835292905220555b50505050505050505050565b60008060008061114e8a8a8a8a8a8a612a5e565b929650909450925090506111648a8a8786612d46565b9650965096509692505050565b61119c6040518060800160405280600081526020016000815260200160008152602001600081525090565b6111d0604051806080016040528060006001600160a01b031681526020016000815260200160008152602001600081525090565b6001600160a01b03808616600090815260046020908152604080832093881683529281528282208683529052205461120781612e46565b6001600160a01b038088166000908152600560209081526040808320938a1683529281528282208883529052205490935061124181612ea8565b92505050935093915050565b611255611f03565b808162ffffff16146112a95760405162461bcd60e51b815260206004820152601860248201527f6d67762f636f6e6669672f6761736d61782f32346269747300000000000000006044820152606401610a85565b6001546112b69082611e45565b6001556040518181527f8cdff0cd5ed2543bcdf7eb93d8ec1c23626e579925f4531beeef15d84cf78d1890602001610e19565b600033301461133a5760405162461bcd60e51b815260206004820152601760248201527f6d67762f666c6173686c6f616e2f70726f7465637465640000000000000000006044820152606401610a85565b61135961134d6040850160208601614973565b83308660a00135612f17565b156113da576113836113716040850160208601614973565b60c085013560601c8560a00135612fff565b1561139857611391836130d6565b9050611418565b60408051606081018252731b59dd8bdb585ad95c949958d95a5d9951985a5b60621b8152600060208201819052918101919091526113d590606081fd5b611418565b60408051606081018252741b59dd8bdd185ad95c951c985b9cd9995c91985a5b605a1b81526000602082018190529181019190915261141890606081fd5b92915050565b611426611f03565b6001600160a01b0381166114725760405162461bcd60e51b815260206004820152601360248201527206d67762f636f6e6669672f676f762f6e6f743606c1b6044820152606401610a85565b600380546001600160a01b0319166001600160a01b0383169081179091556040519081527f24a8c4807b324a269a51827c3446b8ac1cc13810d7d0c0ca1efafabddd7b621990602001610e19565b6000806114cd86866119d2565b9150506114d981612180565b6001600160a01b038087166000818152600460209081526040808320948a1680845294825280832089845282528083205493835260058252808320948352938152838220888352905291909120546115318160601c90565b6001600160a01b0316336001600160a01b0316146115915760405162461bcd60e51b815260206004820152601d60248201527f6d67762f726574726163744f666665722f756e617574686f72697a65640000006044820152606401610a85565b6001600160601b038216156115f557826115c189896115b08660e01c90565b60c087901c63ffffffff1688613257565b93508084146115f3576001600160a01b03808a166000908152600260209081526040808320938c168352929052208490555b505b61160388888885858a613337565b841561163a57603081901c62ffffff16604882901c62ffffff1601602082901c61ffff16633b9aca000202935061163a3385611ea7565b866001600160a01b0316886001600160a01b03167fe2ce51fba856682424155a2d89b2ad1d2adde6ea0a9e3115b4b474cd6cb1798b8860405161167f91815260200190565b60405180910390a3505050949350505050565b428410156116d75760405162461bcd60e51b81526020600482015260126024820152711b59dd8bdc195c9b5a5d0bd95e1c1a5c995960721b6044820152606401610a85565b6001600160a01b03878116600081815260086020908152604080832080546001810190915581517fb7bf278e51ab1478b10530c0300f911d9ed3562fc93ab5e6593368fe23c077a2818501528f8716818401528e871660608201526080810195909552948b1660a085015260c084018a905260e084018590526101008085018a9052815180860390910181526101208501909152805191012061190160f01b6101408401527f0000000000000000000000000000000000000000000000000000000000000000610142840152610162830152906101820160408051601f198184030181528282528051602091820120600080855291840180845281905260ff89169284019290925260608301879052608083018690529092509060019060a0016020604051602081039080840390855afa158015611819573d6000803e3d6000fd5b5050604051601f1901519150506001600160a01b0381161580159061184f5750896001600160a01b0316816001600160a01b0316145b61189b5760405162461bcd60e51b815260206004820152601b60248201527f6d67762f7065726d69742f696e76616c69645369676e617475726500000000006044820152606401610a85565b87600760008e6001600160a01b03166001600160a01b0316815260200190815260200160002060008d6001600160a01b03166001600160a01b0316815260200190815260200160002060008c6001600160a01b03166001600160a01b0316815260200190815260200160002060008b6001600160a01b03166001600160a01b03168152602001908152602001600020819055508a6001600160a01b03168c6001600160a01b03167f6e791f456e6f5034d4928b936c32bf7e650d8228543ce7985d632ab03934837d8c8c8c60405161197593929190614eaa565b60405180910390a3505050505050505050505050565b60008060008060006119a18b8b8b8b8b8b612033565b9398509196509450925090506119b98b8b8886612d46565b965096509650965096915050565b6119d033610968565b565b6001546001600160a01b03838116600090815260026020908152604080832093861683529290522054605882901c60ff1615611ac857600080611a158460601c90565b604051636968abd360e01b81526001600160a01b03888116600483015287811660248301529190911690636968abd3906044016040805180830381865afa158015611a64573d6000803e3d6000fd5b505050506040513d601f19601f82011682018060405250810190611a889190614ece565b91509150611a998261ffff81161490565b15611aab57611aa88483611e22565b93505b6001600160701b0381168103611ac557610f7c83826133ac565b50505b9250929050565b611ad7611f03565b6001600160a01b03828116600081815260026020908152604080832094861680845294825280832080546001600160f81b031690558051928352517fc4ad6e84469caa93e473acfa6c029fcf9d3757d8e268e6233c150771e9f88da69281900390910190a35050565b6001600160a01b038281166000908152600260209081526040808320938516835292905290812054605881901c60ff1615155b949350505050565b611b83611f03565b6101f4811115611bcc5760405162461bcd60e51b815260206004820152601460248201527306d67762f636f6e6669672f6665652f3c3d3530360641b6044820152606401610a85565b6001600160a01b03838116600081815260026020908152604080832094871680845294825291829020805461ffff60e81b191661ffff60e81b60e888901b1617905590518481527f44a6d70a601a6f8a85c075467e9d7245897140cbf6dd505c9d9d764459f5fb649101610afb565b6001600160a01b038281166000908152600260209081526040808320938516835292905290812054603881901c63ffffffff16611b73565b611c7b611f03565b6001600160701b0381168114611cd35760405162461bcd60e51b815260206004820152601a60248201527f6d67762f636f6e6669672f64656e736974792f313132626974730000000000006044820152606401610a85565b6001600160a01b03808416600090815260026020908152604080832093861683529290522054611d0390826133ac565b6001600160a01b038481166000818152600260209081526040808320948816808452948252918290209490945551848152919290917f95f1a495c6d9d1a215995408f6ad898c2b33798d6eb3cf3220b4c6cc8b61b0649101610afb565b600080600080611d74898989898933612a5e565b929c919b50995090975095505050505050565b611d8f611f03565b61ffff81168114611de25760405162461bcd60e51b815260206004820152601a60248201527f6d67762f636f6e6669672f67617370726963652f3136626974730000000000006044820152606401610a85565b600154611def9082611e22565b6001556040518181527fdbebd814ae648f654dcc50c734aa76e55a32e96b7d85303a08e2ddf11874a0dd90602001610e19565b60401b69ffff00000000000000001669ffff000000000000000019919091161790565b60281b67ffffff00000000001667ffffff000000000019919091161790565b602081901c60ff1615611ea45760405162461bcd60e51b81526020600482015260086024820152671b59dd8bd919585960c21b6044820152606401610a85565b50565b6001600160a01b03821660008181526006602052604090819020805484019055517f1bbf55d483639f8103dc4e035af71a4fbdb16c80be740fa3eef81198acefa09490611ef79084815260200190565b60405180910390a25050565b6003546001600160a01b0316331480611f1b57503330145b80611f2f57506003546001600160a01b0316155b6119d05760405162461bcd60e51b815260206004820152601060248201526f1b59dd8bdd5b985d5d1a1bdc9a5e995960821b6044820152606401610a85565b6001600160a01b03821660009081526006602052604090205481811015611fd75760405162461bcd60e51b815260206004820152601960248201527f6d67762f696e73756666696369656e7450726f766973696f6e000000000000006044820152606401610a85565b6001600160a01b038316600081815260066020526040908190208484039055517f59c79d79be0fadf59fe689b6952b7ebe90201a3a1f00d4a31982377890bc6046906120269085815260200190565b60405180910390a2505050565b600080600080600061204361483e565b6001600160a01b03808d1682528b1660208201526120618c8c6119d2565b61010083015260e082015261207461489c565b6001600160a01b03881660a082015288151560c082015260e08201516101008301516120a091906121cc565b6120ae826101000151612180565b6040517fbc01c241b6c13c2ee496b5103c73ba7c02e7d4bbc77ee637862cc2b152f068b990600090a16120e381838d8d6133dd565b608084015192995090975095506120f990613862565b602080830151835160808085015160e0860151604080518d81529687018c905286019190915260608501526001600160a01b03808d1694938116939216917ff906db58b0529ffcfdb9bf545bfdbace7ca86906a716bfd1b65f62ff07cdec47910160405180910390a4806080015193508060e0015192505050965096509650965096915050565b605881901c60ff1615611ea45760405162461bcd60e51b81526020600482015260146024820152731b59dd8bdc99595b9d1c985b98de531bd8dad95960621b6044820152606401610a85565b6121d582611e64565b6121e18160f81c151590565b61098b5760405162461bcd60e51b815260206004820152600c60248201526b6d67762f696e61637469766560a01b6044820152606401610a85565b60c082015161ffff8116146122735760405162461bcd60e51b815260206004820152601e60248201527f6d67762f77726974654f666665722f67617370726963652f31366269747300006044820152606401610a85565b61010082015160401c61ffff168260c00151101561229e5761010082015160401c61ffff1660c08301525b61010082015160281c62ffffff168260a0015111156122ff5760405162461bcd60e51b815260206004820152601d60248201527f6d67762f77726974654f666665722f6761737265712f746f6f486967680000006044820152606401610a85565b60008260600151116123535760405162461bcd60e51b815260206004820152601b60248201527f6d67762f77726974654f666665722f67697665732f746f6f4c6f7700000000006044820152606401610a85565b61012082015160781c6001600160701b031661012083015160601c62ffffff168360a001510102826060015110156123cd5760405162461bcd60e51b815260206004820152601d60248201527f6d67762f77726974654f666665722f64656e736974792f746f6f4c6f770000006044820152606401610a85565b60608201516001600160601b038116146124295760405162461bcd60e51b815260206004820152601b60248201527f6d67762f77726974654f666665722f67697665732f39366269747300000000006044820152606401610a85565b60408201516001600160601b038116146124855760405162461bcd60e51b815260206004820152601b60248201527f6d67762f77726974654f666665722f77616e74732f39366269747300000000006044820152606401610a85565b60008061249184613900565b9150915083602001516001600160a01b031684600001516001600160a01b03167f2b101f9ef8ca2761d91bea55ab50a4d051e9248088ff7314ddb8826839544c2a33876040015188606001518960c001518a60a001518b608001518a60405161253697969594939291906001600160a01b03979097168752602087019590955260408601939093526060850191909152608084015260a083015260c082015260e00190565b60405180910390a383516001600160a01b039081166000908152600560209081526040808320828901519094168352928152828220608088015183529052908120548415612610576125888160601c90565b6001600160a01b0316336001600160a01b0316146125e85760405162461bcd60e51b815260206004820152601c60248201527f6d67762f7570646174654f666665722f756e617574686f72697a6564000000006044820152606401610a85565b603081901c62ffffff16604882901c62ffffff1601602082901c61ffff16633b9aca00020291505b84158061262a575060a0860151604882901c62ffffff1614155b80612641575060c0860151602082901c61ffff1614155b80612662575061012086015160601c62ffffff16603082901c62ffffff1614155b1561270c5761012086015160009060601c62ffffff1690506126d2338860a00151838a60c0015160201b65ffff000000001660309190911b68ffffff0000000000001660489290921b6bffffff0000000000000000001660609390931b6001600160601b03191692909217171790565b87516001600160a01b039081166000908152600560209081526040808320828d0151909416835292815282822060808c0151835290522055505b5060c08501516101208601516000919060601c62ffffff168760a001510102633b9aca000290508181111561274c5761274733838303611f6e565b612760565b818110156127605761276033828403611ea7565b506101408501516001600160601b03161580612784575061014085015160e01c8314155b1561291057821561280a57608085015185516001600160a01b039081166000908152600460209081526040808320828b01519094168352928152828220878352905220546127d191613b2c565b85516001600160a01b039081166000908152600460209081526040808320828b015190941683529281528282208783529052205561283d565b60808501516101208601516128369160381b63ffffffff60381b1663ffffffff60381b19919091161790565b6101208601525b81156128b457608085015185516001600160a01b039081166000908152600460208181526040808420828c018051871686529083528185208986528352818520548c518716865293835281852090519095168452938152838320878452905291902060e09290921b6001600160e01b039091161790555b8380156128ce57506101408501516001600160601b031615155b1561291057612909856000015186602001516128ef88610140015160e01c90565b61014089015160c01c63ffffffff16896101200151613257565b6101208601525b60408501516060808701516000926001600160601b03909116911b6bffffffffffffffffffffffff60601b1660c085901b63ffffffff60c01b1660e087901b17171786516001600160a01b039081166000908152600460209081526040808320828c015190941683529281528282206080909a0151825298909852909620959095555050505050565b6129dd6040518060e0016040528060001515815260200160008152602001600081526020016000815260200160001515815260200160008152602001600081525090565b60f882901c1515815260e882901c61ffff166020820152607882901c6001600160701b03166040820152606082811c62ffffff1690820152605882901c60ff1615156080820152603882901c63ffffffff90811660a083015260189290921c90911660c082015290565b60581b60ff60581b1660ff60581b19919091161790565b60008060008087886001600160a01b031614612abc5760405162461bcd60e51b815260206004820152601d60248201527f6d67762f6d4f726465722f74616b657257616e74732f313630626974730000006044820152606401610a85565b86876001600160a01b031614612b145760405162461bcd60e51b815260206004820152601d60248201527f6d67762f6d4f726465722f74616b657247697665732f313630626974730000006044820152606401610a85565b612b1c61483e565b6001600160a01b03808c1682528a166020820152612b3a8b8b6119d2565b610100830181905260e083019190915260381c63ffffffff1660408083019182526001600160a01b03808e16600090815260046020908152838220928f1682529182528281209351815292905290205460608201526080810189905260a08101889052612ba561489c565b898152602081018990526001600160a01b03871660a082015287151560c082015260e0820151610100830151612bdb91906121cc565b612be9826101000151612180565b610100820151612bfa906001612a47565b82610100018181525050816101000151600260008e6001600160a01b03166001600160a01b0316815260200190815260200160002060008d6001600160a01b03166001600160a01b03168152602001908152602001600020819055507fbc01c241b6c13c2ee496b5103c73ba7c02e7d4bbc77ee637862cc2b152f068b960405160405180910390a1612c8e81836001613b49565b612c9b8160800151613862565b866001600160a01b03168b6001600160a01b03168d6001600160a01b03167ff906db58b0529ffcfdb9bf545bfdbace7ca86906a716bfd1b65f62ff07cdec478460400151856060015186608001518760e00151604051612d14949392919093845260208401929092526040830152606082015260800190565b60405180910390a460408101516060820151608083015160e090930151919e909d50919b509950975050505050505050565b6001600160a01b0380851660009081526007602090815260408083208785168452825280832093861683529281528282203383529052205481811015612dc15760405162461bcd60e51b815260206004820152601060248201526f6d67762f6c6f77416c6c6f77616e636560801b6044820152606401610a85565b6001600160a01b0380861660008181526007602090815260408083208986168085529083528184209589168452948252808320338085529252918290208686039081905591517f6e791f456e6f5034d4928b936c32bf7e650d8228543ce7985d632ab03934837d92612e37928992909190614eaa565b60405180910390a35050505050565b612e716040518060800160405280600081526020016000815260200160008152602001600081525090565b60e082901c815263ffffffff60c083901c1660208201526001600160601b03606083811c8216604084015292169181019190915290565b612edc604051806080016040528060006001600160a01b031681526020016000815260200160008152602001600081525090565b606082811c8252604883901c62ffffff908116602080850191909152603085901c90911660408401529290921c61ffff169181019190915290565b6000806323b872dd60e01b858585604051602401612f3793929190614eaa565b604051602081830303815290604052906001600160e01b0319166020820180516001600160e01b0383818316178352505050509050600080876001600160a01b031683604051612f879190614ef2565b6000604051808303816000865af19150503d8060008114612fc4576040519150601f19603f3d011682016040523d82523d6000602084013e612fc9565b606091505b5091509150818015612ff3575080511580612ff3575080806020019051810190612ff39190614f2d565b98975050505050505050565b604080516001600160a01b038481166024830152604480830185905283518084039091018152606490920183526020820180516001600160e01b031663a9059cbb60e01b17905291516000928391829188169061305d908590614ef2565b6000604051808303816000865af19150503d806000811461309a576040519150601f19603f3d011682016040523d82523d6000602084013e61309f565b606091505b50915091508180156130c95750805115806130c95750808060200190518101906130c99190614f2d565b93505050505b9392505050565b600080636c49c32c60e01b836040516024016130f29190614f4a565b60408051808303601f190181529190526020810180516001600160e01b0319939093166001600160e01b0390931692909217909152905060c0830135604881901c62ffffff169060601c60005a905082604082048203101561319457604080516060810182527f6d67762f6e6f74456e6f756768476173466f724d616b6572547261646500000081526000602082018190529181019190915261319490606081fd5b6000806131a2848688613db1565b915091505a83039650816131e8576131e860405180606001604052806e1b59dd8bdb585ad95c94995d995c9d608a1b81526020018960001b815260200183815250606081fd5b60006132066131fa60208b018b614973565b86308c60800135612f17565b90508061324b5761324b6040518060600160405280741b59dd8bdb585ad95c951c985b9cd9995c91985a5b605a1b81526020018a60001b815260200184815250606081fd5b50505050505050919050565b600083156132ca576001600160a01b0380871660009081526004602090815260408083209389168352928152828220878352905220546132979084613b2c565b6001600160a01b038088166000908152600460209081526040808320938a168352928152828220888352905220556132e7565b63ffffffff60381b19821663ffffffff60381b603885901b161791505b821561332e576001600160a01b038681166000908152600460209081526040808320938916835292815282822086835290522080546001600160e01b031660e086901b1790555b50949350505050565b6001600160601b03198316925080156133575765ffff0000000019821691505b506001600160a01b039485166000818152600460209081526040808320979098168083529681528782208683528152878220949094559081526005835285812094815293825284842092845291905291902055565b60781b6dffffffffffffffffffffffffffff60781b166dffffffffffffffffffffffffffff60781b19919091161790565b60008080805b8481101561385757600060408901819052606089015285858281811061340b5761340b614fdc565b90506080020160006004811061342357613423614fdc565b60209081029190910135604089810191825289516001600160a01b039081166000908152600485528281208c86018051841683529086528382208551835286528382205460608e019081528d518416835260058752848320915190931682528552828120935181529290935290205460c0890152516001600160601b031615806134ef57508585828181106134ba576134ba614fdc565b9050608002016003600481106134d2576134d2614fdc565b60200201356134ed8860c0015162ffffff60489190911c1690565b115b61384f5785858281811061350557613505614fdc565b90506080020160016004811061351d5761351d614fdc565b602002013586868381811061353457613534614fdc565b90506080020160016004811061354c5761354c614fdc565b60200201356001600160601b0316146135a75760405162461bcd60e51b815260206004820152601c60248201527f6d67762f736e697065732f74616b657257616e74732f393662697473000000006044820152606401610a85565b8585828181106135b9576135b9614fdc565b9050608002016002600481106135d1576135d1614fdc565b60200201358686838181106135e8576135e8614fdc565b90506080020160026004811061360057613600614fdc565b60200201356001600160601b03161461365b5760405162461bcd60e51b815260206004820152601c60248201527f6d67762f736e697065732f74616b657247697665732f393662697473000000006044820152606401610a85565b85858281811061366d5761366d614fdc565b90506080020160016004811061368557613685614fdc565b602002013560808801528585828181106136a1576136a1614fdc565b9050608002016002600481106136b9576136b9614fdc565b602002013560a08801526101008701516136d4906001612a47565b610100880181905287516001600160a01b039081166000908152600260209081526040808320828d015190941683529290529081209190915580806137198b8b613ddf565b925092509250806f6d67762f74726164655375636365737360801b03613740576001870196505b806e1b59dd8bdb9bdd115e1958dd5d1959608a1b146137945761378d8a600001518b602001516137748d6060015160e01c90565b60608e015160c01c63ffffffff168e6101000151613257565b6101008b01525b6101008a01516137a5906000612a47565b8a610100018181525050896101000151600260008c600001516001600160a01b03166001600160a01b0316815260200190815260200160002060008c602001516001600160a01b03166001600160a01b03168152602001908152602001600020819055506138138b8b6143df565b806e1b59dd8bdb9bdd115e1958dd5d1959608a1b14613839576138398b8b8585856144e1565b8a60400151860195508a60600151850194505050505b6001016133e3565b509450945094915050565b8015611ea457604051600090339083908381818185875af1925050503d80600081146138aa576040519150601f19603f3d011682016040523d82523d6000602084013e6138af565b606091505b505090508061098b5760405162461bcd60e51b815260206004820152601760248201527f6d67762f73656e6450656e616c747952657665727465640000000000000000006044820152606401610a85565b60008060008060008560e0015190506000866080015182146139555786516001600160a01b039081166000908152600460209081526040808320828c015190941683529281528282208583529052205461395c565b8661014001515b90506001600160601b0381166139b55761012087015160381c63ffffffff1687516001600160a01b039081166000908152600460209081526040808320828d015190941683529281528282208483529052205490925090505b6139c0878284614544565b15613a5a5760005b60c082901c63ffffffff1615613a42575086516001600160a01b039081166000908152600460209081526040808320828c0151909416835292815282822063ffffffff60c086901c1680845291529190205490613a26898383614544565b15613a3657809350819250613a3c565b50613a42565b506139c8565b8260c083901c63ffffffff169095509350613ae39050565b60005b613a678260e01c90565b15613ad0576000613a788360e01c90565b89516001600160a01b039081166000908152600460209081526040808320828f015190941683529281528282208483529052205492509050613abb898383614544565b15613ac65750613ad0565b9250905080613a5d565b613ada8260e01c90565b94509192508291505b86608001518414613af45783613afe565b61014087015160e01c5b87608001518414613b0f5783613b1f565b61014088015160c01c63ffffffff165b9550955050505050915091565b60c01b63ffffffff60c01b1663ffffffff60c01b19919091161790565b808015613b7057508260c00151613b675760008260a0015111613b70565b60008260800151115b8015613b80575060008260400151115b15613d3c5781516001600160a01b03908116600090815260056020908152604080832082870151909416835292815282822083860151835290529081205460c08401528080613bcf8686613ddf565b608088015160a089015160408a015160608b015160c08c015196995094975092955090939092906e1b59dd8bdb9bdd115e1958dd5d1959608a1b8614613cc65760408b01518b5111613c22576000613c2b565b60408b01518b51035b60808b015260608b81015160208d01510360a08c01528a015160c01c63ffffffff168a6040018181525050600460008b600001516001600160a01b03166001600160a01b0316815260200190815260200160002060008b602001516001600160a01b03166001600160a01b0316815260200190815260200160002060008b604001518152602001908152602001600020548a60600181815250505b613ce68b8b886e1b59dd8bdb9bdd115e1958dd5d1959608a1b1415613b49565b60408a0183905260808a0185905260a08a0184905260608a0182905260c08a018190526e1b59dd8bdb9bdd115e1958dd5d1959608a1b8614613d2f57613d2f8b8b8a8a8a6144e1565b5050505050505050505050565b613d5b8260000151836020015160008560400151866101000151613257565b6101008301819052613d6e906000612a47565b610100830181905282516001600160a01b0390811660009081526002602090815260408083208288015190941683529290522055613dac83836143df565b505050565b600080613dbc6148ec565b60648185516020870160008a8af192508060448415020151915050935093915050565b600080600080613dff85606001516001600160601b0360609190911c1690565b90506000613e1786606001516001600160601b031690565b608087015160a0880151919250908083028483021115613e575750600095508594506e1b59dd8bdb9bdd115e1958dd5d1959608a1b93506143d892505050565b8860c001518015613e6757508183105b80613e7e57508860c00151158015613e7e57508084105b15613e96576080880183905260a08801849052613f0d565b8860c0015115613ee157838202838181613eb257613eb2614fc6565b0615613ebf576001613ec2565b60005b60ff16848281613ed457613ed4614fc6565b040160a08a015250613f0d565b83600003613ef55760808801839052613f0d565b8381840281613f0657613f06614fc6565b0460808901525b50505050600080306001600160a01b031663aa4dd28260e01b878960a00151604051602401613f3d929190615058565b60408051601f198184030181529181526020820180516001600160e01b03166001600160e01b0319909416939093179092529051613f7b9190614ef2565b6000604051808303816000865af19150503d8060008114613fb8576040519150601f19603f3d011682016040523d82523d6000602084013e613fbd565b606091505b509150915081156141175780806020019051810190613fdc9190615080565b94506f6d67762f74726164655375636365737360801b925085602001516001600160a01b031686600001516001600160a01b03167f1d81940ff2c3ac549c8acefd7c1b2ffb24aacc8b3cfa309c22abc3de79727f9d88604001518a60a001518a608001518b60a0015160405161407494939291909384526001600160a01b039290921660208401526040830152606082015260800190565b60405180910390a360e086015160501c60ff16156140f25760e086015160a088015160405163cac1827160e01b815260609290921c9163cac18271916140bf918a9190600401615058565b600060405180830381600087803b1580156140d957600080fd5b505af11580156140ed573d6000803e3d6000fd5b505050505b6080860151604088018051909101905260a0860151606088018051909101905261439d565b602081015160408201516060830151909650945092506e1b59dd8bdb585ad95c94995d995c9d608a1b831480614164575082741b59dd8bdb585ad95c951c985b9cd9995c91985a5b605a1b145b80614185575082731b59dd8bdb585ad95c949958d95a5d9951985a5b60621b145b156142975785602001516001600160a01b031686600001516001600160a01b03167f1d59c048edb5397821854bd12cbe02242b82101c677f949d076d14eb7bd8343688604001518a60a001518a608001518b60a00151896040516142149594939291909485526001600160a01b0393909316602085015260408401919091526060830152608082015260a00190565b60405180910390a360e086015160501c60ff16156142925760e086015160a0880151604051631159507360e01b815260609290921c9163115950739161425f918a9190600401615058565b600060405180830381600087803b15801561427957600080fd5b505af115801561428d573d6000803e3d6000fd5b505050505b61439d565b827f6d67762f6e6f74456e6f756768476173466f724d616b65725472616465000000036143065760405162461bcd60e51b815260206004820152601d60248201527f6d67762f6e6f74456e6f756768476173466f724d616b657254726164650000006044820152606401610a85565b82741b59dd8bdd185ad95c951c985b9cd9995c91985a5b605a1b036143655760405162461bcd60e51b81526020600482015260156024820152741b59dd8bdd185ad95c951c985b9cd9995c91985a5b605a1b6044820152606401610a85565b60405162461bcd60e51b815260206004820152600d60248201526c36b3bb17b9bbb0b822b93937b960991b6044820152606401610a85565b6143d586600001518760200151886040015189606001518a60c00151886f6d67762f74726164655375636365737360801b1415613337565b50505b9250925092565b6101008101516000906127109060e81c61ffff168460400151028161440657614406614fc6565b049050801561447c57604083018051829003905260e08301819052815160005461443a91906001600160a01b031683612fff565b61447c5760405162461bcd60e51b81526020600482015260136024820152721b59dd8bd99959551c985b9cd9995c91985a5b606a1b6044820152606401610a85565b604083015115613dac5761449d82600001518460a001518560400151612fff565b613dac5760405162461bcd60e51b815260206004820152601560248201527436b3bb17a6b3bb2330b4b62a37a830bcaa30b5b2b960591b6044820152606401610a85565b60c084015160481c62ffffff16808411156144fa578093505b6145088585830385856145ea565b84019350816f6d67762f74726164655375636365737360801b1461453c576145308585614740565b60808701805190910190525b505050505050565b600081600003614556575060016130cf565b60408401516060858101516001600160601b039186901c82169291861691908084028284028082036145dd5789516001600160a01b039081166000908152600560209081526040808320828f015190941683529281528282208b835290529081205460481c62ffffff1660a08c0151940295909302949094101595506130cf945050505050565b1194506130cf9350505050565b600080633d3d130d60e01b8660405180604001604052808781526020018681525060405160240161461c929190615099565b60408051601f198184030181529190526020810180516001600160e01b03166001600160e01b0319939093169290921790915260c087015190915060601c60005a90508660408204820310156146b45760405162461bcd60e51b815260206004820181905260248201527f6d67762f6e6f74456e6f756768476173466f724d616b6572506f7374686f6f6b6044820152606401610a85565b6000806146c2848a87613db1565b915091505a83039550816147335789602001516001600160a01b03168a600001516001600160a01b03167f51d5a3ecf332626d83c8207fe9bd22f38801f578c7eb222e2d811cd1b4c629a58c604001518460405161472a929190918252602082015260400190565b60405180910390a35b5050505050949350505050565b60c082015160009062ffffff604882901c81169161ffff602082901c1660309190911c909116820102633b9aca00028184111561477b578193505b61010085015160009060601c62ffffff1660e08701519086019060401c61ffff16633b9aca0002029050818111156147b05750805b6147c96147c18760c0015160601c90565b828403611ea7565b95945050505050565b60405180610160016040528060006001600160a01b0316815260200160006001600160a01b031681526020016000815260200160008152602001600081526020016000815260200160008152602001600081526020016000815260200160008152602001600081525090565b60405180610120016040528060006001600160a01b0316815260200160006001600160a01b03168152602001600081526020016000815260200160008152602001600081526020016000815260200160008152602001600081525090565b604051806101000160405280600081526020016000815260200160008152602001600081526020016000815260200160006001600160a01b03168152602001600015158152602001600081525090565b60405180608001604052806004906020820280368337509192915050565b80356001600160a01b038116811461492157600080fd5b919050565b600080600080600060a0868803121561493e57600080fd5b6149478661490a565b94506149556020870161490a565b94979496505050506040830135926060810135926080909101359150565b60006020828403121561498557600080fd5b6130cf8261490a565b6000602082840312156149a057600080fd5b5035919050565b6000806000606084860312156149bc57600080fd5b6149c58461490a565b92506149d36020850161490a565b9150604084013590509250925092565b60008083601f8401126149f557600080fd5b50813567ffffffffffffffff811115614a0d57600080fd5b6020830191508360208260071b8501011115611ac857600080fd5b8015158114611ea457600080fd5b600080600080600060808688031215614a4e57600080fd5b614a578661490a565b9450614a656020870161490a565b9350604086013567ffffffffffffffff811115614a8157600080fd5b614a8d888289016149e3565b9094509250506060860135614aa181614a28565b809150509295509295909350565b600080600080600080600060e0888a031215614aca57600080fd5b614ad38861490a565b9650614ae16020890161490a565b96999698505050506040850135946060810135946080820135945060a0820135935060c0909101359150565b60008060008060808587031215614b2357600080fd5b614b2c8561490a565b9350614b3a6020860161490a565b9250614b486040860161490a565b9396929550929360600135925050565b600060208284031215614b6a57600080fd5b81356130cf81614a28565b60008060408385031215614b8857600080fd5b614b918361490a565b9150614b9f6020840161490a565b90509250929050565b600080600080600080600080610100898b031215614bc557600080fd5b614bce8961490a565b9750614bdc60208a0161490a565b979a9799505050506040860135956060810135956080820135955060a0820135945060c0820135935060e0909101359150565b60008060008060008060c08789031215614c2857600080fd5b614c318761490a565b9550614c3f6020880161490a565b945060408701359350606087013592506080870135614c5d81614a28565b9150614c6b60a0880161490a565b90509295509295509295565b600080828403610140811215614c8c57600080fd5b61012080821215614c9c57600080fd5b849350610f7c81860161490a565b60008060008060808587031215614cc057600080fd5b614cc98561490a565b9350614cd76020860161490a565b9250604085013591506060850135614cee81614a28565b939692955090935050565b60008060008060008060008060006101208a8c031215614d1857600080fd5b614d218a61490a565b9850614d2f60208b0161490a565b9750614d3d60408b0161490a565b9650614d4b60608b0161490a565b955060808a0135945060a08a0135935060c08a013560ff81168114614d6f57600080fd5b8093505060e08a013591506101008a013590509295985092959850929598565b60008060008060008060a08789031215614da857600080fd5b614db18761490a565b9550614dbf6020880161490a565b9450604087013567ffffffffffffffff811115614ddb57600080fd5b614de789828a016149e3565b9095509350506060870135614dfb81614a28565b9150614c6b6080880161490a565b60008060008060808587031215614e1f57600080fd5b614e288561490a565b9350614e366020860161490a565b9250614e446040860161490a565b9150614e526060860161490a565b905092959194509250565b600080600080600060a08688031215614e7557600080fd5b614e7e8661490a565b9450614e8c6020870161490a565b935060408601359250606086013591506080860135614aa181614a28565b6001600160a01b039384168152919092166020820152604081019190915260600190565b60008060408385031215614ee157600080fd5b505080516020909101519092909150565b6000825160005b81811015614f135760208186018101518583015201614ef9565b81811115614f22576000828501525b509190910192915050565b600060208284031215614f3f57600080fd5b81516130cf81614a28565b61012081016001600160a01b0380614f618561490a565b16835280614f716020860161490a565b1660208401525060408301356040830152606083013560608301526080830135608083015260a083013560a083015260c083013560c083015260e083013560e083015261010080840135818401525092915050565b634e487b7160e01b600052601260045260246000fd5b634e487b7160e01b600052603260045260246000fd5b60018060a01b038082511683528060208301511660208401525060408101516040830152606081015160608301526080810151608083015260a081015160a083015260c081015160c083015260e081015160e08301526101008082015181840152505050565b61014081016150678285614ff2565b6001600160a01b03929092166101209190910152919050565b60006020828403121561509257600080fd5b5051919050565b61016081016150a88285614ff2565b82516101208301526020830151610140830152939250505056fea264697066735822122063bc37507b0e565e2a8136c576c1357b3a90b594b4c54a87e5a42e97ece520f764736f6c634300080e0033",
    "linkReferences": {}
  },
  "methodIdentifiers": {
    "DOMAIN_SEPARATOR()": "3644e515",
    "PERMIT_TYPEHASH()": "30adf81f",
    "activate(address,address,uint256,uint256,uint256)": "0b73a18f",
    "allowances(address,address,address,address)": "c7bb25d0",
    "approve(address,address,address,uint256)": "59eba454",
    "balanceOf(address)": "70a08231",
    "best(address,address)": "def5ddaa",
    "config(address,address)": "cbf75c9a",
    "configInfo(address,address)": "644e6703",
    "deactivate(address,address)": "d0ee5099",
    "flashloan((address,address,uint256,uint256,uint256,uint256,uint256,uint256,uint256),address)": "aa4dd282",
    "fund()": "b60d4288",
    "fund(address)": "23024408",
    "governance()": "5aa6e675",
    "isLive(uint256)": "27507458",
    "kill()": "41c0e1b5",
    "locked(address,address)": "db20266f",
    "marketOrder(address,address,uint256,uint256,bool)": "fbffe5fd",
    "marketOrderFor(address,address,uint256,uint256,bool,address)": "6d27de67",
    "newOffer(address,address,uint256,uint256,uint256,uint256,uint256)": "49f6d2dc",
    "nonces(address)": "7ecebe00",
    "offerDetails(address,address,uint256)": "5722647b",
    "offerInfo(address,address,uint256)": "8c66715c",
    "offers(address,address,uint256)": "68c13d6b",
    "permit(address,address,address,address,uint256,uint256,uint8,bytes32,bytes32)": "b09d2a16",
    "retractOffer(address,address,uint256,bool)": "ad97db1b",
    "setDensity(address,address,uint256)": "fbb66910",
    "setFee(address,address,uint256)": "dc7e98df",
    "setGasbase(address,address,uint256)": "27d097c6",
    "setGasmax(uint256)": "95999ee3",
    "setGasprice(uint256)": "fcaa7e2e",
    "setGovernance(address)": "ab033ea9",
    "setMonitor(address)": "5cd82390",
    "setNotify(bool)": "5a611f4e",
    "setUseOracle(bool)": "6804f613",
    "setVault(address)": "6817031b",
    "snipes(address,address,uint256[4][],bool)": "46e142fa",
    "snipesFor(address,address,uint256[4][],bool,address)": "b2b12057",
    "updateOffer(address,address,uint256,uint256,uint256,uint256,uint256,uint256)": "6a4f7691",
    "vault()": "fbfa77cf",
    "withdraw(uint256)": "2e1a7d4d"
  },
  "id": 13
}