{
  "abi": [
    {
      "inputs": [
        {
          "internalType": "contract AbstractMangrove",
          "name": "_mgv",
          "type": "address"
        },
        {
          "internalType": "address",
          "name": "_base",
          "type": "address"
        },
        {
          "internalType": "address",
          "name": "_quote",
          "type": "address"
        }
      ],
      "stateMutability": "nonpayable",
      "type": "constructor"
    },
    {
      "inputs": [
        {
          "internalType": "contract IERC20",
          "name": "token",
          "type": "address"
        },
        {
          "internalType": "uint256",
          "name": "amount",
          "type": "uint256"
        }
      ],
      "name": "approveMgv",
      "outputs": [],
      "stateMutability": "nonpayable",
      "type": "function"
    },
    {
      "inputs": [
        {
          "components": [
            {
              "internalType": "address",
              "name": "outbound_tkn",
              "type": "address"
            },
            {
              "internalType": "address",
              "name": "inbound_tkn",
              "type": "address"
            },
            {
              "internalType": "uint256",
              "name": "offerId",
              "type": "uint256"
            },
            {
              "internalType": "t",
              "name": "offer",
              "type": "uint256"
            },
            {
              "internalType": "uint256",
              "name": "wants",
              "type": "uint256"
            },
            {
              "internalType": "uint256",
              "name": "gives",
              "type": "uint256"
            },
            {
              "internalType": "t",
              "name": "offerDetail",
              "type": "uint256"
            },
            {
              "internalType": "t",
              "name": "global",
              "type": "uint256"
            },
            {
              "internalType": "t",
              "name": "local",
              "type": "uint256"
            }
          ],
          "internalType": "struct MgvLib.SingleOrder",
          "name": "order",
          "type": "tuple"
        }
      ],
      "name": "makerExecute",
      "outputs": [
        {
          "internalType": "bytes32",
          "name": "ret",
          "type": "bytes32"
        }
      ],
      "stateMutability": "nonpayable",
      "type": "function"
    },
    {
      "inputs": [
        {
          "components": [
            {
              "internalType": "address",
              "name": "outbound_tkn",
              "type": "address"
            },
            {
              "internalType": "address",
              "name": "inbound_tkn",
              "type": "address"
            },
            {
              "internalType": "uint256",
              "name": "offerId",
              "type": "uint256"
            },
            {
              "internalType": "t",
              "name": "offer",
              "type": "uint256"
            },
            {
              "internalType": "uint256",
              "name": "wants",
              "type": "uint256"
            },
            {
              "internalType": "uint256",
              "name": "gives",
              "type": "uint256"
            },
            {
              "internalType": "t",
              "name": "offerDetail",
              "type": "uint256"
            },
            {
              "internalType": "t",
              "name": "global",
              "type": "uint256"
            },
            {
              "internalType": "t",
              "name": "local",
              "type": "uint256"
            }
          ],
          "internalType": "struct MgvLib.SingleOrder",
          "name": "order",
          "type": "tuple"
        },
        {
          "components": [
            {
              "internalType": "bytes32",
              "name": "makerData",
              "type": "bytes32"
            },
            {
              "internalType": "bytes32",
              "name": "mgvData",
              "type": "bytes32"
            }
          ],
          "internalType": "struct MgvLib.OrderResult",
          "name": "result",
          "type": "tuple"
        }
      ],
      "name": "makerPosthook",
      "outputs": [],
      "stateMutability": "nonpayable",
      "type": "function"
    },
    {
      "inputs": [
        {
          "internalType": "uint256",
          "name": "wants",
          "type": "uint256"
        },
        {
          "internalType": "uint256",
          "name": "gives",
          "type": "uint256"
        },
        {
          "internalType": "uint256",
          "name": "gasreq",
          "type": "uint256"
        },
        {
          "internalType": "uint256",
          "name": "pivotId",
          "type": "uint256"
        }
      ],
      "name": "newOffer",
      "outputs": [],
      "stateMutability": "nonpayable",
      "type": "function"
    },
    {
      "inputs": [
        {
          "internalType": "uint256",
          "name": "amount",
          "type": "uint256"
        }
      ],
      "name": "provisionMgv",
      "outputs": [],
      "stateMutability": "nonpayable",
      "type": "function"
    },
    {
      "stateMutability": "payable",
      "type": "receive"
    }
  ],
  "bytecode": {
    "object": "0x608060405234801561001057600080fd5b506040516108d83803806108d883398101604081905261002f91610098565b600080546001600160a01b039485166001600160a01b031991821617909155600180549385169390911692909217909155600280546001600160a81b0319169190921617600160a01b1790556100e5565b6001600160a01b038116811461009557600080fd5b50565b6000806000606084860312156100ad57600080fd5b83516100b881610080565b60208501519093506100c981610080565b60408501519092506100da81610080565b809150509250925092565b6107e4806100f46000396000f3fe60806040526004361061004e5760003560e01c80633d3d130d1461005a5780636c49c32c1461007b578063a3cfe14d146100ad578063cda30c3b146100cd578063d3845fea146100ed57600080fd5b3661005557005b600080fd5b34801561006657600080fd5b506100796100753660046105c4565b5050565b005b34801561008757600080fd5b5061009b610096366004610607565b61010d565b60405190815260200160405180910390f35b3480156100b957600080fd5b506100796100c836600461062b565b610156565b3480156100d957600080fd5b506100796100e8366004610663565b6101d2565b3480156100f957600080fd5b50610079610108366004610695565b610551565b600254600354600091600160a01b900460ff1690604084013503610139576002805460ff60a01b191690555b80156101485760009150610150565b6101506106ae565b50919050565b60005460405163095ea7b360e01b81526001600160a01b039182166004820152602481018390529083169063095ea7b3906044016020604051808303816000875af11580156101a9573d6000803e3d6000fd5b505050506040513d601f19601f820116820180604052508101906101cd91906106c4565b505050565b6000805460015460025460405163127db4b760e21b81526001600160a01b03938416946349f6d2dc946102159481169316918a918a918a91908a906004016106e6565b6020604051808303816000875af1158015610234573d6000803e3d6000fd5b505050506040513d601f19601f820116820180604052508101906102589190610724565b506000805460015460025460405163127db4b760e21b81526001600160a01b03938416946349f6d2dc9461029c9481169316918a918a918a91908a906004016106e6565b6020604051808303816000875af11580156102bb573d6000803e3d6000fd5b505050506040513d601f19601f820116820180604052508101906102df9190610724565b506000805460015460025460405163127db4b760e21b81526001600160a01b03938416946349f6d2dc946103239481169316918a918a918a91908a906004016106e6565b6020604051808303816000875af1158015610342573d6000803e3d6000fd5b505050506040513d601f19601f820116820180604052508101906103669190610724565b506000805460015460025460405163127db4b760e21b81526001600160a01b03938416946349f6d2dc946103aa9481169316918a918a918a91908a906004016106e6565b6020604051808303816000875af11580156103c9573d6000803e3d6000fd5b505050506040513d601f19601f820116820180604052508101906103ed9190610724565b50600080546001546002546040516365fbae4d60e11b81526001600160a01b039283166004820152908216602482015291169063cbf75c9a906044016040805180830381865afa158015610445573d6000803e3d6000fd5b505050506040513d601f19601f82011682018060405250810190610469919061073d565b600054600180546002549395506dffffffffffffffffffffffffffff607887901c16945062ffffff606087901c16936001600160a01b03938416936349f6d2dc93928116929116906104be86620186a0610777565b600088116104cd5760016104cf565b875b6104d9919061078f565b620186a06000806040518863ffffffff1660e01b815260040161050297969594939291906106e6565b6020604051808303816000875af1158015610521573d6000803e3d6000fd5b505050506040513d601f19601f820116820180604052508101906105459190610724565b60035550505050505050565b600080546040516001600160a01b039091169083908381818185875af1925050503d806000811461059e576040519150601f19603f3d011682016040523d82523d6000602084013e6105a3565b606091505b505090508061007557600080fd5b6000610120828403121561015057600080fd5b6000808284036101608112156105d957600080fd5b6105e385856105b1565b9250604061011f19820112156105f857600080fd5b50610120830190509250929050565b6000610120828403121561061a57600080fd5b61062483836105b1565b9392505050565b6000806040838503121561063e57600080fd5b82356001600160a01b038116811461065557600080fd5b946020939093013593505050565b6000806000806080858703121561067957600080fd5b5050823594602084013594506040840135936060013592509050565b6000602082840312156106a757600080fd5b5035919050565b634e487b7160e01b600052600160045260246000fd5b6000602082840312156106d657600080fd5b8151801515811461062457600080fd5b6001600160a01b03978816815295909616602086015260408501939093526060840191909152608083015260a082015260c081019190915260e00190565b60006020828403121561073657600080fd5b5051919050565b6000806040838503121561075057600080fd5b505080516020909101519092909150565b634e487b7160e01b600052601160045260246000fd5b6000821982111561078a5761078a610761565b500190565b60008160001904831182151516156107a9576107a9610761565b50029056fea2646970667358221220cae8a881ec14fc21aeab3c6a8f6e1be9ca05cd17ef937797cb3b14856b90e88264736f6c634300080e0033",
    "linkReferences": {}
  },
  "methodIdentifiers": {
    "approveMgv(address,uint256)": "a3cfe14d",
    "makerExecute((address,address,uint256,uint256,uint256,uint256,uint256,uint256,uint256))": "6c49c32c",
    "makerPosthook((address,address,uint256,uint256,uint256,uint256,uint256,uint256,uint256),(bytes32,bytes32))": "3d3d130d",
    "newOffer(uint256,uint256,uint256,uint256)": "cda30c3b",
    "provisionMgv(uint256)": "d3845fea"
  },
  "id": 99
}