{
  "abi": [
    {
      "inputs": [],
      "name": "all",
      "outputs": [
        {
          "internalType": "string[]",
          "name": "names",
          "type": "string[]"
        },
        {
          "internalType": "address[]",
          "name": "addrs",
          "type": "address[]"
        },
        {
          "internalType": "bool[]",
          "name": "isToken",
          "type": "bool[]"
        }
      ],
      "stateMutability": "view",
      "type": "function"
    },
    {
      "inputs": [
        {
          "internalType": "string",
          "name": "name",
          "type": "string"
        }
      ],
      "name": "get",
      "outputs": [
        {
          "internalType": "address",
          "name": "addr",
          "type": "address"
        },
        {
          "internalType": "bool",
          "name": "isToken",
          "type": "bool"
        }
      ],
      "stateMutability": "view",
      "type": "function"
    },
    {
      "inputs": [
        {
          "internalType": "string[]",
          "name": "names",
          "type": "string[]"
        },
        {
          "internalType": "address[]",
          "name": "addrs",
          "type": "address[]"
        },
        {
          "internalType": "bool[]",
          "name": "isToken",
          "type": "bool[]"
        }
      ],
      "name": "set",
      "outputs": [],
      "stateMutability": "nonpayable",
      "type": "function"
    },
    {
      "inputs": [
        {
          "internalType": "string",
          "name": "name",
          "type": "string"
        },
        {
          "internalType": "address",
          "name": "addr",
          "type": "address"
        },
        {
          "internalType": "bool",
          "name": "isToken",
          "type": "bool"
        }
      ],
      "name": "set",
      "outputs": [],
      "stateMutability": "nonpayable",
      "type": "function"
    }
  ],
  "bytecode": {
    "object": "0x608060405234801561001057600080fd5b50610a34806100206000396000f3fe608060405234801561001057600080fd5b506004361061004c5760003560e01c806310c4e8b014610051578063693ec85e14610071578063966c3aa7146100a357806399d0baef146100b8575b600080fd5b6100596100cb565b60405161006893929190610623565b60405180910390f35b61008461007f36600461070f565b610331565b604080516001600160a01b039093168352901515602083015201610068565b6100b66100b1366004610796565b610390565b005b6100b66100c636600461085c565b61042b565b60608060606002805480602002602001604051908101604052809291908181526020016000905b8282101561019e578382906000526020600020018054610111906108c1565b80601f016020809104026020016040519081016040528092919081815260200182805461013d906108c1565b801561018a5780601f1061015f5761010080835404028352916020019161018a565b820191906000526020600020905b81548152906001019060200180831161016d57829003601f168201915b5050505050815260200190600101906100f2565b505050509250825167ffffffffffffffff8111156101be576101be6108fb565b6040519080825280602002602001820160405280156101e7578160200160208202803683370190505b509150825167ffffffffffffffff811115610204576102046108fb565b60405190808252806020026020018201604052801561022d578160200160208202803683370190505b50905060005b60025481101561032b57600084828151811061025157610251610911565b60200260200101516040516102669190610927565b9081526040519081900360200190205483516001600160a01b039091169084908390811061029657610296610911565b60200260200101906001600160a01b031690816001600160a01b03168152505060018482815181106102ca576102ca610911565b60200260200101516040516102df9190610927565b90815260405190819003602001902054825160ff9091169083908390811061030957610309610911565b911515602092830291909101909101528061032381610943565b915050610233565b50909192565b6000806000848460405161034692919061096a565b908152604051908190036020018120546001600160a01b03169250600190610371908690869061096a565b90815260405190819003602001902054919460ff909216935090915050565b60005b85811015610422576104108787838181106103b0576103b0610911565b90506020028101906103c2919061097a565b8787858181106103d4576103d4610911565b90506020020160208101906103e991906109c1565b8686868181106103fb576103fb610911565b90506020020160208101906100c691906109e3565b8061041a81610943565b915050610393565b50505050505050565b816000858560405161043e92919061096a565b90815260405190819003602001902080546001600160a01b03929092166001600160a01b0319909216919091179055600280546001810182556000919091526104aa907f405787fa12a823e0f2b7631cc41b3ba8828b3321ca811111fa75cd3aa3bb5ace0185856104e4565b5080600185856040516104be92919061096a565b908152604051908190036020019020805491151560ff1990921691909117905550505050565b8280546104f0906108c1565b90600052602060002090601f0160209004810192826105125760008555610558565b82601f1061052b5782800160ff19823516178555610558565b82800160010185558215610558579182015b8281111561055857823582559160200191906001019061053d565b50610564929150610568565b5090565b5b808211156105645760008155600101610569565b60005b83811015610598578181015183820152602001610580565b838111156105a7576000848401525b50505050565b600081518084526020808501945080840160005b838110156105e65781516001600160a01b0316875295820195908201906001016105c1565b509495945050505050565b600081518084526020808501945080840160005b838110156105e6578151151587529582019590820190600101610605565b6000606082016060835280865180835260808501915060808160051b8601019250602080890160005b8381101561069257878603607f190185528151805180885261067381868a0187850161057d565b601f01601f19169690960183019550938201939082019060010161064c565b5050858403818701525050506106a881866105ad565b905082810360408401526106bc81856105f1565b9695505050505050565b60008083601f8401126106d857600080fd5b50813567ffffffffffffffff8111156106f057600080fd5b60208301915083602082850101111561070857600080fd5b9250929050565b6000806020838503121561072257600080fd5b823567ffffffffffffffff81111561073957600080fd5b610745858286016106c6565b90969095509350505050565b60008083601f84011261076357600080fd5b50813567ffffffffffffffff81111561077b57600080fd5b6020830191508360208260051b850101111561070857600080fd5b600080600080600080606087890312156107af57600080fd5b863567ffffffffffffffff808211156107c757600080fd5b6107d38a838b01610751565b909850965060208901359150808211156107ec57600080fd5b6107f88a838b01610751565b9096509450604089013591508082111561081157600080fd5b5061081e89828a01610751565b979a9699509497509295939492505050565b80356001600160a01b038116811461084757600080fd5b919050565b8035801515811461084757600080fd5b6000806000806060858703121561087257600080fd5b843567ffffffffffffffff81111561088957600080fd5b610895878288016106c6565b90955093506108a8905060208601610830565b91506108b66040860161084c565b905092959194509250565b600181811c908216806108d557607f821691505b6020821081036108f557634e487b7160e01b600052602260045260246000fd5b50919050565b634e487b7160e01b600052604160045260246000fd5b634e487b7160e01b600052603260045260246000fd5b6000825161093981846020870161057d565b9190910192915050565b60006001820161096357634e487b7160e01b600052601160045260246000fd5b5060010190565b8183823760009101908152919050565b6000808335601e1984360301811261099157600080fd5b83018035915067ffffffffffffffff8211156109ac57600080fd5b60200191503681900382131561070857600080fd5b6000602082840312156109d357600080fd5b6109dc82610830565b9392505050565b6000602082840312156109f557600080fd5b6109dc8261084c56fea264697066735822122057cb6150bc648cce5dd21c69494c7396407680bec5be209338721a64832b874164736f6c634300080e0033",
    "linkReferences": {}
  },
  "methodIdentifiers": {
    "all()": "10c4e8b0",
    "get(string)": "693ec85e",
    "set(string,address,bool)": "99d0baef",
    "set(string[],address[],bool[])": "966c3aa7"
  },
  "id": 9
}