{
  "abi": [
    {
      "inputs": [
        {
          "internalType": "address",
          "name": "admin",
          "type": "address"
        },
        {
          "internalType": "string",
          "name": "name",
          "type": "string"
        },
        {
          "internalType": "string",
          "name": "symbol",
          "type": "string"
        },
        {
          "internalType": "uint8",
          "name": "_decimals",
          "type": "uint8"
        }
      ],
      "stateMutability": "nonpayable",
      "type": "constructor"
    },
    {
      "anonymous": false,
      "inputs": [
        {
          "indexed": true,
          "internalType": "address",
          "name": "owner",
          "type": "address"
        },
        {
          "indexed": true,
          "internalType": "address",
          "name": "spender",
          "type": "address"
        },
        {
          "indexed": false,
          "internalType": "uint256",
          "name": "value",
          "type": "uint256"
        }
      ],
      "name": "Approval",
      "type": "event"
    },
    {
      "anonymous": false,
      "inputs": [
        {
          "indexed": true,
          "internalType": "address",
          "name": "from",
          "type": "address"
        },
        {
          "indexed": true,
          "internalType": "address",
          "name": "to",
          "type": "address"
        },
        {
          "indexed": false,
          "internalType": "uint256",
          "name": "value",
          "type": "uint256"
        }
      ],
      "name": "Transfer",
      "type": "event"
    },
    {
      "inputs": [
        {
          "internalType": "uint256",
          "name": "amount",
          "type": "uint256"
        }
      ],
      "name": "$",
      "outputs": [
        {
          "internalType": "uint256",
          "name": "",
          "type": "uint256"
        }
      ],
      "stateMutability": "view",
      "type": "function"
    },
    {
      "inputs": [],
      "name": "DOMAIN_SEPARATOR",
      "outputs": [
        {
          "internalType": "bytes32",
          "name": "",
          "type": "bytes32"
        }
      ],
      "stateMutability": "view",
      "type": "function"
    },
    {
      "inputs": [],
      "name": "__decimals",
      "outputs": [
        {
          "internalType": "uint256",
          "name": "",
          "type": "uint256"
        }
      ],
      "stateMutability": "view",
      "type": "function"
    },
    {
      "inputs": [
        {
          "internalType": "address",
          "name": "",
          "type": "address"
        }
      ],
      "name": "_blacklisted",
      "outputs": [
        {
          "internalType": "bool",
          "name": "",
          "type": "bool"
        }
      ],
      "stateMutability": "view",
      "type": "function"
    },
    {
      "inputs": [
        {
          "internalType": "address",
          "name": "admin",
          "type": "address"
        }
      ],
      "name": "addAdmin",
      "outputs": [],
      "stateMutability": "nonpayable",
      "type": "function"
    },
    {
      "inputs": [
        {
          "internalType": "address",
          "name": "owner",
          "type": "address"
        },
        {
          "internalType": "address",
          "name": "spender",
          "type": "address"
        }
      ],
      "name": "allowance",
      "outputs": [
        {
          "internalType": "uint256",
          "name": "",
          "type": "uint256"
        }
      ],
      "stateMutability": "view",
      "type": "function"
    },
    {
      "inputs": [
        {
          "internalType": "address",
          "name": "spender",
          "type": "address"
        },
        {
          "internalType": "uint256",
          "name": "amount",
          "type": "uint256"
        }
      ],
      "name": "approve",
      "outputs": [
        {
          "internalType": "bool",
          "name": "",
          "type": "bool"
        }
      ],
      "stateMutability": "nonpayable",
      "type": "function"
    },
    {
      "inputs": [
        {
          "internalType": "address",
          "name": "account",
          "type": "address"
        }
      ],
      "name": "balanceOf",
      "outputs": [
        {
          "internalType": "uint256",
          "name": "",
          "type": "uint256"
        }
      ],
      "stateMutability": "view",
      "type": "function"
    },
    {
      "inputs": [
        {
          "internalType": "address",
          "name": "account",
          "type": "address"
        }
      ],
      "name": "blacklists",
      "outputs": [],
      "stateMutability": "nonpayable",
      "type": "function"
    },
    {
      "inputs": [
        {
          "internalType": "address",
          "name": "from",
          "type": "address"
        },
        {
          "internalType": "uint256",
          "name": "amount",
          "type": "uint256"
        }
      ],
      "name": "burn",
      "outputs": [],
      "stateMutability": "nonpayable",
      "type": "function"
    },
    {
      "inputs": [],
      "name": "decimals",
      "outputs": [
        {
          "internalType": "uint8",
          "name": "",
          "type": "uint8"
        }
      ],
      "stateMutability": "view",
      "type": "function"
    },
    {
      "inputs": [
        {
          "internalType": "address",
          "name": "spender",
          "type": "address"
        },
        {
          "internalType": "uint256",
          "name": "subtractedValue",
          "type": "uint256"
        }
      ],
      "name": "decreaseAllowance",
      "outputs": [
        {
          "internalType": "bool",
          "name": "",
          "type": "bool"
        }
      ],
      "stateMutability": "nonpayable",
      "type": "function"
    },
    {
      "inputs": [
        {
          "internalType": "address",
          "name": "spender",
          "type": "address"
        },
        {
          "internalType": "uint256",
          "name": "addedValue",
          "type": "uint256"
        }
      ],
      "name": "increaseAllowance",
      "outputs": [
        {
          "internalType": "bool",
          "name": "",
          "type": "bool"
        }
      ],
      "stateMutability": "nonpayable",
      "type": "function"
    },
    {
      "inputs": [
        {
          "internalType": "address",
          "name": "to",
          "type": "address"
        },
        {
          "internalType": "uint256",
          "name": "amount",
          "type": "uint256"
        }
      ],
      "name": "mint",
      "outputs": [],
      "stateMutability": "nonpayable",
      "type": "function"
    },
    {
      "inputs": [],
      "name": "name",
      "outputs": [
        {
          "internalType": "string",
          "name": "",
          "type": "string"
        }
      ],
      "stateMutability": "view",
      "type": "function"
    },
    {
      "inputs": [
        {
          "internalType": "address",
          "name": "owner",
          "type": "address"
        }
      ],
      "name": "nonces",
      "outputs": [
        {
          "internalType": "uint256",
          "name": "",
          "type": "uint256"
        }
      ],
      "stateMutability": "view",
      "type": "function"
    },
    {
      "inputs": [
        {
          "internalType": "address",
          "name": "owner",
          "type": "address"
        },
        {
          "internalType": "address",
          "name": "spender",
          "type": "address"
        },
        {
          "internalType": "uint256",
          "name": "value",
          "type": "uint256"
        },
        {
          "internalType": "uint256",
          "name": "deadline",
          "type": "uint256"
        },
        {
          "internalType": "uint8",
          "name": "v",
          "type": "uint8"
        },
        {
          "internalType": "bytes32",
          "name": "r",
          "type": "bytes32"
        },
        {
          "internalType": "bytes32",
          "name": "s",
          "type": "bytes32"
        }
      ],
      "name": "permit",
      "outputs": [],
      "stateMutability": "nonpayable",
      "type": "function"
    },
    {
      "inputs": [
        {
          "internalType": "address",
          "name": "admin",
          "type": "address"
        }
      ],
      "name": "removeAdmin",
      "outputs": [],
      "stateMutability": "nonpayable",
      "type": "function"
    },
    {
      "inputs": [],
      "name": "symbol",
      "outputs": [
        {
          "internalType": "string",
          "name": "",
          "type": "string"
        }
      ],
      "stateMutability": "view",
      "type": "function"
    },
    {
      "inputs": [],
      "name": "totalSupply",
      "outputs": [
        {
          "internalType": "uint256",
          "name": "",
          "type": "uint256"
        }
      ],
      "stateMutability": "view",
      "type": "function"
    },
    {
      "inputs": [
        {
          "internalType": "address",
          "name": "to",
          "type": "address"
        },
        {
          "internalType": "uint256",
          "name": "amount",
          "type": "uint256"
        }
      ],
      "name": "transfer",
      "outputs": [
        {
          "internalType": "bool",
          "name": "",
          "type": "bool"
        }
      ],
      "stateMutability": "nonpayable",
      "type": "function"
    },
    {
      "inputs": [
        {
          "internalType": "address",
          "name": "from",
          "type": "address"
        },
        {
          "internalType": "address",
          "name": "to",
          "type": "address"
        },
        {
          "internalType": "uint256",
          "name": "amount",
          "type": "uint256"
        }
      ],
      "name": "transferFrom",
      "outputs": [
        {
          "internalType": "bool",
          "name": "",
          "type": "bool"
        }
      ],
      "stateMutability": "nonpayable",
      "type": "function"
    },
    {
      "inputs": [
        {
          "internalType": "address",
          "name": "account",
          "type": "address"
        }
      ],
      "name": "whitelists",
      "outputs": [],
      "stateMutability": "nonpayable",
      "type": "function"
    }
  ],
  "bytecode": {
    "object": "0x6101406040523480156200001257600080fd5b5060405162001bb838038062001bb88339810160408190526200003591620002c1565b82828180604051806040016040528060018152602001603160f81b815250848481600390805190602001906200006d9291906200014e565b508051620000839060049060208401906200014e565b5050825160208085019190912083518483012060e08290526101008190524660a0818152604080517f8b73c3c69bb8fe3d512ecc4cf759cc79239f7b179b0ffacaa9a75d522b39400f81880181905281830187905260608201869052608082019490945230818401528151808203909301835260c0019052805194019390932091935091906080523060c05261012052505050506001600160a01b03969096166000908152600860205260409020805460ff19166001179055505060ff1660095550620003a1915050565b8280546200015c9062000365565b90600052602060002090601f016020900481019282620001805760008555620001cb565b82601f106200019b57805160ff1916838001178555620001cb565b82800160010185558215620001cb579182015b82811115620001cb578251825591602001919060010190620001ae565b50620001d9929150620001dd565b5090565b5b80821115620001d95760008155600101620001de565b634e487b7160e01b600052604160045260246000fd5b600082601f8301126200021c57600080fd5b81516001600160401b0380821115620002395762000239620001f4565b604051601f8301601f19908116603f01168101908282118183101715620002645762000264620001f4565b816040528381526020925086838588010111156200028157600080fd5b600091505b83821015620002a5578582018301518183018401529082019062000286565b83821115620002b75760008385830101525b9695505050505050565b60008060008060808587031215620002d857600080fd5b84516001600160a01b0381168114620002f057600080fd5b60208601519094506001600160401b03808211156200030e57600080fd5b6200031c888389016200020a565b945060408701519150808211156200033357600080fd5b5062000342878288016200020a565b925050606085015160ff811681146200035a57600080fd5b939692955090935050565b600181811c908216806200037a57607f821691505b6020821081036200039b57634e487b7160e01b600052602260045260246000fd5b50919050565b60805160a05160c05160e05161010051610120516117c7620003f160003960006109290152600061097801526000610953015260006108ac015260006108d60152600061090001526117c76000f3fe608060405234801561001057600080fd5b506004361061014d5760003560e01c806340c10f19116100c357806395d89b411161007c57806395d89b41146102c45780639dc29fac146102cc578063a457c2d7146102df578063a9059cbb146102f2578063d505accf14610305578063dd62ed3e1461031857600080fd5b806340c10f1914610236578063704802751461024957806370a082311461025c5780637a6d69b4146102855780637ecebe00146102a85780638ea2da7d146102bb57600080fd5b80631e7be210116101155780631e7be210146101cd57806323b872dd146101e057806325db769e146101f3578063313ce567146102065780633644e5151461021b578063395093511461022357600080fd5b806306fdde0314610152578063095ea7b31461017057806316c02129146101935780631785f53c146101a857806318160ddd146101bb575b600080fd5b61015a61032b565b604051610167919061140b565b60405180910390f35b61018361017e36600461147c565b6103bd565b6040519015158152602001610167565b6101a66101a13660046114a6565b610444565b005b6101a66101b63660046114a6565b610477565b6002545b604051908152602001610167565b6101a66101db3660046114a6565b6104a0565b6101836101ee3660046114c8565b6104cd565b6101bf610201366004611504565b610589565b60095460405160ff9091168152602001610167565b6101bf6105af565b61018361023136600461147c565b6105be565b6101a661024436600461147c565b6105ea565b6101a66102573660046114a6565b610600565b6101bf61026a3660046114a6565b6001600160a01b031660009081526020819052604090205490565b6101836102933660046114a6565b60076020526000908152604090205460ff1681565b6101bf6102b63660046114a6565b61062c565b6101bf60095481565b61015a61064a565b6101a66102da36600461147c565b610659565b6101836102ed36600461147c565b61066b565b61018361030036600461147c565b6106f1565b6101a661031336600461151d565b610766565b6101bf610326366004611590565b6107f6565b60606003805461033a906115c3565b80601f0160208091040260200160405190810160405280929190818152602001828054610366906115c3565b80156103b35780601f10610388576101008083540402835291602001916103b3565b820191906000526020600020905b81548152906001019060200180831161039657829003601f168201915b5050505050905090565b6001600160a01b038216600090815260076020526040812054839060ff16156104015760405162461bcd60e51b81526004016103f8906115f7565b60405180910390fd5b3360008181526007602052604090205460ff16156104315760405162461bcd60e51b81526004016103f8906115f7565b61043b8585610821565b95945050505050565b61044c61082f565b610474816001600160a01b03166000908152600760205260409020805460ff19166001179055565b50565b61047f61082f565b6001600160a01b03166000908152600860205260409020805460ff19169055565b6104a861082f565b610474816001600160a01b03166000908152600760205260409020805460ff19169055565b6001600160a01b038316600090815260076020526040812054849060ff16156105085760405162461bcd60e51b81526004016103f8906115f7565b6001600160a01b038416600090815260076020526040902054849060ff16156105435760405162461bcd60e51b81526004016103f8906115f7565b3360008181526007602052604090205460ff16156105735760405162461bcd60e51b81526004016103f8906115f7565b61057e878787610886565b979650505050505050565b600061059460095490565b61059f90600a61171e565b6105a9908361172d565b92915050565b60006105b961089f565b905090565b6000336105e08185856105d183836107f6565b6105db919061174c565b6109c6565b5060019392505050565b6105f261082f565b6105fc8282610aeb565b5050565b61060861082f565b6001600160a01b03166000908152600860205260409020805460ff19166001179055565b6001600160a01b0381166000908152600560205260408120546105a9565b60606004805461033a906115c3565b61066161082f565b6105fc8282610bca565b6000338161067982866107f6565b9050838110156106d95760405162461bcd60e51b815260206004820152602560248201527f45524332303a2064656372656173656420616c6c6f77616e63652062656c6f77604482015264207a65726f60d81b60648201526084016103f8565b6106e682868684036109c6565b506001949350505050565b6001600160a01b038216600090815260076020526040812054839060ff161561072c5760405162461bcd60e51b81526004016103f8906115f7565b3360008181526007602052604090205460ff161561075c5760405162461bcd60e51b81526004016103f8906115f7565b61043b8585610d10565b6001600160a01b038716600090815260076020526040902054879060ff16156107a15760405162461bcd60e51b81526004016103f8906115f7565b6001600160a01b038716600090815260076020526040902054879060ff16156107dc5760405162461bcd60e51b81526004016103f8906115f7565b6107eb89898989898989610d1e565b505050505050505050565b6001600160a01b03918216600090815260016020908152604080832093909416825291909152205490565b6000336105e08185856109c6565b3360009081526008602052604090205460ff166108845760405162461bcd60e51b815260206004820152601360248201527254657374546f6b656e2f61646d696e4f6e6c7960681b60448201526064016103f8565b565b600033610894858285610e82565b6106e6858585610efc565b6000306001600160a01b037f0000000000000000000000000000000000000000000000000000000000000000161480156108f857507f000000000000000000000000000000000000000000000000000000000000000046145b1561092257507f000000000000000000000000000000000000000000000000000000000000000090565b50604080517f00000000000000000000000000000000000000000000000000000000000000006020808301919091527f0000000000000000000000000000000000000000000000000000000000000000828401527f000000000000000000000000000000000000000000000000000000000000000060608301524660808301523060a0808401919091528351808403909101815260c0909201909252805191012090565b6001600160a01b038316610a285760405162461bcd60e51b8152602060048201526024808201527f45524332303a20617070726f76652066726f6d20746865207a65726f206164646044820152637265737360e01b60648201526084016103f8565b6001600160a01b038216610a895760405162461bcd60e51b815260206004820152602260248201527f45524332303a20617070726f766520746f20746865207a65726f206164647265604482015261737360f01b60648201526084016103f8565b6001600160a01b0383811660008181526001602090815260408083209487168084529482529182902085905590518481527f8c5be1e5ebec7d5bd14f71427d1e84f3dd0314c0f7b2291e5b200ac8c7c3b92591015b60405180910390a3505050565b6001600160a01b038216610b415760405162461bcd60e51b815260206004820152601f60248201527f45524332303a206d696e7420746f20746865207a65726f20616464726573730060448201526064016103f8565b8060026000828254610b53919061174c565b90915550506001600160a01b03821660009081526020819052604081208054839290610b8090849061174c565b90915550506040518181526001600160a01b038316906000907fddf252ad1be2c89b69c2b068fc378daa952ba7f163c4a11628f55a4df523b3ef9060200160405180910390a35050565b6001600160a01b038216610c2a5760405162461bcd60e51b815260206004820152602160248201527f45524332303a206275726e2066726f6d20746865207a65726f206164647265736044820152607360f81b60648201526084016103f8565b6001600160a01b03821660009081526020819052604090205481811015610c9e5760405162461bcd60e51b815260206004820152602260248201527f45524332303a206275726e20616d6f756e7420657863656564732062616c616e604482015261636560f01b60648201526084016103f8565b6001600160a01b0383166000908152602081905260408120838303905560028054849290610ccd908490611764565b90915550506040518281526000906001600160a01b038516907fddf252ad1be2c89b69c2b068fc378daa952ba7f163c4a11628f55a4df523b3ef90602001610ade565b6000336105e0818585610efc565b83421115610d6e5760405162461bcd60e51b815260206004820152601d60248201527f45524332305065726d69743a206578706972656420646561646c696e6500000060448201526064016103f8565b60007f6e71edae12b1b97f4d1f60370fef10105fa2faae0126114a169c64845d6126c9888888610d9d8c6110ca565b6040805160208101969096526001600160a01b0394851690860152929091166060840152608083015260a082015260c0810186905260e0016040516020818303038152906040528051906020012090506000610df8826110f2565b90506000610e0882878787611140565b9050896001600160a01b0316816001600160a01b031614610e6b5760405162461bcd60e51b815260206004820152601e60248201527f45524332305065726d69743a20696e76616c6964207369676e6174757265000060448201526064016103f8565b610e768a8a8a6109c6565b50505050505050505050565b6000610e8e84846107f6565b90506000198114610ef65781811015610ee95760405162461bcd60e51b815260206004820152601d60248201527f45524332303a20696e73756666696369656e7420616c6c6f77616e636500000060448201526064016103f8565b610ef684848484036109c6565b50505050565b6001600160a01b038316610f605760405162461bcd60e51b815260206004820152602560248201527f45524332303a207472616e736665722066726f6d20746865207a65726f206164604482015264647265737360d81b60648201526084016103f8565b6001600160a01b038216610fc25760405162461bcd60e51b815260206004820152602360248201527f45524332303a207472616e7366657220746f20746865207a65726f206164647260448201526265737360e81b60648201526084016103f8565b6001600160a01b0383166000908152602081905260409020548181101561103a5760405162461bcd60e51b815260206004820152602660248201527f45524332303a207472616e7366657220616d6f756e7420657863656564732062604482015265616c616e636560d01b60648201526084016103f8565b6001600160a01b0380851660009081526020819052604080822085850390559185168152908120805484929061107190849061174c565b92505081905550826001600160a01b0316846001600160a01b03167fddf252ad1be2c89b69c2b068fc378daa952ba7f163c4a11628f55a4df523b3ef846040516110bd91815260200190565b60405180910390a3610ef6565b6001600160a01b03811660009081526005602052604090208054600181018255905b50919050565b60006105a96110ff61089f565b8360405161190160f01b6020820152602281018390526042810182905260009060620160405160208183030381529060405280519060200120905092915050565b600080600061115187878787611168565b9150915061115e81611255565b5095945050505050565b6000807f7fffffffffffffffffffffffffffffff5d576e7357a4501ddfe92f46681b20a083111561119f575060009050600361124c565b8460ff16601b141580156111b757508460ff16601c14155b156111c8575060009050600461124c565b6040805160008082526020820180845289905260ff881692820192909252606081018690526080810185905260019060a0016020604051602081039080840390855afa15801561121c573d6000803e3d6000fd5b5050604051601f1901519150506001600160a01b0381166112455760006001925092505061124c565b9150600090505b94509492505050565b60008160048111156112695761126961177b565b036112715750565b60018160048111156112855761128561177b565b036112d25760405162461bcd60e51b815260206004820152601860248201527f45434453413a20696e76616c6964207369676e6174757265000000000000000060448201526064016103f8565b60028160048111156112e6576112e661177b565b036113335760405162461bcd60e51b815260206004820152601f60248201527f45434453413a20696e76616c6964207369676e6174757265206c656e6774680060448201526064016103f8565b60038160048111156113475761134761177b565b0361139f5760405162461bcd60e51b815260206004820152602260248201527f45434453413a20696e76616c6964207369676e6174757265202773272076616c604482015261756560f01b60648201526084016103f8565b60048160048111156113b3576113b361177b565b036104745760405162461bcd60e51b815260206004820152602260248201527f45434453413a20696e76616c6964207369676e6174757265202776272076616c604482015261756560f01b60648201526084016103f8565b600060208083528351808285015260005b818110156114385785810183015185820160400152820161141c565b8181111561144a576000604083870101525b50601f01601f1916929092016040019392505050565b80356001600160a01b038116811461147757600080fd5b919050565b6000806040838503121561148f57600080fd5b61149883611460565b946020939093013593505050565b6000602082840312156114b857600080fd5b6114c182611460565b9392505050565b6000806000606084860312156114dd57600080fd5b6114e684611460565b92506114f460208501611460565b9150604084013590509250925092565b60006020828403121561151657600080fd5b5035919050565b600080600080600080600060e0888a03121561153857600080fd5b61154188611460565b965061154f60208901611460565b95506040880135945060608801359350608088013560ff8116811461157357600080fd5b9699959850939692959460a0840135945060c09093013592915050565b600080604083850312156115a357600080fd5b6115ac83611460565b91506115ba60208401611460565b90509250929050565b600181811c908216806115d757607f821691505b6020821081036110ec57634e487b7160e01b600052602260045260246000fd5b602080825260139082015272115490cc8c10930bd09b1858dadb1a5cdd1959606a1b604082015260600190565b634e487b7160e01b600052601160045260246000fd5b600181815b8085111561167557816000190482111561165b5761165b611624565b8085161561166857918102915b93841c939080029061163f565b509250929050565b60008261168c575060016105a9565b81611699575060006105a9565b81600181146116af57600281146116b9576116d5565b60019150506105a9565b60ff8411156116ca576116ca611624565b50506001821b6105a9565b5060208310610133831016604e8410600b84101617156116f8575081810a6105a9565b611702838361163a565b806000190482111561171657611716611624565b029392505050565b60006114c160ff84168361167d565b600081600019048311821515161561174757611747611624565b500290565b6000821982111561175f5761175f611624565b500190565b60008282101561177657611776611624565b500390565b634e487b7160e01b600052602160045260246000fdfea2646970667358221220bd809d42139540058cd45d799cf966bb21014a2ed0f238b1bc1b09a3c80841fd64736f6c634300080e0033",
    "linkReferences": {}
  },
  "methodIdentifiers": {
    "$(uint256)": "25db769e",
    "DOMAIN_SEPARATOR()": "3644e515",
    "__decimals()": "8ea2da7d",
    "_blacklisted(address)": "7a6d69b4",
    "addAdmin(address)": "70480275",
    "allowance(address,address)": "dd62ed3e",
    "approve(address,uint256)": "095ea7b3",
    "balanceOf(address)": "70a08231",
    "blacklists(address)": "16c02129",
    "burn(address,uint256)": "9dc29fac",
    "decimals()": "313ce567",
    "decreaseAllowance(address,uint256)": "a457c2d7",
    "increaseAllowance(address,uint256)": "39509351",
    "mint(address,uint256)": "40c10f19",
    "name()": "06fdde03",
    "nonces(address)": "7ecebe00",
    "permit(address,address,uint256,uint256,uint8,bytes32,bytes32)": "d505accf",
    "removeAdmin(address)": "1785f53c",
    "symbol()": "95d89b41",
    "totalSupply()": "18160ddd",
    "transfer(address,uint256)": "a9059cbb",
    "transferFrom(address,address,uint256)": "23b872dd",
    "whitelists(address)": "1e7be210"
  },
  "id": 106
}