{
  "abi": [
    {
      "inputs": [],
      "name": "ACL_ADMIN_CANNOT_BE_ZERO",
      "outputs": [
        {
          "internalType": "string",
          "name": "",
          "type": "string"
        }
      ],
      "stateMutability": "view",
      "type": "function"
    },
    {
      "inputs": [],
      "name": "ADDRESSES_PROVIDER_ALREADY_ADDED",
      "outputs": [
        {
          "internalType": "string",
          "name": "",
          "type": "string"
        }
      ],
      "stateMutability": "view",
      "type": "function"
    },
    {
      "inputs": [],
      "name": "ADDRESSES_PROVIDER_NOT_REGISTERED",
      "outputs": [
        {
          "internalType": "string",
          "name": "",
          "type": "string"
        }
      ],
      "stateMutability": "view",
      "type": "function"
    },
    {
      "inputs": [],
      "name": "AMOUNT_BIGGER_THAN_MAX_LOAN_SIZE_STABLE",
      "outputs": [
        {
          "internalType": "string",
          "name": "",
          "type": "string"
        }
      ],
      "stateMutability": "view",
      "type": "function"
    },
    {
      "inputs": [],
      "name": "ASSET_NOT_BORROWABLE_IN_ISOLATION",
      "outputs": [
        {
          "internalType": "string",
          "name": "",
          "type": "string"
        }
      ],
      "stateMutability": "view",
      "type": "function"
    },
    {
      "inputs": [],
      "name": "ASSET_NOT_LISTED",
      "outputs": [
        {
          "internalType": "string",
          "name": "",
          "type": "string"
        }
      ],
      "stateMutability": "view",
      "type": "function"
    },
    {
      "inputs": [],
      "name": "ATOKEN_SUPPLY_NOT_ZERO",
      "outputs": [
        {
          "internalType": "string",
          "name": "",
          "type": "string"
        }
      ],
      "stateMutability": "view",
      "type": "function"
    },
    {
      "inputs": [],
      "name": "BORROWING_NOT_ENABLED",
      "outputs": [
        {
          "internalType": "string",
          "name": "",
          "type": "string"
        }
      ],
      "stateMutability": "view",
      "type": "function"
    },
    {
      "inputs": [],
      "name": "BORROW_CAP_EXCEEDED",
      "outputs": [
        {
          "internalType": "string",
          "name": "",
          "type": "string"
        }
      ],
      "stateMutability": "view",
      "type": "function"
    },
    {
      "inputs": [],
      "name": "BRIDGE_PROTOCOL_FEE_INVALID",
      "outputs": [
        {
          "internalType": "string",
          "name": "",
          "type": "string"
        }
      ],
      "stateMutability": "view",
      "type": "function"
    },
    {
      "inputs": [],
      "name": "CALLER_MUST_BE_POOL",
      "outputs": [
        {
          "internalType": "string",
          "name": "",
          "type": "string"
        }
      ],
      "stateMutability": "view",
      "type": "function"
    },
    {
      "inputs": [],
      "name": "CALLER_NOT_ASSET_LISTING_OR_POOL_ADMIN",
      "outputs": [
        {
          "internalType": "string",
          "name": "",
          "type": "string"
        }
      ],
      "stateMutability": "view",
      "type": "function"
    },
    {
      "inputs": [],
      "name": "CALLER_NOT_ATOKEN",
      "outputs": [
        {
          "internalType": "string",
          "name": "",
          "type": "string"
        }
      ],
      "stateMutability": "view",
      "type": "function"
    },
    {
      "inputs": [],
      "name": "CALLER_NOT_BRIDGE",
      "outputs": [
        {
          "internalType": "string",
          "name": "",
          "type": "string"
        }
      ],
      "stateMutability": "view",
      "type": "function"
    },
    {
      "inputs": [],
      "name": "CALLER_NOT_EMERGENCY_ADMIN",
      "outputs": [
        {
          "internalType": "string",
          "name": "",
          "type": "string"
        }
      ],
      "stateMutability": "view",
      "type": "function"
    },
    {
      "inputs": [],
      "name": "CALLER_NOT_POOL_ADMIN",
      "outputs": [
        {
          "internalType": "string",
          "name": "",
          "type": "string"
        }
      ],
      "stateMutability": "view",
      "type": "function"
    },
    {
      "inputs": [],
      "name": "CALLER_NOT_POOL_CONFIGURATOR",
      "outputs": [
        {
          "internalType": "string",
          "name": "",
          "type": "string"
        }
      ],
      "stateMutability": "view",
      "type": "function"
    },
    {
      "inputs": [],
      "name": "CALLER_NOT_POOL_OR_EMERGENCY_ADMIN",
      "outputs": [
        {
          "internalType": "string",
          "name": "",
          "type": "string"
        }
      ],
      "stateMutability": "view",
      "type": "function"
    },
    {
      "inputs": [],
      "name": "CALLER_NOT_RISK_OR_POOL_ADMIN",
      "outputs": [
        {
          "internalType": "string",
          "name": "",
          "type": "string"
        }
      ],
      "stateMutability": "view",
      "type": "function"
    },
    {
      "inputs": [],
      "name": "COLLATERAL_BALANCE_IS_ZERO",
      "outputs": [
        {
          "internalType": "string",
          "name": "",
          "type": "string"
        }
      ],
      "stateMutability": "view",
      "type": "function"
    },
    {
      "inputs": [],
      "name": "COLLATERAL_CANNOT_BE_LIQUIDATED",
      "outputs": [
        {
          "internalType": "string",
          "name": "",
          "type": "string"
        }
      ],
      "stateMutability": "view",
      "type": "function"
    },
    {
      "inputs": [],
      "name": "COLLATERAL_CANNOT_COVER_NEW_BORROW",
      "outputs": [
        {
          "internalType": "string",
          "name": "",
          "type": "string"
        }
      ],
      "stateMutability": "view",
      "type": "function"
    },
    {
      "inputs": [],
      "name": "COLLATERAL_SAME_AS_BORROWING_CURRENCY",
      "outputs": [
        {
          "internalType": "string",
          "name": "",
          "type": "string"
        }
      ],
      "stateMutability": "view",
      "type": "function"
    },
    {
      "inputs": [],
      "name": "DEBT_CEILING_EXCEEDED",
      "outputs": [
        {
          "internalType": "string",
          "name": "",
          "type": "string"
        }
      ],
      "stateMutability": "view",
      "type": "function"
    },
    {
      "inputs": [],
      "name": "DEBT_CEILING_NOT_ZERO",
      "outputs": [
        {
          "internalType": "string",
          "name": "",
          "type": "string"
        }
      ],
      "stateMutability": "view",
      "type": "function"
    },
    {
      "inputs": [],
      "name": "EMODE_CATEGORY_RESERVED",
      "outputs": [
        {
          "internalType": "string",
          "name": "",
          "type": "string"
        }
      ],
      "stateMutability": "view",
      "type": "function"
    },
    {
      "inputs": [],
      "name": "FLASHLOAN_PREMIUM_INVALID",
      "outputs": [
        {
          "internalType": "string",
          "name": "",
          "type": "string"
        }
      ],
      "stateMutability": "view",
      "type": "function"
    },
    {
      "inputs": [],
      "name": "HEALTH_FACTOR_LOWER_THAN_LIQUIDATION_THRESHOLD",
      "outputs": [
        {
          "internalType": "string",
          "name": "",
          "type": "string"
        }
      ],
      "stateMutability": "view",
      "type": "function"
    },
    {
      "inputs": [],
      "name": "HEALTH_FACTOR_NOT_BELOW_THRESHOLD",
      "outputs": [
        {
          "internalType": "string",
          "name": "",
          "type": "string"
        }
      ],
      "stateMutability": "view",
      "type": "function"
    },
    {
      "inputs": [],
      "name": "INCONSISTENT_EMODE_CATEGORY",
      "outputs": [
        {
          "internalType": "string",
          "name": "",
          "type": "string"
        }
      ],
      "stateMutability": "view",
      "type": "function"
    },
    {
      "inputs": [],
      "name": "INCONSISTENT_FLASHLOAN_PARAMS",
      "outputs": [
        {
          "internalType": "string",
          "name": "",
          "type": "string"
        }
      ],
      "stateMutability": "view",
      "type": "function"
    },
    {
      "inputs": [],
      "name": "INCONSISTENT_PARAMS_LENGTH",
      "outputs": [
        {
          "internalType": "string",
          "name": "",
          "type": "string"
        }
      ],
      "stateMutability": "view",
      "type": "function"
    },
    {
      "inputs": [],
      "name": "INTEREST_RATE_REBALANCE_CONDITIONS_NOT_MET",
      "outputs": [
        {
          "internalType": "string",
          "name": "",
          "type": "string"
        }
      ],
      "stateMutability": "view",
      "type": "function"
    },
    {
      "inputs": [],
      "name": "INVALID_ADDRESSES_PROVIDER",
      "outputs": [
        {
          "internalType": "string",
          "name": "",
          "type": "string"
        }
      ],
      "stateMutability": "view",
      "type": "function"
    },
    {
      "inputs": [],
      "name": "INVALID_ADDRESSES_PROVIDER_ID",
      "outputs": [
        {
          "internalType": "string",
          "name": "",
          "type": "string"
        }
      ],
      "stateMutability": "view",
      "type": "function"
    },
    {
      "inputs": [],
      "name": "INVALID_AMOUNT",
      "outputs": [
        {
          "internalType": "string",
          "name": "",
          "type": "string"
        }
      ],
      "stateMutability": "view",
      "type": "function"
    },
    {
      "inputs": [],
      "name": "INVALID_BORROW_CAP",
      "outputs": [
        {
          "internalType": "string",
          "name": "",
          "type": "string"
        }
      ],
      "stateMutability": "view",
      "type": "function"
    },
    {
      "inputs": [],
      "name": "INVALID_BURN_AMOUNT",
      "outputs": [
        {
          "internalType": "string",
          "name": "",
          "type": "string"
        }
      ],
      "stateMutability": "view",
      "type": "function"
    },
    {
      "inputs": [],
      "name": "INVALID_DEBT_CEILING",
      "outputs": [
        {
          "internalType": "string",
          "name": "",
          "type": "string"
        }
      ],
      "stateMutability": "view",
      "type": "function"
    },
    {
      "inputs": [],
      "name": "INVALID_DECIMALS",
      "outputs": [
        {
          "internalType": "string",
          "name": "",
          "type": "string"
        }
      ],
      "stateMutability": "view",
      "type": "function"
    },
    {
      "inputs": [],
      "name": "INVALID_EMODE_CATEGORY",
      "outputs": [
        {
          "internalType": "string",
          "name": "",
          "type": "string"
        }
      ],
      "stateMutability": "view",
      "type": "function"
    },
    {
      "inputs": [],
      "name": "INVALID_EMODE_CATEGORY_ASSIGNMENT",
      "outputs": [
        {
          "internalType": "string",
          "name": "",
          "type": "string"
        }
      ],
      "stateMutability": "view",
      "type": "function"
    },
    {
      "inputs": [],
      "name": "INVALID_EMODE_CATEGORY_PARAMS",
      "outputs": [
        {
          "internalType": "string",
          "name": "",
          "type": "string"
        }
      ],
      "stateMutability": "view",
      "type": "function"
    },
    {
      "inputs": [],
      "name": "INVALID_EXPIRATION",
      "outputs": [
        {
          "internalType": "string",
          "name": "",
          "type": "string"
        }
      ],
      "stateMutability": "view",
      "type": "function"
    },
    {
      "inputs": [],
      "name": "INVALID_FLASHLOAN_EXECUTOR_RETURN",
      "outputs": [
        {
          "internalType": "string",
          "name": "",
          "type": "string"
        }
      ],
      "stateMutability": "view",
      "type": "function"
    },
    {
      "inputs": [],
      "name": "INVALID_INTEREST_RATE_MODE_SELECTED",
      "outputs": [
        {
          "internalType": "string",
          "name": "",
          "type": "string"
        }
      ],
      "stateMutability": "view",
      "type": "function"
    },
    {
      "inputs": [],
      "name": "INVALID_LIQUIDATION_PROTOCOL_FEE",
      "outputs": [
        {
          "internalType": "string",
          "name": "",
          "type": "string"
        }
      ],
      "stateMutability": "view",
      "type": "function"
    },
    {
      "inputs": [],
      "name": "INVALID_LIQ_BONUS",
      "outputs": [
        {
          "internalType": "string",
          "name": "",
          "type": "string"
        }
      ],
      "stateMutability": "view",
      "type": "function"
    },
    {
      "inputs": [],
      "name": "INVALID_LIQ_THRESHOLD",
      "outputs": [
        {
          "internalType": "string",
          "name": "",
          "type": "string"
        }
      ],
      "stateMutability": "view",
      "type": "function"
    },
    {
      "inputs": [],
      "name": "INVALID_LTV",
      "outputs": [
        {
          "internalType": "string",
          "name": "",
          "type": "string"
        }
      ],
      "stateMutability": "view",
      "type": "function"
    },
    {
      "inputs": [],
      "name": "INVALID_MINT_AMOUNT",
      "outputs": [
        {
          "internalType": "string",
          "name": "",
          "type": "string"
        }
      ],
      "stateMutability": "view",
      "type": "function"
    },
    {
      "inputs": [],
      "name": "INVALID_OPTIMAL_STABLE_TO_TOTAL_DEBT_RATIO",
      "outputs": [
        {
          "internalType": "string",
          "name": "",
          "type": "string"
        }
      ],
      "stateMutability": "view",
      "type": "function"
    },
    {
      "inputs": [],
      "name": "INVALID_OPTIMAL_USAGE_RATIO",
      "outputs": [
        {
          "internalType": "string",
          "name": "",
          "type": "string"
        }
      ],
      "stateMutability": "view",
      "type": "function"
    },
    {
      "inputs": [],
      "name": "INVALID_RESERVE_FACTOR",
      "outputs": [
        {
          "internalType": "string",
          "name": "",
          "type": "string"
        }
      ],
      "stateMutability": "view",
      "type": "function"
    },
    {
      "inputs": [],
      "name": "INVALID_RESERVE_INDEX",
      "outputs": [
        {
          "internalType": "string",
          "name": "",
          "type": "string"
        }
      ],
      "stateMutability": "view",
      "type": "function"
    },
    {
      "inputs": [],
      "name": "INVALID_RESERVE_PARAMS",
      "outputs": [
        {
          "internalType": "string",
          "name": "",
          "type": "string"
        }
      ],
      "stateMutability": "view",
      "type": "function"
    },
    {
      "inputs": [],
      "name": "INVALID_SIGNATURE",
      "outputs": [
        {
          "internalType": "string",
          "name": "",
          "type": "string"
        }
      ],
      "stateMutability": "view",
      "type": "function"
    },
    {
      "inputs": [],
      "name": "INVALID_SUPPLY_CAP",
      "outputs": [
        {
          "internalType": "string",
          "name": "",
          "type": "string"
        }
      ],
      "stateMutability": "view",
      "type": "function"
    },
    {
      "inputs": [],
      "name": "INVALID_UNBACKED_MINT_CAP",
      "outputs": [
        {
          "internalType": "string",
          "name": "",
          "type": "string"
        }
      ],
      "stateMutability": "view",
      "type": "function"
    },
    {
      "inputs": [],
      "name": "LTV_VALIDATION_FAILED",
      "outputs": [
        {
          "internalType": "string",
          "name": "",
          "type": "string"
        }
      ],
      "stateMutability": "view",
      "type": "function"
    },
    {
      "inputs": [],
      "name": "NOT_CONTRACT",
      "outputs": [
        {
          "internalType": "string",
          "name": "",
          "type": "string"
        }
      ],
      "stateMutability": "view",
      "type": "function"
    },
    {
      "inputs": [],
      "name": "NOT_ENOUGH_AVAILABLE_USER_BALANCE",
      "outputs": [
        {
          "internalType": "string",
          "name": "",
          "type": "string"
        }
      ],
      "stateMutability": "view",
      "type": "function"
    },
    {
      "inputs": [],
      "name": "NO_DEBT_OF_SELECTED_TYPE",
      "outputs": [
        {
          "internalType": "string",
          "name": "",
          "type": "string"
        }
      ],
      "stateMutability": "view",
      "type": "function"
    },
    {
      "inputs": [],
      "name": "NO_EXPLICIT_AMOUNT_TO_REPAY_ON_BEHALF",
      "outputs": [
        {
          "internalType": "string",
          "name": "",
          "type": "string"
        }
      ],
      "stateMutability": "view",
      "type": "function"
    },
    {
      "inputs": [],
      "name": "NO_MORE_RESERVES_ALLOWED",
      "outputs": [
        {
          "internalType": "string",
          "name": "",
          "type": "string"
        }
      ],
      "stateMutability": "view",
      "type": "function"
    },
    {
      "inputs": [],
      "name": "NO_OUTSTANDING_STABLE_DEBT",
      "outputs": [
        {
          "internalType": "string",
          "name": "",
          "type": "string"
        }
      ],
      "stateMutability": "view",
      "type": "function"
    },
    {
      "inputs": [],
      "name": "NO_OUTSTANDING_VARIABLE_DEBT",
      "outputs": [
        {
          "internalType": "string",
          "name": "",
          "type": "string"
        }
      ],
      "stateMutability": "view",
      "type": "function"
    },
    {
      "inputs": [],
      "name": "OPERATION_NOT_SUPPORTED",
      "outputs": [
        {
          "internalType": "string",
          "name": "",
          "type": "string"
        }
      ],
      "stateMutability": "view",
      "type": "function"
    },
    {
      "inputs": [],
      "name": "POOL_ADDRESSES_DO_NOT_MATCH",
      "outputs": [
        {
          "internalType": "string",
          "name": "",
          "type": "string"
        }
      ],
      "stateMutability": "view",
      "type": "function"
    },
    {
      "inputs": [],
      "name": "PRICE_ORACLE_SENTINEL_CHECK_FAILED",
      "outputs": [
        {
          "internalType": "string",
          "name": "",
          "type": "string"
        }
      ],
      "stateMutability": "view",
      "type": "function"
    },
    {
      "inputs": [],
      "name": "RESERVE_ALREADY_ADDED",
      "outputs": [
        {
          "internalType": "string",
          "name": "",
          "type": "string"
        }
      ],
      "stateMutability": "view",
      "type": "function"
    },
    {
      "inputs": [],
      "name": "RESERVE_ALREADY_INITIALIZED",
      "outputs": [
        {
          "internalType": "string",
          "name": "",
          "type": "string"
        }
      ],
      "stateMutability": "view",
      "type": "function"
    },
    {
      "inputs": [],
      "name": "RESERVE_DEBT_NOT_ZERO",
      "outputs": [
        {
          "internalType": "string",
          "name": "",
          "type": "string"
        }
      ],
      "stateMutability": "view",
      "type": "function"
    },
    {
      "inputs": [],
      "name": "RESERVE_FROZEN",
      "outputs": [
        {
          "internalType": "string",
          "name": "",
          "type": "string"
        }
      ],
      "stateMutability": "view",
      "type": "function"
    },
    {
      "inputs": [],
      "name": "RESERVE_INACTIVE",
      "outputs": [
        {
          "internalType": "string",
          "name": "",
          "type": "string"
        }
      ],
      "stateMutability": "view",
      "type": "function"
    },
    {
      "inputs": [],
      "name": "RESERVE_LIQUIDITY_NOT_ZERO",
      "outputs": [
        {
          "internalType": "string",
          "name": "",
          "type": "string"
        }
      ],
      "stateMutability": "view",
      "type": "function"
    },
    {
      "inputs": [],
      "name": "RESERVE_PAUSED",
      "outputs": [
        {
          "internalType": "string",
          "name": "",
          "type": "string"
        }
      ],
      "stateMutability": "view",
      "type": "function"
    },
    {
      "inputs": [],
      "name": "SAME_BLOCK_BORROW_REPAY",
      "outputs": [
        {
          "internalType": "string",
          "name": "",
          "type": "string"
        }
      ],
      "stateMutability": "view",
      "type": "function"
    },
    {
      "inputs": [],
      "name": "SILOED_BORROWING_VIOLATION",
      "outputs": [
        {
          "internalType": "string",
          "name": "",
          "type": "string"
        }
      ],
      "stateMutability": "view",
      "type": "function"
    },
    {
      "inputs": [],
      "name": "SPECIFIED_CURRENCY_NOT_BORROWED_BY_USER",
      "outputs": [
        {
          "internalType": "string",
          "name": "",
          "type": "string"
        }
      ],
      "stateMutability": "view",
      "type": "function"
    },
    {
      "inputs": [],
      "name": "STABLE_BORROWING_ENABLED",
      "outputs": [
        {
          "internalType": "string",
          "name": "",
          "type": "string"
        }
      ],
      "stateMutability": "view",
      "type": "function"
    },
    {
      "inputs": [],
      "name": "STABLE_BORROWING_NOT_ENABLED",
      "outputs": [
        {
          "internalType": "string",
          "name": "",
          "type": "string"
        }
      ],
      "stateMutability": "view",
      "type": "function"
    },
    {
      "inputs": [],
      "name": "STABLE_DEBT_NOT_ZERO",
      "outputs": [
        {
          "internalType": "string",
          "name": "",
          "type": "string"
        }
      ],
      "stateMutability": "view",
      "type": "function"
    },
    {
      "inputs": [],
      "name": "SUPPLY_CAP_EXCEEDED",
      "outputs": [
        {
          "internalType": "string",
          "name": "",
          "type": "string"
        }
      ],
      "stateMutability": "view",
      "type": "function"
    },
    {
      "inputs": [],
      "name": "UNBACKED_MINT_CAP_EXCEEDED",
      "outputs": [
        {
          "internalType": "string",
          "name": "",
          "type": "string"
        }
      ],
      "stateMutability": "view",
      "type": "function"
    },
    {
      "inputs": [],
      "name": "UNDERLYING_BALANCE_ZERO",
      "outputs": [
        {
          "internalType": "string",
          "name": "",
          "type": "string"
        }
      ],
      "stateMutability": "view",
      "type": "function"
    },
    {
      "inputs": [],
      "name": "UNDERLYING_CANNOT_BE_RESCUED",
      "outputs": [
        {
          "internalType": "string",
          "name": "",
          "type": "string"
        }
      ],
      "stateMutability": "view",
      "type": "function"
    },
    {
      "inputs": [],
      "name": "USER_IN_ISOLATION_MODE",
      "outputs": [
        {
          "internalType": "string",
          "name": "",
          "type": "string"
        }
      ],
      "stateMutability": "view",
      "type": "function"
    },
    {
      "inputs": [],
      "name": "VARIABLE_DEBT_SUPPLY_NOT_ZERO",
      "outputs": [
        {
          "internalType": "string",
          "name": "",
          "type": "string"
        }
      ],
      "stateMutability": "view",
      "type": "function"
    },
    {
      "inputs": [],
      "name": "ZERO_ADDRESS_NOT_VALID",
      "outputs": [
        {
          "internalType": "string",
          "name": "",
          "type": "string"
        }
      ],
      "stateMutability": "view",
      "type": "function"
    }
  ],
  "bytecode": {
    "object": "0x61112f61003a600b82828239805160001a60731461002d57634e487b7160e01b600052600060045260246000fd5b30600052607381538281f3fe73000000000000000000000000000000000000000030146080604052600436106104f85760003560e01c806389c5d45f11610298578063bad8308c11610171578063dd1dd95f116100e3578063f07f67851161009c578063f07f678514610fde578063f10727db14610fff578063f479ea1114611020578063fa163a8314611041578063fae8279114611062578063fd1828ff1461108357600080fd5b8063dd1dd95f14610f19578063de24948c14610f3a578063e02f07ee14610f5b578063e3fa20f514610f7b578063e4dd8b7414610f9c578063e981483a14610fbd57600080fd5b8063d14bb17a11610135578063d14bb17a14610e53578063d1cd8b1d14610e74578063d6f9fcde14610e95578063d9adda8514610eb6578063dc191bd914610ed7578063dcc56db614610ef857600080fd5b8063bad8308c14610dae578063c08a114614610dcf578063c863808214610df0578063c899301a14610e11578063cd23367c14610e3257600080fd5b8063a4868dca1161020a578063b0510054116101ce578063b051005414610ce9578063b4a4573014610d0a578063b5e7936614610d2b578063b68774e914610d4b578063b7f5e22414610d6c578063b87041c214610d8d57600080fd5b8063a4868dca14610c45578063a8c9785314610c66578063ab883ca014610c87578063abd351b114610ca8578063ac75323614610cc957600080fd5b8063952633c51161025c578063952633c514610b7f5780639527e9d914610ba057806399ce53f314610bc1578063a2797c8014610be2578063a2e976c614610c03578063a3402a3814610c2457600080fd5b806389c5d45f14610ada5780638a34400014610afb5780638b8b98d714610b1c5780638eda46bd14610b3d5780638f7722b214610b5e57600080fd5b80634e3aed37116103d55780636b3f7cc711610347578063747fa55611610300578063747fa55614610a1457806376ae8fca14610a355780637aa0767e14610a565780637fea6f3614610a775780638596aad514610a98578063895f7dc814610ab957600080fd5b80636b3f7cc71461094e5780636cd3cfbc1461096f578063712f536a1461099057806373dea5e3146109b1578063744465cc146109d257806374459b14146109f357600080fd5b8063570e354711610399578063570e3547146108895780635d9c76c0146108aa57806360c3de80146108cb57806361c111d2146108eb57806365a83bab1461090c57806365e7ef4c1461092d57600080fd5b80634e3aed37146107e55780634ef999ff146108065780634f77647b14610827578063512674501461084757806352ba9dbe1461086857600080fd5b80632eed17e81161046e578063471df68511610432578063471df6851461072057806347ba93d81461074157806347cf152314610762578063485c8ff6146107835780634d86f393146107a35780634e01e3c1146107c457600080fd5b80632eed17e81461067b578063335763de1461069c578063366eb54d146106bd57806337930782146106de57806343e97c6b146106ff57600080fd5b80631abbb001116104c05780631abbb001146105b757806322a73446146105d857806326bbd053146105f957806326e7b3121461061a5780632926c9711461063a5780632c8e3b4c1461065b57600080fd5b8063084dfa0d146104fd57806311d7b0061461053457806312dcade81461055457806314dcfbbc14610575578063198d6a6b14610596575b600080fd5b61051e60405180604001604052806002815260200161062760f31b81525081565b60405161052b91906110a4565b60405180910390f35b61051e604051806040016040528060018152602001603960f81b81525081565b61051e604051806040016040528060028152602001610c4d60f21b81525081565b61051e604051806040016040528060028152602001611c1b60f11b81525081565b61051e60405180604001604052806002815260200161070760f31b81525081565b61051e60405180604001604052806002815260200161383760f01b81525081565b61051e60405180604001604052806002815260200161343760f01b81525081565b61051e60405180604001604052806002815260200161363960f01b81525081565b61051e604051806040016040528060018152602001603360f81b81525081565b61051e604051806040016040528060028152602001610d0d60f21b81525081565b61051e604051806040016040528060018152602001603560f81b81525081565b61051e60405180604001604052806002815260200161035360f41b81525081565b61051e60405180604001604052806002815260200161032360f41b81525081565b61051e60405180604001604052806002815260200161333560f01b81525081565b61051e60405180604001604052806002815260200161189960f11b81525081565b61051e604051806040016040528060028152602001610d4d60f21b81525081565b61051e60405180604001604052806002815260200161323360f01b81525081565b61051e604051806040016040528060028152602001611b9960f11b81525081565b61051e60405180604001604052806002815260200161323160f01b81525081565b61051e604051806040016040528060018152602001601960f91b81525081565b61051e60405180604001604052806002815260200161333160f01b81525081565b61051e604051806040016040528060028152602001610ccd60f21b81525081565b61051e60405180604001604052806002815260200161383360f01b81525081565b61051e60405180604001604052806002815260200161033360f41b81525081565b61051e604051806040016040528060018152602001601b60f91b81525081565b61051e60405180604001604052806002815260200161323560f01b81525081565b61051e60405180604001604052806002815260200161323760f01b81525081565b61051e60405180604001604052806002815260200161068760f31b81525081565b61051e60405180604001604052806002815260200161313760f01b81525081565b61051e604051806040016040528060018152602001600760fb1b81525081565b61051e60405180604001604052806002815260200161031360f41b81525081565b61051e60405180604001604052806002815260200161353360f01b81525081565b61051e60405180604001604052806002815260200161353560f01b81525081565b61051e604051806040016040528060028152602001611a9960f11b81525081565b61051e60405180604001604052806002815260200161064760f31b81525081565b61051e60405180604001604052806002815260200161034360f41b81525081565b61051e60405180604001604052806002815260200161343960f01b81525081565b61051e604051806040016040528060028152602001611b1960f11b81525081565b61051e60405180604001604052806002815260200161343160f01b81525081565b61051e60405180604001604052806002815260200161313960f01b81525081565b61051e60405180604001604052806002815260200161313560f01b81525081565b61051e60405180604001604052806002815260200161191960f11b81525081565b61051e60405180604001604052806002815260200161313360f01b81525081565b61051e60405180604001604052806002815260200161036360f41b81525081565b61051e604051806040016040528060028152602001611a1b60f11b81525081565b61051e60405180604001604052806002815260200161333360f01b81525081565b61051e60405180604001604052806002815260200161333760f01b81525081565b61051e60405180604001604052806002815260200161038360f41b81525081565b61051e60405180604001604052806002815260200161037360f41b81525081565b61051e6040518060400160405280600281526020016106a760f31b81525081565b61051e60405180604001604052806002815260200161343560f01b81525081565b61051e60405180604001604052806002815260200161363560f01b81525081565b61051e60405180604001604052806002815260200161363360f01b81525081565b61051e60405180604001604052806002815260200161343360f01b81525081565b61051e60405180604001604052806002815260200161313160f01b81525081565b61051e60405180604001604052806002815260200161373960f01b81525081565b61051e60405180604001604052806002815260200161363760f01b81525081565b61051e60405180604001604052806002815260200161373160f01b81525081565b61051e60405180604001604052806002815260200161383560f01b81525081565b61051e604051806040016040528060028152602001610c8d60f21b81525081565b61051e604051806040016040528060018152602001603160f81b81525081565b61051e60405180604001604052806002815260200161353160f01b81525081565b61051e604051806040016040528060028152602001611a1960f11b81525081565b61051e604051806040016040528060018152602001600d60fa1b81525081565b61051e60405180604001604052806002815260200161323960f01b81525081565b61051e60405180604001604052806002815260200161199960f11b81525081565b61051e60405180604001604052806002815260200161353760f01b81525081565b61051e604051806040016040528060028152602001611b9b60f11b81525081565b61051e6040518060400160405280600281526020016106e760f31b81525081565b61051e60405180604001604052806002815260200161353960f01b81525081565b61051e604051806040016040528060028152602001610e0d60f21b81525081565b61051e604051806040016040528060028152602001611c1960f11b81525081565b61051e60405180604001604052806002815260200161373760f01b81525081565b61051e604051806040016040528060028152602001610dcd60f21b81525081565b61051e6040518060400160405280600281526020016106c760f31b81525081565b61051e60405180604001604052806002815260200161363160f01b81525081565b61051e60405180604001604052806002815260200161333960f01b81525081565b61051e60405180604001604052806002815260200161373360f01b81525081565b61051e604051806040016040528060028152602001610d8d60f21b81525081565b61051e60405180604001604052806002815260200161383960f01b81525081565b61051e604051806040016040528060018152602001603760f81b81525081565b61051e60405180604001604052806002815260200161199b60f11b81525081565b61051e60405180604001604052806002815260200161383160f01b81525081565b61051e60405180604001604052806002815260200161039360f41b81525081565b61051e60405180604001604052806002815260200161066760f31b81525081565b61051e604051806040016040528060028152602001611a9b60f11b81525081565b61051e60405180604001604052806002815260200161189b60f11b81525081565b61051e604051806040016040528060028152602001611b1b60f11b81525081565b61051e60405180604001604052806002815260200161191b60f11b81525081565b61051e60405180604001604052806002815260200161373560f01b81525081565b600060208083528351808285015260005b818110156110d1578581018301518582016040015282016110b5565b818111156110e3576000604083870101525b50601f01601f191692909201604001939250505056fea2646970667358221220cf766bcf87abab66a992ba48e72a9c87d5ba79266628a3ea0f6c84f6a6a2d74064736f6c634300080e0033",
    "linkReferences": {}
  },
  "methodIdentifiers": {
    "ACL_ADMIN_CANNOT_BE_ZERO()": "fd1828ff",
    "ADDRESSES_PROVIDER_ALREADY_ADDED()": "14dcfbbc",
    "ADDRESSES_PROVIDER_NOT_REGISTERED()": "e02f07ee",
    "AMOUNT_BIGGER_THAN_MAX_LOAN_SIZE_STABLE()": "f07f6785",
    "ASSET_NOT_BORROWABLE_IN_ISOLATION()": "8596aad5",
    "ASSET_NOT_LISTED()": "cd23367c",
    "ATOKEN_SUPPLY_NOT_ZERO()": "43e97c6b",
    "BORROWING_NOT_ENABLED()": "4ef999ff",
    "BORROW_CAP_EXCEEDED()": "2eed17e8",
    "BRIDGE_PROTOCOL_FEE_INVALID()": "7aa0767e",
    "CALLER_MUST_BE_POOL()": "471df685",
    "CALLER_NOT_ASSET_LISTING_OR_POOL_ADMIN()": "2c8e3b4c",
    "CALLER_NOT_ATOKEN()": "a2e976c6",
    "CALLER_NOT_BRIDGE()": "4f77647b",
    "CALLER_NOT_EMERGENCY_ADMIN()": "485c8ff6",
    "CALLER_NOT_POOL_ADMIN()": "ac753236",
    "CALLER_NOT_POOL_CONFIGURATOR()": "61c111d2",
    "CALLER_NOT_POOL_OR_EMERGENCY_ADMIN()": "26e7b312",
    "CALLER_NOT_RISK_OR_POOL_ADMIN()": "b5e79366",
    "COLLATERAL_BALANCE_IS_ZERO()": "4e01e3c1",
    "COLLATERAL_CANNOT_BE_LIQUIDATED()": "895f7dc8",
    "COLLATERAL_CANNOT_COVER_NEW_BORROW()": "e3fa20f5",
    "COLLATERAL_SAME_AS_BORROWING_CURRENCY()": "8a344000",
    "DEBT_CEILING_EXCEEDED()": "65a83bab",
    "DEBT_CEILING_NOT_ZERO()": "e4dd8b74",
    "EMODE_CATEGORY_RESERVED()": "f479ea11",
    "FLASHLOAN_PREMIUM_INVALID()": "747fa556",
    "HEALTH_FACTOR_LOWER_THAN_LIQUIDATION_THRESHOLD()": "366eb54d",
    "HEALTH_FACTOR_NOT_BELOW_THRESHOLD()": "952633c5",
    "INCONSISTENT_EMODE_CATEGORY()": "8f7722b2",
    "INCONSISTENT_FLASHLOAN_PARAMS()": "73dea5e3",
    "INCONSISTENT_PARAMS_LENGTH()": "bad8308c",
    "INTEREST_RATE_REBALANCE_CONDITIONS_NOT_MET()": "2926c971",
    "INVALID_ADDRESSES_PROVIDER()": "37930782",
    "INVALID_ADDRESSES_PROVIDER_ID()": "60c3de80",
    "INVALID_AMOUNT()": "fae82791",
    "INVALID_BORROW_CAP()": "d6f9fcde",
    "INVALID_BURN_AMOUNT()": "51267450",
    "INVALID_DEBT_CEILING()": "dcc56db6",
    "INVALID_DECIMALS()": "fa163a83",
    "INVALID_EMODE_CATEGORY()": "a8c97853",
    "INVALID_EMODE_CATEGORY_ASSIGNMENT()": "5d9c76c0",
    "INVALID_EMODE_CATEGORY_PARAMS()": "47cf1523",
    "INVALID_EXPIRATION()": "c08a1146",
    "INVALID_FLASHLOAN_EXECUTOR_RETURN()": "7fea6f36",
    "INVALID_INTEREST_RATE_MODE_SELECTED()": "89c5d45f",
    "INVALID_LIQUIDATION_PROTOCOL_FEE()": "8eda46bd",
    "INVALID_LIQ_BONUS()": "9527e9d9",
    "INVALID_LIQ_THRESHOLD()": "dd1dd95f",
    "INVALID_LTV()": "99ce53f3",
    "INVALID_MINT_AMOUNT()": "abd351b1",
    "INVALID_OPTIMAL_STABLE_TO_TOTAL_DEBT_RATIO()": "c899301a",
    "INVALID_OPTIMAL_USAGE_RATIO()": "4e3aed37",
    "INVALID_RESERVE_FACTOR()": "a4868dca",
    "INVALID_RESERVE_INDEX()": "d1cd8b1d",
    "INVALID_RESERVE_PARAMS()": "335763de",
    "INVALID_SIGNATURE()": "a3402a38",
    "INVALID_SUPPLY_CAP()": "26bbd053",
    "INVALID_UNBACKED_MINT_CAP()": "47ba93d8",
    "LTV_VALIDATION_FAILED()": "b87041c2",
    "NOT_CONTRACT()": "11d7b006",
    "NOT_ENOUGH_AVAILABLE_USER_BALANCE()": "b7f5e224",
    "NO_DEBT_OF_SELECTED_TYPE()": "dc191bd9",
    "NO_EXPLICIT_AMOUNT_TO_REPAY_ON_BEHALF()": "712f536a",
    "NO_MORE_RESERVES_ALLOWED()": "76ae8fca",
    "NO_OUTSTANDING_STABLE_DEBT()": "74459b14",
    "NO_OUTSTANDING_VARIABLE_DEBT()": "b4a45730",
    "OPERATION_NOT_SUPPORTED()": "8b8b98d7",
    "POOL_ADDRESSES_DO_NOT_MATCH()": "1abbb001",
    "PRICE_ORACLE_SENTINEL_CHECK_FAILED()": "c8638082",
    "RESERVE_ALREADY_ADDED()": "12dcade8",
    "RESERVE_ALREADY_INITIALIZED()": "d9adda85",
    "RESERVE_DEBT_NOT_ZERO()": "e981483a",
    "RESERVE_FROZEN()": "6cd3cfbc",
    "RESERVE_INACTIVE()": "52ba9dbe",
    "RESERVE_LIQUIDITY_NOT_ZERO()": "084dfa0d",
    "RESERVE_PAUSED()": "b68774e9",
    "SAME_BLOCK_BORROW_REPAY()": "570e3547",
    "SILOED_BORROWING_VIOLATION()": "de24948c",
    "SPECIFIED_CURRENCY_NOT_BORROWED_BY_USER()": "22a73446",
    "STABLE_BORROWING_ENABLED()": "198d6a6b",
    "STABLE_BORROWING_NOT_ENABLED()": "4d86f393",
    "STABLE_DEBT_NOT_ZERO()": "65e7ef4c",
    "SUPPLY_CAP_EXCEEDED()": "b0510054",
    "UNBACKED_MINT_CAP_EXCEEDED()": "6b3f7cc7",
    "UNDERLYING_BALANCE_ZERO()": "a2797c80",
    "UNDERLYING_CANNOT_BE_RESCUED()": "ab883ca0",
    "USER_IN_ISOLATION_MODE()": "744465cc",
    "VARIABLE_DEBT_SUPPLY_NOT_ZERO()": "f10727db",
    "ZERO_ADDRESS_NOT_VALID()": "d14bb17a"
  },
  "id": 66
}