{
  "abi": [
    {
      "inputs": [
        {
          "internalType": "address",
          "name": "_mgv",
          "type": "address"
        }
      ],
      "stateMutability": "nonpayable",
      "type": "constructor"
    },
    {
      "inputs": [
        {
          "internalType": "address",
          "name": "outbound_tkn",
          "type": "address"
        },
        {
          "internalType": "address",
          "name": "inbound_tkn",
          "type": "address"
        },
        {
          "internalType": "uint256",
          "name": "ofr_gasreq",
          "type": "uint256"
        },
        {
          "internalType": "uint256",
          "name": "ofr_gasprice",
          "type": "uint256"
        }
      ],
      "name": "getProvision",
      "outputs": [
        {
          "internalType": "uint256",
          "name": "",
          "type": "uint256"
        }
      ],
      "stateMutability": "view",
      "type": "function"
    },
    {
      "inputs": [
        {
          "internalType": "address",
          "name": "outbound_tkn",
          "type": "address"
        },
        {
          "internalType": "address",
          "name": "inbound_tkn",
          "type": "address"
        },
        {
          "internalType": "uint256",
          "name": "fromId",
          "type": "uint256"
        },
        {
          "internalType": "uint256",
          "name": "maxOffers",
          "type": "uint256"
        }
      ],
      "name": "offerList",
      "outputs": [
        {
          "internalType": "uint256",
          "name": "",
          "type": "uint256"
        },
        {
          "internalType": "uint256[]",
          "name": "",
          "type": "uint256[]"
        },
        {
          "components": [
            {
              "internalType": "uint256",
              "name": "prev",
              "type": "uint256"
            },
            {
              "internalType": "uint256",
              "name": "next",
              "type": "uint256"
            },
            {
              "internalType": "uint256",
              "name": "wants",
              "type": "uint256"
            },
            {
              "internalType": "uint256",
              "name": "gives",
              "type": "uint256"
            }
          ],
          "internalType": "struct OfferStruct[]",
          "name": "",
          "type": "tuple[]"
        },
        {
          "components": [
            {
              "internalType": "address",
              "name": "maker",
              "type": "address"
            },
            {
              "internalType": "uint256",
              "name": "gasreq",
              "type": "uint256"
            },
            {
              "internalType": "uint256",
              "name": "offer_gasbase",
              "type": "uint256"
            },
            {
              "internalType": "uint256",
              "name": "gasprice",
              "type": "uint256"
            }
          ],
          "internalType": "struct OfferDetailStruct[]",
          "name": "",
          "type": "tuple[]"
        }
      ],
      "stateMutability": "view",
      "type": "function"
    },
    {
      "inputs": [
        {
          "internalType": "address",
          "name": "outbound_tkn",
          "type": "address"
        },
        {
          "internalType": "address",
          "name": "inbound_tkn",
          "type": "address"
        },
        {
          "internalType": "uint256",
          "name": "fromId",
          "type": "uint256"
        },
        {
          "internalType": "uint256",
          "name": "maxOffers",
          "type": "uint256"
        }
      ],
      "name": "offerListEndPoints",
      "outputs": [
        {
          "internalType": "uint256",
          "name": "startId",
          "type": "uint256"
        },
        {
          "internalType": "uint256",
          "name": "length",
          "type": "uint256"
        }
      ],
      "stateMutability": "view",
      "type": "function"
    },
    {
      "inputs": [
        {
          "internalType": "address",
          "name": "outbound_tkn",
          "type": "address"
        },
        {
          "internalType": "address",
          "name": "inbound_tkn",
          "type": "address"
        },
        {
          "internalType": "uint256",
          "name": "fromId",
          "type": "uint256"
        },
        {
          "internalType": "uint256",
          "name": "maxOffers",
          "type": "uint256"
        }
      ],
      "name": "packedOfferList",
      "outputs": [
        {
          "internalType": "uint256",
          "name": "",
          "type": "uint256"
        },
        {
          "internalType": "uint256[]",
          "name": "",
          "type": "uint256[]"
        },
        {
          "internalType": "t[]",
          "name": "",
          "type": "uint256[]"
        },
        {
          "internalType": "t[]",
          "name": "",
          "type": "uint256[]"
        }
      ],
      "stateMutability": "view",
      "type": "function"
    }
  ],
  "bytecode": {
    "object": "0x60a060405234801561001057600080fd5b50604051610daf380380610daf83398101604081905261002f91610040565b6001600160a01b0316608052610070565b60006020828403121561005257600080fd5b81516001600160a01b038116811461006957600080fd5b9392505050565b608051610cfa6100b56000396000818161027e015281816104ae0152818161055d0152818161066e01528181610752015281816107cb01526108ac0152610cfa6000f3fe608060405234801561001057600080fd5b506004361061004c5760003560e01c80632c7e545f1461005157806365c99b231461007d57806366690971146100a0578063c81b5654146100c1575b600080fd5b61006461005f366004610961565b6100e9565b6040516100749493929190610a3b565b60405180910390f35b61009061008b366004610961565b610388565b6040516100749493929190610acb565b6100b36100ae366004610961565b610640565b604051908152602001610074565b6100d46100cf366004610961565b610720565b60408051928352602083019190915201610074565b600060608060606000806100ff8a8a8a8a610720565b9150915060008167ffffffffffffffff81111561011e5761011e610b5e565b604051908082528060200260200182016040528015610147578160200160208202803683370190505b50905060008267ffffffffffffffff81111561016557610165610b5e565b6040519080825280602002602001820160405280156101c157816020015b6101ae6040518060800160405280600081526020016000815260200160008152602001600081525090565b8152602001906001900390816101835790505b50905060008367ffffffffffffffff8111156101df576101df610b5e565b60405190808252806020026020018201604052801561024457816020015b610231604051806080016040528060006001600160a01b031681526020016000815260200160008152602001600081525090565b8152602001906001900390816101fd5790505b50905060005b851580159061025857508481105b15610373578584828151811061027057610270610b74565b6020026020010181815250507f00000000000000000000000000000000000000000000000000000000000000006001600160a01b0316638c66715c8f8f896040518463ffffffff1660e01b81526004016102cc93929190610b8a565b61010060405180830381865afa1580156102ea573d6000803e3d6000fd5b505050506040513d601f19601f8201168201806040525081019061030e9190610be5565b84838151811061032057610320610b74565b6020026020010184848151811061033957610339610b74565b60200260200101829052829052505082818151811061035a5761035a610b74565b602002602001015160200151955080600101905061024a565b50939c919b5099509197509095505050505050565b6000606080606060008061039e8a8a8a8a610720565b9150915060008167ffffffffffffffff8111156103bd576103bd610b5e565b6040519080825280602002602001820160405280156103e6578160200160208202803683370190505b50905060008267ffffffffffffffff81111561040457610404610b5e565b60405190808252806020026020018201604052801561042d578160200160208202803683370190505b50905060008367ffffffffffffffff81111561044b5761044b610b5e565b604051908082528060200260200182016040528015610474578160200160208202803683370190505b50905060005b851580159061048857508481105b1561037357858482815181106104a0576104a0610b74565b6020026020010181815250507f00000000000000000000000000000000000000000000000000000000000000006001600160a01b03166368c13d6b8f8f896040518463ffffffff1660e01b81526004016104fc93929190610b8a565b602060405180830381865afa158015610519573d6000803e3d6000fd5b505050506040513d601f19601f8201168201806040525081019061053d9190610c87565b83828151811061054f5761054f610b74565b6020026020010181815250507f00000000000000000000000000000000000000000000000000000000000000006001600160a01b0316635722647b8f8f896040518463ffffffff1660e01b81526004016105ab93929190610b8a565b602060405180830381865afa1580156105c8573d6000803e3d6000fd5b505050506040513d601f19601f820116820180604052508101906105ec9190610c87565b8282815181106105fe576105fe610b74565b60200260200101818152505061063683828151811061061f5761061f610b74565b602002602001015163ffffffff60c09190911c1690565b955060010161047a565b6040516365fbae4d60e11b81526001600160a01b0385811660048301528481166024830152600091829182917f00000000000000000000000000000000000000000000000000000000000000009091169063cbf75c9a906044016040805180830381865afa1580156106b6573d6000803e3d6000fd5b505050506040513d601f19601f820116820180604052508101906106da9190610ca0565b9092509050600061ffff604084901c16858111156106fa578091506106fe565b8591505b81606084901c62ffffff16880102633b9aca0002945050505050949350505050565b600080836000036107c457604051636f7aeed560e11b81526001600160a01b03878116600483015286811660248301527f0000000000000000000000000000000000000000000000000000000000000000169063def5ddaa90604401602060405180830381865afa158015610799573d6000803e3d6000fd5b505050506040513d601f19601f820116820180604052508101906107bd9190610c87565b915061087c565b600061086b7f00000000000000000000000000000000000000000000000000000000000000006001600160a01b03166368c13d6b8989896040518463ffffffff1660e01b815260040161081993929190610b8a565b602060405180830381865afa158015610836573d6000803e3d6000fd5b505050506040513d601f19601f8201168201806040525081019061085a9190610c87565b6bffffffffffffffffffffffff1690565b11610877576000610879565b835b91505b815b801580159061088c57508382105b1561093f576040516368c13d6b60e01b8152610932906001600160a01b037f000000000000000000000000000000000000000000000000000000000000000016906368c13d6b906108e5908b908b908790600401610b8a565b602060405180830381865afa158015610902573d6000803e3d6000fd5b505050506040513d601f19601f820116820180604052508101906109269190610c87565b60c01c63ffffffff1690565b905081600101915061087e565b5094509492505050565b6001600160a01b038116811461095e57600080fd5b50565b6000806000806080858703121561097757600080fd5b843561098281610949565b9350602085013561099281610949565b93969395505050506040820135916060013590565b600081518084526020808501945080840160005b838110156109d7578151875295820195908201906001016109bb565b509495945050505050565b600081518084526020808501945080840160005b838110156109d757815180516001600160a01b0316885283810151848901526040808201519089015260609081015190880152608090960195908201906001016109f6565b6000608086835260208181850152610a55828501886109a7565b84810360408681019190915287518083528389019284019060005b81811015610aa85784518051845286810151878501528481015185850152606090810151908401529385019391860191600101610a70565b50508681036060880152610abc81896109e2565b9b9a5050505050505050505050565b84815260006020608081840152610ae560808401876109a7565b838103604085015285518082528287019183019060005b81811015610b1857835183529284019291840191600101610afc565b50508481036060860152855180825290830191508286019060005b81811015610b4f57825184529284019291840191600101610b33565b50919998505050505050505050565b634e487b7160e01b600052604160045260246000fd5b634e487b7160e01b600052603260045260246000fd5b6001600160a01b039384168152919092166020820152604081019190915260600190565b6040516080810167ffffffffffffffff81118282101715610bdf57634e487b7160e01b600052604160045260246000fd5b60405290565b600080828403610100811215610bfa57600080fd5b6080811215610c0857600080fd5b610c10610bae565b84518152602085015160208201526040850151604082015260608501516060820152809350506080607f1982011215610c4857600080fd5b50610c51610bae565b6080840151610c5f81610949565b815260a0840151602082015260c0840151604082015260e09093015160608401525092909150565b600060208284031215610c9957600080fd5b5051919050565b60008060408385031215610cb357600080fd5b50508051602090910151909290915056fea2646970667358221220f2b1f747f55ad82afaf7ae0d8abc76a196e3aad9b57e55eff56d05d2fc16b8d764736f6c634300080e0033",
    "linkReferences": {}
  },
  "methodIdentifiers": {
    "getProvision(address,address,uint256,uint256)": "66690971",
    "offerList(address,address,uint256,uint256)": "2c7e545f",
    "offerListEndPoints(address,address,uint256,uint256)": "c81b5654",
    "packedOfferList(address,address,uint256,uint256)": "65c99b23"
  },
  "id": 25
}