{
  "abi": [
    {
      "anonymous": false,
      "inputs": [
        {
          "indexed": true,
          "internalType": "address",
          "name": "outbound_tkn",
          "type": "address"
        },
        {
          "indexed": true,
          "internalType": "address",
          "name": "inbound_tkn",
          "type": "address"
        },
        {
          "indexed": false,
          "internalType": "address",
          "name": "owner",
          "type": "address"
        },
        {
          "indexed": false,
          "internalType": "address",
          "name": "spender",
          "type": "address"
        },
        {
          "indexed": false,
          "internalType": "uint256",
          "name": "value",
          "type": "uint256"
        }
      ],
      "name": "Approval",
      "type": "event"
    },
    {
      "anonymous": false,
      "inputs": [
        {
          "indexed": true,
          "internalType": "address",
          "name": "maker",
          "type": "address"
        },
        {
          "indexed": false,
          "internalType": "uint256",
          "name": "amount",
          "type": "uint256"
        }
      ],
      "name": "Credit",
      "type": "event"
    },
    {
      "anonymous": false,
      "inputs": [
        {
          "indexed": true,
          "internalType": "address",
          "name": "maker",
          "type": "address"
        },
        {
          "indexed": false,
          "internalType": "uint256",
          "name": "amount",
          "type": "uint256"
        }
      ],
      "name": "Debit",
      "type": "event"
    },
    {
      "anonymous": false,
      "inputs": [],
      "name": "Kill",
      "type": "event"
    },
    {
      "anonymous": false,
      "inputs": [],
      "name": "NewMgv",
      "type": "event"
    },
    {
      "anonymous": false,
      "inputs": [
        {
          "indexed": true,
          "internalType": "address",
          "name": "outbound_tkn",
          "type": "address"
        },
        {
          "indexed": true,
          "internalType": "address",
          "name": "inbound_tkn",
          "type": "address"
        },
        {
          "indexed": false,
          "internalType": "uint256",
          "name": "id",
          "type": "uint256"
        },
        {
          "indexed": false,
          "internalType": "address",
          "name": "taker",
          "type": "address"
        },
        {
          "indexed": false,
          "internalType": "uint256",
          "name": "takerWants",
          "type": "uint256"
        },
        {
          "indexed": false,
          "internalType": "uint256",
          "name": "takerGives",
          "type": "uint256"
        },
        {
          "indexed": false,
          "internalType": "bytes32",
          "name": "mgvData",
          "type": "bytes32"
        }
      ],
      "name": "OfferFail",
      "type": "event"
    },
    {
      "anonymous": false,
      "inputs": [
        {
          "indexed": true,
          "internalType": "address",
          "name": "outbound_tkn",
          "type": "address"
        },
        {
          "indexed": true,
          "internalType": "address",
          "name": "inbound_tkn",
          "type": "address"
        },
        {
          "indexed": false,
          "internalType": "uint256",
          "name": "id",
          "type": "uint256"
        }
      ],
      "name": "OfferRetract",
      "type": "event"
    },
    {
      "anonymous": false,
      "inputs": [
        {
          "indexed": true,
          "internalType": "address",
          "name": "outbound_tkn",
          "type": "address"
        },
        {
          "indexed": true,
          "internalType": "address",
          "name": "inbound_tkn",
          "type": "address"
        },
        {
          "indexed": false,
          "internalType": "uint256",
          "name": "id",
          "type": "uint256"
        },
        {
          "indexed": false,
          "internalType": "address",
          "name": "taker",
          "type": "address"
        },
        {
          "indexed": false,
          "internalType": "uint256",
          "name": "takerWants",
          "type": "uint256"
        },
        {
          "indexed": false,
          "internalType": "uint256",
          "name": "takerGives",
          "type": "uint256"
        }
      ],
      "name": "OfferSuccess",
      "type": "event"
    },
    {
      "anonymous": false,
      "inputs": [
        {
          "indexed": true,
          "internalType": "address",
          "name": "outbound_tkn",
          "type": "address"
        },
        {
          "indexed": true,
          "internalType": "address",
          "name": "inbound_tkn",
          "type": "address"
        },
        {
          "indexed": false,
          "internalType": "address",
          "name": "maker",
          "type": "address"
        },
        {
          "indexed": false,
          "internalType": "uint256",
          "name": "wants",
          "type": "uint256"
        },
        {
          "indexed": false,
          "internalType": "uint256",
          "name": "gives",
          "type": "uint256"
        },
        {
          "indexed": false,
          "internalType": "uint256",
          "name": "gasprice",
          "type": "uint256"
        },
        {
          "indexed": false,
          "internalType": "uint256",
          "name": "gasreq",
          "type": "uint256"
        },
        {
          "indexed": false,
          "internalType": "uint256",
          "name": "id",
          "type": "uint256"
        },
        {
          "indexed": false,
          "internalType": "uint256",
          "name": "prev",
          "type": "uint256"
        }
      ],
      "name": "OfferWrite",
      "type": "event"
    },
    {
      "anonymous": false,
      "inputs": [
        {
          "indexed": true,
          "internalType": "address",
          "name": "outbound_tkn",
          "type": "address"
        },
        {
          "indexed": true,
          "internalType": "address",
          "name": "inbound_tkn",
          "type": "address"
        },
        {
          "indexed": true,
          "internalType": "address",
          "name": "taker",
          "type": "address"
        },
        {
          "indexed": false,
          "internalType": "uint256",
          "name": "takerGot",
          "type": "uint256"
        },
        {
          "indexed": false,
          "internalType": "uint256",
          "name": "takerGave",
          "type": "uint256"
        },
        {
          "indexed": false,
          "internalType": "uint256",
          "name": "penalty",
          "type": "uint256"
        },
        {
          "indexed": false,
          "internalType": "uint256",
          "name": "feePaid",
          "type": "uint256"
        }
      ],
      "name": "OrderComplete",
      "type": "event"
    },
    {
      "anonymous": false,
      "inputs": [],
      "name": "OrderStart",
      "type": "event"
    },
    {
      "anonymous": false,
      "inputs": [
        {
          "indexed": true,
          "internalType": "address",
          "name": "outbound_tkn",
          "type": "address"
        },
        {
          "indexed": true,
          "internalType": "address",
          "name": "inbound_tkn",
          "type": "address"
        },
        {
          "indexed": false,
          "internalType": "uint256",
          "name": "offerId",
          "type": "uint256"
        },
        {
          "indexed": false,
          "internalType": "bytes32",
          "name": "posthookData",
          "type": "bytes32"
        }
      ],
      "name": "PosthookFail",
      "type": "event"
    },
    {
      "anonymous": false,
      "inputs": [
        {
          "indexed": true,
          "internalType": "address",
          "name": "outbound_tkn",
          "type": "address"
        },
        {
          "indexed": true,
          "internalType": "address",
          "name": "inbound_tkn",
          "type": "address"
        },
        {
          "indexed": false,
          "internalType": "bool",
          "name": "value",
          "type": "bool"
        }
      ],
      "name": "SetActive",
      "type": "event"
    },
    {
      "anonymous": false,
      "inputs": [
        {
          "indexed": true,
          "internalType": "address",
          "name": "outbound_tkn",
          "type": "address"
        },
        {
          "indexed": true,
          "internalType": "address",
          "name": "inbound_tkn",
          "type": "address"
        },
        {
          "indexed": false,
          "internalType": "uint256",
          "name": "value",
          "type": "uint256"
        }
      ],
      "name": "SetDensity",
      "type": "event"
    },
    {
      "anonymous": false,
      "inputs": [
        {
          "indexed": true,
          "internalType": "address",
          "name": "outbound_tkn",
          "type": "address"
        },
        {
          "indexed": true,
          "internalType": "address",
          "name": "inbound_tkn",
          "type": "address"
        },
        {
          "indexed": false,
          "internalType": "uint256",
          "name": "value",
          "type": "uint256"
        }
      ],
      "name": "SetFee",
      "type": "event"
    },
    {
      "anonymous": false,
      "inputs": [
        {
          "indexed": true,
          "internalType": "address",
          "name": "outbound_tkn",
          "type": "address"
        },
        {
          "indexed": true,
          "internalType": "address",
          "name": "inbound_tkn",
          "type": "address"
        },
        {
          "indexed": false,
          "internalType": "uint256",
          "name": "offer_gasbase",
          "type": "uint256"
        }
      ],
      "name": "SetGasbase",
      "type": "event"
    },
    {
      "anonymous": false,
      "inputs": [
        {
          "indexed": false,
          "internalType": "uint256",
          "name": "value",
          "type": "uint256"
        }
      ],
      "name": "SetGasmax",
      "type": "event"
    },
    {
      "anonymous": false,
      "inputs": [
        {
          "indexed": false,
          "internalType": "uint256",
          "name": "value",
          "type": "uint256"
        }
      ],
      "name": "SetGasprice",
      "type": "event"
    },
    {
      "anonymous": false,
      "inputs": [
        {
          "indexed": false,
          "internalType": "address",
          "name": "value",
          "type": "address"
        }
      ],
      "name": "SetGovernance",
      "type": "event"
    },
    {
      "anonymous": false,
      "inputs": [
        {
          "indexed": false,
          "internalType": "address",
          "name": "value",
          "type": "address"
        }
      ],
      "name": "SetMonitor",
      "type": "event"
    },
    {
      "anonymous": false,
      "inputs": [
        {
          "indexed": false,
          "internalType": "bool",
          "name": "value",
          "type": "bool"
        }
      ],
      "name": "SetNotify",
      "type": "event"
    },
    {
      "anonymous": false,
      "inputs": [
        {
          "indexed": false,
          "internalType": "bool",
          "name": "value",
          "type": "bool"
        }
      ],
      "name": "SetUseOracle",
      "type": "event"
    },
    {
      "anonymous": false,
      "inputs": [
        {
          "indexed": false,
          "internalType": "address",
          "name": "value",
          "type": "address"
        }
      ],
      "name": "SetVault",
      "type": "event"
    },
    {
      "inputs": [
        {
          "internalType": "address",
          "name": "",
          "type": "address"
        }
      ],
      "name": "balanceOf",
      "outputs": [
        {
          "internalType": "uint256",
          "name": "",
          "type": "uint256"
        }
      ],
      "stateMutability": "view",
      "type": "function"
    },
    {
      "inputs": [
        {
          "internalType": "address",
          "name": "outbound_tkn",
          "type": "address"
        },
        {
          "internalType": "address",
          "name": "inbound_tkn",
          "type": "address"
        }
      ],
      "name": "best",
      "outputs": [
        {
          "internalType": "uint256",
          "name": "",
          "type": "uint256"
        }
      ],
      "stateMutability": "view",
      "type": "function"
    },
    {
      "inputs": [
        {
          "internalType": "address",
          "name": "outbound_tkn",
          "type": "address"
        },
        {
          "internalType": "address",
          "name": "inbound_tkn",
          "type": "address"
        }
      ],
      "name": "config",
      "outputs": [
        {
          "internalType": "t",
          "name": "_global",
          "type": "uint256"
        },
        {
          "internalType": "t",
          "name": "_local",
          "type": "uint256"
        }
      ],
      "stateMutability": "view",
      "type": "function"
    },
    {
      "inputs": [
        {
          "internalType": "address",
          "name": "outbound_tkn",
          "type": "address"
        },
        {
          "internalType": "address",
          "name": "inbound_tkn",
          "type": "address"
        }
      ],
      "name": "configInfo",
      "outputs": [
        {
          "components": [
            {
              "internalType": "address",
              "name": "monitor",
              "type": "address"
            },
            {
              "internalType": "bool",
              "name": "useOracle",
              "type": "bool"
            },
            {
              "internalType": "bool",
              "name": "notify",
              "type": "bool"
            },
            {
              "internalType": "uint256",
              "name": "gasprice",
              "type": "uint256"
            },
            {
              "internalType": "uint256",
              "name": "gasmax",
              "type": "uint256"
            },
            {
              "internalType": "bool",
              "name": "dead",
              "type": "bool"
            }
          ],
          "internalType": "struct GlobalStruct",
          "name": "global",
          "type": "tuple"
        },
        {
          "components": [
            {
              "internalType": "bool",
              "name": "active",
              "type": "bool"
            },
            {
              "internalType": "uint256",
              "name": "fee",
              "type": "uint256"
            },
            {
              "internalType": "uint256",
              "name": "density",
              "type": "uint256"
            },
            {
              "internalType": "uint256",
              "name": "offer_gasbase",
              "type": "uint256"
            },
            {
              "internalType": "bool",
              "name": "lock",
              "type": "bool"
            },
            {
              "internalType": "uint256",
              "name": "best",
              "type": "uint256"
            },
            {
              "internalType": "uint256",
              "name": "last",
              "type": "uint256"
            }
          ],
          "internalType": "struct LocalStruct",
          "name": "local",
          "type": "tuple"
        }
      ],
      "stateMutability": "view",
      "type": "function"
    },
    {
      "inputs": [
        {
          "internalType": "address",
          "name": "maker",
          "type": "address"
        }
      ],
      "name": "fund",
      "outputs": [],
      "stateMutability": "payable",
      "type": "function"
    },
    {
      "inputs": [],
      "name": "fund",
      "outputs": [],
      "stateMutability": "payable",
      "type": "function"
    },
    {
      "inputs": [
        {
          "internalType": "t",
          "name": "offer",
          "type": "uint256"
        }
      ],
      "name": "isLive",
      "outputs": [
        {
          "internalType": "bool",
          "name": "",
          "type": "bool"
        }
      ],
      "stateMutability": "pure",
      "type": "function"
    },
    {
      "inputs": [
        {
          "internalType": "address",
          "name": "outbound_tkn",
          "type": "address"
        },
        {
          "internalType": "address",
          "name": "inbound_tkn",
          "type": "address"
        }
      ],
      "name": "locked",
      "outputs": [
        {
          "internalType": "bool",
          "name": "",
          "type": "bool"
        }
      ],
      "stateMutability": "view",
      "type": "function"
    },
    {
      "inputs": [
        {
          "internalType": "address",
          "name": "outbound_tkn",
          "type": "address"
        },
        {
          "internalType": "address",
          "name": "inbound_tkn",
          "type": "address"
        },
        {
          "internalType": "uint256",
          "name": "wants",
          "type": "uint256"
        },
        {
          "internalType": "uint256",
          "name": "gives",
          "type": "uint256"
        },
        {
          "internalType": "uint256",
          "name": "gasreq",
          "type": "uint256"
        },
        {
          "internalType": "uint256",
          "name": "gasprice",
          "type": "uint256"
        },
        {
          "internalType": "uint256",
          "name": "pivotId",
          "type": "uint256"
        }
      ],
      "name": "newOffer",
      "outputs": [
        {
          "internalType": "uint256",
          "name": "",
          "type": "uint256"
        }
      ],
      "stateMutability": "payable",
      "type": "function"
    },
    {
      "inputs": [
        {
          "internalType": "address",
          "name": "",
          "type": "address"
        },
        {
          "internalType": "address",
          "name": "",
          "type": "address"
        },
        {
          "internalType": "uint256",
          "name": "",
          "type": "uint256"
        }
      ],
      "name": "offerDetails",
      "outputs": [
        {
          "internalType": "t",
          "name": "",
          "type": "uint256"
        }
      ],
      "stateMutability": "view",
      "type": "function"
    },
    {
      "inputs": [
        {
          "internalType": "address",
          "name": "outbound_tkn",
          "type": "address"
        },
        {
          "internalType": "address",
          "name": "inbound_tkn",
          "type": "address"
        },
        {
          "internalType": "uint256",
          "name": "offerId",
          "type": "uint256"
        }
      ],
      "name": "offerInfo",
      "outputs": [
        {
          "components": [
            {
              "internalType": "uint256",
              "name": "prev",
              "type": "uint256"
            },
            {
              "internalType": "uint256",
              "name": "next",
              "type": "uint256"
            },
            {
              "internalType": "uint256",
              "name": "wants",
              "type": "uint256"
            },
            {
              "internalType": "uint256",
              "name": "gives",
              "type": "uint256"
            }
          ],
          "internalType": "struct OfferStruct",
          "name": "offer",
          "type": "tuple"
        },
        {
          "components": [
            {
              "internalType": "address",
              "name": "maker",
              "type": "address"
            },
            {
              "internalType": "uint256",
              "name": "gasreq",
              "type": "uint256"
            },
            {
              "internalType": "uint256",
              "name": "offer_gasbase",
              "type": "uint256"
            },
            {
              "internalType": "uint256",
              "name": "gasprice",
              "type": "uint256"
            }
          ],
          "internalType": "struct OfferDetailStruct",
          "name": "offerDetail",
          "type": "tuple"
        }
      ],
      "stateMutability": "view",
      "type": "function"
    },
    {
      "inputs": [
        {
          "internalType": "address",
          "name": "",
          "type": "address"
        },
        {
          "internalType": "address",
          "name": "",
          "type": "address"
        },
        {
          "internalType": "uint256",
          "name": "",
          "type": "uint256"
        }
      ],
      "name": "offers",
      "outputs": [
        {
          "internalType": "t",
          "name": "",
          "type": "uint256"
        }
      ],
      "stateMutability": "view",
      "type": "function"
    },
    {
      "inputs": [
        {
          "internalType": "address",
          "name": "outbound_tkn",
          "type": "address"
        },
        {
          "internalType": "address",
          "name": "inbound_tkn",
          "type": "address"
        },
        {
          "internalType": "uint256",
          "name": "offerId",
          "type": "uint256"
        },
        {
          "internalType": "bool",
          "name": "deprovision",
          "type": "bool"
        }
      ],
      "name": "retractOffer",
      "outputs": [
        {
          "internalType": "uint256",
          "name": "provision",
          "type": "uint256"
        }
      ],
      "stateMutability": "nonpayable",
      "type": "function"
    },
    {
      "inputs": [
        {
          "internalType": "address",
          "name": "outbound_tkn",
          "type": "address"
        },
        {
          "internalType": "address",
          "name": "inbound_tkn",
          "type": "address"
        },
        {
          "internalType": "uint256",
          "name": "wants",
          "type": "uint256"
        },
        {
          "internalType": "uint256",
          "name": "gives",
          "type": "uint256"
        },
        {
          "internalType": "uint256",
          "name": "gasreq",
          "type": "uint256"
        },
        {
          "internalType": "uint256",
          "name": "gasprice",
          "type": "uint256"
        },
        {
          "internalType": "uint256",
          "name": "pivotId",
          "type": "uint256"
        },
        {
          "internalType": "uint256",
          "name": "offerId",
          "type": "uint256"
        }
      ],
      "name": "updateOffer",
      "outputs": [],
      "stateMutability": "payable",
      "type": "function"
    },
    {
      "inputs": [],
      "name": "vault",
      "outputs": [
        {
          "internalType": "address",
          "name": "",
          "type": "address"
        }
      ],
      "stateMutability": "view",
      "type": "function"
    },
    {
      "inputs": [
        {
          "internalType": "uint256",
          "name": "amount",
          "type": "uint256"
        }
      ],
      "name": "withdraw",
      "outputs": [
        {
          "internalType": "bool",
          "name": "noRevert",
          "type": "bool"
        }
      ],
      "stateMutability": "nonpayable",
      "type": "function"
    },
    {
      "stateMutability": "payable",
      "type": "receive"
    }
  ],
  "bytecode": {
    "object": "0x608060405234801561001057600080fd5b50611eba806100206000396000f3fe6080604052600436106100f75760003560e01c806370a082311161008a578063cbf75c9a11610059578063cbf75c9a146103af578063db20266f146103e4578063def5ddaa14610404578063fbfa77cf1461042457600080fd5b806370a08231146102e45780638c66715c14610311578063ad97db1b14610387578063b60d4288146103a757600080fd5b80635722647b116100c65780635722647b1461019e578063644e6703146101dc57806368c13d6b146102935780636a4f7691146102d157600080fd5b8063230244081461010c578063275074581461011f5780632e1a7d4d1461015d57806349f6d2dc1461017d57600080fd5b36610107576101053361045c565b005b600080fd5b61010561011a366004611ca4565b61045c565b34801561012b57600080fd5b5061014861013a366004611cbf565b6001600160601b0316151590565b60405190151581526020015b60405180910390f35b34801561016957600080fd5b50610148610178366004611cbf565b610483565b61019061018b366004611cd8565b6104dd565b604051908152602001610154565b3480156101aa57600080fd5b506101906101b9366004611d36565b600460209081526000938452604080852082529284528284209052825290205481565b3480156101e857600080fd5b506101fc6101f7366004611d72565b61064d565b6040805183516001600160a01b0316815260208085015115158183015284830151151582840152606080860151818401526080808701518185015260a0968701511515878501528551151560c0808601919091529286015160e0850152938501516101008401528401516101208301529183015115156101408201529282015161016084015201516101808201526101a001610154565b34801561029f57600080fd5b506101906102ae366004611d36565b600360209081526000938452604080852082529284528284209052825290205481565b6101056102df366004611da5565b610750565b3480156102f057600080fd5b506101906102ff366004611ca4565b60056020526000908152604090205481565b34801561031d57600080fd5b5061033161032c366004611d36565b610863565b60408051835181526020808501518183015284830151828401526060948501518583015283516001600160a01b0316608083015283015160a08201529082015160c082015291015160e082015261010001610154565b34801561039357600080fd5b506101906103a2366004611e0c565b61093f565b610105610b11565b3480156103bb57600080fd5b506103cf6103ca366004611d72565b610b1c565b60408051928352602083019190915201610154565b3480156103f057600080fd5b506101486103ff366004611d72565b610c58565b34801561041057600080fd5b5061019061041f366004611d72565b610c93565b34801561043057600080fd5b50600054610444906001600160a01b031681565b6040516001600160a01b039091168152602001610154565b6000610469600080610b1c565b50905061047581610ccb565b61047f8234610d0e565b5050565b600061048f3383610d6a565b60405133908390600081818185875af1925050503d80600081146104cf576040519150601f19603f3d011682016040523d82523d6000602084013e6104d4565b606091505b50909392505050565b60006104e7611c1c565b6104f18989610b1c565b610120830181905261010083019190915261050b90610e2f565b61051f816101000151826101200151610e7b565b341561052f5761052f3334610d0e565b61012081015160181c63ffffffff166001016080820181905263ffffffff8116146105975760405162461bcd60e51b81526020600482015260136024820152726d67762f6f6666657249644f766572666c6f7760681b60448201526064015b60405180910390fd5b60808101516101208201516105c39160181b66ffffffff0000001666ffffffff00000019919091161790565b6101208201526001600160a01b03808a16825288166020820152604081018790526060810186905260a0810185905260c0810184905260e0810183905261060b816000610ecb565b61012081015181516001600160a01b03908116600090815260026020908152604080832082870151909416835292905220556080015198975050505050505050565b6040805160c081018252600080825260208201819052918101829052606081018290526080810182905260a08101919091526106c36040518060e0016040528060001515815260200160008152602001600081526020016000815260200160001515815260200160008152602001600081525090565b6000806106d08686610b1c565b9150915061073a826040805160c081018252606083811c8252605884901c60ff9081161515602080850191909152605086901c82161515848601529385901c61ffff1691830191909152602884901c62ffffff1660808301529290911c909116151560a082015290565b93506107458161164d565b925050509250929050565b610758611c1c565b6107628989610b1c565b610120830181905261010083019190915261077c90610e2f565b610790816101000151826101200151610e7b565b34156107a0576107a03334610d0e565b6001600160a01b03808a16808352908916602080840182905260408085018b9052606085018a90526080850186905260a0850189905260c0850188905260e085018790526000938452600382528084209284529181528183208584529052902054610140820152610120810151610818826001610ecb565b61012082015181146108575761012082015182516001600160a01b03908116600090815260026020908152604080832082880151909416835292905220555b50505050505050505050565b61088e6040518060800160405280600081526020016000815260200160008152602001600081525090565b6108c2604051806080016040528060006001600160a01b031681526020016000815260200160008152602001600081525090565b6001600160a01b0380861660009081526003602090815260408083209388168352928152828220868352905220546108f9816116fb565b6001600160a01b038088166000908152600460209081526040808320938a168352928152828220888352905220549093506109338161175d565b92505050935093915050565b60008061094c8686610b1c565b91505061095881610e2f565b6001600160a01b038087166000818152600360209081526040808320948a1680845294825280832089845282528083205493835260048252808320948352938152838220888352905291909120546109b08160601c90565b6001600160a01b0316336001600160a01b031614610a105760405162461bcd60e51b815260206004820152601d60248201527f6d67762f726574726163744f666665722f756e617574686f72697a6564000000604482015260640161058e565b6001600160601b03821615610a745782610a408989610a2f8660e01c90565b60c087901c63ffffffff16886117cc565b9350808414610a72576001600160a01b03808a166000908152600260209081526040808320938c168352929052208490555b505b610a8288888885858a6118ac565b8415610ab957603081901c62ffffff16604882901c62ffffff1601602082901c61ffff16633b9aca0002029350610ab93385610d0e565b866001600160a01b0316886001600160a01b03167fe2ce51fba856682424155a2d89b2ad1d2adde6ea0a9e3115b4b474cd6cb1798b88604051610afe91815260200190565b60405180910390a3505050949350505050565b610b1a3361045c565b565b6001546001600160a01b03838116600090815260026020908152604080832093861683529290522054605882901c60ff1615610c5157600080610b5f8460601c90565b604051636968abd360e01b81526001600160a01b03888116600483015287811660248301529190911690636968abd3906044016040805180830381865afa158015610bae573d6000803e3d6000fd5b505050506040513d601f19601f82011682018060405250810190610bd29190611e60565b91509150610be38261ffff81161490565b15610c0b5769ffff000000000000000019841669ffff0000000000000000604084901b161793505b6001600160701b0381168103610c4e576dffffffffffffffffffffffffffff60781b1983166dffffffffffffffffffffffffffff60781b607883901b1617610745565b50505b9250929050565b6001600160a01b038281166000908152600260209081526040808320938516835292905290812054605881901c60ff1615155b949350505050565b6001600160a01b038281166000908152600260209081526040808320938516835292905290812054603881901c63ffffffff16610c8b565b602081901c60ff1615610d0b5760405162461bcd60e51b81526020600482015260086024820152671b59dd8bd919585960c21b604482015260640161058e565b50565b6001600160a01b03821660008181526005602052604090819020805484019055517f1bbf55d483639f8103dc4e035af71a4fbdb16c80be740fa3eef81198acefa09490610d5e9084815260200190565b60405180910390a25050565b6001600160a01b03821660009081526005602052604090205481811015610dd35760405162461bcd60e51b815260206004820152601960248201527f6d67762f696e73756666696369656e7450726f766973696f6e00000000000000604482015260640161058e565b6001600160a01b038316600081815260056020526040908190208484039055517f59c79d79be0fadf59fe689b6952b7ebe90201a3a1f00d4a31982377890bc604690610e229085815260200190565b60405180910390a2505050565b605881901c60ff1615610d0b5760405162461bcd60e51b81526020600482015260146024820152731b59dd8bdc99595b9d1c985b98de531bd8dad95960621b604482015260640161058e565b610e8482610ccb565b610e908160f81c151590565b61047f5760405162461bcd60e51b815260206004820152600c60248201526b6d67762f696e61637469766560a01b604482015260640161058e565b60c082015161ffff811614610f225760405162461bcd60e51b815260206004820152601e60248201527f6d67762f77726974654f666665722f67617370726963652f3136626974730000604482015260640161058e565b61010082015160401c61ffff168260c001511015610f4d5761010082015160401c61ffff1660c08301525b61010082015160281c62ffffff168260a001511115610fae5760405162461bcd60e51b815260206004820152601d60248201527f6d67762f77726974654f666665722f6761737265712f746f6f48696768000000604482015260640161058e565b60008260600151116110025760405162461bcd60e51b815260206004820152601b60248201527f6d67762f77726974654f666665722f67697665732f746f6f4c6f770000000000604482015260640161058e565b61012082015160781c6001600160701b031661012083015160601c62ffffff168360a0015101028260600151101561107c5760405162461bcd60e51b815260206004820152601d60248201527f6d67762f77726974654f666665722f64656e736974792f746f6f4c6f77000000604482015260640161058e565b60608201516001600160601b038116146110d85760405162461bcd60e51b815260206004820152601b60248201527f6d67762f77726974654f666665722f67697665732f3936626974730000000000604482015260640161058e565b60408201516001600160601b038116146111345760405162461bcd60e51b815260206004820152601b60248201527f6d67762f77726974654f666665722f77616e74732f3936626974730000000000604482015260640161058e565b60008061114084611926565b9150915083602001516001600160a01b031684600001516001600160a01b03167f2b101f9ef8ca2761d91bea55ab50a4d051e9248088ff7314ddb8826839544c2a33876040015188606001518960c001518a60a001518b608001518a6040516111e597969594939291906001600160a01b03979097168752602087019590955260408601939093526060850191909152608084015260a083015260c082015260e00190565b60405180910390a383516001600160a01b0390811660009081526004602090815260408083208289015190941683529281528282206080880151835290529081205484156112bf576112378160601c90565b6001600160a01b0316336001600160a01b0316146112975760405162461bcd60e51b815260206004820152601c60248201527f6d67762f7570646174654f666665722f756e617574686f72697a656400000000604482015260640161058e565b603081901c62ffffff16604882901c62ffffff1601602082901c61ffff16633b9aca00020291505b8415806112d9575060a0860151604882901c62ffffff1614155b806112f0575060c0860151602082901c61ffff1614155b80611311575061012086015160601c62ffffff16603082901c62ffffff1614155b156113c05761012086015160009060601c62ffffff169050611386338860a00151838a60c0015160201b65ffff000000001660309190911b68ffffff0000000000001660489290921b6bffffff0000000000000000001660609390931b6bffffffffffffffffffffffff191692909217171790565b87516001600160a01b039081166000908152600460209081526040808320828d0151909416835292815282822060808c0151835290522055505b5060c08501516101208601516000919060601c62ffffff168760a001510102633b9aca0002905081811115611400576113fb33838303610d6a565b611414565b818110156114145761141433828403610d0e565b506101408501516001600160601b03161580611438575061014085015160e01c8314155b156115c45782156114be57608085015185516001600160a01b039081166000908152600360209081526040808320828b015190941683529281528282208783529052205461148591611b52565b85516001600160a01b039081166000908152600360209081526040808320828b01519094168352928152828220878352905220556114f1565b60808501516101208601516114ea9160381b63ffffffff60381b1663ffffffff60381b19919091161790565b6101208601525b811561156857608085015185516001600160a01b039081166000908152600360208181526040808420828c018051871686529083528185208986528352818520548c518716865293835281852090519095168452938152838320878452905291902060e09290921b6001600160e01b039091161790555b83801561158257506101408501516001600160601b031615155b156115c4576115bd856000015186602001516115a388610140015160e01c90565b61014089015160c01c63ffffffff168961012001516117cc565b6101208601525b60408501516060808701516000926001600160601b03909116911b6bffffffffffffffffffffffff60601b1660c085901b63ffffffff60c01b1660e087901b17171786516001600160a01b039081166000908152600360209081526040808320828c015190941683529281528282206080909a0151825298909852909620959095555050505050565b6116916040518060e0016040528060001515815260200160008152602001600081526020016000815260200160001515815260200160008152602001600081525090565b60f882901c1515815260e882901c61ffff166020820152607882901c6001600160701b03166040820152606082811c62ffffff1690820152605882901c60ff1615156080820152603882901c63ffffffff90811660a083015260189290921c90911660c082015290565b6117266040518060800160405280600081526020016000815260200160008152602001600081525090565b60e082901c815263ffffffff60c083901c1660208201526001600160601b03606083811c8216604084015292169181019190915290565b611791604051806080016040528060006001600160a01b031681526020016000815260200160008152602001600081525090565b606082811c8252604883901c62ffffff908116602080850191909152603085901c90911660408401529290921c61ffff169181019190915290565b6000831561183f576001600160a01b03808716600090815260036020908152604080832093891683529281528282208783529052205461180c9084611b52565b6001600160a01b038088166000908152600360209081526040808320938a1683529281528282208883529052205561185c565b63ffffffff60381b19821663ffffffff60381b603885901b161791505b82156118a3576001600160a01b038681166000908152600360209081526040808320938916835292815282822086835290522080546001600160e01b031660e086901b1790555b50949350505050565b6bffffffffffffffffffffffff198316925080156118d15765ffff0000000019821691505b506001600160a01b039485166000818152600360209081526040808320979098168083529681528782208683528152878220949094559081526004835285812094815293825284842092845291905291902055565b60008060008060008560e00151905060008660800151821461197b5786516001600160a01b039081166000908152600360209081526040808320828c0151909416835292815282822085835290522054611982565b8661014001515b90506001600160601b0381166119db5761012087015160381c63ffffffff1687516001600160a01b039081166000908152600360209081526040808320828d015190941683529281528282208483529052205490925090505b6119e6878284611b6f565b15611a805760005b60c082901c63ffffffff1615611a68575086516001600160a01b039081166000908152600360209081526040808320828c0151909416835292815282822063ffffffff60c086901c1680845291529190205490611a4c898383611b6f565b15611a5c57809350819250611a62565b50611a68565b506119ee565b8260c083901c63ffffffff169095509350611b099050565b60005b611a8d8260e01c90565b15611af6576000611a9e8360e01c90565b89516001600160a01b039081166000908152600360209081526040808320828f015190941683529281528282208483529052205492509050611ae1898383611b6f565b15611aec5750611af6565b9250905080611a83565b611b008260e01c90565b94509192508291505b86608001518414611b1a5783611b24565b61014087015160e01c5b87608001518414611b355783611b45565b61014088015160c01c63ffffffff165b9550955050505050915091565b60c01b63ffffffff60c01b1663ffffffff60c01b19919091161790565b600081600003611b8157506001611c15565b60408401516060858101516001600160601b039186901c8216929186169190808402828402808203611c085789516001600160a01b039081166000908152600460209081526040808320828f015190941683529281528282208b835290529081205460481c62ffffff1660a08c015194029590930294909410159550611c15945050505050565b119450611c159350505050565b9392505050565b60405180610160016040528060006001600160a01b0316815260200160006001600160a01b031681526020016000815260200160008152602001600081526020016000815260200160008152602001600081526020016000815260200160008152602001600081525090565b80356001600160a01b0381168114611c9f57600080fd5b919050565b600060208284031215611cb657600080fd5b611c1582611c88565b600060208284031215611cd157600080fd5b5035919050565b600080600080600080600060e0888a031215611cf357600080fd5b611cfc88611c88565b9650611d0a60208901611c88565b96999698505050506040850135946060810135946080820135945060a0820135935060c0909101359150565b600080600060608486031215611d4b57600080fd5b611d5484611c88565b9250611d6260208501611c88565b9150604084013590509250925092565b60008060408385031215611d8557600080fd5b611d8e83611c88565b9150611d9c60208401611c88565b90509250929050565b600080600080600080600080610100898b031215611dc257600080fd5b611dcb89611c88565b9750611dd960208a01611c88565b979a9799505050506040860135956060810135956080820135955060a0820135945060c0820135935060e0909101359150565b60008060008060808587031215611e2257600080fd5b611e2b85611c88565b9350611e3960208601611c88565b92506040850135915060608501358015158114611e5557600080fd5b939692955090935050565b60008060408385031215611e7357600080fd5b50508051602090910151909290915056fea26469706673582212201b9b4b40d1867a354141aef73fdb5813792aeb1af0c1dc437fde41665bc9468864736f6c634300080e0033",
    "linkReferences": {}
  },
  "methodIdentifiers": {
    "balanceOf(address)": "70a08231",
    "best(address,address)": "def5ddaa",
    "config(address,address)": "cbf75c9a",
    "configInfo(address,address)": "644e6703",
    "fund()": "b60d4288",
    "fund(address)": "23024408",
    "isLive(uint256)": "27507458",
    "locked(address,address)": "db20266f",
    "newOffer(address,address,uint256,uint256,uint256,uint256,uint256)": "49f6d2dc",
    "offerDetails(address,address,uint256)": "5722647b",
    "offerInfo(address,address,uint256)": "8c66715c",
    "offers(address,address,uint256)": "68c13d6b",
    "retractOffer(address,address,uint256,bool)": "ad97db1b",
    "updateOffer(address,address,uint256,uint256,uint256,uint256,uint256,uint256)": "6a4f7691",
    "vault()": "fbfa77cf",
    "withdraw(uint256)": "2e1a7d4d"
  },
  "id": 17
}