{
  "abi": [
    {
      "inputs": [
        {
          "internalType": "contract IMangrove",
          "name": "mgv",
          "type": "address"
        },
        {
          "internalType": "contract IERC20",
          "name": "base",
          "type": "address"
        },
        {
          "internalType": "contract IERC20",
          "name": "quote",
          "type": "address"
        },
        {
          "internalType": "uint256",
          "name": "base_0",
          "type": "uint256"
        },
        {
          "internalType": "uint256",
          "name": "quote_0",
          "type": "uint256"
        },
        {
          "internalType": "uint256",
          "name": "nslots",
          "type": "uint256"
        },
        {
          "internalType": "uint256",
          "name": "price_incr",
          "type": "uint256"
        },
        {
          "internalType": "address",
          "name": "deployer",
          "type": "address"
        }
      ],
      "stateMutability": "nonpayable",
      "type": "constructor"
    },
    {
      "anonymous": false,
      "inputs": [
        {
          "indexed": false,
          "internalType": "uint256",
          "name": "from",
          "type": "uint256"
        },
        {
          "indexed": false,
          "internalType": "uint256",
          "name": "to",
          "type": "uint256"
        }
      ],
      "name": "Initialized",
      "type": "event"
    },
    {
      "anonymous": false,
      "inputs": [
        {
          "indexed": false,
          "internalType": "contract IMangrove",
          "name": "mangrove",
          "type": "address"
        },
        {
          "indexed": true,
          "internalType": "contract IERC20",
          "name": "outbound_tkn",
          "type": "address"
        },
        {
          "indexed": true,
          "internalType": "contract IERC20",
          "name": "inbound_tkn",
          "type": "address"
        },
        {
          "indexed": true,
          "internalType": "uint256",
          "name": "offerId",
          "type": "uint256"
        },
        {
          "indexed": false,
          "internalType": "bytes32",
          "name": "reason",
          "type": "bytes32"
        }
      ],
      "name": "LogIncident",
      "type": "event"
    },
    {
      "anonymous": false,
      "inputs": [
        {
          "indexed": false,
          "internalType": "uint256",
          "name": "",
          "type": "uint256"
        }
      ],
      "name": "SetGasreq",
      "type": "event"
    },
    {
      "anonymous": false,
      "inputs": [
        {
          "indexed": false,
          "internalType": "contract AbstractRouter",
          "name": "",
          "type": "address"
        }
      ],
      "name": "SetRouter",
      "type": "event"
    },
    {
      "inputs": [],
      "name": "BASE",
      "outputs": [
        {
          "internalType": "contract IERC20",
          "name": "",
          "type": "address"
        }
      ],
      "stateMutability": "view",
      "type": "function"
    },
    {
      "inputs": [],
      "name": "MGV",
      "outputs": [
        {
          "internalType": "contract IMangrove",
          "name": "",
          "type": "address"
        }
      ],
      "stateMutability": "view",
      "type": "function"
    },
    {
      "inputs": [],
      "name": "NSLOTS",
      "outputs": [
        {
          "internalType": "uint256",
          "name": "",
          "type": "uint256"
        }
      ],
      "stateMutability": "view",
      "type": "function"
    },
    {
      "inputs": [],
      "name": "QUOTE",
      "outputs": [
        {
          "internalType": "contract IERC20",
          "name": "",
          "type": "address"
        }
      ],
      "stateMutability": "view",
      "type": "function"
    },
    {
      "inputs": [
        {
          "internalType": "bytes",
          "name": "data",
          "type": "bytes"
        }
      ],
      "name": "_staticdelegatecall",
      "outputs": [],
      "stateMutability": "nonpayable",
      "type": "function"
    },
    {
      "inputs": [
        {
          "internalType": "contract IERC20[]",
          "name": "tokens",
          "type": "address[]"
        }
      ],
      "name": "activate",
      "outputs": [],
      "stateMutability": "nonpayable",
      "type": "function"
    },
    {
      "inputs": [],
      "name": "admin",
      "outputs": [
        {
          "internalType": "address",
          "name": "",
          "type": "address"
        }
      ],
      "stateMutability": "view",
      "type": "function"
    },
    {
      "inputs": [
        {
          "internalType": "contract IERC20",
          "name": "outbound_tkn",
          "type": "address"
        }
      ],
      "name": "approveMangrove",
      "outputs": [],
      "stateMutability": "nonpayable",
      "type": "function"
    },
    {
      "inputs": [
        {
          "internalType": "contract IERC20",
          "name": "token",
          "type": "address"
        }
      ],
      "name": "approveRouter",
      "outputs": [],
      "stateMutability": "nonpayable",
      "type": "function"
    },
    {
      "inputs": [
        {
          "internalType": "contract IERC20[]",
          "name": "tokens",
          "type": "address[]"
        }
      ],
      "name": "checkList",
      "outputs": [],
      "stateMutability": "view",
      "type": "function"
    },
    {
      "inputs": [],
      "name": "delta",
      "outputs": [
        {
          "internalType": "uint256",
          "name": "",
          "type": "uint256"
        }
      ],
      "stateMutability": "view",
      "type": "function"
    },
    {
      "inputs": [
        {
          "internalType": "contract IERC20",
          "name": "outbound_tkn",
          "type": "address"
        },
        {
          "internalType": "contract IERC20",
          "name": "inbound_tkn",
          "type": "address"
        },
        {
          "internalType": "uint256",
          "name": "gasreq",
          "type": "uint256"
        },
        {
          "internalType": "uint256",
          "name": "gasprice",
          "type": "uint256"
        },
        {
          "internalType": "uint256",
          "name": "offerId",
          "type": "uint256"
        }
      ],
      "name": "getMissingProvision",
      "outputs": [
        {
          "internalType": "uint256",
          "name": "",
          "type": "uint256"
        }
      ],
      "stateMutability": "view",
      "type": "function"
    },
    {
      "inputs": [
        {
          "internalType": "bool",
          "name": "liveOnly",
          "type": "bool"
        }
      ],
      "name": "get_offers",
      "outputs": [
        {
          "internalType": "uint256[][2]",
          "name": "offers",
          "type": "uint256[][2]"
        }
      ],
      "stateMutability": "view",
      "type": "function"
    },
    {
      "inputs": [],
      "name": "has_router",
      "outputs": [
        {
          "internalType": "bool",
          "name": "",
          "type": "bool"
        }
      ],
      "stateMutability": "view",
      "type": "function"
    },
    {
      "inputs": [
        {
          "internalType": "bool",
          "name": "reset",
          "type": "bool"
        },
        {
          "internalType": "uint256",
          "name": "lastBidPosition",
          "type": "uint256"
        },
        {
          "internalType": "uint256",
          "name": "from",
          "type": "uint256"
        },
        {
          "internalType": "uint256",
          "name": "to",
          "type": "uint256"
        },
        {
          "internalType": "uint256[][2]",
          "name": "pivotIds",
          "type": "uint256[][2]"
        },
        {
          "internalType": "uint256[]",
          "name": "tokenAmounts",
          "type": "uint256[]"
        }
      ],
      "name": "initialize",
      "outputs": [],
      "stateMutability": "nonpayable",
      "type": "function"
    },
    {
      "inputs": [],
      "name": "is_paused",
      "outputs": [
        {
          "internalType": "bool",
          "name": "",
          "type": "bool"
        }
      ],
      "stateMutability": "view",
      "type": "function"
    },
    {
      "inputs": [
        {
          "components": [
            {
              "internalType": "address",
              "name": "outbound_tkn",
              "type": "address"
            },
            {
              "internalType": "address",
              "name": "inbound_tkn",
              "type": "address"
            },
            {
              "internalType": "uint256",
              "name": "offerId",
              "type": "uint256"
            },
            {
              "internalType": "t",
              "name": "offer",
              "type": "uint256"
            },
            {
              "internalType": "uint256",
              "name": "wants",
              "type": "uint256"
            },
            {
              "internalType": "uint256",
              "name": "gives",
              "type": "uint256"
            },
            {
              "internalType": "t",
              "name": "offerDetail",
              "type": "uint256"
            },
            {
              "internalType": "t",
              "name": "global",
              "type": "uint256"
            },
            {
              "internalType": "t",
              "name": "local",
              "type": "uint256"
            }
          ],
          "internalType": "struct MgvLib.SingleOrder",
          "name": "order",
          "type": "tuple"
        }
      ],
      "name": "makerExecute",
      "outputs": [
        {
          "internalType": "bytes32",
          "name": "ret",
          "type": "bytes32"
        }
      ],
      "stateMutability": "nonpayable",
      "type": "function"
    },
    {
      "inputs": [
        {
          "components": [
            {
              "internalType": "address",
              "name": "outbound_tkn",
              "type": "address"
            },
            {
              "internalType": "address",
              "name": "inbound_tkn",
              "type": "address"
            },
            {
              "internalType": "uint256",
              "name": "offerId",
              "type": "uint256"
            },
            {
              "internalType": "t",
              "name": "offer",
              "type": "uint256"
            },
            {
              "internalType": "uint256",
              "name": "wants",
              "type": "uint256"
            },
            {
              "internalType": "uint256",
              "name": "gives",
              "type": "uint256"
            },
            {
              "internalType": "t",
              "name": "offerDetail",
              "type": "uint256"
            },
            {
              "internalType": "t",
              "name": "global",
              "type": "uint256"
            },
            {
              "internalType": "t",
              "name": "local",
              "type": "uint256"
            }
          ],
          "internalType": "struct MgvLib.SingleOrder",
          "name": "order",
          "type": "tuple"
        },
        {
          "components": [
            {
              "internalType": "bytes32",
              "name": "makerData",
              "type": "bytes32"
            },
            {
              "internalType": "bytes32",
              "name": "mgvData",
              "type": "bytes32"
            }
          ],
          "internalType": "struct MgvLib.OrderResult",
          "name": "result",
          "type": "tuple"
        }
      ],
      "name": "makerPosthook",
      "outputs": [],
      "stateMutability": "nonpayable",
      "type": "function"
    },
    {
      "inputs": [
        {
          "components": [
            {
              "internalType": "contract IERC20",
              "name": "outbound_tkn",
              "type": "address"
            },
            {
              "internalType": "contract IERC20",
              "name": "inbound_tkn",
              "type": "address"
            },
            {
              "internalType": "uint256",
              "name": "wants",
              "type": "uint256"
            },
            {
              "internalType": "uint256",
              "name": "gives",
              "type": "uint256"
            },
            {
              "internalType": "uint256",
              "name": "gasreq",
              "type": "uint256"
            },
            {
              "internalType": "uint256",
              "name": "gasprice",
              "type": "uint256"
            },
            {
              "internalType": "uint256",
              "name": "pivotId",
              "type": "uint256"
            },
            {
              "internalType": "uint256",
              "name": "offerId",
              "type": "uint256"
            }
          ],
          "internalType": "struct IOfferLogic.MakerOrder",
          "name": "mko",
          "type": "tuple"
        }
      ],
      "name": "newOffer",
      "outputs": [
        {
          "internalType": "uint256",
          "name": "",
          "type": "uint256"
        }
      ],
      "stateMutability": "payable",
      "type": "function"
    },
    {
      "inputs": [],
      "name": "ofr_gasreq",
      "outputs": [
        {
          "internalType": "uint256",
          "name": "",
          "type": "uint256"
        }
      ],
      "stateMutability": "view",
      "type": "function"
    },
    {
      "inputs": [],
      "name": "pause",
      "outputs": [],
      "stateMutability": "nonpayable",
      "type": "function"
    },
    {
      "inputs": [],
      "name": "pending",
      "outputs": [
        {
          "internalType": "uint256[2]",
          "name": "",
          "type": "uint256[2]"
        }
      ],
      "stateMutability": "view",
      "type": "function"
    },
    {
      "inputs": [],
      "name": "reserve",
      "outputs": [
        {
          "internalType": "address",
          "name": "",
          "type": "address"
        }
      ],
      "stateMutability": "view",
      "type": "function"
    },
    {
      "inputs": [],
      "name": "reset_pending",
      "outputs": [],
      "stateMutability": "nonpayable",
      "type": "function"
    },
    {
      "inputs": [],
      "name": "restart",
      "outputs": [],
      "stateMutability": "nonpayable",
      "type": "function"
    },
    {
      "inputs": [
        {
          "internalType": "contract IERC20",
          "name": "outbound_tkn",
          "type": "address"
        },
        {
          "internalType": "contract IERC20",
          "name": "inbound_tkn",
          "type": "address"
        },
        {
          "internalType": "uint256",
          "name": "offerId",
          "type": "uint256"
        },
        {
          "internalType": "bool",
          "name": "deprovision",
          "type": "bool"
        }
      ],
      "name": "retractOffer",
      "outputs": [
        {
          "internalType": "uint256",
          "name": "free_wei",
          "type": "uint256"
        }
      ],
      "stateMutability": "nonpayable",
      "type": "function"
    },
    {
      "inputs": [
        {
          "internalType": "uint256",
          "name": "ba",
          "type": "uint256"
        },
        {
          "internalType": "uint256",
          "name": "from",
          "type": "uint256"
        },
        {
          "internalType": "uint256",
          "name": "to",
          "type": "uint256"
        }
      ],
      "name": "retractOffers",
      "outputs": [
        {
          "internalType": "uint256",
          "name": "collected",
          "type": "uint256"
        }
      ],
      "stateMutability": "nonpayable",
      "type": "function"
    },
    {
      "inputs": [],
      "name": "router",
      "outputs": [
        {
          "internalType": "contract AbstractRouter",
          "name": "",
          "type": "address"
        }
      ],
      "stateMutability": "view",
      "type": "function"
    },
    {
      "inputs": [
        {
          "internalType": "address",
          "name": "_admin",
          "type": "address"
        }
      ],
      "name": "set_admin",
      "outputs": [],
      "stateMutability": "nonpayable",
      "type": "function"
    },
    {
      "inputs": [
        {
          "internalType": "uint256",
          "name": "_delta",
          "type": "uint256"
        }
      ],
      "name": "set_delta",
      "outputs": [],
      "stateMutability": "nonpayable",
      "type": "function"
    },
    {
      "inputs": [
        {
          "internalType": "uint256",
          "name": "gasreq",
          "type": "uint256"
        }
      ],
      "name": "set_gasreq",
      "outputs": [],
      "stateMutability": "nonpayable",
      "type": "function"
    },
    {
      "inputs": [
        {
          "internalType": "uint256",
          "name": "m",
          "type": "uint256"
        }
      ],
      "name": "set_min_offer_type",
      "outputs": [],
      "stateMutability": "nonpayable",
      "type": "function"
    },
    {
      "inputs": [
        {
          "internalType": "address",
          "name": "_reserve",
          "type": "address"
        }
      ],
      "name": "set_reserve",
      "outputs": [],
      "stateMutability": "nonpayable",
      "type": "function"
    },
    {
      "inputs": [
        {
          "internalType": "contract AbstractRouter",
          "name": "router_",
          "type": "address"
        }
      ],
      "name": "set_router",
      "outputs": [],
      "stateMutability": "nonpayable",
      "type": "function"
    },
    {
      "inputs": [
        {
          "internalType": "int256",
          "name": "s",
          "type": "int256"
        },
        {
          "internalType": "bool",
          "name": "withBase",
          "type": "bool"
        },
        {
          "internalType": "uint256[]",
          "name": "amounts",
          "type": "uint256[]"
        }
      ],
      "name": "set_shift",
      "outputs": [],
      "stateMutability": "nonpayable",
      "type": "function"
    },
    {
      "inputs": [],
      "name": "shift",
      "outputs": [
        {
          "internalType": "int256",
          "name": "",
          "type": "int256"
        }
      ],
      "stateMutability": "view",
      "type": "function"
    },
    {
      "inputs": [
        {
          "internalType": "contract IERC20",
          "name": "token",
          "type": "address"
        }
      ],
      "name": "tokenBalance",
      "outputs": [
        {
          "internalType": "uint256",
          "name": "",
          "type": "uint256"
        }
      ],
      "stateMutability": "view",
      "type": "function"
    },
    {
      "inputs": [
        {
          "components": [
            {
              "internalType": "contract IERC20",
              "name": "outbound_tkn",
              "type": "address"
            },
            {
              "internalType": "contract IERC20",
              "name": "inbound_tkn",
              "type": "address"
            },
            {
              "internalType": "uint256",
              "name": "wants",
              "type": "uint256"
            },
            {
              "internalType": "uint256",
              "name": "gives",
              "type": "uint256"
            },
            {
              "internalType": "uint256",
              "name": "gasreq",
              "type": "uint256"
            },
            {
              "internalType": "uint256",
              "name": "gasprice",
              "type": "uint256"
            },
            {
              "internalType": "uint256",
              "name": "pivotId",
              "type": "uint256"
            },
            {
              "internalType": "uint256",
              "name": "offerId",
              "type": "uint256"
            }
          ],
          "internalType": "struct IOfferLogic.MakerOrder",
          "name": "mko",
          "type": "tuple"
        }
      ],
      "name": "updateOffer",
      "outputs": [],
      "stateMutability": "payable",
      "type": "function"
    },
    {
      "inputs": [
        {
          "internalType": "uint256",
          "name": "amount",
          "type": "uint256"
        },
        {
          "internalType": "address payable",
          "name": "receiver",
          "type": "address"
        }
      ],
      "name": "withdrawFromMangrove",
      "outputs": [],
      "stateMutability": "nonpayable",
      "type": "function"
    },
    {
      "inputs": [
        {
          "internalType": "contract IERC20",
          "name": "token",
          "type": "address"
        },
        {
          "internalType": "address",
          "name": "receiver",
          "type": "address"
        },
        {
          "internalType": "uint256",
          "name": "amount",
          "type": "uint256"
        }
      ],
      "name": "withdrawToken",
      "outputs": [
        {
          "internalType": "bool",
          "name": "success",
          "type": "bool"
        }
      ],
      "stateMutability": "nonpayable",
      "type": "function"
    },
    {
      "stateMutability": "payable",
      "type": "receive"
    }
  ],
  "bytecode": {
    "object": "0x6101206040523480156200001257600080fd5b506040516200b5523803806200b552833981016040819052620000359162000c19565b876203d090604051620000489062000b80565b604051809103906000f08015801562000065573d6000803e3d6000fd5b5082828282823380620000bf5760405162461bcd60e51b815260206004820152601860248201527f616363657373436f6e74726f6c6c65642f307841646d696e000000000000000060448201526064015b60405180910390fd5b80620000d56200048360201b620027491760201c565b80546001600160a01b0319166001600160a01b03929092169190911790555062ffffff811681146200014a5760405162461bcd60e51b815260206004820152601b60248201527f4d616e67726f76654f666665722f676173726571546f6f4869676800000000006044820152606401620000b6565b6001600160a01b038216608052806200016e620004a7602090811b6200276d17901c565b5550506001600160a01b03811662000191576200018b30620004cb565b620001a7565b6200019c81620004cb565b620001a781620005d4565b5050505050506000620001c46200076d60201b620027911760201c565b9050600084118015620001df57506001600160a01b03891615155b8015620001ef5750838461ffff16145b801562000204575085866001600160601b0316145b801562000219575084856001600160601b0316145b620002725760405162461bcd60e51b815260206004820152602260248201527f4d616e676f2f636f6e7374727563746f722f696e76616c6964417267756d656e604482015261747360f01b6064820152608401620000b6565b8360c081815250508888888888886040516200028e9062000b8e565b6001600160a01b03968716815294861660208601529490921660408401526001600160601b03908116606084015216608082015260a081019190915260c001604051809103906000f080158015620002ea573d6000803e3d6000fd5b506001600160a01b0390811660a05288811660e052871661010052836001600160401b0381111562000320576200032062000cab565b6040519080825280602002602001820160405280156200034a578160200160208202803683370190505b5080516200036091839160209091019062000b9c565b50836001600160401b038111156200037c576200037c62000cab565b604051908082528060200260200182016040528015620003a6578160200160208202803683370190505b508051620003bf91600184019160209091019062000b9c565b506007810183905560016008820155620003d98862000791565b620003e48762000791565b620003ef82620004cb565b620003f962000824565b60405163e9333fab60e01b81526001600160a01b038481166004830152919091169063e9333fab90602401600060405180830381600087803b1580156200043f57600080fd5b505af115801562000454573d6000803e3d6000fd5b505050506001600160a01b03821633146200047457620004748262000893565b50505050505050505062000cec565b7f7d382ebca3e46505071795e192d28166a3d4bd0685585591bc6c5b8df6769fd290565b7fae7e31c3220e851db9f204a28b279dfe52b973600b0a456991089c220ae7222490565b620004d56200095c565b6001600160a01b0316336001600160a01b031614806200050857506080516001600160a01b0316336001600160a01b0316145b620005455760405162461bcd60e51b815260206004820152601860248201526000805160206200b5328339815191526044820152606401620000b6565b6001600160a01b0381166200059d5760405162461bcd60e51b815260206004820152601460248201527f53696e676c65557365722f3078526573657276650000000000000000000000006044820152606401620000b6565b80620005b36200098260201b620027b51760201c565b80546001600160a01b0319166001600160a01b039290921691909117905550565b620005de6200095c565b6001600160a01b0316336001600160a01b031614806200061157506080516001600160a01b0316336001600160a01b0316145b6200064e5760405162461bcd60e51b815260206004820152601860248201526000805160206200b5328339815191526044820152606401620000b6565b6001600160a01b038116620006a65760405162461bcd60e51b815260206004820152601c60248201527f6d67764f666665722f7365745f726f757465722f3078526f75746572000000006044820152606401620000b6565b80620006bc620004a760201b6200276d1760201c565b60010180546001600160a01b0319166001600160a01b039283161790556040516381bac14f60e01b8152306004820152908216906381bac14f90602401600060405180830381600087803b1580156200071457600080fd5b505af115801562000729573d6000803e3d6000fd5b50506040516001600160a01b03841681527f6de4326a8b9054d72d9dbab97d27bc4edffadee7d966f5af9cc4eafdaf8e54559250602001905060405180910390a150565b7f416b48c48a967c2245e6ba6bc6efa281932950b502fea671117e4dfd7d3dfb8190565b6200079c81620009a6565b620007a662000a6f565b156200082157620007b78162000aa4565b620007c162000824565b604051630716a76760e21b81526001600160a01b0383811660048301529190911690631c5a9d9c90602401600060405180830381600087803b1580156200080757600080fd5b505af11580156200081c573d6000803e3d6000fd5b505050505b50565b6000806200083c620004a760201b6200276d1760201c565b600101546001600160a01b03169050806200088e5760405162461bcd60e51b815260206004820152601160248201527036b3bb27b33332b917983c2937baba32b960791b6044820152606401620000b6565b919050565b6200089d6200095c565b6001600160a01b0316336001600160a01b031614620008ee5760405162461bcd60e51b815260206004820152601860248201526000805160206200b5328339815191526044820152606401620000b6565b6001600160a01b038116620009465760405162461bcd60e51b815260206004820152601860248201527f416363657373436f6e74726f6c6c65642f307841646d696e00000000000000006044820152606401620000b6565b80620005b36200048360201b620027491760201c565b6000620009736200048360201b620027491760201c565b546001600160a01b0316919050565b7f7bccd2960a07f28b1420615e9ead32d6e77e21d42f4a6c1a1fe785dae226653290565b60805160405163095ea7b360e01b81526001600160a01b03918216600482015260001960248201529082169063095ea7b3906044016020604051808303816000875af1158015620009fb573d6000803e3d6000fd5b505050506040513d601f19601f8201168201806040525081019062000a21919062000cc1565b620008215760405162461bcd60e51b815260206004820152601d60248201527f6d67764f666665722f617070726f76654d616e67726f76652f4661696c0000006044820152606401620000b6565b6000806001600160a01b031662000a90620004a760201b6200276d1760201c565b600101546001600160a01b03161415919050565b6001600160a01b03811663095ea7b362000abd62000824565b6040516001600160e01b031960e084901b1681526001600160a01b03909116600482015260001960248201526044016020604051808303816000875af115801562000b0c573d6000803e3d6000fd5b505050506040513d601f19601f8201168201806040525081019062000b32919062000cc1565b620008215760405162461bcd60e51b815260206004820152601b60248201527f6d67764f666665722f617070726f7665526f757465722f4661696c00000000006044820152606401620000b6565b611004806200468683390190565b615ea8806200568a83390190565b82805482825590600052602060002090810192821562000bda579160200282015b8281111562000bda57825182559160200191906001019062000bbd565b5062000be892915062000bec565b5090565b5b8082111562000be8576000815560010162000bed565b6001600160a01b03811681146200082157600080fd5b600080600080600080600080610100898b03121562000c3757600080fd5b885162000c448162000c03565b60208a015190985062000c578162000c03565b60408a015190975062000c6a8162000c03565b80965050606089015194506080890151935060a0890151925060c0890151915060e089015162000c9a8162000c03565b809150509295985092959890939650565b634e487b7160e01b600052604160045260246000fd5b60006020828403121562000cd457600080fd5b8151801515811462000ce557600080fd5b9392505050565b60805160a05160c05160e0516101005161389862000dee60003960006104ca015260006106a8015260006105dd015260008181611091015281816111f00152818161167001528181611cf001526129c301526000818161047e0152818161094901528181610c4d01528181610d0b01528181610d9c01528181610f110152818161104e01528181611286015281816113e7015281816114790152818161162d0152818161177501528181611809015281816118840152818161197c015281816119f001528181611a7b01528181611c1a01528181611ed80152818161209f0152818161213c015281816122b20152818161267d0152612c3a01526138986000f3fe60806040526004361061023f5760003560e01c80639d4ddea21161012e578063db11851e116100ab578063eedc966a1161006f578063eedc966a146106ca578063f259cd27146106ea578063f851a4401461070a578063f887ea401461071f578063fc488a381461073457600080fd5b8063db11851e14610614578063e20ccec314610634578063e4c34f8414610656578063e9333fab14610676578063ec342ad01461069657600080fd5b8063ccbbcfc2116100f2578063ccbbcfc214610581578063cd3293de146105a1578063d1baa1ef146105b6578063d4a1da08146105cb578063d5c39721146105ff57600080fd5b80639d4ddea2146104ec5780639d4f8aa91461050c5780639f2211cb14610521578063ad97db1b14610541578063c5dbec381461056157600080fd5b80635486c95f116101bc578063815502671161018057806381550267146104225780638456cb591461044257806384b627f91461045757806399fa5e2d1461046c5780639c579839146104b857600080fd5b80635486c95f1461038f578063553e9f32146103a25780635a3e9618146103c25780636c49c32c146103e25780637144df241461040257600080fd5b80631ef3755d116102035780631ef3755d146102ed5780631efa880b146103025780633d3d130d1461032f5780633d77fcde1461034f5780635293840d1461036f57600080fd5b806301e336671461024b57806303eb17e21461028057806310aded60146102a257806312b495a8146102b557806312fc41ca146102d857600080fd5b3661024657005b600080fd5b34801561025757600080fd5b5061026b610266366004612e3b565b610754565b60405190151581526020015b60405180910390f35b34801561028c57600080fd5b506102a061029b366004612ec8565b6108be565b005b6102a06102b0366004612f7a565b61090f565b3480156102c157600080fd5b506102ca610a47565b604051908152602001610277565b3480156102e457600080fd5b506102ca610a92565b3480156102f957600080fd5b506102a0610add565b34801561030e57600080fd5b5061032261031d36600461302b565b610b33565b6040516102779190613048565b34801561033b57600080fd5b506102a061034a3660046130d0565b610c4b565b34801561035b57600080fd5b506102a061036a366004613113565b610d6f565b34801561037b57600080fd5b506102a061038a366004612ec8565b610e51565b6102ca61039d366004612f7a565b610ed5565b3480156103ae57600080fd5b506102a06103bd366004613130565b611021565b3480156103ce57600080fd5b506102a06103dd3660046131d3565b6111b9565b3480156103ee57600080fd5b506102ca6103fd366004613245565b611282565b34801561040e57600080fd5b506102a061041d366004613262565b611391565b34801561042e57600080fd5b506102a061043d366004613292565b611600565b34801561044e57600080fd5b506102a0611748565b34801561046357600080fd5b5061026b6117bd565b34801561047857600080fd5b506104a07f000000000000000000000000000000000000000000000000000000000000000081565b6040516001600160a01b039091168152602001610277565b3480156104c457600080fd5b506104a07f000000000000000000000000000000000000000000000000000000000000000081565b3480156104f857600080fd5b506102a06105073660046132ee565b6117dc565b34801561051857600080fd5b5061026b611857565b34801561052d57600080fd5b506102a061053c366004613113565b61186d565b34801561054d57600080fd5b506102ca61055c366004613307565b61194d565b34801561056d57600080fd5b506102a061057c3660046132ee565b611bed565b34801561058d57600080fd5b506102ca61059c36600461335a565b611c68565b3480156105ad57600080fd5b506104a0611da0565b3480156105c257600080fd5b506102ca611db9565b3480156105d757600080fd5b506102ca7f000000000000000000000000000000000000000000000000000000000000000081565b34801561060b57600080fd5b506102a0611e57565b34801561062057600080fd5b506102a061062f366004613113565b611eab565b34801561064057600080fd5b50610649612025565b6040516102779190613386565b34801561066257600080fd5b506102ca6106713660046133b7565b612091565b34801561068257600080fd5b506102a0610691366004613113565b612354565b3480156106a257600080fd5b506104a07f000000000000000000000000000000000000000000000000000000000000000081565b3480156106d657600080fd5b506102ca6106e5366004613113565b6123eb565b3480156106f657600080fd5b506102a0610705366004613113565b612516565b34801561071657600080fd5b506104a06125eb565b34801561072b57600080fd5b506104a06125f5565b34801561074057600080fd5b506102a061074f3660046132ee565b612650565b600061075e6125eb565b6001600160a01b0316336001600160a01b0316146107975760405162461bcd60e51b815260040161078e90613408565b60405180910390fd5b6001600160a01b0383166107f95760405162461bcd60e51b815260206004820152602360248201527f53696e676c65557365722f7769746864726177546f6b656e2f307852656365696044820152623b32b960e91b606482015260840161078e565b6108016117bd565b610817576108108484846127d9565b90506108b7565b61081f6125f5565b6001600160a01b03166321754d9e85610836611da0565b6040516001600160e01b031960e085901b1681526001600160a01b03928316600482015290821660248201529086166044820152606481018590526084016020604051808303816000875af1158015610893573d6000803e3d6000fd5b505050506040513d601f19601f82011682018060405250810190610810919061343f565b9392505050565b60005b8181101561090a576108f88383838181106108de576108de61345c565b90506020020160208101906108f39190613113565b6128cf565b8061090281613488565b9150506108c1565b505050565b6109176125eb565b6001600160a01b0316336001600160a01b0316146109475760405162461bcd60e51b815260040161078e90613408565b7f00000000000000000000000000000000000000000000000000000000000000006001600160a01b0316636a4f769134836000015184602001518560400151866060015162ffffff80168860800151116109a55787608001516109ad565b6109ad611db9565b60a089015160c08a015160e0808c0151604051918b901b6001600160e01b03191682526001600160a01b03988916600483015296909716602488015260448701949094526064860192909252608485015260a484015260c483015260e4820152610104016000604051808303818588803b158015610a2a57600080fd5b505af1158015610a3e573d6000803e3d6000fd5b50505050505b50565b6000610a516125eb565b6001600160a01b0316336001600160a01b031614610a815760405162461bcd60e51b815260040161078e90613408565b610a89612791565b60070154905090565b6000610a9c6125eb565b6001600160a01b0316336001600160a01b031614610acc5760405162461bcd60e51b815260040161078e90613408565b610ad4612791565b60060154905090565b610ae56125eb565b6001600160a01b0316336001600160a01b031614610b155760405162461bcd60e51b815260040161078e90613408565b6000610b1f612791565b600901805460ff1916911515919091179055565b610b3b612dd6565b60408051831515602480830191909152825180830382018152604490920183526020820180516001600160e01b031663198f4b8360e21b179052915160009283923092630b47d2c360e31b92610b929291016134cd565b60408051601f198184030181529181526020820180516001600160e01b03166001600160e01b0319909416939093179092529051610bd09190613500565b600060405180830381855afa9150503d8060008114610c0b576040519150601f19603f3d011682016040523d82523d6000602084013e610c10565b606091505b509150915081610c2857610c2381612963565b610c44565b80806020019051810190610c3c919061351c565b949350505050565b5050919050565b7f00000000000000000000000000000000000000000000000000000000000000006001600160a01b0381161580610c8a5750336001600160a01b038216145b610ca65760405162461bcd60e51b815260040161078e90613408565b81602001356f6d67762f74726164655375636365737360801b03610cd357610ccd836129bc565b50505050565b60408301803590610ce79060208601613113565b6001600160a01b0316610cfd6020860186613113565b604080516001600160a01b037f0000000000000000000000000000000000000000000000000000000000000000811682528735602083015292909216917f736a3993b9f8b1c5603896c76376792887f376b1fe7fc981e09a16530bf1e4e0910160405180910390a4610ccd8383612aa9565b610d776125eb565b6001600160a01b0316336001600160a01b03161480610dbe5750336001600160a01b037f000000000000000000000000000000000000000000000000000000000000000016145b610dda5760405162461bcd60e51b815260040161078e90613408565b6001600160a01b038116610e275760405162461bcd60e51b815260206004820152601460248201527353696e676c65557365722f30785265736572766560601b604482015260640161078e565b80610e306127b5565b80546001600160a01b0319166001600160a01b039290921691909117905550565b610e596125eb565b6001600160a01b0316336001600160a01b031614610e895760405162461bcd60e51b815260040161078e90613408565b60005b8181101561090a57610ec3838383818110610ea957610ea961345c565b9050602002016020810190610ebe9190613113565b612ab2565b80610ecd81613488565b915050610e8c565b6000610edf6125eb565b6001600160a01b0316336001600160a01b031614610f0f5760405162461bcd60e51b815260040161078e90613408565b7f00000000000000000000000000000000000000000000000000000000000000006001600160a01b03166349f6d2dc34846000015185602001518660400151876060015162ffffff801689608001511015610f6e578860800151610f76565b610f76611db9565b60a08a015160c08b01516040516001600160e01b031960e08b901b1681526001600160a01b03978816600482015296909516602487015260448601939093526064850191909152608484015260a483015260c482015260e40160206040518083038185885af1158015610fed573d6000803e3d6000fd5b50505050506040513d601f19601f82011682018060405250810190611012919061361d565b60e0830181905290505b919050565b6110296125eb565b6001600160a01b0316336001600160a01b031614806110705750336001600160a01b037f000000000000000000000000000000000000000000000000000000000000000016145b61108c5760405162461bcd60e51b815260040161078e90613408565b6000807f00000000000000000000000000000000000000000000000000000000000000006001600160a01b031663def850ac60e01b8a8a8a8a8a8a8a6040516024016110de979695949392919061366c565b60408051601f198184030181529181526020820180516001600160e01b03166001600160e01b031990941693909317909252905161111c9190613500565b600060405180830381855af49150503d8060008114611157576040519150601f19603f3d011682016040523d82523d6000602084013e61115c565b606091505b5091509150816111745761116f81612963565b6111ae565b60408051888152602081018890527f997896709b4e932ee42750e2e14ed1f7ab6c60bd911ff567aa2485cf0b20051b910160405180910390a15b505050505050505050565b308015806111cf5750336001600160a01b038216145b6111eb5760405162461bcd60e51b815260040161078e90613408565b6000807f00000000000000000000000000000000000000000000000000000000000000006001600160a01b03168585604051611228929190613739565b600060405180830381855af49150503d8060008114611263576040519150601f19603f3d011682016040523d82523d6000602084013e611268565b606091505b50915091508161127b5761127b81612963565b3d60208201f35b60007f00000000000000000000000000000000000000000000000000000000000000006001600160a01b03811615806112c35750336001600160a01b038216145b6112df5760405162461bcd60e51b815260040161078e90613408565b6112e883612b39565b61132d5760405162461bcd60e51b81526020600482015260166024820152751b59dd93d999995c8bd8589bdc9d0bdc995b9959d95960521b604482015260640161078e565b600061133d846080013585612b51565b111561138b5760405162461bcd60e51b815260206004820152601860248201527f6d67764f666665722f61626f72742f6765744661696c65640000000000000000604482015260640161078e565b50919050565b6113996125eb565b6001600160a01b0316336001600160a01b0316146113c95760405162461bcd60e51b815260040161078e90613408565b6000198203611463576040516370a0823160e01b81523060048201527f00000000000000000000000000000000000000000000000000000000000000006001600160a01b0316906370a0823190602401602060405180830381865afa158015611436573d6000803e3d6000fd5b505050506040513d601f19601f8201168201806040525081019061145a919061361d565b915081156115fc575b604051632e1a7d4d60e01b8152600481018390527f00000000000000000000000000000000000000000000000000000000000000006001600160a01b031690632e1a7d4d906024016020604051808303816000875af11580156114ca573d6000803e3d6000fd5b505050506040513d601f19601f820116820180604052508101906114ee919061343f565b6115485760405162461bcd60e51b815260206004820152602560248201527f6d67764f666665722f776974686472617746726f6d4d67762f776974686472616044820152641dd1985a5b60da1b606482015260840161078e565b6000816001600160a01b03168360405160006040518083038185875af1925050503d8060008114611595576040519150601f19603f3d011682016040523d82523d6000602084013e61159a565b606091505b505090508061090a5760405162461bcd60e51b815260206004820152602860248201527f6d67764f666665722f776974686472617746726f6d4d67762f70617961626c6560448201526710d85b1b11985a5b60c21b606482015260840161078e565b5050565b6116086125eb565b6001600160a01b0316336001600160a01b0316148061164f5750336001600160a01b037f000000000000000000000000000000000000000000000000000000000000000016145b61166b5760405162461bcd60e51b815260040161078e90613408565b6000807f00000000000000000000000000000000000000000000000000000000000000006001600160a01b031663ac54d25a60e01b878787876040516024016116b79493929190613749565b60408051601f198184030181529181526020820180516001600160e01b03166001600160e01b03199094169390931790925290516116f59190613500565b600060405180830381855af49150503d8060008114611730576040519150601f19603f3d011682016040523d82523d6000602084013e611735565b606091505b509150915081610a3e57610a3e81612963565b6117506125eb565b6001600160a01b0316336001600160a01b031614806117975750336001600160a01b037f000000000000000000000000000000000000000000000000000000000000000016145b6117b35760405162461bcd60e51b815260040161078e90613408565b6001610b1f612791565b6000806117c861276d565b600101546001600160a01b03161415919050565b6117e46125eb565b6001600160a01b0316336001600160a01b0316148061182b5750336001600160a01b037f000000000000000000000000000000000000000000000000000000000000000016145b6118475760405162461bcd60e51b815260040161078e90613408565b80611850612791565b6008015550565b6000611861612791565b6009015460ff16919050565b60405163095ea7b360e01b81526001600160a01b037f000000000000000000000000000000000000000000000000000000000000000081166004830152600019602483015282169063095ea7b3906044016020604051808303816000875af11580156118dd573d6000803e3d6000fd5b505050506040513d601f19601f82011682018060405250810190611901919061343f565b610a445760405162461bcd60e51b815260206004820152601d60248201527f6d67764f666665722f617070726f76654d616e67726f76652f4661696c000000604482015260640161078e565b60006119576125eb565b6001600160a01b0316336001600160a01b0316148061199e5750336001600160a01b037f000000000000000000000000000000000000000000000000000000000000000016145b6119ba5760405162461bcd60e51b815260040161078e90613408565b60405163ad97db1b60e01b81526001600160a01b03868116600483015285811660248301526044820185905283151560648301527f0000000000000000000000000000000000000000000000000000000000000000169063ad97db1b906084016020604051808303816000875af1158015611a39573d6000803e3d6000fd5b505050506040513d601f19601f82011682018060405250810190611a5d919061361d565b90508015610c3c57604051632e1a7d4d60e01b8152600481018290527f00000000000000000000000000000000000000000000000000000000000000006001600160a01b031690632e1a7d4d906024016020604051808303816000875af1158015611acc573d6000803e3d6000fd5b505050506040513d601f19601f82011682018060405250810190611af0919061343f565b611b4c5760405162461bcd60e51b815260206004820152602760248201527f53696e676c65557365722f776974686472617746726f6d4d67762f77697468646044820152661c985dd1985a5b60ca1b606482015260840161078e565b604051600090339083908381818185875af1925050503d8060008114611b8e576040519150601f19603f3d011682016040523d82523d6000602084013e611b93565b606091505b5050905080611be45760405162461bcd60e51b815260206004820152601a60248201527f53696e676c65557365722f7765695472616e736665724661696c000000000000604482015260640161078e565b50949350505050565b611bf56125eb565b6001600160a01b0316336001600160a01b03161480611c3c5750336001600160a01b037f000000000000000000000000000000000000000000000000000000000000000016145b611c585760405162461bcd60e51b815260040161078e90613408565b80611c61612791565b6007015550565b6000611c726125eb565b6001600160a01b0316336001600160a01b031614611ca25760405162461bcd60e51b815260040161078e90613408565b604080516024810186905260448101859052606480820185905282518083039091018152608490910182526020810180516001600160e01b031663a7964d4960e01b179052905160009182917f00000000000000000000000000000000000000000000000000000000000000006001600160a01b031691611d2291613500565b600060405180830381855af49150503d8060008114611d5d576040519150601f19603f3d011682016040523d82523d6000602084013e611d62565b606091505b509150915081611d7a57611d7581612963565b611d97565b80806020019051810190611d8e919061361d565b925050506108b7565b50509392505050565b6000611daa6127b5565b546001600160a01b0316919050565b6000611dc36117bd565b15611e4957611dd06125f5565b6001600160a01b0316630417ffda6040518163ffffffff1660e01b8152600401602060405180830381865afa158015611e0d573d6000803e3d6000fd5b505050506040513d601f19601f82011682018060405250810190611e31919061361d565b611e3961276d565b54611e44919061376b565b905090565b611e5161276d565b54919050565b611e5f6125eb565b6001600160a01b0316336001600160a01b031614611e8f5760405162461bcd60e51b815260040161078e90613408565b6000611e99612791565b60006002820181905560039091015550565b611eb36125eb565b6001600160a01b0316336001600160a01b03161480611efa5750336001600160a01b037f000000000000000000000000000000000000000000000000000000000000000016145b611f165760405162461bcd60e51b815260040161078e90613408565b6001600160a01b038116611f6c5760405162461bcd60e51b815260206004820152601c60248201527f6d67764f666665722f7365745f726f757465722f3078526f7574657200000000604482015260640161078e565b80611f7561276d565b60010180546001600160a01b0319166001600160a01b039283161790556040516381bac14f60e01b8152306004820152908216906381bac14f90602401600060405180830381600087803b158015611fcc57600080fd5b505af1158015611fe0573d6000803e3d6000fd5b50506040516001600160a01b03841681527f6de4326a8b9054d72d9dbab97d27bc4edffadee7d966f5af9cc4eafdaf8e5455925060200190505b60405180910390a150565b61202d612dfd565b6120356125eb565b6001600160a01b0316336001600160a01b0316146120655760405162461bcd60e51b815260040161078e90613408565b600061206f612791565b6040805180820190915260028201548152600390910154602082015291505090565b600080806001600160a01b037f00000000000000000000000000000000000000000000000000000000000000001663cbf75c9a89896040516001600160e01b031960e085901b1681526001600160a01b039283166004820152911660248201526044016040805180830381865afa158015612110573d6000803e3d6000fd5b505050506040513d601f19601f820116820180604052508101906121349190613783565b9150915060007f00000000000000000000000000000000000000000000000000000000000000006001600160a01b0316635722647b6121708b90565b8a6040516001600160e01b031960e085901b1681526001600160a01b0392831660048201529116602482015260448101889052606401602060405180830381865afa1580156121c3573d6000803e3d6000fd5b505050506040513d601f19601f820116820180604052508101906121e7919061361d565b9050600086604085901c61ffff16111561220a575061ffff604084901c1661220d565b50855b62ffffff88106122225761221f611db9565b97505b60008161223862ffffff606087901c168b61376b565b61224291906137a7565b61225090633b9aca006137a7565b9050600061ffff602085901c1661227762ffffff603087901c811690604888901c1661376b565b61228191906137a7565b61228f90633b9aca006137a7565b6040516370a0823160e01b81523060048201529091506000906001600160a01b037f000000000000000000000000000000000000000000000000000000000000000016906370a0823190602401602060405180830381865afa1580156122f9573d6000803e3d6000fd5b505050506040513d601f19601f8201168201806040525081019061231d919061361d565b612327908361376b565b9050828110156123405761233b81846137c6565b612343565b60005b9d9c50505050505050505050505050565b61235c6125eb565b6001600160a01b0316336001600160a01b03161461238c5760405162461bcd60e51b815260040161078e90613408565b6001600160a01b0381166123e25760405162461bcd60e51b815260206004820152601860248201527f416363657373436f6e74726f6c6c65642f307841646d696e0000000000000000604482015260640161078e565b80610e30612749565b6000806123f661276d565b600101546001600160a01b03169050801561249757806001600160a01b03166305684fde84612423611da0565b6040516001600160e01b031960e085901b1681526001600160a01b03928316600482015291166024820152604401602060405180830381865afa15801561246e573d6000803e3d6000fd5b505050506040513d601f19601f82011682018060405250810190612492919061361d565b6108b7565b826001600160a01b03166370a082316124ae611da0565b6040516001600160e01b031960e084901b1681526001600160a01b039091166004820152602401602060405180830381865afa1580156124f2573d6000803e3d6000fd5b505050506040513d601f19601f820116820180604052508101906108b7919061361d565b806001600160a01b031663095ea7b361252d6125f5565b6040516001600160e01b031960e084901b1681526001600160a01b03909116600482015260001960248201526044016020604051808303816000875af115801561257b573d6000803e3d6000fd5b505050506040513d601f19601f8201168201806040525081019061259f919061343f565b610a445760405162461bcd60e51b815260206004820152601b60248201527f6d67764f666665722f617070726f7665526f757465722f4661696c0000000000604482015260640161078e565b6000611daa612749565b60008061260061276d565b600101546001600160a01b031690508061101c5760405162461bcd60e51b815260206004820152601160248201527036b3bb27b33332b917983c2937baba32b960791b604482015260640161078e565b6126586125eb565b6001600160a01b0316336001600160a01b0316148061269f5750336001600160a01b037f000000000000000000000000000000000000000000000000000000000000000016145b6126bb5760405162461bcd60e51b815260040161078e90613408565b808162ffffff161461270f5760405162461bcd60e51b815260206004820152601860248201527f6d67764f666665722f6761737265712f6f766572666c6f770000000000000000604482015260640161078e565b8061271861276d565b556040518181527fafef3ad374c0b972e3c793be825735801fa05cc4c67157d98d9a111b4027988d9060200161201a565b7f7d382ebca3e46505071795e192d28166a3d4bd0685585591bc6c5b8df6769fd290565b7fae7e31c3220e851db9f204a28b279dfe52b973600b0a456991089c220ae7222490565b7f416b48c48a967c2245e6ba6bc6efa281932950b502fea671117e4dfd7d3dfb8190565b7f7bccd2960a07f28b1420615e9ead32d6e77e21d42f4a6c1a1fe785dae226653290565b60008115806127f057506001600160a01b03831630145b156127fd575060016108b7565b604080516001600160a01b038581166024830152604480830186905283518084039091018152606490920183526020820180516001600160e01b031663a9059cbb60e01b17905291516000928392908816916128599190613500565b6000604051808303816000865af19150503d8060008114612896576040519150601f19603f3d011682016040523d82523d6000602084013e61289b565b606091505b50915091508180156128c55750805115806128c55750808060200190518101906128c5919061343f565b9695505050505050565b6128d76117bd565b1561295a576128e46125f5565b6001600160a01b031663a01dccd8826128fb611da0565b6040516001600160e01b031960e085901b1681526001600160a01b0392831660048201529116602482015260440160006040518083038186803b15801561294157600080fd5b505afa158015612955573d6000803e3d6000fd5b505050505b610a4481612c1d565b80516000036129b45760405162461bcd60e51b815260206004820152601b60248201527f4d616e676f53746f726167652f7265766572744e6f526561736f6e0000000000604482015260640161078e565b805160208201fd5b60008060007f00000000000000000000000000000000000000000000000000000000000000006001600160a01b0316632fa9b19060e01b85604051602401612a0491906137dd565b60408051601f198184030181529181526020820180516001600160e01b03166001600160e01b0319909416939093179092529051612a429190613500565b600060405180830381855af49150503d8060008114612a7d576040519150601f19603f3d011682016040523d82523d6000602084013e612a82565b606091505b509150915081612a9557610c2381612963565b80806020019051810190610c3c919061343f565b60015b92915050565b612abb8161186d565b612ac36117bd565b15610a4457612ad181612516565b612ad96125f5565b604051630716a76760e21b81526001600160a01b0383811660048301529190911690631c5a9d9c90602401600060405180830381600087803b158015612b1e57600080fd5b505af1158015612b32573d6000803e3d6000fd5b5050505050565b6000612b43612791565b6009015460ff161592915050565b600080612b6c612b646020850185613113565b856000612d0d565b9050838110612b7f576000915050612aac565b6000612b8e6020850185613113565b6040516370a0823160e01b81523060048201526001600160a01b0391909116906370a0823190602401602060405180830381865afa158015612bd4573d6000803e3d6000fd5b505050506040513d601f19601f82011682018060405250810190612bf8919061361d565b905084811015612c1157612c0c81866137c6565b612c14565b60005b92505050612aac565b604051636eb1769f60e11b81523060048201526001600160a01b037f0000000000000000000000000000000000000000000000000000000000000000811660248301526000919083169063dd62ed3e90604401602060405180830381865afa158015612c8d573d6000803e3d6000fd5b505050506040513d601f19601f82011682018060405250810190612cb1919061361d565b11610a445760405162461bcd60e51b815260206004820152602660248201527f4d616e67726f76654f666665722f41646d696e4d757374417070726f76654d616044820152656e67726f766560d01b606482015260840161078e565b600080612d1861276d565b600101546001600160a01b0316905080612d365760009150506108b7565b806001600160a01b031663333dbb0d86612d4e611da0565b6040516001600160e01b031960e085901b1681526001600160a01b039283166004820152911660248201526044810187905285151560648201526084016020604051808303816000875af1158015612daa573d6000803e3d6000fd5b505050506040513d601f19601f82011682018060405250810190612dce919061361d565b9150506108b7565b60405180604001604052806002905b6060815260200190600190039081612de55790505090565b60405180604001604052806002906020820280368337509192915050565b6001600160a01b0381168114610a4457600080fd5b803561101c81612e1b565b600080600060608486031215612e5057600080fd5b8335612e5b81612e1b565b92506020840135612e6b81612e1b565b929592945050506040919091013590565b60008083601f840112612e8e57600080fd5b50813567ffffffffffffffff811115612ea657600080fd5b6020830191508360208260051b8501011115612ec157600080fd5b9250929050565b60008060208385031215612edb57600080fd5b823567ffffffffffffffff811115612ef257600080fd5b612efe85828601612e7c565b90969095509350505050565b634e487b7160e01b600052604160045260246000fd5b6040805190810167ffffffffffffffff81118282101715612f4357612f43612f0a565b60405290565b604051601f8201601f1916810167ffffffffffffffff81118282101715612f7257612f72612f0a565b604052919050565b6000610100808385031215612f8e57600080fd5b6040519081019067ffffffffffffffff82118183101715612fb157612fb1612f0a565b8160405283359150612fc282612e1b565b818152612fd160208501612e30565b602082015260408401356040820152606084013560608201526080840135608082015260a084013560a082015260c084013560c082015260e084013560e0820152809250505092915050565b8015158114610a4457600080fd5b60006020828403121561303d57600080fd5b81356108b78161301d565b6020808252600090606083018382018584805b60028110156130b057878503601f19018452825180518087529087019087870190845b8181101561309a5783518352928901929189019160010161307e565b509096505050928501929185019160010161305b565b5092979650505050505050565b6000610120828403121561138b57600080fd5b6000808284036101608112156130e557600080fd5b6130ef85856130bd565b9250604061011f198201121561310457600080fd5b50610120830190509250929050565b60006020828403121561312557600080fd5b81356108b781612e1b565b600080600080600080600060c0888a03121561314b57600080fd5b87356131568161301d565b9650602088013595506040880135945060608801359350608088013567ffffffffffffffff8082111561318857600080fd5b818a0191508a60408301111561319d57600080fd5b90935060a089013590808211156131b357600080fd5b506131c08a828b01612e7c565b989b979a50959850939692959293505050565b600080602083850312156131e657600080fd5b823567ffffffffffffffff808211156131fe57600080fd5b818501915085601f83011261321257600080fd5b81358181111561322157600080fd5b86602082850101111561323357600080fd5b60209290920196919550909350505050565b6000610120828403121561325857600080fd5b6108b783836130bd565b6000806040838503121561327557600080fd5b82359150602083013561328781612e1b565b809150509250929050565b600080600080606085870312156132a857600080fd5b8435935060208501356132ba8161301d565b9250604085013567ffffffffffffffff8111156132d657600080fd5b6132e287828801612e7c565b95989497509550505050565b60006020828403121561330057600080fd5b5035919050565b6000806000806080858703121561331d57600080fd5b843561332881612e1b565b9350602085013561333881612e1b565b925060408501359150606085013561334f8161301d565b939692955090935050565b60008060006060848603121561336f57600080fd5b505081359360208301359350604090920135919050565b60408101818360005b60028110156133ae57815183526020928301929091019060010161338f565b50505092915050565b600080600080600060a086880312156133cf57600080fd5b85356133da81612e1b565b945060208601356133ea81612e1b565b94979496505050506040830135926060810135926080909101359150565b60208082526018908201527f416363657373436f6e74726f6c6c65642f496e76616c69640000000000000000604082015260600190565b60006020828403121561345157600080fd5b81516108b78161301d565b634e487b7160e01b600052603260045260246000fd5b634e487b7160e01b600052601160045260246000fd5b60006001820161349a5761349a613472565b5060010190565b60005b838110156134bc5781810151838201526020016134a4565b83811115610ccd5750506000910152565b60208152600082518060208401526134ec8160408501602087016134a1565b601f01601f19169190910160400192915050565b600082516135128184602087016134a1565b9190910192915050565b6000602080838503121561352f57600080fd5b825167ffffffffffffffff8082111561354757600080fd5b8185019150601f868184011261355c57600080fd5b613564612f20565b80604085018981111561357657600080fd5b855b8181101561360e578051868111156135905760008081fd5b87018581018c136135a15760008081fd5b8051878111156135b3576135b3612f0a565b8060051b6135c28b8201612f49565b9182528281018b01918b8101908f8411156135df57600092508283fd5b938c01935b838510156135fd5784518252938c0193908c01906135e4565b885250505093880193508701613578565b50909998505050505050505050565b60006020828403121561362f57600080fd5b5051919050565b81835260006001600160fb1b0383111561364f57600080fd5b8260051b8083602087013760009401602001938452509192915050565b600060c0820189151583526020898185015288604085015287606085015260c0608085015281829050610100850192508760005b60028110156137145786850360bf190183528135368b9003601e190181126136c757600080fd5b8a01848101903567ffffffffffffffff8111156136e357600080fd5b8060051b36038213156136f557600080fd5b613700878284613636565b9650505091830191908301906001016136a0565b5050505082810360a084015261372b818587613636565b9a9950505050505050505050565b8183823760009101908152919050565b84815283151560208201526060604082015260006128c5606083018486613636565b6000821982111561377e5761377e613472565b500190565b6000806040838503121561379657600080fd5b505080516020909101519092909150565b60008160001904831182151516156137c1576137c1613472565b500290565b6000828210156137d8576137d8613472565b500390565b610120810182356137ed81612e1b565b6001600160a01b0316825261380460208401612e30565b6001600160a01b03811660208401525060408301356040830152606083013560608301526080830135608083015260a083013560a083015260c083013560c083015260e083013560e08301526101008084013581840152509291505056fea2646970667358221220a1a6cb2b427638808720811861f4660888c921f69d362889432bdb32a82a734864736f6c634300080e0033608060405234801561001057600080fd5b5061c35033806100675760405162461bcd60e51b815260206004820152601860248201527f616363657373436f6e74726f6c6c65642f307841646d696e000000000000000060448201526064015b60405180910390fd5b8061007a61010a60201b6107e51760201c565b80546001600160a01b0319166001600160a01b03929092169190911790555062ffffff811681146100ed5760405162461bcd60e51b815260206004820152601660248201527f526f757465722f6f76657268656164546f6f4869676800000000000000000000604482015260640161005e565b8061010061012e60201b6108091760201c565b6001015550610152565b7f7d382ebca3e46505071795e192d28166a3d4bd0685585591bc6c5b8df6769fd290565b7ff2910982afb88211fa9894801aaf0314409ca240a0a8904897b9f5ba323ca53390565b610ea3806101616000396000f3fe608060405234801561001057600080fd5b50600436106100cf5760003560e01c8063362aecb11161008c578063cf5e7bd311610066578063cf5e7bd314610199578063e9333fab146101ac578063f850a81c146101bf578063f851a440146101d257600080fd5b8063362aecb11461016057806381bac14f14610173578063a01dccd81461018657600080fd5b80630417ffda146100d457806305684fde146100ef5780631c5a9d9c1461010257806321754d9e1461011757806326e8eda21461013a578063333dbb0d1461014d575b600080fd5b6100dc6101f2565b6040519081526020015b60405180910390f35b6100dc6100fd366004610bc3565b610205565b610115610110366004610bfc565b61027a565b005b61012a610125366004610c19565b6102cd565b60405190151581526020016100e6565b610115610148366004610c6a565b61030b565b6100dc61015b366004610cb9565b610341565b61012a61016e366004610bfc565b6103fd565b610115610181366004610bfc565b610429565b610115610194366004610bc3565b6104a7565b6101156101a7366004610bfc565b61057d565b6101156101ba366004610bfc565b6105ce565b6101156101cd366004610d0c565b6106b6565b6101da6107cc565b6040516001600160a01b0390911681526020016100e6565b60006101fc610809565b60010154905090565b6040516370a0823160e01b81526001600160a01b038281166004830152600091908416906370a0823190602401602060405180830381865afa15801561024f573d6000803e3d6000fd5b505050506040513d601f19601f820116820180604052508101906102739190610d92565b9392505050565b6102826107cc565b6001600160a01b0316336001600160a01b031614806102a557506102a5336103fd565b6102ca5760405162461bcd60e51b81526004016102c190610dab565b60405180910390fd5b50565b60006102d8336103fd565b6102f45760405162461bcd60e51b81526004016102c190610dab565b6103008585858561082d565b90505b949350505050565b610314336103fd565b6103305760405162461bcd60e51b81526004016102c190610dab565b61033c8383338461083b565b505050565b600061034c336103fd565b6103685760405162461bcd60e51b81526004016102c190610dab565b6040516370a0823160e01b81523360048201526000906001600160a01b038716906370a0823190602401602060405180830381865afa1580156103af573d6000803e3d6000fd5b505050506040513d601f19601f820116820180604052508101906103d39190610d92565b90508381106103e6576000915050610303565b6103f38686338787610893565b9695505050505050565b6000610407610809565b6001600160a01b03909216600090815260209290925250604090205460ff1690565b6104316107cc565b6001600160a01b0316336001600160a01b031614806104545750610454336103fd565b6104705760405162461bcd60e51b81526004016102c190610dab565b600161047a610809565b6001600160a01b039290921660009081526020929092526040909120805460ff1916911515919091179055565b604051636eb1769f60e11b81523360048201523060248201526000906001600160a01b0384169063dd62ed3e90604401602060405180830381865afa1580156104f4573d6000803e3d6000fd5b505050506040513d601f19601f820116820180604052508101906105189190610d92565b1161056f5760405162461bcd60e51b815260206004820152602160248201527f526f757465722f4e6f74417070726f76656442794d616b6572436f6e747261636044820152601d60fa1b60648201526084016102c1565b61057982826108ba565b5050565b6105856107cc565b6001600160a01b0316336001600160a01b031614806105a857506105a8336103fd565b6105c45760405162461bcd60e51b81526004016102c190610dab565b600061047a610809565b6105d66107cc565b6001600160a01b0316336001600160a01b0316146106365760405162461bcd60e51b815260206004820152601860248201527f416363657373436f6e74726f6c6c65642f496e76616c6964000000000000000060448201526064016102c1565b6001600160a01b03811661068c5760405162461bcd60e51b815260206004820152601860248201527f416363657373436f6e74726f6c6c65642f307841646d696e000000000000000060448201526064016102c1565b806106956107e5565b80546001600160a01b0319166001600160a01b039290921691909117905550565b6106bf336103fd565b6106db5760405162461bcd60e51b81526004016102c190610dab565b60005b828110156107c65760008484838181106106fa576106fa610dd8565b905060200201602081019061070f9190610bfc565b6040516370a0823160e01b81523360048201526001600160a01b0391909116906370a0823190602401602060405180830381865afa158015610755573d6000803e3d6000fd5b505050506040513d601f19601f820116820180604052508101906107799190610d92565b905080156107b3576107b385858481811061079657610796610dd8565b90506020020160208101906107ab9190610bfc565b84338461083b565b50806107be81610dee565b9150506106de565b50505050565b60006107d66107e5565b546001600160a01b0316919050565b7f7d382ebca3e46505071795e192d28166a3d4bd0685585591bc6c5b8df6769fd290565b7ff2910982afb88211fa9894801aaf0314409ca240a0a8904897b9f5ba323ca53390565b600061030085858585610998565b61084784838584610998565b6107c65760405162461bcd60e51b815260206004820152601e60248201527f53696d706c65526f757465722f707573682f7472616e736665724661696c000060448201526064016102c1565b60006108a186868686610998565b156108ad5750816108b1565b5060005b95945050505050565b6001600160a01b0381163014806109425750604051636eb1769f60e11b81526001600160a01b0382811660048301523060248301526000919084169063dd62ed3e90604401602060405180830381865afa15801561091c573d6000803e3d6000fd5b505050506040513d601f19601f820116820180604052508101906109409190610d92565b115b6105795760405162461bcd60e51b815260206004820152602160248201527f53696d706c65526f757465722f4e6f74417070726f76656442795265736572766044820152606560f81b60648201526084016102c1565b60008115806109b85750826001600160a01b0316846001600160a01b0316145b156109c557506001610303565b306001600160a01b038516036109e7576109e0858484610ac2565b9050610303565b604080516001600160a01b0386811660248301528581166044830152606480830186905283518084039091018152608490920183526020820180516001600160e01b03166323b872dd60e01b1790529151600092839290891691610a4b9190610e15565b6000604051808303816000865af19150503d8060008114610a88576040519150601f19603f3d011682016040523d82523d6000602084013e610a8d565b606091505b5091509150818015610ab7575080511580610ab7575080806020019051810190610ab79190610e50565b979650505050505050565b6000811580610ad957506001600160a01b03831630145b15610ae657506001610273565b604080516001600160a01b038581166024830152604480830186905283518084039091018152606490920183526020820180516001600160e01b031663a9059cbb60e01b1790529151600092839290881691610b429190610e15565b6000604051808303816000865af19150503d8060008114610b7f576040519150601f19603f3d011682016040523d82523d6000602084013e610b84565b606091505b50915091508180156103f35750805115806103f35750808060200190518101906103f39190610e50565b6001600160a01b03811681146102ca57600080fd5b60008060408385031215610bd657600080fd5b8235610be181610bae565b91506020830135610bf181610bae565b809150509250929050565b600060208284031215610c0e57600080fd5b813561027381610bae565b60008060008060808587031215610c2f57600080fd5b8435610c3a81610bae565b93506020850135610c4a81610bae565b92506040850135610c5a81610bae565b9396929550929360600135925050565b600080600060608486031215610c7f57600080fd5b8335610c8a81610bae565b92506020840135610c9a81610bae565b929592945050506040919091013590565b80151581146102ca57600080fd5b60008060008060808587031215610ccf57600080fd5b8435610cda81610bae565b93506020850135610cea81610bae565b9250604085013591506060850135610d0181610cab565b939692955090935050565b600080600060408486031215610d2157600080fd5b833567ffffffffffffffff80821115610d3957600080fd5b818601915086601f830112610d4d57600080fd5b813581811115610d5c57600080fd5b8760208260051b8501011115610d7157600080fd5b60209283019550935050840135610d8781610bae565b809150509250925092565b600060208284031215610da457600080fd5b5051919050565b602080825260139082015272149bdd5d195c8bdd5b985d5d1a1bdc9a5e9959606a1b604082015260600190565b634e487b7160e01b600052603260045260246000fd5b600060018201610e0e57634e487b7160e01b600052601160045260246000fd5b5060010190565b6000825160005b81811015610e365760208186018101518583015201610e1c565b81811115610e45576000828501525b509190910192915050565b600060208284031215610e6257600080fd5b815161027381610cab56fea2646970667358221220f4e191b1be5a22571f21b2f90ceb3d6b24b8d7face090b8958379a401d212a0264736f6c634300080e00336101606040523480156200001257600080fd5b5060405162005ea838038062005ea8833981016040819052620000359162000547565b8560008082818082813380620000925760405162461bcd60e51b815260206004820152601860248201527f616363657373436f6e74726f6c6c65642f307841646d696e000000000000000060448201526064015b60405180910390fd5b80620000a8620001bb60201b62002a531760201c565b80546001600160a01b0319166001600160a01b03929092169190911790555062ffffff811681146200011d5760405162461bcd60e51b815260206004820152601b60248201527f4d616e67726f76654f666665722f676173726571546f6f486967680000000000604482015260640162000089565b6001600160a01b0382166080528062000141620001df602090811b62002a7717901c565b5550506001600160a01b03811662000164576200015e3062000203565b6200017a565b6200016f8162000203565b6200017a816200031d565b5050506001600160a01b0397881661010052505050929093166101205260a0919091526001600160601b0390811660c0521660e052503361014052620005c7565b7f7d382ebca3e46505071795e192d28166a3d4bd0685585591bc6c5b8df6769fd290565b7fae7e31c3220e851db9f204a28b279dfe52b973600b0a456991089c220ae7222490565b6200020d620004c7565b6001600160a01b0316336001600160a01b031614806200024057506080516001600160a01b0316336001600160a01b0316145b6200028e5760405162461bcd60e51b815260206004820152601860248201527f416363657373436f6e74726f6c6c65642f496e76616c69640000000000000000604482015260640162000089565b6001600160a01b038116620002e65760405162461bcd60e51b815260206004820152601460248201527f53696e676c65557365722f307852657365727665000000000000000000000000604482015260640162000089565b80620002fc620004ed60201b62002a9b1760201c565b80546001600160a01b0319166001600160a01b039290921691909117905550565b62000327620004c7565b6001600160a01b0316336001600160a01b031614806200035a57506080516001600160a01b0316336001600160a01b0316145b620003a85760405162461bcd60e51b815260206004820152601860248201527f416363657373436f6e74726f6c6c65642f496e76616c69640000000000000000604482015260640162000089565b6001600160a01b038116620004005760405162461bcd60e51b815260206004820152601c60248201527f6d67764f666665722f7365745f726f757465722f3078526f7574657200000000604482015260640162000089565b8062000416620001df60201b62002a771760201c565b60010180546001600160a01b0319166001600160a01b039283161790556040516381bac14f60e01b8152306004820152908216906381bac14f90602401600060405180830381600087803b1580156200046e57600080fd5b505af115801562000483573d6000803e3d6000fd5b50506040516001600160a01b03841681527f6de4326a8b9054d72d9dbab97d27bc4edffadee7d966f5af9cc4eafdaf8e54559250602001905060405180910390a150565b6000620004de620001bb60201b62002a531760201c565b546001600160a01b0316919050565b7f7bccd2960a07f28b1420615e9ead32d6e77e21d42f4a6c1a1fe785dae226653290565b6001600160a01b03811681146200052757600080fd5b50565b80516001600160601b03811681146200054257600080fd5b919050565b60008060008060008060c087890312156200056157600080fd5b86516200056e8162000511565b6020880151909650620005818162000511565b6040880151909550620005948162000511565b9350620005a4606088016200052a565b9250620005b4608088016200052a565b915060a087015190509295509295509295565b60805160a05160c05160e0516101005161012051610140516155c3620008e56000396000818161082201528181611740015281816119100152611ebd0152600081816108e8015281816110f301528181611253015281816117f001528181611888015281816122290152818161233a01528181612f8c01528181613130015281816131cc015281816135f2015281816136c8015281816138670152818161405401528181614130015281816142c1015281816143cc015281816144f0015281816146030152818161472a015281816148350152818161498b0152614a64015260008181610894015281816109340152818161111401528181611232015281816117cf015281816118a9015281816122080152818161235b01528181612e7501528181612fad015281816131ab0152818161334a015281816135d1015281816138880152818161394601528181613b5a01528181613ce0015281816140330152818161415a015281816142a0015281816143f6015281816144cf015281816146240152818161470001528181614856015281816149610152614a8501526000614b29015260008181613c970152613db1015260008181610ac501528181610b1a01528181610f7401528181610fd90152818161104401528181611fba01528181611fee01528181612024015281816120b301528181612efa015281816134d70152818161355a015281816136f20152818161379101528181613ec60152613efe0152600081816103660152818161074901528181610bcb01528181610c8901528181610d0501528181610e7a015281816110cc0152818161120b015281816113080152818161141b015281816114ad0152818161166a01528181611a0f01528181611a8301528181611b0e01528181611d65015281816123bf0152818161245c015281816125bc0152818161298701528181612c8a01528181612ddb01528181612f6501528181613184015281816139c30152818161400c01528181614193015281816142790152818161442f015281816144a8015281816145dc015281816147630152818161480e015281816149c40152614a3d01526155c36000f3fe6080604052600436106101bb5760003560e01c8063a7964d49116100ec578063e4c34f841161008a578063f259cd2711610064578063f259cd27146104ea578063f851a4401461050a578063f887ea401461051f578063fc488a381461053457600080fd5b8063e4c34f841461048a578063e9333fab146104aa578063eedc966a146104ca57600080fd5b8063cd3293de116100c6578063cd3293de14610420578063d1baa1ef14610435578063db11851e1461044a578063def850ac1461046a57600080fd5b8063a7964d49146103c0578063ac54d25a146103e0578063ad97db1b1461040057600080fd5b80635486c95f116101595780637144df24116101335780637144df241461031f57806384b627f91461033f57806399fa5e2d146103545780639f2211cb146103a057600080fd5b80635486c95f146102b1578063663d2e0c146102d25780636c49c32c146102ff57600080fd5b80632fa9b190116101955780632fa9b190146102315780633d3d130d146102515780633d77fcde146102715780635293840d1461029157600080fd5b806301e33667146101c757806303eb17e2146101fc57806310aded601461021e57600080fd5b366101c257005b600080fd5b3480156101d357600080fd5b506101e76101e2366004614bfe565b610554565b60405190151581526020015b60405180910390f35b34801561020857600080fd5b5061021c610217366004614c8b565b6106be565b005b61021c61022c366004614ce3565b61070f565b34801561023d57600080fd5b506101e761024c366004614da2565b610815565b34801561025d57600080fd5b5061021c61026c366004614dbf565b610bc9565b34801561027d57600080fd5b5061021c61028c366004614e02565b610cd8565b34801561029d57600080fd5b5061021c6102ac366004614c8b565b610dba565b6102c46102bf366004614ce3565b610e3e565b6040519081526020016101f3565b3480156102de57600080fd5b506102f26102ed366004614e2d565b610f5b565b6040516101f39190614e4a565b34801561030b57600080fd5b506102c461031a366004614da2565b611304565b34801561032b57600080fd5b5061021c61033a366004614ebf565b6113c5565b34801561034b57600080fd5b506101e7611634565b34801561036057600080fd5b506103887f000000000000000000000000000000000000000000000000000000000000000081565b6040516001600160a01b0390911681526020016101f3565b3480156103ac57600080fd5b5061021c6103bb366004614e02565b611653565b3480156103cc57600080fd5b506102c46103db366004614eef565b611733565b3480156103ec57600080fd5b5061021c6103fb366004614f1b565b611905565b34801561040c57600080fd5b506102c461041b366004614f77565b6119e0565b34801561042c57600080fd5b50610388611c81565b34801561044157600080fd5b506102c4611c9a565b34801561045657600080fd5b5061021c610465366004614e02565b611d38565b34801561047657600080fd5b5061021c610485366004614fca565b611eb2565b34801561049657600080fd5b506102c46104a536600461506d565b6123b1565b3480156104b657600080fd5b5061021c6104c5366004614e02565b61265e565b3480156104d657600080fd5b506102c46104e5366004614e02565b6126f5565b3480156104f657600080fd5b5061021c610505366004614e02565b612820565b34801561051657600080fd5b506103886128f5565b34801561052b57600080fd5b506103886128ff565b34801561054057600080fd5b5061021c61054f3660046150be565b61295a565b600061055e6128f5565b6001600160a01b0316336001600160a01b0316146105975760405162461bcd60e51b815260040161058e906150d7565b60405180910390fd5b6001600160a01b0383166105f95760405162461bcd60e51b815260206004820152602360248201527f53696e676c65557365722f7769746864726177546f6b656e2f307852656365696044820152623b32b960e91b606482015260840161058e565b610601611634565b61061757610610848484612abf565b90506106b7565b61061f6128ff565b6001600160a01b03166321754d9e85610636611c81565b6040516001600160e01b031960e085901b1681526001600160a01b03928316600482015290821660248201529086166044820152606481018590526084016020604051808303816000875af1158015610693573d6000803e3d6000fd5b505050506040513d601f19601f82011682018060405250810190610610919061510e565b9392505050565b60005b8181101561070a576106f88383838181106106de576106de61512b565b90506020020160208101906106f39190614e02565b612bb5565b8061070281615157565b9150506106c1565b505050565b6107176128f5565b6001600160a01b0316336001600160a01b0316146107475760405162461bcd60e51b815260040161058e906150d7565b7f00000000000000000000000000000000000000000000000000000000000000006001600160a01b0316636a4f769134836000015184602001518560400151866060015162ffffff80168860800151116107a55787608001516107ad565b6107ad611c9a565b8860a001518960c001518a60e001516040518a63ffffffff1660e01b81526004016107df989796959493929190615170565b6000604051808303818588803b1580156107f857600080fd5b505af115801561080c573d6000803e3d6000fd5b50505050505b50565b6000306001600160a01b037f0000000000000000000000000000000000000000000000000000000000000000161461085f5760405162461bcd60e51b815260040161058e906151b4565b60408051600280825260608201835260008051602061554e8339815191529260009291906020830190803683370190505090507f0000000000000000000000000000000000000000000000000000000000000000816000815181106108c6576108c661512b565b60200260200101906001600160a01b031690816001600160a01b0316815250507f00000000000000000000000000000000000000000000000000000000000000008160018151811061091a5761091a61512b565b6001600160a01b03909216602092830291909101909101527f00000000000000000000000000000000000000000000000000000000000000006001600160a01b03166109696020860186614e02565b6001600160a01b031603610a745761098084612c49565b6109975761098d84612e5a565b600283015561099f565b600060028301555b60408085013560009081526005840160205290812054906109bf82612ed6565b90508015610a36576109eb6109dd6109d86001846151eb565b612f24565b60008860a001356000612f46565b60088401546109fb6001836151eb565b11610a2a576040517f5ac608c951fb4eeda3d62e6a244a32d697d994fdcdf2ff4ca1ff1b5dde368a0d90600090a15b50600195945050505050565b60405162461bcd60e51b81526020600482015260136024820152724d616e676f2f4269644f75744f6652616e676560681b604482015260640161058e565b610a7d84612c49565b610a9457610a8a84612e5a565b6003830155610a9c565b600060038301555b6040808501356000908152600484016020529081205490610abc82612ed6565b9050610ae960017f00000000000000000000000000000000000000000000000000000000000000006151eb565b811015610b8357610b0f610b016109d8836001615202565b60008860a001356000613165565b6008840154610b3e907f00000000000000000000000000000000000000000000000000000000000000006151eb565b610b49826001615202565b10610a2a576040517f3c8e6c8b637216f202e5b335b54c0abfc6c1b6952a8a2511de149d2f3e5e7e9290600090a150600195945050505050565b60405162461bcd60e51b81526020600482015260136024820152724d616e676f2f41736b4f75744f6652616e676560681b604482015260640161058e565b50505b919050565b7f00000000000000000000000000000000000000000000000000000000000000006001600160a01b0381161580610c085750336001600160a01b038216145b610c245760405162461bcd60e51b815260040161058e906150d7565b81602001356f6d67762f74726164655375636365737360801b03610c5157610c4b83612c49565b50505050565b60408301803590610c659060208601614e02565b6001600160a01b0316610c7b6020860186614e02565b604080516001600160a01b037f00000000000000000000000000000000000000000000000000000000000000008116825287356020830152929092169160008051602061556e833981519152910160405180910390a46001610c4b565b610ce06128f5565b6001600160a01b0316336001600160a01b03161480610d275750336001600160a01b037f000000000000000000000000000000000000000000000000000000000000000016145b610d435760405162461bcd60e51b815260040161058e906150d7565b6001600160a01b038116610d905760405162461bcd60e51b815260206004820152601460248201527353696e676c65557365722f30785265736572766560601b604482015260640161058e565b80610d99612a9b565b80546001600160a01b0319166001600160a01b039290921691909117905550565b610dc26128f5565b6001600160a01b0316336001600160a01b031614610df25760405162461bcd60e51b815260040161058e906150d7565b60005b8181101561070a57610e2c838383818110610e1257610e1261512b565b9050602002016020810190610e279190614e02565b613373565b80610e3681615157565b915050610df5565b6000610e486128f5565b6001600160a01b0316336001600160a01b031614610e785760405162461bcd60e51b815260040161058e906150d7565b7f00000000000000000000000000000000000000000000000000000000000000006001600160a01b03166349f6d2dc34846000015185602001518660400151876060015162ffffff801689608001511015610ed7578860800151610edf565b610edf611c9a565b8960a001518a60c001516040518963ffffffff1660e01b8152600401610f0b979695949392919061521a565b60206040518083038185885af1158015610f29573d6000803e3d6000fd5b50505050506040513d601f19601f82011682018060405250810190610f4e9190615258565b60e0929092018290525090565b610f63614bb7565b60008051602061554e8339815191527f000000000000000000000000000000000000000000000000000000000000000067ffffffffffffffff811115610fab57610fab614ccd565b604051908082528060200260200182016040528015610fd4578160200160208202803683370190505b5082527f000000000000000000000000000000000000000000000000000000000000000067ffffffffffffffff81111561101057611010614ccd565b604051908082528060200260200182016040528015611039578160200160208202803683370190505b50602083015260005b7f0000000000000000000000000000000000000000000000000000000000000000811015610bc15760008261107683612f24565b815481106110865761108661512b565b906000526020600020015490506000836001016110a284612f24565b815481106110b2576110b261512b565b6000918252602082200154915061119f6001600160a01b037f0000000000000000000000000000000000000000000000000000000000000000166368c13d6b7f00000000000000000000000000000000000000000000000000000000000000007f0000000000000000000000000000000000000000000000000000000000000000866040518463ffffffff1660e01b815260040161115293929190615271565b602060405180830381865afa15801561116f573d6000803e3d6000fd5b505050506040513d601f19601f820116820180604052508101906111939190615258565b6001600160601b031690565b11806111a9575085155b6111b45760006111dd565b836001016111c184612f24565b815481106111d1576111d161512b565b90600052602060002001545b85518051859081106111f1576111f161512b565b602090810291909101015260006112916001600160a01b037f0000000000000000000000000000000000000000000000000000000000000000166368c13d6b7f00000000000000000000000000000000000000000000000000000000000000007f0000000000000000000000000000000000000000000000000000000000000000876040518463ffffffff1660e01b815260040161115293929190615271565b118061129b575085155b6112a65760006112cc565b836112b084612f24565b815481106112c0576112c061512b565b90600052602060002001545b60208601518051859081106112e3576112e361512b565b602002602001018181525050505080806112fc90615157565b915050611042565b60007f00000000000000000000000000000000000000000000000000000000000000006001600160a01b03811615806113455750336001600160a01b038216145b6113615760405162461bcd60e51b815260040161058e906150d7565b60006113718460800135856133fa565b11156113bf5760405162461bcd60e51b815260206004820152601860248201527f6d67764f666665722f61626f72742f6765744661696c65640000000000000000604482015260640161058e565b50919050565b6113cd6128f5565b6001600160a01b0316336001600160a01b0316146113fd5760405162461bcd60e51b815260040161058e906150d7565b6000198203611497576040516370a0823160e01b81523060048201527f00000000000000000000000000000000000000000000000000000000000000006001600160a01b0316906370a0823190602401602060405180830381865afa15801561146a573d6000803e3d6000fd5b505050506040513d601f19601f8201168201806040525081019061148e9190615258565b91508115611630575b604051632e1a7d4d60e01b8152600481018390527f00000000000000000000000000000000000000000000000000000000000000006001600160a01b031690632e1a7d4d906024016020604051808303816000875af11580156114fe573d6000803e3d6000fd5b505050506040513d601f19601f82011682018060405250810190611522919061510e565b61157c5760405162461bcd60e51b815260206004820152602560248201527f6d67764f666665722f776974686472617746726f6d4d67762f776974686472616044820152641dd1985a5b60da1b606482015260840161058e565b6000816001600160a01b03168360405160006040518083038185875af1925050503d80600081146115c9576040519150601f19603f3d011682016040523d82523d6000602084013e6115ce565b606091505b505090508061070a5760405162461bcd60e51b815260206004820152602860248201527f6d67764f666665722f776974686472617746726f6d4d67762f70617961626c6560448201526710d85b1b11985a5b60c21b606482015260840161058e565b5050565b60008061163f612a77565b600101546001600160a01b03161415919050565b60405163095ea7b360e01b81526001600160a01b037f000000000000000000000000000000000000000000000000000000000000000081166004830152600019602483015282169063095ea7b3906044016020604051808303816000875af11580156116c3573d6000803e3d6000fd5b505050506040513d601f19601f820116820180604052508101906116e7919061510e565b6108125760405162461bcd60e51b815260206004820152601d60248201527f6d67764f666665722f617070726f76654d616e67726f76652f4661696c000000604482015260640161058e565b6000306001600160a01b037f0000000000000000000000000000000000000000000000000000000000000000161461177d5760405162461bcd60e51b815260040161058e906151b4565b60008051602061554e833981519152835b838110156118fc5785156118435760008260000182815481106117b3576117b361512b565b9060005260206000200154116117ca576000611836565b6118367f00000000000000000000000000000000000000000000000000000000000000007f00000000000000000000000000000000000000000000000000000000000000008460000184815481106118245761182461512b565b906000526020600020015460016119e0565b6118409084615202565b92505b8515806118505750600186115b156118ea57600082600101828154811061186c5761186c61512b565b9060005260206000200154116118835760006118dd565b6118dd7f00000000000000000000000000000000000000000000000000000000000000007f00000000000000000000000000000000000000000000000000000000000000008460010184815481106118245761182461512b565b6118e79084615202565b92505b806118f481615157565b91505061178e565b50509392505050565b306001600160a01b037f0000000000000000000000000000000000000000000000000000000000000000161461194d5760405162461bcd60e51b815260040161058e906151b4565b6000841261195b5783611964565b61196484615295565b81146119b25760405162461bcd60e51b815260206004820181905260248201527f4d616e676f2f7365745f73686966742f6e6f74456e6f756768416d6f756e7473604482015260640161058e565b60008412156119d4576119cf6119c785615295565b8484846134c6565b610c4b565b610c4b84848484613780565b60006119ea6128f5565b6001600160a01b0316336001600160a01b03161480611a315750336001600160a01b037f000000000000000000000000000000000000000000000000000000000000000016145b611a4d5760405162461bcd60e51b815260040161058e906150d7565b60405163ad97db1b60e01b81526001600160a01b03868116600483015285811660248301526044820185905283151560648301527f0000000000000000000000000000000000000000000000000000000000000000169063ad97db1b906084016020604051808303816000875af1158015611acc573d6000803e3d6000fd5b505050506040513d601f19601f82011682018060405250810190611af09190615258565b90508015611c7957604051632e1a7d4d60e01b8152600481018290527f00000000000000000000000000000000000000000000000000000000000000006001600160a01b031690632e1a7d4d906024016020604051808303816000875af1158015611b5f573d6000803e3d6000fd5b505050506040513d601f19601f82011682018060405250810190611b83919061510e565b611bdf5760405162461bcd60e51b815260206004820152602760248201527f53696e676c65557365722f776974686472617746726f6d4d67762f77697468646044820152661c985dd1985a5b60ca1b606482015260840161058e565b604051600090339083908381818185875af1925050503d8060008114611c21576040519150601f19603f3d011682016040523d82523d6000602084013e611c26565b606091505b5050905080611c775760405162461bcd60e51b815260206004820152601a60248201527f53696e676c65557365722f7765695472616e736665724661696c000000000000604482015260640161058e565b505b949350505050565b6000611c8b612a9b565b546001600160a01b0316919050565b6000611ca4611634565b15611d2a57611cb16128ff565b6001600160a01b0316630417ffda6040518163ffffffff1660e01b8152600401602060405180830381865afa158015611cee573d6000803e3d6000fd5b505050506040513d601f19601f82011682018060405250810190611d129190615258565b611d1a612a77565b54611d259190615202565b905090565b611d32612a77565b54919050565b611d406128f5565b6001600160a01b0316336001600160a01b03161480611d875750336001600160a01b037f000000000000000000000000000000000000000000000000000000000000000016145b611da35760405162461bcd60e51b815260040161058e906150d7565b6001600160a01b038116611df95760405162461bcd60e51b815260206004820152601c60248201527f6d67764f666665722f7365745f726f757465722f3078526f7574657200000000604482015260640161058e565b80611e02612a77565b60010180546001600160a01b0319166001600160a01b039283161790556040516381bac14f60e01b8152306004820152908216906381bac14f90602401600060405180830381600087803b158015611e5957600080fd5b505af1158015611e6d573d6000803e3d6000fd5b50506040516001600160a01b03841681527f6de4326a8b9054d72d9dbab97d27bc4edffadee7d966f5af9cc4eafdaf8e5455925060200190505b60405180910390a150565b306001600160a01b037f00000000000000000000000000000000000000000000000000000000000000001614611efa5760405162461bcd60e51b815260040161058e906151b4565b60008051602061554e8339815191526000611f136128ff565b6001600160a01b031603611f695760405162461bcd60e51b815260206004820152601960248201527f4d616e676f2f696e697469616c697a652f3078526f7574657200000000000000604482015260640161058e565b858511611fb85760405162461bcd60e51b815260206004820152601d60248201527f4d616e676f2f696e697469616c697a652f696e76616c6964536c696365000000604482015260640161058e565b7f000000000000000000000000000000000000000000000000000000000000000082148015611fe5575060015b801561201b57507f000000000000000000000000000000000000000000000000000000000000000061201785806152b1565b9050145b801561205457507f000000000000000000000000000000000000000000000000000000000000000061205060208601866152b1565b9050145b6120ac5760405162461bcd60e51b815260206004820152602360248201527f4d616e676f2f696e697469616c697a652f696e76616c696441727261794c656e6044820152620cee8d60eb1b606482015260840161058e565b6120d760017f00000000000000000000000000000000000000000000000000000000000000006151eb565b87106121255760405162461bcd60e51b815260206004820152601e60248201527f4d616e676f2f696e697469616c697a652f4e6f536c6f74466f7241736b730000604482015260640161058e565b855b858110156123a657600061213a82612f24565b905088821161227757600061214f87806152b1565b8481811061215f5761215f61512b565b905060200201359050600081116121b3576000831161217f5760006121b5565b836001016121936001856109d891906151eb565b815481106121a3576121a361512b565b90600052602060002001546121b5565b805b90506121db828c8888878181106121ce576121ce61512b565b9050602002013584612f46565b60008460000183815481106121f2576121f261512b565b906000526020600020015411156122715761226f7f00000000000000000000000000000000000000000000000000000000000000007f000000000000000000000000000000000000000000000000000000000000000086600001858154811061225d5761225d61512b565b906000526020600020015460006119e0565b505b50612393565b600061228660208801886152b1565b848181106122965761229661512b565b905060200201359050600081116122e557600083116122b65760006122e7565b836122c56109d86001866151eb565b815481106122d5576122d561512b565b90600052602060002001546122e7565b805b905061230d828c8888878181106123005761230061512b565b9050602002013584613165565b60008460010183815481106123245761232461512b565b906000526020600020015411156123915761238f7f00000000000000000000000000000000000000000000000000000000000000007f000000000000000000000000000000000000000000000000000000000000000086600101858154811061225d5761225d61512b565b505b505b508061239e81615157565b915050612127565b505050505050505050565b600080806001600160a01b037f00000000000000000000000000000000000000000000000000000000000000001663cbf75c9a89896040516001600160e01b031960e085901b1681526001600160a01b039283166004820152911660248201526044016040805180830381865afa158015612430573d6000803e3d6000fd5b505050506040513d601f19601f8201168201806040525081019061245491906152fb565b9150915060007f00000000000000000000000000000000000000000000000000000000000000006001600160a01b0316635722647b6124908b90565b8a886040518463ffffffff1660e01b81526004016124b093929190615271565b602060405180830381865afa1580156124cd573d6000803e3d6000fd5b505050506040513d601f19601f820116820180604052508101906124f19190615258565b9050600086604085901c61ffff161115612514575061ffff604084901c16612517565b50855b62ffffff881061252c57612529611c9a565b97505b60008161254262ffffff606087901c168b615202565b61254c919061531f565b61255a90633b9aca0061531f565b9050600061ffff602085901c1661258162ffffff603087901c811690604888901c16615202565b61258b919061531f565b61259990633b9aca0061531f565b6040516370a0823160e01b81523060048201529091506000906001600160a01b037f000000000000000000000000000000000000000000000000000000000000000016906370a0823190602401602060405180830381865afa158015612603573d6000803e3d6000fd5b505050506040513d601f19601f820116820180604052508101906126279190615258565b6126319083615202565b90508281101561264a5761264581846151eb565b61264d565b60005b9d9c50505050505050505050505050565b6126666128f5565b6001600160a01b0316336001600160a01b0316146126965760405162461bcd60e51b815260040161058e906150d7565b6001600160a01b0381166126ec5760405162461bcd60e51b815260206004820152601860248201527f416363657373436f6e74726f6c6c65642f307841646d696e0000000000000000604482015260640161058e565b80610d99612a53565b600080612700612a77565b600101546001600160a01b0316905080156127a157806001600160a01b03166305684fde8461272d611c81565b6040516001600160e01b031960e085901b1681526001600160a01b03928316600482015291166024820152604401602060405180830381865afa158015612778573d6000803e3d6000fd5b505050506040513d601f19601f8201168201806040525081019061279c9190615258565b6106b7565b826001600160a01b03166370a082316127b8611c81565b6040516001600160e01b031960e084901b1681526001600160a01b039091166004820152602401602060405180830381865afa1580156127fc573d6000803e3d6000fd5b505050506040513d601f19601f820116820180604052508101906106b79190615258565b806001600160a01b031663095ea7b36128376128ff565b6040516001600160e01b031960e084901b1681526001600160a01b03909116600482015260001960248201526044016020604051808303816000875af1158015612885573d6000803e3d6000fd5b505050506040513d601f19601f820116820180604052508101906128a9919061510e565b6108125760405162461bcd60e51b815260206004820152601b60248201527f6d67764f666665722f617070726f7665526f757465722f4661696c0000000000604482015260640161058e565b6000611c8b612a53565b60008061290a612a77565b600101546001600160a01b0316905080610bc45760405162461bcd60e51b815260206004820152601160248201527036b3bb27b33332b917983c2937baba32b960791b604482015260640161058e565b6129626128f5565b6001600160a01b0316336001600160a01b031614806129a95750336001600160a01b037f000000000000000000000000000000000000000000000000000000000000000016145b6129c55760405162461bcd60e51b815260040161058e906150d7565b808162ffffff1614612a195760405162461bcd60e51b815260206004820152601860248201527f6d67764f666665722f6761737265712f6f766572666c6f770000000000000000604482015260640161058e565b80612a22612a77565b556040518181527fafef3ad374c0b972e3c793be825735801fa05cc4c67157d98d9a111b4027988d90602001611ea7565b7f7d382ebca3e46505071795e192d28166a3d4bd0685585591bc6c5b8df6769fd290565b7fae7e31c3220e851db9f204a28b279dfe52b973600b0a456991089c220ae7222490565b7f7bccd2960a07f28b1420615e9ead32d6e77e21d42f4a6c1a1fe785dae226653290565b6000811580612ad657506001600160a01b03831630145b15612ae3575060016106b7565b604080516001600160a01b038581166024830152604480830186905283518084039091018152606490920183526020820180516001600160e01b031663a9059cbb60e01b1790529151600092839290881691612b3f919061533e565b6000604051808303816000865af19150503d8060008114612b7c576040519150601f19603f3d011682016040523d82523d6000602084013e612b81565b606091505b5091509150818015612bab575080511580612bab575080806020019051810190612bab919061510e565b9695505050505050565b612bbd611634565b15612c4057612bca6128ff565b6001600160a01b031663a01dccd882612be1611c81565b6040516001600160e01b031960e085901b1681526001600160a01b0392831660048201529116602482015260440160006040518083038186803b158015612c2757600080fd5b505afa158015612c3b573d6000803e3d6000fd5b505050505b610812816139a6565b6000612c5482613a96565b506000612c6083612e5a565b905080600003612c735750600192915050565b6000612c7e84613b47565b90506001600160a01b037f000000000000000000000000000000000000000000000000000000000000000016636a4f7691612cbc6020870187614e02565b612ccc6040880160208901614e02565b848660c08a013560481c62ffffff1660c08b013560201c61ffff1660608c013560c01c63ffffffff168c604001356040518963ffffffff1660e01b8152600401612d1d989796959493929190615170565b600060405180830381600087803b158015612d3757600080fd5b505af1925050508015612d48575060015b612e50573d808015612d76576040519150601f19603f3d011682016040523d82523d6000602084013e612d7b565b606091505b508051602082012060008051602061552e83398151915201612e455760408501803590612dab9060208801614e02565b6001600160a01b0316612dc16020880188614e02565b6001600160a01b031660008051602061556e8339815191527f0000000000000000000000000000000000000000000000000000000000000000604051612e3c91906001600160a01b039190911681527f50657273697374656e742f686f6f6b2f6f75744f6650726f766973696f6e0000602082015260400190565b60405180910390a45b506000949350505050565b5060019392505050565b600060008051602061554e8339815191526001600160a01b037f000000000000000000000000000000000000000000000000000000000000000016612ea26020850185614e02565b6001600160a01b031603612ec8578060020154612ebe84613c34565b6106b79190615202565b8060030154612ebe84613c34565b6000612f1e60008051602061554e83398151915260060154612ef89084615379565b7f0000000000000000000000000000000000000000000000000000000000000000613c51565b92915050565b6000612f1e60008051602061554e83398151915260060154612ef890846153b8565b600060008051602061554e833981519152905060006001600160a01b037f0000000000000000000000000000000000000000000000000000000000000000166368c13d6b7f00000000000000000000000000000000000000000000000000000000000000007f0000000000000000000000000000000000000000000000000000000000000000856001018a81548110612fe157612fe161512b565b90600052602060002001546040518463ffffffff1660e01b815260040161300a93929190615271565b602060405180830381865afa158015613027573d6000803e3d6000fd5b505050506040513d601f19601f8201168201806040525081019061304b9190615258565b9050600061305887612ed6565b90506000866130885760038401546130796001600160601b03851688615202565b6130839190615202565b61308a565b855b905060006130988383613c7f565b905060006001600160601b0385166000036131075786156130ba57508561312a565b83156130f657856001016130d46001866109d891906151eb565b815481106130e4576130e461512b565b9060005260206000200154905061312a565b6131008560e01c90565b905061312a565b856001018a8154811061311c5761311c61512b565b906000526020600020015490505b6131598a7f000000000000000000000000000000000000000000000000000000000000000084868d1586613cc7565b50505050505050505050565b600060008051602061554e833981519152905060006001600160a01b037f0000000000000000000000000000000000000000000000000000000000000000166368c13d6b7f00000000000000000000000000000000000000000000000000000000000000007f0000000000000000000000000000000000000000000000000000000000000000856000018a815481106132005761320061512b565b90600052602060002001546040518463ffffffff1660e01b815260040161322993929190615271565b602060405180830381865afa158015613246573d6000803e3d6000fd5b505050506040513d601f19601f8201168201806040525081019061326a9190615258565b9050600061327787612ed6565b90506000866132a75760028401546132986001600160601b03851688615202565b6132a29190615202565b6132a9565b855b905060006132b78383613dad565b905060006001600160601b0385166000036133215786156132d9575085613344565b831561331057856132ee6109d86001876151eb565b815481106132fe576132fe61512b565b90600052602060002001549050613344565b61331a8560e01c90565b9050613344565b856000018a815481106133365761333661512b565b906000526020600020015490505b6131598a7f000000000000000000000000000000000000000000000000000000000000000084868d1586613cc7565b61337c81611653565b613384611634565b156108125761339281612820565b61339a6128ff565b604051630716a76760e21b81526001600160a01b0383811660048301529190911690631c5a9d9c90602401600060405180830381600087803b1580156133df57600080fd5b505af11580156133f3573d6000803e3d6000fd5b5050505050565b60008061341561340d6020850185614e02565b856000613ded565b9050838110613428576000915050612f1e565b60006134376020850185614e02565b6040516370a0823160e01b81523060048201526001600160a01b0391909116906370a0823190602401602060405180830381865afa15801561347d573d6000803e3d6000fd5b505050506040513d601f19601f820116820180604052508101906134a19190615258565b9050848110156134ba576134b581866151eb565b6134bd565b60005b92505050612f1e565b60008051602061554e8339815191527f0000000000000000000000000000000000000000000000000000000000000000851061354e5760405162461bcd60e51b815260206004820152602160248201527f4d616e676f2f73686966742f4e656761746976655368696674546f6f4c6172676044820152606560f81b606482015260840161058e565b600061357e6109d860017f00000000000000000000000000000000000000000000000000000000000000006151eb565b9050858260060160008282546135949190615379565b90915550600090505b86811015613777578260000182815481106135ba576135ba61512b565b9060005260206000200154600014613628576136267f00000000000000000000000000000000000000000000000000000000000000007f000000000000000000000000000000000000000000000000000000000000000085600001858154811061225d5761225d61512b565b505b600061363383612ed6565b90506000808815613682578787858181106136505761365061512b565b90506020020135905061367b8389898781811061366f5761366f61512b565b90506020020135613dad565b91506136c2565b6136a4838989878181106136985761369861512b565b90506020020135613c7f565b90508787858181106136b8576136b861512b565b9050602002013591505b613757857f00000000000000000000000000000000000000000000000000000000000000008385600061371660017f00000000000000000000000000000000000000000000000000000000000000006151eb565b8910613723576000613cc7565b8b6001016137378a60016109d89190615202565b815481106137475761374761512b565b9060005260206000200154613cc7565b8361376181615157565b94505061376d85613eb6565b945050505061359d565b50505050505050565b60008051602061554e8339815191527f000000000000000000000000000000000000000000000000000000000000000085106138085760405162461bcd60e51b815260206004820152602160248201527f4d616e676f2f73686966742f706f7369746976655368696674546f6f4c6172676044820152606560f81b606482015260840161058e565b60006138146000612f24565b90508582600601600082825461382a91906153b8565b90915550600090505b86811015613777578260010182815481106138505761385061512b565b90600052602060002001546000146138be576138bc7f00000000000000000000000000000000000000000000000000000000000000007f000000000000000000000000000000000000000000000000000000000000000085600101858154811061225d5761225d61512b565b505b60006138c983612ed6565b9050600080881561390c578787858181106138e6576138e661512b565b9050602002013591506139058389898781811061366f5761366f61512b565b9050613940565b87878581811061391e5761391e61512b565b90506020020135905061393d838989878181106136985761369861512b565b91505b613986857f000000000000000000000000000000000000000000000000000000000000000083856000808911613977576000613cc7565b8b6137376109d860018c6151eb565b8361399081615157565b94505061399c85613efa565b9450505050613833565b604051636eb1769f60e11b81523060048201526001600160a01b037f0000000000000000000000000000000000000000000000000000000000000000811660248301526000919083169063dd62ed3e90604401602060405180830381865afa158015613a16573d6000803e3d6000fd5b505050506040513d601f19601f82011682018060405250810190613a3a9190615258565b116108125760405162461bcd60e51b815260206004820152602660248201527f4d616e67726f76654f666665722f41646d696e4d757374417070726f76654d616044820152656e67726f766560d01b606482015260840161058e565b60408051600280825260608201835260009283929190602083019080368337019050509050613ac86020840184614e02565b81600081518110613adb57613adb61512b565b6001600160a01b03909216602092830291909101820152613b029060408501908501614e02565b81600181518110613b1557613b1561512b565b60200260200101906001600160a01b031690816001600160a01b031681525050613b3e81613f32565b50600192915050565b600060008051602061554e8339815191527f00000000000000000000000000000000000000000000000000000000000000006001600160a01b0316613b8f6020850185614e02565b6001600160a01b031603613bed576040808401356000908152600583016020529081205490613bbd85612e5a565b905080600003613bd257506000949350505050565b613be4613bde83612ed6565b82613dad565b95945050505050565b6040808401356000908152600483016020529081205490613c0d85612e5a565b905080600003613c2257506000949350505050565b613be4613c2e83612ed6565b82613c7f565b6000612f1e608083013560608401356001600160601b03166151eb565b6000808312613c6b57613c64828461540f565b9050612f1e565b613c758284615423565b613c6490836153b8565b6000613c8a83613fa3565b613cbd6001600160601b037f0000000000000000000000000000000000000000000000000000000000000000168461531f565b6106b79190615437565b60008051602061554e8339815191526001600160a01b037f0000000000000000000000000000000000000000000000000000000000000000811690871603613d59576000613d1788878786613fc9565b90508015613d455783613d3957808260020154613d349190615202565b613d3b565b805b6002830155613d53565b8315613d5357600060028301555b50613777565b6000613d678887878661457a565b90508015613d955783613d8957808260030154613d849190615202565b613d8b565b805b6003830155613da3565b8315613da357600060038301555b5050505050505050565b60007f00000000000000000000000000000000000000000000000000000000000000006001600160601b031682613de385613fa3565b613cbd919061531f565b600080613df8612a77565b600101546001600160a01b0316905080613e165760009150506106b7565b806001600160a01b031663333dbb0d86613e2e611c81565b6040516001600160e01b031960e085901b1681526001600160a01b039283166004820152911660248201526044810187905285151560648201526084016020604051808303816000875af1158015613e8a573d6000803e3d6000fd5b505050506040513d601f19601f82011682018060405250810190613eae9190615258565b9150506106b7565b6000808211613eef57613eea60017f00000000000000000000000000000000000000000000000000000000000000006151eb565b612f1e565b612f1e6001836151eb565b60007f0000000000000000000000000000000000000000000000000000000000000000613f28836001615202565b612f1e919061540f565b6000613f3c612a77565b600101546001600160a01b0316905080613f54575050565b806001600160a01b031663f850a81c83613f6c611c81565b6040518363ffffffff1660e01b8152600401613f8992919061544b565b600060405180830381600087803b1580156107f857600080fd5b6000612f1e60008051602061554e8339815191526007015483613fc4614ab9565b614ba0565b60008051602061554e833981519152805460009190819087908110613ff057613ff061512b565b906000526020600020015460000361426f576001600160a01b037f0000000000000000000000000000000000000000000000000000000000000000166349f6d2dc7f00000000000000000000000000000000000000000000000000000000000000007f0000000000000000000000000000000000000000000000000000000000000000888861407d611c9a565b60008a6040518863ffffffff1660e01b81526004016140a2979695949392919061521a565b6020604051808303816000875af19250505080156140dd575060408051601f3d908101601f191682019092526140da91810190615258565b60015b614207573d80801561410b576040519150601f19603f3d011682016040523d82523d6000602084013e614110565b606091505b508051602082012060008051602061552e833981519152016141fd5760007f00000000000000000000000000000000000000000000000000000000000000006001600160a01b03167f00000000000000000000000000000000000000000000000000000000000000006001600160a01b031660008051602061556e8339815191527f00000000000000000000000000000000000000000000000000000000000000006040516141f491906001600160a01b039190911681527f4d616e676f2f6e657741736b2f6f75744f6650726f766973696f6e0000000000602082015260400190565b60405180910390a45b8492505050611c79565b8082600001888154811061421d5761421d61512b565b906000526020600020018190555086826005016000846000018a815481106142475761424761512b565b9060005260206000200154815260200190815260200160002081905550600092505050611c79565b6001600160a01b037f000000000000000000000000000000000000000000000000000000000000000016636a4f76917f00000000000000000000000000000000000000000000000000000000000000007f000000000000000000000000000000000000000000000000000000000000000088886142ea611c9a565b60008a896000018f815481106143025761430261512b565b90600052602060002001546040518963ffffffff1660e01b8152600401614330989796959493929190615170565b600060405180830381600087803b15801561434a57600080fd5b505af192505050801561435b575060015b614570573d808015614389576040519150601f19603f3d011682016040523d82523d6000602084013e61438e565b606091505b508051602082012060008051602061552e83398151915201614499578160000187815481106143bf576143bf61512b565b90600052602060002001547f00000000000000000000000000000000000000000000000000000000000000006001600160a01b03167f00000000000000000000000000000000000000000000000000000000000000006001600160a01b031660008051602061556e8339815191527f000000000000000000000000000000000000000000000000000000000000000060405161449091906001600160a01b039190911681527f4d616e676f2f75706461746541736b2f6f75744f6650726f766973696f6e0000602082015260400190565b60405180910390a45b600061454d6001600160a01b037f0000000000000000000000000000000000000000000000000000000000000000166368c13d6b7f00000000000000000000000000000000000000000000000000000000000000007f0000000000000000000000000000000000000000000000000000000000000000876000018d815481106145245761452461512b565b90600052602060002001546040518463ffffffff1660e01b815260040161115293929190615271565b905080861161455c5785614566565b61456681876151eb565b9350505050611c79565b6000915050611c79565b7f416b48c48a967c2245e6ba6bc6efa281932950b502fea671117e4dfd7d3dfb82805460009160008051602061554e83398151915291879081106145c0576145c061512b565b9060005260206000200154600003614804576001600160a01b037f0000000000000000000000000000000000000000000000000000000000000000166349f6d2dc7f00000000000000000000000000000000000000000000000000000000000000007f0000000000000000000000000000000000000000000000000000000000000000888861464d611c9a565b60008a6040518863ffffffff1660e01b8152600401614672979695949392919061521a565b6020604051808303816000875af19250505080156146ad575060408051601f3d908101601f191682019092526146aa91810190615258565b60015b6147c4573d8080156146db576040519150601f19603f3d011682016040523d82523d6000602084013e6146e0565b606091505b508051602082012060008051602061552e833981519152016141fd5760007f00000000000000000000000000000000000000000000000000000000000000006001600160a01b03167f00000000000000000000000000000000000000000000000000000000000000006001600160a01b031660008051602061556e8339815191527f00000000000000000000000000000000000000000000000000000000000000006040516141f491906001600160a01b039190911681527f4d616e676f2f6e65774269642f6f75744f6650726f766973696f6e0000000000602082015260400190565b808260010188815481106147da576147da61512b565b906000526020600020018190555086826004016000846001018a815481106142475761424761512b565b6001600160a01b037f000000000000000000000000000000000000000000000000000000000000000016636a4f76917f00000000000000000000000000000000000000000000000000000000000000007f0000000000000000000000000000000000000000000000000000000000000000888861487f611c9a565b60008a896001018f815481106148975761489761512b565b90600052602060002001546040518963ffffffff1660e01b81526004016148c5989796959493929190615170565b600060405180830381600087803b1580156148df57600080fd5b505af19250505080156148f0575060015b614570573d80801561491e576040519150601f19603f3d011682016040523d82523d6000602084013e614923565b606091505b508051602082012060008051602061552e83398151915201614a2e578160010187815481106149545761495461512b565b90600052602060002001547f00000000000000000000000000000000000000000000000000000000000000006001600160a01b03167f00000000000000000000000000000000000000000000000000000000000000006001600160a01b031660008051602061556e8339815191527f0000000000000000000000000000000000000000000000000000000000000000604051614a2591906001600160a01b039190911681527f4d616e676f2f77726974654269642f7570646174654f666665724661696c0000602082015260400190565b60405180910390a45b600061454d6001600160a01b037f0000000000000000000000000000000000000000000000000000000000000000166368c13d6b7f00000000000000000000000000000000000000000000000000000000000000007f0000000000000000000000000000000000000000000000000000000000000000876001018d815481106145245761452461512b565b7f416b48c48a967c2245e6ba6bc6efa281932950b502fea671117e4dfd7d3dfb88547f416b48c48a967c2245e6ba6bc6efa281932950b502fea671117e4dfd7d3dfb875460009160008051602061554e833981519152918391614b1b916154a8565b614b4e906001600160601b037f0000000000000000000000000000000000000000000000000000000000000000166153b8565b905060008113612f1e5760405162461bcd60e51b815260206004820152601e60248201527f4d616e676f2f71756f74655f6d696e2f5368696674556e646572666c6f770000604482015260640161058e565b600081614bad848661531f565b611c799190615202565b60405180604001604052806002905b6060815260200190600190039081614bc65790505090565b6001600160a01b038116811461081257600080fd5b8035610bc481614bde565b600080600060608486031215614c1357600080fd5b8335614c1e81614bde565b92506020840135614c2e81614bde565b929592945050506040919091013590565b60008083601f840112614c5157600080fd5b50813567ffffffffffffffff811115614c6957600080fd5b6020830191508360208260051b8501011115614c8457600080fd5b9250929050565b60008060208385031215614c9e57600080fd5b823567ffffffffffffffff811115614cb557600080fd5b614cc185828601614c3f565b90969095509350505050565b634e487b7160e01b600052604160045260246000fd5b6000610100808385031215614cf757600080fd5b6040519081019067ffffffffffffffff82118183101715614d2857634e487b7160e01b600052604160045260246000fd5b81604052614d3584614bf3565b8152614d4360208501614bf3565b602082015260408401356040820152606084013560608201526080840135608082015260a084013560a082015260c084013560c082015260e084013560e0820152809250505092915050565b600061012082840312156113bf57600080fd5b60006101208284031215614db557600080fd5b6106b78383614d8f565b600080828403610160811215614dd457600080fd5b614dde8585614d8f565b9250604061011f1982011215614df357600080fd5b50610120830190509250929050565b600060208284031215614e1457600080fd5b81356106b781614bde565b801515811461081257600080fd5b600060208284031215614e3f57600080fd5b81356106b781614e1f565b6020808252600090606083018382018584805b6002811015614eb257878503601f19018452825180518087529087019087870190845b81811015614e9c57835183529289019291890191600101614e80565b5090965050509285019291850191600101614e5d565b5092979650505050505050565b60008060408385031215614ed257600080fd5b823591506020830135614ee481614bde565b809150509250929050565b600080600060608486031215614f0457600080fd5b505081359360208301359350604090920135919050565b60008060008060608587031215614f3157600080fd5b843593506020850135614f4381614e1f565b9250604085013567ffffffffffffffff811115614f5f57600080fd5b614f6b87828801614c3f565b95989497509550505050565b60008060008060808587031215614f8d57600080fd5b8435614f9881614bde565b93506020850135614fa881614bde565b9250604085013591506060850135614fbf81614e1f565b939692955090935050565b600080600080600080600060c0888a031215614fe557600080fd5b8735614ff081614e1f565b9650602088013595506040880135945060608801359350608088013567ffffffffffffffff8082111561502257600080fd5b818a0191508a60408301111561503757600080fd5b90935060a0890135908082111561504d57600080fd5b5061505a8a828b01614c3f565b989b979a50959850939692959293505050565b600080600080600060a0868803121561508557600080fd5b853561509081614bde565b945060208601356150a081614bde565b94979496505050506040830135926060810135926080909101359150565b6000602082840312156150d057600080fd5b5035919050565b60208082526018908201527f416363657373436f6e74726f6c6c65642f496e76616c69640000000000000000604082015260600190565b60006020828403121561512057600080fd5b81516106b781614e1f565b634e487b7160e01b600052603260045260246000fd5b634e487b7160e01b600052601160045260246000fd5b60006001820161516957615169615141565b5060010190565b6001600160a01b03988916815296909716602087015260408601949094526060850192909252608084015260a083015260c082015260e08101919091526101000190565b6020808252601f908201527f4d616e676f496d706c656d656e746174696f6e2f696e76616c696443616c6c00604082015260600190565b6000828210156151fd576151fd615141565b500390565b6000821982111561521557615215615141565b500190565b6001600160a01b03978816815295909616602086015260408501939093526060840191909152608083015260a082015260c081019190915260e00190565b60006020828403121561526a57600080fd5b5051919050565b6001600160a01b039384168152919092166020820152604081019190915260600190565b6000600160ff1b82016152aa576152aa615141565b5060000390565b6000808335601e198436030181126152c857600080fd5b83018035915067ffffffffffffffff8211156152e357600080fd5b6020019150600581901b3603821315614c8457600080fd5b6000806040838503121561530e57600080fd5b505080516020909101519092909150565b600081600019048311821515161561533957615339615141565b500290565b6000825160005b8181101561535f5760208186018101518583015201615345565b8181111561536e576000828501525b509190910192915050565b60008083128015600160ff1b85018412161561539757615397615141565b6001600160ff1b03840183138116156153b2576153b2615141565b50500390565b600080821280156001600160ff1b03849003851316156153da576153da615141565b600160ff1b83900384128116156153f3576153f3615141565b50500190565b634e487b7160e01b600052601260045260246000fd5b60008261541e5761541e6153f9565b500690565b600082615432576154326153f9565b500790565b600082615446576154466153f9565b500490565b604080825283519082018190526000906020906060840190828701845b8281101561548d5781516001600160a01b031684529284019290840190600101615468565b5050506001600160a01b039490941692019190915250919050565b60006001600160ff1b03818413828413808216868404861116156154ce576154ce615141565b600160ff1b60008712828116878305891216156154ed576154ed615141565b6000871292508782058712848416161561550957615509615141565b8785058712818416161561551f5761551f615141565b50505092909302939250505056fec5fc8c2459087ad4f0e957e465df485864a3b1a379c2653ffe7c554981ede670416b48c48a967c2245e6ba6bc6efa281932950b502fea671117e4dfd7d3dfb81736a3993b9f8b1c5603896c76376792887f376b1fe7fc981e09a16530bf1e4e0a2646970667358221220254cab49633cc02c279f8f692c2796c6e4c393aa489dc6f009ebfcb8e99eb3b564736f6c634300080e0033416363657373436f6e74726f6c6c65642f496e76616c69640000000000000000",
    "linkReferences": {}
  },
  "methodIdentifiers": {
    "BASE()": "ec342ad0",
    "MGV()": "99fa5e2d",
    "NSLOTS()": "d4a1da08",
    "QUOTE()": "9c579839",
    "_staticdelegatecall(bytes)": "5a3e9618",
    "activate(address[])": "5293840d",
    "admin()": "f851a440",
    "approveMangrove(address)": "9f2211cb",
    "approveRouter(address)": "f259cd27",
    "checkList(address[])": "03eb17e2",
    "delta()": "12b495a8",
    "getMissingProvision(address,address,uint256,uint256,uint256)": "e4c34f84",
    "get_offers(bool)": "1efa880b",
    "has_router()": "84b627f9",
    "initialize(bool,uint256,uint256,uint256,uint256[][2],uint256[])": "553e9f32",
    "is_paused()": "9d4f8aa9",
    "makerExecute((address,address,uint256,uint256,uint256,uint256,uint256,uint256,uint256))": "6c49c32c",
    "makerPosthook((address,address,uint256,uint256,uint256,uint256,uint256,uint256,uint256),(bytes32,bytes32))": "3d3d130d",
    "newOffer((address,address,uint256,uint256,uint256,uint256,uint256,uint256))": "5486c95f",
    "ofr_gasreq()": "d1baa1ef",
    "pause()": "8456cb59",
    "pending()": "e20ccec3",
    "reserve()": "cd3293de",
    "reset_pending()": "d5c39721",
    "restart()": "1ef3755d",
    "retractOffer(address,address,uint256,bool)": "ad97db1b",
    "retractOffers(uint256,uint256,uint256)": "ccbbcfc2",
    "router()": "f887ea40",
    "set_admin(address)": "e9333fab",
    "set_delta(uint256)": "c5dbec38",
    "set_gasreq(uint256)": "fc488a38",
    "set_min_offer_type(uint256)": "9d4ddea2",
    "set_reserve(address)": "3d77fcde",
    "set_router(address)": "db11851e",
    "set_shift(int256,bool,uint256[])": "81550267",
    "shift()": "12fc41ca",
    "tokenBalance(address)": "eedc966a",
    "updateOffer((address,address,uint256,uint256,uint256,uint256,uint256,uint256))": "10aded60",
    "withdrawFromMangrove(uint256,address)": "7144df24",
    "withdrawToken(address,address,uint256)": "01e33667"
  },
  "id": 55
}