{
  "abi": [
    {
      "inputs": [
        {
          "internalType": "contract IMangrove",
          "name": "_MGV",
          "type": "address"
        },
        {
          "internalType": "address",
          "name": "deployer",
          "type": "address"
        }
      ],
      "stateMutability": "nonpayable",
      "type": "constructor"
    },
    {
      "anonymous": false,
      "inputs": [
        {
          "indexed": true,
          "internalType": "contract IMangrove",
          "name": "mangrove",
          "type": "address"
        },
        {
          "indexed": true,
          "internalType": "address",
          "name": "user",
          "type": "address"
        },
        {
          "indexed": false,
          "internalType": "uint256",
          "name": "amount",
          "type": "uint256"
        }
      ],
      "name": "CreditMgvUser",
      "type": "event"
    },
    {
      "anonymous": false,
      "inputs": [
        {
          "indexed": true,
          "internalType": "contract IMangrove",
          "name": "mangrove",
          "type": "address"
        },
        {
          "indexed": true,
          "internalType": "address",
          "name": "user",
          "type": "address"
        },
        {
          "indexed": false,
          "internalType": "uint256",
          "name": "amount",
          "type": "uint256"
        }
      ],
      "name": "DebitMgvUser",
      "type": "event"
    },
    {
      "anonymous": false,
      "inputs": [
        {
          "indexed": false,
          "internalType": "contract IMangrove",
          "name": "mangrove",
          "type": "address"
        },
        {
          "indexed": true,
          "internalType": "contract IERC20",
          "name": "outbound_tkn",
          "type": "address"
        },
        {
          "indexed": true,
          "internalType": "contract IERC20",
          "name": "inbound_tkn",
          "type": "address"
        },
        {
          "indexed": true,
          "internalType": "uint256",
          "name": "offerId",
          "type": "uint256"
        },
        {
          "indexed": false,
          "internalType": "bytes32",
          "name": "reason",
          "type": "bytes32"
        }
      ],
      "name": "LogIncident",
      "type": "event"
    },
    {
      "anonymous": false,
      "inputs": [
        {
          "indexed": false,
          "internalType": "contract IMangrove",
          "name": "mangrove",
          "type": "address"
        },
        {
          "indexed": true,
          "internalType": "contract IERC20",
          "name": "outbound_tkn",
          "type": "address"
        },
        {
          "indexed": true,
          "internalType": "contract IERC20",
          "name": "inbound_tkn",
          "type": "address"
        },
        {
          "indexed": true,
          "internalType": "uint256",
          "name": "offerId",
          "type": "uint256"
        },
        {
          "indexed": false,
          "internalType": "address",
          "name": "owner",
          "type": "address"
        }
      ],
      "name": "NewOwnedOffer",
      "type": "event"
    },
    {
      "anonymous": false,
      "inputs": [
        {
          "indexed": false,
          "internalType": "contract IMangrove",
          "name": "mangrove",
          "type": "address"
        },
        {
          "indexed": true,
          "internalType": "contract IERC20",
          "name": "base",
          "type": "address"
        },
        {
          "indexed": true,
          "internalType": "contract IERC20",
          "name": "quote",
          "type": "address"
        },
        {
          "indexed": true,
          "internalType": "address",
          "name": "taker",
          "type": "address"
        },
        {
          "indexed": false,
          "internalType": "bool",
          "name": "selling",
          "type": "bool"
        },
        {
          "indexed": false,
          "internalType": "uint256",
          "name": "takerGot",
          "type": "uint256"
        },
        {
          "indexed": false,
          "internalType": "uint256",
          "name": "takerGave",
          "type": "uint256"
        },
        {
          "indexed": false,
          "internalType": "uint256",
          "name": "penalty",
          "type": "uint256"
        },
        {
          "indexed": false,
          "internalType": "uint256",
          "name": "restingOrderId",
          "type": "uint256"
        }
      ],
      "name": "OrderSummary",
      "type": "event"
    },
    {
      "anonymous": false,
      "inputs": [
        {
          "indexed": false,
          "internalType": "uint256",
          "name": "",
          "type": "uint256"
        }
      ],
      "name": "SetGasreq",
      "type": "event"
    },
    {
      "anonymous": false,
      "inputs": [
        {
          "indexed": false,
          "internalType": "contract AbstractRouter",
          "name": "",
          "type": "address"
        }
      ],
      "name": "SetRouter",
      "type": "event"
    },
    {
      "inputs": [],
      "name": "MGV",
      "outputs": [
        {
          "internalType": "contract IMangrove",
          "name": "",
          "type": "address"
        }
      ],
      "stateMutability": "view",
      "type": "function"
    },
    {
      "inputs": [
        {
          "internalType": "contract IERC20[]",
          "name": "tokens",
          "type": "address[]"
        }
      ],
      "name": "activate",
      "outputs": [],
      "stateMutability": "nonpayable",
      "type": "function"
    },
    {
      "inputs": [],
      "name": "admin",
      "outputs": [
        {
          "internalType": "address",
          "name": "",
          "type": "address"
        }
      ],
      "stateMutability": "view",
      "type": "function"
    },
    {
      "inputs": [
        {
          "internalType": "contract IERC20",
          "name": "outbound_tkn",
          "type": "address"
        }
      ],
      "name": "approveMangrove",
      "outputs": [],
      "stateMutability": "nonpayable",
      "type": "function"
    },
    {
      "inputs": [
        {
          "internalType": "contract IERC20",
          "name": "token",
          "type": "address"
        }
      ],
      "name": "approveRouter",
      "outputs": [],
      "stateMutability": "nonpayable",
      "type": "function"
    },
    {
      "inputs": [
        {
          "internalType": "contract IERC20[]",
          "name": "tokens",
          "type": "address[]"
        }
      ],
      "name": "checkList",
      "outputs": [],
      "stateMutability": "view",
      "type": "function"
    },
    {
      "inputs": [
        {
          "internalType": "contract IERC20",
          "name": "",
          "type": "address"
        },
        {
          "internalType": "contract IERC20",
          "name": "",
          "type": "address"
        },
        {
          "internalType": "uint256",
          "name": "",
          "type": "uint256"
        }
      ],
      "name": "expiring",
      "outputs": [
        {
          "internalType": "uint256",
          "name": "",
          "type": "uint256"
        }
      ],
      "stateMutability": "view",
      "type": "function"
    },
    {
      "inputs": [
        {
          "internalType": "contract IERC20",
          "name": "outbound_tkn",
          "type": "address"
        },
        {
          "internalType": "contract IERC20",
          "name": "inbound_tkn",
          "type": "address"
        },
        {
          "internalType": "uint256",
          "name": "gasreq",
          "type": "uint256"
        },
        {
          "internalType": "uint256",
          "name": "gasprice",
          "type": "uint256"
        },
        {
          "internalType": "uint256",
          "name": "offerId",
          "type": "uint256"
        }
      ],
      "name": "getMissingProvision",
      "outputs": [
        {
          "internalType": "uint256",
          "name": "",
          "type": "uint256"
        }
      ],
      "stateMutability": "view",
      "type": "function"
    },
    {
      "inputs": [],
      "name": "has_router",
      "outputs": [
        {
          "internalType": "bool",
          "name": "",
          "type": "bool"
        }
      ],
      "stateMutability": "view",
      "type": "function"
    },
    {
      "inputs": [
        {
          "components": [
            {
              "internalType": "address",
              "name": "outbound_tkn",
              "type": "address"
            },
            {
              "internalType": "address",
              "name": "inbound_tkn",
              "type": "address"
            },
            {
              "internalType": "uint256",
              "name": "offerId",
              "type": "uint256"
            },
            {
              "internalType": "t",
              "name": "offer",
              "type": "uint256"
            },
            {
              "internalType": "uint256",
              "name": "wants",
              "type": "uint256"
            },
            {
              "internalType": "uint256",
              "name": "gives",
              "type": "uint256"
            },
            {
              "internalType": "t",
              "name": "offerDetail",
              "type": "uint256"
            },
            {
              "internalType": "t",
              "name": "global",
              "type": "uint256"
            },
            {
              "internalType": "t",
              "name": "local",
              "type": "uint256"
            }
          ],
          "internalType": "struct MgvLib.SingleOrder",
          "name": "order",
          "type": "tuple"
        }
      ],
      "name": "makerExecute",
      "outputs": [
        {
          "internalType": "bytes32",
          "name": "ret",
          "type": "bytes32"
        }
      ],
      "stateMutability": "nonpayable",
      "type": "function"
    },
    {
      "inputs": [
        {
          "components": [
            {
              "internalType": "address",
              "name": "outbound_tkn",
              "type": "address"
            },
            {
              "internalType": "address",
              "name": "inbound_tkn",
              "type": "address"
            },
            {
              "internalType": "uint256",
              "name": "offerId",
              "type": "uint256"
            },
            {
              "internalType": "t",
              "name": "offer",
              "type": "uint256"
            },
            {
              "internalType": "uint256",
              "name": "wants",
              "type": "uint256"
            },
            {
              "internalType": "uint256",
              "name": "gives",
              "type": "uint256"
            },
            {
              "internalType": "t",
              "name": "offerDetail",
              "type": "uint256"
            },
            {
              "internalType": "t",
              "name": "global",
              "type": "uint256"
            },
            {
              "internalType": "t",
              "name": "local",
              "type": "uint256"
            }
          ],
          "internalType": "struct MgvLib.SingleOrder",
          "name": "order",
          "type": "tuple"
        },
        {
          "components": [
            {
              "internalType": "bytes32",
              "name": "makerData",
              "type": "bytes32"
            },
            {
              "internalType": "bytes32",
              "name": "mgvData",
              "type": "bytes32"
            }
          ],
          "internalType": "struct MgvLib.OrderResult",
          "name": "result",
          "type": "tuple"
        }
      ],
      "name": "makerPosthook",
      "outputs": [],
      "stateMutability": "nonpayable",
      "type": "function"
    },
    {
      "inputs": [
        {
          "components": [
            {
              "internalType": "contract IERC20",
              "name": "outbound_tkn",
              "type": "address"
            },
            {
              "internalType": "contract IERC20",
              "name": "inbound_tkn",
              "type": "address"
            },
            {
              "internalType": "uint256",
              "name": "wants",
              "type": "uint256"
            },
            {
              "internalType": "uint256",
              "name": "gives",
              "type": "uint256"
            },
            {
              "internalType": "uint256",
              "name": "gasreq",
              "type": "uint256"
            },
            {
              "internalType": "uint256",
              "name": "gasprice",
              "type": "uint256"
            },
            {
              "internalType": "uint256",
              "name": "pivotId",
              "type": "uint256"
            },
            {
              "internalType": "uint256",
              "name": "offerId",
              "type": "uint256"
            }
          ],
          "internalType": "struct IOfferLogic.MakerOrder",
          "name": "mko",
          "type": "tuple"
        }
      ],
      "name": "newOffer",
      "outputs": [
        {
          "internalType": "uint256",
          "name": "offerId",
          "type": "uint256"
        }
      ],
      "stateMutability": "payable",
      "type": "function"
    },
    {
      "inputs": [
        {
          "internalType": "contract IERC20",
          "name": "outbound_tkn",
          "type": "address"
        },
        {
          "internalType": "contract IERC20",
          "name": "inbound_tkn",
          "type": "address"
        },
        {
          "internalType": "uint256[]",
          "name": "offerIds",
          "type": "uint256[]"
        }
      ],
      "name": "offerOwners",
      "outputs": [
        {
          "internalType": "address[]",
          "name": "_offerOwners",
          "type": "address[]"
        }
      ],
      "stateMutability": "view",
      "type": "function"
    },
    {
      "inputs": [],
      "name": "ofr_gasreq",
      "outputs": [
        {
          "internalType": "uint256",
          "name": "",
          "type": "uint256"
        }
      ],
      "stateMutability": "view",
      "type": "function"
    },
    {
      "inputs": [
        {
          "internalType": "contract IERC20",
          "name": "outbound_tkn",
          "type": "address"
        },
        {
          "internalType": "contract IERC20",
          "name": "inbound_tkn",
          "type": "address"
        },
        {
          "internalType": "uint256",
          "name": "offerId",
          "type": "uint256"
        }
      ],
      "name": "ownerOf",
      "outputs": [
        {
          "internalType": "address",
          "name": "owner",
          "type": "address"
        }
      ],
      "stateMutability": "view",
      "type": "function"
    },
    {
      "inputs": [
        {
          "internalType": "contract IERC20",
          "name": "outbound_tkn",
          "type": "address"
        },
        {
          "internalType": "contract IERC20",
          "name": "inbound_tkn",
          "type": "address"
        },
        {
          "internalType": "uint256",
          "name": "offerId",
          "type": "uint256"
        },
        {
          "internalType": "bool",
          "name": "deprovision",
          "type": "bool"
        }
      ],
      "name": "retractOffer",
      "outputs": [
        {
          "internalType": "uint256",
          "name": "free_wei",
          "type": "uint256"
        }
      ],
      "stateMutability": "nonpayable",
      "type": "function"
    },
    {
      "inputs": [],
      "name": "router",
      "outputs": [
        {
          "internalType": "contract AbstractRouter",
          "name": "",
          "type": "address"
        }
      ],
      "stateMutability": "view",
      "type": "function"
    },
    {
      "inputs": [
        {
          "internalType": "address",
          "name": "_admin",
          "type": "address"
        }
      ],
      "name": "set_admin",
      "outputs": [],
      "stateMutability": "nonpayable",
      "type": "function"
    },
    {
      "inputs": [
        {
          "internalType": "uint256",
          "name": "gasreq",
          "type": "uint256"
        }
      ],
      "name": "set_gasreq",
      "outputs": [],
      "stateMutability": "nonpayable",
      "type": "function"
    },
    {
      "inputs": [
        {
          "internalType": "contract AbstractRouter",
          "name": "router_",
          "type": "address"
        }
      ],
      "name": "set_router",
      "outputs": [],
      "stateMutability": "nonpayable",
      "type": "function"
    },
    {
      "inputs": [
        {
          "components": [
            {
              "internalType": "contract IERC20",
              "name": "base",
              "type": "address"
            },
            {
              "internalType": "contract IERC20",
              "name": "quote",
              "type": "address"
            },
            {
              "internalType": "bool",
              "name": "partialFillNotAllowed",
              "type": "bool"
            },
            {
              "internalType": "bool",
              "name": "selling",
              "type": "bool"
            },
            {
              "internalType": "uint256",
              "name": "wants",
              "type": "uint256"
            },
            {
              "internalType": "uint256",
              "name": "makerWants",
              "type": "uint256"
            },
            {
              "internalType": "uint256",
              "name": "gives",
              "type": "uint256"
            },
            {
              "internalType": "uint256",
              "name": "makerGives",
              "type": "uint256"
            },
            {
              "internalType": "bool",
              "name": "restingOrder",
              "type": "bool"
            },
            {
              "internalType": "uint256",
              "name": "retryNumber",
              "type": "uint256"
            },
            {
              "internalType": "uint256",
              "name": "gasForMarketOrder",
              "type": "uint256"
            },
            {
              "internalType": "uint256",
              "name": "blocksToLiveForRestingOrder",
              "type": "uint256"
            }
          ],
          "internalType": "struct IOrderLogic.TakerOrder",
          "name": "tko",
          "type": "tuple"
        }
      ],
      "name": "take",
      "outputs": [
        {
          "components": [
            {
              "internalType": "uint256",
              "name": "takerGot",
              "type": "uint256"
            },
            {
              "internalType": "uint256",
              "name": "takerGave",
              "type": "uint256"
            },
            {
              "internalType": "uint256",
              "name": "bounty",
              "type": "uint256"
            },
            {
              "internalType": "uint256",
              "name": "fee",
              "type": "uint256"
            },
            {
              "internalType": "uint256",
              "name": "offerId",
              "type": "uint256"
            }
          ],
          "internalType": "struct IOrderLogic.TakerOrderResult",
          "name": "res",
          "type": "tuple"
        }
      ],
      "stateMutability": "payable",
      "type": "function"
    },
    {
      "inputs": [
        {
          "internalType": "contract IERC20",
          "name": "token",
          "type": "address"
        }
      ],
      "name": "tokenBalance",
      "outputs": [
        {
          "internalType": "uint256",
          "name": "",
          "type": "uint256"
        }
      ],
      "stateMutability": "view",
      "type": "function"
    },
    {
      "inputs": [
        {
          "components": [
            {
              "internalType": "contract IERC20",
              "name": "outbound_tkn",
              "type": "address"
            },
            {
              "internalType": "contract IERC20",
              "name": "inbound_tkn",
              "type": "address"
            },
            {
              "internalType": "uint256",
              "name": "wants",
              "type": "uint256"
            },
            {
              "internalType": "uint256",
              "name": "gives",
              "type": "uint256"
            },
            {
              "internalType": "uint256",
              "name": "gasreq",
              "type": "uint256"
            },
            {
              "internalType": "uint256",
              "name": "gasprice",
              "type": "uint256"
            },
            {
              "internalType": "uint256",
              "name": "pivotId",
              "type": "uint256"
            },
            {
              "internalType": "uint256",
              "name": "offerId",
              "type": "uint256"
            }
          ],
          "internalType": "struct IOfferLogic.MakerOrder",
          "name": "mko",
          "type": "tuple"
        }
      ],
      "name": "updateOffer",
      "outputs": [],
      "stateMutability": "payable",
      "type": "function"
    },
    {
      "inputs": [
        {
          "internalType": "uint256",
          "name": "amount",
          "type": "uint256"
        },
        {
          "internalType": "address payable",
          "name": "receiver",
          "type": "address"
        }
      ],
      "name": "withdrawFromMangrove",
      "outputs": [],
      "stateMutability": "nonpayable",
      "type": "function"
    },
    {
      "inputs": [
        {
          "internalType": "contract IERC20",
          "name": "token",
          "type": "address"
        },
        {
          "internalType": "address",
          "name": "receiver",
          "type": "address"
        },
        {
          "internalType": "uint256",
          "name": "amount",
          "type": "uint256"
        }
      ],
      "name": "withdrawToken",
      "outputs": [
        {
          "internalType": "bool",
          "name": "success",
          "type": "bool"
        }
      ],
      "stateMutability": "nonpayable",
      "type": "function"
    },
    {
      "stateMutability": "payable",
      "type": "receive"
    }
  ],
  "bytecode": {
    "object": "0x60a06040523480156200001157600080fd5b50604051620053e9380380620053e983398101604081905262000034916200060e565b816040516200004390620005e7565b604051809103906000f08015801562000060573d6000803e3d6000fd5b5062015f9082828282813380620000be5760405162461bcd60e51b815260206004820152601860248201527f616363657373436f6e74726f6c6c65642f307841646d696e000000000000000060448201526064015b60405180910390fd5b80620000d46200026560201b6200242f1760201c565b80546001600160a01b0319166001600160a01b03929092169190911790555062ffffff81168114620001495760405162461bcd60e51b815260206004820152601b60248201527f4d616e67726f76654f666665722f676173726571546f6f4869676800000000006044820152606401620000b5565b6001600160a01b038216608052806200016d62000289602090811b6200245317901c565b5550506001600160a01b038216620001bd5760405162461bcd60e51b815260206004820152601260248201527126bab63a34aab9b2b917983c2937baba32b960711b6044820152606401620000b5565b620001c882620002ad565b505050505050336001600160a01b0316816001600160a01b0316146200025d57620001f38162000457565b620001fd62000552565b60405163e9333fab60e01b81526001600160a01b038381166004830152919091169063e9333fab90602401600060405180830381600087803b1580156200024357600080fd5b505af115801562000258573d6000803e3d6000fd5b505050505b50506200064d565b7f7d382ebca3e46505071795e192d28166a3d4bd0685585591bc6c5b8df6769fd290565b7fae7e31c3220e851db9f204a28b279dfe52b973600b0a456991089c220ae7222490565b620002b7620005c1565b6001600160a01b0316336001600160a01b03161480620002ea57506080516001600160a01b0316336001600160a01b0316145b620003385760405162461bcd60e51b815260206004820152601860248201527f416363657373436f6e74726f6c6c65642f496e76616c696400000000000000006044820152606401620000b5565b6001600160a01b038116620003905760405162461bcd60e51b815260206004820152601c60248201527f6d67764f666665722f7365745f726f757465722f3078526f75746572000000006044820152606401620000b5565b80620003a66200028960201b620024531760201c565b60010180546001600160a01b0319166001600160a01b039283161790556040516381bac14f60e01b8152306004820152908216906381bac14f90602401600060405180830381600087803b158015620003fe57600080fd5b505af115801562000413573d6000803e3d6000fd5b50506040516001600160a01b03841681527f6de4326a8b9054d72d9dbab97d27bc4edffadee7d966f5af9cc4eafdaf8e54559250602001905060405180910390a150565b62000461620005c1565b6001600160a01b0316336001600160a01b031614620004c35760405162461bcd60e51b815260206004820152601860248201527f416363657373436f6e74726f6c6c65642f496e76616c696400000000000000006044820152606401620000b5565b6001600160a01b0381166200051b5760405162461bcd60e51b815260206004820152601860248201527f416363657373436f6e74726f6c6c65642f307841646d696e00000000000000006044820152606401620000b5565b80620005316200026560201b6200242f1760201c565b80546001600160a01b0319166001600160a01b039290921691909117905550565b6000806200056a6200028960201b620024531760201c565b600101546001600160a01b0316905080620005bc5760405162461bcd60e51b815260206004820152601160248201527036b3bb27b33332b917983c2937baba32b960791b6044820152606401620000b5565b919050565b6000620005d86200026560201b6200242f1760201c565b546001600160a01b0316919050565b61100480620043e583390190565b6001600160a01b03811681146200060b57600080fd5b50565b600080604083850312156200062257600080fd5b82516200062f81620005f5565b60208401519092506200064281620005f5565b809150509250929050565b608051613cc66200071f6000396000818161033b015281816106b80152818161077601528181610a2801528181610d920152818161120a015281816112900152818161144f015281816114e10152818161169e015281816117c6015281816118810152818161192601528181611bab01528181611db701528181611e4301528181611fa3015281816123630152818161257b01528181612604015281816126960152818161291f01528181612ade01528181612d7001528181612e920152818161331801526135db0152613cc66000f3fe60806040526004361061016a5760003560e01c80639f2211cb116100d1578063e9333fab1161008a578063f851a44011610064578063f851a44014610497578063f887ea40146104ac578063f92495e5146104c1578063fc488a38146104e157600080fd5b8063e9333fab14610437578063eedc966a14610457578063f259cd271461047757600080fd5b80639f2211cb14610375578063ad97db1b14610395578063d1baa1ef146103b5578063db11851e146103ca578063dec8c86b146103ea578063e4c34f841461041757600080fd5b80635486c95f116101235780635486c95f1461026c5780636a1c7d051461027f5780636c49c32c146102d45780637144df24146102f457806384b627f91461031457806399fa5e2d1461032957600080fd5b806301e336671461017657806303eb17e2146101ab57806310aded60146101cd5780633d3d130d146101e05780634e7effa8146102005780635293840d1461024c57600080fd5b3661017157005b600080fd5b34801561018257600080fd5b5061019661019136600461366d565b610501565b60405190151581526020015b60405180910390f35b3480156101b757600080fd5b506101cb6101c63660046136fa565b6105fe565b005b6101cb6101db36600461373c565b61064f565b3480156101ec57600080fd5b506101cb6101fb366004613762565b6106b6565b34801561020c57600080fd5b5061023e61021b36600461366d565b600160209081526000938452604080852082529284528284209052825290205481565b6040519081526020016101a2565b34801561025857600080fd5b506101cb6102673660046136fa565b6107da565b61023e61027a36600461373c565b61085e565b61029261028d3660046137a5565b61087f565b6040516101a29190600060a082019050825182526020830151602083015260408301516040830152606083015160608301526080830151608083015292915050565b3480156102e057600080fd5b5061023e6102ef3660046137b8565b61128c565b34801561030057600080fd5b506101cb61030f3660046137d5565b6113f9565b34801561032057600080fd5b50610196611668565b34801561033557600080fd5b5061035d7f000000000000000000000000000000000000000000000000000000000000000081565b6040516001600160a01b0390911681526020016101a2565b34801561038157600080fd5b506101cb610390366004613805565b611687565b3480156103a157600080fd5b5061023e6103b0366004613830565b611767565b3480156103c157600080fd5b5061023e611ae0565b3480156103d657600080fd5b506101cb6103e5366004613805565b611b7e565b3480156103f657600080fd5b5061040a610405366004613883565b611cf8565b6040516101a291906138e8565b34801561042357600080fd5b5061023e610432366004613935565b611da9565b34801561044357600080fd5b506101cb610452366004613805565b612045565b34801561046357600080fd5b5061023e610472366004613805565b6120fd565b34801561048357600080fd5b506101cb610492366004613805565b612175565b3480156104a357600080fd5b5061035d61224a565b3480156104b857600080fd5b5061035d612263565b3480156104cd57600080fd5b5061035d6104dc36600461366d565b6122c3565b3480156104ed57600080fd5b506101cb6104fc366004613986565b612336565b60006001600160a01b0383166105695760405162461bcd60e51b815260206004820152602260248201527f4d756c7469557365722f7769746864726177546f6b656e2f307852656365697660448201526132b960f11b60648201526084015b60405180910390fd5b610571612263565b6040516310baa6cf60e11b81526001600160a01b03868116600483015233602483015285811660448301526064820185905291909116906321754d9e906084016020604051808303816000875af11580156105d0573d6000803e3d6000fd5b505050506040513d601f19601f820116820180604052508101906105f4919061399f565b90505b9392505050565b60005b8181101561064a5761063883838381811061061e5761061e6139bc565b90506020020160208101906106339190613805565b612477565b80610642816139e8565b915050610601565b505050565b61066761066136839003830183613a17565b346124e5565b6106b35760405162461bcd60e51b815260206004820152601960248201527f4d756c7469557365722f7570646174654f666665724661696c000000000000006044820152606401610560565b50565b7f00000000000000000000000000000000000000000000000000000000000000006001600160a01b03811615806106f55750336001600160a01b038216145b6107115760405162461bcd60e51b815260040161056090613ac3565b81602001356f6d67762f74726164655375636365737360801b0361073e5761073883612a22565b50505050565b604083018035906107529060208601613805565b6001600160a01b03166107686020860186613805565b604080516001600160a01b037f0000000000000000000000000000000000000000000000000000000000000000811682528735602083015292909216917f736a3993b9f8b1c5603896c76376792887f376b1fe7fc981e09a16530bf1e4e0910160405180910390a46107388383612a60565b6107e261224a565b6001600160a01b0316336001600160a01b0316146108125760405162461bcd60e51b815260040161056090613ac3565b60005b8181101561064a5761084c838383818110610832576108326139bc565b90506020020160208101906108479190613805565b612cc4565b80610856816139e8565b915050610815565b600061087961087236849003840184613a17565b3334612d4b565b92915050565b6108b16040518060a0016040528060008152602001600081526020016000815260200160008152602001600081525090565b6000806108c46080850160608601613afa565b6108ea576108d56020850185613805565b6108e56040860160208701613805565b610907565b6108fa6040850160208601613805565b6109076020860186613805565b915091506000610915612263565b6001600160a01b031663333dbb0d83338860c0013560016040518563ffffffff1660e01b815260040161094b9493929190613b17565b6020604051808303816000875af115801561096a573d6000803e3d6000fd5b505050506040513d601f19601f8201168201806040525081019061098e9190613b40565b90508460c0013581146109e35760405162461bcd60e51b815260206004820152601a60248201527f6d67764f726465722f6d6f2f7472616e73666572496e4661696c0000000000006044820152606401610560565b60005b6109f66101208701356001613b59565b811015610b945761014086013515801590610a1557508561014001355a105b610b945760008080806001600160a01b037f00000000000000000000000000000000000000000000000000000000000000001663fbffe5fd89898d608001358e60c001358f6060016020810190610a6c9190613afa565b610a77576001610a7a565b60005b6040516001600160e01b031960e088901b1681526001600160a01b039586166004820152949093166024850152604484019190915260648301521515608482015260a4016080604051808303816000875af1158015610add573d6000803e3d6000fd5b505050506040513d601f19601f82011682018060405250810190610b019190613b71565b93509350935093508389600001818151610b1b9190613b59565b905250602089018051849190610b32908390613b59565b905250604089018051839190610b49908390613b59565b905250606089018051829190610b60908390613b59565b90525083158015610b6f575081155b15610b7d5750505050610b94565b505050508080610b8c906139e8565b9150506109e6565b506000610ba18686612fae565b9050610bb36060870160408801613afa565b1580610bbc5750805b80610bd45750610bd461012087016101008801613afa565b610c1c5760405162461bcd60e51b81526020600482015260196024820152781b59dd93dc99195c8bdb5bcbdb9bd4185c9d1a585b119a5b1b603a1b6044820152606401610560565b845115610c9057610c2b612263565b855160405163137476d160e11b81526001600160a01b0392909216916326e8eda291610c5d9188913391600401613ba7565b600060405180830381600087803b158015610c7757600080fd5b505af1158015610c8b573d6000803e3d6000fd5b505050505b610ca261012087016101008801613afa565b8015610cac575080155b156110825760408051610100810182526001600160a01b0380861682528616602082015260608701518751610d3a93830191610ce791613b59565b610cf59060a08b0135613bcb565b815260200187602001518960e00135610d0e9190613bcb565b8152602001610d1b611ae0565b8152602001600081526020016000815260200160008152503334612d4b565b608086015233610d506040880160208901613805565b6001600160a01b0316610d666020890189613805565b6001600160a01b03167f587734843819064f2153f96c808d1aeacaceccfa595ec4b9ed484c4bff687f7c7f0000000000000000000000000000000000000000000000000000000000000000610dc160808c0160608d01613afa565b8a5160208c01516040808e015160808f01519151610e119695949392906001600160a01b03969096168652931515602086015260408501929092526060840152608083015260a082015260c00190565b60405180910390a48460800151600003610fb157610e356060870160408801613afa565b15610e7e5760405162461bcd60e51b81526020600482015260196024820152781b59dd93dc99195c8bdb5bcbdb9bd4185c9d1a585b119a5b1b603a1b6044820152606401610560565b610e9c833387602001518960c00135610e979190613bcb565b612ff7565b610ee85760405162461bcd60e51b815260206004820152601a60248201527f6d67764f726465722f6d6f2f7472616e73666572496e4661696c0000000000006044820152606401610560565b6000856040015134610efa9190613b59565b1115610fa85760408501516000903390610f149034613b59565b604051600081818185875af1925050503d8060008114610f50576040519150601f19603f3d011682016040523d82523d6000602084013e610f55565b606091505b5050905080610fa65760405162461bcd60e51b815260206004820152601f60248201527f6d67764f726465722f6d6f2f726566756e6450726f766973696f6e4661696c006044820152606401610560565b505b50505050919050565b610fb9612263565b6001600160a01b03166326e8eda2843388602001518a60c00135610fdd9190613bcb565b6040518463ffffffff1660e01b8152600401610ffb93929190613ba7565b600060405180830381600087803b15801561101557600080fd5b505af1158015611029573d6000803e3d6000fd5b5050505061016086013515610fa85761104761016087013543613b59565b6001600160a01b038085166000908152600160209081526040808320938916835292815282822060808a015183529052205550505050919050565b61108a612263565b6001600160a01b03166326e8eda2843388602001518a60c001356110ae9190613bcb565b6040518463ffffffff1660e01b81526004016110cc93929190613ba7565b600060405180830381600087803b1580156110e657600080fd5b505af11580156110fa573d6000803e3d6000fd5b5050505060008560400151346111109190613b59565b11156111b7576040850151600090339061112a9034613b59565b604051600081818185875af1925050503d8060008114611166576040519150601f19603f3d011682016040523d82523d6000602084013e61116b565b606091505b50509050806111b55760405162461bcd60e51b81526020600482015260166024820152751b59dd93dc99195c8bdb5bcbdc99599d5b9911985a5b60521b6044820152606401610560565b505b336111c86040880160208901613805565b6001600160a01b03166111de6020890189613805565b6001600160a01b03167f587734843819064f2153f96c808d1aeacaceccfa595ec4b9ed484c4bff687f7c7f000000000000000000000000000000000000000000000000000000000000000061123960808c0160608d01613afa565b8a516020808d01516040808f015181516001600160a01b039097168752941515928601929092529084019190915260608301526080820152600060a082015260c00160405180910390a450505050919050565b60007f00000000000000000000000000000000000000000000000000000000000000006001600160a01b03811615806112cd5750336001600160a01b038216145b6112e95760405162461bcd60e51b815260040161056090613ac3565b6112f2836130ed565b6113375760405162461bcd60e51b81526020600482015260166024820152751b59dd93d999995c8bd8589bdc9d0bdc995b9959d95960521b6044820152606401610560565b60006113478460a0013585613172565b11156113955760405162461bcd60e51b815260206004820152601860248201527f6d67764f666665722f61626f72742f7075744661696c656400000000000000006044820152606401610560565b60006113a5846080013585613220565b11156113f35760405162461bcd60e51b815260206004820152601860248201527f6d67764f666665722f61626f72742f6765744661696c656400000000000000006044820152606401610560565b50919050565b61140161224a565b6001600160a01b0316336001600160a01b0316146114315760405162461bcd60e51b815260040161056090613ac3565b60001982036114cb576040516370a0823160e01b81523060048201527f00000000000000000000000000000000000000000000000000000000000000006001600160a01b0316906370a0823190602401602060405180830381865afa15801561149e573d6000803e3d6000fd5b505050506040513d601f19601f820116820180604052508101906114c29190613b40565b91508115611664575b604051632e1a7d4d60e01b8152600481018390527f00000000000000000000000000000000000000000000000000000000000000006001600160a01b031690632e1a7d4d906024016020604051808303816000875af1158015611532573d6000803e3d6000fd5b505050506040513d601f19601f82011682018060405250810190611556919061399f565b6115b05760405162461bcd60e51b815260206004820152602560248201527f6d67764f666665722f776974686472617746726f6d4d67762f776974686472616044820152641dd1985a5b60da1b6064820152608401610560565b6000816001600160a01b03168360405160006040518083038185875af1925050503d80600081146115fd576040519150601f19603f3d011682016040523d82523d6000602084013e611602565b606091505b505090508061064a5760405162461bcd60e51b815260206004820152602860248201527f6d67764f666665722f776974686472617746726f6d4d67762f70617961626c6560448201526710d85b1b11985a5b60c21b6064820152608401610560565b5050565b600080611673612453565b600101546001600160a01b03161415919050565b60405163095ea7b360e01b81526001600160a01b037f000000000000000000000000000000000000000000000000000000000000000081166004830152600019602483015282169063095ea7b3906044016020604051808303816000875af11580156116f7573d6000803e3d6000fd5b505050506040513d601f19601f8201168201806040525081019061171b919061399f565b6106b35760405162461bcd60e51b815260206004820152601d60248201527f6d67764f666665722f617070726f76654d616e67726f76652f4661696c0000006044820152606401610560565b6001600160a01b03848116600090815260208181526040808320878516845282528083208684528252808320815180830190925254938416808252600160a01b9094046001600160601b03169181019190915290913314806117f157507f00000000000000000000000000000000000000000000000000000000000000006001600160a01b031633145b61183d5760405162461bcd60e51b815260206004820152601f60248201527f4d756c74692f726574726163744f666665722f756e617574686f72697a6564006044820152606401610560565b60208101516001600160601b031615611872578261185c576000611862565b80602001515b6001600160601b0316915061190a565b60405163ad97db1b60e01b81527f00000000000000000000000000000000000000000000000000000000000000006001600160a01b03169063ad97db1b906118c4908990899089908990600401613b17565b6020604051808303816000875af11580156118e3573d6000803e3d6000fd5b505050506040513d601f19601f820116820180604052508101906119079190613b40565b91505b8115611ad757604051632e1a7d4d60e01b8152600481018390527f00000000000000000000000000000000000000000000000000000000000000006001600160a01b031690632e1a7d4d906024016020604051808303816000875af1158015611977573d6000803e3d6000fd5b505050506040513d601f19601f8201168201806040525081019061199b919061399f565b6119e05760405162461bcd60e51b8152602060048201526016602482015275135d5b1d1a555cd95c8bddda5d1a191c985dd1985a5b60521b6044820152606401610560565b60408051808201825282516001600160a01b039081168252600060208084018281528b841683528282528583208b8516845282528583208a8452909152848220935190516001600160601b0316600160a01b0292169190911790915590513390849060006040518083038185875af1925050503d8060008114611a7f576040519150601f19603f3d011682016040523d82523d6000602084013e611a84565b606091505b5050905080611ad55760405162461bcd60e51b815260206004820152601960248201527f4d756c7469557365722f7765695472616e736665724661696c000000000000006044820152606401610560565b505b50949350505050565b6000611aea611668565b15611b7057611af7612263565b6001600160a01b0316630417ffda6040518163ffffffff1660e01b8152600401602060405180830381865afa158015611b34573d6000803e3d6000fd5b505050506040513d601f19601f82011682018060405250810190611b589190613b40565b611b60612453565b54611b6b9190613b59565b905090565b611b78612453565b54919050565b611b8661224a565b6001600160a01b0316336001600160a01b03161480611bcd5750336001600160a01b037f000000000000000000000000000000000000000000000000000000000000000016145b611be95760405162461bcd60e51b815260040161056090613ac3565b6001600160a01b038116611c3f5760405162461bcd60e51b815260206004820152601c60248201527f6d67764f666665722f7365745f726f757465722f3078526f75746572000000006044820152606401610560565b80611c48612453565b60010180546001600160a01b0319166001600160a01b039283161790556040516381bac14f60e01b8152306004820152908216906381bac14f90602401600060405180830381600087803b158015611c9f57600080fd5b505af1158015611cb3573d6000803e3d6000fd5b50506040516001600160a01b03841681527f6de4326a8b9054d72d9dbab97d27bc4edffadee7d966f5af9cc4eafdaf8e5455925060200190505b60405180910390a150565b60608167ffffffffffffffff811115611d1357611d13613a01565b604051908082528060200260200182016040528015611d3c578160200160208202803683370190505b50905060005b82811015611ad757611d6d8686868685818110611d6157611d616139bc565b905060200201356122c3565b828281518110611d7f57611d7f6139bc565b6001600160a01b039092166020928302919091019091015280611da1816139e8565b915050611d42565b600080806001600160a01b037f00000000000000000000000000000000000000000000000000000000000000001663cbf75c9a89896040518363ffffffff1660e01b8152600401611dfb929190613be2565b6040805180830381865afa158015611e17573d6000803e3d6000fd5b505050506040513d601f19601f82011682018060405250810190611e3b9190613bfc565b9150915060007f00000000000000000000000000000000000000000000000000000000000000006001600160a01b0316635722647b611e778b90565b8a886040518463ffffffff1660e01b8152600401611e9793929190613ba7565b602060405180830381865afa158015611eb4573d6000803e3d6000fd5b505050506040513d601f19601f82011682018060405250810190611ed89190613b40565b9050600086604085901c61ffff161115611efb575061ffff604084901c16611efe565b50855b62ffffff8810611f1357611f10611ae0565b97505b600081611f2962ffffff606087901c168b613b59565b611f339190613c20565b611f4190633b9aca00613c20565b9050600061ffff602085901c16611f6862ffffff603087901c811690604888901c16613b59565b611f729190613c20565b611f8090633b9aca00613c20565b6040516370a0823160e01b81523060048201529091506000906001600160a01b037f000000000000000000000000000000000000000000000000000000000000000016906370a0823190602401602060405180830381865afa158015611fea573d6000803e3d6000fd5b505050506040513d601f19601f8201168201806040525081019061200e9190613b40565b6120189083613b59565b9050828110156120315761202c8184613bcb565b612034565b60005b9d9c50505050505050505050505050565b61204d61224a565b6001600160a01b0316336001600160a01b03161461207d5760405162461bcd60e51b815260040161056090613ac3565b6001600160a01b0381166120d35760405162461bcd60e51b815260206004820152601860248201527f416363657373436f6e74726f6c6c65642f307841646d696e00000000000000006044820152606401610560565b806120dc61242f565b80546001600160a01b0319166001600160a01b039290921691909117905550565b6000612107612263565b6001600160a01b03166305684fde83336040518363ffffffff1660e01b8152600401612134929190613be2565b602060405180830381865afa158015612151573d6000803e3d6000fd5b505050506040513d601f19601f820116820180604052508101906108799190613b40565b806001600160a01b031663095ea7b361218c612263565b6040516001600160e01b031960e084901b1681526001600160a01b03909116600482015260001960248201526044016020604051808303816000875af11580156121da573d6000803e3d6000fd5b505050506040513d601f19601f820116820180604052508101906121fe919061399f565b6106b35760405162461bcd60e51b815260206004820152601b60248201527f6d67764f666665722f617070726f7665526f757465722f4661696c00000000006044820152606401610560565b600061225461242f565b546001600160a01b0316919050565b60008061226e612453565b600101546001600160a01b03169050806122be5760405162461bcd60e51b815260206004820152601160248201527036b3bb27b33332b917983c2937baba32b960791b6044820152606401610560565b919050565b6001600160a01b038084166000908152602081815260408083208685168452825280832085845290915290205416806105f75760405162461bcd60e51b815260206004820152601560248201527436bab63a34aab9b2b917bab735b7bbb727b33332b960591b6044820152606401610560565b61233e61224a565b6001600160a01b0316336001600160a01b031614806123855750336001600160a01b037f000000000000000000000000000000000000000000000000000000000000000016145b6123a15760405162461bcd60e51b815260040161056090613ac3565b808162ffffff16146123f55760405162461bcd60e51b815260206004820152601860248201527f6d67764f666665722f6761737265712f6f766572666c6f7700000000000000006044820152606401610560565b806123fe612453565b556040518181527fafef3ad374c0b972e3c793be825735801fa05cc4c67157d98d9a111b4027988d90602001611ced565b7f7d382ebca3e46505071795e192d28166a3d4bd0685585591bc6c5b8df6769fd290565b7fae7e31c3220e851db9f204a28b279dfe52b973600b0a456991089c220ae7222490565b61247f612263565b6001600160a01b031663a01dccd882336040518363ffffffff1660e01b81526004016124ac929190613be2565b60006040518083038186803b1580156124c457600080fd5b505afa1580156124d8573d6000803e3d6000fd5b505050506106b3816132ef565b81516001600160a01b039081166000908152602081815260408083208287015185168452825280832060e0870151845282528083208151808301835290549485168152600160a01b9094046001600160601b031684830152805160808101825283815291820183905281018290526060810182905290919081516001600160a01b031633148061259d5750336001600160a01b037f000000000000000000000000000000000000000000000000000000000000000016145b6125e95760405162461bcd60e51b815260206004820152601e60248201527f4d756c74692f7570646174654f666665722f756e617574686f72697a656400006044820152606401610560565b8451602086015160e0870151604051635722647b60e01b81527f00000000000000000000000000000000000000000000000000000000000000006001600160a01b031693635722647b93612644939192909190600401613ba7565b602060405180830381865afa158015612661573d6000803e3d6000fd5b505050506040513d601f19601f820116820180604052508101906126859190613b40565b604082015284516001600160a01b037f0000000000000000000000000000000000000000000000000000000000000000169063cbf75c9a9060208801516040518363ffffffff1660e01b81526004016126df929190613be2565b6040805180830381865afa1580156126fb573d6000803e3d6000fd5b505050506040513d601f19601f8201168201806040525081019061271f9190613bfc565b6020830152815260608101849052608085015162ffffff1061274557846080015161274d565b61274d611ae0565b6080860152604081015160201c61ffff1660a0860181905260000361282f5760208201516001600160601b0316156128055781602001516001600160601b03168160600181815161279e9190613b59565b90525060408051808201825283516001600160a01b039081168252600060208084018281528a51841683528282528583208b83015185168452825285832060e08c01518452909152939020915192516001600160601b0316600160a01b0292169190911790555b6080850151606080830151602084015161282593921c62ffffff166133dd565b60a08601526128b0565b83156128b057602081015160601c62ffffff16604082015160481c62ffffff166128599190613b59565b60a086015161286c90633b9aca00613c20565b6128769190613c20565b816060018181516128879190613b59565b905250608085015160608083015160208401516128aa93921c62ffffff166133dd565b60a08601525b805160401c61ffff168560a00151101561291d5760405162461bcd60e51b815260206004820152602860248201527f4d756c7469557365722f7570646174654f666665722f4e6f74456e6f756768506044820152673937bb34b9b4b7b760c11b6064820152608401610560565b7f00000000000000000000000000000000000000000000000000000000000000006001600160a01b0316636a4f769185612958886000015190565b602089015189604001518a606001518b608001518c60a001518d60c001518e60e001516040518a63ffffffff1660e01b81526004016129dd9897969594939291906001600160a01b03988916815296909716602087015260408601949094526060850192909252608084015260a083015260c082015260e08101919091526101000190565b6000604051808303818588803b1580156129f657600080fd5b505af193505050508015612a08575060015b612a1757600092505050610879565b506001949350505050565b6000612a2d82613478565b9050806122be576113f3612a446020840184613805565b612a546040850160208601613805565b84604001356001611767565b600080612a706020850185613805565b90506000612a846040860160208701613805565b6001600160a01b03838116600090815260208181526040808320858516845282528083208a820135845282528083208151808301909252548085168252600160a01b90046001600160601b031681830152939450909182917f00000000000000000000000000000000000000000000000000000000000000009091169063cbf75c9a90612b13908b018b613805565b612b2360408c0160208d01613805565b6040518363ffffffff1660e01b8152600401612b40929190613be2565b6040805180830381865afa158015612b5c573d6000803e3d6000fd5b505050506040513d601f19601f82011682018060405250810190612b809190613bfc565b90925090506000612b9d61ffff604085901c16633b9aca00613c20565b9050600060c08a013560301c62ffffff1660c08b013560481c62ffffff16612bc59190613b59565b612bde61ffff60c08d013560201c16633b9aca00613c20565b612be89190613c20565b9050600082606085901c62ffffff165a60c08e013560481c62ffffff16612c0f9190613bcb565b612c1b90610bb8613b59565b612c259190613b59565b612c2f9190613c20565b9050600082821015612c4a57612c458284613bcb565b612c4d565b60005b60408051808201825298516001600160a01b039081168a526001600160601b039283166020808c019182529c82166000908152808e528381209c831681529b8d52828c209f8301358c529e909b5290982096519b51909716600160a01b029a90971699909917909355506001979650505050505050565b612ccd81611687565b612cd5611668565b156106b357612ce381612175565b612ceb612263565b604051630716a76760e21b81526001600160a01b0383811660048301529190911690631c5a9d9c90602401600060405180830381600087803b158015612d3057600080fd5b505af1158015612d44573d6000803e3d6000fd5b5050505050565b825160208401516040516365fbae4d60e11b8152600092839283926001600160a01b037f0000000000000000000000000000000000000000000000000000000000000000169263cbf75c9a92612da392600401613be2565b6040805180830381865afa158015612dbf573d6000803e3d6000fd5b505050506040513d601f19601f82011682018060405250810190612de39190613bfc565b9150915062ffffff8016866080015111612e01578560800151612e09565b612e09611ae0565b60808701819052612e249085606084901c62ffffff166133dd565b60a0870181905261ffff604084901c161115612e905760405162461bcd60e51b815260206004820152602560248201527f4d756c7469557365722f6e65774f666665722f4e6f74456e6f75676850726f7660448201526434b9b4b7b760d91b6064820152608401610560565b7f00000000000000000000000000000000000000000000000000000000000000006001600160a01b03166349f6d2dc85612ecb896000015190565b60208a01518a604001518b606001518c608001518d60a001518e60c001516040518963ffffffff1660e01b8152600401612f4497969594939291906001600160a01b03978816815295909616602086015260408501939093526060840191909152608083015260a082015260c081019190915260e00190565b60206040518083038185885af1158015612f62573d6000803e3d6000fd5b50505050506040513d601f19601f82011682018060405250810190612f879190613b40565b60e0870181905286516020880151612f9f928861354f565b50505060e08301519392505050565b6000612fc06080840160608501613afa565b15612fd8578260c00135826020015110159050610879565b60608201518251608085013591612fee91613b59565b10159050610879565b600081158061300e57506001600160a01b03831630145b1561301b575060016105f7565b604080516001600160a01b038581166024830152604480830186905283518084039091018152606490920183526020820180516001600160e01b031663a9059cbb60e01b17905291516000928392908816916130779190613c3f565b6000604051808303816000865af19150503d80600081146130b4576040519150601f19603f3d011682016040523d82523d6000602084013e6130b9565b606091505b50915091508180156130e35750805115806130e35750808060200190518101906130e3919061399f565b9695505050505050565b6000806001816131006020860186613805565b6001600160a01b03166001600160a01b0316815260200190815260200160002060008460200160208101906131359190613805565b6001600160a01b031681526020808201929092526040908101600090812086830135825290925290205490508015806105f7575043111592915050565b6000806131826020840184613805565b905060006131966040850160208601613805565b905060006131a9838387604001356122c3565b90506131b3612263565b6001600160a01b03166326e8eda28383896040518463ffffffff1660e01b81526004016131e293929190613ba7565b600060405180830381600087803b1580156131fc57600080fd5b505af1158015613210573d6000803e3d6000fd5b5060009998505050505050505050565b6000806132306020840184613805565b905060006132446040850160208601613805565b90506000613257838387604001356122c3565b90506000613263612263565b6001600160a01b031663333dbb0d85848a60016040518563ffffffff1660e01b81526004016132959493929190613b17565b6020604051808303816000875af11580156132b4573d6000803e3d6000fd5b505050506040513d601f19601f820116820180604052508101906132d89190613b40565b90506132e48188613bcb565b979650505050505050565b604051636eb1769f60e11b81526000906001600160a01b0383169063dd62ed3e906133409030907f000000000000000000000000000000000000000000000000000000000000000090600401613be2565b602060405180830381865afa15801561335d573d6000803e3d6000fd5b505050506040513d601f19601f820116820180604052508101906133819190613b40565b116106b35760405162461bcd60e51b815260206004820152602660248201527f4d616e67726f76654f666665722f41646d696e4d757374417070726f76654d616044820152656e67726f766560d01b6064820152608401610560565b6000806133ea8584613b59565b6133f890633b9aca00613c20565b90508084101561345f5760405162461bcd60e51b815260206004820152602c60248201527f4d756c7469557365722f6465726976655f67617370726963652f4e6f74456e6f60448201526b3ab3b4283937bb34b9b4b7b760a11b6064820152608401610560565b80848161346e5761346e613c7a565b0495945050505050565b60008061348483613610565b9050600061349184613630565b9050816000036134a5575060019392505050565b60408051610100810190915261354790806134c36020880188613805565b6001600160a01b031681526020018660200160208101906134e49190613805565b6001600160a01b03168152602081018490526040810185905260600160c087013560481c62ffffff16815260209081019060c0880135901c61ffff168152602001606087013560c01c63ffffffff168152602001866040013581525060006124e5565b949350505050565b6040805180820182526001600160a01b038084168252600060208084018281528984168084528383528684208a86168086529084528785208a865290935292869020945190516001600160601b0316600160a01b029316929092179092559151849291907f460a431c86ecaea27134277388c72021356689d9eb62c3b25a5e4a97da7a8a1490613602907f0000000000000000000000000000000000000000000000000000000000000000908790613be2565b60405180910390a450505050565b600060808201356001600160601b036060840135165b6108799190613bcb565b600060a0820135606080840135901c6001600160601b0316613626565b6001600160a01b03811681146106b357600080fd5b80356122be8161364d565b60008060006060848603121561368257600080fd5b833561368d8161364d565b9250602084013561369d8161364d565b929592945050506040919091013590565b60008083601f8401126136c057600080fd5b50813567ffffffffffffffff8111156136d857600080fd5b6020830191508360208260051b85010111156136f357600080fd5b9250929050565b6000806020838503121561370d57600080fd5b823567ffffffffffffffff81111561372457600080fd5b613730858286016136ae565b90969095509350505050565b600061010082840312156113f357600080fd5b600061012082840312156113f357600080fd5b60008082840361016081121561377757600080fd5b613781858561374f565b9250604061011f198201121561379657600080fd5b50610120830190509250929050565b600061018082840312156113f357600080fd5b600061012082840312156137cb57600080fd5b6105f7838361374f565b600080604083850312156137e857600080fd5b8235915060208301356137fa8161364d565b809150509250929050565b60006020828403121561381757600080fd5b81356105f78161364d565b80151581146106b357600080fd5b6000806000806080858703121561384657600080fd5b84356138518161364d565b935060208501356138618161364d565b925060408501359150606085013561387881613822565b939692955090935050565b6000806000806060858703121561389957600080fd5b84356138a48161364d565b935060208501356138b48161364d565b9250604085013567ffffffffffffffff8111156138d057600080fd5b6138dc878288016136ae565b95989497509550505050565b6020808252825182820181905260009190848201906040850190845b818110156139295783516001600160a01b031683529284019291840191600101613904565b50909695505050505050565b600080600080600060a0868803121561394d57600080fd5b85356139588161364d565b945060208601356139688161364d565b94979496505050506040830135926060810135926080909101359150565b60006020828403121561399857600080fd5b5035919050565b6000602082840312156139b157600080fd5b81516105f781613822565b634e487b7160e01b600052603260045260246000fd5b634e487b7160e01b600052601160045260246000fd5b6000600182016139fa576139fa6139d2565b5060010190565b634e487b7160e01b600052604160045260246000fd5b6000610100808385031215613a2b57600080fd5b6040519081019067ffffffffffffffff82118183101715613a5c57634e487b7160e01b600052604160045260246000fd5b81604052613a6984613662565b8152613a7760208501613662565b602082015260408401356040820152606084013560608201526080840135608082015260a084013560a082015260c084013560c082015260e084013560e0820152809250505092915050565b60208082526018908201527f416363657373436f6e74726f6c6c65642f496e76616c69640000000000000000604082015260600190565b600060208284031215613b0c57600080fd5b81356105f781613822565b6001600160a01b0394851681529290931660208301526040820152901515606082015260800190565b600060208284031215613b5257600080fd5b5051919050565b60008219821115613b6c57613b6c6139d2565b500190565b60008060008060808587031215613b8757600080fd5b505082516020840151604085015160609095015191969095509092509050565b6001600160a01b039384168152919092166020820152604081019190915260600190565b600082821015613bdd57613bdd6139d2565b500390565b6001600160a01b0392831681529116602082015260400190565b60008060408385031215613c0f57600080fd5b505080516020909101519092909150565b6000816000190483118215151615613c3a57613c3a6139d2565b500290565b6000825160005b81811015613c605760208186018101518583015201613c46565b81811115613c6f576000828501525b509190910192915050565b634e487b7160e01b600052601260045260246000fdfea264697066735822122046033b576edb09805212dfd0227c0a8d6f82fca1019a036570f262efa117e21764736f6c634300080e0033608060405234801561001057600080fd5b5061c35033806100675760405162461bcd60e51b815260206004820152601860248201527f616363657373436f6e74726f6c6c65642f307841646d696e000000000000000060448201526064015b60405180910390fd5b8061007a61010a60201b6107e51760201c565b80546001600160a01b0319166001600160a01b03929092169190911790555062ffffff811681146100ed5760405162461bcd60e51b815260206004820152601660248201527f526f757465722f6f76657268656164546f6f4869676800000000000000000000604482015260640161005e565b8061010061012e60201b6108091760201c565b6001015550610152565b7f7d382ebca3e46505071795e192d28166a3d4bd0685585591bc6c5b8df6769fd290565b7ff2910982afb88211fa9894801aaf0314409ca240a0a8904897b9f5ba323ca53390565b610ea3806101616000396000f3fe608060405234801561001057600080fd5b50600436106100cf5760003560e01c8063362aecb11161008c578063cf5e7bd311610066578063cf5e7bd314610199578063e9333fab146101ac578063f850a81c146101bf578063f851a440146101d257600080fd5b8063362aecb11461016057806381bac14f14610173578063a01dccd81461018657600080fd5b80630417ffda146100d457806305684fde146100ef5780631c5a9d9c1461010257806321754d9e1461011757806326e8eda21461013a578063333dbb0d1461014d575b600080fd5b6100dc6101f2565b6040519081526020015b60405180910390f35b6100dc6100fd366004610bc3565b610205565b610115610110366004610bfc565b61027a565b005b61012a610125366004610c19565b6102cd565b60405190151581526020016100e6565b610115610148366004610c6a565b61030b565b6100dc61015b366004610cb9565b610341565b61012a61016e366004610bfc565b6103fd565b610115610181366004610bfc565b610429565b610115610194366004610bc3565b6104a7565b6101156101a7366004610bfc565b61057d565b6101156101ba366004610bfc565b6105ce565b6101156101cd366004610d0c565b6106b6565b6101da6107cc565b6040516001600160a01b0390911681526020016100e6565b60006101fc610809565b60010154905090565b6040516370a0823160e01b81526001600160a01b038281166004830152600091908416906370a0823190602401602060405180830381865afa15801561024f573d6000803e3d6000fd5b505050506040513d601f19601f820116820180604052508101906102739190610d92565b9392505050565b6102826107cc565b6001600160a01b0316336001600160a01b031614806102a557506102a5336103fd565b6102ca5760405162461bcd60e51b81526004016102c190610dab565b60405180910390fd5b50565b60006102d8336103fd565b6102f45760405162461bcd60e51b81526004016102c190610dab565b6103008585858561082d565b90505b949350505050565b610314336103fd565b6103305760405162461bcd60e51b81526004016102c190610dab565b61033c8383338461083b565b505050565b600061034c336103fd565b6103685760405162461bcd60e51b81526004016102c190610dab565b6040516370a0823160e01b81523360048201526000906001600160a01b038716906370a0823190602401602060405180830381865afa1580156103af573d6000803e3d6000fd5b505050506040513d601f19601f820116820180604052508101906103d39190610d92565b90508381106103e6576000915050610303565b6103f38686338787610893565b9695505050505050565b6000610407610809565b6001600160a01b03909216600090815260209290925250604090205460ff1690565b6104316107cc565b6001600160a01b0316336001600160a01b031614806104545750610454336103fd565b6104705760405162461bcd60e51b81526004016102c190610dab565b600161047a610809565b6001600160a01b039290921660009081526020929092526040909120805460ff1916911515919091179055565b604051636eb1769f60e11b81523360048201523060248201526000906001600160a01b0384169063dd62ed3e90604401602060405180830381865afa1580156104f4573d6000803e3d6000fd5b505050506040513d601f19601f820116820180604052508101906105189190610d92565b1161056f5760405162461bcd60e51b815260206004820152602160248201527f526f757465722f4e6f74417070726f76656442794d616b6572436f6e747261636044820152601d60fa1b60648201526084016102c1565b61057982826108ba565b5050565b6105856107cc565b6001600160a01b0316336001600160a01b031614806105a857506105a8336103fd565b6105c45760405162461bcd60e51b81526004016102c190610dab565b600061047a610809565b6105d66107cc565b6001600160a01b0316336001600160a01b0316146106365760405162461bcd60e51b815260206004820152601860248201527f416363657373436f6e74726f6c6c65642f496e76616c6964000000000000000060448201526064016102c1565b6001600160a01b03811661068c5760405162461bcd60e51b815260206004820152601860248201527f416363657373436f6e74726f6c6c65642f307841646d696e000000000000000060448201526064016102c1565b806106956107e5565b80546001600160a01b0319166001600160a01b039290921691909117905550565b6106bf336103fd565b6106db5760405162461bcd60e51b81526004016102c190610dab565b60005b828110156107c65760008484838181106106fa576106fa610dd8565b905060200201602081019061070f9190610bfc565b6040516370a0823160e01b81523360048201526001600160a01b0391909116906370a0823190602401602060405180830381865afa158015610755573d6000803e3d6000fd5b505050506040513d601f19601f820116820180604052508101906107799190610d92565b905080156107b3576107b385858481811061079657610796610dd8565b90506020020160208101906107ab9190610bfc565b84338461083b565b50806107be81610dee565b9150506106de565b50505050565b60006107d66107e5565b546001600160a01b0316919050565b7f7d382ebca3e46505071795e192d28166a3d4bd0685585591bc6c5b8df6769fd290565b7ff2910982afb88211fa9894801aaf0314409ca240a0a8904897b9f5ba323ca53390565b600061030085858585610998565b61084784838584610998565b6107c65760405162461bcd60e51b815260206004820152601e60248201527f53696d706c65526f757465722f707573682f7472616e736665724661696c000060448201526064016102c1565b60006108a186868686610998565b156108ad5750816108b1565b5060005b95945050505050565b6001600160a01b0381163014806109425750604051636eb1769f60e11b81526001600160a01b0382811660048301523060248301526000919084169063dd62ed3e90604401602060405180830381865afa15801561091c573d6000803e3d6000fd5b505050506040513d601f19601f820116820180604052508101906109409190610d92565b115b6105795760405162461bcd60e51b815260206004820152602160248201527f53696d706c65526f757465722f4e6f74417070726f76656442795265736572766044820152606560f81b60648201526084016102c1565b60008115806109b85750826001600160a01b0316846001600160a01b0316145b156109c557506001610303565b306001600160a01b038516036109e7576109e0858484610ac2565b9050610303565b604080516001600160a01b0386811660248301528581166044830152606480830186905283518084039091018152608490920183526020820180516001600160e01b03166323b872dd60e01b1790529151600092839290891691610a4b9190610e15565b6000604051808303816000865af19150503d8060008114610a88576040519150601f19603f3d011682016040523d82523d6000602084013e610a8d565b606091505b5091509150818015610ab7575080511580610ab7575080806020019051810190610ab79190610e50565b979650505050505050565b6000811580610ad957506001600160a01b03831630145b15610ae657506001610273565b604080516001600160a01b038581166024830152604480830186905283518084039091018152606490920183526020820180516001600160e01b031663a9059cbb60e01b1790529151600092839290881691610b429190610e15565b6000604051808303816000865af19150503d8060008114610b7f576040519150601f19603f3d011682016040523d82523d6000602084013e610b84565b606091505b50915091508180156103f35750805115806103f35750808060200190518101906103f39190610e50565b6001600160a01b03811681146102ca57600080fd5b60008060408385031215610bd657600080fd5b8235610be181610bae565b91506020830135610bf181610bae565b809150509250929050565b600060208284031215610c0e57600080fd5b813561027381610bae565b60008060008060808587031215610c2f57600080fd5b8435610c3a81610bae565b93506020850135610c4a81610bae565b92506040850135610c5a81610bae565b9396929550929360600135925050565b600080600060608486031215610c7f57600080fd5b8335610c8a81610bae565b92506020840135610c9a81610bae565b929592945050506040919091013590565b80151581146102ca57600080fd5b60008060008060808587031215610ccf57600080fd5b8435610cda81610bae565b93506020850135610cea81610bae565b9250604085013591506060850135610d0181610cab565b939692955090935050565b600080600060408486031215610d2157600080fd5b833567ffffffffffffffff80821115610d3957600080fd5b818601915086601f830112610d4d57600080fd5b813581811115610d5c57600080fd5b8760208260051b8501011115610d7157600080fd5b60209283019550935050840135610d8781610bae565b809150509250925092565b600060208284031215610da457600080fd5b5051919050565b602080825260139082015272149bdd5d195c8bdd5b985d5d1a1bdc9a5e9959606a1b604082015260600190565b634e487b7160e01b600052603260045260246000fd5b600060018201610e0e57634e487b7160e01b600052601160045260246000fd5b5060010190565b6000825160005b81811015610e365760208186018101518583015201610e1c565b81811115610e45576000828501525b509190910192915050565b600060208284031215610e6257600080fd5b815161027381610cab56fea2646970667358221220f4e191b1be5a22571f21b2f90ceb3d6b24b8d7face090b8958379a401d212a0264736f6c634300080e0033",
    "linkReferences": {}
  },
  "methodIdentifiers": {
    "MGV()": "99fa5e2d",
    "activate(address[])": "5293840d",
    "admin()": "f851a440",
    "approveMangrove(address)": "9f2211cb",
    "approveRouter(address)": "f259cd27",
    "checkList(address[])": "03eb17e2",
    "expiring(address,address,uint256)": "4e7effa8",
    "getMissingProvision(address,address,uint256,uint256,uint256)": "e4c34f84",
    "has_router()": "84b627f9",
    "makerExecute((address,address,uint256,uint256,uint256,uint256,uint256,uint256,uint256))": "6c49c32c",
    "makerPosthook((address,address,uint256,uint256,uint256,uint256,uint256,uint256,uint256),(bytes32,bytes32))": "3d3d130d",
    "newOffer((address,address,uint256,uint256,uint256,uint256,uint256,uint256))": "5486c95f",
    "offerOwners(address,address,uint256[])": "dec8c86b",
    "ofr_gasreq()": "d1baa1ef",
    "ownerOf(address,address,uint256)": "f92495e5",
    "retractOffer(address,address,uint256,bool)": "ad97db1b",
    "router()": "f887ea40",
    "set_admin(address)": "e9333fab",
    "set_gasreq(uint256)": "fc488a38",
    "set_router(address)": "db11851e",
    "take((address,address,bool,bool,uint256,uint256,uint256,uint256,bool,uint256,uint256,uint256))": "6a1c7d05",
    "tokenBalance(address)": "eedc966a",
    "updateOffer((address,address,uint256,uint256,uint256,uint256,uint256,uint256))": "10aded60",
    "withdrawFromMangrove(uint256,address)": "7144df24",
    "withdrawToken(address,address,uint256)": "01e33667"
  },
  "id": 21
}