{
  "address": "0xE84519D38bAaD858d827B7F27A936c8447eDDD20",
  "abi": [
    {
      "inputs": [
        {
          "internalType": "contract IMangrove",
          "name": "_MGV",
          "type": "address"
        },
        {
          "internalType": "address",
          "name": "deployer",
          "type": "address"
        }
      ],
      "stateMutability": "nonpayable",
      "type": "constructor"
    },
    {
      "anonymous": false,
      "inputs": [
        {
          "indexed": true,
          "internalType": "contract IMangrove",
          "name": "mangrove",
          "type": "address"
        },
        {
          "indexed": true,
          "internalType": "address",
          "name": "user",
          "type": "address"
        },
        {
          "indexed": false,
          "internalType": "uint256",
          "name": "amount",
          "type": "uint256"
        }
      ],
      "name": "CreditMgvUser",
      "type": "event"
    },
    {
      "anonymous": false,
      "inputs": [
        {
          "indexed": true,
          "internalType": "contract IMangrove",
          "name": "mangrove",
          "type": "address"
        },
        {
          "indexed": true,
          "internalType": "address",
          "name": "user",
          "type": "address"
        },
        {
          "indexed": false,
          "internalType": "uint256",
          "name": "amount",
          "type": "uint256"
        }
      ],
      "name": "DebitMgvUser",
      "type": "event"
    },
    {
      "anonymous": false,
      "inputs": [
        {
          "indexed": false,
          "internalType": "contract IMangrove",
          "name": "mangrove",
          "type": "address"
        },
        {
          "indexed": true,
          "internalType": "contract IERC20",
          "name": "outbound_tkn",
          "type": "address"
        },
        {
          "indexed": true,
          "internalType": "contract IERC20",
          "name": "inbound_tkn",
          "type": "address"
        },
        {
          "indexed": true,
          "internalType": "uint256",
          "name": "offerId",
          "type": "uint256"
        },
        {
          "indexed": false,
          "internalType": "bytes32",
          "name": "reason",
          "type": "bytes32"
        }
      ],
      "name": "LogIncident",
      "type": "event"
    },
    {
      "anonymous": false,
      "inputs": [
        {
          "indexed": false,
          "internalType": "contract IMangrove",
          "name": "mangrove",
          "type": "address"
        },
        {
          "indexed": true,
          "internalType": "contract IERC20",
          "name": "outbound_tkn",
          "type": "address"
        },
        {
          "indexed": true,
          "internalType": "contract IERC20",
          "name": "inbound_tkn",
          "type": "address"
        },
        {
          "indexed": true,
          "internalType": "uint256",
          "name": "offerId",
          "type": "uint256"
        },
        {
          "indexed": false,
          "internalType": "address",
          "name": "owner",
          "type": "address"
        }
      ],
      "name": "NewOwnedOffer",
      "type": "event"
    },
    {
      "anonymous": false,
      "inputs": [
        {
          "indexed": false,
          "internalType": "contract IMangrove",
          "name": "mangrove",
          "type": "address"
        },
        {
          "indexed": true,
          "internalType": "contract IERC20",
          "name": "base",
          "type": "address"
        },
        {
          "indexed": true,
          "internalType": "contract IERC20",
          "name": "quote",
          "type": "address"
        },
        {
          "indexed": true,
          "internalType": "address",
          "name": "taker",
          "type": "address"
        },
        {
          "indexed": false,
          "internalType": "bool",
          "name": "selling",
          "type": "bool"
        },
        {
          "indexed": false,
          "internalType": "uint256",
          "name": "takerGot",
          "type": "uint256"
        },
        {
          "indexed": false,
          "internalType": "uint256",
          "name": "takerGave",
          "type": "uint256"
        },
        {
          "indexed": false,
          "internalType": "uint256",
          "name": "penalty",
          "type": "uint256"
        },
        {
          "indexed": false,
          "internalType": "uint256",
          "name": "restingOrderId",
          "type": "uint256"
        }
      ],
      "name": "OrderSummary",
      "type": "event"
    },
    {
      "anonymous": false,
      "inputs": [
        {
          "indexed": false,
          "internalType": "uint256",
          "name": "",
          "type": "uint256"
        }
      ],
      "name": "SetGasreq",
      "type": "event"
    },
    {
      "anonymous": false,
      "inputs": [
        {
          "indexed": false,
          "internalType": "contract AbstractRouter",
          "name": "",
          "type": "address"
        }
      ],
      "name": "SetRouter",
      "type": "event"
    },
    {
      "inputs": [],
      "name": "MGV",
      "outputs": [
        {
          "internalType": "contract IMangrove",
          "name": "",
          "type": "address"
        }
      ],
      "stateMutability": "view",
      "type": "function"
    },
    {
      "inputs": [
        {
          "internalType": "contract IERC20[]",
          "name": "tokens",
          "type": "address[]"
        }
      ],
      "name": "activate",
      "outputs": [],
      "stateMutability": "nonpayable",
      "type": "function"
    },
    {
      "inputs": [],
      "name": "admin",
      "outputs": [
        {
          "internalType": "address",
          "name": "",
          "type": "address"
        }
      ],
      "stateMutability": "view",
      "type": "function"
    },
    {
      "inputs": [
        {
          "internalType": "contract IERC20",
          "name": "outbound_tkn",
          "type": "address"
        }
      ],
      "name": "approveMangrove",
      "outputs": [],
      "stateMutability": "nonpayable",
      "type": "function"
    },
    {
      "inputs": [
        {
          "internalType": "contract IERC20",
          "name": "token",
          "type": "address"
        }
      ],
      "name": "approveRouter",
      "outputs": [],
      "stateMutability": "nonpayable",
      "type": "function"
    },
    {
      "inputs": [
        {
          "internalType": "contract IERC20[]",
          "name": "tokens",
          "type": "address[]"
        }
      ],
      "name": "checkList",
      "outputs": [],
      "stateMutability": "view",
      "type": "function"
    },
    {
      "inputs": [
        {
          "internalType": "contract IERC20",
          "name": "",
          "type": "address"
        },
        {
          "internalType": "contract IERC20",
          "name": "",
          "type": "address"
        },
        {
          "internalType": "uint256",
          "name": "",
          "type": "uint256"
        }
      ],
      "name": "expiring",
      "outputs": [
        {
          "internalType": "uint256",
          "name": "",
          "type": "uint256"
        }
      ],
      "stateMutability": "view",
      "type": "function"
    },
    {
      "inputs": [
        {
          "internalType": "contract IERC20",
          "name": "outbound_tkn",
          "type": "address"
        },
        {
          "internalType": "contract IERC20",
          "name": "inbound_tkn",
          "type": "address"
        },
        {
          "internalType": "uint256",
          "name": "gasreq",
          "type": "uint256"
        },
        {
          "internalType": "uint256",
          "name": "gasprice",
          "type": "uint256"
        },
        {
          "internalType": "uint256",
          "name": "offerId",
          "type": "uint256"
        }
      ],
      "name": "getMissingProvision",
      "outputs": [
        {
          "internalType": "uint256",
          "name": "",
          "type": "uint256"
        }
      ],
      "stateMutability": "view",
      "type": "function"
    },
    {
      "inputs": [],
      "name": "has_router",
      "outputs": [
        {
          "internalType": "bool",
          "name": "",
          "type": "bool"
        }
      ],
      "stateMutability": "view",
      "type": "function"
    },
    {
      "inputs": [
        {
          "components": [
            {
              "internalType": "address",
              "name": "outbound_tkn",
              "type": "address"
            },
            {
              "internalType": "address",
              "name": "inbound_tkn",
              "type": "address"
            },
            {
              "internalType": "uint256",
              "name": "offerId",
              "type": "uint256"
            },
            {
              "internalType": "t",
              "name": "offer",
              "type": "uint256"
            },
            {
              "internalType": "uint256",
              "name": "wants",
              "type": "uint256"
            },
            {
              "internalType": "uint256",
              "name": "gives",
              "type": "uint256"
            },
            {
              "internalType": "t",
              "name": "offerDetail",
              "type": "uint256"
            },
            {
              "internalType": "t",
              "name": "global",
              "type": "uint256"
            },
            {
              "internalType": "t",
              "name": "local",
              "type": "uint256"
            }
          ],
          "internalType": "struct MgvLib.SingleOrder",
          "name": "order",
          "type": "tuple"
        }
      ],
      "name": "makerExecute",
      "outputs": [
        {
          "internalType": "bytes32",
          "name": "ret",
          "type": "bytes32"
        }
      ],
      "stateMutability": "nonpayable",
      "type": "function"
    },
    {
      "inputs": [
        {
          "components": [
            {
              "internalType": "address",
              "name": "outbound_tkn",
              "type": "address"
            },
            {
              "internalType": "address",
              "name": "inbound_tkn",
              "type": "address"
            },
            {
              "internalType": "uint256",
              "name": "offerId",
              "type": "uint256"
            },
            {
              "internalType": "t",
              "name": "offer",
              "type": "uint256"
            },
            {
              "internalType": "uint256",
              "name": "wants",
              "type": "uint256"
            },
            {
              "internalType": "uint256",
              "name": "gives",
              "type": "uint256"
            },
            {
              "internalType": "t",
              "name": "offerDetail",
              "type": "uint256"
            },
            {
              "internalType": "t",
              "name": "global",
              "type": "uint256"
            },
            {
              "internalType": "t",
              "name": "local",
              "type": "uint256"
            }
          ],
          "internalType": "struct MgvLib.SingleOrder",
          "name": "order",
          "type": "tuple"
        },
        {
          "components": [
            {
              "internalType": "bytes32",
              "name": "makerData",
              "type": "bytes32"
            },
            {
              "internalType": "bytes32",
              "name": "mgvData",
              "type": "bytes32"
            }
          ],
          "internalType": "struct MgvLib.OrderResult",
          "name": "result",
          "type": "tuple"
        }
      ],
      "name": "makerPosthook",
      "outputs": [],
      "stateMutability": "nonpayable",
      "type": "function"
    },
    {
      "inputs": [
        {
          "components": [
            {
              "internalType": "contract IERC20",
              "name": "outbound_tkn",
              "type": "address"
            },
            {
              "internalType": "contract IERC20",
              "name": "inbound_tkn",
              "type": "address"
            },
            {
              "internalType": "uint256",
              "name": "wants",
              "type": "uint256"
            },
            {
              "internalType": "uint256",
              "name": "gives",
              "type": "uint256"
            },
            {
              "internalType": "uint256",
              "name": "gasreq",
              "type": "uint256"
            },
            {
              "internalType": "uint256",
              "name": "gasprice",
              "type": "uint256"
            },
            {
              "internalType": "uint256",
              "name": "pivotId",
              "type": "uint256"
            },
            {
              "internalType": "uint256",
              "name": "offerId",
              "type": "uint256"
            }
          ],
          "internalType": "struct IOfferLogic.MakerOrder",
          "name": "mko",
          "type": "tuple"
        }
      ],
      "name": "newOffer",
      "outputs": [
        {
          "internalType": "uint256",
          "name": "offerId",
          "type": "uint256"
        }
      ],
      "stateMutability": "payable",
      "type": "function"
    },
    {
      "inputs": [
        {
          "internalType": "contract IERC20",
          "name": "outbound_tkn",
          "type": "address"
        },
        {
          "internalType": "contract IERC20",
          "name": "inbound_tkn",
          "type": "address"
        },
        {
          "internalType": "uint256[]",
          "name": "offerIds",
          "type": "uint256[]"
        }
      ],
      "name": "offerOwners",
      "outputs": [
        {
          "internalType": "address[]",
          "name": "_offerOwners",
          "type": "address[]"
        }
      ],
      "stateMutability": "view",
      "type": "function"
    },
    {
      "inputs": [
        {
          "internalType": "address",
          "name": "owner",
          "type": "address"
        },
        {
          "internalType": "contract IERC20",
          "name": "outbound_tkn",
          "type": "address"
        },
        {
          "internalType": "contract IERC20",
          "name": "inbound_tkn",
          "type": "address"
        }
      ],
      "name": "offersOfOwner",
      "outputs": [
        {
          "internalType": "uint256[]",
          "name": "live",
          "type": "uint256[]"
        },
        {
          "internalType": "uint256[]",
          "name": "dead",
          "type": "uint256[]"
        }
      ],
      "stateMutability": "view",
      "type": "function"
    },
    {
      "inputs": [],
      "name": "ofr_gasreq",
      "outputs": [
        {
          "internalType": "uint256",
          "name": "",
          "type": "uint256"
        }
      ],
      "stateMutability": "view",
      "type": "function"
    },
    {
      "inputs": [
        {
          "internalType": "contract IERC20",
          "name": "outbound_tkn",
          "type": "address"
        },
        {
          "internalType": "contract IERC20",
          "name": "inbound_tkn",
          "type": "address"
        },
        {
          "internalType": "uint256",
          "name": "offerId",
          "type": "uint256"
        }
      ],
      "name": "ownerOf",
      "outputs": [
        {
          "internalType": "address",
          "name": "owner",
          "type": "address"
        }
      ],
      "stateMutability": "view",
      "type": "function"
    },
    {
      "inputs": [
        {
          "internalType": "contract IERC20",
          "name": "outbound_tkn",
          "type": "address"
        },
        {
          "internalType": "contract IERC20",
          "name": "inbound_tkn",
          "type": "address"
        },
        {
          "internalType": "uint256",
          "name": "offerId",
          "type": "uint256"
        },
        {
          "internalType": "bool",
          "name": "deprovision",
          "type": "bool"
        }
      ],
      "name": "retractOffer",
      "outputs": [
        {
          "internalType": "uint256",
          "name": "free_wei",
          "type": "uint256"
        }
      ],
      "stateMutability": "nonpayable",
      "type": "function"
    },
    {
      "inputs": [],
      "name": "router",
      "outputs": [
        {
          "internalType": "contract AbstractRouter",
          "name": "",
          "type": "address"
        }
      ],
      "stateMutability": "view",
      "type": "function"
    },
    {
      "inputs": [
        {
          "internalType": "address",
          "name": "_admin",
          "type": "address"
        }
      ],
      "name": "set_admin",
      "outputs": [],
      "stateMutability": "nonpayable",
      "type": "function"
    },
    {
      "inputs": [
        {
          "internalType": "uint256",
          "name": "gasreq",
          "type": "uint256"
        }
      ],
      "name": "set_gasreq",
      "outputs": [],
      "stateMutability": "nonpayable",
      "type": "function"
    },
    {
      "inputs": [
        {
          "internalType": "contract AbstractRouter",
          "name": "router_",
          "type": "address"
        }
      ],
      "name": "set_router",
      "outputs": [],
      "stateMutability": "nonpayable",
      "type": "function"
    },
    {
      "inputs": [
        {
          "components": [
            {
              "internalType": "contract IERC20",
              "name": "base",
              "type": "address"
            },
            {
              "internalType": "contract IERC20",
              "name": "quote",
              "type": "address"
            },
            {
              "internalType": "bool",
              "name": "partialFillNotAllowed",
              "type": "bool"
            },
            {
              "internalType": "bool",
              "name": "selling",
              "type": "bool"
            },
            {
              "internalType": "uint256",
              "name": "wants",
              "type": "uint256"
            },
            {
              "internalType": "uint256",
              "name": "makerWants",
              "type": "uint256"
            },
            {
              "internalType": "uint256",
              "name": "gives",
              "type": "uint256"
            },
            {
              "internalType": "uint256",
              "name": "makerGives",
              "type": "uint256"
            },
            {
              "internalType": "bool",
              "name": "restingOrder",
              "type": "bool"
            },
            {
              "internalType": "uint256",
              "name": "retryNumber",
              "type": "uint256"
            },
            {
              "internalType": "uint256",
              "name": "gasForMarketOrder",
              "type": "uint256"
            },
            {
              "internalType": "uint256",
              "name": "blocksToLiveForRestingOrder",
              "type": "uint256"
            }
          ],
          "internalType": "struct IOrderLogic.TakerOrder",
          "name": "tko",
          "type": "tuple"
        }
      ],
      "name": "take",
      "outputs": [
        {
          "components": [
            {
              "internalType": "uint256",
              "name": "takerGot",
              "type": "uint256"
            },
            {
              "internalType": "uint256",
              "name": "takerGave",
              "type": "uint256"
            },
            {
              "internalType": "uint256",
              "name": "bounty",
              "type": "uint256"
            },
            {
              "internalType": "uint256",
              "name": "fee",
              "type": "uint256"
            },
            {
              "internalType": "uint256",
              "name": "offerId",
              "type": "uint256"
            }
          ],
          "internalType": "struct IOrderLogic.TakerOrderResult",
          "name": "res",
          "type": "tuple"
        }
      ],
      "stateMutability": "payable",
      "type": "function"
    },
    {
      "inputs": [
        {
          "internalType": "contract IERC20",
          "name": "token",
          "type": "address"
        }
      ],
      "name": "tokenBalance",
      "outputs": [
        {
          "internalType": "uint256",
          "name": "",
          "type": "uint256"
        }
      ],
      "stateMutability": "view",
      "type": "function"
    },
    {
      "inputs": [
        {
          "components": [
            {
              "internalType": "contract IERC20",
              "name": "outbound_tkn",
              "type": "address"
            },
            {
              "internalType": "contract IERC20",
              "name": "inbound_tkn",
              "type": "address"
            },
            {
              "internalType": "uint256",
              "name": "wants",
              "type": "uint256"
            },
            {
              "internalType": "uint256",
              "name": "gives",
              "type": "uint256"
            },
            {
              "internalType": "uint256",
              "name": "gasreq",
              "type": "uint256"
            },
            {
              "internalType": "uint256",
              "name": "gasprice",
              "type": "uint256"
            },
            {
              "internalType": "uint256",
              "name": "pivotId",
              "type": "uint256"
            },
            {
              "internalType": "uint256",
              "name": "offerId",
              "type": "uint256"
            }
          ],
          "internalType": "struct IOfferLogic.MakerOrder",
          "name": "mko",
          "type": "tuple"
        }
      ],
      "name": "updateOffer",
      "outputs": [],
      "stateMutability": "payable",
      "type": "function"
    },
    {
      "inputs": [
        {
          "internalType": "uint256",
          "name": "amount",
          "type": "uint256"
        },
        {
          "internalType": "address payable",
          "name": "receiver",
          "type": "address"
        }
      ],
      "name": "withdrawFromMangrove",
      "outputs": [],
      "stateMutability": "nonpayable",
      "type": "function"
    },
    {
      "inputs": [
        {
          "internalType": "contract IERC20",
          "name": "token",
          "type": "address"
        },
        {
          "internalType": "address",
          "name": "receiver",
          "type": "address"
        },
        {
          "internalType": "uint256",
          "name": "amount",
          "type": "uint256"
        }
      ],
      "name": "withdrawToken",
      "outputs": [
        {
          "internalType": "bool",
          "name": "success",
          "type": "bool"
        }
      ],
      "stateMutability": "nonpayable",
      "type": "function"
    },
    {
      "stateMutability": "payable",
      "type": "receive"
    }
  ],
  "transactionHash": "0x70e9beeedde82f5c557fa196af42deac40a4844d2a1b9f16093bc3eec75cd383",
  "args": [
    "0xF3e339d8a0B989114412fa157Cc846ebaf4BCbd8",
    "0x47897EE61498D02B18794601Ed3A71896A1Ff894"
  ],
  "numDeployments": 1,
  "solcInputHash": "1ba526670d5f571949f7697b867390be",
  "bytecode": "0x60a06040523480156200001157600080fd5b506040516200696a3803806200696a833981016040819052620000349162000612565b8181816040516200004590620005eb565b604051809103906000f08015801562000062573d6000803e3d6000fd5b5062015f9082828282813380620000c05760405162461bcd60e51b815260206004820152601860248201527f616363657373436f6e74726f6c6c65642f307841646d696e000000000000000060448201526064015b60405180910390fd5b80620000d66200026960201b62002ed31760201c565b80546001600160a01b0319166001600160a01b03929092169190911790555062ffffff811681146200014b5760405162461bcd60e51b815260206004820152601b60248201527f4d616e67726f76654f666665722f676173726571546f6f4869676800000000006044820152606401620000b7565b6001600160a01b038216608052806200016f6200028d602090811b62002ef717901c565b5550506001600160a01b038216620001bf5760405162461bcd60e51b815260206004820152601260248201527126bab63a34aab9b2b917983c2937baba32b960711b6044820152606401620000b7565b620001ca82620002b1565b505050505050336001600160a01b0316816001600160a01b0316146200025f57620001f5816200045b565b620001ff62000556565b60405163e9333fab60e01b81526001600160a01b038381166004830152919091169063e9333fab90602401600060405180830381600087803b1580156200024557600080fd5b505af11580156200025a573d6000803e3d6000fd5b505050505b5050505062000651565b7f7d382ebca3e46505071795e192d28166a3d4bd0685585591bc6c5b8df6769fd290565b7fae7e31c3220e851db9f204a28b279dfe52b973600b0a456991089c220ae7222490565b620002bb620005c5565b6001600160a01b0316336001600160a01b03161480620002ee57506080516001600160a01b0316336001600160a01b0316145b6200033c5760405162461bcd60e51b815260206004820152601860248201527f416363657373436f6e74726f6c6c65642f496e76616c696400000000000000006044820152606401620000b7565b6001600160a01b038116620003945760405162461bcd60e51b815260206004820152601c60248201527f6d67764f666665722f7365745f726f757465722f3078526f75746572000000006044820152606401620000b7565b80620003aa6200028d60201b62002ef71760201c565b60010180546001600160a01b0319166001600160a01b039283161790556040516381bac14f60e01b8152306004820152908216906381bac14f90602401600060405180830381600087803b1580156200040257600080fd5b505af115801562000417573d6000803e3d6000fd5b50506040516001600160a01b03841681527f6de4326a8b9054d72d9dbab97d27bc4edffadee7d966f5af9cc4eafdaf8e54559250602001905060405180910390a150565b62000465620005c5565b6001600160a01b0316336001600160a01b031614620004c75760405162461bcd60e51b815260206004820152601860248201527f416363657373436f6e74726f6c6c65642f496e76616c696400000000000000006044820152606401620000b7565b6001600160a01b0381166200051f5760405162461bcd60e51b815260206004820152601860248201527f416363657373436f6e74726f6c6c65642f307841646d696e00000000000000006044820152606401620000b7565b80620005356200026960201b62002ed31760201c565b80546001600160a01b0319166001600160a01b039290921691909117905550565b6000806200056e6200028d60201b62002ef71760201c565b600101546001600160a01b0316905080620005c05760405162461bcd60e51b815260206004820152601160248201527036b3bb27b33332b917983c2937baba32b960791b6044820152606401620000b7565b919050565b6000620005dc6200026960201b62002ed31760201c565b546001600160a01b0316919050565b6116f3806200527783390190565b6001600160a01b03811681146200060f57600080fd5b50565b600080604083850312156200062657600080fd5b82516200063381620005f9565b60208401519092506200064681620005f9565b809150509250929050565b608051614b4662000731600039600081816103ce015281816107f101528181610a1801528181610be901528181610ce401528181610ffc015281816113b3015281816118940152818161191a01528181611b8801528181611c3301528181611e1701528181611f73015281816120330152818161212a01528181612439015281816126bf015281816127740152818161291b01528181612dbe01528181613052015281816131110152818161318f015281816134760152818161364b0152818161398101528181613ab201528181614040015261434f0152614b466000f3fe6080604052600436106101a55760003560e01c80639f2211cb116100e1578063e9333fab1161008a578063f851a44011610064578063f851a4401461052a578063f887ea4014610567578063f92495e51461057c578063fc488a381461059c57600080fd5b8063e9333fab146104ca578063eedc966a146104ea578063f259cd271461050a57600080fd5b8063db11851e116100bb578063db11851e1461045d578063dec8c86b1461047d578063e4c34f84146104aa57600080fd5b80639f2211cb14610408578063ad97db1b14610428578063d1baa1ef1461044857600080fd5b80635293840d1161014e5780636c49c32c116101285780636c49c32c1461033d5780637144df241461035d57806384b627f91461037d57806399fa5e2d146103bc57600080fd5b80635293840d146102b55780635486c95f146102d55780636a1c7d05146102e857600080fd5b806337b966bf1161017f57806337b966bf1461021b5780633d3d130d146102495780634e7effa81461026957600080fd5b806301e33667146101b157806303eb17e2146101e657806310aded601461020857600080fd5b366101ac57005b600080fd5b3480156101bd57600080fd5b506101d16101cc366004614400565b6105bc565b60405190151581526020015b60405180910390f35b3480156101f257600080fd5b5061020661020136600461448d565b6106ed565b005b6102066102163660046144cf565b61073e565b34801561022757600080fd5b5061023b6102363660046144e2565b6107a5565b6040516101dd929190614568565b34801561025557600080fd5b506102066102643660046145a9565b610be7565b34801561027557600080fd5b506102a7610284366004614400565b600160209081526000938452604080852082529284528284209052825290205481565b6040519081526020016101dd565b3480156102c157600080fd5b506102066102d036600461448d565b610d48565b6102a76102e33660046144cf565b610e0d565b6102fb6102f6366004614609565b610e2e565b6040516101dd9190600060a082019050825182526020830151602083015260408301516040830152606083015160608301526080830151608083015292915050565b34801561034957600080fd5b506102a761035836600461461c565b611916565b34801561036957600080fd5b50610206610378366004614639565b611aba565b34801561038957600080fd5b507fae7e31c3220e851db9f204a28b279dfe52b973600b0a456991089c220ae72225546001600160a01b031615156101d1565b3480156103c857600080fd5b506103f07f000000000000000000000000000000000000000000000000000000000000000081565b6040516001600160a01b0390911681526020016101dd565b34801561041457600080fd5b50610206610423366004614669565b611de7565b34801561043457600080fd5b506102a7610443366004614694565b611efe565b34801561045457600080fd5b506102a7612301565b34801561046957600080fd5b50610206610478366004614669565b6123fb565b34801561048957600080fd5b5061049d6104983660046146e7565b612600565b6040516101dd919061474c565b3480156104b657600080fd5b506102a76104c5366004614799565b6126b1565b3480156104d657600080fd5b506102066104e5366004614669565b6129bd565b3480156104f657600080fd5b506102a7610505366004614669565b612ae5565b34801561051657600080fd5b50610206610525366004614669565b612b7a565b34801561053657600080fd5b507f7d382ebca3e46505071795e192d28166a3d4bd0685585591bc6c5b8df6769fd2546001600160a01b03166103f0565b34801561057357600080fd5b506103f0612c85565b34801561058857600080fd5b506103f0610597366004614400565b612d05565b3480156105a857600080fd5b506102066105b73660046147ea565b612d80565b60006001600160a01b03831661063f5760405162461bcd60e51b815260206004820152602260248201527f4d756c7469557365722f7769746864726177546f6b656e2f307852656365697660448201527f657200000000000000000000000000000000000000000000000000000000000060648201526084015b60405180910390fd5b610647612c85565b6040517f21754d9e0000000000000000000000000000000000000000000000000000000081526001600160a01b03868116600483015233602483015285811660448301526064820185905291909116906321754d9e906084016020604051808303816000875af11580156106bf573d6000803e3d6000fd5b505050506040513d601f19601f820116820180604052508101906106e39190614803565b90505b9392505050565b60005b818110156107395761072783838381811061070d5761070d614820565b90506020020160208101906107229190614669565b612f1b565b806107318161487e565b9150506106f0565b505050565b610756610750368390038301836148e5565b34612fa6565b6107a25760405162461bcd60e51b815260206004820152601960248201527f4d756c7469557365722f7570646174654f666665724661696c000000000000006044820152606401610636565b50565b6001600160a01b0380831660009081526002602090815260408083208585168452825280832093871683529281528282208280529052908120546060918291908190805b821561097a577f00000000000000000000000000000000000000000000000000000000000000006001600160a01b03166327507458816368c13d6b8b8b6040517fffffffff0000000000000000000000000000000000000000000000000000000060e085901b1681526001600160a01b0392831660048201529116602482015260448101889052606401602060405180830381865afa158015610890573d6000803e3d6000fd5b505050506040513d601f19601f820116820180604052508101906108b491906149aa565b6040518263ffffffff1660e01b81526004016108d291815260200190565b602060405180830381865afa1580156108ef573d6000803e3d6000fd5b505050506040513d601f19601f820116820180604052508101906109139190614803565b1561092a57816109228161487e565b925050610938565b806109348161487e565b9150505b6001600160a01b0380891660009081526002602090815260408083208b851684528252808320938d1683529281528282209582529490945290922054916107e9565b8167ffffffffffffffff811115610993576109936148b6565b6040519080825280602002602001820160405280156109bc578160200160208202803683370190505b5095508067ffffffffffffffff8111156109d8576109d86148b6565b604051908082528060200260200182016040528015610a01578160200160208202803683370190505b50945083925060009150600090505b8215610bdb577f00000000000000000000000000000000000000000000000000000000000000006001600160a01b03166327507458816368c13d6b8b8b6040517fffffffff0000000000000000000000000000000000000000000000000000000060e085901b1681526001600160a01b0392831660048201529116602482015260448101889052606401602060405180830381865afa158015610ab7573d6000803e3d6000fd5b505050506040513d601f19601f82011682018060405250810190610adb91906149aa565b6040518263ffffffff1660e01b8152600401610af991815260200190565b602060405180830381865afa158015610b16573d6000803e3d6000fd5b505050506040513d601f19601f82011682018060405250810190610b3a9190614803565b15610b6e57828683610b4b8161487e565b945081518110610b5d57610b5d614820565b602002602001018181525050610b99565b828582610b7a8161487e565b935081518110610b8c57610b8c614820565b6020026020010181815250505b6001600160a01b0380891660009081526002602090815260408083208b851684528252808320938d168352928152828220958252949094529092205491610a10565b50505050935093915050565b7f00000000000000000000000000000000000000000000000000000000000000006001600160a01b0381161580610c265750336001600160a01b038216145b610c725760405162461bcd60e51b815260206004820152601860248201527f416363657373436f6e74726f6c6c65642f496e76616c696400000000000000006044820152606401610636565b81602001357f6d67762f7472616465537563636573730000000000000000000000000000000003610cac57610ca683613579565b50505050565b60408301803590610cc09060208601614669565b6001600160a01b0316610cd66020860186614669565b604080516001600160a01b037f0000000000000000000000000000000000000000000000000000000000000000811682528735602083015292909216917f736a3993b9f8b1c5603896c76376792887f376b1fe7fc981e09a16530bf1e4e0910160405180910390a4610ca683836135b7565b7f7d382ebca3e46505071795e192d28166a3d4bd0685585591bc6c5b8df6769fd2546001600160a01b03163314610dc15760405162461bcd60e51b815260206004820152601860248201527f416363657373436f6e74726f6c6c65642f496e76616c696400000000000000006044820152606401610636565b60005b8181101561073957610dfb838383818110610de157610de1614820565b9050602002016020810190610df69190614669565b613870565b80610e058161487e565b915050610dc4565b6000610e28610e21368490038401846148e5565b3334613933565b92915050565b610e606040518060a0016040528060008152602001600081526020016000815260200160008152602001600081525090565b600080610e7360808501606086016149c3565b610e9957610e846020850185614669565b610e946040860160208701614669565b610eb6565b610ea96040850160208601614669565b610eb66020860186614669565b915091506000610ec4612c85565b6040517f333dbb0d0000000000000000000000000000000000000000000000000000000081526001600160a01b03848116600483015233602483015260c0880135604483015260016064830152919091169063333dbb0d906084016020604051808303816000875af1158015610f3e573d6000803e3d6000fd5b505050506040513d601f19601f82011682018060405250810190610f6291906149aa565b90508460c001358114610fb75760405162461bcd60e51b815260206004820152601a60248201527f6d67764f726465722f6d6f2f7472616e73666572496e4661696c0000000000006044820152606401610636565b60005b610fca61012087013560016149e0565b8110156111805761014086013515801590610fe957508561014001355a105b6111805760008080806001600160a01b037f00000000000000000000000000000000000000000000000000000000000000001663fbffe5fd89898d608001358e60c001358f606001602081019061104091906149c3565b61104b57600161104e565b60005b6040517fffffffff0000000000000000000000000000000000000000000000000000000060e088901b1681526001600160a01b039586166004820152949093166024850152604484019190915260648301521515608482015260a4016080604051808303816000875af11580156110c9573d6000803e3d6000fd5b505050506040513d601f19601f820116820180604052508101906110ed91906149f8565b9350935093509350838960000181815161110791906149e0565b90525060208901805184919061111e9083906149e0565b9052506040890180518391906111359083906149e0565b90525060608901805182919061114c9083906149e0565b9052508315801561115b575081155b156111695750505050611180565b5050505080806111789061487e565b915050610fba565b50600061118d8686613bce565b905061119f60608701604088016149c3565b15806111a85750805b806111c057506111c0610120870161010088016149c3565b61120c5760405162461bcd60e51b815260206004820152601960248201527f6d67764f726465722f6d6f2f6e6f5061727469616c46696c6c000000000000006044820152606401610636565b8451156112a05761121b612c85565b85516040517f26e8eda20000000000000000000000000000000000000000000000000000000081526001600160a01b03878116600483015233602483015260448201929092529116906326e8eda290606401600060405180830381600087803b15801561128757600080fd5b505af115801561129b573d6000803e3d6000fd5b505050505b6112b2610120870161010088016149c3565b80156112bc575080155b156116d65760408051610100810182526001600160a01b038086168252861660208201526060870151875161134a938301916112f7916149e0565b6113059060a08b0135614a2e565b815260200187602001518960e0013561131e9190614a2e565b815260200161132b612301565b8152602001600081526020016000815260200160008152503334613933565b6080860181905261136090339085908790613c17565b336113716040880160208901614669565b6001600160a01b03166113876020890189614669565b6001600160a01b03167f587734843819064f2153f96c808d1aeacaceccfa595ec4b9ed484c4bff687f7c7f00000000000000000000000000000000000000000000000000000000000000006113e260808c0160608d016149c3565b8a5160208c01516040808e015160808f015191516114329695949392906001600160a01b03969096168652931515602086015260408501929092526060840152608083015260a082015260c00190565b60405180910390a484608001516000036115d65761145660608701604088016149c3565b156114a35760405162461bcd60e51b815260206004820152601960248201527f6d67764f726465722f6d6f2f6e6f5061727469616c46696c6c000000000000006044820152606401610636565b6114c1833387602001518960c001356114bc9190614a2e565b613c98565b61150d5760405162461bcd60e51b815260206004820152601a60248201527f6d67764f726465722f6d6f2f7472616e73666572496e4661696c0000000000006044820152606401610636565b600085604001513461151f91906149e0565b11156115cd576040850151600090339061153990346149e0565b604051600081818185875af1925050503d8060008114611575576040519150601f19603f3d011682016040523d82523d6000602084013e61157a565b606091505b50509050806115cb5760405162461bcd60e51b815260206004820152601f60248201527f6d67764f726465722f6d6f2f726566756e6450726f766973696f6e4661696c006044820152606401610636565b505b50505050919050565b6115de612c85565b6001600160a01b03166326e8eda2843388602001518a60c001356116029190614a2e565b6040517fffffffff0000000000000000000000000000000000000000000000000000000060e086901b1681526001600160a01b0393841660048201529290911660248301526044820152606401600060405180830381600087803b15801561166957600080fd5b505af115801561167d573d6000803e3d6000fd5b50505050610160860135156115cd5761169b610160870135436149e0565b6001600160a01b038085166000908152600160209081526040808320938916835292815282822060808a015183529052205550505050919050565b6116de612c85565b6001600160a01b03166326e8eda2843388602001518a60c001356117029190614a2e565b6040517fffffffff0000000000000000000000000000000000000000000000000000000060e086901b1681526001600160a01b0393841660048201529290911660248301526044820152606401600060405180830381600087803b15801561176957600080fd5b505af115801561177d573d6000803e3d6000fd5b50505050600085604001513461179391906149e0565b111561184157604085015160009033906117ad90346149e0565b604051600081818185875af1925050503d80600081146117e9576040519150601f19603f3d011682016040523d82523d6000602084013e6117ee565b606091505b505090508061183f5760405162461bcd60e51b815260206004820152601660248201527f6d67764f726465722f6d6f2f726566756e644661696c000000000000000000006044820152606401610636565b505b336118526040880160208901614669565b6001600160a01b03166118686020890189614669565b6001600160a01b03167f587734843819064f2153f96c808d1aeacaceccfa595ec4b9ed484c4bff687f7c7f00000000000000000000000000000000000000000000000000000000000000006118c360808c0160608d016149c3565b8a516020808d01516040808f015181516001600160a01b039097168752941515928601929092529084019190915260608301526080820152600060a082015260c00160405180910390a450505050919050565b60007f00000000000000000000000000000000000000000000000000000000000000006001600160a01b03811615806119575750336001600160a01b038216145b6119a35760405162461bcd60e51b815260206004820152601860248201527f416363657373436f6e74726f6c6c65642f496e76616c696400000000000000006044820152606401610636565b6119ac83613dbc565b6119f85760405162461bcd60e51b815260206004820152601660248201527f6d67764f666665722f61626f72742f72656e65676564000000000000000000006044820152606401610636565b6000611a088460a0013585613e41565b1115611a565760405162461bcd60e51b815260206004820152601860248201527f6d67764f666665722f61626f72742f7075744661696c656400000000000000006044820152606401610636565b6000611a66846080013585613f13565b1115611ab45760405162461bcd60e51b815260206004820152601860248201527f6d67764f666665722f61626f72742f6765744661696c656400000000000000006044820152606401610636565b50919050565b7f7d382ebca3e46505071795e192d28166a3d4bd0685585591bc6c5b8df6769fd2546001600160a01b03163314611b335760405162461bcd60e51b815260206004820152601860248201527f416363657373436f6e74726f6c6c65642f496e76616c696400000000000000006044820152606401610636565b7fffffffffffffffffffffffffffffffffffffffffffffffffffffffffffffffff8203611c04576040517f70a082310000000000000000000000000000000000000000000000000000000081523060048201527f00000000000000000000000000000000000000000000000000000000000000006001600160a01b0316906370a0823190602401602060405180830381865afa158015611bd7573d6000803e3d6000fd5b505050506040513d601f19601f82011682018060405250810190611bfb91906149aa565b91508115611de3575b6040517f2e1a7d4d000000000000000000000000000000000000000000000000000000008152600481018390527f00000000000000000000000000000000000000000000000000000000000000006001600160a01b031690632e1a7d4d906024016020604051808303816000875af1158015611c84573d6000803e3d6000fd5b505050506040513d601f19601f82011682018060405250810190611ca89190614803565b611d1a5760405162461bcd60e51b815260206004820152602560248201527f6d67764f666665722f776974686472617746726f6d4d67762f7769746864726160448201527f774661696c0000000000000000000000000000000000000000000000000000006064820152608401610636565b6000816001600160a01b03168360405160006040518083038185875af1925050503d8060008114611d67576040519150601f19603f3d011682016040523d82523d6000602084013e611d6c565b606091505b50509050806107395760405162461bcd60e51b815260206004820152602860248201527f6d67764f666665722f776974686472617746726f6d4d67762f70617961626c6560448201527f43616c6c4661696c0000000000000000000000000000000000000000000000006064820152608401610636565b5050565b6040517f095ea7b30000000000000000000000000000000000000000000000000000000081526001600160a01b037f0000000000000000000000000000000000000000000000000000000000000000811660048301527fffffffffffffffffffffffffffffffffffffffffffffffffffffffffffffffff602483015282169063095ea7b3906044016020604051808303816000875af1158015611e8e573d6000803e3d6000fd5b505050506040513d601f19601f82011682018060405250810190611eb29190614803565b6107a25760405162461bcd60e51b815260206004820152601d60248201527f6d67764f666665722f617070726f76654d616e67726f76652f4661696c0000006044820152606401610636565b6001600160a01b03848116600090815260208181526040808320878516845282528083208684528252808320815180830190925254938416808252740100000000000000000000000000000000000000009094046bffffffffffffffffffffffff16918101919091529091331480611f9e57507f00000000000000000000000000000000000000000000000000000000000000006001600160a01b031633145b611fea5760405162461bcd60e51b815260206004820152601f60248201527f4d756c74692f726574726163744f666665722f756e617574686f72697a6564006044820152606401610636565b60208101516bffffffffffffffffffffffff1615612029578261200e576000612014565b80602001515b6bffffffffffffffffffffffff1691506120f5565b6001600160a01b037f00000000000000000000000000000000000000000000000000000000000000001663ad97db1b87876040517fffffffff0000000000000000000000000000000000000000000000000000000060e085901b1681526001600160a01b039283166004820152911660248201526044810187905285151560648201526084016020604051808303816000875af11580156120ce573d6000803e3d6000fd5b505050506040513d601f19601f820116820180604052508101906120f291906149aa565b91505b81156122f8576040517f2e1a7d4d000000000000000000000000000000000000000000000000000000008152600481018390527f00000000000000000000000000000000000000000000000000000000000000006001600160a01b031690632e1a7d4d906024016020604051808303816000875af115801561217b573d6000803e3d6000fd5b505050506040513d601f19601f8201168201806040525081019061219f9190614803565b6121eb5760405162461bcd60e51b815260206004820152601660248201527f4d756c7469557365722f77697468647261774661696c000000000000000000006044820152606401610636565b60408051808201825282516001600160a01b039081168252600060208084018281528b841683528282528583208b8516845282528583208a8452909152848220935190516bffffffffffffffffffffffff16740100000000000000000000000000000000000000000292169190911790915590513390849060006040518083038185875af1925050503d80600081146122a0576040519150601f19603f3d011682016040523d82523d6000602084013e6122a5565b606091505b50509050806122f65760405162461bcd60e51b815260206004820152601960248201527f4d756c7469557365722f7765695472616e736665724661696c000000000000006044820152606401610636565b505b50949350505050565b60006123367fae7e31c3220e851db9f204a28b279dfe52b973600b0a456991089c220ae72225546001600160a01b0316151590565b156123d557612343612c85565b6001600160a01b0316630417ffda6040518163ffffffff1660e01b8152600401602060405180830381865afa158015612380573d6000803e3d6000fd5b505050506040513d601f19601f820116820180604052508101906123a491906149aa565b7fae7e31c3220e851db9f204a28b279dfe52b973600b0a456991089c220ae72224546123d091906149e0565b905090565b507fae7e31c3220e851db9f204a28b279dfe52b973600b0a456991089c220ae722245490565b7f7d382ebca3e46505071795e192d28166a3d4bd0685585591bc6c5b8df6769fd2546001600160a01b031633148061245b5750336001600160a01b037f000000000000000000000000000000000000000000000000000000000000000016145b6124a75760405162461bcd60e51b815260206004820152601860248201527f416363657373436f6e74726f6c6c65642f496e76616c696400000000000000006044820152606401610636565b6001600160a01b0381166124fd5760405162461bcd60e51b815260206004820152601c60248201527f6d67764f666665722f7365745f726f757465722f3078526f75746572000000006044820152606401610636565b807fae7e31c3220e851db9f204a28b279dfe52b973600b0a456991089c220ae7222460010180547fffffffffffffffffffffffff0000000000000000000000000000000000000000166001600160a01b039283161790556040517f81bac14f000000000000000000000000000000000000000000000000000000008152306004820152908216906381bac14f90602401600060405180830381600087803b1580156125a757600080fd5b505af11580156125bb573d6000803e3d6000fd5b50506040516001600160a01b03841681527f6de4326a8b9054d72d9dbab97d27bc4edffadee7d966f5af9cc4eafdaf8e5455925060200190505b60405180910390a150565b60608167ffffffffffffffff81111561261b5761261b6148b6565b604051908082528060200260200182016040528015612644578160200160208202803683370190505b50905060005b828110156122f857612675868686868581811061266957612669614820565b90506020020135612d05565b82828151811061268757612687614820565b6001600160a01b0390921660209283029190910190910152806126a98161487e565b91505061264a565b600080806001600160a01b037f00000000000000000000000000000000000000000000000000000000000000001663cbf75c9a89896040517fffffffff0000000000000000000000000000000000000000000000000000000060e085901b1681526001600160a01b039283166004820152911660248201526044016040805180830381865afa158015612748573d6000803e3d6000fd5b505050506040513d601f19601f8201168201806040525081019061276c9190614a45565b9150915060007f00000000000000000000000000000000000000000000000000000000000000006001600160a01b0316635722647b6127a88b90565b8a6040517fffffffff0000000000000000000000000000000000000000000000000000000060e085901b1681526001600160a01b0392831660048201529116602482015260448101889052606401602060405180830381865afa158015612813573d6000803e3d6000fd5b505050506040513d601f19601f8201168201806040525081019061283791906149aa565b9050600086604085901c61ffff16111561285a575061ffff604084901c1661285d565b50855b62ffffff88106128725761286f612301565b97505b60008161288862ffffff606087901c168b6149e0565b6128929190614a69565b6128a090633b9aca00614a69565b9050600061ffff602085901c166128c762ffffff603087901c811690604888901c166149e0565b6128d19190614a69565b6128df90633b9aca00614a69565b6040517f70a082310000000000000000000000000000000000000000000000000000000081523060048201529091506000906001600160a01b037f000000000000000000000000000000000000000000000000000000000000000016906370a0823190602401602060405180830381865afa158015612962573d6000803e3d6000fd5b505050506040513d601f19601f8201168201806040525081019061298691906149aa565b61299090836149e0565b9050828110156129a9576129a48184614a2e565b6129ac565b60005b9d9c50505050505050505050505050565b7f7d382ebca3e46505071795e192d28166a3d4bd0685585591bc6c5b8df6769fd2546001600160a01b03163314612a365760405162461bcd60e51b815260206004820152601860248201527f416363657373436f6e74726f6c6c65642f496e76616c696400000000000000006044820152606401610636565b6001600160a01b038116612a8c5760405162461bcd60e51b815260206004820152601860248201527f416363657373436f6e74726f6c6c65642f307841646d696e00000000000000006044820152606401610636565b7f7d382ebca3e46505071795e192d28166a3d4bd0685585591bc6c5b8df6769fd280547fffffffffffffffffffffffff0000000000000000000000000000000000000000166001600160a01b0392909216919091179055565b6000612aef612c85565b6040517f05684fde0000000000000000000000000000000000000000000000000000000081526001600160a01b03848116600483015233602483015291909116906305684fde90604401602060405180830381865afa158015612b56573d6000803e3d6000fd5b505050506040513d601f19601f82011682018060405250810190610e2891906149aa565b806001600160a01b031663095ea7b3612b91612c85565b6040517fffffffff0000000000000000000000000000000000000000000000000000000060e084901b1681526001600160a01b0390911660048201527fffffffffffffffffffffffffffffffffffffffffffffffffffffffffffffffff60248201526044016020604051808303816000875af1158015612c15573d6000803e3d6000fd5b505050506040513d601f19601f82011682018060405250810190612c399190614803565b6107a25760405162461bcd60e51b815260206004820152601b60248201527f6d67764f666665722f617070726f7665526f757465722f4661696c00000000006044820152606401610636565b7fae7e31c3220e851db9f204a28b279dfe52b973600b0a456991089c220ae72225546000906001600160a01b031680612d005760405162461bcd60e51b815260206004820152601160248201527f6d67764f666665722f3078526f757465720000000000000000000000000000006044820152606401610636565b919050565b6001600160a01b038084166000908152602081815260408083208685168452825280832085845290915290205416806106e65760405162461bcd60e51b815260206004820152601560248201527f6d756c7469557365722f756e6b6f776e4f6666657200000000000000000000006044820152606401610636565b7f7d382ebca3e46505071795e192d28166a3d4bd0685585591bc6c5b8df6769fd2546001600160a01b0316331480612de05750336001600160a01b037f000000000000000000000000000000000000000000000000000000000000000016145b612e2c5760405162461bcd60e51b815260206004820152601860248201527f416363657373436f6e74726f6c6c65642f496e76616c696400000000000000006044820152606401610636565b808162ffffff1614612e805760405162461bcd60e51b815260206004820152601860248201527f6d67764f666665722f6761737265712f6f766572666c6f7700000000000000006044820152606401610636565b807fae7e31c3220e851db9f204a28b279dfe52b973600b0a456991089c220ae72224556040518181527fafef3ad374c0b972e3c793be825735801fa05cc4c67157d98d9a111b4027988d906020016125f5565b7f7d382ebca3e46505071795e192d28166a3d4bd0685585591bc6c5b8df6769fd290565b7fae7e31c3220e851db9f204a28b279dfe52b973600b0a456991089c220ae7222490565b612f23612c85565b6040517fa01dccd80000000000000000000000000000000000000000000000000000000081526001600160a01b038381166004830152336024830152919091169063a01dccd89060440160006040518083038186803b158015612f8557600080fd5b505afa158015612f99573d6000803e3d6000fd5b505050506107a28161400a565b81516001600160a01b039081166000908152602081815260408083208287015185168452825280832060e0870151845282528083208151808301835290549485168152740100000000000000000000000000000000000000009094046bffffffffffffffffffffffff1684830152805160808101825283815291820183905281018290526060810182905290919081516001600160a01b03163314806130745750336001600160a01b037f000000000000000000000000000000000000000000000000000000000000000016145b6130c05760405162461bcd60e51b815260206004820152601e60248201527f4d756c74692f7570646174654f666665722f756e617574686f72697a656400006044820152606401610636565b8451602086015160e08701516040517f5722647b0000000000000000000000000000000000000000000000000000000081526001600160a01b039384166004820152918316602483015260448201527f000000000000000000000000000000000000000000000000000000000000000090911690635722647b90606401602060405180830381865afa15801561315a573d6000803e3d6000fd5b505050506040513d601f19601f8201168201806040525081019061317e91906149aa565b604082015284516001600160a01b037f0000000000000000000000000000000000000000000000000000000000000000169063cbf75c9a9060208801516040517fffffffff0000000000000000000000000000000000000000000000000000000060e085901b1681526001600160a01b039283166004820152911660248201526044016040805180830381865afa15801561321d573d6000803e3d6000fd5b505050506040513d601f19601f820116820180604052508101906132419190614a45565b6020830152815260608101849052608085015162ffffff1061326757846080015161326f565b61326f612301565b6080860152604081015160201c61ffff1660a086018190526000036133715760208201516bffffffffffffffffffffffff16156133475781602001516bffffffffffffffffffffffff16816060018181516132ca91906149e0565b90525060408051808201825283516001600160a01b039081168252600060208084018281528a51841683528282528583208b83015185168452825285832060e08c01518452909152939020915192516bffffffffffffffffffffffff16740100000000000000000000000000000000000000000292169190911790555b6080850151606080830151602084015161336793921c62ffffff1661412a565b60a08601526133f2565b83156133f257602081015160601c62ffffff16604082015160481c62ffffff1661339b91906149e0565b60a08601516133ae90633b9aca00614a69565b6133b89190614a69565b816060018181516133c991906149e0565b905250608085015160608083015160208401516133ec93921c62ffffff1661412a565b60a08601525b805160401c61ffff168560a0015110156134745760405162461bcd60e51b815260206004820152602860248201527f4d756c7469557365722f7570646174654f666665722f4e6f74456e6f7567685060448201527f726f766973696f6e0000000000000000000000000000000000000000000000006064820152608401610636565b7f00000000000000000000000000000000000000000000000000000000000000006001600160a01b0316636a4f7691856134af886000015190565b602089015189604001518a606001518b608001518c60a001518d60c001518e60e001516040518a63ffffffff1660e01b81526004016135349897969594939291906001600160a01b03988916815296909716602087015260408601949094526060850192909252608084015260a083015260c082015260e08101919091526101000190565b6000604051808303818588803b15801561354d57600080fd5b505af19350505050801561355f575060015b61356e57600092505050610e28565b506001949350505050565b6000613584826141d6565b905080612d0057611ab461359b6020840184614669565b6135ab6040850160208601614669565b84604001356001611efe565b6000806135c76020850185614669565b905060006135db6040860160208701614669565b6001600160a01b03838116600090815260208181526040808320858516845282528083208a8201358452825280832081518083019092525480851682527401000000000000000000000000000000000000000090046bffffffffffffffffffffffff1681830152939450909182917f00000000000000000000000000000000000000000000000000000000000000009091169063cbf75c9a90613680908b018b614669565b61369060408c0160208d01614669565b6040517fffffffff0000000000000000000000000000000000000000000000000000000060e085901b1681526001600160a01b039283166004820152911660248201526044016040805180830381865afa1580156136f2573d6000803e3d6000fd5b505050506040513d601f19601f820116820180604052508101906137169190614a45565b9092509050600061373361ffff604085901c16633b9aca00614a69565b9050600060c08a013560301c62ffffff1660c08b013560481c62ffffff1661375b91906149e0565b61377461ffff60c08d013560201c16633b9aca00614a69565b61377e9190614a69565b9050600082606085901c62ffffff165a60c08e013560481c62ffffff166137a59190614a2e565b6137b190610bb86149e0565b6137bb91906149e0565b6137c59190614a69565b90506000828210156137e0576137db8284614a2e565b6137e3565b60005b60408051808201825298516001600160a01b039081168a526bffffffffffffffffffffffff9283166020808c019182529c82166000908152808e528381209c831681529b8d52828c209f8301358c529e909b5290982096519b5190971674010000000000000000000000000000000000000000029a90971699909917909355506001979650505050505050565b61387981611de7565b7fae7e31c3220e851db9f204a28b279dfe52b973600b0a456991089c220ae72225546001600160a01b0316156107a2576138b281612b7a565b6138ba612c85565b6040517f1c5a9d9c0000000000000000000000000000000000000000000000000000000081526001600160a01b0383811660048301529190911690631c5a9d9c90602401600060405180830381600087803b15801561391857600080fd5b505af115801561392c573d6000803e3d6000fd5b5050505050565b825160208401516040517fcbf75c9a0000000000000000000000000000000000000000000000000000000081526001600160a01b0392831660048201529082166024820152600091829182917f0000000000000000000000000000000000000000000000000000000000000000169063cbf75c9a906044016040805180830381865afa1580156139c7573d6000803e3d6000fd5b505050506040513d601f19601f820116820180604052508101906139eb9190614a45565b9150915062ffffff8016866080015111613a09578560800151613a11565b613a11612301565b60808701819052613a2c9085606084901c62ffffff1661412a565b60a0870181905261ffff604084901c161115613ab05760405162461bcd60e51b815260206004820152602560248201527f4d756c7469557365722f6e65774f666665722f4e6f74456e6f75676850726f7660448201527f6973696f6e0000000000000000000000000000000000000000000000000000006064820152608401610636565b7f00000000000000000000000000000000000000000000000000000000000000006001600160a01b03166349f6d2dc85613aeb896000015190565b60208a01518a604001518b606001518c608001518d60a001518e60c001516040518963ffffffff1660e01b8152600401613b6497969594939291906001600160a01b03978816815295909616602086015260408501939093526060840191909152608083015260a082015260c081019190915260e00190565b60206040518083038185885af1158015613b82573d6000803e3d6000fd5b50505050506040513d601f19601f82011682018060405250810190613ba791906149aa565b60e0870181905286516020880151613bbf92886142ad565b50505060e08301519392505050565b6000613be060808401606085016149c3565b15613bf8578260c00135826020015110159050610e28565b60608201518251608085013591613c0e916149e0565b10159050610e28565b6001600160a01b038381166000908152600260209081526040808320868516845282528083209388168352928152828220828052905220805490829055801561392c576001600160a01b0393841660009081526002602090815260408083209587168352948152848220969095168152948452828520918552925290912055565b6000811580613caf57506001600160a01b03831630145b15613cbc575060016106e6565b604080516001600160a01b038581166024830152604480830186905283518084039091018152606490920183526020820180517bffffffffffffffffffffffffffffffffffffffffffffffffffffffff167fa9059cbb000000000000000000000000000000000000000000000000000000001790529151600092839290881691613d469190614aa6565b6000604051808303816000865af19150503d8060008114613d83576040519150601f19603f3d011682016040523d82523d6000602084013e613d88565b606091505b5091509150818015613db2575080511580613db2575080806020019051810190613db29190614803565b9695505050505050565b600080600181613dcf6020860186614669565b6001600160a01b03166001600160a01b031681526020019081526020016000206000846020016020810190613e049190614669565b6001600160a01b031681526020808201929092526040908101600090812086830135825290925290205490508015806106e6575043111592915050565b600080613e516020840184614669565b90506000613e656040850160208601614669565b90506000613e7883838760400135612d05565b9050613e82612c85565b6040517f26e8eda20000000000000000000000000000000000000000000000000000000081526001600160a01b03848116600483015283811660248301526044820189905291909116906326e8eda290606401600060405180830381600087803b158015613eef57600080fd5b505af1158015613f03573d6000803e3d6000fd5b5060009998505050505050505050565b600080613f236020840184614669565b90506000613f376040850160208601614669565b90506000613f4a83838760400135612d05565b90506000613f56612c85565b6040517f333dbb0d0000000000000000000000000000000000000000000000000000000081526001600160a01b0386811660048301528481166024830152604482018a905260016064830152919091169063333dbb0d906084016020604051808303816000875af1158015613fcf573d6000803e3d6000fd5b505050506040513d601f19601f82011682018060405250810190613ff391906149aa565b9050613fff8188614a2e565b979650505050505050565b6040517fdd62ed3e0000000000000000000000000000000000000000000000000000000081523060048201526001600160a01b037f0000000000000000000000000000000000000000000000000000000000000000811660248301526000919083169063dd62ed3e90604401602060405180830381865afa158015614093573d6000803e3d6000fd5b505050506040513d601f19601f820116820180604052508101906140b791906149aa565b116107a25760405162461bcd60e51b815260206004820152602660248201527f4d616e67726f76654f666665722f41646d696e4d757374417070726f76654d6160448201527f6e67726f766500000000000000000000000000000000000000000000000000006064820152608401610636565b60008061413785846149e0565b61414590633b9aca00614a69565b9050808410156141bd5760405162461bcd60e51b815260206004820152602c60248201527f4d756c7469557365722f6465726976655f67617370726963652f4e6f74456e6f60448201527f75676850726f766973696f6e00000000000000000000000000000000000000006064820152608401610636565b8084816141cc576141cc614ae1565b0495945050505050565b6000806141e283614399565b905060006141ef846143be565b905081600003614203575060019392505050565b6040805161010081019091526142a590806142216020880188614669565b6001600160a01b031681526020018660200160208101906142429190614669565b6001600160a01b03168152602081018490526040810185905260600160c087013560481c62ffffff16815260209081019060c0880135901c61ffff168152602001606087013560c01c63ffffffff16815260200186604001358152506000612fa6565b949350505050565b6040805180820182526001600160a01b038084168252600060208084018281528984168084528383528684208a86168086529084528785208a865290935292869020945190516bffffffffffffffffffffffff1674010000000000000000000000000000000000000000029316929092179092559151849291907f460a431c86ecaea27134277388c72021356689d9eb62c3b25a5e4a97da7a8a149061438b907f00000000000000000000000000000000000000000000000000000000000000009087906001600160a01b0392831681529116602082015260400190565b60405180910390a450505050565b600060808201356bffffffffffffffffffffffff6060840135165b610e289190614a2e565b600060a0820135606080840135901c6bffffffffffffffffffffffff166143b4565b6001600160a01b03811681146107a257600080fd5b8035612d00816143e0565b60008060006060848603121561441557600080fd5b8335614420816143e0565b92506020840135614430816143e0565b929592945050506040919091013590565b60008083601f84011261445357600080fd5b50813567ffffffffffffffff81111561446b57600080fd5b6020830191508360208260051b850101111561448657600080fd5b9250929050565b600080602083850312156144a057600080fd5b823567ffffffffffffffff8111156144b757600080fd5b6144c385828601614441565b90969095509350505050565b60006101008284031215611ab457600080fd5b6000806000606084860312156144f757600080fd5b8335614502816143e0565b92506020840135614512816143e0565b91506040840135614522816143e0565b809150509250925092565b600081518084526020808501945080840160005b8381101561455d57815187529582019590820190600101614541565b509495945050505050565b60408152600061457b604083018561452d565b828103602084015261458d818561452d565b95945050505050565b60006101208284031215611ab457600080fd5b6000808284036101608112156145be57600080fd5b6145c88585614596565b925060407ffffffffffffffffffffffffffffffffffffffffffffffffffffffffffffffee0820112156145fa57600080fd5b50610120830190509250929050565b60006101808284031215611ab457600080fd5b6000610120828403121561462f57600080fd5b6106e68383614596565b6000806040838503121561464c57600080fd5b82359150602083013561465e816143e0565b809150509250929050565b60006020828403121561467b57600080fd5b81356106e6816143e0565b80151581146107a257600080fd5b600080600080608085870312156146aa57600080fd5b84356146b5816143e0565b935060208501356146c5816143e0565b92506040850135915060608501356146dc81614686565b939692955090935050565b600080600080606085870312156146fd57600080fd5b8435614708816143e0565b93506020850135614718816143e0565b9250604085013567ffffffffffffffff81111561473457600080fd5b61474087828801614441565b95989497509550505050565b6020808252825182820181905260009190848201906040850190845b8181101561478d5783516001600160a01b031683529284019291840191600101614768565b50909695505050505050565b600080600080600060a086880312156147b157600080fd5b85356147bc816143e0565b945060208601356147cc816143e0565b94979496505050506040830135926060810135926080909101359150565b6000602082840312156147fc57600080fd5b5035919050565b60006020828403121561481557600080fd5b81516106e681614686565b7f4e487b7100000000000000000000000000000000000000000000000000000000600052603260045260246000fd5b7f4e487b7100000000000000000000000000000000000000000000000000000000600052601160045260246000fd5b60007fffffffffffffffffffffffffffffffffffffffffffffffffffffffffffffffff82036148af576148af61484f565b5060010190565b7f4e487b7100000000000000000000000000000000000000000000000000000000600052604160045260246000fd5b60006101008083850312156148f957600080fd5b6040519081019067ffffffffffffffff82118183101715614943577f4e487b7100000000000000000000000000000000000000000000000000000000600052604160045260246000fd5b81604052614950846143f5565b815261495e602085016143f5565b602082015260408401356040820152606084013560608201526080840135608082015260a084013560a082015260c084013560c082015260e084013560e0820152809250505092915050565b6000602082840312156149bc57600080fd5b5051919050565b6000602082840312156149d557600080fd5b81356106e681614686565b600082198211156149f3576149f361484f565b500190565b60008060008060808587031215614a0e57600080fd5b505082516020840151604085015160609095015191969095509092509050565b600082821015614a4057614a4061484f565b500390565b60008060408385031215614a5857600080fd5b505080516020909101519092909150565b6000817fffffffffffffffffffffffffffffffffffffffffffffffffffffffffffffffff0483118215151615614aa157614aa161484f565b500290565b6000825160005b81811015614ac75760208186018101518583015201614aad565b81811115614ad6576000828501525b509190910192915050565b7f4e487b7100000000000000000000000000000000000000000000000000000000600052601260045260246000fdfea264697066735822122070b72e2841ecbcca3c2821b5d07b237c2074fa3b9b6b5c81d5bcb9d3a37bffb164736f6c634300080e003360806040523480156200001157600080fd5b5061c3503380620000695760405162461bcd60e51b815260206004820152601860248201527f616363657373436f6e74726f6c6c65642f307841646d696e000000000000000060448201526064015b60405180910390fd5b806200007f6200011560201b62000d6a1760201c565b80546001600160a01b0319166001600160a01b03929092169190911790555062ffffff81168114620000f45760405162461bcd60e51b815260206004820152601660248201527f526f757465722f6f76657268656164546f6f4869676800000000000000000000604482015260640162000060565b806200010a6200013960201b62000d8e1760201c565b60010155506200015d565b7f7d382ebca3e46505071795e192d28166a3d4bd0685585591bc6c5b8df6769fd290565b7ff2910982afb88211fa9894801aaf0314409ca240a0a8904897b9f5ba323ca53390565b611586806200016d6000396000f3fe608060405234801561001057600080fd5b50600436106100df5760003560e01c8063362aecb11161008c578063cf5e7bd311610066578063cf5e7bd314610209578063e9333fab1461021c578063f850a81c1461022f578063f851a4401461024257600080fd5b8063362aecb11461018b57806381bac14f146101e3578063a01dccd8146101f657600080fd5b806321754d9e116100bd57806321754d9e1461014257806326e8eda214610165578063333dbb0d1461017857600080fd5b80630417ffda146100e457806305684fde1461011a5780631c5a9d9c1461012d575b600080fd5b7ff2910982afb88211fa9894801aaf0314409ca240a0a8904897b9f5ba323ca534545b6040519081526020015b60405180910390f35b610107610128366004611282565b610289565b61014061013b3660046112bb565b610324565b005b6101556101503660046112d8565b610405565b6040519015158152602001610111565b610140610173366004611329565b6104b4565b610107610186366004611378565b61055d565b6101556101993660046112bb565b73ffffffffffffffffffffffffffffffffffffffff1660009081527ff2910982afb88211fa9894801aaf0314409ca240a0a8904897b9f5ba323ca533602052604090205460ff1690565b6101406101f13660046112bb565b6106b0565b610140610204366004611282565b610805565b6101406102173660046112bb565b610937565b61014061022a3660046112bb565b610a38565b61014061023d3660046113cb565b610bbb565b7f7d382ebca3e46505071795e192d28166a3d4bd0685585591bc6c5b8df6769fd25460405173ffffffffffffffffffffffffffffffffffffffff9091168152602001610111565b6040517f70a0823100000000000000000000000000000000000000000000000000000000815273ffffffffffffffffffffffffffffffffffffffff8281166004830152600091908416906370a0823190602401602060405180830381865afa1580156102f9573d6000803e3d6000fd5b505050506040513d601f19601f8201168201806040525081019061031d9190611451565b9392505050565b7f7d382ebca3e46505071795e192d28166a3d4bd0685585591bc6c5b8df6769fd25473ffffffffffffffffffffffffffffffffffffffff1633148061039757503360009081527ff2910982afb88211fa9894801aaf0314409ca240a0a8904897b9f5ba323ca533602052604090205460ff165b610402576040517f08c379a000000000000000000000000000000000000000000000000000000000815260206004820152601360248201527f526f757465722f756e617574686f72697a65640000000000000000000000000060448201526064015b60405180910390fd5b50565b3360009081527ff2910982afb88211fa9894801aaf0314409ca240a0a8904897b9f5ba323ca533602052604081205460ff1661049d576040517f08c379a000000000000000000000000000000000000000000000000000000000815260206004820152601360248201527f526f757465722f756e617574686f72697a65640000000000000000000000000060448201526064016103f9565b6104a985858585610db2565b90505b949350505050565b3360009081527ff2910982afb88211fa9894801aaf0314409ca240a0a8904897b9f5ba323ca533602052604090205460ff1661054c576040517f08c379a000000000000000000000000000000000000000000000000000000000815260206004820152601360248201527f526f757465722f756e617574686f72697a65640000000000000000000000000060448201526064016103f9565b61055883833384610dc0565b505050565b3360009081527ff2910982afb88211fa9894801aaf0314409ca240a0a8904897b9f5ba323ca533602052604081205460ff166105f5576040517f08c379a000000000000000000000000000000000000000000000000000000000815260206004820152601360248201527f526f757465722f756e617574686f72697a65640000000000000000000000000060448201526064016103f9565b6040517f70a0823100000000000000000000000000000000000000000000000000000000815233600482015260009073ffffffffffffffffffffffffffffffffffffffff8716906370a0823190602401602060405180830381865afa158015610662573d6000803e3d6000fd5b505050506040513d601f19601f820116820180604052508101906106869190611451565b90508381106106995760009150506104ac565b6106a68686338787610e32565b9695505050505050565b7f7d382ebca3e46505071795e192d28166a3d4bd0685585591bc6c5b8df6769fd25473ffffffffffffffffffffffffffffffffffffffff1633148061072357503360009081527ff2910982afb88211fa9894801aaf0314409ca240a0a8904897b9f5ba323ca533602052604090205460ff165b610789576040517f08c379a000000000000000000000000000000000000000000000000000000000815260206004820152601360248201527f526f757465722f756e617574686f72697a65640000000000000000000000000060448201526064016103f9565b60017ff2910982afb88211fa9894801aaf0314409ca240a0a8904897b9f5ba323ca5335b73ffffffffffffffffffffffffffffffffffffffff929092166000908152602092909252604090912080547fffffffffffffffffffffffffffffffffffffffffffffffffffffffffffffff0016911515919091179055565b6040517fdd62ed3e00000000000000000000000000000000000000000000000000000000815233600482015230602482015260009073ffffffffffffffffffffffffffffffffffffffff84169063dd62ed3e90604401602060405180830381865afa158015610878573d6000803e3d6000fd5b505050506040513d601f19601f8201168201806040525081019061089c9190611451565b11610929576040517f08c379a000000000000000000000000000000000000000000000000000000000815260206004820152602160248201527f526f757465722f4e6f74417070726f76656442794d616b6572436f6e7472616360448201527f740000000000000000000000000000000000000000000000000000000000000060648201526084016103f9565b6109338282610e59565b5050565b7f7d382ebca3e46505071795e192d28166a3d4bd0685585591bc6c5b8df6769fd25473ffffffffffffffffffffffffffffffffffffffff163314806109aa57503360009081527ff2910982afb88211fa9894801aaf0314409ca240a0a8904897b9f5ba323ca533602052604090205460ff165b610a10576040517f08c379a000000000000000000000000000000000000000000000000000000000815260206004820152601360248201527f526f757465722f756e617574686f72697a65640000000000000000000000000060448201526064016103f9565b60007ff2910982afb88211fa9894801aaf0314409ca240a0a8904897b9f5ba323ca5336107ad565b7f7d382ebca3e46505071795e192d28166a3d4bd0685585591bc6c5b8df6769fd25473ffffffffffffffffffffffffffffffffffffffff163314610ad8576040517f08c379a000000000000000000000000000000000000000000000000000000000815260206004820152601860248201527f416363657373436f6e74726f6c6c65642f496e76616c6964000000000000000060448201526064016103f9565b73ffffffffffffffffffffffffffffffffffffffff8116610b55576040517f08c379a000000000000000000000000000000000000000000000000000000000815260206004820152601860248201527f416363657373436f6e74726f6c6c65642f307841646d696e000000000000000060448201526064016103f9565b7f7d382ebca3e46505071795e192d28166a3d4bd0685585591bc6c5b8df6769fd280547fffffffffffffffffffffffff00000000000000000000000000000000000000001673ffffffffffffffffffffffffffffffffffffffff92909216919091179055565b3360009081527ff2910982afb88211fa9894801aaf0314409ca240a0a8904897b9f5ba323ca533602052604090205460ff16610c53576040517f08c379a000000000000000000000000000000000000000000000000000000000815260206004820152601360248201527f526f757465722f756e617574686f72697a65640000000000000000000000000060448201526064016103f9565b60005b82811015610d64576000848483818110610c7257610c7261146a565b9050602002016020810190610c8791906112bb565b6040517f70a0823100000000000000000000000000000000000000000000000000000000815233600482015273ffffffffffffffffffffffffffffffffffffffff91909116906370a0823190602401602060405180830381865afa158015610cf3573d6000803e3d6000fd5b505050506040513d601f19601f82011682018060405250810190610d179190611451565b90508015610d5157610d51858584818110610d3457610d3461146a565b9050602002016020810190610d4991906112bb565b843384610dc0565b5080610d5c81611499565b915050610c56565b50505050565b7f7d382ebca3e46505071795e192d28166a3d4bd0685585591bc6c5b8df6769fd290565b7ff2910982afb88211fa9894801aaf0314409ca240a0a8904897b9f5ba323ca53390565b60006104a985858585610fa0565b610dcc84838584610fa0565b610d64576040517f08c379a000000000000000000000000000000000000000000000000000000000815260206004820152601e60248201527f53696d706c65526f757465722f707573682f7472616e736665724661696c000060448201526064016103f9565b6000610e4086868686610fa0565b15610e4c575081610e50565b5060005b95945050505050565b73ffffffffffffffffffffffffffffffffffffffff8116301480610f1457506040517fdd62ed3e00000000000000000000000000000000000000000000000000000000815273ffffffffffffffffffffffffffffffffffffffff82811660048301523060248301526000919084169063dd62ed3e90604401602060405180830381865afa158015610eee573d6000803e3d6000fd5b505050506040513d601f19601f82011682018060405250810190610f129190611451565b115b610933576040517f08c379a000000000000000000000000000000000000000000000000000000000815260206004820152602160248201527f53696d706c65526f757465722f4e6f74417070726f766564427952657365727660448201527f650000000000000000000000000000000000000000000000000000000000000060648201526084016103f9565b6000811580610fda57508273ffffffffffffffffffffffffffffffffffffffff168473ffffffffffffffffffffffffffffffffffffffff16145b15610fe7575060016104ac565b3073ffffffffffffffffffffffffffffffffffffffff8516036110165761100f85848461112c565b90506104ac565b6040805173ffffffffffffffffffffffffffffffffffffffff86811660248301528581166044830152606480830186905283518084039091018152608490920183526020820180517bffffffffffffffffffffffffffffffffffffffffffffffffffffffff167f23b872dd0000000000000000000000000000000000000000000000000000000017905291516000928392908916916110b591906114f8565b6000604051808303816000865af19150503d80600081146110f2576040519150601f19603f3d011682016040523d82523d6000602084013e6110f7565b606091505b50915091508180156111215750805115806111215750808060200190518101906111219190611533565b979650505050505050565b6000811580611150575073ffffffffffffffffffffffffffffffffffffffff831630145b1561115d5750600161031d565b6040805173ffffffffffffffffffffffffffffffffffffffff8581166024830152604480830186905283518084039091018152606490920183526020820180517bffffffffffffffffffffffffffffffffffffffffffffffffffffffff167fa9059cbb0000000000000000000000000000000000000000000000000000000017905291516000928392908816916111f491906114f8565b6000604051808303816000865af19150503d8060008114611231576040519150601f19603f3d011682016040523d82523d6000602084013e611236565b606091505b50915091508180156106a65750805115806106a65750808060200190518101906106a69190611533565b73ffffffffffffffffffffffffffffffffffffffff8116811461040257600080fd5b6000806040838503121561129557600080fd5b82356112a081611260565b915060208301356112b081611260565b809150509250929050565b6000602082840312156112cd57600080fd5b813561031d81611260565b600080600080608085870312156112ee57600080fd5b84356112f981611260565b9350602085013561130981611260565b9250604085013561131981611260565b9396929550929360600135925050565b60008060006060848603121561133e57600080fd5b833561134981611260565b9250602084013561135981611260565b929592945050506040919091013590565b801515811461040257600080fd5b6000806000806080858703121561138e57600080fd5b843561139981611260565b935060208501356113a981611260565b92506040850135915060608501356113c08161136a565b939692955090935050565b6000806000604084860312156113e057600080fd5b833567ffffffffffffffff808211156113f857600080fd5b818601915086601f83011261140c57600080fd5b81358181111561141b57600080fd5b8760208260051b850101111561143057600080fd5b6020928301955093505084013561144681611260565b809150509250925092565b60006020828403121561146357600080fd5b5051919050565b7f4e487b7100000000000000000000000000000000000000000000000000000000600052603260045260246000fd5b60007fffffffffffffffffffffffffffffffffffffffffffffffffffffffffffffffff82036114f1577f4e487b7100000000000000000000000000000000000000000000000000000000600052601160045260246000fd5b5060010190565b6000825160005b8181101561151957602081860181015185830152016114ff565b81811115611528576000828501525b509190910192915050565b60006020828403121561154557600080fd5b815161031d8161136a56fea2646970667358221220a4b7e300571d3ec1e07f4b15991e34b9475d4d5825f56515c9ac7543f2696bc864736f6c634300080e0033",
  "devdoc": {
    "kind": "dev",
    "methods": {
      "checkList(address[])": {
        "details": "throws with a reason when there is a missing approval"
      },
      "offerOwners(address,address,uint256[])": {
        "params": {
          "offerIds": "an array of offer ids from the `outbound_tkn, inbound_tkn` offer list"
        },
        "returns": {
          "_offerOwners": "an array of the same length where the address at position i is the owner of `offerIds[i]`"
        }
      },
      "retractOffer(address,address,uint256,bool)": {
        "params": {
          "deprovision": "is true if offer owner wishes to have the offer's provision pushed to its reserve"
        }
      },
      "tokenBalance(address)": {
        "returns": {
          "_0": "the  `token` amount that `msg.sender` has in the contract's reserve"
        }
      },
      "updateOffer((address,address,uint256,uint256,uint256,uint256,uint256,uint256))": {
        "details": "mko.gasreq == max_int indicates one wishes to use ofr_gasreq (default value)mko.gasprice is overriden by the value computed by taking into account : * value transfered on current tx * if offer was deprovisioned after a fail, amount of wei (still on this contract balance on Mangrove) that should be counted as offer owner's * if offer is still live, its current locked provision"
      },
      "withdrawFromMangrove(uint256,address)": {
        "details": "for multi user strats, the contract provision account on Mangrove is pooled amongst offer owners so admin should only call this function to recover WEIs (e.g. that were erroneously transferred to Mangrove using `MGV.fund()`) This contract's balance on Mangrove may contain deprovisioned WEIs after an offer has failed (complement between provision and the bounty that was sent to taker) those free WEIs can be retrieved by offer owners by calling `retractOffer` with the `deprovsion` flag. Not by calling this function which is admin only."
      }
    },
    "version": 1
  },
  "userdoc": {
    "events": {
      "LogIncident(address,address,address,uint256,bytes32)": {
        "notice": "Events "
      },
      "NewOwnedOffer(address,address,address,uint256,address)": {
        "notice": "Multi offer specific Events "
      }
    },
    "kind": "user",
    "methods": {
      "activate(address[])": {
        "notice": "gas efficient external call to activate several tokens in a single transaction"
      },
      "approveMangrove(address)": {
        "notice": "`this` contract needs to approve Mangrove to let it perform outbound token transfer at the end of the `makerExecute` function NB if anyone can call this function someone could reset it to 0 for griefing"
      },
      "checkList(address[])": {
        "notice": "verifies that this contract's current state is ready to be used by msg.sender to post offers on Mangrove"
      },
      "set_router(address)": {
        "notice": "`this` contract must be admin of router to do this "
      },
      "updateOffer((address,address,uint256,uint256,uint256,uint256,uint256,uint256))": {
        "notice": "update offer with parameters given in `mko`."
      },
      "withdrawFromMangrove(uint256,address)": {
        "notice": "withdraws ETH from the provision account on Mangrove and sends collected WEIs to `receiver`"
      }
    },
    "version": 1
  },
  "storageLayout": {
    "storage": [
      {
        "astId": 14441,
        "contract": "contracts/periphery/MangroveOrderEnriched.sol:MangroveOrderEnriched",
        "label": "offerData",
        "offset": 0,
        "slot": "0",
        "type": "t_mapping(t_contract(IERC20)2050,t_mapping(t_contract(IERC20)2050,t_mapping(t_uint256,t_struct(OfferData)14429_storage)))"
      },
      {
        "astId": 5938,
        "contract": "contracts/periphery/MangroveOrderEnriched.sol:MangroveOrderEnriched",
        "label": "expiring",
        "offset": 0,
        "slot": "1",
        "type": "t_mapping(t_contract(IERC20)2050,t_mapping(t_contract(IERC20)2050,t_mapping(t_uint256,t_uint256)))"
      },
      {
        "astId": 6519,
        "contract": "contracts/periphery/MangroveOrderEnriched.sol:MangroveOrderEnriched",
        "label": "next",
        "offset": 0,
        "slot": "2",
        "type": "t_mapping(t_contract(IERC20)2050,t_mapping(t_contract(IERC20)2050,t_mapping(t_address,t_mapping(t_uint256,t_uint256))))"
      }
    ],
    "types": {
      "t_address": {
        "encoding": "inplace",
        "label": "address",
        "numberOfBytes": "20"
      },
      "t_contract(IERC20)2050": {
        "encoding": "inplace",
        "label": "contract IERC20",
        "numberOfBytes": "20"
      },
      "t_mapping(t_address,t_mapping(t_uint256,t_uint256))": {
        "encoding": "mapping",
        "key": "t_address",
        "label": "mapping(address => mapping(uint256 => uint256))",
        "numberOfBytes": "32",
        "value": "t_mapping(t_uint256,t_uint256)"
      },
      "t_mapping(t_contract(IERC20)2050,t_mapping(t_address,t_mapping(t_uint256,t_uint256)))": {
        "encoding": "mapping",
        "key": "t_contract(IERC20)2050",
        "label": "mapping(contract IERC20 => mapping(address => mapping(uint256 => uint256)))",
        "numberOfBytes": "32",
        "value": "t_mapping(t_address,t_mapping(t_uint256,t_uint256))"
      },
      "t_mapping(t_contract(IERC20)2050,t_mapping(t_contract(IERC20)2050,t_mapping(t_address,t_mapping(t_uint256,t_uint256))))": {
        "encoding": "mapping",
        "key": "t_contract(IERC20)2050",
        "label": "mapping(contract IERC20 => mapping(contract IERC20 => mapping(address => mapping(uint256 => uint256))))",
        "numberOfBytes": "32",
        "value": "t_mapping(t_contract(IERC20)2050,t_mapping(t_address,t_mapping(t_uint256,t_uint256)))"
      },
      "t_mapping(t_contract(IERC20)2050,t_mapping(t_contract(IERC20)2050,t_mapping(t_uint256,t_struct(OfferData)14429_storage)))": {
        "encoding": "mapping",
        "key": "t_contract(IERC20)2050",
        "label": "mapping(contract IERC20 => mapping(contract IERC20 => mapping(uint256 => struct MultiUser.OfferData)))",
        "numberOfBytes": "32",
        "value": "t_mapping(t_contract(IERC20)2050,t_mapping(t_uint256,t_struct(OfferData)14429_storage))"
      },
      "t_mapping(t_contract(IERC20)2050,t_mapping(t_contract(IERC20)2050,t_mapping(t_uint256,t_uint256)))": {
        "encoding": "mapping",
        "key": "t_contract(IERC20)2050",
        "label": "mapping(contract IERC20 => mapping(contract IERC20 => mapping(uint256 => uint256)))",
        "numberOfBytes": "32",
        "value": "t_mapping(t_contract(IERC20)2050,t_mapping(t_uint256,t_uint256))"
      },
      "t_mapping(t_contract(IERC20)2050,t_mapping(t_uint256,t_struct(OfferData)14429_storage))": {
        "encoding": "mapping",
        "key": "t_contract(IERC20)2050",
        "label": "mapping(contract IERC20 => mapping(uint256 => struct MultiUser.OfferData))",
        "numberOfBytes": "32",
        "value": "t_mapping(t_uint256,t_struct(OfferData)14429_storage)"
      },
      "t_mapping(t_contract(IERC20)2050,t_mapping(t_uint256,t_uint256))": {
        "encoding": "mapping",
        "key": "t_contract(IERC20)2050",
        "label": "mapping(contract IERC20 => mapping(uint256 => uint256))",
        "numberOfBytes": "32",
        "value": "t_mapping(t_uint256,t_uint256)"
      },
      "t_mapping(t_uint256,t_struct(OfferData)14429_storage)": {
        "encoding": "mapping",
        "key": "t_uint256",
        "label": "mapping(uint256 => struct MultiUser.OfferData)",
        "numberOfBytes": "32",
        "value": "t_struct(OfferData)14429_storage"
      },
      "t_mapping(t_uint256,t_uint256)": {
        "encoding": "mapping",
        "key": "t_uint256",
        "label": "mapping(uint256 => uint256)",
        "numberOfBytes": "32",
        "value": "t_uint256"
      },
      "t_struct(OfferData)14429_storage": {
        "encoding": "inplace",
        "label": "struct MultiUser.OfferData",
        "members": [
          {
            "astId": 14426,
            "contract": "contracts/periphery/MangroveOrderEnriched.sol:MangroveOrderEnriched",
            "label": "owner",
            "offset": 0,
            "slot": "0",
            "type": "t_address"
          },
          {
            "astId": 14428,
            "contract": "contracts/periphery/MangroveOrderEnriched.sol:MangroveOrderEnriched",
            "label": "wei_balance",
            "offset": 20,
            "slot": "0",
            "type": "t_uint96"
          }
        ],
        "numberOfBytes": "32"
      },
      "t_uint256": {
        "encoding": "inplace",
        "label": "uint256",
        "numberOfBytes": "32"
      },
      "t_uint96": {
        "encoding": "inplace",
        "label": "uint96",
        "numberOfBytes": "12"
      }
    }
  }
}