{
  "address": "0x7Ae7a1502084bB10DCb5fFfE7835D84c76aA65d7",
  "abi": [
    {
      "inputs": [
        {
          "internalType": "contract IMangrove",
          "name": "_MGV",
          "type": "address"
        },
        {
          "internalType": "address",
          "name": "deployer",
          "type": "address"
        }
      ],
      "stateMutability": "nonpayable",
      "type": "constructor"
    },
    {
      "anonymous": false,
      "inputs": [
        {
          "indexed": true,
          "internalType": "contract IMangrove",
          "name": "mangrove",
          "type": "address"
        },
        {
          "indexed": true,
          "internalType": "address",
          "name": "user",
          "type": "address"
        },
        {
          "indexed": false,
          "internalType": "uint256",
          "name": "amount",
          "type": "uint256"
        }
      ],
      "name": "CreditMgvUser",
      "type": "event"
    },
    {
      "anonymous": false,
      "inputs": [
        {
          "indexed": true,
          "internalType": "address",
          "name": "user",
          "type": "address"
        },
        {
          "indexed": true,
          "internalType": "contract IEIP20",
          "name": "token",
          "type": "address"
        },
        {
          "indexed": false,
          "internalType": "uint256",
          "name": "amount",
          "type": "uint256"
        }
      ],
      "name": "CreditUserTokenBalance",
      "type": "event"
    },
    {
      "anonymous": false,
      "inputs": [
        {
          "indexed": true,
          "internalType": "contract IMangrove",
          "name": "mangrove",
          "type": "address"
        },
        {
          "indexed": true,
          "internalType": "address",
          "name": "user",
          "type": "address"
        },
        {
          "indexed": false,
          "internalType": "uint256",
          "name": "amount",
          "type": "uint256"
        }
      ],
      "name": "DebitMgvUser",
      "type": "event"
    },
    {
      "anonymous": false,
      "inputs": [
        {
          "indexed": true,
          "internalType": "address",
          "name": "user",
          "type": "address"
        },
        {
          "indexed": true,
          "internalType": "contract IEIP20",
          "name": "token",
          "type": "address"
        },
        {
          "indexed": false,
          "internalType": "uint256",
          "name": "amount",
          "type": "uint256"
        }
      ],
      "name": "DebitUserTokenBalance",
      "type": "event"
    },
    {
      "anonymous": false,
      "inputs": [
        {
          "indexed": false,
          "internalType": "contract IMangrove",
          "name": "mangrove",
          "type": "address"
        },
        {
          "indexed": true,
          "internalType": "contract IEIP20",
          "name": "outbound_tkn",
          "type": "address"
        },
        {
          "indexed": true,
          "internalType": "contract IEIP20",
          "name": "inbound_tkn",
          "type": "address"
        },
        {
          "indexed": true,
          "internalType": "uint256",
          "name": "offerId",
          "type": "uint256"
        },
        {
          "indexed": false,
          "internalType": "bytes32",
          "name": "reason",
          "type": "bytes32"
        }
      ],
      "name": "LogIncident",
      "type": "event"
    },
    {
      "anonymous": false,
      "inputs": [
        {
          "indexed": false,
          "internalType": "contract IMangrove",
          "name": "mangrove",
          "type": "address"
        },
        {
          "indexed": true,
          "internalType": "contract IEIP20",
          "name": "outbound_tkn",
          "type": "address"
        },
        {
          "indexed": true,
          "internalType": "contract IEIP20",
          "name": "inbound_tkn",
          "type": "address"
        },
        {
          "indexed": true,
          "internalType": "uint256",
          "name": "offerId",
          "type": "uint256"
        },
        {
          "indexed": false,
          "internalType": "address",
          "name": "owner",
          "type": "address"
        }
      ],
      "name": "NewOwnedOffer",
      "type": "event"
    },
    {
      "anonymous": false,
      "inputs": [
        {
          "indexed": false,
          "internalType": "contract IMangrove",
          "name": "mangrove",
          "type": "address"
        },
        {
          "indexed": true,
          "internalType": "contract IEIP20",
          "name": "base",
          "type": "address"
        },
        {
          "indexed": true,
          "internalType": "contract IEIP20",
          "name": "quote",
          "type": "address"
        },
        {
          "indexed": true,
          "internalType": "address",
          "name": "taker",
          "type": "address"
        },
        {
          "indexed": false,
          "internalType": "bool",
          "name": "selling",
          "type": "bool"
        },
        {
          "indexed": false,
          "internalType": "uint256",
          "name": "takerGot",
          "type": "uint256"
        },
        {
          "indexed": false,
          "internalType": "uint256",
          "name": "takerGave",
          "type": "uint256"
        },
        {
          "indexed": false,
          "internalType": "uint256",
          "name": "penalty",
          "type": "uint256"
        },
        {
          "indexed": false,
          "internalType": "uint256",
          "name": "restingOrderId",
          "type": "uint256"
        }
      ],
      "name": "OrderSummary",
      "type": "event"
    },
    {
      "inputs": [],
      "name": "MGV",
      "outputs": [
        {
          "internalType": "contract IMangrove",
          "name": "",
          "type": "address"
        }
      ],
      "stateMutability": "view",
      "type": "function"
    },
    {
      "inputs": [],
      "name": "OFR_GASREQ",
      "outputs": [
        {
          "internalType": "uint256",
          "name": "",
          "type": "uint256"
        }
      ],
      "stateMutability": "view",
      "type": "function"
    },
    {
      "inputs": [],
      "name": "admin",
      "outputs": [
        {
          "internalType": "address",
          "name": "",
          "type": "address"
        }
      ],
      "stateMutability": "view",
      "type": "function"
    },
    {
      "inputs": [
        {
          "internalType": "contract IEIP20",
          "name": "outbound_tkn",
          "type": "address"
        },
        {
          "internalType": "uint256",
          "name": "amount",
          "type": "uint256"
        }
      ],
      "name": "approveMangrove",
      "outputs": [],
      "stateMutability": "nonpayable",
      "type": "function"
    },
    {
      "inputs": [
        {
          "internalType": "address",
          "name": "owner",
          "type": "address"
        }
      ],
      "name": "balanceOnMangrove",
      "outputs": [
        {
          "internalType": "uint256",
          "name": "",
          "type": "uint256"
        }
      ],
      "stateMutability": "view",
      "type": "function"
    },
    {
      "inputs": [
        {
          "internalType": "contract IEIP20",
          "name": "token",
          "type": "address"
        },
        {
          "internalType": "uint256",
          "name": "amount",
          "type": "uint256"
        }
      ],
      "name": "depositToken",
      "outputs": [
        {
          "internalType": "bool",
          "name": "success",
          "type": "bool"
        }
      ],
      "stateMutability": "nonpayable",
      "type": "function"
    },
    {
      "inputs": [
        {
          "internalType": "contract IEIP20",
          "name": "",
          "type": "address"
        },
        {
          "internalType": "contract IEIP20",
          "name": "",
          "type": "address"
        },
        {
          "internalType": "uint256",
          "name": "",
          "type": "uint256"
        }
      ],
      "name": "expiring",
      "outputs": [
        {
          "internalType": "uint256",
          "name": "",
          "type": "uint256"
        }
      ],
      "stateMutability": "view",
      "type": "function"
    },
    {
      "inputs": [],
      "name": "fundMangrove",
      "outputs": [],
      "stateMutability": "payable",
      "type": "function"
    },
    {
      "inputs": [
        {
          "internalType": "contract IEIP20",
          "name": "outbound_tkn",
          "type": "address"
        },
        {
          "internalType": "contract IEIP20",
          "name": "inbound_tkn",
          "type": "address"
        },
        {
          "internalType": "uint256",
          "name": "gasreq",
          "type": "uint256"
        },
        {
          "internalType": "uint256",
          "name": "gasprice",
          "type": "uint256"
        },
        {
          "internalType": "uint256",
          "name": "offerId",
          "type": "uint256"
        }
      ],
      "name": "getMissingProvision",
      "outputs": [
        {
          "internalType": "uint256",
          "name": "",
          "type": "uint256"
        }
      ],
      "stateMutability": "view",
      "type": "function"
    },
    {
      "inputs": [
        {
          "components": [
            {
              "internalType": "address",
              "name": "outbound_tkn",
              "type": "address"
            },
            {
              "internalType": "address",
              "name": "inbound_tkn",
              "type": "address"
            },
            {
              "internalType": "uint256",
              "name": "offerId",
              "type": "uint256"
            },
            {
              "internalType": "t",
              "name": "offer",
              "type": "uint256"
            },
            {
              "internalType": "uint256",
              "name": "wants",
              "type": "uint256"
            },
            {
              "internalType": "uint256",
              "name": "gives",
              "type": "uint256"
            },
            {
              "internalType": "t",
              "name": "offerDetail",
              "type": "uint256"
            },
            {
              "internalType": "t",
              "name": "global",
              "type": "uint256"
            },
            {
              "internalType": "t",
              "name": "local",
              "type": "uint256"
            }
          ],
          "internalType": "struct MgvLib.SingleOrder",
          "name": "order",
          "type": "tuple"
        }
      ],
      "name": "makerExecute",
      "outputs": [
        {
          "internalType": "bytes32",
          "name": "ret",
          "type": "bytes32"
        }
      ],
      "stateMutability": "nonpayable",
      "type": "function"
    },
    {
      "inputs": [
        {
          "components": [
            {
              "internalType": "address",
              "name": "outbound_tkn",
              "type": "address"
            },
            {
              "internalType": "address",
              "name": "inbound_tkn",
              "type": "address"
            },
            {
              "internalType": "uint256",
              "name": "offerId",
              "type": "uint256"
            },
            {
              "internalType": "t",
              "name": "offer",
              "type": "uint256"
            },
            {
              "internalType": "uint256",
              "name": "wants",
              "type": "uint256"
            },
            {
              "internalType": "uint256",
              "name": "gives",
              "type": "uint256"
            },
            {
              "internalType": "t",
              "name": "offerDetail",
              "type": "uint256"
            },
            {
              "internalType": "t",
              "name": "global",
              "type": "uint256"
            },
            {
              "internalType": "t",
              "name": "local",
              "type": "uint256"
            }
          ],
          "internalType": "struct MgvLib.SingleOrder",
          "name": "order",
          "type": "tuple"
        },
        {
          "components": [
            {
              "internalType": "bytes32",
              "name": "makerData",
              "type": "bytes32"
            },
            {
              "internalType": "bytes32",
              "name": "mgvData",
              "type": "bytes32"
            }
          ],
          "internalType": "struct MgvLib.OrderResult",
          "name": "result",
          "type": "tuple"
        }
      ],
      "name": "makerPosthook",
      "outputs": [],
      "stateMutability": "nonpayable",
      "type": "function"
    },
    {
      "inputs": [
        {
          "internalType": "address",
          "name": "",
          "type": "address"
        }
      ],
      "name": "mgvBalance",
      "outputs": [
        {
          "internalType": "uint256",
          "name": "",
          "type": "uint256"
        }
      ],
      "stateMutability": "view",
      "type": "function"
    },
    {
      "inputs": [
        {
          "components": [
            {
              "internalType": "contract IEIP20",
              "name": "outbound_tkn",
              "type": "address"
            },
            {
              "internalType": "contract IEIP20",
              "name": "inbound_tkn",
              "type": "address"
            },
            {
              "internalType": "uint256",
              "name": "wants",
              "type": "uint256"
            },
            {
              "internalType": "uint256",
              "name": "gives",
              "type": "uint256"
            },
            {
              "internalType": "uint256",
              "name": "gasreq",
              "type": "uint256"
            },
            {
              "internalType": "uint256",
              "name": "gasprice",
              "type": "uint256"
            },
            {
              "internalType": "uint256",
              "name": "pivotId",
              "type": "uint256"
            }
          ],
          "internalType": "struct IOfferLogic.MakerOrder",
          "name": "mko",
          "type": "tuple"
        }
      ],
      "name": "newOffer",
      "outputs": [
        {
          "internalType": "uint256",
          "name": "offerId",
          "type": "uint256"
        }
      ],
      "stateMutability": "payable",
      "type": "function"
    },
    {
      "inputs": [
        {
          "internalType": "contract IEIP20",
          "name": "outbound_tkn",
          "type": "address"
        },
        {
          "internalType": "contract IEIP20",
          "name": "inbound_tkn",
          "type": "address"
        },
        {
          "internalType": "uint256[]",
          "name": "offerIds",
          "type": "uint256[]"
        }
      ],
      "name": "offerOwners",
      "outputs": [
        {
          "internalType": "address[]",
          "name": "__offerOwners",
          "type": "address[]"
        }
      ],
      "stateMutability": "view",
      "type": "function"
    },
    {
      "inputs": [
        {
          "internalType": "address",
          "name": "owner",
          "type": "address"
        },
        {
          "internalType": "contract IEIP20",
          "name": "outbound_tkn",
          "type": "address"
        },
        {
          "internalType": "contract IEIP20",
          "name": "inbound_tkn",
          "type": "address"
        }
      ],
      "name": "offersOfOwner",
      "outputs": [
        {
          "internalType": "uint256[]",
          "name": "live",
          "type": "uint256[]"
        },
        {
          "internalType": "uint256[]",
          "name": "dead",
          "type": "uint256[]"
        }
      ],
      "stateMutability": "view",
      "type": "function"
    },
    {
      "inputs": [
        {
          "internalType": "contract IEIP20",
          "name": "outbound_tkn",
          "type": "address"
        },
        {
          "internalType": "contract IEIP20",
          "name": "inbound_tkn",
          "type": "address"
        },
        {
          "internalType": "uint256",
          "name": "offerId",
          "type": "uint256"
        }
      ],
      "name": "ownerOf",
      "outputs": [
        {
          "internalType": "address",
          "name": "owner",
          "type": "address"
        }
      ],
      "stateMutability": "view",
      "type": "function"
    },
    {
      "inputs": [
        {
          "internalType": "contract IEIP20",
          "name": "outbound_tkn",
          "type": "address"
        },
        {
          "internalType": "contract IEIP20",
          "name": "inbound_tkn",
          "type": "address"
        },
        {
          "internalType": "uint256",
          "name": "offerId",
          "type": "uint256"
        },
        {
          "internalType": "bool",
          "name": "deprovision",
          "type": "bool"
        }
      ],
      "name": "retractOffer",
      "outputs": [
        {
          "internalType": "uint256",
          "name": "received",
          "type": "uint256"
        }
      ],
      "stateMutability": "nonpayable",
      "type": "function"
    },
    {
      "inputs": [
        {
          "internalType": "address",
          "name": "_admin",
          "type": "address"
        }
      ],
      "name": "setAdmin",
      "outputs": [],
      "stateMutability": "nonpayable",
      "type": "function"
    },
    {
      "inputs": [
        {
          "internalType": "uint256",
          "name": "gasreq",
          "type": "uint256"
        }
      ],
      "name": "setGasreq",
      "outputs": [],
      "stateMutability": "nonpayable",
      "type": "function"
    },
    {
      "inputs": [
        {
          "components": [
            {
              "internalType": "contract IEIP20",
              "name": "base",
              "type": "address"
            },
            {
              "internalType": "contract IEIP20",
              "name": "quote",
              "type": "address"
            },
            {
              "internalType": "bool",
              "name": "partialFillNotAllowed",
              "type": "bool"
            },
            {
              "internalType": "bool",
              "name": "selling",
              "type": "bool"
            },
            {
              "internalType": "uint256",
              "name": "wants",
              "type": "uint256"
            },
            {
              "internalType": "uint256",
              "name": "makerWants",
              "type": "uint256"
            },
            {
              "internalType": "uint256",
              "name": "gives",
              "type": "uint256"
            },
            {
              "internalType": "uint256",
              "name": "makerGives",
              "type": "uint256"
            },
            {
              "internalType": "bool",
              "name": "restingOrder",
              "type": "bool"
            },
            {
              "internalType": "uint256",
              "name": "retryNumber",
              "type": "uint256"
            },
            {
              "internalType": "uint256",
              "name": "gasForMarketOrder",
              "type": "uint256"
            },
            {
              "internalType": "uint256",
              "name": "blocksToLiveForRestingOrder",
              "type": "uint256"
            }
          ],
          "internalType": "struct IOrderLogic.TakerOrder",
          "name": "tko",
          "type": "tuple"
        }
      ],
      "name": "take",
      "outputs": [
        {
          "components": [
            {
              "internalType": "uint256",
              "name": "takerGot",
              "type": "uint256"
            },
            {
              "internalType": "uint256",
              "name": "takerGave",
              "type": "uint256"
            },
            {
              "internalType": "uint256",
              "name": "bounty",
              "type": "uint256"
            },
            {
              "internalType": "uint256",
              "name": "fee",
              "type": "uint256"
            },
            {
              "internalType": "uint256",
              "name": "offerId",
              "type": "uint256"
            }
          ],
          "internalType": "struct IOrderLogic.TakerOrderResult",
          "name": "res",
          "type": "tuple"
        }
      ],
      "stateMutability": "payable",
      "type": "function"
    },
    {
      "inputs": [
        {
          "internalType": "contract IEIP20",
          "name": "token",
          "type": "address"
        },
        {
          "internalType": "address",
          "name": "owner",
          "type": "address"
        }
      ],
      "name": "tokenBalance",
      "outputs": [
        {
          "internalType": "uint256",
          "name": "",
          "type": "uint256"
        }
      ],
      "stateMutability": "view",
      "type": "function"
    },
    {
      "inputs": [
        {
          "internalType": "contract IEIP20",
          "name": "",
          "type": "address"
        },
        {
          "internalType": "address",
          "name": "",
          "type": "address"
        }
      ],
      "name": "tokenBalanceOf",
      "outputs": [
        {
          "internalType": "uint256",
          "name": "",
          "type": "uint256"
        }
      ],
      "stateMutability": "view",
      "type": "function"
    },
    {
      "inputs": [
        {
          "components": [
            {
              "internalType": "contract IEIP20",
              "name": "outbound_tkn",
              "type": "address"
            },
            {
              "internalType": "contract IEIP20",
              "name": "inbound_tkn",
              "type": "address"
            },
            {
              "internalType": "uint256",
              "name": "wants",
              "type": "uint256"
            },
            {
              "internalType": "uint256",
              "name": "gives",
              "type": "uint256"
            },
            {
              "internalType": "uint256",
              "name": "gasreq",
              "type": "uint256"
            },
            {
              "internalType": "uint256",
              "name": "gasprice",
              "type": "uint256"
            },
            {
              "internalType": "uint256",
              "name": "pivotId",
              "type": "uint256"
            }
          ],
          "internalType": "struct IOfferLogic.MakerOrder",
          "name": "mko",
          "type": "tuple"
        },
        {
          "internalType": "uint256",
          "name": "offerId",
          "type": "uint256"
        }
      ],
      "name": "updateOffer",
      "outputs": [],
      "stateMutability": "payable",
      "type": "function"
    },
    {
      "inputs": [
        {
          "internalType": "address payable",
          "name": "receiver",
          "type": "address"
        },
        {
          "internalType": "uint256",
          "name": "amount",
          "type": "uint256"
        }
      ],
      "name": "withdrawFromMangrove",
      "outputs": [
        {
          "internalType": "bool",
          "name": "noRevert",
          "type": "bool"
        }
      ],
      "stateMutability": "nonpayable",
      "type": "function"
    },
    {
      "inputs": [
        {
          "internalType": "contract IEIP20",
          "name": "token",
          "type": "address"
        },
        {
          "internalType": "address",
          "name": "receiver",
          "type": "address"
        },
        {
          "internalType": "uint256",
          "name": "amount",
          "type": "uint256"
        }
      ],
      "name": "withdrawToken",
      "outputs": [
        {
          "internalType": "bool",
          "name": "success",
          "type": "bool"
        }
      ],
      "stateMutability": "nonpayable",
      "type": "function"
    },
    {
      "stateMutability": "payable",
      "type": "receive"
    }
  ],
  "transactionHash": "0xe9b5bf0ff686838e2370daffb8ade781aa46231ebd2f8532ac77051df4e93781",
  "args": [
    "0xF3e339d8a0B989114412fa157Cc846ebaf4BCbd8",
    "0x47897EE61498D02B18794601Ed3A71896A1Ff894"
  ],
  "numDeployments": 1,
  "solcInputHash": "55dffe486fdf80a530370d53331bfb10",
  "bytecode": "0x60a06040523480156200001157600080fd5b50604051620046fb380380620046fb833981016040819052620000349162000285565b81818133806200008b5760405162461bcd60e51b815260206004820152601860248201527f616363657373436f6e74726f6c6c65642f307841646d696e000000000000000060448201526064015b60405180910390fd5b80620000a16200010360201b620020491760201c565b80546001600160a01b0319166001600160a01b0392831617905582166080525062013880620000db62000127602090811b6200206d17901c565b55506001600160a01b0381163314620000f957620000f9816200014b565b50505050620002c4565b7f7d382ebca3e46505071795e192d28166a3d4bd0685585591bc6c5b8df6769fd290565b7fae7e31c3220e851db9f204a28b279dfe52b973600b0a456991089c220ae7222490565b6200015562000246565b6001600160a01b0316336001600160a01b031614620001b75760405162461bcd60e51b815260206004820152601860248201527f416363657373436f6e74726f6c6c65642f496e76616c69640000000000000000604482015260640162000082565b6001600160a01b0381166200020f5760405162461bcd60e51b815260206004820152601860248201527f416363657373436f6e74726f6c6c65642f307841646d696e0000000000000000604482015260640162000082565b80620002256200010360201b620020491760201c565b80546001600160a01b0319166001600160a01b039290921691909117905550565b60006200025d6200010360201b620020491760201c565b546001600160a01b0316919050565b6001600160a01b03811681146200028257600080fd5b50565b600080604083850312156200029957600080fd5b8251620002a6816200026c565b6020840151909250620002b9816200026c565b809150509250929050565b608051614357620003a4600039600081816104580152818161094101528181610a7301528181610c9a01528181610e6b01528181610f66015281816110fc01528181611499015281816118a50152818161192a01528181611cfd01528181611d9b01528181612246015281816122dd015281816125850152818161296001528181612a1801528181612dea01528181612e61015281816130730152818161315201528181613207015281816133cb0152818161347e0152818161368c0152818161377d0152818161386b015281816138fd01526139e701526143576000f3fe60806040526004361061019a5760003560e01c8063704b6c02116100e1578063dec8c86b1161008a578063e4c34f8411610064578063e4c34f8414610560578063f851a44014610580578063f92495e5146105bd578063faa030ec146105dd57600080fd5b8063dec8c86b146104d2578063df242667146104ff578063e428204d1461052c57600080fd5b806399fa5e2d116100bb57806399fa5e2d14610446578063ad97db1b14610492578063aefe8403146104b257600080fd5b8063704b6c02146104005780637ea1a48c146104205780637f84e4941461043357600080fd5b806335d61cb2116101435780634e7effa81161011d5780634e7effa81461034d5780636a1c7d051461038b5780636c49c32c146103e057600080fd5b806335d61cb2146102c957806337b966bf146102ff5780633d3d130d1461032d57600080fd5b80631bea8006116101745780631bea80061461024f578063338b5dea1461028757806334bd8931146102a757600080fd5b806301e33667146101a6578063063df2d2146101db5780631049334f146101fb57600080fd5b366101a157005b600080fd5b3480156101b257600080fd5b506101c66101c1366004613a9f565b6105e5565b60405190151581526020015b60405180910390f35b3480156101e757600080fd5b506101c66101f6366004613ae0565b610686565b34801561020757600080fd5b50610241610216366004613b0c565b6001600160a01b03918216600090815260026020908152604080832093909416825291909152205490565b6040519081526020016101d2565b34801561025b57600080fd5b5061024161026a366004613b0c565b600260209081526000928352604080842090915290825290205481565b34801561029357600080fd5b506101c66102a2366004613ae0565b6106f9565b3480156102b357600080fd5b506102c76102c2366004613b45565b610903565b005b3480156102d557600080fd5b506102416102e4366004613b5e565b6001600160a01b031660009081526001602052604090205490565b34801561030b57600080fd5b5061031f61031a366004613b7b565b610a27565b6040516101d2929190613c01565b34801561033957600080fd5b506102c7610348366004613c39565b610e69565b34801561035957600080fd5b50610241610368366004613a9f565b600360209081526000938452604080852082529284528284209052825290205481565b61039e610399366004613c99565b610fcf565b6040516101d29190600060a082019050825182526020830151602083015260408301516040830152606083015160608301526080830151608083015292915050565b3480156103ec57600080fd5b506102416103fb366004613cac565b611926565b34801561040c57600080fd5b506102c761041b366004613b5e565b611aca565b61024161042e366004613cdb565b611bf2565b6102c7610441366004613cf7565b611c5c565b34801561045257600080fd5b5061047a7f000000000000000000000000000000000000000000000000000000000000000081565b6040516001600160a01b0390911681526020016101d2565b34801561049e57600080fd5b506102416104ad366004613d31565b611ca7565b3480156104be57600080fd5b506102c76104cd366004613ae0565b611cbf565b3480156104de57600080fd5b506104f26104ed366004613d84565b611e67565b6040516101d29190613e19565b34801561050b57600080fd5b5061024161051a366004613b5e565b60016020526000908152604090205481565b34801561053857600080fd5b507fae7e31c3220e851db9f204a28b279dfe52b973600b0a456991089c220ae7222454610241565b34801561056c57600080fd5b5061024161057b366004613e66565b611f21565b34801561058c57600080fd5b507f7d382ebca3e46505071795e192d28166a3d4bd0685585591bc6c5b8df6769fd2546001600160a01b031661047a565b3480156105c957600080fd5b5061047a6105d8366004613a9f565b611f6c565b6102c7611fee565b60006105f2843384612091565b6040517fa9059cbb0000000000000000000000000000000000000000000000000000000081526001600160a01b0384811660048301526024820184905285169063a9059cbb906044016020604051808303816000875af115801561065a573d6000803e3d6000fd5b505050506040513d601f19601f8201168201806040525081019061067e9190613eb7565b949350505050565b60003033036106dc5760405162461bcd60e51b815260206004820152601260248201527f4d75746c692f6e6f5265656e7472616e6379000000000000000000000000000060448201526064015b60405180910390fd5b6106e633836121a3565b6106f083836122ab565b90505b92915050565b6040517f70a0823100000000000000000000000000000000000000000000000000000000815230600482015260009081906001600160a01b038516906370a0823190602401602060405180830381865afa15801561075b573d6000803e3d6000fd5b505050506040513d601f19601f8201168201806040525081019061077f9190613ed4565b6040517f23b872dd000000000000000000000000000000000000000000000000000000008152336004820152306024820152604481018590529091506001600160a01b038516906323b872dd906064016020604051808303816000875af11580156107ee573d6000803e3d6000fd5b505050506040513d601f19601f820116820180604052508101906108129190613eb7565b6040517f70a08231000000000000000000000000000000000000000000000000000000008152306004820152909250839082906001600160a01b038716906370a0823190602401602060405180830381865afa158015610876573d6000803e3d6000fd5b505050506040513d601f19601f8201168201806040525081019061089a9190613ed4565b6108a49190613f1c565b146108f15760405162461bcd60e51b815260206004820152601260248201527f4d756c74692f7472616e736665724661696c000000000000000000000000000060448201526064016106d3565b6108fc843385612410565b5092915050565b7f7d382ebca3e46505071795e192d28166a3d4bd0685585591bc6c5b8df6769fd2546001600160a01b03163314806109635750336001600160a01b037f000000000000000000000000000000000000000000000000000000000000000016145b6109af5760405162461bcd60e51b815260206004820152601860248201527f416363657373436f6e74726f6c6c65642f496e76616c6964000000000000000060448201526064016106d3565b808162ffffff1614610a035760405162461bcd60e51b815260206004820152601860248201527f6d67764f666665722f6761737265712f6f766572666c6f77000000000000000060448201526064016106d3565b7fae7e31c3220e851db9f204a28b279dfe52b973600b0a456991089c220ae7222455565b6001600160a01b0380831660009081526004602090815260408083208585168452825280832093871683529281528282208280529052908120546060918291908190805b8215610bfc577f00000000000000000000000000000000000000000000000000000000000000006001600160a01b03166327507458816368c13d6b8b8b6040517fffffffff0000000000000000000000000000000000000000000000000000000060e085901b1681526001600160a01b0392831660048201529116602482015260448101889052606401602060405180830381865afa158015610b12573d6000803e3d6000fd5b505050506040513d601f19601f82011682018060405250810190610b369190613ed4565b6040518263ffffffff1660e01b8152600401610b5491815260200190565b602060405180830381865afa158015610b71573d6000803e3d6000fd5b505050506040513d601f19601f82011682018060405250810190610b959190613eb7565b15610bac5781610ba481613f33565b925050610bba565b80610bb681613f33565b9150505b6001600160a01b0380891660009081526004602090815260408083208b851684528252808320938d168352928152828220958252949094529092205491610a6b565b8167ffffffffffffffff811115610c1557610c15613f6b565b604051908082528060200260200182016040528015610c3e578160200160208202803683370190505b5095508067ffffffffffffffff811115610c5a57610c5a613f6b565b604051908082528060200260200182016040528015610c83578160200160208202803683370190505b50945083925060009150600090505b8215610e5d577f00000000000000000000000000000000000000000000000000000000000000006001600160a01b03166327507458816368c13d6b8b8b6040517fffffffff0000000000000000000000000000000000000000000000000000000060e085901b1681526001600160a01b0392831660048201529116602482015260448101889052606401602060405180830381865afa158015610d39573d6000803e3d6000fd5b505050506040513d601f19601f82011682018060405250810190610d5d9190613ed4565b6040518263ffffffff1660e01b8152600401610d7b91815260200190565b602060405180830381865afa158015610d98573d6000803e3d6000fd5b505050506040513d601f19601f82011682018060405250810190610dbc9190613eb7565b15610df057828683610dcd81613f33565b945081518110610ddf57610ddf613f9a565b602002602001018181525050610e1b565b828582610dfc81613f33565b935081518110610e0e57610e0e613f9a565b6020026020010181815250505b6001600160a01b0380891660009081526004602090815260408083208b851684528252808320938d168352928152828220958252949094529092205491610c92565b50505050935093915050565b7f00000000000000000000000000000000000000000000000000000000000000006001600160a01b0381161580610ea85750336001600160a01b038216145b610ef45760405162461bcd60e51b815260206004820152601860248201527f416363657373436f6e74726f6c6c65642f496e76616c6964000000000000000060448201526064016106d3565b81602001357f6d67762f7472616465537563636573730000000000000000000000000000000003610f2e57610f2883612493565b50505050565b60408301803590610f429060208601613b5e565b6001600160a01b0316610f586020860186613b5e565b604080516001600160a01b037f0000000000000000000000000000000000000000000000000000000000000000811682528735602083015292909216917f736a3993b9f8b1c5603896c76376792887f376b1fe7fc981e09a16530bf1e4e0910160405180910390a4610f288383612604565b505050565b6110016040518060a0016040528060008152602001600081526020016000815260200160008152602001600081525090565b6000806110146080850160608601613fc9565b61103a576110256020850185613b5e565b6110356040860160208701613b5e565b611057565b61104a6040850160208601613b5e565b6110576020860186613b5e565b9150915061106b8133308760c0013561263d565b6110b75760405162461bcd60e51b815260206004820152601a60248201527f6d67764f726465722f6d6f2f7472616e73666572496e4661696c00000000000060448201526064016106d3565b60005b6110ca6101208601356001613fe6565b81101561128057610140850135158015906110e957508461014001355a105b6112805760008080806001600160a01b037f00000000000000000000000000000000000000000000000000000000000000001663fbffe5fd88888c608001358d60c001358e60600160208101906111409190613fc9565b61114b57600161114e565b60005b6040517fffffffff0000000000000000000000000000000000000000000000000000000060e088901b1681526001600160a01b039586166004820152949093166024850152604484019190915260648301521515608482015260a4016080604051808303816000875af11580156111c9573d6000803e3d6000fd5b505050506040513d601f19601f820116820180604052508101906111ed9190613ffe565b935093509350935083886000018181516112079190613fe6565b90525060208801805184919061121e908390613fe6565b905250604088018051839190611235908390613fe6565b90525060608801805182919061124c908390613fe6565b9052508315801561125b575081155b156112695750505050611280565b50505050808061127890613f33565b9150506110ba565b50600061128d8585612768565b905061129f6060860160408701613fc9565b15806112a85750805b806112c057506112c061012086016101008701613fc9565b61130c5760405162461bcd60e51b815260206004820152601960248201527f6d67764f726465722f6d6f2f6e6f5061727469616c46696c6c0000000000000060448201526064016106d3565b83511561136e57611322833386600001516127b1565b61136e5760405162461bcd60e51b815260206004820152601b60248201527f6d67764f726465722f6d6f2f7472616e736665724f75744661696c000000000060448201526064016106d3565b61138061012086016101008701613fc9565b801561138a575080155b1561172d576040805160e0810182526001600160a01b0380851682528516602082015260608601518651611430938301916113c491613fe6565b6113d29060a08a0135613f1c565b815260200186602001518860e001356113eb9190613f1c565b81526020016114187fae7e31c3220e851db9f204a28b279dfe52b973600b0a456991089c220ae722245490565b815260200160008152602001600081525033346128d5565b6080850181905261144690339084908690612b3f565b336114576040870160208801613b5e565b6001600160a01b031661146d6020880188613b5e565b6001600160a01b03167f587734843819064f2153f96c808d1aeacaceccfa595ec4b9ed484c4bff687f7c7f00000000000000000000000000000000000000000000000000000000000000006114c860808b0160608c01613fc9565b895160208b01516040808d015160808e015191516115189695949392906001600160a01b03969096168652931515602086015260408501929092526060840152608083015260a082015260c00190565b60405180910390a483608001516000036116bb5761153c6060860160408701613fc9565b156115895760405162461bcd60e51b815260206004820152601960248201527f6d67764f726465722f6d6f2f6e6f5061727469616c46696c6c0000000000000060448201526064016106d3565b6115a7823386602001518860c001356115a29190613f1c565b6127b1565b6115f35760405162461bcd60e51b815260206004820152601a60248201527f6d67764f726465722f6d6f2f7472616e73666572496e4661696c00000000000060448201526064016106d3565b60008460400151346116059190613fe6565b11156116b3576040840151600090339061161f9034613fe6565b604051600081818185875af1925050503d806000811461165b576040519150601f19603f3d011682016040523d82523d6000602084013e611660565b606091505b50509050806116b15760405162461bcd60e51b815260206004820152601f60248201527f6d67764f726465722f6d6f2f726566756e6450726f766973696f6e4661696c0060448201526064016106d3565b505b505050919050565b6116d9823386602001518860c001356116d49190613f1c565b612410565b610160850135156116b3576116f361016086013543613fe6565b6001600160a01b03808416600090815260036020908152604080832093881683529281528282206080890151835290522055505050919050565b611746823386602001518860c001356115a29190613f1c565b6117925760405162461bcd60e51b815260206004820152601a60248201527f6d67764f726465722f6d6f2f7472616e73666572496e4661696c00000000000060448201526064016106d3565b60008460400151346117a49190613fe6565b111561185257604084015160009033906117be9034613fe6565b604051600081818185875af1925050503d80600081146117fa576040519150601f19603f3d011682016040523d82523d6000602084013e6117ff565b606091505b50509050806118505760405162461bcd60e51b815260206004820152601660248201527f6d67764f726465722f6d6f2f726566756e644661696c0000000000000000000060448201526064016106d3565b505b336118636040870160208801613b5e565b6001600160a01b03166118796020880188613b5e565b6001600160a01b03167f587734843819064f2153f96c808d1aeacaceccfa595ec4b9ed484c4bff687f7c7f00000000000000000000000000000000000000000000000000000000000000006118d460808b0160608c01613fc9565b89516020808c01516040808e015181516001600160a01b039097168752941515928601929092529084019190915260608301526080820152600060a082015260c00160405180910390a4505050919050565b60007f00000000000000000000000000000000000000000000000000000000000000006001600160a01b03811615806119675750336001600160a01b038216145b6119b35760405162461bcd60e51b815260206004820152601860248201527f416363657373436f6e74726f6c6c65642f496e76616c6964000000000000000060448201526064016106d3565b6119bc83612bc0565b611a085760405162461bcd60e51b815260206004820152601660248201527f6d67764f666665722f61626f72742f72656e656765640000000000000000000060448201526064016106d3565b6000611a188460a0013585612c45565b1115611a665760405162461bcd60e51b815260206004820152601860248201527f6d67764f666665722f61626f72742f7075744661696c6564000000000000000060448201526064016106d3565b6000611a76846080013585612ca2565b1115611ac45760405162461bcd60e51b815260206004820152601860248201527f6d67764f666665722f61626f72742f6765744661696c6564000000000000000060448201526064016106d3565b50919050565b7f7d382ebca3e46505071795e192d28166a3d4bd0685585591bc6c5b8df6769fd2546001600160a01b03163314611b435760405162461bcd60e51b815260206004820152601860248201527f416363657373436f6e74726f6c6c65642f496e76616c6964000000000000000060448201526064016106d3565b6001600160a01b038116611b995760405162461bcd60e51b815260206004820152601860248201527f416363657373436f6e74726f6c6c65642f307841646d696e000000000000000060448201526064016106d3565b7f7d382ebca3e46505071795e192d28166a3d4bd0685585591bc6c5b8df6769fd280547fffffffffffffffffffffffff0000000000000000000000000000000000000000166001600160a01b0392909216919091179055565b6000303303611c435760405162461bcd60e51b815260206004820152601260248201527f4d75746c692f6e6f5265656e7472616e6379000000000000000000000000000060448201526064016106d3565b6106f3611c55368490038401846140a6565b33346128d5565b600080611c79611c71368690038601866140a6565b843334612d42565b91509150600082118190611ca05760405162461bcd60e51b81526004016106d3919061418f565b5050505050565b6000611cb68585858533612fe8565b95945050505050565b7f7d382ebca3e46505071795e192d28166a3d4bd0685585591bc6c5b8df6769fd2546001600160a01b0316331480611d1f5750336001600160a01b037f000000000000000000000000000000000000000000000000000000000000000016145b611d6b5760405162461bcd60e51b815260206004820152601860248201527f416363657373436f6e74726f6c6c65642f496e76616c6964000000000000000060448201526064016106d3565b6040517f095ea7b30000000000000000000000000000000000000000000000000000000081526001600160a01b037f0000000000000000000000000000000000000000000000000000000000000000811660048301526024820183905283169063095ea7b3906044016020604051808303816000875af1158015611df3573d6000803e3d6000fd5b505050506040513d601f19601f82011682018060405250810190611e179190613eb7565b611e635760405162461bcd60e51b815260206004820152601560248201527f6d67764f666665722f617070726f76652f4661696c000000000000000000000060448201526064016106d3565b5050565b60608167ffffffffffffffff811115611e8257611e82613f6b565b604051908082528060200260200182016040528015611eab578160200160208202803683370190505b50905060005b82811015611f1857611edc8686868685818110611ed057611ed0613f9a565b90506020020135611f6c565b828281518110611eee57611eee613f9a565b6001600160a01b039092166020928302919091019091015280611f1081613f33565b915050611eb1565b50949350505050565b6000808215611f53576000611f37888886611f6c565b6001600160a01b03166000908152600160205260409020549150505b611f61818888888888613144565b979650505050505050565b6001600160a01b03808416600090815260208181526040808320868516845282528083208584529091529020541680611fe75760405162461bcd60e51b815260206004820152601560248201527f6d756c7469557365722f756e6b6f776e4f66666572000000000000000000000060448201526064016106d3565b9392505050565b30330361203d5760405162461bcd60e51b815260206004820152601260248201527f4d75746c692f6e6f5265656e7472616e6379000000000000000000000000000060448201526064016106d3565b61204733346133c9565b565b7f7d382ebca3e46505071795e192d28166a3d4bd0685585591bc6c5b8df6769fd290565b7fae7e31c3220e851db9f204a28b279dfe52b973600b0a456991089c220ae7222490565b8060000361209e57505050565b6001600160a01b038084166000908152600260209081526040808320938616835292905220548111156121135760405162461bcd60e51b815260206004820152601d60248201527f4d756c74692f6465626974546f6b656e2f696e73756666696369656e7400000060448201526064016106d3565b6001600160a01b0380841660009081526002602090815260408083209386168352929052908120805483929061214a908490613f1c565b92505081905550826001600160a01b0316826001600160a01b03167f7a97b405ee1bd89550b225932dbdd0431e30426b7c8f02f05b3cb0e1bdfb84768360405161219691815260200190565b60405180910390a3505050565b6001600160a01b03821660009081526001602052604090205481111561220b5760405162461bcd60e51b815260206004820152601d60248201527f4d756c74692f64656269744f6e4d67762f696e73756666696369656e7400000060448201526064016106d3565b6001600160a01b03821660009081526001602052604081208054839290612233908490613f1c565b92505081905550816001600160a01b03167f00000000000000000000000000000000000000000000000000000000000000006001600160a01b03167f8b11a64c87f3bbe8de83349295a7b8d0d7ca9e7555365548fb47748cf4c1cfc78360405161229f91815260200190565b60405180910390a35050565b6040517f2e1a7d4d000000000000000000000000000000000000000000000000000000008152600481018290526000907f00000000000000000000000000000000000000000000000000000000000000006001600160a01b031690632e1a7d4d906024016020604051808303816000875af115801561232e573d6000803e3d6000fd5b505050506040513d601f19601f820116820180604052508101906123529190613eb7565b61239e5760405162461bcd60e51b815260206004820152601e60248201527f6d67764f666665722f77697468647261772f7472616e736665724661696c000060448201526064016106d3565b6001600160a01b0383163014612407576040516001600160a01b038416908390600081818185875af1925050503d80600081146123f7576040519150601f19603f3d011682016040523d82523d6000602084013e6123fc565b606091505b5050809150506106f3565b50600192915050565b6001600160a01b03808416600090815260026020908152604080832093861683529290529081208054839290612447908490613fe6565b92505081905550826001600160a01b0316826001600160a01b03167fb2b1ec266d1bab793ae1d020eedf03e575cc390e5fb9e370cb099fdf2f61534d8360405161219691815260200190565b6000806124a36020840184613b5e565b905060006124b76040850160208601613b5e565b90506124c284613447565b156124d1575060019392505050565b60006124e283838760400135611f6c565b90506124ee85826135f4565b6124fd57506000949350505050565b6001600160a01b0381166000908152600160205260409020546125219082906121a3565b6001600160a01b0381166000908152600160205260409020546125459082906122ab565b6125f9578460400135826001600160a01b0316846001600160a01b03167f736a3993b9f8b1c5603896c76376792887f376b1fe7fc981e09a16530bf1e4e07f00000000000000000000000000000000000000000000000000000000000000006040516125e691906001600160a01b039190911681527f6d67764f726465722f706f7374686f6f6b2f7472616e73666572576569000000602082015260400190565b60405180910390a4506000949350505050565b506001949350505050565b6000806126316126176020860186613b5e565b6126276040870160208801613b5e565b8660400135611f6c565b905061067e84826135f4565b600081158061265d5750826001600160a01b0316846001600160a01b0316145b1561266a5750600161067e565b604080516001600160a01b0386811660248301528581166044830152606480830186905283518084039091018152608490920183526020820180517bffffffffffffffffffffffffffffffffffffffffffffffffffffffff167f23b872dd0000000000000000000000000000000000000000000000000000000017905291516000928392908916916126fc91906141e0565b6000604051808303816000865af19150503d8060008114612739576040519150601f19603f3d011682016040523d82523d6000602084013e61273e565b606091505b5091509150818015611f61575080511580611f61575080806020019051810190611f619190613eb7565b600061277a6080840160608501613fc9565b15612792578260c001358260200151101590506106f3565b606082015182516080850135916127a891613fe6565b101590506106f3565b60008115806127c857506001600160a01b03831630145b156127d557506001611fe7565b604080516001600160a01b038581166024830152604480830186905283518084039091018152606490920183526020820180517bffffffffffffffffffffffffffffffffffffffffffffffffffffffff167fa9059cbb00000000000000000000000000000000000000000000000000000000179052915160009283929088169161285f91906141e0565b6000604051808303816000865af19150503d806000811461289c576040519150601f19603f3d011682016040523d82523d6000602084013e6128a1565b606091505b50915091508180156128cb5750805115806128cb5750808060200190518101906128cb9190613eb7565b9695505050505050565b6000306001600160a01b0384160361292f5760405162461bcd60e51b815260206004820152601260248201527f4d75746c692f6e6f5265656e7472616e6379000000000000000000000000000060448201526064016106d3565b6040517f70a082310000000000000000000000000000000000000000000000000000000081523060048201526000907f00000000000000000000000000000000000000000000000000000000000000006001600160a01b0316906370a0823190602401602060405180830381865afa1580156129af573d6000803e3d6000fd5b505050506040513d601f19601f820116820180604052508101906129d39190613ed4565b9050600062ffffff80168660800151116129f1578560800151612a14565b7fae7e31c3220e851db9f204a28b279dfe52b973600b0a456991089c220ae72224545b90507f00000000000000000000000000000000000000000000000000000000000000006001600160a01b03166349f6d2dc85612a51896000015190565b60208a015160408b81015160608d015160a08e015160c08f0151935160e089901b7fffffffff000000000000000000000000000000000000000000000000000000001681526001600160a01b039687166004820152959094166024860152604485019190915260648401526084830187905260a483019190915260c482015260e40160206040518083038185885af1158015612af1573d6000803e3d6000fd5b50505050506040513d601f19601f82011682018060405250810190612b169190613ed4565b9250612b2c86600001518760200151858861380b565b612b3685836138cc565b50509392505050565b6001600160a01b0383811660009081526004602090815260408083208685168452825280832093881683529281528282208280529052208054908290558015611ca0576001600160a01b0393841660009081526004602090815260408083209587168352948152848220969095168152948452828520918552925290912055565b600080600381612bd36020860186613b5e565b6001600160a01b03166001600160a01b031681526020019081526020016000206000846020016020810190612c089190613b5e565b6001600160a01b03168152602080820192909252604090810160009081208683013582529092529020549050801580611fe7575043111592915050565b600080612c72612c586020850185613b5e565b612c686040860160208701613b5e565b8560400135611f6c565b9050612c8e612c876040850160208601613b5e565b82866127b1565b612c98578361067e565b5060009392505050565b600080612cb26020840184613b5e565b90506000612cc66040850160208601613b5e565b90506000612cd983838760400135611f6c565b6001600160a01b0380851660009081526002602090815260408083209385168352929052205490915086811015612d2a57612d15848383612091565b612d1f8188613f1c565b9450505050506106f3565b612d35848389612091565b60009450505050506106f3565b60006060612d598660000151876020015187611f6c565b6001600160a01b0316846001600160a01b031614612db95760405162461bcd60e51b815260206004820152601e60248201527f4d756c74692f7570646174654f666665722f756e617574686f72697a6564000060448201526064016106d3565b6040517f70a082310000000000000000000000000000000000000000000000000000000081523060048201526000907f00000000000000000000000000000000000000000000000000000000000000006001600160a01b0316906370a0823190602401602060405180830381865afa158015612e39573d6000803e3d6000fd5b505050506040513d601f19601f82011682018060405250810190612e5d9190613ed4565b90507f00000000000000000000000000000000000000000000000000000000000000006001600160a01b0316636a4f769185612e9a8a6000015190565b60208b015160408c015160608d015160808e015162ffffff10612ec1578d60800151612ee4565b7fae7e31c3220e851db9f204a28b279dfe52b973600b0a456991089c220ae72224545b8e60a001518f60c001518f6040518a63ffffffff1660e01b8152600401612f519897969594939291906001600160a01b03988916815296909716602087015260408601949094526060850192909252608084015260a083015260c082015260e08101919091526101000190565b6000604051808303818588803b158015612f6a57600080fd5b505af193505050508015612f7c575060015b612fc057612f886141fc565b806308c379a003612fb45750612f9c614218565b80612fa75750612fb6565b600093509150612fdf9050565b505b3d6000803e3d6000fd5b612fca85826138cc565b50506040805160208101909152600081528491505b94509492505050565b6001600160a01b038581166000908152602081815260408083208885168452825280832087845290915281205490918381169116146130695760405162461bcd60e51b815260206004820152601f60248201527f4d756c74692f726574726163744f666665722f756e617574686f72697a65640060448201526064016106d3565b6001600160a01b037f00000000000000000000000000000000000000000000000000000000000000001663ad97db1b87876040517fffffffff0000000000000000000000000000000000000000000000000000000060e085901b1681526001600160a01b039283166004820152911660248201526044810187905285151560648201526084016020604051808303816000875af115801561310e573d6000803e3d6000fd5b505050506040513d601f19601f820116820180604052508101906131329190613ed4565b90508015611cb657611cb682826139ac565b600080806001600160a01b037f00000000000000000000000000000000000000000000000000000000000000001663cbf75c9a89896040517fffffffff0000000000000000000000000000000000000000000000000000000060e085901b1681526001600160a01b039283166004820152911660248201526044016040805180830381865afa1580156131db573d6000803e3d6000fd5b505050506040513d601f19601f820116820180604052508101906131ff91906142c0565b9150915060007f00000000000000000000000000000000000000000000000000000000000000006001600160a01b0316635722647b61323b8b90565b8a6040517fffffffff0000000000000000000000000000000000000000000000000000000060e085901b1681526001600160a01b0392831660048201529116602482015260448101889052606401602060405180830381865afa1580156132a6573d6000803e3d6000fd5b505050506040513d601f19601f820116820180604052508101906132ca9190613ed4565b9050600086604085901c61ffff1611156132ed575061ffff604084901c166132f0565b50855b62ffffff881115613320577fae7e31c3220e851db9f204a28b279dfe52b973600b0a456991089c220ae722245497505b60008161333662ffffff606087901c168b613fe6565b61334091906142e4565b61334e90633b9aca006142e4565b9050600061ffff602085901c1661337562ffffff603087901c811690604888901c16613fe6565b61337f91906142e4565b61338d90633b9aca006142e4565b9050600061339b8e83613fe6565b9050828110156133b4576133af8184613f1c565b6133b7565b60005b9e9d5050505050505050505050505050565b7f00000000000000000000000000000000000000000000000000000000000000006001600160a01b031663b60d4288826040518263ffffffff1660e01b81526004016000604051808303818588803b15801561342457600080fd5b505af1158015613438573d6000803e3d6000fd5b5050505050611e6382826139ac565b60008061345383613a40565b9050600061346084613a65565b905081600003613474575060019392505050565b6001600160a01b037f000000000000000000000000000000000000000000000000000000000000000016636a4f76916134b06020870187613b5e565b6134c06040880160208901613b5e565b848660c08a013560481c62ffffff1660c08b013560201c61ffff1660608c013560c01c63ffffffff16604080517fffffffff0000000000000000000000000000000000000000000000000000000060e08b901b1681526001600160a01b03988916600482015297909616602488015260448701949094526064860192909252608485015260a484015260c483015287013560e482015261010401600060405180830381600087803b15801561357457600080fd5b505af1925050508015613585575060015b6135ea576135df6135996020860186613b5e565b6135a96040870160208801613b5e565b604087013560016135da6135c060208b018b613b5e565b6135d060408c0160208d01613b5e565b8b60400135611f6c565b612fe8565b506000949350505050565b5060019392505050565b6000806136046020850185613b5e565b905060006136186040860160208701613b5e565b6001600160a01b0380841660009081526002602090815260408083209389168352929052205490915061364c8386836127b1565b613701578560400135826001600160a01b0316846001600160a01b03167f736a3993b9f8b1c5603896c76376792887f376b1fe7fc981e09a16530bf1e4e07f00000000000000000000000000000000000000000000000000000000000000006040516136ed91906001600160a01b039190911681527f6d67764f726465722f72656465656d416c6c2f7472616e736665724f75740000602082015260400190565b60405180910390a4600093505050506106f3565b61370c838683612091565b6001600160a01b0380831660009081526002602090815260408083209389168352929052205461373d8387836127b1565b6137f3578660400135836001600160a01b0316856001600160a01b03167f736a3993b9f8b1c5603896c76376792887f376b1fe7fc981e09a16530bf1e4e07f00000000000000000000000000000000000000000000000000000000000000006040516137de91906001600160a01b039190911681527f6d67764f726465722f72656465656d416c6c2f7472616e73666572496e000000602082015260400190565b60405180910390a460009450505050506106f3565b6137fe838783612091565b5060019695505050505050565b6001600160a01b0384811660008181526020818152604080832088861680855290835281842088855283529281902080547fffffffffffffffffffffffff00000000000000000000000000000000000000001687871690811790915581517f000000000000000000000000000000000000000000000000000000000000000090961686529185019190915285939192917f460a431c86ecaea27134277388c72021356689d9eb62c3b25a5e4a97da7a8a14910160405180910390a450505050565b6040517f70a082310000000000000000000000000000000000000000000000000000000081523060048201526000907f00000000000000000000000000000000000000000000000000000000000000006001600160a01b0316906370a0823190602401602060405180830381865afa15801561394c573d6000803e3d6000fd5b505050506040513d601f19601f820116820180604052508101906139709190613ed4565b905081810361397e57505050565b8181111561399957610fca836139948484613f1c565b6139ac565b610fca836139a78385613f1c565b6121a3565b6001600160a01b038216600090815260016020526040812080548392906139d4908490613fe6565b92505081905550816001600160a01b03167f00000000000000000000000000000000000000000000000000000000000000006001600160a01b03167f23d894830a97b148f17c5fea5f968145dbc040b3d819c030ac7cc80c71c92ed98360405161229f91815260200190565b600060808201356bffffffffffffffffffffffff6060840135165b6106f39190613f1c565b600060a0820135606080840135901c6bffffffffffffffffffffffff16613a5b565b6001600160a01b0381168114613a9c57600080fd5b50565b600080600060608486031215613ab457600080fd5b8335613abf81613a87565b92506020840135613acf81613a87565b929592945050506040919091013590565b60008060408385031215613af357600080fd5b8235613afe81613a87565b946020939093013593505050565b60008060408385031215613b1f57600080fd5b8235613b2a81613a87565b91506020830135613b3a81613a87565b809150509250929050565b600060208284031215613b5757600080fd5b5035919050565b600060208284031215613b7057600080fd5b8135611fe781613a87565b600080600060608486031215613b9057600080fd5b8335613b9b81613a87565b92506020840135613bab81613a87565b91506040840135613bbb81613a87565b809150509250925092565b600081518084526020808501945080840160005b83811015613bf657815187529582019590820190600101613bda565b509495945050505050565b604081526000613c146040830185613bc6565b8281036020840152611cb68185613bc6565b60006101208284031215611ac457600080fd5b600080828403610160811215613c4e57600080fd5b613c588585613c26565b925060407ffffffffffffffffffffffffffffffffffffffffffffffffffffffffffffffee082011215613c8a57600080fd5b50610120830190509250929050565b60006101808284031215611ac457600080fd5b60006101208284031215613cbf57600080fd5b6106f08383613c26565b600060e08284031215611ac457600080fd5b600060e08284031215613ced57600080fd5b6106f08383613cc9565b6000806101008385031215613d0b57600080fd5b613d158484613cc9565b9460e0939093013593505050565b8015158114613a9c57600080fd5b60008060008060808587031215613d4757600080fd5b8435613d5281613a87565b93506020850135613d6281613a87565b9250604085013591506060850135613d7981613d23565b939692955090935050565b60008060008060608587031215613d9a57600080fd5b8435613da581613a87565b93506020850135613db581613a87565b9250604085013567ffffffffffffffff80821115613dd257600080fd5b818701915087601f830112613de657600080fd5b813581811115613df557600080fd5b8860208260051b8501011115613e0a57600080fd5b95989497505060200194505050565b6020808252825182820181905260009190848201906040850190845b81811015613e5a5783516001600160a01b031683529284019291840191600101613e35565b50909695505050505050565b600080600080600060a08688031215613e7e57600080fd5b8535613e8981613a87565b94506020860135613e9981613a87565b94979496505050506040830135926060810135926080909101359150565b600060208284031215613ec957600080fd5b8151611fe781613d23565b600060208284031215613ee657600080fd5b5051919050565b7f4e487b7100000000000000000000000000000000000000000000000000000000600052601160045260246000fd5b600082821015613f2e57613f2e613eed565b500390565b60007fffffffffffffffffffffffffffffffffffffffffffffffffffffffffffffffff8203613f6457613f64613eed565b5060010190565b7f4e487b7100000000000000000000000000000000000000000000000000000000600052604160045260246000fd5b7f4e487b7100000000000000000000000000000000000000000000000000000000600052603260045260246000fd5b600060208284031215613fdb57600080fd5b8135611fe781613d23565b60008219821115613ff957613ff9613eed565b500190565b6000806000806080858703121561401457600080fd5b505082516020840151604085015160609095015191969095509092509050565b7fffffffffffffffffffffffffffffffffffffffffffffffffffffffffffffffe0601f830116810181811067ffffffffffffffff8211171561409f577f4e487b7100000000000000000000000000000000000000000000000000000000600052604160045260246000fd5b6040525050565b600060e082840312156140b857600080fd5b60405160e0810181811067ffffffffffffffff82111715614102577f4e487b7100000000000000000000000000000000000000000000000000000000600052604160045260246000fd5b604052823561411081613a87565b8152602083013561412081613a87565b8060208301525060408301356040820152606083013560608201526080830135608082015260a083013560a082015260c083013560c08201528091505092915050565b60005b8381101561417e578181015183820152602001614166565b83811115610f285750506000910152565b60208152600082518060208401526141ae816040850160208701614163565b601f017fffffffffffffffffffffffffffffffffffffffffffffffffffffffffffffffe0169190910160400192915050565b600082516141f2818460208701614163565b9190910192915050565b600060033d11156142155760046000803e5060005160e01c5b90565b600060443d10156142265790565b6040517ffffffffffffffffffffffffffffffffffffffffffffffffffffffffffffffffc803d016004833e81513d67ffffffffffffffff816024840111818411171561427457505050505090565b828501915081518181111561428c5750505050505090565b843d87010160208285010111156142a65750505050505090565b6142b560208286010187614034565b509095945050505050565b600080604083850312156142d357600080fd5b505080516020909101519092909150565b6000817fffffffffffffffffffffffffffffffffffffffffffffffffffffffffffffffff048311821515161561431c5761431c613eed565b50029056fea2646970667358221220a46a53e84e436f997abf7aa3edb4f590a4abc229430f0c6df21d424942d28f1264736f6c634300080e0033",
  "devdoc": {
    "kind": "dev",
    "methods": {},
    "version": 1
  },
  "userdoc": {
    "events": {
      "LogIncident(address,address,address,uint256,bytes32)": {
        "notice": "Events "
      },
      "NewOwnedOffer(address,address,address,uint256,address)": {
        "notice": "Multi offer specific Events "
      }
    },
    "kind": "user",
    "methods": {
      "approveMangrove(address,uint256)": {
        "notice": "`this` contract needs to approve Mangrove to let it perform outbound token transfer at the end of the `makerExecute` function NB if anyone can call this function someone could reset it to 0 for griefing"
      },
      "withdrawFromMangrove(address,uint256)": {
        "notice": "withdraws ETH from the bounty vault of the Mangrove. NB: `Mangrove.fund` function need not be called by `this` so is not included here. Warning: this function should not be called internally for msg.sender provision is being checked"
      }
    },
    "version": 1
  },
  "storageLayout": {
    "storage": [
      {
        "astId": 14524,
        "contract": "contracts/Strategies/OrderLogics/MangroveOrderEnriched.sol:MangroveOrderEnriched",
        "label": "_offerOwners",
        "offset": 0,
        "slot": "0",
        "type": "t_mapping(t_contract(IEIP20)23325,t_mapping(t_contract(IEIP20)23325,t_mapping(t_uint256,t_address)))"
      },
      {
        "astId": 14528,
        "contract": "contracts/Strategies/OrderLogics/MangroveOrderEnriched.sol:MangroveOrderEnriched",
        "label": "mgvBalance",
        "offset": 0,
        "slot": "1",
        "type": "t_mapping(t_address,t_uint256)"
      },
      {
        "astId": 14535,
        "contract": "contracts/Strategies/OrderLogics/MangroveOrderEnriched.sol:MangroveOrderEnriched",
        "label": "tokenBalanceOf",
        "offset": 0,
        "slot": "2",
        "type": "t_mapping(t_contract(IEIP20)23325,t_mapping(t_address,t_uint256))"
      },
      {
        "astId": 22219,
        "contract": "contracts/Strategies/OrderLogics/MangroveOrderEnriched.sol:MangroveOrderEnriched",
        "label": "expiring",
        "offset": 0,
        "slot": "3",
        "type": "t_mapping(t_contract(IEIP20)23325,t_mapping(t_contract(IEIP20)23325,t_mapping(t_uint256,t_uint256)))"
      },
      {
        "astId": 23006,
        "contract": "contracts/Strategies/OrderLogics/MangroveOrderEnriched.sol:MangroveOrderEnriched",
        "label": "next",
        "offset": 0,
        "slot": "4",
        "type": "t_mapping(t_contract(IEIP20)23325,t_mapping(t_contract(IEIP20)23325,t_mapping(t_address,t_mapping(t_uint256,t_uint256))))"
      }
    ],
    "types": {
      "t_address": {
        "encoding": "inplace",
        "label": "address",
        "numberOfBytes": "20"
      },
      "t_contract(IEIP20)23325": {
        "encoding": "inplace",
        "label": "contract IEIP20",
        "numberOfBytes": "20"
      },
      "t_mapping(t_address,t_mapping(t_uint256,t_uint256))": {
        "encoding": "mapping",
        "key": "t_address",
        "label": "mapping(address => mapping(uint256 => uint256))",
        "numberOfBytes": "32",
        "value": "t_mapping(t_uint256,t_uint256)"
      },
      "t_mapping(t_address,t_uint256)": {
        "encoding": "mapping",
        "key": "t_address",
        "label": "mapping(address => uint256)",
        "numberOfBytes": "32",
        "value": "t_uint256"
      },
      "t_mapping(t_contract(IEIP20)23325,t_mapping(t_address,t_mapping(t_uint256,t_uint256)))": {
        "encoding": "mapping",
        "key": "t_contract(IEIP20)23325",
        "label": "mapping(contract IEIP20 => mapping(address => mapping(uint256 => uint256)))",
        "numberOfBytes": "32",
        "value": "t_mapping(t_address,t_mapping(t_uint256,t_uint256))"
      },
      "t_mapping(t_contract(IEIP20)23325,t_mapping(t_address,t_uint256))": {
        "encoding": "mapping",
        "key": "t_contract(IEIP20)23325",
        "label": "mapping(contract IEIP20 => mapping(address => uint256))",
        "numberOfBytes": "32",
        "value": "t_mapping(t_address,t_uint256)"
      },
      "t_mapping(t_contract(IEIP20)23325,t_mapping(t_contract(IEIP20)23325,t_mapping(t_address,t_mapping(t_uint256,t_uint256))))": {
        "encoding": "mapping",
        "key": "t_contract(IEIP20)23325",
        "label": "mapping(contract IEIP20 => mapping(contract IEIP20 => mapping(address => mapping(uint256 => uint256))))",
        "numberOfBytes": "32",
        "value": "t_mapping(t_contract(IEIP20)23325,t_mapping(t_address,t_mapping(t_uint256,t_uint256)))"
      },
      "t_mapping(t_contract(IEIP20)23325,t_mapping(t_contract(IEIP20)23325,t_mapping(t_uint256,t_address)))": {
        "encoding": "mapping",
        "key": "t_contract(IEIP20)23325",
        "label": "mapping(contract IEIP20 => mapping(contract IEIP20 => mapping(uint256 => address)))",
        "numberOfBytes": "32",
        "value": "t_mapping(t_contract(IEIP20)23325,t_mapping(t_uint256,t_address))"
      },
      "t_mapping(t_contract(IEIP20)23325,t_mapping(t_contract(IEIP20)23325,t_mapping(t_uint256,t_uint256)))": {
        "encoding": "mapping",
        "key": "t_contract(IEIP20)23325",
        "label": "mapping(contract IEIP20 => mapping(contract IEIP20 => mapping(uint256 => uint256)))",
        "numberOfBytes": "32",
        "value": "t_mapping(t_contract(IEIP20)23325,t_mapping(t_uint256,t_uint256))"
      },
      "t_mapping(t_contract(IEIP20)23325,t_mapping(t_uint256,t_address))": {
        "encoding": "mapping",
        "key": "t_contract(IEIP20)23325",
        "label": "mapping(contract IEIP20 => mapping(uint256 => address))",
        "numberOfBytes": "32",
        "value": "t_mapping(t_uint256,t_address)"
      },
      "t_mapping(t_contract(IEIP20)23325,t_mapping(t_uint256,t_uint256))": {
        "encoding": "mapping",
        "key": "t_contract(IEIP20)23325",
        "label": "mapping(contract IEIP20 => mapping(uint256 => uint256))",
        "numberOfBytes": "32",
        "value": "t_mapping(t_uint256,t_uint256)"
      },
      "t_mapping(t_uint256,t_address)": {
        "encoding": "mapping",
        "key": "t_uint256",
        "label": "mapping(uint256 => address)",
        "numberOfBytes": "32",
        "value": "t_address"
      },
      "t_mapping(t_uint256,t_uint256)": {
        "encoding": "mapping",
        "key": "t_uint256",
        "label": "mapping(uint256 => uint256)",
        "numberOfBytes": "32",
        "value": "t_uint256"
      },
      "t_uint256": {
        "encoding": "inplace",
        "label": "uint256",
        "numberOfBytes": "32"
      }
    }
  }
}