{
  "address": "0x493Bd4Ae961B3C50e1a1C86CC0D433aDa66870D0",
  "abi": [
    {
      "inputs": [
        {
          "internalType": "address",
          "name": "governance",
          "type": "address"
        },
        {
          "internalType": "uint256",
          "name": "gasprice",
          "type": "uint256"
        },
        {
          "internalType": "uint256",
          "name": "gasmax",
          "type": "uint256"
        }
      ],
      "stateMutability": "nonpayable",
      "type": "constructor"
    },
    {
      "anonymous": false,
      "inputs": [
        {
          "indexed": true,
          "internalType": "address",
          "name": "outbound_tkn",
          "type": "address"
        },
        {
          "indexed": true,
          "internalType": "address",
          "name": "inbound_tkn",
          "type": "address"
        },
        {
          "indexed": false,
          "internalType": "address",
          "name": "owner",
          "type": "address"
        },
        {
          "indexed": false,
          "internalType": "address",
          "name": "spender",
          "type": "address"
        },
        {
          "indexed": false,
          "internalType": "uint256",
          "name": "value",
          "type": "uint256"
        }
      ],
      "name": "Approval",
      "type": "event"
    },
    {
      "anonymous": false,
      "inputs": [
        {
          "indexed": true,
          "internalType": "address",
          "name": "maker",
          "type": "address"
        },
        {
          "indexed": false,
          "internalType": "uint256",
          "name": "amount",
          "type": "uint256"
        }
      ],
      "name": "Credit",
      "type": "event"
    },
    {
      "anonymous": false,
      "inputs": [
        {
          "indexed": true,
          "internalType": "address",
          "name": "maker",
          "type": "address"
        },
        {
          "indexed": false,
          "internalType": "uint256",
          "name": "amount",
          "type": "uint256"
        }
      ],
      "name": "Debit",
      "type": "event"
    },
    {
      "anonymous": false,
      "inputs": [],
      "name": "Kill",
      "type": "event"
    },
    {
      "anonymous": false,
      "inputs": [],
      "name": "NewMgv",
      "type": "event"
    },
    {
      "anonymous": false,
      "inputs": [
        {
          "indexed": true,
          "internalType": "address",
          "name": "outbound_tkn",
          "type": "address"
        },
        {
          "indexed": true,
          "internalType": "address",
          "name": "inbound_tkn",
          "type": "address"
        },
        {
          "indexed": false,
          "internalType": "uint256",
          "name": "id",
          "type": "uint256"
        },
        {
          "indexed": false,
          "internalType": "address",
          "name": "taker",
          "type": "address"
        },
        {
          "indexed": false,
          "internalType": "uint256",
          "name": "takerWants",
          "type": "uint256"
        },
        {
          "indexed": false,
          "internalType": "uint256",
          "name": "takerGives",
          "type": "uint256"
        },
        {
          "indexed": false,
          "internalType": "bytes32",
          "name": "mgvData",
          "type": "bytes32"
        }
      ],
      "name": "OfferFail",
      "type": "event"
    },
    {
      "anonymous": false,
      "inputs": [
        {
          "indexed": true,
          "internalType": "address",
          "name": "outbound_tkn",
          "type": "address"
        },
        {
          "indexed": true,
          "internalType": "address",
          "name": "inbound_tkn",
          "type": "address"
        },
        {
          "indexed": false,
          "internalType": "uint256",
          "name": "id",
          "type": "uint256"
        }
      ],
      "name": "OfferRetract",
      "type": "event"
    },
    {
      "anonymous": false,
      "inputs": [
        {
          "indexed": true,
          "internalType": "address",
          "name": "outbound_tkn",
          "type": "address"
        },
        {
          "indexed": true,
          "internalType": "address",
          "name": "inbound_tkn",
          "type": "address"
        },
        {
          "indexed": false,
          "internalType": "uint256",
          "name": "id",
          "type": "uint256"
        },
        {
          "indexed": false,
          "internalType": "address",
          "name": "taker",
          "type": "address"
        },
        {
          "indexed": false,
          "internalType": "uint256",
          "name": "takerWants",
          "type": "uint256"
        },
        {
          "indexed": false,
          "internalType": "uint256",
          "name": "takerGives",
          "type": "uint256"
        }
      ],
      "name": "OfferSuccess",
      "type": "event"
    },
    {
      "anonymous": false,
      "inputs": [
        {
          "indexed": true,
          "internalType": "address",
          "name": "outbound_tkn",
          "type": "address"
        },
        {
          "indexed": true,
          "internalType": "address",
          "name": "inbound_tkn",
          "type": "address"
        },
        {
          "indexed": false,
          "internalType": "address",
          "name": "maker",
          "type": "address"
        },
        {
          "indexed": false,
          "internalType": "uint256",
          "name": "wants",
          "type": "uint256"
        },
        {
          "indexed": false,
          "internalType": "uint256",
          "name": "gives",
          "type": "uint256"
        },
        {
          "indexed": false,
          "internalType": "uint256",
          "name": "gasprice",
          "type": "uint256"
        },
        {
          "indexed": false,
          "internalType": "uint256",
          "name": "gasreq",
          "type": "uint256"
        },
        {
          "indexed": false,
          "internalType": "uint256",
          "name": "id",
          "type": "uint256"
        },
        {
          "indexed": false,
          "internalType": "uint256",
          "name": "prev",
          "type": "uint256"
        }
      ],
      "name": "OfferWrite",
      "type": "event"
    },
    {
      "anonymous": false,
      "inputs": [
        {
          "indexed": true,
          "internalType": "address",
          "name": "outbound_tkn",
          "type": "address"
        },
        {
          "indexed": true,
          "internalType": "address",
          "name": "inbound_tkn",
          "type": "address"
        },
        {
          "indexed": false,
          "internalType": "address",
          "name": "taker",
          "type": "address"
        },
        {
          "indexed": false,
          "internalType": "uint256",
          "name": "takerGot",
          "type": "uint256"
        },
        {
          "indexed": false,
          "internalType": "uint256",
          "name": "takerGave",
          "type": "uint256"
        }
      ],
      "name": "OrderComplete",
      "type": "event"
    },
    {
      "anonymous": false,
      "inputs": [
        {
          "indexed": true,
          "internalType": "address",
          "name": "outbound_tkn",
          "type": "address"
        },
        {
          "indexed": true,
          "internalType": "address",
          "name": "inbound_tkn",
          "type": "address"
        },
        {
          "indexed": false,
          "internalType": "uint256",
          "name": "offerId",
          "type": "uint256"
        }
      ],
      "name": "PosthookFail",
      "type": "event"
    },
    {
      "anonymous": false,
      "inputs": [
        {
          "indexed": true,
          "internalType": "address",
          "name": "outbound_tkn",
          "type": "address"
        },
        {
          "indexed": true,
          "internalType": "address",
          "name": "inbound_tkn",
          "type": "address"
        },
        {
          "indexed": false,
          "internalType": "bool",
          "name": "value",
          "type": "bool"
        }
      ],
      "name": "SetActive",
      "type": "event"
    },
    {
      "anonymous": false,
      "inputs": [
        {
          "indexed": true,
          "internalType": "address",
          "name": "outbound_tkn",
          "type": "address"
        },
        {
          "indexed": true,
          "internalType": "address",
          "name": "inbound_tkn",
          "type": "address"
        },
        {
          "indexed": false,
          "internalType": "uint256",
          "name": "value",
          "type": "uint256"
        }
      ],
      "name": "SetDensity",
      "type": "event"
    },
    {
      "anonymous": false,
      "inputs": [
        {
          "indexed": true,
          "internalType": "address",
          "name": "outbound_tkn",
          "type": "address"
        },
        {
          "indexed": true,
          "internalType": "address",
          "name": "inbound_tkn",
          "type": "address"
        },
        {
          "indexed": false,
          "internalType": "uint256",
          "name": "value",
          "type": "uint256"
        }
      ],
      "name": "SetFee",
      "type": "event"
    },
    {
      "anonymous": false,
      "inputs": [
        {
          "indexed": true,
          "internalType": "address",
          "name": "outbound_tkn",
          "type": "address"
        },
        {
          "indexed": true,
          "internalType": "address",
          "name": "inbound_tkn",
          "type": "address"
        },
        {
          "indexed": false,
          "internalType": "uint256",
          "name": "offer_gasbase",
          "type": "uint256"
        }
      ],
      "name": "SetGasbase",
      "type": "event"
    },
    {
      "anonymous": false,
      "inputs": [
        {
          "indexed": false,
          "internalType": "uint256",
          "name": "value",
          "type": "uint256"
        }
      ],
      "name": "SetGasmax",
      "type": "event"
    },
    {
      "anonymous": false,
      "inputs": [
        {
          "indexed": false,
          "internalType": "uint256",
          "name": "value",
          "type": "uint256"
        }
      ],
      "name": "SetGasprice",
      "type": "event"
    },
    {
      "anonymous": false,
      "inputs": [
        {
          "indexed": false,
          "internalType": "address",
          "name": "value",
          "type": "address"
        }
      ],
      "name": "SetGovernance",
      "type": "event"
    },
    {
      "anonymous": false,
      "inputs": [
        {
          "indexed": false,
          "internalType": "address",
          "name": "value",
          "type": "address"
        }
      ],
      "name": "SetMonitor",
      "type": "event"
    },
    {
      "anonymous": false,
      "inputs": [
        {
          "indexed": false,
          "internalType": "bool",
          "name": "value",
          "type": "bool"
        }
      ],
      "name": "SetNotify",
      "type": "event"
    },
    {
      "anonymous": false,
      "inputs": [
        {
          "indexed": false,
          "internalType": "bool",
          "name": "value",
          "type": "bool"
        }
      ],
      "name": "SetUseOracle",
      "type": "event"
    },
    {
      "anonymous": false,
      "inputs": [
        {
          "indexed": false,
          "internalType": "address",
          "name": "value",
          "type": "address"
        }
      ],
      "name": "SetVault",
      "type": "event"
    },
    {
      "inputs": [],
      "name": "DOMAIN_SEPARATOR",
      "outputs": [
        {
          "internalType": "bytes32",
          "name": "",
          "type": "bytes32"
        }
      ],
      "stateMutability": "view",
      "type": "function"
    },
    {
      "inputs": [],
      "name": "PERMIT_TYPEHASH",
      "outputs": [
        {
          "internalType": "bytes32",
          "name": "",
          "type": "bytes32"
        }
      ],
      "stateMutability": "view",
      "type": "function"
    },
    {
      "inputs": [
        {
          "internalType": "address",
          "name": "outbound_tkn",
          "type": "address"
        },
        {
          "internalType": "address",
          "name": "inbound_tkn",
          "type": "address"
        },
        {
          "internalType": "uint256",
          "name": "fee",
          "type": "uint256"
        },
        {
          "internalType": "uint256",
          "name": "density",
          "type": "uint256"
        },
        {
          "internalType": "uint256",
          "name": "offer_gasbase",
          "type": "uint256"
        }
      ],
      "name": "activate",
      "outputs": [],
      "stateMutability": "nonpayable",
      "type": "function"
    },
    {
      "inputs": [
        {
          "internalType": "address",
          "name": "",
          "type": "address"
        },
        {
          "internalType": "address",
          "name": "",
          "type": "address"
        },
        {
          "internalType": "address",
          "name": "",
          "type": "address"
        },
        {
          "internalType": "address",
          "name": "",
          "type": "address"
        }
      ],
      "name": "allowances",
      "outputs": [
        {
          "internalType": "uint256",
          "name": "",
          "type": "uint256"
        }
      ],
      "stateMutability": "view",
      "type": "function"
    },
    {
      "inputs": [
        {
          "internalType": "address",
          "name": "outbound_tkn",
          "type": "address"
        },
        {
          "internalType": "address",
          "name": "inbound_tkn",
          "type": "address"
        },
        {
          "internalType": "address",
          "name": "spender",
          "type": "address"
        },
        {
          "internalType": "uint256",
          "name": "value",
          "type": "uint256"
        }
      ],
      "name": "approve",
      "outputs": [
        {
          "internalType": "bool",
          "name": "",
          "type": "bool"
        }
      ],
      "stateMutability": "nonpayable",
      "type": "function"
    },
    {
      "inputs": [
        {
          "internalType": "address",
          "name": "",
          "type": "address"
        }
      ],
      "name": "balanceOf",
      "outputs": [
        {
          "internalType": "uint256",
          "name": "",
          "type": "uint256"
        }
      ],
      "stateMutability": "view",
      "type": "function"
    },
    {
      "inputs": [
        {
          "internalType": "address",
          "name": "outbound_tkn",
          "type": "address"
        },
        {
          "internalType": "address",
          "name": "inbound_tkn",
          "type": "address"
        }
      ],
      "name": "best",
      "outputs": [
        {
          "internalType": "uint256",
          "name": "",
          "type": "uint256"
        }
      ],
      "stateMutability": "view",
      "type": "function"
    },
    {
      "inputs": [
        {
          "internalType": "address",
          "name": "outbound_tkn",
          "type": "address"
        },
        {
          "internalType": "address",
          "name": "inbound_tkn",
          "type": "address"
        }
      ],
      "name": "config",
      "outputs": [
        {
          "internalType": "Global.t",
          "name": "_global",
          "type": "bytes32"
        },
        {
          "internalType": "Local.t",
          "name": "_local",
          "type": "bytes32"
        }
      ],
      "stateMutability": "view",
      "type": "function"
    },
    {
      "inputs": [
        {
          "internalType": "address",
          "name": "outbound_tkn",
          "type": "address"
        },
        {
          "internalType": "address",
          "name": "inbound_tkn",
          "type": "address"
        }
      ],
      "name": "configInfo",
      "outputs": [
        {
          "components": [
            {
              "internalType": "address",
              "name": "monitor",
              "type": "address"
            },
            {
              "internalType": "bool",
              "name": "useOracle",
              "type": "bool"
            },
            {
              "internalType": "bool",
              "name": "notify",
              "type": "bool"
            },
            {
              "internalType": "uint256",
              "name": "gasprice",
              "type": "uint256"
            },
            {
              "internalType": "uint256",
              "name": "gasmax",
              "type": "uint256"
            },
            {
              "internalType": "bool",
              "name": "dead",
              "type": "bool"
            }
          ],
          "internalType": "struct GlobalStruct",
          "name": "global",
          "type": "tuple"
        },
        {
          "components": [
            {
              "internalType": "bool",
              "name": "active",
              "type": "bool"
            },
            {
              "internalType": "uint256",
              "name": "fee",
              "type": "uint256"
            },
            {
              "internalType": "uint256",
              "name": "density",
              "type": "uint256"
            },
            {
              "internalType": "uint256",
              "name": "offer_gasbase",
              "type": "uint256"
            },
            {
              "internalType": "bool",
              "name": "lock",
              "type": "bool"
            },
            {
              "internalType": "uint256",
              "name": "best",
              "type": "uint256"
            },
            {
              "internalType": "uint256",
              "name": "last",
              "type": "uint256"
            }
          ],
          "internalType": "struct LocalStruct",
          "name": "local",
          "type": "tuple"
        }
      ],
      "stateMutability": "view",
      "type": "function"
    },
    {
      "inputs": [
        {
          "internalType": "address",
          "name": "outbound_tkn",
          "type": "address"
        },
        {
          "internalType": "address",
          "name": "inbound_tkn",
          "type": "address"
        }
      ],
      "name": "deactivate",
      "outputs": [],
      "stateMutability": "nonpayable",
      "type": "function"
    },
    {
      "inputs": [
        {
          "components": [
            {
              "internalType": "address",
              "name": "outbound_tkn",
              "type": "address"
            },
            {
              "internalType": "address",
              "name": "inbound_tkn",
              "type": "address"
            },
            {
              "internalType": "uint256",
              "name": "offerId",
              "type": "uint256"
            },
            {
              "internalType": "Offer.t",
              "name": "offer",
              "type": "bytes32"
            },
            {
              "internalType": "uint256",
              "name": "wants",
              "type": "uint256"
            },
            {
              "internalType": "uint256",
              "name": "gives",
              "type": "uint256"
            },
            {
              "internalType": "OfferDetail.t",
              "name": "offerDetail",
              "type": "bytes32"
            },
            {
              "internalType": "Global.t",
              "name": "global",
              "type": "bytes32"
            },
            {
              "internalType": "Local.t",
              "name": "local",
              "type": "bytes32"
            }
          ],
          "internalType": "struct MgvLib.SingleOrder",
          "name": "sor",
          "type": "tuple"
        },
        {
          "internalType": "address",
          "name": "taker",
          "type": "address"
        }
      ],
      "name": "flashloan",
      "outputs": [
        {
          "internalType": "uint256",
          "name": "gasused",
          "type": "uint256"
        }
      ],
      "stateMutability": "nonpayable",
      "type": "function"
    },
    {
      "inputs": [
        {
          "internalType": "address",
          "name": "maker",
          "type": "address"
        }
      ],
      "name": "fund",
      "outputs": [],
      "stateMutability": "payable",
      "type": "function"
    },
    {
      "inputs": [],
      "name": "fund",
      "outputs": [],
      "stateMutability": "payable",
      "type": "function"
    },
    {
      "inputs": [],
      "name": "governance",
      "outputs": [
        {
          "internalType": "address",
          "name": "",
          "type": "address"
        }
      ],
      "stateMutability": "view",
      "type": "function"
    },
    {
      "inputs": [
        {
          "internalType": "Offer.t",
          "name": "offer",
          "type": "bytes32"
        }
      ],
      "name": "isLive",
      "outputs": [
        {
          "internalType": "bool",
          "name": "",
          "type": "bool"
        }
      ],
      "stateMutability": "pure",
      "type": "function"
    },
    {
      "inputs": [],
      "name": "kill",
      "outputs": [],
      "stateMutability": "nonpayable",
      "type": "function"
    },
    {
      "inputs": [
        {
          "internalType": "address",
          "name": "outbound_tkn",
          "type": "address"
        },
        {
          "internalType": "address",
          "name": "inbound_tkn",
          "type": "address"
        }
      ],
      "name": "locked",
      "outputs": [
        {
          "internalType": "bool",
          "name": "",
          "type": "bool"
        }
      ],
      "stateMutability": "view",
      "type": "function"
    },
    {
      "inputs": [
        {
          "internalType": "address",
          "name": "outbound_tkn",
          "type": "address"
        },
        {
          "internalType": "address",
          "name": "inbound_tkn",
          "type": "address"
        },
        {
          "internalType": "uint256",
          "name": "takerWants",
          "type": "uint256"
        },
        {
          "internalType": "uint256",
          "name": "takerGives",
          "type": "uint256"
        },
        {
          "internalType": "bool",
          "name": "fillWants",
          "type": "bool"
        }
      ],
      "name": "marketOrder",
      "outputs": [
        {
          "internalType": "uint256",
          "name": "",
          "type": "uint256"
        },
        {
          "internalType": "uint256",
          "name": "",
          "type": "uint256"
        },
        {
          "internalType": "uint256",
          "name": "",
          "type": "uint256"
        }
      ],
      "stateMutability": "nonpayable",
      "type": "function"
    },
    {
      "inputs": [
        {
          "internalType": "address",
          "name": "outbound_tkn",
          "type": "address"
        },
        {
          "internalType": "address",
          "name": "inbound_tkn",
          "type": "address"
        },
        {
          "internalType": "uint256",
          "name": "takerWants",
          "type": "uint256"
        },
        {
          "internalType": "uint256",
          "name": "takerGives",
          "type": "uint256"
        },
        {
          "internalType": "bool",
          "name": "fillWants",
          "type": "bool"
        },
        {
          "internalType": "address",
          "name": "taker",
          "type": "address"
        }
      ],
      "name": "marketOrderFor",
      "outputs": [
        {
          "internalType": "uint256",
          "name": "takerGot",
          "type": "uint256"
        },
        {
          "internalType": "uint256",
          "name": "takerGave",
          "type": "uint256"
        },
        {
          "internalType": "uint256",
          "name": "bounty",
          "type": "uint256"
        }
      ],
      "stateMutability": "nonpayable",
      "type": "function"
    },
    {
      "inputs": [
        {
          "internalType": "address",
          "name": "outbound_tkn",
          "type": "address"
        },
        {
          "internalType": "address",
          "name": "inbound_tkn",
          "type": "address"
        },
        {
          "internalType": "uint256",
          "name": "wants",
          "type": "uint256"
        },
        {
          "internalType": "uint256",
          "name": "gives",
          "type": "uint256"
        },
        {
          "internalType": "uint256",
          "name": "gasreq",
          "type": "uint256"
        },
        {
          "internalType": "uint256",
          "name": "gasprice",
          "type": "uint256"
        },
        {
          "internalType": "uint256",
          "name": "pivotId",
          "type": "uint256"
        }
      ],
      "name": "newOffer",
      "outputs": [
        {
          "internalType": "uint256",
          "name": "",
          "type": "uint256"
        }
      ],
      "stateMutability": "nonpayable",
      "type": "function"
    },
    {
      "inputs": [
        {
          "internalType": "address",
          "name": "",
          "type": "address"
        }
      ],
      "name": "nonces",
      "outputs": [
        {
          "internalType": "uint256",
          "name": "",
          "type": "uint256"
        }
      ],
      "stateMutability": "view",
      "type": "function"
    },
    {
      "inputs": [
        {
          "internalType": "address",
          "name": "",
          "type": "address"
        },
        {
          "internalType": "address",
          "name": "",
          "type": "address"
        },
        {
          "internalType": "uint256",
          "name": "",
          "type": "uint256"
        }
      ],
      "name": "offerDetails",
      "outputs": [
        {
          "internalType": "OfferDetail.t",
          "name": "",
          "type": "bytes32"
        }
      ],
      "stateMutability": "view",
      "type": "function"
    },
    {
      "inputs": [
        {
          "internalType": "address",
          "name": "outbound_tkn",
          "type": "address"
        },
        {
          "internalType": "address",
          "name": "inbound_tkn",
          "type": "address"
        },
        {
          "internalType": "uint256",
          "name": "offerId",
          "type": "uint256"
        }
      ],
      "name": "offerInfo",
      "outputs": [
        {
          "components": [
            {
              "internalType": "uint256",
              "name": "prev",
              "type": "uint256"
            },
            {
              "internalType": "uint256",
              "name": "next",
              "type": "uint256"
            },
            {
              "internalType": "uint256",
              "name": "wants",
              "type": "uint256"
            },
            {
              "internalType": "uint256",
              "name": "gives",
              "type": "uint256"
            }
          ],
          "internalType": "struct OfferStruct",
          "name": "offer",
          "type": "tuple"
        },
        {
          "components": [
            {
              "internalType": "address",
              "name": "maker",
              "type": "address"
            },
            {
              "internalType": "uint256",
              "name": "gasreq",
              "type": "uint256"
            },
            {
              "internalType": "uint256",
              "name": "offer_gasbase",
              "type": "uint256"
            },
            {
              "internalType": "uint256",
              "name": "gasprice",
              "type": "uint256"
            }
          ],
          "internalType": "struct OfferDetailStruct",
          "name": "offerDetail",
          "type": "tuple"
        }
      ],
      "stateMutability": "view",
      "type": "function"
    },
    {
      "inputs": [
        {
          "internalType": "address",
          "name": "",
          "type": "address"
        },
        {
          "internalType": "address",
          "name": "",
          "type": "address"
        },
        {
          "internalType": "uint256",
          "name": "",
          "type": "uint256"
        }
      ],
      "name": "offers",
      "outputs": [
        {
          "internalType": "Offer.t",
          "name": "",
          "type": "bytes32"
        }
      ],
      "stateMutability": "view",
      "type": "function"
    },
    {
      "inputs": [
        {
          "internalType": "address",
          "name": "outbound_tkn",
          "type": "address"
        },
        {
          "internalType": "address",
          "name": "inbound_tkn",
          "type": "address"
        },
        {
          "internalType": "address",
          "name": "owner",
          "type": "address"
        },
        {
          "internalType": "address",
          "name": "spender",
          "type": "address"
        },
        {
          "internalType": "uint256",
          "name": "value",
          "type": "uint256"
        },
        {
          "internalType": "uint256",
          "name": "deadline",
          "type": "uint256"
        },
        {
          "internalType": "uint8",
          "name": "v",
          "type": "uint8"
        },
        {
          "internalType": "bytes32",
          "name": "r",
          "type": "bytes32"
        },
        {
          "internalType": "bytes32",
          "name": "s",
          "type": "bytes32"
        }
      ],
      "name": "permit",
      "outputs": [],
      "stateMutability": "nonpayable",
      "type": "function"
    },
    {
      "inputs": [
        {
          "internalType": "address",
          "name": "outbound_tkn",
          "type": "address"
        },
        {
          "internalType": "address",
          "name": "inbound_tkn",
          "type": "address"
        },
        {
          "internalType": "uint256",
          "name": "offerId",
          "type": "uint256"
        },
        {
          "internalType": "bool",
          "name": "deprovision",
          "type": "bool"
        }
      ],
      "name": "retractOffer",
      "outputs": [
        {
          "internalType": "uint256",
          "name": "provision",
          "type": "uint256"
        }
      ],
      "stateMutability": "nonpayable",
      "type": "function"
    },
    {
      "inputs": [
        {
          "internalType": "address",
          "name": "outbound_tkn",
          "type": "address"
        },
        {
          "internalType": "address",
          "name": "inbound_tkn",
          "type": "address"
        },
        {
          "internalType": "uint256",
          "name": "density",
          "type": "uint256"
        }
      ],
      "name": "setDensity",
      "outputs": [],
      "stateMutability": "nonpayable",
      "type": "function"
    },
    {
      "inputs": [
        {
          "internalType": "address",
          "name": "outbound_tkn",
          "type": "address"
        },
        {
          "internalType": "address",
          "name": "inbound_tkn",
          "type": "address"
        },
        {
          "internalType": "uint256",
          "name": "fee",
          "type": "uint256"
        }
      ],
      "name": "setFee",
      "outputs": [],
      "stateMutability": "nonpayable",
      "type": "function"
    },
    {
      "inputs": [
        {
          "internalType": "address",
          "name": "outbound_tkn",
          "type": "address"
        },
        {
          "internalType": "address",
          "name": "inbound_tkn",
          "type": "address"
        },
        {
          "internalType": "uint256",
          "name": "offer_gasbase",
          "type": "uint256"
        }
      ],
      "name": "setGasbase",
      "outputs": [],
      "stateMutability": "nonpayable",
      "type": "function"
    },
    {
      "inputs": [
        {
          "internalType": "uint256",
          "name": "gasmax",
          "type": "uint256"
        }
      ],
      "name": "setGasmax",
      "outputs": [],
      "stateMutability": "nonpayable",
      "type": "function"
    },
    {
      "inputs": [
        {
          "internalType": "uint256",
          "name": "gasprice",
          "type": "uint256"
        }
      ],
      "name": "setGasprice",
      "outputs": [],
      "stateMutability": "nonpayable",
      "type": "function"
    },
    {
      "inputs": [
        {
          "internalType": "address",
          "name": "governanceAddress",
          "type": "address"
        }
      ],
      "name": "setGovernance",
      "outputs": [],
      "stateMutability": "nonpayable",
      "type": "function"
    },
    {
      "inputs": [
        {
          "internalType": "address",
          "name": "monitor",
          "type": "address"
        }
      ],
      "name": "setMonitor",
      "outputs": [],
      "stateMutability": "nonpayable",
      "type": "function"
    },
    {
      "inputs": [
        {
          "internalType": "bool",
          "name": "notify",
          "type": "bool"
        }
      ],
      "name": "setNotify",
      "outputs": [],
      "stateMutability": "nonpayable",
      "type": "function"
    },
    {
      "inputs": [
        {
          "internalType": "bool",
          "name": "useOracle",
          "type": "bool"
        }
      ],
      "name": "setUseOracle",
      "outputs": [],
      "stateMutability": "nonpayable",
      "type": "function"
    },
    {
      "inputs": [
        {
          "internalType": "address",
          "name": "vaultAddress",
          "type": "address"
        }
      ],
      "name": "setVault",
      "outputs": [],
      "stateMutability": "nonpayable",
      "type": "function"
    },
    {
      "inputs": [
        {
          "internalType": "address",
          "name": "outbound_tkn",
          "type": "address"
        },
        {
          "internalType": "address",
          "name": "inbound_tkn",
          "type": "address"
        },
        {
          "internalType": "uint256[4][]",
          "name": "targets",
          "type": "uint256[4][]"
        },
        {
          "internalType": "bool",
          "name": "fillWants",
          "type": "bool"
        }
      ],
      "name": "snipes",
      "outputs": [
        {
          "internalType": "uint256",
          "name": "",
          "type": "uint256"
        },
        {
          "internalType": "uint256",
          "name": "",
          "type": "uint256"
        },
        {
          "internalType": "uint256",
          "name": "",
          "type": "uint256"
        },
        {
          "internalType": "uint256",
          "name": "",
          "type": "uint256"
        }
      ],
      "stateMutability": "nonpayable",
      "type": "function"
    },
    {
      "inputs": [
        {
          "internalType": "address",
          "name": "outbound_tkn",
          "type": "address"
        },
        {
          "internalType": "address",
          "name": "inbound_tkn",
          "type": "address"
        },
        {
          "internalType": "uint256[4][]",
          "name": "targets",
          "type": "uint256[4][]"
        },
        {
          "internalType": "bool",
          "name": "fillWants",
          "type": "bool"
        },
        {
          "internalType": "address",
          "name": "taker",
          "type": "address"
        }
      ],
      "name": "snipesFor",
      "outputs": [
        {
          "internalType": "uint256",
          "name": "successes",
          "type": "uint256"
        },
        {
          "internalType": "uint256",
          "name": "takerGot",
          "type": "uint256"
        },
        {
          "internalType": "uint256",
          "name": "takerGave",
          "type": "uint256"
        },
        {
          "internalType": "uint256",
          "name": "bounty",
          "type": "uint256"
        }
      ],
      "stateMutability": "nonpayable",
      "type": "function"
    },
    {
      "inputs": [
        {
          "internalType": "address",
          "name": "outbound_tkn",
          "type": "address"
        },
        {
          "internalType": "address",
          "name": "inbound_tkn",
          "type": "address"
        },
        {
          "internalType": "uint256",
          "name": "wants",
          "type": "uint256"
        },
        {
          "internalType": "uint256",
          "name": "gives",
          "type": "uint256"
        },
        {
          "internalType": "uint256",
          "name": "gasreq",
          "type": "uint256"
        },
        {
          "internalType": "uint256",
          "name": "gasprice",
          "type": "uint256"
        },
        {
          "internalType": "uint256",
          "name": "pivotId",
          "type": "uint256"
        },
        {
          "internalType": "uint256",
          "name": "offerId",
          "type": "uint256"
        }
      ],
      "name": "updateOffer",
      "outputs": [],
      "stateMutability": "nonpayable",
      "type": "function"
    },
    {
      "inputs": [],
      "name": "vault",
      "outputs": [
        {
          "internalType": "address",
          "name": "",
          "type": "address"
        }
      ],
      "stateMutability": "view",
      "type": "function"
    },
    {
      "inputs": [
        {
          "internalType": "uint256",
          "name": "amount",
          "type": "uint256"
        }
      ],
      "name": "withdraw",
      "outputs": [
        {
          "internalType": "bool",
          "name": "noRevert",
          "type": "bool"
        }
      ],
      "stateMutability": "nonpayable",
      "type": "function"
    },
    {
      "stateMutability": "payable",
      "type": "receive"
    }
  ],
  "transactionHash": "0x3da0b67966645f6d942a4574c6a729f90fd957a22ed61dd67331b494bdcf7496",
  "args": [
    "0x47897EE61498D02B18794601Ed3A71896A1Ff894",
    40,
    700000
  ],
  "solcInputHash": "ad5bb80ddcfd073848992acffc7882f8",
  "bytecode": "0x60a06040523480156200001157600080fd5b5060405162005cee38038062005cee83398101604081905262000034916200042c565b828282604051806040016040528060088152602001674d616e67726f766560c01b815250808484847f72201d073f249840099a96530e189c4291c1852040b1e96ff1f606db656be4ff60405160405180910390a1620000938362000165565b6200009e82620001c4565b620000a98162000277565b620000b48362000327565b5050815160208084019190912060408051808201825260018152603160f81b9084015280517f8b73c3c69bb8fe3d512ecc4cf759cc79239f7b179b0ffacaa9a75d522b39400f938101939093528201527fc89efdaa54c0f20c7adf612882df0950f5a951637e0307cdcb4c672f298b8bc660608201524660808201523060a082015260c001905060408051601f19818403018152919052805160209091012060805250620004719650505050505050565b6200016f62000380565b600080546001600160a01b0319166001600160a01b0383169081179091556040519081527fd459c7242e23d490831b5676a611c4342d899d28f342d89ae80793e56a930f30906020015b60405180910390a150565b620001ce62000380565b61ffff81168114620002275760405162461bcd60e51b815260206004820152601a60248201527f6d67762f636f6e6669672f67617370726963652f31366269747300000000000060448201526064015b60405180910390fd5b6200024381600154620003f160201b620021ef1790919060201c565b6001556040518181527fdbebd814ae648f654dcc50c734aa76e55a32e96b7d85303a08e2ddf11874a0dd90602001620001b9565b6200028162000380565b808162ffffff1614620002d75760405162461bcd60e51b815260206004820152601860248201527f6d67762f636f6e6669672f6761736d61782f323462697473000000000000000060448201526064016200021e565b620002f3816001546200040f60201b620022271790919060201c565b6001556040518181527f8cdff0cd5ed2543bcdf7eb93d8ec1c23626e579925f4531beeef15d84cf78d1890602001620001b9565b6200033162000380565b600380546001600160a01b0319166001600160a01b0383169081179091556040519081527f24a8c4807b324a269a51827c3446b8ac1cc13810d7d0c0ca1efafabddd7b621990602001620001b9565b6003546001600160a01b03163314806200039957503330145b80620003ae57506003546001600160a01b0316155b620003ef5760405162461bcd60e51b815260206004820152601060248201526f1b59dd8bdd5b985d5d1a1bdc9a5e995960821b60448201526064016200021e565b565b60401b69ffff00000000000000001661ffff60401b19919091161790565b60281b67ffffff00000000001662ffffff60281b19919091161790565b6000806000606084860312156200044257600080fd5b83516001600160a01b03811681146200045a57600080fd5b602085015160409095015190969495509392505050565b60805161585a62000494600039600081816103bb0152611889015261585a6000f3fe6080604052600436106102ca5760003560e01c806370a0823111610179578063c7bb25d0116100d6578063dc7e98df1161008a578063fbfa77cf11610064578063fbfa77cf1461099a578063fbffe5fd146109ba578063fcaa7e2e146109da57600080fd5b8063dc7e98df1461093a578063def5ddaa1461095a578063fbb669101461097a57600080fd5b8063cedd3a0e116100bb578063cedd3a0e146108cc578063d0ee5099146108fa578063db20266f1461091a57600080fd5b8063c7bb25d014610850578063cbf75c9a1461089757600080fd5b8063ad97db1b1161012d578063b24d1ee711610112578063b24d1ee714610808578063b2b1205714610828578063b60d42881461084857600080fd5b8063ad97db1b146107c8578063b09d2a16146107e857600080fd5b80638c66715c1161015e5780638c66715c1461071257806395999ee314610788578063ab033ea9146107a857600080fd5b806370a08231146106b85780637ecebe00146106e557600080fd5b806359eba454116102275780636804f613116101db57806368c13d6b116101c057806368c13d6b1461061f5780636a4f76911461065d5780636d27de671461067d57600080fd5b80636804f613146105df5780636817031b146105ff57600080fd5b80635aa6e6751161020c5780635aa6e675146104d05780635cd8239014610508578063644e67031461052857600080fd5b806359eba454146104905780635a611f4e146104b057600080fd5b80633644e5151161027e57806346e142fa1161026357806346e142fa146103f257806349f6d2dc146104325780635722647b1461045257600080fd5b80633644e515146103a957806341c0e1b5146103dd57600080fd5b806327d097c6116102af57806327d097c6146103125780632e1a7d4d1461033257806330adf81f1461036757600080fd5b80630b73a18f146102df57806323024408146102ff57600080fd5b366102da576102d8336109fa565b005b600080fd5b3480156102eb57600080fd5b506102d86102fa36600461501e565b610a21565b6102d861030d36600461506b565b6109fa565b34801561031e57600080fd5b506102d861032d366004615086565b610af3565b34801561033e57600080fd5b5061035261034d3660046150c2565b610bf0565b60405190151581526020015b60405180910390f35b34801561037357600080fd5b5061039b7fb7bf278e51ab1478b10530c0300f911d9ed3562fc93ab5e6593368fe23c077a281565b60405190815260200161035e565b3480156103b557600080fd5b5061039b7f000000000000000000000000000000000000000000000000000000000000000081565b3480156103e957600080fd5b506102d8610c4a565b3480156103fe57600080fd5b5061041261040d36600461512e565b610cac565b60408051948552602085019390935291830152606082015260800161035e565b34801561043e57600080fd5b5061039b61044d3660046151a7565b610cd3565b34801561045e57600080fd5b5061039b61046d366004615086565b600560209081526000938452604080852082529284528284209052825290205481565b34801561049c57600080fd5b506103526104ab366004615205565b610e9e565b3480156104bc57600080fd5b506102d86104cb366004615250565b610f2c565b3480156104dc57600080fd5b506003546104f0906001600160a01b031681565b6040516001600160a01b03909116815260200161035e565b34801561051457600080fd5b506102d861052336600461506b565b610fa8565b34801561053457600080fd5b5061054861054336600461526d565b611025565b6040805183516001600160a01b0316815260208085015115158183015284830151151582840152606080860151818401526080808701518185015260a0968701511515878501528551151560c0808601919091529286015160e0850152938501516101008401528401516101208301529183015115156101408201529282015161016084015201516101808201526101a00161035e565b3480156105eb57600080fd5b506102d86105fa366004615250565b611128565b34801561060b57600080fd5b506102d861061a36600461506b565b61119e565b34801561062b57600080fd5b5061039b61063a366004615086565b600460209081526000938452604080852082529284528284209052825290205481565b34801561066957600080fd5b506102d86106783660046152a0565b61120c565b34801561068957600080fd5b5061069d610698366004615307565b611360565b6040805193845260208401929092529082015260600161035e565b3480156106c457600080fd5b5061039b6106d336600461506b565b60066020526000908152604090205481565b3480156106f157600080fd5b5061039b61070036600461506b565b60086020526000908152604090205481565b34801561071e57600080fd5b5061073261072d366004615086565b611392565b60408051835181526020808501518183015284830151828401526060948501518583015283516001600160a01b0316608083015283015160a08201529082015160c082015291015160e08201526101000161035e565b34801561079457600080fd5b506102d86107a33660046150c2565b61146e565b3480156107b457600080fd5b506102d86107c336600461506b565b611532565b3480156107d457600080fd5b5061039b6107e336600461536f565b6115a0565b3480156107f457600080fd5b506102d86108033660046153be565b611777565b34801561081457600080fd5b5061039b610823366004615454565b611af1565b34801561083457600080fd5b50610412610843366004615487565b611c37565b6102d8611c6e565b34801561085c57600080fd5b5061039b61086b366004615501565b600760209081526000948552604080862082529385528385208152918452828420909152825290205481565b3480156108a357600080fd5b506108b76108b236600461526d565b611c79565b6040805192835260208301919091520161035e565b3480156108d857600080fd5b506103526108e73660046150c2565b6bffffffffffffffffffffffff16151590565b34801561090657600080fd5b506102d861091536600461526d565b611e05565b34801561092657600080fd5b5061035261093536600461526d565b611e8e565b34801561094657600080fd5b506102d8610955366004615086565b611ec9565b34801561096657600080fd5b5061039b61097536600461526d565b611fc6565b34801561098657600080fd5b506102d8610995366004615086565b611ffe565b3480156109a657600080fd5b506000546104f0906001600160a01b031681565b3480156109c657600080fd5b5061069d6109d5366004615555565b612106565b3480156109e657600080fd5b506102d86109f53660046150c2565b61212a565b6000610a07600080611c79565b509050610a138161225d565b610a1d82346122b5565b5050565b610a29612311565b6001600160a01b0385811660008181526002602090815260408083209489168084529482529182902080547effffffffffffffffffffffffffffffffffffffffffffffffffffffffffffff167f010000000000000000000000000000000000000000000000000000000000000017905581516001815291517fc4ad6e84469caa93e473acfa6c029fcf9d3757d8e268e6233c150771e9f88da69281900390910190a3610ad6858585611ec9565b610ae1858584611ffe565b610aec858583610af3565b5050505050565b610afb612311565b808162ffffff1614610b545760405162461bcd60e51b815260206004820152601f60248201527f6d67762f636f6e6669672f6f666665725f676173626173652f3234626974730060448201526064015b60405180910390fd5b6001600160a01b0383811660008181526002602090815260408083209487168084529482529182902080547fffffffffffffffffffffffffffffffffff000000ffffffffffffffffffffffff166effffff000000000000000000000000606088901b1617905590518481527fc5859916e5f3fc1ed4d2cfb8c7a6cf709580f228fa0c9d9e0fa468744c7e4a9191015b60405180910390a3505050565b6000610bfc3383612389565b60405133908390600081818185875af1925050503d8060008114610c3c576040519150601f19603f3d011682016040523d82523d6000602084013e610c41565b606091505b50909392505050565b610c52612311565b6001547fffffffffffffffffffffffffffffffffffffffffffffffffffffff00ffffffff16640100000000176001556040517fbe26733c2bf6ff3ea5ba8cfe744422bd49052ff9ed5685c9e81e6f9321dbaddd90600090a1565b600080600080610cc089898989893361244e565b929c919b50995090975095505050505050565b6040805161016081018252600080825260208201819052918101829052606081018290526080810182905260a0810182905260c0810182905260e08101829052610100810182905261012081018290526101408101829052610d358989611c79565b6101208301819052610100830191909152610d4f906125c5565b610d6381610100015182610120015161261a565b61012081015160181c63ffffffff166001016080820181905263ffffffff811614610dd05760405162461bcd60e51b815260206004820152601360248201527f6d67762f6f6666657249644f766572666c6f77000000000000000000000000006044820152606401610b4b565b6080810151610120820151610e149160181b66ffffffff000000167fffffffffffffffffffffffffffffffffffffffffffffffffff00000000ffffff919091161790565b6101208201526001600160a01b03808a16825288166020820152604081018790526060810186905260a0810185905260c0810184905260e08101839052610e5c81600061267b565b61012081015181516001600160a01b03908116600090815260026020908152604080832082870151909416835292905220556080015198975050505050505050565b6001600160a01b038481166000818152600760209081526040808320888616808552908352818420338086529084528285209689168086529684528285208890558251908152928301959095528101859052909291907f6e791f456e6f5034d4928b936c32bf7e650d8228543ce7985d632ab03934837d9060600160405180910390a3506001949350505050565b610f34612311565b6001547fffffffffffffffffffffffffffffffffffffffffff00ffffffffffffffffffff16605082901b6aff00000000000000000000161760015560405181151581527f9b84fe4d9ffc14a6f7ec50c18884ee0d4bb8165aa718a28558df12ab4bd32b14906020015b60405180910390a150565b610fb0612311565b6001546bffffffffffffffffffffffff167fffffffffffffffffffffffffffffffffffffffff000000000000000000000000606083901b16176001556040516001600160a01b03821681527ff592e42c32883b35bebfbf9d9b801570a25d5ccbba452310746ad2cfd20d548f90602001610f9d565b6040805160c081018252600080825260208201819052918101829052606081018290526080810182905260a081019190915261109b6040518060e0016040528060001515815260200160008152602001600081526020016000815260200160001515815260200160008152602001600081525090565b6000806110a88686611c79565b91509150611112826040805160c081018252606083811c8252605884901c60ff9081161515602080850191909152605086901c82161515848601529385901c61ffff1691830191909152602884901c62ffffff1660808301529290911c909116151560a082015290565b935061111d81612ec4565b925050509250929050565b611130612311565b6001547fffffffffffffffffffffffffffffffffffffffff00ffffffffffffffffffffff16605882901b6bff0000000000000000000000161760015560405181151581527fbf39fbfab835c119637f4dbc4fb0f428c559c210200405d1ec25ddb50a93f9d490602001610f9d565b6111a6612311565b600080547fffffffffffffffffffffffff0000000000000000000000000000000000000000166001600160a01b0383169081179091556040519081527fd459c7242e23d490831b5676a611c4342d899d28f342d89ae80793e56a930f3090602001610f9d565b6040805161016081018252600080825260208201819052918101829052606081018290526080810182905260a0810182905260c0810182905260e081018290526101008101829052610120810182905261014081019190915261126f8989611c79565b6101208301819052610100830191909152611289906125c5565b61129d81610100015182610120015161261a565b6001600160a01b03808a16808352908916602080840182905260408085018b9052606085018a90526080850186905260a0850189905260c0850188905260e08501879052600093845260048252808420928452918152818320858452905290205461014082015261012081015161131582600161267b565b61012082015181146113545761012082015182516001600160a01b03908116600090815260026020908152604080832082880151909416835292905220555b50505050505050505050565b6000806000611373898989898989612f79565b9194509250905061138689898685613242565b96509650969350505050565b6113bd6040518060800160405280600081526020016000815260200160008152602001600081525090565b6113f1604051806080016040528060006001600160a01b031681526020016000815260200160008152602001600081525090565b6001600160a01b0380861660009081526004602090815260408083209388168352928152828220868352905220546114288161330c565b6001600160a01b038088166000908152600560209081526040808320938a1683529281528282208883529052205490935061146281613373565b92505050935093915050565b611476612311565b808162ffffff16146114ca5760405162461bcd60e51b815260206004820152601860248201527f6d67762f636f6e6669672f6761736d61782f32346269747300000000000000006044820152606401610b4b565b6001547fffffffffffffffffffffffffffffffffffffffffffffffff000000ffffffffff1667ffffff0000000000602883901b16176001556040518181527f8cdff0cd5ed2543bcdf7eb93d8ec1c23626e579925f4531beeef15d84cf78d1890602001610f9d565b61153a612311565b600380547fffffffffffffffffffffffff0000000000000000000000000000000000000000166001600160a01b0383169081179091556040519081527f24a8c4807b324a269a51827c3446b8ac1cc13810d7d0c0ca1efafabddd7b621990602001610f9d565b6000806115ad8686611c79565b9150506115b9816125c5565b6001600160a01b038087166000818152600460209081526040808320948a1680845294825280832089845282528083205493835260058252808320948352938152838220888352905291909120546116118160601c90565b6001600160a01b0316336001600160a01b0316146116715760405162461bcd60e51b815260206004820152601d60248201527f6d67762f726574726163744f666665722f756e617574686f72697a65640000006044820152606401610b4b565b6bffffffffffffffffffffffff8216156116da57826116a689896116958660e01c90565b60c087901c63ffffffff16886133e2565b93508084146116d8576001600160a01b03808a166000908152600260209081526040808320938c168352929052208490555b505b6116e888888885858a613504565b841561171f57603081901c62ffffff16604882901c62ffffff1601602082901c61ffff16633b9aca000202935061171f33856122b5565b866001600160a01b0316886001600160a01b03167fe2ce51fba856682424155a2d89b2ad1d2adde6ea0a9e3115b4b474cd6cb1798b8860405161176491815260200190565b60405180910390a3505050949350505050565b428410156117c75760405162461bcd60e51b815260206004820152601260248201527f6d67762f7065726d69742f6578706972656400000000000000000000000000006044820152606401610b4b565b6001600160a01b03878116600081815260086020908152604080832080546001810190915581517fb7bf278e51ab1478b10530c0300f911d9ed3562fc93ab5e6593368fe23c077a2818501528f8716818401528e871660608201526080810195909552948b1660a085015260c084018a905260e084018590526101008085018a905281518086039091018152610120850190915280519101207f19010000000000000000000000000000000000000000000000000000000000006101408401527f00000000000000000000000000000000000000000000000000000000000000006101428401526101628301529061018201604080517fffffffffffffffffffffffffffffffffffffffffffffffffffffffffffffffe08184030181528282528051602091820120600080855291840180845281905260ff89169284019290925260608301879052608083018690529092509060019060a0016020604051602081039080840390855afa158015611942573d6000803e3d6000fd5b50506040517fffffffffffffffffffffffffffffffffffffffffffffffffffffffffffffffe001519150506001600160a01b038116158015906119965750896001600160a01b0316816001600160a01b0316145b6119e25760405162461bcd60e51b815260206004820152601b60248201527f6d67762f7065726d69742f696e76616c69645369676e617475726500000000006044820152606401610b4b565b87600760008e6001600160a01b03166001600160a01b0316815260200190815260200160002060008d6001600160a01b03166001600160a01b0316815260200190815260200160002060008c6001600160a01b03166001600160a01b0316815260200190815260200160002060008b6001600160a01b03166001600160a01b03168152602001908152602001600020819055508a6001600160a01b03168c6001600160a01b03167f6e791f456e6f5034d4928b936c32bf7e650d8228543ce7985d632ab03934837d8c8c8c604051611adb939291906001600160a01b039384168152919092166020820152604081019190915260600190565b60405180910390a3505050505050505050505050565b6000333014611b425760405162461bcd60e51b815260206004820152601760248201527f6d67762f666c6173686c6f616e2f70726f7465637465640000000000000000006044820152606401610b4b565b611b61611b55604085016020860161506b565b83308660a001356135aa565b15611beb57611b8b611b79604085016020860161506b565b60c085013560601c8560a001356136b6565b15611ba057611b99836137bb565b9050611c31565b604080516060810182527f6d67762f6d616b6572526563656976654661696c000000000000000000000000815260006020820181905291810191909152611be690606081fd5b611c31565b604080516060810182527f6d67762f74616b65725472616e736665724661696c0000000000000000000000815260006020820181905291810191909152611c3190606081fd5b92915050565b600080600080611c4b8a8a8a8a8a8a61244e565b92965090945092509050611c618a8a8785613242565b9650965096509692505050565b611c77336109fa565b565b6001546001600160a01b03838116600090815260026020908152604080832093861683529290522054605882901c60ff1615611dfe57600080611cbc8460601c90565b6040517f6968abd30000000000000000000000000000000000000000000000000000000081526001600160a01b03888116600483015287811660248301529190911690636968abd3906044016040805180830381865afa158015611d24573d6000803e3d6000fd5b505050506040513d601f19601f82011682018060405250810190611d4891906155a2565b91509150611d598261ffff81161490565b15611d96577fffffffffffffffffffffffffffffffffffffffffffff0000ffffffffffffffff841669ffff0000000000000000604084901b161793505b6dffffffffffffffffffffffffffff8116811415611dfb577fffffff0000000000000000000000000000ffffffffffffffffffffffffffffff83167cffffffffffffffffffffffffffff000000000000000000000000000000607883901b161761111d565b50505b9250929050565b611e0d612311565b6001600160a01b03828116600081815260026020908152604080832094861680845294825280832080547effffffffffffffffffffffffffffffffffffffffffffffffffffffffffffff1690558051928352517fc4ad6e84469caa93e473acfa6c029fcf9d3757d8e268e6233c150771e9f88da69281900390910190a35050565b6001600160a01b038281166000908152600260209081526040808320938516835292905290812054605881901c60ff1615155b949350505050565b611ed1612311565b6101f4811115611f235760405162461bcd60e51b815260206004820152601460248201527f6d67762f636f6e6669672f6665652f3c3d3530300000000000000000000000006044820152606401610b4b565b6001600160a01b0383811660008181526002602090815260408083209487168084529482529182902080547fff0000ffffffffffffffffffffffffffffffffffffffffffffffffffffffffff167effff000000000000000000000000000000000000000000000000000000000060e888901b1617905590518481527f44a6d70a601a6f8a85c075467e9d7245897140cbf6dd505c9d9d764459f5fb649101610be3565b6001600160a01b038281166000908152600260209081526040808320938516835292905290812054603881901c63ffffffff16611ec1565b612006612311565b6dffffffffffffffffffffffffffff811681146120655760405162461bcd60e51b815260206004820152601a60248201527f6d67762f636f6e6669672f64656e736974792f313132626974730000000000006044820152606401610b4b565b6001600160a01b0383811660008181526002602090815260408083209487168084529482529182902080547fffffff0000000000000000000000000000ffffffffffffffffffffffffffffff167cffffffffffffffffffffffffffff000000000000000000000000000000607888901b1617905590518481527f95f1a495c6d9d1a215995408f6ad898c2b33798d6eb3cf3220b4c6cc8b61b0649101610be3565b6000806000612119888888888833612f79565b925092509250955095509592505050565b612132612311565b61ffff811681146121855760405162461bcd60e51b815260206004820152601a60248201527f6d67762f636f6e6669672f67617370726963652f3136626974730000000000006044820152606401610b4b565b6001547fffffffffffffffffffffffffffffffffffffffffffff0000ffffffffffffffff1669ffff0000000000000000604083901b16176001556040518181527fdbebd814ae648f654dcc50c734aa76e55a32e96b7d85303a08e2ddf11874a0dd90602001610f9d565b60401b69ffff0000000000000000167fffffffffffffffffffffffffffffffffffffffffffff0000ffffffffffffffff919091161790565b60281b67ffffff0000000000167fffffffffffffffffffffffffffffffffffffffffffffffff000000ffffffffff919091161790565b602081901c60ff16156122b25760405162461bcd60e51b815260206004820152600860248201527f6d67762f646561640000000000000000000000000000000000000000000000006044820152606401610b4b565b50565b6001600160a01b03821660008181526006602052604090819020805484019055517f1bbf55d483639f8103dc4e035af71a4fbdb16c80be740fa3eef81198acefa094906123059084815260200190565b60405180910390a25050565b6003546001600160a01b031633148061232957503330145b8061233d57506003546001600160a01b0316155b611c775760405162461bcd60e51b815260206004820152601060248201527f6d67762f756e617574686f72697a6564000000000000000000000000000000006044820152606401610b4b565b6001600160a01b038216600090815260066020526040902054818110156123f25760405162461bcd60e51b815260206004820152601960248201527f6d67762f696e73756666696369656e7450726f766973696f6e000000000000006044820152606401610b4b565b6001600160a01b038316600081815260066020526040908190208484039055517f59c79d79be0fadf59fe689b6952b7ebe90201a3a1f00d4a31982377890bc6046906124419085815260200190565b60405180910390a2505050565b60408051610120810182526000918101829052606081018290526080810182905260a0810182905260c0810182905260e0810182905261010081018290526001600160a01b038881168252871660208201528190819081906124b08b8b611c79565b610100830190815260e08084019283526040805191820181526000808352602083018190529082018190526060820181905260808201526001600160a01b03891660a082015289151560c08201529151905161250c919061261a565b61251a8261010001516125c5565b600080600061252b84868f8f6139e9565b92509250925061253e8460800151613ee9565b8d6001600160a01b03168f6001600160a01b03167fe627235b9d9175f7943c18ce4517f64aefbb6ff056c02d8eefae333eca862a588c85856040516125a1939291906001600160a01b039390931683526020830191909152604082015260600190565b60405180910390a360809390930151919e909d50919b509950975050505050505050565b605881901c60ff16156122b25760405162461bcd60e51b815260206004820152601460248201527f6d67762f7265656e7472616e63794c6f636b65640000000000000000000000006044820152606401610b4b565b6126238261225d565b61262f8160f81c151590565b610a1d5760405162461bcd60e51b815260206004820152600c60248201527f6d67762f696e61637469766500000000000000000000000000000000000000006044820152606401610b4b565b60c082015161ffff8116146126d25760405162461bcd60e51b815260206004820152601e60248201527f6d67762f77726974654f666665722f67617370726963652f31366269747300006044820152606401610b4b565b61010082015160401c61ffff168260c0015110156126fd5761010082015160401c61ffff1660c08301525b61010082015160281c62ffffff168260a00151111561275e5760405162461bcd60e51b815260206004820152601d60248201527f6d67762f77726974654f666665722f6761737265712f746f6f486967680000006044820152606401610b4b565b60008260600151116127b25760405162461bcd60e51b815260206004820152601b60248201527f6d67762f77726974654f666665722f67697665732f746f6f4c6f7700000000006044820152606401610b4b565b61012082015160781c6dffffffffffffffffffffffffffff1661012083015160601c62ffffff168360a001510102826060015110156128335760405162461bcd60e51b815260206004820152601d60248201527f6d67762f77726974654f666665722f64656e736974792f746f6f4c6f770000006044820152606401610b4b565b60608201516bffffffffffffffffffffffff8116146128945760405162461bcd60e51b815260206004820152601b60248201527f6d67762f77726974654f666665722f67697665732f39366269747300000000006044820152606401610b4b565b60408201516bffffffffffffffffffffffff8116146128f55760405162461bcd60e51b815260206004820152601b60248201527f6d67762f77726974654f666665722f77616e74732f39366269747300000000006044820152606401610b4b565b60008061290184613f87565b9150915083602001516001600160a01b031684600001516001600160a01b03167f2b101f9ef8ca2761d91bea55ab50a4d051e9248088ff7314ddb8826839544c2a33876040015188606001518960c001518a60a001518b608001518a6040516129a697969594939291906001600160a01b03979097168752602087019590955260408601939093526060850191909152608084015260a083015260c082015260e00190565b60405180910390a383516001600160a01b039081166000908152600560209081526040808320828901519094168352928152828220608088015183529052908120548415612a80576129f88160601c90565b6001600160a01b0316336001600160a01b031614612a585760405162461bcd60e51b815260206004820152601c60248201527f6d67762f7570646174654f666665722f756e617574686f72697a6564000000006044820152606401610b4b565b603081901c62ffffff16604882901c62ffffff1601602082901c61ffff16633b9aca00020291505b841580612a9a575060a0860151604882901c62ffffff1614155b80612ab1575060c0860151602082901c61ffff1614155b80612ad2575061012086015160601c62ffffff16603082901c62ffffff1614155b15612b945761012086015160009060601c62ffffff169050612b5a338860a00151838a60c0015160201b65ffff000000001660309190911b68ffffff0000000000001660489290921b6bffffff0000000000000000001660609390931b7fffffffffffffffffffffffffffffffffffffffff0000000000000000000000001692909217171790565b87516001600160a01b039081166000908152600560209081526040808320828d0151909416835292815282822060808c0151835290522055505b5060c08501516101208601516000919060601c62ffffff168760a001510102633b9aca0002905081811115612bd457612bcf33838303612389565b612be8565b81811015612be857612be8338284036122b5565b506101408501516bffffffffffffffffffffffff161580612c11575061014085015160e01c8314155b15612e18578215612cdc57608085015185516001600160a01b039081166000908152600460209081526040808320828b0151909416835292815282822087835290522054612ca39160c01b7bffffffff000000000000000000000000000000000000000000000000167fffffffff00000000ffffffffffffffffffffffffffffffffffffffffffffffff919091161790565b85516001600160a01b039081166000908152600460209081526040808320828b0151909416835292815282822087835290522055612d2b565b6080850151610120860151612d249160381b6affffffff00000000000000167fffffffffffffffffffffffffffffffffffffffffff00000000ffffffffffffff919091161790565b6101208601525b8115612db757608085015185516001600160a01b039081166000908152600460208181526040808420828c018051871686529083528185208986528352818520548c518716865293835281852090519095168452938152838320878452905291902060e09290921b7bffffffffffffffffffffffffffffffffffffffffffffffffffffffff9091161790555b838015612dd657506101408501516bffffffffffffffffffffffff1615155b15612e1857612e1185600001518660200151612df788610140015160e01c90565b61014089015160c01c63ffffffff168961012001516133e2565b6101208601525b60408501516060808701516000926bffffffffffffffffffffffff909116911b77ffffffffffffffffffffffff0000000000000000000000001660c085901b7bffffffff0000000000000000000000000000000000000000000000001660e087901b17171786516001600160a01b039081166000908152600460209081526040808320828c015190941683529281528282206080909a0151825298909852909620959095555050505050565b612f086040518060e0016040528060001515815260200160008152602001600081526020016000815260200160001515815260200160008152602001600081525090565b60f882901c1515815260e882901c61ffff166020820152607882901c6dffffffffffffffffffffffffffff166040820152606082811c62ffffff1690820152605882901c60ff1615156080820152603882901c63ffffffff90811660a083015260189290921c90911660c082015290565b600080600086876001600160a01b031614612fd65760405162461bcd60e51b815260206004820152601d60248201527f6d67762f6d4f726465722f74616b657257616e74732f313630626974730000006044820152606401610b4b565b85866001600160a01b03161461302e5760405162461bcd60e51b815260206004820152601d60248201527f6d67762f6d4f726465722f74616b657247697665732f313630626974730000006044820152606401610b4b565b60408051610120810182526000918101829052606081018290526080810182905260a0810182905260c0810182905260e081018290526101008101919091526001600160a01b038a811682528916602082015261308b8a8a611c79565b610100830181905260e083019190915260381c63ffffffff1660408281019182526001600160a01b038c81166000908152600460209081528382208e841683528152838220945182529384528281205460608087019190915260808087018e905260a08088018e9052855160e08082018852968101859052928301849052908201929092528c81529384018b90529088169083015287151560c083015282015161010083015161313b919061261a565b6131498261010001516125c5565b6101008201517fffffffffffffffffffffffffffffffffffffffff00ffffffffffffffffffffff166b0100000000000000000000001761010083018190526001600160a01b03808d166000908152600260209081526040808320938f16835292905220556131b9818360016141b8565b6131c68160800151613ee9565b60408082015160608084015183516001600160a01b038b81168252602082019490945293840152818d1692918e16917fe627235b9d9175f7943c18ce4517f64aefbb6ff056c02d8eefae333eca862a58910160405180910390a360408101516060820151608090920151909c919b509950975050505050505050565b6001600160a01b03808516600090815260076020908152604080832087851684528252808320938616835292815282822033835290522054818110156132ca5760405162461bcd60e51b815260206004820152601060248201527f6d67762f6c6f77416c6c6f77616e6365000000000000000000000000000000006044820152606401610b4b565b6001600160a01b039485166000908152600760209081526040808320968816835295815285822094909616815292855283832033845290945291902091039055565b6133376040518060800160405280600081526020016000815260200160008152602001600081525090565b60e082901c815263ffffffff60c083901c1660208201526bffffffffffffffffffffffff606083811c8216604084015292169181019190915290565b6133a7604051806080016040528060006001600160a01b031681526020016000815260200160008152602001600081525090565b606082811c8252604883901c62ffffff908116602080850191909152603085901c90911660408401529290921c61ffff169181019190915290565b60008315613466576001600160a01b038681166000908152600460209081526040808320938916835292815282822087835290522080547fffffffff00000000ffffffffffffffffffffffffffffffffffffffffffffffff167bffffffff00000000000000000000000000000000000000000000000060c086901b1617905561349f565b7fffffffffffffffffffffffffffffffffffffffffff00000000ffffffffffffff82166affffffff00000000000000603885901b161791505b82156134fb576001600160a01b038681166000908152600460209081526040808320938916835292815282822086835290522080547bffffffffffffffffffffffffffffffffffffffffffffffffffffffff1660e086901b1790555b50949350505050565b7fffffffffffffffffffffffffffffffffffffffff000000000000000000000000831692508015613555577fffffffffffffffffffffffffffffffffffffffffffffffffffff0000ffffffff821691505b506001600160a01b039485166000818152600460209081526040808320979098168083529681528782208683528152878220949094559081526005835285812094815293825284842092845291905291902055565b604080516001600160a01b0385811660248301528481166044830152606480830185905283518084039091018152608490920183526020820180517bffffffffffffffffffffffffffffffffffffffffffffffffffffffff167f23b872dd0000000000000000000000000000000000000000000000000000000017905291516000928391829189169061363e9085906155c6565b6000604051808303816000865af19150503d806000811461367b576040519150601f19603f3d011682016040523d82523d6000602084013e613680565b606091505b50915091508180156136aa5750805115806136aa5750808060200190518101906136aa9190615601565b98975050505050505050565b604080516001600160a01b038481166024830152604480830185905283518084039091018152606490920183526020820180517bffffffffffffffffffffffffffffffffffffffffffffffffffffffff167fa9059cbb000000000000000000000000000000000000000000000000000000001790529151600092839182918816906137429085906155c6565b6000604051808303816000865af19150503d806000811461377f576040519150601f19603f3d011682016040523d82523d6000602084013e613784565b606091505b50915091508180156137ae5750805115806137ae5750808060200190518101906137ae9190615601565b93505050505b9392505050565b60008063e342481160e01b836040516024016137d7919061561e565b604080518083037fffffffffffffffffffffffffffffffffffffffffffffffffffffffffffffffe00181529190526020810180517fffffffff00000000000000000000000000000000000000000000000000000000939093167bffffffffffffffffffffffffffffffffffffffffffffffffffffffff90931692909217909152905060c0830135604881901c62ffffff169060601c60005a90508260408204820310156138c457604080516060810182527f6d67762f6e6f74456e6f756768476173466f724d616b657254726164650000008152600060208201819052918101919091526138c490606081fd5b6000806138d2848688614459565b915091505a83039650816139265761392660405180606001604052807f6d67762f6d616b6572526576657274000000000000000000000000000000000081526020018960001b815260200183815250606081fd5b80156139725761397260405180606001604052807f6d67762f6d616b657241626f727400000000000000000000000000000000000081526020018960001b815260200183815250606081fd5b600061399061398460208b018b61506b565b86308c608001356135aa565b9050806139dd576139dd60405180606001604052807f6d67762f6d616b65725472616e736665724661696c000000000000000000000081526020018a60001b815260200184815250606081fd5b50505050505050919050565b60008080805b84811015613ede576000604089018190526060890152858582818110613a1757613a176156c9565b905060800201600060048110613a2f57613a2f6156c9565b60209081029190910135604089810191825289516001600160a01b039081166000908152600485528281208c86018051841683529086528382208551835286528382205460608e019081528d518416835260058752848320915190931682528552828120935181529290935290205460c0890152516bffffffffffffffffffffffff161580613b005750858582818110613acb57613acb6156c9565b905060800201600360048110613ae357613ae36156c9565b6020020135613afe8860c0015162ffffff60489190911c1690565b115b15613b0a57613ed6565b858582818110613b1c57613b1c6156c9565b905060800201600160048110613b3457613b346156c9565b6020020135868683818110613b4b57613b4b6156c9565b905060800201600160048110613b6357613b636156c9565b60200201356bffffffffffffffffffffffff1614613bc35760405162461bcd60e51b815260206004820152601c60248201527f6d67762f736e697065732f74616b657257616e74732f393662697473000000006044820152606401610b4b565b858582818110613bd557613bd56156c9565b905060800201600260048110613bed57613bed6156c9565b6020020135868683818110613c0457613c046156c9565b905060800201600260048110613c1c57613c1c6156c9565b60200201356bffffffffffffffffffffffff1614613c7c5760405162461bcd60e51b815260206004820152601c60248201527f6d67762f736e697065732f74616b657247697665732f393662697473000000006044820152606401610b4b565b858582818110613c8e57613c8e6156c9565b905060800201600160048110613ca657613ca66156c9565b60200201356080880152858582818110613cc257613cc26156c9565b905060800201600260048110613cda57613cda6156c9565b602002013560a08801526101008701517fffffffffffffffffffffffffffffffffffffffff00ffffffffffffffffffffff166b01000000000000000000000017610100880181905287516001600160a01b039081166000908152600260209081526040808320828d01519094168352929052908120919091558080613d5f8b8b614480565b925092509250807f6d67762f747261646553756363657373000000000000000000000000000000001415613d94576001870196505b807f6d67762f6e6f744578656375746564000000000000000000000000000000000014613df657613def8a600001518b60200151613dd68d6060015160e01c90565b60608e015160c01c63ffffffff168e61010001516133e2565b6101008b01525b6101008a01517fffffffffffffffffffffffffffffffffffffffff00ffffffffffffffffffffff168a610100018181525050896101000151600260008c600001516001600160a01b03166001600160a01b0316815260200190815260200160002060008c602001516001600160a01b03166001600160a01b0316815260200190815260200160002081905550613e8c8b8b614b97565b807f6d67762f6e6f744578656375746564000000000000000000000000000000000014613ec057613ec08b8b858585614ca4565b8a60400151860195508a60600151850194505050505b6001016139ef565b509450945094915050565b80156122b257604051600090339083908381818185875af1925050503d8060008114613f31576040519150601f19603f3d011682016040523d82523d6000602084013e613f36565b606091505b5050905080610a1d5760405162461bcd60e51b815260206004820152601760248201527f6d67762f73656e6450656e616c747952657665727465640000000000000000006044820152606401610b4b565b60008060008060008560e001519050600086608001518214613fdc5786516001600160a01b039081166000908152600460209081526040808320828c0151909416835292815282822085835290522054613fe3565b8661014001515b90506bffffffffffffffffffffffff81166140415761012087015160381c63ffffffff1687516001600160a01b039081166000908152600460209081526040808320828d015190941683529281528282208483529052205490925090505b61404c878284614d14565b156140e65760005b60c082901c63ffffffff16156140ce575086516001600160a01b039081166000908152600460209081526040808320828c0151909416835292815282822063ffffffff60c086901c16808452915291902054906140b2898383614d14565b156140c2578093508192506140c8565b506140ce565b50614054565b8260c083901c63ffffffff16909550935061416f9050565b60005b6140f38260e01c90565b1561415c5760006141048360e01c90565b89516001600160a01b039081166000908152600460209081526040808320828f015190941683529281528282208483529052205492509050614147898383614d14565b15614152575061415c565b92509050806140e9565b6141668260e01c90565b94509192508291505b86608001518414614180578361418a565b61014087015160e01c5b8760800151841461419b57836141ab565b61014088015160c01c63ffffffff165b9550955050505050915091565b8080156141df57508260c001516141d65760008260a00151116141df565b60008260800151115b80156141ef575060008260400151115b156143d55781516001600160a01b03908116600090815260056020908152604080832082870151909416835292815282822083860151835290529081205460c0840152808061423e8686614480565b608088015160a089015160408a015160608b015160c08c015196995094975092955090939092907f6d67762f6e6f744578656375746564000000000000000000000000000000000086146143435760408b01518b511161429f5760006142a8565b60408b01518b51035b60808b015260608b81015160208d01510360a08c01528a015160c01c63ffffffff168a6040018181525050600460008b600001516001600160a01b03166001600160a01b0316815260200190815260200160002060008b602001516001600160a01b03166001600160a01b0316815260200190815260200160002060008b604001518152602001908152602001600020548a60600181815250505b6143718b8b887f6d67762f6e6f744578656375746564000000000000000000000000000000000014156141b8565b60408a0183905260808a0185905260a08a0184905260608a0182905260c08a018190527f6d67762f6e6f744578656375746564000000000000000000000000000000000086146143c8576143c88b8b8a8a8a614ca4565b5050505050505050505050565b6143f482600001518360200151600085604001518661010001516133e2565b7fffffffffffffffffffffffffffffffffffffffff00ffffffffffffffffffffff16610100830181905282516001600160a01b03908116600090815260026020908152604080832082880151909416835292905220556144548383614b97565b505050565b600080614464614fe4565b60208185516020870160008a8af1905190969095509350505050565b6000806000806144a585606001516bffffffffffffffffffffffff60609190911c1690565b905060006144c286606001516bffffffffffffffffffffffff1690565b608087015160a08801519192509080830284830211156145105750600095508594507f6d67762f6e6f74457865637574656400000000000000000000000000000000009350614b9092505050565b8860c00151801561452057508183105b8061453757508860c0015115801561453757508084105b1561454f576080880183905260a088018490526145c3565b8860c001511561459a5783820283818161456b5761456b61569a565b061561457857600161457b565b60005b60ff1684828161458d5761458d61569a565b040160a08a0152506145c3565b836145ab57608088018390526145c3565b83818402816145bc576145bc61569a565b0460808901525b50505050600080306001600160a01b031663b24d1ee760e01b878960a001516040516024016145f39291906156f8565b604080517fffffffffffffffffffffffffffffffffffffffffffffffffffffffffffffffe08184030181529181526020820180517bffffffffffffffffffffffffffffffffffffffffffffffffffffffff167fffffffff0000000000000000000000000000000000000000000000000000000090941693909317909252905161467c91906155c6565b6000604051808303816000865af19150503d80600081146146b9576040519150601f19603f3d011682016040523d82523d6000602084013e6146be565b606091505b5091509150811561483e57808060200190518101906146dd9190615780565b94507f6d67762f74726164655375636365737300000000000000000000000000000000925085602001516001600160a01b031686600001516001600160a01b03167f1d81940ff2c3ac549c8acefd7c1b2ffb24aacc8b3cfa309c22abc3de79727f9d88604001518a60a001518a608001518b60a0015160405161478294939291909384526001600160a01b039290921660208401526040830152606082015260800190565b60405180910390a360e086015160501c60ff16156148195760e086015160a08801516040517fef36094600000000000000000000000000000000000000000000000000000000815260609290921c9163ef360946916147e6918a91906004016156f8565b600060405180830381600087803b15801561480057600080fd5b505af1158015614814573d6000803e3d6000fd5b505050505b6080860151604088018051909101905260a08601516060880180519091019052614b48565b602081015160408201516060830151909650945092507f6d67762f6d616b657252657665727400000000000000000000000000000000008314806148a15750827f6d67762f6d616b657241626f7274000000000000000000000000000000000000145b806148cb5750827f6d67762f6d616b65725472616e736665724661696c0000000000000000000000145b806148f55750827f6d67762f6d616b6572526563656976654661696c000000000000000000000000145b15614a205785602001516001600160a01b031686600001516001600160a01b03167f1d59c048edb5397821854bd12cbe02242b82101c677f949d076d14eb7bd8343688604001518a60a001518a608001518b60a00151896040516149849594939291909485526001600160a01b0393909316602085015260408401919091526060830152608082015260a00190565b60405180910390a360e086015160501c60ff1615614a1b5760e086015160a08801516040517fbec362dc00000000000000000000000000000000000000000000000000000000815260609290921c9163bec362dc916149e8918a91906004016156f8565b600060405180830381600087803b158015614a0257600080fd5b505af1158015614a16573d6000803e3d6000fd5b505050505b614b48565b827f6d67762f6e6f74456e6f756768476173466f724d616b657254726164650000001415614a905760405162461bcd60e51b815260206004820152601d60248201527f6d67762f6e6f74456e6f756768476173466f724d616b657254726164650000006044820152606401610b4b565b827f6d67762f74616b65725472616e736665724661696c00000000000000000000001415614b005760405162461bcd60e51b815260206004820152601560248201527f6d67762f74616b65725472616e736665724661696c00000000000000000000006044820152606401610b4b565b60405162461bcd60e51b815260206004820152600d60248201527f6d67762f737761704572726f72000000000000000000000000000000000000006044820152606401610b4b565b614b8d86600001518760200151886040015189606001518a60c00151887f6d67762f747261646553756363657373000000000000000000000000000000001415613504565b50505b9250925092565b6101008101516000906127109060e81c61ffff1684604001510281614bbe57614bbe61569a565b0490508015614c375760408301805182900390528151600054614beb91906001600160a01b0316836136b6565b614c375760405162461bcd60e51b815260206004820152601360248201527f6d67762f6665655472616e736665724661696c000000000000000000000000006044820152606401610b4b565b60408301511561445457614c5882600001518460a0015185604001516136b6565b6144545760405162461bcd60e51b815260206004820152601560248201527f6d67762f4d67764661696c546f50617954616b657200000000000000000000006044820152606401610b4b565b60c084015160481c62ffffff1680841115614cbd578093505b614ccb858583038585614dbd565b84019350817f6d67762f7472616465537563636573730000000000000000000000000000000014614d0c57614d008585614f52565b60808701805190910190525b505050505050565b600081614d23575060016137b4565b60408401516060858101516bffffffffffffffffffffffff9186901c821692918616919080840282840280821415614db05789516001600160a01b039081166000908152600560209081526040808320828f015190941683529281528282208b835290529081205460481c62ffffff1660a08c0151940295909302949094101595506137b4945050505050565b1194506137b49350505050565b60008063eb87009e60e01b86604051806040016040528087815260200186815250604051602401614def929190615799565b604080517fffffffffffffffffffffffffffffffffffffffffffffffffffffffffffffffe08184030181529190526020810180517bffffffffffffffffffffffffffffffffffffffffffffffffffffffff167fffffffff00000000000000000000000000000000000000000000000000000000939093169290921790915260c087015190915060601c60005a9050866040820482031015614ed25760405162461bcd60e51b815260206004820181905260248201527f6d67762f6e6f74456e6f756768476173466f724d616b6572506f7374686f6f6b6044820152606401610b4b565b6000614edf838986614459565b5090505a8203945080614f465788602001516001600160a01b031689600001516001600160a01b03167fef1ddb0cef7570327ce5e13e763dda9ae57821b90f18d3b36a5f83997f913e318b60400151604051614f3d91815260200190565b60405180910390a35b50505050949350505050565b60c082015160009062ffffff604882901c81169161ffff602082901c1660309190911c909116820102633b9aca000281841115614f8d578193505b61010085015160009060601c62ffffff1660e08701519086019060401c61ffff16633b9aca000202905081811115614fc25750805b614fdb614fd38760c0015160601c90565b8284036122b5565b95945050505050565b60405180602001604052806001906020820280368337509192915050565b80356001600160a01b038116811461501957600080fd5b919050565b600080600080600060a0868803121561503657600080fd5b61503f86615002565b945061504d60208701615002565b94979496505050506040830135926060810135926080909101359150565b60006020828403121561507d57600080fd5b6137b482615002565b60008060006060848603121561509b57600080fd5b6150a484615002565b92506150b260208501615002565b9150604084013590509250925092565b6000602082840312156150d457600080fd5b5035919050565b60008083601f8401126150ed57600080fd5b50813567ffffffffffffffff81111561510557600080fd5b6020830191508360208260071b8501011115611dfe57600080fd5b80151581146122b257600080fd5b60008060008060006080868803121561514657600080fd5b61514f86615002565b945061515d60208701615002565b9350604086013567ffffffffffffffff81111561517957600080fd5b615185888289016150db565b909450925050606086013561519981615120565b809150509295509295909350565b600080600080600080600060e0888a0312156151c257600080fd5b6151cb88615002565b96506151d960208901615002565b96999698505050506040850135946060810135946080820135945060a0820135935060c0909101359150565b6000806000806080858703121561521b57600080fd5b61522485615002565b935061523260208601615002565b925061524060408601615002565b9396929550929360600135925050565b60006020828403121561526257600080fd5b81356137b481615120565b6000806040838503121561528057600080fd5b61528983615002565b915061529760208401615002565b90509250929050565b600080600080600080600080610100898b0312156152bd57600080fd5b6152c689615002565b97506152d460208a01615002565b979a9799505050506040860135956060810135956080820135955060a0820135945060c0820135935060e0909101359150565b60008060008060008060c0878903121561532057600080fd5b61532987615002565b955061533760208801615002565b94506040870135935060608701359250608087013561535581615120565b915061536360a08801615002565b90509295509295509295565b6000806000806080858703121561538557600080fd5b61538e85615002565b935061539c60208601615002565b92506040850135915060608501356153b381615120565b939692955090935050565b60008060008060008060008060006101208a8c0312156153dd57600080fd5b6153e68a615002565b98506153f460208b01615002565b975061540260408b01615002565b965061541060608b01615002565b955060808a0135945060a08a0135935060c08a013560ff8116811461543457600080fd5b8093505060e08a013591506101008a013590509295985092959850929598565b60008082840361014081121561546957600080fd5b6101208082121561547957600080fd5b84935061111d818601615002565b60008060008060008060a087890312156154a057600080fd5b6154a987615002565b95506154b760208801615002565b9450604087013567ffffffffffffffff8111156154d357600080fd5b6154df89828a016150db565b90955093505060608701356154f381615120565b915061536360808801615002565b6000806000806080858703121561551757600080fd5b61552085615002565b935061552e60208601615002565b925061553c60408601615002565b915061554a60608601615002565b905092959194509250565b600080600080600060a0868803121561556d57600080fd5b61557686615002565b945061558460208701615002565b93506040860135925060608601359150608086013561519981615120565b600080604083850312156155b557600080fd5b505080516020909101519092909150565b6000825160005b818110156155e757602081860181015185830152016155cd565b818111156155f6576000828501525b509190910192915050565b60006020828403121561561357600080fd5b81516137b481615120565b61012081016001600160a01b038061563585615002565b1683528061564560208601615002565b1660208401525060408301356040830152606083013560608301526080830135608083015260a083013560a083015260c083013560c083015260e083013560e083015261010080840135818401525092915050565b7f4e487b7100000000000000000000000000000000000000000000000000000000600052601260045260246000fd5b7f4e487b7100000000000000000000000000000000000000000000000000000000600052603260045260246000fd5b610140810161576982856001600160a01b038082511683528060208301511660208401525060408101516040830152606081015160608301526080810151608083015260a081015160a083015260c081015160c083015260e081015160e08301526101008082015181840152505050565b6001600160a01b0383166101208301529392505050565b60006020828403121561579257600080fd5b5051919050565b610160810161580a82856001600160a01b038082511683528060208301511660208401525060408101516040830152606081015160608301526080810151608083015260a081015160a083015260c081015160c083015260e081015160e08301526101008082015181840152505050565b82516101208301526020830151610140830152939250505056fea2646970667358221220609a13698c5785edaf728dc23752d427f6a6ac63b36a4679d8bd399366326c6064736f6c634300080a0033",
  "devdoc": {
    "kind": "dev",
    "methods": {},
    "version": 1
  },
  "userdoc": {
    "kind": "user",
    "methods": {},
    "version": 1
  },
  "storageLayout": {
    "storage": [
      {
        "astId": 9218,
        "contract": "contracts/Mangrove.sol:Mangrove",
        "label": "vault",
        "offset": 0,
        "slot": "0",
        "type": "t_address"
      },
      {
        "astId": 9221,
        "contract": "contracts/Mangrove.sol:Mangrove",
        "label": "internal_global",
        "offset": 0,
        "slot": "1",
        "type": "t_userDefinedValueType(t)7460"
      },
      {
        "astId": 9228,
        "contract": "contracts/Mangrove.sol:Mangrove",
        "label": "locals",
        "offset": 0,
        "slot": "2",
        "type": "t_mapping(t_address,t_mapping(t_address,t_userDefinedValueType(t)8285))"
      },
      {
        "astId": 1630,
        "contract": "contracts/Mangrove.sol:Mangrove",
        "label": "governance",
        "offset": 0,
        "slot": "3",
        "type": "t_address"
      },
      {
        "astId": 2118,
        "contract": "contracts/Mangrove.sol:Mangrove",
        "label": "offers",
        "offset": 0,
        "slot": "4",
        "type": "t_mapping(t_address,t_mapping(t_address,t_mapping(t_uint256,t_userDefinedValueType(t)6345)))"
      },
      {
        "astId": 2127,
        "contract": "contracts/Mangrove.sol:Mangrove",
        "label": "offerDetails",
        "offset": 0,
        "slot": "5",
        "type": "t_mapping(t_address,t_mapping(t_address,t_mapping(t_uint256,t_userDefinedValueType(t)6892)))"
      },
      {
        "astId": 2131,
        "contract": "contracts/Mangrove.sol:Mangrove",
        "label": "balanceOf",
        "offset": 0,
        "slot": "6",
        "type": "t_mapping(t_address,t_uint256)"
      },
      {
        "astId": 5959,
        "contract": "contracts/Mangrove.sol:Mangrove",
        "label": "allowances",
        "offset": 0,
        "slot": "7",
        "type": "t_mapping(t_address,t_mapping(t_address,t_mapping(t_address,t_mapping(t_address,t_uint256))))"
      },
      {
        "astId": 5963,
        "contract": "contracts/Mangrove.sol:Mangrove",
        "label": "nonces",
        "offset": 0,
        "slot": "8",
        "type": "t_mapping(t_address,t_uint256)"
      }
    ],
    "types": {
      "t_address": {
        "encoding": "inplace",
        "label": "address",
        "numberOfBytes": "20"
      },
      "t_mapping(t_address,t_mapping(t_address,t_mapping(t_address,t_mapping(t_address,t_uint256))))": {
        "encoding": "mapping",
        "key": "t_address",
        "label": "mapping(address => mapping(address => mapping(address => mapping(address => uint256))))",
        "numberOfBytes": "32",
        "value": "t_mapping(t_address,t_mapping(t_address,t_mapping(t_address,t_uint256)))"
      },
      "t_mapping(t_address,t_mapping(t_address,t_mapping(t_address,t_uint256)))": {
        "encoding": "mapping",
        "key": "t_address",
        "label": "mapping(address => mapping(address => mapping(address => uint256)))",
        "numberOfBytes": "32",
        "value": "t_mapping(t_address,t_mapping(t_address,t_uint256))"
      },
      "t_mapping(t_address,t_mapping(t_address,t_mapping(t_uint256,t_userDefinedValueType(t)6345)))": {
        "encoding": "mapping",
        "key": "t_address",
        "label": "mapping(address => mapping(address => mapping(uint256 => Offer.t)))",
        "numberOfBytes": "32",
        "value": "t_mapping(t_address,t_mapping(t_uint256,t_userDefinedValueType(t)6345))"
      },
      "t_mapping(t_address,t_mapping(t_address,t_mapping(t_uint256,t_userDefinedValueType(t)6892)))": {
        "encoding": "mapping",
        "key": "t_address",
        "label": "mapping(address => mapping(address => mapping(uint256 => OfferDetail.t)))",
        "numberOfBytes": "32",
        "value": "t_mapping(t_address,t_mapping(t_uint256,t_userDefinedValueType(t)6892))"
      },
      "t_mapping(t_address,t_mapping(t_address,t_uint256))": {
        "encoding": "mapping",
        "key": "t_address",
        "label": "mapping(address => mapping(address => uint256))",
        "numberOfBytes": "32",
        "value": "t_mapping(t_address,t_uint256)"
      },
      "t_mapping(t_address,t_mapping(t_address,t_userDefinedValueType(t)8285))": {
        "encoding": "mapping",
        "key": "t_address",
        "label": "mapping(address => mapping(address => Local.t))",
        "numberOfBytes": "32",
        "value": "t_mapping(t_address,t_userDefinedValueType(t)8285)"
      },
      "t_mapping(t_address,t_mapping(t_uint256,t_userDefinedValueType(t)6345))": {
        "encoding": "mapping",
        "key": "t_address",
        "label": "mapping(address => mapping(uint256 => Offer.t))",
        "numberOfBytes": "32",
        "value": "t_mapping(t_uint256,t_userDefinedValueType(t)6345)"
      },
      "t_mapping(t_address,t_mapping(t_uint256,t_userDefinedValueType(t)6892))": {
        "encoding": "mapping",
        "key": "t_address",
        "label": "mapping(address => mapping(uint256 => OfferDetail.t))",
        "numberOfBytes": "32",
        "value": "t_mapping(t_uint256,t_userDefinedValueType(t)6892)"
      },
      "t_mapping(t_address,t_uint256)": {
        "encoding": "mapping",
        "key": "t_address",
        "label": "mapping(address => uint256)",
        "numberOfBytes": "32",
        "value": "t_uint256"
      },
      "t_mapping(t_address,t_userDefinedValueType(t)8285)": {
        "encoding": "mapping",
        "key": "t_address",
        "label": "mapping(address => Local.t)",
        "numberOfBytes": "32",
        "value": "t_userDefinedValueType(t)8285"
      },
      "t_mapping(t_uint256,t_userDefinedValueType(t)6345)": {
        "encoding": "mapping",
        "key": "t_uint256",
        "label": "mapping(uint256 => Offer.t)",
        "numberOfBytes": "32",
        "value": "t_userDefinedValueType(t)6345"
      },
      "t_mapping(t_uint256,t_userDefinedValueType(t)6892)": {
        "encoding": "mapping",
        "key": "t_uint256",
        "label": "mapping(uint256 => OfferDetail.t)",
        "numberOfBytes": "32",
        "value": "t_userDefinedValueType(t)6892"
      },
      "t_uint256": {
        "encoding": "inplace",
        "label": "uint256",
        "numberOfBytes": "32"
      },
      "t_userDefinedValueType(t)6345": {
        "encoding": "inplace",
        "label": "Offer.t",
        "numberOfBytes": "32"
      },
      "t_userDefinedValueType(t)6892": {
        "encoding": "inplace",
        "label": "OfferDetail.t",
        "numberOfBytes": "32"
      },
      "t_userDefinedValueType(t)7460": {
        "encoding": "inplace",
        "label": "Global.t",
        "numberOfBytes": "32"
      },
      "t_userDefinedValueType(t)8285": {
        "encoding": "inplace",
        "label": "Local.t",
        "numberOfBytes": "32"
      }
    }
  }
}