{
  "address": "0xc9f2275b1F5F6934fAA71c66101D85C69220C86d",
  "abi": [
    {
      "inputs": [
        {
          "internalType": "address payable",
          "name": "mgv",
          "type": "address"
        },
        {
          "internalType": "address",
          "name": "base",
          "type": "address"
        },
        {
          "internalType": "address",
          "name": "quote",
          "type": "address"
        },
        {
          "internalType": "uint256",
          "name": "base_0",
          "type": "uint256"
        },
        {
          "internalType": "uint256",
          "name": "quote_0",
          "type": "uint256"
        },
        {
          "internalType": "uint256",
          "name": "nslots",
          "type": "uint256"
        },
        {
          "internalType": "uint256",
          "name": "delta",
          "type": "uint256"
        },
        {
          "internalType": "address",
          "name": "admin",
          "type": "address"
        }
      ],
      "stateMutability": "nonpayable",
      "type": "constructor"
    },
    {
      "anonymous": false,
      "inputs": [
        {
          "indexed": false,
          "internalType": "address",
          "name": "quote",
          "type": "address"
        },
        {
          "indexed": false,
          "internalType": "address",
          "name": "base",
          "type": "address"
        },
        {
          "indexed": false,
          "internalType": "uint256",
          "name": "offerId",
          "type": "uint256"
        }
      ],
      "name": "AskAtMinPosition",
      "type": "event"
    },
    {
      "anonymous": false,
      "inputs": [
        {
          "indexed": false,
          "internalType": "address",
          "name": "quote",
          "type": "address"
        },
        {
          "indexed": false,
          "internalType": "address",
          "name": "base",
          "type": "address"
        },
        {
          "indexed": false,
          "internalType": "uint256",
          "name": "offerId",
          "type": "uint256"
        }
      ],
      "name": "BidAtMaxPosition",
      "type": "event"
    },
    {
      "anonymous": false,
      "inputs": [
        {
          "indexed": false,
          "internalType": "uint256",
          "name": "from",
          "type": "uint256"
        },
        {
          "indexed": false,
          "internalType": "uint256",
          "name": "to",
          "type": "uint256"
        }
      ],
      "name": "Initialized",
      "type": "event"
    },
    {
      "anonymous": false,
      "inputs": [
        {
          "indexed": true,
          "internalType": "address",
          "name": "outbound_tkn",
          "type": "address"
        },
        {
          "indexed": true,
          "internalType": "address",
          "name": "inbound_tkn",
          "type": "address"
        },
        {
          "indexed": true,
          "internalType": "uint256",
          "name": "offerId",
          "type": "uint256"
        },
        {
          "indexed": false,
          "internalType": "bytes32",
          "name": "reason",
          "type": "bytes32"
        }
      ],
      "name": "LogIncident",
      "type": "event"
    },
    {
      "inputs": [],
      "name": "BASE",
      "outputs": [
        {
          "internalType": "address",
          "name": "",
          "type": "address"
        }
      ],
      "stateMutability": "view",
      "type": "function"
    },
    {
      "inputs": [],
      "name": "MGV",
      "outputs": [
        {
          "internalType": "contract IMangrove",
          "name": "",
          "type": "address"
        }
      ],
      "stateMutability": "view",
      "type": "function"
    },
    {
      "inputs": [],
      "name": "NSLOTS",
      "outputs": [
        {
          "internalType": "uint16",
          "name": "",
          "type": "uint16"
        }
      ],
      "stateMutability": "view",
      "type": "function"
    },
    {
      "inputs": [],
      "name": "OFR_GASREQ",
      "outputs": [
        {
          "internalType": "uint256",
          "name": "",
          "type": "uint256"
        }
      ],
      "stateMutability": "view",
      "type": "function"
    },
    {
      "inputs": [],
      "name": "OUTOFLIQUIDITY",
      "outputs": [
        {
          "internalType": "bytes32",
          "name": "",
          "type": "bytes32"
        }
      ],
      "stateMutability": "view",
      "type": "function"
    },
    {
      "inputs": [],
      "name": "PUTFAILURE",
      "outputs": [
        {
          "internalType": "bytes32",
          "name": "",
          "type": "bytes32"
        }
      ],
      "stateMutability": "view",
      "type": "function"
    },
    {
      "inputs": [],
      "name": "QUOTE",
      "outputs": [
        {
          "internalType": "address",
          "name": "",
          "type": "address"
        }
      ],
      "stateMutability": "view",
      "type": "function"
    },
    {
      "inputs": [],
      "name": "RENEGED",
      "outputs": [
        {
          "internalType": "bytes32",
          "name": "",
          "type": "bytes32"
        }
      ],
      "stateMutability": "view",
      "type": "function"
    },
    {
      "inputs": [],
      "name": "admin",
      "outputs": [
        {
          "internalType": "address",
          "name": "",
          "type": "address"
        }
      ],
      "stateMutability": "view",
      "type": "function"
    },
    {
      "inputs": [
        {
          "internalType": "address",
          "name": "outbound_tkn",
          "type": "address"
        },
        {
          "internalType": "uint256",
          "name": "amount",
          "type": "uint256"
        }
      ],
      "name": "approveMangrove",
      "outputs": [],
      "stateMutability": "nonpayable",
      "type": "function"
    },
    {
      "inputs": [
        {
          "internalType": "address",
          "name": "outbound_tkn",
          "type": "address"
        },
        {
          "internalType": "address",
          "name": "inbound_tkn",
          "type": "address"
        },
        {
          "internalType": "uint256",
          "name": "gasreq",
          "type": "uint256"
        },
        {
          "internalType": "uint256",
          "name": "gasprice",
          "type": "uint256"
        },
        {
          "internalType": "uint256",
          "name": "offerId",
          "type": "uint256"
        }
      ],
      "name": "getMissingProvision",
      "outputs": [
        {
          "internalType": "uint256",
          "name": "",
          "type": "uint256"
        }
      ],
      "stateMutability": "view",
      "type": "function"
    },
    {
      "inputs": [],
      "name": "get_delta",
      "outputs": [
        {
          "internalType": "uint256",
          "name": "",
          "type": "uint256"
        }
      ],
      "stateMutability": "view",
      "type": "function"
    },
    {
      "inputs": [
        {
          "internalType": "bool",
          "name": "liveOnly",
          "type": "bool"
        }
      ],
      "name": "get_offers",
      "outputs": [
        {
          "internalType": "uint256[][2]",
          "name": "offers",
          "type": "uint256[][2]"
        }
      ],
      "stateMutability": "view",
      "type": "function"
    },
    {
      "inputs": [],
      "name": "get_pending",
      "outputs": [
        {
          "internalType": "uint256[2]",
          "name": "",
          "type": "uint256[2]"
        }
      ],
      "stateMutability": "view",
      "type": "function"
    },
    {
      "inputs": [],
      "name": "get_shift",
      "outputs": [
        {
          "internalType": "int256",
          "name": "",
          "type": "int256"
        }
      ],
      "stateMutability": "view",
      "type": "function"
    },
    {
      "inputs": [
        {
          "internalType": "bool",
          "name": "base",
          "type": "bool"
        }
      ],
      "name": "get_treasury",
      "outputs": [
        {
          "internalType": "address",
          "name": "",
          "type": "address"
        }
      ],
      "stateMutability": "view",
      "type": "function"
    },
    {
      "inputs": [
        {
          "internalType": "uint256",
          "name": "lastBidPosition",
          "type": "uint256"
        },
        {
          "internalType": "uint256",
          "name": "from",
          "type": "uint256"
        },
        {
          "internalType": "uint256",
          "name": "to",
          "type": "uint256"
        },
        {
          "internalType": "uint256[][2]",
          "name": "pivotIds",
          "type": "uint256[][2]"
        },
        {
          "internalType": "uint256[]",
          "name": "tokenAmounts",
          "type": "uint256[]"
        }
      ],
      "name": "initialize",
      "outputs": [],
      "stateMutability": "nonpayable",
      "type": "function"
    },
    {
      "inputs": [
        {
          "components": [
            {
              "internalType": "address",
              "name": "outbound_tkn",
              "type": "address"
            },
            {
              "internalType": "address",
              "name": "inbound_tkn",
              "type": "address"
            },
            {
              "internalType": "uint256",
              "name": "offerId",
              "type": "uint256"
            },
            {
              "internalType": "Offer.t",
              "name": "offer",
              "type": "uint256"
            },
            {
              "internalType": "uint256",
              "name": "wants",
              "type": "uint256"
            },
            {
              "internalType": "uint256",
              "name": "gives",
              "type": "uint256"
            },
            {
              "internalType": "OfferDetail.t",
              "name": "offerDetail",
              "type": "uint256"
            },
            {
              "internalType": "Global.t",
              "name": "global",
              "type": "uint256"
            },
            {
              "internalType": "Local.t",
              "name": "local",
              "type": "uint256"
            }
          ],
          "internalType": "struct MgvLib.SingleOrder",
          "name": "order",
          "type": "tuple"
        }
      ],
      "name": "makerExecute",
      "outputs": [
        {
          "internalType": "bytes32",
          "name": "ret",
          "type": "bytes32"
        }
      ],
      "stateMutability": "nonpayable",
      "type": "function"
    },
    {
      "inputs": [
        {
          "components": [
            {
              "internalType": "address",
              "name": "outbound_tkn",
              "type": "address"
            },
            {
              "internalType": "address",
              "name": "inbound_tkn",
              "type": "address"
            },
            {
              "internalType": "uint256",
              "name": "offerId",
              "type": "uint256"
            },
            {
              "internalType": "Offer.t",
              "name": "offer",
              "type": "uint256"
            },
            {
              "internalType": "uint256",
              "name": "wants",
              "type": "uint256"
            },
            {
              "internalType": "uint256",
              "name": "gives",
              "type": "uint256"
            },
            {
              "internalType": "OfferDetail.t",
              "name": "offerDetail",
              "type": "uint256"
            },
            {
              "internalType": "Global.t",
              "name": "global",
              "type": "uint256"
            },
            {
              "internalType": "Local.t",
              "name": "local",
              "type": "uint256"
            }
          ],
          "internalType": "struct MgvLib.SingleOrder",
          "name": "order",
          "type": "tuple"
        },
        {
          "components": [
            {
              "internalType": "bytes32",
              "name": "makerData",
              "type": "bytes32"
            },
            {
              "internalType": "bytes32",
              "name": "mgvData",
              "type": "bytes32"
            }
          ],
          "internalType": "struct MgvLib.OrderResult",
          "name": "result",
          "type": "tuple"
        }
      ],
      "name": "makerPosthook",
      "outputs": [],
      "stateMutability": "nonpayable",
      "type": "function"
    },
    {
      "inputs": [
        {
          "internalType": "address",
          "name": "outbound_tkn",
          "type": "address"
        },
        {
          "internalType": "address",
          "name": "inbound_tkn",
          "type": "address"
        },
        {
          "internalType": "uint256",
          "name": "wants",
          "type": "uint256"
        },
        {
          "internalType": "uint256",
          "name": "gives",
          "type": "uint256"
        },
        {
          "internalType": "uint256",
          "name": "gasreq",
          "type": "uint256"
        },
        {
          "internalType": "uint256",
          "name": "gasprice",
          "type": "uint256"
        },
        {
          "internalType": "uint256",
          "name": "pivotId",
          "type": "uint256"
        }
      ],
      "name": "newOffer",
      "outputs": [
        {
          "internalType": "uint256",
          "name": "offerId",
          "type": "uint256"
        }
      ],
      "stateMutability": "payable",
      "type": "function"
    },
    {
      "inputs": [],
      "name": "pause",
      "outputs": [],
      "stateMutability": "nonpayable",
      "type": "function"
    },
    {
      "inputs": [
        {
          "internalType": "address",
          "name": "token",
          "type": "address"
        },
        {
          "internalType": "address",
          "name": "receiver",
          "type": "address"
        },
        {
          "internalType": "uint256",
          "name": "amount",
          "type": "uint256"
        }
      ],
      "name": "redeemToken",
      "outputs": [
        {
          "internalType": "bool",
          "name": "success",
          "type": "bool"
        }
      ],
      "stateMutability": "nonpayable",
      "type": "function"
    },
    {
      "inputs": [],
      "name": "restart",
      "outputs": [],
      "stateMutability": "nonpayable",
      "type": "function"
    },
    {
      "inputs": [
        {
          "internalType": "address",
          "name": "outbound_tkn",
          "type": "address"
        },
        {
          "internalType": "address",
          "name": "inbound_tkn",
          "type": "address"
        },
        {
          "internalType": "uint256",
          "name": "offerId",
          "type": "uint256"
        },
        {
          "internalType": "bool",
          "name": "deprovision",
          "type": "bool"
        }
      ],
      "name": "retractOffer",
      "outputs": [
        {
          "internalType": "uint256",
          "name": "",
          "type": "uint256"
        }
      ],
      "stateMutability": "nonpayable",
      "type": "function"
    },
    {
      "inputs": [
        {
          "internalType": "uint256",
          "name": "ba",
          "type": "uint256"
        },
        {
          "internalType": "uint256",
          "name": "from",
          "type": "uint256"
        },
        {
          "internalType": "uint256",
          "name": "to",
          "type": "uint256"
        }
      ],
      "name": "retractOffers",
      "outputs": [
        {
          "internalType": "uint256",
          "name": "collected",
          "type": "uint256"
        }
      ],
      "stateMutability": "nonpayable",
      "type": "function"
    },
    {
      "inputs": [
        {
          "internalType": "address",
          "name": "_admin",
          "type": "address"
        }
      ],
      "name": "setAdmin",
      "outputs": [],
      "stateMutability": "nonpayable",
      "type": "function"
    },
    {
      "inputs": [
        {
          "internalType": "uint256",
          "name": "gasreq",
          "type": "uint256"
        }
      ],
      "name": "setGasreq",
      "outputs": [],
      "stateMutability": "nonpayable",
      "type": "function"
    },
    {
      "inputs": [
        {
          "internalType": "uint256",
          "name": "delta",
          "type": "uint256"
        }
      ],
      "name": "set_delta",
      "outputs": [],
      "stateMutability": "nonpayable",
      "type": "function"
    },
    {
      "inputs": [
        {
          "internalType": "uint256",
          "name": "m",
          "type": "uint256"
        }
      ],
      "name": "set_min_offer_type",
      "outputs": [],
      "stateMutability": "nonpayable",
      "type": "function"
    },
    {
      "inputs": [
        {
          "internalType": "int256",
          "name": "s",
          "type": "int256"
        },
        {
          "internalType": "bool",
          "name": "withBase",
          "type": "bool"
        },
        {
          "internalType": "uint256[]",
          "name": "amounts",
          "type": "uint256[]"
        }
      ],
      "name": "set_shift",
      "outputs": [],
      "stateMutability": "nonpayable",
      "type": "function"
    },
    {
      "inputs": [
        {
          "internalType": "bool",
          "name": "base",
          "type": "bool"
        },
        {
          "internalType": "address",
          "name": "treasury",
          "type": "address"
        }
      ],
      "name": "set_treasury",
      "outputs": [],
      "stateMutability": "nonpayable",
      "type": "function"
    },
    {
      "inputs": [
        {
          "internalType": "address",
          "name": "outbound_tkn",
          "type": "address"
        },
        {
          "internalType": "address",
          "name": "inbound_tkn",
          "type": "address"
        },
        {
          "internalType": "uint256",
          "name": "wants",
          "type": "uint256"
        },
        {
          "internalType": "uint256",
          "name": "gives",
          "type": "uint256"
        },
        {
          "internalType": "uint256",
          "name": "gasreq",
          "type": "uint256"
        },
        {
          "internalType": "uint256",
          "name": "gasprice",
          "type": "uint256"
        },
        {
          "internalType": "uint256",
          "name": "pivotId",
          "type": "uint256"
        },
        {
          "internalType": "uint256",
          "name": "offerId",
          "type": "uint256"
        }
      ],
      "name": "updateOffer",
      "outputs": [],
      "stateMutability": "payable",
      "type": "function"
    },
    {
      "inputs": [
        {
          "internalType": "address payable",
          "name": "receiver",
          "type": "address"
        },
        {
          "internalType": "uint256",
          "name": "amount",
          "type": "uint256"
        }
      ],
      "name": "withdrawFromMangrove",
      "outputs": [
        {
          "internalType": "bool",
          "name": "",
          "type": "bool"
        }
      ],
      "stateMutability": "nonpayable",
      "type": "function"
    },
    {
      "stateMutability": "payable",
      "type": "receive"
    }
  ],
  "transactionHash": "0x97ec04091d77dd21bbf7a7678fdfd1ed4df14802b9ea2d5a478e60d64c6065d2",
  "args": [
    "0xF3e339d8a0B989114412fa157Cc846ebaf4BCbd8",
    "0x63e537a69b3f5b03f4f46c5765c82861bd874b6e",
    "0xc87385b5e62099f92d490750fcd6c901a524bbca",
    "1000000000000000000",
    "900000000000000000000",
    100,
    "32000000000000000000",
    "0x47897EE61498D02B18794601Ed3A71896A1Ff894"
  ],
  "solcInputHash": "96873db1798ea4085150b28710260391",
  "bytecode": "0x6101a06040527f6d67764f666665722f61626f72742f72656e65676564000000000000000000006080527f6d67764f666665722f61626f72742f7075744661696c6564000000000000000060a0527f6d67764f666665722f61626f72742f6765744661696c6564000000000000000060c052620186a0600155600b805460ff191690553480156200008f57600080fd5b5060405162005cd638038062005cd6833981016040819052620000b2916200039c565b8781806001600160a01b038116620001115760405162461bcd60e51b815260206004820152601860248201527f616363657373436f6e74726f6c6c65642f307841646d696e000000000000000060448201526064015b60405180910390fd5b600080546001600160a01b0319166001600160a01b039283161790559190911660e0525082158015906200014d57506001600160a01b03881615155b80156200015d5750828361ffff16145b801562000172575084856001600160601b0316145b801562000187575083846001600160601b0316145b620001e05760405162461bcd60e51b815260206004820152602260248201527f4d616e676f2f636f6e7374727563746f722f696e76616c6964417267756d656e604482015261747360f01b606482015260840162000108565b6001600160a01b038088166101605286166101805261ffff831661010052826001600160401b038111156200021957620002196200042e565b60405190808252806020026020018201604052801562000243578160200160208202803683370190505b5080516200025a916002916020909101906200031c565b50826001600160401b038111156200027657620002766200042e565b604051908082528060200260200182016040528015620002a0578160200160208202803683370190505b508051620002b7916003916020909101906200031c565b50506001600160601b0393841661012052919092166101405260095550506001600a819055600c8054336001600160a01b03199091168117909155600b8054610100600160a81b03191661010090920291909117905562061a80905550620004449050565b8280548282559060005260206000209081019282156200035a579160200282015b828111156200035a5782518255916020019190600101906200033d565b50620003689291506200036c565b5090565b5b808211156200036857600081556001016200036d565b6001600160a01b03811681146200039957600080fd5b50565b600080600080600080600080610100898b031215620003ba57600080fd5b8851620003c78162000383565b60208a0151909850620003da8162000383565b60408a0151909750620003ed8162000383565b80965050606089015194506080890151935060a0890151925060c0890151915060e08901516200041d8162000383565b809150509295985092959890939650565b634e487b7160e01b600052604160045260246000fd5b60805160a05160c05160e051610100516101205161014051610160516101805161551f620007b76000396000818161051601528181610c9a01528181610da901528181611067015281816111f50152818161228c01528181612320015281816126b3015281816128840152818161290c01528181612e0c01528181612edf0152818161305001528181613124015281816132cf01528181613a2a01528181613b9d01528181613e2b01528181613f04015281816140690152818161416b0152818161426d015281816143e40152818161450f015281816145f301528181614740015281816147f7015281816149ec0152614aa101526000818161068701528181610c7901528181610dca0152818161108f015281816111cd0152818161226b01528181612341015281816126d4015281816128eb01528181612abc01528181612af101528181612d6901528181612dc901528181612e4601528181612ea30152818161302f015281816132f0015281816133ac015281816136e40152818161394c015281816139b1015281816139f001528181613b2401528181613b6301528181613e0301528181613f2e01528181614048015281816141950152818161424c0152818161440c015281816144e50152818161461401528181614716015281816148180152818161485601528181614a110152614a7c0152600061495c0152600081816136b201526137b70152600081816105ea01528181610a0401528181610a3901528181610a7301528181610b2001528181610ee301528181610f4c01528181610fbb0152818161265801528181612c8b01528181612f1001528181612fb30152818161314e015281816131dd01528181613ce301528181613d2201526143330152600081816104ca01528181610942015281816110c50152818161122b015281816112f3015281816114390152818161163201528181611771015281816117de01528181611b5401528181611cd601528181611df201528181611e8501528181611f4201528181611fd7015281816120750152818161215c0152818161245f0152818161251001528181612684015281816128bc01528181613454015281816135100152818161382b01528181613e77015281816140190152818161421d01528181614458015281816145c401526147c8015260006104030152600061035c01526000610481015261551f6000f3fe6080604052600436106102025760003560e01c8063836dfffa1161011d578063aefe8403116100b0578063dff6cb451161007f578063e4c34f8411610064578063e4c34f8414610655578063ec342ad014610675578063f851a440146106a957600080fd5b8063dff6cb451461061f578063e428204d1461063f57600080fd5b8063aefe840314610578578063c5dbec3814610598578063ccbbcfc2146105b8578063d4a1da08146105d857600080fd5b806399fa5e2d116100ec57806399fa5e2d146104b85780639c579839146105045780639d4ddea214610538578063ad97db1b1461055857600080fd5b8063836dfffa146104455780638456cb591461045a57806389dbacfe1461046f57806399cb40c1146104a357600080fd5b806349f6d2dc11610195578063704b6c0211610164578063704b6c02146103b157806378c60998146103d15780637f7a1b99146103f1578063815502671461042557600080fd5b806349f6d2dc14610329578063572e59e31461034a5780636a4f76911461037e5780636c49c32c1461039157600080fd5b80631efa880b116101d15780631efa880b1461029a57806334bd8931146102c75780633a2d38af146102e75780633d3d130d1461030957600080fd5b8063063df2d21461020e5780630d71bdc3146102435780631722d6e8146102635780631ef3755d1461028557600080fd5b3661020957005b600080fd5b34801561021a57600080fd5b5061022e610229366004614b53565b6106c9565b60405190151581526020015b60405180910390f35b34801561024f57600080fd5b5061022e61025e366004614b7f565b6107b8565b34801561026f57600080fd5b5061028361027e366004614c0c565b610923565b005b34801561029157600080fd5b50610283610e55565b3480156102a657600080fd5b506102ba6102b5366004614caa565b610ed9565b60405161023a9190614cce565b3480156102d357600080fd5b506102836102e2366004614d61565b6112d4565b3480156102f357600080fd5b506102fc6113ba565b60405161023a9190614d7a565b34801561031557600080fd5b50610283610324366004614dbe565b611437565b61033c610337366004614e1e565b611574565b60405190815260200161023a565b34801561035657600080fd5b5061033c7f000000000000000000000000000000000000000000000000000000000000000081565b61028361038c366004614e80565b6116ad565b34801561039d57600080fd5b5061033c6103ac366004614eeb565b6117da565b3480156103bd57600080fd5b506102836103cc366004614f08565b611976565b3480156103dd57600080fd5b506102836103ec366004614f25565b611a0a565b3480156103fd57600080fd5b5061033c7f000000000000000000000000000000000000000000000000000000000000000081565b34801561043157600080fd5b50610283610440366004614f5e565b611b35565b34801561045157600080fd5b5061033c611c55565b34801561046657600080fd5b50610283611cb7565b34801561047b57600080fd5b5061033c7f000000000000000000000000000000000000000000000000000000000000000081565b3480156104af57600080fd5b5061033c611d71565b3480156104c457600080fd5b506104ec7f000000000000000000000000000000000000000000000000000000000000000081565b6040516001600160a01b03909116815260200161023a565b34801561051057600080fd5b506104ec7f000000000000000000000000000000000000000000000000000000000000000081565b34801561054457600080fd5b50610283610553366004614d61565b611dd3565b34801561056457600080fd5b5061033c610573366004614fba565b611e65565b34801561058457600080fd5b50610283610593366004614b53565b611fb8565b3480156105a457600080fd5b506102836105b3366004614d61565b61213d565b3480156105c457600080fd5b5061033c6105d336600461500d565b6121cf565b3480156105e457600080fd5b5061060c7f000000000000000000000000000000000000000000000000000000000000000081565b60405161ffff909116815260200161023a565b34801561062b57600080fd5b506104ec61063a366004614caa565b61239a565b34801561064b57600080fd5b5061033c60015481565b34801561066157600080fd5b5061033c610670366004615039565b612422565b34801561068157600080fd5b506104ec7f000000000000000000000000000000000000000000000000000000000000000081565b3480156106b557600080fd5b506000546104ec906001600160a01b031681565b600080546001600160a01b031633146107295760405162461bcd60e51b815260206004820152601860248201527f416363657373436f6e74726f6c6c65642f496e76616c6964000000000000000060448201526064015b60405180910390fd5b6001600160a01b0383166107a55760405162461bcd60e51b815260206004820152602160248201527f53696e676c65557365722f77697468647261774d47562f30785265636569766560448201527f72000000000000000000000000000000000000000000000000000000000000006064820152608401610720565b6107af83836124de565b90505b92915050565b600080546001600160a01b031633146108135760405162461bcd60e51b815260206004820152601860248201527f416363657373436f6e74726f6c6c65642f496e76616c696400000000000000006044820152606401610720565b6001600160a01b03831661088f5760405162461bcd60e51b815260206004820152602160248201527f53696e676c65557365722f72656465656d546f6b656e2f30785265636569766560448201527f72000000000000000000000000000000000000000000000000000000000000006064820152608401610720565b6040517fa9059cbb0000000000000000000000000000000000000000000000000000000081526001600160a01b0384811660048301526024820184905285169063a9059cbb906044016020604051808303816000875af11580156108f7573d6000803e3d6000fd5b505050506040513d601f19601f8201168201806040525081019061091b919061508a565b949350505050565b6000546001600160a01b03163314806109645750336001600160a01b037f000000000000000000000000000000000000000000000000000000000000000016145b6109b05760405162461bcd60e51b815260206004820152601860248201527f416363657373436f6e74726f6c6c65642f496e76616c696400000000000000006044820152606401610720565b8484116109ff5760405162461bcd60e51b815260206004820152601d60248201527f4d616e676f2f696e697469616c697a652f696e76616c6964536c6963650000006044820152606401610720565b61ffff7f00000000000000000000000000000000000000000000000000000000000000001681148015610a30575060015b8015610a6a57507f000000000000000000000000000000000000000000000000000000000000000061ffff16610a6684806150d6565b9050145b8015610aa757507f000000000000000000000000000000000000000000000000000000000000000061ffff16610aa360208501856150d6565b9050145b610b195760405162461bcd60e51b815260206004820152602360248201527f4d616e676f2f696e697469616c697a652f696e76616c696441727261794c656e60448201527f67746800000000000000000000000000000000000000000000000000000000006064820152608401610720565b610b4460017f000000000000000000000000000000000000000000000000000000000000000061516d565b61ffff168610610b965760405162461bcd60e51b815260206004820152601e60248201527f4d616e676f2f696e697469616c697a652f4e6f536c6f74466f7241736b7300006044820152606401610720565b845b84811015610e13576000610bab82612643565b9050878211610ce6576000610bc086806150d6565b84818110610bd057610bd06150a7565b90506020020135905060008111610c255760008311610bf0576000610c27565b6003610c05610c00600186615190565b612643565b81548110610c1557610c156150a7565b9060005260206000200154610c27565b805b9050610c4e826001878787818110610c4157610c416150a7565b9050602002013584612680565b600060028381548110610c6357610c636150a7565b90600052602060002001541115610ce057610cde7f00000000000000000000000000000000000000000000000000000000000000007f000000000000000000000000000000000000000000000000000000000000000060028581548110610ccc57610ccc6150a7565b90600052602060002001546000611e65565b505b50610e00565b6000610cf560208701876150d6565b84818110610d0557610d056150a7565b90506020020135905060008111610d555760008311610d25576000610d57565b6002610d35610c00600186615190565b81548110610d4557610d456150a7565b9060005260206000200154610d57565b805b9050610d7e826001878787818110610d7157610d716150a7565b90506020020135846128b8565b600060038381548110610d9357610d936150a7565b90600052602060002001541115610dfe57610dfc7f00000000000000000000000000000000000000000000000000000000000000007f000000000000000000000000000000000000000000000000000000000000000060038581548110610ccc57610ccc6150a7565b505b505b5080610e0b816151a7565b915050610b98565b60408051878152602081018790527f997896709b4e932ee42750e2e14ed1f7ab6c60bd911ff567aa2485cf0b20051b910160405180910390a150505050505050565b6000546001600160a01b03163314610eaf5760405162461bcd60e51b815260206004820152601860248201527f416363657373436f6e74726f6c6c65642f496e76616c696400000000000000006044820152606401610720565b600b80547fffffffffffffffffffffffffffffffffffffffffffffffffffffffffffffff00169055565b610ee1614af6565b7f000000000000000000000000000000000000000000000000000000000000000061ffff1667ffffffffffffffff811115610f1e57610f1e6151e0565b604051908082528060200260200182016040528015610f47578160200160208202803683370190505b5081527f000000000000000000000000000000000000000000000000000000000000000061ffff1667ffffffffffffffff811115610f8757610f876151e0565b604051908082528060200260200182016040528015610fb0578160200160208202803683370190505b50602082015260005b7f000000000000000000000000000000000000000000000000000000000000000061ffff168110156112ce5760006002610ff283612643565b81548110611002576110026150a7565b906000526020600020015490506000600361101c84612643565b8154811061102c5761102c6150a7565b60009182526020822001546040517f68c13d6b0000000000000000000000000000000000000000000000000000000081526001600160a01b037f0000000000000000000000000000000000000000000000000000000000000000811660048301527f00000000000000000000000000000000000000000000000000000000000000008116602483015260448201839052919350611142917f000000000000000000000000000000000000000000000000000000000000000016906368c13d6b906064015b602060405180830381865afa15801561110d573d6000803e3d6000fd5b505050506040513d601f19601f82011682018060405250810190611131919061520f565b6bffffffffffffffffffffffff1690565b118061114c575084155b61115757600061117e565b600361116284612643565b81548110611172576111726150a7565b90600052602060002001545b8451805185908110611192576111926150a7565b60209081029190910101526040517f68c13d6b0000000000000000000000000000000000000000000000000000000081526001600160a01b037f0000000000000000000000000000000000000000000000000000000000000000811660048301527f0000000000000000000000000000000000000000000000000000000000000000811660248301526044820184905260009161125a917f000000000000000000000000000000000000000000000000000000000000000016906368c13d6b906064016110f0565b1180611264575084155b61126f576000611296565b600261127a84612643565b8154811061128a5761128a6150a7565b90600052602060002001545b60208501518051859081106112ad576112ad6150a7565b602002602001018181525050505080806112c6906151a7565b915050610fb9565b50919050565b6000546001600160a01b03163314806113155750336001600160a01b037f000000000000000000000000000000000000000000000000000000000000000016145b6113615760405162461bcd60e51b815260206004820152601860248201527f416363657373436f6e74726f6c6c65642f496e76616c696400000000000000006044820152606401610720565b808162ffffff16146113b55760405162461bcd60e51b815260206004820152601860248201527f6d67764f666665722f6761737265712f6f766572666c6f7700000000000000006044820152606401610720565b600155565b6113c2614b1d565b6000546001600160a01b0316331461141c5760405162461bcd60e51b815260206004820152601860248201527f416363657373436f6e74726f6c6c65642f496e76616c696400000000000000006044820152606401610720565b50604080518082019091526004548152600554602082015290565b7f00000000000000000000000000000000000000000000000000000000000000006001600160a01b03811615806114765750336001600160a01b038216145b6114c25760405162461bcd60e51b815260206004820152601860248201527f416363657373436f6e74726f6c6c65642f496e76616c696400000000000000006044820152606401610720565b81602001357f6d67762f7472616465537563636573730000000000000000000000000000000014156114fd576114f783612ae5565b50505050565b604083018035906115119060208601614f08565b6001600160a01b03166115276020860186614f08565b6001600160a01b03167fd2c3f090769d843e1fc2e6ce65d60572e28f9163a5cfccbd6c1725c6a9263f2f856000013560405161156591815260200190565b60405180910390a460016114f7565b600080546001600160a01b031633146115cf5760405162461bcd60e51b815260206004820152601860248201527f416363657373436f6e74726f6c6c65642f496e76616c696400000000000000006044820152606401610720565b6040517f49f6d2dc0000000000000000000000000000000000000000000000000000000081526001600160a01b038981166004830152888116602483015260448201889052606482018790526084820186905260a4820185905260c482018490527f000000000000000000000000000000000000000000000000000000000000000016906349f6d2dc90349060e40160206040518083038185885af115801561167c573d6000803e3d6000fd5b50505050506040513d601f19601f820116820180604052508101906116a1919061520f565b98975050505050505050565b6000546001600160a01b031633146117075760405162461bcd60e51b815260206004820152601860248201527f416363657373436f6e74726f6c6c65642f496e76616c696400000000000000006044820152606401610720565b6040517f6a4f76910000000000000000000000000000000000000000000000000000000081526001600160a01b038981166004830152888116602483015260448201889052606482018790526084820186905260a4820185905260c4820184905260e482018390527f00000000000000000000000000000000000000000000000000000000000000001690636a4f7691903490610104016000604051808303818588803b1580156117b757600080fd5b505af11580156117cb573d6000803e3d6000fd5b50505050505050505050505050565b60007f00000000000000000000000000000000000000000000000000000000000000006001600160a01b038116158061181b5750336001600160a01b038216145b6118675760405162461bcd60e51b815260206004820152601860248201527f416363657373436f6e74726f6c6c65642f496e76616c696400000000000000006044820152606401610720565b600b5460ff16156118ba5760405162461bcd60e51b815260206004820152601660248201527f6d67764f666665722f61626f72742f72656e65676564000000000000000000006044820152606401610720565b60006118ca8460a0013585612d5d565b11156119185760405162461bcd60e51b815260206004820152601860248201527f6d67764f666665722f61626f72742f7075744661696c656400000000000000006044820152606401610720565b6000611928846080013585612e3a565b11156112ce5760405162461bcd60e51b815260206004820152601860248201527f6d67764f666665722f61626f72742f6765744661696c656400000000000000006044820152606401610720565b6000546001600160a01b031633146119d05760405162461bcd60e51b815260206004820152601860248201527f416363657373436f6e74726f6c6c65642f496e76616c696400000000000000006044820152606401610720565b600080547fffffffffffffffffffffffff0000000000000000000000000000000000000000166001600160a01b0392909216919091179055565b6000546001600160a01b03163314611a645760405162461bcd60e51b815260206004820152601860248201527f416363657373436f6e74726f6c6c65642f496e76616c696400000000000000006044820152606401610720565b6001600160a01b038116611aba5760405162461bcd60e51b815260206004820152601d60248201527f4d616e676f2f7365745f74726561737572792f307854726561737572790000006044820152606401610720565b8115611afd57600b80546001600160a01b038316610100027fffffffffffffffffffffff0000000000000000000000000000000000000000ff9091161790555050565b600c80547fffffffffffffffffffffffff0000000000000000000000000000000000000000166001600160a01b0383161790555b5050565b6000546001600160a01b0316331480611b765750336001600160a01b037f000000000000000000000000000000000000000000000000000000000000000016145b611bc25760405162461bcd60e51b815260206004820152601860248201527f416363657373436f6e74726f6c6c65642f496e76616c696400000000000000006044820152606401610720565b60008412611bd05783611bd9565b611bd984615228565b8114611c275760405162461bcd60e51b815260206004820181905260248201527f4d616e676f2f7365745f73686966742f6e6f74456e6f756768416d6f756e74736044820152606401610720565b6000841215611c4957611c44611c3c85615228565b848484612f0e565b6114f7565b6114f7848484846131db565b600080546001600160a01b03163314611cb05760405162461bcd60e51b815260206004820152601860248201527f416363657373436f6e74726f6c6c65642f496e76616c696400000000000000006044820152606401610720565b5060085490565b6000546001600160a01b0316331480611cf85750336001600160a01b037f000000000000000000000000000000000000000000000000000000000000000016145b611d445760405162461bcd60e51b815260206004820152601860248201527f416363657373436f6e74726f6c6c65642f496e76616c696400000000000000006044820152606401610720565b600b80547fffffffffffffffffffffffffffffffffffffffffffffffffffffffffffffff00166001179055565b600080546001600160a01b03163314611dcc5760405162461bcd60e51b815260206004820152601860248201527f416363657373436f6e74726f6c6c65642f496e76616c696400000000000000006044820152606401610720565b5060095490565b6000546001600160a01b0316331480611e145750336001600160a01b037f000000000000000000000000000000000000000000000000000000000000000016145b611e605760405162461bcd60e51b815260206004820152601860248201527f416363657373436f6e74726f6c6c65642f496e76616c696400000000000000006044820152606401610720565b600a55565b600080546001600160a01b0316331480611ea75750336001600160a01b037f000000000000000000000000000000000000000000000000000000000000000016145b611ef35760405162461bcd60e51b815260206004820152601860248201527f416363657373436f6e74726f6c6c65642f496e76616c696400000000000000006044820152606401610720565b6040517fad97db1b0000000000000000000000000000000000000000000000000000000081526001600160a01b03868116600483015285811660248301526044820185905283151560648301527f0000000000000000000000000000000000000000000000000000000000000000169063ad97db1b906084016020604051808303816000875af1158015611f8b573d6000803e3d6000fd5b505050506040513d601f19601f82011682018060405250810190611faf919061520f565b95945050505050565b6000546001600160a01b0316331480611ff95750336001600160a01b037f000000000000000000000000000000000000000000000000000000000000000016145b6120455760405162461bcd60e51b815260206004820152601860248201527f416363657373436f6e74726f6c6c65642f496e76616c696400000000000000006044820152606401610720565b6040517f095ea7b30000000000000000000000000000000000000000000000000000000081526001600160a01b037f0000000000000000000000000000000000000000000000000000000000000000811660048301526024820183905283169063095ea7b3906044016020604051808303816000875af11580156120cd573d6000803e3d6000fd5b505050506040513d601f19601f820116820180604052508101906120f1919061508a565b611b315760405162461bcd60e51b815260206004820152601560248201527f6d67764f666665722f617070726f76652f4661696c00000000000000000000006044820152606401610720565b6000546001600160a01b031633148061217e5750336001600160a01b037f000000000000000000000000000000000000000000000000000000000000000016145b6121ca5760405162461bcd60e51b815260206004820152601860248201527f416363657373436f6e74726f6c6c65642f496e76616c696400000000000000006044820152606401610720565b600955565b600080546001600160a01b0316331461222a5760405162461bcd60e51b815260206004820152601860248201527f416363657373436f6e74726f6c6c65642f496e76616c696400000000000000006044820152606401610720565b825b828110156123925784156122dd5760006002828154811061224f5761224f6150a7565b9060005260206000200154116122665760006122d0565b6122d07f00000000000000000000000000000000000000000000000000000000000000007f0000000000000000000000000000000000000000000000000000000000000000600284815481106122be576122be6150a7565b90600052602060002001546001611e65565b6122da9083615261565b91505b8415806122ea5750600185115b1561238057600060038281548110612304576123046150a7565b90600052602060002001541161231b576000612373565b6123737f00000000000000000000000000000000000000000000000000000000000000007f0000000000000000000000000000000000000000000000000000000000000000600384815481106122be576122be6150a7565b61237d9083615261565b91505b8061238a816151a7565b91505061222c565b509392505050565b600080546001600160a01b031633146123f55760405162461bcd60e51b815260206004820152601860248201527f416363657373436f6e74726f6c6c65642f496e76616c696400000000000000006044820152606401610720565b8161240b57600c546001600160a01b03166107b2565b600b5461010090046001600160a01b031692915050565b6040517f70a082310000000000000000000000000000000000000000000000000000000081523060048201526000906124d4906001600160a01b037f000000000000000000000000000000000000000000000000000000000000000016906370a0823190602401602060405180830381865afa1580156124a6573d6000803e3d6000fd5b505050506040513d601f19601f820116820180604052508101906124ca919061520f565b878787878761340d565b9695505050505050565b6040517f2e1a7d4d000000000000000000000000000000000000000000000000000000008152600481018290526000907f00000000000000000000000000000000000000000000000000000000000000006001600160a01b031690632e1a7d4d906024016020604051808303816000875af1158015612561573d6000803e3d6000fd5b505050506040513d601f19601f82011682018060405250810190612585919061508a565b6125d15760405162461bcd60e51b815260206004820152601e60248201527f6d67764f666665722f77697468647261772f7472616e736665724661696c00006044820152606401610720565b6001600160a01b038316301461263a576040516001600160a01b038416908390600081818185875af1925050503d806000811461262a576040519150601f19603f3d011682016040523d82523d6000602084013e61262f565b606091505b5050809150506107b2565b50600192915050565b60006107b2600854836126569190615279565b7f000000000000000000000000000000000000000000000000000000000000000061ffff1661365b565b60007f00000000000000000000000000000000000000000000000000000000000000006001600160a01b03166368c13d6b7f00000000000000000000000000000000000000000000000000000000000000007f000000000000000000000000000000000000000000000000000000000000000060038981548110612706576127066150a7565b6000918252602090912001546040517fffffffff0000000000000000000000000000000000000000000000000000000060e086901b1681526001600160a01b0393841660048201529290911660248301526044820152606401602060405180830381865afa15801561277c573d6000803e3d6000fd5b505050506040513d601f19601f820116820180604052508101906127a0919061520f565b905060006127ad86613682565b90506000856127e0576005546127d16bffffffffffffffffffffffff851687615261565b6127db9190615261565b6127e2565b845b905060006127f08383613695565b905060006bffffffffffffffffffffffff851661285d57851561281457508461287e565b831561284c57600361282a610c00600187615190565b8154811061283a5761283a6150a7565b9060005260206000200154905061287e565b6128568560e01c90565b905061287e565b60038981548110612870576128706150a7565b906000526020600020015490505b6128ad897f000000000000000000000000000000000000000000000000000000000000000084868c15866136e2565b505050505050505050565b60007f00000000000000000000000000000000000000000000000000000000000000006001600160a01b03166368c13d6b7f00000000000000000000000000000000000000000000000000000000000000007f00000000000000000000000000000000000000000000000000000000000000006002898154811061293e5761293e6150a7565b6000918252602090912001546040517fffffffff0000000000000000000000000000000000000000000000000000000060e086901b1681526001600160a01b0393841660048201529290911660248301526044820152606401602060405180830381865afa1580156129b4573d6000803e3d6000fd5b505050506040513d601f19601f820116820180604052508101906129d8919061520f565b905060006129e586613682565b9050600085612a1857600454612a096bffffffffffffffffffffffff851687615261565b612a139190615261565b612a1a565b845b90506000612a2883836137b3565b905060006bffffffffffffffffffffffff8516612a95578515612a4c575084612ab6565b8315612a84576002612a62610c00600187615190565b81548110612a7257612a726150a7565b90600052602060002001549050612ab6565b612a8e8560e01c90565b9050612ab6565b60028981548110612aa857612aa86150a7565b906000526020600020015490505b6128ad897f000000000000000000000000000000000000000000000000000000000000000084868c15866136e2565b60006001600160a01b037f000000000000000000000000000000000000000000000000000000000000000016612b1e6020840184614f08565b6001600160a01b03161415612c3b57612b36826137f8565b612b4b57612b4382613940565b600455612b51565b60006004555b604080830135600090815260076020522054801561263a576000612b7482613682565b90508015612ba557612b9b612b8d610c00600184615190565b60008660a001356000612680565b5060019392505050565b60408401803590612bb99060208701614f08565b6001600160a01b0316612bcf6020870187614f08565b6001600160a01b03167fd2c3f090769d843e1fc2e6ce65d60572e28f9163a5cfccbd6c1725c6a9263f2f604051612c29907f4d616e676f2f706f7374686f6f6b2f4275794f75744f6652616e676500000000815260200190565b60405180910390a45060009392505050565b612c44826137f8565b612c5957612c5182613940565b600555612c5f565b60006005555b604080830135600090815260066020522054801561263a576000612c8282613682565b9050612caf60017f000000000000000000000000000000000000000000000000000000000000000061516d565b61ffff16811015612cd957612b9b612ccb610c00836001615261565b60008660a0013560006128b8565b60408401803590612ced9060208701614f08565b6001600160a01b0316612d036020870187614f08565b6001600160a01b03167fd2c3f090769d843e1fc2e6ce65d60572e28f9163a5cfccbd6c1725c6a9263f2f604051612c29907f4d616e676f2f706f7374686f6f6b2f53656c6c4f75744f6652616e6765000000815260200190565b60006001600160a01b037f000000000000000000000000000000000000000000000000000000000000000016612d996040840160208501614f08565b6001600160a01b0316148015612dbf5750600b5461010090046001600160a01b03163014155b15612df557612dee7f0000000000000000000000000000000000000000000000000000000000000000846139aa565b90506107b2565b600c546001600160a01b03163014612e3157612dee7f0000000000000000000000000000000000000000000000000000000000000000846139aa565b50600092915050565b60006001600160a01b037f000000000000000000000000000000000000000000000000000000000000000016612e736020840184614f08565b6001600160a01b0316148015612e995750600b5461010090046001600160a01b03163014155b15612ec857612dee7f000000000000000000000000000000000000000000000000000000000000000084613b1d565b600c546001600160a01b03163014612f0457612dee7f000000000000000000000000000000000000000000000000000000000000000084613b1d565b6107af8383613c1b565b7f000000000000000000000000000000000000000000000000000000000000000061ffff168410612fa75760405162461bcd60e51b815260206004820152602160248201527f4d616e676f2f73686966742f4e656761746976655368696674546f6f4c61726760448201527f65000000000000000000000000000000000000000000000000000000000000006064820152608401610720565b6000612fe0612fd760017f000000000000000000000000000000000000000000000000000000000000000061516d565b61ffff16612643565b90508460086000828254612ff491906152ed565b90915550600090505b858110156131d35760028281548110613018576130186150a7565b9060005260206000200154600014613084576130827f00000000000000000000000000000000000000000000000000000000000000007f000000000000000000000000000000000000000000000000000000000000000060028581548110610ccc57610ccc6150a7565b505b600061308f83613682565b905060008087156130de578686858181106130ac576130ac6150a7565b9050602002013590506130d7838888878181106130cb576130cb6150a7565b905060200201356137b3565b915061311e565b613100838888878181106130f4576130f46150a7565b90506020020135613695565b9050868685818110613114576131146150a7565b9050602002013591505b6131b3857f00000000000000000000000000000000000000000000000000000000000000008385600061317260017f000000000000000000000000000000000000000000000000000000000000000061516d565b61ffff1689106131835760006136e2565b6003613193610c008b6001615261565b815481106131a3576131a36150a7565b90600052602060002001546136e2565b836131bd816151a7565b9450506131c985613cd3565b9450505050612ffd565b505050505050565b7f000000000000000000000000000000000000000000000000000000000000000061ffff1684106132745760405162461bcd60e51b815260206004820152602160248201527f4d616e676f2f73686966742f706f7369746976655368696674546f6f4c61726760448201527f65000000000000000000000000000000000000000000000000000000000000006064820152608401610720565b60006132806000612643565b905084600860008282546132949190615279565b90915550600090505b858110156131d357600382815481106132b8576132b86150a7565b9060005260206000200154600014613324576133227f00000000000000000000000000000000000000000000000000000000000000007f000000000000000000000000000000000000000000000000000000000000000060038581548110610ccc57610ccc6150a7565b505b600061332f83613682565b905060008087156133725786868581811061334c5761334c6150a7565b90506020020135915061336b838888878181106130cb576130cb6150a7565b90506133a6565b868685818110613384576133846150a7565b9050602002013590506133a3838888878181106130f4576130f46150a7565b91505b6133ed857f0000000000000000000000000000000000000000000000000000000000000000838560008089116133dd5760006136e2565b6002613193610c0060018c615190565b836133f7816151a7565b94505061340385613d1b565b945050505061329d565b6040517fcbf75c9a0000000000000000000000000000000000000000000000000000000081526001600160a01b0386811660048301528581166024830152600091829182917f00000000000000000000000000000000000000000000000000000000000000009091169063cbf75c9a906044016040805180830381865afa15801561349c573d6000803e3d6000fd5b505050506040513d601f19601f820116820180604052508101906134c09190615361565b6040517f5722647b0000000000000000000000000000000000000000000000000000000081526001600160a01b038b811660048301528a81166024830152604482018890529294509092506000917f00000000000000000000000000000000000000000000000000000000000000001690635722647b90606401602060405180830381865afa158015613557573d6000803e3d6000fd5b505050506040513d601f19601f8201168201806040525081019061357b919061520f565b9050600086604085901c61ffff16111561359e575061ffff604084901c166135a1565b50855b62ffffff8811156135b25760015497505b6000816135c862ffffff606087901c168b615261565b6135d29190615385565b6135e090633b9aca00615385565b9050600061ffff602085901c1661360762ffffff603087901c811690604888901c16615261565b6136119190615385565b61361f90633b9aca00615385565b9050600061362d8e83615261565b905082811015613646576136418184615190565b613649565b60005b9e9d5050505050505050505050505050565b600080831261366e57612dee82846153f1565b6136788284615405565b612dee9083615279565b60006107b26008548361265691906152ed565b60006136a083613d57565b6136d86bffffffffffffffffffffffff7f00000000000000000000000000000000000000000000000000000000000000001684615385565b6107af9190615419565b7f00000000000000000000000000000000000000000000000000000000000000006001600160a01b0316856001600160a01b0316141561376657600061372a87868685613d6f565b90508015613754578261374a57806004546137459190615261565b61374c565b805b600455613760565b82156137605760006004555b506131d3565b600061377487868685614326565b9050801561379e5782613794578060055461378f9190615261565b613796565b805b6005556137aa565b82156137aa5760006005555b50505050505050565b60007f00000000000000000000000000000000000000000000000000000000000000006bffffffffffffffffffffffff16826137ee85613d57565b6136d89190615385565b60008061380483613940565b9050806138145750600192915050565b600061381f8461484a565b90506001600160a01b037f000000000000000000000000000000000000000000000000000000000000000016636a4f769161385d6020870187614f08565b61386d6040880160208901614f08565b848660c08a013560481c62ffffff1660c08b013560201c61ffff1660608c013560c01c63ffffffff16604080517fffffffff0000000000000000000000000000000000000000000000000000000060e08b901b1681526001600160a01b03988916600482015297909616602488015260448701949094526064860192909252608485015260a484015260c483015287013560e482015261010401600060405180830381600087803b15801561392157600080fd5b505af1925050508015613932575060015b612b9b575060009392505050565b60006001600160a01b037f0000000000000000000000000000000000000000000000000000000000000000166139796020840184614f08565b6001600160a01b0316141561399e5760045461399483614914565b6107b29190615261565b60055461399483614914565b60008060007f00000000000000000000000000000000000000000000000000000000000000006001600160a01b0316856001600160a01b03161415613a23575050600b547f00000000000000000000000000000000000000000000000000000000000000009061010090046001600160a01b0316613a54565b5050600c547f0000000000000000000000000000000000000000000000000000000000000000906001600160a01b03165b6040517fa9059cbb0000000000000000000000000000000000000000000000000000000081526001600160a01b0382811660048301526024820186905283169063a9059cbb906044015b6020604051808303816000875af1925050508015613af7575060408051601f3d9081017fffffffffffffffffffffffffffffffffffffffffffffffffffffffffffffffe0168201909252613af49181019061508a565b60015b613b0057613b14565b8015613b1257600093505050506107b2565b505b50919392505050565b60008060007f00000000000000000000000000000000000000000000000000000000000000006001600160a01b0316856001600160a01b03161415613b96575050600b547f00000000000000000000000000000000000000000000000000000000000000009061010090046001600160a01b0316613bc7565b5050600c547f0000000000000000000000000000000000000000000000000000000000000000906001600160a01b03165b6040517f23b872dd0000000000000000000000000000000000000000000000000000000081526001600160a01b038281166004830152306024830152604482018690528316906323b872dd90606401613a9e565b600080613c2b6020840184614f08565b6040517f70a082310000000000000000000000000000000000000000000000000000000081523060048201526001600160a01b0391909116906370a0823190602401602060405180830381865afa158015613c8a573d6000803e3d6000fd5b505050506040513d601f19601f82011682018060405250810190613cae919061520f565b9050838110613cc15760009150506107b2565b613ccb8185615190565b9150506107b2565b6000808211613d1057613d0760017f000000000000000000000000000000000000000000000000000000000000000061516d565b61ffff166107b2565b6107b2600183615190565b600061ffff7f000000000000000000000000000000000000000000000000000000000000000016613d4d836001615261565b6107b291906153f1565b6000613d61614936565b826009546139949190615385565b6000600a54613d7d86613682565b11613daa57613daa600060028781548110613d9a57613d9a6150a7565b90600052602060002001546149d8565b60028581548110613dbd57613dbd6150a7565b906000526020600020015460001415614017576001546040517f49f6d2dc0000000000000000000000000000000000000000000000000000000081526001600160a01b037f0000000000000000000000000000000000000000000000000000000000000000811660048301527f00000000000000000000000000000000000000000000000000000000000000008116602483015260448201879052606482018690526084820192909252600060a482015260c481018490527f0000000000000000000000000000000000000000000000000000000000000000909116906349f6d2dc9060e4016020604051808303816000875af1925050508015613efc575060408051601f3d9081017fffffffffffffffffffffffffffffffffffffffffffffffffffffffffffffffe0168201909252613ef99181019061520f565b60015b613fb65760007f00000000000000000000000000000000000000000000000000000000000000006001600160a01b03167f00000000000000000000000000000000000000000000000000000000000000006001600160a01b03167fd2c3f090769d843e1fc2e6ce65d60572e28f9163a5cfccbd6c1725c6a9263f2f604051613fa7907f4d616e676f2f777269746541736b2f6e65774f666665724661696c0000000000815260200190565b60405180910390a4508161091b565b8060028781548110613fca57613fca6150a7565b9060005260206000200181905550856007600060028981548110613ff057613ff06150a7565b9060005260206000200154815260200190815260200160002081905550600091505061091b565b7f00000000000000000000000000000000000000000000000000000000000000006001600160a01b0316636a4f76917f00000000000000000000000000000000000000000000000000000000000000007f0000000000000000000000000000000000000000000000000000000000000000878760015460008960028e815481106140a3576140a36150a7565b6000918252602090912001546040517fffffffff0000000000000000000000000000000000000000000000000000000060e08b901b1681526001600160a01b03988916600482015297909616602488015260448701949094526064860192909252608485015260a484015260c483015260e482015261010401600060405180830381600087803b15801561413657600080fd5b505af1925050508015614147575060015b61431e576002858154811061415e5761415e6150a7565b90600052602060002001547f00000000000000000000000000000000000000000000000000000000000000006001600160a01b03167f00000000000000000000000000000000000000000000000000000000000000006001600160a01b03167fd2c3f090769d843e1fc2e6ce65d60572e28f9163a5cfccbd6c1725c6a9263f2f60405161420e907f4d616e676f2f777269746541736b2f7570646174654f666665724661696c0000815260200190565b60405180910390a460006142fd7f00000000000000000000000000000000000000000000000000000000000000006001600160a01b03166368c13d6b7f00000000000000000000000000000000000000000000000000000000000000007f000000000000000000000000000000000000000000000000000000000000000060028b8154811061429f5761429f6150a7565b6000918252602090912001546040517fffffffff0000000000000000000000000000000000000000000000000000000060e086901b1681526001600160a01b03938416600482015292909116602483015260448201526064016110f0565b905080841161430c5783614316565b6143168185615190565b91505061091b565b50600061091b565b600a5460009061435760017f000000000000000000000000000000000000000000000000000000000000000061516d565b61ffff166143659190615190565b61436e86613682565b1061438b5761438b600160038781548110613d9a57613d9a6150a7565b6003858154811061439e5761439e6150a7565b9060005260206000200154600014156145c2576001546040517f49f6d2dc0000000000000000000000000000000000000000000000000000000081526001600160a01b037f0000000000000000000000000000000000000000000000000000000000000000811660048301527f00000000000000000000000000000000000000000000000000000000000000008116602483015260448201879052606482018690526084820192909252600060a482015260c481018490527f0000000000000000000000000000000000000000000000000000000000000000909116906349f6d2dc9060e4016020604051808303816000875af19250505080156144dd575060408051601f3d9081017fffffffffffffffffffffffffffffffffffffffffffffffffffffffffffffffe01682019092526144da9181019061520f565b60015b6145885760007f00000000000000000000000000000000000000000000000000000000000000006001600160a01b03167f00000000000000000000000000000000000000000000000000000000000000006001600160a01b03167fd2c3f090769d843e1fc2e6ce65d60572e28f9163a5cfccbd6c1725c6a9263f2f604051613fa7907f4d616e676f2f77726974654269642f6e65774f666665724661696c0000000000815260200190565b806003878154811061459c5761459c6150a7565b9060005260206000200181905550856006600060038981548110613ff057613ff06150a7565b7f00000000000000000000000000000000000000000000000000000000000000006001600160a01b0316636a4f76917f00000000000000000000000000000000000000000000000000000000000000007f0000000000000000000000000000000000000000000000000000000000000000878760015460008960038e8154811061464e5761464e6150a7565b6000918252602090912001546040517fffffffff0000000000000000000000000000000000000000000000000000000060e08b901b1681526001600160a01b03988916600482015297909616602488015260448701949094526064860192909252608485015260a484015260c483015260e482015261010401600060405180830381600087803b1580156146e157600080fd5b505af19250505080156146f2575060015b61431e5760038581548110614709576147096150a7565b90600052602060002001547f00000000000000000000000000000000000000000000000000000000000000006001600160a01b03167f00000000000000000000000000000000000000000000000000000000000000006001600160a01b03167fd2c3f090769d843e1fc2e6ce65d60572e28f9163a5cfccbd6c1725c6a9263f2f6040516147b9907f4d616e676f2f77726974654269642f7570646174654f666665724661696c0000815260200190565b60405180910390a460006142fd7f00000000000000000000000000000000000000000000000000000000000000006001600160a01b03166368c13d6b7f00000000000000000000000000000000000000000000000000000000000000007f000000000000000000000000000000000000000000000000000000000000000060038b8154811061429f5761429f6150a7565b60006001600160a01b037f0000000000000000000000000000000000000000000000000000000000000000166148836020840184614f08565b6001600160a01b031614156148d3576040808301356000908152600760205290812054906148b084613940565b9050806148c1575060009392505050565b61091b6148cd83613682565b826137b3565b6040808301356000908152600660205290812054906148f184613940565b905080614902575060009392505050565b61091b61490e83613682565b82613695565b60006107b2608083013560608401356bffffffffffffffffffffffff16615190565b600080600954600854614949919061542d565b614981906bffffffffffffffffffffffff7f000000000000000000000000000000000000000000000000000000000000000016615279565b9050600081136149d35760405162461bcd60e51b815260206004820152601e60248201527f4d616e676f2f71756f74655f6d696e2f5368696674556e646572666c6f7700006044820152606401610720565b919050565b8115614a6e57604080516001600160a01b037f0000000000000000000000000000000000000000000000000000000000000000811682527f00000000000000000000000000000000000000000000000000000000000000001660208201529081018290527fa277cbc4d6eebe10b75c089f332890611f79a84754eeaaf06ed641c899dbafb1906060015b60405180910390a15050565b604080516001600160a01b037f0000000000000000000000000000000000000000000000000000000000000000811682527f00000000000000000000000000000000000000000000000000000000000000001660208201529081018290527f87c70da6914e41de8c96757fe2e40f6b1e13781d812e768da91b926699aba2ec90606001614a62565b60405180604001604052806002905b6060815260200190600190039081614b055790505090565b60405180604001604052806002906020820280368337509192915050565b6001600160a01b0381168114614b5057600080fd5b50565b60008060408385031215614b6657600080fd5b8235614b7181614b3b565b946020939093013593505050565b600080600060608486031215614b9457600080fd5b8335614b9f81614b3b565b92506020840135614baf81614b3b565b929592945050506040919091013590565b60008083601f840112614bd257600080fd5b50813567ffffffffffffffff811115614bea57600080fd5b6020830191508360208260051b8501011115614c0557600080fd5b9250929050565b60008060008060008060a08789031215614c2557600080fd5b863595506020870135945060408701359350606087013567ffffffffffffffff80821115614c5257600080fd5b818901915089604083011115614c6757600080fd5b90935060808801359080821115614c7d57600080fd5b50614c8a89828a01614bc0565b979a9699509497509295939492505050565b8015158114614b5057600080fd5b600060208284031215614cbc57600080fd5b8135614cc781614c9c565b9392505050565b6020808252600090606083018382018584805b6002811015614d54578785037fffffffffffffffffffffffffffffffffffffffffffffffffffffffffffffffe0018452825180518087529087019087870190845b81811015614d3e57835183529289019291890191600101614d22565b5090965050509285019291850191600101614ce1565b5092979650505050505050565b600060208284031215614d7357600080fd5b5035919050565b60408101818360005b6002811015614da2578151835260209283019290910190600101614d83565b50505092915050565b600061012082840312156112ce57600080fd5b600080828403610160811215614dd357600080fd5b614ddd8585614dab565b925060407ffffffffffffffffffffffffffffffffffffffffffffffffffffffffffffffee082011215614e0f57600080fd5b50610120830190509250929050565b600080600080600080600060e0888a031215614e3957600080fd5b8735614e4481614b3b565b96506020880135614e5481614b3b565b96999698505050506040850135946060810135946080820135945060a0820135935060c0909101359150565b600080600080600080600080610100898b031215614e9d57600080fd5b8835614ea881614b3b565b97506020890135614eb881614b3b565b979a9799505050506040860135956060810135956080820135955060a0820135945060c0820135935060e0909101359150565b60006101208284031215614efe57600080fd5b6107af8383614dab565b600060208284031215614f1a57600080fd5b8135614cc781614b3b565b60008060408385031215614f3857600080fd5b8235614f4381614c9c565b91506020830135614f5381614b3b565b809150509250929050565b60008060008060608587031215614f7457600080fd5b843593506020850135614f8681614c9c565b9250604085013567ffffffffffffffff811115614fa257600080fd5b614fae87828801614bc0565b95989497509550505050565b60008060008060808587031215614fd057600080fd5b8435614fdb81614b3b565b93506020850135614feb81614b3b565b925060408501359150606085013561500281614c9c565b939692955090935050565b60008060006060848603121561502257600080fd5b505081359360208301359350604090920135919050565b600080600080600060a0868803121561505157600080fd5b853561505c81614b3b565b9450602086013561506c81614b3b565b94979496505050506040830135926060810135926080909101359150565b60006020828403121561509c57600080fd5b8151614cc781614c9c565b7f4e487b7100000000000000000000000000000000000000000000000000000000600052603260045260246000fd5b60008083357fffffffffffffffffffffffffffffffffffffffffffffffffffffffffffffffe184360301811261510b57600080fd5b83018035915067ffffffffffffffff82111561512657600080fd5b6020019150600581901b3603821315614c0557600080fd5b7f4e487b7100000000000000000000000000000000000000000000000000000000600052601160045260246000fd5b600061ffff838116908316818110156151885761518861513e565b039392505050565b6000828210156151a2576151a261513e565b500390565b60007fffffffffffffffffffffffffffffffffffffffffffffffffffffffffffffffff8214156151d9576151d961513e565b5060010190565b7f4e487b7100000000000000000000000000000000000000000000000000000000600052604160045260246000fd5b60006020828403121561522157600080fd5b5051919050565b60007f800000000000000000000000000000000000000000000000000000000000000082141561525a5761525a61513e565b5060000390565b600082198211156152745761527461513e565b500190565b6000808212827f7fffffffffffffffffffffffffffffffffffffffffffffffffffffffffffffff038413811516156152b3576152b361513e565b827f80000000000000000000000000000000000000000000000000000000000000000384128116156152e7576152e761513e565b50500190565b6000808312837f8000000000000000000000000000000000000000000000000000000000000000018312811516156153275761532761513e565b837f7fffffffffffffffffffffffffffffffffffffffffffffffffffffffffffffff01831381161561535b5761535b61513e565b50500390565b6000806040838503121561537457600080fd5b505080516020909101519092909150565b6000817fffffffffffffffffffffffffffffffffffffffffffffffffffffffffffffffff04831182151516156153bd576153bd61513e565b500290565b7f4e487b7100000000000000000000000000000000000000000000000000000000600052601260045260246000fd5b600082615400576154006153c2565b500690565b600082615414576154146153c2565b500790565b600082615428576154286153c2565b500490565b60007f7fffffffffffffffffffffffffffffffffffffffffffffffffffffffffffffff60008413600084138583048511828216161561546e5761546e61513e565b7f800000000000000000000000000000000000000000000000000000000000000060008712868205881281841616156154a9576154a961513e565b600087129250878205871284841616156154c5576154c561513e565b878505871281841616156154db576154db61513e565b50505092909302939250505056fea264697066735822122096e816519b3acdfb081e5571b6e3c21d75b3a2d60ef1e57ee75e14d437f0030064736f6c634300080a0033",
  "devdoc": {
    "kind": "dev",
    "methods": {},
    "version": 1
  },
  "userdoc": {
    "events": {
      "BidAtMaxPosition(address,address,uint256)": {
        "notice": "Strat specific events "
      },
      "LogIncident(address,address,uint256,bytes32)": {
        "notice": "Events "
      }
    },
    "kind": "user",
    "methods": {
      "NSLOTS()": {
        "notice": "Immutable fields "
      },
      "approveMangrove(address,uint256)": {
        "notice": "`this` contract needs to approve Mangrove to let it perform outbound token transfer at the end of the `makerExecute` function NB if anyone can call this function someone could reset it to 0 for griefing"
      },
      "get_delta()": {
        "notice": "Setters and getters "
      },
      "redeemToken(address,address,uint256)": {
        "notice": "transfers token stored in `this` contract to some recipient address"
      },
      "set_shift(int256,bool,uint256[])": {
        "notice": "New positions 0<= i < s are initialized with amount[i] in base tokens if `withBase`. In quote tokens otherwise"
      },
      "set_treasury(bool,address)": {
        "notice": "Sets the account from which base (resp. quote) tokens need to be fetched or put during trade execution"
      },
      "withdrawFromMangrove(address,uint256)": {
        "notice": "withdraws ETH from the bounty vault of the Mangrove. ETH are sent to `receiver`"
      }
    },
    "notice": "In case of a partial fill of an offer at position i, the offer residual is reposted (see `Persistent` strat class)",
    "version": 1
  },
  "storageLayout": {
    "storage": [
      {
        "astId": 23027,
        "contract": "contracts/Strategies/OfferLogics/SingleUser/Deployable/MarketMaking/Mango.sol:Mango",
        "label": "admin",
        "offset": 0,
        "slot": "0",
        "type": "t_address"
      },
      {
        "astId": 11622,
        "contract": "contracts/Strategies/OfferLogics/SingleUser/Deployable/MarketMaking/Mango.sol:Mango",
        "label": "OFR_GASREQ",
        "offset": 0,
        "slot": "1",
        "type": "t_uint256"
      },
      {
        "astId": 16295,
        "contract": "contracts/Strategies/OfferLogics/SingleUser/Deployable/MarketMaking/Mango.sol:Mango",
        "label": "ASKS",
        "offset": 0,
        "slot": "2",
        "type": "t_array(t_uint256)dyn_storage"
      },
      {
        "astId": 16298,
        "contract": "contracts/Strategies/OfferLogics/SingleUser/Deployable/MarketMaking/Mango.sol:Mango",
        "label": "BIDS",
        "offset": 0,
        "slot": "3",
        "type": "t_array(t_uint256)dyn_storage"
      },
      {
        "astId": 16300,
        "contract": "contracts/Strategies/OfferLogics/SingleUser/Deployable/MarketMaking/Mango.sol:Mango",
        "label": "PENDING_BASE",
        "offset": 0,
        "slot": "4",
        "type": "t_uint256"
      },
      {
        "astId": 16302,
        "contract": "contracts/Strategies/OfferLogics/SingleUser/Deployable/MarketMaking/Mango.sol:Mango",
        "label": "PENDING_QUOTE",
        "offset": 0,
        "slot": "5",
        "type": "t_uint256"
      },
      {
        "astId": 16306,
        "contract": "contracts/Strategies/OfferLogics/SingleUser/Deployable/MarketMaking/Mango.sol:Mango",
        "label": "index_of_bid",
        "offset": 0,
        "slot": "6",
        "type": "t_mapping(t_uint256,t_uint256)"
      },
      {
        "astId": 16310,
        "contract": "contracts/Strategies/OfferLogics/SingleUser/Deployable/MarketMaking/Mango.sol:Mango",
        "label": "index_of_ask",
        "offset": 0,
        "slot": "7",
        "type": "t_mapping(t_uint256,t_uint256)"
      },
      {
        "astId": 16312,
        "contract": "contracts/Strategies/OfferLogics/SingleUser/Deployable/MarketMaking/Mango.sol:Mango",
        "label": "current_shift",
        "offset": 0,
        "slot": "8",
        "type": "t_int256"
      },
      {
        "astId": 16314,
        "contract": "contracts/Strategies/OfferLogics/SingleUser/Deployable/MarketMaking/Mango.sol:Mango",
        "label": "current_delta",
        "offset": 0,
        "slot": "9",
        "type": "t_uint256"
      },
      {
        "astId": 16316,
        "contract": "contracts/Strategies/OfferLogics/SingleUser/Deployable/MarketMaking/Mango.sol:Mango",
        "label": "current_min_buffer",
        "offset": 0,
        "slot": "10",
        "type": "t_uint256"
      },
      {
        "astId": 16319,
        "contract": "contracts/Strategies/OfferLogics/SingleUser/Deployable/MarketMaking/Mango.sol:Mango",
        "label": "paused",
        "offset": 0,
        "slot": "11",
        "type": "t_bool"
      },
      {
        "astId": 16321,
        "contract": "contracts/Strategies/OfferLogics/SingleUser/Deployable/MarketMaking/Mango.sol:Mango",
        "label": "current_base_treasury",
        "offset": 1,
        "slot": "11",
        "type": "t_address"
      },
      {
        "astId": 16323,
        "contract": "contracts/Strategies/OfferLogics/SingleUser/Deployable/MarketMaking/Mango.sol:Mango",
        "label": "current_quote_treasury",
        "offset": 0,
        "slot": "12",
        "type": "t_address"
      }
    ],
    "types": {
      "t_address": {
        "encoding": "inplace",
        "label": "address",
        "numberOfBytes": "20"
      },
      "t_array(t_uint256)dyn_storage": {
        "base": "t_uint256",
        "encoding": "dynamic_array",
        "label": "uint256[]",
        "numberOfBytes": "32"
      },
      "t_bool": {
        "encoding": "inplace",
        "label": "bool",
        "numberOfBytes": "1"
      },
      "t_int256": {
        "encoding": "inplace",
        "label": "int256",
        "numberOfBytes": "32"
      },
      "t_mapping(t_uint256,t_uint256)": {
        "encoding": "mapping",
        "key": "t_uint256",
        "label": "mapping(uint256 => uint256)",
        "numberOfBytes": "32",
        "value": "t_uint256"
      },
      "t_uint256": {
        "encoding": "inplace",
        "label": "uint256",
        "numberOfBytes": "32"
      }
    }
  }
}