{
  "address": "0xE44FfC50ED6673d6A1C385B76152E1551a6c14a3",
  "abi": [
    {
      "inputs": [
        {
          "internalType": "address",
          "name": "governance",
          "type": "address"
        },
        {
          "internalType": "uint256",
          "name": "gasprice",
          "type": "uint256"
        },
        {
          "internalType": "uint256",
          "name": "gasmax",
          "type": "uint256"
        }
      ],
      "stateMutability": "nonpayable",
      "type": "constructor"
    },
    {
      "anonymous": false,
      "inputs": [
        {
          "indexed": true,
          "internalType": "address",
          "name": "outbound_tkn",
          "type": "address"
        },
        {
          "indexed": true,
          "internalType": "address",
          "name": "inbound_tkn",
          "type": "address"
        },
        {
          "indexed": false,
          "internalType": "address",
          "name": "owner",
          "type": "address"
        },
        {
          "indexed": false,
          "internalType": "address",
          "name": "spender",
          "type": "address"
        },
        {
          "indexed": false,
          "internalType": "uint256",
          "name": "value",
          "type": "uint256"
        }
      ],
      "name": "Approval",
      "type": "event"
    },
    {
      "anonymous": false,
      "inputs": [
        {
          "indexed": true,
          "internalType": "address",
          "name": "maker",
          "type": "address"
        },
        {
          "indexed": false,
          "internalType": "uint256",
          "name": "amount",
          "type": "uint256"
        }
      ],
      "name": "Credit",
      "type": "event"
    },
    {
      "anonymous": false,
      "inputs": [
        {
          "indexed": true,
          "internalType": "address",
          "name": "maker",
          "type": "address"
        },
        {
          "indexed": false,
          "internalType": "uint256",
          "name": "amount",
          "type": "uint256"
        }
      ],
      "name": "Debit",
      "type": "event"
    },
    {
      "anonymous": false,
      "inputs": [],
      "name": "Kill",
      "type": "event"
    },
    {
      "anonymous": false,
      "inputs": [],
      "name": "NewMgv",
      "type": "event"
    },
    {
      "anonymous": false,
      "inputs": [
        {
          "indexed": true,
          "internalType": "address",
          "name": "outbound_tkn",
          "type": "address"
        },
        {
          "indexed": true,
          "internalType": "address",
          "name": "inbound_tkn",
          "type": "address"
        },
        {
          "indexed": false,
          "internalType": "uint256",
          "name": "id",
          "type": "uint256"
        },
        {
          "indexed": false,
          "internalType": "address",
          "name": "taker",
          "type": "address"
        },
        {
          "indexed": false,
          "internalType": "uint256",
          "name": "takerWants",
          "type": "uint256"
        },
        {
          "indexed": false,
          "internalType": "uint256",
          "name": "takerGives",
          "type": "uint256"
        },
        {
          "indexed": false,
          "internalType": "bytes32",
          "name": "mgvData",
          "type": "bytes32"
        }
      ],
      "name": "OfferFail",
      "type": "event"
    },
    {
      "anonymous": false,
      "inputs": [
        {
          "indexed": true,
          "internalType": "address",
          "name": "outbound_tkn",
          "type": "address"
        },
        {
          "indexed": true,
          "internalType": "address",
          "name": "inbound_tkn",
          "type": "address"
        },
        {
          "indexed": false,
          "internalType": "uint256",
          "name": "id",
          "type": "uint256"
        }
      ],
      "name": "OfferRetract",
      "type": "event"
    },
    {
      "anonymous": false,
      "inputs": [
        {
          "indexed": true,
          "internalType": "address",
          "name": "outbound_tkn",
          "type": "address"
        },
        {
          "indexed": true,
          "internalType": "address",
          "name": "inbound_tkn",
          "type": "address"
        },
        {
          "indexed": false,
          "internalType": "uint256",
          "name": "id",
          "type": "uint256"
        },
        {
          "indexed": false,
          "internalType": "address",
          "name": "taker",
          "type": "address"
        },
        {
          "indexed": false,
          "internalType": "uint256",
          "name": "takerWants",
          "type": "uint256"
        },
        {
          "indexed": false,
          "internalType": "uint256",
          "name": "takerGives",
          "type": "uint256"
        }
      ],
      "name": "OfferSuccess",
      "type": "event"
    },
    {
      "anonymous": false,
      "inputs": [
        {
          "indexed": true,
          "internalType": "address",
          "name": "outbound_tkn",
          "type": "address"
        },
        {
          "indexed": true,
          "internalType": "address",
          "name": "inbound_tkn",
          "type": "address"
        },
        {
          "indexed": false,
          "internalType": "address",
          "name": "maker",
          "type": "address"
        },
        {
          "indexed": false,
          "internalType": "uint256",
          "name": "wants",
          "type": "uint256"
        },
        {
          "indexed": false,
          "internalType": "uint256",
          "name": "gives",
          "type": "uint256"
        },
        {
          "indexed": false,
          "internalType": "uint256",
          "name": "gasprice",
          "type": "uint256"
        },
        {
          "indexed": false,
          "internalType": "uint256",
          "name": "gasreq",
          "type": "uint256"
        },
        {
          "indexed": false,
          "internalType": "uint256",
          "name": "id",
          "type": "uint256"
        },
        {
          "indexed": false,
          "internalType": "uint256",
          "name": "prev",
          "type": "uint256"
        }
      ],
      "name": "OfferWrite",
      "type": "event"
    },
    {
      "anonymous": false,
      "inputs": [
        {
          "indexed": true,
          "internalType": "address",
          "name": "outbound_tkn",
          "type": "address"
        },
        {
          "indexed": true,
          "internalType": "address",
          "name": "inbound_tkn",
          "type": "address"
        },
        {
          "indexed": false,
          "internalType": "address",
          "name": "taker",
          "type": "address"
        },
        {
          "indexed": false,
          "internalType": "uint256",
          "name": "takerGot",
          "type": "uint256"
        },
        {
          "indexed": false,
          "internalType": "uint256",
          "name": "takerGave",
          "type": "uint256"
        }
      ],
      "name": "OrderComplete",
      "type": "event"
    },
    {
      "anonymous": false,
      "inputs": [
        {
          "indexed": true,
          "internalType": "address",
          "name": "outbound_tkn",
          "type": "address"
        },
        {
          "indexed": true,
          "internalType": "address",
          "name": "inbound_tkn",
          "type": "address"
        },
        {
          "indexed": false,
          "internalType": "uint256",
          "name": "offerId",
          "type": "uint256"
        }
      ],
      "name": "PosthookFail",
      "type": "event"
    },
    {
      "anonymous": false,
      "inputs": [
        {
          "indexed": true,
          "internalType": "address",
          "name": "outbound_tkn",
          "type": "address"
        },
        {
          "indexed": true,
          "internalType": "address",
          "name": "inbound_tkn",
          "type": "address"
        },
        {
          "indexed": false,
          "internalType": "bool",
          "name": "value",
          "type": "bool"
        }
      ],
      "name": "SetActive",
      "type": "event"
    },
    {
      "anonymous": false,
      "inputs": [
        {
          "indexed": true,
          "internalType": "address",
          "name": "outbound_tkn",
          "type": "address"
        },
        {
          "indexed": true,
          "internalType": "address",
          "name": "inbound_tkn",
          "type": "address"
        },
        {
          "indexed": false,
          "internalType": "uint256",
          "name": "value",
          "type": "uint256"
        }
      ],
      "name": "SetDensity",
      "type": "event"
    },
    {
      "anonymous": false,
      "inputs": [
        {
          "indexed": true,
          "internalType": "address",
          "name": "outbound_tkn",
          "type": "address"
        },
        {
          "indexed": true,
          "internalType": "address",
          "name": "inbound_tkn",
          "type": "address"
        },
        {
          "indexed": false,
          "internalType": "uint256",
          "name": "value",
          "type": "uint256"
        }
      ],
      "name": "SetFee",
      "type": "event"
    },
    {
      "anonymous": false,
      "inputs": [
        {
          "indexed": true,
          "internalType": "address",
          "name": "outbound_tkn",
          "type": "address"
        },
        {
          "indexed": true,
          "internalType": "address",
          "name": "inbound_tkn",
          "type": "address"
        },
        {
          "indexed": false,
          "internalType": "uint256",
          "name": "overhead_gasbase",
          "type": "uint256"
        },
        {
          "indexed": false,
          "internalType": "uint256",
          "name": "offer_gasbase",
          "type": "uint256"
        }
      ],
      "name": "SetGasbase",
      "type": "event"
    },
    {
      "anonymous": false,
      "inputs": [
        {
          "indexed": false,
          "internalType": "uint256",
          "name": "value",
          "type": "uint256"
        }
      ],
      "name": "SetGasmax",
      "type": "event"
    },
    {
      "anonymous": false,
      "inputs": [
        {
          "indexed": false,
          "internalType": "uint256",
          "name": "value",
          "type": "uint256"
        }
      ],
      "name": "SetGasprice",
      "type": "event"
    },
    {
      "anonymous": false,
      "inputs": [
        {
          "indexed": false,
          "internalType": "address",
          "name": "value",
          "type": "address"
        }
      ],
      "name": "SetGovernance",
      "type": "event"
    },
    {
      "anonymous": false,
      "inputs": [
        {
          "indexed": false,
          "internalType": "address",
          "name": "value",
          "type": "address"
        }
      ],
      "name": "SetMonitor",
      "type": "event"
    },
    {
      "anonymous": false,
      "inputs": [
        {
          "indexed": false,
          "internalType": "bool",
          "name": "value",
          "type": "bool"
        }
      ],
      "name": "SetNotify",
      "type": "event"
    },
    {
      "anonymous": false,
      "inputs": [
        {
          "indexed": false,
          "internalType": "bool",
          "name": "value",
          "type": "bool"
        }
      ],
      "name": "SetUseOracle",
      "type": "event"
    },
    {
      "anonymous": false,
      "inputs": [
        {
          "indexed": false,
          "internalType": "address",
          "name": "value",
          "type": "address"
        }
      ],
      "name": "SetVault",
      "type": "event"
    },
    {
      "inputs": [],
      "name": "DOMAIN_SEPARATOR",
      "outputs": [
        {
          "internalType": "bytes32",
          "name": "",
          "type": "bytes32"
        }
      ],
      "stateMutability": "view",
      "type": "function"
    },
    {
      "inputs": [],
      "name": "PERMIT_TYPEHASH",
      "outputs": [
        {
          "internalType": "bytes32",
          "name": "",
          "type": "bytes32"
        }
      ],
      "stateMutability": "view",
      "type": "function"
    },
    {
      "inputs": [
        {
          "internalType": "address",
          "name": "outbound_tkn",
          "type": "address"
        },
        {
          "internalType": "address",
          "name": "inbound_tkn",
          "type": "address"
        },
        {
          "internalType": "uint256",
          "name": "fee",
          "type": "uint256"
        },
        {
          "internalType": "uint256",
          "name": "density",
          "type": "uint256"
        },
        {
          "internalType": "uint256",
          "name": "overhead_gasbase",
          "type": "uint256"
        },
        {
          "internalType": "uint256",
          "name": "offer_gasbase",
          "type": "uint256"
        }
      ],
      "name": "activate",
      "outputs": [],
      "stateMutability": "nonpayable",
      "type": "function"
    },
    {
      "inputs": [
        {
          "internalType": "address",
          "name": "",
          "type": "address"
        },
        {
          "internalType": "address",
          "name": "",
          "type": "address"
        },
        {
          "internalType": "address",
          "name": "",
          "type": "address"
        },
        {
          "internalType": "address",
          "name": "",
          "type": "address"
        }
      ],
      "name": "allowances",
      "outputs": [
        {
          "internalType": "uint256",
          "name": "",
          "type": "uint256"
        }
      ],
      "stateMutability": "view",
      "type": "function"
    },
    {
      "inputs": [
        {
          "internalType": "address",
          "name": "outbound_tkn",
          "type": "address"
        },
        {
          "internalType": "address",
          "name": "inbound_tkn",
          "type": "address"
        },
        {
          "internalType": "address",
          "name": "spender",
          "type": "address"
        },
        {
          "internalType": "uint256",
          "name": "value",
          "type": "uint256"
        }
      ],
      "name": "approve",
      "outputs": [
        {
          "internalType": "bool",
          "name": "",
          "type": "bool"
        }
      ],
      "stateMutability": "nonpayable",
      "type": "function"
    },
    {
      "inputs": [
        {
          "internalType": "address",
          "name": "",
          "type": "address"
        }
      ],
      "name": "balanceOf",
      "outputs": [
        {
          "internalType": "uint256",
          "name": "",
          "type": "uint256"
        }
      ],
      "stateMutability": "view",
      "type": "function"
    },
    {
      "inputs": [
        {
          "internalType": "address",
          "name": "outbound_tkn",
          "type": "address"
        },
        {
          "internalType": "address",
          "name": "inbound_tkn",
          "type": "address"
        }
      ],
      "name": "best",
      "outputs": [
        {
          "internalType": "uint256",
          "name": "",
          "type": "uint256"
        }
      ],
      "stateMutability": "view",
      "type": "function"
    },
    {
      "inputs": [
        {
          "internalType": "address",
          "name": "outbound_tkn",
          "type": "address"
        },
        {
          "internalType": "address",
          "name": "inbound_tkn",
          "type": "address"
        }
      ],
      "name": "config",
      "outputs": [
        {
          "internalType": "bytes32",
          "name": "_global",
          "type": "bytes32"
        },
        {
          "internalType": "bytes32",
          "name": "_local",
          "type": "bytes32"
        }
      ],
      "stateMutability": "view",
      "type": "function"
    },
    {
      "inputs": [
        {
          "internalType": "address",
          "name": "outbound_tkn",
          "type": "address"
        },
        {
          "internalType": "address",
          "name": "inbound_tkn",
          "type": "address"
        }
      ],
      "name": "deactivate",
      "outputs": [],
      "stateMutability": "nonpayable",
      "type": "function"
    },
    {
      "inputs": [
        {
          "components": [
            {
              "internalType": "address",
              "name": "outbound_tkn",
              "type": "address"
            },
            {
              "internalType": "address",
              "name": "inbound_tkn",
              "type": "address"
            },
            {
              "internalType": "uint256",
              "name": "offerId",
              "type": "uint256"
            },
            {
              "internalType": "bytes32",
              "name": "offer",
              "type": "bytes32"
            },
            {
              "internalType": "uint256",
              "name": "wants",
              "type": "uint256"
            },
            {
              "internalType": "uint256",
              "name": "gives",
              "type": "uint256"
            },
            {
              "internalType": "bytes32",
              "name": "offerDetail",
              "type": "bytes32"
            },
            {
              "internalType": "bytes32",
              "name": "global",
              "type": "bytes32"
            },
            {
              "internalType": "bytes32",
              "name": "local",
              "type": "bytes32"
            }
          ],
          "internalType": "struct MgvLib.SingleOrder",
          "name": "sor",
          "type": "tuple"
        },
        {
          "internalType": "address",
          "name": "taker",
          "type": "address"
        }
      ],
      "name": "flashloan",
      "outputs": [
        {
          "internalType": "uint256",
          "name": "gasused",
          "type": "uint256"
        }
      ],
      "stateMutability": "nonpayable",
      "type": "function"
    },
    {
      "inputs": [
        {
          "internalType": "address",
          "name": "maker",
          "type": "address"
        }
      ],
      "name": "fund",
      "outputs": [],
      "stateMutability": "payable",
      "type": "function"
    },
    {
      "inputs": [],
      "name": "fund",
      "outputs": [],
      "stateMutability": "payable",
      "type": "function"
    },
    {
      "inputs": [],
      "name": "governance",
      "outputs": [
        {
          "internalType": "address",
          "name": "",
          "type": "address"
        }
      ],
      "stateMutability": "view",
      "type": "function"
    },
    {
      "inputs": [
        {
          "internalType": "bytes32",
          "name": "offer",
          "type": "bytes32"
        }
      ],
      "name": "isLive",
      "outputs": [
        {
          "internalType": "bool",
          "name": "",
          "type": "bool"
        }
      ],
      "stateMutability": "pure",
      "type": "function"
    },
    {
      "inputs": [],
      "name": "kill",
      "outputs": [],
      "stateMutability": "nonpayable",
      "type": "function"
    },
    {
      "inputs": [
        {
          "internalType": "address",
          "name": "outbound_tkn",
          "type": "address"
        },
        {
          "internalType": "address",
          "name": "inbound_tkn",
          "type": "address"
        }
      ],
      "name": "locked",
      "outputs": [
        {
          "internalType": "bool",
          "name": "",
          "type": "bool"
        }
      ],
      "stateMutability": "view",
      "type": "function"
    },
    {
      "inputs": [
        {
          "internalType": "address",
          "name": "outbound_tkn",
          "type": "address"
        },
        {
          "internalType": "address",
          "name": "inbound_tkn",
          "type": "address"
        },
        {
          "internalType": "uint256",
          "name": "takerWants",
          "type": "uint256"
        },
        {
          "internalType": "uint256",
          "name": "takerGives",
          "type": "uint256"
        },
        {
          "internalType": "bool",
          "name": "fillWants",
          "type": "bool"
        }
      ],
      "name": "marketOrder",
      "outputs": [
        {
          "internalType": "uint256",
          "name": "",
          "type": "uint256"
        },
        {
          "internalType": "uint256",
          "name": "",
          "type": "uint256"
        },
        {
          "internalType": "uint256",
          "name": "",
          "type": "uint256"
        }
      ],
      "stateMutability": "nonpayable",
      "type": "function"
    },
    {
      "inputs": [
        {
          "internalType": "address",
          "name": "outbound_tkn",
          "type": "address"
        },
        {
          "internalType": "address",
          "name": "inbound_tkn",
          "type": "address"
        },
        {
          "internalType": "uint256",
          "name": "takerWants",
          "type": "uint256"
        },
        {
          "internalType": "uint256",
          "name": "takerGives",
          "type": "uint256"
        },
        {
          "internalType": "bool",
          "name": "fillWants",
          "type": "bool"
        },
        {
          "internalType": "address",
          "name": "taker",
          "type": "address"
        }
      ],
      "name": "marketOrderFor",
      "outputs": [
        {
          "internalType": "uint256",
          "name": "takerGot",
          "type": "uint256"
        },
        {
          "internalType": "uint256",
          "name": "takerGave",
          "type": "uint256"
        },
        {
          "internalType": "uint256",
          "name": "bounty",
          "type": "uint256"
        }
      ],
      "stateMutability": "nonpayable",
      "type": "function"
    },
    {
      "inputs": [
        {
          "internalType": "address",
          "name": "outbound_tkn",
          "type": "address"
        },
        {
          "internalType": "address",
          "name": "inbound_tkn",
          "type": "address"
        },
        {
          "internalType": "uint256",
          "name": "wants",
          "type": "uint256"
        },
        {
          "internalType": "uint256",
          "name": "gives",
          "type": "uint256"
        },
        {
          "internalType": "uint256",
          "name": "gasreq",
          "type": "uint256"
        },
        {
          "internalType": "uint256",
          "name": "gasprice",
          "type": "uint256"
        },
        {
          "internalType": "uint256",
          "name": "pivotId",
          "type": "uint256"
        }
      ],
      "name": "newOffer",
      "outputs": [
        {
          "internalType": "uint256",
          "name": "",
          "type": "uint256"
        }
      ],
      "stateMutability": "nonpayable",
      "type": "function"
    },
    {
      "inputs": [
        {
          "internalType": "address",
          "name": "",
          "type": "address"
        }
      ],
      "name": "nonces",
      "outputs": [
        {
          "internalType": "uint256",
          "name": "",
          "type": "uint256"
        }
      ],
      "stateMutability": "view",
      "type": "function"
    },
    {
      "inputs": [
        {
          "internalType": "address",
          "name": "",
          "type": "address"
        },
        {
          "internalType": "address",
          "name": "",
          "type": "address"
        },
        {
          "internalType": "uint256",
          "name": "",
          "type": "uint256"
        }
      ],
      "name": "offerDetails",
      "outputs": [
        {
          "internalType": "bytes32",
          "name": "",
          "type": "bytes32"
        }
      ],
      "stateMutability": "view",
      "type": "function"
    },
    {
      "inputs": [
        {
          "internalType": "address",
          "name": "outbound_tkn",
          "type": "address"
        },
        {
          "internalType": "address",
          "name": "inbound_tkn",
          "type": "address"
        },
        {
          "internalType": "uint256",
          "name": "offerId",
          "type": "uint256"
        }
      ],
      "name": "offerInfo",
      "outputs": [
        {
          "components": [
            {
              "internalType": "uint256",
              "name": "prev",
              "type": "uint256"
            },
            {
              "internalType": "uint256",
              "name": "next",
              "type": "uint256"
            },
            {
              "internalType": "uint256",
              "name": "gives",
              "type": "uint256"
            },
            {
              "internalType": "uint256",
              "name": "wants",
              "type": "uint256"
            },
            {
              "internalType": "uint256",
              "name": "gasprice",
              "type": "uint256"
            }
          ],
          "internalType": "struct MgvLib.Offer",
          "name": "",
          "type": "tuple"
        },
        {
          "components": [
            {
              "internalType": "address",
              "name": "maker",
              "type": "address"
            },
            {
              "internalType": "uint256",
              "name": "gasreq",
              "type": "uint256"
            },
            {
              "internalType": "uint256",
              "name": "overhead_gasbase",
              "type": "uint256"
            },
            {
              "internalType": "uint256",
              "name": "offer_gasbase",
              "type": "uint256"
            }
          ],
          "internalType": "struct MgvLib.OfferDetail",
          "name": "",
          "type": "tuple"
        }
      ],
      "stateMutability": "view",
      "type": "function"
    },
    {
      "inputs": [
        {
          "internalType": "address",
          "name": "",
          "type": "address"
        },
        {
          "internalType": "address",
          "name": "",
          "type": "address"
        },
        {
          "internalType": "uint256",
          "name": "",
          "type": "uint256"
        }
      ],
      "name": "offers",
      "outputs": [
        {
          "internalType": "bytes32",
          "name": "",
          "type": "bytes32"
        }
      ],
      "stateMutability": "view",
      "type": "function"
    },
    {
      "inputs": [
        {
          "internalType": "address",
          "name": "outbound_tkn",
          "type": "address"
        },
        {
          "internalType": "address",
          "name": "inbound_tkn",
          "type": "address"
        },
        {
          "internalType": "address",
          "name": "owner",
          "type": "address"
        },
        {
          "internalType": "address",
          "name": "spender",
          "type": "address"
        },
        {
          "internalType": "uint256",
          "name": "value",
          "type": "uint256"
        },
        {
          "internalType": "uint256",
          "name": "deadline",
          "type": "uint256"
        },
        {
          "internalType": "uint8",
          "name": "v",
          "type": "uint8"
        },
        {
          "internalType": "bytes32",
          "name": "r",
          "type": "bytes32"
        },
        {
          "internalType": "bytes32",
          "name": "s",
          "type": "bytes32"
        }
      ],
      "name": "permit",
      "outputs": [],
      "stateMutability": "nonpayable",
      "type": "function"
    },
    {
      "inputs": [
        {
          "internalType": "address",
          "name": "outbound_tkn",
          "type": "address"
        },
        {
          "internalType": "address",
          "name": "inbound_tkn",
          "type": "address"
        },
        {
          "internalType": "uint256",
          "name": "offerId",
          "type": "uint256"
        },
        {
          "internalType": "bool",
          "name": "deprovision",
          "type": "bool"
        }
      ],
      "name": "retractOffer",
      "outputs": [
        {
          "internalType": "uint256",
          "name": "provision",
          "type": "uint256"
        }
      ],
      "stateMutability": "nonpayable",
      "type": "function"
    },
    {
      "inputs": [
        {
          "internalType": "address",
          "name": "outbound_tkn",
          "type": "address"
        },
        {
          "internalType": "address",
          "name": "inbound_tkn",
          "type": "address"
        },
        {
          "internalType": "uint256",
          "name": "density",
          "type": "uint256"
        }
      ],
      "name": "setDensity",
      "outputs": [],
      "stateMutability": "nonpayable",
      "type": "function"
    },
    {
      "inputs": [
        {
          "internalType": "address",
          "name": "outbound_tkn",
          "type": "address"
        },
        {
          "internalType": "address",
          "name": "inbound_tkn",
          "type": "address"
        },
        {
          "internalType": "uint256",
          "name": "fee",
          "type": "uint256"
        }
      ],
      "name": "setFee",
      "outputs": [],
      "stateMutability": "nonpayable",
      "type": "function"
    },
    {
      "inputs": [
        {
          "internalType": "address",
          "name": "outbound_tkn",
          "type": "address"
        },
        {
          "internalType": "address",
          "name": "inbound_tkn",
          "type": "address"
        },
        {
          "internalType": "uint256",
          "name": "overhead_gasbase",
          "type": "uint256"
        },
        {
          "internalType": "uint256",
          "name": "offer_gasbase",
          "type": "uint256"
        }
      ],
      "name": "setGasbase",
      "outputs": [],
      "stateMutability": "nonpayable",
      "type": "function"
    },
    {
      "inputs": [
        {
          "internalType": "uint256",
          "name": "gasmax",
          "type": "uint256"
        }
      ],
      "name": "setGasmax",
      "outputs": [],
      "stateMutability": "nonpayable",
      "type": "function"
    },
    {
      "inputs": [
        {
          "internalType": "uint256",
          "name": "gasprice",
          "type": "uint256"
        }
      ],
      "name": "setGasprice",
      "outputs": [],
      "stateMutability": "nonpayable",
      "type": "function"
    },
    {
      "inputs": [
        {
          "internalType": "address",
          "name": "governanceAddress",
          "type": "address"
        }
      ],
      "name": "setGovernance",
      "outputs": [],
      "stateMutability": "nonpayable",
      "type": "function"
    },
    {
      "inputs": [
        {
          "internalType": "address",
          "name": "monitor",
          "type": "address"
        }
      ],
      "name": "setMonitor",
      "outputs": [],
      "stateMutability": "nonpayable",
      "type": "function"
    },
    {
      "inputs": [
        {
          "internalType": "bool",
          "name": "notify",
          "type": "bool"
        }
      ],
      "name": "setNotify",
      "outputs": [],
      "stateMutability": "nonpayable",
      "type": "function"
    },
    {
      "inputs": [
        {
          "internalType": "bool",
          "name": "useOracle",
          "type": "bool"
        }
      ],
      "name": "setUseOracle",
      "outputs": [],
      "stateMutability": "nonpayable",
      "type": "function"
    },
    {
      "inputs": [
        {
          "internalType": "address",
          "name": "vaultAddress",
          "type": "address"
        }
      ],
      "name": "setVault",
      "outputs": [],
      "stateMutability": "nonpayable",
      "type": "function"
    },
    {
      "inputs": [
        {
          "internalType": "address",
          "name": "outbound_tkn",
          "type": "address"
        },
        {
          "internalType": "address",
          "name": "inbound_tkn",
          "type": "address"
        },
        {
          "internalType": "uint256[4][]",
          "name": "targets",
          "type": "uint256[4][]"
        },
        {
          "internalType": "bool",
          "name": "fillWants",
          "type": "bool"
        }
      ],
      "name": "snipes",
      "outputs": [
        {
          "internalType": "uint256",
          "name": "",
          "type": "uint256"
        },
        {
          "internalType": "uint256",
          "name": "",
          "type": "uint256"
        },
        {
          "internalType": "uint256",
          "name": "",
          "type": "uint256"
        },
        {
          "internalType": "uint256",
          "name": "",
          "type": "uint256"
        }
      ],
      "stateMutability": "nonpayable",
      "type": "function"
    },
    {
      "inputs": [
        {
          "internalType": "address",
          "name": "outbound_tkn",
          "type": "address"
        },
        {
          "internalType": "address",
          "name": "inbound_tkn",
          "type": "address"
        },
        {
          "internalType": "uint256[4][]",
          "name": "targets",
          "type": "uint256[4][]"
        },
        {
          "internalType": "bool",
          "name": "fillWants",
          "type": "bool"
        },
        {
          "internalType": "address",
          "name": "taker",
          "type": "address"
        }
      ],
      "name": "snipesFor",
      "outputs": [
        {
          "internalType": "uint256",
          "name": "successes",
          "type": "uint256"
        },
        {
          "internalType": "uint256",
          "name": "takerGot",
          "type": "uint256"
        },
        {
          "internalType": "uint256",
          "name": "takerGave",
          "type": "uint256"
        },
        {
          "internalType": "uint256",
          "name": "bounty",
          "type": "uint256"
        }
      ],
      "stateMutability": "nonpayable",
      "type": "function"
    },
    {
      "inputs": [
        {
          "internalType": "address",
          "name": "outbound_tkn",
          "type": "address"
        },
        {
          "internalType": "address",
          "name": "inbound_tkn",
          "type": "address"
        },
        {
          "internalType": "uint256",
          "name": "wants",
          "type": "uint256"
        },
        {
          "internalType": "uint256",
          "name": "gives",
          "type": "uint256"
        },
        {
          "internalType": "uint256",
          "name": "gasreq",
          "type": "uint256"
        },
        {
          "internalType": "uint256",
          "name": "gasprice",
          "type": "uint256"
        },
        {
          "internalType": "uint256",
          "name": "pivotId",
          "type": "uint256"
        },
        {
          "internalType": "uint256",
          "name": "offerId",
          "type": "uint256"
        }
      ],
      "name": "updateOffer",
      "outputs": [],
      "stateMutability": "nonpayable",
      "type": "function"
    },
    {
      "inputs": [],
      "name": "vault",
      "outputs": [
        {
          "internalType": "address",
          "name": "",
          "type": "address"
        }
      ],
      "stateMutability": "view",
      "type": "function"
    },
    {
      "inputs": [
        {
          "internalType": "uint256",
          "name": "amount",
          "type": "uint256"
        }
      ],
      "name": "withdraw",
      "outputs": [
        {
          "internalType": "bool",
          "name": "noRevert",
          "type": "bool"
        }
      ],
      "stateMutability": "nonpayable",
      "type": "function"
    },
    {
      "stateMutability": "payable",
      "type": "receive"
    }
  ],
  "transactionHash": "0xa6433307058eea2e436cef5ad9f8ee2184c2a6f6cf759990bfaad5d946256856",
  "args": [
    "0x47897EE61498D02B18794601Ed3A71896A1Ff894",
    40,
    500000
  ],
  "solcInputHash": "90d9139ff0702dcfb0f19c0e6dfd1568",
  "bytecode": "0x60a06040523480156200001157600080fd5b5060405162005b9d38038062005b9d83398101604081905262000034916200037d565b828282604051806040016040528060088152602001674d616e67726f766560c01b815250808484847f72201d073f249840099a96530e189c4291c1852040b1e96ff1f606db656be4ff60405160405180910390a162000093836200015b565b6200009e82620001bd565b620000a9816200024c565b620000b483620002ce565b5050815160208084019190912060408051808201825260018152603160f81b908401525146935062000130927f8b73c3c69bb8fe3d512ecc4cf759cc79239f7b179b0ffacaa9a75d522b39400f92917fc89efdaa54c0f20c7adf612882df0950f5a951637e0307cdcb4c672f298b8bc6918691309101620003d4565b60408051601f19818403018152919052805160209091012060805250620004a1975050505050505050565b6200016562000325565b600080546001600160a01b0319166001600160a01b0383161790556040517fd459c7242e23d490831b5676a611c4342d899d28f342d89ae80793e56a930f3090620001b2908390620003c0565b60405180910390a150565b620001c762000325565b620001d28162000374565b620001fa5760405162461bcd60e51b8152600401620001f19062000400565b60405180910390fd5b60b060f082901b901c60001b61ffff60401b1960001b60015416176001819055507fdbebd814ae648f654dcc50c734aa76e55a32e96b7d85303a08e2ddf11874a0dd81604051620001b2919062000498565b6200025662000325565b808162ffffff16146200027d5760405162461bcd60e51b8152600401620001f19062000437565b6001805462ffffff60281b191667ffffff0000000000602884901b161790556040517f8cdff0cd5ed2543bcdf7eb93d8ec1c23626e579925f4531beeef15d84cf78d1890620001b290839062000498565b620002d862000325565b600380546001600160a01b0319166001600160a01b0383161790556040517f24a8c4807b324a269a51827c3446b8ac1cc13810d7d0c0ca1efafabddd7b621990620001b2908390620003c0565b6003546001600160a01b03163314806200033e57503330145b806200035357506003546001600160a01b0316155b620003725760405162461bcd60e51b8152600401620001f1906200046e565b565b61ffff81161490565b60008060006060848603121562000392578283fd5b83516001600160a01b0381168114620003a9578384fd5b602085015160409095015190969495509392505050565b6001600160a01b0391909116815260200190565b9485526020850193909352604084019190915260608301526001600160a01b0316608082015260a00190565b6020808252601a908201527f6d67762f636f6e6669672f67617370726963652f313662697473000000000000604082015260600190565b60208082526018908201527f6d67762f636f6e6669672f6761736d61782f3234626974730000000000000000604082015260600190565b60208082526010908201526f1b59dd8bdd5b985d5d1a1bdc9a5e995960821b604082015260600190565b90815260200190565b6080516156dc620004c16000398061089e52806114a652506156dc6000f3fe6080604052600436106102bf5760003560e01c80638c66715c1161016e578063cbf75c9a116100cb578063def5ddaa1161007f578063fbfa77cf11610064578063fbfa77cf1461078e578063fbffe5fd146107a3578063fcaa7e2e146107c3576102cf565b8063def5ddaa1461074e578063fbb669101461076e576102cf565b8063d0ee5099116100b0578063d0ee5099146106ee578063db20266f1461070e578063dc7e98df1461072e576102cf565b8063cbf75c9a146106a0578063cedd3a0e146106ce576102cf565b8063b09d2a1611610122578063b2b1205711610107578063b2b1205714610658578063b60d428814610678578063c7bb25d014610680576102cf565b8063b09d2a1614610618578063b24d1ee714610638576102cf565b806395999ee31161015357806395999ee3146105b8578063ab033ea9146105d8578063ad97db1b146105f8576102cf565b80638c66715c1461056a57806390839c0714610598576102cf565b80635aa6e6751161021c5780636a4f7691116101d057806370a08231116101b557806370a082311461050a5780637ecebe001461052a57806382b903a81461054a576102cf565b80636a4f7691146104bb5780636d27de67146104db576102cf565b80636804f613116102015780636804f6131461045b5780636817031b1461047b57806368c13d6b1461049b576102cf565b80635aa6e675146104195780635cd823901461043b576102cf565b806346e142fa116102735780635722647b116102585780635722647b146103b957806359eba454146103d95780635a611f4e146103f9576102cf565b806346e142fa1461036957806349f6d2dc14610399576102cf565b806330adf81f116102a457806330adf81f1461031d5780633644e5151461033f57806341c0e1b514610354576102cf565b806323024408146102d45780632e1a7d4d146102e7576102cf565b366102cf576102cd336107e3565b005b600080fd5b6102cd6102e2366004614544565b6107e3565b3480156102f357600080fd5b50610307610302366004614a7c565b61080a565b6040516103149190614cb8565b60405180910390f35b34801561032957600080fd5b50610332610878565b6040516103149190614cc3565b34801561034b57600080fd5b5061033261089c565b34801561036057600080fd5b506102cd6108c0565b34801561037557600080fd5b506103896103843660046146c1565b610922565b604051610314949392919061567d565b3480156103a557600080fd5b506103326103b4366004614981565b610949565b3480156103c557600080fd5b506103326103d43660046147bc565b610a8a565b3480156103e557600080fd5b506103076103f4366004614677565b610aad565b34801561040557600080fd5b506102cd610414366004614a44565b610b36565b34801561042557600080fd5b5061042e610bce565b6040516103149190614bf1565b34801561044757600080fd5b506102cd610456366004614544565b610bdd565b34801561046757600080fd5b506102cd610476366004614a44565b610c5c565b34801561048757600080fd5b506102cd610496366004614544565b610ce9565b3480156104a757600080fd5b506103326104b63660046147bc565b610d54565b3480156104c757600080fd5b506102cd6104d63660046149de565b610d77565b3480156104e757600080fd5b506104fb6104f63660046148d2565b610e7a565b60405161031493929190615667565b34801561051657600080fd5b50610332610525366004614544565b610eac565b34801561053657600080fd5b50610332610545366004614544565b610ebe565b34801561055657600080fd5b506102cd61056536600461492d565b610ed0565b34801561057657600080fd5b5061058a6105853660046147bc565b610faa565b6040516103149291906154e7565b3480156105a457600080fd5b506102cd6105b3366004614845565b61109e565b3480156105c457600080fd5b506102cd6105d3366004614a7c565b6111c5565b3480156105e457600080fd5b506102cd6105f3366004614544565b611259565b34801561060457600080fd5b506103326106133660046147f7565b6112c4565b34801561062457600080fd5b506102cd6106333660046145e3565b61144a565b34801561064457600080fd5b50610332610653366004614a94565b6116ed565b34801561066457600080fd5b50610389610673366004614738565b611803565b6102cd61183a565b34801561068c57600080fd5b5061033261069b366004614590565b611845565b3480156106ac57600080fd5b506106c06106bb36600461455e565b611871565b604051610314929190614d12565b3480156106da57600080fd5b506103076106e9366004614a7c565b6119ec565b3480156106fa57600080fd5b506102cd61070936600461455e565b611a07565b34801561071a57600080fd5b5061030761072936600461455e565b611a95565b34801561073a57600080fd5b506102cd6107493660046147bc565b611ac8565b34801561075a57600080fd5b5061033261076936600461455e565b611ba4565b34801561077a57600080fd5b506102cd6107893660046147bc565b611bd7565b34801561079a57600080fd5b5061042e611ca7565b3480156107af57600080fd5b506104fb6107be366004614886565b611cb6565b3480156107cf57600080fd5b506102cd6107de366004614a7c565b611cda565b60006107f0600080611871565b5090506107fc81611d71565b6108068234611d99565b5050565b60006108163383611df3565b336001600160a01b03168260405161082d90614bee565b60006040518083038185875af1925050503d806000811461086a576040519150601f19603f3d011682016040523d82523d6000602084013e61086f565b606091505b50909392505050565b7fb7bf278e51ab1478b10530c0300f911d9ed3562fc93ab5e6593368fe23c077a281565b7f000000000000000000000000000000000000000000000000000000000000000081565b6108c8611e86565b600180547fffffffffffffffffffffffffffffffffffffffffffffffffffffff00ffffffff166401000000001790556040517fbe26733c2bf6ff3ea5ba8cfe744422bd49052ff9ed5685c9e81e6f9321dbaddd90600090a1565b600080600080610936898989898933611ece565b929c919b50995090975095505050505050565b600061095361436d565b61095d8989611871565b61012083018190526101008301919091526109779061207b565b61098b8161010001518261012001516120a0565b610120810151600162ffffff9182160160808301819052908116146109cb5760405162461bcd60e51b81526004016109c2906152c1565b60405180910390fd5b6080810151610120820180517fffffffffffffffffffffffffffffffffffffffffffffffffffffffffff0000001662ffffff9092169190911790526001600160a01b03808a16825288166020820152604081018790526060810186905260a0810185905260c0810184905260e08101839052610a488160006120ca565b61012081015181516001600160a01b03908116600090815260026020908152604080832082870151909416835292905220556080015198975050505050505050565b600560209081526000938452604080852082529284528284209052825290205481565b6001600160a01b038085166000818152600760209081526040808320888616808552908352818420338086529084528285209689168552959092528083208690555191939092917f6e791f456e6f5034d4928b936c32bf7e650d8228543ce7985d632ab03934837d91610b239188908890614c05565b60405180910390a3506001949350505050565b610b3e611e86565b600081610b4c576000610b4f565b60015b600180547fffffffffffffffffffffffffffffffffffffffffff00ffffffffffffffffffff166aff00000000000000000000605084901b1617905560405160ff9190911691507f9b84fe4d9ffc14a6f7ec50c18884ee0d4bb8165aa718a28558df12ab4bd32b1490610bc2908490614cb8565b60405180910390a15050565b6003546001600160a01b031681565b610be5611e86565b600180546bffffffffffffffffffffffff167fffffffffffffffffffffffffffffffffffffffff000000000000000000000000606084901b161790556040517ff592e42c32883b35bebfbf9d9b801570a25d5ccbba452310746ad2cfd20d548f90610c51908390614bf1565b60405180910390a150565b610c64611e86565b600081610c72576000610c75565b60015b600180547fffffffffffffffffffffffffffffffffffffffff00ffffffffffffffffffffff166bff0000000000000000000000605884901b1617905560405160ff9190911691507fbf39fbfab835c119637f4dbc4fb0f428c559c210200405d1ec25ddb50a93f9d490610bc2908490614cb8565b610cf1611e86565b600080547fffffffffffffffffffffffff0000000000000000000000000000000000000000166001600160a01b0383161790556040517fd459c7242e23d490831b5676a611c4342d899d28f342d89ae80793e56a930f3090610c51908390614bf1565b600460209081526000938452604080852082529284528284209052825290205481565b610d7f61436d565b610d898989611871565b6101208301819052610100830191909152610da39061207b565b610db78161010001518261012001516120a0565b6001600160a01b03808a16808352908916602080840182905260408085018b9052606085018a90526080850186905260a0850189905260c0850188905260e085018790526000938452600482528084209284529181528183208584529052902054610140820152610120810151610e2f8260016120ca565b8161012001518114610e6e5761012082015182516001600160a01b03908116600090815260026020908152604080832082880151909416835292905220555b50505050505050505050565b6000806000610e8d898989898989612750565b91945092509050610ea08989868561296a565b96509650969350505050565b60066020526000908152604090205481565b60086020526000908152604090205481565b610ed8611e86565b6001600160a01b038681166000818152600260209081526040808320948a16808452949091529081902080547effffffffffffffffffffffffffffffffffffffffffffffffffffffffffffff167f0100000000000000000000000000000000000000000000000000000000000000179055517fc4ad6e84469caa93e473acfa6c029fcf9d3757d8e268e6233c150771e9f88da690610f7890600190614cb8565b60405180910390a3610f8b868686611ac8565b610f96868685611bd7565b610fa28686848461109e565b505050505050565b610fb26143c9565b610fba6143f8565b50506001600160a01b038084166000818152600460209081526040808320948716808452948252808320868452825280832054815160a08101835260e882901c815262ffffff60d083901c8116828601526bffffffffffffffffffffffff601084901c811683860152607084901c1660608084019190915261ffff90931660808084019190915296865260058552838620978652968452828520888652845293829020548251958601835280821c8652604881901c871693860193909352603083901c86169185019190915260189190911c90931692820192909252935093915050565b6110a6611e86565b818262ffffff16146110ca5760405162461bcd60e51b81526004016109c290614d3e565b808162ffffff16146110ee5760405162461bcd60e51b81526004016109c29061528a565b6001600160a01b038481166000818152600260209081526040808320948816808452949091529081902080547fffffffffffffffffffffffffffffffffffffffffffff000000ffffffffffffff1669ffffff00000000000000603887901b16177fffffffffffffffffffffffffffffffffffffff000000ffffffffffffffffffff166cffffff00000000000000000000605088901b16179055517fab3985caa4bbb5d30480eacd1f3620dc24c34e3e35a5348cbfd63106110e7334906111b79086908690614d12565b60405180910390a350505050565b6111cd611e86565b808162ffffff16146111f15760405162461bcd60e51b81526004016109c290615253565b600180547fffffffffffffffffffffffffffffffffffffffffffffffff000000ffffffffff1667ffffff0000000000602884901b161790556040517f8cdff0cd5ed2543bcdf7eb93d8ec1c23626e579925f4531beeef15d84cf78d1890610c51908390614cc3565b611261611e86565b600380547fffffffffffffffffffffffff0000000000000000000000000000000000000000166001600160a01b0383161790556040517f24a8c4807b324a269a51827c3446b8ac1cc13810d7d0c0ca1efafabddd7b621990610c51908390614bf1565b6000806112d18686611871565b9150506112dd8161207b565b6001600160a01b038087166000818152600460209081526040808320948a16808452948252808320898452825280832054938352600582528083209483529381528382208883529052919091205433606082901c1461134e5760405162461bcd60e51b81526004016109c29061521c565b611357826119ec565b156113ab5782611377898960e886901c62ffffff60d088901c1685612a04565b93508381146113a9576001600160a01b03808a166000908152600260209081526040808320938c168352929052208490555b505b6113b88888888589612b24565b84156113f45761ffff8216604882901c62ffffff908116603084901c821601601884901c919091160102633b9aca000293506113f43385611d99565b866001600160a01b0316886001600160a01b03167fe2ce51fba856682424155a2d89b2ad1d2adde6ea0a9e3115b4b474cd6cb1798b886040516114379190614cc3565b60405180910390a3505050949350505050565b4284101561146a5760405162461bcd60e51b81526004016109c290614e77565b600060086000896001600160a01b03166001600160a01b03168152602001908152602001600020600081548092919060010191905055905060007f00000000000000000000000000000000000000000000000000000000000000007fb7bf278e51ab1478b10530c0300f911d9ed3562fc93ab5e6593368fe23c077a260001b8c8c8c8c8c888d604051602001611507989796959493929190614ccc565b6040516020818303038152906040528051906020012060405160200161152e929190614bb8565b60405160208183030381529060405280519060200120905060006001828787876040516000815260200160405260405161156b9493929190614d20565b6020604051602081039080840390855afa15801561158d573d6000803e3d6000fd5b50506040517fffffffffffffffffffffffffffffffffffffffffffffffffffffffffffffffe001519150506001600160a01b038116158015906115e15750896001600160a01b0316816001600160a01b0316145b6115fd5760405162461bcd60e51b81526004016109c290614e09565b87600760008e6001600160a01b03166001600160a01b0316815260200190815260200160002060008d6001600160a01b03166001600160a01b0316815260200190815260200160002060008c6001600160a01b03166001600160a01b0316815260200190815260200160002060008b6001600160a01b03166001600160a01b03168152602001908152602001600020819055508a6001600160a01b03168c6001600160a01b03167f6e791f456e6f5034d4928b936c32bf7e650d8228543ce7985d632ab03934837d8c8c8c6040516116d793929190614c05565b60405180910390a3505050505050505050505050565b600033301461170e5760405162461bcd60e51b81526004016109c290615366565b61172d6117216040850160208601614544565b83308660a00135612bae565b156117b7576117576117456040850160208601614544565b60c085013560601c60a0860135612cc0565b1561176c5761176583612dd1565b90506117b2565b604080516060810182527f6d67762f6d616b6572526563656976654661696c0000000000000000000000008152600060208201819052918101919091526117b290612fff565b6117fd565b604080516060810182527f6d67762f74616b65725472616e736665724661696c00000000000000000000008152600060208201819052918101919091526117fd90612fff565b92915050565b6000806000806118178a8a8a8a8a8a611ece565b9296509094509250905061182d8a8a878561296a565b9650965096509692505050565b611843336107e3565b565b600760209081526000948552604080862082529385528385208152918452828420909152825290205481565b6001546001600160a01b0380841660009081526002602090815260408083209386168352929052205460ff605883901c16156119e5576040517f6968abd30000000000000000000000000000000000000000000000000000000081526000908190606085901c90636968abd3906118ee9089908990600401614c64565b604080518083038186803b15801561190557600080fd5b505afa158015611919573d6000803e3d6000fd5b505050506040513d601f19601f8201168201806040525081019061193d9190614ae8565b9150915061194a82613004565b15611988577fffffffffffffffffffffffffffffffffffffffffffff0000ffffffffffffffff9390931669ffff0000000000000000604083901b1617925b6119918161300d565b156119e2577fffffff00000000000000000000000000000000ffffffffffffffffffffffffff929092167cffffffffffffffffffffffffffffffff00000000000000000000000000606884901b1617915b50505b9250929050565b6bffffffffffffffffffffffff601082901c1615155b919050565b611a0f611e86565b6001600160a01b0382811660008181526002602090815260408083209486168084529490915280822080547effffffffffffffffffffffffffffffffffffffffffffffffffffffffffffff169055517fc4ad6e84469caa93e473acfa6c029fcf9d3757d8e268e6233c150771e9f88da691611a8991614cb8565b60405180910390a35050565b6001600160a01b03918216600090815260026020908152604080832093909416825291909152205460301c60ff16151590565b611ad0611e86565b6101f4811115611af25760405162461bcd60e51b81526004016109c2906153d4565b6001600160a01b038381166000818152600260209081526040808320948716808452949091529081902080547fff0000ffffffffffffffffffffffffffffffffffffffffffffffffffffffffff167effff000000000000000000000000000000000000000000000000000000000060e887901b16179055517f44a6d70a601a6f8a85c075467e9d7245897140cbf6dd505c9d9d764459f5fb6490611b97908590614cc3565b60405180910390a3505050565b6001600160a01b03918216600090815260026020908152604080832093909416825291909152205460181c62ffffff1690565b611bdf611e86565b611be88161300d565b611c045760405162461bcd60e51b81526004016109c290614dd2565b6001600160a01b038381166000818152600260209081526040808320948716808452949091529081902080547fffffff00000000000000000000000000000000ffffffffffffffffffffffffff167cffffffffffffffffffffffffffffffff00000000000000000000000000606887901b16179055517f95f1a495c6d9d1a215995408f6ad898c2b33798d6eb3cf3220b4c6cc8b61b06490611b97908590614cc3565b6000546001600160a01b031681565b6000806000611cc9888888888833612750565b925092509250955095509592505050565b611ce2611e86565b611ceb81613004565b611d075760405162461bcd60e51b81526004016109c290615109565b60b060f082901b901c60001b7fffffffffffffffffffffffffffffffffffffffffffff0000ffffffffffffffff60001b60015416176001819055507fdbebd814ae648f654dcc50c734aa76e55a32e96b7d85303a08e2ddf11874a0dd81604051610c519190614cc3565b60ff602082901c1615611d965760405162461bcd60e51b81526004016109c290615479565b50565b6001600160a01b03821660008181526006602052604090819020805484019055517f1bbf55d483639f8103dc4e035af71a4fbdb16c80be740fa3eef81198acefa09490611de7908490614cc3565b60405180910390a25050565b6001600160a01b03821660009081526006602052604090205481811015611e2c5760405162461bcd60e51b81526004016109c290614ee5565b6001600160a01b038316600081815260066020526040908190208484039055517f59c79d79be0fadf59fe689b6952b7ebe90201a3a1f00d4a31982377890bc604690611e79908590614cc3565b60405180910390a2505050565b6003546001600160a01b0316331480611e9e57503330145b80611eb257506003546001600160a01b0316155b6118435760405162461bcd60e51b81526004016109c29061539d565b600080600080611edc614429565b6001600160a01b03808c1682528a166020820152611efa8b8b611871565b61010083015260e0820152611f0d614475565b6001600160a01b03871660a08201528715156101008083019190915260e083015190830151611f3c91906120a0565b611f4a82610100015161207b565b60c860f86001901b901c60001b7fffffffffffffffffffffffffffffffffffffffffffffffffff00ffffffffffff60001b836101000151161782610100018181525050816101000151600260008e6001600160a01b03166001600160a01b0316815260200190815260200160002060008d6001600160a01b03166001600160a01b0316815260200190815260200160002081905550611fed81838c8c6000613024565b611ffa81608001516133bc565b8a6001600160a01b03168c6001600160a01b03167fe627235b9d9175f7943c18ce4517f64aefbb6ff056c02d8eefae333eca862a58898460400151856060015160405161204993929190614c97565b60405180910390a360c081015160408201516060830151608090930151919e909d50919b509950975050505050505050565b60ff603082901c1615611d965760405162461bcd60e51b81526004016109c290615442565b6120a982611d71565b60f881901c6108065760405162461bcd60e51b81526004016109c2906154b0565b60c082015161ffff8116146120f15760405162461bcd60e51b81526004016109c290614e40565b60f060b0836101000151901b60001c901c8260c0015110156121205761010082015160401c61ffff1660c08301525b60e860c0836101000151901b60001c901c8260a0015111156121545760405162461bcd60e51b81526004016109c29061509d565b60008260600151116121785760405162461bcd60e51b81526004016109c2906152f8565b60806018836101200151901b60001c901c60e860b0846101200151901b60001c901c8360a001510102826060015110156121c45760405162461bcd60e51b81526004016109c290614fc1565b60608201516bffffffffffffffffffffffff8116146121f55760405162461bcd60e51b81526004016109c2906151ae565b60408201516bffffffffffffffffffffffff8116146122265760405162461bcd60e51b81526004016109c2906151e5565b6000806122328461343e565b9150915083602001516001600160a01b031684600001516001600160a01b03167f2b101f9ef8ca2761d91bea55ab50a4d051e9248088ff7314ddb8826839544c2a33876040015188606001518960c001518a60a001518b608001518a6040516122a19796959493929190614c29565b60405180910390a383516001600160a01b03908116600090815260056020908152604080832082890151909416835292815282822060808801518352905290812054841561233e5733606082901c1461230c5760405162461bcd60e51b81526004016109c290614d9b565b61014086015161ffff16604882901c62ffffff908116603084901c821601601884901c919091160102633b9aca000291505b841580612358575060a086015162ffffff604883901c1614155b8061237a5750610120860151603082901c62ffffff90811660509290921c1614155b8061239c5750610120860151601882901c62ffffff90811660389290921c1614155b156124255761012086015160a087015187516001600160a01b039081166000908152600560209081526040808320828d0151909416835292815282822060808c01518352815291902065ffffff0000009390911c92831668ffffff0000000000009390931660489290921b6bffffff000000000000000000163360601b17919091179190911790555b5060008560c0015160e86098886101200151901b60001c901c60e860b0896101200151901b60001c901c8860a00151010102633b9aca00029050818111156124785761247333838303611df3565b61248c565b8181101561248c5761248c33828403611d99565b5061249b8561014001516119ec565b15806124af575061014085015160e81c8314155b1561268b57821561256757608085015185516001600160a01b039081166000908152600460208181526040808420828c018051871686529083528185208a86528352818520548c518716865293835281852090519095168452938152838320888452905291902060d09290921b7cffffff0000000000000000000000000000000000000000000000000000167fffffff000000ffffffffffffffffffffffffffffffffffffffffffffffffffff9091161790556125ac565b60808501516101208601805160189290921b65ffffff000000167fffffffffffffffffffffffffffffffffffffffffffffffffffff000000ffffff9092169190911790525b811561263957608085015185516001600160a01b039081166000908152600460208181526040808420828c018051871686529083528185208986528352818520548c518716865293835281852090519095168452938152838320878452905291902060e89290921b7cffffffffffffffffffffffffffffffffffffffffffffffffffffffffff9091161790555b83801561264f575061264f8561014001516119ec565b1561268b578451602086015161014087015161012088015161268493929160e881901c9160d09190911c62ffffff1690612a04565b6101208601525b5060c0840151606085015160408087015187516001600160a01b03908116600090815260046020908152848220818c015190931682529182528381206080909a01518152989052962061ffff90921660109190911b6dffffffffffffffffffffffff00001660709690961b79ffffffffffffffffffffffff00000000000000000000000000001660d09390931b7cffffff00000000000000000000000000000000000000000000000000001660e89490941b9390931791909117939093171790915550565b600080600086876001600160a01b03161461277d5760405162461bcd60e51b81526004016109c290615140565b85866001600160a01b0316146127a55760405162461bcd60e51b81526004016109c29061540b565b6127ad614429565b6001600160a01b03808b168252891660208201526127cb8a8a611871565b610100830181905260e083019190915260181c62ffffff1660408083019182526001600160a01b038c8116600090815260046020908152838220928e1682529182528281209351815292905290205460608201526080810188905260a08101879052612835614475565b888152602081018890526001600160a01b03861660a08201528615156101008083019190915260e08301519083015161286e91906120a0565b61287c82610100015161207b565b610100820180517fffffffffffffffffffffffffffffffffffffffffffffffffff00ffffffffffff16660100000000000017908190526001600160a01b03808d166000908152600260209081526040808320938f16835292905220556128e481836001613654565b6128f181608001516133bc565b896001600160a01b03168b6001600160a01b03167fe627235b9d9175f7943c18ce4517f64aefbb6ff056c02d8eefae333eca862a58888460400151856060015160405161294093929190614c97565b60405180910390a360408101516060820151608090920151909c919b509950975050505050505050565b6001600160a01b03808516600090815260076020908152604080832087851684528252808320938616835292815282822033835290522054818110156129c25760405162461bcd60e51b81526004016109c290614f1c565b6001600160a01b039485166000908152600760209081526040808320968816835295815285822094909616815292855283832033845290945291902091039055565b60008315612a89576001600160a01b038681166000908152600460209081526040808320938916835292815282822087835290522080547fffffff000000ffffffffffffffffffffffffffffffffffffffffffffffffffff167cffffff000000000000000000000000000000000000000000000000000060d086901b16179055612abe565b7fffffffffffffffffffffffffffffffffffffffffffffffffffff000000ffffff9190911665ffffff000000601884901b1617905b8215612b1b576001600160a01b038681166000908152600460209081526040808320938916835292815282822086835290522080547cffffffffffffffffffffffffffffffffffffffffffffffffffffffffff1660e886901b1790555b50949350505050565b7fffffffffffffffffffffffffffffffffffff000000000000000000000000ffff91909116908015612b77577fffffffffffffffffffffffffffffffffffffffffffffffffffffffffffff000091909116905b506001600160a01b039384166000908152600460209081526040808320959096168252938452848120928152919092529190912055565b6000806323b872dd60e01b858585604051602401612bce93929190614c05565b604051602081830303815290604052907bffffffffffffffffffffffffffffffffffffffffffffffffffffffff19166020820180517bffffffffffffffffffffffffffffffffffffffffffffffffffffffff83818316178352505050509050600080876001600160a01b031683604051612c489190614b7f565b6000604051808303816000865af19150503d8060008114612c85576040519150601f19603f3d011682016040523d82523d6000602084013e612c8a565b606091505b5091509150818015612cb4575080511580612cb4575080806020019051810190612cb49190614a60565b98975050505050505050565b60008063a9059cbb60e01b8484604051602401612cde929190614c7e565b604051602081830303815290604052907bffffffffffffffffffffffffffffffffffffffffffffffffffffffff19166020820180517bffffffffffffffffffffffffffffffffffffffffffffffffffffffff83818316178352505050509050600080866001600160a01b031683604051612d589190614b7f565b6000604051808303816000865af19150503d8060008114612d95576040519150601f19603f3d011682016040523d82523d6000602084013e612d9a565b606091505b5091509150818015612dc4575080511580612dc4575080806020019051810190612dc49190614a60565b93505050505b9392505050565b60008063e342481160e01b83604051602401612ded9190615547565b604080517fffffffffffffffffffffffffffffffffffffffffffffffffffffffffffffffe08184030181529190526020810180517bffffffffffffffffffffffffffffffffffffffffffffffffffffffff167fffffffff0000000000000000000000000000000000000000000000000000000090931692909217909152905062ffffff60c0840135604881901c919091169060601c60005a9050826040820482031015612eda57604080516060810182527f6d67762f6e6f74456e6f756768476173466f724d616b65725472616465000000815260006020820181905291810191909152612eda90612fff565b600080612ee884868861390b565b915091505a8303965081612f3c57612f3c60405180606001604052807f6d67762f6d616b6572526576657274000000000000000000000000000000000081526020018960001b815260200183815250612fff565b8015612f8857612f8860405180606001604052807f6d67762f6d616b657241626f727400000000000000000000000000000000000081526020018960001b815260200183815250612fff565b6000612fa6612f9a60208b018b614544565b86308c60800135612bae565b905080612ff357612ff360405180606001604052807f6d67762f6d616b65725472616e736665724661696c000000000000000000000081526020018a60001b815260200184815250612fff565b50505050505050919050565b606081fd5b61ffff81161490565b6fffffffffffffffffffffffffffffffff81161490565b818110156133485782828281811061303857fe5b90506080020160006004811061304a57fe5b60209081029190910135604080870191825286516001600160a01b039081166000908152600485528281208986018051841683529086528382208551835286528382205460608b019081528a518416835260058752848320915190931682528552828120935181529290935290205460c0860152516130c8906119ec565b158061310457508282828181106130db57fe5b9050608002016003600481106130ed57fe5b602002013560e860a08660c00151901b60001c901c115b1561311e576131198585858585600101613024565b613343565b600080600085858581811061312f57fe5b90506080020160016004811061314157fe5b602002013586868681811061315257fe5b90506080020160016004811061316457fe5b60200201356bffffffffffffffffffffffff16146131945760405162461bcd60e51b81526004016109c29061502f565b8585858181106131a057fe5b9050608002016002600481106131b257fe5b60200201358686868181106131c357fe5b9050608002016002600481106131d557fe5b60200201356bffffffffffffffffffffffff16146132055760405162461bcd60e51b81526004016109c290614f53565b85858581811061321157fe5b90506080020160016004811061322357fe5b6020020135608088015285858581811061323957fe5b90506080020160026004811061324b57fe5b602002013560a088015261325f8888613932565b919450925090507f6d67762f6e6f744578656375746564000000000000000000000000000000000081146132c3578651602088015160608901516101008a01516132bc93929160e881901c9160d09190911c62ffffff1690612a04565b6101008801525b6040870151608088015160a089015160608a015160c08b01516132ec8d8d8d8d60018e01613024565b60408c019490945260808b019290925260a08a0152606089015260c08801527f6d67762f6e6f7445786563757465640000000000000000000000000000000000811461333f5761333f8888858585613f4b565b5050505b6133b5565b610100840180517fffffffffffffffffffffffffffffffffffffffffffffffffff00ffffffffffff169081905284516001600160a01b039081166000908152600260209081526040808320828a0151909416835292905220556133ab8585613ff0565b6133b58585610806565b5050505050565b8015611d96576000336001600160a01b0316826040516133db90614bee565b60006040518083038185875af1925050503d8060008114613418576040519150601f19603f3d011682016040523d82523d6000602084013e61341d565b606091505b50509050806108065760405162461bcd60e51b81526004016109c290615066565b60008060008060008560e0015190506000866080015182146134935786516001600160a01b039081166000908152600460209081526040808320828c015190941683529281528282208583529052205461349a565b8661014001515b90506134a5816119ec565b6134f257505061012085015185516001600160a01b039081166000908152600460209081526040808320828b0151909416835292815282822060189490941c62ffffff1680835293905220545b6134fd878284614099565b156135945760005b62ffffff60d083901c161561357d575086516001600160a01b039081166000908152600460209081526040808320828c0151909416835292815282822062ffffff60d086901c1680845291529190205490613561898383614099565b1561357157809350819250613577565b5061357d565b50613505565b5090925062ffffff60d082901c169150829061360c565b60005b60e882901c156135fe575086516001600160a01b039081166000908152600460209081526040808320828c0151909416835292815282822060e885901c808452915291902054906135e9898383614099565b156135f457506135fe565b9250905080613597565b5060e881901c935090915081905b8660800151841461361d5783613627565b61014087015160e81c5b876080015184146136385783613647565b61014088015160d01c62ffffff165b9550955050505050915091565b80801561367c57508261010001516136735760008260a001511161367c565b60008260800151115b801561368c575060008260400151115b1561387d5781516001600160a01b03908116600090815260056020908152604080832082870151909416835292815282822083860151835290529081205460c084015280806136db8686613932565b608088015160a089015160408a015160608b015160c08c015196995094975092955090939092907f6d67762f6e6f744578656375746564000000000000000000000000000000000086146137eb5760408b01518b511161373c576000613745565b60408b01518b51035b8a60800181815250508a606001518b60200151038a60a001818152505060e860188b60600151901b60001c901c8a6040018181525050600460008b600001516001600160a01b03166001600160a01b0316815260200190815260200160002060008b602001516001600160a01b03166001600160a01b0316815260200190815260200160002060008b604001518152602001908152602001600020548a60600181815250505b6138198b8b887f6d67762f6e6f74457865637574656400000000000000000000000000000000001415613654565b60408a0183905260808a0185905260a08a0184905260608a0182905260c08a018190527f6d67762f6e6f74457865637574656400000000000000000000000000000000008614613870576138708b8b8a8a8a613f4b565b5050505050505050613906565b61389c8260000151836020015160008560400151866101000151612a04565b7fffffffffffffffffffffffffffffffffffffffffffffffffff00ffffffffffff16610100830181905282516001600160a01b03908116600090815260026020908152604080832082880151909416835292905220556138fc8383613ff0565b6139068383610806565b505050565b6000806139166144cc565b60208185516020870160008a8af1905190969095509350505050565b6060810151608082015160a0830151600092839283926bffffffffffffffffffffffff607084901c81169360101c16919080830282850211156139a35750600095508594507f6d67762f6e6f74457865637574656400000000000000000000000000000000009350613f4492505050565b88610100015180156139b457508183105b806139cc57508861010001511580156139cc57508084105b156139e4576080880183905260a08801849052613a47565b88610100015115613a24578382028381816139fb57fe5b0615613a08576001613a0b565b60005b60ff16848281613a1757fe5b040160a08a015250613a47565b83613a355760808801839052613a47565b8381840281613a4057fe5b0460808901525b50505050600080306001600160a01b031663b24d1ee760e01b878960a00151604051602401613a779291906155c8565b604080517fffffffffffffffffffffffffffffffffffffffffffffffffffffffffffffffe08184030181529181526020820180517bffffffffffffffffffffffffffffffffffffffffffffffffffffffff167fffffffff00000000000000000000000000000000000000000000000000000000909416939093179092529051613b009190614b7f565b6000604051808303816000865af19150503d8060008114613b3d576040519150601f19603f3d011682016040523d82523d6000602084013e613b42565b606091505b50915091508115613caf5760c08701805160010190528051613b6d9082016020908101908301614ad0565b94507f6d67762f74726164655375636365737300000000000000000000000000000000925085602001516001600160a01b031686600001516001600160a01b03167f1d81940ff2c3ac549c8acefd7c1b2ffb24aacc8b3cfa309c22abc3de79727f9d88604001518a60a001518a608001518b60a00151604051613bf39493929190615617565b60405180910390a360e086015160501c60ff1615613c8a5760e086015160a08801516040517fef36094600000000000000000000000000000000000000000000000000000000815260609290921c9163ef36094691613c57918a91906004016155c8565b600060405180830381600087803b158015613c7157600080fd5b505af1158015613c85573d6000803e3d6000fd5b505050505b6080860151604088018051909101905260a08601516060880180519091019052613f01565b613cb881614146565b909650945092507f6d67762f6d616b65725265766572740000000000000000000000000000000000831480613d0c5750827f6d67762f6d616b657241626f7274000000000000000000000000000000000000145b80613d365750827f6d67762f6d616b65725472616e736665724661696c0000000000000000000000145b80613d605750827f6d67762f6d616b6572526563656976654661696c000000000000000000000000145b15613e695760e08701805160010190526020860151865160408089015160a0808c015160808c0151918c015193516001600160a01b0396871696909516947f1d59c048edb5397821854bd12cbe02242b82101c677f949d076d14eb7bd8343694613dcd9493918b9061563b565b60405180910390a360e086015160501c60ff1615613e645760e086015160a08801516040517fbec362dc00000000000000000000000000000000000000000000000000000000815260609290921c9163bec362dc91613e31918a91906004016155c8565b600060405180830381600087803b158015613e4b57600080fd5b505af1158015613e5f573d6000803e3d6000fd5b505050505b613f01565b827f6d67762f6e6f74456e6f756768476173466f724d616b657254726164650000001415613ea95760405162461bcd60e51b81526004016109c290614f8a565b827f6d67762f74616b65725472616e736665724661696c00000000000000000000001415613ee95760405162461bcd60e51b81526004016109c290614eae565b60405162461bcd60e51b81526004016109c290615177565b613f418660000151876020015188604001518960600151877f6d67762f747261646553756363657373000000000000000000000000000000001415612b24565b50505b9250925092565b807f6d67762f747261646553756363657373000000000000000000000000000000001415613f7c57613f7c84611d96565b60c084015160481c62ffffff1680841115613f95578093505b613fa385858303858561415a565b84019350817f6d67762f7472616465537563636573730000000000000000000000000000000014610fa257613fdd85858860e001516142bc565b6080870180519091019052505050505050565b600061271060f06008846101000151901b60001c901c8460400151028161401357fe5b049050801561405c576040830180518290039052815160005461404091906001600160a01b031683612cc0565b61405c5760405162461bcd60e51b81526004016109c29061532f565b6040830151156139065761407d82600001518460a001518560400151612cc0565b6139065760405162461bcd60e51b81526004016109c290614ff8565b6000816140a857506001612dca565b604084015160608501516bffffffffffffffffffffffff607086901c811692601087901c909116918084028284028082141561413957505087516001600160a01b039081166000908152600560209081526040808320828d015190941683529281528282208983529052205460a089015160489190911c62ffffff1691909102920291909110159250612dca915050565b119450612dca9350505050565b602081015160408201516060909201519092565b60008063eb87009e60e01b8660405180604001604052808781526020018681525060405160240161418c9291906155ee565b604080517fffffffffffffffffffffffffffffffffffffffffffffffffffffffffffffffe08184030181529190526020810180517bffffffffffffffffffffffffffffffffffffffffffffffffffffffff167fffffffff000000000000000000000000000000000000000000000000000000009093169290921790915260c087015190915060601c60005a905086604082048203101561423e5760405162461bcd60e51b81526004016109c2906150d4565b600061424b83898661390b565b5090505a82039450806142b05788602001516001600160a01b031689600001516001600160a01b03167fef1ddb0cef7570327ce5e13e763dda9ae57821b90f18d3b36a5f83997f913e318b604001516040516142a79190614cc3565b60405180910390a35b50505050949350505050565b60c0830151606084015160009162ffffff604882901c81169261ffff16603083901c8216840160189390931c9091169190910102633b9aca000281851115614302578194505b61010086015160009062ffffff603882901c811691879160509190911c168161432757fe5b0487010160f060b08960e00151901b60001c901c633b9aca00020290508181111561434f5750805b60c08701516143639060601c828403611d99565b9695505050505050565b6040805161016081018252600080825260208201819052918101829052606081018290526080810182905260a0810182905260c0810182905260e081018290526101008101829052610120810182905261014081019190915290565b6040518060a0016040528060008152602001600081526020016000815260200160008152602001600081525090565b604051806080016040528060006001600160a01b031681526020016000815260200160008152602001600081525090565b6040805161012081018252600080825260208201819052918101829052606081018290526080810182905260a0810182905260c0810182905260e0810182905261010081019190915290565b604051806101200160405280600081526020016000815260200160008152602001600081526020016000815260200160006001600160a01b0316815260200160008152602001600081526020016000151581525090565b60405180602001604052806001906020820280368337509192915050565b80356001600160a01b0381168114611a0257600080fd5b60008083601f840112614512578182fd5b50813567ffffffffffffffff811115614529578182fd5b6020830191508360206080830285010111156119e557600080fd5b600060208284031215614555578081fd5b612dca826144ea565b60008060408385031215614570578081fd5b614579836144ea565b9150614587602084016144ea565b90509250929050565b600080600080608085870312156145a5578182fd5b6145ae856144ea565b93506145bc602086016144ea565b92506145ca604086016144ea565b91506145d8606086016144ea565b905092959194509250565b60008060008060008060008060006101208a8c031215614601578485fd5b61460a8a6144ea565b985061461860208b016144ea565b975061462660408b016144ea565b965061463460608b016144ea565b955060808a0135945060a08a0135935060c08a013560ff81168114614657578384fd5b8093505060e08a013591506101008a013590509295985092959850929598565b6000806000806080858703121561468c578384fd5b614695856144ea565b93506146a3602086016144ea565b92506146b1604086016144ea565b9396929550929360600135925050565b6000806000806000608086880312156146d8578081fd5b6146e1866144ea565b94506146ef602087016144ea565b9350604086013567ffffffffffffffff81111561470a578182fd5b61471688828901614501565b909450925050606086013561472a81615698565b809150509295509295909350565b60008060008060008060a08789031215614750578182fd5b614759876144ea565b9550614767602088016144ea565b9450604087013567ffffffffffffffff811115614782578283fd5b61478e89828a01614501565b90955093505060608701356147a281615698565b91506147b0608088016144ea565b90509295509295509295565b6000806000606084860312156147d0578283fd5b6147d9846144ea565b92506147e7602085016144ea565b9150604084013590509250925092565b6000806000806080858703121561480c578081fd5b614815856144ea565b9350614823602086016144ea565b925060408501359150606085013561483a81615698565b939692955090935050565b6000806000806080858703121561485a578182fd5b614863856144ea565b9350614871602086016144ea565b93969395505050506040820135916060013590565b600080600080600060a0868803121561489d578283fd5b6148a6866144ea565b94506148b4602087016144ea565b93506040860135925060608601359150608086013561472a81615698565b60008060008060008060c087890312156148ea578384fd5b6148f3876144ea565b9550614901602088016144ea565b94506040870135935060608701359250608087013561491f81615698565b91506147b060a088016144ea565b60008060008060008060c08789031215614945578384fd5b61494e876144ea565b955061495c602088016144ea565b95989597505050506040840135936060810135936080820135935060a0909101359150565b600080600080600080600060e0888a03121561499b578081fd5b6149a4886144ea565b96506149b2602089016144ea565b96999698505050506040850135946060810135946080820135945060a0820135935060c0909101359150565b600080600080600080600080610100898b0312156149fa578182fd5b614a03896144ea565b9750614a1160208a016144ea565b979a9799505050506040860135956060810135956080820135955060a0820135945060c0820135935060e0909101359150565b600060208284031215614a55578081fd5b8135612dca81615698565b600060208284031215614a71578081fd5b8151612dca81615698565b600060208284031215614a8d578081fd5b5035919050565b600080828403610140811215614aa8578283fd5b61012080821215614ab7578384fd5b849350614ac58186016144ea565b925050509250929050565b600060208284031215614ae1578081fd5b5051919050565b60008060408385031215614afa578182fd5b505080516020909101519092909150565b6001600160a01b03169052565b6001600160a01b038082511683528060208301511660208401525060408101516040830152606081015160608301526080810151608083015260a081015160a083015260c081015160c083015260e081015160e08301526101008082015181840152505050565b60008251815b81811015614b9f5760208186018101518583015201614b85565b81811115614bad5782828501525b509190910192915050565b7f190100000000000000000000000000000000000000000000000000000000000081526002810192909252602282015260420190565b90565b6001600160a01b0391909116815260200190565b6001600160a01b039384168152919092166020820152604081019190915260600190565b6001600160a01b03979097168752602087019590955260408601939093526060850191909152608084015260a083015260c082015260e00190565b6001600160a01b0392831681529116602082015260400190565b6001600160a01b03929092168252602082015260400190565b6001600160a01b039390931683526020830191909152604082015260600190565b901515815260200190565b90815260200190565b9788526001600160a01b039687166020890152948616604088015292851660608701529316608085015260a084019290925260c083019190915260e08201526101000190565b918252602082015260400190565b93845260ff9290921660208401526040830152606082015260800190565b60208082526022908201527f6d67762f636f6e6669672f6f766572686561645f676173626173652f3234626960408201527f7473000000000000000000000000000000000000000000000000000000000000606082015260800190565b6020808252601c908201527f6d67762f7570646174654f666665722f756e617574686f72697a656400000000604082015260600190565b6020808252601a908201527f6d67762f636f6e6669672f64656e736974792f31323862697473000000000000604082015260600190565b6020808252601b908201527f6d67762f7065726d69742f696e76616c69645369676e61747572650000000000604082015260600190565b6020808252601e908201527f6d67762f77726974654f666665722f67617370726963652f3136626974730000604082015260600190565b60208082526012908201527f6d67762f7065726d69742f657870697265640000000000000000000000000000604082015260600190565b60208082526015908201527f6d67762f74616b65725472616e736665724661696c0000000000000000000000604082015260600190565b60208082526019908201527f6d67762f696e73756666696369656e7450726f766973696f6e00000000000000604082015260600190565b60208082526010908201527f6d67762f6c6f77416c6c6f77616e636500000000000000000000000000000000604082015260600190565b6020808252601c908201527f6d67762f736e697065732f74616b657247697665732f39366269747300000000604082015260600190565b6020808252601d908201527f6d67762f6e6f74456e6f756768476173466f724d616b65725472616465000000604082015260600190565b6020808252601d908201527f6d67762f77726974654f666665722f64656e736974792f746f6f4c6f77000000604082015260600190565b60208082526015908201527f6d67762f4d67764661696c546f50617954616b65720000000000000000000000604082015260600190565b6020808252601c908201527f6d67762f736e697065732f74616b657257616e74732f39366269747300000000604082015260600190565b60208082526017908201527f6d67762f73656e6450656e616c74795265766572746564000000000000000000604082015260600190565b6020808252601d908201527f6d67762f77726974654f666665722f6761737265712f746f6f48696768000000604082015260600190565b6020808252818101527f6d67762f6e6f74456e6f756768476173466f724d616b6572506f7374686f6f6b604082015260600190565b6020808252601a908201527f6d67762f636f6e6669672f67617370726963652f313662697473000000000000604082015260600190565b6020808252601d908201527f6d67762f6d4f726465722f74616b657257616e74732f31363062697473000000604082015260600190565b6020808252600d908201527f6d67762f737761704572726f7200000000000000000000000000000000000000604082015260600190565b6020808252601b908201527f6d67762f77726974654f666665722f67697665732f3936626974730000000000604082015260600190565b6020808252601b908201527f6d67762f77726974654f666665722f77616e74732f3936626974730000000000604082015260600190565b6020808252601d908201527f6d67762f726574726163744f666665722f756e617574686f72697a6564000000604082015260600190565b60208082526018908201527f6d67762f636f6e6669672f6761736d61782f3234626974730000000000000000604082015260600190565b6020808252601f908201527f6d67762f636f6e6669672f6f666665725f676173626173652f32346269747300604082015260600190565b60208082526013908201527f6d67762f6f6666657249644f766572666c6f7700000000000000000000000000604082015260600190565b6020808252601b908201527f6d67762f77726974654f666665722f67697665732f746f6f4c6f770000000000604082015260600190565b60208082526013908201527f6d67762f6665655472616e736665724661696c00000000000000000000000000604082015260600190565b60208082526017908201527f6d67762f666c6173686c6f616e2f70726f746563746564000000000000000000604082015260600190565b60208082526010908201527f6d67762f756e617574686f72697a656400000000000000000000000000000000604082015260600190565b60208082526014908201527f6d67762f636f6e6669672f6665652f3c3d353030000000000000000000000000604082015260600190565b6020808252601d908201527f6d67762f6d4f726465722f74616b657247697665732f31363062697473000000604082015260600190565b60208082526014908201527f6d67762f7265656e7472616e63794c6f636b6564000000000000000000000000604082015260600190565b60208082526008908201527f6d67762f64656164000000000000000000000000000000000000000000000000604082015260600190565b6020808252600c908201527f6d67762f696e6163746976650000000000000000000000000000000000000000604082015260600190565b825181526020808401518183015260408085015181840152606080860151818501526080958601519584019590955283516001600160a01b031660a08401529083015160c083015282015160e08201529101516101008201526101200190565b61012081016001600160a01b0361555d846144ea565b16825261556c602084016144ea565b6155796020840182614b0b565b5060408301356040830152606083013560608301526080830135608083015260a083013560a083015260c083013560c083015260e083013560e083015261010080840135818401525092915050565b61014081016155d78285614b18565b6001600160a01b0383166101208301529392505050565b61016081016155fd8285614b18565b825161012083015260208301516101408301529392505050565b9384526001600160a01b039290921660208401526040830152606082015260800190565b9485526001600160a01b0393909316602085015260408401919091526060830152608082015260a00190565b9283526020830191909152604082015260600190565b93845260208401929092526040830152606082015260800190565b8015158114611d9657600080fdfea264697066735822122054d8aca929b948f7e9a46b41e1f61798921257e6e811498424b22b8672cb994364736f6c63430007060033",
  "devdoc": {
    "kind": "dev",
    "methods": {},
    "version": 1
  },
  "userdoc": {
    "kind": "user",
    "methods": {},
    "version": 1
  },
  "storageLayout": {
    "storage": [
      {
        "astId": 8781,
        "contract": "cache/solpp-generated-contracts/Mangrove.sol:Mangrove",
        "label": "vault",
        "offset": 0,
        "slot": "0",
        "type": "t_address"
      },
      {
        "astId": 8783,
        "contract": "cache/solpp-generated-contracts/Mangrove.sol:Mangrove",
        "label": "global",
        "offset": 0,
        "slot": "1",
        "type": "t_bytes32"
      },
      {
        "astId": 8789,
        "contract": "cache/solpp-generated-contracts/Mangrove.sol:Mangrove",
        "label": "locals",
        "offset": 0,
        "slot": "2",
        "type": "t_mapping(t_address,t_mapping(t_address,t_bytes32))"
      },
      {
        "astId": 1600,
        "contract": "cache/solpp-generated-contracts/Mangrove.sol:Mangrove",
        "label": "governance",
        "offset": 0,
        "slot": "3",
        "type": "t_address"
      },
      {
        "astId": 2285,
        "contract": "cache/solpp-generated-contracts/Mangrove.sol:Mangrove",
        "label": "offers",
        "offset": 0,
        "slot": "4",
        "type": "t_mapping(t_address,t_mapping(t_address,t_mapping(t_uint256,t_bytes32)))"
      },
      {
        "astId": 2293,
        "contract": "cache/solpp-generated-contracts/Mangrove.sol:Mangrove",
        "label": "offerDetails",
        "offset": 0,
        "slot": "5",
        "type": "t_mapping(t_address,t_mapping(t_address,t_mapping(t_uint256,t_bytes32)))"
      },
      {
        "astId": 2297,
        "contract": "cache/solpp-generated-contracts/Mangrove.sol:Mangrove",
        "label": "balanceOf",
        "offset": 0,
        "slot": "6",
        "type": "t_mapping(t_address,t_uint256)"
      },
      {
        "astId": 7132,
        "contract": "cache/solpp-generated-contracts/Mangrove.sol:Mangrove",
        "label": "allowances",
        "offset": 0,
        "slot": "7",
        "type": "t_mapping(t_address,t_mapping(t_address,t_mapping(t_address,t_mapping(t_address,t_uint256))))"
      },
      {
        "astId": 7136,
        "contract": "cache/solpp-generated-contracts/Mangrove.sol:Mangrove",
        "label": "nonces",
        "offset": 0,
        "slot": "8",
        "type": "t_mapping(t_address,t_uint256)"
      }
    ],
    "types": {
      "t_address": {
        "encoding": "inplace",
        "label": "address",
        "numberOfBytes": "20"
      },
      "t_bytes32": {
        "encoding": "inplace",
        "label": "bytes32",
        "numberOfBytes": "32"
      },
      "t_mapping(t_address,t_bytes32)": {
        "encoding": "mapping",
        "key": "t_address",
        "label": "mapping(address => bytes32)",
        "numberOfBytes": "32",
        "value": "t_bytes32"
      },
      "t_mapping(t_address,t_mapping(t_address,t_bytes32))": {
        "encoding": "mapping",
        "key": "t_address",
        "label": "mapping(address => mapping(address => bytes32))",
        "numberOfBytes": "32",
        "value": "t_mapping(t_address,t_bytes32)"
      },
      "t_mapping(t_address,t_mapping(t_address,t_mapping(t_address,t_mapping(t_address,t_uint256))))": {
        "encoding": "mapping",
        "key": "t_address",
        "label": "mapping(address => mapping(address => mapping(address => mapping(address => uint256))))",
        "numberOfBytes": "32",
        "value": "t_mapping(t_address,t_mapping(t_address,t_mapping(t_address,t_uint256)))"
      },
      "t_mapping(t_address,t_mapping(t_address,t_mapping(t_address,t_uint256)))": {
        "encoding": "mapping",
        "key": "t_address",
        "label": "mapping(address => mapping(address => mapping(address => uint256)))",
        "numberOfBytes": "32",
        "value": "t_mapping(t_address,t_mapping(t_address,t_uint256))"
      },
      "t_mapping(t_address,t_mapping(t_address,t_mapping(t_uint256,t_bytes32)))": {
        "encoding": "mapping",
        "key": "t_address",
        "label": "mapping(address => mapping(address => mapping(uint256 => bytes32)))",
        "numberOfBytes": "32",
        "value": "t_mapping(t_address,t_mapping(t_uint256,t_bytes32))"
      },
      "t_mapping(t_address,t_mapping(t_address,t_uint256))": {
        "encoding": "mapping",
        "key": "t_address",
        "label": "mapping(address => mapping(address => uint256))",
        "numberOfBytes": "32",
        "value": "t_mapping(t_address,t_uint256)"
      },
      "t_mapping(t_address,t_mapping(t_uint256,t_bytes32))": {
        "encoding": "mapping",
        "key": "t_address",
        "label": "mapping(address => mapping(uint256 => bytes32))",
        "numberOfBytes": "32",
        "value": "t_mapping(t_uint256,t_bytes32)"
      },
      "t_mapping(t_address,t_uint256)": {
        "encoding": "mapping",
        "key": "t_address",
        "label": "mapping(address => uint256)",
        "numberOfBytes": "32",
        "value": "t_uint256"
      },
      "t_mapping(t_uint256,t_bytes32)": {
        "encoding": "mapping",
        "key": "t_uint256",
        "label": "mapping(uint256 => bytes32)",
        "numberOfBytes": "32",
        "value": "t_bytes32"
      },
      "t_uint256": {
        "encoding": "inplace",
        "label": "uint256",
        "numberOfBytes": "32"
      }
    }
  }
}