{
  "address": "0x1fA0d582B8aA298f634cdCDCCcB7972E913b2D8f",
  "abi": [
    {
      "inputs": [
        {
          "internalType": "address payable",
          "name": "_MGV",
          "type": "address"
        }
      ],
      "stateMutability": "nonpayable",
      "type": "constructor"
    },
    {
      "anonymous": false,
      "inputs": [
        {
          "indexed": true,
          "internalType": "address",
          "name": "user",
          "type": "address"
        },
        {
          "indexed": false,
          "internalType": "uint256",
          "name": "amount",
          "type": "uint256"
        }
      ],
      "name": "CreditMgvUser",
      "type": "event"
    },
    {
      "anonymous": false,
      "inputs": [
        {
          "indexed": true,
          "internalType": "address",
          "name": "user",
          "type": "address"
        },
        {
          "indexed": true,
          "internalType": "address",
          "name": "token",
          "type": "address"
        },
        {
          "indexed": false,
          "internalType": "uint256",
          "name": "amount",
          "type": "uint256"
        }
      ],
      "name": "CreditUserTokenBalance",
      "type": "event"
    },
    {
      "anonymous": false,
      "inputs": [
        {
          "indexed": true,
          "internalType": "address",
          "name": "user",
          "type": "address"
        },
        {
          "indexed": false,
          "internalType": "uint256",
          "name": "amount",
          "type": "uint256"
        }
      ],
      "name": "DebitMgvUser",
      "type": "event"
    },
    {
      "anonymous": false,
      "inputs": [
        {
          "indexed": true,
          "internalType": "address",
          "name": "user",
          "type": "address"
        },
        {
          "indexed": true,
          "internalType": "address",
          "name": "token",
          "type": "address"
        },
        {
          "indexed": false,
          "internalType": "uint256",
          "name": "amount",
          "type": "uint256"
        }
      ],
      "name": "DebitUserTokenBalance",
      "type": "event"
    },
    {
      "anonymous": false,
      "inputs": [
        {
          "indexed": true,
          "internalType": "address",
          "name": "outbound_tkn",
          "type": "address"
        },
        {
          "indexed": true,
          "internalType": "address",
          "name": "inbound_tkn",
          "type": "address"
        },
        {
          "indexed": true,
          "internalType": "uint256",
          "name": "offerId",
          "type": "uint256"
        },
        {
          "indexed": false,
          "internalType": "bytes32",
          "name": "reason",
          "type": "bytes32"
        }
      ],
      "name": "LogIncident",
      "type": "event"
    },
    {
      "anonymous": false,
      "inputs": [
        {
          "indexed": true,
          "internalType": "address",
          "name": "outbound_tkn",
          "type": "address"
        },
        {
          "indexed": true,
          "internalType": "address",
          "name": "inbound_tkn",
          "type": "address"
        },
        {
          "indexed": true,
          "internalType": "uint256",
          "name": "offerId",
          "type": "uint256"
        },
        {
          "indexed": false,
          "internalType": "address",
          "name": "owner",
          "type": "address"
        }
      ],
      "name": "NewOwnedOffer",
      "type": "event"
    },
    {
      "anonymous": false,
      "inputs": [
        {
          "indexed": true,
          "internalType": "address",
          "name": "base",
          "type": "address"
        },
        {
          "indexed": true,
          "internalType": "address",
          "name": "quote",
          "type": "address"
        },
        {
          "indexed": true,
          "internalType": "address",
          "name": "taker",
          "type": "address"
        },
        {
          "indexed": false,
          "internalType": "uint256",
          "name": "takerGot",
          "type": "uint256"
        },
        {
          "indexed": false,
          "internalType": "uint256",
          "name": "takerGave",
          "type": "uint256"
        },
        {
          "indexed": false,
          "internalType": "uint256",
          "name": "penalty",
          "type": "uint256"
        },
        {
          "indexed": false,
          "internalType": "uint256",
          "name": "restingOrderId",
          "type": "uint256"
        }
      ],
      "name": "OrderSummary",
      "type": "event"
    },
    {
      "inputs": [],
      "name": "MGV",
      "outputs": [
        {
          "internalType": "contract IMangrove",
          "name": "",
          "type": "address"
        }
      ],
      "stateMutability": "view",
      "type": "function"
    },
    {
      "inputs": [],
      "name": "OFR_GASREQ",
      "outputs": [
        {
          "internalType": "uint256",
          "name": "",
          "type": "uint256"
        }
      ],
      "stateMutability": "view",
      "type": "function"
    },
    {
      "inputs": [],
      "name": "OUTOFLIQUIDITY",
      "outputs": [
        {
          "internalType": "bytes32",
          "name": "",
          "type": "bytes32"
        }
      ],
      "stateMutability": "view",
      "type": "function"
    },
    {
      "inputs": [],
      "name": "PUTFAILURE",
      "outputs": [
        {
          "internalType": "bytes32",
          "name": "",
          "type": "bytes32"
        }
      ],
      "stateMutability": "view",
      "type": "function"
    },
    {
      "inputs": [],
      "name": "RENEGED",
      "outputs": [
        {
          "internalType": "bytes32",
          "name": "",
          "type": "bytes32"
        }
      ],
      "stateMutability": "view",
      "type": "function"
    },
    {
      "inputs": [],
      "name": "admin",
      "outputs": [
        {
          "internalType": "address",
          "name": "",
          "type": "address"
        }
      ],
      "stateMutability": "view",
      "type": "function"
    },
    {
      "inputs": [
        {
          "internalType": "address",
          "name": "outbound_tkn",
          "type": "address"
        },
        {
          "internalType": "uint256",
          "name": "amount",
          "type": "uint256"
        }
      ],
      "name": "approveMangrove",
      "outputs": [],
      "stateMutability": "nonpayable",
      "type": "function"
    },
    {
      "inputs": [],
      "name": "balanceOnMangrove",
      "outputs": [
        {
          "internalType": "uint256",
          "name": "",
          "type": "uint256"
        }
      ],
      "stateMutability": "view",
      "type": "function"
    },
    {
      "inputs": [
        {
          "internalType": "address",
          "name": "token",
          "type": "address"
        },
        {
          "internalType": "uint256",
          "name": "amount",
          "type": "uint256"
        }
      ],
      "name": "depositToken",
      "outputs": [
        {
          "internalType": "bool",
          "name": "success",
          "type": "bool"
        }
      ],
      "stateMutability": "nonpayable",
      "type": "function"
    },
    {
      "inputs": [
        {
          "internalType": "address",
          "name": "",
          "type": "address"
        },
        {
          "internalType": "address",
          "name": "",
          "type": "address"
        },
        {
          "internalType": "uint256",
          "name": "",
          "type": "uint256"
        }
      ],
      "name": "expiring",
      "outputs": [
        {
          "internalType": "uint256",
          "name": "",
          "type": "uint256"
        }
      ],
      "stateMutability": "view",
      "type": "function"
    },
    {
      "inputs": [],
      "name": "fundMangrove",
      "outputs": [],
      "stateMutability": "payable",
      "type": "function"
    },
    {
      "inputs": [
        {
          "internalType": "address",
          "name": "outbound_tkn",
          "type": "address"
        },
        {
          "internalType": "address",
          "name": "inbound_tkn",
          "type": "address"
        },
        {
          "internalType": "uint256",
          "name": "gasreq",
          "type": "uint256"
        },
        {
          "internalType": "uint256",
          "name": "gasprice",
          "type": "uint256"
        },
        {
          "internalType": "uint256",
          "name": "offerId",
          "type": "uint256"
        }
      ],
      "name": "getMissingProvision",
      "outputs": [
        {
          "internalType": "uint256",
          "name": "",
          "type": "uint256"
        }
      ],
      "stateMutability": "view",
      "type": "function"
    },
    {
      "inputs": [
        {
          "components": [
            {
              "internalType": "address",
              "name": "outbound_tkn",
              "type": "address"
            },
            {
              "internalType": "address",
              "name": "inbound_tkn",
              "type": "address"
            },
            {
              "internalType": "uint256",
              "name": "offerId",
              "type": "uint256"
            },
            {
              "internalType": "Offer.t",
              "name": "offer",
              "type": "uint256"
            },
            {
              "internalType": "uint256",
              "name": "wants",
              "type": "uint256"
            },
            {
              "internalType": "uint256",
              "name": "gives",
              "type": "uint256"
            },
            {
              "internalType": "OfferDetail.t",
              "name": "offerDetail",
              "type": "uint256"
            },
            {
              "internalType": "Global.t",
              "name": "global",
              "type": "uint256"
            },
            {
              "internalType": "Local.t",
              "name": "local",
              "type": "uint256"
            }
          ],
          "internalType": "struct MgvLib.SingleOrder",
          "name": "order",
          "type": "tuple"
        }
      ],
      "name": "makerExecute",
      "outputs": [
        {
          "internalType": "bytes32",
          "name": "ret",
          "type": "bytes32"
        }
      ],
      "stateMutability": "nonpayable",
      "type": "function"
    },
    {
      "inputs": [
        {
          "components": [
            {
              "internalType": "address",
              "name": "outbound_tkn",
              "type": "address"
            },
            {
              "internalType": "address",
              "name": "inbound_tkn",
              "type": "address"
            },
            {
              "internalType": "uint256",
              "name": "offerId",
              "type": "uint256"
            },
            {
              "internalType": "Offer.t",
              "name": "offer",
              "type": "uint256"
            },
            {
              "internalType": "uint256",
              "name": "wants",
              "type": "uint256"
            },
            {
              "internalType": "uint256",
              "name": "gives",
              "type": "uint256"
            },
            {
              "internalType": "OfferDetail.t",
              "name": "offerDetail",
              "type": "uint256"
            },
            {
              "internalType": "Global.t",
              "name": "global",
              "type": "uint256"
            },
            {
              "internalType": "Local.t",
              "name": "local",
              "type": "uint256"
            }
          ],
          "internalType": "struct MgvLib.SingleOrder",
          "name": "order",
          "type": "tuple"
        },
        {
          "components": [
            {
              "internalType": "bytes32",
              "name": "makerData",
              "type": "bytes32"
            },
            {
              "internalType": "bytes32",
              "name": "mgvData",
              "type": "bytes32"
            }
          ],
          "internalType": "struct MgvLib.OrderResult",
          "name": "result",
          "type": "tuple"
        }
      ],
      "name": "makerPosthook",
      "outputs": [],
      "stateMutability": "nonpayable",
      "type": "function"
    },
    {
      "inputs": [
        {
          "internalType": "address",
          "name": "",
          "type": "address"
        }
      ],
      "name": "mgvBalance",
      "outputs": [
        {
          "internalType": "uint256",
          "name": "",
          "type": "uint256"
        }
      ],
      "stateMutability": "view",
      "type": "function"
    },
    {
      "inputs": [
        {
          "internalType": "address",
          "name": "outbound_tkn",
          "type": "address"
        },
        {
          "internalType": "address",
          "name": "inbound_tkn",
          "type": "address"
        },
        {
          "internalType": "uint256",
          "name": "wants",
          "type": "uint256"
        },
        {
          "internalType": "uint256",
          "name": "gives",
          "type": "uint256"
        },
        {
          "internalType": "uint256",
          "name": "gasreq",
          "type": "uint256"
        },
        {
          "internalType": "uint256",
          "name": "gasprice",
          "type": "uint256"
        },
        {
          "internalType": "uint256",
          "name": "pivotId",
          "type": "uint256"
        }
      ],
      "name": "newOffer",
      "outputs": [
        {
          "internalType": "uint256",
          "name": "offerId",
          "type": "uint256"
        }
      ],
      "stateMutability": "payable",
      "type": "function"
    },
    {
      "inputs": [
        {
          "internalType": "address",
          "name": "reader",
          "type": "address"
        },
        {
          "internalType": "address",
          "name": "outbound_tkn",
          "type": "address"
        },
        {
          "internalType": "address",
          "name": "inbound_tkn",
          "type": "address"
        },
        {
          "internalType": "uint256",
          "name": "fromId",
          "type": "uint256"
        },
        {
          "internalType": "uint256",
          "name": "maxOffers",
          "type": "uint256"
        }
      ],
      "name": "offerOwners",
      "outputs": [
        {
          "internalType": "uint256",
          "name": "nextId",
          "type": "uint256"
        },
        {
          "internalType": "uint256[]",
          "name": "offerIds",
          "type": "uint256[]"
        },
        {
          "internalType": "address[]",
          "name": "__offerOwners",
          "type": "address[]"
        }
      ],
      "stateMutability": "view",
      "type": "function"
    },
    {
      "inputs": [
        {
          "internalType": "address",
          "name": "outbound_tkn",
          "type": "address"
        },
        {
          "internalType": "address",
          "name": "inbound_tkn",
          "type": "address"
        },
        {
          "internalType": "uint256",
          "name": "offerId",
          "type": "uint256"
        }
      ],
      "name": "ownerOf",
      "outputs": [
        {
          "internalType": "address",
          "name": "owner",
          "type": "address"
        }
      ],
      "stateMutability": "view",
      "type": "function"
    },
    {
      "inputs": [
        {
          "internalType": "address",
          "name": "token",
          "type": "address"
        },
        {
          "internalType": "address",
          "name": "receiver",
          "type": "address"
        },
        {
          "internalType": "uint256",
          "name": "amount",
          "type": "uint256"
        }
      ],
      "name": "redeemToken",
      "outputs": [
        {
          "internalType": "bool",
          "name": "success",
          "type": "bool"
        }
      ],
      "stateMutability": "nonpayable",
      "type": "function"
    },
    {
      "inputs": [
        {
          "internalType": "address",
          "name": "outbound_tkn",
          "type": "address"
        },
        {
          "internalType": "address",
          "name": "inbound_tkn",
          "type": "address"
        },
        {
          "internalType": "uint256",
          "name": "offerId",
          "type": "uint256"
        },
        {
          "internalType": "bool",
          "name": "deprovision",
          "type": "bool"
        }
      ],
      "name": "retractOffer",
      "outputs": [
        {
          "internalType": "uint256",
          "name": "received",
          "type": "uint256"
        }
      ],
      "stateMutability": "nonpayable",
      "type": "function"
    },
    {
      "inputs": [
        {
          "internalType": "address",
          "name": "_admin",
          "type": "address"
        }
      ],
      "name": "setAdmin",
      "outputs": [],
      "stateMutability": "nonpayable",
      "type": "function"
    },
    {
      "inputs": [
        {
          "internalType": "uint256",
          "name": "gasreq",
          "type": "uint256"
        }
      ],
      "name": "setGasreq",
      "outputs": [],
      "stateMutability": "nonpayable",
      "type": "function"
    },
    {
      "inputs": [
        {
          "components": [
            {
              "internalType": "address",
              "name": "base",
              "type": "address"
            },
            {
              "internalType": "address",
              "name": "quote",
              "type": "address"
            },
            {
              "internalType": "bool",
              "name": "partialFillNotAllowed",
              "type": "bool"
            },
            {
              "internalType": "bool",
              "name": "selling",
              "type": "bool"
            },
            {
              "internalType": "uint256",
              "name": "wants",
              "type": "uint256"
            },
            {
              "internalType": "uint256",
              "name": "gives",
              "type": "uint256"
            },
            {
              "internalType": "bool",
              "name": "restingOrder",
              "type": "bool"
            },
            {
              "internalType": "uint256",
              "name": "retryNumber",
              "type": "uint256"
            },
            {
              "internalType": "uint256",
              "name": "gasForMarketOrder",
              "type": "uint256"
            },
            {
              "internalType": "uint256",
              "name": "blocksToLiveForRestingOrder",
              "type": "uint256"
            }
          ],
          "internalType": "struct IOrderLogic.TakerOrder",
          "name": "tko",
          "type": "tuple"
        }
      ],
      "name": "take",
      "outputs": [
        {
          "components": [
            {
              "internalType": "uint256",
              "name": "takerGot",
              "type": "uint256"
            },
            {
              "internalType": "uint256",
              "name": "takerGave",
              "type": "uint256"
            },
            {
              "internalType": "uint256",
              "name": "bounty",
              "type": "uint256"
            },
            {
              "internalType": "uint256",
              "name": "offerId",
              "type": "uint256"
            }
          ],
          "internalType": "struct IOrderLogic.TakerOrderResult",
          "name": "res",
          "type": "tuple"
        }
      ],
      "stateMutability": "payable",
      "type": "function"
    },
    {
      "inputs": [
        {
          "internalType": "address",
          "name": "token",
          "type": "address"
        }
      ],
      "name": "tokenBalance",
      "outputs": [
        {
          "internalType": "uint256",
          "name": "",
          "type": "uint256"
        }
      ],
      "stateMutability": "view",
      "type": "function"
    },
    {
      "inputs": [
        {
          "internalType": "address",
          "name": "",
          "type": "address"
        },
        {
          "internalType": "address",
          "name": "",
          "type": "address"
        }
      ],
      "name": "tokenBalanceOf",
      "outputs": [
        {
          "internalType": "uint256",
          "name": "",
          "type": "uint256"
        }
      ],
      "stateMutability": "view",
      "type": "function"
    },
    {
      "inputs": [
        {
          "internalType": "address",
          "name": "outbound_tkn",
          "type": "address"
        },
        {
          "internalType": "address",
          "name": "inbound_tkn",
          "type": "address"
        },
        {
          "internalType": "uint256",
          "name": "wants",
          "type": "uint256"
        },
        {
          "internalType": "uint256",
          "name": "gives",
          "type": "uint256"
        },
        {
          "internalType": "uint256",
          "name": "gasreq",
          "type": "uint256"
        },
        {
          "internalType": "uint256",
          "name": "gasprice",
          "type": "uint256"
        },
        {
          "internalType": "uint256",
          "name": "pivotId",
          "type": "uint256"
        },
        {
          "internalType": "uint256",
          "name": "offerId",
          "type": "uint256"
        }
      ],
      "name": "updateOffer",
      "outputs": [],
      "stateMutability": "payable",
      "type": "function"
    },
    {
      "inputs": [
        {
          "internalType": "address payable",
          "name": "receiver",
          "type": "address"
        },
        {
          "internalType": "uint256",
          "name": "amount",
          "type": "uint256"
        }
      ],
      "name": "withdrawFromMangrove",
      "outputs": [
        {
          "internalType": "bool",
          "name": "noRevert",
          "type": "bool"
        }
      ],
      "stateMutability": "nonpayable",
      "type": "function"
    },
    {
      "stateMutability": "payable",
      "type": "receive"
    }
  ],
  "transactionHash": "0x3ef6f8ca7aaceb9ac8d86dfdbbddf695d70e4b456153a7fdbfbd163935fe1c81",
  "args": [
    "0xF3e339d8a0B989114412fa157Cc846ebaf4BCbd8"
  ],
  "solcInputHash": "5cf03287fe5e4b9b2afd116ea42be6e9",
  "bytecode": "0x6101006040527f6d67764f666665722f61626f72742f72656e65676564000000000000000000006080527f6d67764f666665722f61626f72742f7075744661696c6564000000000000000060a0527f6d67764f666665722f61626f72742f6765744661696c6564000000000000000060c052620186a06001553480156200008557600080fd5b50604051620043c9380380620043c9833981016040819052620000a891620000cc565b600080546001600160a01b031916331790556001600160a01b031660e052620000fe565b600060208284031215620000df57600080fd5b81516001600160a01b0381168114620000f757600080fd5b9392505050565b60805160a05160c05160e051614205620001c46000396000818161042d01528181610a0b01528181610ad401528181610d0701528181610f60015281816114c801528181611f320152818161246c0152818161255a015281816126a9015281816127b301528181612b0d01528181612be001528181612ca901528181612df601528181612f0d01528181612ffc01526134c50152600081816103c50152610e3501526000818161033e0152610df70152600081816103f90152610db901526142056000f3fe6080604052600436106101b05760003560e01c80637f7a1b99116100ec578063e428204d1161008a578063f851a44011610064578063f851a44014610594578063f92495e5146105c1578063faa030ec146105e1578063ff10c0dc146105e957600080fd5b8063e428204d14610510578063e4c34f8414610526578063eedc966a1461054657600080fd5b8063ad97db1b116100c6578063ad97db1b14610474578063aefe840314610494578063d1971159146104b4578063df242667146104e357600080fd5b80637f7a1b99146103b357806389dbacfe146103e757806399fa5e2d1461041b57600080fd5b8063458eda9a11610159578063572e59e311610133578063572e59e31461032c5780636a4f7691146103605780636c49c32c14610373578063704b6c021461039357600080fd5b8063458eda9a146102b957806349f6d2dc146102db5780634e7effa8146102ee57600080fd5b8063338b5dea1161018a578063338b5dea1461025757806334bd8931146102775780633d3d130d1461029957600080fd5b8063063df2d2146101bc5780630d71bdc3146101f15780631bea80061461021157600080fd5b366101b757005b600080fd5b3480156101c857600080fd5b506101dc6101d736600461378c565b61062f565b60405190151581526020015b60405180910390f35b3480156101fd57600080fd5b506101dc61020c3660046137b8565b6106a3565b34801561021d57600080fd5b5061024961022c3660046137f9565b600460209081526000928352604080842090915290825290205481565b6040519081526020016101e8565b34801561026357600080fd5b506101dc61027236600461378c565b6107a1565b34801561028357600080fd5b50610297610292366004613832565b6109d2565b005b3480156102a557600080fd5b506102976102b436600461385e565b610ad2565b3480156102c557600080fd5b5033600090815260036020526040902054610249565b6102496102e93660046138be565b610c4b565b3480156102fa57600080fd5b506102496103093660046137b8565b600560209081526000938452604080852082529284528284209052825290205481565b34801561033857600080fd5b506102497f000000000000000000000000000000000000000000000000000000000000000081565b61029761036e366004613920565b610cba565b34801561037f57600080fd5b5061024961038e36600461398b565b610d03565b34801561039f57600080fd5b506102976103ae3660046139a8565b610e5d565b3480156103bf57600080fd5b506102497f000000000000000000000000000000000000000000000000000000000000000081565b3480156103f357600080fd5b506102497f000000000000000000000000000000000000000000000000000000000000000081565b34801561042757600080fd5b5061044f7f000000000000000000000000000000000000000000000000000000000000000081565b60405173ffffffffffffffffffffffffffffffffffffffff90911681526020016101e8565b34801561048057600080fd5b5061024961048f3660046139d3565b610f0b565b3480156104a057600080fd5b506102976104af36600461378c565b610f23565b3480156104c057600080fd5b506104d46104cf366004613a26565b61102c565b6040516101e893929190613a81565b3480156104ef57600080fd5b506102496104fe3660046139a8565b60036020526000908152604090205481565b34801561051c57600080fd5b5061024960015481565b34801561053257600080fd5b50610249610541366004613b1d565b6111cf565b34801561055257600080fd5b506102496105613660046139a8565b73ffffffffffffffffffffffffffffffffffffffff16600090815260046020908152604080832033845290915290205490565b3480156105a057600080fd5b5060005461044f9073ffffffffffffffffffffffffffffffffffffffff1681565b3480156105cd57600080fd5b5061044f6105dc3660046137b8565b611227565b6102976112b8565b6105fc6105f7366004613b6e565b611314565b6040516101e891908151815260208083015190820152604080830151908201526060918201519181019190915260800190565b6000333014156106865760405162461bcd60e51b815260206004820152601260248201527f4d75746c692f6e6f5265656e7472616e6379000000000000000000000000000060448201526064015b60405180910390fd5b6106903383611e01565b61069a8383611f00565b90505b92915050565b6000333014156106f55760405162461bcd60e51b815260206004820152601260248201527f4d75746c692f6e6f5265656e7472616e63790000000000000000000000000000604482015260640161067d565b61070084338461208c565b6040517fa9059cbb00000000000000000000000000000000000000000000000000000000815273ffffffffffffffffffffffffffffffffffffffff84811660048301526024820184905285169063a9059cbb906044016020604051808303816000875af1158015610775573d6000803e3d6000fd5b505050506040513d601f19601f820116820180604052508101906107999190613b81565b949350505050565b6040517f70a08231000000000000000000000000000000000000000000000000000000008152306004820152600090819073ffffffffffffffffffffffffffffffffffffffff8516906370a0823190602401602060405180830381865afa158015610810573d6000803e3d6000fd5b505050506040513d601f19601f820116820180604052508101906108349190613b9e565b6040517f23b872dd0000000000000000000000000000000000000000000000000000000081523360048201523060248201526044810185905290915073ffffffffffffffffffffffffffffffffffffffff8516906323b872dd906064016020604051808303816000875af11580156108b0573d6000803e3d6000fd5b505050506040513d601f19601f820116820180604052508101906108d49190613b81565b6040517f70a082310000000000000000000000000000000000000000000000000000000081523060048201529092508390829073ffffffffffffffffffffffffffffffffffffffff8716906370a0823190602401602060405180830381865afa158015610945573d6000803e3d6000fd5b505050506040513d601f19601f820116820180604052508101906109699190613b9e565b6109739190613be6565b146109c05760405162461bcd60e51b815260206004820152601260248201527f4d756c74692f7472616e736665724661696c0000000000000000000000000000604482015260640161067d565b6109cb8433856121cf565b5092915050565b60005473ffffffffffffffffffffffffffffffffffffffff16331480610a2d57503373ffffffffffffffffffffffffffffffffffffffff7f000000000000000000000000000000000000000000000000000000000000000016145b610a795760405162461bcd60e51b815260206004820152601860248201527f416363657373436f6e74726f6c6c65642f496e76616c69640000000000000000604482015260640161067d565b808162ffffff1614610acd5760405162461bcd60e51b815260206004820152601860248201527f6d67764f666665722f6761737265712f6f766572666c6f770000000000000000604482015260640161067d565b600155565b7f000000000000000000000000000000000000000000000000000000000000000073ffffffffffffffffffffffffffffffffffffffff81161580610b2b57503373ffffffffffffffffffffffffffffffffffffffff8216145b610b775760405162461bcd60e51b815260206004820152601860248201527f416363657373436f6e74726f6c6c65642f496e76616c69640000000000000000604482015260640161067d565b81602001357f6d67762f747261646553756363657373000000000000000000000000000000001415610bb257610bac83612279565b50505050565b60408301803590610bc690602086016139a8565b73ffffffffffffffffffffffffffffffffffffffff16610be960208601866139a8565b73ffffffffffffffffffffffffffffffffffffffff167fd2c3f090769d843e1fc2e6ce65d60572e28f9163a5cfccbd6c1725c6a9263f2f8560000135604051610c3491815260200190565b60405180910390a4610bac83836123eb565b505050565b600033301415610c9d5760405162461bcd60e51b815260206004820152601260248201527f4d75746c692f6e6f5265656e7472616e63790000000000000000000000000000604482015260640161067d565b610cae888888888888883334612424565b98975050505050505050565b600080610ccf8a8a8a8a8a8a8a8a33346125ef565b91509150600082118190610cf65760405162461bcd60e51b815260040161067d9190613c29565b5050505050505050505050565b60007f000000000000000000000000000000000000000000000000000000000000000073ffffffffffffffffffffffffffffffffffffffff81161580610d5e57503373ffffffffffffffffffffffffffffffffffffffff8216145b610daa5760405162461bcd60e51b815260206004820152601860248201527f416363657373436f6e74726f6c6c65642f496e76616c69640000000000000000604482015260640161067d565b610db38361287e565b610ddf577f00000000000000000000000000000000000000000000000000000000000000009150610e57565b6000610def8460a001358561292a565b1115610e1d577f00000000000000000000000000000000000000000000000000000000000000009150610e57565b6000610e2d84608001358561296d565b1115610e57577f000000000000000000000000000000000000000000000000000000000000000091505b50919050565b60005473ffffffffffffffffffffffffffffffffffffffff163314610ec45760405162461bcd60e51b815260206004820152601860248201527f416363657373436f6e74726f6c6c65642f496e76616c69640000000000000000604482015260640161067d565b600080547fffffffffffffffffffffffff00000000000000000000000000000000000000001673ffffffffffffffffffffffffffffffffffffffff92909216919091179055565b6000610f1a8585858533612a21565b95945050505050565b6040517f095ea7b300000000000000000000000000000000000000000000000000000000815273ffffffffffffffffffffffffffffffffffffffff7f0000000000000000000000000000000000000000000000000000000000000000811660048301526024820183905283169063095ea7b3906044016020604051808303816000875af1158015610fb8573d6000803e3d6000fd5b505050506040513d601f19601f82011682018060405250810190610fdc9190613b81565b6110285760405162461bcd60e51b815260206004820152601560248201527f6d67764f666665722f617070726f76652f4661696c0000000000000000000000604482015260640161067d565b5050565b6040517f2c7e545f00000000000000000000000000000000000000000000000000000000815273ffffffffffffffffffffffffffffffffffffffff858116600483015284811660248301526044820184905260648201839052600091606091829190891690632c7e545f90608401600060405180830381865afa1580156110b7573d6000803e3d6000fd5b505050506040513d6000823e601f3d9081017fffffffffffffffffffffffffffffffffffffffffffffffffffffffffffffffe01682016040526110fd9190810190613e93565b50508051919450925067ffffffffffffffff81111561111e5761111e613c7a565b604051908082528060200260200182016040528015611147578160200160208202803683370190505b50905060005b82518110156111c35761117a888885848151811061116d5761116d613f88565b6020026020010151611227565b82828151811061118c5761118c613f88565b73ffffffffffffffffffffffffffffffffffffffff90921660209283029190910190910152806111bb81613fb7565b91505061114d565b50955095509592505050565b600080821561120e5760006111e5888886611227565b73ffffffffffffffffffffffffffffffffffffffff166000908152600360205260409020549150505b61121c818888888888612b8c565b979650505050505050565b73ffffffffffffffffffffffffffffffffffffffff80841660009081526002602090815260408083208685168452825280832085845290915290205416806112b15760405162461bcd60e51b815260206004820152601560248201527f6d756c7469557365722f756e6b6f776e4f666665720000000000000000000000604482015260640161067d565b9392505050565b333014156113085760405162461bcd60e51b815260206004820152601260248201527f4d75746c692f6e6f5265656e7472616e63790000000000000000000000000000604482015260640161067d565b6113123334612df4565b565b61133f6040518060800160405280600081526020016000815260200160008152602001600081525090565b6000806113526080850160608601613ff0565b6113785761136360208501856139a8565b61137360408601602087016139a8565b611395565b61138860408501602086016139a8565b61139560208601866139a8565b6040517f23b872dd00000000000000000000000000000000000000000000000000000000815233600482015230602482015260a08701356044820152919350915073ffffffffffffffffffffffffffffffffffffffff8216906323b872dd906064016020604051808303816000875af1158015611416573d6000803e3d6000fd5b505050506040513d601f19601f8201168201806040525081019061143a9190613b81565b6114865760405162461bcd60e51b815260206004820152601a60248201527f6d67764f726465722f6d6f2f7472616e73666572496e4661696c000000000000604482015260640161067d565b60005b61149860e0860135600161400d565b81101561165357610100850135158015906114b757508461010001355a105b156114c157611653565b60008060007f000000000000000000000000000000000000000000000000000000000000000073ffffffffffffffffffffffffffffffffffffffff1663fbffe5fd87878b608001358c60a001358d60600160208101906115219190613ff0565b61152c57600161152f565b60005b6040517fffffffff0000000000000000000000000000000000000000000000000000000060e088901b16815273ffffffffffffffffffffffffffffffffffffffff9586166004820152949093166024850152604484019190915260648301521515608482015260a4016060604051808303816000875af11580156115b7573d6000803e3d6000fd5b505050506040513d601f19601f820116820180604052508101906115db9190614025565b92509250925082876000018181516115f3919061400d565b90525060208701805183919061160a90839061400d565b90525060408701805182919061162190839061400d565b90525082158015611630575080155b1561163d57505050611653565b505050808061164b90613fb7565b915050611489565b50600061166283838787612e7f565b90506116746060860160408701613ff0565b158061167d5750805b80611693575061169360e0860160c08701613ff0565b6116df5760405162461bcd60e51b815260206004820152601960248201527f6d67764f726465722f6d6f2f6e6f5061727469616c46696c6c00000000000000604482015260640161067d565b8351156117cc5783516040517fa9059cbb000000000000000000000000000000000000000000000000000000008152336004820152602481019190915273ffffffffffffffffffffffffffffffffffffffff84169063a9059cbb906044016020604051808303816000875af115801561175c573d6000803e3d6000fd5b505050506040513d601f19601f820116820180604052508101906117809190613b81565b6117cc5760405162461bcd60e51b815260206004820152601b60248201527f6d67764f726465722f6d6f2f7472616e736665724f75744661696c0000000000604482015260640161067d565b6117dc60e0860160c08701613ff0565b80156117e6575080155b15611b89576118248284866000015188608001356118049190613be6565b60208801516118179060a08b0135613be6565b6001546000803334612424565b60608501523361183a60408701602088016139a8565b73ffffffffffffffffffffffffffffffffffffffff1661185d60208801886139a8565b86516020808901516040808b01516060808d01518351968752948601939093529084015282015273ffffffffffffffffffffffffffffffffffffffff91909116907fa16c499b3b691af8f869978a2377c2aa40f30ab4d39cbdf8bb163ff6e3e16b159060800160405180910390a46060840151611b0a576118e46060860160408701613ff0565b156119315760405162461bcd60e51b815260206004820152601960248201527f6d67764f726465722f6d6f2f6e6f5061727469616c46696c6c00000000000000604482015260640161067d565b8173ffffffffffffffffffffffffffffffffffffffff1663a9059cbb3386602001518860a001356119629190613be6565b6040517fffffffff0000000000000000000000000000000000000000000000000000000060e085901b16815273ffffffffffffffffffffffffffffffffffffffff909216600483015260248201526044016020604051808303816000875af11580156119d2573d6000803e3d6000fd5b505050506040513d601f19601f820116820180604052508101906119f69190613b81565b611a425760405162461bcd60e51b815260206004820152601a60248201527f6d67764f726465722f6d6f2f7472616e73666572496e4661696c000000000000604482015260640161067d565b6000846040015134611a54919061400d565b1115611b025760408401516000903390611a6e903461400d565b604051600081818185875af1925050503d8060008114611aaa576040519150601f19603f3d011682016040523d82523d6000602084013e611aaf565b606091505b5050905080611b005760405162461bcd60e51b815260206004820152601f60248201527f6d67764f726465722f6d6f2f726566756e6450726f766973696f6e4661696c00604482015260640161067d565b505b505050919050565b611b28823386602001518860a00135611b239190613be6565b6121cf565b61012085013515611b0257611b426101208601354361400d565b73ffffffffffffffffffffffffffffffffffffffff808416600090815260056020908152604080832093881683529281528282206060890151835290522055505050919050565b8173ffffffffffffffffffffffffffffffffffffffff1663a9059cbb3386602001518860a00135611bba9190613be6565b6040517fffffffff0000000000000000000000000000000000000000000000000000000060e085901b16815273ffffffffffffffffffffffffffffffffffffffff909216600483015260248201526044016020604051808303816000875af1158015611c2a573d6000803e3d6000fd5b505050506040513d601f19601f82011682018060405250810190611c4e9190613b81565b611c9a5760405162461bcd60e51b815260206004820152601a60248201527f6d67764f726465722f6d6f2f7472616e73666572496e4661696c000000000000604482015260640161067d565b6000846040015134611cac919061400d565b1115611d5a5760408401516000903390611cc6903461400d565b604051600081818185875af1925050503d8060008114611d02576040519150601f19603f3d011682016040523d82523d6000602084013e611d07565b606091505b5050905080611d585760405162461bcd60e51b815260206004820152601660248201527f6d67764f726465722f6d6f2f726566756e644661696c00000000000000000000604482015260640161067d565b505b33611d6b60408701602088016139a8565b73ffffffffffffffffffffffffffffffffffffffff16611d8e60208801886139a8565b86516020808901516040808b01518151948552928401919091528201526000606082015273ffffffffffffffffffffffffffffffffffffffff91909116907fa16c499b3b691af8f869978a2377c2aa40f30ab4d39cbdf8bb163ff6e3e16b159060800160405180910390a4505050919050565b73ffffffffffffffffffffffffffffffffffffffff8216600090815260036020526040902054811115611e765760405162461bcd60e51b815260206004820152601d60248201527f4d756c74692f64656269744f6e4d67762f696e73756666696369656e74000000604482015260640161067d565b73ffffffffffffffffffffffffffffffffffffffff821660009081526003602052604081208054839290611eab908490613be6565b909155505060405181815273ffffffffffffffffffffffffffffffffffffffff8316907fd50b865b3d9d927f026d3b8404e07f25d6beb1d111deab51bdc846bf8d0a860b906020015b60405180910390a25050565b6040517f2e1a7d4d000000000000000000000000000000000000000000000000000000008152600481018290526000907f000000000000000000000000000000000000000000000000000000000000000073ffffffffffffffffffffffffffffffffffffffff1690632e1a7d4d906024016020604051808303816000875af1158015611f90573d6000803e3d6000fd5b505050506040513d601f19601f82011682018060405250810190611fb49190613b81565b6120005760405162461bcd60e51b815260206004820152601e60248201527f6d67764f666665722f77697468647261772f7472616e736665724661696c0000604482015260640161067d565b73ffffffffffffffffffffffffffffffffffffffff831630146120835760405173ffffffffffffffffffffffffffffffffffffffff8416908390600081818185875af1925050503d8060008114612073576040519150601f19603f3d011682016040523d82523d6000602084013e612078565b606091505b50508091505061069d565b50600192915050565b8061209657505050565b73ffffffffffffffffffffffffffffffffffffffff8084166000908152600460209081526040808320938616835292905220548111156121185760405162461bcd60e51b815260206004820152601d60248201527f4d756c74692f6465626974546f6b656e2f696e73756666696369656e74000000604482015260640161067d565b73ffffffffffffffffffffffffffffffffffffffff80841660009081526004602090815260408083209386168352929052908120805483929061215c908490613be6565b925050819055508273ffffffffffffffffffffffffffffffffffffffff168273ffffffffffffffffffffffffffffffffffffffff167f7a97b405ee1bd89550b225932dbdd0431e30426b7c8f02f05b3cb0e1bdfb8476836040516121c291815260200190565b60405180910390a3505050565b73ffffffffffffffffffffffffffffffffffffffff80841660009081526004602090815260408083209386168352929052908120805483929061221390849061400d565b925050819055508273ffffffffffffffffffffffffffffffffffffffff168273ffffffffffffffffffffffffffffffffffffffff167fb2b1ec266d1bab793ae1d020eedf03e575cc390e5fb9e370cb099fdf2f61534d836040516121c291815260200190565b600061228482612fbb565b1561229157506001919050565b60006122bd6122a360208501856139a8565b6122b360408601602087016139a8565b8560400135611227565b90506122c9838261317f565b6122d65750600092915050565b73ffffffffffffffffffffffffffffffffffffffff8116600090815260036020526040902054612307908290611e01565b73ffffffffffffffffffffffffffffffffffffffff8116600090815260036020526040902054612338908290611f00565b612083576040830180359061235090602086016139a8565b73ffffffffffffffffffffffffffffffffffffffff1661237360208601866139a8565b73ffffffffffffffffffffffffffffffffffffffff167fd2c3f090769d843e1fc2e6ce65d60572e28f9163a5cfccbd6c1725c6a9263f2f6040516123da907f6d67764f726465722f706f7374686f6f6b2f7472616e73666572576569000000815260200190565b60405180910390a450600092915050565b6000806124186123fe60208601866139a8565b61240e60408701602088016139a8565b8660400135611227565b9050610799848261317f565b6040517f70a08231000000000000000000000000000000000000000000000000000000008152306004820152600090819073ffffffffffffffffffffffffffffffffffffffff7f000000000000000000000000000000000000000000000000000000000000000016906370a0823190602401602060405180830381865afa1580156124b3573d6000803e3d6000fd5b505050506040513d601f19601f820116820180604052508101906124d79190613b9e565b905062ffffff8711156124ea5760015496505b6040517f49f6d2dc00000000000000000000000000000000000000000000000000000000815273ffffffffffffffffffffffffffffffffffffffff8c811660048301528b81166024830152604482018b9052606482018a90526084820189905260a4820188905260c482018790527f000000000000000000000000000000000000000000000000000000000000000016906349f6d2dc90859060e40160206040518083038185885af11580156125a4573d6000803e3d6000fd5b50505050506040513d601f19601f820116820180604052508101906125c99190613b9e565b91506125d78b8b84876133f0565b6125e18482613494565b509998505050505050505050565b600060606125fe8c8c87611227565b73ffffffffffffffffffffffffffffffffffffffff168473ffffffffffffffffffffffffffffffffffffffff16146126785760405162461bcd60e51b815260206004820152601e60248201527f4d756c74692f7570646174654f666665722f756e617574686f72697a65640000604482015260640161067d565b6040517f70a082310000000000000000000000000000000000000000000000000000000081523060048201526000907f000000000000000000000000000000000000000000000000000000000000000073ffffffffffffffffffffffffffffffffffffffff16906370a0823190602401602060405180830381865afa158015612705573d6000803e3d6000fd5b505050506040513d601f19601f820116820180604052508101906127299190613b9e565b905062ffffff89111561273c5760015498505b6040517f6a4f769100000000000000000000000000000000000000000000000000000000815273ffffffffffffffffffffffffffffffffffffffff8e811660048301528d81166024830152604482018d9052606482018c9052608482018b905260a482018a905260c4820189905260e482018890527f00000000000000000000000000000000000000000000000000000000000000001690636a4f7691908690610104016000604051808303818588803b1580156127f957600080fd5b505af19350505050801561280b575060015b61285057612817614053565b806308c379a01415612844575061282c61406f565b806128375750612846565b60009350915061286f9050565b505b3d6000803e3d6000fd5b61285a8582613494565b50506040805160208101909152600081528491505b9a509a98505050505050505050565b60008060058161289160208601866139a8565b73ffffffffffffffffffffffffffffffffffffffff1673ffffffffffffffffffffffffffffffffffffffff16815260200190815260200160002060008460200160208101906128e091906139a8565b73ffffffffffffffffffffffffffffffffffffffff1681526020808201929092526040908101600090812086830135825290925290205490508015806112b1575043111592915050565b60008061293d6122a360208501856139a8565b905061295961295260408501602086016139a8565b8286613582565b6129635783610799565b5060009392505050565b6000806129806122a360208501856139a8565b9050600060048161299460208701876139a8565b73ffffffffffffffffffffffffffffffffffffffff908116825260208083019390935260409182016000908120918616815292529020549050848110156129ff576129ec6129e560208601866139a8565b838361208c565b6129f68186613be6565b9250505061069d565b612a16612a0f60208601866139a8565b838761208c565b60009250505061069d565b73ffffffffffffffffffffffffffffffffffffffff8581166000908152600260209081526040808320888516845282528083208784529091528120549091838116911614612ab15760405162461bcd60e51b815260206004820152601f60248201527f4d756c74692f726574726163744f666665722f756e617574686f72697a656400604482015260640161067d565b6040517fad97db1b00000000000000000000000000000000000000000000000000000000815273ffffffffffffffffffffffffffffffffffffffff878116600483015286811660248301526044820186905284151560648301527f0000000000000000000000000000000000000000000000000000000000000000169063ad97db1b906084016020604051808303816000875af1158015612b56573d6000803e3d6000fd5b505050506040513d601f19601f82011682018060405250810190612b7a9190613b9e565b90508015610f1a57610f1a828261369e565b6040517fcbf75c9a00000000000000000000000000000000000000000000000000000000815273ffffffffffffffffffffffffffffffffffffffff86811660048301528581166024830152600091829182917f00000000000000000000000000000000000000000000000000000000000000009091169063cbf75c9a906044016040805180830381865afa158015612c28573d6000803e3d6000fd5b505050506040513d601f19601f82011682018060405250810190612c4c9190614117565b6040517f5722647b00000000000000000000000000000000000000000000000000000000815273ffffffffffffffffffffffffffffffffffffffff8b811660048301528a81166024830152604482018890529294509092506000917f00000000000000000000000000000000000000000000000000000000000000001690635722647b90606401602060405180830381865afa158015612cf0573d6000803e3d6000fd5b505050506040513d601f19601f82011682018060405250810190612d149190613b9e565b9050600086604085901c61ffff161115612d37575061ffff604084901c16612d3a565b50855b62ffffff881115612d4b5760015497505b600081612d6162ffffff606087901c168b61400d565b612d6b919061413b565b612d7990633b9aca0061413b565b9050600061ffff602085901c16612da062ffffff603087901c811690604888901c1661400d565b612daa919061413b565b612db890633b9aca0061413b565b90506000612dc68e8361400d565b905082811015612ddf57612dda8184613be6565b612de2565b60005b9e9d5050505050505050505050505050565b7f000000000000000000000000000000000000000000000000000000000000000073ffffffffffffffffffffffffffffffffffffffff1663b60d4288826040518263ffffffff1660e01b81526004016000604051808303818588803b158015612e5c57600080fd5b505af1158015612e70573d6000803e3d6000fd5b5050505050611028828261369e565b6000612e916080840160608501613ff0565b15612ea9578260a00135826020015110159050610799565b612eb96080840160608501613ff0565b610799576040517fcbf75c9a00000000000000000000000000000000000000000000000000000000815273ffffffffffffffffffffffffffffffffffffffff868116600483015285811660248301526000917f00000000000000000000000000000000000000000000000000000000000000009091169063cbf75c9a906044016040805180830381865afa158015612f55573d6000803e3d6000fd5b505050506040513d601f19601f82011682018060405250810190612f799190614117565b91506127109050612f9661ffff60e884901c16608087013561413b565b612fa09190614178565b612fae906080860135613be6565b8351101591506107999050565b600080612fc783613720565b90506000612fd484613745565b905081612fe5575060019392505050565b73ffffffffffffffffffffffffffffffffffffffff7f000000000000000000000000000000000000000000000000000000000000000016636a4f769161302e60208701876139a8565b61303e60408801602089016139a8565b848660c08a013560481c62ffffff1660c08b013560201c61ffff1660608c013560c01c63ffffffff16604080517fffffffff0000000000000000000000000000000000000000000000000000000060e08b901b16815273ffffffffffffffffffffffffffffffffffffffff988916600482015297909616602488015260448701949094526064860192909252608485015260a484015260c483015287013560e482015261010401600060405180830381600087803b1580156130ff57600080fd5b505af1925050508015613110575060015b6131755761316a61312460208601866139a8565b61313460408701602088016139a8565b6040870135600161316561314b60208b018b6139a8565b61315b60408c0160208d016139a8565b8b60400135611227565b612a21565b506000949350505050565b5060019392505050565b60008060048161319260208701876139a8565b73ffffffffffffffffffffffffffffffffffffffff9081168252602080830193909352604091820160009081209187168152908352205491506131e2906131db908601866139a8565b8483613582565b61329657604084018035906131fa90602087016139a8565b73ffffffffffffffffffffffffffffffffffffffff1661321d60208701876139a8565b73ffffffffffffffffffffffffffffffffffffffff167fd2c3f090769d843e1fc2e6ce65d60572e28f9163a5cfccbd6c1725c6a9263f2f604051613284907f6d67764f726465722f72656465656d416c6c2f7472616e736665724f75740000815260200190565b60405180910390a4600091505061069d565b6132ad6132a660208601866139a8565b848361208c565b60006004816132c260408801602089016139a8565b73ffffffffffffffffffffffffffffffffffffffff90811682526020808301939093526040918201600090812091881681529083528190205492506133169161330f9188019088016139a8565b8583613582565b6133cb576040850180359061332e90602088016139a8565b73ffffffffffffffffffffffffffffffffffffffff1661335160208801886139a8565b73ffffffffffffffffffffffffffffffffffffffff167fd2c3f090769d843e1fc2e6ce65d60572e28f9163a5cfccbd6c1725c6a9263f2f6040516133b8907f6d67764f726465722f72656465656d416c6c2f7472616e73666572496e000000815260200190565b60405180910390a460009250505061069d565b6133e56133de60408701602088016139a8565b858361208c565b506001949350505050565b73ffffffffffffffffffffffffffffffffffffffff848116600081815260026020908152604080832088861680855290835281842088855283529281902080547fffffffffffffffffffffffff00000000000000000000000000000000000000001695871695861790555193845285939192917fabf04a4ce23225c02bd147297da7ffc10e7d29102d8678f1a63fdd2cfd71ff07910160405180910390a450505050565b6040517f70a082310000000000000000000000000000000000000000000000000000000081523060048201526000907f000000000000000000000000000000000000000000000000000000000000000073ffffffffffffffffffffffffffffffffffffffff16906370a0823190602401602060405180830381865afa158015613521573d6000803e3d6000fd5b505050506040513d601f19601f820116820180604052508101906135459190613b9e565b90508181141561355457505050565b8181111561356f57610c468361356a8484613be6565b61369e565b610c468361357d8385613be6565b611e01565b600081613591575060016112b1565b6040805173ffffffffffffffffffffffffffffffffffffffff8581166024830152604480830186905283518084039091018152606490920183526020820180517bffffffffffffffffffffffffffffffffffffffffffffffffffffffff167fa9059cbb00000000000000000000000000000000000000000000000000000000179052915160009283929088169161362891906141b3565b6000604051808303816000865af19150503d8060008114613665576040519150601f19603f3d011682016040523d82523d6000602084013e61366a565b606091505b50915091508180156136945750805115806136945750808060200190518101906136949190613b81565b9695505050505050565b73ffffffffffffffffffffffffffffffffffffffff8216600090815260036020526040812080548392906136d390849061400d565b909155505060405181815273ffffffffffffffffffffffffffffffffffffffff8316907f2022607feefe24f258126b277628af517f5512dd9499fb3520eeff54cad1370390602001611ef4565b600060808201356bffffffffffffffffffffffff6060840135165b61069d9190613be6565b600060a0820135606080840135901c6bffffffffffffffffffffffff1661373b565b73ffffffffffffffffffffffffffffffffffffffff8116811461378957600080fd5b50565b6000806040838503121561379f57600080fd5b82356137aa81613767565b946020939093013593505050565b6000806000606084860312156137cd57600080fd5b83356137d881613767565b925060208401356137e881613767565b929592945050506040919091013590565b6000806040838503121561380c57600080fd5b823561381781613767565b9150602083013561382781613767565b809150509250929050565b60006020828403121561384457600080fd5b5035919050565b60006101208284031215610e5757600080fd5b60008082840361016081121561387357600080fd5b61387d858561384b565b925060407ffffffffffffffffffffffffffffffffffffffffffffffffffffffffffffffee0820112156138af57600080fd5b50610120830190509250929050565b600080600080600080600060e0888a0312156138d957600080fd5b87356138e481613767565b965060208801356138f481613767565b96999698505050506040850135946060810135946080820135945060a0820135935060c0909101359150565b600080600080600080600080610100898b03121561393d57600080fd5b883561394881613767565b9750602089013561395881613767565b979a9799505050506040860135956060810135956080820135955060a0820135945060c0820135935060e0909101359150565b6000610120828403121561399e57600080fd5b61069a838361384b565b6000602082840312156139ba57600080fd5b81356112b181613767565b801515811461378957600080fd5b600080600080608085870312156139e957600080fd5b84356139f481613767565b93506020850135613a0481613767565b9250604085013591506060850135613a1b816139c5565b939692955090935050565b600080600080600060a08688031215613a3e57600080fd5b8535613a4981613767565b94506020860135613a5981613767565b93506040860135613a6981613767565b94979396509394606081013594506080013592915050565b6000606082018583526020606081850152818651808452608086019150828801935060005b81811015613ac257845183529383019391830191600101613aa6565b50508481036040860152855180825290820192508186019060005b81811015613b0f57825173ffffffffffffffffffffffffffffffffffffffff1685529383019391830191600101613add565b509298975050505050505050565b600080600080600060a08688031215613b3557600080fd5b8535613b4081613767565b94506020860135613b5081613767565b94979496505050506040830135926060810135926080909101359150565b60006101408284031215610e5757600080fd5b600060208284031215613b9357600080fd5b81516112b1816139c5565b600060208284031215613bb057600080fd5b5051919050565b7f4e487b7100000000000000000000000000000000000000000000000000000000600052601160045260246000fd5b600082821015613bf857613bf8613bb7565b500390565b60005b83811015613c18578181015183820152602001613c00565b83811115610bac5750506000910152565b6020815260008251806020840152613c48816040850160208701613bfd565b601f017fffffffffffffffffffffffffffffffffffffffffffffffffffffffffffffffe0169190910160400192915050565b7f4e487b7100000000000000000000000000000000000000000000000000000000600052604160045260246000fd5b6080810181811067ffffffffffffffff82111715613cc957613cc9613c7a565b60405250565b7fffffffffffffffffffffffffffffffffffffffffffffffffffffffffffffffe0601f830116810181811067ffffffffffffffff82111715613d1357613d13613c7a565b6040525050565b600067ffffffffffffffff821115613d3457613d34613c7a565b5060051b60200190565b600082601f830112613d4f57600080fd5b81516020613d5c82613d1a565b60408051613d6a8382613ccf565b84815260079490941b8601830193838101925087851115613d8a57600080fd5b8387015b85811015613dde576080818a031215613da75760008081fd5b8251613db281613ca9565b815181528582015186820152838201518482015260608083015190820152845292840192608001613d8e565b50979650505050505050565b600082601f830112613dfb57600080fd5b81516020613e0882613d1a565b60408051613e168382613ccf565b84815260079490941b8601830193838101925087851115613e3657600080fd5b8387015b85811015613dde576080818a031215613e535760008081fd5b8251613e5e81613ca9565b8151613e6981613767565b81528186015186820152838201518482015260608083015190820152845292840192608001613e3a565b60008060008060808587031215613ea957600080fd5b8451935060208086015167ffffffffffffffff80821115613ec957600080fd5b818801915088601f830112613edd57600080fd5b8151613ee881613d1a565b604051613ef58282613ccf565b82815260059290921b840185019185810191508b831115613f1557600080fd5b938501935b82851015613f3357845182529385019390850190613f1a565b60408b01519098509450505080831115613f4c57600080fd5b613f5889848a01613d3e565b94506060880151925080831115613f6e57600080fd5b5050613f7c87828801613dea565b91505092959194509250565b7f4e487b7100000000000000000000000000000000000000000000000000000000600052603260045260246000fd5b60007fffffffffffffffffffffffffffffffffffffffffffffffffffffffffffffffff821415613fe957613fe9613bb7565b5060010190565b60006020828403121561400257600080fd5b81356112b1816139c5565b6000821982111561402057614020613bb7565b500190565b60008060006060848603121561403a57600080fd5b8351925060208401519150604084015190509250925092565b600060033d111561406c5760046000803e5060005160e01c5b90565b600060443d101561407d5790565b6040517ffffffffffffffffffffffffffffffffffffffffffffffffffffffffffffffffc803d016004833e81513d67ffffffffffffffff81602484011181841117156140cb57505050505090565b82850191508151818111156140e35750505050505090565b843d87010160208285010111156140fd5750505050505090565b61410c60208286010187613ccf565b509095945050505050565b6000806040838503121561412a57600080fd5b505080516020909101519092909150565b6000817fffffffffffffffffffffffffffffffffffffffffffffffffffffffffffffffff048311821515161561417357614173613bb7565b500290565b6000826141ae577f4e487b7100000000000000000000000000000000000000000000000000000000600052601260045260246000fd5b500490565b600082516141c5818460208701613bfd565b919091019291505056fea264697066735822122021af92ebed737a521d625fdc0ac6df8da9ce25da2d208ddcb3609bed2a09f0bf64736f6c634300080a0033",
  "devdoc": {
    "kind": "dev",
    "methods": {},
    "version": 1
  },
  "userdoc": {
    "events": {
      "LogIncident(address,address,uint256,bytes32)": {
        "notice": "Events "
      },
      "NewOwnedOffer(address,address,uint256,address)": {
        "notice": "Multi offer specific Events "
      }
    },
    "kind": "user",
    "methods": {
      "approveMangrove(address,uint256)": {
        "notice": "`this` contract needs to approve Mangrove to let it perform outbound token transfer at the end of the `makerExecute` function NB anyone can call this function"
      },
      "withdrawFromMangrove(address,uint256)": {
        "notice": "withdraws ETH from the bounty vault of the Mangrove. NB: `Mangrove.fund` function need not be called by `this` so is not included here. Warning: this function should not be called internally for msg.sender provision is being checked"
      }
    },
    "version": 1
  },
  "storageLayout": {
    "storage": [
      {
        "astId": 22713,
        "contract": "contracts/Strategies/OrderLogics/MangroveOrder.sol:MangroveOrder",
        "label": "admin",
        "offset": 0,
        "slot": "0",
        "type": "t_address"
      },
      {
        "astId": 11622,
        "contract": "contracts/Strategies/OrderLogics/MangroveOrder.sol:MangroveOrder",
        "label": "OFR_GASREQ",
        "offset": 0,
        "slot": "1",
        "type": "t_uint256"
      },
      {
        "astId": 13189,
        "contract": "contracts/Strategies/OrderLogics/MangroveOrder.sol:MangroveOrder",
        "label": "_offerOwners",
        "offset": 0,
        "slot": "2",
        "type": "t_mapping(t_address,t_mapping(t_address,t_mapping(t_uint256,t_address)))"
      },
      {
        "astId": 13193,
        "contract": "contracts/Strategies/OrderLogics/MangroveOrder.sol:MangroveOrder",
        "label": "mgvBalance",
        "offset": 0,
        "slot": "3",
        "type": "t_mapping(t_address,t_uint256)"
      },
      {
        "astId": 13199,
        "contract": "contracts/Strategies/OrderLogics/MangroveOrder.sol:MangroveOrder",
        "label": "tokenBalanceOf",
        "offset": 0,
        "slot": "4",
        "type": "t_mapping(t_address,t_mapping(t_address,t_uint256))"
      },
      {
        "astId": 19315,
        "contract": "contracts/Strategies/OrderLogics/MangroveOrder.sol:MangroveOrder",
        "label": "expiring",
        "offset": 0,
        "slot": "5",
        "type": "t_mapping(t_address,t_mapping(t_address,t_mapping(t_uint256,t_uint256)))"
      }
    ],
    "types": {
      "t_address": {
        "encoding": "inplace",
        "label": "address",
        "numberOfBytes": "20"
      },
      "t_mapping(t_address,t_mapping(t_address,t_mapping(t_uint256,t_address)))": {
        "encoding": "mapping",
        "key": "t_address",
        "label": "mapping(address => mapping(address => mapping(uint256 => address)))",
        "numberOfBytes": "32",
        "value": "t_mapping(t_address,t_mapping(t_uint256,t_address))"
      },
      "t_mapping(t_address,t_mapping(t_address,t_mapping(t_uint256,t_uint256)))": {
        "encoding": "mapping",
        "key": "t_address",
        "label": "mapping(address => mapping(address => mapping(uint256 => uint256)))",
        "numberOfBytes": "32",
        "value": "t_mapping(t_address,t_mapping(t_uint256,t_uint256))"
      },
      "t_mapping(t_address,t_mapping(t_address,t_uint256))": {
        "encoding": "mapping",
        "key": "t_address",
        "label": "mapping(address => mapping(address => uint256))",
        "numberOfBytes": "32",
        "value": "t_mapping(t_address,t_uint256)"
      },
      "t_mapping(t_address,t_mapping(t_uint256,t_address))": {
        "encoding": "mapping",
        "key": "t_address",
        "label": "mapping(address => mapping(uint256 => address))",
        "numberOfBytes": "32",
        "value": "t_mapping(t_uint256,t_address)"
      },
      "t_mapping(t_address,t_mapping(t_uint256,t_uint256))": {
        "encoding": "mapping",
        "key": "t_address",
        "label": "mapping(address => mapping(uint256 => uint256))",
        "numberOfBytes": "32",
        "value": "t_mapping(t_uint256,t_uint256)"
      },
      "t_mapping(t_address,t_uint256)": {
        "encoding": "mapping",
        "key": "t_address",
        "label": "mapping(address => uint256)",
        "numberOfBytes": "32",
        "value": "t_uint256"
      },
      "t_mapping(t_uint256,t_address)": {
        "encoding": "mapping",
        "key": "t_uint256",
        "label": "mapping(uint256 => address)",
        "numberOfBytes": "32",
        "value": "t_address"
      },
      "t_mapping(t_uint256,t_uint256)": {
        "encoding": "mapping",
        "key": "t_uint256",
        "label": "mapping(uint256 => uint256)",
        "numberOfBytes": "32",
        "value": "t_uint256"
      },
      "t_uint256": {
        "encoding": "inplace",
        "label": "uint256",
        "numberOfBytes": "32"
      }
    }
  }
}