{
  "address": "0xE8f707C273A979F34Dc409776554223f183c0078",
  "abi": [
    {
      "inputs": [
        {
          "internalType": "address payable",
          "name": "mgv",
          "type": "address"
        },
        {
          "internalType": "address",
          "name": "base",
          "type": "address"
        },
        {
          "internalType": "address",
          "name": "quote",
          "type": "address"
        },
        {
          "internalType": "uint256",
          "name": "base_0",
          "type": "uint256"
        },
        {
          "internalType": "uint256",
          "name": "quote_0",
          "type": "uint256"
        },
        {
          "internalType": "uint256",
          "name": "nslots",
          "type": "uint256"
        },
        {
          "internalType": "uint256",
          "name": "delta",
          "type": "uint256"
        }
      ],
      "stateMutability": "nonpayable",
      "type": "constructor"
    },
    {
      "anonymous": false,
      "inputs": [
        {
          "indexed": false,
          "internalType": "address",
          "name": "quote",
          "type": "address"
        },
        {
          "indexed": false,
          "internalType": "address",
          "name": "base",
          "type": "address"
        },
        {
          "indexed": false,
          "internalType": "uint256",
          "name": "offerId",
          "type": "uint256"
        }
      ],
      "name": "AskAtMinPosition",
      "type": "event"
    },
    {
      "anonymous": false,
      "inputs": [
        {
          "indexed": false,
          "internalType": "address",
          "name": "quote",
          "type": "address"
        },
        {
          "indexed": false,
          "internalType": "address",
          "name": "base",
          "type": "address"
        },
        {
          "indexed": false,
          "internalType": "uint256",
          "name": "offerId",
          "type": "uint256"
        }
      ],
      "name": "BidAtMaxPosition",
      "type": "event"
    },
    {
      "anonymous": false,
      "inputs": [
        {
          "indexed": true,
          "internalType": "address",
          "name": "outbound_tkn",
          "type": "address"
        },
        {
          "indexed": true,
          "internalType": "address",
          "name": "inbound_tkn",
          "type": "address"
        },
        {
          "indexed": false,
          "internalType": "uint256",
          "name": "offerId",
          "type": "uint256"
        },
        {
          "indexed": false,
          "internalType": "uint256",
          "name": "missingAmount",
          "type": "uint256"
        }
      ],
      "name": "GetFail",
      "type": "event"
    },
    {
      "anonymous": false,
      "inputs": [
        {
          "indexed": false,
          "internalType": "uint256",
          "name": "from",
          "type": "uint256"
        },
        {
          "indexed": false,
          "internalType": "uint256",
          "name": "to",
          "type": "uint256"
        }
      ],
      "name": "Initialized",
      "type": "event"
    },
    {
      "anonymous": false,
      "inputs": [
        {
          "indexed": true,
          "internalType": "address",
          "name": "outbound_tkn",
          "type": "address"
        },
        {
          "indexed": true,
          "internalType": "address",
          "name": "inbound_tkn",
          "type": "address"
        },
        {
          "indexed": true,
          "internalType": "uint256",
          "name": "offerId",
          "type": "uint256"
        },
        {
          "indexed": false,
          "internalType": "bytes",
          "name": "error_data",
          "type": "bytes"
        }
      ],
      "name": "LogIncident",
      "type": "event"
    },
    {
      "anonymous": false,
      "inputs": [
        {
          "indexed": true,
          "internalType": "address",
          "name": "outbound_tkn",
          "type": "address"
        },
        {
          "indexed": true,
          "internalType": "address",
          "name": "inbound_tkn",
          "type": "address"
        },
        {
          "indexed": false,
          "internalType": "uint256",
          "name": "offerId",
          "type": "uint256"
        },
        {
          "indexed": false,
          "internalType": "string",
          "name": "message",
          "type": "string"
        }
      ],
      "name": "PosthookFail",
      "type": "event"
    },
    {
      "anonymous": false,
      "inputs": [
        {
          "indexed": true,
          "internalType": "address",
          "name": "outbound_tkn",
          "type": "address"
        },
        {
          "indexed": true,
          "internalType": "address",
          "name": "inbound_tkn",
          "type": "address"
        },
        {
          "indexed": false,
          "internalType": "uint256",
          "name": "offerId",
          "type": "uint256"
        },
        {
          "indexed": false,
          "internalType": "uint256",
          "name": "missingAmount",
          "type": "uint256"
        }
      ],
      "name": "PutFail",
      "type": "event"
    },
    {
      "anonymous": false,
      "inputs": [
        {
          "indexed": true,
          "internalType": "address",
          "name": "outbound_tkn",
          "type": "address"
        },
        {
          "indexed": true,
          "internalType": "address",
          "name": "inbound_tkn",
          "type": "address"
        },
        {
          "indexed": false,
          "internalType": "uint256",
          "name": "offerId",
          "type": "uint256"
        }
      ],
      "name": "Reneged",
      "type": "event"
    },
    {
      "inputs": [],
      "name": "BASE",
      "outputs": [
        {
          "internalType": "address",
          "name": "",
          "type": "address"
        }
      ],
      "stateMutability": "view",
      "type": "function"
    },
    {
      "inputs": [],
      "name": "MGV",
      "outputs": [
        {
          "internalType": "contract IMangrove",
          "name": "",
          "type": "address"
        }
      ],
      "stateMutability": "view",
      "type": "function"
    },
    {
      "inputs": [],
      "name": "NSLOTS",
      "outputs": [
        {
          "internalType": "uint16",
          "name": "",
          "type": "uint16"
        }
      ],
      "stateMutability": "view",
      "type": "function"
    },
    {
      "inputs": [],
      "name": "OFR_GASREQ",
      "outputs": [
        {
          "internalType": "uint256",
          "name": "",
          "type": "uint256"
        }
      ],
      "stateMutability": "view",
      "type": "function"
    },
    {
      "inputs": [],
      "name": "QUOTE",
      "outputs": [
        {
          "internalType": "address",
          "name": "",
          "type": "address"
        }
      ],
      "stateMutability": "view",
      "type": "function"
    },
    {
      "inputs": [],
      "name": "admin",
      "outputs": [
        {
          "internalType": "address",
          "name": "",
          "type": "address"
        }
      ],
      "stateMutability": "view",
      "type": "function"
    },
    {
      "inputs": [
        {
          "internalType": "address",
          "name": "outbound_tkn",
          "type": "address"
        },
        {
          "internalType": "uint256",
          "name": "amount",
          "type": "uint256"
        }
      ],
      "name": "approveMangrove",
      "outputs": [],
      "stateMutability": "nonpayable",
      "type": "function"
    },
    {
      "inputs": [
        {
          "internalType": "address",
          "name": "outbound_tkn",
          "type": "address"
        },
        {
          "internalType": "address",
          "name": "inbound_tkn",
          "type": "address"
        },
        {
          "internalType": "uint256",
          "name": "gasreq",
          "type": "uint256"
        },
        {
          "internalType": "uint256",
          "name": "gasprice",
          "type": "uint256"
        },
        {
          "internalType": "uint256",
          "name": "offerId",
          "type": "uint256"
        }
      ],
      "name": "getMissingProvision",
      "outputs": [
        {
          "internalType": "uint256",
          "name": "",
          "type": "uint256"
        }
      ],
      "stateMutability": "view",
      "type": "function"
    },
    {
      "inputs": [],
      "name": "get_delta",
      "outputs": [
        {
          "internalType": "uint256",
          "name": "",
          "type": "uint256"
        }
      ],
      "stateMutability": "view",
      "type": "function"
    },
    {
      "inputs": [
        {
          "internalType": "bool",
          "name": "liveOnly",
          "type": "bool"
        }
      ],
      "name": "get_offers",
      "outputs": [
        {
          "internalType": "uint256[][2]",
          "name": "offers",
          "type": "uint256[][2]"
        }
      ],
      "stateMutability": "view",
      "type": "function"
    },
    {
      "inputs": [],
      "name": "get_shift",
      "outputs": [
        {
          "internalType": "int256",
          "name": "",
          "type": "int256"
        }
      ],
      "stateMutability": "view",
      "type": "function"
    },
    {
      "inputs": [
        {
          "internalType": "bool",
          "name": "base",
          "type": "bool"
        }
      ],
      "name": "get_treasury",
      "outputs": [
        {
          "internalType": "address",
          "name": "",
          "type": "address"
        }
      ],
      "stateMutability": "view",
      "type": "function"
    },
    {
      "inputs": [
        {
          "internalType": "uint256",
          "name": "lastBidPosition",
          "type": "uint256"
        },
        {
          "internalType": "bool",
          "name": "withBaseWhenBidding",
          "type": "bool"
        },
        {
          "internalType": "uint256",
          "name": "from",
          "type": "uint256"
        },
        {
          "internalType": "uint256",
          "name": "to",
          "type": "uint256"
        },
        {
          "internalType": "uint256[][2]",
          "name": "pivotIds",
          "type": "uint256[][2]"
        },
        {
          "internalType": "uint256[]",
          "name": "tokenAmounts",
          "type": "uint256[]"
        }
      ],
      "name": "initialize",
      "outputs": [],
      "stateMutability": "nonpayable",
      "type": "function"
    },
    {
      "inputs": [
        {
          "components": [
            {
              "internalType": "address",
              "name": "outbound_tkn",
              "type": "address"
            },
            {
              "internalType": "address",
              "name": "inbound_tkn",
              "type": "address"
            },
            {
              "internalType": "uint256",
              "name": "offerId",
              "type": "uint256"
            },
            {
              "internalType": "Offer.t",
              "name": "offer",
              "type": "uint256"
            },
            {
              "internalType": "uint256",
              "name": "wants",
              "type": "uint256"
            },
            {
              "internalType": "uint256",
              "name": "gives",
              "type": "uint256"
            },
            {
              "internalType": "OfferDetail.t",
              "name": "offerDetail",
              "type": "uint256"
            },
            {
              "internalType": "Global.t",
              "name": "global",
              "type": "uint256"
            },
            {
              "internalType": "Local.t",
              "name": "local",
              "type": "uint256"
            }
          ],
          "internalType": "struct MgvLib.SingleOrder",
          "name": "order",
          "type": "tuple"
        }
      ],
      "name": "makerExecute",
      "outputs": [
        {
          "internalType": "bytes32",
          "name": "ret",
          "type": "bytes32"
        }
      ],
      "stateMutability": "nonpayable",
      "type": "function"
    },
    {
      "inputs": [
        {
          "components": [
            {
              "internalType": "address",
              "name": "outbound_tkn",
              "type": "address"
            },
            {
              "internalType": "address",
              "name": "inbound_tkn",
              "type": "address"
            },
            {
              "internalType": "uint256",
              "name": "offerId",
              "type": "uint256"
            },
            {
              "internalType": "Offer.t",
              "name": "offer",
              "type": "uint256"
            },
            {
              "internalType": "uint256",
              "name": "wants",
              "type": "uint256"
            },
            {
              "internalType": "uint256",
              "name": "gives",
              "type": "uint256"
            },
            {
              "internalType": "OfferDetail.t",
              "name": "offerDetail",
              "type": "uint256"
            },
            {
              "internalType": "Global.t",
              "name": "global",
              "type": "uint256"
            },
            {
              "internalType": "Local.t",
              "name": "local",
              "type": "uint256"
            }
          ],
          "internalType": "struct MgvLib.SingleOrder",
          "name": "order",
          "type": "tuple"
        },
        {
          "components": [
            {
              "internalType": "bytes32",
              "name": "makerData",
              "type": "bytes32"
            },
            {
              "internalType": "bytes32",
              "name": "mgvData",
              "type": "bytes32"
            }
          ],
          "internalType": "struct MgvLib.OrderResult",
          "name": "result",
          "type": "tuple"
        }
      ],
      "name": "makerPosthook",
      "outputs": [],
      "stateMutability": "nonpayable",
      "type": "function"
    },
    {
      "inputs": [
        {
          "internalType": "address",
          "name": "outbound_tkn",
          "type": "address"
        },
        {
          "internalType": "address",
          "name": "inbound_tkn",
          "type": "address"
        },
        {
          "internalType": "uint256",
          "name": "wants",
          "type": "uint256"
        },
        {
          "internalType": "uint256",
          "name": "gives",
          "type": "uint256"
        },
        {
          "internalType": "uint256",
          "name": "gasreq",
          "type": "uint256"
        },
        {
          "internalType": "uint256",
          "name": "gasprice",
          "type": "uint256"
        },
        {
          "internalType": "uint256",
          "name": "pivotId",
          "type": "uint256"
        }
      ],
      "name": "newOffer",
      "outputs": [
        {
          "internalType": "uint256",
          "name": "offerId",
          "type": "uint256"
        }
      ],
      "stateMutability": "payable",
      "type": "function"
    },
    {
      "inputs": [],
      "name": "pause",
      "outputs": [],
      "stateMutability": "nonpayable",
      "type": "function"
    },
    {
      "inputs": [
        {
          "internalType": "address",
          "name": "token",
          "type": "address"
        },
        {
          "internalType": "address",
          "name": "receiver",
          "type": "address"
        },
        {
          "internalType": "uint256",
          "name": "amount",
          "type": "uint256"
        }
      ],
      "name": "redeemToken",
      "outputs": [
        {
          "internalType": "bool",
          "name": "success",
          "type": "bool"
        }
      ],
      "stateMutability": "nonpayable",
      "type": "function"
    },
    {
      "inputs": [],
      "name": "restart",
      "outputs": [],
      "stateMutability": "nonpayable",
      "type": "function"
    },
    {
      "inputs": [
        {
          "internalType": "address",
          "name": "outbound_tkn",
          "type": "address"
        },
        {
          "internalType": "address",
          "name": "inbound_tkn",
          "type": "address"
        },
        {
          "internalType": "uint256",
          "name": "offerId",
          "type": "uint256"
        },
        {
          "internalType": "bool",
          "name": "deprovision",
          "type": "bool"
        }
      ],
      "name": "retractOffer",
      "outputs": [
        {
          "internalType": "uint256",
          "name": "",
          "type": "uint256"
        }
      ],
      "stateMutability": "nonpayable",
      "type": "function"
    },
    {
      "inputs": [
        {
          "internalType": "uint256",
          "name": "ba",
          "type": "uint256"
        },
        {
          "internalType": "uint256",
          "name": "from",
          "type": "uint256"
        },
        {
          "internalType": "uint256",
          "name": "to",
          "type": "uint256"
        }
      ],
      "name": "retractOffers",
      "outputs": [
        {
          "internalType": "uint256",
          "name": "collected",
          "type": "uint256"
        }
      ],
      "stateMutability": "nonpayable",
      "type": "function"
    },
    {
      "inputs": [
        {
          "internalType": "address",
          "name": "_admin",
          "type": "address"
        }
      ],
      "name": "setAdmin",
      "outputs": [],
      "stateMutability": "nonpayable",
      "type": "function"
    },
    {
      "inputs": [
        {
          "internalType": "uint256",
          "name": "gasreq",
          "type": "uint256"
        }
      ],
      "name": "setGasreq",
      "outputs": [],
      "stateMutability": "nonpayable",
      "type": "function"
    },
    {
      "inputs": [
        {
          "internalType": "uint256",
          "name": "delta",
          "type": "uint256"
        }
      ],
      "name": "set_delta",
      "outputs": [],
      "stateMutability": "nonpayable",
      "type": "function"
    },
    {
      "inputs": [
        {
          "internalType": "uint256",
          "name": "m",
          "type": "uint256"
        }
      ],
      "name": "set_min_offer_type",
      "outputs": [],
      "stateMutability": "nonpayable",
      "type": "function"
    },
    {
      "inputs": [
        {
          "internalType": "int256",
          "name": "s",
          "type": "int256"
        },
        {
          "internalType": "bool",
          "name": "withBase",
          "type": "bool"
        },
        {
          "internalType": "uint256[]",
          "name": "amounts",
          "type": "uint256[]"
        }
      ],
      "name": "set_shift",
      "outputs": [],
      "stateMutability": "nonpayable",
      "type": "function"
    },
    {
      "inputs": [
        {
          "internalType": "bool",
          "name": "base",
          "type": "bool"
        },
        {
          "internalType": "address",
          "name": "treasury",
          "type": "address"
        }
      ],
      "name": "set_treasury",
      "outputs": [],
      "stateMutability": "nonpayable",
      "type": "function"
    },
    {
      "inputs": [
        {
          "internalType": "address",
          "name": "outbound_tkn",
          "type": "address"
        },
        {
          "internalType": "address",
          "name": "inbound_tkn",
          "type": "address"
        },
        {
          "internalType": "uint256",
          "name": "wants",
          "type": "uint256"
        },
        {
          "internalType": "uint256",
          "name": "gives",
          "type": "uint256"
        },
        {
          "internalType": "uint256",
          "name": "gasreq",
          "type": "uint256"
        },
        {
          "internalType": "uint256",
          "name": "gasprice",
          "type": "uint256"
        },
        {
          "internalType": "uint256",
          "name": "pivotId",
          "type": "uint256"
        },
        {
          "internalType": "uint256",
          "name": "offerId",
          "type": "uint256"
        }
      ],
      "name": "updateOffer",
      "outputs": [],
      "stateMutability": "payable",
      "type": "function"
    },
    {
      "inputs": [
        {
          "internalType": "address payable",
          "name": "receiver",
          "type": "address"
        },
        {
          "internalType": "uint256",
          "name": "amount",
          "type": "uint256"
        }
      ],
      "name": "withdrawFromMangrove",
      "outputs": [
        {
          "internalType": "bool",
          "name": "",
          "type": "bool"
        }
      ],
      "stateMutability": "nonpayable",
      "type": "function"
    },
    {
      "stateMutability": "payable",
      "type": "receive"
    }
  ],
  "transactionHash": "0x5192cb88e10f55b37d1e6e87276039baf548a0619ad010f61267f00e6df56d73",
  "args": [
    "0xa34b6ADdf822177258Cbd0A9c3a80600C1028Ca8",
    "0x63e537a69b3f5b03f4f46c5765c82861bd874b6e",
    "0xF61Cffd6071a8DB7cD5E8DF1D3A5450D9903cF1c",
    "1000000000000000000",
    "2000000000",
    50,
    "32000000"
  ],
  "solcInputHash": "69cd7af99e44d53a9857afc5eede7ec7",
  "bytecode": "0x6101a06040527f4d616e67726f76654f666665722f72656e6567656400000000000000000000006080527f4d616e67726f76654f666665722f7075744661696c757265000000000000000060a0527f4d616e67726f76654f666665722f6f75744f664c69717569646974790000000060c052620186a06001556009805460ff191690553480156200008f57600080fd5b5060405162005aef38038062005aef833981016040819052620000b2916200033a565b600080546001600160a01b031916331790556001600160a01b03871660e0528115801590620000e957506001600160a01b03871615155b8015620000f95750818261ffff16145b80156200010e575083846001600160601b0316145b801562000123575082836001600160601b0316145b6200017f5760405162461bcd60e51b815260206004820152602260248201527f4d616e676f2f636f6e7374727563746f722f696e76616c6964417267756d656e604482015261747360f01b606482015260840160405180910390fd5b6001600160a01b038087166101605285166101805261ffff821661010052816001600160401b03811115620001b857620001b8620003b5565b604051908082528060200260200182016040528015620001e2578160200160208202803683370190505b508051620001f991600291602090910190620002ba565b50816001600160401b03811115620002155762000215620003b5565b6040519080825280602002602001820160405280156200023f578160200160208202803683370190505b5080516200025691600391602090910190620002ba565b506001600160601b03938416610120529190921661014052600755505060016008819055600a8054336001600160a01b0319909116811790915560098054610100600160a81b03191661010090920291909117905562061a80905550620003cb9050565b828054828255906000526020600020908101928215620002f8579160200282015b82811115620002f8578251825591602001919060010190620002db565b50620003069291506200030a565b5090565b5b808211156200030657600081556001016200030b565b6001600160a01b03811681146200033757600080fd5b50565b600080600080600080600060e0888a0312156200035657600080fd5b8751620003638162000321565b6020890151909750620003768162000321565b6040890151909650620003898162000321565b80955050606088015193506080880151925060a0880151915060c0880151905092959891949750929550565b634e487b7160e01b600052604160045260246000fd5b60805160a05160c05160e05161010051610120516101405161016051610180516153fe620006f16000396000818161041c01528181610a3b01528181610bc901528181611b0201528181611c130152818161214e015281816121e2015281816128c20152818161299701528181612b0901528181612bdd01528181612da701528181612ea501528181612f380152818161313d015281816131e5015281816133ea015281816138f701528181613b9701528181613f40015281816140a80152818161422501528181614394015281816146a3015261475801526000818161058d01528181610a6301528181610ba101528181611ae101528181611c340152818161212d015281816122030152818161257b0152818161281e0152818161287e015281816128fd0152818161295a01528181612ae801528181612bfe01528181612dc801528181612e8401528181612f590152818161315e015281816131c4015281816133c90152818161387e015281816138bd01528181613b1e01528181613b5d01528181613e8701528181613f18015281816140870152818161424d015281816143b5015281816145af015281816146c80152614733015260006147d3015260008181613df70152613e5f0152600081816104f0015281816108b7015281816109200152818161098f0152818161186b015281816118a0015281816118da015281816119870152818161254001528181612700015281816129c901528181612a6c01528181612c2601528181612cb5015281816144a50152818161450d015261454c0152600081816103d001528181610a9901528181610bff01528181610cc701528181610d9001528181610f3f0152818161107e015281816110eb01528181611566015281816116ef015281816117a901528181611d4101528181611dd401528181611e9101528181611f370152818161201e01528181612321015281816123d201528181612f09015281816131950152818161345801528181613514015281816136b301528181613f8c01528181614058015281816142990152614365015260008181610e570152611358015260006112a2015260006111ed01526153fe6000f3fe6080604052600436106101c65760003560e01c8063945264d9116100f7578063c5dbec3811610095578063e428204d11610064578063e428204d14610545578063e4c34f841461055b578063ec342ad01461057b578063f851a440146105af57600080fd5b8063c5dbec381461049e578063ccbbcfc2146104be578063d4a1da08146104de578063dff6cb451461052557600080fd5b80639c579839116100d15780639c5798391461040a5780639d4ddea21461043e578063ad97db1b1461045e578063aefe84031461047e57600080fd5b8063945264d91461038957806399cb40c1146103a957806399fa5e2d146103be57600080fd5b80636a4f76911161016457806378c609981161013e57806378c609981461031f578063815502671461033f578063836dfffa1461035f5780638456cb591461037457600080fd5b80636a4f7691146102cc5780636c49c32c146102df578063704b6c02146102ff57600080fd5b80631efa880b116101a05780631efa880b1461023e57806334bd89311461026b5780633d3d130d1461028b57806349f6d2dc146102ab57600080fd5b8063063df2d2146101d25780630d71bdc3146102075780631ef3755d1461022757600080fd5b366101cd57005b600080fd5b3480156101de57600080fd5b506101f26101ed36600461488b565b6105cf565b60405190151581526020015b60405180910390f35b34801561021357600080fd5b506101f26102223660046148b7565b6106be565b34801561023357600080fd5b5061023c610829565b005b34801561024a57600080fd5b5061025e610259366004614906565b6108ad565b6040516101fe9190614923565b34801561027757600080fd5b5061023c6102863660046149b6565b610ca8565b34801561029757600080fd5b5061023c6102a63660046149e2565b610d8e565b6102be6102b9366004614a42565b610e81565b6040519081526020016101fe565b61023c6102da366004614aa4565b610fba565b3480156102eb57600080fd5b506102be6102fa366004614b0f565b6110e7565b34801561030b57600080fd5b5061023c61031a366004614b2c565b611388565b34801561032b57600080fd5b5061023c61033a366004614b49565b61141c565b34801561034b57600080fd5b5061023c61035a366004614bce565b611547565b34801561036b57600080fd5b506102be61166d565b34801561038057600080fd5b5061023c6116d0565b34801561039557600080fd5b5061023c6103a4366004614c2a565b61178a565b3480156103b557600080fd5b506102be611cc0565b3480156103ca57600080fd5b506103f27f000000000000000000000000000000000000000000000000000000000000000081565b6040516001600160a01b0390911681526020016101fe565b34801561041657600080fd5b506103f27f000000000000000000000000000000000000000000000000000000000000000081565b34801561044a57600080fd5b5061023c6104593660046149b6565b611d22565b34801561046a57600080fd5b506102be610479366004614ccd565b611db4565b34801561048a57600080fd5b5061023c61049936600461488b565b611f07565b3480156104aa57600080fd5b5061023c6104b93660046149b6565b611fff565b3480156104ca57600080fd5b506102be6104d9366004614d20565b612091565b3480156104ea57600080fd5b506105127f000000000000000000000000000000000000000000000000000000000000000081565b60405161ffff90911681526020016101fe565b34801561053157600080fd5b506103f2610540366004614906565b61225c565b34801561055157600080fd5b506102be60015481565b34801561056757600080fd5b506102be610576366004614d4c565b6122e4565b34801561058757600080fd5b506103f27f000000000000000000000000000000000000000000000000000000000000000081565b3480156105bb57600080fd5b506000546103f2906001600160a01b031681565b600080546001600160a01b0316331461062f5760405162461bcd60e51b815260206004820152601860248201527f416363657373436f6e74726f6c6c65642f496e76616c6964000000000000000060448201526064015b60405180910390fd5b6001600160a01b0383166106ab5760405162461bcd60e51b815260206004820152602160248201527f53696e676c65557365722f77697468647261774d47562f30785265636569766560448201527f72000000000000000000000000000000000000000000000000000000000000006064820152608401610626565b6106b583836123a0565b90505b92915050565b600080546001600160a01b031633146107195760405162461bcd60e51b815260206004820152601860248201527f416363657373436f6e74726f6c6c65642f496e76616c696400000000000000006044820152606401610626565b6001600160a01b0383166107955760405162461bcd60e51b815260206004820152602160248201527f53696e676c65557365722f72656465656d546f6b656e2f30785265636569766560448201527f72000000000000000000000000000000000000000000000000000000000000006064820152608401610626565b6040517fa9059cbb0000000000000000000000000000000000000000000000000000000081526001600160a01b0384811660048301526024820184905285169063a9059cbb906044016020604051808303816000875af11580156107fd573d6000803e3d6000fd5b505050506040513d601f19601f820116820180604052508101906108219190614d9d565b949350505050565b6000546001600160a01b031633146108835760405162461bcd60e51b815260206004820152601860248201527f416363657373436f6e74726f6c6c65642f496e76616c696400000000000000006044820152606401610626565b600980547fffffffffffffffffffffffffffffffffffffffffffffffffffffffffffffff00169055565b6108b561484f565b7f000000000000000000000000000000000000000000000000000000000000000061ffff1667ffffffffffffffff8111156108f2576108f2614dba565b60405190808252806020026020018201604052801561091b578160200160208202803683370190505b5081527f000000000000000000000000000000000000000000000000000000000000000061ffff1667ffffffffffffffff81111561095b5761095b614dba565b604051908082528060200260200182016040528015610984578160200160208202803683370190505b50602082015260005b7f000000000000000000000000000000000000000000000000000000000000000061ffff16811015610ca257600060026109c68361252b565b815481106109d6576109d6614de9565b90600052602060002001549050600060036109f08461252b565b81548110610a0057610a00614de9565b60009182526020822001546040517f68c13d6b0000000000000000000000000000000000000000000000000000000081526001600160a01b037f0000000000000000000000000000000000000000000000000000000000000000811660048301527f00000000000000000000000000000000000000000000000000000000000000008116602483015260448201839052919350610b16917f000000000000000000000000000000000000000000000000000000000000000016906368c13d6b906064015b602060405180830381865afa158015610ae1573d6000803e3d6000fd5b505050506040513d601f19601f82011682018060405250810190610b059190614e18565b6bffffffffffffffffffffffff1690565b1180610b20575084155b610b2b576000610b52565b6003610b368461252b565b81548110610b4657610b46614de9565b90600052602060002001545b8451805185908110610b6657610b66614de9565b60209081029190910101526040517f68c13d6b0000000000000000000000000000000000000000000000000000000081526001600160a01b037f0000000000000000000000000000000000000000000000000000000000000000811660048301527f00000000000000000000000000000000000000000000000000000000000000008116602483015260448201849052600091610c2e917f000000000000000000000000000000000000000000000000000000000000000016906368c13d6b90606401610ac4565b1180610c38575084155b610c43576000610c6a565b6002610c4e8461252b565b81548110610c5e57610c5e614de9565b90600052602060002001545b6020850151805185908110610c8157610c81614de9565b60200260200101818152505050508080610c9a90614e60565b91505061098d565b50919050565b6000546001600160a01b0316331480610ce95750336001600160a01b037f000000000000000000000000000000000000000000000000000000000000000016145b610d355760405162461bcd60e51b815260206004820152601860248201527f416363657373436f6e74726f6c6c65642f496e76616c696400000000000000006044820152606401610626565b808162ffffff1614610d895760405162461bcd60e51b815260206004820152601d60248201527f4d616e67726f76654f666665722f6761737265712f6f766572666c6f770000006044820152606401610626565b600155565b7f00000000000000000000000000000000000000000000000000000000000000006001600160a01b0381161580610dcd5750336001600160a01b038216145b610e195760405162461bcd60e51b815260206004820152601860248201527f416363657373436f6e74726f6c6c65642f496e76616c696400000000000000006044820152606401610626565b81602001357f6d67762f747261646553756363657373000000000000000000000000000000001415610e5357610e4e83612568565b505050565b81357f00000000000000000000000000000000000000000000000000000000000000001415610e4e57505050565b600080546001600160a01b03163314610edc5760405162461bcd60e51b815260206004820152601860248201527f416363657373436f6e74726f6c6c65642f496e76616c696400000000000000006044820152606401610626565b6040517f49f6d2dc0000000000000000000000000000000000000000000000000000000081526001600160a01b038981166004830152888116602483015260448201889052606482018790526084820186905260a4820185905260c482018490527f000000000000000000000000000000000000000000000000000000000000000016906349f6d2dc90349060e40160206040518083038185885af1158015610f89573d6000803e3d6000fd5b50505050506040513d601f19601f82011682018060405250810190610fae9190614e18565b98975050505050505050565b6000546001600160a01b031633146110145760405162461bcd60e51b815260206004820152601860248201527f416363657373436f6e74726f6c6c65642f496e76616c696400000000000000006044820152606401610626565b6040517f6a4f76910000000000000000000000000000000000000000000000000000000081526001600160a01b038981166004830152888116602483015260448201889052606482018790526084820186905260a4820185905260c4820184905260e482018390527f00000000000000000000000000000000000000000000000000000000000000001690636a4f7691903490610104016000604051808303818588803b1580156110c457600080fd5b505af11580156110d8573d6000803e3d6000fd5b50505050505050505050505050565b60007f00000000000000000000000000000000000000000000000000000000000000006001600160a01b03811615806111285750336001600160a01b038216145b6111745760405162461bcd60e51b815260206004820152601860248201527f416363657373436f6e74726f6c6c65642f496e76616c696400000000000000006044820152606401610626565b60095460ff16156112135761118f6040840160208501614b2c565b6001600160a01b03166111a56020850185614b2c565b6001600160a01b03167f5c3a327c0caf47aa560dbca16cce241483daac785fd723d9e0fb2af3256373bf85604001356040516111e391815260200190565b60405180910390a37f00000000000000000000000000000000000000000000000000000000000000009150610ca2565b60006112238460a0013585612812565b905080156112c95761123b6040850160208601614b2c565b6001600160a01b03166112516020860186614b2c565b6001600160a01b03167f3482722a7c71a098521214cdb975e1d9faa0b0163f768e89566f7acc36cffd0b866040013584604051611298929190918252602082015260400190565b60405180910390a37f0000000000000000000000000000000000000000000000000000000000000000925050610ca2565b60006112d98560800135866128f1565b90508015611380576112f16040860160208701614b2c565b6001600160a01b03166113076020870187614b2c565b6001600160a01b03167fc99fe658c80b903af0e1270f4a55564b3a7509294ab1052c6ab07f8198baea6787604001358460405161134e929190918252602082015260400190565b60405180910390a37f000000000000000000000000000000000000000000000000000000000000000093505050610ca2565b505050919050565b6000546001600160a01b031633146113e25760405162461bcd60e51b815260206004820152601860248201527f416363657373436f6e74726f6c6c65642f496e76616c696400000000000000006044820152606401610626565b600080547fffffffffffffffffffffffff0000000000000000000000000000000000000000166001600160a01b0392909216919091179055565b6000546001600160a01b031633146114765760405162461bcd60e51b815260206004820152601860248201527f416363657373436f6e74726f6c6c65642f496e76616c696400000000000000006044820152606401610626565b6001600160a01b0381166114cc5760405162461bcd60e51b815260206004820152601d60248201527f4d616e676f2f7365745f74726561737572792f307854726561737572790000006044820152606401610626565b811561150f57600980546001600160a01b038316610100027fffffffffffffffffffffff0000000000000000000000000000000000000000ff9091161790555050565b600a80547fffffffffffffffffffffffff0000000000000000000000000000000000000000166001600160a01b0383161790555b5050565b6000546001600160a01b03163314806115885750336001600160a01b037f000000000000000000000000000000000000000000000000000000000000000016145b6115d45760405162461bcd60e51b815260206004820152601860248201527f416363657373436f6e74726f6c6c65642f496e76616c696400000000000000006044820152606401610626565b600084126115e257836115eb565b6115eb84614e99565b81146116395760405162461bcd60e51b815260206004820181905260248201527f4d616e676f2f7365745f73686966742f6e6f74456e6f756768416d6f756e74736044820152606401610626565b600084121561165b5761165661164e85614e99565b8484846129c7565b611667565b61166784848484612cb3565b50505050565b600080546001600160a01b031633146116c85760405162461bcd60e51b815260206004820152601860248201527f416363657373436f6e74726f6c6c65642f496e76616c696400000000000000006044820152606401610626565b506006545b90565b6000546001600160a01b03163314806117115750336001600160a01b037f000000000000000000000000000000000000000000000000000000000000000016145b61175d5760405162461bcd60e51b815260206004820152601860248201527f416363657373436f6e74726f6c6c65642f496e76616c696400000000000000006044820152606401610626565b600980547fffffffffffffffffffffffffffffffffffffffffffffffffffffffffffffff00166001179055565b6000546001600160a01b03163314806117cb5750336001600160a01b037f000000000000000000000000000000000000000000000000000000000000000016145b6118175760405162461bcd60e51b815260206004820152601860248201527f416363657373436f6e74726f6c6c65642f496e76616c696400000000000000006044820152606401610626565b8484116118665760405162461bcd60e51b815260206004820152601d60248201527f4d616e676f2f696e697469616c697a652f696e76616c6964536c6963650000006044820152606401610626565b61ffff7f00000000000000000000000000000000000000000000000000000000000000001681148015611897575060015b80156118d157507f000000000000000000000000000000000000000000000000000000000000000061ffff166118cd8480614ed2565b9050145b801561190e57507f000000000000000000000000000000000000000000000000000000000000000061ffff1661190a6020850185614ed2565b9050145b6119805760405162461bcd60e51b815260206004820152602360248201527f4d616e676f2f696e697469616c697a652f696e76616c696441727261794c656e60448201527f67746800000000000000000000000000000000000000000000000000000000006064820152608401610626565b6119ab60017f0000000000000000000000000000000000000000000000000000000000000000614f3a565b61ffff1687106119fd5760405162461bcd60e51b815260206004820152601e60248201527f4d616e676f2f696e697469616c697a652f4e6f536c6f74466f7241736b7300006044820152606401610626565b845b84811015611c7d576000611a128261252b565b9050888211611b4e576000611a278680614ed2565b84818110611a3757611a37614de9565b90506020020135905060008111611a8c5760008311611a57576000611a8e565b6003611a6c611a67600186614f5d565b61252b565b81548110611a7c57611a7c614de9565b9060005260206000200154611a8e565b805b9050611ab6828a6001888888818110611aa957611aa9614de9565b9050602002013585612f05565b600060028381548110611acb57611acb614de9565b90600052602060002001541115611b4857611b467f00000000000000000000000000000000000000000000000000000000000000007f000000000000000000000000000000000000000000000000000000000000000060028581548110611b3457611b34614de9565b90600052602060002001546000611db4565b505b50611c6a565b6000611b5d6020870187614ed2565b84818110611b6d57611b6d614de9565b90506020020135905060008111611bbd5760008311611b8d576000611bbf565b6002611b9d611a67600186614f5d565b81548110611bad57611bad614de9565b9060005260206000200154611bbf565b805b9050611be8828a156001888888818110611bdb57611bdb614de9565b9050602002013585613191565b600060038381548110611bfd57611bfd614de9565b90600052602060002001541115611c6857611c667f00000000000000000000000000000000000000000000000000000000000000007f000000000000000000000000000000000000000000000000000000000000000060038581548110611b3457611b34614de9565b505b505b5080611c7581614e60565b9150506119ff565b60408051878152602081018790527f997896709b4e932ee42750e2e14ed1f7ab6c60bd911ff567aa2485cf0b20051b910160405180910390a15050505050505050565b600080546001600160a01b03163314611d1b5760405162461bcd60e51b815260206004820152601860248201527f416363657373436f6e74726f6c6c65642f496e76616c696400000000000000006044820152606401610626565b5060075490565b6000546001600160a01b0316331480611d635750336001600160a01b037f000000000000000000000000000000000000000000000000000000000000000016145b611daf5760405162461bcd60e51b815260206004820152601860248201527f416363657373436f6e74726f6c6c65642f496e76616c696400000000000000006044820152606401610626565b600855565b600080546001600160a01b0316331480611df65750336001600160a01b037f000000000000000000000000000000000000000000000000000000000000000016145b611e425760405162461bcd60e51b815260206004820152601860248201527f416363657373436f6e74726f6c6c65642f496e76616c696400000000000000006044820152606401610626565b6040517fad97db1b0000000000000000000000000000000000000000000000000000000081526001600160a01b03868116600483015285811660248301526044820185905283151560648301527f0000000000000000000000000000000000000000000000000000000000000000169063ad97db1b906084016020604051808303816000875af1158015611eda573d6000803e3d6000fd5b505050506040513d601f19601f82011682018060405250810190611efe9190614e18565b95945050505050565b6040517f095ea7b30000000000000000000000000000000000000000000000000000000081526001600160a01b037f0000000000000000000000000000000000000000000000000000000000000000811660048301526024820183905283169063095ea7b3906044016020604051808303816000875af1158015611f8f573d6000803e3d6000fd5b505050506040513d601f19601f82011682018060405250810190611fb39190614d9d565b6115435760405162461bcd60e51b815260206004820152601560248201527f6d67764f666665722f617070726f76652f4661696c00000000000000000000006044820152606401610626565b6000546001600160a01b03163314806120405750336001600160a01b037f000000000000000000000000000000000000000000000000000000000000000016145b61208c5760405162461bcd60e51b815260206004820152601860248201527f416363657373436f6e74726f6c6c65642f496e76616c696400000000000000006044820152606401610626565b600755565b600080546001600160a01b031633146120ec5760405162461bcd60e51b815260206004820152601860248201527f416363657373436f6e74726f6c6c65642f496e76616c696400000000000000006044820152606401610626565b825b8281101561225457841561219f5760006002828154811061211157612111614de9565b906000526020600020015411612128576000612192565b6121927f00000000000000000000000000000000000000000000000000000000000000007f00000000000000000000000000000000000000000000000000000000000000006002848154811061218057612180614de9565b90600052602060002001546001611db4565b61219c9083614f74565b91505b8415806121ac5750600185115b15612242576000600382815481106121c6576121c6614de9565b9060005260206000200154116121dd576000612235565b6122357f00000000000000000000000000000000000000000000000000000000000000007f00000000000000000000000000000000000000000000000000000000000000006003848154811061218057612180614de9565b61223f9083614f74565b91505b8061224c81614e60565b9150506120ee565b509392505050565b600080546001600160a01b031633146122b75760405162461bcd60e51b815260206004820152601860248201527f416363657373436f6e74726f6c6c65642f496e76616c696400000000000000006044820152606401610626565b816122cd57600a546001600160a01b03166106b8565b60095461010090046001600160a01b031692915050565b6040517f70a08231000000000000000000000000000000000000000000000000000000008152306004820152600090612396906001600160a01b037f000000000000000000000000000000000000000000000000000000000000000016906370a0823190602401602060405180830381865afa158015612368573d6000803e3d6000fd5b505050506040513d601f19601f8201168201806040525081019061238c9190614e18565b8787878787613411565b9695505050505050565b6040517f2e1a7d4d000000000000000000000000000000000000000000000000000000008152600481018290526000907f00000000000000000000000000000000000000000000000000000000000000006001600160a01b031690632e1a7d4d906024016020604051808303816000875af1158015612423573d6000803e3d6000fd5b505050506040513d601f19601f820116820180604052508101906124479190614d9d565b6124b95760405162461bcd60e51b815260206004820152602360248201527f4d616e67726f76654f666665722f77697468647261772f7472616e736665724660448201527f61696c00000000000000000000000000000000000000000000000000000000006064820152608401610626565b6001600160a01b0383163014612522576040516001600160a01b038416908390600081818185875af1925050503d8060008114612512576040519150601f19603f3d011682016040523d82523d6000602084013e612517565b606091505b5050809150506106b8565b50600192915050565b60006106b86006548361253e9190614f8c565b7f000000000000000000000000000000000000000000000000000000000000000061ffff1661365f565b61257181613686565b6001600160a01b037f0000000000000000000000000000000000000000000000000000000000000000166125a86020830183614b2c565b6001600160a01b031614156126d157604080820135600090815260056020522054806125d2575050565b60006125dd82613864565b9050801561260557610e4e6125f6611a67600184614f5d565b6000808660a001356000612f05565b6126156040840160208501614b2c565b6001600160a01b031661262b6020850185614b2c565b6001600160a01b03167f768269e5e6803a8bc566de9364d8347774fff5b114c5a2ec556ab0459a17242685604001356040516126c49181526040602082018190526024908201527f4d616e676f2f706f7374686f6f6b2f427579696e674f75744f6650726963655260608201527f616e676500000000000000000000000000000000000000000000000000000000608082015260a00190565b60405180910390a3505050565b604080820135600090815260046020522054806126ec575050565b60006126f782613864565b905061272460017f0000000000000000000000000000000000000000000000000000000000000000614f3a565b61ffff1681101561275057610e4e612740611a67836001614f74565b600160008660a001356000613191565b6127606040840160208501614b2c565b6001600160a01b03166127766020850185614b2c565b6001600160a01b03167f768269e5e6803a8bc566de9364d8347774fff5b114c5a2ec556ab0459a17242685604001356040516126c49181526040602082018190526025908201527f4d616e676f2f706f7374686f6f6b2f53656c6c696e674f75744f66507269636560608201527f52616e6765000000000000000000000000000000000000000000000000000000608082015260a00190565b50565b60006001600160a01b037f00000000000000000000000000000000000000000000000000000000000000001661284e6040840160208501614b2c565b6001600160a01b0316148015612874575060095461010090046001600160a01b03163014155b156128ab576128a47f00000000000000000000000000000000000000000000000000000000000000008484613877565b90506106b8565b600a546001600160a01b031630146128e8576128a47f00000000000000000000000000000000000000000000000000000000000000008484613877565b50600092915050565b60006001600160a01b037f00000000000000000000000000000000000000000000000000000000000000001661292a6020840184614b2c565b6001600160a01b0316148015612950575060095461010090046001600160a01b03163014155b15612980576128a47f00000000000000000000000000000000000000000000000000000000000000008484613b17565b600a546001600160a01b031630146129bd576128a47f00000000000000000000000000000000000000000000000000000000000000008484613b17565b6106b58383613d3b565b7f000000000000000000000000000000000000000000000000000000000000000061ffff168410612a605760405162461bcd60e51b815260206004820152602160248201527f4d616e676f2f73686966742f4e656761746976655368696674546f6f4c61726760448201527f65000000000000000000000000000000000000000000000000000000000000006064820152608401610626565b6000612a99612a9060017f0000000000000000000000000000000000000000000000000000000000000000614f3a565b61ffff1661252b565b90508460066000828254612aad9190615000565b90915550600090505b85811015612cab5760028281548110612ad157612ad1614de9565b9060005260206000200154600014612b3d57612b3b7f00000000000000000000000000000000000000000000000000000000000000007f000000000000000000000000000000000000000000000000000000000000000060028581548110611b3457611b34614de9565b505b6000612b4883613864565b90506000808715612b9757868685818110612b6557612b65614de9565b905060200201359050612b9083888887818110612b8457612b84614de9565b90506020020135613df3565b9150612bd7565b612bb983888887818110612bad57612bad614de9565b90506020020135613e42565b9050868685818110612bcd57612bcd614de9565b9050602002013591505b612c8b857f00000000000000000000000000000000000000000000000000000000000000007f00000000000000000000000000000000000000000000000000000000000000008486612c4a60017f0000000000000000000000000000000000000000000000000000000000000000614f3a565b61ffff168910612c5b576000613e85565b6003612c6b611a678b6001614f74565b81548110612c7b57612c7b614de9565b9060005260206000200154613e85565b83612c9581614e60565b945050612ca1856144fd565b9450505050612ab6565b505050505050565b7f000000000000000000000000000000000000000000000000000000000000000061ffff168410612d4c5760405162461bcd60e51b815260206004820152602160248201527f4d616e676f2f73686966742f706f7369746976655368696674546f6f4c61726760448201527f65000000000000000000000000000000000000000000000000000000000000006064820152608401610626565b6000612d58600061252b565b90508460066000828254612d6c9190614f8c565b90915550600090505b85811015612cab5760038281548110612d9057612d90614de9565b9060005260206000200154600014612dfc57612dfa7f00000000000000000000000000000000000000000000000000000000000000007f000000000000000000000000000000000000000000000000000000000000000060038581548110611b3457611b34614de9565b505b6000612e0783613864565b90506000808715612e4a57868685818110612e2457612e24614de9565b905060200201359150612e4383888887818110612b8457612b84614de9565b9050612e7e565b868685818110612e5c57612e5c614de9565b905060200201359050612e7b83888887818110612bad57612bad614de9565b91505b612ee5857f00000000000000000000000000000000000000000000000000000000000000007f0000000000000000000000000000000000000000000000000000000000000000848660008911612ed5576000613e85565b6002612c6b611a6760018c614f5d565b83612eef81614e60565b945050612efb85614545565b9450505050612d75565b60007f00000000000000000000000000000000000000000000000000000000000000006001600160a01b03166368c13d6b7f00000000000000000000000000000000000000000000000000000000000000007f000000000000000000000000000000000000000000000000000000000000000060038a81548110612f8b57612f8b614de9565b6000918252602090912001546040517fffffffff0000000000000000000000000000000000000000000000000000000060e086901b1681526001600160a01b0393841660048201529290911660248301526044820152606401602060405180830381865afa158015613001573d6000803e3d6000fd5b505050506040513d601f19601f820116820180604052508101906130259190614e18565b9050600061303287613864565b9050600080871561307857866130635761305e6bffffffffffffffffffffffff606086901c1687614f74565b613065565b855b91506130718383613df3565b90506130ab565b8661309a576130956bffffffffffffffffffffffff851687614f74565b61309c565b855b90506130a88382613e42565b91505b60006bffffffffffffffffffffffff85166131165785156130cd575084613137565b83156131055760036130e3611a67600187614f5d565b815481106130f3576130f3614de9565b90600052602060002001549050613137565b61310f8560e01c90565b9050613137565b60038a8154811061312957613129614de9565b906000526020600020015490505b6131858a7f00000000000000000000000000000000000000000000000000000000000000007f0000000000000000000000000000000000000000000000000000000000000000868686613e85565b50505050505050505050565b60007f00000000000000000000000000000000000000000000000000000000000000006001600160a01b03166368c13d6b7f00000000000000000000000000000000000000000000000000000000000000007f000000000000000000000000000000000000000000000000000000000000000060028a8154811061321757613217614de9565b6000918252602090912001546040517fffffffff0000000000000000000000000000000000000000000000000000000060e086901b1681526001600160a01b0393841660048201529290911660248301526044820152606401602060405180830381865afa15801561328d573d6000803e3d6000fd5b505050506040513d601f19601f820116820180604052508101906132b19190614e18565b905060006132be87613864565b9050600080871561330057866132eb576132e66bffffffffffffffffffffffff851687614f74565b6132ed565b855b91506132f98383613df3565b9050613337565b86613326576133216bffffffffffffffffffffffff606086901c1687614f74565b613328565b855b90506133348382613e42565b91505b60006bffffffffffffffffffffffff85166133a25785156133595750846133c3565b831561339157600261336f611a67600187614f5d565b8154811061337f5761337f614de9565b906000526020600020015490506133c3565b61339b8560e01c90565b90506133c3565b60028a815481106133b5576133b5614de9565b906000526020600020015490505b6131858a7f00000000000000000000000000000000000000000000000000000000000000007f0000000000000000000000000000000000000000000000000000000000000000858786613e85565b6040517fcbf75c9a0000000000000000000000000000000000000000000000000000000081526001600160a01b0386811660048301528581166024830152600091829182917f00000000000000000000000000000000000000000000000000000000000000009091169063cbf75c9a906044016040805180830381865afa1580156134a0573d6000803e3d6000fd5b505050506040513d601f19601f820116820180604052508101906134c49190615074565b6040517f5722647b0000000000000000000000000000000000000000000000000000000081526001600160a01b038b811660048301528a81166024830152604482018890529294509092506000917f00000000000000000000000000000000000000000000000000000000000000001690635722647b90606401602060405180830381865afa15801561355b573d6000803e3d6000fd5b505050506040513d601f19601f8201168201806040525081019061357f9190614e18565b9050600086604085901c61ffff1611156135a2575061ffff604084901c166135a5565b50855b62ffffff8811156135b65760015497505b6000816135cc62ffffff606087901c168b614f74565b6135d69190615098565b6135e490633b9aca00615098565b9050600061ffff602085901c1661360b62ffffff603087901c811690604888901c16614f74565b6136159190615098565b61362390633b9aca00615098565b905060006136318e83614f74565b90508281101561364a576136458184614f5d565b61364d565b60005b9e9d5050505050505050505050505050565b6000808312613672576128a48284615104565b61367c8284615118565b6128a49083614f8c565b600061369182614581565b90508061369c575050565b60006136a7836145a3565b90506001600160a01b037f000000000000000000000000000000000000000000000000000000000000000016636a4f76916136e56020860186614b2c565b6136f56040870160208801614b2c565b848660c089013560481c62ffffff1660c08a013560201c61ffff1660608b013560c01c63ffffffff16604080517fffffffff0000000000000000000000000000000000000000000000000000000060e08b901b1681526001600160a01b03988916600482015297909616602488015260448701949094526064860192909252608485015260a484015260c483015286013560e482015261010401600060405180830381600087803b1580156137a957600080fd5b505af19250505080156137ba575060015b610e4e576137c661512c565b806308c379a0141561385857506137db6151b9565b806137e6575061385a565b6137f66040850160208601614b2c565b6001600160a01b031661380c6020860186614b2c565b6001600160a01b03167f768269e5e6803a8bc566de9364d8347774fff5b114c5a2ec556ab0459a17242686604001358460405161384a9291906152cc565b60405180910390a350505050565b505b3d6000803e3d6000fd5b60006106b86006548361253e9190615000565b60008060007f00000000000000000000000000000000000000000000000000000000000000006001600160a01b0316866001600160a01b031614156138f05750506009547f00000000000000000000000000000000000000000000000000000000000000009061010090046001600160a01b0316613921565b5050600a547f0000000000000000000000000000000000000000000000000000000000000000906001600160a01b03165b6040517fa9059cbb0000000000000000000000000000000000000000000000000000000081526001600160a01b0382811660048301526024820187905283169063a9059cbb906044016020604051808303816000875af19250505080156139c3575060408051601f3d9081017fffffffffffffffffffffffffffffffffffffffffffffffffffffffffffffffe01682019092526139c091810190614d9d565b60015b613a6c573d8080156139f1576040519150601f19603f3d011682016040523d82523d6000602084013e6139f6565b606091505b5060408501803590613a0b9060208801614b2c565b6001600160a01b0316613a216020880188614b2c565b6001600160a01b03167f571c6a99fbcd17b1f71790d4830c4a356ad85ab9b87af15ca9cb8bf9e76dafb784604051613a5991906152e5565b60405180910390a4859350505050613b10565b8015613a7e5760009350505050613b10565b60408501803590613a929060208801614b2c565b6001600160a01b0316613aa86020880188614b2c565b6001600160a01b03167f571c6a99fbcd17b1f71790d4830c4a356ad85ab9b87af15ca9cb8bf9e76dafb7604051613a599060208082526014908201527f4d616e676f2f7472616e736665724661696c6564000000000000000000000000604082015260600190565b9392505050565b60008060007f00000000000000000000000000000000000000000000000000000000000000006001600160a01b0316866001600160a01b03161415613b905750506009547f00000000000000000000000000000000000000000000000000000000000000009061010090046001600160a01b0316613bc1565b5050600a547f0000000000000000000000000000000000000000000000000000000000000000906001600160a01b03165b6040517f23b872dd0000000000000000000000000000000000000000000000000000000081526001600160a01b038281166004830152306024830152604482018790528316906323b872dd906064016020604051808303816000875af1925050508015613c69575060408051601f3d9081017fffffffffffffffffffffffffffffffffffffffffffffffffffffffffffffffe0168201909252613c6691810190614d9d565b60015b613c97573d8080156139f1576040519150601f19603f3d011682016040523d82523d6000602084013e6139f6565b8015613ca95760009350505050613b10565b60408501803590613cbd9060208801614b2c565b6001600160a01b0316613cd36020880188614b2c565b6001600160a01b03167f571c6a99fbcd17b1f71790d4830c4a356ad85ab9b87af15ca9cb8bf9e76dafb7604051613a599060208082526018908201527f4d616e676f2f7472616e7366657246726f6d4661696c65640000000000000000604082015260600190565b600080613d4b6020840184614b2c565b6040517f70a082310000000000000000000000000000000000000000000000000000000081523060048201526001600160a01b0391909116906370a0823190602401602060405180830381865afa158015613daa573d6000803e3d6000fd5b505050506040513d601f19601f82011682018060405250810190613dce9190614e18565b9050838110613de15760009150506106b8565b613deb8185614f5d565b9150506106b8565b60007f00000000000000000000000000000000000000000000000000000000000000006bffffffffffffffffffffffff1682613e2e8561466d565b613e389190615098565b6106b591906152f8565b6000613e4d8361466d565b613e386bffffffffffffffffffffffff7f00000000000000000000000000000000000000000000000000000000000000001684615098565b7f00000000000000000000000000000000000000000000000000000000000000006001600160a01b0316856001600160a01b031614156141cc5760028681548110613ed257613ed2614de9565b906000526020600020015460001415614056576001546040517f49f6d2dc0000000000000000000000000000000000000000000000000000000081526001600160a01b037f0000000000000000000000000000000000000000000000000000000000000000811660048301527f00000000000000000000000000000000000000000000000000000000000000008116602483015260448201869052606482018590526084820192909252600060a482015260c481018390527f0000000000000000000000000000000000000000000000000000000000000000909116906349f6d2dc9060e4016020604051808303816000875af1158015613fd7573d6000803e3d6000fd5b505050506040513d601f19601f82011682018060405250810190613ffb9190614e18565b6002878154811061400e5761400e614de9565b906000526020600020018190555085600560006002898154811061403457614034614de9565b906000526020600020015481526020019081526020016000208190555061418e565b7f00000000000000000000000000000000000000000000000000000000000000006001600160a01b0316636a4f76917f00000000000000000000000000000000000000000000000000000000000000007f0000000000000000000000000000000000000000000000000000000000000000868660015460008860028f815481106140e2576140e2614de9565b6000918252602090912001546040517fffffffff0000000000000000000000000000000000000000000000000000000060e08b901b1681526001600160a01b03988916600482015297909616602488015260448701949094526064860192909252608485015260a484015260c483015260e482015261010401600060405180830381600087803b15801561417557600080fd5b505af1158015614189573d6000803e3d6000fd5b505050505b60085461419a87613864565b116141c7576141c76000600288815481106141b7576141b7614de9565b906000526020600020015461468f565b612cab565b600386815481106141df576141df614de9565b906000526020600020015460001415614363576001546040517f49f6d2dc0000000000000000000000000000000000000000000000000000000081526001600160a01b037f0000000000000000000000000000000000000000000000000000000000000000811660048301527f00000000000000000000000000000000000000000000000000000000000000008116602483015260448201869052606482018590526084820192909252600060a482015260c481018390527f0000000000000000000000000000000000000000000000000000000000000000909116906349f6d2dc9060e4016020604051808303816000875af11580156142e4573d6000803e3d6000fd5b505050506040513d601f19601f820116820180604052508101906143089190614e18565b6003878154811061431b5761431b614de9565b906000526020600020018190555085600460006003898154811061434157614341614de9565b906000526020600020015481526020019081526020016000208190555061449b565b7f00000000000000000000000000000000000000000000000000000000000000006001600160a01b0316636a4f76917f00000000000000000000000000000000000000000000000000000000000000007f0000000000000000000000000000000000000000000000000000000000000000868660015460008860038f815481106143ef576143ef614de9565b6000918252602090912001546040517fffffffff0000000000000000000000000000000000000000000000000000000060e08b901b1681526001600160a01b03988916600482015297909616602488015260448701949094526064860192909252608485015260a484015260c483015260e482015261010401600060405180830381600087803b15801561448257600080fd5b505af1158015614496573d6000803e3d6000fd5b505050505b6008546144c960017f0000000000000000000000000000000000000000000000000000000000000000614f3a565b61ffff166144d79190614f5d565b6144e087613864565b10612cab57612cab6001600388815481106141b7576141b7614de9565b600080821161453a5761453160017f0000000000000000000000000000000000000000000000000000000000000000614f3a565b61ffff166106b8565b6106b8600183614f5d565b600061ffff7f000000000000000000000000000000000000000000000000000000000000000016614577836001614f74565b6106b89190615104565b60006106b8608083013560608401356bffffffffffffffffffffffff16614f5d565b60006001600160a01b037f0000000000000000000000000000000000000000000000000000000000000000166145dc6020840184614b2c565b6001600160a01b0316141561462c5760408083013560009081526005602052908120549061460984614581565b90508061461a575060009392505050565b61082161462683613864565b82613df3565b60408083013560009081526004602052908120549061464a84614581565b90508061465b575060009392505050565b61082161466783613864565b82613e42565b60006146776147ad565b826007546146859190615098565b6106b89190614f74565b811561472557604080516001600160a01b037f0000000000000000000000000000000000000000000000000000000000000000811682527f00000000000000000000000000000000000000000000000000000000000000001660208201529081018290527fa277cbc4d6eebe10b75c089f332890611f79a84754eeaaf06ed641c899dbafb1906060015b60405180910390a15050565b604080516001600160a01b037f0000000000000000000000000000000000000000000000000000000000000000811682527f00000000000000000000000000000000000000000000000000000000000000001660208201529081018290527f87c70da6914e41de8c96757fe2e40f6b1e13781d812e768da91b926699aba2ec90606001614719565b6000806007546006546147c0919061530c565b6147f8906bffffffffffffffffffffffff7f000000000000000000000000000000000000000000000000000000000000000016614f8c565b90506000811361484a5760405162461bcd60e51b815260206004820152601e60248201527f4d616e676f2f71756f74655f6d696e2f5368696674556e646572666c6f7700006044820152606401610626565b919050565b60405180604001604052806002905b606081526020019060019003908161485e5790505090565b6001600160a01b038116811461280f57600080fd5b6000806040838503121561489e57600080fd5b82356148a981614876565b946020939093013593505050565b6000806000606084860312156148cc57600080fd5b83356148d781614876565b925060208401356148e781614876565b929592945050506040919091013590565b801515811461280f57600080fd5b60006020828403121561491857600080fd5b8135613b10816148f8565b6020808252600090606083018382018584805b60028110156149a9578785037fffffffffffffffffffffffffffffffffffffffffffffffffffffffffffffffe0018452825180518087529087019087870190845b8181101561499357835183529289019291890191600101614977565b5090965050509285019291850191600101614936565b5092979650505050505050565b6000602082840312156149c857600080fd5b5035919050565b60006101208284031215610ca257600080fd5b6000808284036101608112156149f757600080fd5b614a0185856149cf565b925060407ffffffffffffffffffffffffffffffffffffffffffffffffffffffffffffffee082011215614a3357600080fd5b50610120830190509250929050565b600080600080600080600060e0888a031215614a5d57600080fd5b8735614a6881614876565b96506020880135614a7881614876565b96999698505050506040850135946060810135946080820135945060a0820135935060c0909101359150565b600080600080600080600080610100898b031215614ac157600080fd5b8835614acc81614876565b97506020890135614adc81614876565b979a9799505050506040860135956060810135956080820135955060a0820135945060c0820135935060e0909101359150565b60006101208284031215614b2257600080fd5b6106b583836149cf565b600060208284031215614b3e57600080fd5b8135613b1081614876565b60008060408385031215614b5c57600080fd5b8235614b67816148f8565b91506020830135614b7781614876565b809150509250929050565b60008083601f840112614b9457600080fd5b50813567ffffffffffffffff811115614bac57600080fd5b6020830191508360208260051b8501011115614bc757600080fd5b9250929050565b60008060008060608587031215614be457600080fd5b843593506020850135614bf6816148f8565b9250604085013567ffffffffffffffff811115614c1257600080fd5b614c1e87828801614b82565b95989497509550505050565b600080600080600080600060c0888a031215614c4557600080fd5b873596506020880135614c57816148f8565b95506040880135945060608801359350608088013567ffffffffffffffff80821115614c8257600080fd5b818a0191508a604083011115614c9757600080fd5b90935060a08901359080821115614cad57600080fd5b50614cba8a828b01614b82565b989b979a50959850939692959293505050565b60008060008060808587031215614ce357600080fd5b8435614cee81614876565b93506020850135614cfe81614876565b9250604085013591506060850135614d15816148f8565b939692955090935050565b600080600060608486031215614d3557600080fd5b505081359360208301359350604090920135919050565b600080600080600060a08688031215614d6457600080fd5b8535614d6f81614876565b94506020860135614d7f81614876565b94979496505050506040830135926060810135926080909101359150565b600060208284031215614daf57600080fd5b8151613b10816148f8565b7f4e487b7100000000000000000000000000000000000000000000000000000000600052604160045260246000fd5b7f4e487b7100000000000000000000000000000000000000000000000000000000600052603260045260246000fd5b600060208284031215614e2a57600080fd5b5051919050565b7f4e487b7100000000000000000000000000000000000000000000000000000000600052601160045260246000fd5b60007fffffffffffffffffffffffffffffffffffffffffffffffffffffffffffffffff821415614e9257614e92614e31565b5060010190565b60007f8000000000000000000000000000000000000000000000000000000000000000821415614ecb57614ecb614e31565b5060000390565b60008083357fffffffffffffffffffffffffffffffffffffffffffffffffffffffffffffffe1843603018112614f0757600080fd5b83018035915067ffffffffffffffff821115614f2257600080fd5b6020019150600581901b3603821315614bc757600080fd5b600061ffff83811690831681811015614f5557614f55614e31565b039392505050565b600082821015614f6f57614f6f614e31565b500390565b60008219821115614f8757614f87614e31565b500190565b6000808212827f7fffffffffffffffffffffffffffffffffffffffffffffffffffffffffffffff03841381151615614fc657614fc6614e31565b827f8000000000000000000000000000000000000000000000000000000000000000038412811615614ffa57614ffa614e31565b50500190565b6000808312837f80000000000000000000000000000000000000000000000000000000000000000183128115161561503a5761503a614e31565b837f7fffffffffffffffffffffffffffffffffffffffffffffffffffffffffffffff01831381161561506e5761506e614e31565b50500390565b6000806040838503121561508757600080fd5b505080516020909101519092909150565b6000817fffffffffffffffffffffffffffffffffffffffffffffffffffffffffffffffff04831182151516156150d0576150d0614e31565b500290565b7f4e487b7100000000000000000000000000000000000000000000000000000000600052601260045260246000fd5b600082615113576151136150d5565b500690565b600082615127576151276150d5565b500790565b600060033d11156116cd5760046000803e5060005160e01c90565b7fffffffffffffffffffffffffffffffffffffffffffffffffffffffffffffffe0601f830116810181811067ffffffffffffffff821117156151b2577f4e487b7100000000000000000000000000000000000000000000000000000000600052604160045260246000fd5b6040525050565b600060443d10156151c75790565b6040517ffffffffffffffffffffffffffffffffffffffffffffffffffffffffffffffffc803d016004833e81513d67ffffffffffffffff816024840111818411171561521557505050505090565b828501915081518181111561522d5750505050505090565b843d87010160208285010111156152475750505050505090565b61525660208286010187615147565b509095945050505050565b6000815180845260005b818110156152875760208185018101518683018201520161526b565b81811115615299576000602083870101525b50601f017fffffffffffffffffffffffffffffffffffffffffffffffffffffffffffffffe0169290920160200192915050565b8281526040602082015260006108216040830184615261565b6020815260006106b56020830184615261565b600082615307576153076150d5565b500490565b60007f7fffffffffffffffffffffffffffffffffffffffffffffffffffffffffffffff60008413600084138583048511828216161561534d5761534d614e31565b7f8000000000000000000000000000000000000000000000000000000000000000600087128682058812818416161561538857615388614e31565b600087129250878205871284841616156153a4576153a4614e31565b878505871281841616156153ba576153ba614e31565b50505092909302939250505056fea2646970667358221220ab7f88bcd7a704f97d544564785cd8054002983d4ac7c49037429d2ba6bec04164736f6c634300080a0033",
  "devdoc": {
    "kind": "dev",
    "methods": {},
    "version": 1
  },
  "userdoc": {
    "events": {
      "BidAtMaxPosition(address,address,uint256)": {
        "notice": "Strat specific events "
      },
      "PosthookFail(address,address,uint256,string)": {
        "notice": "Events "
      }
    },
    "kind": "user",
    "methods": {
      "NSLOTS()": {
        "notice": "Immutable fields "
      },
      "approveMangrove(address,uint256)": {
        "notice": "`this` contract needs to approve Mangrove to let it perform outbound token transfer at the end of the `makerExecute` function NB anyone can call this function"
      },
      "get_delta()": {
        "notice": "Setters and getters "
      },
      "redeemToken(address,address,uint256)": {
        "notice": "transfers token stored in `this` contract to some recipient address"
      },
      "set_shift(int256,bool,uint256[])": {
        "notice": "New positions 0<= i < s are initialized with amount[i] in base tokens if `withBase`. In quote tokens otherwise"
      },
      "set_treasury(bool,address)": {
        "notice": "Sets the account from which base (resp. quote) tokens need to be fetched or put during trade execution"
      },
      "withdrawFromMangrove(address,uint256)": {
        "notice": "withdraws ETH from the bounty vault of the Mangrove. ETH are sent to `receiver`"
      }
    },
    "notice": "In case of a partial fill of an offer at position i, the offer residual is reposted (see `Persistent` strat class)",
    "version": 1
  },
  "storageLayout": {
    "storage": [
      {
        "astId": 21702,
        "contract": "contracts/Strategies/OfferLogics/SingleUser/Deployable/MarketMaking/Mango.sol:Mango",
        "label": "admin",
        "offset": 0,
        "slot": "0",
        "type": "t_address"
      },
      {
        "astId": 11508,
        "contract": "contracts/Strategies/OfferLogics/SingleUser/Deployable/MarketMaking/Mango.sol:Mango",
        "label": "OFR_GASREQ",
        "offset": 0,
        "slot": "1",
        "type": "t_uint256"
      },
      {
        "astId": 16225,
        "contract": "contracts/Strategies/OfferLogics/SingleUser/Deployable/MarketMaking/Mango.sol:Mango",
        "label": "ASKS",
        "offset": 0,
        "slot": "2",
        "type": "t_array(t_uint256)dyn_storage"
      },
      {
        "astId": 16228,
        "contract": "contracts/Strategies/OfferLogics/SingleUser/Deployable/MarketMaking/Mango.sol:Mango",
        "label": "BIDS",
        "offset": 0,
        "slot": "3",
        "type": "t_array(t_uint256)dyn_storage"
      },
      {
        "astId": 16232,
        "contract": "contracts/Strategies/OfferLogics/SingleUser/Deployable/MarketMaking/Mango.sol:Mango",
        "label": "index_of_bid",
        "offset": 0,
        "slot": "4",
        "type": "t_mapping(t_uint256,t_uint256)"
      },
      {
        "astId": 16236,
        "contract": "contracts/Strategies/OfferLogics/SingleUser/Deployable/MarketMaking/Mango.sol:Mango",
        "label": "index_of_ask",
        "offset": 0,
        "slot": "5",
        "type": "t_mapping(t_uint256,t_uint256)"
      },
      {
        "astId": 16238,
        "contract": "contracts/Strategies/OfferLogics/SingleUser/Deployable/MarketMaking/Mango.sol:Mango",
        "label": "current_shift",
        "offset": 0,
        "slot": "6",
        "type": "t_int256"
      },
      {
        "astId": 16240,
        "contract": "contracts/Strategies/OfferLogics/SingleUser/Deployable/MarketMaking/Mango.sol:Mango",
        "label": "current_delta",
        "offset": 0,
        "slot": "7",
        "type": "t_uint256"
      },
      {
        "astId": 16242,
        "contract": "contracts/Strategies/OfferLogics/SingleUser/Deployable/MarketMaking/Mango.sol:Mango",
        "label": "current_min_buffer",
        "offset": 0,
        "slot": "8",
        "type": "t_uint256"
      },
      {
        "astId": 16245,
        "contract": "contracts/Strategies/OfferLogics/SingleUser/Deployable/MarketMaking/Mango.sol:Mango",
        "label": "paused",
        "offset": 0,
        "slot": "9",
        "type": "t_bool"
      },
      {
        "astId": 16247,
        "contract": "contracts/Strategies/OfferLogics/SingleUser/Deployable/MarketMaking/Mango.sol:Mango",
        "label": "current_base_treasury",
        "offset": 1,
        "slot": "9",
        "type": "t_address"
      },
      {
        "astId": 16249,
        "contract": "contracts/Strategies/OfferLogics/SingleUser/Deployable/MarketMaking/Mango.sol:Mango",
        "label": "current_quote_treasury",
        "offset": 0,
        "slot": "10",
        "type": "t_address"
      }
    ],
    "types": {
      "t_address": {
        "encoding": "inplace",
        "label": "address",
        "numberOfBytes": "20"
      },
      "t_array(t_uint256)dyn_storage": {
        "base": "t_uint256",
        "encoding": "dynamic_array",
        "label": "uint256[]",
        "numberOfBytes": "32"
      },
      "t_bool": {
        "encoding": "inplace",
        "label": "bool",
        "numberOfBytes": "1"
      },
      "t_int256": {
        "encoding": "inplace",
        "label": "int256",
        "numberOfBytes": "32"
      },
      "t_mapping(t_uint256,t_uint256)": {
        "encoding": "mapping",
        "key": "t_uint256",
        "label": "mapping(uint256 => uint256)",
        "numberOfBytes": "32",
        "value": "t_uint256"
      },
      "t_uint256": {
        "encoding": "inplace",
        "label": "uint256",
        "numberOfBytes": "32"
      }
    }
  }
}