{
  "address": "0x4F4Ce8BaD077788A8149Aab824208108eeB0aFDc",
  "abi": [
    {
      "inputs": [
        {
          "internalType": "contract IMangrove",
          "name": "mgv",
          "type": "address"
        },
        {
          "internalType": "contract IEIP20",
          "name": "base",
          "type": "address"
        },
        {
          "internalType": "contract IEIP20",
          "name": "quote",
          "type": "address"
        },
        {
          "internalType": "uint256",
          "name": "base_0",
          "type": "uint256"
        },
        {
          "internalType": "uint256",
          "name": "quote_0",
          "type": "uint256"
        },
        {
          "internalType": "uint256",
          "name": "nslots",
          "type": "uint256"
        },
        {
          "internalType": "uint256",
          "name": "price_incr",
          "type": "uint256"
        },
        {
          "internalType": "address",
          "name": "deployer",
          "type": "address"
        }
      ],
      "stateMutability": "nonpayable",
      "type": "constructor"
    },
    {
      "anonymous": false,
      "inputs": [
        {
          "indexed": false,
          "internalType": "uint256",
          "name": "from",
          "type": "uint256"
        },
        {
          "indexed": false,
          "internalType": "uint256",
          "name": "to",
          "type": "uint256"
        }
      ],
      "name": "Initialized",
      "type": "event"
    },
    {
      "anonymous": false,
      "inputs": [
        {
          "indexed": true,
          "internalType": "contract IEIP20",
          "name": "outbound_tkn",
          "type": "address"
        },
        {
          "indexed": true,
          "internalType": "contract IEIP20",
          "name": "inbound_tkn",
          "type": "address"
        },
        {
          "indexed": true,
          "internalType": "uint256",
          "name": "offerId",
          "type": "uint256"
        },
        {
          "indexed": false,
          "internalType": "bytes32",
          "name": "reason",
          "type": "bytes32"
        }
      ],
      "name": "LogIncident",
      "type": "event"
    },
    {
      "anonymous": false,
      "inputs": [
        {
          "indexed": false,
          "internalType": "contract ISourcer",
          "name": "",
          "type": "address"
        }
      ],
      "name": "SetLiquiditySourcer",
      "type": "event"
    },
    {
      "inputs": [],
      "name": "BASE",
      "outputs": [
        {
          "internalType": "contract IEIP20",
          "name": "",
          "type": "address"
        }
      ],
      "stateMutability": "view",
      "type": "function"
    },
    {
      "inputs": [],
      "name": "MGV",
      "outputs": [
        {
          "internalType": "contract IMangrove",
          "name": "",
          "type": "address"
        }
      ],
      "stateMutability": "view",
      "type": "function"
    },
    {
      "inputs": [],
      "name": "NSLOTS",
      "outputs": [
        {
          "internalType": "uint256",
          "name": "",
          "type": "uint256"
        }
      ],
      "stateMutability": "view",
      "type": "function"
    },
    {
      "inputs": [],
      "name": "OFR_GASREQ",
      "outputs": [
        {
          "internalType": "uint256",
          "name": "",
          "type": "uint256"
        }
      ],
      "stateMutability": "view",
      "type": "function"
    },
    {
      "inputs": [],
      "name": "QUOTE",
      "outputs": [
        {
          "internalType": "contract IEIP20",
          "name": "",
          "type": "address"
        }
      ],
      "stateMutability": "view",
      "type": "function"
    },
    {
      "inputs": [
        {
          "internalType": "bytes",
          "name": "data",
          "type": "bytes"
        }
      ],
      "name": "_staticdelegatecall",
      "outputs": [],
      "stateMutability": "nonpayable",
      "type": "function"
    },
    {
      "inputs": [],
      "name": "admin",
      "outputs": [
        {
          "internalType": "address",
          "name": "",
          "type": "address"
        }
      ],
      "stateMutability": "view",
      "type": "function"
    },
    {
      "inputs": [
        {
          "internalType": "contract IEIP20",
          "name": "outbound_tkn",
          "type": "address"
        },
        {
          "internalType": "uint256",
          "name": "amount",
          "type": "uint256"
        }
      ],
      "name": "approveMangrove",
      "outputs": [],
      "stateMutability": "nonpayable",
      "type": "function"
    },
    {
      "inputs": [],
      "name": "delta",
      "outputs": [
        {
          "internalType": "uint256",
          "name": "",
          "type": "uint256"
        }
      ],
      "stateMutability": "view",
      "type": "function"
    },
    {
      "inputs": [
        {
          "internalType": "contract IEIP20",
          "name": "outbound_tkn",
          "type": "address"
        },
        {
          "internalType": "contract IEIP20",
          "name": "inbound_tkn",
          "type": "address"
        },
        {
          "internalType": "uint256",
          "name": "gasreq",
          "type": "uint256"
        },
        {
          "internalType": "uint256",
          "name": "gasprice",
          "type": "uint256"
        },
        {
          "internalType": "uint256",
          "name": "offerId",
          "type": "uint256"
        }
      ],
      "name": "getMissingProvision",
      "outputs": [
        {
          "internalType": "uint256",
          "name": "",
          "type": "uint256"
        }
      ],
      "stateMutability": "view",
      "type": "function"
    },
    {
      "inputs": [
        {
          "internalType": "bool",
          "name": "liveOnly",
          "type": "bool"
        }
      ],
      "name": "get_offers",
      "outputs": [
        {
          "internalType": "uint256[][2]",
          "name": "offers",
          "type": "uint256[][2]"
        }
      ],
      "stateMutability": "view",
      "type": "function"
    },
    {
      "inputs": [
        {
          "internalType": "uint256",
          "name": "lastBidPosition",
          "type": "uint256"
        },
        {
          "internalType": "uint256",
          "name": "from",
          "type": "uint256"
        },
        {
          "internalType": "uint256",
          "name": "to",
          "type": "uint256"
        },
        {
          "internalType": "uint256[][2]",
          "name": "pivotIds",
          "type": "uint256[][2]"
        },
        {
          "internalType": "uint256[]",
          "name": "tokenAmounts",
          "type": "uint256[]"
        }
      ],
      "name": "initialize",
      "outputs": [],
      "stateMutability": "nonpayable",
      "type": "function"
    },
    {
      "inputs": [],
      "name": "is_paused",
      "outputs": [
        {
          "internalType": "bool",
          "name": "",
          "type": "bool"
        }
      ],
      "stateMutability": "view",
      "type": "function"
    },
    {
      "inputs": [],
      "name": "liquidity_sourcer",
      "outputs": [
        {
          "internalType": "contract ISourcer",
          "name": "",
          "type": "address"
        }
      ],
      "stateMutability": "view",
      "type": "function"
    },
    {
      "inputs": [
        {
          "components": [
            {
              "internalType": "address",
              "name": "outbound_tkn",
              "type": "address"
            },
            {
              "internalType": "address",
              "name": "inbound_tkn",
              "type": "address"
            },
            {
              "internalType": "uint256",
              "name": "offerId",
              "type": "uint256"
            },
            {
              "internalType": "t",
              "name": "offer",
              "type": "uint256"
            },
            {
              "internalType": "uint256",
              "name": "wants",
              "type": "uint256"
            },
            {
              "internalType": "uint256",
              "name": "gives",
              "type": "uint256"
            },
            {
              "internalType": "t",
              "name": "offerDetail",
              "type": "uint256"
            },
            {
              "internalType": "t",
              "name": "global",
              "type": "uint256"
            },
            {
              "internalType": "t",
              "name": "local",
              "type": "uint256"
            }
          ],
          "internalType": "struct MgvLib.SingleOrder",
          "name": "order",
          "type": "tuple"
        }
      ],
      "name": "makerExecute",
      "outputs": [
        {
          "internalType": "bytes32",
          "name": "ret",
          "type": "bytes32"
        }
      ],
      "stateMutability": "nonpayable",
      "type": "function"
    },
    {
      "inputs": [
        {
          "components": [
            {
              "internalType": "address",
              "name": "outbound_tkn",
              "type": "address"
            },
            {
              "internalType": "address",
              "name": "inbound_tkn",
              "type": "address"
            },
            {
              "internalType": "uint256",
              "name": "offerId",
              "type": "uint256"
            },
            {
              "internalType": "t",
              "name": "offer",
              "type": "uint256"
            },
            {
              "internalType": "uint256",
              "name": "wants",
              "type": "uint256"
            },
            {
              "internalType": "uint256",
              "name": "gives",
              "type": "uint256"
            },
            {
              "internalType": "t",
              "name": "offerDetail",
              "type": "uint256"
            },
            {
              "internalType": "t",
              "name": "global",
              "type": "uint256"
            },
            {
              "internalType": "t",
              "name": "local",
              "type": "uint256"
            }
          ],
          "internalType": "struct MgvLib.SingleOrder",
          "name": "order",
          "type": "tuple"
        },
        {
          "components": [
            {
              "internalType": "bytes32",
              "name": "makerData",
              "type": "bytes32"
            },
            {
              "internalType": "bytes32",
              "name": "mgvData",
              "type": "bytes32"
            }
          ],
          "internalType": "struct MgvLib.OrderResult",
          "name": "result",
          "type": "tuple"
        }
      ],
      "name": "makerPosthook",
      "outputs": [],
      "stateMutability": "nonpayable",
      "type": "function"
    },
    {
      "inputs": [
        {
          "components": [
            {
              "internalType": "contract IEIP20",
              "name": "outbound_tkn",
              "type": "address"
            },
            {
              "internalType": "contract IEIP20",
              "name": "inbound_tkn",
              "type": "address"
            },
            {
              "internalType": "uint256",
              "name": "wants",
              "type": "uint256"
            },
            {
              "internalType": "uint256",
              "name": "gives",
              "type": "uint256"
            },
            {
              "internalType": "uint256",
              "name": "gasreq",
              "type": "uint256"
            },
            {
              "internalType": "uint256",
              "name": "gasprice",
              "type": "uint256"
            },
            {
              "internalType": "uint256",
              "name": "pivotId",
              "type": "uint256"
            }
          ],
          "internalType": "struct IOfferLogic.MakerOrder",
          "name": "mko",
          "type": "tuple"
        }
      ],
      "name": "newOffer",
      "outputs": [
        {
          "internalType": "uint256",
          "name": "offerId",
          "type": "uint256"
        }
      ],
      "stateMutability": "payable",
      "type": "function"
    },
    {
      "inputs": [],
      "name": "pause",
      "outputs": [],
      "stateMutability": "nonpayable",
      "type": "function"
    },
    {
      "inputs": [],
      "name": "pending",
      "outputs": [
        {
          "internalType": "uint256[2]",
          "name": "",
          "type": "uint256[2]"
        }
      ],
      "stateMutability": "view",
      "type": "function"
    },
    {
      "inputs": [],
      "name": "reset_pending",
      "outputs": [],
      "stateMutability": "nonpayable",
      "type": "function"
    },
    {
      "inputs": [],
      "name": "restart",
      "outputs": [],
      "stateMutability": "nonpayable",
      "type": "function"
    },
    {
      "inputs": [
        {
          "internalType": "contract IEIP20",
          "name": "outbound_tkn",
          "type": "address"
        },
        {
          "internalType": "contract IEIP20",
          "name": "inbound_tkn",
          "type": "address"
        },
        {
          "internalType": "uint256",
          "name": "offerId",
          "type": "uint256"
        },
        {
          "internalType": "bool",
          "name": "deprovision",
          "type": "bool"
        }
      ],
      "name": "retractOffer",
      "outputs": [
        {
          "internalType": "uint256",
          "name": "",
          "type": "uint256"
        }
      ],
      "stateMutability": "nonpayable",
      "type": "function"
    },
    {
      "inputs": [
        {
          "internalType": "uint256",
          "name": "ba",
          "type": "uint256"
        },
        {
          "internalType": "uint256",
          "name": "from",
          "type": "uint256"
        },
        {
          "internalType": "uint256",
          "name": "to",
          "type": "uint256"
        }
      ],
      "name": "retractOffers",
      "outputs": [
        {
          "internalType": "uint256",
          "name": "collected",
          "type": "uint256"
        }
      ],
      "stateMutability": "nonpayable",
      "type": "function"
    },
    {
      "inputs": [
        {
          "internalType": "address",
          "name": "_admin",
          "type": "address"
        }
      ],
      "name": "setAdmin",
      "outputs": [],
      "stateMutability": "nonpayable",
      "type": "function"
    },
    {
      "inputs": [
        {
          "internalType": "uint256",
          "name": "gasreq",
          "type": "uint256"
        }
      ],
      "name": "setGasreq",
      "outputs": [],
      "stateMutability": "nonpayable",
      "type": "function"
    },
    {
      "inputs": [],
      "name": "set_EOA_sourcer",
      "outputs": [],
      "stateMutability": "nonpayable",
      "type": "function"
    },
    {
      "inputs": [
        {
          "internalType": "uint256",
          "name": "_delta",
          "type": "uint256"
        }
      ],
      "name": "set_delta",
      "outputs": [],
      "stateMutability": "nonpayable",
      "type": "function"
    },
    {
      "inputs": [
        {
          "internalType": "contract ISourcer",
          "name": "sourcer",
          "type": "address"
        },
        {
          "internalType": "uint256",
          "name": "gasreq",
          "type": "uint256"
        }
      ],
      "name": "set_liquidity_sourcer",
      "outputs": [],
      "stateMutability": "nonpayable",
      "type": "function"
    },
    {
      "inputs": [
        {
          "internalType": "uint256",
          "name": "m",
          "type": "uint256"
        }
      ],
      "name": "set_min_offer_type",
      "outputs": [],
      "stateMutability": "nonpayable",
      "type": "function"
    },
    {
      "inputs": [
        {
          "internalType": "int256",
          "name": "s",
          "type": "int256"
        },
        {
          "internalType": "bool",
          "name": "withBase",
          "type": "bool"
        },
        {
          "internalType": "uint256[]",
          "name": "amounts",
          "type": "uint256[]"
        }
      ],
      "name": "set_shift",
      "outputs": [],
      "stateMutability": "nonpayable",
      "type": "function"
    },
    {
      "inputs": [],
      "name": "shift",
      "outputs": [
        {
          "internalType": "int256",
          "name": "",
          "type": "int256"
        }
      ],
      "stateMutability": "view",
      "type": "function"
    },
    {
      "inputs": [
        {
          "components": [
            {
              "internalType": "contract IEIP20",
              "name": "outbound_tkn",
              "type": "address"
            },
            {
              "internalType": "contract IEIP20",
              "name": "inbound_tkn",
              "type": "address"
            },
            {
              "internalType": "uint256",
              "name": "wants",
              "type": "uint256"
            },
            {
              "internalType": "uint256",
              "name": "gives",
              "type": "uint256"
            },
            {
              "internalType": "uint256",
              "name": "gasreq",
              "type": "uint256"
            },
            {
              "internalType": "uint256",
              "name": "gasprice",
              "type": "uint256"
            },
            {
              "internalType": "uint256",
              "name": "pivotId",
              "type": "uint256"
            }
          ],
          "internalType": "struct IOfferLogic.MakerOrder",
          "name": "mko",
          "type": "tuple"
        },
        {
          "internalType": "uint256",
          "name": "offerId",
          "type": "uint256"
        }
      ],
      "name": "updateOffer",
      "outputs": [],
      "stateMutability": "payable",
      "type": "function"
    },
    {
      "inputs": [
        {
          "internalType": "address payable",
          "name": "receiver",
          "type": "address"
        },
        {
          "internalType": "uint256",
          "name": "amount",
          "type": "uint256"
        }
      ],
      "name": "withdrawFromMangrove",
      "outputs": [
        {
          "internalType": "bool",
          "name": "",
          "type": "bool"
        }
      ],
      "stateMutability": "nonpayable",
      "type": "function"
    },
    {
      "inputs": [
        {
          "internalType": "contract IEIP20",
          "name": "token",
          "type": "address"
        },
        {
          "internalType": "address",
          "name": "receiver",
          "type": "address"
        },
        {
          "internalType": "uint256",
          "name": "amount",
          "type": "uint256"
        }
      ],
      "name": "withdrawToken",
      "outputs": [
        {
          "internalType": "bool",
          "name": "success",
          "type": "bool"
        }
      ],
      "stateMutability": "nonpayable",
      "type": "function"
    },
    {
      "stateMutability": "payable",
      "type": "receive"
    }
  ],
  "transactionHash": "0x39bee26bb030f1c2e23dba1d07c8b8289e3482def67788b08cb99fca6e88ef45",
  "args": [
    "0xF3e339d8a0B989114412fa157Cc846ebaf4BCbd8",
    "0xc87385b5e62099f92d490750fcd6c901a524bbca",
    "0xF61Cffd6071a8DB7cD5E8DF1D3A5450D9903cF1c",
    "1000000000000000000000",
    "997000000",
    100,
    "120000",
    "0x47897EE61498D02B18794601Ed3A71896A1Ff894"
  ],
  "numDeployments": 1,
  "solcInputHash": "620cb2f7d0a64f95a989ad821619c697",
  "bytecode": "0x6101206040523480156200001257600080fd5b506040516200af053803806200af058339810160408190526200003591620006b9565b8781806001600160a01b038116620000945760405162461bcd60e51b815260206004820152601860248201527f616363657373436f6e74726f6c6c65642f307841646d696e000000000000000060448201526064015b60405180910390fd5b80620000aa6200034760201b62002ece1760201c565b80546001600160a01b0319166001600160a01b0392831617905583166080525062013880620000e46200036b602090811b62002ef217901c565b6000018190555050506000620001046200038f60201b62002f161760201c565b90506000841180156200011f57506001600160a01b03891615155b80156200012f5750838461ffff16145b801562000144575085866001600160601b0316145b801562000159575084856001600160601b0316145b620001b25760405162461bcd60e51b815260206004820152602260248201527f4d616e676f2f636f6e7374727563746f722f696e76616c6964417267756d656e604482015261747360f01b60648201526084016200008b565b8360c08181525050888888888888604051620001ce906200062b565b6001600160a01b03968716815294861660208601529490921660408401526001600160601b03908116606084015216608082015260a081019190915260c001604051809103906000f0801580156200022a573d6000803e3d6000fd5b506001600160a01b0390811660a05288811660e052871661010052836001600160401b038111156200026057620002606200074b565b6040519080825280602002602001820160405280156200028a578160200160208202803683370190505b508051620002a091839160209091019062000639565b50836001600160401b03811115620002bc57620002bc6200074b565b604051908082528060200260200182016040528015620002e6578160200160208202803683370190505b508051620002ff91600184019160209091019062000639565b5060078101839055600160088201556200031c62061a80620003b3565b6200032a87600019620004ae565b6200033888600019620004ae565b5050505050505050506200078c565b7f7d382ebca3e46505071795e192d28166a3d4bd0685585591bc6c5b8df6769fd290565b7fae7e31c3220e851db9f204a28b279dfe52b973600b0a456991089c220ae7222490565b7f416b48c48a967c2245e6ba6bc6efa281932950b502fea671117e4dfd7d3dfb8190565b620003bd62000605565b6001600160a01b0316336001600160a01b03161480620003f057506080516001600160a01b0316336001600160a01b0316145b6200043e5760405162461bcd60e51b815260206004820152601860248201527f416363657373436f6e74726f6c6c65642f496e76616c6964000000000000000060448201526064016200008b565b808162ffffff1614620004945760405162461bcd60e51b815260206004820152601860248201527f6d67764f666665722f6761737265712f6f766572666c6f77000000000000000060448201526064016200008b565b80620004aa6200036b60201b62002ef21760201c565b5550565b620004b862000605565b6001600160a01b0316336001600160a01b03161480620004eb57506080516001600160a01b0316336001600160a01b0316145b620005395760405162461bcd60e51b815260206004820152601860248201527f416363657373436f6e74726f6c6c65642f496e76616c6964000000000000000060448201526064016200008b565b60805160405163095ea7b360e01b81526001600160a01b039182166004820152602481018390529083169063095ea7b3906044016020604051808303816000875af11580156200058d573d6000803e3d6000fd5b505050506040513d601f19601f82011682018060405250810190620005b3919062000761565b620006015760405162461bcd60e51b815260206004820152601560248201527f6d67764f666665722f617070726f76652f4661696c000000000000000000000060448201526064016200008b565b5050565b60006200061c6200034760201b62002ece1760201c565b546001600160a01b0316919050565b61562080620058e583390190565b82805482825590600052602060002090810192821562000677579160200282015b82811115620006775782518255916020019190600101906200065a565b506200068592915062000689565b5090565b5b808211156200068557600081556001016200068a565b6001600160a01b0381168114620006b657600080fd5b50565b600080600080600080600080610100898b031215620006d757600080fd5b8851620006e481620006a0565b60208a0151909850620006f781620006a0565b60408a01519097506200070a81620006a0565b80965050606089015194506080890151935060a0890151925060c0890151915060e08901516200073a81620006a0565b809150509295985092959890939650565b634e487b7160e01b600052604160045260246000fd5b6000602082840312156200077457600080fd5b815180151581146200078557600080fd5b9392505050565b60805160a05160c05160e0516101005161505e620008876000396000818161055f01528181610c130152612c4c01526000818161077c01528181610b2a0152612b6e015260006106870152600081816110cb0152818161181e01528181611fa20152818161288e015261327001526000818161052901528181611056015281816115410152818161162d015281816118c801528181611c0c01528181611dc601528181611f2d0152818161213c0152818161222e015281816123500152818161241c015281816124ee0152818161259b015281816126c101528181612e4b015281816130ab015281816134fb01526135c0015261505e6000f3fe608060405260043610620002495760003560e01c80638456cb591162000134578063ccbbcfc211620000be578063e20ccec31162000089578063e4c34f84116200006c578063e4c34f841462000743578063ec342ad01462000768578063f851a440146200079e57600080fd5b8063e20ccec314620006e6578063e428204d146200070d57600080fd5b8063ccbbcfc2146200064e578063d4a1da081462000673578063d5c3972114620006a9578063d83b00da14620006c157600080fd5b80639d4f8aa911620000ff5780639d4f8aa914620005a6578063ad97db1b14620005df578063aefe84031462000604578063c5dbec38146200062957600080fd5b80638456cb5914620004fd57806399fa5e2d14620005155780639c579839146200054b5780639d4ddea2146200058157600080fd5b806334bd893111620001d35780636c49c32c116200019e5780637ea1a48c11620001815780637ea1a48c14620004aa5780637f84e49414620004c15780638155026714620004d857600080fd5b80636c49c32c1462000460578063704b6c02146200048557600080fd5b806334bd8931146200037f5780633d3d130d14620003a45780635a3e961814620003c95780636465491114620003ee57600080fd5b806312fc41ca116200021457806312fc41ca14620002f65780631722d6e8146200030e5780631ef3755d14620003335780631efa880b146200034b57600080fd5b806301e33667146200025657806302b3d4231462000290578063063df2d214620002aa57806312b495a814620002cf57600080fd5b366200025157005b600080fd5b3480156200026357600080fd5b506200027b620002753660046200390b565b620007ea565b60405190151581526020015b60405180910390f35b3480156200029d57600080fd5b50620002a86200094d565b005b348015620002b757600080fd5b506200027b620002c936600462003951565b62000cda565b348015620002dc57600080fd5b50620002e762000e37565b60405190815260200162000287565b3480156200030357600080fd5b50620002e762000f1a565b3480156200031b57600080fd5b50620002a86200032d366004620039cf565b62000ffd565b3480156200034057600080fd5b50620002a862001252565b3480156200035857600080fd5b50620003706200036a36600462003a74565b62001330565b60405162000287919062003a94565b3480156200038c57600080fd5b50620002a86200039e36600462003b2b565b620014e8565b348015620003b157600080fd5b50620002a8620003c336600462003b59565b6200162b565b348015620003d657600080fd5b50620002a8620003e836600462003bbd565b620017a7565b348015620003fb57600080fd5b507f416b48c48a967c2245e6ba6bc6efa281932950b502fea671117e4dfd7d3dfb8a54610100900473ffffffffffffffffffffffffffffffffffffffff165b60405173ffffffffffffffffffffffffffffffffffffffff909116815260200162000287565b3480156200046d57600080fd5b50620002e76200047f36600462003c34565b620018c4565b3480156200049257600080fd5b50620002a8620004a436600462003c54565b62001a4a565b620002e7620004bb36600462003c87565b62001b38565b620002a8620004d236600462003ca6565b62001d27565b348015620004e557600080fd5b50620002a8620004f736600462003cd5565b62001ed4565b3480156200050a57600080fd5b50620002a8620020e3565b3480156200052257600080fd5b506200043a7f000000000000000000000000000000000000000000000000000000000000000081565b3480156200055857600080fd5b506200043a7f000000000000000000000000000000000000000000000000000000000000000081565b3480156200058e57600080fd5b50620002a8620005a036600462003b2b565b620021d5565b348015620005b357600080fd5b507f416b48c48a967c2245e6ba6bc6efa281932950b502fea671117e4dfd7d3dfb8a5460ff166200027b565b348015620005ec57600080fd5b50620002e7620005fe36600462003d37565b620022c2565b3480156200061157600080fd5b50620002a86200062336600462003951565b62002495565b3480156200063657600080fd5b50620002a86200064836600462003b2b565b62002668565b3480156200065b57600080fd5b50620002e76200066d36600462003d91565b62002755565b3480156200068057600080fd5b50620002e77f000000000000000000000000000000000000000000000000000000000000000081565b348015620006b657600080fd5b50620002a862002956565b348015620006ce57600080fd5b50620002a8620006e036600462003951565b62002a28565b348015620006f357600080fd5b50620006fe62002d15565b60405162000287919062003dbe565b3480156200071a57600080fd5b507fae7e31c3220e851db9f204a28b279dfe52b973600b0a456991089c220ae7222454620002e7565b3480156200075057600080fd5b50620002e76200076236600462003df1565b62002e00565b3480156200077557600080fd5b506200043a7f000000000000000000000000000000000000000000000000000000000000000081565b348015620007ab57600080fd5b507f7d382ebca3e46505071795e192d28166a3d4bd0685585591bc6c5b8df6769fd25473ffffffffffffffffffffffffffffffffffffffff166200043a565b60006200082b7f7d382ebca3e46505071795e192d28166a3d4bd0685585591bc6c5b8df6769fd25473ffffffffffffffffffffffffffffffffffffffff1690565b73ffffffffffffffffffffffffffffffffffffffff163373ffffffffffffffffffffffffffffffffffffffff1614620008ab5760405162461bcd60e51b815260206004820152601860248201527f416363657373436f6e74726f6c6c65642f496e76616c6964000000000000000060448201526064015b60405180910390fd5b73ffffffffffffffffffffffffffffffffffffffff8316620009365760405162461bcd60e51b815260206004820152602360248201527f53696e676c65557365722f7769746864726177546f6b656e2f3078526563656960448201527f76657200000000000000000000000000000000000000000000000000000000006064820152608401620008a2565b6200094384848462002f3a565b90505b9392505050565b7f7d382ebca3e46505071795e192d28166a3d4bd0685585591bc6c5b8df6769fd25473ffffffffffffffffffffffffffffffffffffffff163314620009d55760405162461bcd60e51b815260206004820152601860248201527f416363657373436f6e74726f6c6c65642f496e76616c696400000000000000006044820152606401620008a2565b7f416b48c48a967c2245e6ba6bc6efa281932950b502fea671117e4dfd7d3dfb813062000a367f7d382ebca3e46505071795e192d28166a3d4bd0685585591bc6c5b8df6769fd25473ffffffffffffffffffffffffffffffffffffffff1690565b60405162000a449062003884565b73ffffffffffffffffffffffffffffffffffffffff928316815291166020820152604001604051809103906000f08015801562000a85573d6000803e3d6000fd5b506009820180547fffffffffffffffffffffff0000000000000000000000000000000000000000ff1661010073ffffffffffffffffffffffffffffffffffffffff938416810291909117918290556040517f095ea7b30000000000000000000000000000000000000000000000000000000081529104821660048201527fffffffffffffffffffffffffffffffffffffffffffffffffffffffffffffffff60248201527f00000000000000000000000000000000000000000000000000000000000000009091169063095ea7b3906044016020604051808303816000875af115801562000b76573d6000803e3d6000fd5b505050506040513d601f19601f8201168201806040525081019062000b9c919062003e47565b5060098101546040517f095ea7b300000000000000000000000000000000000000000000000000000000815261010090910473ffffffffffffffffffffffffffffffffffffffff90811660048301527fffffffffffffffffffffffffffffffffffffffffffffffffffffffffffffffff60248301527f0000000000000000000000000000000000000000000000000000000000000000169063095ea7b3906044016020604051808303816000875af115801562000c5d573d6000803e3d6000fd5b505050506040513d601f19601f8201168201806040525081019062000c83919062003e47565b50600981015460405161010090910473ffffffffffffffffffffffffffffffffffffffff1681527fb3be610edf224007ca5faace2cec8684b0e6147124703e9359d544873fca9d379060200160405180910390a150565b600062000d1b7f7d382ebca3e46505071795e192d28166a3d4bd0685585591bc6c5b8df6769fd25473ffffffffffffffffffffffffffffffffffffffff1690565b73ffffffffffffffffffffffffffffffffffffffff163373ffffffffffffffffffffffffffffffffffffffff161462000d975760405162461bcd60e51b815260206004820152601860248201527f416363657373436f6e74726f6c6c65642f496e76616c696400000000000000006044820152606401620008a2565b73ffffffffffffffffffffffffffffffffffffffff831662000e225760405162461bcd60e51b815260206004820152602160248201527f53696e676c65557365722f77697468647261774d47562f30785265636569766560448201527f72000000000000000000000000000000000000000000000000000000000000006064820152608401620008a2565b62000e2e838362003079565b90505b92915050565b600062000e787f7d382ebca3e46505071795e192d28166a3d4bd0685585591bc6c5b8df6769fd25473ffffffffffffffffffffffffffffffffffffffff1690565b73ffffffffffffffffffffffffffffffffffffffff163373ffffffffffffffffffffffffffffffffffffffff161462000ef45760405162461bcd60e51b815260206004820152601860248201527f416363657373436f6e74726f6c6c65642f496e76616c696400000000000000006044820152606401620008a2565b507f416b48c48a967c2245e6ba6bc6efa281932950b502fea671117e4dfd7d3dfb885490565b600062000f5b7f7d382ebca3e46505071795e192d28166a3d4bd0685585591bc6c5b8df6769fd25473ffffffffffffffffffffffffffffffffffffffff1690565b73ffffffffffffffffffffffffffffffffffffffff163373ffffffffffffffffffffffffffffffffffffffff161462000fd75760405162461bcd60e51b815260206004820152601860248201527f416363657373436f6e74726f6c6c65642f496e76616c696400000000000000006044820152606401620008a2565b507f416b48c48a967c2245e6ba6bc6efa281932950b502fea671117e4dfd7d3dfb875490565b7f7d382ebca3e46505071795e192d28166a3d4bd0685585591bc6c5b8df6769fd25473ffffffffffffffffffffffffffffffffffffffff163314806200107857503373ffffffffffffffffffffffffffffffffffffffff7f000000000000000000000000000000000000000000000000000000000000000016145b620010c65760405162461bcd60e51b815260206004820152601860248201527f416363657373436f6e74726f6c6c65642f496e76616c696400000000000000006044820152606401620008a2565b6000807f000000000000000000000000000000000000000000000000000000000000000073ffffffffffffffffffffffffffffffffffffffff16632a56aded60e01b898989898989604051602401620011259695949392919062003eb7565b604080517fffffffffffffffffffffffffffffffffffffffffffffffffffffffffffffffe08184030181529181526020820180517bffffffffffffffffffffffffffffffffffffffffffffffffffffffff167fffffffff00000000000000000000000000000000000000000000000000000000909416939093179092529051620011b0919062003fea565b600060405180830381855af49150503d8060008114620011ed576040519150601f19603f3d011682016040523d82523d6000602084013e620011f2565b606091505b5091509150816200120e5762001208816200320e565b62001248565b60408051888152602081018890527f997896709b4e932ee42750e2e14ed1f7ab6c60bd911ff567aa2485cf0b20051b910160405180910390a15b5050505050505050565b7f7d382ebca3e46505071795e192d28166a3d4bd0685585591bc6c5b8df6769fd25473ffffffffffffffffffffffffffffffffffffffff163314620012da5760405162461bcd60e51b815260206004820152601860248201527f416363657373436f6e74726f6c6c65642f496e76616c696400000000000000006044820152606401620008a2565b60007f416b48c48a967c2245e6ba6bc6efa281932950b502fea671117e4dfd7d3dfb815b60090180547fffffffffffffffffffffffffffffffffffffffffffffffffffffffffffffff0016911515919091179055565b6200133a62003892565b60408051831515602480830191909152825180830382018152604490920183526020820180517bffffffffffffffffffffffffffffffffffffffffffffffffffffffff167f663d2e0c000000000000000000000000000000000000000000000000000000001790529151600092839230927f5a3e96180000000000000000000000000000000000000000000000000000000092620013da92910162004008565b604080517fffffffffffffffffffffffffffffffffffffffffffffffffffffffffffffffe08184030181529181526020820180517bffffffffffffffffffffffffffffffffffffffffffffffffffffffff167fffffffff0000000000000000000000000000000000000000000000000000000090941693909317909252905162001465919062003fea565b600060405180830381855afa9150503d8060008114620014a2576040519150601f19603f3d011682016040523d82523d6000602084013e620014a7565b606091505b509150915081620014c357620014bd816200320e565b620014e1565b80806020019051810190620014d9919062004108565b949350505050565b5050919050565b7f7d382ebca3e46505071795e192d28166a3d4bd0685585591bc6c5b8df6769fd25473ffffffffffffffffffffffffffffffffffffffff163314806200156357503373ffffffffffffffffffffffffffffffffffffffff7f000000000000000000000000000000000000000000000000000000000000000016145b620015b15760405162461bcd60e51b815260206004820152601860248201527f416363657373436f6e74726f6c6c65642f496e76616c696400000000000000006044820152606401620008a2565b808162ffffff1614620016075760405162461bcd60e51b815260206004820152601860248201527f6d67764f666665722f6761737265712f6f766572666c6f7700000000000000006044820152606401620008a2565b7fae7e31c3220e851db9f204a28b279dfe52b973600b0a456991089c220ae7222455565b7f000000000000000000000000000000000000000000000000000000000000000073ffffffffffffffffffffffffffffffffffffffff811615806200168557503373ffffffffffffffffffffffffffffffffffffffff8216145b620016d35760405162461bcd60e51b815260206004820152601860248201527f416363657373436f6e74726f6c6c65642f496e76616c696400000000000000006044820152606401620008a2565b81602001357f6d67762f747261646553756363657373000000000000000000000000000000000362001710576200170a8362003269565b50505050565b6040830180359062001726906020860162003c54565b73ffffffffffffffffffffffffffffffffffffffff166200174b602086018662003c54565b73ffffffffffffffffffffffffffffffffffffffff167fd2c3f090769d843e1fc2e6ce65d60572e28f9163a5cfccbd6c1725c6a9263f2f85600001356040516200179791815260200190565b60405180910390a460016200170a565b30801580620017cb57503373ffffffffffffffffffffffffffffffffffffffff8216145b620018195760405162461bcd60e51b815260206004820152601860248201527f416363657373436f6e74726f6c6c65642f496e76616c696400000000000000006044820152606401620008a2565b6000807f000000000000000000000000000000000000000000000000000000000000000073ffffffffffffffffffffffffffffffffffffffff168585604051620018659291906200421b565b600060405180830381855af49150503d8060008114620018a2576040519150601f19603f3d011682016040523d82523d6000602084013e620018a7565b606091505b509150915081620018bd57620018bd816200320e565b3d60208201f35b60007f000000000000000000000000000000000000000000000000000000000000000073ffffffffffffffffffffffffffffffffffffffff811615806200192057503373ffffffffffffffffffffffffffffffffffffffff8216145b6200196e5760405162461bcd60e51b815260206004820152601860248201527f416363657373436f6e74726f6c6c65642f496e76616c696400000000000000006044820152606401620008a2565b7f416b48c48a967c2245e6ba6bc6efa281932950b502fea671117e4dfd7d3dfb8a5460ff1615620019e25760405162461bcd60e51b815260206004820152601660248201527f6d67764f666665722f61626f72742f72656e65676564000000000000000000006044820152606401620008a2565b6000620019f4846080013585620033b9565b111562001a445760405162461bcd60e51b815260206004820152601860248201527f6d67764f666665722f61626f72742f6765744661696c656400000000000000006044820152606401620008a2565b50919050565b7f7d382ebca3e46505071795e192d28166a3d4bd0685585591bc6c5b8df6769fd25473ffffffffffffffffffffffffffffffffffffffff16331462001ad25760405162461bcd60e51b815260206004820152601860248201527f416363657373436f6e74726f6c6c65642f496e76616c696400000000000000006044820152606401620008a2565b7f7d382ebca3e46505071795e192d28166a3d4bd0685585591bc6c5b8df6769fd280547fffffffffffffffffffffffff00000000000000000000000000000000000000001673ffffffffffffffffffffffffffffffffffffffff92909216919091179055565b600062001b797f7d382ebca3e46505071795e192d28166a3d4bd0685585591bc6c5b8df6769fd25473ffffffffffffffffffffffffffffffffffffffff1690565b73ffffffffffffffffffffffffffffffffffffffff163373ffffffffffffffffffffffffffffffffffffffff161462001bf55760405162461bcd60e51b815260206004820152601860248201527f416363657373436f6e74726f6c6c65642f496e76616c696400000000000000006044820152606401620008a2565b73ffffffffffffffffffffffffffffffffffffffff7f0000000000000000000000000000000000000000000000000000000000000000166349f6d2dc3462001c41602086018662003c54565b62001c53604087016020880162003c54565b604080517fffffffff0000000000000000000000000000000000000000000000000000000060e087901b16815273ffffffffffffffffffffffffffffffffffffffff93841660048201529290911660248301528601356044820152606086013560648201526080860135608482015260a086013560a482015260c086013560c482015260e40160206040518083038185885af115801562001cf8573d6000803e3d6000fd5b50505050506040513d601f19601f8201168201806040525081019062001d1f91906200422b565b90505b919050565b7f7d382ebca3e46505071795e192d28166a3d4bd0685585591bc6c5b8df6769fd25473ffffffffffffffffffffffffffffffffffffffff16331462001daf5760405162461bcd60e51b815260206004820152601860248201527f416363657373436f6e74726f6c6c65642f496e76616c696400000000000000006044820152606401620008a2565b73ffffffffffffffffffffffffffffffffffffffff7f000000000000000000000000000000000000000000000000000000000000000016636a4f76913462001dfb602086018662003c54565b62001e0d604087016020880162003c54565b604080517fffffffff0000000000000000000000000000000000000000000000000000000060e087901b16815273ffffffffffffffffffffffffffffffffffffffff93841660048201529290911660248301528601356044820152606086013560648201526080860135608482015260a086013560a482015260c086013560c482015260e48101859052610104016000604051808303818588803b15801562001eb557600080fd5b505af115801562001eca573d6000803e3d6000fd5b50505050505b5050565b7f7d382ebca3e46505071795e192d28166a3d4bd0685585591bc6c5b8df6769fd25473ffffffffffffffffffffffffffffffffffffffff1633148062001f4f57503373ffffffffffffffffffffffffffffffffffffffff7f000000000000000000000000000000000000000000000000000000000000000016145b62001f9d5760405162461bcd60e51b815260206004820152601860248201527f416363657373436f6e74726f6c6c65642f496e76616c696400000000000000006044820152606401620008a2565b6000807f000000000000000000000000000000000000000000000000000000000000000073ffffffffffffffffffffffffffffffffffffffff1663ac54d25a60e01b8787878760405160240162001ff8949392919062004245565b604080517fffffffffffffffffffffffffffffffffffffffffffffffffffffffffffffffe08184030181529181526020820180517bffffffffffffffffffffffffffffffffffffffffffffffffffffffff167fffffffff0000000000000000000000000000000000000000000000000000000090941693909317909252905162002083919062003fea565b600060405180830381855af49150503d8060008114620020c0576040519150601f19603f3d011682016040523d82523d6000602084013e620020c5565b606091505b509150915081620020db57620020db816200320e565b505050505050565b7f7d382ebca3e46505071795e192d28166a3d4bd0685585591bc6c5b8df6769fd25473ffffffffffffffffffffffffffffffffffffffff163314806200215e57503373ffffffffffffffffffffffffffffffffffffffff7f000000000000000000000000000000000000000000000000000000000000000016145b620021ac5760405162461bcd60e51b815260206004820152601860248201527f416363657373436f6e74726f6c6c65642f496e76616c696400000000000000006044820152606401620008a2565b60017f416b48c48a967c2245e6ba6bc6efa281932950b502fea671117e4dfd7d3dfb81620012fe565b7f7d382ebca3e46505071795e192d28166a3d4bd0685585591bc6c5b8df6769fd25473ffffffffffffffffffffffffffffffffffffffff163314806200225057503373ffffffffffffffffffffffffffffffffffffffff7f000000000000000000000000000000000000000000000000000000000000000016145b6200229e5760405162461bcd60e51b815260206004820152601860248201527f416363657373436f6e74726f6c6c65642f496e76616c696400000000000000006044820152606401620008a2565b7f416b48c48a967c2245e6ba6bc6efa281932950b502fea671117e4dfd7d3dfb8955565b6000620023037f7d382ebca3e46505071795e192d28166a3d4bd0685585591bc6c5b8df6769fd25473ffffffffffffffffffffffffffffffffffffffff1690565b73ffffffffffffffffffffffffffffffffffffffff163373ffffffffffffffffffffffffffffffffffffffff1614806200237257503373ffffffffffffffffffffffffffffffffffffffff7f000000000000000000000000000000000000000000000000000000000000000016145b620023c05760405162461bcd60e51b815260206004820152601860248201527f416363657373436f6e74726f6c6c65642f496e76616c696400000000000000006044820152606401620008a2565b6040517fad97db1b00000000000000000000000000000000000000000000000000000000815273ffffffffffffffffffffffffffffffffffffffff868116600483015285811660248301526044820185905283151560648301527f0000000000000000000000000000000000000000000000000000000000000000169063ad97db1b906084016020604051808303816000875af115801562002466573d6000803e3d6000fd5b505050506040513d601f19601f820116820180604052508101906200248c91906200422b565b95945050505050565b7f7d382ebca3e46505071795e192d28166a3d4bd0685585591bc6c5b8df6769fd25473ffffffffffffffffffffffffffffffffffffffff163314806200251057503373ffffffffffffffffffffffffffffffffffffffff7f000000000000000000000000000000000000000000000000000000000000000016145b6200255e5760405162461bcd60e51b815260206004820152601860248201527f416363657373436f6e74726f6c6c65642f496e76616c696400000000000000006044820152606401620008a2565b6040517f095ea7b300000000000000000000000000000000000000000000000000000000815273ffffffffffffffffffffffffffffffffffffffff7f0000000000000000000000000000000000000000000000000000000000000000811660048301526024820183905283169063095ea7b3906044016020604051808303816000875af1158015620025f4573d6000803e3d6000fd5b505050506040513d601f19601f820116820180604052508101906200261a919062003e47565b62001ed05760405162461bcd60e51b815260206004820152601560248201527f6d67764f666665722f617070726f76652f4661696c00000000000000000000006044820152606401620008a2565b7f7d382ebca3e46505071795e192d28166a3d4bd0685585591bc6c5b8df6769fd25473ffffffffffffffffffffffffffffffffffffffff16331480620026e357503373ffffffffffffffffffffffffffffffffffffffff7f000000000000000000000000000000000000000000000000000000000000000016145b620027315760405162461bcd60e51b815260206004820152601860248201527f416363657373436f6e74726f6c6c65642f496e76616c696400000000000000006044820152606401620008a2565b7f416b48c48a967c2245e6ba6bc6efa281932950b502fea671117e4dfd7d3dfb8855565b6000620027967f7d382ebca3e46505071795e192d28166a3d4bd0685585591bc6c5b8df6769fd25473ffffffffffffffffffffffffffffffffffffffff1690565b73ffffffffffffffffffffffffffffffffffffffff163373ffffffffffffffffffffffffffffffffffffffff1614620028125760405162461bcd60e51b815260206004820152601860248201527f416363657373436f6e74726f6c6c65642f496e76616c696400000000000000006044820152606401620008a2565b604080516024810186905260448101859052606480820185905282518083039091018152608490910182526020810180517bffffffffffffffffffffffffffffffffffffffffffffffffffffffff167fa7964d4900000000000000000000000000000000000000000000000000000000179052905160009182917f000000000000000000000000000000000000000000000000000000000000000073ffffffffffffffffffffffffffffffffffffffff1691620028cf9162003fea565b600060405180830381855af49150503d80600081146200290c576040519150601f19603f3d011682016040523d82523d6000602084013e62002911565b606091505b5091509150816200292d5762002927816200320e565b6200294d565b808060200190518101906200294391906200422b565b9250505062000946565b50509392505050565b7f7d382ebca3e46505071795e192d28166a3d4bd0685585591bc6c5b8df6769fd25473ffffffffffffffffffffffffffffffffffffffff163314620029de5760405162461bcd60e51b815260206004820152601860248201527f416363657373436f6e74726f6c6c65642f496e76616c696400000000000000006044820152606401620008a2565b60007f416b48c48a967c2245e6ba6bc6efa281932950b502fea671117e4dfd7d3dfb838190557f416b48c48a967c2245e6ba6bc6efa281932950b502fea671117e4dfd7d3dfb8455565b7f7d382ebca3e46505071795e192d28166a3d4bd0685585591bc6c5b8df6769fd25473ffffffffffffffffffffffffffffffffffffffff16331462002ab05760405162461bcd60e51b815260206004820152601860248201527f416363657373436f6e74726f6c6c65642f496e76616c696400000000000000006044820152606401620008a2565b817f416b48c48a967c2245e6ba6bc6efa281932950b502fea671117e4dfd7d3dfb8160090180547fffffffffffffffffffffff0000000000000000000000000000000000000000ff1661010073ffffffffffffffffffffffffffffffffffffffff938416021790556040517f095ea7b300000000000000000000000000000000000000000000000000000000815283821660048201527fffffffffffffffffffffffffffffffffffffffffffffffffffffffffffffffff60248201527f00000000000000000000000000000000000000000000000000000000000000009091169063095ea7b3906044016020604051808303816000875af115801562002bba573d6000803e3d6000fd5b505050506040513d601f19601f8201168201806040525081019062002be0919062003e47565b506040517f095ea7b300000000000000000000000000000000000000000000000000000000815273ffffffffffffffffffffffffffffffffffffffff83811660048301527fffffffffffffffffffffffffffffffffffffffffffffffffffffffffffffffff60248301527f0000000000000000000000000000000000000000000000000000000000000000169063095ea7b3906044016020604051808303816000875af115801562002c96573d6000803e3d6000fd5b505050506040513d601f19601f8201168201806040525081019062002cbc919062003e47565b5062002cc881620014e8565b60405173ffffffffffffffffffffffffffffffffffffffff831681527fb3be610edf224007ca5faace2cec8684b0e6147124703e9359d544873fca9d379060200160405180910390a15050565b62002d1f620038ba565b7f7d382ebca3e46505071795e192d28166a3d4bd0685585591bc6c5b8df6769fd25473ffffffffffffffffffffffffffffffffffffffff16331462002da75760405162461bcd60e51b815260206004820152601860248201527f416363657373436f6e74726f6c6c65642f496e76616c696400000000000000006044820152606401620008a2565b50604080518082019091527f416b48c48a967c2245e6ba6bc6efa281932950b502fea671117e4dfd7d3dfb835481527f416b48c48a967c2245e6ba6bc6efa281932950b502fea671117e4dfd7d3dfb8454602082015290565b6040517f70a0823100000000000000000000000000000000000000000000000000000000815230600482015260009062002ec49073ffffffffffffffffffffffffffffffffffffffff7f000000000000000000000000000000000000000000000000000000000000000016906370a0823190602401602060405180830381865afa15801562002e93573d6000803e3d6000fd5b505050506040513d601f19601f8201168201806040525081019062002eb991906200422b565b8787878787620034e0565b9695505050505050565b7f7d382ebca3e46505071795e192d28166a3d4bd0685585591bc6c5b8df6769fd290565b7fae7e31c3220e851db9f204a28b279dfe52b973600b0a456991089c220ae7222490565b7f416b48c48a967c2245e6ba6bc6efa281932950b502fea671117e4dfd7d3dfb8190565b600081158062002f5f575073ffffffffffffffffffffffffffffffffffffffff831630145b1562002f6e5750600162000946565b6040805173ffffffffffffffffffffffffffffffffffffffff8581166024830152604480830186905283518084039091018152606490920183526020820180517bffffffffffffffffffffffffffffffffffffffffffffffffffffffff167fa9059cbb00000000000000000000000000000000000000000000000000000000179052915160009283929088169162003007919062003fea565b6000604051808303816000865af19150503d806000811462003046576040519150601f19603f3d011682016040523d82523d6000602084013e6200304b565b606091505b509150915081801562002ec457508051158062002ec457508080602001905181019062002ec4919062003e47565b6040517f2e1a7d4d000000000000000000000000000000000000000000000000000000008152600481018290526000907f000000000000000000000000000000000000000000000000000000000000000073ffffffffffffffffffffffffffffffffffffffff1690632e1a7d4d906024016020604051808303816000875af11580156200310a573d6000803e3d6000fd5b505050506040513d601f19601f8201168201806040525081019062003130919062003e47565b6200317e5760405162461bcd60e51b815260206004820152601e60248201527f6d67764f666665722f77697468647261772f7472616e736665724661696c00006044820152606401620008a2565b73ffffffffffffffffffffffffffffffffffffffff83163014620032055760405173ffffffffffffffffffffffffffffffffffffffff8416908390600081818185875af1925050503d8060008114620031f4576040519150601f19603f3d011682016040523d82523d6000602084013e620031f9565b606091505b50508091505062000e31565b50600192915050565b8051600003620032615760405162461bcd60e51b815260206004820152601b60248201527f4d616e676f53746f726167652f7265766572744e6f526561736f6e00000000006044820152606401620008a2565b805160208201fd5b60008060007f000000000000000000000000000000000000000000000000000000000000000073ffffffffffffffffffffffffffffffffffffffff16632fa9b19060e01b85604051602401620032c0919062004269565b604080517fffffffffffffffffffffffffffffffffffffffffffffffffffffffffffffffe08184030181529181526020820180517bffffffffffffffffffffffffffffffffffffffffffffffffffffffff167fffffffff000000000000000000000000000000000000000000000000000000009094169390931790925290516200334b919062003fea565b600060405180830381855af49150503d806000811462003388576040519150601f19603f3d011682016040523d82523d6000602084013e6200338d565b606091505b509150915081620033a357620014bd816200320e565b80806020019051810190620014d9919062003e47565b7f416b48c48a967c2245e6ba6bc6efa281932950b502fea671117e4dfd7d3dfb8a54600090610100900473ffffffffffffffffffffffffffffffffffffffff16818163f2d5d56b6200340f602087018762003c54565b6040517fffffffff0000000000000000000000000000000000000000000000000000000060e084901b16815273ffffffffffffffffffffffffffffffffffffffff9091166004820152602481018890526044016020604051808303816000875af115801562003482573d6000803e3d6000fd5b505050506040513d601f19601f82011682018060405250810190620034a891906200422b565b905084811115620034bf5760009250505062000e31565b620034d6620034cf82876200433b565b85620037b5565b9250505062000e31565b6000808073ffffffffffffffffffffffffffffffffffffffff7f00000000000000000000000000000000000000000000000000000000000000001663cbf75c9a89896040517fffffffff0000000000000000000000000000000000000000000000000000000060e085901b16815273ffffffffffffffffffffffffffffffffffffffff9283166004820152911660248201526044016040805180830381865afa15801562003592573d6000803e3d6000fd5b505050506040513d601f19601f82011682018060405250810190620035b8919062004355565b9150915060007f000000000000000000000000000000000000000000000000000000000000000073ffffffffffffffffffffffffffffffffffffffff16635722647b620036028b90565b8a6040517fffffffff0000000000000000000000000000000000000000000000000000000060e085901b16815273ffffffffffffffffffffffffffffffffffffffff92831660048201529116602482015260448101889052606401602060405180830381865afa1580156200367b573d6000803e3d6000fd5b505050506040513d601f19601f82011682018060405250810190620036a191906200422b565b9050600086604085901c61ffff161115620036c6575061ffff604084901c16620036c9565b50855b62ffffff881115620036fa577fae7e31c3220e851db9f204a28b279dfe52b973600b0a456991089c220ae722245497505b6000816200371262ffffff606087901c168b6200437a565b6200371e919062004395565b6200372e90633b9aca0062004395565b9050600061ffff602085901c166200375762ffffff603087901c811690604888901c166200437a565b62003763919062004395565b6200377390633b9aca0062004395565b90506000620037838e836200437a565b905082811015620037a0576200379a81846200433b565b620037a3565b60005b9e9d5050505050505050505050505050565b600080620037c7602084018462003c54565b6040517f70a0823100000000000000000000000000000000000000000000000000000000815230600482015273ffffffffffffffffffffffffffffffffffffffff91909116906370a0823190602401602060405180830381865afa15801562003834573d6000803e3d6000fd5b505050506040513d601f19601f820116820180604052508101906200385a91906200422b565b90508381106200386f57600091505062000e31565b6200387b81856200433b565b91505062000e31565b610c5380620043d683390190565b60405180604001604052806002905b6060815260200190600190039081620038a15790505090565b60405180604001604052806002906020820280368337509192915050565b73ffffffffffffffffffffffffffffffffffffffff81168114620038fb57600080fd5b50565b803562001d2281620038d8565b6000806000606084860312156200392157600080fd5b83356200392e81620038d8565b925060208401356200394081620038d8565b929592945050506040919091013590565b600080604083850312156200396557600080fd5b82356200397281620038d8565b946020939093013593505050565b60008083601f8401126200399357600080fd5b50813567ffffffffffffffff811115620039ac57600080fd5b6020830191508360208260051b8501011115620039c857600080fd5b9250929050565b60008060008060008060a08789031215620039e957600080fd5b863595506020870135945060408701359350606087013567ffffffffffffffff8082111562003a1757600080fd5b81890191508960408301111562003a2d57600080fd5b9093506080880135908082111562003a4457600080fd5b5062003a5389828a0162003980565b979a9699509497509295939492505050565b8015158114620038fb57600080fd5b60006020828403121562003a8757600080fd5b8135620009468162003a65565b6020808252600090606083018382018584805b600281101562003b1e578785037fffffffffffffffffffffffffffffffffffffffffffffffffffffffffffffffe0018452825180518087529087019087870190845b8181101562003b075783518352928901929189019160010162003ae9565b509096505050928501929185019160010162003aa7565b5092979650505050505050565b60006020828403121562003b3e57600080fd5b5035919050565b6000610120828403121562001a4457600080fd5b60008082840361016081121562003b6f57600080fd5b62003b7b858562003b45565b925060407ffffffffffffffffffffffffffffffffffffffffffffffffffffffffffffffee08201121562003bae57600080fd5b50610120830190509250929050565b6000806020838503121562003bd157600080fd5b823567ffffffffffffffff8082111562003bea57600080fd5b818501915085601f83011262003bff57600080fd5b81358181111562003c0f57600080fd5b86602082850101111562003c2257600080fd5b60209290920196919550909350505050565b6000610120828403121562003c4857600080fd5b62000e2e838362003b45565b60006020828403121562003c6757600080fd5b81356200094681620038d8565b600060e0828403121562001a4457600080fd5b600060e0828403121562003c9a57600080fd5b62000e2e838362003c74565b600080610100838503121562003cbb57600080fd5b62003cc7848462003c74565b9460e0939093013593505050565b6000806000806060858703121562003cec57600080fd5b84359350602085013562003d008162003a65565b9250604085013567ffffffffffffffff81111562003d1d57600080fd5b62003d2b8782880162003980565b95989497509550505050565b6000806000806080858703121562003d4e57600080fd5b843562003d5b81620038d8565b9350602085013562003d6d81620038d8565b925060408501359150606085013562003d868162003a65565b939692955090935050565b60008060006060848603121562003da757600080fd5b505081359360208301359350604090920135919050565b60408101818360005b600281101562003de857815183526020928301929091019060010162003dc7565b50505092915050565b600080600080600060a0868803121562003e0a57600080fd5b853562003e1781620038d8565b9450602086013562003e2981620038d8565b94979496505050506040830135926060810135926080909101359150565b60006020828403121562003e5a57600080fd5b8151620009468162003a65565b81835260007f07ffffffffffffffffffffffffffffffffffffffffffffffffffffffffffffff83111562003e9a57600080fd5b8260051b8083602087013760009401602001938452509192915050565b86815260208082018790526040820186905260a06060830181905260009160e0840191840187845b600281101562003f95577fffffffffffffffffffffffffffffffffffffffffffffffffffffffffffffff6087860301835281357fffffffffffffffffffffffffffffffffffffffffffffffffffffffffffffffe18b360301811262003f4357600080fd5b8a01848101903567ffffffffffffffff81111562003f6057600080fd5b8060051b360382131562003f7357600080fd5b62003f8087828462003e67565b96505050918301919083019060010162003edf565b50505050828103608084015262003fae81858762003e67565b9998505050505050505050565b60005b8381101562003fd857818101518382015260200162003fbe565b838111156200170a5750506000910152565b6000825162003ffe81846020870162003fbb565b9190910192915050565b60208152600082518060208401526200402981604085016020870162003fbb565b601f017fffffffffffffffffffffffffffffffffffffffffffffffffffffffffffffffe0169190910160400192915050565b7f4e487b7100000000000000000000000000000000000000000000000000000000600052604160045260246000fd5b6040805190810167ffffffffffffffff81118282101715620040b057620040b06200405b565b60405290565b604051601f82017fffffffffffffffffffffffffffffffffffffffffffffffffffffffffffffffe016810167ffffffffffffffff811182821017156200410057620041006200405b565b604052919050565b600060208083850312156200411c57600080fd5b825167ffffffffffffffff808211156200413557600080fd5b8185019150601f86818401126200414b57600080fd5b620041556200408a565b8060408501898111156200416857600080fd5b855b818110156200420c57805186811115620041845760008081fd5b87018581018c13620041965760008081fd5b805187811115620041ab57620041ab6200405b565b8060051b620041bc8b8201620040b6565b9182528281018b01918b8101908f841115620041da57600092508283fd5b938c01935b83851015620041fa5784518252938c0193908c0190620041df565b8852505050938801935087016200416a565b50909998505050505050505050565b8183823760009101908152919050565b6000602082840312156200423e57600080fd5b5051919050565b848152831515602082015260606040820152600062002ec460608301848662003e67565b610120810182356200427b81620038d8565b73ffffffffffffffffffffffffffffffffffffffff168252620042a160208401620038fe565b73ffffffffffffffffffffffffffffffffffffffff811660208401525060408301356040830152606083013560608301526080830135608083015260a083013560a083015260c083013560c083015260e083013560e083015261010080840135818401525092915050565b7f4e487b7100000000000000000000000000000000000000000000000000000000600052601160045260246000fd5b6000828210156200435057620043506200430c565b500390565b600080604083850312156200436957600080fd5b505080516020909101519092909150565b600082198211156200439057620043906200430c565b500190565b6000817fffffffffffffffffffffffffffffffffffffffffffffffffffffffffffffffff0483118215151615620043d057620043d06200430c565b50029056fe60c060405234801561001057600080fd5b50604051610c53380380610c5383398101604081905261002f91610107565b806001600160a01b03811661008a5760405162461bcd60e51b815260206004820152601860248201527f616363657373436f6e74726f6c6c65642f307841646d696e0000000000000000604482015260640160405180910390fd5b8061009d6100c760201b6107161760201c565b80546001600160a01b0319166001600160a01b0392831617905592831660a052501660805261013a565b7f7d382ebca3e46505071795e192d28166a3d4bd0685585591bc6c5b8df6769fd290565b80516001600160a01b038116811461010257600080fd5b919050565b6000806040838503121561011a57600080fd5b610123836100eb565b9150610131602084016100eb565b90509250929050565b60805160a051610abd61019660003960008181608701528181610195015281816102c80152818161036b015281816105f401526106d80152600081816101210152818161038c0152818161057301526106b70152610abd6000f3fe608060405234801561001057600080fd5b506004361061007d5760003560e01c8063e3d670d71161005b578063e3d670d7146100fb578063f230b4c21461011c578063f2d5d56b14610143578063f851a4401461015657600080fd5b806317eaf7121461008257806348897c52146100d3578063704b6c02146100e8575b600080fd5b6100a97f000000000000000000000000000000000000000000000000000000000000000081565b60405173ffffffffffffffffffffffffffffffffffffffff90911681526020015b60405180910390f35b6100e66100e1366004610899565b610193565b005b6100e66100f6366004610933565b610430565b61010e610109366004610933565b610536565b6040519081526020016100ca565b6100a97f000000000000000000000000000000000000000000000000000000000000000081565b61010e610151366004610957565b6105f0565b7f7d382ebca3e46505071795e192d28166a3d4bd0685585591bc6c5b8df6769fd25473ffffffffffffffffffffffffffffffffffffffff166100a9565b7f000000000000000000000000000000000000000000000000000000000000000073ffffffffffffffffffffffffffffffffffffffff811615806101ec57503373ffffffffffffffffffffffffffffffffffffffff8216145b610257576040517f08c379a000000000000000000000000000000000000000000000000000000000815260206004820152601860248201527f416363657373436f6e74726f6c6c65642f496e76616c6964000000000000000060448201526064015b60405180910390fd5b60005b8281101561042a57600084848381811061027657610276610983565b905060200201602081019061028b9190610933565b6040517f70a0823100000000000000000000000000000000000000000000000000000000815273ffffffffffffffffffffffffffffffffffffffff7f00000000000000000000000000000000000000000000000000000000000000008116600483015291909116906370a0823190602401602060405180830381865afa158015610319573d6000803e3d6000fd5b505050506040513d601f19601f8201168201806040525081019061033d91906109b2565b90506103b185858481811061035457610354610983565b90506020020160208101906103699190610933565b7f00000000000000000000000000000000000000000000000000000000000000007f00000000000000000000000000000000000000000000000000000000000000008461073a565b610417576040517f08c379a000000000000000000000000000000000000000000000000000000000815260206004820152601d60248201527f454f41536f75726365722f666c7573682f7472616e736665724661696c000000604482015260640161024e565b5080610422816109cb565b91505061025a565b50505050565b7f7d382ebca3e46505071795e192d28166a3d4bd0685585591bc6c5b8df6769fd25473ffffffffffffffffffffffffffffffffffffffff1633146104d0576040517f08c379a000000000000000000000000000000000000000000000000000000000815260206004820152601860248201527f416363657373436f6e74726f6c6c65642f496e76616c69640000000000000000604482015260640161024e565b7f7d382ebca3e46505071795e192d28166a3d4bd0685585591bc6c5b8df6769fd280547fffffffffffffffffffffffff00000000000000000000000000000000000000001673ffffffffffffffffffffffffffffffffffffffff92909216919091179055565b6040517f70a0823100000000000000000000000000000000000000000000000000000000815273ffffffffffffffffffffffffffffffffffffffff7f000000000000000000000000000000000000000000000000000000000000000081166004830152600091908316906370a0823190602401602060405180830381865afa1580156105c6573d6000803e3d6000fd5b505050506040513d601f19601f820116820180604052508101906105ea91906109b2565b92915050565b60007f000000000000000000000000000000000000000000000000000000000000000073ffffffffffffffffffffffffffffffffffffffff8116158061064b57503373ffffffffffffffffffffffffffffffffffffffff8216145b6106b1576040517f08c379a000000000000000000000000000000000000000000000000000000000815260206004820152601860248201527f416363657373436f6e74726f6c6c65642f496e76616c69640000000000000000604482015260640161024e565b6106fd847f00000000000000000000000000000000000000000000000000000000000000007f00000000000000000000000000000000000000000000000000000000000000008661073a565b1561070b576000915061070f565b8291505b5092915050565b7f7d382ebca3e46505071795e192d28166a3d4bd0685585591bc6c5b8df6769fd290565b600081158061077457508273ffffffffffffffffffffffffffffffffffffffff168473ffffffffffffffffffffffffffffffffffffffff16145b1561078157506001610891565b6040805173ffffffffffffffffffffffffffffffffffffffff86811660248301528581166044830152606480830186905283518084039091018152608490920183526020820180517bffffffffffffffffffffffffffffffffffffffffffffffffffffffff167f23b872dd0000000000000000000000000000000000000000000000000000000017905291516000928392908916916108209190610a2a565b6000604051808303816000865af19150503d806000811461085d576040519150601f19603f3d011682016040523d82523d6000602084013e610862565b606091505b509150915081801561088c57508051158061088c57508080602001905181019061088c9190610a65565b925050505b949350505050565b600080602083850312156108ac57600080fd5b823567ffffffffffffffff808211156108c457600080fd5b818501915085601f8301126108d857600080fd5b8135818111156108e757600080fd5b8660208260051b85010111156108fc57600080fd5b60209290920196919550909350505050565b73ffffffffffffffffffffffffffffffffffffffff8116811461093057600080fd5b50565b60006020828403121561094557600080fd5b81356109508161090e565b9392505050565b6000806040838503121561096a57600080fd5b82356109758161090e565b946020939093013593505050565b7f4e487b7100000000000000000000000000000000000000000000000000000000600052603260045260246000fd5b6000602082840312156109c457600080fd5b5051919050565b60007fffffffffffffffffffffffffffffffffffffffffffffffffffffffffffffffff8203610a23577f4e487b7100000000000000000000000000000000000000000000000000000000600052601160045260246000fd5b5060010190565b6000825160005b81811015610a4b5760208186018101518583015201610a31565b81811115610a5a576000828501525b509190910192915050565b600060208284031215610a7757600080fd5b8151801515811461095057600080fdfea26469706673582212200535763aaff4477b2aa72b098de6d97ce6de3888105f8974826557dc4cdf26e564736f6c634300080e0033a264697066735822122011288046090bc5cf38d00570f68ad7a55caa0f7acac403234e78581732e85d8164736f6c634300080e00336101606040523480156200001257600080fd5b506040516200562038038062005620833981016040819052620000359162000196565b853080806200008a5760405162461bcd60e51b815260206004820152601860248201527f616363657373436f6e74726f6c6c65642f307841646d696e0000000000000000604482015260640160405180910390fd5b80620000a06200011860201b620022ca1760201c565b80546001600160a01b0319166001600160a01b0392831617905583166080525062013880620000da6200013c602090811b620022ee17901c565b5550506001600160a01b0394851661010052929093166101205260a0919091526001600160601b0390811660c0521660e05250336101405262000216565b7f7d382ebca3e46505071795e192d28166a3d4bd0685585591bc6c5b8df6769fd290565b7fae7e31c3220e851db9f204a28b279dfe52b973600b0a456991089c220ae7222490565b6001600160a01b03811681146200017657600080fd5b50565b80516001600160601b03811681146200019157600080fd5b919050565b60008060008060008060c08789031215620001b057600080fd5b8651620001bd8162000160565b6020880151909650620001d08162000160565b6040880151909550620001e38162000160565b9350620001f36060880162000179565b9250620002036080880162000179565b915060a087015190509295509295509295565b60805160a05160c05160e051610100516101205161014051615132620004ee6000396000818161067f01528181610bff01528181611bcb0152611ddd015260008181610a6a01528181610b7c01528181610d07015281816114790152818161160901528181611cbd01528181611d550152818161264301528181612821015281816128cf01528181612fc40152818161309a0152818161325e01528181613a4b01528181613bba01528181613d2a01528181613eb201528181613fb50152818161410f015281816142c9015281816143b301528181614586015261463e015260008181610a4901528181610b9d01528181610cb301528181610dcf015281816114a1015281816115e101528181611c9c01528181611d7601528181612664015281816128ae01528181612a8701528181612d1d01528181612fa30152818161327f0152818161333d015281816136c8015281816137fe01528181613a2a01528181613be401528181613d0901528181613edc01528181613f94015281816141300152818161429f015281816143d40152818161455c015261465f0152600061471a01526000818161366d01526137980152600081816107db0152818161080f01528181610845015281816108ee01528181610f6801528181610fbd0152818161130001528181611365015281816113d0015281816125c701528181612e8d01528181612f2c015281816130c40152818161316c0152818161390a01526139420152600081816102de015281816110b30152818161119b015281816114d70152818161163f015281816116e50152818161194101528181611ac301528181611f3501528181611ff2015281816120a8015281816121460152818161224b0152818161245e0152818161261c0152818161288701528181612ae6015281816133ab0152818161346001528181613a0301528181613ce201528181613f6d015281816140e80152818161438c015261461701526151326000f3fe6080604052600436106101485760003560e01c80637ea1a48c116100c0578063ad97db1b11610074578063e428204d11610059578063e428204d14610398578063e4c34f84146103cc578063f851a440146103ec57600080fd5b8063ad97db1b14610358578063aefe84031461037857600080fd5b806399fa5e2d116100a557806399fa5e2d146102cc578063a7964d4914610318578063ac54d25a1461033857600080fd5b80637ea1a48c146102a65780637f84e494146102b957600080fd5b806334bd893111610117578063663d2e0c116100fc578063663d2e0c1461022b5780636c49c32c14610258578063704b6c021461028657600080fd5b806334bd8931146101eb5780633d3d130d1461020b57600080fd5b806301e3366714610154578063063df2d2146101895780632a56aded146101a95780632fa9b190146101cb57600080fd5b3661014f57005b600080fd5b34801561016057600080fd5b5061017461016f3660046147e7565b610429565b60405190151581526020015b60405180910390f35b34801561019557600080fd5b506101746101a4366004614828565b610552565b3480156101b557600080fd5b506101c96101c43660046148a0565b610674565b005b3480156101d757600080fd5b506101746101e6366004614943565b610bf2565b3480156101f757600080fd5b506101c9610206366004614960565b611075565b34801561021757600080fd5b506101c9610226366004614979565b611199565b34801561023757600080fd5b5061024b6102463660046149e7565b6112d5565b6040516101809190614a04565b34801561026457600080fd5b50610278610273366004614943565b6116e1565b604051908152602001610180565b34801561029257600080fd5b506101c96102a1366004614a97565b6117d2565b6102786102b4366004614ac6565b6118a4565b6101c96102c7366004614ae2565b611a40565b3480156102d857600080fd5b506103007f000000000000000000000000000000000000000000000000000000000000000081565b6040516001600160a01b039091168152602001610180565b34801561032457600080fd5b50610278610333366004614b0e565b611bbe565b34801561034457600080fd5b506101c9610353366004614b3a565b611dd2565b34801561036457600080fd5b50610278610373366004614b96565b611edd565b34801561038457600080fd5b506101c9610393366004614828565b61206a565b3480156103a457600080fd5b507fae7e31c3220e851db9f204a28b279dfe52b973600b0a456991089c220ae7222454610278565b3480156103d857600080fd5b506102786103e7366004614be9565b61220e565b3480156103f857600080fd5b507f7d382ebca3e46505071795e192d28166a3d4bd0685585591bc6c5b8df6769fd2546001600160a01b0316610300565b600061045c7f7d382ebca3e46505071795e192d28166a3d4bd0685585591bc6c5b8df6769fd2546001600160a01b031690565b6001600160a01b0316336001600160a01b0316146104c15760405162461bcd60e51b815260206004820152601860248201527f416363657373436f6e74726f6c6c65642f496e76616c6964000000000000000060448201526064015b60405180910390fd5b6001600160a01b03831661053d5760405162461bcd60e51b815260206004820152602360248201527f53696e676c65557365722f7769746864726177546f6b656e2f3078526563656960448201527f766572000000000000000000000000000000000000000000000000000000000060648201526084016104b8565b610548848484612312565b90505b9392505050565b60006105857f7d382ebca3e46505071795e192d28166a3d4bd0685585591bc6c5b8df6769fd2546001600160a01b031690565b6001600160a01b0316336001600160a01b0316146105e55760405162461bcd60e51b815260206004820152601860248201527f416363657373436f6e74726f6c6c65642f496e76616c6964000000000000000060448201526064016104b8565b6001600160a01b0383166106615760405162461bcd60e51b815260206004820152602160248201527f53696e676c65557365722f77697468647261774d47562f30785265636569766560448201527f720000000000000000000000000000000000000000000000000000000000000060648201526084016104b8565b61066b838361242c565b90505b92915050565b306001600160a01b037f000000000000000000000000000000000000000000000000000000000000000016146106ec5760405162461bcd60e51b815260206004820152601f60248201527f4d616e676f496d706c656d656e746174696f6e2f696e76616c696443616c6c0060448201526064016104b8565b7f416b48c48a967c2245e6ba6bc6efa281932950b502fea671117e4dfd7d3dfb8a547f416b48c48a967c2245e6ba6bc6efa281932950b502fea671117e4dfd7d3dfb819061010090046001600160a01b031661078a5760405162461bcd60e51b815260206004820152601a60248201527f4d616e676f2f696e697469616c697a652f3078536f757263657200000000000060448201526064016104b8565b8585116107d95760405162461bcd60e51b815260206004820152601d60248201527f4d616e676f2f696e697469616c697a652f696e76616c6964536c69636500000060448201526064016104b8565b7f000000000000000000000000000000000000000000000000000000000000000082148015610806575060015b801561083c57507f00000000000000000000000000000000000000000000000000000000000000006108388580614c69565b9050145b801561087557507f00000000000000000000000000000000000000000000000000000000000000006108716020860186614c69565b9050145b6108e75760405162461bcd60e51b815260206004820152602360248201527f4d616e676f2f696e697469616c697a652f696e76616c696441727261794c656e60448201527f677468000000000000000000000000000000000000000000000000000000000060648201526084016104b8565b61091260017f0000000000000000000000000000000000000000000000000000000000000000614d00565b87106109605760405162461bcd60e51b815260206004820152601e60248201527f4d616e676f2f696e697469616c697a652f4e6f536c6f74466f7241736b73000060448201526064016104b8565b855b85811015610be857600061097582612591565b9050888211610ab857600061098a8780614c69565b8481811061099a5761099a614c3a565b905060200201359050600081116109f357600083116109ba5760006109f5565b836001016109d36001856109ce9190614d00565b612591565b815481106109e3576109e3614c3a565b90600052602060002001546109f5565b805b9050610a1c826001888887818110610a0f57610a0f614c3a565b90506020020135846125eb565b6000846000018381548110610a3357610a33614c3a565b90600052602060002001541115610ab257610ab07f00000000000000000000000000000000000000000000000000000000000000007f0000000000000000000000000000000000000000000000000000000000000000866000018581548110610a9e57610a9e614c3a565b90600052602060002001546000611edd565b505b50610bd5565b6000610ac76020880188614c69565b84818110610ad757610ad7614c3a565b90506020020135905060008111610b265760008311610af7576000610b28565b83610b066109ce600186614d00565b81548110610b1657610b16614c3a565b9060005260206000200154610b28565b805b9050610b4f826001888887818110610b4257610b42614c3a565b9050602002013584612856565b6000846001018381548110610b6657610b66614c3a565b90600052602060002001541115610bd357610bd17f00000000000000000000000000000000000000000000000000000000000000007f0000000000000000000000000000000000000000000000000000000000000000866001018581548110610a9e57610a9e614c3a565b505b505b5080610be081614d17565b915050610962565b5050505050505050565b6000306001600160a01b037f00000000000000000000000000000000000000000000000000000000000000001614610c6c5760405162461bcd60e51b815260206004820152601f60248201527f4d616e676f496d706c656d656e746174696f6e2f696e76616c696443616c6c0060448201526064016104b8565b6040805160028082526060820183527f416b48c48a967c2245e6ba6bc6efa281932950b502fea671117e4dfd7d3dfb819260009291906020830190803683370190505090507f000000000000000000000000000000000000000000000000000000000000000081600081518110610ce557610ce5614c3a565b60200260200101906001600160a01b031690816001600160a01b0316815250507f000000000000000000000000000000000000000000000000000000000000000081600181518110610d3957610d39614c3a565b6001600160a01b03928316602091820292909201015260098301546040517f48897c52000000000000000000000000000000000000000000000000000000008152610100909104909116906348897c5290610d98908490600401614d7e565b600060405180830381600087803b158015610db257600080fd5b505af1158015610dc6573d6000803e3d6000fd5b50505050610df17f000000000000000000000000000000000000000000000000000000000000000090565b6001600160a01b0316610e076020860186614a97565b6001600160a01b031603610f1757610e1e84612ab0565b610e3557610e2b84612cf0565b6002830155610e3d565b600060028301555b6040808501356000908152600584016020529081205490610e5d82612d7e565b90508015610ecf57610e84610e766109ce600184614d00565b60008860a0013560006125eb565b6008840154610e94600183614d00565b11610ec3576040517f5ac608c951fb4eeda3d62e6a244a32d697d994fdcdf2ff4ca1ff1b5dde368a0d90600090a15b50600195945050505050565b60405162461bcd60e51b815260206004820152601360248201527f4d616e676f2f4269644f75744f6652616e67650000000000000000000000000060448201526064016104b8565b610f2084612ab0565b610f3757610f2d84612cf0565b6003830155610f3f565b600060038301555b6040808501356000908152600484016020529081205490610f5f82612d7e565b9050610f8c60017f0000000000000000000000000000000000000000000000000000000000000000614d00565b81101561102657610fb2610fa46109ce836001614dcb565b60008860a001356000612856565b6008840154610fe1907f0000000000000000000000000000000000000000000000000000000000000000614d00565b610fec826001614dcb565b10610ec3576040517f3c8e6c8b637216f202e5b335b54c0abfc6c1b6952a8a2511de149d2f3e5e7e9290600090a150600195945050505050565b60405162461bcd60e51b815260206004820152601360248201527f4d616e676f2f41736b4f75744f6652616e67650000000000000000000000000060448201526064016104b8565b5050919050565b7f7d382ebca3e46505071795e192d28166a3d4bd0685585591bc6c5b8df6769fd2546001600160a01b03163314806110d55750336001600160a01b037f000000000000000000000000000000000000000000000000000000000000000016145b6111215760405162461bcd60e51b815260206004820152601860248201527f416363657373436f6e74726f6c6c65642f496e76616c6964000000000000000060448201526064016104b8565b808162ffffff16146111755760405162461bcd60e51b815260206004820152601860248201527f6d67764f666665722f6761737265712f6f766572666c6f77000000000000000060448201526064016104b8565b7fae7e31c3220e851db9f204a28b279dfe52b973600b0a456991089c220ae7222455565b7f00000000000000000000000000000000000000000000000000000000000000006001600160a01b03811615806111d85750336001600160a01b038216145b6112245760405162461bcd60e51b815260206004820152601860248201527f416363657373436f6e74726f6c6c65642f496e76616c6964000000000000000060448201526064016104b8565b81602001357f6d67762f747261646553756363657373000000000000000000000000000000000361125e5761125883612ab0565b50505050565b604083018035906112729060208601614a97565b6001600160a01b03166112886020860186614a97565b6001600160a01b03167fd2c3f090769d843e1fc2e6ce65d60572e28f9163a5cfccbd6c1725c6a9263f2f85600001356040516112c691815260200190565b60405180910390a46001611258565b6112dd6147a8565b7f416b48c48a967c2245e6ba6bc6efa281932950b502fea671117e4dfd7d3dfb817f000000000000000000000000000000000000000000000000000000000000000067ffffffffffffffff81111561133757611337614d4f565b604051908082528060200260200182016040528015611360578160200160208202803683370190505b5082527f000000000000000000000000000000000000000000000000000000000000000067ffffffffffffffff81111561139c5761139c614d4f565b6040519080825280602002602001820160405280156113c5578160200160208202803683370190505b50602083015260005b7f000000000000000000000000000000000000000000000000000000000000000081101561106e5760008261140283612591565b8154811061141257611412614c3a565b9060005260206000200154905060008360010161142e84612591565b8154811061143e5761143e614c3a565b60009182526020822001546040517f68c13d6b0000000000000000000000000000000000000000000000000000000081526001600160a01b037f0000000000000000000000000000000000000000000000000000000000000000811660048301527f00000000000000000000000000000000000000000000000000000000000000008116602483015260448201839052919350611554917f000000000000000000000000000000000000000000000000000000000000000016906368c13d6b906064015b602060405180830381865afa15801561151f573d6000803e3d6000fd5b505050506040513d601f19601f820116820180604052508101906115439190614de3565b6bffffffffffffffffffffffff1690565b118061155e575085155b611569576000611592565b8360010161157684612591565b8154811061158657611586614c3a565b90600052602060002001545b85518051859081106115a6576115a6614c3a565b60209081029190910101526040517f68c13d6b0000000000000000000000000000000000000000000000000000000081526001600160a01b037f0000000000000000000000000000000000000000000000000000000000000000811660048301527f0000000000000000000000000000000000000000000000000000000000000000811660248301526044820184905260009161166e917f000000000000000000000000000000000000000000000000000000000000000016906368c13d6b90606401611502565b1180611678575085155b6116835760006116a9565b8361168d84612591565b8154811061169d5761169d614c3a565b90600052602060002001545b60208601518051859081106116c0576116c0614c3a565b602002602001018181525050505080806116d990614d17565b9150506113ce565b60007f00000000000000000000000000000000000000000000000000000000000000006001600160a01b03811615806117225750336001600160a01b038216145b61176e5760405162461bcd60e51b815260206004820152601860248201527f416363657373436f6e74726f6c6c65642f496e76616c6964000000000000000060448201526064016104b8565b600061177e846080013585612db2565b11156117cc5760405162461bcd60e51b815260206004820152601860248201527f6d67764f666665722f61626f72742f6765744661696c6564000000000000000060448201526064016104b8565b50919050565b7f7d382ebca3e46505071795e192d28166a3d4bd0685585591bc6c5b8df6769fd2546001600160a01b0316331461184b5760405162461bcd60e51b815260206004820152601860248201527f416363657373436f6e74726f6c6c65642f496e76616c6964000000000000000060448201526064016104b8565b7f7d382ebca3e46505071795e192d28166a3d4bd0685585591bc6c5b8df6769fd280547fffffffffffffffffffffffff0000000000000000000000000000000000000000166001600160a01b0392909216919091179055565b60006118d77f7d382ebca3e46505071795e192d28166a3d4bd0685585591bc6c5b8df6769fd2546001600160a01b031690565b6001600160a01b0316336001600160a01b0316146119375760405162461bcd60e51b815260206004820152601860248201527f416363657373436f6e74726f6c6c65642f496e76616c6964000000000000000060448201526064016104b8565b6001600160a01b037f0000000000000000000000000000000000000000000000000000000000000000166349f6d2dc346119746020860186614a97565b6119846040870160208801614a97565b604080517fffffffff0000000000000000000000000000000000000000000000000000000060e087901b1681526001600160a01b0393841660048201529290911660248301528601356044820152606086013560648201526080860135608482015260a086013560a482015260c086013560c482015260e40160206040518083038185885af1158015611a1b573d6000803e3d6000fd5b50505050506040513d601f19601f8201168201806040525081019061066e9190614de3565b7f7d382ebca3e46505071795e192d28166a3d4bd0685585591bc6c5b8df6769fd2546001600160a01b03163314611ab95760405162461bcd60e51b815260206004820152601860248201527f416363657373436f6e74726f6c6c65642f496e76616c6964000000000000000060448201526064016104b8565b6001600160a01b037f000000000000000000000000000000000000000000000000000000000000000016636a4f769134611af66020860186614a97565b611b066040870160208801614a97565b604080517fffffffff0000000000000000000000000000000000000000000000000000000060e087901b1681526001600160a01b0393841660048201529290911660248301528601356044820152606086013560648201526080860135608482015260a086013560a482015260c086013560c482015260e48101859052610104016000604051808303818588803b158015611ba057600080fd5b505af1158015611bb4573d6000803e3d6000fd5b50505050505b5050565b6000306001600160a01b037f00000000000000000000000000000000000000000000000000000000000000001614611c385760405162461bcd60e51b815260206004820152601f60248201527f4d616e676f496d706c656d656e746174696f6e2f696e76616c696443616c6c0060448201526064016104b8565b7f416b48c48a967c2245e6ba6bc6efa281932950b502fea671117e4dfd7d3dfb81835b83811015611dc9578515611d10576000826000018281548110611c8057611c80614c3a565b906000526020600020015411611c97576000611d03565b611d037f00000000000000000000000000000000000000000000000000000000000000007f0000000000000000000000000000000000000000000000000000000000000000846000018481548110611cf157611cf1614c3a565b90600052602060002001546001611edd565b611d0d9084614dcb565b92505b851580611d1d5750600186115b15611db7576000826001018281548110611d3957611d39614c3a565b906000526020600020015411611d50576000611daa565b611daa7f00000000000000000000000000000000000000000000000000000000000000007f0000000000000000000000000000000000000000000000000000000000000000846001018481548110611cf157611cf1614c3a565b611db49084614dcb565b92505b80611dc181614d17565b915050611c5b565b50509392505050565b306001600160a01b037f00000000000000000000000000000000000000000000000000000000000000001614611e4a5760405162461bcd60e51b815260206004820152601f60248201527f4d616e676f496d706c656d656e746174696f6e2f696e76616c696443616c6c0060448201526064016104b8565b60008412611e585783611e61565b611e6184614dfc565b8114611eaf5760405162461bcd60e51b815260206004820181905260248201527f4d616e676f2f7365745f73686966742f6e6f74456e6f756768416d6f756e747360448201526064016104b8565b6000841215611ed157611ecc611ec485614dfc565b848484612e6a565b611258565b61125884848484613149565b6000611f107f7d382ebca3e46505071795e192d28166a3d4bd0685585591bc6c5b8df6769fd2546001600160a01b031690565b6001600160a01b0316336001600160a01b03161480611f575750336001600160a01b037f000000000000000000000000000000000000000000000000000000000000000016145b611fa35760405162461bcd60e51b815260206004820152601860248201527f416363657373436f6e74726f6c6c65642f496e76616c6964000000000000000060448201526064016104b8565b6040517fad97db1b0000000000000000000000000000000000000000000000000000000081526001600160a01b03868116600483015285811660248301526044820185905283151560648301527f0000000000000000000000000000000000000000000000000000000000000000169063ad97db1b906084016020604051808303816000875af115801561203b573d6000803e3d6000fd5b505050506040513d601f19601f8201168201806040525081019061205f9190614de3565b90505b949350505050565b7f7d382ebca3e46505071795e192d28166a3d4bd0685585591bc6c5b8df6769fd2546001600160a01b03163314806120ca5750336001600160a01b037f000000000000000000000000000000000000000000000000000000000000000016145b6121165760405162461bcd60e51b815260206004820152601860248201527f416363657373436f6e74726f6c6c65642f496e76616c6964000000000000000060448201526064016104b8565b6040517f095ea7b30000000000000000000000000000000000000000000000000000000081526001600160a01b037f0000000000000000000000000000000000000000000000000000000000000000811660048301526024820183905283169063095ea7b3906044016020604051808303816000875af115801561219e573d6000803e3d6000fd5b505050506040513d601f19601f820116820180604052508101906121c29190614e34565b611bba5760405162461bcd60e51b815260206004820152601560248201527f6d67764f666665722f617070726f76652f4661696c000000000000000000000060448201526064016104b8565b6040517f70a082310000000000000000000000000000000000000000000000000000000081523060048201526000906122c0906001600160a01b037f000000000000000000000000000000000000000000000000000000000000000016906370a0823190602401602060405180830381865afa158015612292573d6000803e3d6000fd5b505050506040513d601f19601f820116820180604052508101906122b69190614de3565b878787878761339d565b9695505050505050565b7f7d382ebca3e46505071795e192d28166a3d4bd0685585591bc6c5b8df6769fd290565b7fae7e31c3220e851db9f204a28b279dfe52b973600b0a456991089c220ae7222490565b600081158061232957506001600160a01b03831630145b156123365750600161054b565b604080516001600160a01b038581166024830152604480830186905283518084039091018152606490920183526020820180517bffffffffffffffffffffffffffffffffffffffffffffffffffffffff167fa9059cbb0000000000000000000000000000000000000000000000000000000017905291516000928392908816916123c09190614e51565b6000604051808303816000865af19150503d80600081146123fd576040519150601f19603f3d011682016040523d82523d6000602084013e612402565b606091505b50915091508180156122c05750805115806122c05750808060200190518101906122c09190614e34565b6040517f2e1a7d4d000000000000000000000000000000000000000000000000000000008152600481018290526000907f00000000000000000000000000000000000000000000000000000000000000006001600160a01b031690632e1a7d4d906024016020604051808303816000875af11580156124af573d6000803e3d6000fd5b505050506040513d601f19601f820116820180604052508101906124d39190614e34565b61251f5760405162461bcd60e51b815260206004820152601e60248201527f6d67764f666665722f77697468647261772f7472616e736665724661696c000060448201526064016104b8565b6001600160a01b0383163014612588576040516001600160a01b038416908390600081818185875af1925050503d8060008114612578576040519150601f19603f3d011682016040523d82523d6000602084013e61257d565b606091505b50508091505061066e565b50600192915050565b600061066e7f416b48c48a967c2245e6ba6bc6efa281932950b502fea671117e4dfd7d3dfb81600601546125c59084614e8c565b7f0000000000000000000000000000000000000000000000000000000000000000613622565b60007f416b48c48a967c2245e6ba6bc6efa281932950b502fea671117e4dfd7d3dfb81905060006001600160a01b037f0000000000000000000000000000000000000000000000000000000000000000166368c13d6b7f00000000000000000000000000000000000000000000000000000000000000007f0000000000000000000000000000000000000000000000000000000000000000856001018a8154811061269857612698614c3a565b6000918252602090912001546040517fffffffff0000000000000000000000000000000000000000000000000000000060e086901b1681526001600160a01b0393841660048201529290911660248301526044820152606401602060405180830381865afa15801561270e573d6000803e3d6000fd5b505050506040513d601f19601f820116820180604052508101906127329190614de3565b9050600061273f87612d7e565b90506000866127745760038401546127656bffffffffffffffffffffffff851688614dcb565b61276f9190614dcb565b612776565b855b905060006127848383613650565b905060006bffffffffffffffffffffffff85166000036127f85786156127ab57508561281b565b83156127e757856001016127c56001866109ce9190614d00565b815481106127d5576127d5614c3a565b9060005260206000200154905061281b565b6127f18560e01c90565b905061281b565b856001018a8154811061280d5761280d614c3a565b906000526020600020015490505b61284a8a7f000000000000000000000000000000000000000000000000000000000000000084868d158661369d565b50505050505050505050565b60007f416b48c48a967c2245e6ba6bc6efa281932950b502fea671117e4dfd7d3dfb81905060006001600160a01b037f0000000000000000000000000000000000000000000000000000000000000000166368c13d6b7f00000000000000000000000000000000000000000000000000000000000000007f0000000000000000000000000000000000000000000000000000000000000000856000018a8154811061290357612903614c3a565b6000918252602090912001546040517fffffffff0000000000000000000000000000000000000000000000000000000060e086901b1681526001600160a01b0393841660048201529290911660248301526044820152606401602060405180830381865afa158015612979573d6000803e3d6000fd5b505050506040513d601f19601f8201168201806040525081019061299d9190614de3565b905060006129aa87612d7e565b90506000866129df5760028401546129d06bffffffffffffffffffffffff851688614dcb565b6129da9190614dcb565b6129e1565b855b905060006129ef8383613794565b905060006bffffffffffffffffffffffff8516600003612a5e578615612a16575085612a81565b8315612a4d5785612a2b6109ce600187614d00565b81548110612a3b57612a3b614c3a565b90600052602060002001549050612a81565b612a578560e01c90565b9050612a81565b856000018a81548110612a7357612a73614c3a565b906000526020600020015490505b61284a8a7f000000000000000000000000000000000000000000000000000000000000000084868d158661369d565b600080612abc83612cf0565b905080600003612acf5750600192915050565b6000612ada846137d9565b90506001600160a01b037f000000000000000000000000000000000000000000000000000000000000000016636a4f7691612b186020870187614a97565b612b286040880160208901614a97565b848660c08a013560481c62ffffff1660c08b013560201c61ffff1660608c013560c01c63ffffffff16604080517fffffffff0000000000000000000000000000000000000000000000000000000060e08b901b1681526001600160a01b03988916600482015297909616602488015260448701949094526064860192909252608485015260a484015260c483015287013560e482015261010401600060405180830381600087803b158015612bdc57600080fd5b505af1925050508015612bed575060015b612ce6573d808015612c1b576040519150601f19603f3d011682016040523d82523d6000602084013e612c20565b606091505b50805160208201207fc5fc8c2459087ad4f0e957e465df485864a3b1a379c2653ffe7c554981ede67001612cdb5760408501803590612c629060208801614a97565b6001600160a01b0316612c786020880188614a97565b6001600160a01b03167fd2c3f090769d843e1fc2e6ce65d60572e28f9163a5cfccbd6c1725c6a9263f2f604051612cd2907f50657273697374656e742f686f6f6b2f6f75744f6650726f766973696f6e0000815260200190565b60405180910390a45b506000949350505050565b5060019392505050565b60007f416b48c48a967c2245e6ba6bc6efa281932950b502fea671117e4dfd7d3dfb816001600160a01b037f000000000000000000000000000000000000000000000000000000000000000016612d4a6020850185614a97565b6001600160a01b031603612d70578060020154612d66846138d8565b61054b9190614dcb565b8060030154612d66846138d8565b600061066e7f416b48c48a967c2245e6ba6bc6efa281932950b502fea671117e4dfd7d3dfb81600601546125c59084614f00565b600080612dc26020840184614a97565b6040517f70a082310000000000000000000000000000000000000000000000000000000081523060048201526001600160a01b0391909116906370a0823190602401602060405180830381865afa158015612e21573d6000803e3d6000fd5b505050506040513d601f19601f82011682018060405250810190612e459190614de3565b9050838110612e5857600091505061066e565b612e628185614d00565b91505061066e565b7f416b48c48a967c2245e6ba6bc6efa281932950b502fea671117e4dfd7d3dfb817f00000000000000000000000000000000000000000000000000000000000000008510612f205760405162461bcd60e51b815260206004820152602160248201527f4d616e676f2f73686966742f4e656761746976655368696674546f6f4c61726760448201527f650000000000000000000000000000000000000000000000000000000000000060648201526084016104b8565b6000612f506109ce60017f0000000000000000000000000000000000000000000000000000000000000000614d00565b905085826006016000828254612f669190614f00565b90915550600090505b86811015611bb457826000018281548110612f8c57612f8c614c3a565b9060005260206000200154600014612ffa57612ff87f00000000000000000000000000000000000000000000000000000000000000007f0000000000000000000000000000000000000000000000000000000000000000856000018581548110610a9e57610a9e614c3a565b505b600061300583612d7e565b905060008088156130545787878581811061302257613022614c3a565b90506020020135905061304d8389898781811061304157613041614c3a565b90506020020135613794565b9150613094565b6130768389898781811061306a5761306a614c3a565b90506020020135613650565b905087878581811061308a5761308a614c3a565b9050602002013591505b613129857f0000000000000000000000000000000000000000000000000000000000000000838560006130e860017f0000000000000000000000000000000000000000000000000000000000000000614d00565b89106130f557600061369d565b8b6001016131098a60016109ce9190614dcb565b8154811061311957613119614c3a565b906000526020600020015461369d565b8361313381614d17565b94505061313f856138fa565b9450505050612f6f565b7f416b48c48a967c2245e6ba6bc6efa281932950b502fea671117e4dfd7d3dfb817f000000000000000000000000000000000000000000000000000000000000000085106131ff5760405162461bcd60e51b815260206004820152602160248201527f4d616e676f2f73686966742f706f7369746976655368696674546f6f4c61726760448201527f650000000000000000000000000000000000000000000000000000000000000060648201526084016104b8565b600061320b6000612591565b9050858260060160008282546132219190614e8c565b90915550600090505b86811015611bb45782600101828154811061324757613247614c3a565b90600052602060002001546000146132b5576132b37f00000000000000000000000000000000000000000000000000000000000000007f0000000000000000000000000000000000000000000000000000000000000000856001018581548110610a9e57610a9e614c3a565b505b60006132c083612d7e565b90506000808815613303578787858181106132dd576132dd614c3a565b9050602002013591506132fc8389898781811061304157613041614c3a565b9050613337565b87878581811061331557613315614c3a565b9050602002013590506133348389898781811061306a5761306a614c3a565b91505b61337d857f00000000000000000000000000000000000000000000000000000000000000008385600080891161336e57600061369d565b8b6131096109ce60018c614d00565b8361338781614d17565b9450506133938561393e565b945050505061322a565b600080806001600160a01b037f00000000000000000000000000000000000000000000000000000000000000001663cbf75c9a89896040517fffffffff0000000000000000000000000000000000000000000000000000000060e085901b1681526001600160a01b039283166004820152911660248201526044016040805180830381865afa158015613434573d6000803e3d6000fd5b505050506040513d601f19601f820116820180604052508101906134589190614f74565b9150915060007f00000000000000000000000000000000000000000000000000000000000000006001600160a01b0316635722647b6134948b90565b8a6040517fffffffff0000000000000000000000000000000000000000000000000000000060e085901b1681526001600160a01b0392831660048201529116602482015260448101889052606401602060405180830381865afa1580156134ff573d6000803e3d6000fd5b505050506040513d601f19601f820116820180604052508101906135239190614de3565b9050600086604085901c61ffff161115613546575061ffff604084901c16613549565b50855b62ffffff881115613579577fae7e31c3220e851db9f204a28b279dfe52b973600b0a456991089c220ae722245497505b60008161358f62ffffff606087901c168b614dcb565b6135999190614f98565b6135a790633b9aca00614f98565b9050600061ffff602085901c166135ce62ffffff603087901c811690604888901c16614dcb565b6135d89190614f98565b6135e690633b9aca00614f98565b905060006135f48e83614dcb565b90508281101561360d576136088184614d00565b613610565b60005b9e9d5050505050505050505050505050565b600080831261363c576136358284615004565b905061066e565b6136468284615018565b6136359083614e8c565b600061365b83613976565b6136936bffffffffffffffffffffffff7f00000000000000000000000000000000000000000000000000000000000000001684614f98565b61066b919061502c565b7f416b48c48a967c2245e6ba6bc6efa281932950b502fea671117e4dfd7d3dfb816001600160a01b037f00000000000000000000000000000000000000000000000000000000000000008116908716036137415760006136ff888787866139ae565b9050801561372d57836137215780826002015461371c9190614dcb565b613723565b805b600283015561373b565b831561373b57600060028301555b50611bb4565b600061374f88878786614074565b9050801561377d57836137715780826003015461376c9190614dcb565b613773565b805b6003830155610be8565b8315610be857600060038301555050505050505050565b60007f00000000000000000000000000000000000000000000000000000000000000006bffffffffffffffffffffffff16826137cf85613976565b6136939190614f98565b60007f416b48c48a967c2245e6ba6bc6efa281932950b502fea671117e4dfd7d3dfb817f00000000000000000000000000000000000000000000000000000000000000006001600160a01b03166138336020850185614a97565b6001600160a01b03160361389157604080840135600090815260058301602052908120549061386185612cf0565b90508060000361387657506000949350505050565b61388861388283612d7e565b82613794565b95945050505050565b60408084013560009081526004830160205290812054906138b185612cf0565b9050806000036138c657506000949350505050565b6138886138d283612d7e565b82613650565b600061066e608083013560608401356bffffffffffffffffffffffff16614d00565b60008082116139335761392e60017f0000000000000000000000000000000000000000000000000000000000000000614d00565b61066e565b61066e600183614d00565b60007f000000000000000000000000000000000000000000000000000000000000000061396c836001614dcb565b61066e9190615004565b600061066e7f416b48c48a967c2245e6ba6bc6efa281932950b502fea671117e4dfd7d3dfb8160070154836139a9614693565b614791565b7f416b48c48a967c2245e6ba6bc6efa281932950b502fea671117e4dfd7d3dfb818054600091908190879081106139e7576139e7614c3a565b9060005260206000200154600003613cd8576001600160a01b037f0000000000000000000000000000000000000000000000000000000000000000166349f6d2dc7f00000000000000000000000000000000000000000000000000000000000000007f00000000000000000000000000000000000000000000000000000000000000008888613a947fae7e31c3220e851db9f204a28b279dfe52b973600b0a456991089c220ae722245490565b6040517fffffffff0000000000000000000000000000000000000000000000000000000060e088901b1681526001600160a01b039586166004820152949093166024850152604484019190915260648301526084820152600060a482015260c4810186905260e4016020604051808303816000875af1925050508015613b55575060408051601f3d9081017fffffffffffffffffffffffffffffffffffffffffffffffffffffffffffffffe0168201909252613b5291810190614de3565b60015b613c70573d808015613b83576040519150601f19603f3d011682016040523d82523d6000602084013e613b88565b606091505b50805160208201207fc5fc8c2459087ad4f0e957e465df485864a3b1a379c2653ffe7c554981ede67001613c665760007f00000000000000000000000000000000000000000000000000000000000000006001600160a01b03167f00000000000000000000000000000000000000000000000000000000000000006001600160a01b03167fd2c3f090769d843e1fc2e6ce65d60572e28f9163a5cfccbd6c1725c6a9263f2f604051613c5d907f4d616e676f2f6e657741736b2f6f75744f6650726f766973696f6e0000000000815260200190565b60405180910390a45b8492505050612062565b80826000018881548110613c8657613c86614c3a565b906000526020600020018190555086826005016000846000018a81548110613cb057613cb0614c3a565b9060005260206000200154815260200190815260200160002081905550600092505050612062565b6001600160a01b037f000000000000000000000000000000000000000000000000000000000000000016636a4f76917f00000000000000000000000000000000000000000000000000000000000000007f00000000000000000000000000000000000000000000000000000000000000008888613d737fae7e31c3220e851db9f204a28b279dfe52b973600b0a456991089c220ae722245490565b60008a896000018f81548110613d8b57613d8b614c3a565b6000918252602090912001546040517fffffffff0000000000000000000000000000000000000000000000000000000060e08b901b1681526001600160a01b03988916600482015297909616602488015260448701949094526064860192909252608485015260a484015260c483015260e482015261010401600060405180830381600087803b158015613e1e57600080fd5b505af1925050508015613e2f575060015b61406a573d808015613e5d576040519150601f19603f3d011682016040523d82523d6000602084013e613e62565b606091505b50805160208201207fc5fc8c2459087ad4f0e957e465df485864a3b1a379c2653ffe7c554981ede67001613f5e57816000018781548110613ea557613ea5614c3a565b90600052602060002001547f00000000000000000000000000000000000000000000000000000000000000006001600160a01b03167f00000000000000000000000000000000000000000000000000000000000000006001600160a01b03167fd2c3f090769d843e1fc2e6ce65d60572e28f9163a5cfccbd6c1725c6a9263f2f604051613f55907f4d616e676f2f75706461746541736b2f6f75744f6650726f766973696f6e0000815260200190565b60405180910390a45b60006140476001600160a01b037f0000000000000000000000000000000000000000000000000000000000000000166368c13d6b7f00000000000000000000000000000000000000000000000000000000000000007f0000000000000000000000000000000000000000000000000000000000000000876000018d81548110613fe957613fe9614c3a565b6000918252602090912001546040517fffffffff0000000000000000000000000000000000000000000000000000000060e086901b1681526001600160a01b0393841660048201529290911660248301526044820152606401611502565b90508086116140565785614060565b6140608187614d00565b9350505050612062565b6000915050612062565b7f416b48c48a967c2245e6ba6bc6efa281932950b502fea671117e4dfd7d3dfb8280546000917f416b48c48a967c2245e6ba6bc6efa281932950b502fea671117e4dfd7d3dfb8191879081106140cc576140cc614c3a565b9060005260206000200154600003614382576001600160a01b037f0000000000000000000000000000000000000000000000000000000000000000166349f6d2dc7f00000000000000000000000000000000000000000000000000000000000000007f000000000000000000000000000000000000000000000000000000000000000088886141797fae7e31c3220e851db9f204a28b279dfe52b973600b0a456991089c220ae722245490565b6040517fffffffff0000000000000000000000000000000000000000000000000000000060e088901b1681526001600160a01b039586166004820152949093166024850152604484019190915260648301526084820152600060a482015260c4810186905260e4016020604051808303816000875af192505050801561423a575060408051601f3d9081017fffffffffffffffffffffffffffffffffffffffffffffffffffffffffffffffe016820190925261423791810190614de3565b60015b614342573d808015614268576040519150601f19603f3d011682016040523d82523d6000602084013e61426d565b606091505b50805160208201207fc5fc8c2459087ad4f0e957e465df485864a3b1a379c2653ffe7c554981ede67001613c665760007f00000000000000000000000000000000000000000000000000000000000000006001600160a01b03167f00000000000000000000000000000000000000000000000000000000000000006001600160a01b03167fd2c3f090769d843e1fc2e6ce65d60572e28f9163a5cfccbd6c1725c6a9263f2f604051613c5d907f4d616e676f2f6e65774269642f6f75744f6650726f766973696f6e0000000000815260200190565b8082600101888154811061435857614358614c3a565b906000526020600020018190555086826004016000846001018a81548110613cb057613cb0614c3a565b6001600160a01b037f000000000000000000000000000000000000000000000000000000000000000016636a4f76917f00000000000000000000000000000000000000000000000000000000000000007f0000000000000000000000000000000000000000000000000000000000000000888861441d7fae7e31c3220e851db9f204a28b279dfe52b973600b0a456991089c220ae722245490565b60008a896001018f8154811061443557614435614c3a565b6000918252602090912001546040517fffffffff0000000000000000000000000000000000000000000000000000000060e08b901b1681526001600160a01b03988916600482015297909616602488015260448701949094526064860192909252608485015260a484015260c483015260e482015261010401600060405180830381600087803b1580156144c857600080fd5b505af19250505080156144d9575060015b61406a573d808015614507576040519150601f19603f3d011682016040523d82523d6000602084013e61450c565b606091505b50805160208201207fc5fc8c2459087ad4f0e957e465df485864a3b1a379c2653ffe7c554981ede670016146085781600101878154811061454f5761454f614c3a565b90600052602060002001547f00000000000000000000000000000000000000000000000000000000000000006001600160a01b03167f00000000000000000000000000000000000000000000000000000000000000006001600160a01b03167fd2c3f090769d843e1fc2e6ce65d60572e28f9163a5cfccbd6c1725c6a9263f2f6040516145ff907f4d616e676f2f77726974654269642f7570646174654f666665724661696c0000815260200190565b60405180910390a45b60006140476001600160a01b037f0000000000000000000000000000000000000000000000000000000000000000166368c13d6b7f00000000000000000000000000000000000000000000000000000000000000007f0000000000000000000000000000000000000000000000000000000000000000876001018d81548110613fe957613fe9614c3a565b7f416b48c48a967c2245e6ba6bc6efa281932950b502fea671117e4dfd7d3dfb88547f416b48c48a967c2245e6ba6bc6efa281932950b502fea671117e4dfd7d3dfb87546000917f416b48c48a967c2245e6ba6bc6efa281932950b502fea671117e4dfd7d3dfb8191839161470791615040565b61473f906bffffffffffffffffffffffff7f000000000000000000000000000000000000000000000000000000000000000016614e8c565b90506000811361066e5760405162461bcd60e51b815260206004820152601e60248201527f4d616e676f2f71756f74655f6d696e2f5368696674556e646572666c6f77000060448201526064016104b8565b60008161479e8486614f98565b6105489190614dcb565b60405180604001604052806002905b60608152602001906001900390816147b75790505090565b6001600160a01b03811681146147e457600080fd5b50565b6000806000606084860312156147fc57600080fd5b8335614807816147cf565b92506020840135614817816147cf565b929592945050506040919091013590565b6000806040838503121561483b57600080fd5b8235614846816147cf565b946020939093013593505050565b60008083601f84011261486657600080fd5b50813567ffffffffffffffff81111561487e57600080fd5b6020830191508360208260051b850101111561489957600080fd5b9250929050565b60008060008060008060a087890312156148b957600080fd5b863595506020870135945060408701359350606087013567ffffffffffffffff808211156148e657600080fd5b8189019150896040830111156148fb57600080fd5b9093506080880135908082111561491157600080fd5b5061491e89828a01614854565b979a9699509497509295939492505050565b600061012082840312156117cc57600080fd5b6000610120828403121561495657600080fd5b61066b8383614930565b60006020828403121561497257600080fd5b5035919050565b60008082840361016081121561498e57600080fd5b6149988585614930565b925060407ffffffffffffffffffffffffffffffffffffffffffffffffffffffffffffffee0820112156149ca57600080fd5b50610120830190509250929050565b80151581146147e457600080fd5b6000602082840312156149f957600080fd5b813561054b816149d9565b6020808252600090606083018382018584805b6002811015614a8a578785037fffffffffffffffffffffffffffffffffffffffffffffffffffffffffffffffe0018452825180518087529087019087870190845b81811015614a7457835183529289019291890191600101614a58565b5090965050509285019291850191600101614a17565b5092979650505050505050565b600060208284031215614aa957600080fd5b813561054b816147cf565b600060e082840312156117cc57600080fd5b600060e08284031215614ad857600080fd5b61066b8383614ab4565b6000806101008385031215614af657600080fd5b614b008484614ab4565b9460e0939093013593505050565b600080600060608486031215614b2357600080fd5b505081359360208301359350604090920135919050565b60008060008060608587031215614b5057600080fd5b843593506020850135614b62816149d9565b9250604085013567ffffffffffffffff811115614b7e57600080fd5b614b8a87828801614854565b95989497509550505050565b60008060008060808587031215614bac57600080fd5b8435614bb7816147cf565b93506020850135614bc7816147cf565b9250604085013591506060850135614bde816149d9565b939692955090935050565b600080600080600060a08688031215614c0157600080fd5b8535614c0c816147cf565b94506020860135614c1c816147cf565b94979496505050506040830135926060810135926080909101359150565b7f4e487b7100000000000000000000000000000000000000000000000000000000600052603260045260246000fd5b60008083357fffffffffffffffffffffffffffffffffffffffffffffffffffffffffffffffe1843603018112614c9e57600080fd5b83018035915067ffffffffffffffff821115614cb957600080fd5b6020019150600581901b360382131561489957600080fd5b7f4e487b7100000000000000000000000000000000000000000000000000000000600052601160045260246000fd5b600082821015614d1257614d12614cd1565b500390565b60007fffffffffffffffffffffffffffffffffffffffffffffffffffffffffffffffff8203614d4857614d48614cd1565b5060010190565b7f4e487b7100000000000000000000000000000000000000000000000000000000600052604160045260246000fd5b6020808252825182820181905260009190848201906040850190845b81811015614dbf5783516001600160a01b031683529284019291840191600101614d9a565b50909695505050505050565b60008219821115614dde57614dde614cd1565b500190565b600060208284031215614df557600080fd5b5051919050565b60007f80000000000000000000000000000000000000000000000000000000000000008203614e2d57614e2d614cd1565b5060000390565b600060208284031215614e4657600080fd5b815161054b816149d9565b6000825160005b81811015614e725760208186018101518583015201614e58565b81811115614e81576000828501525b509190910192915050565b6000808212827f7fffffffffffffffffffffffffffffffffffffffffffffffffffffffffffffff03841381151615614ec657614ec6614cd1565b827f8000000000000000000000000000000000000000000000000000000000000000038412811615614efa57614efa614cd1565b50500190565b6000808312837f800000000000000000000000000000000000000000000000000000000000000001831281151615614f3a57614f3a614cd1565b837f7fffffffffffffffffffffffffffffffffffffffffffffffffffffffffffffff018313811615614f6e57614f6e614cd1565b50500390565b60008060408385031215614f8757600080fd5b505080516020909101519092909150565b6000817fffffffffffffffffffffffffffffffffffffffffffffffffffffffffffffffff0483118215151615614fd057614fd0614cd1565b500290565b7f4e487b7100000000000000000000000000000000000000000000000000000000600052601260045260246000fd5b60008261501357615013614fd5565b500690565b60008261502757615027614fd5565b500790565b60008261503b5761503b614fd5565b500490565b60007f7fffffffffffffffffffffffffffffffffffffffffffffffffffffffffffffff60008413600084138583048511828216161561508157615081614cd1565b7f800000000000000000000000000000000000000000000000000000000000000060008712868205881281841616156150bc576150bc614cd1565b600087129250878205871284841616156150d8576150d8614cd1565b878505871281841616156150ee576150ee614cd1565b50505092909302939250505056fea26469706673582212204afd603388da716d7ebd4e241bb14efcd4817fac8d06e6384544b11dac6ba5d664736f6c634300080e0033",
  "devdoc": {
    "kind": "dev",
    "methods": {},
    "version": 1
  },
  "userdoc": {
    "events": {
      "LogIncident(address,address,uint256,bytes32)": {
        "notice": "Events "
      }
    },
    "kind": "user",
    "methods": {
      "approveMangrove(address,uint256)": {
        "notice": "`this` contract needs to approve Mangrove to let it perform outbound token transfer at the end of the `makerExecute` function NB if anyone can call this function someone could reset it to 0 for griefing"
      },
      "delta()": {
        "notice": "Setters and getters "
      },
      "set_liquidity_sourcer(address,uint256)": {
        "notice": "NB Sourcer might need further approval to work as intended"
      },
      "set_shift(int256,bool,uint256[])": {
        "notice": "New positions 0<= i < s are initialized with amount[i] in base tokens if `withBase`. In quote tokens otherwise"
      },
      "withdrawFromMangrove(address,uint256)": {
        "notice": "withdraws ETH from the bounty vault of the Mangrove. ETH are sent to `receiver`"
      },
      "withdrawToken(address,address,uint256)": {
        "notice": "transfers token stored in `this` contract to some recipient address"
      }
    },
    "notice": "In case of a partial fill of an offer at position i, the offer residual is reposted (see `Persistent` strat class)",
    "version": 1
  },
  "storageLayout": {
    "storage": [],
    "types": null
  }
}