{
  "address": "0xD58914E11Fa202274a3F7722991cF8390182AE77",
  "abi": [
    {
      "inputs": [
        {
          "internalType": "address payable",
          "name": "mgv",
          "type": "address"
        },
        {
          "internalType": "address",
          "name": "base",
          "type": "address"
        },
        {
          "internalType": "address",
          "name": "quote",
          "type": "address"
        },
        {
          "internalType": "uint256",
          "name": "base_0",
          "type": "uint256"
        },
        {
          "internalType": "uint256",
          "name": "quote_0",
          "type": "uint256"
        },
        {
          "internalType": "uint256",
          "name": "nslots",
          "type": "uint256"
        },
        {
          "internalType": "uint256",
          "name": "delta",
          "type": "uint256"
        }
      ],
      "stateMutability": "nonpayable",
      "type": "constructor"
    },
    {
      "anonymous": false,
      "inputs": [
        {
          "indexed": false,
          "internalType": "address",
          "name": "quote",
          "type": "address"
        },
        {
          "indexed": false,
          "internalType": "address",
          "name": "base",
          "type": "address"
        },
        {
          "indexed": false,
          "internalType": "uint256",
          "name": "offerId",
          "type": "uint256"
        }
      ],
      "name": "AskAtMinPosition",
      "type": "event"
    },
    {
      "anonymous": false,
      "inputs": [
        {
          "indexed": false,
          "internalType": "address",
          "name": "quote",
          "type": "address"
        },
        {
          "indexed": false,
          "internalType": "address",
          "name": "base",
          "type": "address"
        },
        {
          "indexed": false,
          "internalType": "uint256",
          "name": "offerId",
          "type": "uint256"
        }
      ],
      "name": "BidAtMaxPosition",
      "type": "event"
    },
    {
      "anonymous": false,
      "inputs": [
        {
          "indexed": false,
          "internalType": "uint256",
          "name": "from",
          "type": "uint256"
        },
        {
          "indexed": false,
          "internalType": "uint256",
          "name": "to",
          "type": "uint256"
        }
      ],
      "name": "Initialized",
      "type": "event"
    },
    {
      "anonymous": false,
      "inputs": [
        {
          "indexed": true,
          "internalType": "address",
          "name": "outbound_tkn",
          "type": "address"
        },
        {
          "indexed": true,
          "internalType": "address",
          "name": "inbound_tkn",
          "type": "address"
        },
        {
          "indexed": true,
          "internalType": "uint256",
          "name": "offerId",
          "type": "uint256"
        },
        {
          "indexed": false,
          "internalType": "bytes32",
          "name": "reason",
          "type": "bytes32"
        }
      ],
      "name": "LogIncident",
      "type": "event"
    },
    {
      "inputs": [],
      "name": "BASE",
      "outputs": [
        {
          "internalType": "address",
          "name": "",
          "type": "address"
        }
      ],
      "stateMutability": "view",
      "type": "function"
    },
    {
      "inputs": [],
      "name": "MGV",
      "outputs": [
        {
          "internalType": "contract IMangrove",
          "name": "",
          "type": "address"
        }
      ],
      "stateMutability": "view",
      "type": "function"
    },
    {
      "inputs": [],
      "name": "NSLOTS",
      "outputs": [
        {
          "internalType": "uint16",
          "name": "",
          "type": "uint16"
        }
      ],
      "stateMutability": "view",
      "type": "function"
    },
    {
      "inputs": [],
      "name": "OFR_GASREQ",
      "outputs": [
        {
          "internalType": "uint256",
          "name": "",
          "type": "uint256"
        }
      ],
      "stateMutability": "view",
      "type": "function"
    },
    {
      "inputs": [],
      "name": "OUTOFLIQUIDITY",
      "outputs": [
        {
          "internalType": "bytes32",
          "name": "",
          "type": "bytes32"
        }
      ],
      "stateMutability": "view",
      "type": "function"
    },
    {
      "inputs": [],
      "name": "PUTFAILURE",
      "outputs": [
        {
          "internalType": "bytes32",
          "name": "",
          "type": "bytes32"
        }
      ],
      "stateMutability": "view",
      "type": "function"
    },
    {
      "inputs": [],
      "name": "QUOTE",
      "outputs": [
        {
          "internalType": "address",
          "name": "",
          "type": "address"
        }
      ],
      "stateMutability": "view",
      "type": "function"
    },
    {
      "inputs": [],
      "name": "RENEGED",
      "outputs": [
        {
          "internalType": "bytes32",
          "name": "",
          "type": "bytes32"
        }
      ],
      "stateMutability": "view",
      "type": "function"
    },
    {
      "inputs": [],
      "name": "admin",
      "outputs": [
        {
          "internalType": "address",
          "name": "",
          "type": "address"
        }
      ],
      "stateMutability": "view",
      "type": "function"
    },
    {
      "inputs": [
        {
          "internalType": "address",
          "name": "outbound_tkn",
          "type": "address"
        },
        {
          "internalType": "uint256",
          "name": "amount",
          "type": "uint256"
        }
      ],
      "name": "approveMangrove",
      "outputs": [],
      "stateMutability": "nonpayable",
      "type": "function"
    },
    {
      "inputs": [
        {
          "internalType": "address",
          "name": "outbound_tkn",
          "type": "address"
        },
        {
          "internalType": "address",
          "name": "inbound_tkn",
          "type": "address"
        },
        {
          "internalType": "uint256",
          "name": "gasreq",
          "type": "uint256"
        },
        {
          "internalType": "uint256",
          "name": "gasprice",
          "type": "uint256"
        },
        {
          "internalType": "uint256",
          "name": "offerId",
          "type": "uint256"
        }
      ],
      "name": "getMissingProvision",
      "outputs": [
        {
          "internalType": "uint256",
          "name": "",
          "type": "uint256"
        }
      ],
      "stateMutability": "view",
      "type": "function"
    },
    {
      "inputs": [],
      "name": "get_delta",
      "outputs": [
        {
          "internalType": "uint256",
          "name": "",
          "type": "uint256"
        }
      ],
      "stateMutability": "view",
      "type": "function"
    },
    {
      "inputs": [
        {
          "internalType": "bool",
          "name": "liveOnly",
          "type": "bool"
        }
      ],
      "name": "get_offers",
      "outputs": [
        {
          "internalType": "uint256[][2]",
          "name": "offers",
          "type": "uint256[][2]"
        }
      ],
      "stateMutability": "view",
      "type": "function"
    },
    {
      "inputs": [],
      "name": "get_pending",
      "outputs": [
        {
          "internalType": "uint256[2]",
          "name": "",
          "type": "uint256[2]"
        }
      ],
      "stateMutability": "view",
      "type": "function"
    },
    {
      "inputs": [],
      "name": "get_shift",
      "outputs": [
        {
          "internalType": "int256",
          "name": "",
          "type": "int256"
        }
      ],
      "stateMutability": "view",
      "type": "function"
    },
    {
      "inputs": [
        {
          "internalType": "bool",
          "name": "base",
          "type": "bool"
        }
      ],
      "name": "get_treasury",
      "outputs": [
        {
          "internalType": "address",
          "name": "",
          "type": "address"
        }
      ],
      "stateMutability": "view",
      "type": "function"
    },
    {
      "inputs": [
        {
          "internalType": "uint256",
          "name": "lastBidPosition",
          "type": "uint256"
        },
        {
          "internalType": "uint256",
          "name": "from",
          "type": "uint256"
        },
        {
          "internalType": "uint256",
          "name": "to",
          "type": "uint256"
        },
        {
          "internalType": "uint256[][2]",
          "name": "pivotIds",
          "type": "uint256[][2]"
        },
        {
          "internalType": "uint256[]",
          "name": "tokenAmounts",
          "type": "uint256[]"
        }
      ],
      "name": "initialize",
      "outputs": [],
      "stateMutability": "nonpayable",
      "type": "function"
    },
    {
      "inputs": [
        {
          "components": [
            {
              "internalType": "address",
              "name": "outbound_tkn",
              "type": "address"
            },
            {
              "internalType": "address",
              "name": "inbound_tkn",
              "type": "address"
            },
            {
              "internalType": "uint256",
              "name": "offerId",
              "type": "uint256"
            },
            {
              "internalType": "Offer.t",
              "name": "offer",
              "type": "uint256"
            },
            {
              "internalType": "uint256",
              "name": "wants",
              "type": "uint256"
            },
            {
              "internalType": "uint256",
              "name": "gives",
              "type": "uint256"
            },
            {
              "internalType": "OfferDetail.t",
              "name": "offerDetail",
              "type": "uint256"
            },
            {
              "internalType": "Global.t",
              "name": "global",
              "type": "uint256"
            },
            {
              "internalType": "Local.t",
              "name": "local",
              "type": "uint256"
            }
          ],
          "internalType": "struct MgvLib.SingleOrder",
          "name": "order",
          "type": "tuple"
        }
      ],
      "name": "makerExecute",
      "outputs": [
        {
          "internalType": "bytes32",
          "name": "ret",
          "type": "bytes32"
        }
      ],
      "stateMutability": "nonpayable",
      "type": "function"
    },
    {
      "inputs": [
        {
          "components": [
            {
              "internalType": "address",
              "name": "outbound_tkn",
              "type": "address"
            },
            {
              "internalType": "address",
              "name": "inbound_tkn",
              "type": "address"
            },
            {
              "internalType": "uint256",
              "name": "offerId",
              "type": "uint256"
            },
            {
              "internalType": "Offer.t",
              "name": "offer",
              "type": "uint256"
            },
            {
              "internalType": "uint256",
              "name": "wants",
              "type": "uint256"
            },
            {
              "internalType": "uint256",
              "name": "gives",
              "type": "uint256"
            },
            {
              "internalType": "OfferDetail.t",
              "name": "offerDetail",
              "type": "uint256"
            },
            {
              "internalType": "Global.t",
              "name": "global",
              "type": "uint256"
            },
            {
              "internalType": "Local.t",
              "name": "local",
              "type": "uint256"
            }
          ],
          "internalType": "struct MgvLib.SingleOrder",
          "name": "order",
          "type": "tuple"
        },
        {
          "components": [
            {
              "internalType": "bytes32",
              "name": "makerData",
              "type": "bytes32"
            },
            {
              "internalType": "bytes32",
              "name": "mgvData",
              "type": "bytes32"
            }
          ],
          "internalType": "struct MgvLib.OrderResult",
          "name": "result",
          "type": "tuple"
        }
      ],
      "name": "makerPosthook",
      "outputs": [],
      "stateMutability": "nonpayable",
      "type": "function"
    },
    {
      "inputs": [
        {
          "internalType": "address",
          "name": "outbound_tkn",
          "type": "address"
        },
        {
          "internalType": "address",
          "name": "inbound_tkn",
          "type": "address"
        },
        {
          "internalType": "uint256",
          "name": "wants",
          "type": "uint256"
        },
        {
          "internalType": "uint256",
          "name": "gives",
          "type": "uint256"
        },
        {
          "internalType": "uint256",
          "name": "gasreq",
          "type": "uint256"
        },
        {
          "internalType": "uint256",
          "name": "gasprice",
          "type": "uint256"
        },
        {
          "internalType": "uint256",
          "name": "pivotId",
          "type": "uint256"
        }
      ],
      "name": "newOffer",
      "outputs": [
        {
          "internalType": "uint256",
          "name": "offerId",
          "type": "uint256"
        }
      ],
      "stateMutability": "payable",
      "type": "function"
    },
    {
      "inputs": [],
      "name": "pause",
      "outputs": [],
      "stateMutability": "nonpayable",
      "type": "function"
    },
    {
      "inputs": [
        {
          "internalType": "address",
          "name": "token",
          "type": "address"
        },
        {
          "internalType": "address",
          "name": "receiver",
          "type": "address"
        },
        {
          "internalType": "uint256",
          "name": "amount",
          "type": "uint256"
        }
      ],
      "name": "redeemToken",
      "outputs": [
        {
          "internalType": "bool",
          "name": "success",
          "type": "bool"
        }
      ],
      "stateMutability": "nonpayable",
      "type": "function"
    },
    {
      "inputs": [],
      "name": "restart",
      "outputs": [],
      "stateMutability": "nonpayable",
      "type": "function"
    },
    {
      "inputs": [
        {
          "internalType": "address",
          "name": "outbound_tkn",
          "type": "address"
        },
        {
          "internalType": "address",
          "name": "inbound_tkn",
          "type": "address"
        },
        {
          "internalType": "uint256",
          "name": "offerId",
          "type": "uint256"
        },
        {
          "internalType": "bool",
          "name": "deprovision",
          "type": "bool"
        }
      ],
      "name": "retractOffer",
      "outputs": [
        {
          "internalType": "uint256",
          "name": "",
          "type": "uint256"
        }
      ],
      "stateMutability": "nonpayable",
      "type": "function"
    },
    {
      "inputs": [
        {
          "internalType": "uint256",
          "name": "ba",
          "type": "uint256"
        },
        {
          "internalType": "uint256",
          "name": "from",
          "type": "uint256"
        },
        {
          "internalType": "uint256",
          "name": "to",
          "type": "uint256"
        }
      ],
      "name": "retractOffers",
      "outputs": [
        {
          "internalType": "uint256",
          "name": "collected",
          "type": "uint256"
        }
      ],
      "stateMutability": "nonpayable",
      "type": "function"
    },
    {
      "inputs": [
        {
          "internalType": "address",
          "name": "_admin",
          "type": "address"
        }
      ],
      "name": "setAdmin",
      "outputs": [],
      "stateMutability": "nonpayable",
      "type": "function"
    },
    {
      "inputs": [
        {
          "internalType": "uint256",
          "name": "gasreq",
          "type": "uint256"
        }
      ],
      "name": "setGasreq",
      "outputs": [],
      "stateMutability": "nonpayable",
      "type": "function"
    },
    {
      "inputs": [
        {
          "internalType": "uint256",
          "name": "delta",
          "type": "uint256"
        }
      ],
      "name": "set_delta",
      "outputs": [],
      "stateMutability": "nonpayable",
      "type": "function"
    },
    {
      "inputs": [
        {
          "internalType": "uint256",
          "name": "m",
          "type": "uint256"
        }
      ],
      "name": "set_min_offer_type",
      "outputs": [],
      "stateMutability": "nonpayable",
      "type": "function"
    },
    {
      "inputs": [
        {
          "internalType": "int256",
          "name": "s",
          "type": "int256"
        },
        {
          "internalType": "bool",
          "name": "withBase",
          "type": "bool"
        },
        {
          "internalType": "uint256[]",
          "name": "amounts",
          "type": "uint256[]"
        }
      ],
      "name": "set_shift",
      "outputs": [],
      "stateMutability": "nonpayable",
      "type": "function"
    },
    {
      "inputs": [
        {
          "internalType": "bool",
          "name": "base",
          "type": "bool"
        },
        {
          "internalType": "address",
          "name": "treasury",
          "type": "address"
        }
      ],
      "name": "set_treasury",
      "outputs": [],
      "stateMutability": "nonpayable",
      "type": "function"
    },
    {
      "inputs": [
        {
          "internalType": "address",
          "name": "outbound_tkn",
          "type": "address"
        },
        {
          "internalType": "address",
          "name": "inbound_tkn",
          "type": "address"
        },
        {
          "internalType": "uint256",
          "name": "wants",
          "type": "uint256"
        },
        {
          "internalType": "uint256",
          "name": "gives",
          "type": "uint256"
        },
        {
          "internalType": "uint256",
          "name": "gasreq",
          "type": "uint256"
        },
        {
          "internalType": "uint256",
          "name": "gasprice",
          "type": "uint256"
        },
        {
          "internalType": "uint256",
          "name": "pivotId",
          "type": "uint256"
        },
        {
          "internalType": "uint256",
          "name": "offerId",
          "type": "uint256"
        }
      ],
      "name": "updateOffer",
      "outputs": [],
      "stateMutability": "payable",
      "type": "function"
    },
    {
      "inputs": [
        {
          "internalType": "address payable",
          "name": "receiver",
          "type": "address"
        },
        {
          "internalType": "uint256",
          "name": "amount",
          "type": "uint256"
        }
      ],
      "name": "withdrawFromMangrove",
      "outputs": [
        {
          "internalType": "bool",
          "name": "",
          "type": "bool"
        }
      ],
      "stateMutability": "nonpayable",
      "type": "function"
    },
    {
      "stateMutability": "payable",
      "type": "receive"
    }
  ],
  "transactionHash": "0x4780e493d2ff9a6a42f4da822e5ed35e459934c0686eba143b70ce967d859fa0",
  "args": [
    "0xF3e339d8a0B989114412fa157Cc846ebaf4BCbd8",
    "0x63e537a69b3f5b03f4f46c5765c82861bd874b6e",
    "0xc87385b5e62099f92d490750fcd6c901a524bbca",
    "1000000000000000000",
    "900000000000000000000",
    100,
    "32000000000000000000"
  ],
  "solcInputHash": "5cf03287fe5e4b9b2afd116ea42be6e9",
  "bytecode": "0x6101a06040527f6d67764f666665722f61626f72742f72656e65676564000000000000000000006080527f6d67764f666665722f61626f72742f7075744661696c6564000000000000000060a0527f6d67764f666665722f61626f72742f6765744661696c6564000000000000000060c052620186a0600155600b805460ff191690553480156200008f57600080fd5b506040516200586138038062005861833981016040819052620000b2916200033a565b600080546001600160a01b031916331790556001600160a01b03871660e0528115801590620000e957506001600160a01b03871615155b8015620000f95750818261ffff16145b80156200010e575083846001600160601b0316145b801562000123575082836001600160601b0316145b6200017f5760405162461bcd60e51b815260206004820152602260248201527f4d616e676f2f636f6e7374727563746f722f696e76616c6964417267756d656e604482015261747360f01b606482015260840160405180910390fd5b6001600160a01b038087166101605285166101805261ffff821661010052816001600160401b03811115620001b857620001b8620003b5565b604051908082528060200260200182016040528015620001e2578160200160208202803683370190505b508051620001f991600291602090910190620002ba565b50816001600160401b03811115620002155762000215620003b5565b6040519080825280602002602001820160405280156200023f578160200160208202803683370190505b5080516200025691600391602090910190620002ba565b506001600160601b0393841661012052919092166101405260095550506001600a819055600c8054336001600160a01b03199091168117909155600b8054610100600160a81b03191661010090920291909117905562061a80905550620003cb9050565b828054828255906000526020600020908101928215620002f8579160200282015b82811115620002f8578251825591602001919060010190620002db565b50620003069291506200030a565b5090565b5b808211156200030657600081556001016200030b565b6001600160a01b03811681146200033757600080fd5b50565b600080600080600080600060e0888a0312156200035657600080fd5b8751620003638162000321565b6020890151909750620003768162000321565b6040890151909650620003898162000321565b80955050606088015193506080880151925060a0880151915060c0880151905092959891949750929550565b634e487b7160e01b600052604160045260246000fd5b60805160a05160c05160e051610100516101205161014051610160516101805161514d620007146000396000818161051601528181610c9a01528181610da901528181611067015281816111f50152818161219f01528181612233015281816125c6015281816127970152818161281f01528181612d1f01528181612df201528181612f6301528181613037015281816131e20152818161393d01528181613ab001528181613d3e01528181613ecd015281816140060152818161417d015281816142ec015281816144250152818161461a01526146cf01526000818161068701528181610c7901528181610dca0152818161108f015281816111cd0152818161217e01528181612254015281816125e7015281816127fe015281816129cf01528181612a0401528181612c7c01528181612cdc01528181612d5901528181612db601528181612f4201528181613203015281816132bf015281816135f70152818161385f015281816138c40152818161390301528181613a3701528181613a7601528181613d1601528181613eac01528181613fe5015281816141a50152818161430d01528181614446015281816144840152818161463f01526146aa0152600061458a0152600081816135c501526136ca0152600081816105ea01528181610a0401528181610a3901528181610a7301528181610b2001528181610ee301528181610f4c01528181610fbb0152818161256b01528181612b9e01528181612e2301528181612ec601528181613061015281816130f001528181613bf601528181613c3501526140cc0152600081816104ca01528181610942015281816110c50152818161122b015281816112f3015281816114390152818161163201528181611771015281816117de01528181611af401528181611c7601528181611d9201528181611e2501528181611ee201528181611f880152818161206f015281816123720152818161242301528181612597015281816127cf01528181613367015281816134230152818161373e01528181613d8a01528181613e7d01528181613fb6015281816141f1015281816142bd01526143f601526000818161040301526118f001526000818161035c01526118b20152600081816104810152611874015261514d6000f3fe6080604052600436106102025760003560e01c8063836dfffa1161011d578063aefe8403116100b0578063dff6cb451161007f578063e4c34f8411610064578063e4c34f8414610655578063ec342ad014610675578063f851a440146106a957600080fd5b8063dff6cb451461061f578063e428204d1461063f57600080fd5b8063aefe840314610578578063c5dbec3814610598578063ccbbcfc2146105b8578063d4a1da08146105d857600080fd5b806399fa5e2d116100ec57806399fa5e2d146104b85780639c579839146105045780639d4ddea214610538578063ad97db1b1461055857600080fd5b8063836dfffa146104455780638456cb591461045a57806389dbacfe1461046f57806399cb40c1146104a357600080fd5b806349f6d2dc11610195578063704b6c0211610164578063704b6c02146103b157806378c60998146103d15780637f7a1b99146103f1578063815502671461042557600080fd5b806349f6d2dc14610329578063572e59e31461034a5780636a4f76911461037e5780636c49c32c1461039157600080fd5b80631efa880b116101d15780631efa880b1461029a57806334bd8931146102c75780633a2d38af146102e75780633d3d130d1461030957600080fd5b8063063df2d21461020e5780630d71bdc3146102435780631722d6e8146102635780631ef3755d1461028557600080fd5b3661020957005b600080fd5b34801561021a57600080fd5b5061022e610229366004614781565b6106c9565b60405190151581526020015b60405180910390f35b34801561024f57600080fd5b5061022e61025e3660046147ad565b6107b8565b34801561026f57600080fd5b5061028361027e36600461483a565b610923565b005b34801561029157600080fd5b50610283610e55565b3480156102a657600080fd5b506102ba6102b53660046148d8565b610ed9565b60405161023a91906148fc565b3480156102d357600080fd5b506102836102e236600461498f565b6112d4565b3480156102f357600080fd5b506102fc6113ba565b60405161023a91906149a8565b34801561031557600080fd5b506102836103243660046149ec565b611437565b61033c610337366004614a4c565b611574565b60405190815260200161023a565b34801561035657600080fd5b5061033c7f000000000000000000000000000000000000000000000000000000000000000081565b61028361038c366004614aae565b6116ad565b34801561039d57600080fd5b5061033c6103ac366004614b19565b6117da565b3480156103bd57600080fd5b506102836103cc366004614b36565b611916565b3480156103dd57600080fd5b506102836103ec366004614b53565b6119aa565b3480156103fd57600080fd5b5061033c7f000000000000000000000000000000000000000000000000000000000000000081565b34801561043157600080fd5b50610283610440366004614b8c565b611ad5565b34801561045157600080fd5b5061033c611bf5565b34801561046657600080fd5b50610283611c57565b34801561047b57600080fd5b5061033c7f000000000000000000000000000000000000000000000000000000000000000081565b3480156104af57600080fd5b5061033c611d11565b3480156104c457600080fd5b506104ec7f000000000000000000000000000000000000000000000000000000000000000081565b6040516001600160a01b03909116815260200161023a565b34801561051057600080fd5b506104ec7f000000000000000000000000000000000000000000000000000000000000000081565b34801561054457600080fd5b5061028361055336600461498f565b611d73565b34801561056457600080fd5b5061033c610573366004614be8565b611e05565b34801561058457600080fd5b50610283610593366004614781565b611f58565b3480156105a457600080fd5b506102836105b336600461498f565b612050565b3480156105c457600080fd5b5061033c6105d3366004614c3b565b6120e2565b3480156105e457600080fd5b5061060c7f000000000000000000000000000000000000000000000000000000000000000081565b60405161ffff909116815260200161023a565b34801561062b57600080fd5b506104ec61063a3660046148d8565b6122ad565b34801561064b57600080fd5b5061033c60015481565b34801561066157600080fd5b5061033c610670366004614c67565b612335565b34801561068157600080fd5b506104ec7f000000000000000000000000000000000000000000000000000000000000000081565b3480156106b557600080fd5b506000546104ec906001600160a01b031681565b600080546001600160a01b031633146107295760405162461bcd60e51b815260206004820152601860248201527f416363657373436f6e74726f6c6c65642f496e76616c6964000000000000000060448201526064015b60405180910390fd5b6001600160a01b0383166107a55760405162461bcd60e51b815260206004820152602160248201527f53696e676c65557365722f77697468647261774d47562f30785265636569766560448201527f72000000000000000000000000000000000000000000000000000000000000006064820152608401610720565b6107af83836123f1565b90505b92915050565b600080546001600160a01b031633146108135760405162461bcd60e51b815260206004820152601860248201527f416363657373436f6e74726f6c6c65642f496e76616c696400000000000000006044820152606401610720565b6001600160a01b03831661088f5760405162461bcd60e51b815260206004820152602160248201527f53696e676c65557365722f72656465656d546f6b656e2f30785265636569766560448201527f72000000000000000000000000000000000000000000000000000000000000006064820152608401610720565b6040517fa9059cbb0000000000000000000000000000000000000000000000000000000081526001600160a01b0384811660048301526024820184905285169063a9059cbb906044016020604051808303816000875af11580156108f7573d6000803e3d6000fd5b505050506040513d601f19601f8201168201806040525081019061091b9190614cb8565b949350505050565b6000546001600160a01b03163314806109645750336001600160a01b037f000000000000000000000000000000000000000000000000000000000000000016145b6109b05760405162461bcd60e51b815260206004820152601860248201527f416363657373436f6e74726f6c6c65642f496e76616c696400000000000000006044820152606401610720565b8484116109ff5760405162461bcd60e51b815260206004820152601d60248201527f4d616e676f2f696e697469616c697a652f696e76616c6964536c6963650000006044820152606401610720565b61ffff7f00000000000000000000000000000000000000000000000000000000000000001681148015610a30575060015b8015610a6a57507f000000000000000000000000000000000000000000000000000000000000000061ffff16610a668480614d04565b9050145b8015610aa757507f000000000000000000000000000000000000000000000000000000000000000061ffff16610aa36020850185614d04565b9050145b610b195760405162461bcd60e51b815260206004820152602360248201527f4d616e676f2f696e697469616c697a652f696e76616c696441727261794c656e60448201527f67746800000000000000000000000000000000000000000000000000000000006064820152608401610720565b610b4460017f0000000000000000000000000000000000000000000000000000000000000000614d9b565b61ffff168610610b965760405162461bcd60e51b815260206004820152601e60248201527f4d616e676f2f696e697469616c697a652f4e6f536c6f74466f7241736b7300006044820152606401610720565b845b84811015610e13576000610bab82612556565b9050878211610ce6576000610bc08680614d04565b84818110610bd057610bd0614cd5565b90506020020135905060008111610c255760008311610bf0576000610c27565b6003610c05610c00600186614dbe565b612556565b81548110610c1557610c15614cd5565b9060005260206000200154610c27565b805b9050610c4e826001878787818110610c4157610c41614cd5565b9050602002013584612593565b600060028381548110610c6357610c63614cd5565b90600052602060002001541115610ce057610cde7f00000000000000000000000000000000000000000000000000000000000000007f000000000000000000000000000000000000000000000000000000000000000060028581548110610ccc57610ccc614cd5565b90600052602060002001546000611e05565b505b50610e00565b6000610cf56020870187614d04565b84818110610d0557610d05614cd5565b90506020020135905060008111610d555760008311610d25576000610d57565b6002610d35610c00600186614dbe565b81548110610d4557610d45614cd5565b9060005260206000200154610d57565b805b9050610d7e826001878787818110610d7157610d71614cd5565b90506020020135846127cb565b600060038381548110610d9357610d93614cd5565b90600052602060002001541115610dfe57610dfc7f00000000000000000000000000000000000000000000000000000000000000007f000000000000000000000000000000000000000000000000000000000000000060038581548110610ccc57610ccc614cd5565b505b505b5080610e0b81614dd5565b915050610b98565b60408051878152602081018790527f997896709b4e932ee42750e2e14ed1f7ab6c60bd911ff567aa2485cf0b20051b910160405180910390a150505050505050565b6000546001600160a01b03163314610eaf5760405162461bcd60e51b815260206004820152601860248201527f416363657373436f6e74726f6c6c65642f496e76616c696400000000000000006044820152606401610720565b600b80547fffffffffffffffffffffffffffffffffffffffffffffffffffffffffffffff00169055565b610ee1614724565b7f000000000000000000000000000000000000000000000000000000000000000061ffff1667ffffffffffffffff811115610f1e57610f1e614e0e565b604051908082528060200260200182016040528015610f47578160200160208202803683370190505b5081527f000000000000000000000000000000000000000000000000000000000000000061ffff1667ffffffffffffffff811115610f8757610f87614e0e565b604051908082528060200260200182016040528015610fb0578160200160208202803683370190505b50602082015260005b7f000000000000000000000000000000000000000000000000000000000000000061ffff168110156112ce5760006002610ff283612556565b8154811061100257611002614cd5565b906000526020600020015490506000600361101c84612556565b8154811061102c5761102c614cd5565b60009182526020822001546040517f68c13d6b0000000000000000000000000000000000000000000000000000000081526001600160a01b037f0000000000000000000000000000000000000000000000000000000000000000811660048301527f00000000000000000000000000000000000000000000000000000000000000008116602483015260448201839052919350611142917f000000000000000000000000000000000000000000000000000000000000000016906368c13d6b906064015b602060405180830381865afa15801561110d573d6000803e3d6000fd5b505050506040513d601f19601f820116820180604052508101906111319190614e3d565b6bffffffffffffffffffffffff1690565b118061114c575084155b61115757600061117e565b600361116284612556565b8154811061117257611172614cd5565b90600052602060002001545b845180518590811061119257611192614cd5565b60209081029190910101526040517f68c13d6b0000000000000000000000000000000000000000000000000000000081526001600160a01b037f0000000000000000000000000000000000000000000000000000000000000000811660048301527f0000000000000000000000000000000000000000000000000000000000000000811660248301526044820184905260009161125a917f000000000000000000000000000000000000000000000000000000000000000016906368c13d6b906064016110f0565b1180611264575084155b61126f576000611296565b600261127a84612556565b8154811061128a5761128a614cd5565b90600052602060002001545b60208501518051859081106112ad576112ad614cd5565b602002602001018181525050505080806112c690614dd5565b915050610fb9565b50919050565b6000546001600160a01b03163314806113155750336001600160a01b037f000000000000000000000000000000000000000000000000000000000000000016145b6113615760405162461bcd60e51b815260206004820152601860248201527f416363657373436f6e74726f6c6c65642f496e76616c696400000000000000006044820152606401610720565b808162ffffff16146113b55760405162461bcd60e51b815260206004820152601860248201527f6d67764f666665722f6761737265712f6f766572666c6f7700000000000000006044820152606401610720565b600155565b6113c261474b565b6000546001600160a01b0316331461141c5760405162461bcd60e51b815260206004820152601860248201527f416363657373436f6e74726f6c6c65642f496e76616c696400000000000000006044820152606401610720565b50604080518082019091526004548152600554602082015290565b7f00000000000000000000000000000000000000000000000000000000000000006001600160a01b03811615806114765750336001600160a01b038216145b6114c25760405162461bcd60e51b815260206004820152601860248201527f416363657373436f6e74726f6c6c65642f496e76616c696400000000000000006044820152606401610720565b81602001357f6d67762f7472616465537563636573730000000000000000000000000000000014156114fd576114f7836129f8565b50505050565b604083018035906115119060208601614b36565b6001600160a01b03166115276020860186614b36565b6001600160a01b03167fd2c3f090769d843e1fc2e6ce65d60572e28f9163a5cfccbd6c1725c6a9263f2f856000013560405161156591815260200190565b60405180910390a460016114f7565b600080546001600160a01b031633146115cf5760405162461bcd60e51b815260206004820152601860248201527f416363657373436f6e74726f6c6c65642f496e76616c696400000000000000006044820152606401610720565b6040517f49f6d2dc0000000000000000000000000000000000000000000000000000000081526001600160a01b038981166004830152888116602483015260448201889052606482018790526084820186905260a4820185905260c482018490527f000000000000000000000000000000000000000000000000000000000000000016906349f6d2dc90349060e40160206040518083038185885af115801561167c573d6000803e3d6000fd5b50505050506040513d601f19601f820116820180604052508101906116a19190614e3d565b98975050505050505050565b6000546001600160a01b031633146117075760405162461bcd60e51b815260206004820152601860248201527f416363657373436f6e74726f6c6c65642f496e76616c696400000000000000006044820152606401610720565b6040517f6a4f76910000000000000000000000000000000000000000000000000000000081526001600160a01b038981166004830152888116602483015260448201889052606482018790526084820186905260a4820185905260c4820184905260e482018390527f00000000000000000000000000000000000000000000000000000000000000001690636a4f7691903490610104016000604051808303818588803b1580156117b757600080fd5b505af11580156117cb573d6000803e3d6000fd5b50505050505050505050505050565b60007f00000000000000000000000000000000000000000000000000000000000000006001600160a01b038116158061181b5750336001600160a01b038216145b6118675760405162461bcd60e51b815260206004820152601860248201527f416363657373436f6e74726f6c6c65642f496e76616c696400000000000000006044820152606401610720565b600b5460ff161561189a577f000000000000000000000000000000000000000000000000000000000000000091506112ce565b60006118aa8460a0013585612c70565b11156118d8577f000000000000000000000000000000000000000000000000000000000000000091506112ce565b60006118e8846080013585612d4d565b11156112ce577f000000000000000000000000000000000000000000000000000000000000000091506112ce565b6000546001600160a01b031633146119705760405162461bcd60e51b815260206004820152601860248201527f416363657373436f6e74726f6c6c65642f496e76616c696400000000000000006044820152606401610720565b600080547fffffffffffffffffffffffff0000000000000000000000000000000000000000166001600160a01b0392909216919091179055565b6000546001600160a01b03163314611a045760405162461bcd60e51b815260206004820152601860248201527f416363657373436f6e74726f6c6c65642f496e76616c696400000000000000006044820152606401610720565b6001600160a01b038116611a5a5760405162461bcd60e51b815260206004820152601d60248201527f4d616e676f2f7365745f74726561737572792f307854726561737572790000006044820152606401610720565b8115611a9d57600b80546001600160a01b038316610100027fffffffffffffffffffffff0000000000000000000000000000000000000000ff9091161790555050565b600c80547fffffffffffffffffffffffff0000000000000000000000000000000000000000166001600160a01b0383161790555b5050565b6000546001600160a01b0316331480611b165750336001600160a01b037f000000000000000000000000000000000000000000000000000000000000000016145b611b625760405162461bcd60e51b815260206004820152601860248201527f416363657373436f6e74726f6c6c65642f496e76616c696400000000000000006044820152606401610720565b60008412611b705783611b79565b611b7984614e56565b8114611bc75760405162461bcd60e51b815260206004820181905260248201527f4d616e676f2f7365745f73686966742f6e6f74456e6f756768416d6f756e74736044820152606401610720565b6000841215611be957611be4611bdc85614e56565b848484612e21565b6114f7565b6114f7848484846130ee565b600080546001600160a01b03163314611c505760405162461bcd60e51b815260206004820152601860248201527f416363657373436f6e74726f6c6c65642f496e76616c696400000000000000006044820152606401610720565b5060085490565b6000546001600160a01b0316331480611c985750336001600160a01b037f000000000000000000000000000000000000000000000000000000000000000016145b611ce45760405162461bcd60e51b815260206004820152601860248201527f416363657373436f6e74726f6c6c65642f496e76616c696400000000000000006044820152606401610720565b600b80547fffffffffffffffffffffffffffffffffffffffffffffffffffffffffffffff00166001179055565b600080546001600160a01b03163314611d6c5760405162461bcd60e51b815260206004820152601860248201527f416363657373436f6e74726f6c6c65642f496e76616c696400000000000000006044820152606401610720565b5060095490565b6000546001600160a01b0316331480611db45750336001600160a01b037f000000000000000000000000000000000000000000000000000000000000000016145b611e005760405162461bcd60e51b815260206004820152601860248201527f416363657373436f6e74726f6c6c65642f496e76616c696400000000000000006044820152606401610720565b600a55565b600080546001600160a01b0316331480611e475750336001600160a01b037f000000000000000000000000000000000000000000000000000000000000000016145b611e935760405162461bcd60e51b815260206004820152601860248201527f416363657373436f6e74726f6c6c65642f496e76616c696400000000000000006044820152606401610720565b6040517fad97db1b0000000000000000000000000000000000000000000000000000000081526001600160a01b03868116600483015285811660248301526044820185905283151560648301527f0000000000000000000000000000000000000000000000000000000000000000169063ad97db1b906084016020604051808303816000875af1158015611f2b573d6000803e3d6000fd5b505050506040513d601f19601f82011682018060405250810190611f4f9190614e3d565b95945050505050565b6040517f095ea7b30000000000000000000000000000000000000000000000000000000081526001600160a01b037f0000000000000000000000000000000000000000000000000000000000000000811660048301526024820183905283169063095ea7b3906044016020604051808303816000875af1158015611fe0573d6000803e3d6000fd5b505050506040513d601f19601f820116820180604052508101906120049190614cb8565b611ad15760405162461bcd60e51b815260206004820152601560248201527f6d67764f666665722f617070726f76652f4661696c00000000000000000000006044820152606401610720565b6000546001600160a01b03163314806120915750336001600160a01b037f000000000000000000000000000000000000000000000000000000000000000016145b6120dd5760405162461bcd60e51b815260206004820152601860248201527f416363657373436f6e74726f6c6c65642f496e76616c696400000000000000006044820152606401610720565b600955565b600080546001600160a01b0316331461213d5760405162461bcd60e51b815260206004820152601860248201527f416363657373436f6e74726f6c6c65642f496e76616c696400000000000000006044820152606401610720565b825b828110156122a55784156121f05760006002828154811061216257612162614cd5565b9060005260206000200154116121795760006121e3565b6121e37f00000000000000000000000000000000000000000000000000000000000000007f0000000000000000000000000000000000000000000000000000000000000000600284815481106121d1576121d1614cd5565b90600052602060002001546001611e05565b6121ed9083614e8f565b91505b8415806121fd5750600185115b156122935760006003828154811061221757612217614cd5565b90600052602060002001541161222e576000612286565b6122867f00000000000000000000000000000000000000000000000000000000000000007f0000000000000000000000000000000000000000000000000000000000000000600384815481106121d1576121d1614cd5565b6122909083614e8f565b91505b8061229d81614dd5565b91505061213f565b509392505050565b600080546001600160a01b031633146123085760405162461bcd60e51b815260206004820152601860248201527f416363657373436f6e74726f6c6c65642f496e76616c696400000000000000006044820152606401610720565b8161231e57600c546001600160a01b03166107b2565b600b5461010090046001600160a01b031692915050565b6040517f70a082310000000000000000000000000000000000000000000000000000000081523060048201526000906123e7906001600160a01b037f000000000000000000000000000000000000000000000000000000000000000016906370a0823190602401602060405180830381865afa1580156123b9573d6000803e3d6000fd5b505050506040513d601f19601f820116820180604052508101906123dd9190614e3d565b8787878787613320565b9695505050505050565b6040517f2e1a7d4d000000000000000000000000000000000000000000000000000000008152600481018290526000907f00000000000000000000000000000000000000000000000000000000000000006001600160a01b031690632e1a7d4d906024016020604051808303816000875af1158015612474573d6000803e3d6000fd5b505050506040513d601f19601f820116820180604052508101906124989190614cb8565b6124e45760405162461bcd60e51b815260206004820152601e60248201527f6d67764f666665722f77697468647261772f7472616e736665724661696c00006044820152606401610720565b6001600160a01b038316301461254d576040516001600160a01b038416908390600081818185875af1925050503d806000811461253d576040519150601f19603f3d011682016040523d82523d6000602084013e612542565b606091505b5050809150506107b2565b50600192915050565b60006107b2600854836125699190614ea7565b7f000000000000000000000000000000000000000000000000000000000000000061ffff1661356e565b60007f00000000000000000000000000000000000000000000000000000000000000006001600160a01b03166368c13d6b7f00000000000000000000000000000000000000000000000000000000000000007f00000000000000000000000000000000000000000000000000000000000000006003898154811061261957612619614cd5565b6000918252602090912001546040517fffffffff0000000000000000000000000000000000000000000000000000000060e086901b1681526001600160a01b0393841660048201529290911660248301526044820152606401602060405180830381865afa15801561268f573d6000803e3d6000fd5b505050506040513d601f19601f820116820180604052508101906126b39190614e3d565b905060006126c086613595565b90506000856126f3576005546126e46bffffffffffffffffffffffff851687614e8f565b6126ee9190614e8f565b6126f5565b845b9050600061270383836135a8565b905060006bffffffffffffffffffffffff8516612770578515612727575084612791565b831561275f57600361273d610c00600187614dbe565b8154811061274d5761274d614cd5565b90600052602060002001549050612791565b6127698560e01c90565b9050612791565b6003898154811061278357612783614cd5565b906000526020600020015490505b6127c0897f000000000000000000000000000000000000000000000000000000000000000084868c15866135f5565b505050505050505050565b60007f00000000000000000000000000000000000000000000000000000000000000006001600160a01b03166368c13d6b7f00000000000000000000000000000000000000000000000000000000000000007f00000000000000000000000000000000000000000000000000000000000000006002898154811061285157612851614cd5565b6000918252602090912001546040517fffffffff0000000000000000000000000000000000000000000000000000000060e086901b1681526001600160a01b0393841660048201529290911660248301526044820152606401602060405180830381865afa1580156128c7573d6000803e3d6000fd5b505050506040513d601f19601f820116820180604052508101906128eb9190614e3d565b905060006128f886613595565b905060008561292b5760045461291c6bffffffffffffffffffffffff851687614e8f565b6129269190614e8f565b61292d565b845b9050600061293b83836136c6565b905060006bffffffffffffffffffffffff85166129a857851561295f5750846129c9565b8315612997576002612975610c00600187614dbe565b8154811061298557612985614cd5565b906000526020600020015490506129c9565b6129a18560e01c90565b90506129c9565b600289815481106129bb576129bb614cd5565b906000526020600020015490505b6127c0897f000000000000000000000000000000000000000000000000000000000000000084868c15866135f5565b60006001600160a01b037f000000000000000000000000000000000000000000000000000000000000000016612a316020840184614b36565b6001600160a01b03161415612b4e57612a498261370b565b612a5e57612a5682613853565b600455612a64565b60006004555b604080830135600090815260076020522054801561254d576000612a8782613595565b90508015612ab857612aae612aa0610c00600184614dbe565b60008660a001356000612593565b5060019392505050565b60408401803590612acc9060208701614b36565b6001600160a01b0316612ae26020870187614b36565b6001600160a01b03167fd2c3f090769d843e1fc2e6ce65d60572e28f9163a5cfccbd6c1725c6a9263f2f604051612b3c907f4d616e676f2f706f7374686f6f6b2f4275794f75744f6652616e676500000000815260200190565b60405180910390a45060009392505050565b612b578261370b565b612b6c57612b6482613853565b600555612b72565b60006005555b604080830135600090815260066020522054801561254d576000612b9582613595565b9050612bc260017f0000000000000000000000000000000000000000000000000000000000000000614d9b565b61ffff16811015612bec57612aae612bde610c00836001614e8f565b60008660a0013560006127cb565b60408401803590612c009060208701614b36565b6001600160a01b0316612c166020870187614b36565b6001600160a01b03167fd2c3f090769d843e1fc2e6ce65d60572e28f9163a5cfccbd6c1725c6a9263f2f604051612b3c907f4d616e676f2f706f7374686f6f6b2f53656c6c4f75744f6652616e6765000000815260200190565b60006001600160a01b037f000000000000000000000000000000000000000000000000000000000000000016612cac6040840160208501614b36565b6001600160a01b0316148015612cd25750600b5461010090046001600160a01b03163014155b15612d0857612d017f0000000000000000000000000000000000000000000000000000000000000000846138bd565b90506107b2565b600c546001600160a01b03163014612d4457612d017f0000000000000000000000000000000000000000000000000000000000000000846138bd565b50600092915050565b60006001600160a01b037f000000000000000000000000000000000000000000000000000000000000000016612d866020840184614b36565b6001600160a01b0316148015612dac5750600b5461010090046001600160a01b03163014155b15612ddb57612d017f000000000000000000000000000000000000000000000000000000000000000084613a30565b600c546001600160a01b03163014612e1757612d017f000000000000000000000000000000000000000000000000000000000000000084613a30565b6107af8383613b2e565b7f000000000000000000000000000000000000000000000000000000000000000061ffff168410612eba5760405162461bcd60e51b815260206004820152602160248201527f4d616e676f2f73686966742f4e656761746976655368696674546f6f4c61726760448201527f65000000000000000000000000000000000000000000000000000000000000006064820152608401610720565b6000612ef3612eea60017f0000000000000000000000000000000000000000000000000000000000000000614d9b565b61ffff16612556565b90508460086000828254612f079190614f1b565b90915550600090505b858110156130e65760028281548110612f2b57612f2b614cd5565b9060005260206000200154600014612f9757612f957f00000000000000000000000000000000000000000000000000000000000000007f000000000000000000000000000000000000000000000000000000000000000060028581548110610ccc57610ccc614cd5565b505b6000612fa283613595565b90506000808715612ff157868685818110612fbf57612fbf614cd5565b905060200201359050612fea83888887818110612fde57612fde614cd5565b905060200201356136c6565b9150613031565b6130138388888781811061300757613007614cd5565b905060200201356135a8565b905086868581811061302757613027614cd5565b9050602002013591505b6130c6857f00000000000000000000000000000000000000000000000000000000000000008385600061308560017f0000000000000000000000000000000000000000000000000000000000000000614d9b565b61ffff1689106130965760006135f5565b60036130a6610c008b6001614e8f565b815481106130b6576130b6614cd5565b90600052602060002001546135f5565b836130d081614dd5565b9450506130dc85613be6565b9450505050612f10565b505050505050565b7f000000000000000000000000000000000000000000000000000000000000000061ffff1684106131875760405162461bcd60e51b815260206004820152602160248201527f4d616e676f2f73686966742f706f7369746976655368696674546f6f4c61726760448201527f65000000000000000000000000000000000000000000000000000000000000006064820152608401610720565b60006131936000612556565b905084600860008282546131a79190614ea7565b90915550600090505b858110156130e657600382815481106131cb576131cb614cd5565b9060005260206000200154600014613237576132357f00000000000000000000000000000000000000000000000000000000000000007f000000000000000000000000000000000000000000000000000000000000000060038581548110610ccc57610ccc614cd5565b505b600061324283613595565b905060008087156132855786868581811061325f5761325f614cd5565b90506020020135915061327e83888887818110612fde57612fde614cd5565b90506132b9565b86868581811061329757613297614cd5565b9050602002013590506132b68388888781811061300757613007614cd5565b91505b613300857f0000000000000000000000000000000000000000000000000000000000000000838560008089116132f05760006135f5565b60026130a6610c0060018c614dbe565b8361330a81614dd5565b94505061331685613c2e565b94505050506131b0565b6040517fcbf75c9a0000000000000000000000000000000000000000000000000000000081526001600160a01b0386811660048301528581166024830152600091829182917f00000000000000000000000000000000000000000000000000000000000000009091169063cbf75c9a906044016040805180830381865afa1580156133af573d6000803e3d6000fd5b505050506040513d601f19601f820116820180604052508101906133d39190614f8f565b6040517f5722647b0000000000000000000000000000000000000000000000000000000081526001600160a01b038b811660048301528a81166024830152604482018890529294509092506000917f00000000000000000000000000000000000000000000000000000000000000001690635722647b90606401602060405180830381865afa15801561346a573d6000803e3d6000fd5b505050506040513d601f19601f8201168201806040525081019061348e9190614e3d565b9050600086604085901c61ffff1611156134b1575061ffff604084901c166134b4565b50855b62ffffff8811156134c55760015497505b6000816134db62ffffff606087901c168b614e8f565b6134e59190614fb3565b6134f390633b9aca00614fb3565b9050600061ffff602085901c1661351a62ffffff603087901c811690604888901c16614e8f565b6135249190614fb3565b61353290633b9aca00614fb3565b905060006135408e83614e8f565b905082811015613559576135548184614dbe565b61355c565b60005b9e9d5050505050505050505050505050565b600080831261358157612d01828461501f565b61358b8284615033565b612d019083614ea7565b60006107b2600854836125699190614f1b565b60006135b383613c6a565b6135eb6bffffffffffffffffffffffff7f00000000000000000000000000000000000000000000000000000000000000001684614fb3565b6107af9190615047565b7f00000000000000000000000000000000000000000000000000000000000000006001600160a01b0316856001600160a01b0316141561367957600061363d87868685613c82565b90508015613667578261365d57806004546136589190614e8f565b61365f565b805b600455613673565b82156136735760006004555b506130e6565b6000613687878686856140bf565b905080156136b157826136a757806005546136a29190614e8f565b6136a9565b805b6005556136bd565b82156136bd5760006005555b50505050505050565b60007f00000000000000000000000000000000000000000000000000000000000000006bffffffffffffffffffffffff168261370185613c6a565b6135eb9190614fb3565b60008061371783613853565b9050806137275750600192915050565b600061373284614478565b90506001600160a01b037f000000000000000000000000000000000000000000000000000000000000000016636a4f76916137706020870187614b36565b6137806040880160208901614b36565b848660c08a013560481c62ffffff1660c08b013560201c61ffff1660608c013560c01c63ffffffff16604080517fffffffff0000000000000000000000000000000000000000000000000000000060e08b901b1681526001600160a01b03988916600482015297909616602488015260448701949094526064860192909252608485015260a484015260c483015287013560e482015261010401600060405180830381600087803b15801561383457600080fd5b505af1925050508015613845575060015b612aae575060009392505050565b60006001600160a01b037f00000000000000000000000000000000000000000000000000000000000000001661388c6020840184614b36565b6001600160a01b031614156138b1576004546138a783614542565b6107b29190614e8f565b6005546138a783614542565b60008060007f00000000000000000000000000000000000000000000000000000000000000006001600160a01b0316856001600160a01b03161415613936575050600b547f00000000000000000000000000000000000000000000000000000000000000009061010090046001600160a01b0316613967565b5050600c547f0000000000000000000000000000000000000000000000000000000000000000906001600160a01b03165b6040517fa9059cbb0000000000000000000000000000000000000000000000000000000081526001600160a01b0382811660048301526024820186905283169063a9059cbb906044015b6020604051808303816000875af1925050508015613a0a575060408051601f3d9081017fffffffffffffffffffffffffffffffffffffffffffffffffffffffffffffffe0168201909252613a0791810190614cb8565b60015b613a1357613a27565b8015613a2557600093505050506107b2565b505b50919392505050565b60008060007f00000000000000000000000000000000000000000000000000000000000000006001600160a01b0316856001600160a01b03161415613aa9575050600b547f00000000000000000000000000000000000000000000000000000000000000009061010090046001600160a01b0316613ada565b5050600c547f0000000000000000000000000000000000000000000000000000000000000000906001600160a01b03165b6040517f23b872dd0000000000000000000000000000000000000000000000000000000081526001600160a01b038281166004830152306024830152604482018690528316906323b872dd906064016139b1565b600080613b3e6020840184614b36565b6040517f70a082310000000000000000000000000000000000000000000000000000000081523060048201526001600160a01b0391909116906370a0823190602401602060405180830381865afa158015613b9d573d6000803e3d6000fd5b505050506040513d601f19601f82011682018060405250810190613bc19190614e3d565b9050838110613bd45760009150506107b2565b613bde8185614dbe565b9150506107b2565b6000808211613c2357613c1a60017f0000000000000000000000000000000000000000000000000000000000000000614d9b565b61ffff166107b2565b6107b2600183614dbe565b600061ffff7f000000000000000000000000000000000000000000000000000000000000000016613c60836001614e8f565b6107b2919061501f565b6000613c74614564565b826009546138a79190614fb3565b6000600a54613c9086613595565b11613cbd57613cbd600060028781548110613cad57613cad614cd5565b9060005260206000200154614606565b60028581548110613cd057613cd0614cd5565b906000526020600020015460001415613e7b576001546040517f49f6d2dc0000000000000000000000000000000000000000000000000000000081526001600160a01b037f0000000000000000000000000000000000000000000000000000000000000000811660048301527f00000000000000000000000000000000000000000000000000000000000000008116602483015260448201879052606482018690526084820192909252600060a482015260c481018490527f0000000000000000000000000000000000000000000000000000000000000000909116906349f6d2dc9060e4016020604051808303816000875af1925050508015613e0f575060408051601f3d9081017fffffffffffffffffffffffffffffffffffffffffffffffffffffffffffffffe0168201909252613e0c91810190614e3d565b60015b613e1a57508161091b565b8060028781548110613e2e57613e2e614cd5565b9060005260206000200181905550856007600060028981548110613e5457613e54614cd5565b9060005260206000200154815260200190815260200160002081905550600091505061091b565b7f00000000000000000000000000000000000000000000000000000000000000006001600160a01b0316636a4f76917f00000000000000000000000000000000000000000000000000000000000000007f0000000000000000000000000000000000000000000000000000000000000000878760015460008960028e81548110613f0757613f07614cd5565b6000918252602090912001546040517fffffffff0000000000000000000000000000000000000000000000000000000060e08b901b1681526001600160a01b03988916600482015297909616602488015260448701949094526064860192909252608485015260a484015260c483015260e482015261010401600060405180830381600087803b158015613f9a57600080fd5b505af1925050508015613fab575060015b6140b75760006140967f00000000000000000000000000000000000000000000000000000000000000006001600160a01b03166368c13d6b7f00000000000000000000000000000000000000000000000000000000000000007f000000000000000000000000000000000000000000000000000000000000000060028b8154811061403857614038614cd5565b6000918252602090912001546040517fffffffff0000000000000000000000000000000000000000000000000000000060e086901b1681526001600160a01b03938416600482015292909116602483015260448201526064016110f0565b90508084116140a557836140af565b6140af8185614dbe565b91505061091b565b50600061091b565b600a546000906140f060017f0000000000000000000000000000000000000000000000000000000000000000614d9b565b61ffff166140fe9190614dbe565b61410786613595565b1061412457614124600160038781548110613cad57613cad614cd5565b6003858154811061413757614137614cd5565b9060005260206000200154600014156142bb576001546040517f49f6d2dc0000000000000000000000000000000000000000000000000000000081526001600160a01b037f0000000000000000000000000000000000000000000000000000000000000000811660048301527f00000000000000000000000000000000000000000000000000000000000000008116602483015260448201879052606482018690526084820192909252600060a482015260c481018490527f0000000000000000000000000000000000000000000000000000000000000000909116906349f6d2dc9060e4016020604051808303816000875af1925050508015614276575060408051601f3d9081017fffffffffffffffffffffffffffffffffffffffffffffffffffffffffffffffe016820190925261427391810190614e3d565b60015b61428157508161091b565b806003878154811061429557614295614cd5565b9060005260206000200181905550856006600060038981548110613e5457613e54614cd5565b7f00000000000000000000000000000000000000000000000000000000000000006001600160a01b0316636a4f76917f00000000000000000000000000000000000000000000000000000000000000007f0000000000000000000000000000000000000000000000000000000000000000878760015460008960038e8154811061434757614347614cd5565b6000918252602090912001546040517fffffffff0000000000000000000000000000000000000000000000000000000060e08b901b1681526001600160a01b03988916600482015297909616602488015260448701949094526064860192909252608485015260a484015260c483015260e482015261010401600060405180830381600087803b1580156143da57600080fd5b505af19250505080156143eb575060015b6140b75760006140967f00000000000000000000000000000000000000000000000000000000000000006001600160a01b03166368c13d6b7f00000000000000000000000000000000000000000000000000000000000000007f000000000000000000000000000000000000000000000000000000000000000060038b8154811061403857614038614cd5565b60006001600160a01b037f0000000000000000000000000000000000000000000000000000000000000000166144b16020840184614b36565b6001600160a01b03161415614501576040808301356000908152600760205290812054906144de84613853565b9050806144ef575060009392505050565b61091b6144fb83613595565b826136c6565b60408083013560009081526006602052908120549061451f84613853565b905080614530575060009392505050565b61091b61453c83613595565b826135a8565b60006107b2608083013560608401356bffffffffffffffffffffffff16614dbe565b600080600954600854614577919061505b565b6145af906bffffffffffffffffffffffff7f000000000000000000000000000000000000000000000000000000000000000016614ea7565b9050600081136146015760405162461bcd60e51b815260206004820152601e60248201527f4d616e676f2f71756f74655f6d696e2f5368696674556e646572666c6f7700006044820152606401610720565b919050565b811561469c57604080516001600160a01b037f0000000000000000000000000000000000000000000000000000000000000000811682527f00000000000000000000000000000000000000000000000000000000000000001660208201529081018290527fa277cbc4d6eebe10b75c089f332890611f79a84754eeaaf06ed641c899dbafb1906060015b60405180910390a15050565b604080516001600160a01b037f0000000000000000000000000000000000000000000000000000000000000000811682527f00000000000000000000000000000000000000000000000000000000000000001660208201529081018290527f87c70da6914e41de8c96757fe2e40f6b1e13781d812e768da91b926699aba2ec90606001614690565b60405180604001604052806002905b60608152602001906001900390816147335790505090565b60405180604001604052806002906020820280368337509192915050565b6001600160a01b038116811461477e57600080fd5b50565b6000806040838503121561479457600080fd5b823561479f81614769565b946020939093013593505050565b6000806000606084860312156147c257600080fd5b83356147cd81614769565b925060208401356147dd81614769565b929592945050506040919091013590565b60008083601f84011261480057600080fd5b50813567ffffffffffffffff81111561481857600080fd5b6020830191508360208260051b850101111561483357600080fd5b9250929050565b60008060008060008060a0878903121561485357600080fd5b863595506020870135945060408701359350606087013567ffffffffffffffff8082111561488057600080fd5b81890191508960408301111561489557600080fd5b909350608088013590808211156148ab57600080fd5b506148b889828a016147ee565b979a9699509497509295939492505050565b801515811461477e57600080fd5b6000602082840312156148ea57600080fd5b81356148f5816148ca565b9392505050565b6020808252600090606083018382018584805b6002811015614982578785037fffffffffffffffffffffffffffffffffffffffffffffffffffffffffffffffe0018452825180518087529087019087870190845b8181101561496c57835183529289019291890191600101614950565b509096505050928501929185019160010161490f565b5092979650505050505050565b6000602082840312156149a157600080fd5b5035919050565b60408101818360005b60028110156149d05781518352602092830192909101906001016149b1565b50505092915050565b600061012082840312156112ce57600080fd5b600080828403610160811215614a0157600080fd5b614a0b85856149d9565b925060407ffffffffffffffffffffffffffffffffffffffffffffffffffffffffffffffee082011215614a3d57600080fd5b50610120830190509250929050565b600080600080600080600060e0888a031215614a6757600080fd5b8735614a7281614769565b96506020880135614a8281614769565b96999698505050506040850135946060810135946080820135945060a0820135935060c0909101359150565b600080600080600080600080610100898b031215614acb57600080fd5b8835614ad681614769565b97506020890135614ae681614769565b979a9799505050506040860135956060810135956080820135955060a0820135945060c0820135935060e0909101359150565b60006101208284031215614b2c57600080fd5b6107af83836149d9565b600060208284031215614b4857600080fd5b81356148f581614769565b60008060408385031215614b6657600080fd5b8235614b71816148ca565b91506020830135614b8181614769565b809150509250929050565b60008060008060608587031215614ba257600080fd5b843593506020850135614bb4816148ca565b9250604085013567ffffffffffffffff811115614bd057600080fd5b614bdc878288016147ee565b95989497509550505050565b60008060008060808587031215614bfe57600080fd5b8435614c0981614769565b93506020850135614c1981614769565b9250604085013591506060850135614c30816148ca565b939692955090935050565b600080600060608486031215614c5057600080fd5b505081359360208301359350604090920135919050565b600080600080600060a08688031215614c7f57600080fd5b8535614c8a81614769565b94506020860135614c9a81614769565b94979496505050506040830135926060810135926080909101359150565b600060208284031215614cca57600080fd5b81516148f5816148ca565b7f4e487b7100000000000000000000000000000000000000000000000000000000600052603260045260246000fd5b60008083357fffffffffffffffffffffffffffffffffffffffffffffffffffffffffffffffe1843603018112614d3957600080fd5b83018035915067ffffffffffffffff821115614d5457600080fd5b6020019150600581901b360382131561483357600080fd5b7f4e487b7100000000000000000000000000000000000000000000000000000000600052601160045260246000fd5b600061ffff83811690831681811015614db657614db6614d6c565b039392505050565b600082821015614dd057614dd0614d6c565b500390565b60007fffffffffffffffffffffffffffffffffffffffffffffffffffffffffffffffff821415614e0757614e07614d6c565b5060010190565b7f4e487b7100000000000000000000000000000000000000000000000000000000600052604160045260246000fd5b600060208284031215614e4f57600080fd5b5051919050565b60007f8000000000000000000000000000000000000000000000000000000000000000821415614e8857614e88614d6c565b5060000390565b60008219821115614ea257614ea2614d6c565b500190565b6000808212827f7fffffffffffffffffffffffffffffffffffffffffffffffffffffffffffffff03841381151615614ee157614ee1614d6c565b827f8000000000000000000000000000000000000000000000000000000000000000038412811615614f1557614f15614d6c565b50500190565b6000808312837f800000000000000000000000000000000000000000000000000000000000000001831281151615614f5557614f55614d6c565b837f7fffffffffffffffffffffffffffffffffffffffffffffffffffffffffffffff018313811615614f8957614f89614d6c565b50500390565b60008060408385031215614fa257600080fd5b505080516020909101519092909150565b6000817fffffffffffffffffffffffffffffffffffffffffffffffffffffffffffffffff0483118215151615614feb57614feb614d6c565b500290565b7f4e487b7100000000000000000000000000000000000000000000000000000000600052601260045260246000fd5b60008261502e5761502e614ff0565b500690565b60008261504257615042614ff0565b500790565b60008261505657615056614ff0565b500490565b60007f7fffffffffffffffffffffffffffffffffffffffffffffffffffffffffffffff60008413600084138583048511828216161561509c5761509c614d6c565b7f800000000000000000000000000000000000000000000000000000000000000060008712868205881281841616156150d7576150d7614d6c565b600087129250878205871284841616156150f3576150f3614d6c565b8785058712818416161561510957615109614d6c565b50505092909302939250505056fea2646970667358221220d710af54392c31208b26eb67a1babfb593be0b3d2c0c41901086ee012295585264736f6c634300080a0033",
  "devdoc": {
    "kind": "dev",
    "methods": {},
    "version": 1
  },
  "userdoc": {
    "events": {
      "BidAtMaxPosition(address,address,uint256)": {
        "notice": "Strat specific events "
      },
      "LogIncident(address,address,uint256,bytes32)": {
        "notice": "Events "
      }
    },
    "kind": "user",
    "methods": {
      "NSLOTS()": {
        "notice": "Immutable fields "
      },
      "approveMangrove(address,uint256)": {
        "notice": "`this` contract needs to approve Mangrove to let it perform outbound token transfer at the end of the `makerExecute` function NB anyone can call this function"
      },
      "get_delta()": {
        "notice": "Setters and getters "
      },
      "redeemToken(address,address,uint256)": {
        "notice": "transfers token stored in `this` contract to some recipient address"
      },
      "set_shift(int256,bool,uint256[])": {
        "notice": "New positions 0<= i < s are initialized with amount[i] in base tokens if `withBase`. In quote tokens otherwise"
      },
      "set_treasury(bool,address)": {
        "notice": "Sets the account from which base (resp. quote) tokens need to be fetched or put during trade execution"
      },
      "withdrawFromMangrove(address,uint256)": {
        "notice": "withdraws ETH from the bounty vault of the Mangrove. ETH are sent to `receiver`"
      }
    },
    "notice": "In case of a partial fill of an offer at position i, the offer residual is reposted (see `Persistent` strat class)",
    "version": 1
  },
  "storageLayout": {
    "storage": [
      {
        "astId": 22713,
        "contract": "contracts/Strategies/OfferLogics/SingleUser/Deployable/MarketMaking/Mango.sol:Mango",
        "label": "admin",
        "offset": 0,
        "slot": "0",
        "type": "t_address"
      },
      {
        "astId": 11622,
        "contract": "contracts/Strategies/OfferLogics/SingleUser/Deployable/MarketMaking/Mango.sol:Mango",
        "label": "OFR_GASREQ",
        "offset": 0,
        "slot": "1",
        "type": "t_uint256"
      },
      {
        "astId": 16298,
        "contract": "contracts/Strategies/OfferLogics/SingleUser/Deployable/MarketMaking/Mango.sol:Mango",
        "label": "ASKS",
        "offset": 0,
        "slot": "2",
        "type": "t_array(t_uint256)dyn_storage"
      },
      {
        "astId": 16301,
        "contract": "contracts/Strategies/OfferLogics/SingleUser/Deployable/MarketMaking/Mango.sol:Mango",
        "label": "BIDS",
        "offset": 0,
        "slot": "3",
        "type": "t_array(t_uint256)dyn_storage"
      },
      {
        "astId": 16303,
        "contract": "contracts/Strategies/OfferLogics/SingleUser/Deployable/MarketMaking/Mango.sol:Mango",
        "label": "PENDING_BASE",
        "offset": 0,
        "slot": "4",
        "type": "t_uint256"
      },
      {
        "astId": 16305,
        "contract": "contracts/Strategies/OfferLogics/SingleUser/Deployable/MarketMaking/Mango.sol:Mango",
        "label": "PENDING_QUOTE",
        "offset": 0,
        "slot": "5",
        "type": "t_uint256"
      },
      {
        "astId": 16309,
        "contract": "contracts/Strategies/OfferLogics/SingleUser/Deployable/MarketMaking/Mango.sol:Mango",
        "label": "index_of_bid",
        "offset": 0,
        "slot": "6",
        "type": "t_mapping(t_uint256,t_uint256)"
      },
      {
        "astId": 16313,
        "contract": "contracts/Strategies/OfferLogics/SingleUser/Deployable/MarketMaking/Mango.sol:Mango",
        "label": "index_of_ask",
        "offset": 0,
        "slot": "7",
        "type": "t_mapping(t_uint256,t_uint256)"
      },
      {
        "astId": 16315,
        "contract": "contracts/Strategies/OfferLogics/SingleUser/Deployable/MarketMaking/Mango.sol:Mango",
        "label": "current_shift",
        "offset": 0,
        "slot": "8",
        "type": "t_int256"
      },
      {
        "astId": 16317,
        "contract": "contracts/Strategies/OfferLogics/SingleUser/Deployable/MarketMaking/Mango.sol:Mango",
        "label": "current_delta",
        "offset": 0,
        "slot": "9",
        "type": "t_uint256"
      },
      {
        "astId": 16319,
        "contract": "contracts/Strategies/OfferLogics/SingleUser/Deployable/MarketMaking/Mango.sol:Mango",
        "label": "current_min_buffer",
        "offset": 0,
        "slot": "10",
        "type": "t_uint256"
      },
      {
        "astId": 16322,
        "contract": "contracts/Strategies/OfferLogics/SingleUser/Deployable/MarketMaking/Mango.sol:Mango",
        "label": "paused",
        "offset": 0,
        "slot": "11",
        "type": "t_bool"
      },
      {
        "astId": 16324,
        "contract": "contracts/Strategies/OfferLogics/SingleUser/Deployable/MarketMaking/Mango.sol:Mango",
        "label": "current_base_treasury",
        "offset": 1,
        "slot": "11",
        "type": "t_address"
      },
      {
        "astId": 16326,
        "contract": "contracts/Strategies/OfferLogics/SingleUser/Deployable/MarketMaking/Mango.sol:Mango",
        "label": "current_quote_treasury",
        "offset": 0,
        "slot": "12",
        "type": "t_address"
      }
    ],
    "types": {
      "t_address": {
        "encoding": "inplace",
        "label": "address",
        "numberOfBytes": "20"
      },
      "t_array(t_uint256)dyn_storage": {
        "base": "t_uint256",
        "encoding": "dynamic_array",
        "label": "uint256[]",
        "numberOfBytes": "32"
      },
      "t_bool": {
        "encoding": "inplace",
        "label": "bool",
        "numberOfBytes": "1"
      },
      "t_int256": {
        "encoding": "inplace",
        "label": "int256",
        "numberOfBytes": "32"
      },
      "t_mapping(t_uint256,t_uint256)": {
        "encoding": "mapping",
        "key": "t_uint256",
        "label": "mapping(uint256 => uint256)",
        "numberOfBytes": "32",
        "value": "t_uint256"
      },
      "t_uint256": {
        "encoding": "inplace",
        "label": "uint256",
        "numberOfBytes": "32"
      }
    }
  }
}