{
  "address": "0x3DA3Db6a383707A1E66f917Ef4ab37FC682090cc",
  "abi": [
    {
      "inputs": [
        {
          "internalType": "address payable",
          "name": "_MGV",
          "type": "address"
        },
        {
          "internalType": "address",
          "name": "admin",
          "type": "address"
        }
      ],
      "stateMutability": "nonpayable",
      "type": "constructor"
    },
    {
      "anonymous": false,
      "inputs": [
        {
          "indexed": true,
          "internalType": "address",
          "name": "user",
          "type": "address"
        },
        {
          "indexed": false,
          "internalType": "uint256",
          "name": "amount",
          "type": "uint256"
        }
      ],
      "name": "CreditMgvUser",
      "type": "event"
    },
    {
      "anonymous": false,
      "inputs": [
        {
          "indexed": true,
          "internalType": "address",
          "name": "user",
          "type": "address"
        },
        {
          "indexed": true,
          "internalType": "address",
          "name": "token",
          "type": "address"
        },
        {
          "indexed": false,
          "internalType": "uint256",
          "name": "amount",
          "type": "uint256"
        }
      ],
      "name": "CreditUserTokenBalance",
      "type": "event"
    },
    {
      "anonymous": false,
      "inputs": [
        {
          "indexed": true,
          "internalType": "address",
          "name": "user",
          "type": "address"
        },
        {
          "indexed": false,
          "internalType": "uint256",
          "name": "amount",
          "type": "uint256"
        }
      ],
      "name": "DebitMgvUser",
      "type": "event"
    },
    {
      "anonymous": false,
      "inputs": [
        {
          "indexed": true,
          "internalType": "address",
          "name": "user",
          "type": "address"
        },
        {
          "indexed": true,
          "internalType": "address",
          "name": "token",
          "type": "address"
        },
        {
          "indexed": false,
          "internalType": "uint256",
          "name": "amount",
          "type": "uint256"
        }
      ],
      "name": "DebitUserTokenBalance",
      "type": "event"
    },
    {
      "anonymous": false,
      "inputs": [
        {
          "indexed": true,
          "internalType": "address",
          "name": "outbound_tkn",
          "type": "address"
        },
        {
          "indexed": true,
          "internalType": "address",
          "name": "inbound_tkn",
          "type": "address"
        },
        {
          "indexed": true,
          "internalType": "uint256",
          "name": "offerId",
          "type": "uint256"
        },
        {
          "indexed": false,
          "internalType": "bytes32",
          "name": "reason",
          "type": "bytes32"
        }
      ],
      "name": "LogIncident",
      "type": "event"
    },
    {
      "anonymous": false,
      "inputs": [
        {
          "indexed": true,
          "internalType": "address",
          "name": "outbound_tkn",
          "type": "address"
        },
        {
          "indexed": true,
          "internalType": "address",
          "name": "inbound_tkn",
          "type": "address"
        },
        {
          "indexed": true,
          "internalType": "uint256",
          "name": "offerId",
          "type": "uint256"
        },
        {
          "indexed": false,
          "internalType": "address",
          "name": "owner",
          "type": "address"
        }
      ],
      "name": "NewOwnedOffer",
      "type": "event"
    },
    {
      "anonymous": false,
      "inputs": [
        {
          "indexed": true,
          "internalType": "address",
          "name": "base",
          "type": "address"
        },
        {
          "indexed": true,
          "internalType": "address",
          "name": "quote",
          "type": "address"
        },
        {
          "indexed": true,
          "internalType": "address",
          "name": "taker",
          "type": "address"
        },
        {
          "indexed": false,
          "internalType": "bool",
          "name": "selling",
          "type": "bool"
        },
        {
          "indexed": false,
          "internalType": "uint256",
          "name": "takerGot",
          "type": "uint256"
        },
        {
          "indexed": false,
          "internalType": "uint256",
          "name": "takerGave",
          "type": "uint256"
        },
        {
          "indexed": false,
          "internalType": "uint256",
          "name": "penalty",
          "type": "uint256"
        },
        {
          "indexed": false,
          "internalType": "uint256",
          "name": "restingOrderId",
          "type": "uint256"
        }
      ],
      "name": "OrderSummary",
      "type": "event"
    },
    {
      "inputs": [],
      "name": "MGV",
      "outputs": [
        {
          "internalType": "contract IMangrove",
          "name": "",
          "type": "address"
        }
      ],
      "stateMutability": "view",
      "type": "function"
    },
    {
      "inputs": [],
      "name": "OFR_GASREQ",
      "outputs": [
        {
          "internalType": "uint256",
          "name": "",
          "type": "uint256"
        }
      ],
      "stateMutability": "view",
      "type": "function"
    },
    {
      "inputs": [],
      "name": "OUTOFLIQUIDITY",
      "outputs": [
        {
          "internalType": "bytes32",
          "name": "",
          "type": "bytes32"
        }
      ],
      "stateMutability": "view",
      "type": "function"
    },
    {
      "inputs": [],
      "name": "PUTFAILURE",
      "outputs": [
        {
          "internalType": "bytes32",
          "name": "",
          "type": "bytes32"
        }
      ],
      "stateMutability": "view",
      "type": "function"
    },
    {
      "inputs": [],
      "name": "RENEGED",
      "outputs": [
        {
          "internalType": "bytes32",
          "name": "",
          "type": "bytes32"
        }
      ],
      "stateMutability": "view",
      "type": "function"
    },
    {
      "inputs": [],
      "name": "admin",
      "outputs": [
        {
          "internalType": "address",
          "name": "",
          "type": "address"
        }
      ],
      "stateMutability": "view",
      "type": "function"
    },
    {
      "inputs": [
        {
          "internalType": "address",
          "name": "outbound_tkn",
          "type": "address"
        },
        {
          "internalType": "uint256",
          "name": "amount",
          "type": "uint256"
        }
      ],
      "name": "approveMangrove",
      "outputs": [],
      "stateMutability": "nonpayable",
      "type": "function"
    },
    {
      "inputs": [
        {
          "internalType": "address",
          "name": "owner",
          "type": "address"
        }
      ],
      "name": "balanceOnMangrove",
      "outputs": [
        {
          "internalType": "uint256",
          "name": "",
          "type": "uint256"
        }
      ],
      "stateMutability": "view",
      "type": "function"
    },
    {
      "inputs": [
        {
          "internalType": "address",
          "name": "token",
          "type": "address"
        },
        {
          "internalType": "uint256",
          "name": "amount",
          "type": "uint256"
        }
      ],
      "name": "depositToken",
      "outputs": [
        {
          "internalType": "bool",
          "name": "success",
          "type": "bool"
        }
      ],
      "stateMutability": "nonpayable",
      "type": "function"
    },
    {
      "inputs": [
        {
          "internalType": "address",
          "name": "",
          "type": "address"
        },
        {
          "internalType": "address",
          "name": "",
          "type": "address"
        },
        {
          "internalType": "uint256",
          "name": "",
          "type": "uint256"
        }
      ],
      "name": "expiring",
      "outputs": [
        {
          "internalType": "uint256",
          "name": "",
          "type": "uint256"
        }
      ],
      "stateMutability": "view",
      "type": "function"
    },
    {
      "inputs": [],
      "name": "fundMangrove",
      "outputs": [],
      "stateMutability": "payable",
      "type": "function"
    },
    {
      "inputs": [
        {
          "internalType": "address",
          "name": "outbound_tkn",
          "type": "address"
        },
        {
          "internalType": "address",
          "name": "inbound_tkn",
          "type": "address"
        },
        {
          "internalType": "uint256",
          "name": "gasreq",
          "type": "uint256"
        },
        {
          "internalType": "uint256",
          "name": "gasprice",
          "type": "uint256"
        },
        {
          "internalType": "uint256",
          "name": "offerId",
          "type": "uint256"
        }
      ],
      "name": "getMissingProvision",
      "outputs": [
        {
          "internalType": "uint256",
          "name": "",
          "type": "uint256"
        }
      ],
      "stateMutability": "view",
      "type": "function"
    },
    {
      "inputs": [
        {
          "components": [
            {
              "internalType": "address",
              "name": "outbound_tkn",
              "type": "address"
            },
            {
              "internalType": "address",
              "name": "inbound_tkn",
              "type": "address"
            },
            {
              "internalType": "uint256",
              "name": "offerId",
              "type": "uint256"
            },
            {
              "internalType": "Offer.t",
              "name": "offer",
              "type": "uint256"
            },
            {
              "internalType": "uint256",
              "name": "wants",
              "type": "uint256"
            },
            {
              "internalType": "uint256",
              "name": "gives",
              "type": "uint256"
            },
            {
              "internalType": "OfferDetail.t",
              "name": "offerDetail",
              "type": "uint256"
            },
            {
              "internalType": "Global.t",
              "name": "global",
              "type": "uint256"
            },
            {
              "internalType": "Local.t",
              "name": "local",
              "type": "uint256"
            }
          ],
          "internalType": "struct MgvLib.SingleOrder",
          "name": "order",
          "type": "tuple"
        }
      ],
      "name": "makerExecute",
      "outputs": [
        {
          "internalType": "bytes32",
          "name": "ret",
          "type": "bytes32"
        }
      ],
      "stateMutability": "nonpayable",
      "type": "function"
    },
    {
      "inputs": [
        {
          "components": [
            {
              "internalType": "address",
              "name": "outbound_tkn",
              "type": "address"
            },
            {
              "internalType": "address",
              "name": "inbound_tkn",
              "type": "address"
            },
            {
              "internalType": "uint256",
              "name": "offerId",
              "type": "uint256"
            },
            {
              "internalType": "Offer.t",
              "name": "offer",
              "type": "uint256"
            },
            {
              "internalType": "uint256",
              "name": "wants",
              "type": "uint256"
            },
            {
              "internalType": "uint256",
              "name": "gives",
              "type": "uint256"
            },
            {
              "internalType": "OfferDetail.t",
              "name": "offerDetail",
              "type": "uint256"
            },
            {
              "internalType": "Global.t",
              "name": "global",
              "type": "uint256"
            },
            {
              "internalType": "Local.t",
              "name": "local",
              "type": "uint256"
            }
          ],
          "internalType": "struct MgvLib.SingleOrder",
          "name": "order",
          "type": "tuple"
        },
        {
          "components": [
            {
              "internalType": "bytes32",
              "name": "makerData",
              "type": "bytes32"
            },
            {
              "internalType": "bytes32",
              "name": "mgvData",
              "type": "bytes32"
            }
          ],
          "internalType": "struct MgvLib.OrderResult",
          "name": "result",
          "type": "tuple"
        }
      ],
      "name": "makerPosthook",
      "outputs": [],
      "stateMutability": "nonpayable",
      "type": "function"
    },
    {
      "inputs": [
        {
          "internalType": "address",
          "name": "",
          "type": "address"
        }
      ],
      "name": "mgvBalance",
      "outputs": [
        {
          "internalType": "uint256",
          "name": "",
          "type": "uint256"
        }
      ],
      "stateMutability": "view",
      "type": "function"
    },
    {
      "inputs": [
        {
          "internalType": "address",
          "name": "outbound_tkn",
          "type": "address"
        },
        {
          "internalType": "address",
          "name": "inbound_tkn",
          "type": "address"
        },
        {
          "internalType": "uint256",
          "name": "wants",
          "type": "uint256"
        },
        {
          "internalType": "uint256",
          "name": "gives",
          "type": "uint256"
        },
        {
          "internalType": "uint256",
          "name": "gasreq",
          "type": "uint256"
        },
        {
          "internalType": "uint256",
          "name": "gasprice",
          "type": "uint256"
        },
        {
          "internalType": "uint256",
          "name": "pivotId",
          "type": "uint256"
        }
      ],
      "name": "newOffer",
      "outputs": [
        {
          "internalType": "uint256",
          "name": "offerId",
          "type": "uint256"
        }
      ],
      "stateMutability": "payable",
      "type": "function"
    },
    {
      "inputs": [
        {
          "internalType": "address",
          "name": "reader",
          "type": "address"
        },
        {
          "internalType": "address",
          "name": "outbound_tkn",
          "type": "address"
        },
        {
          "internalType": "address",
          "name": "inbound_tkn",
          "type": "address"
        },
        {
          "internalType": "uint256",
          "name": "fromId",
          "type": "uint256"
        },
        {
          "internalType": "uint256",
          "name": "maxOffers",
          "type": "uint256"
        }
      ],
      "name": "offerOwners",
      "outputs": [
        {
          "internalType": "uint256",
          "name": "nextId",
          "type": "uint256"
        },
        {
          "internalType": "uint256[]",
          "name": "offerIds",
          "type": "uint256[]"
        },
        {
          "internalType": "address[]",
          "name": "__offerOwners",
          "type": "address[]"
        }
      ],
      "stateMutability": "view",
      "type": "function"
    },
    {
      "inputs": [
        {
          "internalType": "address",
          "name": "owner",
          "type": "address"
        },
        {
          "internalType": "address",
          "name": "outbound_tkn",
          "type": "address"
        },
        {
          "internalType": "address",
          "name": "inbound_tkn",
          "type": "address"
        }
      ],
      "name": "offersOfOwner",
      "outputs": [
        {
          "internalType": "uint256[]",
          "name": "live",
          "type": "uint256[]"
        },
        {
          "internalType": "uint256[]",
          "name": "dead",
          "type": "uint256[]"
        }
      ],
      "stateMutability": "view",
      "type": "function"
    },
    {
      "inputs": [
        {
          "internalType": "address",
          "name": "outbound_tkn",
          "type": "address"
        },
        {
          "internalType": "address",
          "name": "inbound_tkn",
          "type": "address"
        },
        {
          "internalType": "uint256",
          "name": "offerId",
          "type": "uint256"
        }
      ],
      "name": "ownerOf",
      "outputs": [
        {
          "internalType": "address",
          "name": "owner",
          "type": "address"
        }
      ],
      "stateMutability": "view",
      "type": "function"
    },
    {
      "inputs": [
        {
          "internalType": "address",
          "name": "token",
          "type": "address"
        },
        {
          "internalType": "address",
          "name": "receiver",
          "type": "address"
        },
        {
          "internalType": "uint256",
          "name": "amount",
          "type": "uint256"
        }
      ],
      "name": "redeemToken",
      "outputs": [
        {
          "internalType": "bool",
          "name": "success",
          "type": "bool"
        }
      ],
      "stateMutability": "nonpayable",
      "type": "function"
    },
    {
      "inputs": [
        {
          "internalType": "address",
          "name": "outbound_tkn",
          "type": "address"
        },
        {
          "internalType": "address",
          "name": "inbound_tkn",
          "type": "address"
        },
        {
          "internalType": "uint256",
          "name": "offerId",
          "type": "uint256"
        },
        {
          "internalType": "bool",
          "name": "deprovision",
          "type": "bool"
        }
      ],
      "name": "retractOffer",
      "outputs": [
        {
          "internalType": "uint256",
          "name": "received",
          "type": "uint256"
        }
      ],
      "stateMutability": "nonpayable",
      "type": "function"
    },
    {
      "inputs": [
        {
          "internalType": "address",
          "name": "_admin",
          "type": "address"
        }
      ],
      "name": "setAdmin",
      "outputs": [],
      "stateMutability": "nonpayable",
      "type": "function"
    },
    {
      "inputs": [
        {
          "internalType": "uint256",
          "name": "gasreq",
          "type": "uint256"
        }
      ],
      "name": "setGasreq",
      "outputs": [],
      "stateMutability": "nonpayable",
      "type": "function"
    },
    {
      "inputs": [
        {
          "components": [
            {
              "internalType": "address",
              "name": "base",
              "type": "address"
            },
            {
              "internalType": "address",
              "name": "quote",
              "type": "address"
            },
            {
              "internalType": "bool",
              "name": "partialFillNotAllowed",
              "type": "bool"
            },
            {
              "internalType": "bool",
              "name": "selling",
              "type": "bool"
            },
            {
              "internalType": "uint256",
              "name": "wants",
              "type": "uint256"
            },
            {
              "internalType": "uint256",
              "name": "makerWants",
              "type": "uint256"
            },
            {
              "internalType": "uint256",
              "name": "gives",
              "type": "uint256"
            },
            {
              "internalType": "uint256",
              "name": "makerGives",
              "type": "uint256"
            },
            {
              "internalType": "bool",
              "name": "restingOrder",
              "type": "bool"
            },
            {
              "internalType": "uint256",
              "name": "retryNumber",
              "type": "uint256"
            },
            {
              "internalType": "uint256",
              "name": "gasForMarketOrder",
              "type": "uint256"
            },
            {
              "internalType": "uint256",
              "name": "blocksToLiveForRestingOrder",
              "type": "uint256"
            }
          ],
          "internalType": "struct IOrderLogic.TakerOrder",
          "name": "tko",
          "type": "tuple"
        }
      ],
      "name": "take",
      "outputs": [
        {
          "components": [
            {
              "internalType": "uint256",
              "name": "takerGot",
              "type": "uint256"
            },
            {
              "internalType": "uint256",
              "name": "takerGave",
              "type": "uint256"
            },
            {
              "internalType": "uint256",
              "name": "bounty",
              "type": "uint256"
            },
            {
              "internalType": "uint256",
              "name": "offerId",
              "type": "uint256"
            }
          ],
          "internalType": "struct IOrderLogic.TakerOrderResult",
          "name": "res",
          "type": "tuple"
        }
      ],
      "stateMutability": "payable",
      "type": "function"
    },
    {
      "inputs": [
        {
          "internalType": "address",
          "name": "token",
          "type": "address"
        },
        {
          "internalType": "address",
          "name": "owner",
          "type": "address"
        }
      ],
      "name": "tokenBalance",
      "outputs": [
        {
          "internalType": "uint256",
          "name": "",
          "type": "uint256"
        }
      ],
      "stateMutability": "view",
      "type": "function"
    },
    {
      "inputs": [
        {
          "internalType": "address",
          "name": "",
          "type": "address"
        },
        {
          "internalType": "address",
          "name": "",
          "type": "address"
        }
      ],
      "name": "tokenBalanceOf",
      "outputs": [
        {
          "internalType": "uint256",
          "name": "",
          "type": "uint256"
        }
      ],
      "stateMutability": "view",
      "type": "function"
    },
    {
      "inputs": [
        {
          "internalType": "address",
          "name": "outbound_tkn",
          "type": "address"
        },
        {
          "internalType": "address",
          "name": "inbound_tkn",
          "type": "address"
        },
        {
          "internalType": "uint256",
          "name": "wants",
          "type": "uint256"
        },
        {
          "internalType": "uint256",
          "name": "gives",
          "type": "uint256"
        },
        {
          "internalType": "uint256",
          "name": "gasreq",
          "type": "uint256"
        },
        {
          "internalType": "uint256",
          "name": "gasprice",
          "type": "uint256"
        },
        {
          "internalType": "uint256",
          "name": "pivotId",
          "type": "uint256"
        },
        {
          "internalType": "uint256",
          "name": "offerId",
          "type": "uint256"
        }
      ],
      "name": "updateOffer",
      "outputs": [],
      "stateMutability": "payable",
      "type": "function"
    },
    {
      "inputs": [
        {
          "internalType": "address payable",
          "name": "receiver",
          "type": "address"
        },
        {
          "internalType": "uint256",
          "name": "amount",
          "type": "uint256"
        }
      ],
      "name": "withdrawFromMangrove",
      "outputs": [
        {
          "internalType": "bool",
          "name": "noRevert",
          "type": "bool"
        }
      ],
      "stateMutability": "nonpayable",
      "type": "function"
    },
    {
      "stateMutability": "payable",
      "type": "receive"
    }
  ],
  "transactionHash": "0x12d03b48d568fcc4da54d6a25ef900295aa75a8bfc36e28622b30ead6f67791e",
  "args": [
    "0xF3e339d8a0B989114412fa157Cc846ebaf4BCbd8",
    "0x47897EE61498D02B18794601Ed3A71896A1Ff894"
  ],
  "solcInputHash": "0551d6849ba43228d9d28c0834ad69e0",
  "bytecode": "0x6101006040527f6d67764f666665722f61626f72742f72656e65676564000000000000000000006080527f6d67764f666665722f61626f72742f7075744661696c6564000000000000000060a0527f6d67764f666665722f61626f72742f6765744661696c6564000000000000000060c052620186a06001553480156200008557600080fd5b50604051620046d4380380620046d4833981016040819052620000a89162000150565b81818181806001600160a01b038116620001085760405162461bcd60e51b815260206004820152601860248201527f616363657373436f6e74726f6c6c65642f307841646d696e0000000000000000604482015260640160405180910390fd5b600080546001600160a01b0319166001600160a01b039283161790559190911660e052506200018f9350505050565b6001600160a01b03811681146200014d57600080fd5b50565b600080604083850312156200016457600080fd5b8251620001718162000137565b6020840151909250620001848162000137565b809150509250929050565b60805160a05160c05160e05161447f6200025560003960008181610506015281816109e801528181610b4001528181610d5c01528181610edd0152818161123701528181611b5d01528181611dc801528181611e66015281816122f001528181612767015281816128480152818161295e01528181612b3101528181612c2101528181612f2d01528181612ff3015281816130af015281816131fc015281816132ac015261370d0152600061049e015260006103d1015260006104d2015261447f6000f3fe6080604052600436106101bb5760003560e01c80636c49c32c116100ec578063d19711591161008a578063e4c34f8411610064578063e4c34f84146105f2578063f851a44014610612578063f92495e514610632578063faa030ec1461065257600080fd5b8063d197115914610580578063df242667146105af578063e428204d146105dc57600080fd5b806389dbacfe116100c657806389dbacfe146104c057806399fa5e2d146104f4578063ad97db1b14610540578063aefe84031461056057600080fd5b80636c49c32c1461044c578063704b6c021461046c5780637f7a1b991461048c57600080fd5b806337b966bf116101595780634e7effa8116101335780634e7effa814610381578063572e59e3146103bf5780636a1c7d05146103f35780636a4f76911461043957600080fd5b806337b966bf146103205780633d3d130d1461034e57806349f6d2dc1461036e57600080fd5b80631bea8006116101955780631bea800614610270578063338b5dea146102a857806334bd8931146102c857806335d61cb2146102ea57600080fd5b8063063df2d2146101c75780630d71bdc3146101fc5780631049334f1461021c57600080fd5b366101c257005b600080fd5b3480156101d357600080fd5b506101e76101e2366004613993565b61065a565b60405190151581526020015b60405180910390f35b34801561020857600080fd5b506101e76102173660046139bf565b6106ce565b34801561022857600080fd5b50610262610237366004613a00565b6001600160a01b03918216600090815260046020908152604080832093909416825291909152205490565b6040519081526020016101f3565b34801561027c57600080fd5b5061026261028b366004613a00565b600460209081526000928352604080842090915290825290205481565b3480156102b457600080fd5b506101e76102c3366004613993565b6107bf565b3480156102d457600080fd5b506102e86102e3366004613a39565b6109c9565b005b3480156102f657600080fd5b50610262610305366004613a52565b6001600160a01b031660009081526003602052604090205490565b34801561032c57600080fd5b5061034061033b366004613a6f565b610aaf565b6040516101f3929190613af5565b34801561035a57600080fd5b506102e8610369366004613b2d565b610edb565b61026261037c366004613b8d565b611020565b34801561038d57600080fd5b5061026261039c3660046139bf565b600560209081526000938452604080852082529284528284209052825290205481565b3480156103cb57600080fd5b506102627f000000000000000000000000000000000000000000000000000000000000000081565b610406610401366004613bef565b61108f565b6040516101f391908151815260208083015190820152604080830151908201526060918201519181019190915260800190565b6102e8610447366004613c02565b611b10565b34801561045857600080fd5b50610262610467366004613c6d565b611b59565b34801561047857600080fd5b506102e8610487366004613a52565b611cfd565b34801561049857600080fd5b506102627f000000000000000000000000000000000000000000000000000000000000000081565b3480156104cc57600080fd5b506102627f000000000000000000000000000000000000000000000000000000000000000081565b34801561050057600080fd5b506105287f000000000000000000000000000000000000000000000000000000000000000081565b6040516001600160a01b0390911681526020016101f3565b34801561054c57600080fd5b5061026261055b366004613c98565b611d91565b34801561056c57600080fd5b506102e861057b366004613993565b611da9565b34801561058c57600080fd5b506105a061059b366004613ceb565b611f32565b6040516101f393929190613d46565b3480156105bb57600080fd5b506102626105ca366004613a52565b60036020526000908152604090205481565b3480156105e857600080fd5b5061026260015481565b3480156105fe57600080fd5b5061026261060d366004613daa565b6120bb565b34801561061e57600080fd5b50600054610528906001600160a01b031681565b34801561063e57600080fd5b5061052861064d3660046139bf565b612106565b6102e861218a565b6000333014156106b15760405162461bcd60e51b815260206004820152601260248201527f4d75746c692f6e6f5265656e7472616e6379000000000000000000000000000060448201526064015b60405180910390fd5b6106bb33836121e6565b6106c583836122be565b90505b92915050565b6000333014156107205760405162461bcd60e51b815260206004820152601260248201527f4d75746c692f6e6f5265656e7472616e6379000000000000000000000000000060448201526064016106a8565b61072b843384612423565b6040517fa9059cbb0000000000000000000000000000000000000000000000000000000081526001600160a01b0384811660048301526024820184905285169063a9059cbb906044016020604051808303816000875af1158015610793573d6000803e3d6000fd5b505050506040513d601f19601f820116820180604052508101906107b79190613dfb565b949350505050565b6040517f70a0823100000000000000000000000000000000000000000000000000000000815230600482015260009081906001600160a01b038516906370a0823190602401602060405180830381865afa158015610821573d6000803e3d6000fd5b505050506040513d601f19601f820116820180604052508101906108459190613e18565b6040517f23b872dd000000000000000000000000000000000000000000000000000000008152336004820152306024820152604481018590529091506001600160a01b038516906323b872dd906064016020604051808303816000875af11580156108b4573d6000803e3d6000fd5b505050506040513d601f19601f820116820180604052508101906108d89190613dfb565b6040517f70a08231000000000000000000000000000000000000000000000000000000008152306004820152909250839082906001600160a01b038716906370a0823190602401602060405180830381865afa15801561093c573d6000803e3d6000fd5b505050506040513d601f19601f820116820180604052508101906109609190613e18565b61096a9190613e60565b146109b75760405162461bcd60e51b815260206004820152601260248201527f4d756c74692f7472616e736665724661696c000000000000000000000000000060448201526064016106a8565b6109c2843385612532565b5092915050565b6000546001600160a01b0316331480610a0a5750336001600160a01b037f000000000000000000000000000000000000000000000000000000000000000016145b610a565760405162461bcd60e51b815260206004820152601860248201527f416363657373436f6e74726f6c6c65642f496e76616c6964000000000000000060448201526064016106a8565b808162ffffff1614610aaa5760405162461bcd60e51b815260206004820152601860248201527f6d67764f666665722f6761737265712f6f766572666c6f77000000000000000060448201526064016106a8565b600155565b6001600160a01b0380831660009081526006602090815260408083208585168452825280832093871683529281528282208280529052908120546060918291908190805b8215610c79576040517f68c13d6b0000000000000000000000000000000000000000000000000000000081526001600160a01b0389811660048301528881166024830152604482018590527f0000000000000000000000000000000000000000000000000000000000000000169063275074589082906368c13d6b90606401602060405180830381865afa158015610b8f573d6000803e3d6000fd5b505050506040513d601f19601f82011682018060405250810190610bb39190613e18565b6040518263ffffffff1660e01b8152600401610bd191815260200190565b602060405180830381865afa158015610bee573d6000803e3d6000fd5b505050506040513d601f19601f82011682018060405250810190610c129190613dfb565b15610c295781610c2181613e77565b925050610c37565b80610c3381613e77565b9150505b6001600160a01b0380891660009081526006602090815260408083208b851684528252808320938d168352928152828220958252949094529092205491610af3565b8167ffffffffffffffff811115610c9257610c92613eb0565b604051908082528060200260200182016040528015610cbb578160200160208202803683370190505b5095508067ffffffffffffffff811115610cd757610cd7613eb0565b604051908082528060200260200182016040528015610d00578160200160208202803683370190505b50945083925060009150600090505b8215610ecf576040517f68c13d6b0000000000000000000000000000000000000000000000000000000081526001600160a01b0389811660048301528881166024830152604482018590527f0000000000000000000000000000000000000000000000000000000000000000169063275074589082906368c13d6b90606401602060405180830381865afa158015610dab573d6000803e3d6000fd5b505050506040513d601f19601f82011682018060405250810190610dcf9190613e18565b6040518263ffffffff1660e01b8152600401610ded91815260200190565b602060405180830381865afa158015610e0a573d6000803e3d6000fd5b505050506040513d601f19601f82011682018060405250810190610e2e9190613dfb565b15610e6257828683610e3f81613e77565b945081518110610e5157610e51613edf565b602002602001018181525050610e8d565b828582610e6e81613e77565b935081518110610e8057610e80613edf565b6020026020010181815250505b6001600160a01b0380891660009081526006602090815260408083208b851684528252808320938d168352928152828220958252949094529092205491610d0f565b50505050935093915050565b7f00000000000000000000000000000000000000000000000000000000000000006001600160a01b0381161580610f1a5750336001600160a01b038216145b610f665760405162461bcd60e51b815260206004820152601860248201527f416363657373436f6e74726f6c6c65642f496e76616c6964000000000000000060448201526064016106a8565b81602001357f6d67762f747261646553756363657373000000000000000000000000000000001415610fa157610f9b836125b5565b50505050565b60408301803590610fb59060208601613a52565b6001600160a01b0316610fcb6020860186613a52565b6001600160a01b03167fd2c3f090769d843e1fc2e6ce65d60572e28f9163a5cfccbd6c1725c6a9263f2f856000013560405161100991815260200190565b60405180910390a4610f9b83836126f3565b505050565b6000333014156110725760405162461bcd60e51b815260206004820152601260248201527f4d75746c692f6e6f5265656e7472616e6379000000000000000000000000000060448201526064016106a8565b61108388888888888888333461272c565b98975050505050505050565b6110ba6040518060800160405280600081526020016000815260200160008152602001600081525090565b6000806110cd6080850160608601613f0e565b6110f3576110de6020850185613a52565b6110ee6040860160208701613a52565b611110565b6111036040850160208601613a52565b6111106020860186613a52565b6040517f23b872dd00000000000000000000000000000000000000000000000000000000815233600482015230602482015260c0870135604482015291935091506001600160a01b038216906323b872dd906064016020604051808303816000875af1158015611184573d6000803e3d6000fd5b505050506040513d601f19601f820116820180604052508101906111a89190613dfb565b6111f45760405162461bcd60e51b815260206004820152601a60248201527f6d67764f726465722f6d6f2f7472616e73666572496e4661696c00000000000060448201526064016106a8565b60005b6112076101208601356001613f2b565b8110156113a8576101408501351580159061122657508461014001355a105b15611230576113a8565b60008060007f00000000000000000000000000000000000000000000000000000000000000006001600160a01b031663fbffe5fd87878b608001358c60c001358d60600160208101906112839190613f0e565b61128e576001611291565b60005b6040517fffffffff0000000000000000000000000000000000000000000000000000000060e088901b1681526001600160a01b039586166004820152949093166024850152604484019190915260648301521515608482015260a4016060604051808303816000875af115801561130c573d6000803e3d6000fd5b505050506040513d601f19601f820116820180604052508101906113309190613f43565b92509250925082876000018181516113489190613f2b565b90525060208701805183919061135f908390613f2b565b905250604087018051829190611376908390613f2b565b90525082158015611385575080155b15611392575050506113a8565b50505080806113a090613e77565b9150506111f7565b5060006113b7838387876128dd565b90506113c96060860160408701613f0e565b15806113d25750805b806113ea57506113ea61012086016101008701613f0e565b6114365760405162461bcd60e51b815260206004820152601960248201527f6d67764f726465722f6d6f2f6e6f5061727469616c46696c6c0000000000000060448201526064016106a8565b8351156115165783516040517fa9059cbb00000000000000000000000000000000000000000000000000000000815233600482015260248101919091526001600160a01b0384169063a9059cbb906044016020604051808303816000875af11580156114a6573d6000803e3d6000fd5b505050506040513d601f19601f820116820180604052508101906114ca9190613dfb565b6115165760405162461bcd60e51b815260206004820152601b60248201527f6d67764f726465722f6d6f2f7472616e736665724f75744661696c000000000060448201526064016106a8565b61152861012086016101008701613f0e565b8015611532575080155b156118ba57611570828486600001518860a001356115509190613e60565b60208801516115639060e08b0135613e60565b600154600080333461272c565b6060850181905261158690339084908690612a0c565b336115976040870160208801613a52565b6001600160a01b03166115ad6020880188613a52565b6001600160a01b03167fab3ed3392e9579b676d21e1dda5b7d68388430686d83b9fe1bd66032e1e030ad6115e760808a0160608b01613f0e565b88516020808b01516040808d01516060808f0151835197151588529487019590955285820192909252928401526080830152519081900360a00190a460608401516118485761163c6060860160408701613f0e565b156116895760405162461bcd60e51b815260206004820152601960248201527f6d67764f726465722f6d6f2f6e6f5061727469616c46696c6c0000000000000060448201526064016106a8565b816001600160a01b031663a9059cbb3386602001518860c001356116ad9190613e60565b6040517fffffffff0000000000000000000000000000000000000000000000000000000060e085901b1681526001600160a01b03909216600483015260248201526044016020604051808303816000875af1158015611710573d6000803e3d6000fd5b505050506040513d601f19601f820116820180604052508101906117349190613dfb565b6117805760405162461bcd60e51b815260206004820152601a60248201527f6d67764f726465722f6d6f2f7472616e73666572496e4661696c00000000000060448201526064016106a8565b60008460400151346117929190613f2b565b111561184057604084015160009033906117ac9034613f2b565b604051600081818185875af1925050503d80600081146117e8576040519150601f19603f3d011682016040523d82523d6000602084013e6117ed565b606091505b505090508061183e5760405162461bcd60e51b815260206004820152601f60248201527f6d67764f726465722f6d6f2f726566756e6450726f766973696f6e4661696c0060448201526064016106a8565b505b505050919050565b611866823386602001518860c001356118619190613e60565b612532565b610160850135156118405761188061016086013543613f2b565b6001600160a01b03808416600090815260056020908152604080832093881683529281528282206060890151835290522055505050919050565b816001600160a01b031663a9059cbb3386602001518860c001356118de9190613e60565b6040517fffffffff0000000000000000000000000000000000000000000000000000000060e085901b1681526001600160a01b03909216600483015260248201526044016020604051808303816000875af1158015611941573d6000803e3d6000fd5b505050506040513d601f19601f820116820180604052508101906119659190613dfb565b6119b15760405162461bcd60e51b815260206004820152601a60248201527f6d67764f726465722f6d6f2f7472616e73666572496e4661696c00000000000060448201526064016106a8565b60008460400151346119c39190613f2b565b1115611a7157604084015160009033906119dd9034613f2b565b604051600081818185875af1925050503d8060008114611a19576040519150601f19603f3d011682016040523d82523d6000602084013e611a1e565b606091505b5050905080611a6f5760405162461bcd60e51b815260206004820152601660248201527f6d67764f726465722f6d6f2f726566756e644661696c0000000000000000000060448201526064016106a8565b505b33611a826040870160208801613a52565b6001600160a01b0316611a986020880188613a52565b6001600160a01b03167fab3ed3392e9579b676d21e1dda5b7d68388430686d83b9fe1bd66032e1e030ad611ad260808a0160608b01613f0e565b88516020808b01516040808d0151815195151586529285019390935283830152606083015260006080830152519081900360a00190a4505050919050565b600080611b258a8a8a8a8a8a8a8a3334612a91565b91509150600082118190611b4c5760405162461bcd60e51b81526004016106a89190613f9d565b5050505050505050505050565b60007f00000000000000000000000000000000000000000000000000000000000000006001600160a01b0381161580611b9a5750336001600160a01b038216145b611be65760405162461bcd60e51b815260206004820152601860248201527f416363657373436f6e74726f6c6c65642f496e76616c6964000000000000000060448201526064016106a8565b611bef83612cec565b611c3b5760405162461bcd60e51b815260206004820152601660248201527f6d67764f666665722f61626f72742f72656e656765640000000000000000000060448201526064016106a8565b6000611c4b8460a0013585612d71565b1115611c995760405162461bcd60e51b815260206004820152601860248201527f6d67764f666665722f61626f72742f7075744661696c6564000000000000000060448201526064016106a8565b6000611ca9846080013585612db4565b1115611cf75760405162461bcd60e51b815260206004820152601860248201527f6d67764f666665722f61626f72742f6765744661696c6564000000000000000060448201526064016106a8565b50919050565b6000546001600160a01b03163314611d575760405162461bcd60e51b815260206004820152601860248201527f416363657373436f6e74726f6c6c65642f496e76616c6964000000000000000060448201526064016106a8565b600080547fffffffffffffffffffffffff0000000000000000000000000000000000000000166001600160a01b0392909216919091179055565b6000611da08585858533612e5b565b95945050505050565b6000546001600160a01b0316331480611dea5750336001600160a01b037f000000000000000000000000000000000000000000000000000000000000000016145b611e365760405162461bcd60e51b815260206004820152601860248201527f416363657373436f6e74726f6c6c65642f496e76616c6964000000000000000060448201526064016106a8565b6040517f095ea7b30000000000000000000000000000000000000000000000000000000081526001600160a01b037f0000000000000000000000000000000000000000000000000000000000000000811660048301526024820183905283169063095ea7b3906044016020604051808303816000875af1158015611ebe573d6000803e3d6000fd5b505050506040513d601f19601f82011682018060405250810190611ee29190613dfb565b611f2e5760405162461bcd60e51b815260206004820152601560248201527f6d67764f666665722f617070726f76652f4661696c000000000000000000000060448201526064016106a8565b5050565b6040517f2c7e545f0000000000000000000000000000000000000000000000000000000081526001600160a01b03858116600483015284811660248301526044820184905260648201839052600091606091829190891690632c7e545f90608401600060405180830381865afa158015611fb0573d6000803e3d6000fd5b505050506040513d6000823e601f3d9081017fffffffffffffffffffffffffffffffffffffffffffffffffffffffffffffffe0168201604052611ff691908101906141d8565b50508051919450925067ffffffffffffffff81111561201757612017613eb0565b604051908082528060200260200182016040528015612040578160200160208202803683370190505b50905060005b82518110156120af57612073888885848151811061206657612066613edf565b6020026020010151612106565b82828151811061208557612085613edf565b6001600160a01b0390921660209283029190910190910152806120a781613e77565b915050612046565b50955095509592505050565b60008082156120ed5760006120d1888886612106565b6001600160a01b03166000908152600360205260409020549150505b6120fb818888888888612fac565b979650505050505050565b6001600160a01b0380841660009081526002602090815260408083208685168452825280832085845290915290205416806121835760405162461bcd60e51b815260206004820152601560248201527f6d756c7469557365722f756e6b6f776e4f66666572000000000000000000000060448201526064016106a8565b9392505050565b333014156121da5760405162461bcd60e51b815260206004820152601260248201527f4d75746c692f6e6f5265656e7472616e6379000000000000000000000000000060448201526064016106a8565b6121e433346131fa565b565b6001600160a01b03821660009081526003602052604090205481111561224e5760405162461bcd60e51b815260206004820152601d60248201527f4d756c74692f64656269744f6e4d67762f696e73756666696369656e7400000060448201526064016106a8565b6001600160a01b03821660009081526003602052604081208054839290612276908490613e60565b90915550506040518181526001600160a01b038316907fd50b865b3d9d927f026d3b8404e07f25d6beb1d111deab51bdc846bf8d0a860b906020015b60405180910390a25050565b6040517f2e1a7d4d000000000000000000000000000000000000000000000000000000008152600481018290526000907f00000000000000000000000000000000000000000000000000000000000000006001600160a01b031690632e1a7d4d906024016020604051808303816000875af1158015612341573d6000803e3d6000fd5b505050506040513d601f19601f820116820180604052508101906123659190613dfb565b6123b15760405162461bcd60e51b815260206004820152601e60248201527f6d67764f666665722f77697468647261772f7472616e736665724661696c000060448201526064016106a8565b6001600160a01b038316301461241a576040516001600160a01b038416908390600081818185875af1925050503d806000811461240a576040519150601f19603f3d011682016040523d82523d6000602084013e61240f565b606091505b5050809150506106c8565b50600192915050565b8061242d57505050565b6001600160a01b038084166000908152600460209081526040808320938616835292905220548111156124a25760405162461bcd60e51b815260206004820152601d60248201527f4d756c74692f6465626974546f6b656e2f696e73756666696369656e7400000060448201526064016106a8565b6001600160a01b038084166000908152600460209081526040808320938616835292905290812080548392906124d9908490613e60565b92505081905550826001600160a01b0316826001600160a01b03167f7a97b405ee1bd89550b225932dbdd0431e30426b7c8f02f05b3cb0e1bdfb84768360405161252591815260200190565b60405180910390a3505050565b6001600160a01b03808416600090815260046020908152604080832093861683529290529081208054839290612569908490613f2b565b92505081905550826001600160a01b0316826001600160a01b03167fb2b1ec266d1bab793ae1d020eedf03e575cc390e5fb9e370cb099fdf2f61534d8360405161252591815260200190565b60006125c082613278565b156125cd57506001919050565b60006125f96125df6020850185613a52565b6125ef6040860160208701613a52565b8560400135612106565b90506126058382613422565b6126125750600092915050565b6001600160a01b0381166000908152600360205260409020546126369082906121e6565b6001600160a01b03811660009081526003602052604090205461265a9082906122be565b61241a57604083018035906126729060208601613a52565b6001600160a01b03166126886020860186613a52565b6001600160a01b03167fd2c3f090769d843e1fc2e6ce65d60572e28f9163a5cfccbd6c1725c6a9263f2f6040516126e2907f6d67764f726465722f706f7374686f6f6b2f7472616e73666572576569000000815260200190565b60405180910390a450600092915050565b6000806127206127066020860186613a52565b6127166040870160208801613a52565b8660400135612106565b90506107b78482613422565b6040517f70a0823100000000000000000000000000000000000000000000000000000000815230600482015260009081906001600160a01b037f000000000000000000000000000000000000000000000000000000000000000016906370a0823190602401602060405180830381865afa1580156127ae573d6000803e3d6000fd5b505050506040513d601f19601f820116820180604052508101906127d29190613e18565b905062ffffff8711156127e55760015496505b6040517f49f6d2dc0000000000000000000000000000000000000000000000000000000081526001600160a01b038c811660048301528b81166024830152604482018b9052606482018a90526084820189905260a4820188905260c482018790527f000000000000000000000000000000000000000000000000000000000000000016906349f6d2dc90859060e40160206040518083038185885af1158015612892573d6000803e3d6000fd5b50505050506040513d601f19601f820116820180604052508101906128b79190613e18565b91506128c58b8b8487613645565b6128cf84826136dc565b509998505050505050505050565b60006128ef6080840160608501613f0e565b15612907578260c001358260200151101590506107b7565b6129176080840160608501613f0e565b6107b7576040517fcbf75c9a0000000000000000000000000000000000000000000000000000000081526001600160a01b03868116600483015285811660248301526000917f00000000000000000000000000000000000000000000000000000000000000009091169063cbf75c9a906044016040805180830381865afa1580156129a6573d6000803e3d6000fd5b505050506040513d601f19601f820116820180604052508101906129ca91906142cd565b915061271090506129e761ffff60e884901c1660808701356142f1565b6129f1919061432e565b6129ff906080860135613e60565b8351101591506107b79050565b6001600160a01b0383811660009081526006602090815260408083208685168452825280832093881683529281528282208280529052208054908290558015612a8a576001600160a01b0380851660009081526006602090815260408083208785168452825280832093891683529281528282208583529052208190555b5050505050565b60006060612aa08c8c87612106565b6001600160a01b0316846001600160a01b031614612b005760405162461bcd60e51b815260206004820152601e60248201527f4d756c74692f7570646174654f666665722f756e617574686f72697a6564000060448201526064016106a8565b6040517f70a082310000000000000000000000000000000000000000000000000000000081523060048201526000907f00000000000000000000000000000000000000000000000000000000000000006001600160a01b0316906370a0823190602401602060405180830381865afa158015612b80573d6000803e3d6000fd5b505050506040513d601f19601f82011682018060405250810190612ba49190613e18565b905062ffffff891115612bb75760015498505b6040517f6a4f76910000000000000000000000000000000000000000000000000000000081526001600160a01b038e811660048301528d81166024830152604482018d9052606482018c9052608482018b905260a482018a905260c4820189905260e482018890527f00000000000000000000000000000000000000000000000000000000000000001690636a4f7691908690610104016000604051808303818588803b158015612c6757600080fd5b505af193505050508015612c79575060015b612cbe57612c85614369565b806308c379a01415612cb25750612c9a614385565b80612ca55750612cb4565b600093509150612cdd9050565b505b3d6000803e3d6000fd5b612cc885826136dc565b50506040805160208101909152600081528491505b9a509a98505050505050505050565b600080600581612cff6020860186613a52565b6001600160a01b03166001600160a01b031681526020019081526020016000206000846020016020810190612d349190613a52565b6001600160a01b03168152602080820192909252604090810160009081208683013582529092529020549050801580612183575043111592915050565b600080612d846125df6020850185613a52565b9050612da0612d996040850160208601613a52565b82866137bd565b612daa57836107b7565b5060009392505050565b600080612dc76125df6020850185613a52565b90506000600481612ddb6020870187613a52565b6001600160a01b0390811682526020808301939093526040918201600090812091861681529252902054905084811015612e3957612e26612e1f6020860186613a52565b8383612423565b612e308186613e60565b925050506106c8565b612e50612e496020860186613a52565b8387612423565b6000925050506106c8565b6001600160a01b038581166000908152600260209081526040808320888516845282528083208784529091528120549091838116911614612ede5760405162461bcd60e51b815260206004820152601f60248201527f4d756c74692f726574726163744f666665722f756e617574686f72697a65640060448201526064016106a8565b6040517fad97db1b0000000000000000000000000000000000000000000000000000000081526001600160a01b03878116600483015286811660248301526044820186905284151560648301527f0000000000000000000000000000000000000000000000000000000000000000169063ad97db1b906084016020604051808303816000875af1158015612f76573d6000803e3d6000fd5b505050506040513d601f19601f82011682018060405250810190612f9a9190613e18565b90508015611da057611da082826138cc565b6040517fcbf75c9a0000000000000000000000000000000000000000000000000000000081526001600160a01b0386811660048301528581166024830152600091829182917f00000000000000000000000000000000000000000000000000000000000000009091169063cbf75c9a906044016040805180830381865afa15801561303b573d6000803e3d6000fd5b505050506040513d601f19601f8201168201806040525081019061305f91906142cd565b6040517f5722647b0000000000000000000000000000000000000000000000000000000081526001600160a01b038b811660048301528a81166024830152604482018890529294509092506000917f00000000000000000000000000000000000000000000000000000000000000001690635722647b90606401602060405180830381865afa1580156130f6573d6000803e3d6000fd5b505050506040513d601f19601f8201168201806040525081019061311a9190613e18565b9050600086604085901c61ffff16111561313d575061ffff604084901c16613140565b50855b62ffffff8811156131515760015497505b60008161316762ffffff606087901c168b613f2b565b61317191906142f1565b61317f90633b9aca006142f1565b9050600061ffff602085901c166131a662ffffff603087901c811690604888901c16613f2b565b6131b091906142f1565b6131be90633b9aca006142f1565b905060006131cc8e83613f2b565b9050828110156131e5576131e08184613e60565b6131e8565b60005b9e9d5050505050505050505050505050565b7f00000000000000000000000000000000000000000000000000000000000000006001600160a01b031663b60d4288826040518263ffffffff1660e01b81526004016000604051808303818588803b15801561325557600080fd5b505af1158015613269573d6000803e3d6000fd5b5050505050611f2e82826138cc565b60008061328483613934565b9050600061329184613959565b9050816132a2575060019392505050565b6001600160a01b037f000000000000000000000000000000000000000000000000000000000000000016636a4f76916132de6020870187613a52565b6132ee6040880160208901613a52565b848660c08a013560481c62ffffff1660c08b013560201c61ffff1660608c013560c01c63ffffffff16604080517fffffffff0000000000000000000000000000000000000000000000000000000060e08b901b1681526001600160a01b03988916600482015297909616602488015260448701949094526064860192909252608485015260a484015260c483015287013560e482015261010401600060405180830381600087803b1580156133a257600080fd5b505af19250505080156133b3575060015b6134185761340d6133c76020860186613a52565b6133d76040870160208801613a52565b604087013560016134086133ee60208b018b613a52565b6133fe60408c0160208d01613a52565b8b60400135612106565b612e5b565b506000949350505050565b5060019392505050565b6000806004816134356020870187613a52565b6001600160a01b039081168252602080830193909352604091820160009081209187168152908352205491506134789061347190860186613a52565b84836137bd565b61351257604084018035906134909060208701613a52565b6001600160a01b03166134a66020870187613a52565b6001600160a01b03167fd2c3f090769d843e1fc2e6ce65d60572e28f9163a5cfccbd6c1725c6a9263f2f604051613500907f6d67764f726465722f72656465656d416c6c2f7472616e736665724f75740000815260200190565b60405180910390a460009150506106c8565b6135296135226020860186613a52565b8483612423565b600060048161353e6040880160208901613a52565b6001600160a01b0390811682526020808301939093526040918201600090812091881681529083528190205492506135859161357e918801908801613a52565b85836137bd565b613620576040850180359061359d9060208801613a52565b6001600160a01b03166135b36020880188613a52565b6001600160a01b03167fd2c3f090769d843e1fc2e6ce65d60572e28f9163a5cfccbd6c1725c6a9263f2f60405161360d907f6d67764f726465722f72656465656d416c6c2f7472616e73666572496e000000815260200190565b60405180910390a46000925050506106c8565b61363a6136336040870160208801613a52565b8583612423565b506001949350505050565b6001600160a01b03848116600081815260026020908152604080832088861680855290835281842088855283529281902080547fffffffffffffffffffffffff00000000000000000000000000000000000000001695871695861790555193845285939192917fabf04a4ce23225c02bd147297da7ffc10e7d29102d8678f1a63fdd2cfd71ff07910160405180910390a450505050565b6040517f70a082310000000000000000000000000000000000000000000000000000000081523060048201526000907f00000000000000000000000000000000000000000000000000000000000000006001600160a01b0316906370a0823190602401602060405180830381865afa15801561375c573d6000803e3d6000fd5b505050506040513d601f19601f820116820180604052508101906137809190613e18565b90508181141561378f57505050565b818111156137aa5761101b836137a58484613e60565b6138cc565b61101b836137b88385613e60565b6121e6565b6000816137cc57506001612183565b604080516001600160a01b038581166024830152604480830186905283518084039091018152606490920183526020820180517bffffffffffffffffffffffffffffffffffffffffffffffffffffffff167fa9059cbb000000000000000000000000000000000000000000000000000000001790529151600092839290881691613856919061442d565b6000604051808303816000865af19150503d8060008114613893576040519150601f19603f3d011682016040523d82523d6000602084013e613898565b606091505b50915091508180156138c25750805115806138c25750808060200190518101906138c29190613dfb565b9695505050505050565b6001600160a01b038216600090815260036020526040812080548392906138f4908490613f2b565b90915550506040518181526001600160a01b038316907f2022607feefe24f258126b277628af517f5512dd9499fb3520eeff54cad13703906020016122b2565b600060808201356bffffffffffffffffffffffff6060840135165b6106c89190613e60565b600060a0820135606080840135901c6bffffffffffffffffffffffff1661394f565b6001600160a01b038116811461399057600080fd5b50565b600080604083850312156139a657600080fd5b82356139b18161397b565b946020939093013593505050565b6000806000606084860312156139d457600080fd5b83356139df8161397b565b925060208401356139ef8161397b565b929592945050506040919091013590565b60008060408385031215613a1357600080fd5b8235613a1e8161397b565b91506020830135613a2e8161397b565b809150509250929050565b600060208284031215613a4b57600080fd5b5035919050565b600060208284031215613a6457600080fd5b81356121838161397b565b600080600060608486031215613a8457600080fd5b8335613a8f8161397b565b92506020840135613a9f8161397b565b91506040840135613aaf8161397b565b809150509250925092565b600081518084526020808501945080840160005b83811015613aea57815187529582019590820190600101613ace565b509495945050505050565b604081526000613b086040830185613aba565b8281036020840152611da08185613aba565b60006101208284031215611cf757600080fd5b600080828403610160811215613b4257600080fd5b613b4c8585613b1a565b925060407ffffffffffffffffffffffffffffffffffffffffffffffffffffffffffffffee082011215613b7e57600080fd5b50610120830190509250929050565b600080600080600080600060e0888a031215613ba857600080fd5b8735613bb38161397b565b96506020880135613bc38161397b565b96999698505050506040850135946060810135946080820135945060a0820135935060c0909101359150565b60006101808284031215611cf757600080fd5b600080600080600080600080610100898b031215613c1f57600080fd5b8835613c2a8161397b565b97506020890135613c3a8161397b565b979a9799505050506040860135956060810135956080820135955060a0820135945060c0820135935060e0909101359150565b60006101208284031215613c8057600080fd5b6106c58383613b1a565b801515811461399057600080fd5b60008060008060808587031215613cae57600080fd5b8435613cb98161397b565b93506020850135613cc98161397b565b9250604085013591506060850135613ce081613c8a565b939692955090935050565b600080600080600060a08688031215613d0357600080fd5b8535613d0e8161397b565b94506020860135613d1e8161397b565b93506040860135613d2e8161397b565b94979396509394606081013594506080013592915050565b83815260006020606081840152613d606060840186613aba565b838103604085015284518082528286019183019060005b81811015613d9c5783516001600160a01b031683529284019291840191600101613d77565b509098975050505050505050565b600080600080600060a08688031215613dc257600080fd5b8535613dcd8161397b565b94506020860135613ddd8161397b565b94979496505050506040830135926060810135926080909101359150565b600060208284031215613e0d57600080fd5b815161218381613c8a565b600060208284031215613e2a57600080fd5b5051919050565b7f4e487b7100000000000000000000000000000000000000000000000000000000600052601160045260246000fd5b600082821015613e7257613e72613e31565b500390565b60007fffffffffffffffffffffffffffffffffffffffffffffffffffffffffffffffff821415613ea957613ea9613e31565b5060010190565b7f4e487b7100000000000000000000000000000000000000000000000000000000600052604160045260246000fd5b7f4e487b7100000000000000000000000000000000000000000000000000000000600052603260045260246000fd5b600060208284031215613f2057600080fd5b813561218381613c8a565b60008219821115613f3e57613f3e613e31565b500190565b600080600060608486031215613f5857600080fd5b8351925060208401519150604084015190509250925092565b60005b83811015613f8c578181015183820152602001613f74565b83811115610f9b5750506000910152565b6020815260008251806020840152613fbc816040850160208701613f71565b601f017fffffffffffffffffffffffffffffffffffffffffffffffffffffffffffffffe0169190910160400192915050565b6080810181811067ffffffffffffffff8211171561400e5761400e613eb0565b60405250565b7fffffffffffffffffffffffffffffffffffffffffffffffffffffffffffffffe0601f830116810181811067ffffffffffffffff8211171561405857614058613eb0565b6040525050565b600067ffffffffffffffff82111561407957614079613eb0565b5060051b60200190565b600082601f83011261409457600080fd5b815160206140a18261405f565b604080516140af8382614014565b84815260079490941b86018301938381019250878511156140cf57600080fd5b8387015b85811015614123576080818a0312156140ec5760008081fd5b82516140f781613fee565b8151815285820151868201528382015184820152606080830151908201528452928401926080016140d3565b50979650505050505050565b600082601f83011261414057600080fd5b8151602061414d8261405f565b6040805161415b8382614014565b84815260079490941b860183019383810192508785111561417b57600080fd5b8387015b85811015614123576080818a0312156141985760008081fd5b82516141a381613fee565b81516141ae8161397b565b8152818601518682015283820151848201526060808301519082015284529284019260800161417f565b600080600080608085870312156141ee57600080fd5b8451935060208086015167ffffffffffffffff8082111561420e57600080fd5b818801915088601f83011261422257600080fd5b815161422d8161405f565b60405161423a8282614014565b82815260059290921b840185019185810191508b83111561425a57600080fd5b938501935b828510156142785784518252938501939085019061425f565b60408b0151909850945050508083111561429157600080fd5b61429d89848a01614083565b945060608801519250808311156142b357600080fd5b50506142c18782880161412f565b91505092959194509250565b600080604083850312156142e057600080fd5b505080516020909101519092909150565b6000817fffffffffffffffffffffffffffffffffffffffffffffffffffffffffffffffff048311821515161561432957614329613e31565b500290565b600082614364577f4e487b7100000000000000000000000000000000000000000000000000000000600052601260045260246000fd5b500490565b600060033d11156143825760046000803e5060005160e01c5b90565b600060443d10156143935790565b6040517ffffffffffffffffffffffffffffffffffffffffffffffffffffffffffffffffc803d016004833e81513d67ffffffffffffffff81602484011181841117156143e157505050505090565b82850191508151818111156143f95750505050505090565b843d87010160208285010111156144135750505050505090565b61442260208286010187614014565b509095945050505050565b6000825161443f818460208701613f71565b919091019291505056fea26469706673582212209cd7fb5db1c0f0d3c8c309d742943b33ee883742b1abc668e8077a0beb9089f964736f6c634300080a0033",
  "devdoc": {
    "kind": "dev",
    "methods": {},
    "version": 1
  },
  "userdoc": {
    "events": {
      "LogIncident(address,address,uint256,bytes32)": {
        "notice": "Events "
      },
      "NewOwnedOffer(address,address,uint256,address)": {
        "notice": "Multi offer specific Events "
      }
    },
    "kind": "user",
    "methods": {
      "approveMangrove(address,uint256)": {
        "notice": "`this` contract needs to approve Mangrove to let it perform outbound token transfer at the end of the `makerExecute` function NB if anyone can call this function someone could reset it to 0 for griefing"
      },
      "withdrawFromMangrove(address,uint256)": {
        "notice": "withdraws ETH from the bounty vault of the Mangrove. NB: `Mangrove.fund` function need not be called by `this` so is not included here. Warning: this function should not be called internally for msg.sender provision is being checked"
      }
    },
    "version": 1
  },
  "storageLayout": {
    "storage": [
      {
        "astId": 23067,
        "contract": "contracts/Strategies/OrderLogics/MangroveOrderEnriched.sol:MangroveOrderEnriched",
        "label": "admin",
        "offset": 0,
        "slot": "0",
        "type": "t_address"
      },
      {
        "astId": 11622,
        "contract": "contracts/Strategies/OrderLogics/MangroveOrderEnriched.sol:MangroveOrderEnriched",
        "label": "OFR_GASREQ",
        "offset": 0,
        "slot": "1",
        "type": "t_uint256"
      },
      {
        "astId": 13169,
        "contract": "contracts/Strategies/OrderLogics/MangroveOrderEnriched.sol:MangroveOrderEnriched",
        "label": "_offerOwners",
        "offset": 0,
        "slot": "2",
        "type": "t_mapping(t_address,t_mapping(t_address,t_mapping(t_uint256,t_address)))"
      },
      {
        "astId": 13173,
        "contract": "contracts/Strategies/OrderLogics/MangroveOrderEnriched.sol:MangroveOrderEnriched",
        "label": "mgvBalance",
        "offset": 0,
        "slot": "3",
        "type": "t_mapping(t_address,t_uint256)"
      },
      {
        "astId": 13179,
        "contract": "contracts/Strategies/OrderLogics/MangroveOrderEnriched.sol:MangroveOrderEnriched",
        "label": "tokenBalanceOf",
        "offset": 0,
        "slot": "4",
        "type": "t_mapping(t_address,t_mapping(t_address,t_uint256))"
      },
      {
        "astId": 19389,
        "contract": "contracts/Strategies/OrderLogics/MangroveOrderEnriched.sol:MangroveOrderEnriched",
        "label": "expiring",
        "offset": 0,
        "slot": "5",
        "type": "t_mapping(t_address,t_mapping(t_address,t_mapping(t_uint256,t_uint256)))"
      },
      {
        "astId": 20196,
        "contract": "contracts/Strategies/OrderLogics/MangroveOrderEnriched.sol:MangroveOrderEnriched",
        "label": "next",
        "offset": 0,
        "slot": "6",
        "type": "t_mapping(t_address,t_mapping(t_address,t_mapping(t_address,t_mapping(t_uint256,t_uint256))))"
      }
    ],
    "types": {
      "t_address": {
        "encoding": "inplace",
        "label": "address",
        "numberOfBytes": "20"
      },
      "t_mapping(t_address,t_mapping(t_address,t_mapping(t_address,t_mapping(t_uint256,t_uint256))))": {
        "encoding": "mapping",
        "key": "t_address",
        "label": "mapping(address => mapping(address => mapping(address => mapping(uint256 => uint256))))",
        "numberOfBytes": "32",
        "value": "t_mapping(t_address,t_mapping(t_address,t_mapping(t_uint256,t_uint256)))"
      },
      "t_mapping(t_address,t_mapping(t_address,t_mapping(t_uint256,t_address)))": {
        "encoding": "mapping",
        "key": "t_address",
        "label": "mapping(address => mapping(address => mapping(uint256 => address)))",
        "numberOfBytes": "32",
        "value": "t_mapping(t_address,t_mapping(t_uint256,t_address))"
      },
      "t_mapping(t_address,t_mapping(t_address,t_mapping(t_uint256,t_uint256)))": {
        "encoding": "mapping",
        "key": "t_address",
        "label": "mapping(address => mapping(address => mapping(uint256 => uint256)))",
        "numberOfBytes": "32",
        "value": "t_mapping(t_address,t_mapping(t_uint256,t_uint256))"
      },
      "t_mapping(t_address,t_mapping(t_address,t_uint256))": {
        "encoding": "mapping",
        "key": "t_address",
        "label": "mapping(address => mapping(address => uint256))",
        "numberOfBytes": "32",
        "value": "t_mapping(t_address,t_uint256)"
      },
      "t_mapping(t_address,t_mapping(t_uint256,t_address))": {
        "encoding": "mapping",
        "key": "t_address",
        "label": "mapping(address => mapping(uint256 => address))",
        "numberOfBytes": "32",
        "value": "t_mapping(t_uint256,t_address)"
      },
      "t_mapping(t_address,t_mapping(t_uint256,t_uint256))": {
        "encoding": "mapping",
        "key": "t_address",
        "label": "mapping(address => mapping(uint256 => uint256))",
        "numberOfBytes": "32",
        "value": "t_mapping(t_uint256,t_uint256)"
      },
      "t_mapping(t_address,t_uint256)": {
        "encoding": "mapping",
        "key": "t_address",
        "label": "mapping(address => uint256)",
        "numberOfBytes": "32",
        "value": "t_uint256"
      },
      "t_mapping(t_uint256,t_address)": {
        "encoding": "mapping",
        "key": "t_uint256",
        "label": "mapping(uint256 => address)",
        "numberOfBytes": "32",
        "value": "t_address"
      },
      "t_mapping(t_uint256,t_uint256)": {
        "encoding": "mapping",
        "key": "t_uint256",
        "label": "mapping(uint256 => uint256)",
        "numberOfBytes": "32",
        "value": "t_uint256"
      },
      "t_uint256": {
        "encoding": "inplace",
        "label": "uint256",
        "numberOfBytes": "32"
      }
    }
  }
}