{
  "address": "0x742D2D5DD17dF175bf1Abd4ca91C2856c5F9bBe4",
  "abi": [
    {
      "inputs": [
        {
          "internalType": "address payable",
          "name": "mgv",
          "type": "address"
        },
        {
          "internalType": "address",
          "name": "base",
          "type": "address"
        },
        {
          "internalType": "address",
          "name": "quote",
          "type": "address"
        },
        {
          "internalType": "uint256",
          "name": "base_0",
          "type": "uint256"
        },
        {
          "internalType": "uint256",
          "name": "quote_0",
          "type": "uint256"
        },
        {
          "internalType": "uint256",
          "name": "nslots",
          "type": "uint256"
        },
        {
          "internalType": "uint256",
          "name": "delta",
          "type": "uint256"
        }
      ],
      "stateMutability": "nonpayable",
      "type": "constructor"
    },
    {
      "anonymous": false,
      "inputs": [
        {
          "indexed": false,
          "internalType": "address",
          "name": "quote",
          "type": "address"
        },
        {
          "indexed": false,
          "internalType": "address",
          "name": "base",
          "type": "address"
        },
        {
          "indexed": false,
          "internalType": "uint256",
          "name": "offerId",
          "type": "uint256"
        }
      ],
      "name": "AskAtMinPosition",
      "type": "event"
    },
    {
      "anonymous": false,
      "inputs": [
        {
          "indexed": false,
          "internalType": "address",
          "name": "quote",
          "type": "address"
        },
        {
          "indexed": false,
          "internalType": "address",
          "name": "base",
          "type": "address"
        },
        {
          "indexed": false,
          "internalType": "uint256",
          "name": "offerId",
          "type": "uint256"
        }
      ],
      "name": "BidAtMaxPosition",
      "type": "event"
    },
    {
      "anonymous": false,
      "inputs": [
        {
          "indexed": true,
          "internalType": "address",
          "name": "outbound_tkn",
          "type": "address"
        },
        {
          "indexed": true,
          "internalType": "address",
          "name": "inbound_tkn",
          "type": "address"
        },
        {
          "indexed": false,
          "internalType": "uint256",
          "name": "offerId",
          "type": "uint256"
        },
        {
          "indexed": false,
          "internalType": "uint256",
          "name": "missingAmount",
          "type": "uint256"
        }
      ],
      "name": "GetFail",
      "type": "event"
    },
    {
      "anonymous": false,
      "inputs": [
        {
          "indexed": false,
          "internalType": "uint256",
          "name": "from",
          "type": "uint256"
        },
        {
          "indexed": false,
          "internalType": "uint256",
          "name": "to",
          "type": "uint256"
        }
      ],
      "name": "Initialized",
      "type": "event"
    },
    {
      "anonymous": false,
      "inputs": [
        {
          "indexed": true,
          "internalType": "address",
          "name": "outbound_tkn",
          "type": "address"
        },
        {
          "indexed": true,
          "internalType": "address",
          "name": "inbound_tkn",
          "type": "address"
        },
        {
          "indexed": true,
          "internalType": "uint256",
          "name": "offerId",
          "type": "uint256"
        },
        {
          "indexed": false,
          "internalType": "bytes",
          "name": "error_data",
          "type": "bytes"
        }
      ],
      "name": "LogIncident",
      "type": "event"
    },
    {
      "anonymous": false,
      "inputs": [
        {
          "indexed": true,
          "internalType": "address",
          "name": "outbound_tkn",
          "type": "address"
        },
        {
          "indexed": true,
          "internalType": "address",
          "name": "inbound_tkn",
          "type": "address"
        },
        {
          "indexed": false,
          "internalType": "uint256",
          "name": "offerId",
          "type": "uint256"
        },
        {
          "indexed": false,
          "internalType": "bytes32",
          "name": "reason",
          "type": "bytes32"
        }
      ],
      "name": "PosthookFail",
      "type": "event"
    },
    {
      "anonymous": false,
      "inputs": [
        {
          "indexed": true,
          "internalType": "address",
          "name": "outbound_tkn",
          "type": "address"
        },
        {
          "indexed": true,
          "internalType": "address",
          "name": "inbound_tkn",
          "type": "address"
        },
        {
          "indexed": false,
          "internalType": "uint256",
          "name": "offerId",
          "type": "uint256"
        },
        {
          "indexed": false,
          "internalType": "uint256",
          "name": "missingAmount",
          "type": "uint256"
        }
      ],
      "name": "PutFail",
      "type": "event"
    },
    {
      "anonymous": false,
      "inputs": [
        {
          "indexed": true,
          "internalType": "address",
          "name": "outbound_tkn",
          "type": "address"
        },
        {
          "indexed": true,
          "internalType": "address",
          "name": "inbound_tkn",
          "type": "address"
        },
        {
          "indexed": false,
          "internalType": "uint256",
          "name": "offerId",
          "type": "uint256"
        }
      ],
      "name": "Reneged",
      "type": "event"
    },
    {
      "inputs": [],
      "name": "BASE",
      "outputs": [
        {
          "internalType": "address",
          "name": "",
          "type": "address"
        }
      ],
      "stateMutability": "view",
      "type": "function"
    },
    {
      "inputs": [],
      "name": "MGV",
      "outputs": [
        {
          "internalType": "contract IMangrove",
          "name": "",
          "type": "address"
        }
      ],
      "stateMutability": "view",
      "type": "function"
    },
    {
      "inputs": [],
      "name": "NSLOTS",
      "outputs": [
        {
          "internalType": "uint16",
          "name": "",
          "type": "uint16"
        }
      ],
      "stateMutability": "view",
      "type": "function"
    },
    {
      "inputs": [],
      "name": "OFR_GASREQ",
      "outputs": [
        {
          "internalType": "uint256",
          "name": "",
          "type": "uint256"
        }
      ],
      "stateMutability": "view",
      "type": "function"
    },
    {
      "inputs": [],
      "name": "QUOTE",
      "outputs": [
        {
          "internalType": "address",
          "name": "",
          "type": "address"
        }
      ],
      "stateMutability": "view",
      "type": "function"
    },
    {
      "inputs": [],
      "name": "admin",
      "outputs": [
        {
          "internalType": "address",
          "name": "",
          "type": "address"
        }
      ],
      "stateMutability": "view",
      "type": "function"
    },
    {
      "inputs": [
        {
          "internalType": "address",
          "name": "outbound_tkn",
          "type": "address"
        },
        {
          "internalType": "uint256",
          "name": "amount",
          "type": "uint256"
        }
      ],
      "name": "approveMangrove",
      "outputs": [],
      "stateMutability": "nonpayable",
      "type": "function"
    },
    {
      "inputs": [
        {
          "internalType": "address",
          "name": "outbound_tkn",
          "type": "address"
        },
        {
          "internalType": "address",
          "name": "inbound_tkn",
          "type": "address"
        },
        {
          "internalType": "uint256",
          "name": "gasreq",
          "type": "uint256"
        },
        {
          "internalType": "uint256",
          "name": "gasprice",
          "type": "uint256"
        },
        {
          "internalType": "uint256",
          "name": "offerId",
          "type": "uint256"
        }
      ],
      "name": "getMissingProvision",
      "outputs": [
        {
          "internalType": "uint256",
          "name": "",
          "type": "uint256"
        }
      ],
      "stateMutability": "view",
      "type": "function"
    },
    {
      "inputs": [],
      "name": "get_delta",
      "outputs": [
        {
          "internalType": "uint256",
          "name": "",
          "type": "uint256"
        }
      ],
      "stateMutability": "view",
      "type": "function"
    },
    {
      "inputs": [
        {
          "internalType": "bool",
          "name": "liveOnly",
          "type": "bool"
        }
      ],
      "name": "get_offers",
      "outputs": [
        {
          "internalType": "uint256[][2]",
          "name": "offers",
          "type": "uint256[][2]"
        }
      ],
      "stateMutability": "view",
      "type": "function"
    },
    {
      "inputs": [],
      "name": "get_pending",
      "outputs": [
        {
          "internalType": "uint256[2]",
          "name": "",
          "type": "uint256[2]"
        }
      ],
      "stateMutability": "view",
      "type": "function"
    },
    {
      "inputs": [],
      "name": "get_shift",
      "outputs": [
        {
          "internalType": "int256",
          "name": "",
          "type": "int256"
        }
      ],
      "stateMutability": "view",
      "type": "function"
    },
    {
      "inputs": [
        {
          "internalType": "bool",
          "name": "base",
          "type": "bool"
        }
      ],
      "name": "get_treasury",
      "outputs": [
        {
          "internalType": "address",
          "name": "",
          "type": "address"
        }
      ],
      "stateMutability": "view",
      "type": "function"
    },
    {
      "inputs": [
        {
          "internalType": "uint256",
          "name": "lastBidPosition",
          "type": "uint256"
        },
        {
          "internalType": "uint256",
          "name": "from",
          "type": "uint256"
        },
        {
          "internalType": "uint256",
          "name": "to",
          "type": "uint256"
        },
        {
          "internalType": "uint256[][2]",
          "name": "pivotIds",
          "type": "uint256[][2]"
        },
        {
          "internalType": "uint256[]",
          "name": "tokenAmounts",
          "type": "uint256[]"
        }
      ],
      "name": "initialize",
      "outputs": [],
      "stateMutability": "nonpayable",
      "type": "function"
    },
    {
      "inputs": [
        {
          "components": [
            {
              "internalType": "address",
              "name": "outbound_tkn",
              "type": "address"
            },
            {
              "internalType": "address",
              "name": "inbound_tkn",
              "type": "address"
            },
            {
              "internalType": "uint256",
              "name": "offerId",
              "type": "uint256"
            },
            {
              "internalType": "Offer.t",
              "name": "offer",
              "type": "uint256"
            },
            {
              "internalType": "uint256",
              "name": "wants",
              "type": "uint256"
            },
            {
              "internalType": "uint256",
              "name": "gives",
              "type": "uint256"
            },
            {
              "internalType": "OfferDetail.t",
              "name": "offerDetail",
              "type": "uint256"
            },
            {
              "internalType": "Global.t",
              "name": "global",
              "type": "uint256"
            },
            {
              "internalType": "Local.t",
              "name": "local",
              "type": "uint256"
            }
          ],
          "internalType": "struct MgvLib.SingleOrder",
          "name": "order",
          "type": "tuple"
        }
      ],
      "name": "makerExecute",
      "outputs": [
        {
          "internalType": "bytes32",
          "name": "ret",
          "type": "bytes32"
        }
      ],
      "stateMutability": "nonpayable",
      "type": "function"
    },
    {
      "inputs": [
        {
          "components": [
            {
              "internalType": "address",
              "name": "outbound_tkn",
              "type": "address"
            },
            {
              "internalType": "address",
              "name": "inbound_tkn",
              "type": "address"
            },
            {
              "internalType": "uint256",
              "name": "offerId",
              "type": "uint256"
            },
            {
              "internalType": "Offer.t",
              "name": "offer",
              "type": "uint256"
            },
            {
              "internalType": "uint256",
              "name": "wants",
              "type": "uint256"
            },
            {
              "internalType": "uint256",
              "name": "gives",
              "type": "uint256"
            },
            {
              "internalType": "OfferDetail.t",
              "name": "offerDetail",
              "type": "uint256"
            },
            {
              "internalType": "Global.t",
              "name": "global",
              "type": "uint256"
            },
            {
              "internalType": "Local.t",
              "name": "local",
              "type": "uint256"
            }
          ],
          "internalType": "struct MgvLib.SingleOrder",
          "name": "order",
          "type": "tuple"
        },
        {
          "components": [
            {
              "internalType": "bytes32",
              "name": "makerData",
              "type": "bytes32"
            },
            {
              "internalType": "bytes32",
              "name": "mgvData",
              "type": "bytes32"
            }
          ],
          "internalType": "struct MgvLib.OrderResult",
          "name": "result",
          "type": "tuple"
        }
      ],
      "name": "makerPosthook",
      "outputs": [],
      "stateMutability": "nonpayable",
      "type": "function"
    },
    {
      "inputs": [
        {
          "internalType": "address",
          "name": "outbound_tkn",
          "type": "address"
        },
        {
          "internalType": "address",
          "name": "inbound_tkn",
          "type": "address"
        },
        {
          "internalType": "uint256",
          "name": "wants",
          "type": "uint256"
        },
        {
          "internalType": "uint256",
          "name": "gives",
          "type": "uint256"
        },
        {
          "internalType": "uint256",
          "name": "gasreq",
          "type": "uint256"
        },
        {
          "internalType": "uint256",
          "name": "gasprice",
          "type": "uint256"
        },
        {
          "internalType": "uint256",
          "name": "pivotId",
          "type": "uint256"
        }
      ],
      "name": "newOffer",
      "outputs": [
        {
          "internalType": "uint256",
          "name": "offerId",
          "type": "uint256"
        }
      ],
      "stateMutability": "payable",
      "type": "function"
    },
    {
      "inputs": [],
      "name": "pause",
      "outputs": [],
      "stateMutability": "nonpayable",
      "type": "function"
    },
    {
      "inputs": [
        {
          "internalType": "address",
          "name": "token",
          "type": "address"
        },
        {
          "internalType": "address",
          "name": "receiver",
          "type": "address"
        },
        {
          "internalType": "uint256",
          "name": "amount",
          "type": "uint256"
        }
      ],
      "name": "redeemToken",
      "outputs": [
        {
          "internalType": "bool",
          "name": "success",
          "type": "bool"
        }
      ],
      "stateMutability": "nonpayable",
      "type": "function"
    },
    {
      "inputs": [],
      "name": "restart",
      "outputs": [],
      "stateMutability": "nonpayable",
      "type": "function"
    },
    {
      "inputs": [
        {
          "internalType": "address",
          "name": "outbound_tkn",
          "type": "address"
        },
        {
          "internalType": "address",
          "name": "inbound_tkn",
          "type": "address"
        },
        {
          "internalType": "uint256",
          "name": "offerId",
          "type": "uint256"
        },
        {
          "internalType": "bool",
          "name": "deprovision",
          "type": "bool"
        }
      ],
      "name": "retractOffer",
      "outputs": [
        {
          "internalType": "uint256",
          "name": "",
          "type": "uint256"
        }
      ],
      "stateMutability": "nonpayable",
      "type": "function"
    },
    {
      "inputs": [
        {
          "internalType": "uint256",
          "name": "ba",
          "type": "uint256"
        },
        {
          "internalType": "uint256",
          "name": "from",
          "type": "uint256"
        },
        {
          "internalType": "uint256",
          "name": "to",
          "type": "uint256"
        }
      ],
      "name": "retractOffers",
      "outputs": [
        {
          "internalType": "uint256",
          "name": "collected",
          "type": "uint256"
        }
      ],
      "stateMutability": "nonpayable",
      "type": "function"
    },
    {
      "inputs": [
        {
          "internalType": "address",
          "name": "_admin",
          "type": "address"
        }
      ],
      "name": "setAdmin",
      "outputs": [],
      "stateMutability": "nonpayable",
      "type": "function"
    },
    {
      "inputs": [
        {
          "internalType": "uint256",
          "name": "gasreq",
          "type": "uint256"
        }
      ],
      "name": "setGasreq",
      "outputs": [],
      "stateMutability": "nonpayable",
      "type": "function"
    },
    {
      "inputs": [
        {
          "internalType": "uint256",
          "name": "delta",
          "type": "uint256"
        }
      ],
      "name": "set_delta",
      "outputs": [],
      "stateMutability": "nonpayable",
      "type": "function"
    },
    {
      "inputs": [
        {
          "internalType": "uint256",
          "name": "m",
          "type": "uint256"
        }
      ],
      "name": "set_min_offer_type",
      "outputs": [],
      "stateMutability": "nonpayable",
      "type": "function"
    },
    {
      "inputs": [
        {
          "internalType": "int256",
          "name": "s",
          "type": "int256"
        },
        {
          "internalType": "bool",
          "name": "withBase",
          "type": "bool"
        },
        {
          "internalType": "uint256[]",
          "name": "amounts",
          "type": "uint256[]"
        }
      ],
      "name": "set_shift",
      "outputs": [],
      "stateMutability": "nonpayable",
      "type": "function"
    },
    {
      "inputs": [
        {
          "internalType": "bool",
          "name": "base",
          "type": "bool"
        },
        {
          "internalType": "address",
          "name": "treasury",
          "type": "address"
        }
      ],
      "name": "set_treasury",
      "outputs": [],
      "stateMutability": "nonpayable",
      "type": "function"
    },
    {
      "inputs": [
        {
          "internalType": "address",
          "name": "outbound_tkn",
          "type": "address"
        },
        {
          "internalType": "address",
          "name": "inbound_tkn",
          "type": "address"
        },
        {
          "internalType": "uint256",
          "name": "wants",
          "type": "uint256"
        },
        {
          "internalType": "uint256",
          "name": "gives",
          "type": "uint256"
        },
        {
          "internalType": "uint256",
          "name": "gasreq",
          "type": "uint256"
        },
        {
          "internalType": "uint256",
          "name": "gasprice",
          "type": "uint256"
        },
        {
          "internalType": "uint256",
          "name": "pivotId",
          "type": "uint256"
        },
        {
          "internalType": "uint256",
          "name": "offerId",
          "type": "uint256"
        }
      ],
      "name": "updateOffer",
      "outputs": [],
      "stateMutability": "payable",
      "type": "function"
    },
    {
      "inputs": [
        {
          "internalType": "address payable",
          "name": "receiver",
          "type": "address"
        },
        {
          "internalType": "uint256",
          "name": "amount",
          "type": "uint256"
        }
      ],
      "name": "withdrawFromMangrove",
      "outputs": [
        {
          "internalType": "bool",
          "name": "",
          "type": "bool"
        }
      ],
      "stateMutability": "nonpayable",
      "type": "function"
    },
    {
      "stateMutability": "payable",
      "type": "receive"
    }
  ],
  "transactionHash": "0xd8926e0fad0fe948a9452a71df24eb560ecf45aac8c6c2c61ce6e92f0c86f6b5",
  "args": [
    "0xa34b6ADdf822177258Cbd0A9c3a80600C1028Ca8",
    "0x63e537a69b3f5b03f4f46c5765c82861bd874b6e",
    "0xc87385b5e62099f92d490750fcd6c901a524bbca",
    "1000000000000000000",
    "900000000000000000000",
    100,
    "32000000000000000000"
  ],
  "solcInputHash": "fc8e828e29090365e164769b27835140",
  "bytecode": "0x6101a06040527f4d616e67726f76654f666665722f72656e6567656400000000000000000000006080527f4d616e67726f76654f666665722f7075744661696c757265000000000000000060a0527f4d616e67726f76654f666665722f6f75744f664c69717569646974790000000060c052620186a0600155600b805460ff191690553480156200008f57600080fd5b5060405162005cc238038062005cc2833981016040819052620000b2916200033a565b600080546001600160a01b031916331790556001600160a01b03871660e0528115801590620000e957506001600160a01b03871615155b8015620000f95750818261ffff16145b80156200010e575083846001600160601b0316145b801562000123575082836001600160601b0316145b6200017f5760405162461bcd60e51b815260206004820152602260248201527f4d616e676f2f636f6e7374727563746f722f696e76616c6964417267756d656e604482015261747360f01b606482015260840160405180910390fd5b6001600160a01b038087166101605285166101805261ffff821661010052816001600160401b03811115620001b857620001b8620003b5565b604051908082528060200260200182016040528015620001e2578160200160208202803683370190505b508051620001f991600291602090910190620002ba565b50816001600160401b03811115620002155762000215620003b5565b6040519080825280602002602001820160405280156200023f578160200160208202803683370190505b5080516200025691600391602090910190620002ba565b506001600160601b0393841661012052919092166101405260095550506001600a819055600c8054336001600160a01b03199091168117909155600b8054610100600160a81b03191661010090920291909117905562061a80905550620003cb9050565b828054828255906000526020600020908101928215620002f8579160200282015b82811115620002f8578251825591602001919060010190620002db565b50620003069291506200030a565b5090565b5b808211156200030657600081556001016200030b565b6001600160a01b03811681146200033757600080fd5b50565b600080600080600080600060e0888a0312156200035657600080fd5b8751620003638162000321565b6020890151909750620003768162000321565b6040890151909650620003898162000321565b80955050606088015193506080880151925060a0880151915060c0880151905092959891949750929550565b634e487b7160e01b600052604160045260246000fd5b60805160a05160c05160e05161010051610120516101405161016051610180516155b56200070d6000396000818161044901528181610bcd01528181610cdc01528181610f9a0152818161112801528181612316015281816123aa0152818161276301528181612934015281816129bc01528181612ed901528181612fae01528181613120015281816131f40152818161339f01528181613afa01528181613d9a0152818161414e015281816142dd015281816144140152818161457b015281816146ea0152818161482101528181614a160152614acb0152600081816105ba01528181610bac01528181610cfd01528181610fc201528181611100015281816122f5015281816123cb015281816127840152818161299b01528181612b6c01528181612ba101528181612e3501528181612e9501528181612f1401528181612f71015281816130ff015281816133c00152818161347c015281816137b401528181613a1c01528181613a8101528181613ac001528181613d2101528181613d6001528181614126015281816142bc015281816143f3015281816145a30152818161470b015281816148420152818161488001528181614a3b0152614aa601526000614986015260008181613782015261388701526000818161051d015281816109370152818161096c015281816109a601528181610a5301528181610e1601528181610e7f01528181610eee0152818161270801528181612d4901528181612fe0015281816130830152818161321e015281816132ad015281816140060152818161404501526144ca0152600081816103fd0152818161087501528181610ff80152818161115e015281816112260152818161136c0152818161163e0152818161177d015281816117ea01528181611c6501528181611ded01528181611f0901528181611f9c01528181612059015281816120ff015281816121e6015281816124e90152818161259a015281816127340152818161296c01528181613524015281816135e0015281816138fb0152818161419a0152818161428d015281816143c4015281816145ef015281816146bb01526147f20152600081816114b10152611a57015260006119a101526000818161154d01526118ec01526155b56000f3fe6080604052600436106101d15760003560e01c80638456cb59116100f7578063c5dbec3811610095578063e428204d11610064578063e428204d14610572578063e4c34f8414610588578063ec342ad0146105a8578063f851a440146105dc57600080fd5b8063c5dbec38146104cb578063ccbbcfc2146104eb578063d4a1da081461050b578063dff6cb451461055257600080fd5b80639c579839116100d15780639c579839146104375780639d4ddea21461046b578063ad97db1b1461048b578063aefe8403146104ab57600080fd5b80638456cb59146103c157806399cb40c1146103d657806399fa5e2d146103eb57600080fd5b80633d3d130d1161016f578063704b6c021161013e578063704b6c021461034c57806378c609981461036c578063815502671461038c578063836dfffa146103ac57600080fd5b80633d3d130d146102d857806349f6d2dc146102f85780636a4f7691146103195780636c49c32c1461032c57600080fd5b80631ef3755d116101ab5780631ef3755d146102545780631efa880b1461026957806334bd8931146102965780633a2d38af146102b657600080fd5b8063063df2d2146101dd5780630d71bdc3146102125780631722d6e81461023257600080fd5b366101d857005b600080fd5b3480156101e957600080fd5b506101fd6101f8366004614b7d565b6105fc565b60405190151581526020015b60405180910390f35b34801561021e57600080fd5b506101fd61022d366004614ba9565b6106eb565b34801561023e57600080fd5b5061025261024d366004614c36565b610856565b005b34801561026057600080fd5b50610252610d88565b34801561027557600080fd5b50610289610284366004614cd4565b610e0c565b6040516102099190614cf1565b3480156102a257600080fd5b506102526102b1366004614d84565b611207565b3480156102c257600080fd5b506102cb6112ed565b6040516102099190614d9d565b3480156102e457600080fd5b506102526102f3366004614de1565b61136a565b61030b610306366004614e41565b611580565b604051908152602001610209565b610252610327366004614ea3565b6116b9565b34801561033857600080fd5b5061030b610347366004614f0e565b6117e6565b34801561035857600080fd5b50610252610367366004614f2b565b611a87565b34801561037857600080fd5b50610252610387366004614f48565b611b1b565b34801561039857600080fd5b506102526103a7366004614f81565b611c46565b3480156103b857600080fd5b5061030b611d6c565b3480156103cd57600080fd5b50610252611dce565b3480156103e257600080fd5b5061030b611e88565b3480156103f757600080fd5b5061041f7f000000000000000000000000000000000000000000000000000000000000000081565b6040516001600160a01b039091168152602001610209565b34801561044357600080fd5b5061041f7f000000000000000000000000000000000000000000000000000000000000000081565b34801561047757600080fd5b50610252610486366004614d84565b611eea565b34801561049757600080fd5b5061030b6104a6366004614fdd565b611f7c565b3480156104b757600080fd5b506102526104c6366004614b7d565b6120cf565b3480156104d757600080fd5b506102526104e6366004614d84565b6121c7565b3480156104f757600080fd5b5061030b610506366004615030565b612259565b34801561051757600080fd5b5061053f7f000000000000000000000000000000000000000000000000000000000000000081565b60405161ffff9091168152602001610209565b34801561055e57600080fd5b5061041f61056d366004614cd4565b612424565b34801561057e57600080fd5b5061030b60015481565b34801561059457600080fd5b5061030b6105a336600461505c565b6124ac565b3480156105b457600080fd5b5061041f7f000000000000000000000000000000000000000000000000000000000000000081565b3480156105e857600080fd5b5060005461041f906001600160a01b031681565b600080546001600160a01b0316331461065c5760405162461bcd60e51b815260206004820152601860248201527f416363657373436f6e74726f6c6c65642f496e76616c6964000000000000000060448201526064015b60405180910390fd5b6001600160a01b0383166106d85760405162461bcd60e51b815260206004820152602160248201527f53696e676c65557365722f77697468647261774d47562f30785265636569766560448201527f72000000000000000000000000000000000000000000000000000000000000006064820152608401610653565b6106e28383612568565b90505b92915050565b600080546001600160a01b031633146107465760405162461bcd60e51b815260206004820152601860248201527f416363657373436f6e74726f6c6c65642f496e76616c696400000000000000006044820152606401610653565b6001600160a01b0383166107c25760405162461bcd60e51b815260206004820152602160248201527f53696e676c65557365722f72656465656d546f6b656e2f30785265636569766560448201527f72000000000000000000000000000000000000000000000000000000000000006064820152608401610653565b6040517fa9059cbb0000000000000000000000000000000000000000000000000000000081526001600160a01b0384811660048301526024820184905285169063a9059cbb906044016020604051808303816000875af115801561082a573d6000803e3d6000fd5b505050506040513d601f19601f8201168201806040525081019061084e91906150ad565b949350505050565b6000546001600160a01b03163314806108975750336001600160a01b037f000000000000000000000000000000000000000000000000000000000000000016145b6108e35760405162461bcd60e51b815260206004820152601860248201527f416363657373436f6e74726f6c6c65642f496e76616c696400000000000000006044820152606401610653565b8484116109325760405162461bcd60e51b815260206004820152601d60248201527f4d616e676f2f696e697469616c697a652f696e76616c6964536c6963650000006044820152606401610653565b61ffff7f00000000000000000000000000000000000000000000000000000000000000001681148015610963575060015b801561099d57507f000000000000000000000000000000000000000000000000000000000000000061ffff1661099984806150f9565b9050145b80156109da57507f000000000000000000000000000000000000000000000000000000000000000061ffff166109d660208501856150f9565b9050145b610a4c5760405162461bcd60e51b815260206004820152602360248201527f4d616e676f2f696e697469616c697a652f696e76616c696441727261794c656e60448201527f67746800000000000000000000000000000000000000000000000000000000006064820152608401610653565b610a7760017f0000000000000000000000000000000000000000000000000000000000000000615190565b61ffff168610610ac95760405162461bcd60e51b815260206004820152601e60248201527f4d616e676f2f696e697469616c697a652f4e6f536c6f74466f7241736b7300006044820152606401610653565b845b84811015610d46576000610ade826126f3565b9050878211610c19576000610af386806150f9565b84818110610b0357610b036150ca565b90506020020135905060008111610b585760008311610b23576000610b5a565b6003610b38610b336001866151b3565b6126f3565b81548110610b4857610b486150ca565b9060005260206000200154610b5a565b805b9050610b81826001878787818110610b7457610b746150ca565b9050602002013584612730565b600060028381548110610b9657610b966150ca565b90600052602060002001541115610c1357610c117f00000000000000000000000000000000000000000000000000000000000000007f000000000000000000000000000000000000000000000000000000000000000060028581548110610bff57610bff6150ca565b90600052602060002001546000611f7c565b505b50610d33565b6000610c2860208701876150f9565b84818110610c3857610c386150ca565b90506020020135905060008111610c885760008311610c58576000610c8a565b6002610c68610b336001866151b3565b81548110610c7857610c786150ca565b9060005260206000200154610c8a565b805b9050610cb1826001878787818110610ca457610ca46150ca565b9050602002013584612968565b600060038381548110610cc657610cc66150ca565b90600052602060002001541115610d3157610d2f7f00000000000000000000000000000000000000000000000000000000000000007f000000000000000000000000000000000000000000000000000000000000000060038581548110610bff57610bff6150ca565b505b505b5080610d3e816151ca565b915050610acb565b60408051878152602081018790527f997896709b4e932ee42750e2e14ed1f7ab6c60bd911ff567aa2485cf0b20051b910160405180910390a150505050505050565b6000546001600160a01b03163314610de25760405162461bcd60e51b815260206004820152601860248201527f416363657373436f6e74726f6c6c65642f496e76616c696400000000000000006044820152606401610653565b600b80547fffffffffffffffffffffffffffffffffffffffffffffffffffffffffffffff00169055565b610e14614b20565b7f000000000000000000000000000000000000000000000000000000000000000061ffff1667ffffffffffffffff811115610e5157610e51615203565b604051908082528060200260200182016040528015610e7a578160200160208202803683370190505b5081527f000000000000000000000000000000000000000000000000000000000000000061ffff1667ffffffffffffffff811115610eba57610eba615203565b604051908082528060200260200182016040528015610ee3578160200160208202803683370190505b50602082015260005b7f000000000000000000000000000000000000000000000000000000000000000061ffff168110156112015760006002610f25836126f3565b81548110610f3557610f356150ca565b9060005260206000200154905060006003610f4f846126f3565b81548110610f5f57610f5f6150ca565b60009182526020822001546040517f68c13d6b0000000000000000000000000000000000000000000000000000000081526001600160a01b037f0000000000000000000000000000000000000000000000000000000000000000811660048301527f00000000000000000000000000000000000000000000000000000000000000008116602483015260448201839052919350611075917f000000000000000000000000000000000000000000000000000000000000000016906368c13d6b906064015b602060405180830381865afa158015611040573d6000803e3d6000fd5b505050506040513d601f19601f820116820180604052508101906110649190615232565b6bffffffffffffffffffffffff1690565b118061107f575084155b61108a5760006110b1565b6003611095846126f3565b815481106110a5576110a56150ca565b90600052602060002001545b84518051859081106110c5576110c56150ca565b60209081029190910101526040517f68c13d6b0000000000000000000000000000000000000000000000000000000081526001600160a01b037f0000000000000000000000000000000000000000000000000000000000000000811660048301527f0000000000000000000000000000000000000000000000000000000000000000811660248301526044820184905260009161118d917f000000000000000000000000000000000000000000000000000000000000000016906368c13d6b90606401611023565b1180611197575084155b6111a25760006111c9565b60026111ad846126f3565b815481106111bd576111bd6150ca565b90600052602060002001545b60208501518051859081106111e0576111e06150ca565b602002602001018181525050505080806111f9906151ca565b915050610eec565b50919050565b6000546001600160a01b03163314806112485750336001600160a01b037f000000000000000000000000000000000000000000000000000000000000000016145b6112945760405162461bcd60e51b815260206004820152601860248201527f416363657373436f6e74726f6c6c65642f496e76616c696400000000000000006044820152606401610653565b808162ffffff16146112e85760405162461bcd60e51b815260206004820152601d60248201527f4d616e67726f76654f666665722f6761737265712f6f766572666c6f770000006044820152606401610653565b600155565b6112f5614b47565b6000546001600160a01b0316331461134f5760405162461bcd60e51b815260206004820152601860248201527f416363657373436f6e74726f6c6c65642f496e76616c696400000000000000006044820152606401610653565b50604080518082019091526004548152600554602082015290565b7f00000000000000000000000000000000000000000000000000000000000000006001600160a01b03811615806113a95750336001600160a01b038216145b6113f55760405162461bcd60e51b815260206004820152601860248201527f416363657373436f6e74726f6c6c65642f496e76616c696400000000000000006044820152606401610653565b81602001357f6d67762f7472616465537563636573730000000000000000000000000000000014156114ad5761142a83612b95565b6114a85761143e6040840160208501614f2b565b6001600160a01b03166114546020850185614f2b565b6001600160a01b03167f51d5a3ecf332626d83c8207fe9bd22f38801f578c7eb222e2d811cd1b4c629a58560400135856020013560405161149f929190918252602082015260400190565b60405180910390a35b505050565b81357f000000000000000000000000000000000000000000000000000000000000000014156115495760015b6114a8576114ed6040840160208501614f2b565b6001600160a01b03166115036020850185614f2b565b60408051818701358152853560208201526001600160a01b0392909216917f51d5a3ecf332626d83c8207fe9bd22f38801f578c7eb222e2d811cd1b4c629a5910161149f565b81357f000000000000000000000000000000000000000000000000000000000000000014156115795760016114d9565b600161142a565b600080546001600160a01b031633146115db5760405162461bcd60e51b815260206004820152601860248201527f416363657373436f6e74726f6c6c65642f496e76616c696400000000000000006044820152606401610653565b6040517f49f6d2dc0000000000000000000000000000000000000000000000000000000081526001600160a01b038981166004830152888116602483015260448201889052606482018790526084820186905260a4820185905260c482018490527f000000000000000000000000000000000000000000000000000000000000000016906349f6d2dc90349060e40160206040518083038185885af1158015611688573d6000803e3d6000fd5b50505050506040513d601f19601f820116820180604052508101906116ad9190615232565b98975050505050505050565b6000546001600160a01b031633146117135760405162461bcd60e51b815260206004820152601860248201527f416363657373436f6e74726f6c6c65642f496e76616c696400000000000000006044820152606401610653565b6040517f6a4f76910000000000000000000000000000000000000000000000000000000081526001600160a01b038981166004830152888116602483015260448201889052606482018790526084820186905260a4820185905260c4820184905260e482018390527f00000000000000000000000000000000000000000000000000000000000000001690636a4f7691903490610104016000604051808303818588803b1580156117c357600080fd5b505af11580156117d7573d6000803e3d6000fd5b50505050505050505050505050565b60007f00000000000000000000000000000000000000000000000000000000000000006001600160a01b03811615806118275750336001600160a01b038216145b6118735760405162461bcd60e51b815260206004820152601860248201527f416363657373436f6e74726f6c6c65642f496e76616c696400000000000000006044820152606401610653565b600b5460ff16156119125761188e6040840160208501614f2b565b6001600160a01b03166118a46020850185614f2b565b6001600160a01b03167f5c3a327c0caf47aa560dbca16cce241483daac785fd723d9e0fb2af3256373bf85604001356040516118e291815260200190565b60405180910390a37f00000000000000000000000000000000000000000000000000000000000000009150611201565b60006119228460a0013585612e29565b905080156119c85761193a6040850160208601614f2b565b6001600160a01b03166119506020860186614f2b565b6001600160a01b03167f3482722a7c71a098521214cdb975e1d9faa0b0163f768e89566f7acc36cffd0b866040013584604051611997929190918252602082015260400190565b60405180910390a37f0000000000000000000000000000000000000000000000000000000000000000925050611201565b60006119d8856080013586612f08565b90508015611a7f576119f06040860160208701614f2b565b6001600160a01b0316611a066020870187614f2b565b6001600160a01b03167fc99fe658c80b903af0e1270f4a55564b3a7509294ab1052c6ab07f8198baea67876040013584604051611a4d929190918252602082015260400190565b60405180910390a37f000000000000000000000000000000000000000000000000000000000000000093505050611201565b505050919050565b6000546001600160a01b03163314611ae15760405162461bcd60e51b815260206004820152601860248201527f416363657373436f6e74726f6c6c65642f496e76616c696400000000000000006044820152606401610653565b600080547fffffffffffffffffffffffff0000000000000000000000000000000000000000166001600160a01b0392909216919091179055565b6000546001600160a01b03163314611b755760405162461bcd60e51b815260206004820152601860248201527f416363657373436f6e74726f6c6c65642f496e76616c696400000000000000006044820152606401610653565b6001600160a01b038116611bcb5760405162461bcd60e51b815260206004820152601d60248201527f4d616e676f2f7365745f74726561737572792f307854726561737572790000006044820152606401610653565b8115611c0e57600b80546001600160a01b038316610100027fffffffffffffffffffffff0000000000000000000000000000000000000000ff9091161790555050565b600c80547fffffffffffffffffffffffff0000000000000000000000000000000000000000166001600160a01b0383161790555b5050565b6000546001600160a01b0316331480611c875750336001600160a01b037f000000000000000000000000000000000000000000000000000000000000000016145b611cd35760405162461bcd60e51b815260206004820152601860248201527f416363657373436f6e74726f6c6c65642f496e76616c696400000000000000006044820152606401610653565b60008412611ce15783611cea565b611cea8461524b565b8114611d385760405162461bcd60e51b815260206004820181905260248201527f4d616e676f2f7365745f73686966742f6e6f74456e6f756768416d6f756e74736044820152606401610653565b6000841215611d5a57611d55611d4d8561524b565b848484612fde565b611d66565b611d66848484846132ab565b50505050565b600080546001600160a01b03163314611dc75760405162461bcd60e51b815260206004820152601860248201527f416363657373436f6e74726f6c6c65642f496e76616c696400000000000000006044820152606401610653565b5060085490565b6000546001600160a01b0316331480611e0f5750336001600160a01b037f000000000000000000000000000000000000000000000000000000000000000016145b611e5b5760405162461bcd60e51b815260206004820152601860248201527f416363657373436f6e74726f6c6c65642f496e76616c696400000000000000006044820152606401610653565b600b80547fffffffffffffffffffffffffffffffffffffffffffffffffffffffffffffff00166001179055565b600080546001600160a01b03163314611ee35760405162461bcd60e51b815260206004820152601860248201527f416363657373436f6e74726f6c6c65642f496e76616c696400000000000000006044820152606401610653565b5060095490565b6000546001600160a01b0316331480611f2b5750336001600160a01b037f000000000000000000000000000000000000000000000000000000000000000016145b611f775760405162461bcd60e51b815260206004820152601860248201527f416363657373436f6e74726f6c6c65642f496e76616c696400000000000000006044820152606401610653565b600a55565b600080546001600160a01b0316331480611fbe5750336001600160a01b037f000000000000000000000000000000000000000000000000000000000000000016145b61200a5760405162461bcd60e51b815260206004820152601860248201527f416363657373436f6e74726f6c6c65642f496e76616c696400000000000000006044820152606401610653565b6040517fad97db1b0000000000000000000000000000000000000000000000000000000081526001600160a01b03868116600483015285811660248301526044820185905283151560648301527f0000000000000000000000000000000000000000000000000000000000000000169063ad97db1b906084016020604051808303816000875af11580156120a2573d6000803e3d6000fd5b505050506040513d601f19601f820116820180604052508101906120c69190615232565b95945050505050565b6040517f095ea7b30000000000000000000000000000000000000000000000000000000081526001600160a01b037f0000000000000000000000000000000000000000000000000000000000000000811660048301526024820183905283169063095ea7b3906044016020604051808303816000875af1158015612157573d6000803e3d6000fd5b505050506040513d601f19601f8201168201806040525081019061217b91906150ad565b611c425760405162461bcd60e51b815260206004820152601560248201527f6d67764f666665722f617070726f76652f4661696c00000000000000000000006044820152606401610653565b6000546001600160a01b03163314806122085750336001600160a01b037f000000000000000000000000000000000000000000000000000000000000000016145b6122545760405162461bcd60e51b815260206004820152601860248201527f416363657373436f6e74726f6c6c65642f496e76616c696400000000000000006044820152606401610653565b600955565b600080546001600160a01b031633146122b45760405162461bcd60e51b815260206004820152601860248201527f416363657373436f6e74726f6c6c65642f496e76616c696400000000000000006044820152606401610653565b825b8281101561241c578415612367576000600282815481106122d9576122d96150ca565b9060005260206000200154116122f057600061235a565b61235a7f00000000000000000000000000000000000000000000000000000000000000007f000000000000000000000000000000000000000000000000000000000000000060028481548110612348576123486150ca565b90600052602060002001546001611f7c565b6123649083615284565b91505b8415806123745750600185115b1561240a5760006003828154811061238e5761238e6150ca565b9060005260206000200154116123a55760006123fd565b6123fd7f00000000000000000000000000000000000000000000000000000000000000007f000000000000000000000000000000000000000000000000000000000000000060038481548110612348576123486150ca565b6124079083615284565b91505b80612414816151ca565b9150506122b6565b509392505050565b600080546001600160a01b0316331461247f5760405162461bcd60e51b815260206004820152601860248201527f416363657373436f6e74726f6c6c65642f496e76616c696400000000000000006044820152606401610653565b8161249557600c546001600160a01b03166106e5565b600b5461010090046001600160a01b031692915050565b6040517f70a0823100000000000000000000000000000000000000000000000000000000815230600482015260009061255e906001600160a01b037f000000000000000000000000000000000000000000000000000000000000000016906370a0823190602401602060405180830381865afa158015612530573d6000803e3d6000fd5b505050506040513d601f19601f820116820180604052508101906125549190615232565b87878787876134dd565b9695505050505050565b6040517f2e1a7d4d000000000000000000000000000000000000000000000000000000008152600481018290526000907f00000000000000000000000000000000000000000000000000000000000000006001600160a01b031690632e1a7d4d906024016020604051808303816000875af11580156125eb573d6000803e3d6000fd5b505050506040513d601f19601f8201168201806040525081019061260f91906150ad565b6126815760405162461bcd60e51b815260206004820152602360248201527f4d616e67726f76654f666665722f77697468647261772f7472616e736665724660448201527f61696c00000000000000000000000000000000000000000000000000000000006064820152608401610653565b6001600160a01b03831630146126ea576040516001600160a01b038416908390600081818185875af1925050503d80600081146126da576040519150601f19603f3d011682016040523d82523d6000602084013e6126df565b606091505b5050809150506106e5565b50600192915050565b60006106e560085483612706919061529c565b7f000000000000000000000000000000000000000000000000000000000000000061ffff1661372b565b60007f00000000000000000000000000000000000000000000000000000000000000006001600160a01b03166368c13d6b7f00000000000000000000000000000000000000000000000000000000000000007f0000000000000000000000000000000000000000000000000000000000000000600389815481106127b6576127b66150ca565b6000918252602090912001546040517fffffffff0000000000000000000000000000000000000000000000000000000060e086901b1681526001600160a01b0393841660048201529290911660248301526044820152606401602060405180830381865afa15801561282c573d6000803e3d6000fd5b505050506040513d601f19601f820116820180604052508101906128509190615232565b9050600061285d86613752565b9050600085612890576005546128816bffffffffffffffffffffffff851687615284565b61288b9190615284565b612892565b845b905060006128a08383613765565b905060006bffffffffffffffffffffffff851661290d5785156128c457508461292e565b83156128fc5760036128da610b336001876151b3565b815481106128ea576128ea6150ca565b9060005260206000200154905061292e565b6129068560e01c90565b905061292e565b60038981548110612920576129206150ca565b906000526020600020015490505b61295d897f000000000000000000000000000000000000000000000000000000000000000084868c15866137b2565b505050505050505050565b60007f00000000000000000000000000000000000000000000000000000000000000006001600160a01b03166368c13d6b7f00000000000000000000000000000000000000000000000000000000000000007f0000000000000000000000000000000000000000000000000000000000000000600289815481106129ee576129ee6150ca565b6000918252602090912001546040517fffffffff0000000000000000000000000000000000000000000000000000000060e086901b1681526001600160a01b0393841660048201529290911660248301526044820152606401602060405180830381865afa158015612a64573d6000803e3d6000fd5b505050506040513d601f19601f82011682018060405250810190612a889190615232565b90506000612a9586613752565b9050600085612ac857600454612ab96bffffffffffffffffffffffff851687615284565b612ac39190615284565b612aca565b845b90506000612ad88383613883565b905060006bffffffffffffffffffffffff8516612b45578515612afc575084612b66565b8315612b34576002612b12610b336001876151b3565b81548110612b2257612b226150ca565b90600052602060002001549050612b66565b612b3e8560e01c90565b9050612b66565b60028981548110612b5857612b586150ca565b906000526020600020015490505b61295d897f000000000000000000000000000000000000000000000000000000000000000084868c15866137b2565b60006001600160a01b037f000000000000000000000000000000000000000000000000000000000000000016612bce6020840184614f2b565b6001600160a01b03161415612cf957612be6826138c8565b612bfb57612bf382613a10565b600455612c01565b60006004555b60408083013560009081526007602052205480156126ea576000612c2482613752565b90508015612c5557612c4b612c3d610b336001846151b3565b60008660a001356000612730565b5060019392505050565b60408401803590612c699060208701614f2b565b6001600160a01b0316612c7f6020870187614f2b565b6001600160a01b03167f571c6a99fbcd17b1f71790d4830c4a356ad85ab9b87af15ca9cb8bf9e76dafb7604051612ce7906020808252601c908201527f4d616e676f2f706f7374686f6f6b2f4275794f75744f6652616e676500000000604082015260600190565b60405180910390a45060009392505050565b612d02826138c8565b612d1757612d0f82613a10565b600555612d1d565b60006005555b60408083013560009081526006602052205480156126ea576000612d4082613752565b9050612d6d60017f0000000000000000000000000000000000000000000000000000000000000000615190565b61ffff16811015612d9757612c4b612d89610b33836001615284565b60008660a001356000612968565b60408401803590612dab9060208701614f2b565b6001600160a01b0316612dc16020870187614f2b565b6001600160a01b03167f571c6a99fbcd17b1f71790d4830c4a356ad85ab9b87af15ca9cb8bf9e76dafb7604051612ce7906020808252601d908201527f4d616e676f2f706f7374686f6f6b2f53656c6c4f75744f6652616e6765000000604082015260600190565b60006001600160a01b037f000000000000000000000000000000000000000000000000000000000000000016612e656040840160208501614f2b565b6001600160a01b0316148015612e8b5750600b5461010090046001600160a01b03163014155b15612ec257612ebb7f00000000000000000000000000000000000000000000000000000000000000008484613a7a565b90506106e5565b600c546001600160a01b03163014612eff57612ebb7f00000000000000000000000000000000000000000000000000000000000000008484613a7a565b50600092915050565b60006001600160a01b037f000000000000000000000000000000000000000000000000000000000000000016612f416020840184614f2b565b6001600160a01b0316148015612f675750600b5461010090046001600160a01b03163014155b15612f9757612ebb7f00000000000000000000000000000000000000000000000000000000000000008484613d1a565b600c546001600160a01b03163014612fd457612ebb7f00000000000000000000000000000000000000000000000000000000000000008484613d1a565b6106e28383613f3e565b7f000000000000000000000000000000000000000000000000000000000000000061ffff1684106130775760405162461bcd60e51b815260206004820152602160248201527f4d616e676f2f73686966742f4e656761746976655368696674546f6f4c61726760448201527f65000000000000000000000000000000000000000000000000000000000000006064820152608401610653565b60006130b06130a760017f0000000000000000000000000000000000000000000000000000000000000000615190565b61ffff166126f3565b905084600860008282546130c49190615310565b90915550600090505b858110156132a357600282815481106130e8576130e86150ca565b9060005260206000200154600014613154576131527f00000000000000000000000000000000000000000000000000000000000000007f000000000000000000000000000000000000000000000000000000000000000060028581548110610bff57610bff6150ca565b505b600061315f83613752565b905060008087156131ae5786868581811061317c5761317c6150ca565b9050602002013590506131a78388888781811061319b5761319b6150ca565b90506020020135613883565b91506131ee565b6131d0838888878181106131c4576131c46150ca565b90506020020135613765565b90508686858181106131e4576131e46150ca565b9050602002013591505b613283857f00000000000000000000000000000000000000000000000000000000000000008385600061324260017f0000000000000000000000000000000000000000000000000000000000000000615190565b61ffff1689106132535760006137b2565b6003613263610b338b6001615284565b81548110613273576132736150ca565b90600052602060002001546137b2565b8361328d816151ca565b94505061329985613ff6565b94505050506130cd565b505050505050565b7f000000000000000000000000000000000000000000000000000000000000000061ffff1684106133445760405162461bcd60e51b815260206004820152602160248201527f4d616e676f2f73686966742f706f7369746976655368696674546f6f4c61726760448201527f65000000000000000000000000000000000000000000000000000000000000006064820152608401610653565b600061335060006126f3565b90508460086000828254613364919061529c565b90915550600090505b858110156132a35760038281548110613388576133886150ca565b90600052602060002001546000146133f4576133f27f00000000000000000000000000000000000000000000000000000000000000007f000000000000000000000000000000000000000000000000000000000000000060038581548110610bff57610bff6150ca565b505b60006133ff83613752565b905060008087156134425786868581811061341c5761341c6150ca565b90506020020135915061343b8388888781811061319b5761319b6150ca565b9050613476565b868685818110613454576134546150ca565b905060200201359050613473838888878181106131c4576131c46150ca565b91505b6134bd857f0000000000000000000000000000000000000000000000000000000000000000838560008089116134ad5760006137b2565b6002613263610b3360018c6151b3565b836134c7816151ca565b9450506134d38561403e565b945050505061336d565b6040517fcbf75c9a0000000000000000000000000000000000000000000000000000000081526001600160a01b0386811660048301528581166024830152600091829182917f00000000000000000000000000000000000000000000000000000000000000009091169063cbf75c9a906044016040805180830381865afa15801561356c573d6000803e3d6000fd5b505050506040513d601f19601f820116820180604052508101906135909190615384565b6040517f5722647b0000000000000000000000000000000000000000000000000000000081526001600160a01b038b811660048301528a81166024830152604482018890529294509092506000917f00000000000000000000000000000000000000000000000000000000000000001690635722647b90606401602060405180830381865afa158015613627573d6000803e3d6000fd5b505050506040513d601f19601f8201168201806040525081019061364b9190615232565b9050600086604085901c61ffff16111561366e575061ffff604084901c16613671565b50855b62ffffff8811156136825760015497505b60008161369862ffffff606087901c168b615284565b6136a291906153a8565b6136b090633b9aca006153a8565b9050600061ffff602085901c166136d762ffffff603087901c811690604888901c16615284565b6136e191906153a8565b6136ef90633b9aca006153a8565b905060006136fd8e83615284565b9050828110156137165761371181846151b3565b613719565b60005b9e9d5050505050505050505050505050565b600080831261373e57612ebb8284615414565b6137488284615428565b612ebb908361529c565b60006106e5600854836127069190615310565b60006137708361407a565b6137a86bffffffffffffffffffffffff7f000000000000000000000000000000000000000000000000000000000000000016846153a8565b6106e2919061543c565b7f00000000000000000000000000000000000000000000000000000000000000006001600160a01b0316856001600160a01b031614156138365760006137fa87868685614092565b90508015613824578261381a57806004546138159190615284565b61381c565b805b600455613830565b82156138305760006004555b506132a3565b6000613844878686856144bd565b9050801561386e5782613864578060055461385f9190615284565b613866565b805b60055561387a565b821561387a5760006005555b50505050505050565b60007f00000000000000000000000000000000000000000000000000000000000000006bffffffffffffffffffffffff16826138be8561407a565b6137a891906153a8565b6000806138d483613a10565b9050806138e45750600192915050565b60006138ef84614874565b90506001600160a01b037f000000000000000000000000000000000000000000000000000000000000000016636a4f769161392d6020870187614f2b565b61393d6040880160208901614f2b565b848660c08a013560481c62ffffff1660c08b013560201c61ffff1660608c013560c01c63ffffffff16604080517fffffffff0000000000000000000000000000000000000000000000000000000060e08b901b1681526001600160a01b03988916600482015297909616602488015260448701949094526064860192909252608485015260a484015260c483015287013560e482015261010401600060405180830381600087803b1580156139f157600080fd5b505af1925050508015613a02575060015b612c4b575060009392505050565b60006001600160a01b037f000000000000000000000000000000000000000000000000000000000000000016613a496020840184614f2b565b6001600160a01b03161415613a6e57600454613a648361493e565b6106e59190615284565b600554613a648361493e565b60008060007f00000000000000000000000000000000000000000000000000000000000000006001600160a01b0316866001600160a01b03161415613af3575050600b547f00000000000000000000000000000000000000000000000000000000000000009061010090046001600160a01b0316613b24565b5050600c547f0000000000000000000000000000000000000000000000000000000000000000906001600160a01b03165b6040517fa9059cbb0000000000000000000000000000000000000000000000000000000081526001600160a01b0382811660048301526024820187905283169063a9059cbb906044016020604051808303816000875af1925050508015613bc6575060408051601f3d9081017fffffffffffffffffffffffffffffffffffffffffffffffffffffffffffffffe0168201909252613bc3918101906150ad565b60015b613c6f573d808015613bf4576040519150601f19603f3d011682016040523d82523d6000602084013e613bf9565b606091505b5060408501803590613c0e9060208801614f2b565b6001600160a01b0316613c246020880188614f2b565b6001600160a01b03167f571c6a99fbcd17b1f71790d4830c4a356ad85ab9b87af15ca9cb8bf9e76dafb784604051613c5c9190615450565b60405180910390a4859350505050613d13565b8015613c815760009350505050613d13565b60408501803590613c959060208801614f2b565b6001600160a01b0316613cab6020880188614f2b565b6001600160a01b03167f571c6a99fbcd17b1f71790d4830c4a356ad85ab9b87af15ca9cb8bf9e76dafb7604051613c5c9060208082526014908201527f4d616e676f2f7472616e736665724661696c6564000000000000000000000000604082015260600190565b9392505050565b60008060007f00000000000000000000000000000000000000000000000000000000000000006001600160a01b0316866001600160a01b03161415613d93575050600b547f00000000000000000000000000000000000000000000000000000000000000009061010090046001600160a01b0316613dc4565b5050600c547f0000000000000000000000000000000000000000000000000000000000000000906001600160a01b03165b6040517f23b872dd0000000000000000000000000000000000000000000000000000000081526001600160a01b038281166004830152306024830152604482018790528316906323b872dd906064016020604051808303816000875af1925050508015613e6c575060408051601f3d9081017fffffffffffffffffffffffffffffffffffffffffffffffffffffffffffffffe0168201909252613e69918101906150ad565b60015b613e9a573d808015613bf4576040519150601f19603f3d011682016040523d82523d6000602084013e613bf9565b8015613eac5760009350505050613d13565b60408501803590613ec09060208801614f2b565b6001600160a01b0316613ed66020880188614f2b565b6001600160a01b03167f571c6a99fbcd17b1f71790d4830c4a356ad85ab9b87af15ca9cb8bf9e76dafb7604051613c5c9060208082526018908201527f4d616e676f2f7472616e7366657246726f6d4661696c65640000000000000000604082015260600190565b600080613f4e6020840184614f2b565b6040517f70a082310000000000000000000000000000000000000000000000000000000081523060048201526001600160a01b0391909116906370a0823190602401602060405180830381865afa158015613fad573d6000803e3d6000fd5b505050506040513d601f19601f82011682018060405250810190613fd19190615232565b9050838110613fe45760009150506106e5565b613fee81856151b3565b9150506106e5565b60008082116140335761402a60017f0000000000000000000000000000000000000000000000000000000000000000615190565b61ffff166106e5565b6106e56001836151b3565b600061ffff7f000000000000000000000000000000000000000000000000000000000000000016614070836001615284565b6106e59190615414565b6000614084614960565b82600954613a6491906153a8565b6000600a546140a086613752565b116140cd576140cd6000600287815481106140bd576140bd6150ca565b9060005260206000200154614a02565b600285815481106140e0576140e06150ca565b90600052602060002001546000141561428b576001546040517f49f6d2dc0000000000000000000000000000000000000000000000000000000081526001600160a01b037f0000000000000000000000000000000000000000000000000000000000000000811660048301527f00000000000000000000000000000000000000000000000000000000000000008116602483015260448201879052606482018690526084820192909252600060a482015260c481018490527f0000000000000000000000000000000000000000000000000000000000000000909116906349f6d2dc9060e4016020604051808303816000875af192505050801561421f575060408051601f3d9081017fffffffffffffffffffffffffffffffffffffffffffffffffffffffffffffffe016820190925261421c91810190615232565b60015b61422a57508161084e565b806002878154811061423e5761423e6150ca565b9060005260206000200181905550856007600060028981548110614264576142646150ca565b9060005260206000200154815260200190815260200160002081905550600091505061084e565b7f00000000000000000000000000000000000000000000000000000000000000006001600160a01b0316636a4f76917f00000000000000000000000000000000000000000000000000000000000000007f0000000000000000000000000000000000000000000000000000000000000000878760015460008960028e81548110614317576143176150ca565b6000918252602090912001546040517fffffffff0000000000000000000000000000000000000000000000000000000060e08b901b1681526001600160a01b03988916600482015297909616602488015260448701949094526064860192909252608485015260a484015260c483015260e482015261010401600060405180830381600087803b1580156143aa57600080fd5b505af19250505080156143bb575060015b6144b5576144a47f00000000000000000000000000000000000000000000000000000000000000006001600160a01b03166368c13d6b7f00000000000000000000000000000000000000000000000000000000000000007f000000000000000000000000000000000000000000000000000000000000000060028a81548110614446576144466150ca565b6000918252602090912001546040517fffffffff0000000000000000000000000000000000000000000000000000000060e086901b1681526001600160a01b0393841660048201529290911660248301526044820152606401611023565b6144ae90846151b3565b905061084e565b50600061084e565b600a546000906144ee60017f0000000000000000000000000000000000000000000000000000000000000000615190565b61ffff166144fc91906151b3565b61450586613752565b10614522576145226001600387815481106140bd576140bd6150ca565b60038581548110614535576145356150ca565b9060005260206000200154600014156146b9576001546040517f49f6d2dc0000000000000000000000000000000000000000000000000000000081526001600160a01b037f0000000000000000000000000000000000000000000000000000000000000000811660048301527f00000000000000000000000000000000000000000000000000000000000000008116602483015260448201879052606482018690526084820192909252600060a482015260c481018490527f0000000000000000000000000000000000000000000000000000000000000000909116906349f6d2dc9060e4016020604051808303816000875af1925050508015614674575060408051601f3d9081017fffffffffffffffffffffffffffffffffffffffffffffffffffffffffffffffe016820190925261467191810190615232565b60015b61467f57508161084e565b8060038781548110614693576146936150ca565b9060005260206000200181905550856006600060038981548110614264576142646150ca565b7f00000000000000000000000000000000000000000000000000000000000000006001600160a01b0316636a4f76917f00000000000000000000000000000000000000000000000000000000000000007f0000000000000000000000000000000000000000000000000000000000000000878760015460008960038e81548110614745576147456150ca565b6000918252602090912001546040517fffffffff0000000000000000000000000000000000000000000000000000000060e08b901b1681526001600160a01b03988916600482015297909616602488015260448701949094526064860192909252608485015260a484015260c483015260e482015261010401600060405180830381600087803b1580156147d857600080fd5b505af19250505080156147e9575060015b6144b5576144a47f00000000000000000000000000000000000000000000000000000000000000006001600160a01b03166368c13d6b7f00000000000000000000000000000000000000000000000000000000000000007f000000000000000000000000000000000000000000000000000000000000000060038a81548110614446576144466150ca565b60006001600160a01b037f0000000000000000000000000000000000000000000000000000000000000000166148ad6020840184614f2b565b6001600160a01b031614156148fd576040808301356000908152600760205290812054906148da84613a10565b9050806148eb575060009392505050565b61084e6148f783613752565b82613883565b60408083013560009081526006602052908120549061491b84613a10565b90508061492c575060009392505050565b61084e61493883613752565b82613765565b60006106e5608083013560608401356bffffffffffffffffffffffff166151b3565b60008060095460085461497391906154c3565b6149ab906bffffffffffffffffffffffff7f00000000000000000000000000000000000000000000000000000000000000001661529c565b9050600081136149fd5760405162461bcd60e51b815260206004820152601e60248201527f4d616e676f2f71756f74655f6d696e2f5368696674556e646572666c6f7700006044820152606401610653565b919050565b8115614a9857604080516001600160a01b037f0000000000000000000000000000000000000000000000000000000000000000811682527f00000000000000000000000000000000000000000000000000000000000000001660208201529081018290527fa277cbc4d6eebe10b75c089f332890611f79a84754eeaaf06ed641c899dbafb1906060015b60405180910390a15050565b604080516001600160a01b037f0000000000000000000000000000000000000000000000000000000000000000811682527f00000000000000000000000000000000000000000000000000000000000000001660208201529081018290527f87c70da6914e41de8c96757fe2e40f6b1e13781d812e768da91b926699aba2ec90606001614a8c565b60405180604001604052806002905b6060815260200190600190039081614b2f5790505090565b60405180604001604052806002906020820280368337509192915050565b6001600160a01b0381168114614b7a57600080fd5b50565b60008060408385031215614b9057600080fd5b8235614b9b81614b65565b946020939093013593505050565b600080600060608486031215614bbe57600080fd5b8335614bc981614b65565b92506020840135614bd981614b65565b929592945050506040919091013590565b60008083601f840112614bfc57600080fd5b50813567ffffffffffffffff811115614c1457600080fd5b6020830191508360208260051b8501011115614c2f57600080fd5b9250929050565b60008060008060008060a08789031215614c4f57600080fd5b863595506020870135945060408701359350606087013567ffffffffffffffff80821115614c7c57600080fd5b818901915089604083011115614c9157600080fd5b90935060808801359080821115614ca757600080fd5b50614cb489828a01614bea565b979a9699509497509295939492505050565b8015158114614b7a57600080fd5b600060208284031215614ce657600080fd5b8135613d1381614cc6565b6020808252600090606083018382018584805b6002811015614d77578785037fffffffffffffffffffffffffffffffffffffffffffffffffffffffffffffffe0018452825180518087529087019087870190845b81811015614d6157835183529289019291890191600101614d45565b5090965050509285019291850191600101614d04565b5092979650505050505050565b600060208284031215614d9657600080fd5b5035919050565b60408101818360005b6002811015614dc5578151835260209283019290910190600101614da6565b50505092915050565b6000610120828403121561120157600080fd5b600080828403610160811215614df657600080fd5b614e008585614dce565b925060407ffffffffffffffffffffffffffffffffffffffffffffffffffffffffffffffee082011215614e3257600080fd5b50610120830190509250929050565b600080600080600080600060e0888a031215614e5c57600080fd5b8735614e6781614b65565b96506020880135614e7781614b65565b96999698505050506040850135946060810135946080820135945060a0820135935060c0909101359150565b600080600080600080600080610100898b031215614ec057600080fd5b8835614ecb81614b65565b97506020890135614edb81614b65565b979a9799505050506040860135956060810135956080820135955060a0820135945060c0820135935060e0909101359150565b60006101208284031215614f2157600080fd5b6106e28383614dce565b600060208284031215614f3d57600080fd5b8135613d1381614b65565b60008060408385031215614f5b57600080fd5b8235614f6681614cc6565b91506020830135614f7681614b65565b809150509250929050565b60008060008060608587031215614f9757600080fd5b843593506020850135614fa981614cc6565b9250604085013567ffffffffffffffff811115614fc557600080fd5b614fd187828801614bea565b95989497509550505050565b60008060008060808587031215614ff357600080fd5b8435614ffe81614b65565b9350602085013561500e81614b65565b925060408501359150606085013561502581614cc6565b939692955090935050565b60008060006060848603121561504557600080fd5b505081359360208301359350604090920135919050565b600080600080600060a0868803121561507457600080fd5b853561507f81614b65565b9450602086013561508f81614b65565b94979496505050506040830135926060810135926080909101359150565b6000602082840312156150bf57600080fd5b8151613d1381614cc6565b7f4e487b7100000000000000000000000000000000000000000000000000000000600052603260045260246000fd5b60008083357fffffffffffffffffffffffffffffffffffffffffffffffffffffffffffffffe184360301811261512e57600080fd5b83018035915067ffffffffffffffff82111561514957600080fd5b6020019150600581901b3603821315614c2f57600080fd5b7f4e487b7100000000000000000000000000000000000000000000000000000000600052601160045260246000fd5b600061ffff838116908316818110156151ab576151ab615161565b039392505050565b6000828210156151c5576151c5615161565b500390565b60007fffffffffffffffffffffffffffffffffffffffffffffffffffffffffffffffff8214156151fc576151fc615161565b5060010190565b7f4e487b7100000000000000000000000000000000000000000000000000000000600052604160045260246000fd5b60006020828403121561524457600080fd5b5051919050565b60007f800000000000000000000000000000000000000000000000000000000000000082141561527d5761527d615161565b5060000390565b6000821982111561529757615297615161565b500190565b6000808212827f7fffffffffffffffffffffffffffffffffffffffffffffffffffffffffffffff038413811516156152d6576152d6615161565b827f800000000000000000000000000000000000000000000000000000000000000003841281161561530a5761530a615161565b50500190565b6000808312837f80000000000000000000000000000000000000000000000000000000000000000183128115161561534a5761534a615161565b837f7fffffffffffffffffffffffffffffffffffffffffffffffffffffffffffffff01831381161561537e5761537e615161565b50500390565b6000806040838503121561539757600080fd5b505080516020909101519092909150565b6000817fffffffffffffffffffffffffffffffffffffffffffffffffffffffffffffffff04831182151516156153e0576153e0615161565b500290565b7f4e487b7100000000000000000000000000000000000000000000000000000000600052601260045260246000fd5b600082615423576154236153e5565b500690565b600082615437576154376153e5565b500790565b60008261544b5761544b6153e5565b500490565b600060208083528351808285015260005b8181101561547d57858101830151858201604001528201615461565b8181111561548f576000604083870101525b50601f017fffffffffffffffffffffffffffffffffffffffffffffffffffffffffffffffe016929092016040019392505050565b60007f7fffffffffffffffffffffffffffffffffffffffffffffffffffffffffffffff60008413600084138583048511828216161561550457615504615161565b7f8000000000000000000000000000000000000000000000000000000000000000600087128682058812818416161561553f5761553f615161565b6000871292508782058712848416161561555b5761555b615161565b8785058712818416161561557157615571615161565b50505092909302939250505056fea26469706673582212209bc8ea3edd405801a326cfd401d05c37d63b868166a693f6b8584ba1e973197c64736f6c634300080a0033",
  "devdoc": {
    "kind": "dev",
    "methods": {},
    "version": 1
  },
  "userdoc": {
    "events": {
      "BidAtMaxPosition(address,address,uint256)": {
        "notice": "Strat specific events "
      },
      "PosthookFail(address,address,uint256,bytes32)": {
        "notice": "Events "
      }
    },
    "kind": "user",
    "methods": {
      "NSLOTS()": {
        "notice": "Immutable fields "
      },
      "approveMangrove(address,uint256)": {
        "notice": "`this` contract needs to approve Mangrove to let it perform outbound token transfer at the end of the `makerExecute` function NB anyone can call this function"
      },
      "get_delta()": {
        "notice": "Setters and getters "
      },
      "redeemToken(address,address,uint256)": {
        "notice": "transfers token stored in `this` contract to some recipient address"
      },
      "set_shift(int256,bool,uint256[])": {
        "notice": "New positions 0<= i < s are initialized with amount[i] in base tokens if `withBase`. In quote tokens otherwise"
      },
      "set_treasury(bool,address)": {
        "notice": "Sets the account from which base (resp. quote) tokens need to be fetched or put during trade execution"
      },
      "withdrawFromMangrove(address,uint256)": {
        "notice": "withdraws ETH from the bounty vault of the Mangrove. ETH are sent to `receiver`"
      }
    },
    "notice": "In case of a partial fill of an offer at position i, the offer residual is reposted (see `Persistent` strat class)",
    "version": 1
  },
  "storageLayout": {
    "storage": [
      {
        "astId": 21941,
        "contract": "contracts/Strategies/OfferLogics/SingleUser/Deployable/MarketMaking/Mango.sol:Mango",
        "label": "admin",
        "offset": 0,
        "slot": "0",
        "type": "t_address"
      },
      {
        "astId": 11508,
        "contract": "contracts/Strategies/OfferLogics/SingleUser/Deployable/MarketMaking/Mango.sol:Mango",
        "label": "OFR_GASREQ",
        "offset": 0,
        "slot": "1",
        "type": "t_uint256"
      },
      {
        "astId": 16291,
        "contract": "contracts/Strategies/OfferLogics/SingleUser/Deployable/MarketMaking/Mango.sol:Mango",
        "label": "ASKS",
        "offset": 0,
        "slot": "2",
        "type": "t_array(t_uint256)dyn_storage"
      },
      {
        "astId": 16294,
        "contract": "contracts/Strategies/OfferLogics/SingleUser/Deployable/MarketMaking/Mango.sol:Mango",
        "label": "BIDS",
        "offset": 0,
        "slot": "3",
        "type": "t_array(t_uint256)dyn_storage"
      },
      {
        "astId": 16296,
        "contract": "contracts/Strategies/OfferLogics/SingleUser/Deployable/MarketMaking/Mango.sol:Mango",
        "label": "PENDING_BASE",
        "offset": 0,
        "slot": "4",
        "type": "t_uint256"
      },
      {
        "astId": 16298,
        "contract": "contracts/Strategies/OfferLogics/SingleUser/Deployable/MarketMaking/Mango.sol:Mango",
        "label": "PENDING_QUOTE",
        "offset": 0,
        "slot": "5",
        "type": "t_uint256"
      },
      {
        "astId": 16302,
        "contract": "contracts/Strategies/OfferLogics/SingleUser/Deployable/MarketMaking/Mango.sol:Mango",
        "label": "index_of_bid",
        "offset": 0,
        "slot": "6",
        "type": "t_mapping(t_uint256,t_uint256)"
      },
      {
        "astId": 16306,
        "contract": "contracts/Strategies/OfferLogics/SingleUser/Deployable/MarketMaking/Mango.sol:Mango",
        "label": "index_of_ask",
        "offset": 0,
        "slot": "7",
        "type": "t_mapping(t_uint256,t_uint256)"
      },
      {
        "astId": 16308,
        "contract": "contracts/Strategies/OfferLogics/SingleUser/Deployable/MarketMaking/Mango.sol:Mango",
        "label": "current_shift",
        "offset": 0,
        "slot": "8",
        "type": "t_int256"
      },
      {
        "astId": 16310,
        "contract": "contracts/Strategies/OfferLogics/SingleUser/Deployable/MarketMaking/Mango.sol:Mango",
        "label": "current_delta",
        "offset": 0,
        "slot": "9",
        "type": "t_uint256"
      },
      {
        "astId": 16312,
        "contract": "contracts/Strategies/OfferLogics/SingleUser/Deployable/MarketMaking/Mango.sol:Mango",
        "label": "current_min_buffer",
        "offset": 0,
        "slot": "10",
        "type": "t_uint256"
      },
      {
        "astId": 16315,
        "contract": "contracts/Strategies/OfferLogics/SingleUser/Deployable/MarketMaking/Mango.sol:Mango",
        "label": "paused",
        "offset": 0,
        "slot": "11",
        "type": "t_bool"
      },
      {
        "astId": 16317,
        "contract": "contracts/Strategies/OfferLogics/SingleUser/Deployable/MarketMaking/Mango.sol:Mango",
        "label": "current_base_treasury",
        "offset": 1,
        "slot": "11",
        "type": "t_address"
      },
      {
        "astId": 16319,
        "contract": "contracts/Strategies/OfferLogics/SingleUser/Deployable/MarketMaking/Mango.sol:Mango",
        "label": "current_quote_treasury",
        "offset": 0,
        "slot": "12",
        "type": "t_address"
      }
    ],
    "types": {
      "t_address": {
        "encoding": "inplace",
        "label": "address",
        "numberOfBytes": "20"
      },
      "t_array(t_uint256)dyn_storage": {
        "base": "t_uint256",
        "encoding": "dynamic_array",
        "label": "uint256[]",
        "numberOfBytes": "32"
      },
      "t_bool": {
        "encoding": "inplace",
        "label": "bool",
        "numberOfBytes": "1"
      },
      "t_int256": {
        "encoding": "inplace",
        "label": "int256",
        "numberOfBytes": "32"
      },
      "t_mapping(t_uint256,t_uint256)": {
        "encoding": "mapping",
        "key": "t_uint256",
        "label": "mapping(uint256 => uint256)",
        "numberOfBytes": "32",
        "value": "t_uint256"
      },
      "t_uint256": {
        "encoding": "inplace",
        "label": "uint256",
        "numberOfBytes": "32"
      }
    }
  }
}