{
  "address": "0xF15A2ada64A9C3C14ca11359c8F1d22B063DB2AD",
  "abi": [
    {
      "inputs": [
        {
          "internalType": "address",
          "name": "governance",
          "type": "address"
        },
        {
          "internalType": "uint256",
          "name": "gasprice",
          "type": "uint256"
        },
        {
          "internalType": "uint256",
          "name": "gasmax",
          "type": "uint256"
        }
      ],
      "stateMutability": "nonpayable",
      "type": "constructor"
    },
    {
      "anonymous": false,
      "inputs": [
        {
          "indexed": true,
          "internalType": "address",
          "name": "outbound_tkn",
          "type": "address"
        },
        {
          "indexed": true,
          "internalType": "address",
          "name": "inbound_tkn",
          "type": "address"
        },
        {
          "indexed": false,
          "internalType": "address",
          "name": "owner",
          "type": "address"
        },
        {
          "indexed": false,
          "internalType": "address",
          "name": "spender",
          "type": "address"
        },
        {
          "indexed": false,
          "internalType": "uint256",
          "name": "value",
          "type": "uint256"
        }
      ],
      "name": "Approval",
      "type": "event"
    },
    {
      "anonymous": false,
      "inputs": [
        {
          "indexed": true,
          "internalType": "address",
          "name": "maker",
          "type": "address"
        },
        {
          "indexed": false,
          "internalType": "uint256",
          "name": "amount",
          "type": "uint256"
        }
      ],
      "name": "Credit",
      "type": "event"
    },
    {
      "anonymous": false,
      "inputs": [
        {
          "indexed": true,
          "internalType": "address",
          "name": "maker",
          "type": "address"
        },
        {
          "indexed": false,
          "internalType": "uint256",
          "name": "amount",
          "type": "uint256"
        }
      ],
      "name": "Debit",
      "type": "event"
    },
    {
      "anonymous": false,
      "inputs": [],
      "name": "Kill",
      "type": "event"
    },
    {
      "anonymous": false,
      "inputs": [],
      "name": "NewMgv",
      "type": "event"
    },
    {
      "anonymous": false,
      "inputs": [
        {
          "indexed": true,
          "internalType": "address",
          "name": "outbound_tkn",
          "type": "address"
        },
        {
          "indexed": true,
          "internalType": "address",
          "name": "inbound_tkn",
          "type": "address"
        },
        {
          "indexed": false,
          "internalType": "uint256",
          "name": "id",
          "type": "uint256"
        },
        {
          "indexed": false,
          "internalType": "address",
          "name": "taker",
          "type": "address"
        },
        {
          "indexed": false,
          "internalType": "uint256",
          "name": "takerWants",
          "type": "uint256"
        },
        {
          "indexed": false,
          "internalType": "uint256",
          "name": "takerGives",
          "type": "uint256"
        },
        {
          "indexed": false,
          "internalType": "bytes32",
          "name": "mgvData",
          "type": "bytes32"
        }
      ],
      "name": "OfferFail",
      "type": "event"
    },
    {
      "anonymous": false,
      "inputs": [
        {
          "indexed": true,
          "internalType": "address",
          "name": "outbound_tkn",
          "type": "address"
        },
        {
          "indexed": true,
          "internalType": "address",
          "name": "inbound_tkn",
          "type": "address"
        },
        {
          "indexed": false,
          "internalType": "uint256",
          "name": "id",
          "type": "uint256"
        }
      ],
      "name": "OfferRetract",
      "type": "event"
    },
    {
      "anonymous": false,
      "inputs": [
        {
          "indexed": true,
          "internalType": "address",
          "name": "outbound_tkn",
          "type": "address"
        },
        {
          "indexed": true,
          "internalType": "address",
          "name": "inbound_tkn",
          "type": "address"
        },
        {
          "indexed": false,
          "internalType": "uint256",
          "name": "id",
          "type": "uint256"
        },
        {
          "indexed": false,
          "internalType": "address",
          "name": "taker",
          "type": "address"
        },
        {
          "indexed": false,
          "internalType": "uint256",
          "name": "takerWants",
          "type": "uint256"
        },
        {
          "indexed": false,
          "internalType": "uint256",
          "name": "takerGives",
          "type": "uint256"
        }
      ],
      "name": "OfferSuccess",
      "type": "event"
    },
    {
      "anonymous": false,
      "inputs": [
        {
          "indexed": true,
          "internalType": "address",
          "name": "outbound_tkn",
          "type": "address"
        },
        {
          "indexed": true,
          "internalType": "address",
          "name": "inbound_tkn",
          "type": "address"
        },
        {
          "indexed": false,
          "internalType": "address",
          "name": "maker",
          "type": "address"
        },
        {
          "indexed": false,
          "internalType": "uint256",
          "name": "wants",
          "type": "uint256"
        },
        {
          "indexed": false,
          "internalType": "uint256",
          "name": "gives",
          "type": "uint256"
        },
        {
          "indexed": false,
          "internalType": "uint256",
          "name": "gasprice",
          "type": "uint256"
        },
        {
          "indexed": false,
          "internalType": "uint256",
          "name": "gasreq",
          "type": "uint256"
        },
        {
          "indexed": false,
          "internalType": "uint256",
          "name": "id",
          "type": "uint256"
        },
        {
          "indexed": false,
          "internalType": "uint256",
          "name": "prev",
          "type": "uint256"
        }
      ],
      "name": "OfferWrite",
      "type": "event"
    },
    {
      "anonymous": false,
      "inputs": [
        {
          "indexed": true,
          "internalType": "address",
          "name": "outbound_tkn",
          "type": "address"
        },
        {
          "indexed": true,
          "internalType": "address",
          "name": "inbound_tkn",
          "type": "address"
        },
        {
          "indexed": false,
          "internalType": "address",
          "name": "taker",
          "type": "address"
        },
        {
          "indexed": false,
          "internalType": "uint256",
          "name": "takerGot",
          "type": "uint256"
        },
        {
          "indexed": false,
          "internalType": "uint256",
          "name": "takerGave",
          "type": "uint256"
        }
      ],
      "name": "OrderComplete",
      "type": "event"
    },
    {
      "anonymous": false,
      "inputs": [
        {
          "indexed": true,
          "internalType": "address",
          "name": "outbound_tkn",
          "type": "address"
        },
        {
          "indexed": true,
          "internalType": "address",
          "name": "inbound_tkn",
          "type": "address"
        },
        {
          "indexed": false,
          "internalType": "uint256",
          "name": "offerId",
          "type": "uint256"
        }
      ],
      "name": "PosthookFail",
      "type": "event"
    },
    {
      "anonymous": false,
      "inputs": [
        {
          "indexed": true,
          "internalType": "address",
          "name": "outbound_tkn",
          "type": "address"
        },
        {
          "indexed": true,
          "internalType": "address",
          "name": "inbound_tkn",
          "type": "address"
        },
        {
          "indexed": false,
          "internalType": "bool",
          "name": "value",
          "type": "bool"
        }
      ],
      "name": "SetActive",
      "type": "event"
    },
    {
      "anonymous": false,
      "inputs": [
        {
          "indexed": true,
          "internalType": "address",
          "name": "outbound_tkn",
          "type": "address"
        },
        {
          "indexed": true,
          "internalType": "address",
          "name": "inbound_tkn",
          "type": "address"
        },
        {
          "indexed": false,
          "internalType": "uint256",
          "name": "value",
          "type": "uint256"
        }
      ],
      "name": "SetDensity",
      "type": "event"
    },
    {
      "anonymous": false,
      "inputs": [
        {
          "indexed": true,
          "internalType": "address",
          "name": "outbound_tkn",
          "type": "address"
        },
        {
          "indexed": true,
          "internalType": "address",
          "name": "inbound_tkn",
          "type": "address"
        },
        {
          "indexed": false,
          "internalType": "uint256",
          "name": "value",
          "type": "uint256"
        }
      ],
      "name": "SetFee",
      "type": "event"
    },
    {
      "anonymous": false,
      "inputs": [
        {
          "indexed": true,
          "internalType": "address",
          "name": "outbound_tkn",
          "type": "address"
        },
        {
          "indexed": true,
          "internalType": "address",
          "name": "inbound_tkn",
          "type": "address"
        },
        {
          "indexed": false,
          "internalType": "uint256",
          "name": "overhead_gasbase",
          "type": "uint256"
        },
        {
          "indexed": false,
          "internalType": "uint256",
          "name": "offer_gasbase",
          "type": "uint256"
        }
      ],
      "name": "SetGasbase",
      "type": "event"
    },
    {
      "anonymous": false,
      "inputs": [
        {
          "indexed": false,
          "internalType": "uint256",
          "name": "value",
          "type": "uint256"
        }
      ],
      "name": "SetGasmax",
      "type": "event"
    },
    {
      "anonymous": false,
      "inputs": [
        {
          "indexed": false,
          "internalType": "uint256",
          "name": "value",
          "type": "uint256"
        }
      ],
      "name": "SetGasprice",
      "type": "event"
    },
    {
      "anonymous": false,
      "inputs": [
        {
          "indexed": false,
          "internalType": "address",
          "name": "value",
          "type": "address"
        }
      ],
      "name": "SetGovernance",
      "type": "event"
    },
    {
      "anonymous": false,
      "inputs": [
        {
          "indexed": false,
          "internalType": "address",
          "name": "value",
          "type": "address"
        }
      ],
      "name": "SetMonitor",
      "type": "event"
    },
    {
      "anonymous": false,
      "inputs": [
        {
          "indexed": false,
          "internalType": "bool",
          "name": "value",
          "type": "bool"
        }
      ],
      "name": "SetNotify",
      "type": "event"
    },
    {
      "anonymous": false,
      "inputs": [
        {
          "indexed": false,
          "internalType": "bool",
          "name": "value",
          "type": "bool"
        }
      ],
      "name": "SetUseOracle",
      "type": "event"
    },
    {
      "anonymous": false,
      "inputs": [
        {
          "indexed": false,
          "internalType": "address",
          "name": "value",
          "type": "address"
        }
      ],
      "name": "SetVault",
      "type": "event"
    },
    {
      "inputs": [],
      "name": "DOMAIN_SEPARATOR",
      "outputs": [
        {
          "internalType": "bytes32",
          "name": "",
          "type": "bytes32"
        }
      ],
      "stateMutability": "view",
      "type": "function"
    },
    {
      "inputs": [],
      "name": "PERMIT_TYPEHASH",
      "outputs": [
        {
          "internalType": "bytes32",
          "name": "",
          "type": "bytes32"
        }
      ],
      "stateMutability": "view",
      "type": "function"
    },
    {
      "inputs": [
        {
          "internalType": "address",
          "name": "outbound_tkn",
          "type": "address"
        },
        {
          "internalType": "address",
          "name": "inbound_tkn",
          "type": "address"
        },
        {
          "internalType": "uint256",
          "name": "fee",
          "type": "uint256"
        },
        {
          "internalType": "uint256",
          "name": "density",
          "type": "uint256"
        },
        {
          "internalType": "uint256",
          "name": "overhead_gasbase",
          "type": "uint256"
        },
        {
          "internalType": "uint256",
          "name": "offer_gasbase",
          "type": "uint256"
        }
      ],
      "name": "activate",
      "outputs": [],
      "stateMutability": "nonpayable",
      "type": "function"
    },
    {
      "inputs": [
        {
          "internalType": "address",
          "name": "",
          "type": "address"
        },
        {
          "internalType": "address",
          "name": "",
          "type": "address"
        },
        {
          "internalType": "address",
          "name": "",
          "type": "address"
        },
        {
          "internalType": "address",
          "name": "",
          "type": "address"
        }
      ],
      "name": "allowances",
      "outputs": [
        {
          "internalType": "uint256",
          "name": "",
          "type": "uint256"
        }
      ],
      "stateMutability": "view",
      "type": "function"
    },
    {
      "inputs": [
        {
          "internalType": "address",
          "name": "outbound_tkn",
          "type": "address"
        },
        {
          "internalType": "address",
          "name": "inbound_tkn",
          "type": "address"
        },
        {
          "internalType": "address",
          "name": "spender",
          "type": "address"
        },
        {
          "internalType": "uint256",
          "name": "value",
          "type": "uint256"
        }
      ],
      "name": "approve",
      "outputs": [
        {
          "internalType": "bool",
          "name": "",
          "type": "bool"
        }
      ],
      "stateMutability": "nonpayable",
      "type": "function"
    },
    {
      "inputs": [
        {
          "internalType": "address",
          "name": "",
          "type": "address"
        }
      ],
      "name": "balanceOf",
      "outputs": [
        {
          "internalType": "uint256",
          "name": "",
          "type": "uint256"
        }
      ],
      "stateMutability": "view",
      "type": "function"
    },
    {
      "inputs": [
        {
          "internalType": "address",
          "name": "outbound_tkn",
          "type": "address"
        },
        {
          "internalType": "address",
          "name": "inbound_tkn",
          "type": "address"
        }
      ],
      "name": "best",
      "outputs": [
        {
          "internalType": "uint256",
          "name": "",
          "type": "uint256"
        }
      ],
      "stateMutability": "view",
      "type": "function"
    },
    {
      "inputs": [
        {
          "internalType": "address",
          "name": "outbound_tkn",
          "type": "address"
        },
        {
          "internalType": "address",
          "name": "inbound_tkn",
          "type": "address"
        }
      ],
      "name": "config",
      "outputs": [
        {
          "internalType": "bytes32",
          "name": "_global",
          "type": "bytes32"
        },
        {
          "internalType": "bytes32",
          "name": "_local",
          "type": "bytes32"
        }
      ],
      "stateMutability": "view",
      "type": "function"
    },
    {
      "inputs": [
        {
          "internalType": "address",
          "name": "outbound_tkn",
          "type": "address"
        },
        {
          "internalType": "address",
          "name": "inbound_tkn",
          "type": "address"
        }
      ],
      "name": "deactivate",
      "outputs": [],
      "stateMutability": "nonpayable",
      "type": "function"
    },
    {
      "inputs": [
        {
          "components": [
            {
              "internalType": "address",
              "name": "outbound_tkn",
              "type": "address"
            },
            {
              "internalType": "address",
              "name": "inbound_tkn",
              "type": "address"
            },
            {
              "internalType": "uint256",
              "name": "offerId",
              "type": "uint256"
            },
            {
              "internalType": "bytes32",
              "name": "offer",
              "type": "bytes32"
            },
            {
              "internalType": "uint256",
              "name": "wants",
              "type": "uint256"
            },
            {
              "internalType": "uint256",
              "name": "gives",
              "type": "uint256"
            },
            {
              "internalType": "bytes32",
              "name": "offerDetail",
              "type": "bytes32"
            },
            {
              "internalType": "bytes32",
              "name": "global",
              "type": "bytes32"
            },
            {
              "internalType": "bytes32",
              "name": "local",
              "type": "bytes32"
            }
          ],
          "internalType": "struct MgvLib.SingleOrder",
          "name": "sor",
          "type": "tuple"
        },
        {
          "internalType": "address",
          "name": "taker",
          "type": "address"
        }
      ],
      "name": "flashloan",
      "outputs": [
        {
          "internalType": "uint256",
          "name": "gasused",
          "type": "uint256"
        }
      ],
      "stateMutability": "nonpayable",
      "type": "function"
    },
    {
      "inputs": [
        {
          "internalType": "address",
          "name": "maker",
          "type": "address"
        }
      ],
      "name": "fund",
      "outputs": [],
      "stateMutability": "payable",
      "type": "function"
    },
    {
      "inputs": [],
      "name": "fund",
      "outputs": [],
      "stateMutability": "payable",
      "type": "function"
    },
    {
      "inputs": [],
      "name": "governance",
      "outputs": [
        {
          "internalType": "address",
          "name": "",
          "type": "address"
        }
      ],
      "stateMutability": "view",
      "type": "function"
    },
    {
      "inputs": [
        {
          "internalType": "bytes32",
          "name": "offer",
          "type": "bytes32"
        }
      ],
      "name": "isLive",
      "outputs": [
        {
          "internalType": "bool",
          "name": "",
          "type": "bool"
        }
      ],
      "stateMutability": "pure",
      "type": "function"
    },
    {
      "inputs": [],
      "name": "kill",
      "outputs": [],
      "stateMutability": "nonpayable",
      "type": "function"
    },
    {
      "inputs": [
        {
          "internalType": "address",
          "name": "outbound_tkn",
          "type": "address"
        },
        {
          "internalType": "address",
          "name": "inbound_tkn",
          "type": "address"
        }
      ],
      "name": "locked",
      "outputs": [
        {
          "internalType": "bool",
          "name": "",
          "type": "bool"
        }
      ],
      "stateMutability": "view",
      "type": "function"
    },
    {
      "inputs": [
        {
          "internalType": "address",
          "name": "outbound_tkn",
          "type": "address"
        },
        {
          "internalType": "address",
          "name": "inbound_tkn",
          "type": "address"
        },
        {
          "internalType": "uint256",
          "name": "takerWants",
          "type": "uint256"
        },
        {
          "internalType": "uint256",
          "name": "takerGives",
          "type": "uint256"
        },
        {
          "internalType": "bool",
          "name": "fillWants",
          "type": "bool"
        }
      ],
      "name": "marketOrder",
      "outputs": [
        {
          "internalType": "uint256",
          "name": "",
          "type": "uint256"
        },
        {
          "internalType": "uint256",
          "name": "",
          "type": "uint256"
        }
      ],
      "stateMutability": "nonpayable",
      "type": "function"
    },
    {
      "inputs": [
        {
          "internalType": "address",
          "name": "outbound_tkn",
          "type": "address"
        },
        {
          "internalType": "address",
          "name": "inbound_tkn",
          "type": "address"
        },
        {
          "internalType": "uint256",
          "name": "takerWants",
          "type": "uint256"
        },
        {
          "internalType": "uint256",
          "name": "takerGives",
          "type": "uint256"
        },
        {
          "internalType": "bool",
          "name": "fillWants",
          "type": "bool"
        },
        {
          "internalType": "address",
          "name": "taker",
          "type": "address"
        }
      ],
      "name": "marketOrderFor",
      "outputs": [
        {
          "internalType": "uint256",
          "name": "takerGot",
          "type": "uint256"
        },
        {
          "internalType": "uint256",
          "name": "takerGave",
          "type": "uint256"
        }
      ],
      "stateMutability": "nonpayable",
      "type": "function"
    },
    {
      "inputs": [
        {
          "internalType": "address",
          "name": "outbound_tkn",
          "type": "address"
        },
        {
          "internalType": "address",
          "name": "inbound_tkn",
          "type": "address"
        },
        {
          "internalType": "uint256",
          "name": "wants",
          "type": "uint256"
        },
        {
          "internalType": "uint256",
          "name": "gives",
          "type": "uint256"
        },
        {
          "internalType": "uint256",
          "name": "gasreq",
          "type": "uint256"
        },
        {
          "internalType": "uint256",
          "name": "gasprice",
          "type": "uint256"
        },
        {
          "internalType": "uint256",
          "name": "pivotId",
          "type": "uint256"
        }
      ],
      "name": "newOffer",
      "outputs": [
        {
          "internalType": "uint256",
          "name": "",
          "type": "uint256"
        }
      ],
      "stateMutability": "nonpayable",
      "type": "function"
    },
    {
      "inputs": [
        {
          "internalType": "address",
          "name": "",
          "type": "address"
        }
      ],
      "name": "nonces",
      "outputs": [
        {
          "internalType": "uint256",
          "name": "",
          "type": "uint256"
        }
      ],
      "stateMutability": "view",
      "type": "function"
    },
    {
      "inputs": [
        {
          "internalType": "address",
          "name": "",
          "type": "address"
        },
        {
          "internalType": "address",
          "name": "",
          "type": "address"
        },
        {
          "internalType": "uint256",
          "name": "",
          "type": "uint256"
        }
      ],
      "name": "offerDetails",
      "outputs": [
        {
          "internalType": "bytes32",
          "name": "",
          "type": "bytes32"
        }
      ],
      "stateMutability": "view",
      "type": "function"
    },
    {
      "inputs": [
        {
          "internalType": "address",
          "name": "outbound_tkn",
          "type": "address"
        },
        {
          "internalType": "address",
          "name": "inbound_tkn",
          "type": "address"
        },
        {
          "internalType": "uint256",
          "name": "offerId",
          "type": "uint256"
        }
      ],
      "name": "offerInfo",
      "outputs": [
        {
          "components": [
            {
              "internalType": "uint256",
              "name": "prev",
              "type": "uint256"
            },
            {
              "internalType": "uint256",
              "name": "next",
              "type": "uint256"
            },
            {
              "internalType": "uint256",
              "name": "gives",
              "type": "uint256"
            },
            {
              "internalType": "uint256",
              "name": "wants",
              "type": "uint256"
            },
            {
              "internalType": "uint256",
              "name": "gasprice",
              "type": "uint256"
            }
          ],
          "internalType": "struct MgvLib.Offer",
          "name": "",
          "type": "tuple"
        },
        {
          "components": [
            {
              "internalType": "address",
              "name": "maker",
              "type": "address"
            },
            {
              "internalType": "uint256",
              "name": "gasreq",
              "type": "uint256"
            },
            {
              "internalType": "uint256",
              "name": "overhead_gasbase",
              "type": "uint256"
            },
            {
              "internalType": "uint256",
              "name": "offer_gasbase",
              "type": "uint256"
            }
          ],
          "internalType": "struct MgvLib.OfferDetail",
          "name": "",
          "type": "tuple"
        }
      ],
      "stateMutability": "view",
      "type": "function"
    },
    {
      "inputs": [
        {
          "internalType": "address",
          "name": "",
          "type": "address"
        },
        {
          "internalType": "address",
          "name": "",
          "type": "address"
        },
        {
          "internalType": "uint256",
          "name": "",
          "type": "uint256"
        }
      ],
      "name": "offers",
      "outputs": [
        {
          "internalType": "bytes32",
          "name": "",
          "type": "bytes32"
        }
      ],
      "stateMutability": "view",
      "type": "function"
    },
    {
      "inputs": [
        {
          "internalType": "address",
          "name": "outbound_tkn",
          "type": "address"
        },
        {
          "internalType": "address",
          "name": "inbound_tkn",
          "type": "address"
        },
        {
          "internalType": "address",
          "name": "owner",
          "type": "address"
        },
        {
          "internalType": "address",
          "name": "spender",
          "type": "address"
        },
        {
          "internalType": "uint256",
          "name": "value",
          "type": "uint256"
        },
        {
          "internalType": "uint256",
          "name": "deadline",
          "type": "uint256"
        },
        {
          "internalType": "uint8",
          "name": "v",
          "type": "uint8"
        },
        {
          "internalType": "bytes32",
          "name": "r",
          "type": "bytes32"
        },
        {
          "internalType": "bytes32",
          "name": "s",
          "type": "bytes32"
        }
      ],
      "name": "permit",
      "outputs": [],
      "stateMutability": "nonpayable",
      "type": "function"
    },
    {
      "inputs": [
        {
          "internalType": "address",
          "name": "outbound_tkn",
          "type": "address"
        },
        {
          "internalType": "address",
          "name": "inbound_tkn",
          "type": "address"
        },
        {
          "internalType": "uint256",
          "name": "offerId",
          "type": "uint256"
        },
        {
          "internalType": "bool",
          "name": "deprovision",
          "type": "bool"
        }
      ],
      "name": "retractOffer",
      "outputs": [],
      "stateMutability": "nonpayable",
      "type": "function"
    },
    {
      "inputs": [
        {
          "internalType": "address",
          "name": "outbound_tkn",
          "type": "address"
        },
        {
          "internalType": "address",
          "name": "inbound_tkn",
          "type": "address"
        },
        {
          "internalType": "uint256",
          "name": "density",
          "type": "uint256"
        }
      ],
      "name": "setDensity",
      "outputs": [],
      "stateMutability": "nonpayable",
      "type": "function"
    },
    {
      "inputs": [
        {
          "internalType": "address",
          "name": "outbound_tkn",
          "type": "address"
        },
        {
          "internalType": "address",
          "name": "inbound_tkn",
          "type": "address"
        },
        {
          "internalType": "uint256",
          "name": "fee",
          "type": "uint256"
        }
      ],
      "name": "setFee",
      "outputs": [],
      "stateMutability": "nonpayable",
      "type": "function"
    },
    {
      "inputs": [
        {
          "internalType": "address",
          "name": "outbound_tkn",
          "type": "address"
        },
        {
          "internalType": "address",
          "name": "inbound_tkn",
          "type": "address"
        },
        {
          "internalType": "uint256",
          "name": "overhead_gasbase",
          "type": "uint256"
        },
        {
          "internalType": "uint256",
          "name": "offer_gasbase",
          "type": "uint256"
        }
      ],
      "name": "setGasbase",
      "outputs": [],
      "stateMutability": "nonpayable",
      "type": "function"
    },
    {
      "inputs": [
        {
          "internalType": "uint256",
          "name": "gasmax",
          "type": "uint256"
        }
      ],
      "name": "setGasmax",
      "outputs": [],
      "stateMutability": "nonpayable",
      "type": "function"
    },
    {
      "inputs": [
        {
          "internalType": "uint256",
          "name": "gasprice",
          "type": "uint256"
        }
      ],
      "name": "setGasprice",
      "outputs": [],
      "stateMutability": "nonpayable",
      "type": "function"
    },
    {
      "inputs": [
        {
          "internalType": "address",
          "name": "governanceAddress",
          "type": "address"
        }
      ],
      "name": "setGovernance",
      "outputs": [],
      "stateMutability": "nonpayable",
      "type": "function"
    },
    {
      "inputs": [
        {
          "internalType": "address",
          "name": "monitor",
          "type": "address"
        }
      ],
      "name": "setMonitor",
      "outputs": [],
      "stateMutability": "nonpayable",
      "type": "function"
    },
    {
      "inputs": [
        {
          "internalType": "bool",
          "name": "notify",
          "type": "bool"
        }
      ],
      "name": "setNotify",
      "outputs": [],
      "stateMutability": "nonpayable",
      "type": "function"
    },
    {
      "inputs": [
        {
          "internalType": "bool",
          "name": "useOracle",
          "type": "bool"
        }
      ],
      "name": "setUseOracle",
      "outputs": [],
      "stateMutability": "nonpayable",
      "type": "function"
    },
    {
      "inputs": [
        {
          "internalType": "address",
          "name": "vaultAddress",
          "type": "address"
        }
      ],
      "name": "setVault",
      "outputs": [],
      "stateMutability": "nonpayable",
      "type": "function"
    },
    {
      "inputs": [
        {
          "internalType": "address",
          "name": "outbound_tkn",
          "type": "address"
        },
        {
          "internalType": "address",
          "name": "inbound_tkn",
          "type": "address"
        },
        {
          "internalType": "uint256[4][]",
          "name": "targets",
          "type": "uint256[4][]"
        },
        {
          "internalType": "bool",
          "name": "fillWants",
          "type": "bool"
        }
      ],
      "name": "snipes",
      "outputs": [
        {
          "internalType": "uint256",
          "name": "",
          "type": "uint256"
        },
        {
          "internalType": "uint256",
          "name": "",
          "type": "uint256"
        },
        {
          "internalType": "uint256",
          "name": "",
          "type": "uint256"
        }
      ],
      "stateMutability": "nonpayable",
      "type": "function"
    },
    {
      "inputs": [
        {
          "internalType": "address",
          "name": "outbound_tkn",
          "type": "address"
        },
        {
          "internalType": "address",
          "name": "inbound_tkn",
          "type": "address"
        },
        {
          "internalType": "uint256[4][]",
          "name": "targets",
          "type": "uint256[4][]"
        },
        {
          "internalType": "bool",
          "name": "fillWants",
          "type": "bool"
        },
        {
          "internalType": "address",
          "name": "taker",
          "type": "address"
        }
      ],
      "name": "snipesFor",
      "outputs": [
        {
          "internalType": "uint256",
          "name": "successes",
          "type": "uint256"
        },
        {
          "internalType": "uint256",
          "name": "takerGot",
          "type": "uint256"
        },
        {
          "internalType": "uint256",
          "name": "takerGave",
          "type": "uint256"
        }
      ],
      "stateMutability": "nonpayable",
      "type": "function"
    },
    {
      "inputs": [
        {
          "internalType": "address",
          "name": "outbound_tkn",
          "type": "address"
        },
        {
          "internalType": "address",
          "name": "inbound_tkn",
          "type": "address"
        },
        {
          "internalType": "uint256",
          "name": "wants",
          "type": "uint256"
        },
        {
          "internalType": "uint256",
          "name": "gives",
          "type": "uint256"
        },
        {
          "internalType": "uint256",
          "name": "gasreq",
          "type": "uint256"
        },
        {
          "internalType": "uint256",
          "name": "gasprice",
          "type": "uint256"
        },
        {
          "internalType": "uint256",
          "name": "pivotId",
          "type": "uint256"
        },
        {
          "internalType": "uint256",
          "name": "offerId",
          "type": "uint256"
        }
      ],
      "name": "updateOffer",
      "outputs": [],
      "stateMutability": "nonpayable",
      "type": "function"
    },
    {
      "inputs": [],
      "name": "vault",
      "outputs": [
        {
          "internalType": "address",
          "name": "",
          "type": "address"
        }
      ],
      "stateMutability": "view",
      "type": "function"
    },
    {
      "inputs": [
        {
          "internalType": "uint256",
          "name": "amount",
          "type": "uint256"
        }
      ],
      "name": "withdraw",
      "outputs": [
        {
          "internalType": "bool",
          "name": "noRevert",
          "type": "bool"
        }
      ],
      "stateMutability": "nonpayable",
      "type": "function"
    },
    {
      "stateMutability": "payable",
      "type": "receive"
    }
  ],
  "transactionHash": "0x22b08e36364647e58872675f3c94ce6f28c7bd0b90a1e7f36218e6d7f12c4247",
  "args": [
    "0x47897EE61498D02B18794601Ed3A71896A1Ff894",
    40,
    500000
  ],
  "solcInputHash": "90e5b35a924c0fc976db8d4828484aa8",
  "bytecode": "0x60a06040523480156200001157600080fd5b5060405162005b6438038062005b6483398101604081905262000034916200037d565b828282604051806040016040528060088152602001674d616e67726f766560c01b815250808484847f72201d073f249840099a96530e189c4291c1852040b1e96ff1f606db656be4ff60405160405180910390a162000093836200015b565b6200009e82620001bd565b620000a9816200024c565b620000b483620002ce565b5050815160208084019190912060408051808201825260018152603160f81b908401525146935062000130927f8b73c3c69bb8fe3d512ecc4cf759cc79239f7b179b0ffacaa9a75d522b39400f92917fc89efdaa54c0f20c7adf612882df0950f5a951637e0307cdcb4c672f298b8bc6918691309101620003d4565b60408051601f19818403018152919052805160209091012060805250620004a1975050505050505050565b6200016562000325565b600080546001600160a01b0319166001600160a01b0383161790556040517fd459c7242e23d490831b5676a611c4342d899d28f342d89ae80793e56a930f3090620001b2908390620003c0565b60405180910390a150565b620001c762000325565b620001d28162000374565b620001fa5760405162461bcd60e51b8152600401620001f19062000400565b60405180910390fd5b60b060f082901b901c60001b61ffff60401b1960001b60015416176001819055507fdbebd814ae648f654dcc50c734aa76e55a32e96b7d85303a08e2ddf11874a0dd81604051620001b2919062000498565b6200025662000325565b808162ffffff16146200027d5760405162461bcd60e51b8152600401620001f19062000437565b6001805462ffffff60281b191667ffffff0000000000602884901b161790556040517f8cdff0cd5ed2543bcdf7eb93d8ec1c23626e579925f4531beeef15d84cf78d1890620001b290839062000498565b620002d862000325565b600380546001600160a01b0319166001600160a01b0383161790556040517f24a8c4807b324a269a51827c3446b8ac1cc13810d7d0c0ca1efafabddd7b621990620001b2908390620003c0565b6003546001600160a01b03163314806200033e57503330145b806200035357506003546001600160a01b0316155b620003725760405162461bcd60e51b8152600401620001f1906200046e565b565b61ffff81161490565b60008060006060848603121562000392578283fd5b83516001600160a01b0381168114620003a9578384fd5b602085015160409095015190969495509392505050565b6001600160a01b0391909116815260200190565b9485526020850193909352604084019190915260608301526001600160a01b0316608082015260a00190565b6020808252601a908201527f6d67762f636f6e6669672f67617370726963652f313662697473000000000000604082015260600190565b60208082526018908201527f6d67762f636f6e6669672f6761736d61782f3234626974730000000000000000604082015260600190565b60208082526010908201526f1b59dd8bdd5b985d5d1a1bdc9a5e995960821b604082015260600190565b90815260200190565b6080516156a3620004c16000398061088e52806114b052506156a36000f3fe6080604052600436106102bf5760003560e01c80638c66715c1161016e578063cbf75c9a116100cb578063def5ddaa1161007f578063fbfa77cf11610064578063fbfa77cf1461077e578063fbffe5fd14610793578063fcaa7e2e146107b3576102cf565b8063def5ddaa1461073e578063fbb669101461075e576102cf565b8063d0ee5099116100b0578063d0ee5099146106de578063db20266f146106fe578063dc7e98df1461071e576102cf565b8063cbf75c9a1461069e578063cedd3a0e146106be576102cf565b8063b09d2a1611610122578063b2b1205711610107578063b2b1205714610656578063b60d428814610676578063c7bb25d01461067e576102cf565b8063b09d2a1614610616578063b24d1ee714610636576102cf565b806395999ee31161015357806395999ee3146105b6578063ab033ea9146105d6578063ad97db1b146105f6576102cf565b80638c66715c1461056857806390839c0714610596576102cf565b80635aa6e6751161021c5780636a4f7691116101d057806370a08231116101b557806370a08231146105085780637ecebe001461052857806382b903a814610548576102cf565b80636a4f7691146104ba5780636d27de67146104da576102cf565b80636804f613116102015780636804f6131461045a5780636817031b1461047a57806368c13d6b1461049a576102cf565b80635aa6e675146104185780635cd823901461043a576102cf565b806346e142fa116102735780635722647b116102585780635722647b146103b857806359eba454146103d85780635a611f4e146103f8576102cf565b806346e142fa1461036957806349f6d2dc14610398576102cf565b806330adf81f116102a457806330adf81f1461031d5780633644e5151461033f57806341c0e1b514610354576102cf565b806323024408146102d45780632e1a7d4d146102e7576102cf565b366102cf576102cd336107d3565b005b600080fd5b6102cd6102e2366004614526565b6107d3565b3480156102f357600080fd5b50610307610302366004614a5e565b6107fa565b6040516103149190614c9a565b60405180910390f35b34801561032957600080fd5b50610332610868565b6040516103149190614ca5565b34801561034b57600080fd5b5061033261088c565b34801561036057600080fd5b506102cd6108b0565b34801561037557600080fd5b506103896103843660046146a3565b610912565b60405161031493929190615649565b3480156103a457600080fd5b506103326103b3366004614963565b610936565b3480156103c457600080fd5b506103326103d336600461479e565b610a84565b3480156103e457600080fd5b506103076103f3366004614659565b610aa7565b34801561040457600080fd5b506102cd610413366004614a26565b610b30565b34801561042457600080fd5b5061042d610bc8565b6040516103149190614bd3565b34801561044657600080fd5b506102cd610455366004614526565b610bd7565b34801561046657600080fd5b506102cd610475366004614a26565b610c56565b34801561048657600080fd5b506102cd610495366004614526565b610ce3565b3480156104a657600080fd5b506103326104b536600461479e565b610d4e565b3480156104c657600080fd5b506102cd6104d53660046149c0565b610d71565b3480156104e657600080fd5b506104fa6104f53660046148b4565b610e74565b604051610314929190614cf4565b34801561051457600080fd5b50610332610523366004614526565b610ea1565b34801561053457600080fd5b50610332610543366004614526565b610eb3565b34801561055457600080fd5b506102cd61056336600461490f565b610ec5565b34801561057457600080fd5b5061058861058336600461479e565b610f9f565b6040516103149291906154c9565b3480156105a257600080fd5b506102cd6105b1366004614827565b611093565b3480156105c257600080fd5b506102cd6105d1366004614a5e565b6111d2565b3480156105e257600080fd5b506102cd6105f1366004614526565b611266565b34801561060257600080fd5b506102cd6106113660046147d9565b6112d1565b34801561062257600080fd5b506102cd6106313660046145c5565b611454565b34801561064257600080fd5b50610332610651366004614a76565b6116f7565b34801561066257600080fd5b5061038961067136600461471a565b61180d565b6102cd61183f565b34801561068a57600080fd5b50610332610699366004614572565b61184a565b3480156106aa57600080fd5b506104fa6106b9366004614540565b611876565b3480156106ca57600080fd5b506103076106d9366004614a5e565b6119f1565b3480156106ea57600080fd5b506102cd6106f9366004614540565b611a0c565b34801561070a57600080fd5b50610307610719366004614540565b611a9a565b34801561072a57600080fd5b506102cd61073936600461479e565b611acd565b34801561074a57600080fd5b50610332610759366004614540565b611ba9565b34801561076a57600080fd5b506102cd61077936600461479e565b611bdc565b34801561078a57600080fd5b5061042d611cac565b34801561079f57600080fd5b506104fa6107ae366004614868565b611cbb565b3480156107bf57600080fd5b506102cd6107ce366004614a5e565b611cda565b60006107e0600080611876565b5090506107ec81611d71565b6107f68234611d99565b5050565b60006108063383611df3565b336001600160a01b03168260405161081d90614bd0565b60006040518083038185875af1925050503d806000811461085a576040519150601f19603f3d011682016040523d82523d6000602084013e61085f565b606091505b50909392505050565b7fb7bf278e51ab1478b10530c0300f911d9ed3562fc93ab5e6593368fe23c077a281565b7f000000000000000000000000000000000000000000000000000000000000000081565b6108b8611e86565b600180547fffffffffffffffffffffffffffffffffffffffffffffffffffffff00ffffffff166401000000001790556040517fbe26733c2bf6ff3ea5ba8cfe744422bd49052ff9ed5685c9e81e6f9321dbaddd90600090a1565b6000806000610925888888888833611ece565b925092509250955095509592505050565b600061094061434f565b61094a8989611876565b61012083018190526101008301919091526109649061204d565b610978816101000151826101200151612072565b61012081015160601c62ffffff90811660010160808301819052908116146109bb5760405162461bcd60e51b81526004016109b2906152a3565b60405180910390fd5b6080810151610120820180517fffffffffffffffffffffffffffffffffff000000ffffffffffffffffffffffff166effffff000000000000000000000000606093841b161790526001600160a01b03808b1683528916602083015260408201889052810186905260a0810185905260c0810184905260e08101839052610a4281600061209c565b61012081015181516001600160a01b03908116600090815260026020908152604080832082870151909416835292905220556080015198975050505050505050565b600560209081526000938452604080852082529284528284209052825290205481565b6001600160a01b038085166000818152600760209081526040808320888616808552908352818420338086529084528285209689168552959092528083208690555191939092917f6e791f456e6f5034d4928b936c32bf7e650d8228543ce7985d632ab03934837d91610b1d9188908890614be7565b60405180910390a3506001949350505050565b610b38611e86565b600081610b46576000610b49565b60015b600180547fffffffffffffffffffffffffffffffffffffffffff00ffffffffffffffffffff166aff00000000000000000000605084901b1617905560405160ff9190911691507f9b84fe4d9ffc14a6f7ec50c18884ee0d4bb8165aa718a28558df12ab4bd32b1490610bbc908490614c9a565b60405180910390a15050565b6003546001600160a01b031681565b610bdf611e86565b600180546bffffffffffffffffffffffff167fffffffffffffffffffffffffffffffffffffffff000000000000000000000000606084901b161790556040517ff592e42c32883b35bebfbf9d9b801570a25d5ccbba452310746ad2cfd20d548f90610c4b908390614bd3565b60405180910390a150565b610c5e611e86565b600081610c6c576000610c6f565b60015b600180547fffffffffffffffffffffffffffffffffffffffff00ffffffffffffffffffffff166bff0000000000000000000000605884901b1617905560405160ff9190911691507fbf39fbfab835c119637f4dbc4fb0f428c559c210200405d1ec25ddb50a93f9d490610bbc908490614c9a565b610ceb611e86565b600080547fffffffffffffffffffffffff0000000000000000000000000000000000000000166001600160a01b0383161790556040517fd459c7242e23d490831b5676a611c4342d899d28f342d89ae80793e56a930f3090610c4b908390614bd3565b600460209081526000938452604080852082529284528284209052825290205481565b610d7961434f565b610d838989611876565b6101208301819052610100830191909152610d9d9061204d565b610db1816101000151826101200151612072565b6001600160a01b03808a16808352908916602080840182905260408085018b9052606085018a90526080850186905260a0850189905260c0850188905260e085018790526000938452600482528084209284529181528183208584529052902054610140820152610120810151610e2982600161209c565b8161012001518114610e685761012082015182516001600160a01b03908116600090815260026020908152604080832082880151909416835292905220555b50505050505050505050565b600080610e8588888888888861272f565b9092509050610e968888858461294c565b965096945050505050565b60066020526000908152604090205481565b60086020526000908152604090205481565b610ecd611e86565b6001600160a01b038681166000818152600260209081526040808320948a16808452949091529081902080547effffffffffffffffffffffffffffffffffffffffffffffffffffffffffffff167f0100000000000000000000000000000000000000000000000000000000000000179055517fc4ad6e84469caa93e473acfa6c029fcf9d3757d8e268e6233c150771e9f88da690610f6d90600190614c9a565b60405180910390a3610f80868686611acd565b610f8b868685611bdc565b610f9786868484611093565b505050505050565b610fa76143ab565b610faf6143da565b50506001600160a01b038084166000818152600460209081526040808320948716808452948252808320868452825280832054815160a08101835260e882901c815262ffffff60d083901c8116828601526bffffffffffffffffffffffff601084901c811683860152607084901c1660608084019190915261ffff90931660808084019190915296865260058552838620978652968452828520888652845293829020548251958601835280821c8652604881901c871693860193909352603083901c86169185019190915260189190911c90931692820192909252935093915050565b61109b611e86565b818262ffffff16146110bf5760405162461bcd60e51b81526004016109b290614d20565b808162ffffff16146110e35760405162461bcd60e51b81526004016109b29061526c565b6001600160a01b038481166000818152600260209081526040808320948816808452949091529081902080547fffffffffffffffffffff000000ffffffffffffffffffffffffffffffffffffff1675ffffff00000000000000000000000000000000000000609887901b16177fffffffffffffff000000ffffffffffffffffffffffffffffffffffffffffffff1678ffffff0000000000000000000000000000000000000000000060b088901b16179055517fab3985caa4bbb5d30480eacd1f3620dc24c34e3e35a5348cbfd63106110e7334906111c49086908690614cf4565b60405180910390a350505050565b6111da611e86565b808162ffffff16146111fe5760405162461bcd60e51b81526004016109b290615235565b600180547fffffffffffffffffffffffffffffffffffffffffffffffff000000ffffffffff1667ffffff0000000000602884901b161790556040517f8cdff0cd5ed2543bcdf7eb93d8ec1c23626e579925f4531beeef15d84cf78d1890610c4b908390614ca5565b61126e611e86565b600380547fffffffffffffffffffffffff0000000000000000000000000000000000000000166001600160a01b0383161790556040517f24a8c4807b324a269a51827c3446b8ac1cc13810d7d0c0ca1efafabddd7b621990610c4b908390614bd3565b60006112dd8585611876565b9150506112e98161204d565b6001600160a01b038086166000818152600460209081526040808320948916808452948252808320888452825280832054938352600582528083209483529381528382208783529052919091205433606082901c1461135a5760405162461bcd60e51b81526004016109b2906151fe565b611363826119f1565b156113b75782611383888860e886901c62ffffff60d088901c16856129e6565b93508381146113b5576001600160a01b038089166000908152600260209081526040808320938b168352929052208490555b505b6113c48787878588612b12565b83156114005761ffff8216604882901c62ffffff908116603084901c821601601884901c919091160102633b9aca00026113fe3382611d99565b505b856001600160a01b0316876001600160a01b03167fe2ce51fba856682424155a2d89b2ad1d2adde6ea0a9e3115b4b474cd6cb1798b876040516114439190614ca5565b60405180910390a350505050505050565b428410156114745760405162461bcd60e51b81526004016109b290614e22565b600060086000896001600160a01b03166001600160a01b03168152602001908152602001600020600081548092919060010191905055905060007f00000000000000000000000000000000000000000000000000000000000000007fb7bf278e51ab1478b10530c0300f911d9ed3562fc93ab5e6593368fe23c077a260001b8c8c8c8c8c888d604051602001611511989796959493929190614cae565b60405160208183030381529060405280519060200120604051602001611538929190614b9a565b6040516020818303038152906040528051906020012090506000600182878787604051600081526020016040526040516115759493929190614d02565b6020604051602081039080840390855afa158015611597573d6000803e3d6000fd5b50506040517fffffffffffffffffffffffffffffffffffffffffffffffffffffffffffffffe001519150506001600160a01b038116158015906115eb5750896001600160a01b0316816001600160a01b0316145b6116075760405162461bcd60e51b81526004016109b290614db4565b87600760008e6001600160a01b03166001600160a01b0316815260200190815260200160002060008d6001600160a01b03166001600160a01b0316815260200190815260200160002060008c6001600160a01b03166001600160a01b0316815260200190815260200160002060008b6001600160a01b03166001600160a01b03168152602001908152602001600020819055508a6001600160a01b03168c6001600160a01b03167f6e791f456e6f5034d4928b936c32bf7e650d8228543ce7985d632ab03934837d8c8c8c6040516116e193929190614be7565b60405180910390a3505050505050505050505050565b60003330146117185760405162461bcd60e51b81526004016109b290615348565b61173761172b6040850160208601614526565b83308660a00135612b9c565b156117c15761176161174f6040850160208601614526565b60c085013560601c60a0860135612cae565b156117765761176f83612dbf565b90506117bc565b604080516060810182527f6d67762f6d616b6572526563656976654661696c0000000000000000000000008152600060208201819052918101919091526117bc90612fed565b611807565b604080516060810182527f6d67762f74616b65725472616e736665724661696c000000000000000000000081526000602082018190529181019190915261180790612fed565b92915050565b6000806000611820898989898989611ece565b919450925090506118338989868461294c565b96509650969350505050565b611848336107d3565b565b600760209081526000948552604080862082529385528385208152918452828420909152825290205481565b6001546001600160a01b0380841660009081526002602090815260408083209386168352929052205460ff605883901c16156119ea576040517f6968abd30000000000000000000000000000000000000000000000000000000081526000908190606085901c90636968abd3906118f39089908990600401614c46565b604080518083038186803b15801561190a57600080fd5b505afa15801561191e573d6000803e3d6000fd5b505050506040513d601f19601f820116820180604052508101906119429190614aca565b9150915061194f82612ff2565b1561198d577fffffffffffffffffffffffffffffffffffffffffffff0000ffffffffffffffff9390931669ffff0000000000000000604083901b1617925b61199681612ffb565b156119e7577fffffff00000000ffffffffffffffffffffffffffffffffffffffffffffffffff929092167cffffffff0000000000000000000000000000000000000000000000000060c884901b1617915b50505b9250929050565b6bffffffffffffffffffffffff601082901c1615155b919050565b611a14611e86565b6001600160a01b0382811660008181526002602090815260408083209486168084529490915280822080547effffffffffffffffffffffffffffffffffffffffffffffffffffffffffffff169055517fc4ad6e84469caa93e473acfa6c029fcf9d3757d8e268e6233c150771e9f88da691611a8e91614c9a565b60405180910390a35050565b6001600160a01b03918216600090815260026020908152604080832093909416825291909152205460901c60ff16151590565b611ad5611e86565b6101f4811115611af75760405162461bcd60e51b81526004016109b2906153b6565b6001600160a01b038381166000818152600260209081526040808320948716808452949091529081902080547fff0000ffffffffffffffffffffffffffffffffffffffffffffffffffffffffff167effff000000000000000000000000000000000000000000000000000000000060e887901b16179055517f44a6d70a601a6f8a85c075467e9d7245897140cbf6dd505c9d9d764459f5fb6490611b9c908590614ca5565b60405180910390a3505050565b6001600160a01b03918216600090815260026020908152604080832093909416825291909152205460781c62ffffff1690565b611be4611e86565b611bed81612ffb565b611c095760405162461bcd60e51b81526004016109b2906150b4565b6001600160a01b038381166000818152600260209081526040808320948716808452949091529081902080547fffffff00000000ffffffffffffffffffffffffffffffffffffffffffffffffff167cffffffff0000000000000000000000000000000000000000000000000060c887901b16179055517f95f1a495c6d9d1a215995408f6ad898c2b33798d6eb3cf3220b4c6cc8b61b06490611b9c908590614ca5565b6000546001600160a01b031681565b600080611ccc87878787873361272f565b915091509550959350505050565b611ce2611e86565b611ceb81612ff2565b611d075760405162461bcd60e51b81526004016109b2906150eb565b60b060f082901b901c60001b7fffffffffffffffffffffffffffffffffffffffffffff0000ffffffffffffffff60001b60015416176001819055507fdbebd814ae648f654dcc50c734aa76e55a32e96b7d85303a08e2ddf11874a0dd81604051610c4b9190614ca5565b60ff602082901c1615611d965760405162461bcd60e51b81526004016109b29061545b565b50565b6001600160a01b03821660008181526006602052604090819020805484019055517f1bbf55d483639f8103dc4e035af71a4fbdb16c80be740fa3eef81198acefa09490611de7908490614ca5565b60405180910390a25050565b6001600160a01b03821660009081526006602052604090205481811015611e2c5760405162461bcd60e51b81526004016109b290614e90565b6001600160a01b038316600081815260066020526040908190208484039055517f59c79d79be0fadf59fe689b6952b7ebe90201a3a1f00d4a31982377890bc604690611e79908590614ca5565b60405180910390a2505050565b6003546001600160a01b0316331480611e9e57503330145b80611eb257506003546001600160a01b0316155b6118485760405162461bcd60e51b81526004016109b29061537f565b6000806000611edb61440b565b6001600160a01b03808b16825289166020820152611ef98a8a611876565b61010083015260e0820152611f0c614457565b6001600160a01b03861660a08201528615156101008083019190915260e083015190830151611f3b9190612072565b611f4982610100015161204d565b610100820180517fffffffffffffffffffffffffff00ffffffffffffffffffffffffffffffffffff16720100000000000000000000000000000000000017908190526001600160a01b03808d166000908152600260209081526040808320938f16835292905290812091909155611fc790829084908c908c90613006565b611fd4816080015161339e565b896001600160a01b03168b6001600160a01b03167fe627235b9d9175f7943c18ce4517f64aefbb6ff056c02d8eefae333eca862a58888460400151856060015160405161202393929190614c79565b60405180910390a360c08101516040820151606090920151909c919b509950975050505050505050565b60ff609082901c1615611d965760405162461bcd60e51b81526004016109b290615424565b61207b82611d71565b60f881901c6107f65760405162461bcd60e51b81526004016109b290615492565b60c082015161ffff8116146120c35760405162461bcd60e51b81526004016109b290614deb565b60f060b0836101000151901b60001c901c8260c0015110156120f25761010082015160401c61ffff1660c08301525b60e860c0836101000151901b60001c901c8260a0015111156121265760405162461bcd60e51b81526004016109b290615048565b600082606001511161214a5760405162461bcd60e51b81526004016109b2906152da565b60e06018836101200151901b60001c901c60e86050846101200151901b60001c901c8360a001510102826060015110156121965760405162461bcd60e51b81526004016109b290614f6c565b60608201516bffffffffffffffffffffffff8116146121c75760405162461bcd60e51b81526004016109b290615190565b60408201516bffffffffffffffffffffffff8116146121f85760405162461bcd60e51b81526004016109b2906151c7565b60008061220484613420565b9150915083602001516001600160a01b031684600001516001600160a01b03167f2b101f9ef8ca2761d91bea55ab50a4d051e9248088ff7314ddb8826839544c2a33876040015188606001518960c001518a60a001518b608001518a6040516122739796959493929190614c0b565b60405180910390a383516001600160a01b0390811660009081526005602090815260408083208289015190941683529281528282206080880151835290529081205484156123105733606082901c146122de5760405162461bcd60e51b81526004016109b290614d7d565b61014086015161ffff16604882901c62ffffff908116603084901c821601601884901c919091160102633b9aca000291505b84158061232a575060a086015162ffffff604883901c1614155b8061234c5750610120860151603082901c62ffffff90811660b09290921c1614155b8061236e5750610120860151601882901c62ffffff90811660989290921c1614155b156123f85761012086015160a087015187516001600160a01b039081166000908152600560209081526040808320828d015190941683529281528282206080808d01518452915291902065ffffff0000009390911c92831668ffffff0000000000009390931660489290921b6bffffff000000000000000000163360601b17919091179190911790555b5060008560c0015160e86038886101200151901b60001c901c60e86050896101200151901b60001c901c8860a00151010102633b9aca000290508181111561244b5761244633838303611df3565b61245f565b8181101561245f5761245f33828403611d99565b5061246e8561014001516119f1565b1580612482575061014085015160e81c8314155b1561266a57821561253a57608085015185516001600160a01b039081166000908152600460208181526040808420828c018051871686529083528185208a86528352818520548c518716865293835281852090519095168452938152838320888452905291902060d09290921b7cffffff0000000000000000000000000000000000000000000000000000167fffffff000000ffffffffffffffffffffffffffffffffffffffffffffffffffff90911617905561258b565b60808501516101208601805160789290921b71ffffff000000000000000000000000000000167fffffffffffffffffffffffffffff000000ffffffffffffffffffffffffffffff9092169190911790525b811561261857608085015185516001600160a01b039081166000908152600460208181526040808420828c018051871686529083528185208986528352818520548c518716865293835281852090519095168452938152838320878452905291902060e89290921b7cffffffffffffffffffffffffffffffffffffffffffffffffffffffffff9091161790555b83801561262e575061262e8561014001516119f1565b1561266a578451602086015161014087015161012088015161266393929160e881901c9160d09190911c62ffffff16906129e6565b6101208601525b5060c0840151606085015160408087015187516001600160a01b03908116600090815260046020908152848220818c015190931682529182528381206080909a01518152989052962061ffff90921660109190911b6dffffffffffffffffffffffff00001660709690961b79ffffffffffffffffffffffff00000000000000000000000000001660d09390931b7cffffff00000000000000000000000000000000000000000000000000001660e89490941b9390931791909117939093171790915550565b60008085866001600160a01b03161461275a5760405162461bcd60e51b81526004016109b290615122565b84856001600160a01b0316146127825760405162461bcd60e51b81526004016109b2906153ed565b61278a61440b565b6001600160a01b03808a168252881660208201526127a88989611876565b610100830181905260e083019190915260781c62ffffff1660408083019182526001600160a01b038b8116600090815260046020908152838220928d1682529182528281209351815292905290205460608201526080810187905260a08101869052612812614457565b878152602081018790526001600160a01b03851660a08201528515156101008083019190915260e08301519083015161284b9190612072565b61285982610100015161204d565b610100820180517fffffffffffffffffffffffffff00ffffffffffffffffffffffffffffffffffff16720100000000000000000000000000000000000017908190526001600160a01b03808c166000908152600260209081526040808320938e16835292905220556128cd81836001613636565b6128da816080015161339e565b886001600160a01b03168a6001600160a01b03167fe627235b9d9175f7943c18ce4517f64aefbb6ff056c02d8eefae333eca862a58878460400151856060015160405161292993929190614c79565b60405180910390a380604001518160600151935093505050965096945050505050565b6001600160a01b03808516600090815260076020908152604080832087851684528252808320938616835292815282822033835290522054818110156129a45760405162461bcd60e51b81526004016109b290614ec7565b6001600160a01b039485166000908152600760209081526040808320968816835295815285822094909616815292855283832033845290945291902091039055565b60008315612a6b576001600160a01b038681166000908152600460209081526040808320938916835292815282822087835290522080547fffffff000000ffffffffffffffffffffffffffffffffffffffffffffffffffff167cffffff000000000000000000000000000000000000000000000000000060d086901b16179055612aac565b7fffffffffffffffffffffffffffff000000ffffffffffffffffffffffffffffff9190911671ffffff000000000000000000000000000000607884901b1617905b8215612b09576001600160a01b038681166000908152600460209081526040808320938916835292815282822086835290522080547cffffffffffffffffffffffffffffffffffffffffffffffffffffffffff1660e886901b1790555b50949350505050565b7fffffffffffffffffffffffffffffffffffff000000000000000000000000ffff91909116908015612b65577fffffffffffffffffffffffffffffffffffffffffffffffffffffffffffff000091909116905b506001600160a01b039384166000908152600460209081526040808320959096168252938452848120928152919092529190912055565b6000806323b872dd60e01b858585604051602401612bbc93929190614be7565b604051602081830303815290604052907bffffffffffffffffffffffffffffffffffffffffffffffffffffffff19166020820180517bffffffffffffffffffffffffffffffffffffffffffffffffffffffff83818316178352505050509050600080876001600160a01b031683604051612c369190614b61565b6000604051808303816000865af19150503d8060008114612c73576040519150601f19603f3d011682016040523d82523d6000602084013e612c78565b606091505b5091509150818015612ca2575080511580612ca2575080806020019051810190612ca29190614a42565b98975050505050505050565b60008063a9059cbb60e01b8484604051602401612ccc929190614c60565b604051602081830303815290604052907bffffffffffffffffffffffffffffffffffffffffffffffffffffffff19166020820180517bffffffffffffffffffffffffffffffffffffffffffffffffffffffff83818316178352505050509050600080866001600160a01b031683604051612d469190614b61565b6000604051808303816000865af19150503d8060008114612d83576040519150601f19603f3d011682016040523d82523d6000602084013e612d88565b606091505b5091509150818015612db2575080511580612db2575080806020019051810190612db29190614a42565b93505050505b9392505050565b60008063e342481160e01b83604051602401612ddb9190615529565b604080517fffffffffffffffffffffffffffffffffffffffffffffffffffffffffffffffe08184030181529190526020810180517bffffffffffffffffffffffffffffffffffffffffffffffffffffffff167fffffffff0000000000000000000000000000000000000000000000000000000090931692909217909152905062ffffff60c0840135604881901c919091169060601c60005a9050826040820482031015612ec857604080516060810182527f6d67762f6e6f74456e6f756768476173466f724d616b65725472616465000000815260006020820181905291810191909152612ec890612fed565b600080612ed68486886138ed565b915091505a8303965081612f2a57612f2a60405180606001604052807f6d67762f6d616b6572526576657274000000000000000000000000000000000081526020018960001b815260200183815250612fed565b8015612f7657612f7660405180606001604052807f6d67762f6d616b657241626f727400000000000000000000000000000000000081526020018960001b815260200183815250612fed565b6000612f94612f8860208b018b614526565b86308c60800135612b9c565b905080612fe157612fe160405180606001604052807f6d67762f6d616b65725472616e736665724661696c000000000000000000000081526020018a60001b815260200184815250612fed565b50505050505050919050565b606081fd5b61ffff81161490565b63ffffffff81161490565b8181101561332a5782828281811061301a57fe5b90506080020160006004811061302c57fe5b60209081029190910135604080870191825286516001600160a01b039081166000908152600485528281208986018051841683529086528382208551835286528382205460608b019081528a518416835260058752848320915190931682528552828120935181529290935290205460c0860152516130aa906119f1565b15806130e657508282828181106130bd57fe5b9050608002016003600481106130cf57fe5b602002013560e860a08660c00151901b60001c901c115b15613100576130fb8585858585600101613006565b613325565b600080600085858581811061311157fe5b90506080020160016004811061312357fe5b602002013586868681811061313457fe5b90506080020160016004811061314657fe5b60200201356bffffffffffffffffffffffff16146131765760405162461bcd60e51b81526004016109b290614fda565b85858581811061318257fe5b90506080020160026004811061319457fe5b60200201358686868181106131a557fe5b9050608002016002600481106131b757fe5b60200201356bffffffffffffffffffffffff16146131e75760405162461bcd60e51b81526004016109b290614efe565b8585858181106131f357fe5b90506080020160016004811061320557fe5b6020020135608088015285858581811061321b57fe5b90506080020160026004811061322d57fe5b602002013560a08801526132418888613914565b919450925090507f6d67762f6e6f744578656375746564000000000000000000000000000000000081146132a5578651602088015160608901516101008a015161329e93929160e881901c9160d09190911c62ffffff16906129e6565b6101008801525b6040870151608088015160a089015160608a015160c08b01516132ce8d8d8d8d60018e01613006565b60408c019490945260808b019290925260a08a0152606089015260c08801527f6d67762f6e6f74457865637574656400000000000000000000000000000000008114613321576133218888858585613f2d565b5050505b613397565b610100840180517fffffffffffffffffffffffffff00ffffffffffffffffffffffffffffffffffff169081905284516001600160a01b039081166000908152600260209081526040808320828a01519094168352929052205561338d8585613fd2565b61339785856107f6565b5050505050565b8015611d96576000336001600160a01b0316826040516133bd90614bd0565b60006040518083038185875af1925050503d80600081146133fa576040519150601f19603f3d011682016040523d82523d6000602084013e6133ff565b606091505b50509050806107f65760405162461bcd60e51b81526004016109b290615011565b60008060008060008560e0015190506000866080015182146134755786516001600160a01b039081166000908152600460209081526040808320828c015190941683529281528282208583529052205461347c565b8661014001515b9050613487816119f1565b6134d457505061012085015185516001600160a01b039081166000908152600460209081526040808320828b0151909416835292815282822060789490941c62ffffff1680835293905220545b6134df87828461407b565b156135765760005b62ffffff60d083901c161561355f575086516001600160a01b039081166000908152600460209081526040808320828c0151909416835292815282822062ffffff60d086901c168084529152919020549061354389838361407b565b1561355357809350819250613559565b5061355f565b506134e7565b5090925062ffffff60d082901c16915082906135ee565b60005b60e882901c156135e0575086516001600160a01b039081166000908152600460209081526040808320828c0151909416835292815282822060e885901c808452915291902054906135cb89838361407b565b156135d657506135e0565b9250905080613579565b5060e881901c935090915081905b866080015184146135ff5783613609565b61014087015160e81c5b8760800151841461361a5783613629565b61014088015160d01c62ffffff165b9550955050505050915091565b80801561365e57508261010001516136555760008260a001511161365e565b60008260800151115b801561366e575060008260400151115b1561385f5781516001600160a01b03908116600090815260056020908152604080832082870151909416835292815282822083860151835290529081205460c084015280806136bd8686613914565b608088015160a089015160408a015160608b015160c08c015196995094975092955090939092907f6d67762f6e6f744578656375746564000000000000000000000000000000000086146137cd5760408b01518b511161371e576000613727565b60408b01518b51035b8a60800181815250508a606001518b60200151038a60a001818152505060e860188b60600151901b60001c901c8a6040018181525050600460008b600001516001600160a01b03166001600160a01b0316815260200190815260200160002060008b602001516001600160a01b03166001600160a01b0316815260200190815260200160002060008b604001518152602001908152602001600020548a60600181815250505b6137fb8b8b887f6d67762f6e6f74457865637574656400000000000000000000000000000000001415613636565b60408a0183905260808a0185905260a08a0184905260608a0182905260c08a018190527f6d67762f6e6f74457865637574656400000000000000000000000000000000008614613852576138528b8b8a8a8a613f2d565b50505050505050506138e8565b61387e82600001518360200151600085604001518661010001516129e6565b7fffffffffffffffffffffffffff00ffffffffffffffffffffffffffffffffffff16610100830181905282516001600160a01b03908116600090815260026020908152604080832082880151909416835292905220556138de8383613fd2565b6138e883836107f6565b505050565b6000806138f86144ae565b60208185516020870160008a8af1905190969095509350505050565b6060810151608082015160a0830151600092839283926bffffffffffffffffffffffff607084901c81169360101c16919080830282850211156139855750600095508594507f6d67762f6e6f74457865637574656400000000000000000000000000000000009350613f2692505050565b886101000151801561399657508183105b806139ae57508861010001511580156139ae57508084105b156139c6576080880183905260a08801849052613a29565b88610100015115613a06578382028381816139dd57fe5b06156139ea5760016139ed565b60005b60ff168482816139f957fe5b040160a08a015250613a29565b83613a175760808801839052613a29565b8381840281613a2257fe5b0460808901525b50505050600080306001600160a01b031663b24d1ee760e01b878960a00151604051602401613a599291906155aa565b604080517fffffffffffffffffffffffffffffffffffffffffffffffffffffffffffffffe08184030181529181526020820180517bffffffffffffffffffffffffffffffffffffffffffffffffffffffff167fffffffff00000000000000000000000000000000000000000000000000000000909416939093179092529051613ae29190614b61565b6000604051808303816000865af19150503d8060008114613b1f576040519150601f19603f3d011682016040523d82523d6000602084013e613b24565b606091505b50915091508115613c915760c08701805160010190528051613b4f9082016020908101908301614ab2565b94507f6d67762f74726164655375636365737300000000000000000000000000000000925085602001516001600160a01b031686600001516001600160a01b03167f1d81940ff2c3ac549c8acefd7c1b2ffb24aacc8b3cfa309c22abc3de79727f9d88604001518a60a001518a608001518b60a00151604051613bd594939291906155f9565b60405180910390a360e086015160501c60ff1615613c6c5760e086015160a08801516040517fef36094600000000000000000000000000000000000000000000000000000000815260609290921c9163ef36094691613c39918a91906004016155aa565b600060405180830381600087803b158015613c5357600080fd5b505af1158015613c67573d6000803e3d6000fd5b505050505b6080860151604088018051909101905260a08601516060880180519091019052613ee3565b613c9a81614128565b909650945092507f6d67762f6d616b65725265766572740000000000000000000000000000000000831480613cee5750827f6d67762f6d616b657241626f7274000000000000000000000000000000000000145b80613d185750827f6d67762f6d616b65725472616e736665724661696c0000000000000000000000145b80613d425750827f6d67762f6d616b6572526563656976654661696c000000000000000000000000145b15613e4b5760e08701805160010190526020860151865160408089015160a0808c015160808c0151918c015193516001600160a01b0396871696909516947f1d59c048edb5397821854bd12cbe02242b82101c677f949d076d14eb7bd8343694613daf9493918b9061561d565b60405180910390a360e086015160501c60ff1615613e465760e086015160a08801516040517fbec362dc00000000000000000000000000000000000000000000000000000000815260609290921c9163bec362dc91613e13918a91906004016155aa565b600060405180830381600087803b158015613e2d57600080fd5b505af1158015613e41573d6000803e3d6000fd5b505050505b613ee3565b827f6d67762f6e6f74456e6f756768476173466f724d616b657254726164650000001415613e8b5760405162461bcd60e51b81526004016109b290614f35565b827f6d67762f74616b65725472616e736665724661696c00000000000000000000001415613ecb5760405162461bcd60e51b81526004016109b290614e59565b60405162461bcd60e51b81526004016109b290615159565b613f238660000151876020015188604001518960600151877f6d67762f747261646553756363657373000000000000000000000000000000001415612b12565b50505b9250925092565b807f6d67762f747261646553756363657373000000000000000000000000000000001415613f5e57613f5e84611d96565b60c084015160481c62ffffff1680841115613f77578093505b613f8585858303858561413c565b84019350817f6d67762f7472616465537563636573730000000000000000000000000000000014610f9757613fbf85858860e0015161429e565b6080870180519091019052505050505050565b600061271060f06008846101000151901b60001c901c84604001510281613ff557fe5b049050801561403e576040830180518290039052815160005461402291906001600160a01b031683612cae565b61403e5760405162461bcd60e51b81526004016109b290615311565b6040830151156138e85761405f82600001518460a001518560400151612cae565b6138e85760405162461bcd60e51b81526004016109b290614fa3565b60008161408a57506001612db8565b604084015160608501516bffffffffffffffffffffffff607086901c811692601087901c909116918084028284028082141561411b57505087516001600160a01b039081166000908152600560209081526040808320828d015190941683529281528282208983529052205460a089015160489190911c62ffffff1691909102920291909110159250612db8915050565b119450612db89350505050565b602081015160408201516060909201519092565b60008063eb87009e60e01b8660405180604001604052808781526020018681525060405160240161416e9291906155d0565b604080517fffffffffffffffffffffffffffffffffffffffffffffffffffffffffffffffe08184030181529190526020810180517bffffffffffffffffffffffffffffffffffffffffffffffffffffffff167fffffffff000000000000000000000000000000000000000000000000000000009093169290921790915260c087015190915060601c60005a90508660408204820310156142205760405162461bcd60e51b81526004016109b29061507f565b600061422d8389866138ed565b5090505a82039450806142925788602001516001600160a01b031689600001516001600160a01b03167fef1ddb0cef7570327ce5e13e763dda9ae57821b90f18d3b36a5f83997f913e318b604001516040516142899190614ca5565b60405180910390a35b50505050949350505050565b60c0830151606084015160009162ffffff604882901c81169261ffff16603083901c8216840160189390931c9091169190910102633b9aca0002818511156142e4578194505b61010086015160009062ffffff609882901c811691879160b09190911c168161430957fe5b0487010160f060b08960e00151901b60001c901c633b9aca0002029050818111156143315750805b60c08701516143459060601c828403611d99565b9695505050505050565b6040805161016081018252600080825260208201819052918101829052606081018290526080810182905260a0810182905260c0810182905260e081018290526101008101829052610120810182905261014081019190915290565b6040518060a0016040528060008152602001600081526020016000815260200160008152602001600081525090565b604051806080016040528060006001600160a01b031681526020016000815260200160008152602001600081525090565b6040805161012081018252600080825260208201819052918101829052606081018290526080810182905260a0810182905260c0810182905260e0810182905261010081019190915290565b604051806101200160405280600081526020016000815260200160008152602001600081526020016000815260200160006001600160a01b0316815260200160008152602001600081526020016000151581525090565b60405180602001604052806001906020820280368337509192915050565b80356001600160a01b0381168114611a0757600080fd5b60008083601f8401126144f4578182fd5b50813567ffffffffffffffff81111561450b578182fd5b6020830191508360206080830285010111156119ea57600080fd5b600060208284031215614537578081fd5b612db8826144cc565b60008060408385031215614552578081fd5b61455b836144cc565b9150614569602084016144cc565b90509250929050565b60008060008060808587031215614587578182fd5b614590856144cc565b935061459e602086016144cc565b92506145ac604086016144cc565b91506145ba606086016144cc565b905092959194509250565b60008060008060008060008060006101208a8c0312156145e3578485fd5b6145ec8a6144cc565b98506145fa60208b016144cc565b975061460860408b016144cc565b965061461660608b016144cc565b955060808a0135945060a08a0135935060c08a013560ff81168114614639578384fd5b8093505060e08a013591506101008a013590509295985092959850929598565b6000806000806080858703121561466e578384fd5b614677856144cc565b9350614685602086016144cc565b9250614693604086016144cc565b9396929550929360600135925050565b6000806000806000608086880312156146ba578081fd5b6146c3866144cc565b94506146d1602087016144cc565b9350604086013567ffffffffffffffff8111156146ec578182fd5b6146f8888289016144e3565b909450925050606086013561470c8161565f565b809150509295509295909350565b60008060008060008060a08789031215614732578182fd5b61473b876144cc565b9550614749602088016144cc565b9450604087013567ffffffffffffffff811115614764578283fd5b61477089828a016144e3565b90955093505060608701356147848161565f565b9150614792608088016144cc565b90509295509295509295565b6000806000606084860312156147b2578283fd5b6147bb846144cc565b92506147c9602085016144cc565b9150604084013590509250925092565b600080600080608085870312156147ee578081fd5b6147f7856144cc565b9350614805602086016144cc565b925060408501359150606085013561481c8161565f565b939692955090935050565b6000806000806080858703121561483c578182fd5b614845856144cc565b9350614853602086016144cc565b93969395505050506040820135916060013590565b600080600080600060a0868803121561487f578283fd5b614888866144cc565b9450614896602087016144cc565b93506040860135925060608601359150608086013561470c8161565f565b60008060008060008060c087890312156148cc578384fd5b6148d5876144cc565b95506148e3602088016144cc565b9450604087013593506060870135925060808701356149018161565f565b915061479260a088016144cc565b60008060008060008060c08789031215614927578384fd5b614930876144cc565b955061493e602088016144cc565b95989597505050506040840135936060810135936080820135935060a0909101359150565b600080600080600080600060e0888a03121561497d578081fd5b614986886144cc565b9650614994602089016144cc565b96999698505050506040850135946060810135946080820135945060a0820135935060c0909101359150565b600080600080600080600080610100898b0312156149dc578182fd5b6149e5896144cc565b97506149f360208a016144cc565b979a9799505050506040860135956060810135956080820135955060a0820135945060c0820135935060e0909101359150565b600060208284031215614a37578081fd5b8135612db88161565f565b600060208284031215614a53578081fd5b8151612db88161565f565b600060208284031215614a6f578081fd5b5035919050565b600080828403610140811215614a8a578283fd5b61012080821215614a99578384fd5b849350614aa78186016144cc565b925050509250929050565b600060208284031215614ac3578081fd5b5051919050565b60008060408385031215614adc578182fd5b505080516020909101519092909150565b6001600160a01b03169052565b6001600160a01b038082511683528060208301511660208401525060408101516040830152606081015160608301526080810151608083015260a081015160a083015260c081015160c083015260e081015160e08301526101008082015181840152505050565b60008251815b81811015614b815760208186018101518583015201614b67565b81811115614b8f5782828501525b509190910192915050565b7f190100000000000000000000000000000000000000000000000000000000000081526002810192909252602282015260420190565b90565b6001600160a01b0391909116815260200190565b6001600160a01b039384168152919092166020820152604081019190915260600190565b6001600160a01b03979097168752602087019590955260408601939093526060850191909152608084015260a083015260c082015260e00190565b6001600160a01b0392831681529116602082015260400190565b6001600160a01b03929092168252602082015260400190565b6001600160a01b039390931683526020830191909152604082015260600190565b901515815260200190565b90815260200190565b9788526001600160a01b039687166020890152948616604088015292851660608701529316608085015260a084019290925260c083019190915260e08201526101000190565b918252602082015260400190565b93845260ff9290921660208401526040830152606082015260800190565b60208082526022908201527f6d67762f636f6e6669672f6f766572686561645f676173626173652f3234626960408201527f7473000000000000000000000000000000000000000000000000000000000000606082015260800190565b6020808252601c908201527f6d67762f7570646174654f666665722f756e617574686f72697a656400000000604082015260600190565b6020808252601b908201527f6d67762f7065726d69742f696e76616c69645369676e61747572650000000000604082015260600190565b6020808252601e908201527f6d67762f77726974654f666665722f67617370726963652f3136626974730000604082015260600190565b60208082526012908201527f6d67762f7065726d69742f657870697265640000000000000000000000000000604082015260600190565b60208082526015908201527f6d67762f74616b65725472616e736665724661696c0000000000000000000000604082015260600190565b60208082526019908201527f6d67762f696e73756666696369656e7450726f766973696f6e00000000000000604082015260600190565b60208082526010908201527f6d67762f6c6f77416c6c6f77616e636500000000000000000000000000000000604082015260600190565b6020808252601c908201527f6d67762f736e697065732f74616b657247697665732f39366269747300000000604082015260600190565b6020808252601d908201527f6d67762f6e6f74456e6f756768476173466f724d616b65725472616465000000604082015260600190565b6020808252601d908201527f6d67762f77726974654f666665722f64656e736974792f746f6f4c6f77000000604082015260600190565b60208082526015908201527f6d67762f4d67764661696c546f50617954616b65720000000000000000000000604082015260600190565b6020808252601c908201527f6d67762f736e697065732f74616b657257616e74732f39366269747300000000604082015260600190565b60208082526017908201527f6d67762f73656e6450656e616c74795265766572746564000000000000000000604082015260600190565b6020808252601d908201527f6d67762f77726974654f666665722f6761737265712f746f6f48696768000000604082015260600190565b6020808252818101527f6d67762f6e6f74456e6f756768476173466f724d616b6572506f7374686f6f6b604082015260600190565b60208082526019908201527f6d67762f636f6e6669672f64656e736974792f33326269747300000000000000604082015260600190565b6020808252601a908201527f6d67762f636f6e6669672f67617370726963652f313662697473000000000000604082015260600190565b6020808252601d908201527f6d67762f6d4f726465722f74616b657257616e74732f31363062697473000000604082015260600190565b6020808252600d908201527f6d67762f737761704572726f7200000000000000000000000000000000000000604082015260600190565b6020808252601b908201527f6d67762f77726974654f666665722f67697665732f3936626974730000000000604082015260600190565b6020808252601b908201527f6d67762f77726974654f666665722f77616e74732f3936626974730000000000604082015260600190565b6020808252601d908201527f6d67762f726574726163744f666665722f756e617574686f72697a6564000000604082015260600190565b60208082526018908201527f6d67762f636f6e6669672f6761736d61782f3234626974730000000000000000604082015260600190565b6020808252601f908201527f6d67762f636f6e6669672f6f666665725f676173626173652f32346269747300604082015260600190565b60208082526013908201527f6d67762f6f6666657249644f766572666c6f7700000000000000000000000000604082015260600190565b6020808252601b908201527f6d67762f77726974654f666665722f67697665732f746f6f4c6f770000000000604082015260600190565b60208082526013908201527f6d67762f6665655472616e736665724661696c00000000000000000000000000604082015260600190565b60208082526017908201527f6d67762f666c6173686c6f616e2f70726f746563746564000000000000000000604082015260600190565b60208082526010908201527f6d67762f756e617574686f72697a656400000000000000000000000000000000604082015260600190565b60208082526014908201527f6d67762f636f6e6669672f6665652f3c3d353030000000000000000000000000604082015260600190565b6020808252601d908201527f6d67762f6d4f726465722f74616b657247697665732f31363062697473000000604082015260600190565b60208082526014908201527f6d67762f7265656e7472616e63794c6f636b6564000000000000000000000000604082015260600190565b60208082526008908201527f6d67762f64656164000000000000000000000000000000000000000000000000604082015260600190565b6020808252600c908201527f6d67762f696e6163746976650000000000000000000000000000000000000000604082015260600190565b825181526020808401518183015260408085015181840152606080860151818501526080958601519584019590955283516001600160a01b031660a08401529083015160c083015282015160e08201529101516101008201526101200190565b61012081016001600160a01b0361553f846144cc565b16825261554e602084016144cc565b61555b6020840182614aed565b5060408301356040830152606083013560608301526080830135608083015260a083013560a083015260c083013560c083015260e083013560e083015261010080840135818401525092915050565b61014081016155b98285614afa565b6001600160a01b0383166101208301529392505050565b61016081016155df8285614afa565b825161012083015260208301516101408301529392505050565b9384526001600160a01b039290921660208401526040830152606082015260800190565b9485526001600160a01b0393909316602085015260408401919091526060830152608082015260a00190565b9283526020830191909152604082015260600190565b8015158114611d9657600080fdfea264697066735822122019b7cec926943a5cc7ddb542d02a24e6aad572f572a4f78d77406af38c4d2c0364736f6c63430007060033",
  "devdoc": {
    "kind": "dev",
    "methods": {},
    "version": 1
  },
  "userdoc": {
    "kind": "user",
    "methods": {},
    "version": 1
  },
  "storageLayout": {
    "storage": [
      {
        "astId": 8757,
        "contract": "cache/solpp-generated-contracts/Mangrove.sol:Mangrove",
        "label": "vault",
        "offset": 0,
        "slot": "0",
        "type": "t_address"
      },
      {
        "astId": 8759,
        "contract": "cache/solpp-generated-contracts/Mangrove.sol:Mangrove",
        "label": "global",
        "offset": 0,
        "slot": "1",
        "type": "t_bytes32"
      },
      {
        "astId": 8765,
        "contract": "cache/solpp-generated-contracts/Mangrove.sol:Mangrove",
        "label": "locals",
        "offset": 0,
        "slot": "2",
        "type": "t_mapping(t_address,t_mapping(t_address,t_bytes32))"
      },
      {
        "astId": 1511,
        "contract": "cache/solpp-generated-contracts/Mangrove.sol:Mangrove",
        "label": "governance",
        "offset": 0,
        "slot": "3",
        "type": "t_address"
      },
      {
        "astId": 2196,
        "contract": "cache/solpp-generated-contracts/Mangrove.sol:Mangrove",
        "label": "offers",
        "offset": 0,
        "slot": "4",
        "type": "t_mapping(t_address,t_mapping(t_address,t_mapping(t_uint256,t_bytes32)))"
      },
      {
        "astId": 2204,
        "contract": "cache/solpp-generated-contracts/Mangrove.sol:Mangrove",
        "label": "offerDetails",
        "offset": 0,
        "slot": "5",
        "type": "t_mapping(t_address,t_mapping(t_address,t_mapping(t_uint256,t_bytes32)))"
      },
      {
        "astId": 2208,
        "contract": "cache/solpp-generated-contracts/Mangrove.sol:Mangrove",
        "label": "balanceOf",
        "offset": 0,
        "slot": "6",
        "type": "t_mapping(t_address,t_uint256)"
      },
      {
        "astId": 7114,
        "contract": "cache/solpp-generated-contracts/Mangrove.sol:Mangrove",
        "label": "allowances",
        "offset": 0,
        "slot": "7",
        "type": "t_mapping(t_address,t_mapping(t_address,t_mapping(t_address,t_mapping(t_address,t_uint256))))"
      },
      {
        "astId": 7118,
        "contract": "cache/solpp-generated-contracts/Mangrove.sol:Mangrove",
        "label": "nonces",
        "offset": 0,
        "slot": "8",
        "type": "t_mapping(t_address,t_uint256)"
      }
    ],
    "types": {
      "t_address": {
        "encoding": "inplace",
        "label": "address",
        "numberOfBytes": "20"
      },
      "t_bytes32": {
        "encoding": "inplace",
        "label": "bytes32",
        "numberOfBytes": "32"
      },
      "t_mapping(t_address,t_bytes32)": {
        "encoding": "mapping",
        "key": "t_address",
        "label": "mapping(address => bytes32)",
        "numberOfBytes": "32",
        "value": "t_bytes32"
      },
      "t_mapping(t_address,t_mapping(t_address,t_bytes32))": {
        "encoding": "mapping",
        "key": "t_address",
        "label": "mapping(address => mapping(address => bytes32))",
        "numberOfBytes": "32",
        "value": "t_mapping(t_address,t_bytes32)"
      },
      "t_mapping(t_address,t_mapping(t_address,t_mapping(t_address,t_mapping(t_address,t_uint256))))": {
        "encoding": "mapping",
        "key": "t_address",
        "label": "mapping(address => mapping(address => mapping(address => mapping(address => uint256))))",
        "numberOfBytes": "32",
        "value": "t_mapping(t_address,t_mapping(t_address,t_mapping(t_address,t_uint256)))"
      },
      "t_mapping(t_address,t_mapping(t_address,t_mapping(t_address,t_uint256)))": {
        "encoding": "mapping",
        "key": "t_address",
        "label": "mapping(address => mapping(address => mapping(address => uint256)))",
        "numberOfBytes": "32",
        "value": "t_mapping(t_address,t_mapping(t_address,t_uint256))"
      },
      "t_mapping(t_address,t_mapping(t_address,t_mapping(t_uint256,t_bytes32)))": {
        "encoding": "mapping",
        "key": "t_address",
        "label": "mapping(address => mapping(address => mapping(uint256 => bytes32)))",
        "numberOfBytes": "32",
        "value": "t_mapping(t_address,t_mapping(t_uint256,t_bytes32))"
      },
      "t_mapping(t_address,t_mapping(t_address,t_uint256))": {
        "encoding": "mapping",
        "key": "t_address",
        "label": "mapping(address => mapping(address => uint256))",
        "numberOfBytes": "32",
        "value": "t_mapping(t_address,t_uint256)"
      },
      "t_mapping(t_address,t_mapping(t_uint256,t_bytes32))": {
        "encoding": "mapping",
        "key": "t_address",
        "label": "mapping(address => mapping(uint256 => bytes32))",
        "numberOfBytes": "32",
        "value": "t_mapping(t_uint256,t_bytes32)"
      },
      "t_mapping(t_address,t_uint256)": {
        "encoding": "mapping",
        "key": "t_address",
        "label": "mapping(address => uint256)",
        "numberOfBytes": "32",
        "value": "t_uint256"
      },
      "t_mapping(t_uint256,t_bytes32)": {
        "encoding": "mapping",
        "key": "t_uint256",
        "label": "mapping(uint256 => bytes32)",
        "numberOfBytes": "32",
        "value": "t_bytes32"
      },
      "t_uint256": {
        "encoding": "inplace",
        "label": "uint256",
        "numberOfBytes": "32"
      }
    }
  }
}