{
  "address": "0xA3994A647B7b28d95fD3268b57485CF098Bf4af7",
  "abi": [
    {
      "inputs": [
        {
          "internalType": "address payable",
          "name": "mgv",
          "type": "address"
        },
        {
          "internalType": "address",
          "name": "base",
          "type": "address"
        },
        {
          "internalType": "address",
          "name": "quote",
          "type": "address"
        },
        {
          "internalType": "uint256",
          "name": "base_0",
          "type": "uint256"
        },
        {
          "internalType": "uint256",
          "name": "quote_0",
          "type": "uint256"
        },
        {
          "internalType": "uint256",
          "name": "nslots",
          "type": "uint256"
        },
        {
          "internalType": "uint256",
          "name": "delta",
          "type": "uint256"
        }
      ],
      "stateMutability": "nonpayable",
      "type": "constructor"
    },
    {
      "anonymous": false,
      "inputs": [
        {
          "indexed": false,
          "internalType": "address",
          "name": "quote",
          "type": "address"
        },
        {
          "indexed": false,
          "internalType": "address",
          "name": "base",
          "type": "address"
        },
        {
          "indexed": false,
          "internalType": "uint256",
          "name": "offerId",
          "type": "uint256"
        }
      ],
      "name": "AskAtMinPosition",
      "type": "event"
    },
    {
      "anonymous": false,
      "inputs": [
        {
          "indexed": false,
          "internalType": "address",
          "name": "quote",
          "type": "address"
        },
        {
          "indexed": false,
          "internalType": "address",
          "name": "base",
          "type": "address"
        },
        {
          "indexed": false,
          "internalType": "uint256",
          "name": "offerId",
          "type": "uint256"
        }
      ],
      "name": "BidAtMaxPosition",
      "type": "event"
    },
    {
      "anonymous": false,
      "inputs": [
        {
          "indexed": true,
          "internalType": "address",
          "name": "outbound_tkn",
          "type": "address"
        },
        {
          "indexed": true,
          "internalType": "address",
          "name": "inbound_tkn",
          "type": "address"
        },
        {
          "indexed": false,
          "internalType": "uint256",
          "name": "offerId",
          "type": "uint256"
        },
        {
          "indexed": false,
          "internalType": "uint256",
          "name": "missingAmount",
          "type": "uint256"
        }
      ],
      "name": "GetFail",
      "type": "event"
    },
    {
      "anonymous": false,
      "inputs": [
        {
          "indexed": false,
          "internalType": "uint256",
          "name": "from",
          "type": "uint256"
        },
        {
          "indexed": false,
          "internalType": "uint256",
          "name": "to",
          "type": "uint256"
        },
        {
          "indexed": false,
          "internalType": "bool",
          "name": "bidding",
          "type": "bool"
        }
      ],
      "name": "Initialized",
      "type": "event"
    },
    {
      "anonymous": false,
      "inputs": [
        {
          "indexed": true,
          "internalType": "address",
          "name": "outbound_tkn",
          "type": "address"
        },
        {
          "indexed": true,
          "internalType": "address",
          "name": "inbound_tkn",
          "type": "address"
        },
        {
          "indexed": false,
          "internalType": "uint256",
          "name": "offerId",
          "type": "uint256"
        },
        {
          "indexed": false,
          "internalType": "string",
          "name": "message",
          "type": "string"
        }
      ],
      "name": "PosthookFail",
      "type": "event"
    },
    {
      "anonymous": false,
      "inputs": [
        {
          "indexed": true,
          "internalType": "address",
          "name": "outbound_tkn",
          "type": "address"
        },
        {
          "indexed": true,
          "internalType": "address",
          "name": "inbound_tkn",
          "type": "address"
        },
        {
          "indexed": false,
          "internalType": "uint256",
          "name": "offerId",
          "type": "uint256"
        },
        {
          "indexed": false,
          "internalType": "uint256",
          "name": "missingAmount",
          "type": "uint256"
        }
      ],
      "name": "PutFail",
      "type": "event"
    },
    {
      "anonymous": false,
      "inputs": [
        {
          "indexed": true,
          "internalType": "address",
          "name": "outbound_tkn",
          "type": "address"
        },
        {
          "indexed": true,
          "internalType": "address",
          "name": "inbound_tkn",
          "type": "address"
        },
        {
          "indexed": false,
          "internalType": "uint256",
          "name": "offerId",
          "type": "uint256"
        }
      ],
      "name": "Reneged",
      "type": "event"
    },
    {
      "inputs": [],
      "name": "BASE",
      "outputs": [
        {
          "internalType": "address",
          "name": "",
          "type": "address"
        }
      ],
      "stateMutability": "view",
      "type": "function"
    },
    {
      "inputs": [],
      "name": "MGV",
      "outputs": [
        {
          "internalType": "contract Mangrove",
          "name": "",
          "type": "address"
        }
      ],
      "stateMutability": "view",
      "type": "function"
    },
    {
      "inputs": [],
      "name": "NSLOTS",
      "outputs": [
        {
          "internalType": "uint16",
          "name": "",
          "type": "uint16"
        }
      ],
      "stateMutability": "view",
      "type": "function"
    },
    {
      "inputs": [],
      "name": "OFR_GASREQ",
      "outputs": [
        {
          "internalType": "uint256",
          "name": "",
          "type": "uint256"
        }
      ],
      "stateMutability": "view",
      "type": "function"
    },
    {
      "inputs": [],
      "name": "QUOTE",
      "outputs": [
        {
          "internalType": "address",
          "name": "",
          "type": "address"
        }
      ],
      "stateMutability": "view",
      "type": "function"
    },
    {
      "inputs": [],
      "name": "admin",
      "outputs": [
        {
          "internalType": "address",
          "name": "",
          "type": "address"
        }
      ],
      "stateMutability": "view",
      "type": "function"
    },
    {
      "inputs": [
        {
          "internalType": "address",
          "name": "outbound_tkn",
          "type": "address"
        },
        {
          "internalType": "uint256",
          "name": "amount",
          "type": "uint256"
        }
      ],
      "name": "approveMangrove",
      "outputs": [],
      "stateMutability": "nonpayable",
      "type": "function"
    },
    {
      "inputs": [],
      "name": "balanceOnMangrove",
      "outputs": [
        {
          "internalType": "uint256",
          "name": "",
          "type": "uint256"
        }
      ],
      "stateMutability": "view",
      "type": "function"
    },
    {
      "inputs": [],
      "name": "fundMangrove",
      "outputs": [],
      "stateMutability": "payable",
      "type": "function"
    },
    {
      "inputs": [
        {
          "internalType": "address",
          "name": "outbound_tkn",
          "type": "address"
        },
        {
          "internalType": "address",
          "name": "inbound_tkn",
          "type": "address"
        },
        {
          "internalType": "uint256",
          "name": "gasreq",
          "type": "uint256"
        },
        {
          "internalType": "uint256",
          "name": "gasprice",
          "type": "uint256"
        },
        {
          "internalType": "uint256",
          "name": "offerId",
          "type": "uint256"
        }
      ],
      "name": "getMissingProvision",
      "outputs": [
        {
          "internalType": "uint256",
          "name": "",
          "type": "uint256"
        }
      ],
      "stateMutability": "view",
      "type": "function"
    },
    {
      "inputs": [],
      "name": "get_delta",
      "outputs": [
        {
          "internalType": "uint256",
          "name": "",
          "type": "uint256"
        }
      ],
      "stateMutability": "view",
      "type": "function"
    },
    {
      "inputs": [],
      "name": "get_offers",
      "outputs": [
        {
          "internalType": "uint256[][2]",
          "name": "offers",
          "type": "uint256[][2]"
        }
      ],
      "stateMutability": "view",
      "type": "function"
    },
    {
      "inputs": [],
      "name": "get_shift",
      "outputs": [
        {
          "internalType": "int256",
          "name": "",
          "type": "int256"
        }
      ],
      "stateMutability": "view",
      "type": "function"
    },
    {
      "inputs": [
        {
          "internalType": "address",
          "name": "outbound_tkn",
          "type": "address"
        },
        {
          "internalType": "address",
          "name": "inbound_tkn",
          "type": "address"
        },
        {
          "internalType": "uint256",
          "name": "gasreq",
          "type": "uint256"
        }
      ],
      "name": "giveAtDensity",
      "outputs": [
        {
          "internalType": "uint256",
          "name": "",
          "type": "uint256"
        }
      ],
      "stateMutability": "view",
      "type": "function"
    },
    {
      "inputs": [
        {
          "internalType": "bool",
          "name": "bidding",
          "type": "bool"
        },
        {
          "internalType": "bool",
          "name": "withBase",
          "type": "bool"
        },
        {
          "internalType": "uint256",
          "name": "from",
          "type": "uint256"
        },
        {
          "internalType": "uint256",
          "name": "to",
          "type": "uint256"
        },
        {
          "internalType": "uint256[][2]",
          "name": "pivotIds",
          "type": "uint256[][2]"
        },
        {
          "internalType": "uint256[]",
          "name": "tokenAmounts",
          "type": "uint256[]"
        }
      ],
      "name": "initialize",
      "outputs": [],
      "stateMutability": "nonpayable",
      "type": "function"
    },
    {
      "inputs": [
        {
          "components": [
            {
              "internalType": "address",
              "name": "outbound_tkn",
              "type": "address"
            },
            {
              "internalType": "address",
              "name": "inbound_tkn",
              "type": "address"
            },
            {
              "internalType": "uint256",
              "name": "offerId",
              "type": "uint256"
            },
            {
              "internalType": "Offer.t",
              "name": "offer",
              "type": "uint256"
            },
            {
              "internalType": "uint256",
              "name": "wants",
              "type": "uint256"
            },
            {
              "internalType": "uint256",
              "name": "gives",
              "type": "uint256"
            },
            {
              "internalType": "OfferDetail.t",
              "name": "offerDetail",
              "type": "uint256"
            },
            {
              "internalType": "Global.t",
              "name": "global",
              "type": "uint256"
            },
            {
              "internalType": "Local.t",
              "name": "local",
              "type": "uint256"
            }
          ],
          "internalType": "struct MgvLib.SingleOrder",
          "name": "order",
          "type": "tuple"
        }
      ],
      "name": "makerExecute",
      "outputs": [
        {
          "internalType": "bytes32",
          "name": "ret",
          "type": "bytes32"
        }
      ],
      "stateMutability": "nonpayable",
      "type": "function"
    },
    {
      "inputs": [
        {
          "components": [
            {
              "internalType": "address",
              "name": "outbound_tkn",
              "type": "address"
            },
            {
              "internalType": "address",
              "name": "inbound_tkn",
              "type": "address"
            },
            {
              "internalType": "uint256",
              "name": "offerId",
              "type": "uint256"
            },
            {
              "internalType": "Offer.t",
              "name": "offer",
              "type": "uint256"
            },
            {
              "internalType": "uint256",
              "name": "wants",
              "type": "uint256"
            },
            {
              "internalType": "uint256",
              "name": "gives",
              "type": "uint256"
            },
            {
              "internalType": "OfferDetail.t",
              "name": "offerDetail",
              "type": "uint256"
            },
            {
              "internalType": "Global.t",
              "name": "global",
              "type": "uint256"
            },
            {
              "internalType": "Local.t",
              "name": "local",
              "type": "uint256"
            }
          ],
          "internalType": "struct MgvLib.SingleOrder",
          "name": "order",
          "type": "tuple"
        },
        {
          "components": [
            {
              "internalType": "bytes32",
              "name": "makerData",
              "type": "bytes32"
            },
            {
              "internalType": "bytes32",
              "name": "mgvData",
              "type": "bytes32"
            }
          ],
          "internalType": "struct MgvLib.OrderResult",
          "name": "result",
          "type": "tuple"
        }
      ],
      "name": "makerPosthook",
      "outputs": [],
      "stateMutability": "nonpayable",
      "type": "function"
    },
    {
      "inputs": [
        {
          "internalType": "address",
          "name": "outbound_tkn",
          "type": "address"
        },
        {
          "internalType": "address",
          "name": "inbound_tkn",
          "type": "address"
        },
        {
          "internalType": "uint256",
          "name": "wants",
          "type": "uint256"
        },
        {
          "internalType": "uint256",
          "name": "gives",
          "type": "uint256"
        },
        {
          "internalType": "uint256",
          "name": "gasreq",
          "type": "uint256"
        },
        {
          "internalType": "uint256",
          "name": "gasprice",
          "type": "uint256"
        },
        {
          "internalType": "uint256",
          "name": "pivotId",
          "type": "uint256"
        }
      ],
      "name": "newOffer",
      "outputs": [
        {
          "internalType": "uint256",
          "name": "offerId",
          "type": "uint256"
        }
      ],
      "stateMutability": "payable",
      "type": "function"
    },
    {
      "inputs": [],
      "name": "pause",
      "outputs": [],
      "stateMutability": "nonpayable",
      "type": "function"
    },
    {
      "inputs": [
        {
          "internalType": "address",
          "name": "token",
          "type": "address"
        },
        {
          "internalType": "uint256",
          "name": "amount",
          "type": "uint256"
        }
      ],
      "name": "redeemToken",
      "outputs": [
        {
          "internalType": "bool",
          "name": "success",
          "type": "bool"
        }
      ],
      "stateMutability": "nonpayable",
      "type": "function"
    },
    {
      "inputs": [],
      "name": "restart",
      "outputs": [],
      "stateMutability": "nonpayable",
      "type": "function"
    },
    {
      "inputs": [
        {
          "internalType": "address",
          "name": "outbound_tkn",
          "type": "address"
        },
        {
          "internalType": "address",
          "name": "inbound_tkn",
          "type": "address"
        },
        {
          "internalType": "uint256",
          "name": "offerId",
          "type": "uint256"
        },
        {
          "internalType": "bool",
          "name": "deprovision",
          "type": "bool"
        }
      ],
      "name": "retractOffer",
      "outputs": [
        {
          "internalType": "uint256",
          "name": "",
          "type": "uint256"
        }
      ],
      "stateMutability": "nonpayable",
      "type": "function"
    },
    {
      "inputs": [
        {
          "internalType": "address",
          "name": "_admin",
          "type": "address"
        }
      ],
      "name": "setAdmin",
      "outputs": [],
      "stateMutability": "nonpayable",
      "type": "function"
    },
    {
      "inputs": [
        {
          "internalType": "uint256",
          "name": "gasreq",
          "type": "uint256"
        }
      ],
      "name": "setGasreq",
      "outputs": [],
      "stateMutability": "nonpayable",
      "type": "function"
    },
    {
      "inputs": [
        {
          "internalType": "uint256",
          "name": "delta",
          "type": "uint256"
        }
      ],
      "name": "set_delta",
      "outputs": [],
      "stateMutability": "nonpayable",
      "type": "function"
    },
    {
      "inputs": [
        {
          "internalType": "uint256",
          "name": "m",
          "type": "uint256"
        }
      ],
      "name": "set_min_offer_type",
      "outputs": [],
      "stateMutability": "nonpayable",
      "type": "function"
    },
    {
      "inputs": [
        {
          "internalType": "int256",
          "name": "s",
          "type": "int256"
        }
      ],
      "name": "set_shift",
      "outputs": [],
      "stateMutability": "nonpayable",
      "type": "function"
    },
    {
      "inputs": [
        {
          "internalType": "address",
          "name": "token",
          "type": "address"
        }
      ],
      "name": "tokenBalance",
      "outputs": [
        {
          "internalType": "uint256",
          "name": "",
          "type": "uint256"
        }
      ],
      "stateMutability": "view",
      "type": "function"
    },
    {
      "inputs": [
        {
          "internalType": "address",
          "name": "recipient",
          "type": "address"
        },
        {
          "internalType": "uint256",
          "name": "amount",
          "type": "uint256"
        }
      ],
      "name": "transferETH",
      "outputs": [
        {
          "internalType": "bool",
          "name": "success",
          "type": "bool"
        }
      ],
      "stateMutability": "nonpayable",
      "type": "function"
    },
    {
      "inputs": [
        {
          "internalType": "address",
          "name": "outbound_tkn",
          "type": "address"
        },
        {
          "internalType": "address",
          "name": "inbound_tkn",
          "type": "address"
        },
        {
          "internalType": "uint256",
          "name": "wants",
          "type": "uint256"
        },
        {
          "internalType": "uint256",
          "name": "gives",
          "type": "uint256"
        },
        {
          "internalType": "uint256",
          "name": "gasreq",
          "type": "uint256"
        },
        {
          "internalType": "uint256",
          "name": "gasprice",
          "type": "uint256"
        },
        {
          "internalType": "uint256",
          "name": "pivotId",
          "type": "uint256"
        },
        {
          "internalType": "uint256",
          "name": "offerId",
          "type": "uint256"
        }
      ],
      "name": "updateOffer",
      "outputs": [],
      "stateMutability": "payable",
      "type": "function"
    },
    {
      "inputs": [
        {
          "internalType": "address",
          "name": "receiver",
          "type": "address"
        },
        {
          "internalType": "uint256",
          "name": "amount",
          "type": "uint256"
        }
      ],
      "name": "withdrawFromMangrove",
      "outputs": [
        {
          "internalType": "bool",
          "name": "",
          "type": "bool"
        }
      ],
      "stateMutability": "nonpayable",
      "type": "function"
    },
    {
      "stateMutability": "payable",
      "type": "receive"
    }
  ],
  "transactionHash": "0xa0e9f2776e9c9f45d405afc51a2bf55806043d52f45564478ae1c93c3703ac2a",
  "args": [
    "0x6f531931A7EaefB95307CcD93a348e4C27F62DCF",
    "0x3C68CE8504087f89c640D02d133646d98e64ddd9",
    "0x2058A9D7613eEE744279e3856Ef0eAda5FCbaA7e",
    "325000000000000000",
    "1000000000",
    10,
    "30000000"
  ],
  "solcInputHash": "71d9f9b9c6bba55e16af2d8e92c1874a",
  "bytecode": "0x6101a06040527f4d616e67726f76654f666665722f72656e6567656400000000000000000000006080527f4d616e67726f76654f666665722f7075744661696c757265000000000000000060a0527f4d616e67726f76654f666665722f6f75744f664c69717569646974790000000060c052620186a06001556009805460ff191690553480156200008f57600080fd5b5060405162004e4838038062004e48833981016040819052620000b29162000308565b600080546001600160a01b031916331790556001600160a01b03871660e0528115801590620000e957506001600160a01b03871615155b8015620000f95750818261ffff16145b80156200010e575083846001600160601b0316145b801562000123575082836001600160601b0316145b6200017e5760405162461bcd60e51b815260206004820152602160248201527f44414d4d2f636f6e7374727563746f722f696e76616c6964417267756d656e746044820152607360f81b606482015260840160405180910390fd5b6001600160a01b038087166101605285166101805261ffff821661010052816001600160401b03811115620001b757620001b762000383565b604051908082528060200260200182016040528015620001e1578160200160208202803683370190505b508051620001f89160029160209091019062000288565b50816001600160401b0381111562000214576200021462000383565b6040519080825280602002602001820160405280156200023e578160200160208202803683370190505b508051620002559160039160209091019062000288565b506001600160601b0393841661012052919092166101405260075550506001600881905562061a80905550620003999050565b828054828255906000526020600020908101928215620002c6579160200282015b82811115620002c6578251825591602001919060010190620002a9565b50620002d4929150620002d8565b5090565b5b80821115620002d45760008155600101620002d9565b6001600160a01b03811681146200030557600080fd5b50565b600080600080600080600060e0888a0312156200032457600080fd5b87516200033181620002ef565b60208901519097506200034481620002ef565b60408901519096506200035781620002ef565b80955050606088015193506080880151925060a0880151915060c0880151905092959891949750929550565b634e487b7160e01b600052604160045260246000fd5b60805160a05160c05160e051610100516101205161014051610160516101805161483b6200060d600039600081816104490152818161245d015281816126570152818161270b0152818161290501528181612cf801528181612d8d01528181612f5101528181613016015281816136e30152818161379201528181613847015281816138f601528181613bb30152613c7501526000818161059a01528181611d4d0152818161247e01528181612678015281816126ea015281816128e401528181612cd701528181612dae01528181612f7201528181612ff501528181613645015281816136c201528181613771015281816138680152818161391701528181613aa001528181613bd80152613c50015260008181612d5301528181612ddd01528181612fbb015281816130370152613cf00152600081816135b5015261361d01526000818161051d01528181611083015281816112ee01528181611357015281816113c601528181611eea0152818161294101528181612be301528181612c6001528181612e0401528181612e8a0152818161395b015281816139f10152613a300152600081816103f00152818161075b015281816108240152818161096001528181610abb01528181610c0101528181610f1f01528181611681015281816117c40152818161196201528181611a0e01528181611aec01528181611c390152818161201b0152818161211c0152818161219e015281816122a601528181612421015281816126ae01528181612a6d01528181612b19015281816130f7015281816131c00152818161331301526133c60152600081816109050152610e070152600050506000610d37015261483b6000f3fe6080604052600436106101dc5760003560e01c80638456cb5911610102578063ccfe4ef411610095578063ec342ad011610064578063ec342ad014610588578063eedc966a146105bc578063f851a440146105dc578063faa030ec1461060957600080fd5b8063ccfe4ef4146104eb578063d4a1da081461050b578063e428204d14610552578063e4c34f841461056857600080fd5b80639d4ddea2116100d15780639d4ddea21461046b578063ad97db1b1461048b578063aefe8403146104ab578063c5dbec38146104cb57600080fd5b80638456cb59146103b457806399cb40c1146103c957806399fa5e2d146103de5780639c5798391461043757600080fd5b80636a4f76911161017a57806374f6b7b51161014957806374f6b7b51461033d5780637b1a49091461035f578063830cbbbd1461037f578063836dfffa1461039f57600080fd5b80636a4f7691146102ca5780636c49c32c146102dd578063704b6c02146102fd57806370aae6eb1461031d57600080fd5b80633d3d130d116101b65780633d3d130d14610254578063458eda9a1461027457806349f6d2dc146102975780636a3f5f9d146102aa57600080fd5b8063063df2d2146101e85780631ef3755d1461021d57806334bd89311461023457600080fd5b366101e357005b600080fd5b3480156101f457600080fd5b50610208610203366004613db2565b610611565b60405190151581526020015b60405180910390f35b34801561022957600080fd5b50610232610691565b005b34801561024057600080fd5b5061023261024f366004613ddc565b610722565b34801561026057600080fd5b5061023261026f366004613e08565b610822565b34801561028057600080fd5b5061028961092f565b604051908152602001610214565b6102896102a5366004613e68565b6109e5565b3480156102b657600080fd5b506102896102c5366004613ec6565b610a69565b6102326102d8366004613f02565b610b7b565b3480156102e957600080fd5b506102896102f8366004613f69565b610bfd565b34801561030957600080fd5b50610232610318366004613f86565b610e38565b34801561032957600080fd5b50610232610338366004613faf565b610ee6565b34801561034957600080fd5b506103526112e4565b604051610214919061408b565b34801561036b57600080fd5b5061020861037a366004613db2565b611498565b34801561038b57600080fd5b5061020861039a366004613db2565b611565565b3480156103ab57600080fd5b506102896115d8565b3480156103c057600080fd5b50610232611648565b3480156103d557600080fd5b5061028961171c565b3480156103ea57600080fd5b506104127f000000000000000000000000000000000000000000000000000000000000000081565b60405173ffffffffffffffffffffffffffffffffffffffff9091168152602001610214565b34801561044357600080fd5b506104127f000000000000000000000000000000000000000000000000000000000000000081565b34801561047757600080fd5b50610232610486366004613ddc565b61178b565b34801561049757600080fd5b506102896104a636600461411e565b611837565b3480156104b757600080fd5b506102326104c6366004613db2565b6118b4565b3480156104d757600080fd5b506102326104e6366004613ddc565b611929565b3480156104f757600080fd5b50610232610506366004613ddc565b6119d5565b34801561051757600080fd5b5061053f7f000000000000000000000000000000000000000000000000000000000000000081565b60405161ffff9091168152602001610214565b34801561055e57600080fd5b5061028960015481565b34801561057457600080fd5b5061028961058336600461416d565b611aa2565b34801561059457600080fd5b506104127f000000000000000000000000000000000000000000000000000000000000000081565b3480156105c857600080fd5b506102896105d7366004613f86565b611b6b565b3480156105e857600080fd5b506000546104129073ffffffffffffffffffffffffffffffffffffffff1681565b610232611bfc565b6000805473ffffffffffffffffffffffffffffffffffffffff16331461067e5760405162461bcd60e51b815260206004820152601860248201527f416363657373436f6e74726f6c6c65642f496e76616c6964000000000000000060448201526064015b60405180910390fd5b6106888383611c07565b90505b92915050565b60005473ffffffffffffffffffffffffffffffffffffffff1633146106f85760405162461bcd60e51b815260206004820152601860248201527f416363657373436f6e74726f6c6c65642f496e76616c696400000000000000006044820152606401610675565b600980547fffffffffffffffffffffffffffffffffffffffffffffffffffffffffffffff00169055565b60005473ffffffffffffffffffffffffffffffffffffffff1633148061077d57503373ffffffffffffffffffffffffffffffffffffffff7f000000000000000000000000000000000000000000000000000000000000000016145b6107c95760405162461bcd60e51b815260206004820152601860248201527f416363657373436f6e74726f6c6c65642f496e76616c696400000000000000006044820152606401610675565b808162ffffff161461081d5760405162461bcd60e51b815260206004820152601d60248201527f4d616e67726f76654f666665722f6761737265712f6f766572666c6f770000006044820152606401610675565b600155565b7f000000000000000000000000000000000000000000000000000000000000000073ffffffffffffffffffffffffffffffffffffffff8116158061087b57503373ffffffffffffffffffffffffffffffffffffffff8216145b6108c75760405162461bcd60e51b815260206004820152601860248201527f416363657373436f6e74726f6c6c65642f496e76616c696400000000000000006044820152606401610675565b81602001357f6d67762f747261646553756363657373000000000000000000000000000000001415610901576108fc83611d2d565b505050565b81357f000000000000000000000000000000000000000000000000000000000000000014156108fc57505050565b6040517f70a082310000000000000000000000000000000000000000000000000000000081523060048201526000907f000000000000000000000000000000000000000000000000000000000000000073ffffffffffffffffffffffffffffffffffffffff16906370a0823190602401602060405180830381865afa1580156109bc573d6000803e3d6000fd5b505050506040513d601f19601f820116820180604052508101906109e091906141ba565b905090565b6000805473ffffffffffffffffffffffffffffffffffffffff163314610a4d5760405162461bcd60e51b815260206004820152601860248201527f416363657373436f6e74726f6c6c65642f496e76616c696400000000000000006044820152606401610675565b610a5d8888888888888834612011565b98975050505050505050565b6040517fcbf75c9a00000000000000000000000000000000000000000000000000000000815273ffffffffffffffffffffffffffffffffffffffff8481166004830152838116602483015260009182917f0000000000000000000000000000000000000000000000000000000000000000169063cbf75c9a906044016040805180830381865afa158015610b01573d6000803e3d6000fd5b505050506040513d601f19601f82011682018060405250810190610b2591906141d3565b91505062ffffff8311610b385782610b3c565b6001545b92506dffffffffffffffffffffffffffff607882901c16610b6662ffffff606084901c1685614226565b610b70919061423e565b9150505b9392505050565b60005473ffffffffffffffffffffffffffffffffffffffff163314610be25760405162461bcd60e51b815260206004820152601860248201527f416363657373436f6e74726f6c6c65642f496e76616c696400000000000000006044820152606401610675565b610bf3888888888888888834612196565b5050505050505050565b60007f000000000000000000000000000000000000000000000000000000000000000073ffffffffffffffffffffffffffffffffffffffff81161580610c5857503373ffffffffffffffffffffffffffffffffffffffff8216145b610ca45760405162461bcd60e51b815260206004820152601860248201527f416363657373436f6e74726f6c6c65642f496e76616c696400000000000000006044820152606401610675565b60095460ff1615610d5d57610cbf6040840160208501613f86565b73ffffffffffffffffffffffffffffffffffffffff16610ce26020850185613f86565b73ffffffffffffffffffffffffffffffffffffffff167f5c3a327c0caf47aa560dbca16cce241483daac785fd723d9e0fb2af3256373bf8560400135604051610d2d91815260200190565b60405180910390a37f00000000000000000000000000000000000000000000000000000000000000009150610e32565b600080610d6e85608001358661230e565b90508015610e2f57610d866040860160208701613f86565b73ffffffffffffffffffffffffffffffffffffffff16610da96020870187613f86565b73ffffffffffffffffffffffffffffffffffffffff167fc99fe658c80b903af0e1270f4a55564b3a7509294ab1052c6ab07f8198baea67876040013584604051610dfd929190918252602082015260400190565b60405180910390a37f000000000000000000000000000000000000000000000000000000000000000093505050610e32565b50505b50919050565b60005473ffffffffffffffffffffffffffffffffffffffff163314610e9f5760405162461bcd60e51b815260206004820152601860248201527f416363657373436f6e74726f6c6c65642f496e76616c696400000000000000006044820152606401610675565b600080547fffffffffffffffffffffffff00000000000000000000000000000000000000001673ffffffffffffffffffffffffffffffffffffffff92909216919091179055565b60005473ffffffffffffffffffffffffffffffffffffffff16331480610f4157503373ffffffffffffffffffffffffffffffffffffffff7f000000000000000000000000000000000000000000000000000000000000000016145b610f8d5760405162461bcd60e51b815260206004820152601860248201527f416363657373436f6e74726f6c6c65642f496e76616c696400000000000000006044820152606401610675565b8484118015610faf5750610fa1858561427b565b610fab84806142c1565b9050145b610ffb5760405162461bcd60e51b815260206004820152601c60248201527f44414d4d2f696e697469616c697a652f696e76616c6964536c696365000000006044820152606401610675565b611005858561427b565b81146110795760405162461bcd60e51b815260206004820152602260248201527f44414d4d2f696e697469616c697a652f696e76616c696442617365416d6f756e60448201527f74730000000000000000000000000000000000000000000000000000000000006064820152608401610675565b8615806110aa57507f000000000000000000000000000000000000000000000000000000000000000061ffff168414155b6110f65760405162461bcd60e51b815260206004820152601d60248201527f44414d4d2f696e697469616c697a652f4e6f536c6f74466f7241736b730000006044820152606401610675565b868061110157508415155b61114d5760405162461bcd60e51b815260206004820152601d60248201527f44414d4d2f696e697469616c697a652f4e6f536c6f74466f72426964730000006044820152606401610675565b845b8481101561129957871561120157600061118485825b60200281019061117591906142c1565b61117f8a8661427b565b6123d3565b9050600081116111ca576000821161119d5760006111cc565b60036111aa60018461427b565b815481106111ba576111ba614292565b90600052602060002001546111cc565b805b90506111fb828986866111df8c8561427b565b8181106111ee576111ee614292565b905060200201358461241d565b50611287565b600061120e856001611165565b9050600081116112545760008211611227576000611256565b600261123460018461427b565b8154811061124457611244614292565b9060005260206000200154611256565b805b9050611285828986866112698c8561427b565b81811061127857611278614292565b90506020020135846126aa565b505b8061129181614330565b91505061114f565b60408051878152602081018790528915158183015290517fe393fbe1ac5ce246ead792647ebaba23d1ce44926796a63d32c7cfd1759860499181900360600190a15050505050505050565b6112ec613d67565b7f000000000000000000000000000000000000000000000000000000000000000061ffff1667ffffffffffffffff81111561132957611329614369565b604051908082528060200260200182016040528015611352578160200160208202803683370190505b5081527f000000000000000000000000000000000000000000000000000000000000000061ffff1667ffffffffffffffff81111561139257611392614369565b6040519080825280602002602001820160405280156113bb578160200160208202803683370190505b50602082015260005b7f000000000000000000000000000000000000000000000000000000000000000061ffff168110156114945760036113fb8261292c565b8154811061140b5761140b614292565b600091825260209091200154825180518390811061142b5761142b614292565b60200260200101818152505060026114428261292c565b8154811061145257611452614292565b6000918252602090912001548260016020020151828151811061147757611477614292565b60209081029190910101528061148c81614330565b9150506113c4565b5090565b6000805473ffffffffffffffffffffffffffffffffffffffff1633146115005760405162461bcd60e51b815260206004820152601860248201527f416363657373436f6e74726f6c6c65642f496e76616c696400000000000000006044820152606401610675565b60405173ffffffffffffffffffffffffffffffffffffffff8416908390600081818185875af1925050503d8060008114611556576040519150601f19603f3d011682016040523d82523d6000602084013e61155b565b606091505b5090949350505050565b6000805473ffffffffffffffffffffffffffffffffffffffff1633146115cd5760405162461bcd60e51b815260206004820152601860248201527f416363657373436f6e74726f6c6c65642f496e76616c696400000000000000006044820152606401610675565b610688833384612969565b6000805473ffffffffffffffffffffffffffffffffffffffff1633146116405760405162461bcd60e51b815260206004820152601860248201527f416363657373436f6e74726f6c6c65642f496e76616c696400000000000000006044820152606401610675565b506006545b90565b60005473ffffffffffffffffffffffffffffffffffffffff163314806116a357503373ffffffffffffffffffffffffffffffffffffffff7f000000000000000000000000000000000000000000000000000000000000000016145b6116ef5760405162461bcd60e51b815260206004820152601860248201527f416363657373436f6e74726f6c6c65642f496e76616c696400000000000000006044820152606401610675565b600980547fffffffffffffffffffffffffffffffffffffffffffffffffffffffffffffff00166001179055565b6000805473ffffffffffffffffffffffffffffffffffffffff1633146117845760405162461bcd60e51b815260206004820152601860248201527f416363657373436f6e74726f6c6c65642f496e76616c696400000000000000006044820152606401610675565b5060075490565b60005473ffffffffffffffffffffffffffffffffffffffff163314806117e657503373ffffffffffffffffffffffffffffffffffffffff7f000000000000000000000000000000000000000000000000000000000000000016145b6118325760405162461bcd60e51b815260206004820152601860248201527f416363657373436f6e74726f6c6c65642f496e76616c696400000000000000006044820152606401610675565b600855565b6000805473ffffffffffffffffffffffffffffffffffffffff16331461189f5760405162461bcd60e51b815260206004820152601860248201527f416363657373436f6e74726f6c6c65642f496e76616c696400000000000000006044820152606401610675565b6118ab85858585612a0e565b95945050505050565b60005473ffffffffffffffffffffffffffffffffffffffff16331461191b5760405162461bcd60e51b815260206004820152601860248201527f416363657373436f6e74726f6c6c65642f496e76616c696400000000000000006044820152606401610675565b6119258282612adc565b5050565b60005473ffffffffffffffffffffffffffffffffffffffff1633148061198457503373ffffffffffffffffffffffffffffffffffffffff7f000000000000000000000000000000000000000000000000000000000000000016145b6119d05760405162461bcd60e51b815260206004820152601860248201527f416363657373436f6e74726f6c6c65642f496e76616c696400000000000000006044820152606401610675565b600755565b60005473ffffffffffffffffffffffffffffffffffffffff16331480611a3057503373ffffffffffffffffffffffffffffffffffffffff7f000000000000000000000000000000000000000000000000000000000000000016145b611a7c5760405162461bcd60e51b815260206004820152601860248201527f416363657373436f6e74726f6c6c65642f496e76616c696400000000000000006044820152606401610675565b6000811215611a9957611a96611a9182614398565b612be1565b50565b611a9681612e88565b6040517f70a08231000000000000000000000000000000000000000000000000000000008152306004820152600090611b619073ffffffffffffffffffffffffffffffffffffffff7f000000000000000000000000000000000000000000000000000000000000000016906370a0823190602401602060405180830381865afa158015611b33573d6000803e3d6000fd5b505050506040513d601f19601f82011682018060405250810190611b5791906141ba565b87878787876130a3565b9695505050505050565b6040517f70a0823100000000000000000000000000000000000000000000000000000000815230600482015260009073ffffffffffffffffffffffffffffffffffffffff8316906370a0823190602401602060405180830381865afa158015611bd8573d6000803e3d6000fd5b505050506040513d601f19601f8201168201806040525081019061068b91906141ba565b611c053461330b565b565b6040517f2e1a7d4d000000000000000000000000000000000000000000000000000000008152600481018290526000907f000000000000000000000000000000000000000000000000000000000000000073ffffffffffffffffffffffffffffffffffffffff1690632e1a7d4d906024016020604051808303816000875af1158015611c97573d6000803e3d6000fd5b505050506040513d601f19601f82011682018060405250810190611cbb91906143d1565b6115005760405162461bcd60e51b815260206004820152602360248201527f4d616e67726f76654f666665722f77697468647261772f7472616e736665724660448201527f61696c00000000000000000000000000000000000000000000000000000000006064820152608401610675565b611d3681613395565b73ffffffffffffffffffffffffffffffffffffffff7f000000000000000000000000000000000000000000000000000000000000000016611d7a6020830183613f86565b73ffffffffffffffffffffffffffffffffffffffff161415611ec4576040808201356000908152600560205290812054611db39061359e565b90508015611ddf57611925611dd1611dcc60018461427b565b61292c565b60008460a00135600061241d565b611def6040830160208401613f86565b73ffffffffffffffffffffffffffffffffffffffff16611e126020840184613f86565b73ffffffffffffffffffffffffffffffffffffffff167f768269e5e6803a8bc566de9364d8347774fff5b114c5a2ec556ab0459a1724268460400135604051611eb89181526040602082018190526023908201527f44414d4d2f706f7374686f6f6b2f427579696e674f75744f665072696365526160608201527f6e67650000000000000000000000000000000000000000000000000000000000608082015260a00190565b60405180910390a35050565b6040808201356000908152600460205290812054611ee19061359e565b9050611f0e60017f00000000000000000000000000000000000000000000000000000000000000006143ee565b61ffff16811015611f3857611925611f2a611dcc836001614226565b60018460a0013560006126aa565b611f486040830160208401613f86565b73ffffffffffffffffffffffffffffffffffffffff16611f6b6020840184613f86565b73ffffffffffffffffffffffffffffffffffffffff167f768269e5e6803a8bc566de9364d8347774fff5b114c5a2ec556ab0459a1724268460400135604051611eb89181526040602082018190526024908201527f44414d4d2f706f7374686f6f6b2f53656c6c696e674f75744f6650726963655260608201527f616e676500000000000000000000000000000000000000000000000000000000608082015260a00190565b6000811561209b577f000000000000000000000000000000000000000000000000000000000000000073ffffffffffffffffffffffffffffffffffffffff1663b60d4288836040518263ffffffff1660e01b81526004016000604051808303818588803b15801561208157600080fd5b505af1158015612095573d6000803e3d6000fd5b50505050505b62ffffff8511156120ac5760015494505b6040517f49f6d2dc00000000000000000000000000000000000000000000000000000000815273ffffffffffffffffffffffffffffffffffffffff8a81166004830152898116602483015260448201899052606482018890526084820187905260a4820186905260c482018590527f000000000000000000000000000000000000000000000000000000000000000016906349f6d2dc9060e4016020604051808303816000875af1158015612165573d6000803e3d6000fd5b505050506040513d601f19601f8201168201806040525081019061218991906141ba565b9998505050505050505050565b801561221e577f000000000000000000000000000000000000000000000000000000000000000073ffffffffffffffffffffffffffffffffffffffff1663b60d4288826040518263ffffffff1660e01b81526004016000604051808303818588803b15801561220457600080fd5b505af1158015612218573d6000803e3d6000fd5b50505050505b62ffffff85111561222f5760015494505b6040517f6a4f769100000000000000000000000000000000000000000000000000000000815273ffffffffffffffffffffffffffffffffffffffff8a81166004830152898116602483015260448201899052606482018890526084820187905260a4820186905260c4820185905260e482018490527f00000000000000000000000000000000000000000000000000000000000000001690636a4f76919061010401600060405180830381600087803b1580156122eb57600080fd5b505af11580156122ff573d6000803e3d6000fd5b50505050505050505050505050565b60008061231e6020840184613f86565b6040517f70a0823100000000000000000000000000000000000000000000000000000000815230600482015273ffffffffffffffffffffffffffffffffffffffff91909116906370a0823190602401602060405180830381865afa15801561238a573d6000803e3d6000fd5b505050506040513d601f19601f820116820180604052508101906123ae91906141ba565b90508381106123c157600091505061068b565b6123cb818561427b565b91505061068b565b60008383838181106123e7576123e7614292565b905060200201356000146124155783838381811061240757612407614292565b905060200201359050610b74565b506000610b74565b60007f000000000000000000000000000000000000000000000000000000000000000073ffffffffffffffffffffffffffffffffffffffff166368c13d6b7f00000000000000000000000000000000000000000000000000000000000000007f0000000000000000000000000000000000000000000000000000000000000000600389815481106124b0576124b0614292565b6000918252602090912001546040517fffffffff0000000000000000000000000000000000000000000000000000000060e086901b16815273ffffffffffffffffffffffffffffffffffffffff93841660048201529290911660248301526044820152606401602060405180830381865afa158015612533573d6000803e3d6000fd5b505050506040513d601f19601f8201168201806040525081019061255791906141ba565b905060006125648661359e565b9050600080861561259e5761258b6bffffffffffffffffffffffff606086901c1687614226565b915061259783836135b1565b90506125c5565b6125b66bffffffffffffffffffffffff851687614226565b90506125c28382613600565b91505b60006bffffffffffffffffffffffff85166126305785156125e7575084612651565b831561261f5760036125fd611dcc60018761427b565b8154811061260d5761260d614292565b90600052602060002001549050612651565b6126298560e01c90565b9050612651565b6003898154811061264357612643614292565b906000526020600020015490505b61269f897f00000000000000000000000000000000000000000000000000000000000000007f0000000000000000000000000000000000000000000000000000000000000000868686613643565b505050505050505050565b60007f000000000000000000000000000000000000000000000000000000000000000073ffffffffffffffffffffffffffffffffffffffff166368c13d6b7f00000000000000000000000000000000000000000000000000000000000000007f00000000000000000000000000000000000000000000000000000000000000006002898154811061273d5761273d614292565b6000918252602090912001546040517fffffffff0000000000000000000000000000000000000000000000000000000060e086901b16815273ffffffffffffffffffffffffffffffffffffffff93841660048201529290911660248301526044820152606401602060405180830381865afa1580156127c0573d6000803e3d6000fd5b505050506040513d601f19601f820116820180604052508101906127e491906141ba565b905060006127f18661359e565b90506000808615612827576128146bffffffffffffffffffffffff851687614226565b915061282083836135b1565b9050612852565b6128436bffffffffffffffffffffffff606086901c1687614226565b905061284f8382613600565b91505b60006bffffffffffffffffffffffff85166128bd5785156128745750846128de565b83156128ac57600261288a611dcc60018761427b565b8154811061289a5761289a614292565b906000526020600020015490506128de565b6128b68560e01c90565b90506128de565b600289815481106128d0576128d0614292565b906000526020600020015490505b61269f897f00000000000000000000000000000000000000000000000000000000000000007f0000000000000000000000000000000000000000000000000000000000000000858786613643565b600061068b6006548361293f9190614411565b7f000000000000000000000000000000000000000000000000000000000000000061ffff166139b3565b6040517fa9059cbb00000000000000000000000000000000000000000000000000000000815273ffffffffffffffffffffffffffffffffffffffff8381166004830152602482018390526000919085169063a9059cbb906044016020604051808303816000875af11580156129e2573d6000803e3d6000fd5b505050506040513d601f19601f82011682018060405250810190612a0691906143d1565b949350505050565b6040517fad97db1b00000000000000000000000000000000000000000000000000000000815273ffffffffffffffffffffffffffffffffffffffff858116600483015284811660248301526044820184905282151560648301526000917f00000000000000000000000000000000000000000000000000000000000000009091169063ad97db1b906084016020604051808303816000875af1158015612ab8573d6000803e3d6000fd5b505050506040513d601f19601f820116820180604052508101906118ab91906141ba565b6040517f095ea7b300000000000000000000000000000000000000000000000000000000815273ffffffffffffffffffffffffffffffffffffffff7f0000000000000000000000000000000000000000000000000000000000000000811660048301526024820183905283169063095ea7b3906044016020604051808303816000875af1158015612b71573d6000803e3d6000fd5b505050506040513d601f19601f82011682018060405250810190612b9591906143d1565b6119255760405162461bcd60e51b815260206004820152601560248201527f6d67764f666665722f617070726f76652f4661696c00000000000000000000006044820152606401610675565b7f000000000000000000000000000000000000000000000000000000000000000061ffff168110612c545760405162461bcd60e51b815260206004820181905260248201527f44414d4d2f73686966742f4e656761746976655368696674546f6f4c617267656044820152606401610675565b6000612c8d612c8460017f00000000000000000000000000000000000000000000000000000000000000006143ee565b61ffff1661292c565b90508160066000828254612ca19190614485565b90915550505b81156119255760028181548110612cc057612cc0614292565b9060005260206000200154600014612d3e57612d3c7f00000000000000000000000000000000000000000000000000000000000000007f000000000000000000000000000000000000000000000000000000000000000060028481548110612d2a57612d2a614292565b90600052602060002001546000612a0e565b505b6000612d498261359e565b90506000612d85827f00000000000000000000000000000000000000000000000000000000000000006bffffffffffffffffffffffff16613600565b9050612e69837f00000000000000000000000000000000000000000000000000000000000000007f0000000000000000000000000000000000000000000000000000000000000000846bffffffffffffffffffffffff7f000000000000000000000000000000000000000000000000000000000000000016612e2860017f00000000000000000000000000000000000000000000000000000000000000006143ee565b61ffff168810612e39576000613643565b6003612e49611dcc8a6001614226565b81548110612e5957612e59614292565b9060005260206000200154613643565b83612e73816144f9565b945050612e7f836139e1565b92505050612ca7565b7f000000000000000000000000000000000000000000000000000000000000000061ffff168110612efb5760405162461bcd60e51b815260206004820181905260248201527f44414d4d2f73686966742f706f7369746976655368696674546f6f4c617267656044820152606401610675565b6000612f07600061292c565b90508160066000828254612f1b9190614411565b90915550505b81156119255760038181548110612f3a57612f3a614292565b9060005260206000200154600014612fa657612fa47f00000000000000000000000000000000000000000000000000000000000000007f000000000000000000000000000000000000000000000000000000000000000060038481548110612d2a57612d2a614292565b505b6000612fb18261359e565b90506000612fed827f00000000000000000000000000000000000000000000000000000000000000006bffffffffffffffffffffffff16613600565b9050613084837f00000000000000000000000000000000000000000000000000000000000000007f00000000000000000000000000000000000000000000000000000000000000007f00000000000000000000000000000000000000000000000000000000000000006bffffffffffffffffffffffff168560008811613074576000613643565b6002612e49611dcc60018b61427b565b8361308e816144f9565b94505061309a83613a29565b92505050612f21565b6040517fcbf75c9a00000000000000000000000000000000000000000000000000000000815273ffffffffffffffffffffffffffffffffffffffff86811660048301528581166024830152600091829182917f00000000000000000000000000000000000000000000000000000000000000009091169063cbf75c9a906044016040805180830381865afa15801561313f573d6000803e3d6000fd5b505050506040513d601f19601f8201168201806040525081019061316391906141d3565b6040517f5722647b00000000000000000000000000000000000000000000000000000000815273ffffffffffffffffffffffffffffffffffffffff8b811660048301528a81166024830152604482018890529294509092506000917f00000000000000000000000000000000000000000000000000000000000000001690635722647b90606401602060405180830381865afa158015613207573d6000803e3d6000fd5b505050506040513d601f19601f8201168201806040525081019061322b91906141ba565b9050600086604085901c61ffff16111561324e575061ffff604084901c16613251565b50855b62ffffff8811156132625760015497505b60008161327862ffffff606087901c168b614226565b613282919061423e565b61329090633b9aca0061423e565b9050600061ffff602085901c166132b762ffffff603087901c811690604888901c16614226565b6132c1919061423e565b6132cf90633b9aca0061423e565b905060006132dd8e83614226565b9050828110156132f6576132f1818461427b565b6132f9565b60005b9e9d5050505050505050505050505050565b8015611a96577f000000000000000000000000000000000000000000000000000000000000000073ffffffffffffffffffffffffffffffffffffffff1663b60d4288826040518263ffffffff1660e01b81526004016000604051808303818588803b15801561337957600080fd5b505af115801561338d573d6000803e3d6000fd5b505050505050565b60006133a082613a65565b905060006133ad83613a87565b905073ffffffffffffffffffffffffffffffffffffffff7f000000000000000000000000000000000000000000000000000000000000000016636a4f76916133f86020860186613f86565b6134086040870160208801613f86565b848660c089013560481c62ffffff1660c08a013560201c61ffff1660608b013560c01c63ffffffff16604080517fffffffff0000000000000000000000000000000000000000000000000000000060e08b901b16815273ffffffffffffffffffffffffffffffffffffffff988916600482015297909616602488015260448701949094526064860192909252608485015260a484015260c483015286013560e482015261010401600060405180830381600087803b1580156134c957600080fd5b505af19250505080156134da575060015b6108fc576134e661452e565b806308c379a0141561359257506134fb6145bb565b806135065750613594565b6135166040850160208601613f86565b73ffffffffffffffffffffffffffffffffffffffff166135396020860186613f86565b73ffffffffffffffffffffffffffffffffffffffff167f768269e5e6803a8bc566de9364d8347774fff5b114c5a2ec556ab0459a172426866040013584604051613584929190614663565b60405180910390a350505050565b505b3d6000803e3d6000fd5b600061068b6006548361293f9190614485565b60007f00000000000000000000000000000000000000000000000000000000000000006bffffffffffffffffffffffff16826135ec85613b70565b6135f6919061423e565b610688919061470d565b600061360b83613b70565b6135f66bffffffffffffffffffffffff7f0000000000000000000000000000000000000000000000000000000000000000168461423e565b7f000000000000000000000000000000000000000000000000000000000000000073ffffffffffffffffffffffffffffffffffffffff168573ffffffffffffffffffffffffffffffffffffffff16141561381c57600286815481106136aa576136aa614292565b90600052602060002001546000141561376c576137117f00000000000000000000000000000000000000000000000000000000000000007f000000000000000000000000000000000000000000000000000000000000000085856001546000876000612011565b6002878154811061372457613724614292565b906000526020600020018190555085600560006002898154811061374a5761374a614292565b90600052602060002001548152602001908152602001600020819055506137de565b6137de7f00000000000000000000000000000000000000000000000000000000000000007f0000000000000000000000000000000000000000000000000000000000000000858560015460008760028e815481106137cc576137cc614292565b90600052602060002001546000612196565b6008546137ea8761359e565b116138175761381760006002888154811061380757613807614292565b9060005260206000200154613b92565b61338d565b6003868154811061382f5761382f614292565b9060005260206000200154600014156138f1576138967f00000000000000000000000000000000000000000000000000000000000000007f000000000000000000000000000000000000000000000000000000000000000085856001546000876000612011565b600387815481106138a9576138a9614292565b90600052602060002001819055508560046000600389815481106138cf576138cf614292565b9060005260206000200154815260200190815260200160002081905550613951565b6139517f00000000000000000000000000000000000000000000000000000000000000007f0000000000000000000000000000000000000000000000000000000000000000858560015460008760038e815481106137cc576137cc614292565b60085461397f60017f00000000000000000000000000000000000000000000000000000000000000006143ee565b61ffff1661398d919061427b565b6139968761359e565b1061338d5761338d60016003888154811061380757613807614292565b60008083126139cd576139c68284614721565b905061068b565b6139d78284614735565b6139c69083614411565b6000808211613a1e57613a1560017f00000000000000000000000000000000000000000000000000000000000000006143ee565b61ffff1661068b565b61068b60018361427b565b600061ffff7f000000000000000000000000000000000000000000000000000000000000000016613a5b836001614226565b61068b9190614721565b600061068b608083013560608401356bffffffffffffffffffffffff1661427b565b600073ffffffffffffffffffffffffffffffffffffffff7f000000000000000000000000000000000000000000000000000000000000000016613acd6020840184613f86565b73ffffffffffffffffffffffffffffffffffffffff161415613b2a57604080830135600090815260056020529081205490613b0784613a65565b905080613b18575060009392505050565b612a06613b248361359e565b826135b1565b604080830135600090815260046020529081205490613b4884613a65565b905080613b59575060009392505050565b612a06613b658361359e565b82613600565b919050565b6000613b7a613cca565b82600754613b88919061423e565b61068b9190614226565b8115613c35576040805173ffffffffffffffffffffffffffffffffffffffff7f0000000000000000000000000000000000000000000000000000000000000000811682527f00000000000000000000000000000000000000000000000000000000000000001660208201529081018290527fa277cbc4d6eebe10b75c089f332890611f79a84754eeaaf06ed641c899dbafb1906060015b60405180910390a15050565b6040805173ffffffffffffffffffffffffffffffffffffffff7f0000000000000000000000000000000000000000000000000000000000000000811682527f00000000000000000000000000000000000000000000000000000000000000001660208201529081018290527f87c70da6914e41de8c96757fe2e40f6b1e13781d812e768da91b926699aba2ec90606001613c29565b600080600754600654613cdd9190614749565b613d15906bffffffffffffffffffffffff7f000000000000000000000000000000000000000000000000000000000000000016614411565b905060008113613b6b5760405162461bcd60e51b815260206004820152601d60248201527f44414d4d2f71756f74655f6d696e2f5368696674556e646572666c6f770000006044820152606401610675565b60405180604001604052806002905b6060815260200190600190039081613d765790505090565b803573ffffffffffffffffffffffffffffffffffffffff81168114613b6b57600080fd5b60008060408385031215613dc557600080fd5b613dce83613d8e565b946020939093013593505050565b600060208284031215613dee57600080fd5b5035919050565b60006101208284031215610e3257600080fd5b600080828403610160811215613e1d57600080fd5b613e278585613df5565b925060407ffffffffffffffffffffffffffffffffffffffffffffffffffffffffffffffee082011215613e5957600080fd5b50610120830190509250929050565b600080600080600080600060e0888a031215613e8357600080fd5b613e8c88613d8e565b9650613e9a60208901613d8e565b96999698505050506040850135946060810135946080820135945060a0820135935060c0909101359150565b600080600060608486031215613edb57600080fd5b613ee484613d8e565b9250613ef260208501613d8e565b9150604084013590509250925092565b600080600080600080600080610100898b031215613f1f57600080fd5b613f2889613d8e565b9750613f3660208a01613d8e565b979a9799505050506040860135956060810135956080820135955060a0820135945060c0820135935060e0909101359150565b60006101208284031215613f7c57600080fd5b6106888383613df5565b600060208284031215613f9857600080fd5b61068882613d8e565b8015158114611a9657600080fd5b600080600080600080600060c0888a031215613fca57600080fd5b8735613fd581613fa1565b96506020880135613fe581613fa1565b95506040880135945060608801359350608088013567ffffffffffffffff8082111561401057600080fd5b818a0191508a60408301111561402557600080fd5b90935060a0890135908082111561403b57600080fd5b818a0191508a601f83011261404f57600080fd5b81358181111561405e57600080fd5b8b60208260051b850101111561407357600080fd5b60208301945080935050505092959891949750929550565b6020808252600090606083018382018584805b6002811015614111578785037fffffffffffffffffffffffffffffffffffffffffffffffffffffffffffffffe0018452825180518087529087019087870190845b818110156140fb578351835292890192918901916001016140df565b509096505050928501929185019160010161409e565b5092979650505050505050565b6000806000806080858703121561413457600080fd5b61413d85613d8e565b935061414b60208601613d8e565b925060408501359150606085013561416281613fa1565b939692955090935050565b600080600080600060a0868803121561418557600080fd5b61418e86613d8e565b945061419c60208701613d8e565b94979496505050506040830135926060810135926080909101359150565b6000602082840312156141cc57600080fd5b5051919050565b600080604083850312156141e657600080fd5b505080516020909101519092909150565b7f4e487b7100000000000000000000000000000000000000000000000000000000600052601160045260246000fd5b60008219821115614239576142396141f7565b500190565b6000817fffffffffffffffffffffffffffffffffffffffffffffffffffffffffffffffff0483118215151615614276576142766141f7565b500290565b60008282101561428d5761428d6141f7565b500390565b7f4e487b7100000000000000000000000000000000000000000000000000000000600052603260045260246000fd5b60008083357fffffffffffffffffffffffffffffffffffffffffffffffffffffffffffffffe18436030181126142f657600080fd5b83018035915067ffffffffffffffff82111561431157600080fd5b6020019150600581901b360382131561432957600080fd5b9250929050565b60007fffffffffffffffffffffffffffffffffffffffffffffffffffffffffffffffff821415614362576143626141f7565b5060010190565b7f4e487b7100000000000000000000000000000000000000000000000000000000600052604160045260246000fd5b60007f80000000000000000000000000000000000000000000000000000000000000008214156143ca576143ca6141f7565b5060000390565b6000602082840312156143e357600080fd5b8151610b7481613fa1565b600061ffff83811690831681811015614409576144096141f7565b039392505050565b6000808212827f7fffffffffffffffffffffffffffffffffffffffffffffffffffffffffffffff0384138115161561444b5761444b6141f7565b827f800000000000000000000000000000000000000000000000000000000000000003841281161561447f5761447f6141f7565b50500190565b6000808312837f8000000000000000000000000000000000000000000000000000000000000000018312811516156144bf576144bf6141f7565b837f7fffffffffffffffffffffffffffffffffffffffffffffffffffffffffffffff0183138116156144f3576144f36141f7565b50500390565b600081614508576145086141f7565b507fffffffffffffffffffffffffffffffffffffffffffffffffffffffffffffffff0190565b600060033d11156116455760046000803e5060005160e01c90565b7fffffffffffffffffffffffffffffffffffffffffffffffffffffffffffffffe0601f830116810181811067ffffffffffffffff821117156145b4577f4e487b7100000000000000000000000000000000000000000000000000000000600052604160045260246000fd5b6040525050565b600060443d10156145c95790565b6040517ffffffffffffffffffffffffffffffffffffffffffffffffffffffffffffffffc803d016004833e81513d67ffffffffffffffff816024840111818411171561461757505050505090565b828501915081518181111561462f5750505050505090565b843d87010160208285010111156146495750505050505090565b61465860208286010187614549565b509095945050505050565b82815260006020604081840152835180604085015260005b818110156146975785810183015185820160600152820161467b565b818111156146a9576000606083870101525b50601f017fffffffffffffffffffffffffffffffffffffffffffffffffffffffffffffffe01692909201606001949350505050565b7f4e487b7100000000000000000000000000000000000000000000000000000000600052601260045260246000fd5b60008261471c5761471c6146de565b500490565b600082614730576147306146de565b500690565b600082614744576147446146de565b500790565b60007f7fffffffffffffffffffffffffffffffffffffffffffffffffffffffffffffff60008413600084138583048511828216161561478a5761478a6141f7565b7f800000000000000000000000000000000000000000000000000000000000000060008712868205881281841616156147c5576147c56141f7565b600087129250878205871284841616156147e1576147e16141f7565b878505871281841616156147f7576147f76141f7565b50505092909302939250505056fea2646970667358221220876f10feefb1ad0b7faa2827c80d6f1a7995aece99b4a269657618c21894717164736f6c634300080a0033",
  "devdoc": {
    "kind": "dev",
    "methods": {},
    "version": 1
  },
  "userdoc": {
    "events": {
      "PosthookFail(address,address,uint256,string)": {
        "notice": "Events "
      }
    },
    "kind": "user",
    "methods": {
      "NSLOTS()": {
        "notice": "Immutables "
      },
      "approveMangrove(address,uint256)": {
        "notice": "trader needs to approve Mangrove to let it perform outbound token transfer at the end of the `makerExecute` function"
      },
      "get_delta()": {
        "notice": "Setters and getters "
      },
      "redeemToken(address,uint256)": {
        "notice": "transfers token stored in `this` contract to some recipient address"
      },
      "set_shift(int256)": {
        "notice": "price at position i will be shifted (up or down depending on the sign of `shift`) of (shift*delta) / BASE_0 "
      },
      "withdrawFromMangrove(address,uint256)": {
        "notice": "withdraws ETH from the bounty vault of the Mangrove."
      }
    },
    "version": 1
  },
  "storageLayout": {
    "storage": [
      {
        "astId": 18058,
        "contract": "contracts/Strategies/OfferLogics/SingleUser/Deployable/MarketMaking/Mango.sol:Mango",
        "label": "admin",
        "offset": 0,
        "slot": "0",
        "type": "t_address"
      },
      {
        "astId": 10938,
        "contract": "contracts/Strategies/OfferLogics/SingleUser/Deployable/MarketMaking/Mango.sol:Mango",
        "label": "OFR_GASREQ",
        "offset": 0,
        "slot": "1",
        "type": "t_uint256"
      },
      {
        "astId": 14423,
        "contract": "contracts/Strategies/OfferLogics/SingleUser/Deployable/MarketMaking/Mango.sol:Mango",
        "label": "ASKS",
        "offset": 0,
        "slot": "2",
        "type": "t_array(t_uint256)dyn_storage"
      },
      {
        "astId": 14426,
        "contract": "contracts/Strategies/OfferLogics/SingleUser/Deployable/MarketMaking/Mango.sol:Mango",
        "label": "BIDS",
        "offset": 0,
        "slot": "3",
        "type": "t_array(t_uint256)dyn_storage"
      },
      {
        "astId": 14430,
        "contract": "contracts/Strategies/OfferLogics/SingleUser/Deployable/MarketMaking/Mango.sol:Mango",
        "label": "index_of_bid",
        "offset": 0,
        "slot": "4",
        "type": "t_mapping(t_uint256,t_uint256)"
      },
      {
        "astId": 14434,
        "contract": "contracts/Strategies/OfferLogics/SingleUser/Deployable/MarketMaking/Mango.sol:Mango",
        "label": "index_of_ask",
        "offset": 0,
        "slot": "5",
        "type": "t_mapping(t_uint256,t_uint256)"
      },
      {
        "astId": 14436,
        "contract": "contracts/Strategies/OfferLogics/SingleUser/Deployable/MarketMaking/Mango.sol:Mango",
        "label": "current_shift",
        "offset": 0,
        "slot": "6",
        "type": "t_int256"
      },
      {
        "astId": 14438,
        "contract": "contracts/Strategies/OfferLogics/SingleUser/Deployable/MarketMaking/Mango.sol:Mango",
        "label": "current_delta",
        "offset": 0,
        "slot": "7",
        "type": "t_uint256"
      },
      {
        "astId": 14440,
        "contract": "contracts/Strategies/OfferLogics/SingleUser/Deployable/MarketMaking/Mango.sol:Mango",
        "label": "current_min_offer_type",
        "offset": 0,
        "slot": "8",
        "type": "t_uint256"
      },
      {
        "astId": 14443,
        "contract": "contracts/Strategies/OfferLogics/SingleUser/Deployable/MarketMaking/Mango.sol:Mango",
        "label": "paused",
        "offset": 0,
        "slot": "9",
        "type": "t_bool"
      }
    ],
    "types": {
      "t_address": {
        "encoding": "inplace",
        "label": "address",
        "numberOfBytes": "20"
      },
      "t_array(t_uint256)dyn_storage": {
        "base": "t_uint256",
        "encoding": "dynamic_array",
        "label": "uint256[]",
        "numberOfBytes": "32"
      },
      "t_bool": {
        "encoding": "inplace",
        "label": "bool",
        "numberOfBytes": "1"
      },
      "t_int256": {
        "encoding": "inplace",
        "label": "int256",
        "numberOfBytes": "32"
      },
      "t_mapping(t_uint256,t_uint256)": {
        "encoding": "mapping",
        "key": "t_uint256",
        "label": "mapping(uint256 => uint256)",
        "numberOfBytes": "32",
        "value": "t_uint256"
      },
      "t_uint256": {
        "encoding": "inplace",
        "label": "uint256",
        "numberOfBytes": "32"
      }
    }
  }
}