{
  "address": "0x22363828164459462aDB7F06D671AE4C7351e794",
  "abi": [
    {
      "inputs": [
        {
          "internalType": "address payable",
          "name": "mgv",
          "type": "address"
        },
        {
          "internalType": "address",
          "name": "base",
          "type": "address"
        },
        {
          "internalType": "address",
          "name": "quote",
          "type": "address"
        },
        {
          "internalType": "uint256",
          "name": "base_0",
          "type": "uint256"
        },
        {
          "internalType": "uint256",
          "name": "quote_0",
          "type": "uint256"
        },
        {
          "internalType": "uint256",
          "name": "nslots",
          "type": "uint256"
        },
        {
          "internalType": "uint256",
          "name": "delta",
          "type": "uint256"
        }
      ],
      "stateMutability": "nonpayable",
      "type": "constructor"
    },
    {
      "anonymous": false,
      "inputs": [
        {
          "indexed": false,
          "internalType": "address",
          "name": "quote",
          "type": "address"
        },
        {
          "indexed": false,
          "internalType": "address",
          "name": "base",
          "type": "address"
        },
        {
          "indexed": false,
          "internalType": "uint256",
          "name": "offerId",
          "type": "uint256"
        }
      ],
      "name": "AskAtMinPosition",
      "type": "event"
    },
    {
      "anonymous": false,
      "inputs": [
        {
          "indexed": false,
          "internalType": "address",
          "name": "quote",
          "type": "address"
        },
        {
          "indexed": false,
          "internalType": "address",
          "name": "base",
          "type": "address"
        },
        {
          "indexed": false,
          "internalType": "uint256",
          "name": "offerId",
          "type": "uint256"
        }
      ],
      "name": "BidAtMaxPosition",
      "type": "event"
    },
    {
      "anonymous": false,
      "inputs": [
        {
          "indexed": true,
          "internalType": "address",
          "name": "outbound_tkn",
          "type": "address"
        },
        {
          "indexed": true,
          "internalType": "address",
          "name": "inbound_tkn",
          "type": "address"
        },
        {
          "indexed": false,
          "internalType": "uint256",
          "name": "offerId",
          "type": "uint256"
        },
        {
          "indexed": false,
          "internalType": "uint256",
          "name": "missingAmount",
          "type": "uint256"
        }
      ],
      "name": "GetFail",
      "type": "event"
    },
    {
      "anonymous": false,
      "inputs": [
        {
          "indexed": false,
          "internalType": "uint256",
          "name": "from",
          "type": "uint256"
        },
        {
          "indexed": false,
          "internalType": "uint256",
          "name": "to",
          "type": "uint256"
        }
      ],
      "name": "Initialized",
      "type": "event"
    },
    {
      "anonymous": false,
      "inputs": [
        {
          "indexed": true,
          "internalType": "address",
          "name": "outbound_tkn",
          "type": "address"
        },
        {
          "indexed": true,
          "internalType": "address",
          "name": "inbound_tkn",
          "type": "address"
        },
        {
          "indexed": true,
          "internalType": "uint256",
          "name": "offerId",
          "type": "uint256"
        },
        {
          "indexed": false,
          "internalType": "bytes",
          "name": "error_data",
          "type": "bytes"
        }
      ],
      "name": "LogIncident",
      "type": "event"
    },
    {
      "anonymous": false,
      "inputs": [
        {
          "indexed": true,
          "internalType": "address",
          "name": "outbound_tkn",
          "type": "address"
        },
        {
          "indexed": true,
          "internalType": "address",
          "name": "inbound_tkn",
          "type": "address"
        },
        {
          "indexed": false,
          "internalType": "uint256",
          "name": "offerId",
          "type": "uint256"
        },
        {
          "indexed": false,
          "internalType": "string",
          "name": "message",
          "type": "string"
        }
      ],
      "name": "PosthookFail",
      "type": "event"
    },
    {
      "anonymous": false,
      "inputs": [
        {
          "indexed": true,
          "internalType": "address",
          "name": "outbound_tkn",
          "type": "address"
        },
        {
          "indexed": true,
          "internalType": "address",
          "name": "inbound_tkn",
          "type": "address"
        },
        {
          "indexed": false,
          "internalType": "uint256",
          "name": "offerId",
          "type": "uint256"
        },
        {
          "indexed": false,
          "internalType": "uint256",
          "name": "missingAmount",
          "type": "uint256"
        }
      ],
      "name": "PutFail",
      "type": "event"
    },
    {
      "anonymous": false,
      "inputs": [
        {
          "indexed": true,
          "internalType": "address",
          "name": "outbound_tkn",
          "type": "address"
        },
        {
          "indexed": true,
          "internalType": "address",
          "name": "inbound_tkn",
          "type": "address"
        },
        {
          "indexed": false,
          "internalType": "uint256",
          "name": "offerId",
          "type": "uint256"
        }
      ],
      "name": "Reneged",
      "type": "event"
    },
    {
      "inputs": [],
      "name": "BASE",
      "outputs": [
        {
          "internalType": "address",
          "name": "",
          "type": "address"
        }
      ],
      "stateMutability": "view",
      "type": "function"
    },
    {
      "inputs": [],
      "name": "MGV",
      "outputs": [
        {
          "internalType": "contract IMangrove",
          "name": "",
          "type": "address"
        }
      ],
      "stateMutability": "view",
      "type": "function"
    },
    {
      "inputs": [],
      "name": "NSLOTS",
      "outputs": [
        {
          "internalType": "uint16",
          "name": "",
          "type": "uint16"
        }
      ],
      "stateMutability": "view",
      "type": "function"
    },
    {
      "inputs": [],
      "name": "OFR_GASREQ",
      "outputs": [
        {
          "internalType": "uint256",
          "name": "",
          "type": "uint256"
        }
      ],
      "stateMutability": "view",
      "type": "function"
    },
    {
      "inputs": [],
      "name": "QUOTE",
      "outputs": [
        {
          "internalType": "address",
          "name": "",
          "type": "address"
        }
      ],
      "stateMutability": "view",
      "type": "function"
    },
    {
      "inputs": [],
      "name": "admin",
      "outputs": [
        {
          "internalType": "address",
          "name": "",
          "type": "address"
        }
      ],
      "stateMutability": "view",
      "type": "function"
    },
    {
      "inputs": [
        {
          "internalType": "address",
          "name": "outbound_tkn",
          "type": "address"
        },
        {
          "internalType": "uint256",
          "name": "amount",
          "type": "uint256"
        }
      ],
      "name": "approveMangrove",
      "outputs": [],
      "stateMutability": "nonpayable",
      "type": "function"
    },
    {
      "inputs": [
        {
          "internalType": "address",
          "name": "outbound_tkn",
          "type": "address"
        },
        {
          "internalType": "address",
          "name": "inbound_tkn",
          "type": "address"
        },
        {
          "internalType": "uint256",
          "name": "gasreq",
          "type": "uint256"
        },
        {
          "internalType": "uint256",
          "name": "gasprice",
          "type": "uint256"
        },
        {
          "internalType": "uint256",
          "name": "offerId",
          "type": "uint256"
        }
      ],
      "name": "getMissingProvision",
      "outputs": [
        {
          "internalType": "uint256",
          "name": "",
          "type": "uint256"
        }
      ],
      "stateMutability": "view",
      "type": "function"
    },
    {
      "inputs": [],
      "name": "get_delta",
      "outputs": [
        {
          "internalType": "uint256",
          "name": "",
          "type": "uint256"
        }
      ],
      "stateMutability": "view",
      "type": "function"
    },
    {
      "inputs": [
        {
          "internalType": "bool",
          "name": "liveOnly",
          "type": "bool"
        }
      ],
      "name": "get_offers",
      "outputs": [
        {
          "internalType": "uint256[][2]",
          "name": "offers",
          "type": "uint256[][2]"
        }
      ],
      "stateMutability": "view",
      "type": "function"
    },
    {
      "inputs": [],
      "name": "get_shift",
      "outputs": [
        {
          "internalType": "int256",
          "name": "",
          "type": "int256"
        }
      ],
      "stateMutability": "view",
      "type": "function"
    },
    {
      "inputs": [
        {
          "internalType": "bool",
          "name": "base",
          "type": "bool"
        }
      ],
      "name": "get_treasury",
      "outputs": [
        {
          "internalType": "address",
          "name": "",
          "type": "address"
        }
      ],
      "stateMutability": "view",
      "type": "function"
    },
    {
      "inputs": [
        {
          "internalType": "uint256",
          "name": "lastBidPosition",
          "type": "uint256"
        },
        {
          "internalType": "bool",
          "name": "withBase",
          "type": "bool"
        },
        {
          "internalType": "uint256",
          "name": "from",
          "type": "uint256"
        },
        {
          "internalType": "uint256",
          "name": "to",
          "type": "uint256"
        },
        {
          "internalType": "uint256[][2]",
          "name": "pivotIds",
          "type": "uint256[][2]"
        },
        {
          "internalType": "uint256[]",
          "name": "tokenAmounts",
          "type": "uint256[]"
        }
      ],
      "name": "initialize",
      "outputs": [],
      "stateMutability": "nonpayable",
      "type": "function"
    },
    {
      "inputs": [
        {
          "components": [
            {
              "internalType": "address",
              "name": "outbound_tkn",
              "type": "address"
            },
            {
              "internalType": "address",
              "name": "inbound_tkn",
              "type": "address"
            },
            {
              "internalType": "uint256",
              "name": "offerId",
              "type": "uint256"
            },
            {
              "internalType": "Offer.t",
              "name": "offer",
              "type": "uint256"
            },
            {
              "internalType": "uint256",
              "name": "wants",
              "type": "uint256"
            },
            {
              "internalType": "uint256",
              "name": "gives",
              "type": "uint256"
            },
            {
              "internalType": "OfferDetail.t",
              "name": "offerDetail",
              "type": "uint256"
            },
            {
              "internalType": "Global.t",
              "name": "global",
              "type": "uint256"
            },
            {
              "internalType": "Local.t",
              "name": "local",
              "type": "uint256"
            }
          ],
          "internalType": "struct MgvLib.SingleOrder",
          "name": "order",
          "type": "tuple"
        }
      ],
      "name": "makerExecute",
      "outputs": [
        {
          "internalType": "bytes32",
          "name": "ret",
          "type": "bytes32"
        }
      ],
      "stateMutability": "nonpayable",
      "type": "function"
    },
    {
      "inputs": [
        {
          "components": [
            {
              "internalType": "address",
              "name": "outbound_tkn",
              "type": "address"
            },
            {
              "internalType": "address",
              "name": "inbound_tkn",
              "type": "address"
            },
            {
              "internalType": "uint256",
              "name": "offerId",
              "type": "uint256"
            },
            {
              "internalType": "Offer.t",
              "name": "offer",
              "type": "uint256"
            },
            {
              "internalType": "uint256",
              "name": "wants",
              "type": "uint256"
            },
            {
              "internalType": "uint256",
              "name": "gives",
              "type": "uint256"
            },
            {
              "internalType": "OfferDetail.t",
              "name": "offerDetail",
              "type": "uint256"
            },
            {
              "internalType": "Global.t",
              "name": "global",
              "type": "uint256"
            },
            {
              "internalType": "Local.t",
              "name": "local",
              "type": "uint256"
            }
          ],
          "internalType": "struct MgvLib.SingleOrder",
          "name": "order",
          "type": "tuple"
        },
        {
          "components": [
            {
              "internalType": "bytes32",
              "name": "makerData",
              "type": "bytes32"
            },
            {
              "internalType": "bytes32",
              "name": "mgvData",
              "type": "bytes32"
            }
          ],
          "internalType": "struct MgvLib.OrderResult",
          "name": "result",
          "type": "tuple"
        }
      ],
      "name": "makerPosthook",
      "outputs": [],
      "stateMutability": "nonpayable",
      "type": "function"
    },
    {
      "inputs": [
        {
          "internalType": "address",
          "name": "outbound_tkn",
          "type": "address"
        },
        {
          "internalType": "address",
          "name": "inbound_tkn",
          "type": "address"
        },
        {
          "internalType": "uint256",
          "name": "wants",
          "type": "uint256"
        },
        {
          "internalType": "uint256",
          "name": "gives",
          "type": "uint256"
        },
        {
          "internalType": "uint256",
          "name": "gasreq",
          "type": "uint256"
        },
        {
          "internalType": "uint256",
          "name": "gasprice",
          "type": "uint256"
        },
        {
          "internalType": "uint256",
          "name": "pivotId",
          "type": "uint256"
        }
      ],
      "name": "newOffer",
      "outputs": [
        {
          "internalType": "uint256",
          "name": "offerId",
          "type": "uint256"
        }
      ],
      "stateMutability": "payable",
      "type": "function"
    },
    {
      "inputs": [],
      "name": "pause",
      "outputs": [],
      "stateMutability": "nonpayable",
      "type": "function"
    },
    {
      "inputs": [
        {
          "internalType": "address",
          "name": "token",
          "type": "address"
        },
        {
          "internalType": "address",
          "name": "receiver",
          "type": "address"
        },
        {
          "internalType": "uint256",
          "name": "amount",
          "type": "uint256"
        }
      ],
      "name": "redeemToken",
      "outputs": [
        {
          "internalType": "bool",
          "name": "success",
          "type": "bool"
        }
      ],
      "stateMutability": "nonpayable",
      "type": "function"
    },
    {
      "inputs": [],
      "name": "restart",
      "outputs": [],
      "stateMutability": "nonpayable",
      "type": "function"
    },
    {
      "inputs": [
        {
          "internalType": "address",
          "name": "outbound_tkn",
          "type": "address"
        },
        {
          "internalType": "address",
          "name": "inbound_tkn",
          "type": "address"
        },
        {
          "internalType": "uint256",
          "name": "offerId",
          "type": "uint256"
        },
        {
          "internalType": "bool",
          "name": "deprovision",
          "type": "bool"
        }
      ],
      "name": "retractOffer",
      "outputs": [
        {
          "internalType": "uint256",
          "name": "",
          "type": "uint256"
        }
      ],
      "stateMutability": "nonpayable",
      "type": "function"
    },
    {
      "inputs": [
        {
          "internalType": "uint256",
          "name": "ba",
          "type": "uint256"
        },
        {
          "internalType": "uint256",
          "name": "from",
          "type": "uint256"
        },
        {
          "internalType": "uint256",
          "name": "to",
          "type": "uint256"
        }
      ],
      "name": "retractOffers",
      "outputs": [
        {
          "internalType": "uint256",
          "name": "collected",
          "type": "uint256"
        }
      ],
      "stateMutability": "nonpayable",
      "type": "function"
    },
    {
      "inputs": [
        {
          "internalType": "address",
          "name": "_admin",
          "type": "address"
        }
      ],
      "name": "setAdmin",
      "outputs": [],
      "stateMutability": "nonpayable",
      "type": "function"
    },
    {
      "inputs": [
        {
          "internalType": "uint256",
          "name": "gasreq",
          "type": "uint256"
        }
      ],
      "name": "setGasreq",
      "outputs": [],
      "stateMutability": "nonpayable",
      "type": "function"
    },
    {
      "inputs": [
        {
          "internalType": "uint256",
          "name": "delta",
          "type": "uint256"
        }
      ],
      "name": "set_delta",
      "outputs": [],
      "stateMutability": "nonpayable",
      "type": "function"
    },
    {
      "inputs": [
        {
          "internalType": "uint256",
          "name": "m",
          "type": "uint256"
        }
      ],
      "name": "set_min_offer_type",
      "outputs": [],
      "stateMutability": "nonpayable",
      "type": "function"
    },
    {
      "inputs": [
        {
          "internalType": "int256",
          "name": "s",
          "type": "int256"
        },
        {
          "internalType": "bool",
          "name": "withBase",
          "type": "bool"
        },
        {
          "internalType": "uint256[]",
          "name": "amounts",
          "type": "uint256[]"
        }
      ],
      "name": "set_shift",
      "outputs": [],
      "stateMutability": "nonpayable",
      "type": "function"
    },
    {
      "inputs": [
        {
          "internalType": "bool",
          "name": "base",
          "type": "bool"
        },
        {
          "internalType": "address",
          "name": "treasury",
          "type": "address"
        }
      ],
      "name": "set_treasury",
      "outputs": [],
      "stateMutability": "nonpayable",
      "type": "function"
    },
    {
      "inputs": [
        {
          "internalType": "address",
          "name": "outbound_tkn",
          "type": "address"
        },
        {
          "internalType": "address",
          "name": "inbound_tkn",
          "type": "address"
        },
        {
          "internalType": "uint256",
          "name": "wants",
          "type": "uint256"
        },
        {
          "internalType": "uint256",
          "name": "gives",
          "type": "uint256"
        },
        {
          "internalType": "uint256",
          "name": "gasreq",
          "type": "uint256"
        },
        {
          "internalType": "uint256",
          "name": "gasprice",
          "type": "uint256"
        },
        {
          "internalType": "uint256",
          "name": "pivotId",
          "type": "uint256"
        },
        {
          "internalType": "uint256",
          "name": "offerId",
          "type": "uint256"
        }
      ],
      "name": "updateOffer",
      "outputs": [],
      "stateMutability": "payable",
      "type": "function"
    },
    {
      "inputs": [
        {
          "internalType": "address payable",
          "name": "receiver",
          "type": "address"
        },
        {
          "internalType": "uint256",
          "name": "amount",
          "type": "uint256"
        }
      ],
      "name": "withdrawFromMangrove",
      "outputs": [
        {
          "internalType": "bool",
          "name": "",
          "type": "bool"
        }
      ],
      "stateMutability": "nonpayable",
      "type": "function"
    },
    {
      "stateMutability": "payable",
      "type": "receive"
    }
  ],
  "transactionHash": "0x94f4acfcf76abcf7d8e39b6885ceeb94e0e04b29a208dc62c5d57184979cffb1",
  "args": [
    "0x6f531931A7EaefB95307CcD93a348e4C27F62DCF",
    "0x3C68CE8504087f89c640D02d133646d98e64ddd9",
    "0x2058A9D7613eEE744279e3856Ef0eAda5FCbaA7e",
    "1000000000000000000",
    "2000000000",
    50,
    "32000000"
  ],
  "solcInputHash": "dc3a87f70eab6a3f17b7278c3ad0b93a",
  "bytecode": "0x6101a06040527f4d616e67726f76654f666665722f72656e6567656400000000000000000000006080527f4d616e67726f76654f666665722f7075744661696c757265000000000000000060a0527f4d616e67726f76654f666665722f6f75744f664c69717569646974790000000060c052620186a06001556009805460ff191690553480156200008f57600080fd5b5060405162005a8038038062005a80833981016040819052620000b2916200033a565b600080546001600160a01b031916331790556001600160a01b03871660e0528115801590620000e957506001600160a01b03871615155b8015620000f95750818261ffff16145b80156200010e575083846001600160601b0316145b801562000123575082836001600160601b0316145b6200017f5760405162461bcd60e51b815260206004820152602260248201527f4d616e676f2f636f6e7374727563746f722f696e76616c6964417267756d656e604482015261747360f01b606482015260840160405180910390fd5b6001600160a01b038087166101605285166101805261ffff821661010052816001600160401b03811115620001b857620001b8620003b5565b604051908082528060200260200182016040528015620001e2578160200160208202803683370190505b508051620001f991600291602090910190620002ba565b50816001600160401b03811115620002155762000215620003b5565b6040519080825280602002602001820160405280156200023f578160200160208202803683370190505b5080516200025691600391602090910190620002ba565b506001600160601b03938416610120529190921661014052600755505060016008819055600a8054336001600160a01b0319909116811790915560098054610100600160a81b03191661010090920291909117905562061a80905550620003cb9050565b828054828255906000526020600020908101928215620002f8579160200282015b82811115620002f8578251825591602001919060010190620002db565b50620003069291506200030a565b5090565b5b808211156200030657600081556001016200030b565b6001600160a01b03811681146200033757600080fd5b50565b600080600080600080600060e0888a0312156200035657600080fd5b8751620003638162000321565b6020890151909750620003768162000321565b6040890151909650620003898162000321565b80955050606088015193506080880151925060a0880151915060c0880151905092959891949750929550565b634e487b7160e01b600052604160045260246000fd5b60805160a05160c05160e05161010051610120516101405161016051610180516153a4620006dc6000396000818161041c01528181610a3b01528181610bc901528181611a9701528181611bb9015281816120f401528181612188015281816128680152818161293d01528181612aaf01528181612b8301528181612d4d01528181612e4b01528181612ede015281816130e30152818161318b015281816133900152818161389d01528181613b3d01528181613ee60152818161404e015281816141cb0152818161433a0152818161464901526146fe01526000818161058d01528181610a6301528181610ba101528181611a7601528181611bda015281816120d3015281816121a901528181612521015281816127c401528181612824015281816128a30152818161290001528181612a8e01528181612ba401528181612d6e01528181612e2a01528181612eff015281816131040152818161316a0152818161336f015281816138240152818161386301528181613ac401528181613b0301528181613e2d01528181613ebe0152818161402d015281816141f30152818161435b015281816145550152818161466e01526146d901526000614779015260008181613d9d0152613e050152600081816104f0015281816108b7015281816109200152818161098f0152818161190a015281816124e6015281816126a60152818161296f01528181612a1201528181612bcc01528181612c5b0152818161444b015281816144b301526144f20152600081816103d001528181610a9901528181610bff01528181610cc701528181610d9001528181610f3f0152818161107e015281816110eb01528181611566015281816116ef015281816117a901528181611ce701528181611d7a01528181611e3701528181611edd01528181611fc4015281816122c70152818161237801528181612eaf0152818161313b015281816133fe015281816134ba0152818161365901528181613f3201528181613ffe0152818161423f015261430b015260008181610e570152611358015260006112a2015260006111ed01526153a46000f3fe6080604052600436106101c65760003560e01c8063945264d9116100f7578063c5dbec3811610095578063e428204d11610064578063e428204d14610545578063e4c34f841461055b578063ec342ad01461057b578063f851a440146105af57600080fd5b8063c5dbec381461049e578063ccbbcfc2146104be578063d4a1da08146104de578063dff6cb451461052557600080fd5b80639c579839116100d15780639c5798391461040a5780639d4ddea21461043e578063ad97db1b1461045e578063aefe84031461047e57600080fd5b8063945264d91461038957806399cb40c1146103a957806399fa5e2d146103be57600080fd5b80636a4f76911161016457806378c609981161013e57806378c609981461031f578063815502671461033f578063836dfffa1461035f5780638456cb591461037457600080fd5b80636a4f7691146102cc5780636c49c32c146102df578063704b6c02146102ff57600080fd5b80631efa880b116101a05780631efa880b1461023e57806334bd89311461026b5780633d3d130d1461028b57806349f6d2dc146102ab57600080fd5b8063063df2d2146101d25780630d71bdc3146102075780631ef3755d1461022757600080fd5b366101cd57005b600080fd5b3480156101de57600080fd5b506101f26101ed366004614831565b6105cf565b60405190151581526020015b60405180910390f35b34801561021357600080fd5b506101f261022236600461485d565b6106be565b34801561023357600080fd5b5061023c610829565b005b34801561024a57600080fd5b5061025e6102593660046148ac565b6108ad565b6040516101fe91906148c9565b34801561027757600080fd5b5061023c61028636600461495c565b610ca8565b34801561029757600080fd5b5061023c6102a6366004614988565b610d8e565b6102be6102b93660046149e8565b610e81565b6040519081526020016101fe565b61023c6102da366004614a4a565b610fba565b3480156102eb57600080fd5b506102be6102fa366004614ab5565b6110e7565b34801561030b57600080fd5b5061023c61031a366004614ad2565b611388565b34801561032b57600080fd5b5061023c61033a366004614aef565b61141c565b34801561034b57600080fd5b5061023c61035a366004614b74565b611547565b34801561036b57600080fd5b506102be61166d565b34801561038057600080fd5b5061023c6116d0565b34801561039557600080fd5b5061023c6103a4366004614bd0565b61178a565b3480156103b557600080fd5b506102be611c66565b3480156103ca57600080fd5b506103f27f000000000000000000000000000000000000000000000000000000000000000081565b6040516001600160a01b0390911681526020016101fe565b34801561041657600080fd5b506103f27f000000000000000000000000000000000000000000000000000000000000000081565b34801561044a57600080fd5b5061023c61045936600461495c565b611cc8565b34801561046a57600080fd5b506102be610479366004614c73565b611d5a565b34801561048a57600080fd5b5061023c610499366004614831565b611ead565b3480156104aa57600080fd5b5061023c6104b936600461495c565b611fa5565b3480156104ca57600080fd5b506102be6104d9366004614cc6565b612037565b3480156104ea57600080fd5b506105127f000000000000000000000000000000000000000000000000000000000000000081565b60405161ffff90911681526020016101fe565b34801561053157600080fd5b506103f26105403660046148ac565b612202565b34801561055157600080fd5b506102be60015481565b34801561056757600080fd5b506102be610576366004614cf2565b61228a565b34801561058757600080fd5b506103f27f000000000000000000000000000000000000000000000000000000000000000081565b3480156105bb57600080fd5b506000546103f2906001600160a01b031681565b600080546001600160a01b0316331461062f5760405162461bcd60e51b815260206004820152601860248201527f416363657373436f6e74726f6c6c65642f496e76616c6964000000000000000060448201526064015b60405180910390fd5b6001600160a01b0383166106ab5760405162461bcd60e51b815260206004820152602160248201527f53696e676c65557365722f77697468647261774d47562f30785265636569766560448201527f72000000000000000000000000000000000000000000000000000000000000006064820152608401610626565b6106b58383612346565b90505b92915050565b600080546001600160a01b031633146107195760405162461bcd60e51b815260206004820152601860248201527f416363657373436f6e74726f6c6c65642f496e76616c696400000000000000006044820152606401610626565b6001600160a01b0383166107955760405162461bcd60e51b815260206004820152602160248201527f53696e676c65557365722f72656465656d546f6b656e2f30785265636569766560448201527f72000000000000000000000000000000000000000000000000000000000000006064820152608401610626565b6040517fa9059cbb0000000000000000000000000000000000000000000000000000000081526001600160a01b0384811660048301526024820184905285169063a9059cbb906044016020604051808303816000875af11580156107fd573d6000803e3d6000fd5b505050506040513d601f19601f820116820180604052508101906108219190614d43565b949350505050565b6000546001600160a01b031633146108835760405162461bcd60e51b815260206004820152601860248201527f416363657373436f6e74726f6c6c65642f496e76616c696400000000000000006044820152606401610626565b600980547fffffffffffffffffffffffffffffffffffffffffffffffffffffffffffffff00169055565b6108b56147f5565b7f000000000000000000000000000000000000000000000000000000000000000061ffff1667ffffffffffffffff8111156108f2576108f2614d60565b60405190808252806020026020018201604052801561091b578160200160208202803683370190505b5081527f000000000000000000000000000000000000000000000000000000000000000061ffff1667ffffffffffffffff81111561095b5761095b614d60565b604051908082528060200260200182016040528015610984578160200160208202803683370190505b50602082015260005b7f000000000000000000000000000000000000000000000000000000000000000061ffff16811015610ca257600060026109c6836124d1565b815481106109d6576109d6614d8f565b90600052602060002001549050600060036109f0846124d1565b81548110610a0057610a00614d8f565b60009182526020822001546040517f68c13d6b0000000000000000000000000000000000000000000000000000000081526001600160a01b037f0000000000000000000000000000000000000000000000000000000000000000811660048301527f00000000000000000000000000000000000000000000000000000000000000008116602483015260448201839052919350610b16917f000000000000000000000000000000000000000000000000000000000000000016906368c13d6b906064015b602060405180830381865afa158015610ae1573d6000803e3d6000fd5b505050506040513d601f19601f82011682018060405250810190610b059190614dbe565b6bffffffffffffffffffffffff1690565b1180610b20575084155b610b2b576000610b52565b6003610b36846124d1565b81548110610b4657610b46614d8f565b90600052602060002001545b8451805185908110610b6657610b66614d8f565b60209081029190910101526040517f68c13d6b0000000000000000000000000000000000000000000000000000000081526001600160a01b037f0000000000000000000000000000000000000000000000000000000000000000811660048301527f00000000000000000000000000000000000000000000000000000000000000008116602483015260448201849052600091610c2e917f000000000000000000000000000000000000000000000000000000000000000016906368c13d6b90606401610ac4565b1180610c38575084155b610c43576000610c6a565b6002610c4e846124d1565b81548110610c5e57610c5e614d8f565b90600052602060002001545b6020850151805185908110610c8157610c81614d8f565b60200260200101818152505050508080610c9a90614e06565b91505061098d565b50919050565b6000546001600160a01b0316331480610ce95750336001600160a01b037f000000000000000000000000000000000000000000000000000000000000000016145b610d355760405162461bcd60e51b815260206004820152601860248201527f416363657373436f6e74726f6c6c65642f496e76616c696400000000000000006044820152606401610626565b808162ffffff1614610d895760405162461bcd60e51b815260206004820152601d60248201527f4d616e67726f76654f666665722f6761737265712f6f766572666c6f770000006044820152606401610626565b600155565b7f00000000000000000000000000000000000000000000000000000000000000006001600160a01b0381161580610dcd5750336001600160a01b038216145b610e195760405162461bcd60e51b815260206004820152601860248201527f416363657373436f6e74726f6c6c65642f496e76616c696400000000000000006044820152606401610626565b81602001357f6d67762f747261646553756363657373000000000000000000000000000000001415610e5357610e4e8361250e565b505050565b81357f00000000000000000000000000000000000000000000000000000000000000001415610e4e57505050565b600080546001600160a01b03163314610edc5760405162461bcd60e51b815260206004820152601860248201527f416363657373436f6e74726f6c6c65642f496e76616c696400000000000000006044820152606401610626565b6040517f49f6d2dc0000000000000000000000000000000000000000000000000000000081526001600160a01b038981166004830152888116602483015260448201889052606482018790526084820186905260a4820185905260c482018490527f000000000000000000000000000000000000000000000000000000000000000016906349f6d2dc90349060e40160206040518083038185885af1158015610f89573d6000803e3d6000fd5b50505050506040513d601f19601f82011682018060405250810190610fae9190614dbe565b98975050505050505050565b6000546001600160a01b031633146110145760405162461bcd60e51b815260206004820152601860248201527f416363657373436f6e74726f6c6c65642f496e76616c696400000000000000006044820152606401610626565b6040517f6a4f76910000000000000000000000000000000000000000000000000000000081526001600160a01b038981166004830152888116602483015260448201889052606482018790526084820186905260a4820185905260c4820184905260e482018390527f00000000000000000000000000000000000000000000000000000000000000001690636a4f7691903490610104016000604051808303818588803b1580156110c457600080fd5b505af11580156110d8573d6000803e3d6000fd5b50505050505050505050505050565b60007f00000000000000000000000000000000000000000000000000000000000000006001600160a01b03811615806111285750336001600160a01b038216145b6111745760405162461bcd60e51b815260206004820152601860248201527f416363657373436f6e74726f6c6c65642f496e76616c696400000000000000006044820152606401610626565b60095460ff16156112135761118f6040840160208501614ad2565b6001600160a01b03166111a56020850185614ad2565b6001600160a01b03167f5c3a327c0caf47aa560dbca16cce241483daac785fd723d9e0fb2af3256373bf85604001356040516111e391815260200190565b60405180910390a37f00000000000000000000000000000000000000000000000000000000000000009150610ca2565b60006112238460a00135856127b8565b905080156112c95761123b6040850160208601614ad2565b6001600160a01b03166112516020860186614ad2565b6001600160a01b03167f3482722a7c71a098521214cdb975e1d9faa0b0163f768e89566f7acc36cffd0b866040013584604051611298929190918252602082015260400190565b60405180910390a37f0000000000000000000000000000000000000000000000000000000000000000925050610ca2565b60006112d9856080013586612897565b90508015611380576112f16040860160208701614ad2565b6001600160a01b03166113076020870187614ad2565b6001600160a01b03167fc99fe658c80b903af0e1270f4a55564b3a7509294ab1052c6ab07f8198baea6787604001358460405161134e929190918252602082015260400190565b60405180910390a37f000000000000000000000000000000000000000000000000000000000000000093505050610ca2565b505050919050565b6000546001600160a01b031633146113e25760405162461bcd60e51b815260206004820152601860248201527f416363657373436f6e74726f6c6c65642f496e76616c696400000000000000006044820152606401610626565b600080547fffffffffffffffffffffffff0000000000000000000000000000000000000000166001600160a01b0392909216919091179055565b6000546001600160a01b031633146114765760405162461bcd60e51b815260206004820152601860248201527f416363657373436f6e74726f6c6c65642f496e76616c696400000000000000006044820152606401610626565b6001600160a01b0381166114cc5760405162461bcd60e51b815260206004820152601d60248201527f4d616e676f2f7365745f74726561737572792f307854726561737572790000006044820152606401610626565b811561150f57600980546001600160a01b038316610100027fffffffffffffffffffffff0000000000000000000000000000000000000000ff9091161790555050565b600a80547fffffffffffffffffffffffff0000000000000000000000000000000000000000166001600160a01b0383161790555b5050565b6000546001600160a01b03163314806115885750336001600160a01b037f000000000000000000000000000000000000000000000000000000000000000016145b6115d45760405162461bcd60e51b815260206004820152601860248201527f416363657373436f6e74726f6c6c65642f496e76616c696400000000000000006044820152606401610626565b600084126115e257836115eb565b6115eb84614e3f565b81146116395760405162461bcd60e51b815260206004820181905260248201527f4d616e676f2f7365745f73686966742f6e6f74456e6f756768416d6f756e74736044820152606401610626565b600084121561165b5761165661164e85614e3f565b84848461296d565b611667565b61166784848484612c59565b50505050565b600080546001600160a01b031633146116c85760405162461bcd60e51b815260206004820152601860248201527f416363657373436f6e74726f6c6c65642f496e76616c696400000000000000006044820152606401610626565b506006545b90565b6000546001600160a01b03163314806117115750336001600160a01b037f000000000000000000000000000000000000000000000000000000000000000016145b61175d5760405162461bcd60e51b815260206004820152601860248201527f416363657373436f6e74726f6c6c65642f496e76616c696400000000000000006044820152606401610626565b600980547fffffffffffffffffffffffffffffffffffffffffffffffffffffffffffffff00166001179055565b6000546001600160a01b03163314806117cb5750336001600160a01b037f000000000000000000000000000000000000000000000000000000000000000016145b6118175760405162461bcd60e51b815260206004820152601860248201527f416363657373436f6e74726f6c6c65642f496e76616c696400000000000000006044820152606401610626565b8484118015611839575061182b8585614e78565b6118358480614e8f565b9050145b6118855760405162461bcd60e51b815260206004820152601d60248201527f4d616e676f2f696e697469616c697a652f696e76616c6964536c6963650000006044820152606401610626565b61188f8585614e78565b81146119035760405162461bcd60e51b815260206004820152602360248201527f4d616e676f2f696e697469616c697a652f696e76616c696442617365416d6f7560448201527f6e747300000000000000000000000000000000000000000000000000000000006064820152608401610626565b61192e60017f0000000000000000000000000000000000000000000000000000000000000000614ef7565b61ffff1687106119805760405162461bcd60e51b815260206004820152601e60248201527f4d616e676f2f696e697469616c697a652f4e6f536c6f74466f7241736b7300006044820152606401610626565b845b84811015611c23576000611995826124d1565b9050888211611ae35760006119aa8680614e8f565b6119b48a86614e78565b8181106119c3576119c3614d8f565b90506020020135905060008111611a1857600083116119e3576000611a1a565b60036119f86119f3600186614e78565b6124d1565b81548110611a0857611a08614d8f565b9060005260206000200154611a1a565b805b9050611a4b828a60018888611a2f8e8a614e78565b818110611a3e57611a3e614d8f565b9050602002013585612eab565b600060028381548110611a6057611a60614d8f565b90600052602060002001541115611add57611adb7f00000000000000000000000000000000000000000000000000000000000000007f000000000000000000000000000000000000000000000000000000000000000060028581548110611ac957611ac9614d8f565b90600052602060002001546000611d5a565b505b50611c10565b6000611af26020870187614e8f565b611afc8a86614e78565b818110611b0b57611b0b614d8f565b90506020020135905060008111611b5b5760008311611b2b576000611b5d565b6002611b3b6119f3600186614e78565b81548110611b4b57611b4b614d8f565b9060005260206000200154611b5d565b805b9050611b8e828a60018888611b728e8a614e78565b818110611b8157611b81614d8f565b9050602002013585613137565b600060038381548110611ba357611ba3614d8f565b90600052602060002001541115611c0e57611c0c7f00000000000000000000000000000000000000000000000000000000000000007f000000000000000000000000000000000000000000000000000000000000000060038581548110611ac957611ac9614d8f565b505b505b5080611c1b81614e06565b915050611982565b60408051878152602081018790527f997896709b4e932ee42750e2e14ed1f7ab6c60bd911ff567aa2485cf0b20051b910160405180910390a15050505050505050565b600080546001600160a01b03163314611cc15760405162461bcd60e51b815260206004820152601860248201527f416363657373436f6e74726f6c6c65642f496e76616c696400000000000000006044820152606401610626565b5060075490565b6000546001600160a01b0316331480611d095750336001600160a01b037f000000000000000000000000000000000000000000000000000000000000000016145b611d555760405162461bcd60e51b815260206004820152601860248201527f416363657373436f6e74726f6c6c65642f496e76616c696400000000000000006044820152606401610626565b600855565b600080546001600160a01b0316331480611d9c5750336001600160a01b037f000000000000000000000000000000000000000000000000000000000000000016145b611de85760405162461bcd60e51b815260206004820152601860248201527f416363657373436f6e74726f6c6c65642f496e76616c696400000000000000006044820152606401610626565b6040517fad97db1b0000000000000000000000000000000000000000000000000000000081526001600160a01b03868116600483015285811660248301526044820185905283151560648301527f0000000000000000000000000000000000000000000000000000000000000000169063ad97db1b906084016020604051808303816000875af1158015611e80573d6000803e3d6000fd5b505050506040513d601f19601f82011682018060405250810190611ea49190614dbe565b95945050505050565b6040517f095ea7b30000000000000000000000000000000000000000000000000000000081526001600160a01b037f0000000000000000000000000000000000000000000000000000000000000000811660048301526024820183905283169063095ea7b3906044016020604051808303816000875af1158015611f35573d6000803e3d6000fd5b505050506040513d601f19601f82011682018060405250810190611f599190614d43565b6115435760405162461bcd60e51b815260206004820152601560248201527f6d67764f666665722f617070726f76652f4661696c00000000000000000000006044820152606401610626565b6000546001600160a01b0316331480611fe65750336001600160a01b037f000000000000000000000000000000000000000000000000000000000000000016145b6120325760405162461bcd60e51b815260206004820152601860248201527f416363657373436f6e74726f6c6c65642f496e76616c696400000000000000006044820152606401610626565b600755565b600080546001600160a01b031633146120925760405162461bcd60e51b815260206004820152601860248201527f416363657373436f6e74726f6c6c65642f496e76616c696400000000000000006044820152606401610626565b825b828110156121fa578415612145576000600282815481106120b7576120b7614d8f565b9060005260206000200154116120ce576000612138565b6121387f00000000000000000000000000000000000000000000000000000000000000007f00000000000000000000000000000000000000000000000000000000000000006002848154811061212657612126614d8f565b90600052602060002001546001611d5a565b6121429083614f1a565b91505b8415806121525750600185115b156121e85760006003828154811061216c5761216c614d8f565b9060005260206000200154116121835760006121db565b6121db7f00000000000000000000000000000000000000000000000000000000000000007f00000000000000000000000000000000000000000000000000000000000000006003848154811061212657612126614d8f565b6121e59083614f1a565b91505b806121f281614e06565b915050612094565b509392505050565b600080546001600160a01b0316331461225d5760405162461bcd60e51b815260206004820152601860248201527f416363657373436f6e74726f6c6c65642f496e76616c696400000000000000006044820152606401610626565b8161227357600a546001600160a01b03166106b8565b60095461010090046001600160a01b031692915050565b6040517f70a0823100000000000000000000000000000000000000000000000000000000815230600482015260009061233c906001600160a01b037f000000000000000000000000000000000000000000000000000000000000000016906370a0823190602401602060405180830381865afa15801561230e573d6000803e3d6000fd5b505050506040513d601f19601f820116820180604052508101906123329190614dbe565b87878787876133b7565b9695505050505050565b6040517f2e1a7d4d000000000000000000000000000000000000000000000000000000008152600481018290526000907f00000000000000000000000000000000000000000000000000000000000000006001600160a01b031690632e1a7d4d906024016020604051808303816000875af11580156123c9573d6000803e3d6000fd5b505050506040513d601f19601f820116820180604052508101906123ed9190614d43565b61245f5760405162461bcd60e51b815260206004820152602360248201527f4d616e67726f76654f666665722f77697468647261772f7472616e736665724660448201527f61696c00000000000000000000000000000000000000000000000000000000006064820152608401610626565b6001600160a01b03831630146124c8576040516001600160a01b038416908390600081818185875af1925050503d80600081146124b8576040519150601f19603f3d011682016040523d82523d6000602084013e6124bd565b606091505b5050809150506106b8565b50600192915050565b60006106b8600654836124e49190614f32565b7f000000000000000000000000000000000000000000000000000000000000000061ffff16613605565b6125178161362c565b6001600160a01b037f00000000000000000000000000000000000000000000000000000000000000001661254e6020830183614ad2565b6001600160a01b031614156126775760408082013560009081526005602052205480612578575050565b60006125838261380a565b905080156125ab57610e4e61259c6119f3600184614e78565b6000808660a001356000612eab565b6125bb6040840160208501614ad2565b6001600160a01b03166125d16020850185614ad2565b6001600160a01b03167f768269e5e6803a8bc566de9364d8347774fff5b114c5a2ec556ab0459a172426856040013560405161266a9181526040602082018190526024908201527f4d616e676f2f706f7374686f6f6b2f427579696e674f75744f6650726963655260608201527f616e676500000000000000000000000000000000000000000000000000000000608082015260a00190565b60405180910390a3505050565b60408082013560009081526004602052205480612692575050565b600061269d8261380a565b90506126ca60017f0000000000000000000000000000000000000000000000000000000000000000614ef7565b61ffff168110156126f657610e4e6126e66119f3836001614f1a565b600160008660a001356000613137565b6127066040840160208501614ad2565b6001600160a01b031661271c6020850185614ad2565b6001600160a01b03167f768269e5e6803a8bc566de9364d8347774fff5b114c5a2ec556ab0459a172426856040013560405161266a9181526040602082018190526025908201527f4d616e676f2f706f7374686f6f6b2f53656c6c696e674f75744f66507269636560608201527f52616e6765000000000000000000000000000000000000000000000000000000608082015260a00190565b50565b60006001600160a01b037f0000000000000000000000000000000000000000000000000000000000000000166127f46040840160208501614ad2565b6001600160a01b031614801561281a575060095461010090046001600160a01b03163014155b156128515761284a7f0000000000000000000000000000000000000000000000000000000000000000848461381d565b90506106b8565b600a546001600160a01b0316301461288e5761284a7f0000000000000000000000000000000000000000000000000000000000000000848461381d565b50600092915050565b60006001600160a01b037f0000000000000000000000000000000000000000000000000000000000000000166128d06020840184614ad2565b6001600160a01b03161480156128f6575060095461010090046001600160a01b03163014155b156129265761284a7f00000000000000000000000000000000000000000000000000000000000000008484613abd565b600a546001600160a01b031630146129635761284a7f00000000000000000000000000000000000000000000000000000000000000008484613abd565b6106b58383613ce1565b7f000000000000000000000000000000000000000000000000000000000000000061ffff168410612a065760405162461bcd60e51b815260206004820152602160248201527f4d616e676f2f73686966742f4e656761746976655368696674546f6f4c61726760448201527f65000000000000000000000000000000000000000000000000000000000000006064820152608401610626565b6000612a3f612a3660017f0000000000000000000000000000000000000000000000000000000000000000614ef7565b61ffff166124d1565b90508460066000828254612a539190614fa6565b90915550600090505b85811015612c515760028281548110612a7757612a77614d8f565b9060005260206000200154600014612ae357612ae17f00000000000000000000000000000000000000000000000000000000000000007f000000000000000000000000000000000000000000000000000000000000000060028581548110611ac957611ac9614d8f565b505b6000612aee8361380a565b90506000808715612b3d57868685818110612b0b57612b0b614d8f565b905060200201359050612b3683888887818110612b2a57612b2a614d8f565b90506020020135613d99565b9150612b7d565b612b5f83888887818110612b5357612b53614d8f565b90506020020135613de8565b9050868685818110612b7357612b73614d8f565b9050602002013591505b612c31857f00000000000000000000000000000000000000000000000000000000000000007f00000000000000000000000000000000000000000000000000000000000000008486612bf060017f0000000000000000000000000000000000000000000000000000000000000000614ef7565b61ffff168910612c01576000613e2b565b6003612c116119f38b6001614f1a565b81548110612c2157612c21614d8f565b9060005260206000200154613e2b565b83612c3b81614e06565b945050612c47856144a3565b9450505050612a5c565b505050505050565b7f000000000000000000000000000000000000000000000000000000000000000061ffff168410612cf25760405162461bcd60e51b815260206004820152602160248201527f4d616e676f2f73686966742f706f7369746976655368696674546f6f4c61726760448201527f65000000000000000000000000000000000000000000000000000000000000006064820152608401610626565b6000612cfe60006124d1565b90508460066000828254612d129190614f32565b90915550600090505b85811015612c515760038281548110612d3657612d36614d8f565b9060005260206000200154600014612da257612da07f00000000000000000000000000000000000000000000000000000000000000007f000000000000000000000000000000000000000000000000000000000000000060038581548110611ac957611ac9614d8f565b505b6000612dad8361380a565b90506000808715612df057868685818110612dca57612dca614d8f565b905060200201359150612de983888887818110612b2a57612b2a614d8f565b9050612e24565b868685818110612e0257612e02614d8f565b905060200201359050612e2183888887818110612b5357612b53614d8f565b91505b612e8b857f00000000000000000000000000000000000000000000000000000000000000007f0000000000000000000000000000000000000000000000000000000000000000848660008911612e7b576000613e2b565b6002612c116119f360018c614e78565b83612e9581614e06565b945050612ea1856144eb565b9450505050612d1b565b60007f00000000000000000000000000000000000000000000000000000000000000006001600160a01b03166368c13d6b7f00000000000000000000000000000000000000000000000000000000000000007f000000000000000000000000000000000000000000000000000000000000000060038a81548110612f3157612f31614d8f565b6000918252602090912001546040517fffffffff0000000000000000000000000000000000000000000000000000000060e086901b1681526001600160a01b0393841660048201529290911660248301526044820152606401602060405180830381865afa158015612fa7573d6000803e3d6000fd5b505050506040513d601f19601f82011682018060405250810190612fcb9190614dbe565b90506000612fd88761380a565b9050600080871561301e5786613009576130046bffffffffffffffffffffffff606086901c1687614f1a565b61300b565b855b91506130178383613d99565b9050613051565b866130405761303b6bffffffffffffffffffffffff851687614f1a565b613042565b855b905061304e8382613de8565b91505b60006bffffffffffffffffffffffff85166130bc5785156130735750846130dd565b83156130ab5760036130896119f3600187614e78565b8154811061309957613099614d8f565b906000526020600020015490506130dd565b6130b58560e01c90565b90506130dd565b60038a815481106130cf576130cf614d8f565b906000526020600020015490505b61312b8a7f00000000000000000000000000000000000000000000000000000000000000007f0000000000000000000000000000000000000000000000000000000000000000868686613e2b565b50505050505050505050565b60007f00000000000000000000000000000000000000000000000000000000000000006001600160a01b03166368c13d6b7f00000000000000000000000000000000000000000000000000000000000000007f000000000000000000000000000000000000000000000000000000000000000060028a815481106131bd576131bd614d8f565b6000918252602090912001546040517fffffffff0000000000000000000000000000000000000000000000000000000060e086901b1681526001600160a01b0393841660048201529290911660248301526044820152606401602060405180830381865afa158015613233573d6000803e3d6000fd5b505050506040513d601f19601f820116820180604052508101906132579190614dbe565b905060006132648761380a565b905060008087156132a657866132915761328c6bffffffffffffffffffffffff851687614f1a565b613293565b855b915061329f8383613d99565b90506132dd565b866132cc576132c76bffffffffffffffffffffffff606086901c1687614f1a565b6132ce565b855b90506132da8382613de8565b91505b60006bffffffffffffffffffffffff85166133485785156132ff575084613369565b83156133375760026133156119f3600187614e78565b8154811061332557613325614d8f565b90600052602060002001549050613369565b6133418560e01c90565b9050613369565b60028a8154811061335b5761335b614d8f565b906000526020600020015490505b61312b8a7f00000000000000000000000000000000000000000000000000000000000000007f0000000000000000000000000000000000000000000000000000000000000000858786613e2b565b6040517fcbf75c9a0000000000000000000000000000000000000000000000000000000081526001600160a01b0386811660048301528581166024830152600091829182917f00000000000000000000000000000000000000000000000000000000000000009091169063cbf75c9a906044016040805180830381865afa158015613446573d6000803e3d6000fd5b505050506040513d601f19601f8201168201806040525081019061346a919061501a565b6040517f5722647b0000000000000000000000000000000000000000000000000000000081526001600160a01b038b811660048301528a81166024830152604482018890529294509092506000917f00000000000000000000000000000000000000000000000000000000000000001690635722647b90606401602060405180830381865afa158015613501573d6000803e3d6000fd5b505050506040513d601f19601f820116820180604052508101906135259190614dbe565b9050600086604085901c61ffff161115613548575061ffff604084901c1661354b565b50855b62ffffff88111561355c5760015497505b60008161357262ffffff606087901c168b614f1a565b61357c919061503e565b61358a90633b9aca0061503e565b9050600061ffff602085901c166135b162ffffff603087901c811690604888901c16614f1a565b6135bb919061503e565b6135c990633b9aca0061503e565b905060006135d78e83614f1a565b9050828110156135f0576135eb8184614e78565b6135f3565b60005b9e9d5050505050505050505050505050565b60008083126136185761284a82846150aa565b61362282846150be565b61284a9083614f32565b600061363782614527565b905080613642575050565b600061364d83614549565b90506001600160a01b037f000000000000000000000000000000000000000000000000000000000000000016636a4f769161368b6020860186614ad2565b61369b6040870160208801614ad2565b848660c089013560481c62ffffff1660c08a013560201c61ffff1660608b013560c01c63ffffffff16604080517fffffffff0000000000000000000000000000000000000000000000000000000060e08b901b1681526001600160a01b03988916600482015297909616602488015260448701949094526064860192909252608485015260a484015260c483015286013560e482015261010401600060405180830381600087803b15801561374f57600080fd5b505af1925050508015613760575060015b610e4e5761376c6150d2565b806308c379a014156137fe575061378161515f565b8061378c5750613800565b61379c6040850160208601614ad2565b6001600160a01b03166137b26020860186614ad2565b6001600160a01b03167f768269e5e6803a8bc566de9364d8347774fff5b114c5a2ec556ab0459a1724268660400135846040516137f0929190615272565b60405180910390a350505050565b505b3d6000803e3d6000fd5b60006106b8600654836124e49190614fa6565b60008060007f00000000000000000000000000000000000000000000000000000000000000006001600160a01b0316866001600160a01b031614156138965750506009547f00000000000000000000000000000000000000000000000000000000000000009061010090046001600160a01b03166138c7565b5050600a547f0000000000000000000000000000000000000000000000000000000000000000906001600160a01b03165b6040517fa9059cbb0000000000000000000000000000000000000000000000000000000081526001600160a01b0382811660048301526024820187905283169063a9059cbb906044016020604051808303816000875af1925050508015613969575060408051601f3d9081017fffffffffffffffffffffffffffffffffffffffffffffffffffffffffffffffe016820190925261396691810190614d43565b60015b613a12573d808015613997576040519150601f19603f3d011682016040523d82523d6000602084013e61399c565b606091505b50604085018035906139b19060208801614ad2565b6001600160a01b03166139c76020880188614ad2565b6001600160a01b03167f571c6a99fbcd17b1f71790d4830c4a356ad85ab9b87af15ca9cb8bf9e76dafb7846040516139ff919061528b565b60405180910390a4859350505050613ab6565b8015613a245760009350505050613ab6565b60408501803590613a389060208801614ad2565b6001600160a01b0316613a4e6020880188614ad2565b6001600160a01b03167f571c6a99fbcd17b1f71790d4830c4a356ad85ab9b87af15ca9cb8bf9e76dafb76040516139ff9060208082526014908201527f4d616e676f2f7472616e736665724661696c6564000000000000000000000000604082015260600190565b9392505050565b60008060007f00000000000000000000000000000000000000000000000000000000000000006001600160a01b0316866001600160a01b03161415613b365750506009547f00000000000000000000000000000000000000000000000000000000000000009061010090046001600160a01b0316613b67565b5050600a547f0000000000000000000000000000000000000000000000000000000000000000906001600160a01b03165b6040517f23b872dd0000000000000000000000000000000000000000000000000000000081526001600160a01b038281166004830152306024830152604482018790528316906323b872dd906064016020604051808303816000875af1925050508015613c0f575060408051601f3d9081017fffffffffffffffffffffffffffffffffffffffffffffffffffffffffffffffe0168201909252613c0c91810190614d43565b60015b613c3d573d808015613997576040519150601f19603f3d011682016040523d82523d6000602084013e61399c565b8015613c4f5760009350505050613ab6565b60408501803590613c639060208801614ad2565b6001600160a01b0316613c796020880188614ad2565b6001600160a01b03167f571c6a99fbcd17b1f71790d4830c4a356ad85ab9b87af15ca9cb8bf9e76dafb76040516139ff9060208082526018908201527f4d616e676f2f7472616e7366657246726f6d4661696c65640000000000000000604082015260600190565b600080613cf16020840184614ad2565b6040517f70a082310000000000000000000000000000000000000000000000000000000081523060048201526001600160a01b0391909116906370a0823190602401602060405180830381865afa158015613d50573d6000803e3d6000fd5b505050506040513d601f19601f82011682018060405250810190613d749190614dbe565b9050838110613d875760009150506106b8565b613d918185614e78565b9150506106b8565b60007f00000000000000000000000000000000000000000000000000000000000000006bffffffffffffffffffffffff1682613dd485614613565b613dde919061503e565b6106b5919061529e565b6000613df383614613565b613dde6bffffffffffffffffffffffff7f0000000000000000000000000000000000000000000000000000000000000000168461503e565b7f00000000000000000000000000000000000000000000000000000000000000006001600160a01b0316856001600160a01b031614156141725760028681548110613e7857613e78614d8f565b906000526020600020015460001415613ffc576001546040517f49f6d2dc0000000000000000000000000000000000000000000000000000000081526001600160a01b037f0000000000000000000000000000000000000000000000000000000000000000811660048301527f00000000000000000000000000000000000000000000000000000000000000008116602483015260448201869052606482018590526084820192909252600060a482015260c481018390527f0000000000000000000000000000000000000000000000000000000000000000909116906349f6d2dc9060e4016020604051808303816000875af1158015613f7d573d6000803e3d6000fd5b505050506040513d601f19601f82011682018060405250810190613fa19190614dbe565b60028781548110613fb457613fb4614d8f565b9060005260206000200181905550856005600060028981548110613fda57613fda614d8f565b9060005260206000200154815260200190815260200160002081905550614134565b7f00000000000000000000000000000000000000000000000000000000000000006001600160a01b0316636a4f76917f00000000000000000000000000000000000000000000000000000000000000007f0000000000000000000000000000000000000000000000000000000000000000868660015460008860028f8154811061408857614088614d8f565b6000918252602090912001546040517fffffffff0000000000000000000000000000000000000000000000000000000060e08b901b1681526001600160a01b03988916600482015297909616602488015260448701949094526064860192909252608485015260a484015260c483015260e482015261010401600060405180830381600087803b15801561411b57600080fd5b505af115801561412f573d6000803e3d6000fd5b505050505b6008546141408761380a565b1161416d5761416d60006002888154811061415d5761415d614d8f565b9060005260206000200154614635565b612c51565b6003868154811061418557614185614d8f565b906000526020600020015460001415614309576001546040517f49f6d2dc0000000000000000000000000000000000000000000000000000000081526001600160a01b037f0000000000000000000000000000000000000000000000000000000000000000811660048301527f00000000000000000000000000000000000000000000000000000000000000008116602483015260448201869052606482018590526084820192909252600060a482015260c481018390527f0000000000000000000000000000000000000000000000000000000000000000909116906349f6d2dc9060e4016020604051808303816000875af115801561428a573d6000803e3d6000fd5b505050506040513d601f19601f820116820180604052508101906142ae9190614dbe565b600387815481106142c1576142c1614d8f565b90600052602060002001819055508560046000600389815481106142e7576142e7614d8f565b9060005260206000200154815260200190815260200160002081905550614441565b7f00000000000000000000000000000000000000000000000000000000000000006001600160a01b0316636a4f76917f00000000000000000000000000000000000000000000000000000000000000007f0000000000000000000000000000000000000000000000000000000000000000868660015460008860038f8154811061439557614395614d8f565b6000918252602090912001546040517fffffffff0000000000000000000000000000000000000000000000000000000060e08b901b1681526001600160a01b03988916600482015297909616602488015260448701949094526064860192909252608485015260a484015260c483015260e482015261010401600060405180830381600087803b15801561442857600080fd5b505af115801561443c573d6000803e3d6000fd5b505050505b60085461446f60017f0000000000000000000000000000000000000000000000000000000000000000614ef7565b61ffff1661447d9190614e78565b6144868761380a565b10612c5157612c5160016003888154811061415d5761415d614d8f565b60008082116144e0576144d760017f0000000000000000000000000000000000000000000000000000000000000000614ef7565b61ffff166106b8565b6106b8600183614e78565b600061ffff7f00000000000000000000000000000000000000000000000000000000000000001661451d836001614f1a565b6106b891906150aa565b60006106b8608083013560608401356bffffffffffffffffffffffff16614e78565b60006001600160a01b037f0000000000000000000000000000000000000000000000000000000000000000166145826020840184614ad2565b6001600160a01b031614156145d2576040808301356000908152600560205290812054906145af84614527565b9050806145c0575060009392505050565b6108216145cc8361380a565b82613d99565b6040808301356000908152600460205290812054906145f084614527565b905080614601575060009392505050565b61082161460d8361380a565b82613de8565b600061461d614753565b8260075461462b919061503e565b6106b89190614f1a565b81156146cb57604080516001600160a01b037f0000000000000000000000000000000000000000000000000000000000000000811682527f00000000000000000000000000000000000000000000000000000000000000001660208201529081018290527fa277cbc4d6eebe10b75c089f332890611f79a84754eeaaf06ed641c899dbafb1906060015b60405180910390a15050565b604080516001600160a01b037f0000000000000000000000000000000000000000000000000000000000000000811682527f00000000000000000000000000000000000000000000000000000000000000001660208201529081018290527f87c70da6914e41de8c96757fe2e40f6b1e13781d812e768da91b926699aba2ec906060016146bf565b60008060075460065461476691906152b2565b61479e906bffffffffffffffffffffffff7f000000000000000000000000000000000000000000000000000000000000000016614f32565b9050600081136147f05760405162461bcd60e51b815260206004820152601e60248201527f4d616e676f2f71756f74655f6d696e2f5368696674556e646572666c6f7700006044820152606401610626565b919050565b60405180604001604052806002905b60608152602001906001900390816148045790505090565b6001600160a01b03811681146127b557600080fd5b6000806040838503121561484457600080fd5b823561484f8161481c565b946020939093013593505050565b60008060006060848603121561487257600080fd5b833561487d8161481c565b9250602084013561488d8161481c565b929592945050506040919091013590565b80151581146127b557600080fd5b6000602082840312156148be57600080fd5b8135613ab68161489e565b6020808252600090606083018382018584805b600281101561494f578785037fffffffffffffffffffffffffffffffffffffffffffffffffffffffffffffffe0018452825180518087529087019087870190845b818110156149395783518352928901929189019160010161491d565b50909650505092850192918501916001016148dc565b5092979650505050505050565b60006020828403121561496e57600080fd5b5035919050565b60006101208284031215610ca257600080fd5b60008082840361016081121561499d57600080fd5b6149a78585614975565b925060407ffffffffffffffffffffffffffffffffffffffffffffffffffffffffffffffee0820112156149d957600080fd5b50610120830190509250929050565b600080600080600080600060e0888a031215614a0357600080fd5b8735614a0e8161481c565b96506020880135614a1e8161481c565b96999698505050506040850135946060810135946080820135945060a0820135935060c0909101359150565b600080600080600080600080610100898b031215614a6757600080fd5b8835614a728161481c565b97506020890135614a828161481c565b979a9799505050506040860135956060810135956080820135955060a0820135945060c0820135935060e0909101359150565b60006101208284031215614ac857600080fd5b6106b58383614975565b600060208284031215614ae457600080fd5b8135613ab68161481c565b60008060408385031215614b0257600080fd5b8235614b0d8161489e565b91506020830135614b1d8161481c565b809150509250929050565b60008083601f840112614b3a57600080fd5b50813567ffffffffffffffff811115614b5257600080fd5b6020830191508360208260051b8501011115614b6d57600080fd5b9250929050565b60008060008060608587031215614b8a57600080fd5b843593506020850135614b9c8161489e565b9250604085013567ffffffffffffffff811115614bb857600080fd5b614bc487828801614b28565b95989497509550505050565b600080600080600080600060c0888a031215614beb57600080fd5b873596506020880135614bfd8161489e565b95506040880135945060608801359350608088013567ffffffffffffffff80821115614c2857600080fd5b818a0191508a604083011115614c3d57600080fd5b90935060a08901359080821115614c5357600080fd5b50614c608a828b01614b28565b989b979a50959850939692959293505050565b60008060008060808587031215614c8957600080fd5b8435614c948161481c565b93506020850135614ca48161481c565b9250604085013591506060850135614cbb8161489e565b939692955090935050565b600080600060608486031215614cdb57600080fd5b505081359360208301359350604090920135919050565b600080600080600060a08688031215614d0a57600080fd5b8535614d158161481c565b94506020860135614d258161481c565b94979496505050506040830135926060810135926080909101359150565b600060208284031215614d5557600080fd5b8151613ab68161489e565b7f4e487b7100000000000000000000000000000000000000000000000000000000600052604160045260246000fd5b7f4e487b7100000000000000000000000000000000000000000000000000000000600052603260045260246000fd5b600060208284031215614dd057600080fd5b5051919050565b7f4e487b7100000000000000000000000000000000000000000000000000000000600052601160045260246000fd5b60007fffffffffffffffffffffffffffffffffffffffffffffffffffffffffffffffff821415614e3857614e38614dd7565b5060010190565b60007f8000000000000000000000000000000000000000000000000000000000000000821415614e7157614e71614dd7565b5060000390565b600082821015614e8a57614e8a614dd7565b500390565b60008083357fffffffffffffffffffffffffffffffffffffffffffffffffffffffffffffffe1843603018112614ec457600080fd5b83018035915067ffffffffffffffff821115614edf57600080fd5b6020019150600581901b3603821315614b6d57600080fd5b600061ffff83811690831681811015614f1257614f12614dd7565b039392505050565b60008219821115614f2d57614f2d614dd7565b500190565b6000808212827f7fffffffffffffffffffffffffffffffffffffffffffffffffffffffffffffff03841381151615614f6c57614f6c614dd7565b827f8000000000000000000000000000000000000000000000000000000000000000038412811615614fa057614fa0614dd7565b50500190565b6000808312837f800000000000000000000000000000000000000000000000000000000000000001831281151615614fe057614fe0614dd7565b837f7fffffffffffffffffffffffffffffffffffffffffffffffffffffffffffffff01831381161561501457615014614dd7565b50500390565b6000806040838503121561502d57600080fd5b505080516020909101519092909150565b6000817fffffffffffffffffffffffffffffffffffffffffffffffffffffffffffffffff048311821515161561507657615076614dd7565b500290565b7f4e487b7100000000000000000000000000000000000000000000000000000000600052601260045260246000fd5b6000826150b9576150b961507b565b500690565b6000826150cd576150cd61507b565b500790565b600060033d11156116cd5760046000803e5060005160e01c90565b7fffffffffffffffffffffffffffffffffffffffffffffffffffffffffffffffe0601f830116810181811067ffffffffffffffff82111715615158577f4e487b7100000000000000000000000000000000000000000000000000000000600052604160045260246000fd5b6040525050565b600060443d101561516d5790565b6040517ffffffffffffffffffffffffffffffffffffffffffffffffffffffffffffffffc803d016004833e81513d67ffffffffffffffff81602484011181841117156151bb57505050505090565b82850191508151818111156151d35750505050505090565b843d87010160208285010111156151ed5750505050505090565b6151fc602082860101876150ed565b509095945050505050565b6000815180845260005b8181101561522d57602081850181015186830182015201615211565b8181111561523f576000602083870101525b50601f017fffffffffffffffffffffffffffffffffffffffffffffffffffffffffffffffe0169290920160200192915050565b8281526040602082015260006108216040830184615207565b6020815260006106b56020830184615207565b6000826152ad576152ad61507b565b500490565b60007f7fffffffffffffffffffffffffffffffffffffffffffffffffffffffffffffff6000841360008413858304851182821616156152f3576152f3614dd7565b7f8000000000000000000000000000000000000000000000000000000000000000600087128682058812818416161561532e5761532e614dd7565b6000871292508782058712848416161561534a5761534a614dd7565b8785058712818416161561536057615360614dd7565b50505092909302939250505056fea26469706673582212205af77c00366bf19cc12799871cedf3b1f924c271627d29c4378478b451c1957864736f6c634300080a0033",
  "devdoc": {
    "kind": "dev",
    "methods": {},
    "version": 1
  },
  "userdoc": {
    "events": {
      "BidAtMaxPosition(address,address,uint256)": {
        "notice": "Strat specific events "
      },
      "PosthookFail(address,address,uint256,string)": {
        "notice": "Events "
      }
    },
    "kind": "user",
    "methods": {
      "NSLOTS()": {
        "notice": "Immutable fields "
      },
      "approveMangrove(address,uint256)": {
        "notice": "`this` contract needs to approve Mangrove to let it perform outbound token transfer at the end of the `makerExecute` function NB anyone can call this function"
      },
      "get_delta()": {
        "notice": "Setters and getters "
      },
      "redeemToken(address,address,uint256)": {
        "notice": "transfers token stored in `this` contract to some recipient address"
      },
      "set_shift(int256,bool,uint256[])": {
        "notice": "New positions 0<= i < s are initialized with amount[i] in base tokens if `withBase`. In quote tokens otherwise"
      },
      "set_treasury(bool,address)": {
        "notice": "Sets the account from which base (resp. quote) tokens need to be fetched or put during trade execution"
      },
      "withdrawFromMangrove(address,uint256)": {
        "notice": "withdraws ETH from the bounty vault of the Mangrove. ETH are sent to `receiver`"
      }
    },
    "notice": "In case of a partial fill of an offer at position i, the offer residual is reposted (see `Persistent` strat class)",
    "version": 1
  },
  "storageLayout": {
    "storage": [
      {
        "astId": 19574,
        "contract": "contracts/Strategies/OfferLogics/SingleUser/Deployable/MarketMaking/Mango.sol:Mango",
        "label": "admin",
        "offset": 0,
        "slot": "0",
        "type": "t_address"
      },
      {
        "astId": 10941,
        "contract": "contracts/Strategies/OfferLogics/SingleUser/Deployable/MarketMaking/Mango.sol:Mango",
        "label": "OFR_GASREQ",
        "offset": 0,
        "slot": "1",
        "type": "t_uint256"
      },
      {
        "astId": 14788,
        "contract": "contracts/Strategies/OfferLogics/SingleUser/Deployable/MarketMaking/Mango.sol:Mango",
        "label": "ASKS",
        "offset": 0,
        "slot": "2",
        "type": "t_array(t_uint256)dyn_storage"
      },
      {
        "astId": 14791,
        "contract": "contracts/Strategies/OfferLogics/SingleUser/Deployable/MarketMaking/Mango.sol:Mango",
        "label": "BIDS",
        "offset": 0,
        "slot": "3",
        "type": "t_array(t_uint256)dyn_storage"
      },
      {
        "astId": 14795,
        "contract": "contracts/Strategies/OfferLogics/SingleUser/Deployable/MarketMaking/Mango.sol:Mango",
        "label": "index_of_bid",
        "offset": 0,
        "slot": "4",
        "type": "t_mapping(t_uint256,t_uint256)"
      },
      {
        "astId": 14799,
        "contract": "contracts/Strategies/OfferLogics/SingleUser/Deployable/MarketMaking/Mango.sol:Mango",
        "label": "index_of_ask",
        "offset": 0,
        "slot": "5",
        "type": "t_mapping(t_uint256,t_uint256)"
      },
      {
        "astId": 14801,
        "contract": "contracts/Strategies/OfferLogics/SingleUser/Deployable/MarketMaking/Mango.sol:Mango",
        "label": "current_shift",
        "offset": 0,
        "slot": "6",
        "type": "t_int256"
      },
      {
        "astId": 14803,
        "contract": "contracts/Strategies/OfferLogics/SingleUser/Deployable/MarketMaking/Mango.sol:Mango",
        "label": "current_delta",
        "offset": 0,
        "slot": "7",
        "type": "t_uint256"
      },
      {
        "astId": 14805,
        "contract": "contracts/Strategies/OfferLogics/SingleUser/Deployable/MarketMaking/Mango.sol:Mango",
        "label": "current_min_buffer",
        "offset": 0,
        "slot": "8",
        "type": "t_uint256"
      },
      {
        "astId": 14808,
        "contract": "contracts/Strategies/OfferLogics/SingleUser/Deployable/MarketMaking/Mango.sol:Mango",
        "label": "paused",
        "offset": 0,
        "slot": "9",
        "type": "t_bool"
      },
      {
        "astId": 14810,
        "contract": "contracts/Strategies/OfferLogics/SingleUser/Deployable/MarketMaking/Mango.sol:Mango",
        "label": "current_base_treasury",
        "offset": 1,
        "slot": "9",
        "type": "t_address"
      },
      {
        "astId": 14812,
        "contract": "contracts/Strategies/OfferLogics/SingleUser/Deployable/MarketMaking/Mango.sol:Mango",
        "label": "current_quote_treasury",
        "offset": 0,
        "slot": "10",
        "type": "t_address"
      }
    ],
    "types": {
      "t_address": {
        "encoding": "inplace",
        "label": "address",
        "numberOfBytes": "20"
      },
      "t_array(t_uint256)dyn_storage": {
        "base": "t_uint256",
        "encoding": "dynamic_array",
        "label": "uint256[]",
        "numberOfBytes": "32"
      },
      "t_bool": {
        "encoding": "inplace",
        "label": "bool",
        "numberOfBytes": "1"
      },
      "t_int256": {
        "encoding": "inplace",
        "label": "int256",
        "numberOfBytes": "32"
      },
      "t_mapping(t_uint256,t_uint256)": {
        "encoding": "mapping",
        "key": "t_uint256",
        "label": "mapping(uint256 => uint256)",
        "numberOfBytes": "32",
        "value": "t_uint256"
      },
      "t_uint256": {
        "encoding": "inplace",
        "label": "uint256",
        "numberOfBytes": "32"
      }
    }
  }
}