{
  "address": "0xDd3c3fECFD09fE473874F942B425A127aEa2538C",
  "abi": [
    {
      "inputs": [
        {
          "internalType": "contract IMangrove",
          "name": "mgv",
          "type": "address"
        },
        {
          "internalType": "contract IERC20",
          "name": "base",
          "type": "address"
        },
        {
          "internalType": "contract IERC20",
          "name": "quote",
          "type": "address"
        },
        {
          "internalType": "uint256",
          "name": "base_0",
          "type": "uint256"
        },
        {
          "internalType": "uint256",
          "name": "quote_0",
          "type": "uint256"
        },
        {
          "internalType": "uint256",
          "name": "nslots",
          "type": "uint256"
        },
        {
          "internalType": "uint256",
          "name": "price_incr",
          "type": "uint256"
        },
        {
          "internalType": "address",
          "name": "deployer",
          "type": "address"
        }
      ],
      "stateMutability": "nonpayable",
      "type": "constructor"
    },
    {
      "anonymous": false,
      "inputs": [
        {
          "indexed": false,
          "internalType": "uint256",
          "name": "from",
          "type": "uint256"
        },
        {
          "indexed": false,
          "internalType": "uint256",
          "name": "to",
          "type": "uint256"
        }
      ],
      "name": "Initialized",
      "type": "event"
    },
    {
      "anonymous": false,
      "inputs": [
        {
          "indexed": false,
          "internalType": "contract IMangrove",
          "name": "mangrove",
          "type": "address"
        },
        {
          "indexed": true,
          "internalType": "contract IERC20",
          "name": "outbound_tkn",
          "type": "address"
        },
        {
          "indexed": true,
          "internalType": "contract IERC20",
          "name": "inbound_tkn",
          "type": "address"
        },
        {
          "indexed": true,
          "internalType": "uint256",
          "name": "offerId",
          "type": "uint256"
        },
        {
          "indexed": false,
          "internalType": "bytes32",
          "name": "reason",
          "type": "bytes32"
        }
      ],
      "name": "LogIncident",
      "type": "event"
    },
    {
      "anonymous": false,
      "inputs": [
        {
          "indexed": false,
          "internalType": "uint256",
          "name": "",
          "type": "uint256"
        }
      ],
      "name": "SetGasreq",
      "type": "event"
    },
    {
      "anonymous": false,
      "inputs": [
        {
          "indexed": false,
          "internalType": "contract AbstractRouter",
          "name": "",
          "type": "address"
        }
      ],
      "name": "SetRouter",
      "type": "event"
    },
    {
      "inputs": [],
      "name": "BASE",
      "outputs": [
        {
          "internalType": "contract IERC20",
          "name": "",
          "type": "address"
        }
      ],
      "stateMutability": "view",
      "type": "function"
    },
    {
      "inputs": [],
      "name": "MGV",
      "outputs": [
        {
          "internalType": "contract IMangrove",
          "name": "",
          "type": "address"
        }
      ],
      "stateMutability": "view",
      "type": "function"
    },
    {
      "inputs": [],
      "name": "NSLOTS",
      "outputs": [
        {
          "internalType": "uint256",
          "name": "",
          "type": "uint256"
        }
      ],
      "stateMutability": "view",
      "type": "function"
    },
    {
      "inputs": [],
      "name": "QUOTE",
      "outputs": [
        {
          "internalType": "contract IERC20",
          "name": "",
          "type": "address"
        }
      ],
      "stateMutability": "view",
      "type": "function"
    },
    {
      "inputs": [
        {
          "internalType": "bytes",
          "name": "data",
          "type": "bytes"
        }
      ],
      "name": "_staticdelegatecall",
      "outputs": [],
      "stateMutability": "nonpayable",
      "type": "function"
    },
    {
      "inputs": [
        {
          "internalType": "contract IERC20[]",
          "name": "tokens",
          "type": "address[]"
        }
      ],
      "name": "activate",
      "outputs": [],
      "stateMutability": "nonpayable",
      "type": "function"
    },
    {
      "inputs": [],
      "name": "admin",
      "outputs": [
        {
          "internalType": "address",
          "name": "",
          "type": "address"
        }
      ],
      "stateMutability": "view",
      "type": "function"
    },
    {
      "inputs": [
        {
          "internalType": "contract IERC20",
          "name": "outbound_tkn",
          "type": "address"
        }
      ],
      "name": "approveMangrove",
      "outputs": [],
      "stateMutability": "nonpayable",
      "type": "function"
    },
    {
      "inputs": [
        {
          "internalType": "contract IERC20",
          "name": "token",
          "type": "address"
        }
      ],
      "name": "approveRouter",
      "outputs": [],
      "stateMutability": "nonpayable",
      "type": "function"
    },
    {
      "inputs": [
        {
          "internalType": "contract IERC20[]",
          "name": "tokens",
          "type": "address[]"
        }
      ],
      "name": "checkList",
      "outputs": [],
      "stateMutability": "view",
      "type": "function"
    },
    {
      "inputs": [],
      "name": "delta",
      "outputs": [
        {
          "internalType": "uint256",
          "name": "",
          "type": "uint256"
        }
      ],
      "stateMutability": "view",
      "type": "function"
    },
    {
      "inputs": [
        {
          "internalType": "contract IERC20",
          "name": "outbound_tkn",
          "type": "address"
        },
        {
          "internalType": "contract IERC20",
          "name": "inbound_tkn",
          "type": "address"
        },
        {
          "internalType": "uint256",
          "name": "gasreq",
          "type": "uint256"
        },
        {
          "internalType": "uint256",
          "name": "gasprice",
          "type": "uint256"
        },
        {
          "internalType": "uint256",
          "name": "offerId",
          "type": "uint256"
        }
      ],
      "name": "getMissingProvision",
      "outputs": [
        {
          "internalType": "uint256",
          "name": "",
          "type": "uint256"
        }
      ],
      "stateMutability": "view",
      "type": "function"
    },
    {
      "inputs": [
        {
          "internalType": "bool",
          "name": "liveOnly",
          "type": "bool"
        }
      ],
      "name": "get_offers",
      "outputs": [
        {
          "internalType": "uint256[][2]",
          "name": "offers",
          "type": "uint256[][2]"
        }
      ],
      "stateMutability": "view",
      "type": "function"
    },
    {
      "inputs": [],
      "name": "has_router",
      "outputs": [
        {
          "internalType": "bool",
          "name": "",
          "type": "bool"
        }
      ],
      "stateMutability": "view",
      "type": "function"
    },
    {
      "inputs": [
        {
          "internalType": "bool",
          "name": "reset",
          "type": "bool"
        },
        {
          "internalType": "uint256",
          "name": "lastBidPosition",
          "type": "uint256"
        },
        {
          "internalType": "uint256",
          "name": "from",
          "type": "uint256"
        },
        {
          "internalType": "uint256",
          "name": "to",
          "type": "uint256"
        },
        {
          "internalType": "uint256[][2]",
          "name": "pivotIds",
          "type": "uint256[][2]"
        },
        {
          "internalType": "uint256[]",
          "name": "tokenAmounts",
          "type": "uint256[]"
        }
      ],
      "name": "initialize",
      "outputs": [],
      "stateMutability": "nonpayable",
      "type": "function"
    },
    {
      "inputs": [],
      "name": "is_paused",
      "outputs": [
        {
          "internalType": "bool",
          "name": "",
          "type": "bool"
        }
      ],
      "stateMutability": "view",
      "type": "function"
    },
    {
      "inputs": [
        {
          "components": [
            {
              "internalType": "address",
              "name": "outbound_tkn",
              "type": "address"
            },
            {
              "internalType": "address",
              "name": "inbound_tkn",
              "type": "address"
            },
            {
              "internalType": "uint256",
              "name": "offerId",
              "type": "uint256"
            },
            {
              "internalType": "t",
              "name": "offer",
              "type": "uint256"
            },
            {
              "internalType": "uint256",
              "name": "wants",
              "type": "uint256"
            },
            {
              "internalType": "uint256",
              "name": "gives",
              "type": "uint256"
            },
            {
              "internalType": "t",
              "name": "offerDetail",
              "type": "uint256"
            },
            {
              "internalType": "t",
              "name": "global",
              "type": "uint256"
            },
            {
              "internalType": "t",
              "name": "local",
              "type": "uint256"
            }
          ],
          "internalType": "struct MgvLib.SingleOrder",
          "name": "order",
          "type": "tuple"
        }
      ],
      "name": "makerExecute",
      "outputs": [
        {
          "internalType": "bytes32",
          "name": "ret",
          "type": "bytes32"
        }
      ],
      "stateMutability": "nonpayable",
      "type": "function"
    },
    {
      "inputs": [
        {
          "components": [
            {
              "internalType": "address",
              "name": "outbound_tkn",
              "type": "address"
            },
            {
              "internalType": "address",
              "name": "inbound_tkn",
              "type": "address"
            },
            {
              "internalType": "uint256",
              "name": "offerId",
              "type": "uint256"
            },
            {
              "internalType": "t",
              "name": "offer",
              "type": "uint256"
            },
            {
              "internalType": "uint256",
              "name": "wants",
              "type": "uint256"
            },
            {
              "internalType": "uint256",
              "name": "gives",
              "type": "uint256"
            },
            {
              "internalType": "t",
              "name": "offerDetail",
              "type": "uint256"
            },
            {
              "internalType": "t",
              "name": "global",
              "type": "uint256"
            },
            {
              "internalType": "t",
              "name": "local",
              "type": "uint256"
            }
          ],
          "internalType": "struct MgvLib.SingleOrder",
          "name": "order",
          "type": "tuple"
        },
        {
          "components": [
            {
              "internalType": "bytes32",
              "name": "makerData",
              "type": "bytes32"
            },
            {
              "internalType": "bytes32",
              "name": "mgvData",
              "type": "bytes32"
            }
          ],
          "internalType": "struct MgvLib.OrderResult",
          "name": "result",
          "type": "tuple"
        }
      ],
      "name": "makerPosthook",
      "outputs": [],
      "stateMutability": "nonpayable",
      "type": "function"
    },
    {
      "inputs": [
        {
          "components": [
            {
              "internalType": "contract IERC20",
              "name": "outbound_tkn",
              "type": "address"
            },
            {
              "internalType": "contract IERC20",
              "name": "inbound_tkn",
              "type": "address"
            },
            {
              "internalType": "uint256",
              "name": "wants",
              "type": "uint256"
            },
            {
              "internalType": "uint256",
              "name": "gives",
              "type": "uint256"
            },
            {
              "internalType": "uint256",
              "name": "gasreq",
              "type": "uint256"
            },
            {
              "internalType": "uint256",
              "name": "gasprice",
              "type": "uint256"
            },
            {
              "internalType": "uint256",
              "name": "pivotId",
              "type": "uint256"
            },
            {
              "internalType": "uint256",
              "name": "offerId",
              "type": "uint256"
            }
          ],
          "internalType": "struct IOfferLogic.MakerOrder",
          "name": "mko",
          "type": "tuple"
        }
      ],
      "name": "newOffer",
      "outputs": [
        {
          "internalType": "uint256",
          "name": "",
          "type": "uint256"
        }
      ],
      "stateMutability": "payable",
      "type": "function"
    },
    {
      "inputs": [],
      "name": "ofr_gasreq",
      "outputs": [
        {
          "internalType": "uint256",
          "name": "",
          "type": "uint256"
        }
      ],
      "stateMutability": "view",
      "type": "function"
    },
    {
      "inputs": [],
      "name": "pause",
      "outputs": [],
      "stateMutability": "nonpayable",
      "type": "function"
    },
    {
      "inputs": [],
      "name": "pending",
      "outputs": [
        {
          "internalType": "uint256[2]",
          "name": "",
          "type": "uint256[2]"
        }
      ],
      "stateMutability": "view",
      "type": "function"
    },
    {
      "inputs": [],
      "name": "reserve",
      "outputs": [
        {
          "internalType": "address",
          "name": "",
          "type": "address"
        }
      ],
      "stateMutability": "view",
      "type": "function"
    },
    {
      "inputs": [],
      "name": "reset_pending",
      "outputs": [],
      "stateMutability": "nonpayable",
      "type": "function"
    },
    {
      "inputs": [],
      "name": "restart",
      "outputs": [],
      "stateMutability": "nonpayable",
      "type": "function"
    },
    {
      "inputs": [
        {
          "internalType": "contract IERC20",
          "name": "outbound_tkn",
          "type": "address"
        },
        {
          "internalType": "contract IERC20",
          "name": "inbound_tkn",
          "type": "address"
        },
        {
          "internalType": "uint256",
          "name": "offerId",
          "type": "uint256"
        },
        {
          "internalType": "bool",
          "name": "deprovision",
          "type": "bool"
        }
      ],
      "name": "retractOffer",
      "outputs": [
        {
          "internalType": "uint256",
          "name": "free_wei",
          "type": "uint256"
        }
      ],
      "stateMutability": "nonpayable",
      "type": "function"
    },
    {
      "inputs": [
        {
          "internalType": "uint256",
          "name": "ba",
          "type": "uint256"
        },
        {
          "internalType": "uint256",
          "name": "from",
          "type": "uint256"
        },
        {
          "internalType": "uint256",
          "name": "to",
          "type": "uint256"
        }
      ],
      "name": "retractOffers",
      "outputs": [
        {
          "internalType": "uint256",
          "name": "collected",
          "type": "uint256"
        }
      ],
      "stateMutability": "nonpayable",
      "type": "function"
    },
    {
      "inputs": [],
      "name": "router",
      "outputs": [
        {
          "internalType": "contract AbstractRouter",
          "name": "",
          "type": "address"
        }
      ],
      "stateMutability": "view",
      "type": "function"
    },
    {
      "inputs": [
        {
          "internalType": "address",
          "name": "_admin",
          "type": "address"
        }
      ],
      "name": "set_admin",
      "outputs": [],
      "stateMutability": "nonpayable",
      "type": "function"
    },
    {
      "inputs": [
        {
          "internalType": "uint256",
          "name": "_delta",
          "type": "uint256"
        }
      ],
      "name": "set_delta",
      "outputs": [],
      "stateMutability": "nonpayable",
      "type": "function"
    },
    {
      "inputs": [
        {
          "internalType": "uint256",
          "name": "gasreq",
          "type": "uint256"
        }
      ],
      "name": "set_gasreq",
      "outputs": [],
      "stateMutability": "nonpayable",
      "type": "function"
    },
    {
      "inputs": [
        {
          "internalType": "uint256",
          "name": "m",
          "type": "uint256"
        }
      ],
      "name": "set_min_offer_type",
      "outputs": [],
      "stateMutability": "nonpayable",
      "type": "function"
    },
    {
      "inputs": [
        {
          "internalType": "address",
          "name": "__reserve",
          "type": "address"
        }
      ],
      "name": "set_reserve",
      "outputs": [],
      "stateMutability": "nonpayable",
      "type": "function"
    },
    {
      "inputs": [
        {
          "internalType": "contract AbstractRouter",
          "name": "router_",
          "type": "address"
        }
      ],
      "name": "set_router",
      "outputs": [],
      "stateMutability": "nonpayable",
      "type": "function"
    },
    {
      "inputs": [
        {
          "internalType": "int256",
          "name": "s",
          "type": "int256"
        },
        {
          "internalType": "bool",
          "name": "withBase",
          "type": "bool"
        },
        {
          "internalType": "uint256[]",
          "name": "amounts",
          "type": "uint256[]"
        }
      ],
      "name": "set_shift",
      "outputs": [],
      "stateMutability": "nonpayable",
      "type": "function"
    },
    {
      "inputs": [],
      "name": "shift",
      "outputs": [
        {
          "internalType": "int256",
          "name": "",
          "type": "int256"
        }
      ],
      "stateMutability": "view",
      "type": "function"
    },
    {
      "inputs": [
        {
          "internalType": "contract IERC20",
          "name": "token",
          "type": "address"
        }
      ],
      "name": "tokenBalance",
      "outputs": [
        {
          "internalType": "uint256",
          "name": "",
          "type": "uint256"
        }
      ],
      "stateMutability": "view",
      "type": "function"
    },
    {
      "inputs": [
        {
          "components": [
            {
              "internalType": "contract IERC20",
              "name": "outbound_tkn",
              "type": "address"
            },
            {
              "internalType": "contract IERC20",
              "name": "inbound_tkn",
              "type": "address"
            },
            {
              "internalType": "uint256",
              "name": "wants",
              "type": "uint256"
            },
            {
              "internalType": "uint256",
              "name": "gives",
              "type": "uint256"
            },
            {
              "internalType": "uint256",
              "name": "gasreq",
              "type": "uint256"
            },
            {
              "internalType": "uint256",
              "name": "gasprice",
              "type": "uint256"
            },
            {
              "internalType": "uint256",
              "name": "pivotId",
              "type": "uint256"
            },
            {
              "internalType": "uint256",
              "name": "offerId",
              "type": "uint256"
            }
          ],
          "internalType": "struct IOfferLogic.MakerOrder",
          "name": "mko",
          "type": "tuple"
        }
      ],
      "name": "updateOffer",
      "outputs": [],
      "stateMutability": "payable",
      "type": "function"
    },
    {
      "inputs": [
        {
          "internalType": "uint256",
          "name": "amount",
          "type": "uint256"
        },
        {
          "internalType": "address payable",
          "name": "receiver",
          "type": "address"
        }
      ],
      "name": "withdrawFromMangrove",
      "outputs": [],
      "stateMutability": "nonpayable",
      "type": "function"
    },
    {
      "inputs": [
        {
          "internalType": "contract IERC20",
          "name": "token",
          "type": "address"
        },
        {
          "internalType": "address",
          "name": "receiver",
          "type": "address"
        },
        {
          "internalType": "uint256",
          "name": "amount",
          "type": "uint256"
        }
      ],
      "name": "withdrawToken",
      "outputs": [
        {
          "internalType": "bool",
          "name": "success",
          "type": "bool"
        }
      ],
      "stateMutability": "nonpayable",
      "type": "function"
    },
    {
      "stateMutability": "payable",
      "type": "receive"
    }
  ],
  "transactionHash": "0x082f6e952dc600c72410a370299f2416fd4d03a98ba04fdd7b731dc82dfee465",
  "args": [
    "0xF3e339d8a0B989114412fa157Cc846ebaf4BCbd8",
    "0x9A753f0F7886C9fbF63cF59D0D4423C5eFaCE95B",
    "0x9aa7fEc87CA69695Dd1f879567CcF49F3ba417E2",
    "1000000000000000000000",
    "997000000",
    100,
    "120000",
    "0x47897EE61498D02B18794601Ed3A71896A1Ff894"
  ],
  "numDeployments": 1,
  "solcInputHash": "c95a467b7b35c685f8718fe6c2e4485d",
  "bytecode": "0x6101206040523480156200001257600080fd5b506040516200ac303803806200ac30833981016040819052620000359162000c18565b876203d090604051620000489062000b7f565b604051809103906000f08015801562000065573d6000803e3d6000fd5b5082828282823380620000bf5760405162461bcd60e51b815260206004820152601860248201527f616363657373436f6e74726f6c6c65642f307841646d696e000000000000000060448201526064015b60405180910390fd5b80620000d56200048360201b620032e11760201c565b80546001600160a01b0319166001600160a01b03929092169190911790555062ffffff811681146200014a5760405162461bcd60e51b815260206004820152601b60248201527f4d616e67726f76654f666665722f676173726571546f6f4869676800000000006044820152606401620000b6565b6001600160a01b038216608052806200016e620004a7602090811b6200330517901c565b5550506001600160a01b03811662000191576200018b30620004cb565b620001a7565b6200019c81620004cb565b620001a78162000535565b5050505050506000620001c4620006ce60201b620033291760201c565b9050600084118015620001df57506001600160a01b03891615155b8015620001ef5750838461ffff16145b801562000204575085866001600160601b0316145b801562000219575084856001600160601b0316145b620002725760405162461bcd60e51b815260206004820152602260248201527f4d616e676f2f636f6e7374727563746f722f696e76616c6964417267756d656e604482015261747360f01b6064820152608401620000b6565b8360c081815250508888888888886040516200028e9062000b8d565b6001600160a01b03968716815294861660208601529490921660408401526001600160601b03908116606084015216608082015260a081019190915260c001604051809103906000f080158015620002ea573d6000803e3d6000fd5b506001600160a01b0390811660a05288811660e052871661010052836001600160401b0381111562000320576200032062000caa565b6040519080825280602002602001820160405280156200034a578160200160208202803683370190505b5080516200036091839160209091019062000b9b565b50836001600160401b038111156200037c576200037c62000caa565b604051908082528060200260200182016040528015620003a6578160200160208202803683370190505b508051620003bf91600184019160209091019062000b9b565b506007810183905560016008820155620003d988620006f2565b620003e487620006f2565b620003ef82620004cb565b620003f962000784565b60405163e9333fab60e01b81526001600160a01b038481166004830152919091169063e9333fab90602401600060405180830381600087803b1580156200043f57600080fd5b505af115801562000454573d6000803e3d6000fd5b505050506001600160a01b038216331462000474576200047482620007f3565b50505050505050505062000ceb565b7f7d382ebca3e46505071795e192d28166a3d4bd0685585591bc6c5b8df6769fd290565b7fae7e31c3220e851db9f204a28b279dfe52b973600b0a456991089c220ae7222490565b620004d5620008dd565b6001600160a01b0316336001600160a01b031614620005265760405162461bcd60e51b815260206004820152601860248201526000805160206200ac108339815191526044820152606401620000b6565b62000532308262000903565b50565b6200053f620008dd565b6001600160a01b0316336001600160a01b031614806200057257506080516001600160a01b0316336001600160a01b0316145b620005af5760405162461bcd60e51b815260206004820152601860248201526000805160206200ac108339815191526044820152606401620000b6565b6001600160a01b038116620006075760405162461bcd60e51b815260206004820152601c60248201527f6d67764f666665722f7365745f726f757465722f3078526f75746572000000006044820152606401620000b6565b806200061d620004a760201b620033051760201c565b60010180546001600160a01b0319166001600160a01b039283161790556040516381bac14f60e01b8152306004820152908216906381bac14f90602401600060405180830381600087803b1580156200067557600080fd5b505af11580156200068a573d6000803e3d6000fd5b50506040516001600160a01b03841681527f6de4326a8b9054d72d9dbab97d27bc4edffadee7d966f5af9cc4eafdaf8e54559250602001905060405180910390a150565b7f416b48c48a967c2245e6ba6bc6efa281932950b502fea671117e4dfd7d3dfb8190565b620006fd81620009a5565b6200070762000a6e565b156200053257620007188162000aa3565b6200072262000784565b604051630716a76760e21b81526001600160a01b0383811660048301529190911690631c5a9d9c90602401600060405180830381600087803b1580156200076857600080fd5b505af11580156200077d573d6000803e3d6000fd5b5050505050565b6000806200079c620004a760201b620033051760201c565b600101546001600160a01b0316905080620007ee5760405162461bcd60e51b815260206004820152601160248201527036b3bb27b33332b917983c2937baba32b960791b6044820152606401620000b6565b919050565b620007fd620008dd565b6001600160a01b0316336001600160a01b0316146200084e5760405162461bcd60e51b815260206004820152601860248201526000805160206200ac108339815191526044820152606401620000b6565b6001600160a01b038116620008a65760405162461bcd60e51b815260206004820152601860248201527f416363657373436f6e74726f6c6c65642f307841646d696e00000000000000006044820152606401620000b6565b80620008bc6200048360201b620032e11760201c565b80546001600160a01b0319166001600160a01b039290921691909117905550565b6000620008f46200048360201b620032e11760201c565b546001600160a01b0316919050565b6001600160a01b0381166200095b5760405162461bcd60e51b815260206004820152601460248201527f53696e676c65557365722f3078526573657276650000000000000000000000006044820152606401620000b6565b8062000971620004a760201b620033051760201c565b6001600160a01b0393841660009081526002919091016020526040902080546001600160a01b031916919093161790915550565b60805160405163095ea7b360e01b81526001600160a01b03918216600482015260001960248201529082169063095ea7b3906044016020604051808303816000875af1158015620009fa573d6000803e3d6000fd5b505050506040513d601f19601f8201168201806040525081019062000a20919062000cc0565b620005325760405162461bcd60e51b815260206004820152601d60248201527f6d67764f666665722f617070726f76654d616e67726f76652f4661696c0000006044820152606401620000b6565b6000806001600160a01b031662000a8f620004a760201b620033051760201c565b600101546001600160a01b03161415919050565b6001600160a01b03811663095ea7b362000abc62000784565b6040516001600160e01b031960e084901b1681526001600160a01b03909116600482015260001960248201526044016020604051808303816000875af115801562000b0b573d6000803e3d6000fd5b505050506040513d601f19601f8201168201806040525081019062000b31919062000cc0565b620005325760405162461bcd60e51b815260206004820152601b60248201527f6d67764f666665722f617070726f7665526f757465722f4661696c00000000006044820152606401620000b6565b6116f38062005f8b83390190565b613592806200767e83390190565b82805482825590600052602060002090810192821562000bd9579160200282015b8281111562000bd957825182559160200191906001019062000bbc565b5062000be792915062000beb565b5090565b5b8082111562000be7576000815560010162000bec565b6001600160a01b03811681146200053257600080fd5b600080600080600080600080610100898b03121562000c3657600080fd5b885162000c438162000c02565b60208a015190985062000c568162000c02565b60408a015190975062000c698162000c02565b80965050606089015194506080890151935060a0890151925060c0890151915060e089015162000c998162000c02565b809150509295985092959890939650565b634e487b7160e01b600052604160045260246000fd5b60006020828403121562000cd357600080fd5b8151801515811462000ce457600080fd5b9392505050565b60805160a05160c05160e0516101005161517b62000e106000396000818161057401528181612703015261279b0152600081816107a9015281816126e2015281816127bc015281816135fe0152614091015260006106de0152600081816116130152818161180701528181611de20152818161368a01526142fa01526000818161052801528181610b930152818161109601528181611191015281816113d2015281816115380152818161189d01528181611aca01528181611b7501528181611d6701528181611f5d01528181612031015281816120f301528181612232015281816122ef015281816123930152818161255901528181612a1301528181612cbb015281816131cc01528181613d0401528181613e2f0152613fed015261517b6000f3fe6080604052600436106102bf5760003560e01c80639d4ddea21161016e578063db11851e116100cb578063eedc966a1161007f578063f851a44011610064578063f851a4401461080b578063f887ea4014610848578063fc488a381461085d57600080fd5b8063eedc966a146107cb578063f259cd27146107eb57600080fd5b8063e4c34f84116100b0578063e4c34f8414610757578063e9333fab14610777578063ec342ad01461079757600080fd5b8063db11851e14610715578063e20ccec31461073557600080fd5b8063ccbbcfc211610122578063d1baa1ef11610107578063d1baa1ef146106b7578063d4a1da08146106cc578063d5c397211461070057600080fd5b8063ccbbcfc21461064d578063cd3293de1461066d57600080fd5b80639f2211cb116101535780639f2211cb146105ed578063ad97db1b1461060d578063c5dbec381461062d57600080fd5b80639d4ddea2146105965780639d4f8aa9146105b657600080fd5b80635486c95f1161021c57806381550267116101d057806384b627f9116101b557806384b627f9146104d757806399fa5e2d146105165780639c5798391461056257600080fd5b806381550267146104a25780638456cb59146104c257600080fd5b80635a3e9618116102015780635a3e9618146104425780636c49c32c146104625780637144df241461048257600080fd5b80635486c95f1461040f578063553e9f321461042257600080fd5b80631ef3755d116102735780633d3d130d116102585780633d3d130d146103af5780633d77fcde146103cf5780635293840d146103ef57600080fd5b80631ef3755d1461036d5780631efa880b1461038257600080fd5b806310aded60116102a457806310aded601461032257806312b495a81461033557806312fc41ca1461035857600080fd5b806301e33667146102cb57806303eb17e21461030057600080fd5b366102c657005b600080fd5b3480156102d757600080fd5b506102eb6102e6366004614583565b61087d565b60405190151581526020015b60405180910390f35b34801561030c57600080fd5b5061032061031b366004614610565b610ac7565b005b6103206103303660046146f9565b610b18565b34801561034157600080fd5b5061034a610ca9565b6040519081526020016102f7565b34801561036457600080fd5b5061034a610d62565b34801561037957600080fd5b50610320610e1b565b34801561038e57600080fd5b506103a261039d3660046147aa565b610eea565b6040516102f791906147c7565b3480156103bb57600080fd5b506103206103ca36600461486d565b611094565b3480156103db57600080fd5b506103206103ea3660046148cd565b6111f5565b3480156103fb57600080fd5b5061032061040a366004614610565b611278565b61034a61041d3660046146f9565b61133d565b34801561042e57600080fd5b5061032061043d3660046148ea565b6114fa565b34801561044e57600080fd5b5061032061045d36600461498d565b6117a0565b34801561046e57600080fd5b5061034a61047d3660046149ff565b611899565b34801561048e57600080fd5b5061032061049d366004614a1c565b6119fc565b3480156104ae57600080fd5b506103206104bd366004614a4c565b611d29565b3480156104ce57600080fd5b50610320611f1f565b3480156104e357600080fd5b507fae7e31c3220e851db9f204a28b279dfe52b973600b0a456991089c220ae72225546001600160a01b031615156102eb565b34801561052257600080fd5b5061054a7f000000000000000000000000000000000000000000000000000000000000000081565b6040516001600160a01b0390911681526020016102f7565b34801561056e57600080fd5b5061054a7f000000000000000000000000000000000000000000000000000000000000000081565b3480156105a257600080fd5b506103206105b1366004614aa8565b611ff3565b3480156105c257600080fd5b507f416b48c48a967c2245e6ba6bc6efa281932950b502fea671117e4dfd7d3dfb8a5460ff166102eb565b3480156105f957600080fd5b506103206106083660046148cd565b6120c3565b34801561061957600080fd5b5061034a610628366004614ac1565b6121da565b34801561063957600080fd5b50610320610648366004614aa8565b61251b565b34801561065957600080fd5b5061034a610668366004614b14565b6125eb565b34801561067957600080fd5b503060009081527fae7e31c3220e851db9f204a28b279dfe52b973600b0a456991089c220ae7222660205260409020546001600160a01b031661054a565b3480156106c357600080fd5b5061034a61281d565b3480156106d857600080fd5b5061034a7f000000000000000000000000000000000000000000000000000000000000000081565b34801561070c57600080fd5b50610320612912565b34801561072157600080fd5b506103206107303660046148cd565b6129d5565b34801561074157600080fd5b5061074a612bda565b6040516102f79190614b40565b34801561076357600080fd5b5061034a610772366004614b71565b612cb4565b34801561078357600080fd5b506103206107923660046148cd565b612d05565b3480156107a357600080fd5b5061054a7f000000000000000000000000000000000000000000000000000000000000000081565b3480156107d757600080fd5b5061034a6107e63660046148cd565b612e2d565b3480156107f757600080fd5b506103206108063660046148cd565b613008565b34801561081757600080fd5b507f7d382ebca3e46505071795e192d28166a3d4bd0685585591bc6c5b8df6769fd2546001600160a01b031661054a565b34801561085457600080fd5b5061054a613113565b34801561086957600080fd5b50610320610878366004614aa8565b61318e565b60006108b07f7d382ebca3e46505071795e192d28166a3d4bd0685585591bc6c5b8df6769fd2546001600160a01b031690565b6001600160a01b0316336001600160a01b0316146109155760405162461bcd60e51b815260206004820152601860248201527f416363657373436f6e74726f6c6c65642f496e76616c6964000000000000000060448201526064015b60405180910390fd5b6001600160a01b0383166109915760405162461bcd60e51b815260206004820152602360248201527f53696e676c65557365722f7769746864726177546f6b656e2f3078526563656960448201527f7665720000000000000000000000000000000000000000000000000000000000606482015260840161090c565b7fae7e31c3220e851db9f204a28b279dfe52b973600b0a456991089c220ae72225546001600160a01b03166109d2576109cb84848461334d565b9050610ac0565b6109da613113565b6001600160a01b03166321754d9e85610a273060009081527fae7e31c3220e851db9f204a28b279dfe52b973600b0a456991089c220ae7222660205260409020546001600160a01b031690565b6040517fffffffff0000000000000000000000000000000000000000000000000000000060e085901b1681526001600160a01b03928316600482015290821660248201529086166044820152606481018590526084016020604051808303816000875af1158015610a9c573d6000803e3d6000fd5b505050506040513d601f19601f820116820180604052508101906109cb9190614bc2565b9392505050565b60005b81811015610b1357610b01838383818110610ae757610ae7614bdf565b9050602002016020810190610afc91906148cd565b613467565b80610b0b81614c3d565b915050610aca565b505050565b7f7d382ebca3e46505071795e192d28166a3d4bd0685585591bc6c5b8df6769fd2546001600160a01b03163314610b915760405162461bcd60e51b815260206004820152601860248201527f416363657373436f6e74726f6c6c65642f496e76616c69640000000000000000604482015260640161090c565b7f00000000000000000000000000000000000000000000000000000000000000006001600160a01b0316636a4f769134836000015184602001518560400151866060015162ffffff8016886080015111610bef578760800151610bf7565b610bf761281d565b60a089015160c08a015160e0808c0151604051918b901b7fffffffff000000000000000000000000000000000000000000000000000000001682526001600160a01b03988916600483015296909716602488015260448701949094526064860192909252608485015260a484015260c483015260e4820152610104016000604051808303818588803b158015610c8c57600080fd5b505af1158015610ca0573d6000803e3d6000fd5b50505050505b50565b6000610cdc7f7d382ebca3e46505071795e192d28166a3d4bd0685585591bc6c5b8df6769fd2546001600160a01b031690565b6001600160a01b0316336001600160a01b031614610d3c5760405162461bcd60e51b815260206004820152601860248201527f416363657373436f6e74726f6c6c65642f496e76616c69640000000000000000604482015260640161090c565b507f416b48c48a967c2245e6ba6bc6efa281932950b502fea671117e4dfd7d3dfb885490565b6000610d957f7d382ebca3e46505071795e192d28166a3d4bd0685585591bc6c5b8df6769fd2546001600160a01b031690565b6001600160a01b0316336001600160a01b031614610df55760405162461bcd60e51b815260206004820152601860248201527f416363657373436f6e74726f6c6c65642f496e76616c69640000000000000000604482015260640161090c565b507f416b48c48a967c2245e6ba6bc6efa281932950b502fea671117e4dfd7d3dfb875490565b7f7d382ebca3e46505071795e192d28166a3d4bd0685585591bc6c5b8df6769fd2546001600160a01b03163314610e945760405162461bcd60e51b815260206004820152601860248201527f416363657373436f6e74726f6c6c65642f496e76616c69640000000000000000604482015260640161090c565b60007f416b48c48a967c2245e6ba6bc6efa281932950b502fea671117e4dfd7d3dfb815b60090180547fffffffffffffffffffffffffffffffffffffffffffffffffffffffffffffff0016911515919091179055565b610ef261451e565b60408051831515602480830191909152825180830382018152604490920183526020820180517bffffffffffffffffffffffffffffffffffffffffffffffffffffffff167f663d2e0c000000000000000000000000000000000000000000000000000000001790529151600092839230927f5a3e96180000000000000000000000000000000000000000000000000000000092610f90929101614ca1565b604080517fffffffffffffffffffffffffffffffffffffffffffffffffffffffffffffffe08184030181529181526020820180517bffffffffffffffffffffffffffffffffffffffffffffffffffffffff167fffffffff000000000000000000000000000000000000000000000000000000009094169390931790925290516110199190614cf2565b600060405180830381855afa9150503d8060008114611054576040519150601f19603f3d011682016040523d82523d6000602084013e611059565b606091505b5091509150816110715761106c8161356c565b61108d565b808060200190518101906110859190614d0e565b949350505050565b5050919050565b7f00000000000000000000000000000000000000000000000000000000000000006001600160a01b03811615806110d35750336001600160a01b038216145b61111f5760405162461bcd60e51b815260206004820152601860248201527f416363657373436f6e74726f6c6c65642f496e76616c69640000000000000000604482015260640161090c565b81602001357f6d67762f747261646553756363657373000000000000000000000000000000000361115957611153836135c5565b50505050565b6040830180359061116d90602086016148cd565b6001600160a01b031661118360208601866148cd565b604080516001600160a01b037f0000000000000000000000000000000000000000000000000000000000000000811682528735602083015292909216917f736a3993b9f8b1c5603896c76376792887f376b1fe7fc981e09a16530bf1e4e0910160405180910390a461115383836137e3565b7f7d382ebca3e46505071795e192d28166a3d4bd0685585591bc6c5b8df6769fd2546001600160a01b0316331461126e5760405162461bcd60e51b815260206004820152601860248201527f416363657373436f6e74726f6c6c65642f496e76616c69640000000000000000604482015260640161090c565b610ca630826137ec565b7f7d382ebca3e46505071795e192d28166a3d4bd0685585591bc6c5b8df6769fd2546001600160a01b031633146112f15760405162461bcd60e51b815260206004820152601860248201527f416363657373436f6e74726f6c6c65642f496e76616c69640000000000000000604482015260640161090c565b60005b81811015610b135761132b83838381811061131157611311614bdf565b905060200201602081019061132691906148cd565b6138a7565b8061133581614c3d565b9150506112f4565b60006113707f7d382ebca3e46505071795e192d28166a3d4bd0685585591bc6c5b8df6769fd2546001600160a01b031690565b6001600160a01b0316336001600160a01b0316146113d05760405162461bcd60e51b815260206004820152601860248201527f416363657373436f6e74726f6c6c65642f496e76616c69640000000000000000604482015260640161090c565b7f00000000000000000000000000000000000000000000000000000000000000006001600160a01b03166349f6d2dc34846000015185602001518660400151876060015162ffffff80168960800151101561142f578860800151611437565b61143761281d565b60a08a015160c08b01516040517fffffffff0000000000000000000000000000000000000000000000000000000060e08b901b1681526001600160a01b03978816600482015296909516602487015260448601939093526064850191909152608484015260a483015260c482015260e40160206040518083038185885af11580156114c6573d6000803e3d6000fd5b50505050506040513d601f19601f820116820180604052508101906114eb9190614e0f565b60e0830181905290505b919050565b7f7d382ebca3e46505071795e192d28166a3d4bd0685585591bc6c5b8df6769fd2546001600160a01b031633148061155a5750336001600160a01b037f000000000000000000000000000000000000000000000000000000000000000016145b6115a65760405162461bcd60e51b815260206004820152601860248201527f416363657373436f6e74726f6c6c65642f496e76616c69640000000000000000604482015260640161090c565b60006115b0613113565b6001600160a01b0316036116065760405162461bcd60e51b815260206004820152601960248201527f4d616e676f2f696e697469616c697a652f3078526f7574657200000000000000604482015260640161090c565b6000806001600160a01b037f0000000000000000000000000000000000000000000000000000000000000000167f3234fdc0000000000000000000000000000000000000000000000000000000008a8a8a8a8a8a8a61166361281d565b60405160240161167a989796959493929190614e77565b604080517fffffffffffffffffffffffffffffffffffffffffffffffffffffffffffffffe08184030181529181526020820180517bffffffffffffffffffffffffffffffffffffffffffffffffffffffff167fffffffff000000000000000000000000000000000000000000000000000000009094169390931790925290516117039190614cf2565b600060405180830381855af49150503d806000811461173e576040519150601f19603f3d011682016040523d82523d6000602084013e611743565b606091505b50915091508161175b576117568161356c565b611795565b60408051888152602081018890527f997896709b4e932ee42750e2e14ed1f7ab6c60bd911ff567aa2485cf0b20051b910160405180910390a15b505050505050505050565b308015806117b65750336001600160a01b038216145b6118025760405162461bcd60e51b815260206004820152601860248201527f416363657373436f6e74726f6c6c65642f496e76616c69640000000000000000604482015260640161090c565b6000807f00000000000000000000000000000000000000000000000000000000000000006001600160a01b0316858560405161183f929190614f87565b600060405180830381855af49150503d806000811461187a576040519150601f19603f3d011682016040523d82523d6000602084013e61187f565b606091505b509150915081611892576118928161356c565b3d60208201f35b60007f00000000000000000000000000000000000000000000000000000000000000006001600160a01b03811615806118da5750336001600160a01b038216145b6119265760405162461bcd60e51b815260206004820152601860248201527f416363657373436f6e74726f6c6c65642f496e76616c69640000000000000000604482015260640161090c565b7f416b48c48a967c2245e6ba6bc6efa281932950b502fea671117e4dfd7d3dfb8a5460ff16156119985760405162461bcd60e51b815260206004820152601660248201527f6d67764f666665722f61626f72742f72656e6567656400000000000000000000604482015260640161090c565b60006119a884608001358561396a565b11156119f65760405162461bcd60e51b815260206004820152601860248201527f6d67764f666665722f61626f72742f6765744661696c65640000000000000000604482015260640161090c565b50919050565b7f7d382ebca3e46505071795e192d28166a3d4bd0685585591bc6c5b8df6769fd2546001600160a01b03163314611a755760405162461bcd60e51b815260206004820152601860248201527f416363657373436f6e74726f6c6c65642f496e76616c69640000000000000000604482015260640161090c565b7fffffffffffffffffffffffffffffffffffffffffffffffffffffffffffffffff8203611b46576040517f70a082310000000000000000000000000000000000000000000000000000000081523060048201527f00000000000000000000000000000000000000000000000000000000000000006001600160a01b0316906370a0823190602401602060405180830381865afa158015611b19573d6000803e3d6000fd5b505050506040513d601f19601f82011682018060405250810190611b3d9190614e0f565b91508115611d25575b6040517f2e1a7d4d000000000000000000000000000000000000000000000000000000008152600481018390527f00000000000000000000000000000000000000000000000000000000000000006001600160a01b031690632e1a7d4d906024016020604051808303816000875af1158015611bc6573d6000803e3d6000fd5b505050506040513d601f19601f82011682018060405250810190611bea9190614bc2565b611c5c5760405162461bcd60e51b815260206004820152602560248201527f6d67764f666665722f776974686472617746726f6d4d67762f7769746864726160448201527f774661696c000000000000000000000000000000000000000000000000000000606482015260840161090c565b6000816001600160a01b03168360405160006040518083038185875af1925050503d8060008114611ca9576040519150601f19603f3d011682016040523d82523d6000602084013e611cae565b606091505b5050905080610b135760405162461bcd60e51b815260206004820152602860248201527f6d67764f666665722f776974686472617746726f6d4d67762f70617961626c6560448201527f43616c6c4661696c000000000000000000000000000000000000000000000000606482015260840161090c565b5050565b7f7d382ebca3e46505071795e192d28166a3d4bd0685585591bc6c5b8df6769fd2546001600160a01b0316331480611d895750336001600160a01b037f000000000000000000000000000000000000000000000000000000000000000016145b611dd55760405162461bcd60e51b815260206004820152601860248201527f416363657373436f6e74726f6c6c65642f496e76616c69640000000000000000604482015260640161090c565b6000806001600160a01b037f0000000000000000000000000000000000000000000000000000000000000000167fb61dce590000000000000000000000000000000000000000000000000000000087878787611e2f61281d565b604051602401611e43959493929190614f97565b604080517fffffffffffffffffffffffffffffffffffffffffffffffffffffffffffffffe08184030181529181526020820180517bffffffffffffffffffffffffffffffffffffffffffffffffffffffff167fffffffff00000000000000000000000000000000000000000000000000000000909416939093179092529051611ecc9190614cf2565b600060405180830381855af49150503d8060008114611f07576040519150601f19603f3d011682016040523d82523d6000602084013e611f0c565b606091505b509150915081610ca057610ca08161356c565b7f7d382ebca3e46505071795e192d28166a3d4bd0685585591bc6c5b8df6769fd2546001600160a01b0316331480611f7f5750336001600160a01b037f000000000000000000000000000000000000000000000000000000000000000016145b611fcb5760405162461bcd60e51b815260206004820152601860248201527f416363657373436f6e74726f6c6c65642f496e76616c69640000000000000000604482015260640161090c565b60017f416b48c48a967c2245e6ba6bc6efa281932950b502fea671117e4dfd7d3dfb81610eb8565b7f7d382ebca3e46505071795e192d28166a3d4bd0685585591bc6c5b8df6769fd2546001600160a01b03163314806120535750336001600160a01b037f000000000000000000000000000000000000000000000000000000000000000016145b61209f5760405162461bcd60e51b815260206004820152601860248201527f416363657373436f6e74726f6c6c65642f496e76616c69640000000000000000604482015260640161090c565b7f416b48c48a967c2245e6ba6bc6efa281932950b502fea671117e4dfd7d3dfb8955565b6040517f095ea7b30000000000000000000000000000000000000000000000000000000081526001600160a01b037f0000000000000000000000000000000000000000000000000000000000000000811660048301527fffffffffffffffffffffffffffffffffffffffffffffffffffffffffffffffff602483015282169063095ea7b3906044016020604051808303816000875af115801561216a573d6000803e3d6000fd5b505050506040513d601f19601f8201168201806040525081019061218e9190614bc2565b610ca65760405162461bcd60e51b815260206004820152601d60248201527f6d67764f666665722f617070726f76654d616e67726f76652f4661696c000000604482015260640161090c565b600061220d7f7d382ebca3e46505071795e192d28166a3d4bd0685585591bc6c5b8df6769fd2546001600160a01b031690565b6001600160a01b0316336001600160a01b031614806122545750336001600160a01b037f000000000000000000000000000000000000000000000000000000000000000016145b6122a05760405162461bcd60e51b815260206004820152601860248201527f416363657373436f6e74726f6c6c65642f496e76616c69640000000000000000604482015260640161090c565b6040517fad97db1b0000000000000000000000000000000000000000000000000000000081526001600160a01b03868116600483015285811660248301526044820185905283151560648301527f0000000000000000000000000000000000000000000000000000000000000000169063ad97db1b906084016020604051808303816000875af1158015612338573d6000803e3d6000fd5b505050506040513d601f19601f8201168201806040525081019061235c9190614e0f565b90508015611085576040517f2e1a7d4d000000000000000000000000000000000000000000000000000000008152600481018290527f00000000000000000000000000000000000000000000000000000000000000006001600160a01b031690632e1a7d4d906024016020604051808303816000875af11580156123e4573d6000803e3d6000fd5b505050506040513d601f19601f820116820180604052508101906124089190614bc2565b61247a5760405162461bcd60e51b815260206004820152602760248201527f53696e676c65557365722f776974686472617746726f6d4d67762f776974686460448201527f7261774661696c00000000000000000000000000000000000000000000000000606482015260840161090c565b604051600090339083908381818185875af1925050503d80600081146124bc576040519150601f19603f3d011682016040523d82523d6000602084013e6124c1565b606091505b50509050806125125760405162461bcd60e51b815260206004820152601a60248201527f53696e676c65557365722f7765695472616e736665724661696c000000000000604482015260640161090c565b50949350505050565b7f7d382ebca3e46505071795e192d28166a3d4bd0685585591bc6c5b8df6769fd2546001600160a01b031633148061257b5750336001600160a01b037f000000000000000000000000000000000000000000000000000000000000000016145b6125c75760405162461bcd60e51b815260206004820152601860248201527f416363657373436f6e74726f6c6c65642f496e76616c69640000000000000000604482015260640161090c565b7f416b48c48a967c2245e6ba6bc6efa281932950b502fea671117e4dfd7d3dfb8855565b600061261e7f7d382ebca3e46505071795e192d28166a3d4bd0685585591bc6c5b8df6769fd2546001600160a01b031690565b6001600160a01b0316336001600160a01b03161461267e5760405162461bcd60e51b815260206004820152601860248201527f416363657373436f6e74726f6c6c65642f496e76616c69640000000000000000604482015260640161090c565b7f416b48c48a967c2245e6ba6bc6efa281932950b502fea671117e4dfd7d3dfb81835b8381101561280f5785156127565760008260000182815481106126c6576126c6614bdf565b9060005260206000200154116126dd576000612749565b6127497f00000000000000000000000000000000000000000000000000000000000000007f000000000000000000000000000000000000000000000000000000000000000084600001848154811061273757612737614bdf565b906000526020600020015460016121da565b6127539084614fcb565b92505b8515806127635750600186115b156127fd57600082600101828154811061277f5761277f614bdf565b9060005260206000200154116127965760006127f0565b6127f07f00000000000000000000000000000000000000000000000000000000000000007f000000000000000000000000000000000000000000000000000000000000000084600101848154811061273757612737614bdf565b6127fa9084614fcb565b92505b8061280781614c3d565b9150506126a1565b50509392505050565b905090565b60006128527fae7e31c3220e851db9f204a28b279dfe52b973600b0a456991089c220ae72225546001600160a01b0316151590565b156128ec5761285f613113565b6001600160a01b0316630417ffda6040518163ffffffff1660e01b8152600401602060405180830381865afa15801561289c573d6000803e3d6000fd5b505050506040513d601f19601f820116820180604052508101906128c09190614e0f565b7fae7e31c3220e851db9f204a28b279dfe52b973600b0a456991089c220ae72224546128189190614fcb565b507fae7e31c3220e851db9f204a28b279dfe52b973600b0a456991089c220ae722245490565b7f7d382ebca3e46505071795e192d28166a3d4bd0685585591bc6c5b8df6769fd2546001600160a01b0316331461298b5760405162461bcd60e51b815260206004820152601860248201527f416363657373436f6e74726f6c6c65642f496e76616c69640000000000000000604482015260640161090c565b60007f416b48c48a967c2245e6ba6bc6efa281932950b502fea671117e4dfd7d3dfb838190557f416b48c48a967c2245e6ba6bc6efa281932950b502fea671117e4dfd7d3dfb8455565b7f7d382ebca3e46505071795e192d28166a3d4bd0685585591bc6c5b8df6769fd2546001600160a01b0316331480612a355750336001600160a01b037f000000000000000000000000000000000000000000000000000000000000000016145b612a815760405162461bcd60e51b815260206004820152601860248201527f416363657373436f6e74726f6c6c65642f496e76616c69640000000000000000604482015260640161090c565b6001600160a01b038116612ad75760405162461bcd60e51b815260206004820152601c60248201527f6d67764f666665722f7365745f726f757465722f3078526f7574657200000000604482015260640161090c565b807fae7e31c3220e851db9f204a28b279dfe52b973600b0a456991089c220ae7222460010180547fffffffffffffffffffffffff0000000000000000000000000000000000000000166001600160a01b039283161790556040517f81bac14f000000000000000000000000000000000000000000000000000000008152306004820152908216906381bac14f90602401600060405180830381600087803b158015612b8157600080fd5b505af1158015612b95573d6000803e3d6000fd5b50506040516001600160a01b03841681527f6de4326a8b9054d72d9dbab97d27bc4edffadee7d966f5af9cc4eafdaf8e5455925060200190505b60405180910390a150565b612be2614545565b7f7d382ebca3e46505071795e192d28166a3d4bd0685585591bc6c5b8df6769fd2546001600160a01b03163314612c5b5760405162461bcd60e51b815260206004820152601860248201527f416363657373436f6e74726f6c6c65642f496e76616c69640000000000000000604482015260640161090c565b50604080518082019091527f416b48c48a967c2245e6ba6bc6efa281932950b502fea671117e4dfd7d3dfb835481527f416b48c48a967c2245e6ba6bc6efa281932950b502fea671117e4dfd7d3dfb8454602082015290565b6000612cfb7f0000000000000000000000000000000000000000000000000000000000000000878762ffffff8811612cec5787612cf4565b612cf461281d565b8787613a4f565b9695505050505050565b7f7d382ebca3e46505071795e192d28166a3d4bd0685585591bc6c5b8df6769fd2546001600160a01b03163314612d7e5760405162461bcd60e51b815260206004820152601860248201527f416363657373436f6e74726f6c6c65642f496e76616c69640000000000000000604482015260640161090c565b6001600160a01b038116612dd45760405162461bcd60e51b815260206004820152601860248201527f416363657373436f6e74726f6c6c65642f307841646d696e0000000000000000604482015260640161090c565b7f7d382ebca3e46505071795e192d28166a3d4bd0685585591bc6c5b8df6769fd280547fffffffffffffffffffffffff0000000000000000000000000000000000000000166001600160a01b0392909216919091179055565b7fae7e31c3220e851db9f204a28b279dfe52b973600b0a456991089c220ae72225546000906001600160a01b03168015612f3b57806001600160a01b03166305684fde84612eaf3060009081527fae7e31c3220e851db9f204a28b279dfe52b973600b0a456991089c220ae7222660205260409020546001600160a01b031690565b6040517fffffffff0000000000000000000000000000000000000000000000000000000060e085901b1681526001600160a01b03928316600482015291166024820152604401602060405180830381865afa158015612f12573d6000803e3d6000fd5b505050506040513d601f19601f82011682018060405250810190612f369190614e0f565b610ac0565b826001600160a01b03166370a08231612f883060009081527fae7e31c3220e851db9f204a28b279dfe52b973600b0a456991089c220ae7222660205260409020546001600160a01b031690565b6040517fffffffff0000000000000000000000000000000000000000000000000000000060e084901b1681526001600160a01b039091166004820152602401602060405180830381865afa158015612fe4573d6000803e3d6000fd5b505050506040513d601f19601f82011682018060405250810190610ac09190614e0f565b806001600160a01b031663095ea7b361301f613113565b6040517fffffffff0000000000000000000000000000000000000000000000000000000060e084901b1681526001600160a01b0390911660048201527fffffffffffffffffffffffffffffffffffffffffffffffffffffffffffffffff60248201526044016020604051808303816000875af11580156130a3573d6000803e3d6000fd5b505050506040513d601f19601f820116820180604052508101906130c79190614bc2565b610ca65760405162461bcd60e51b815260206004820152601b60248201527f6d67764f666665722f617070726f7665526f757465722f4661696c0000000000604482015260640161090c565b7fae7e31c3220e851db9f204a28b279dfe52b973600b0a456991089c220ae72225546000906001600160a01b0316806114f55760405162461bcd60e51b815260206004820152601160248201527f6d67764f666665722f3078526f75746572000000000000000000000000000000604482015260640161090c565b7f7d382ebca3e46505071795e192d28166a3d4bd0685585591bc6c5b8df6769fd2546001600160a01b03163314806131ee5750336001600160a01b037f000000000000000000000000000000000000000000000000000000000000000016145b61323a5760405162461bcd60e51b815260206004820152601860248201527f416363657373436f6e74726f6c6c65642f496e76616c69640000000000000000604482015260640161090c565b808162ffffff161461328e5760405162461bcd60e51b815260206004820152601860248201527f6d67764f666665722f6761737265712f6f766572666c6f770000000000000000604482015260640161090c565b807fae7e31c3220e851db9f204a28b279dfe52b973600b0a456991089c220ae72224556040518181527fafef3ad374c0b972e3c793be825735801fa05cc4c67157d98d9a111b4027988d90602001612bcf565b7f7d382ebca3e46505071795e192d28166a3d4bd0685585591bc6c5b8df6769fd290565b7fae7e31c3220e851db9f204a28b279dfe52b973600b0a456991089c220ae7222490565b7f416b48c48a967c2245e6ba6bc6efa281932950b502fea671117e4dfd7d3dfb8190565b600081158061336457506001600160a01b03831630145b1561337157506001610ac0565b604080516001600160a01b038581166024830152604480830186905283518084039091018152606490920183526020820180517bffffffffffffffffffffffffffffffffffffffffffffffffffffffff167fa9059cbb0000000000000000000000000000000000000000000000000000000017905291516000928392908816916133fb9190614cf2565b6000604051808303816000865af19150503d8060008114613438576040519150601f19603f3d011682016040523d82523d6000602084013e61343d565b606091505b5091509150818015612cfb575080511580612cfb575080806020019051810190612cfb9190614bc2565b7fae7e31c3220e851db9f204a28b279dfe52b973600b0a456991089c220ae72225546001600160a01b0316156135635761349f613113565b6001600160a01b031663a01dccd8826134ec3060009081527fae7e31c3220e851db9f204a28b279dfe52b973600b0a456991089c220ae7222660205260409020546001600160a01b031690565b6040517fffffffff0000000000000000000000000000000000000000000000000000000060e085901b1681526001600160a01b0392831660048201529116602482015260440160006040518083038186803b15801561354a57600080fd5b505afa15801561355e573d6000803e3d6000fd5b505050505b610ca681613cce565b80516000036135bd5760405162461bcd60e51b815260206004820152601b60248201527f4d616e676f53746f726167652f7265766572744e6f526561736f6e0000000000604482015260640161090c565b805160208201fd5b60007f416b48c48a967c2245e6ba6bc6efa281932950b502fea671117e4dfd7d3dfb81816135f284613dee565b90506001600160a01b037f00000000000000000000000000000000000000000000000000000000000000001661362b60208601866148cd565b6001600160a01b03160361365d5780613651576136478461406c565b600283015561367d565b6000600283015561367d565b806136755761366b8461406c565b600383015561367d565b600060038301555b6000806001600160a01b037f0000000000000000000000000000000000000000000000000000000000000000167f11b1025900000000000000000000000000000000000000000000000000000000876136d461281d565b6040516024016136e5929190614fe3565b604080517fffffffffffffffffffffffffffffffffffffffffffffffffffffffffffffffe08184030181529181526020820180517bffffffffffffffffffffffffffffffffffffffffffffffffffffffff167fffffffff0000000000000000000000000000000000000000000000000000000090941693909317909252905161376e9190614cf2565b600060405180830381855af49150503d80600081146137a9576040519150601f19603f3d011682016040523d82523d6000602084013e6137ae565b606091505b5091509150816137c6576137c18161356c565b6137da565b80806020019051810190612cfb9190614bc2565b50505050919050565b60015b92915050565b6001600160a01b0381166138425760405162461bcd60e51b815260206004820152601460248201527f53696e676c65557365722f307852657365727665000000000000000000000000604482015260640161090c565b6001600160a01b0391821660009081527fae7e31c3220e851db9f204a28b279dfe52b973600b0a456991089c220ae722266020526040902080547fffffffffffffffffffffffff00000000000000000000000000000000000000001691909216179055565b6138b0816120c3565b7fae7e31c3220e851db9f204a28b279dfe52b973600b0a456991089c220ae72225546001600160a01b031615610ca6576138e981613008565b6138f1613113565b6040517f1c5a9d9c0000000000000000000000000000000000000000000000000000000081526001600160a01b0383811660048301529190911690631c5a9d9c90602401600060405180830381600087803b15801561394f57600080fd5b505af1158015613963573d6000803e3d6000fd5b5050505050565b60008061398561397d60208501856148cd565b8560006140fa565b90508381106139985760009150506137e6565b60006139a760208501856148cd565b6040517f70a082310000000000000000000000000000000000000000000000000000000081523060048201526001600160a01b0391909116906370a0823190602401602060405180830381865afa158015613a06573d6000803e3d6000fd5b505050506040513d601f19601f82011682018060405250810190613a2a9190614e0f565b905084811015613a4357613a3e8186615070565b613a46565b60005b925050506137e6565b6040517fcbf75c9a0000000000000000000000000000000000000000000000000000000081526001600160a01b038681166004830152858116602483015260009182918291908a169063cbf75c9a906044016040805180830381865afa158015613abd573d6000803e3d6000fd5b505050506040513d601f19601f82011682018060405250810190613ae19190615087565b6040517f5722647b0000000000000000000000000000000000000000000000000000000081526001600160a01b038b811660048301528a81166024830152604482018890529294509092506000918b1690635722647b90606401602060405180830381865afa158015613b58573d6000803e3d6000fd5b505050506040513d601f19601f82011682018060405250810190613b7c9190614e0f565b9050600086604085901c61ffff161115613b9f575061ffff604084901c16613ba2565b50855b600081613bb862ffffff606087901c168b614fcb565b613bc291906150ab565b613bd090633b9aca006150ab565b9050600061ffff602085901c16613bf762ffffff603087901c811690604888901c16614fcb565b613c0191906150ab565b613c0f90633b9aca006150ab565b6040517f70a082310000000000000000000000000000000000000000000000000000000081523060048201529091506000906001600160a01b038f16906370a0823190602401602060405180830381865afa158015613c72573d6000803e3d6000fd5b505050506040513d601f19601f82011682018060405250810190613c969190614e0f565b613ca09083614fcb565b905082811015613cb957613cb48184615070565b613cbc565b60005b9e9d5050505050505050505050505050565b6040517fdd62ed3e0000000000000000000000000000000000000000000000000000000081523060048201526001600160a01b037f0000000000000000000000000000000000000000000000000000000000000000811660248301526000919083169063dd62ed3e90604401602060405180830381865afa158015613d57573d6000803e3d6000fd5b505050506040513d601f19601f82011682018060405250810190613d7b9190614e0f565b11610ca65760405162461bcd60e51b815260206004820152602660248201527f4d616e67726f76654f666665722f41646d696e4d757374417070726f76654d6160448201527f6e67726f76650000000000000000000000000000000000000000000000000000606482015260840161090c565b6000613df982614225565b506000613e058361406c565b905080600003613e185750600192915050565b6000613e23846142d6565b90506001600160a01b037f000000000000000000000000000000000000000000000000000000000000000016636a4f7691613e6160208701876148cd565b613e7160408801602089016148cd565b848660c08a013560481c62ffffff1660c08b013560201c61ffff1660608c013560c01c63ffffffff16604080517fffffffff0000000000000000000000000000000000000000000000000000000060e08b901b1681526001600160a01b03988916600482015297909616602488015260448701949094526064860192909252608485015260a484015260c483015287013560e482015261010401600060405180830381600087803b158015613f2557600080fd5b505af1925050508015613f36575060015b614062573d808015613f64576040519150601f19603f3d011682016040523d82523d6000602084013e613f69565b606091505b50805160208201207fc5fc8c2459087ad4f0e957e465df485864a3b1a379c2653ffe7c554981ede670016140575760408501803590613fab90602088016148cd565b6001600160a01b0316613fc160208801886148cd565b6001600160a01b03167f736a3993b9f8b1c5603896c76376792887f376b1fe7fc981e09a16530bf1e4e07f000000000000000000000000000000000000000000000000000000000000000060405161404e91906001600160a01b039190911681527f50657273697374656e742f686f6f6b2f6f75744f6650726f766973696f6e0000602082015260400190565b60405180910390a45b506000949350505050565b5060019392505050565b60007f416b48c48a967c2245e6ba6bc6efa281932950b502fea671117e4dfd7d3dfb817f00000000000000000000000000000000000000000000000000000000000000006001600160a01b03166140c660208501856148cd565b6001600160a01b0316036140ec5780600201546140e284614443565b610ac09190614fcb565b80600301546140e284614443565b7fae7e31c3220e851db9f204a28b279dfe52b973600b0a456991089c220ae72225546000906001600160a01b031680614137576000915050610ac0565b806001600160a01b031663333dbb0d866141853060009081527fae7e31c3220e851db9f204a28b279dfe52b973600b0a456991089c220ae7222660205260409020546001600160a01b031690565b6040517fffffffff0000000000000000000000000000000000000000000000000000000060e085901b1681526001600160a01b039283166004820152911660248201526044810187905285151560648201526084016020604051808303816000875af11580156141f9573d6000803e3d6000fd5b505050506040513d601f19601f8201168201806040525081019061421d9190614e0f565b915050610ac0565b6040805160028082526060820183526000928392919060208301908036833701905050905061425760208401846148cd565b8160008151811061426a5761426a614bdf565b6001600160a01b0390921660209283029190910182015261429190604085019085016148cd565b816001815181106142a4576142a4614bdf565b60200260200101906001600160a01b031690816001600160a01b0316815250506142cd81614465565b50600192915050565b6000806142e28361406c565b9050806000036142f55750600092915050565b6000807f00000000000000000000000000000000000000000000000000000000000000006001600160a01b0316631f92a31960e01b868560405160240161433d929190614fe3565b604080517fffffffffffffffffffffffffffffffffffffffffffffffffffffffffffffffe08184030181529181526020820180517bffffffffffffffffffffffffffffffffffffffffffffffffffffffff167fffffffff000000000000000000000000000000000000000000000000000000009094169390931790925290516143c69190614cf2565b600060405180830381855af49150503d8060008114614401576040519150601f19603f3d011682016040523d82523d6000602084013e614406565b606091505b50915091508161441e576144198161356c565b61443b565b808060200190518101906144329190614e0f565b95945050505050565b505050919050565b60006137e6608083013560608401356bffffffffffffffffffffffff16615070565b7fae7e31c3220e851db9f204a28b279dfe52b973600b0a456991089c220ae72225546001600160a01b031680614499575050565b806001600160a01b031663f850a81c836144e73060009081527fae7e31c3220e851db9f204a28b279dfe52b973600b0a456991089c220ae7222660205260409020546001600160a01b031690565b6040518363ffffffff1660e01b81526004016145049291906150e8565b600060405180830381600087803b158015610c8c57600080fd5b60405180604001604052806002905b606081526020019060019003908161452d5790505090565b60405180604001604052806002906020820280368337509192915050565b6001600160a01b0381168114610ca657600080fd5b80356114f581614563565b60008060006060848603121561459857600080fd5b83356145a381614563565b925060208401356145b381614563565b929592945050506040919091013590565b60008083601f8401126145d657600080fd5b50813567ffffffffffffffff8111156145ee57600080fd5b6020830191508360208260051b850101111561460957600080fd5b9250929050565b6000806020838503121561462357600080fd5b823567ffffffffffffffff81111561463a57600080fd5b614646858286016145c4565b90969095509350505050565b7f4e487b7100000000000000000000000000000000000000000000000000000000600052604160045260246000fd5b6040805190810167ffffffffffffffff811182821017156146a4576146a4614652565b60405290565b604051601f82017fffffffffffffffffffffffffffffffffffffffffffffffffffffffffffffffe016810167ffffffffffffffff811182821017156146f1576146f1614652565b604052919050565b600061010080838503121561470d57600080fd5b6040519081019067ffffffffffffffff8211818310171561473057614730614652565b816040528335915061474182614563565b81815261475060208501614578565b602082015260408401356040820152606084013560608201526080840135608082015260a084013560a082015260c084013560c082015260e084013560e0820152809250505092915050565b8015158114610ca657600080fd5b6000602082840312156147bc57600080fd5b8135610ac08161479c565b6020808252600090606083018382018584805b600281101561484d578785037fffffffffffffffffffffffffffffffffffffffffffffffffffffffffffffffe0018452825180518087529087019087870190845b818110156148375783518352928901929189019160010161481b565b50909650505092850192918501916001016147da565b5092979650505050505050565b600061012082840312156119f657600080fd5b60008082840361016081121561488257600080fd5b61488c858561485a565b925060407ffffffffffffffffffffffffffffffffffffffffffffffffffffffffffffffee0820112156148be57600080fd5b50610120830190509250929050565b6000602082840312156148df57600080fd5b8135610ac081614563565b600080600080600080600060c0888a03121561490557600080fd5b87356149108161479c565b9650602088013595506040880135945060608801359350608088013567ffffffffffffffff8082111561494257600080fd5b818a0191508a60408301111561495757600080fd5b90935060a0890135908082111561496d57600080fd5b5061497a8a828b016145c4565b989b979a50959850939692959293505050565b600080602083850312156149a057600080fd5b823567ffffffffffffffff808211156149b857600080fd5b818501915085601f8301126149cc57600080fd5b8135818111156149db57600080fd5b8660208285010111156149ed57600080fd5b60209290920196919550909350505050565b60006101208284031215614a1257600080fd5b610ac0838361485a565b60008060408385031215614a2f57600080fd5b823591506020830135614a4181614563565b809150509250929050565b60008060008060608587031215614a6257600080fd5b843593506020850135614a748161479c565b9250604085013567ffffffffffffffff811115614a9057600080fd5b614a9c878288016145c4565b95989497509550505050565b600060208284031215614aba57600080fd5b5035919050565b60008060008060808587031215614ad757600080fd5b8435614ae281614563565b93506020850135614af281614563565b9250604085013591506060850135614b098161479c565b939692955090935050565b600080600060608486031215614b2957600080fd5b505081359360208301359350604090920135919050565b60408101818360005b6002811015614b68578151835260209283019290910190600101614b49565b50505092915050565b600080600080600060a08688031215614b8957600080fd5b8535614b9481614563565b94506020860135614ba481614563565b94979496505050506040830135926060810135926080909101359150565b600060208284031215614bd457600080fd5b8151610ac08161479c565b7f4e487b7100000000000000000000000000000000000000000000000000000000600052603260045260246000fd5b7f4e487b7100000000000000000000000000000000000000000000000000000000600052601160045260246000fd5b60007fffffffffffffffffffffffffffffffffffffffffffffffffffffffffffffffff8203614c6e57614c6e614c0e565b5060010190565b60005b83811015614c90578181015183820152602001614c78565b838111156111535750506000910152565b6020815260008251806020840152614cc0816040850160208701614c75565b601f017fffffffffffffffffffffffffffffffffffffffffffffffffffffffffffffffe0169190910160400192915050565b60008251614d04818460208701614c75565b9190910192915050565b60006020808385031215614d2157600080fd5b825167ffffffffffffffff80821115614d3957600080fd5b8185019150601f8681840112614d4e57600080fd5b614d56614681565b806040850189811115614d6857600080fd5b855b81811015614e0057805186811115614d825760008081fd5b87018581018c13614d935760008081fd5b805187811115614da557614da5614652565b8060051b614db48b82016146aa565b9182528281018b01918b8101908f841115614dd157600092508283fd5b938c01935b83851015614def5784518252938c0193908c0190614dd6565b885250505093880193508701614d6a565b50909998505050505050505050565b600060208284031215614e2157600080fd5b5051919050565b81835260007f07ffffffffffffffffffffffffffffffffffffffffffffffffffffffffffffff831115614e5a57600080fd5b8260051b8083602087013760009401602001938452509192915050565b600060e082018a1515835260208a8185015289604085015288606085015260e0608085015281829050610120850192508860005b6002811015614f5a577fffffffffffffffffffffffffffffffffffffffffffffffffffffffffffffff2087860301835281357fffffffffffffffffffffffffffffffffffffffffffffffffffffffffffffffe18c3603018112614f0d57600080fd5b8b01848101903567ffffffffffffffff811115614f2957600080fd5b8060051b3603821315614f3b57600080fd5b614f46878284614e28565b965050509183019190830190600101614eab565b5050505082810360a0840152614f71818688614e28565b9150508260c08301529998505050505050505050565b8183823760009101908152919050565b8581528415156020820152608060408201526000614fb9608083018587614e28565b90508260608301529695505050505050565b60008219821115614fde57614fde614c0e565b500190565b61014081018335614ff381614563565b6001600160a01b0316825261500a60208501614578565b6001600160a01b03811660208401525060408401356040830152606084013560608301526080840135608083015260a084013560a083015260c084013560c083015260e084013560e0830152610100808501358184015250826101208301529392505050565b60008282101561508257615082614c0e565b500390565b6000806040838503121561509a57600080fd5b505080516020909101519092909150565b6000817fffffffffffffffffffffffffffffffffffffffffffffffffffffffffffffffff04831182151516156150e3576150e3614c0e565b500290565b604080825283519082018190526000906020906060840190828701845b8281101561512a5781516001600160a01b031684529284019290840190600101615105565b5050506001600160a01b03949094169201919091525091905056fea2646970667358221220586260de320edbdb70f24231033e05a4ee95f426854704a7c1e7b7b25f3bd4b564736f6c634300080e003360806040523480156200001157600080fd5b5061c3503380620000695760405162461bcd60e51b815260206004820152601860248201527f616363657373436f6e74726f6c6c65642f307841646d696e000000000000000060448201526064015b60405180910390fd5b806200007f6200011560201b62000d6a1760201c565b80546001600160a01b0319166001600160a01b03929092169190911790555062ffffff81168114620000f45760405162461bcd60e51b815260206004820152601660248201527f526f757465722f6f76657268656164546f6f4869676800000000000000000000604482015260640162000060565b806200010a6200013960201b62000d8e1760201c565b60010155506200015d565b7f7d382ebca3e46505071795e192d28166a3d4bd0685585591bc6c5b8df6769fd290565b7ff2910982afb88211fa9894801aaf0314409ca240a0a8904897b9f5ba323ca53390565b611586806200016d6000396000f3fe608060405234801561001057600080fd5b50600436106100df5760003560e01c8063362aecb11161008c578063cf5e7bd311610066578063cf5e7bd314610209578063e9333fab1461021c578063f850a81c1461022f578063f851a4401461024257600080fd5b8063362aecb11461018b57806381bac14f146101e3578063a01dccd8146101f657600080fd5b806321754d9e116100bd57806321754d9e1461014257806326e8eda214610165578063333dbb0d1461017857600080fd5b80630417ffda146100e457806305684fde1461011a5780631c5a9d9c1461012d575b600080fd5b7ff2910982afb88211fa9894801aaf0314409ca240a0a8904897b9f5ba323ca534545b6040519081526020015b60405180910390f35b610107610128366004611282565b610289565b61014061013b3660046112bb565b610324565b005b6101556101503660046112d8565b610405565b6040519015158152602001610111565b610140610173366004611329565b6104b4565b610107610186366004611378565b61055d565b6101556101993660046112bb565b73ffffffffffffffffffffffffffffffffffffffff1660009081527ff2910982afb88211fa9894801aaf0314409ca240a0a8904897b9f5ba323ca533602052604090205460ff1690565b6101406101f13660046112bb565b6106b0565b610140610204366004611282565b610805565b6101406102173660046112bb565b610937565b61014061022a3660046112bb565b610a38565b61014061023d3660046113cb565b610bbb565b7f7d382ebca3e46505071795e192d28166a3d4bd0685585591bc6c5b8df6769fd25460405173ffffffffffffffffffffffffffffffffffffffff9091168152602001610111565b6040517f70a0823100000000000000000000000000000000000000000000000000000000815273ffffffffffffffffffffffffffffffffffffffff8281166004830152600091908416906370a0823190602401602060405180830381865afa1580156102f9573d6000803e3d6000fd5b505050506040513d601f19601f8201168201806040525081019061031d9190611451565b9392505050565b7f7d382ebca3e46505071795e192d28166a3d4bd0685585591bc6c5b8df6769fd25473ffffffffffffffffffffffffffffffffffffffff1633148061039757503360009081527ff2910982afb88211fa9894801aaf0314409ca240a0a8904897b9f5ba323ca533602052604090205460ff165b610402576040517f08c379a000000000000000000000000000000000000000000000000000000000815260206004820152601360248201527f526f757465722f756e617574686f72697a65640000000000000000000000000060448201526064015b60405180910390fd5b50565b3360009081527ff2910982afb88211fa9894801aaf0314409ca240a0a8904897b9f5ba323ca533602052604081205460ff1661049d576040517f08c379a000000000000000000000000000000000000000000000000000000000815260206004820152601360248201527f526f757465722f756e617574686f72697a65640000000000000000000000000060448201526064016103f9565b6104a985858585610db2565b90505b949350505050565b3360009081527ff2910982afb88211fa9894801aaf0314409ca240a0a8904897b9f5ba323ca533602052604090205460ff1661054c576040517f08c379a000000000000000000000000000000000000000000000000000000000815260206004820152601360248201527f526f757465722f756e617574686f72697a65640000000000000000000000000060448201526064016103f9565b61055883833384610dc0565b505050565b3360009081527ff2910982afb88211fa9894801aaf0314409ca240a0a8904897b9f5ba323ca533602052604081205460ff166105f5576040517f08c379a000000000000000000000000000000000000000000000000000000000815260206004820152601360248201527f526f757465722f756e617574686f72697a65640000000000000000000000000060448201526064016103f9565b6040517f70a0823100000000000000000000000000000000000000000000000000000000815233600482015260009073ffffffffffffffffffffffffffffffffffffffff8716906370a0823190602401602060405180830381865afa158015610662573d6000803e3d6000fd5b505050506040513d601f19601f820116820180604052508101906106869190611451565b90508381106106995760009150506104ac565b6106a68686338787610e32565b9695505050505050565b7f7d382ebca3e46505071795e192d28166a3d4bd0685585591bc6c5b8df6769fd25473ffffffffffffffffffffffffffffffffffffffff1633148061072357503360009081527ff2910982afb88211fa9894801aaf0314409ca240a0a8904897b9f5ba323ca533602052604090205460ff165b610789576040517f08c379a000000000000000000000000000000000000000000000000000000000815260206004820152601360248201527f526f757465722f756e617574686f72697a65640000000000000000000000000060448201526064016103f9565b60017ff2910982afb88211fa9894801aaf0314409ca240a0a8904897b9f5ba323ca5335b73ffffffffffffffffffffffffffffffffffffffff929092166000908152602092909252604090912080547fffffffffffffffffffffffffffffffffffffffffffffffffffffffffffffff0016911515919091179055565b6040517fdd62ed3e00000000000000000000000000000000000000000000000000000000815233600482015230602482015260009073ffffffffffffffffffffffffffffffffffffffff84169063dd62ed3e90604401602060405180830381865afa158015610878573d6000803e3d6000fd5b505050506040513d601f19601f8201168201806040525081019061089c9190611451565b11610929576040517f08c379a000000000000000000000000000000000000000000000000000000000815260206004820152602160248201527f526f757465722f4e6f74417070726f76656442794d616b6572436f6e7472616360448201527f740000000000000000000000000000000000000000000000000000000000000060648201526084016103f9565b6109338282610e59565b5050565b7f7d382ebca3e46505071795e192d28166a3d4bd0685585591bc6c5b8df6769fd25473ffffffffffffffffffffffffffffffffffffffff163314806109aa57503360009081527ff2910982afb88211fa9894801aaf0314409ca240a0a8904897b9f5ba323ca533602052604090205460ff165b610a10576040517f08c379a000000000000000000000000000000000000000000000000000000000815260206004820152601360248201527f526f757465722f756e617574686f72697a65640000000000000000000000000060448201526064016103f9565b60007ff2910982afb88211fa9894801aaf0314409ca240a0a8904897b9f5ba323ca5336107ad565b7f7d382ebca3e46505071795e192d28166a3d4bd0685585591bc6c5b8df6769fd25473ffffffffffffffffffffffffffffffffffffffff163314610ad8576040517f08c379a000000000000000000000000000000000000000000000000000000000815260206004820152601860248201527f416363657373436f6e74726f6c6c65642f496e76616c6964000000000000000060448201526064016103f9565b73ffffffffffffffffffffffffffffffffffffffff8116610b55576040517f08c379a000000000000000000000000000000000000000000000000000000000815260206004820152601860248201527f416363657373436f6e74726f6c6c65642f307841646d696e000000000000000060448201526064016103f9565b7f7d382ebca3e46505071795e192d28166a3d4bd0685585591bc6c5b8df6769fd280547fffffffffffffffffffffffff00000000000000000000000000000000000000001673ffffffffffffffffffffffffffffffffffffffff92909216919091179055565b3360009081527ff2910982afb88211fa9894801aaf0314409ca240a0a8904897b9f5ba323ca533602052604090205460ff16610c53576040517f08c379a000000000000000000000000000000000000000000000000000000000815260206004820152601360248201527f526f757465722f756e617574686f72697a65640000000000000000000000000060448201526064016103f9565b60005b82811015610d64576000848483818110610c7257610c7261146a565b9050602002016020810190610c8791906112bb565b6040517f70a0823100000000000000000000000000000000000000000000000000000000815233600482015273ffffffffffffffffffffffffffffffffffffffff91909116906370a0823190602401602060405180830381865afa158015610cf3573d6000803e3d6000fd5b505050506040513d601f19601f82011682018060405250810190610d179190611451565b90508015610d5157610d51858584818110610d3457610d3461146a565b9050602002016020810190610d4991906112bb565b843384610dc0565b5080610d5c81611499565b915050610c56565b50505050565b7f7d382ebca3e46505071795e192d28166a3d4bd0685585591bc6c5b8df6769fd290565b7ff2910982afb88211fa9894801aaf0314409ca240a0a8904897b9f5ba323ca53390565b60006104a985858585610fa0565b610dcc84838584610fa0565b610d64576040517f08c379a000000000000000000000000000000000000000000000000000000000815260206004820152601e60248201527f53696d706c65526f757465722f707573682f7472616e736665724661696c000060448201526064016103f9565b6000610e4086868686610fa0565b15610e4c575081610e50565b5060005b95945050505050565b73ffffffffffffffffffffffffffffffffffffffff8116301480610f1457506040517fdd62ed3e00000000000000000000000000000000000000000000000000000000815273ffffffffffffffffffffffffffffffffffffffff82811660048301523060248301526000919084169063dd62ed3e90604401602060405180830381865afa158015610eee573d6000803e3d6000fd5b505050506040513d601f19601f82011682018060405250810190610f129190611451565b115b610933576040517f08c379a000000000000000000000000000000000000000000000000000000000815260206004820152602160248201527f53696d706c65526f757465722f4e6f74417070726f766564427952657365727660448201527f650000000000000000000000000000000000000000000000000000000000000060648201526084016103f9565b6000811580610fda57508273ffffffffffffffffffffffffffffffffffffffff168473ffffffffffffffffffffffffffffffffffffffff16145b15610fe7575060016104ac565b3073ffffffffffffffffffffffffffffffffffffffff8516036110165761100f85848461112c565b90506104ac565b6040805173ffffffffffffffffffffffffffffffffffffffff86811660248301528581166044830152606480830186905283518084039091018152608490920183526020820180517bffffffffffffffffffffffffffffffffffffffffffffffffffffffff167f23b872dd0000000000000000000000000000000000000000000000000000000017905291516000928392908916916110b591906114f8565b6000604051808303816000865af19150503d80600081146110f2576040519150601f19603f3d011682016040523d82523d6000602084013e6110f7565b606091505b50915091508180156111215750805115806111215750808060200190518101906111219190611533565b979650505050505050565b6000811580611150575073ffffffffffffffffffffffffffffffffffffffff831630145b1561115d5750600161031d565b6040805173ffffffffffffffffffffffffffffffffffffffff8581166024830152604480830186905283518084039091018152606490920183526020820180517bffffffffffffffffffffffffffffffffffffffffffffffffffffffff167fa9059cbb0000000000000000000000000000000000000000000000000000000017905291516000928392908816916111f491906114f8565b6000604051808303816000865af19150503d8060008114611231576040519150601f19603f3d011682016040523d82523d6000602084013e611236565b606091505b50915091508180156106a65750805115806106a65750808060200190518101906106a69190611533565b73ffffffffffffffffffffffffffffffffffffffff8116811461040257600080fd5b6000806040838503121561129557600080fd5b82356112a081611260565b915060208301356112b081611260565b809150509250929050565b6000602082840312156112cd57600080fd5b813561031d81611260565b600080600080608085870312156112ee57600080fd5b84356112f981611260565b9350602085013561130981611260565b9250604085013561131981611260565b9396929550929360600135925050565b60008060006060848603121561133e57600080fd5b833561134981611260565b9250602084013561135981611260565b929592945050506040919091013590565b801515811461040257600080fd5b6000806000806080858703121561138e57600080fd5b843561139981611260565b935060208501356113a981611260565b92506040850135915060608501356113c08161136a565b939692955090935050565b6000806000604084860312156113e057600080fd5b833567ffffffffffffffff808211156113f857600080fd5b818601915086601f83011261140c57600080fd5b81358181111561141b57600080fd5b8760208260051b850101111561143057600080fd5b6020928301955093505084013561144681611260565b809150509250925092565b60006020828403121561146357600080fd5b5051919050565b7f4e487b7100000000000000000000000000000000000000000000000000000000600052603260045260246000fd5b60007fffffffffffffffffffffffffffffffffffffffffffffffffffffffffffffffff82036114f1577f4e487b7100000000000000000000000000000000000000000000000000000000600052601160045260246000fd5b5060010190565b6000825160005b8181101561151957602081860181015185830152016114ff565b81811115611528576000828501525b509190910192915050565b60006020828403121561154557600080fd5b815161031d8161136a56fea2646970667358221220a4b7e300571d3ec1e07f4b15991e34b9475d4d5825f56515c9ac7543f2696bc864736f6c634300080e00336101606040523480156200001257600080fd5b5060405162003592380380620035928339810160408190526200003591620000ab565b6001600160a01b039586166101405293851660e05291909316610100526080919091526001600160601b0391821660a0521660c05233610120526200012b565b6001600160a01b03811681146200008b57600080fd5b50565b80516001600160601b0381168114620000a657600080fd5b919050565b60008060008060008060c08789031215620000c557600080fd5b8651620000d28162000075565b6020880151909650620000e58162000075565b6040880151909550620000f88162000075565b935062000108606088016200008e565b925062000118608088016200008e565b915060a087015190509295509295509295565b60805160a05160c05160e05161010051610120516101405161324c620003466000396000818161090901528181610b1301528181610e8601528181610ffb015281816112b0015281816115370152818161196c01528181611d350152818161229e0152818161239b015281816125020152818161276a0152818161284a01526129b10152600081816101170152818161055c01526110bc01526000818161096601528181610b4f01528181610e2801528181610fc5015281816112ec015281816114d701528181611594015281816119c901528181611b4f01528181611d7101528181612252015281816123f80152818161255f015281816126f60152818161288601526129ed0152600081816101c6015281816104920152818161094501528181610b7001528181610e5001528181610f9d0152818161130d0152818161157301528181611759015281816119a801528181611d9201528181611f0001528181611fc70152818161222a015281816123d70152818161253e0152818161271e015281816128a70152612a0e01526000612acd01526000818161178701526117f60152600081816103460152818161039c0152818161066f015281816106a3015281816106d90152818161079c01528181610ca201528181610d0701528181610d720152818161122f0152818161183f015281816118f801528181611b7a01528181611c2c01528181612123015261215b015261324c6000f3fe608060405234801561001057600080fd5b50600436106100675760003560e01c80633234fdc0116100505780633234fdc0146100b5578063663d2e0c146100ca578063b61dce59146100ea57600080fd5b806311b102591461006c5780631f92a31914610094575b600080fd5b61007f61007a366004612b9c565b6100fd565b60405190151581526020015b60405180910390f35b6100a76100a2366004612b9c565b61046d565b60405190815260200161008b565b6100c86100c3366004612c2f565b610544565b005b6100dd6100d8366004612cd7565b610c77565b60405161008b9190612cf2565b6100c86100f8366004612d85565b6110a4565b60003073ffffffffffffffffffffffffffffffffffffffff7f000000000000000000000000000000000000000000000000000000000000000016146101a3576040517f08c379a000000000000000000000000000000000000000000000000000000000815260206004820152601f60248201527f4d616e676f496d706c656d656e746174696f6e2f696e76616c696443616c6c0060448201526064015b60405180910390fd5b7f416b48c48a967c2245e6ba6bc6efa281932950b502fea671117e4dfd7d3dfb817f000000000000000000000000000000000000000000000000000000000000000073ffffffffffffffffffffffffffffffffffffffff166102086020860186612de7565b73ffffffffffffffffffffffffffffffffffffffff160361031d576040808501356000908152600583016020529081205490610243826111f9565b905080156102bb5761027061026161025c600184612e4c565b611253565b60008860a00135600089611287565b6008830154610280600183612e4c565b116102af576040517f5ac608c951fb4eeda3d62e6a244a32d697d994fdcdf2ff4ca1ff1b5dde368a0d90600090a15b60019350505050610467565b6040517f08c379a000000000000000000000000000000000000000000000000000000000815260206004820152601360248201527f4d616e676f2f4269644f75744f6652616e676500000000000000000000000000604482015260640161019a565b604080850135600090815260048301602052908120549061033d826111f9565b905061036a60017f0000000000000000000000000000000000000000000000000000000000000000612e4c565b8110156104055761039161038261025c836001612e63565b60008860a0013560008961150e565b60088301546103c0907f0000000000000000000000000000000000000000000000000000000000000000612e4c565b6103cb826001612e63565b106102af576040517f3c8e6c8b637216f202e5b335b54c0abfc6c1b6952a8a2511de149d2f3e5e7e9290600090a160019350505050610467565b6040517f08c379a000000000000000000000000000000000000000000000000000000000815260206004820152601360248201527f4d616e676f2f41736b4f75744f6652616e676500000000000000000000000000604482015260640161019a565b92915050565b60007f416b48c48a967c2245e6ba6bc6efa281932950b502fea671117e4dfd7d3dfb817f000000000000000000000000000000000000000000000000000000000000000073ffffffffffffffffffffffffffffffffffffffff166104d46020860186612de7565b73ffffffffffffffffffffffffffffffffffffffff160361051e57604080850135600090815260058301602052205461051561050f826111f9565b85611783565b92505050610467565b604080850135600090815260048301602052205461051561053e826111f9565b856117d9565b3073ffffffffffffffffffffffffffffffffffffffff7f000000000000000000000000000000000000000000000000000000000000000016146105e3576040517f08c379a000000000000000000000000000000000000000000000000000000000815260206004820152601f60248201527f4d616e676f496d706c656d656e746174696f6e2f696e76616c696443616c6c00604482015260640161019a565b7f416b48c48a967c2245e6ba6bc6efa281932950b502fea671117e4dfd7d3dfb8186861161066d576040517f08c379a000000000000000000000000000000000000000000000000000000000815260206004820152601d60248201527f4d616e676f2f696e697469616c697a652f696e76616c6964536c696365000000604482015260640161019a565b7f00000000000000000000000000000000000000000000000000000000000000008314801561069a575060015b80156106d057507f00000000000000000000000000000000000000000000000000000000000000006106cc8680612eaa565b9050145b801561070957507f00000000000000000000000000000000000000000000000000000000000000006107056020870187612eaa565b9050145b610795576040517f08c379a000000000000000000000000000000000000000000000000000000000815260206004820152602360248201527f4d616e676f2f696e697469616c697a652f696e76616c696441727261794c656e60448201527f6774680000000000000000000000000000000000000000000000000000000000606482015260840161019a565b6107c060017f0000000000000000000000000000000000000000000000000000000000000000612e4c565b8810610828576040517f08c379a000000000000000000000000000000000000000000000000000000000815260206004820152601e60248201527f4d616e676f2f696e697469616c697a652f4e6f536c6f74466f7241736b730000604482015260640161019a565b865b86811015610c6b57600061083d82611253565b9050898211610a525760006108528880612eaa565b8481811061086257610862612e7b565b905060200201359050600081116108b657600083116108825760006108b8565b8360010161089660018561025c9190612e4c565b815481106108a6576108a6612e7b565b90600052602060002001546108b8565b805b90506108df828d8989878181106108d1576108d1612e7b565b905060200201358489611287565b60008460000183815481106108f6576108f6612e7b565b90600052602060002001541115610a4c577f000000000000000000000000000000000000000000000000000000000000000073ffffffffffffffffffffffffffffffffffffffff1663ad97db1b7f00000000000000000000000000000000000000000000000000000000000000007f000000000000000000000000000000000000000000000000000000000000000087600001868154811061099a5761099a612e7b565b60009182526020822001546040517fffffffff0000000000000000000000000000000000000000000000000000000060e087901b16815273ffffffffffffffffffffffffffffffffffffffff9485166004820152939092166024840152604483019190915260648201526084016020604051808303816000875af1158015610a26573d6000803e3d6000fd5b505050506040513d601f19601f82011682018060405250810190610a4a9190612f12565b505b50610c58565b6000610a616020890189612eaa565b84818110610a7157610a71612e7b565b90506020020135905060008111610ac05760008311610a91576000610ac2565b83610aa061025c600186612e4c565b81548110610ab057610ab0612e7b565b9060005260206000200154610ac2565b805b9050610ae9828d898987818110610adb57610adb612e7b565b90506020020135848961150e565b6000846001018381548110610b0057610b00612e7b565b90600052602060002001541115610c56577f000000000000000000000000000000000000000000000000000000000000000073ffffffffffffffffffffffffffffffffffffffff1663ad97db1b7f00000000000000000000000000000000000000000000000000000000000000007f0000000000000000000000000000000000000000000000000000000000000000876001018681548110610ba457610ba4612e7b565b60009182526020822001546040517fffffffff0000000000000000000000000000000000000000000000000000000060e087901b16815273ffffffffffffffffffffffffffffffffffffffff9485166004820152939092166024840152604483019190915260648201526084016020604051808303816000875af1158015610c30573d6000803e3d6000fd5b505050506040513d601f19601f82011682018060405250810190610c549190612f12565b505b505b5080610c6381612f2b565b91505061082a565b50505050505050505050565b610c7f612b75565b7f416b48c48a967c2245e6ba6bc6efa281932950b502fea671117e4dfd7d3dfb817f000000000000000000000000000000000000000000000000000000000000000067ffffffffffffffff811115610cd957610cd9612f63565b604051908082528060200260200182016040528015610d02578160200160208202803683370190505b5082527f000000000000000000000000000000000000000000000000000000000000000067ffffffffffffffff811115610d3e57610d3e612f63565b604051908082528060200260200182016040528015610d67578160200160208202803683370190505b50602083015260005b7f000000000000000000000000000000000000000000000000000000000000000081101561109d57600082610da483611253565b81548110610db457610db4612e7b565b90600052602060002001549050600083600101610dd084611253565b81548110610de057610de0612e7b565b60009182526020822001546040517f68c13d6b00000000000000000000000000000000000000000000000000000000815273ffffffffffffffffffffffffffffffffffffffff7f0000000000000000000000000000000000000000000000000000000000000000811660048301527f00000000000000000000000000000000000000000000000000000000000000008116602483015260448201839052919350610f03917f000000000000000000000000000000000000000000000000000000000000000016906368c13d6b906064015b602060405180830381865afa158015610ece573d6000803e3d6000fd5b505050506040513d601f19601f82011682018060405250810190610ef29190612f12565b6bffffffffffffffffffffffff1690565b1180610f0d575085155b610f18576000610f41565b83600101610f2584611253565b81548110610f3557610f35612e7b565b90600052602060002001545b8551805185908110610f5557610f55612e7b565b60209081029190910101526040517f68c13d6b00000000000000000000000000000000000000000000000000000000815273ffffffffffffffffffffffffffffffffffffffff7f0000000000000000000000000000000000000000000000000000000000000000811660048301527f0000000000000000000000000000000000000000000000000000000000000000811660248301526044820184905260009161102a917f000000000000000000000000000000000000000000000000000000000000000016906368c13d6b90606401610eb1565b1180611034575085155b61103f576000611065565b8361104984611253565b8154811061105957611059612e7b565b90600052602060002001545b602086015180518590811061107c5761107c612e7b565b6020026020010181815250505050808061109590612f2b565b915050610d70565b5050919050565b3073ffffffffffffffffffffffffffffffffffffffff7f00000000000000000000000000000000000000000000000000000000000000001614611143576040517f08c379a000000000000000000000000000000000000000000000000000000000815260206004820152601f60248201527f4d616e676f496d706c656d656e746174696f6e2f696e76616c696443616c6c00604482015260640161019a565b60008512611151578461115a565b61115a85612f92565b82146111c2576040517f08c379a000000000000000000000000000000000000000000000000000000000815260206004820181905260248201527f4d616e676f2f7365745f73686966742f6e6f74456e6f756768416d6f756e7473604482015260640161019a565b60008512156111e5576111e06111d786612f92565b8585858561181c565b6111f2565b6111f28585858585611c09565b5050505050565b60006104677f416b48c48a967c2245e6ba6bc6efa281932950b502fea671117e4dfd7d3dfb816006015461122d9084612fca565b7f0000000000000000000000000000000000000000000000000000000000000000611f61565b60006104677f416b48c48a967c2245e6ba6bc6efa281932950b502fea671117e4dfd7d3dfb816006015461122d908461303e565b60007f416b48c48a967c2245e6ba6bc6efa281932950b502fea671117e4dfd7d3dfb81905060007f000000000000000000000000000000000000000000000000000000000000000073ffffffffffffffffffffffffffffffffffffffff166368c13d6b7f00000000000000000000000000000000000000000000000000000000000000007f0000000000000000000000000000000000000000000000000000000000000000856001018b8154811061134157611341612e7b565b6000918252602090912001546040517fffffffff0000000000000000000000000000000000000000000000000000000060e086901b16815273ffffffffffffffffffffffffffffffffffffffff93841660048201529290911660248301526044820152606401602060405180830381865afa1580156113c4573d6000803e3d6000fd5b505050506040513d601f19601f820116820180604052508101906113e89190612f12565b905060006113f5886111f9565b905060008761142a57600384015461141b6bffffffffffffffffffffffff851689612e63565b6114259190612e63565b61142c565b865b9050600061143a83836117d9565b905060006bffffffffffffffffffffffff85166000036114ae5787156114615750866114d1565b831561149d578560010161147b60018661025c9190612e4c565b8154811061148b5761148b612e7b565b906000526020600020015490506114d1565b6114a78560e01c90565b90506114d1565b856001018b815481106114c3576114c3612e7b565b906000526020600020015490505b6115018b7f000000000000000000000000000000000000000000000000000000000000000084868b8f1587611f8f565b5050505050505050505050565b60007f416b48c48a967c2245e6ba6bc6efa281932950b502fea671117e4dfd7d3dfb81905060007f000000000000000000000000000000000000000000000000000000000000000073ffffffffffffffffffffffffffffffffffffffff166368c13d6b7f00000000000000000000000000000000000000000000000000000000000000007f0000000000000000000000000000000000000000000000000000000000000000856000018b815481106115c8576115c8612e7b565b6000918252602090912001546040517fffffffff0000000000000000000000000000000000000000000000000000000060e086901b16815273ffffffffffffffffffffffffffffffffffffffff93841660048201529290911660248301526044820152606401602060405180830381865afa15801561164b573d6000803e3d6000fd5b505050506040513d601f19601f8201168201806040525081019061166f9190612f12565b9050600061167c886111f9565b90506000876116b15760028401546116a26bffffffffffffffffffffffff851689612e63565b6116ac9190612e63565b6116b3565b865b905060006116c18383611783565b905060006bffffffffffffffffffffffff85166000036117305787156116e8575086611753565b831561171f57856116fd61025c600187612e4c565b8154811061170d5761170d612e7b565b90600052602060002001549050611753565b6117298560e01c90565b9050611753565b856000018b8154811061174557611745612e7b565b906000526020600020015490505b6115018b7f000000000000000000000000000000000000000000000000000000000000000084868b8f1587611f8f565b60007f00000000000000000000000000000000000000000000000000000000000000006bffffffffffffffffffffffff16826117be856120db565b6117c891906130b2565b6117d2919061311e565b9392505050565b60006117e4836120db565b6117c86bffffffffffffffffffffffff7f000000000000000000000000000000000000000000000000000000000000000016846130b2565b7f416b48c48a967c2245e6ba6bc6efa281932950b502fea671117e4dfd7d3dfb817f000000000000000000000000000000000000000000000000000000000000000086106118ec576040517f08c379a000000000000000000000000000000000000000000000000000000000815260206004820152602160248201527f4d616e676f2f73686966742f4e656761746976655368696674546f6f4c61726760448201527f6500000000000000000000000000000000000000000000000000000000000000606482015260840161019a565b600061191c61025c60017f0000000000000000000000000000000000000000000000000000000000000000612e4c565b9050868260060160008282546119329190612fca565b90915550600090505b87811015611bff5782600001828154811061195857611958612e7b565b9060005260206000200154600014611aaf577f000000000000000000000000000000000000000000000000000000000000000073ffffffffffffffffffffffffffffffffffffffff1663ad97db1b7f00000000000000000000000000000000000000000000000000000000000000007f00000000000000000000000000000000000000000000000000000000000000008660000186815481106119fd576119fd612e7b565b60009182526020822001546040517fffffffff0000000000000000000000000000000000000000000000000000000060e087901b16815273ffffffffffffffffffffffffffffffffffffffff9485166004820152939092166024840152604483019190915260648201526084016020604051808303816000875af1158015611a89573d6000803e3d6000fd5b505050506040513d601f19601f82011682018060405250810190611aad9190612f12565b505b6000611aba836111f9565b90506000808915611b0957888885818110611ad757611ad7612e7b565b905060200201359050611b02838a8a87818110611af657611af6612e7b565b90506020020135611783565b9150611b49565b611b2b838a8a87818110611b1f57611b1f612e7b565b905060200201356117d9565b9050888885818110611b3f57611b3f612e7b565b9050602002013591505b611bdf857f000000000000000000000000000000000000000000000000000000000000000083858b6000611b9e60017f0000000000000000000000000000000000000000000000000000000000000000612e4c565b8a10611bab576000611f8f565b8c600101611bbf8b600161025c9190612e63565b81548110611bcf57611bcf612e7b565b9060005260206000200154611f8f565b83611be981612f2b565b945050611bf585612113565b945050505061193b565b5050505050505050565b7f416b48c48a967c2245e6ba6bc6efa281932950b502fea671117e4dfd7d3dfb817f00000000000000000000000000000000000000000000000000000000000000008610611cd9576040517f08c379a000000000000000000000000000000000000000000000000000000000815260206004820152602160248201527f4d616e676f2f73686966742f706f7369746976655368696674546f6f4c61726760448201527f6500000000000000000000000000000000000000000000000000000000000000606482015260840161019a565b6000611ce56000611253565b905086826006016000828254611cfb919061303e565b90915550600090505b87811015611bff57826001018281548110611d2157611d21612e7b565b9060005260206000200154600014611e78577f000000000000000000000000000000000000000000000000000000000000000073ffffffffffffffffffffffffffffffffffffffff1663ad97db1b7f00000000000000000000000000000000000000000000000000000000000000007f0000000000000000000000000000000000000000000000000000000000000000866001018681548110611dc657611dc6612e7b565b60009182526020822001546040517fffffffff0000000000000000000000000000000000000000000000000000000060e087901b16815273ffffffffffffffffffffffffffffffffffffffff9485166004820152939092166024840152604483019190915260648201526084016020604051808303816000875af1158015611e52573d6000803e3d6000fd5b505050506040513d601f19601f82011682018060405250810190611e769190612f12565b505b6000611e83836111f9565b90506000808915611ec657888885818110611ea057611ea0612e7b565b905060200201359150611ebf838a8a87818110611af657611af6612e7b565b9050611efa565b888885818110611ed857611ed8612e7b565b905060200201359050611ef7838a8a87818110611b1f57611b1f612e7b565b91505b611f41857f000000000000000000000000000000000000000000000000000000000000000083858b6000808a11611f32576000611f8f565b8c611bbf61025c60018d612e4c565b83611f4b81612f2b565b945050611f5785612157565b9450505050611d04565b6000808312611f7b57611f748284613132565b9050610467565b611f858284613146565b611f74908361303e565b7f416b48c48a967c2245e6ba6bc6efa281932950b502fea671117e4dfd7d3dfb8173ffffffffffffffffffffffffffffffffffffffff7f00000000000000000000000000000000000000000000000000000000000000008116908816036120635760006120216040518060a001604052808b81526020018981526020018881526020018781526020018581525061218f565b9050801561204f57836120435780826002015461203e9190612e63565b612045565b805b600283015561205d565b831561205d57600060028301555b50611bff565b60006120946040518060a001604052808b81526020018981526020018881526020018781526020018581525061263a565b905080156120c257836120b6578082600301546120b19190612e63565b6120b8565b805b60038301556120d0565b83156120d057600060038301555b505050505050505050565b60006104677f416b48c48a967c2245e6ba6bc6efa281932950b502fea671117e4dfd7d3dfb81600701548361210e612a46565b612b5e565b600080821161214c5761214760017f0000000000000000000000000000000000000000000000000000000000000000612e4c565b610467565b610467600183612e4c565b60007f0000000000000000000000000000000000000000000000000000000000000000612185836001612e63565b6104679190613132565b80517f416b48c48a967c2245e6ba6bc6efa281932950b502fea671117e4dfd7d3dfb818054600092829181106121c7576121c7612e7b565b90600052602060002001546000036123995760208301516040808501516060860151608087015192517f49f6d2dc00000000000000000000000000000000000000000000000000000000815273ffffffffffffffffffffffffffffffffffffffff7f0000000000000000000000000000000000000000000000000000000000000000811660048301527f000000000000000000000000000000000000000000000000000000000000000081166024830152604482019590955260648101929092526084820152600060a482015260c48101919091527f0000000000000000000000000000000000000000000000000000000000000000909116906349f6d2dc9060e4016020604051808303816000875af1925050508015612323575060408051601f3d9081017fffffffffffffffffffffffffffffffffffffffffffffffffffffffffffffffe016820190925261232091810190612f12565b60015b6123305750506040015190565b8351825482918491811061234657612346612e7b565b6000918252602082200191909155845183549091600585019185908490811061237157612371612e7b565b9060005260206000200154815260200190815260200160002081905550600092505050919050565b7f000000000000000000000000000000000000000000000000000000000000000073ffffffffffffffffffffffffffffffffffffffff16636a4f76917f00000000000000000000000000000000000000000000000000000000000000007f000000000000000000000000000000000000000000000000000000000000000086602001518760400151886060015160008a60800151896000018c600001518154811061244657612446612e7b565b6000918252602090912001546040517fffffffff0000000000000000000000000000000000000000000000000000000060e08b901b16815273ffffffffffffffffffffffffffffffffffffffff988916600482015297909616602488015260448701949094526064860192909252608485015260a484015260c483015260e482015261010401600060405180830381600087803b1580156124e657600080fd5b505af19250505080156124f7575060015b6126315760006126027f000000000000000000000000000000000000000000000000000000000000000073ffffffffffffffffffffffffffffffffffffffff166368c13d6b7f00000000000000000000000000000000000000000000000000000000000000007f00000000000000000000000000000000000000000000000000000000000000008660000189600001518154811061259757612597612e7b565b6000918252602090912001546040517fffffffff0000000000000000000000000000000000000000000000000000000060e086901b16815273ffffffffffffffffffffffffffffffffffffffff93841660048201529290911660248301526044820152606401610eb1565b905080846040015111612619578360400151612629565b8084604001516126299190612e4c565b949350505050565b50600092915050565b80517f416b48c48a967c2245e6ba6bc6efa281932950b502fea671117e4dfd7d3dfb8280546000927f416b48c48a967c2245e6ba6bc6efa281932950b502fea671117e4dfd7d3dfb819291811061269357612693612e7b565b90600052602060002001546000036128485760208301516040808501516060860151608087015192517f49f6d2dc00000000000000000000000000000000000000000000000000000000815273ffffffffffffffffffffffffffffffffffffffff7f0000000000000000000000000000000000000000000000000000000000000000811660048301527f000000000000000000000000000000000000000000000000000000000000000081166024830152604482019590955260648101929092526084820152600060a482015260c48101919091527f0000000000000000000000000000000000000000000000000000000000000000909116906349f6d2dc9060e4016020604051808303816000875af19250505080156127ef575060408051601f3d9081017fffffffffffffffffffffffffffffffffffffffffffffffffffffffffffffffe01682019092526127ec91810190612f12565b60015b6127fc5750506040015190565b808260010185600001518154811061281657612816612e7b565b906000526020600020018190555083600001518260040160008460010187600001518154811061237157612371612e7b565b7f000000000000000000000000000000000000000000000000000000000000000073ffffffffffffffffffffffffffffffffffffffff16636a4f76917f00000000000000000000000000000000000000000000000000000000000000007f000000000000000000000000000000000000000000000000000000000000000086602001518760400151886060015160008a60800151896001018c60000151815481106128f5576128f5612e7b565b6000918252602090912001546040517fffffffff0000000000000000000000000000000000000000000000000000000060e08b901b16815273ffffffffffffffffffffffffffffffffffffffff988916600482015297909616602488015260448701949094526064860192909252608485015260a484015260c483015260e482015261010401600060405180830381600087803b15801561299557600080fd5b505af19250505080156129a6575060015b6126315760006126027f000000000000000000000000000000000000000000000000000000000000000073ffffffffffffffffffffffffffffffffffffffff166368c13d6b7f00000000000000000000000000000000000000000000000000000000000000007f00000000000000000000000000000000000000000000000000000000000000008660010189600001518154811061259757612597612e7b565b7f416b48c48a967c2245e6ba6bc6efa281932950b502fea671117e4dfd7d3dfb88547f416b48c48a967c2245e6ba6bc6efa281932950b502fea671117e4dfd7d3dfb87546000917f416b48c48a967c2245e6ba6bc6efa281932950b502fea671117e4dfd7d3dfb81918391612aba9161315a565b612af2906bffffffffffffffffffffffff7f00000000000000000000000000000000000000000000000000000000000000001661303e565b905060008113610467576040517f08c379a000000000000000000000000000000000000000000000000000000000815260206004820152601e60248201527f4d616e676f2f71756f74655f6d696e2f5368696674556e646572666c6f770000604482015260640161019a565b600081612b6b84866130b2565b6126299190612e63565b60405180604001604052806002905b6060815260200190600190039081612b845790505090565b600080828403610140811215612bb157600080fd5b61012080821215612bc157600080fd5b9395938601359450505050565b80358015158114612bde57600080fd5b919050565b60008083601f840112612bf557600080fd5b50813567ffffffffffffffff811115612c0d57600080fd5b6020830191508360208260051b8501011115612c2857600080fd5b9250929050565b60008060008060008060008060e0898b031215612c4b57600080fd5b612c5489612bce565b9750602089013596506040890135955060608901359450608089013567ffffffffffffffff80821115612c8657600080fd5b818b0191508b604083011115612c9b57600080fd5b90945060a08a01359080821115612cb157600080fd5b50612cbe8b828c01612be3565b999c989b50969995989497949560c00135949350505050565b600060208284031215612ce957600080fd5b6117d282612bce565b6020808252600090606083018382018584805b6002811015612d78578785037fffffffffffffffffffffffffffffffffffffffffffffffffffffffffffffffe0018452825180518087529087019087870190845b81811015612d6257835183529289019291890191600101612d46565b5090965050509285019291850191600101612d05565b5092979650505050505050565b600080600080600060808688031215612d9d57600080fd5b85359450612dad60208701612bce565b9350604086013567ffffffffffffffff811115612dc957600080fd5b612dd588828901612be3565b96999598509660600135949350505050565b600060208284031215612df957600080fd5b813573ffffffffffffffffffffffffffffffffffffffff811681146117d257600080fd5b7f4e487b7100000000000000000000000000000000000000000000000000000000600052601160045260246000fd5b600082821015612e5e57612e5e612e1d565b500390565b60008219821115612e7657612e76612e1d565b500190565b7f4e487b7100000000000000000000000000000000000000000000000000000000600052603260045260246000fd5b60008083357fffffffffffffffffffffffffffffffffffffffffffffffffffffffffffffffe1843603018112612edf57600080fd5b83018035915067ffffffffffffffff821115612efa57600080fd5b6020019150600581901b3603821315612c2857600080fd5b600060208284031215612f2457600080fd5b5051919050565b60007fffffffffffffffffffffffffffffffffffffffffffffffffffffffffffffffff8203612f5c57612f5c612e1d565b5060010190565b7f4e487b7100000000000000000000000000000000000000000000000000000000600052604160045260246000fd5b60007f80000000000000000000000000000000000000000000000000000000000000008203612fc357612fc3612e1d565b5060000390565b6000808312837f80000000000000000000000000000000000000000000000000000000000000000183128115161561300457613004612e1d565b837f7fffffffffffffffffffffffffffffffffffffffffffffffffffffffffffffff01831381161561303857613038612e1d565b50500390565b6000808212827f7fffffffffffffffffffffffffffffffffffffffffffffffffffffffffffffff0384138115161561307857613078612e1d565b827f80000000000000000000000000000000000000000000000000000000000000000384128116156130ac576130ac612e1d565b50500190565b6000817fffffffffffffffffffffffffffffffffffffffffffffffffffffffffffffffff04831182151516156130ea576130ea612e1d565b500290565b7f4e487b7100000000000000000000000000000000000000000000000000000000600052601260045260246000fd5b60008261312d5761312d6130ef565b500490565b600082613141576131416130ef565b500690565b600082613155576131556130ef565b500790565b60007f7fffffffffffffffffffffffffffffffffffffffffffffffffffffffffffffff60008413600084138583048511828216161561319b5761319b612e1d565b7f800000000000000000000000000000000000000000000000000000000000000060008712868205881281841616156131d6576131d6612e1d565b600087129250878205871284841616156131f2576131f2612e1d565b8785058712818416161561320857613208612e1d565b50505092909302939250505056fea26469706673582212203587a0fbfaa69b5ee64f5513ad73a8a971e42948ab704e335956df817615028664736f6c634300080e0033416363657373436f6e74726f6c6c65642f496e76616c69640000000000000000",
  "devdoc": {
    "kind": "dev",
    "methods": {
      "checkList(address[])": {
        "details": "throws with a reason when there is a missing approval"
      },
      "tokenBalance(address)": {
        "returns": {
          "_0": "the  `token` amount that `msg.sender` has in the contract's reserve"
        }
      },
      "withdrawFromMangrove(uint256,address)": {
        "details": "for multi user strats, the contract provision account on Mangrove is pooled amongst offer owners so admin should only call this function to recover WEIs (e.g. that were erroneously transferred to Mangrove using `MGV.fund()`) This contract's balance on Mangrove may contain deprovisioned WEIs after an offer has failed (complement between provision and the bounty that was sent to taker) those free WEIs can be retrieved by offer owners by calling `retractOffer` with the `deprovsion` flag. Not by calling this function which is admin only."
      }
    },
    "version": 1
  },
  "userdoc": {
    "events": {
      "LogIncident(address,address,address,uint256,bytes32)": {
        "notice": "Events "
      }
    },
    "kind": "user",
    "methods": {
      "activate(address[])": {
        "notice": "gas efficient external call to activate several tokens in a single transaction"
      },
      "approveMangrove(address)": {
        "notice": "`this` contract needs to approve Mangrove to let it perform outbound token transfer at the end of the `makerExecute` function NB if anyone can call this function someone could reset it to 0 for griefing"
      },
      "checkList(address[])": {
        "notice": "verifies that this contract's current state is ready to be used by msg.sender to post offers on Mangrove"
      },
      "delta()": {
        "notice": "Setters and getters "
      },
      "set_router(address)": {
        "notice": "`this` contract must be admin of router to do this "
      },
      "set_shift(int256,bool,uint256[])": {
        "notice": "New positions 0<= i < s are initialized with amount[i] in base tokens if `withBase`. In quote tokens otherwise"
      },
      "withdrawFromMangrove(uint256,address)": {
        "notice": "withdraws ETH from the provision account on Mangrove and sends collected WEIs to `receiver`"
      }
    },
    "notice": "In case of a partial fill of an offer at position i, the offer residual is reposted (see `Persistent` strat class)",
    "version": 1
  },
  "storageLayout": {
    "storage": [],
    "types": null
  }
}