{
  "address": "0xF1E3f817fF9CaAF7083a58C50a3c4a05f80dE565",
  "abi": [
    {
      "inputs": [
        {
          "internalType": "address",
          "name": "admin",
          "type": "address"
        },
        {
          "internalType": "string",
          "name": "name",
          "type": "string"
        },
        {
          "internalType": "string",
          "name": "symbol",
          "type": "string"
        },
        {
          "internalType": "uint8",
          "name": "decimals",
          "type": "uint8"
        }
      ],
      "stateMutability": "nonpayable",
      "type": "constructor"
    },
    {
      "anonymous": false,
      "inputs": [
        {
          "indexed": true,
          "internalType": "address",
          "name": "owner",
          "type": "address"
        },
        {
          "indexed": true,
          "internalType": "address",
          "name": "spender",
          "type": "address"
        },
        {
          "indexed": false,
          "internalType": "uint256",
          "name": "value",
          "type": "uint256"
        }
      ],
      "name": "Approval",
      "type": "event"
    },
    {
      "anonymous": false,
      "inputs": [
        {
          "indexed": true,
          "internalType": "address",
          "name": "from",
          "type": "address"
        },
        {
          "indexed": true,
          "internalType": "address",
          "name": "to",
          "type": "address"
        },
        {
          "indexed": false,
          "internalType": "uint256",
          "name": "value",
          "type": "uint256"
        }
      ],
      "name": "Transfer",
      "type": "event"
    },
    {
      "inputs": [
        {
          "internalType": "address",
          "name": "addr",
          "type": "address"
        }
      ],
      "name": "_blacklists",
      "outputs": [],
      "stateMutability": "nonpayable",
      "type": "function"
    },
    {
      "inputs": [
        {
          "internalType": "address",
          "name": "addr",
          "type": "address"
        }
      ],
      "name": "_whitelists",
      "outputs": [],
      "stateMutability": "nonpayable",
      "type": "function"
    },
    {
      "inputs": [
        {
          "internalType": "address",
          "name": "admin",
          "type": "address"
        }
      ],
      "name": "addAdmin",
      "outputs": [],
      "stateMutability": "nonpayable",
      "type": "function"
    },
    {
      "inputs": [
        {
          "internalType": "address",
          "name": "owner",
          "type": "address"
        },
        {
          "internalType": "address",
          "name": "spender",
          "type": "address"
        }
      ],
      "name": "allowance",
      "outputs": [
        {
          "internalType": "uint256",
          "name": "",
          "type": "uint256"
        }
      ],
      "stateMutability": "view",
      "type": "function"
    },
    {
      "inputs": [
        {
          "internalType": "address",
          "name": "spender",
          "type": "address"
        },
        {
          "internalType": "uint256",
          "name": "amount",
          "type": "uint256"
        }
      ],
      "name": "approve",
      "outputs": [
        {
          "internalType": "bool",
          "name": "",
          "type": "bool"
        }
      ],
      "stateMutability": "nonpayable",
      "type": "function"
    },
    {
      "inputs": [
        {
          "internalType": "address",
          "name": "account",
          "type": "address"
        }
      ],
      "name": "balanceOf",
      "outputs": [
        {
          "internalType": "uint256",
          "name": "",
          "type": "uint256"
        }
      ],
      "stateMutability": "view",
      "type": "function"
    },
    {
      "inputs": [
        {
          "internalType": "address",
          "name": "account",
          "type": "address"
        }
      ],
      "name": "blacklists",
      "outputs": [],
      "stateMutability": "nonpayable",
      "type": "function"
    },
    {
      "inputs": [
        {
          "internalType": "address",
          "name": "account",
          "type": "address"
        },
        {
          "internalType": "uint256",
          "name": "amount",
          "type": "uint256"
        }
      ],
      "name": "burn",
      "outputs": [],
      "stateMutability": "nonpayable",
      "type": "function"
    },
    {
      "inputs": [],
      "name": "decimals",
      "outputs": [
        {
          "internalType": "uint8",
          "name": "",
          "type": "uint8"
        }
      ],
      "stateMutability": "view",
      "type": "function"
    },
    {
      "inputs": [
        {
          "internalType": "address",
          "name": "spender",
          "type": "address"
        },
        {
          "internalType": "uint256",
          "name": "subtractedValue",
          "type": "uint256"
        }
      ],
      "name": "decreaseAllowance",
      "outputs": [
        {
          "internalType": "bool",
          "name": "",
          "type": "bool"
        }
      ],
      "stateMutability": "nonpayable",
      "type": "function"
    },
    {
      "inputs": [],
      "name": "deposit",
      "outputs": [],
      "stateMutability": "payable",
      "type": "function"
    },
    {
      "inputs": [
        {
          "internalType": "address",
          "name": "spender",
          "type": "address"
        },
        {
          "internalType": "uint256",
          "name": "addedValue",
          "type": "uint256"
        }
      ],
      "name": "increaseAllowance",
      "outputs": [
        {
          "internalType": "bool",
          "name": "",
          "type": "bool"
        }
      ],
      "stateMutability": "nonpayable",
      "type": "function"
    },
    {
      "inputs": [
        {
          "internalType": "uint256",
          "name": "amount",
          "type": "uint256"
        }
      ],
      "name": "mint",
      "outputs": [],
      "stateMutability": "nonpayable",
      "type": "function"
    },
    {
      "inputs": [
        {
          "internalType": "address",
          "name": "to",
          "type": "address"
        },
        {
          "internalType": "uint256",
          "name": "amount",
          "type": "uint256"
        }
      ],
      "name": "mintAdmin",
      "outputs": [],
      "stateMutability": "nonpayable",
      "type": "function"
    },
    {
      "inputs": [],
      "name": "name",
      "outputs": [
        {
          "internalType": "string",
          "name": "",
          "type": "string"
        }
      ],
      "stateMutability": "view",
      "type": "function"
    },
    {
      "inputs": [
        {
          "internalType": "uint256",
          "name": "n",
          "type": "uint256"
        },
        {
          "internalType": "uint256",
          "name": "e",
          "type": "uint256"
        }
      ],
      "name": "pow",
      "outputs": [
        {
          "internalType": "uint256",
          "name": "",
          "type": "uint256"
        }
      ],
      "stateMutability": "pure",
      "type": "function"
    },
    {
      "inputs": [],
      "name": "symbol",
      "outputs": [
        {
          "internalType": "string",
          "name": "",
          "type": "string"
        }
      ],
      "stateMutability": "view",
      "type": "function"
    },
    {
      "inputs": [],
      "name": "totalSupply",
      "outputs": [
        {
          "internalType": "uint256",
          "name": "",
          "type": "uint256"
        }
      ],
      "stateMutability": "view",
      "type": "function"
    },
    {
      "inputs": [
        {
          "internalType": "address",
          "name": "recipient",
          "type": "address"
        },
        {
          "internalType": "uint256",
          "name": "amount",
          "type": "uint256"
        }
      ],
      "name": "transfer",
      "outputs": [
        {
          "internalType": "bool",
          "name": "",
          "type": "bool"
        }
      ],
      "stateMutability": "nonpayable",
      "type": "function"
    },
    {
      "inputs": [
        {
          "internalType": "address",
          "name": "sender",
          "type": "address"
        },
        {
          "internalType": "address",
          "name": "recipient",
          "type": "address"
        },
        {
          "internalType": "uint256",
          "name": "amount",
          "type": "uint256"
        }
      ],
      "name": "transferFrom",
      "outputs": [
        {
          "internalType": "bool",
          "name": "",
          "type": "bool"
        }
      ],
      "stateMutability": "nonpayable",
      "type": "function"
    },
    {
      "inputs": [
        {
          "internalType": "address",
          "name": "account",
          "type": "address"
        }
      ],
      "name": "whitelists",
      "outputs": [],
      "stateMutability": "nonpayable",
      "type": "function"
    },
    {
      "inputs": [
        {
          "internalType": "uint256",
          "name": "",
          "type": "uint256"
        }
      ],
      "name": "withdraw",
      "outputs": [],
      "stateMutability": "nonpayable",
      "type": "function"
    }
  ],
  "transactionHash": "0xf29a073f23d5b92ca5d26e48a36b842411f132fd44aa9b30285a8c6b566f3860",
  "args": [
    "0x47897EE61498D02B18794601Ed3A71896A1Ff894",
    "MGV_ETH",
    "MGV_ETH",
    18
  ],
  "solcInputHash": "62d0698c458ba5dffd2736e5dfc9ed45",
  "bytecode": "0x60806040523480156200001157600080fd5b5060405162001ea738038062001ea7833981810160405260808110156200003757600080fd5b8151602083018051604051929492938301929190846401000000008211156200005f57600080fd5b9083019060208201858111156200007557600080fd5b82516401000000008111828201881017156200009057600080fd5b82525081516020918201929091019080838360005b83811015620000bf578181015183820152602001620000a5565b50505050905090810190601f168015620000ed5780820380516001836020036101000a031916815260200191505b50604052602001805160405193929190846401000000008211156200011157600080fd5b9083019060208201858111156200012757600080fd5b82516401000000008111828201881017156200014257600080fd5b82525081516020918201929091019080838360005b838110156200017157818101518382015260200162000157565b50505050905090810190601f1680156200019f5780820380516001836020036101000a031916815260200191505b5060405260209081015185519093508592508491849184918491620001cb91600491908501906200022c565b508051620001e19060059060208401906200022c565b50506006805460ff9390931660ff199384166012178416179055506001600160a01b039096166000908152600760205260409020805490961660011790955550620002d89350505050565b828054600181600116156101000203166002900490600052602060002090601f016020900481019282620002645760008555620002af565b82601f106200027f57805160ff1916838001178555620002af565b82800160010185558215620002af579182015b82811115620002af57825182559160200191906001019062000292565b50620002bd929150620002c1565b5090565b5b80821115620002bd5760008155600101620002c2565b611bbf80620002e86000396000f3fe6080604052600436106101755760003560e01c806339ae9c33116100cb578063a0712d681161007f578063c3a7199911610059578063c3a7199914610633578063d0e30db014610679578063dd62ed3e1461068157610175565b8063a0712d681461057d578063a457c2d7146105a7578063a9059cbb146105ed57610175565b806370a08231116100b057806370a08231146104e257806395d89b41146105225780639dc29fac1461053757610175565b806339ae9c331461046257806370480275146104a257610175565b806323b872dd1161012d578063313ce56711610107578063313ce567146103b157806338d04201146103dc578063395093511461041c57610175565b806323b872dd146103075780632e1a7d4d146103575780632e4c697f1461038157610175565b806316c021291161015e57806316c021291461025e57806318160ddd146102a05780631e7be210146102c757610175565b806306fdde031461017a578063095ea7b314610204575b600080fd5b34801561018657600080fd5b5061018f6106c9565b6040805160208082528351818301528351919283929083019185019080838360005b838110156101c95781810151838201526020016101b1565b50505050905090810190601f1680156101f65780820380516001836020036101000a031916815260200191505b509250505060405180910390f35b34801561021057600080fd5b5061024a6004803603604081101561022757600080fd5b5073ffffffffffffffffffffffffffffffffffffffff813516906020013561077d565b604080519115158252519081900360200190f35b34801561026a57600080fd5b5061029e6004803603602081101561028157600080fd5b503573ffffffffffffffffffffffffffffffffffffffff1661086e565b005b3480156102ac57600080fd5b506102b5610882565b60408051918252519081900360200190f35b3480156102d357600080fd5b5061029e600480360360208110156102ea57600080fd5b503573ffffffffffffffffffffffffffffffffffffffff16610888565b34801561031357600080fd5b5061024a6004803603606081101561032a57600080fd5b5073ffffffffffffffffffffffffffffffffffffffff813581169160208101359091169060400135610899565b34801561036357600080fd5b5061029e6004803603602081101561037a57600080fd5b503561087f565b34801561038d57600080fd5b506102b5600480360360408110156103a457600080fd5b5080359060200135610ae4565b3480156103bd57600080fd5b506103c6610b50565b6040805160ff9092168252519081900360200190f35b3480156103e857600080fd5b5061029e600480360360208110156103ff57600080fd5b503573ffffffffffffffffffffffffffffffffffffffff16610b59565b34801561042857600080fd5b5061024a6004803603604081101561043f57600080fd5b5073ffffffffffffffffffffffffffffffffffffffff8135169060200135610ba8565b34801561046e57600080fd5b5061029e6004803603602081101561048557600080fd5b503573ffffffffffffffffffffffffffffffffffffffff16610cd6565b3480156104ae57600080fd5b5061029e600480360360208110156104c557600080fd5b503573ffffffffffffffffffffffffffffffffffffffff16610d22565b3480156104ee57600080fd5b506102b56004803603602081101561050557600080fd5b503573ffffffffffffffffffffffffffffffffffffffff16610d79565b34801561052e57600080fd5b5061018f610da1565b34801561054357600080fd5b5061029e6004803603604081101561055a57600080fd5b5073ffffffffffffffffffffffffffffffffffffffff8135169060200135610e20565b34801561058957600080fd5b5061029e600480360360208110156105a057600080fd5b5035610e36565b3480156105b357600080fd5b5061024a600480360360408110156105ca57600080fd5b5073ffffffffffffffffffffffffffffffffffffffff8135169060200135610ec1565b3480156105f957600080fd5b5061024a6004803603604081101561061057600080fd5b5073ffffffffffffffffffffffffffffffffffffffff8135169060200135610f3f565b34801561063f57600080fd5b5061029e6004803603604081101561065657600080fd5b5073ffffffffffffffffffffffffffffffffffffffff8135169060200135611026565b61029e611038565b34801561068d57600080fd5b506102b5600480360360408110156106a457600080fd5b5073ffffffffffffffffffffffffffffffffffffffff8135811691602001351661103a565b60048054604080516020601f60027fffffffffffffffffffffffffffffffffffffffffffffffffffffffffffffffff6101006001881615020190951694909404938401819004810282018101909252828152606093909290918301828280156107735780601f1061074857610100808354040283529160200191610773565b820191906000526020600020905b81548152906001019060200180831161075657829003601f168201915b5050505050905090565b73ffffffffffffffffffffffffffffffffffffffff8216600090815260208190526040812054839060ff161580156107e757506000806107bb611072565b73ffffffffffffffffffffffffffffffffffffffff16815260208101919091526040016000205460ff16155b61085257604080517f08c379a000000000000000000000000000000000000000000000000000000000815260206004820152601360248201527f4552433230424c2f426c61636b6c697374656400000000000000000000000000604482015290519081900360640190fd5b61086461085d611072565b8585611076565b5060019392505050565b6108766111bd565b61087f81610b59565b50565b60035490565b6108906111bd565b61087f81610cd6565b73ffffffffffffffffffffffffffffffffffffffff8316600090815260208190526040812054849060ff1615801561090357506000806108d7611072565b73ffffffffffffffffffffffffffffffffffffffff16815260208101919091526040016000205460ff16155b61096e57604080517f08c379a000000000000000000000000000000000000000000000000000000000815260206004820152601360248201527f4552433230424c2f426c61636b6c697374656400000000000000000000000000604482015290519081900360640190fd5b73ffffffffffffffffffffffffffffffffffffffff8416600090815260208190526040902054849060ff161580156109d857506000806109ac611072565b73ffffffffffffffffffffffffffffffffffffffff16815260208101919091526040016000205460ff16155b610a4357604080517f08c379a000000000000000000000000000000000000000000000000000000000815260206004820152601360248201527f4552433230424c2f426c61636b6c697374656400000000000000000000000000604482015290519081900360640190fd5b610a4e868686611225565b610ad886610a5a611072565b610ad387604051806060016040528060288152602001611ad36028913973ffffffffffffffffffffffffffffffffffffffff8c16600090815260026020526040812090610aa5611072565b73ffffffffffffffffffffffffffffffffffffffff16815260208101919091526040016000205491906113f7565b611076565b50600195945050505050565b600081610af357506001610b4a565b8160011415610b03575081610b4a565b6000610b1984610b148560026114a8565b610ae4565b9050610b2581806114ea565b9050610b3283600261155d565b60011415610b4757610b4481856114ea565b90505b90505b92915050565b60065460ff1690565b73ffffffffffffffffffffffffffffffffffffffff16600090815260208190526040902080547fffffffffffffffffffffffffffffffffffffffffffffffffffffffffffffff00166001179055565b73ffffffffffffffffffffffffffffffffffffffff8216600090815260208190526040812054839060ff16158015610c125750600080610be6611072565b73ffffffffffffffffffffffffffffffffffffffff16815260208101919091526040016000205460ff16155b610c7d57604080517f08c379a000000000000000000000000000000000000000000000000000000000815260206004820152601360248201527f4552433230424c2f426c61636b6c697374656400000000000000000000000000604482015290519081900360640190fd5b610864610c88611072565b85610ad38660026000610c99611072565b73ffffffffffffffffffffffffffffffffffffffff908116825260208083019390935260409182016000908120918d16815292529020549061159f565b73ffffffffffffffffffffffffffffffffffffffff16600090815260208190526040902080547fffffffffffffffffffffffffffffffffffffffffffffffffffffffffffffff00169055565b610d2a6111bd565b73ffffffffffffffffffffffffffffffffffffffff16600090815260076020526040902080547fffffffffffffffffffffffffffffffffffffffffffffffffffffffffffffff00166001179055565b73ffffffffffffffffffffffffffffffffffffffff1660009081526001602052604090205490565b60058054604080516020601f60027fffffffffffffffffffffffffffffffffffffffffffffffffffffffffffffffff6101006001881615020190951694909404938401819004810282018101909252828152606093909290918301828280156107735780601f1061074857610100808354040283529160200191610773565b610e286111bd565b610e328282611613565b5050565b6103e8610e58610e51600a610e49610b50565b60ff16610ae4565b82906114ea565b821115610eb0576040517f08c379a000000000000000000000000000000000000000000000000000000000815260040180806020018281038252602d815260200180611a85602d913960400191505060405180910390fd5b610e32610ebb611072565b8361175d565b6000610f36610ece611072565b84610ad385604051806060016040528060258152602001611b656025913960026000610ef8611072565b73ffffffffffffffffffffffffffffffffffffffff908116825260208083019390935260409182016000908120918d168152925290205491906113f7565b50600192915050565b73ffffffffffffffffffffffffffffffffffffffff8216600090815260208190526040812054839060ff16158015610fa95750600080610f7d611072565b73ffffffffffffffffffffffffffffffffffffffff16815260208101919091526040016000205460ff16155b61101457604080517f08c379a000000000000000000000000000000000000000000000000000000000815260206004820152601360248201527f4552433230424c2f426c61636b6c697374656400000000000000000000000000604482015290519081900360640190fd5b61086461101f611072565b8585611225565b61102e6111bd565b610e32828261175d565b565b73ffffffffffffffffffffffffffffffffffffffff918216600090815260026020908152604080832093909416825291909152205490565b3390565b73ffffffffffffffffffffffffffffffffffffffff83166110e2576040517f08c379a0000000000000000000000000000000000000000000000000000000008152600401808060200182810382526024815260200180611b416024913960400191505060405180910390fd5b73ffffffffffffffffffffffffffffffffffffffff821661114e576040517f08c379a0000000000000000000000000000000000000000000000000000000008152600401808060200182810382526022815260200180611a186022913960400191505060405180910390fd5b73ffffffffffffffffffffffffffffffffffffffff808416600081815260026020908152604080832094871680845294825291829020859055815185815291517f8c5be1e5ebec7d5bd14f71427d1e84f3dd0314c0f7b2291e5b200ac8c7c3b9259281900390910190a3505050565b3360009081526007602052604090205460ff16611038576040517f08c379a0000000000000000000000000000000000000000000000000000000008152600401808060200182810382526025815260200180611a606025913960400191505060405180910390fd5b73ffffffffffffffffffffffffffffffffffffffff8316611291576040517f08c379a0000000000000000000000000000000000000000000000000000000008152600401808060200182810382526025815260200180611b1c6025913960400191505060405180910390fd5b73ffffffffffffffffffffffffffffffffffffffff82166112fd576040517f08c379a00000000000000000000000000000000000000000000000000000000081526004018080602001828103825260238152602001806119d36023913960400191505060405180910390fd5b611308838383611890565b61135281604051806060016040528060268152602001611a3a6026913973ffffffffffffffffffffffffffffffffffffffff861660009081526001602052604090205491906113f7565b73ffffffffffffffffffffffffffffffffffffffff808516600090815260016020526040808220939093559084168152205461138e908261159f565b73ffffffffffffffffffffffffffffffffffffffff80841660008181526001602090815260409182902094909455805185815290519193928716927fddf252ad1be2c89b69c2b068fc378daa952ba7f163c4a11628f55a4df523b3ef92918290030190a3505050565b600081848411156114a0576040517f08c379a00000000000000000000000000000000000000000000000000000000081526004018080602001828103825283818151815260200191508051906020019080838360005b8381101561146557818101518382015260200161144d565b50505050905090810190601f1680156114925780820380516001836020036101000a031916815260200191505b509250505060405180910390fd5b505050900390565b6000610b4783836040518060400160405280601a81526020017f536166654d6174683a206469766973696f6e206279207a65726f000000000000815250611895565b6000826114f957506000610b4a565b8282028284828161150657fe5b0414610b47576040517f08c379a0000000000000000000000000000000000000000000000000000000008152600401808060200182810382526021815260200180611ab26021913960400191505060405180910390fd5b6000610b4783836040518060400160405280601881526020017f536166654d6174683a206d6f64756c6f206279207a65726f0000000000000000815250611914565b600082820183811015610b4757604080517f08c379a000000000000000000000000000000000000000000000000000000000815260206004820152601b60248201527f536166654d6174683a206164646974696f6e206f766572666c6f770000000000604482015290519081900360640190fd5b73ffffffffffffffffffffffffffffffffffffffff821661167f576040517f08c379a0000000000000000000000000000000000000000000000000000000008152600401808060200182810382526021815260200180611afb6021913960400191505060405180910390fd5b61168b82600083611890565b6116d5816040518060600160405280602281526020016119f66022913973ffffffffffffffffffffffffffffffffffffffff851660009081526001602052604090205491906113f7565b73ffffffffffffffffffffffffffffffffffffffff83166000908152600160205260409020556003546117089082611990565b60035560408051828152905160009173ffffffffffffffffffffffffffffffffffffffff8516917fddf252ad1be2c89b69c2b068fc378daa952ba7f163c4a11628f55a4df523b3ef9181900360200190a35050565b73ffffffffffffffffffffffffffffffffffffffff82166117df57604080517f08c379a000000000000000000000000000000000000000000000000000000000815260206004820152601f60248201527f45524332303a206d696e7420746f20746865207a65726f206164647265737300604482015290519081900360640190fd5b6117eb60008383611890565b6003546117f8908261159f565b60035573ffffffffffffffffffffffffffffffffffffffff821660009081526001602052604090205461182b908261159f565b73ffffffffffffffffffffffffffffffffffffffff831660008181526001602090815260408083209490945583518581529351929391927fddf252ad1be2c89b69c2b068fc378daa952ba7f163c4a11628f55a4df523b3ef9281900390910190a35050565b505050565b600081836118fe576040517f08c379a000000000000000000000000000000000000000000000000000000000815260206004820181815283516024840152835190928392604490910191908501908083836000831561146557818101518382015260200161144d565b50600083858161190a57fe5b0495945050505050565b6000818361197d576040517f08c379a000000000000000000000000000000000000000000000000000000000815260206004820181815283516024840152835190928392604490910191908501908083836000831561146557818101518382015260200161144d565b5082848161198757fe5b06949350505050565b6000610b4783836040518060400160405280601e81526020017f536166654d6174683a207375627472616374696f6e206f766572666c6f7700008152506113f756fe45524332303a207472616e7366657220746f20746865207a65726f206164647265737345524332303a206275726e20616d6f756e7420657863656564732062616c616e636545524332303a20617070726f766520746f20746865207a65726f206164647265737345524332303a207472616e7366657220616d6f756e7420657863656564732062616c616e63654d696e7461626c654552433230424c57697468446563696d616c732f61646d696e4f6e6c794d696e7461626c654552433230424c57697468446563696d616c732f6d696e744c696d69744578636565646564536166654d6174683a206d756c7469706c69636174696f6e206f766572666c6f7745524332303a207472616e7366657220616d6f756e74206578636565647320616c6c6f77616e636545524332303a206275726e2066726f6d20746865207a65726f206164647265737345524332303a207472616e736665722066726f6d20746865207a65726f206164647265737345524332303a20617070726f76652066726f6d20746865207a65726f206164647265737345524332303a2064656372656173656420616c6c6f77616e63652062656c6f77207a65726fa2646970667358221220cb0c77da80ead0a4ff9acc33b3eafd6f85c68501fea667a53912281fb055fee664736f6c63430007060033",
  "devdoc": {
    "kind": "dev",
    "methods": {
      "allowance(address,address)": {
        "details": "See {IERC20-allowance}."
      },
      "approve(address,uint256)": {
        "details": "See {IERC20-approve}. Requirements: - `spender` cannot be the zero address."
      },
      "balanceOf(address)": {
        "details": "See {IERC20-balanceOf}."
      },
      "decimals()": {
        "details": "Returns the number of decimals used to get its user representation. For example, if `decimals` equals `2`, a balance of `505` tokens should be displayed to a user as `5,05` (`505 / 10 ** 2`). Tokens usually opt for a value of 18, imitating the relationship between Ether and Wei. This is the value {ERC20} uses, unless {_setupDecimals} is called. NOTE: This information is only used for _display_ purposes: it in no way affects any of the arithmetic of the contract, including {IERC20-balanceOf} and {IERC20-transfer}."
      },
      "decreaseAllowance(address,uint256)": {
        "details": "Atomically decreases the allowance granted to `spender` by the caller. This is an alternative to {approve} that can be used as a mitigation for problems described in {IERC20-approve}. Emits an {Approval} event indicating the updated allowance. Requirements: - `spender` cannot be the zero address. - `spender` must have allowance for the caller of at least `subtractedValue`."
      },
      "increaseAllowance(address,uint256)": {
        "details": "Atomically increases the allowance granted to `spender` by the caller. This is an alternative to {approve} that can be used as a mitigation for problems described in {IERC20-approve}. Emits an {Approval} event indicating the updated allowance. Requirements: - `spender` cannot be the zero address."
      },
      "name()": {
        "details": "Returns the name of the token."
      },
      "symbol()": {
        "details": "Returns the symbol of the token, usually a shorter version of the name."
      },
      "totalSupply()": {
        "details": "See {IERC20-totalSupply}."
      },
      "transfer(address,uint256)": {
        "details": "See {IERC20-transfer}. Requirements: - `recipient` cannot be the zero address. - the caller must have a balance of at least `amount`."
      },
      "transferFrom(address,address,uint256)": {
        "details": "See {IERC20-transferFrom}. Emits an {Approval} event indicating the updated allowance. This is not required by the EIP. See the note at the beginning of {ERC20}. Requirements: - `sender` and `recipient` cannot be the zero address. - `sender` must have a balance of at least `amount`. - the caller must have allowance for ``sender``'s tokens of at least `amount`."
      }
    },
    "version": 1
  },
  "userdoc": {
    "kind": "user",
    "methods": {
      "deposit()": {
        "notice": "for wETH contract"
      }
    },
    "version": 1
  },
  "storageLayout": {
    "storage": [
      {
        "astId": 20389,
        "contract": "cache/solpp-generated-contracts/Tests/MintableERC20BLWithDecimals.sol:MintableERC20BLWithDecimals",
        "label": "_blacklisted",
        "offset": 0,
        "slot": "0",
        "type": "t_mapping(t_address,t_bool)"
      },
      {
        "astId": 20393,
        "contract": "cache/solpp-generated-contracts/Tests/MintableERC20BLWithDecimals.sol:MintableERC20BLWithDecimals",
        "label": "_balances",
        "offset": 0,
        "slot": "1",
        "type": "t_mapping(t_address,t_uint256)"
      },
      {
        "astId": 20399,
        "contract": "cache/solpp-generated-contracts/Tests/MintableERC20BLWithDecimals.sol:MintableERC20BLWithDecimals",
        "label": "_allowances",
        "offset": 0,
        "slot": "2",
        "type": "t_mapping(t_address,t_mapping(t_address,t_uint256))"
      },
      {
        "astId": 20401,
        "contract": "cache/solpp-generated-contracts/Tests/MintableERC20BLWithDecimals.sol:MintableERC20BLWithDecimals",
        "label": "_totalSupply",
        "offset": 0,
        "slot": "3",
        "type": "t_uint256"
      },
      {
        "astId": 20403,
        "contract": "cache/solpp-generated-contracts/Tests/MintableERC20BLWithDecimals.sol:MintableERC20BLWithDecimals",
        "label": "_name",
        "offset": 0,
        "slot": "4",
        "type": "t_string_storage"
      },
      {
        "astId": 20405,
        "contract": "cache/solpp-generated-contracts/Tests/MintableERC20BLWithDecimals.sol:MintableERC20BLWithDecimals",
        "label": "_symbol",
        "offset": 0,
        "slot": "5",
        "type": "t_string_storage"
      },
      {
        "astId": 20407,
        "contract": "cache/solpp-generated-contracts/Tests/MintableERC20BLWithDecimals.sol:MintableERC20BLWithDecimals",
        "label": "_decimals",
        "offset": 0,
        "slot": "6",
        "type": "t_uint8"
      },
      {
        "astId": 40095,
        "contract": "cache/solpp-generated-contracts/Tests/MintableERC20BLWithDecimals.sol:MintableERC20BLWithDecimals",
        "label": "admins",
        "offset": 0,
        "slot": "7",
        "type": "t_mapping(t_address,t_bool)"
      }
    ],
    "types": {
      "t_address": {
        "encoding": "inplace",
        "label": "address",
        "numberOfBytes": "20"
      },
      "t_bool": {
        "encoding": "inplace",
        "label": "bool",
        "numberOfBytes": "1"
      },
      "t_mapping(t_address,t_bool)": {
        "encoding": "mapping",
        "key": "t_address",
        "label": "mapping(address => bool)",
        "numberOfBytes": "32",
        "value": "t_bool"
      },
      "t_mapping(t_address,t_mapping(t_address,t_uint256))": {
        "encoding": "mapping",
        "key": "t_address",
        "label": "mapping(address => mapping(address => uint256))",
        "numberOfBytes": "32",
        "value": "t_mapping(t_address,t_uint256)"
      },
      "t_mapping(t_address,t_uint256)": {
        "encoding": "mapping",
        "key": "t_address",
        "label": "mapping(address => uint256)",
        "numberOfBytes": "32",
        "value": "t_uint256"
      },
      "t_string_storage": {
        "encoding": "bytes",
        "label": "string",
        "numberOfBytes": "32"
      },
      "t_uint256": {
        "encoding": "inplace",
        "label": "uint256",
        "numberOfBytes": "32"
      },
      "t_uint8": {
        "encoding": "inplace",
        "label": "uint8",
        "numberOfBytes": "1"
      }
    }
  }
}