{
  "address": "0x5a0Aa1142f5754785B2Fea670481B93d836b9e82",
  "abi": [
    {
      "inputs": [
        {
          "internalType": "address",
          "name": "_MGV",
          "type": "address"
        }
      ],
      "stateMutability": "nonpayable",
      "type": "constructor"
    },
    {
      "inputs": [
        {
          "internalType": "address",
          "name": "outbound_tkn",
          "type": "address"
        },
        {
          "internalType": "address",
          "name": "inbound_tkn",
          "type": "address"
        },
        {
          "internalType": "uint256[4][]",
          "name": "targets",
          "type": "uint256[4][]"
        },
        {
          "internalType": "bool",
          "name": "fillWants",
          "type": "bool"
        }
      ],
      "name": "collect",
      "outputs": [
        {
          "internalType": "uint256",
          "name": "bal",
          "type": "uint256"
        }
      ],
      "stateMutability": "nonpayable",
      "type": "function"
    },
    {
      "stateMutability": "payable",
      "type": "receive"
    }
  ],
  "transactionHash": "0xe67105fd9dd45c304830aae5a87c7c61e8fca2cd2098ccc91bc71059369b5a91",
  "args": [
    "0xF15A2ada64A9C3C14ca11359c8F1d22B063DB2AD"
  ],
  "solcInputHash": "6a8c849353361e42bc11b83bc926d57b",
  "bytecode": "0x60a060405234801561001057600080fd5b5060405161045f38038061045f83398101604081905261002f91610044565b60601b6001600160601b031916608052610072565b600060208284031215610055578081fd5b81516001600160a01b038116811461006b578182fd5b9392505050565b60805160601c6103d161008e60003980606952506103d16000f3fe6080604052600436106100225760003560e01c8063d6607cfb1461002e57610029565b3661002957005b600080fd5b34801561003a57600080fd5b5061004e610049366004610202565b610064565b60405161005b9190610392565b60405180910390f35b6000807f000000000000000000000000000000000000000000000000000000000000000073ffffffffffffffffffffffffffffffffffffffff1663b2b120578888888888336040518763ffffffff1660e01b81526004016100ca969594939291906102dd565b606060405180830381600087803b1580156100e457600080fd5b505af11580156100f8573d6000803e3d6000fd5b505050506040513d601f19601f8201168201806040525081019061011c91906102ad565b5050905080600014610163576040517f08c379a000000000000000000000000000000000000000000000000000000000815260040161015a9061035b565b60405180910390fd5b4791503373ffffffffffffffffffffffffffffffffffffffff168260405161018a906102da565b60006040518083038185875af1925050503d80600081146101c7576040519150601f19603f3d011682016040523d82523d6000602084013e6101cc565b606091505b5050505095945050505050565b803573ffffffffffffffffffffffffffffffffffffffff811681146101fd57600080fd5b919050565b600080600080600060808688031215610219578081fd5b610222866101d9565b9450610230602087016101d9565b9350604086013567ffffffffffffffff8082111561024c578283fd5b818801915088601f83011261025f578283fd5b81358181111561026d578384fd5b896020608083028501011115610281578384fd5b6020830195508094505050506060860135801515811461029f578182fd5b809150509295509295909350565b6000806000606084860312156102c1578283fd5b8351925060208401519150604084015190509250925092565b90565b73ffffffffffffffffffffffffffffffffffffffff8781168252868116602083015260a0604083018190528201859052600090869060c08401835b8881101561033a57608080858437918201858152939091019290600101610318565b50951515606085015293909316608090920191909152509095945050505050565b6020808252601c908201527f6d6776436c65616e65722f616e4f666665724469644e6f744661696c00000000604082015260600190565b9081526020019056fea26469706673582212209ce03e1eaa6247741487e565990e41de509ea5652a971d3b8cd82c513338503f64736f6c63430007060033",
  "devdoc": {
    "kind": "dev",
    "methods": {},
    "version": 1
  },
  "userdoc": {
    "kind": "user",
    "methods": {},
    "version": 1
  },
  "storageLayout": {
    "storage": [],
    "types": null
  }
}