{
  "address": "0xad53eB62d210DeeB30854e1b73dD4Ee88E612cc9",
  "abi": [
    {
      "inputs": [
        {
          "internalType": "address",
          "name": "_MGV",
          "type": "address"
        }
      ],
      "stateMutability": "nonpayable",
      "type": "constructor"
    },
    {
      "inputs": [
        {
          "internalType": "address",
          "name": "outbound_tkn",
          "type": "address"
        },
        {
          "internalType": "address",
          "name": "inbound_tkn",
          "type": "address"
        },
        {
          "internalType": "uint256[4][]",
          "name": "targets",
          "type": "uint256[4][]"
        },
        {
          "internalType": "bool",
          "name": "fillWants",
          "type": "bool"
        }
      ],
      "name": "collect",
      "outputs": [
        {
          "internalType": "uint256",
          "name": "bal",
          "type": "uint256"
        }
      ],
      "stateMutability": "nonpayable",
      "type": "function"
    },
    {
      "stateMutability": "payable",
      "type": "receive"
    }
  ],
  "transactionHash": "0x6571f61cf0227fbfd554890efbc68b3a09ca3932a29f3b1c90318c556a41c13e",
  "args": [
    "0xE44FfC50ED6673d6A1C385B76152E1551a6c14a3"
  ],
  "solcInputHash": "90d9139ff0702dcfb0f19c0e6dfd1568",
  "bytecode": "0x60a060405234801561001057600080fd5b5060405161046838038061046883398101604081905261002f91610044565b60601b6001600160601b031916608052610072565b600060208284031215610055578081fd5b81516001600160a01b038116811461006b578182fd5b9392505050565b60805160601c6103da61008e60003980606952506103da6000f3fe6080604052600436106100225760003560e01c8063d6607cfb1461002e57610029565b3661002957005b600080fd5b34801561003a57600080fd5b5061004e610049366004610203565b610064565b60405161005b919061039b565b60405180910390f35b6000807f000000000000000000000000000000000000000000000000000000000000000073ffffffffffffffffffffffffffffffffffffffff1663b2b120578888888888336040518763ffffffff1660e01b81526004016100ca969594939291906102e6565b608060405180830381600087803b1580156100e457600080fd5b505af11580156100f8573d6000803e3d6000fd5b505050506040513d601f19601f8201168201806040525081019061011c91906102ae565b505050905080600014610164576040517f08c379a000000000000000000000000000000000000000000000000000000000815260040161015b90610364565b60405180910390fd5b4791503373ffffffffffffffffffffffffffffffffffffffff168260405161018b906102e3565b60006040518083038185875af1925050503d80600081146101c8576040519150601f19603f3d011682016040523d82523d6000602084013e6101cd565b606091505b5050505095945050505050565b803573ffffffffffffffffffffffffffffffffffffffff811681146101fe57600080fd5b919050565b60008060008060006080868803121561021a578081fd5b610223866101da565b9450610231602087016101da565b9350604086013567ffffffffffffffff8082111561024d578283fd5b818801915088601f830112610260578283fd5b81358181111561026e578384fd5b896020608083028501011115610282578384fd5b602083019550809450505050606086013580151581146102a0578182fd5b809150509295509295909350565b600080600080608085870312156102c3578384fd5b505082516020840151604085015160609095015191969095509092509050565b90565b73ffffffffffffffffffffffffffffffffffffffff8781168252868116602083015260a0604083018190528201859052600090869060c08401835b8881101561034357608080858437918201858152939091019290600101610321565b50951515606085015293909316608090920191909152509095945050505050565b6020808252601c908201527f6d6776436c65616e65722f616e4f666665724469644e6f744661696c00000000604082015260600190565b9081526020019056fea26469706673582212208671610d016a562ba8580ce36b5938f36c12eddefcb9f7c3fb1ef0e19ef36ef164736f6c63430007060033",
  "devdoc": {
    "kind": "dev",
    "methods": {},
    "version": 1
  },
  "userdoc": {
    "kind": "user",
    "methods": {},
    "version": 1
  },
  "storageLayout": {
    "storage": [],
    "types": null
  }
}