{
  "address": "0xc74E3658C46B669E54449b0b371Fab6E070d3380",
  "abi": [
    {
      "inputs": [
        {
          "internalType": "address",
          "name": "_governance",
          "type": "address"
        },
        {
          "internalType": "address",
          "name": "_initialMutator",
          "type": "address"
        }
      ],
      "stateMutability": "nonpayable",
      "type": "constructor"
    },
    {
      "inputs": [
        {
          "components": [
            {
              "internalType": "address",
              "name": "outbound_tkn",
              "type": "address"
            },
            {
              "internalType": "address",
              "name": "inbound_tkn",
              "type": "address"
            },
            {
              "internalType": "uint256",
              "name": "offerId",
              "type": "uint256"
            },
            {
              "internalType": "bytes32",
              "name": "offer",
              "type": "bytes32"
            },
            {
              "internalType": "uint256",
              "name": "wants",
              "type": "uint256"
            },
            {
              "internalType": "uint256",
              "name": "gives",
              "type": "uint256"
            },
            {
              "internalType": "bytes32",
              "name": "offerDetail",
              "type": "bytes32"
            },
            {
              "internalType": "bytes32",
              "name": "global",
              "type": "bytes32"
            },
            {
              "internalType": "bytes32",
              "name": "local",
              "type": "bytes32"
            }
          ],
          "internalType": "struct MgvLib.SingleOrder",
          "name": "sor",
          "type": "tuple"
        },
        {
          "internalType": "address",
          "name": "taker",
          "type": "address"
        }
      ],
      "name": "notifyFail",
      "outputs": [],
      "stateMutability": "nonpayable",
      "type": "function"
    },
    {
      "inputs": [
        {
          "components": [
            {
              "internalType": "address",
              "name": "outbound_tkn",
              "type": "address"
            },
            {
              "internalType": "address",
              "name": "inbound_tkn",
              "type": "address"
            },
            {
              "internalType": "uint256",
              "name": "offerId",
              "type": "uint256"
            },
            {
              "internalType": "bytes32",
              "name": "offer",
              "type": "bytes32"
            },
            {
              "internalType": "uint256",
              "name": "wants",
              "type": "uint256"
            },
            {
              "internalType": "uint256",
              "name": "gives",
              "type": "uint256"
            },
            {
              "internalType": "bytes32",
              "name": "offerDetail",
              "type": "bytes32"
            },
            {
              "internalType": "bytes32",
              "name": "global",
              "type": "bytes32"
            },
            {
              "internalType": "bytes32",
              "name": "local",
              "type": "bytes32"
            }
          ],
          "internalType": "struct MgvLib.SingleOrder",
          "name": "sor",
          "type": "tuple"
        },
        {
          "internalType": "address",
          "name": "taker",
          "type": "address"
        }
      ],
      "name": "notifySuccess",
      "outputs": [],
      "stateMutability": "nonpayable",
      "type": "function"
    },
    {
      "inputs": [
        {
          "internalType": "address",
          "name": "outbound_tkn",
          "type": "address"
        },
        {
          "internalType": "address",
          "name": "inbound_tkn",
          "type": "address"
        }
      ],
      "name": "read",
      "outputs": [
        {
          "internalType": "uint256",
          "name": "gasprice",
          "type": "uint256"
        },
        {
          "internalType": "uint256",
          "name": "density",
          "type": "uint256"
        }
      ],
      "stateMutability": "view",
      "type": "function"
    },
    {
      "inputs": [
        {
          "internalType": "uint256",
          "name": "gasPrice",
          "type": "uint256"
        }
      ],
      "name": "setGasPrice",
      "outputs": [],
      "stateMutability": "nonpayable",
      "type": "function"
    },
    {
      "inputs": [
        {
          "internalType": "address",
          "name": "_mutator",
          "type": "address"
        }
      ],
      "name": "setMutator",
      "outputs": [],
      "stateMutability": "nonpayable",
      "type": "function"
    }
  ],
  "transactionHash": "0x4e79b1a601b14d2a6f2f8743597838014f9986563c6653946e0b44ae2e3a618e",
  "args": [
    "0x47897EE61498D02B18794601Ed3A71896A1Ff894",
    "0x47897EE61498D02B18794601Ed3A71896A1Ff894"
  ],
  "solcInputHash": "7114c1ed41616b1240a5294a368cb528",
  "bytecode": "0x608060405234801561001057600080fd5b5060405161043d38038061043d83398101604081905261002f91610082565b600080546001600160a01b039384166001600160a01b031991821617909155600180549290931691161790556000196003556100b4565b80516001600160a01b038116811461007d57600080fd5b919050565b60008060408385031215610094578182fd5b61009d83610066565b91506100ab60208401610066565b90509250929050565b61037a806100c36000396000f3fe608060405234801561001057600080fd5b50600436106100675760003560e01c8063bec362dc11610050578063bec362dc146100ab578063bf1fe420146100be578063ef360946146100ab57610067565b806324a9ac041461006c5780636968abd314610081575b600080fd5b61007f61007a366004610258565b6100d1565b005b61009461008f366004610279565b610120565b6040516100a2929190610336565b60405180910390f35b61007f6100b93660046102ab565b61012c565b61007f6100cc3660046102e7565b610130565b6100d96101b1565b600180547fffffffffffffffffffffffff00000000000000000000000000000000000000001673ffffffffffffffffffffffffffffffffffffffff92909216919091179055565b50506002546003549091565b5050565b60005473ffffffffffffffffffffffffffffffffffffffff1633148061016d575060015473ffffffffffffffffffffffffffffffffffffffff1633145b6101ac576040517f08c379a00000000000000000000000000000000000000000000000000000000081526004016101a3906102ff565b60405180910390fd5b600255565b60005473ffffffffffffffffffffffffffffffffffffffff163314806101d657503330145b806101f7575060005473ffffffffffffffffffffffffffffffffffffffff16155b61022d576040517f08c379a00000000000000000000000000000000000000000000000000000000081526004016101a3906102ff565b565b803573ffffffffffffffffffffffffffffffffffffffff8116811461025357600080fd5b919050565b600060208284031215610269578081fd5b6102728261022f565b9392505050565b6000806040838503121561028b578081fd5b6102948361022f565b91506102a26020840161022f565b90509250929050565b6000808284036101408112156102bf578283fd5b610120808212156102ce578384fd5b8493506102dc81860161022f565b925050509250929050565b6000602082840312156102f8578081fd5b5035919050565b60208082526016908201527f4d67764f7261636c652f756e617574686f72697a656400000000000000000000604082015260600190565b91825260208201526040019056fea264697066735822122074b6c255514366bf9e2d212726f44172b104bf0d4031c0b7622bc30fd48ef6c064736f6c63430007060033",
  "devdoc": {
    "kind": "dev",
    "methods": {},
    "version": 1
  },
  "userdoc": {
    "kind": "user",
    "methods": {},
    "version": 1
  },
  "storageLayout": {
    "storage": [
      {
        "astId": 49847,
        "contract": "cache/solpp-generated-contracts/periphery/MgvOracle.sol:MgvOracle",
        "label": "governance",
        "offset": 0,
        "slot": "0",
        "type": "t_address"
      },
      {
        "astId": 49849,
        "contract": "cache/solpp-generated-contracts/periphery/MgvOracle.sol:MgvOracle",
        "label": "mutator",
        "offset": 0,
        "slot": "1",
        "type": "t_address"
      },
      {
        "astId": 49851,
        "contract": "cache/solpp-generated-contracts/periphery/MgvOracle.sol:MgvOracle",
        "label": "lastReceivedGasPrice",
        "offset": 0,
        "slot": "2",
        "type": "t_uint256"
      },
      {
        "astId": 49853,
        "contract": "cache/solpp-generated-contracts/periphery/MgvOracle.sol:MgvOracle",
        "label": "lastReceivedDensity",
        "offset": 0,
        "slot": "3",
        "type": "t_uint256"
      }
    ],
    "types": {
      "t_address": {
        "encoding": "inplace",
        "label": "address",
        "numberOfBytes": "20"
      },
      "t_uint256": {
        "encoding": "inplace",
        "label": "uint256",
        "numberOfBytes": "32"
      }
    }
  }
}