{
  "address": "0xb5Fa732eb1a6BA0E3000E5eda48fc84A0dC55cb9",
  "abi": [
    {
      "inputs": [
        {
          "internalType": "address",
          "name": "_governance",
          "type": "address"
        },
        {
          "internalType": "address",
          "name": "_initialMutator",
          "type": "address"
        }
      ],
      "stateMutability": "nonpayable",
      "type": "constructor"
    },
    {
      "inputs": [
        {
          "components": [
            {
              "internalType": "address",
              "name": "outbound_tkn",
              "type": "address"
            },
            {
              "internalType": "address",
              "name": "inbound_tkn",
              "type": "address"
            },
            {
              "internalType": "uint256",
              "name": "offerId",
              "type": "uint256"
            },
            {
              "internalType": "Offer.t",
              "name": "offer",
              "type": "uint256"
            },
            {
              "internalType": "uint256",
              "name": "wants",
              "type": "uint256"
            },
            {
              "internalType": "uint256",
              "name": "gives",
              "type": "uint256"
            },
            {
              "internalType": "OfferDetail.t",
              "name": "offerDetail",
              "type": "uint256"
            },
            {
              "internalType": "Global.t",
              "name": "global",
              "type": "uint256"
            },
            {
              "internalType": "Local.t",
              "name": "local",
              "type": "uint256"
            }
          ],
          "internalType": "struct MgvLib.SingleOrder",
          "name": "sor",
          "type": "tuple"
        },
        {
          "internalType": "address",
          "name": "taker",
          "type": "address"
        }
      ],
      "name": "notifyFail",
      "outputs": [],
      "stateMutability": "nonpayable",
      "type": "function"
    },
    {
      "inputs": [
        {
          "components": [
            {
              "internalType": "address",
              "name": "outbound_tkn",
              "type": "address"
            },
            {
              "internalType": "address",
              "name": "inbound_tkn",
              "type": "address"
            },
            {
              "internalType": "uint256",
              "name": "offerId",
              "type": "uint256"
            },
            {
              "internalType": "Offer.t",
              "name": "offer",
              "type": "uint256"
            },
            {
              "internalType": "uint256",
              "name": "wants",
              "type": "uint256"
            },
            {
              "internalType": "uint256",
              "name": "gives",
              "type": "uint256"
            },
            {
              "internalType": "OfferDetail.t",
              "name": "offerDetail",
              "type": "uint256"
            },
            {
              "internalType": "Global.t",
              "name": "global",
              "type": "uint256"
            },
            {
              "internalType": "Local.t",
              "name": "local",
              "type": "uint256"
            }
          ],
          "internalType": "struct MgvLib.SingleOrder",
          "name": "sor",
          "type": "tuple"
        },
        {
          "internalType": "address",
          "name": "taker",
          "type": "address"
        }
      ],
      "name": "notifySuccess",
      "outputs": [],
      "stateMutability": "nonpayable",
      "type": "function"
    },
    {
      "inputs": [
        {
          "internalType": "address",
          "name": "",
          "type": "address"
        },
        {
          "internalType": "address",
          "name": "",
          "type": "address"
        }
      ],
      "name": "read",
      "outputs": [
        {
          "internalType": "uint256",
          "name": "gasprice",
          "type": "uint256"
        },
        {
          "internalType": "uint256",
          "name": "density",
          "type": "uint256"
        }
      ],
      "stateMutability": "view",
      "type": "function"
    },
    {
      "inputs": [
        {
          "internalType": "uint256",
          "name": "gasPrice",
          "type": "uint256"
        }
      ],
      "name": "setGasPrice",
      "outputs": [],
      "stateMutability": "nonpayable",
      "type": "function"
    },
    {
      "inputs": [
        {
          "internalType": "address",
          "name": "_mutator",
          "type": "address"
        }
      ],
      "name": "setMutator",
      "outputs": [],
      "stateMutability": "nonpayable",
      "type": "function"
    }
  ],
  "transactionHash": "0xf6643ebbb2897665ea3159c43927cb6bbeee95b9d39c4a02c2b880d8024f1e1c",
  "args": [
    "0x47897EE61498D02B18794601Ed3A71896A1Ff894",
    "0x47897EE61498D02B18794601Ed3A71896A1Ff894"
  ],
  "solcInputHash": "390b89b794d729aa3033d98d8e540ec9",
  "bytecode": "0x608060405234801561001057600080fd5b5060405161045238038061045283398101604081905261002f91610082565b600080546001600160a01b039384166001600160a01b031991821617909155600180549290931691161790556000196003556100b5565b80516001600160a01b038116811461007d57600080fd5b919050565b6000806040838503121561009557600080fd5b61009e83610066565b91506100ac60208401610066565b90509250929050565b61038e806100c46000396000f3fe608060405234801561001057600080fd5b50600436106100675760003560e01c80636968abd3116100505780636968abd314610093578063bf1fe420146100c6578063cac182711461006c57600080fd5b8063115950731461006c57806324a9ac0414610080575b600080fd5b61007e61007a3660046102ac565b5050565b005b61007e61008e3660046102ea565b6100d9565b6100ad6100a136600461030c565b50506002546003549091565b6040805192835260208301919091520160405180910390f35b61007e6100d436600461033f565b610128565b6100e16101d5565b600180547fffffffffffffffffffffffff00000000000000000000000000000000000000001673ffffffffffffffffffffffffffffffffffffffff92909216919091179055565b60005473ffffffffffffffffffffffffffffffffffffffff16331480610165575060015473ffffffffffffffffffffffffffffffffffffffff1633145b6101d0576040517f08c379a000000000000000000000000000000000000000000000000000000000815260206004820152601660248201527f4d67764f7261636c652f756e617574686f72697a65640000000000000000000060448201526064015b60405180910390fd5b600255565b60005473ffffffffffffffffffffffffffffffffffffffff163314806101fa57503330145b8061021b575060005473ffffffffffffffffffffffffffffffffffffffff16155b610281576040517f08c379a000000000000000000000000000000000000000000000000000000000815260206004820152601660248201527f4d67764f7261636c652f756e617574686f72697a65640000000000000000000060448201526064016101c7565b565b803573ffffffffffffffffffffffffffffffffffffffff811681146102a757600080fd5b919050565b6000808284036101408112156102c157600080fd5b610120808212156102d157600080fd5b8493506102df818601610283565b925050509250929050565b6000602082840312156102fc57600080fd5b61030582610283565b9392505050565b6000806040838503121561031f57600080fd5b61032883610283565b915061033660208401610283565b90509250929050565b60006020828403121561035157600080fd5b503591905056fea26469706673582212202b8b1c4816ba86bb5c805ef3916cc67aa6dbbace73c983fa1dc97e837a79b96064736f6c634300080a0033",
  "devdoc": {
    "kind": "dev",
    "methods": {},
    "version": 1
  },
  "userdoc": {
    "kind": "user",
    "methods": {},
    "version": 1
  },
  "storageLayout": {
    "storage": [
      {
        "astId": 56289,
        "contract": "contracts/periphery/MgvOracle.sol:MgvOracle",
        "label": "governance",
        "offset": 0,
        "slot": "0",
        "type": "t_address"
      },
      {
        "astId": 56291,
        "contract": "contracts/periphery/MgvOracle.sol:MgvOracle",
        "label": "mutator",
        "offset": 0,
        "slot": "1",
        "type": "t_address"
      },
      {
        "astId": 56293,
        "contract": "contracts/periphery/MgvOracle.sol:MgvOracle",
        "label": "lastReceivedGasPrice",
        "offset": 0,
        "slot": "2",
        "type": "t_uint256"
      },
      {
        "astId": 56295,
        "contract": "contracts/periphery/MgvOracle.sol:MgvOracle",
        "label": "lastReceivedDensity",
        "offset": 0,
        "slot": "3",
        "type": "t_uint256"
      }
    ],
    "types": {
      "t_address": {
        "encoding": "inplace",
        "label": "address",
        "numberOfBytes": "20"
      },
      "t_uint256": {
        "encoding": "inplace",
        "label": "uint256",
        "numberOfBytes": "32"
      }
    }
  }
}