{
  "address": "0xd38c02425da847584eeDA72387DAAA2E8f3b90c8",
  "abi": [
    {
      "inputs": [
        {
          "internalType": "address",
          "name": "_governance",
          "type": "address"
        },
        {
          "internalType": "address",
          "name": "_initialMutator",
          "type": "address"
        }
      ],
      "stateMutability": "nonpayable",
      "type": "constructor"
    },
    {
      "anonymous": false,
      "inputs": [
        {
          "indexed": false,
          "internalType": "uint256",
          "name": "density",
          "type": "uint256"
        }
      ],
      "name": "SetDensity",
      "type": "event"
    },
    {
      "anonymous": false,
      "inputs": [
        {
          "indexed": false,
          "internalType": "uint256",
          "name": "gasPrice",
          "type": "uint256"
        }
      ],
      "name": "SetGasprice",
      "type": "event"
    },
    {
      "inputs": [
        {
          "components": [
            {
              "internalType": "address",
              "name": "outbound_tkn",
              "type": "address"
            },
            {
              "internalType": "address",
              "name": "inbound_tkn",
              "type": "address"
            },
            {
              "internalType": "uint256",
              "name": "offerId",
              "type": "uint256"
            },
            {
              "internalType": "Offer.t",
              "name": "offer",
              "type": "uint256"
            },
            {
              "internalType": "uint256",
              "name": "wants",
              "type": "uint256"
            },
            {
              "internalType": "uint256",
              "name": "gives",
              "type": "uint256"
            },
            {
              "internalType": "OfferDetail.t",
              "name": "offerDetail",
              "type": "uint256"
            },
            {
              "internalType": "Global.t",
              "name": "global",
              "type": "uint256"
            },
            {
              "internalType": "Local.t",
              "name": "local",
              "type": "uint256"
            }
          ],
          "internalType": "struct MgvLib.SingleOrder",
          "name": "sor",
          "type": "tuple"
        },
        {
          "internalType": "address",
          "name": "taker",
          "type": "address"
        }
      ],
      "name": "notifyFail",
      "outputs": [],
      "stateMutability": "nonpayable",
      "type": "function"
    },
    {
      "inputs": [
        {
          "components": [
            {
              "internalType": "address",
              "name": "outbound_tkn",
              "type": "address"
            },
            {
              "internalType": "address",
              "name": "inbound_tkn",
              "type": "address"
            },
            {
              "internalType": "uint256",
              "name": "offerId",
              "type": "uint256"
            },
            {
              "internalType": "Offer.t",
              "name": "offer",
              "type": "uint256"
            },
            {
              "internalType": "uint256",
              "name": "wants",
              "type": "uint256"
            },
            {
              "internalType": "uint256",
              "name": "gives",
              "type": "uint256"
            },
            {
              "internalType": "OfferDetail.t",
              "name": "offerDetail",
              "type": "uint256"
            },
            {
              "internalType": "Global.t",
              "name": "global",
              "type": "uint256"
            },
            {
              "internalType": "Local.t",
              "name": "local",
              "type": "uint256"
            }
          ],
          "internalType": "struct MgvLib.SingleOrder",
          "name": "sor",
          "type": "tuple"
        },
        {
          "internalType": "address",
          "name": "taker",
          "type": "address"
        }
      ],
      "name": "notifySuccess",
      "outputs": [],
      "stateMutability": "nonpayable",
      "type": "function"
    },
    {
      "inputs": [
        {
          "internalType": "address",
          "name": "",
          "type": "address"
        },
        {
          "internalType": "address",
          "name": "",
          "type": "address"
        }
      ],
      "name": "read",
      "outputs": [
        {
          "internalType": "uint256",
          "name": "gasprice",
          "type": "uint256"
        },
        {
          "internalType": "uint256",
          "name": "density",
          "type": "uint256"
        }
      ],
      "stateMutability": "view",
      "type": "function"
    },
    {
      "inputs": [
        {
          "internalType": "uint256",
          "name": "density",
          "type": "uint256"
        }
      ],
      "name": "setDensity",
      "outputs": [],
      "stateMutability": "nonpayable",
      "type": "function"
    },
    {
      "inputs": [
        {
          "internalType": "uint256",
          "name": "gasPrice",
          "type": "uint256"
        }
      ],
      "name": "setGasPrice",
      "outputs": [],
      "stateMutability": "nonpayable",
      "type": "function"
    },
    {
      "inputs": [
        {
          "internalType": "address",
          "name": "_mutator",
          "type": "address"
        }
      ],
      "name": "setMutator",
      "outputs": [],
      "stateMutability": "nonpayable",
      "type": "function"
    }
  ],
  "transactionHash": "0xcf5e527f706d79fb65402d50e1879c8b9bd509173451a7ae1f27789e99cf0468",
  "args": [
    "0x47897EE61498D02B18794601Ed3A71896A1Ff894",
    "0x47897EE61498D02B18794601Ed3A71896A1Ff894"
  ],
  "solcInputHash": "fac7ea1de66eb91f7d64b2652a2a38ca",
  "bytecode": "0x608060405234801561001057600080fd5b5060405161057f38038061057f83398101604081905261002f91610082565b600080546001600160a01b039384166001600160a01b031991821617909155600180549290931691161790556000196003556100b5565b80516001600160a01b038116811461007d57600080fd5b919050565b6000806040838503121561009557600080fd5b61009e83610066565b91506100ac60208401610066565b90509250929050565b6104bb806100c46000396000f3fe608060405234801561001057600080fd5b50600436106100725760003560e01c80636ed67d31116100505780636ed67d31146100d1578063bf1fe420146100e4578063cac182711461007757600080fd5b8063115950731461007757806324a9ac041461008b5780636968abd31461009e575b600080fd5b6100896100853660046103d9565b5050565b005b610089610099366004610417565b6100f7565b6100b86100ac366004610439565b50506002546003549091565b6040805192835260208301919091520160405180910390f35b6100896100df36600461046c565b610146565b6100896100f236600461046c565b61022a565b6100ff610302565b600180547fffffffffffffffffffffffff00000000000000000000000000000000000000001673ffffffffffffffffffffffffffffffffffffffff92909216919091179055565b60005473ffffffffffffffffffffffffffffffffffffffff16331480610183575060015473ffffffffffffffffffffffffffffffffffffffff1633145b6101ee576040517f08c379a000000000000000000000000000000000000000000000000000000000815260206004820152601660248201527f4d67764f7261636c652f756e617574686f72697a65640000000000000000000060448201526064015b60405180910390fd5b60038190556040518181527f7eb62afbbd7f856408279be0b7b61b8c8c70082b51c1edc2eaeab9eb81c271c9906020015b60405180910390a150565b60005473ffffffffffffffffffffffffffffffffffffffff16331480610267575060015473ffffffffffffffffffffffffffffffffffffffff1633145b6102cd576040517f08c379a000000000000000000000000000000000000000000000000000000000815260206004820152601660248201527f4d67764f7261636c652f756e617574686f72697a65640000000000000000000060448201526064016101e5565b60028190556040518181527fdbebd814ae648f654dcc50c734aa76e55a32e96b7d85303a08e2ddf11874a0dd9060200161021f565b60005473ffffffffffffffffffffffffffffffffffffffff1633148061032757503330145b80610348575060005473ffffffffffffffffffffffffffffffffffffffff16155b6103ae576040517f08c379a000000000000000000000000000000000000000000000000000000000815260206004820152601660248201527f4d67764f7261636c652f756e617574686f72697a65640000000000000000000060448201526064016101e5565b565b803573ffffffffffffffffffffffffffffffffffffffff811681146103d457600080fd5b919050565b6000808284036101408112156103ee57600080fd5b610120808212156103fe57600080fd5b84935061040c8186016103b0565b925050509250929050565b60006020828403121561042957600080fd5b610432826103b0565b9392505050565b6000806040838503121561044c57600080fd5b610455836103b0565b9150610463602084016103b0565b90509250929050565b60006020828403121561047e57600080fd5b503591905056fea2646970667358221220e263db6497d76335086b82f9ade0a70240c3f554a1c2df5c33ef60524a21ebf864736f6c634300080a0033",
  "devdoc": {
    "kind": "dev",
    "methods": {},
    "version": 1
  },
  "userdoc": {
    "kind": "user",
    "methods": {},
    "version": 1
  },
  "storageLayout": {
    "storage": [
      {
        "astId": 63338,
        "contract": "contracts/periphery/MgvOracle.sol:MgvOracle",
        "label": "governance",
        "offset": 0,
        "slot": "0",
        "type": "t_address"
      },
      {
        "astId": 63340,
        "contract": "contracts/periphery/MgvOracle.sol:MgvOracle",
        "label": "mutator",
        "offset": 0,
        "slot": "1",
        "type": "t_address"
      },
      {
        "astId": 63342,
        "contract": "contracts/periphery/MgvOracle.sol:MgvOracle",
        "label": "lastReceivedGasPrice",
        "offset": 0,
        "slot": "2",
        "type": "t_uint256"
      },
      {
        "astId": 63344,
        "contract": "contracts/periphery/MgvOracle.sol:MgvOracle",
        "label": "lastReceivedDensity",
        "offset": 0,
        "slot": "3",
        "type": "t_uint256"
      }
    ],
    "types": {
      "t_address": {
        "encoding": "inplace",
        "label": "address",
        "numberOfBytes": "20"
      },
      "t_uint256": {
        "encoding": "inplace",
        "label": "uint256",
        "numberOfBytes": "32"
      }
    }
  }
}