{
  "address": "0x5B2F8058Df0A0b7744FDb4fD0885FbCD2394194C",
  "abi": [
    {
      "inputs": [
        {
          "internalType": "address",
          "name": "_mgv",
          "type": "address"
        }
      ],
      "stateMutability": "nonpayable",
      "type": "constructor"
    },
    {
      "inputs": [
        {
          "internalType": "address",
          "name": "outbound_tkn",
          "type": "address"
        },
        {
          "internalType": "address",
          "name": "inbound_tkn",
          "type": "address"
        }
      ],
      "name": "config",
      "outputs": [
        {
          "components": [
            {
              "internalType": "address",
              "name": "monitor",
              "type": "address"
            },
            {
              "internalType": "bool",
              "name": "useOracle",
              "type": "bool"
            },
            {
              "internalType": "bool",
              "name": "notify",
              "type": "bool"
            },
            {
              "internalType": "uint256",
              "name": "gasprice",
              "type": "uint256"
            },
            {
              "internalType": "uint256",
              "name": "gasmax",
              "type": "uint256"
            },
            {
              "internalType": "bool",
              "name": "dead",
              "type": "bool"
            }
          ],
          "internalType": "struct MgvLib.Global",
          "name": "global",
          "type": "tuple"
        },
        {
          "components": [
            {
              "internalType": "bool",
              "name": "active",
              "type": "bool"
            },
            {
              "internalType": "uint256",
              "name": "fee",
              "type": "uint256"
            },
            {
              "internalType": "uint256",
              "name": "density",
              "type": "uint256"
            },
            {
              "internalType": "uint256",
              "name": "overhead_gasbase",
              "type": "uint256"
            },
            {
              "internalType": "uint256",
              "name": "offer_gasbase",
              "type": "uint256"
            },
            {
              "internalType": "bool",
              "name": "lock",
              "type": "bool"
            },
            {
              "internalType": "uint256",
              "name": "best",
              "type": "uint256"
            },
            {
              "internalType": "uint256",
              "name": "last",
              "type": "uint256"
            }
          ],
          "internalType": "struct MgvLib.Local",
          "name": "local",
          "type": "tuple"
        }
      ],
      "stateMutability": "view",
      "type": "function"
    },
    {
      "inputs": [
        {
          "internalType": "address",
          "name": "outbound_tkn",
          "type": "address"
        },
        {
          "internalType": "address",
          "name": "inbound_tkn",
          "type": "address"
        },
        {
          "internalType": "uint256",
          "name": "ofr_gasreq",
          "type": "uint256"
        },
        {
          "internalType": "uint256",
          "name": "ofr_gasprice",
          "type": "uint256"
        }
      ],
      "name": "getProvision",
      "outputs": [
        {
          "internalType": "uint256",
          "name": "",
          "type": "uint256"
        }
      ],
      "stateMutability": "view",
      "type": "function"
    },
    {
      "inputs": [
        {
          "internalType": "address",
          "name": "outbound_tkn",
          "type": "address"
        },
        {
          "internalType": "address",
          "name": "inbound_tkn",
          "type": "address"
        },
        {
          "internalType": "uint256",
          "name": "fromId",
          "type": "uint256"
        },
        {
          "internalType": "uint256",
          "name": "maxOffers",
          "type": "uint256"
        }
      ],
      "name": "offerList",
      "outputs": [
        {
          "internalType": "uint256",
          "name": "",
          "type": "uint256"
        },
        {
          "internalType": "uint256[]",
          "name": "",
          "type": "uint256[]"
        },
        {
          "components": [
            {
              "internalType": "uint256",
              "name": "prev",
              "type": "uint256"
            },
            {
              "internalType": "uint256",
              "name": "next",
              "type": "uint256"
            },
            {
              "internalType": "uint256",
              "name": "gives",
              "type": "uint256"
            },
            {
              "internalType": "uint256",
              "name": "wants",
              "type": "uint256"
            },
            {
              "internalType": "uint256",
              "name": "gasprice",
              "type": "uint256"
            }
          ],
          "internalType": "struct MgvLib.Offer[]",
          "name": "",
          "type": "tuple[]"
        },
        {
          "components": [
            {
              "internalType": "address",
              "name": "maker",
              "type": "address"
            },
            {
              "internalType": "uint256",
              "name": "gasreq",
              "type": "uint256"
            },
            {
              "internalType": "uint256",
              "name": "overhead_gasbase",
              "type": "uint256"
            },
            {
              "internalType": "uint256",
              "name": "offer_gasbase",
              "type": "uint256"
            }
          ],
          "internalType": "struct MgvLib.OfferDetail[]",
          "name": "",
          "type": "tuple[]"
        }
      ],
      "stateMutability": "view",
      "type": "function"
    },
    {
      "inputs": [
        {
          "internalType": "address",
          "name": "outbound_tkn",
          "type": "address"
        },
        {
          "internalType": "address",
          "name": "inbound_tkn",
          "type": "address"
        },
        {
          "internalType": "uint256",
          "name": "fromId",
          "type": "uint256"
        },
        {
          "internalType": "uint256",
          "name": "maxOffers",
          "type": "uint256"
        }
      ],
      "name": "offerListEndPoints",
      "outputs": [
        {
          "internalType": "uint256",
          "name": "startId",
          "type": "uint256"
        },
        {
          "internalType": "uint256",
          "name": "length",
          "type": "uint256"
        }
      ],
      "stateMutability": "view",
      "type": "function"
    },
    {
      "inputs": [
        {
          "internalType": "address",
          "name": "outbound_tkn",
          "type": "address"
        },
        {
          "internalType": "address",
          "name": "inbound_tkn",
          "type": "address"
        },
        {
          "internalType": "uint256",
          "name": "fromId",
          "type": "uint256"
        },
        {
          "internalType": "uint256",
          "name": "maxOffers",
          "type": "uint256"
        }
      ],
      "name": "packedOfferList",
      "outputs": [
        {
          "internalType": "uint256",
          "name": "",
          "type": "uint256"
        },
        {
          "internalType": "uint256[]",
          "name": "",
          "type": "uint256[]"
        },
        {
          "internalType": "bytes32[]",
          "name": "",
          "type": "bytes32[]"
        },
        {
          "internalType": "bytes32[]",
          "name": "",
          "type": "bytes32[]"
        }
      ],
      "stateMutability": "view",
      "type": "function"
    }
  ],
  "transactionHash": "0x7d6b1a7ae025838e914219e4c14746cbd54be81152e5a29a208b6fe9b4e375a4",
  "args": [
    "0xF15A2ada64A9C3C14ca11359c8F1d22B063DB2AD"
  ],
  "solcInputHash": "056c943fe6dce80766bdc3add2f9e562",
  "bytecode": "0x60a060405234801561001057600080fd5b506040516111f73803806111f783398101604081905261002f91610044565b60601b6001600160601b031916608052610072565b600060208284031215610055578081fd5b81516001600160a01b038116811461006b578182fd5b9392505050565b60805160601c6111456100b26000398061025a528061048b52806105505280610640528061077e5280610813528061092a52806109e452506111456000f3fe608060405234801561001057600080fd5b50600436106100675760003560e01c8063666909711161005057806366690971146100bb578063c81b5654146100db578063cbf75c9a146100fc57610067565b80632c7e545f1461006c57806365c99b2314610098575b600080fd5b61007f61007a366004610cd0565b61011d565b60405161008f9493929190611044565b60405180910390f35b6100ab6100a6366004610cd0565b61036e565b60405161008f9493929190610ffa565b6100ce6100c9366004610cd0565b610639565b60405161008f9190610ff1565b6100ee6100e9366004610cd0565b610739565b60405161008f9291906110dc565b61010f61010a366004610c98565b6109cf565b60405161008f929190610f38565b600060608060606000806101338a8a8a8a610739565b9150915060008167ffffffffffffffff8111801561015057600080fd5b5060405190808252806020026020018201604052801561017a578160200160208202803683370190505b50905060008267ffffffffffffffff8111801561019657600080fd5b506040519080825280602002602001820160405280156101d057816020015b6101bd610bad565b8152602001906001900390816101b55790505b50905060008367ffffffffffffffff811180156101ec57600080fd5b5060405190808252806020026020018201604052801561022657816020015b610213610bdc565b81526020019060019003908161020b5790505b50905060005b851580159061023a57508481105b15610359578584828151811061024c57fe5b6020026020010181815250507f000000000000000000000000000000000000000000000000000000000000000073ffffffffffffffffffffffffffffffffffffffff16638c66715c8f8f896040518463ffffffff1660e01b81526004016102b593929190610f07565b6101206040518083038186803b1580156102ce57600080fd5b505afa1580156102e2573d6000803e3d6000fd5b505050506040513d601f19601f820116820180604052508101906103069190610d50565b84838151811061031257fe5b6020026020010184848151811061032557fe5b60200260200101829052829052505082818151811061034057fe5b602002602001015160200151955080600101905061022c565b50939c919b5099509197509095505050505050565b600060608060606000806103848a8a8a8a610739565b9150915060008167ffffffffffffffff811180156103a157600080fd5b506040519080825280602002602001820160405280156103cb578160200160208202803683370190505b50905060008267ffffffffffffffff811180156103e757600080fd5b50604051908082528060200260200182016040528015610411578160200160208202803683370190505b50905060008367ffffffffffffffff8111801561042d57600080fd5b50604051908082528060200260200182016040528015610457578160200160208202803683370190505b50905060005b851580159061046b57508481105b15610359578584828151811061047d57fe5b6020026020010181815250507f000000000000000000000000000000000000000000000000000000000000000073ffffffffffffffffffffffffffffffffffffffff166368c13d6b8f8f896040518463ffffffff1660e01b81526004016104e693929190610f07565b60206040518083038186803b1580156104fe57600080fd5b505afa158015610512573d6000803e3d6000fd5b505050506040513d601f19601f820116820180604052508101906105369190610d15565b83828151811061054257fe5b6020026020010181815250507f000000000000000000000000000000000000000000000000000000000000000073ffffffffffffffffffffffffffffffffffffffff16635722647b8f8f896040518463ffffffff1660e01b81526004016105ab93929190610f07565b60206040518083038186803b1580156105c357600080fd5b505afa1580156105d7573d6000803e3d6000fd5b505050506040513d601f19601f820116820180604052508101906105fb9190610d15565b82828151811061060757fe5b60200260200101818152505061062f83828151811061062257fe5b6020026020010151610b6e565b955060010161045d565b60008060007f000000000000000000000000000000000000000000000000000000000000000073ffffffffffffffffffffffffffffffffffffffff1663cbf75c9a88886040518363ffffffff1660e01b8152600401610699929190610ee0565b604080518083038186803b1580156106b057600080fd5b505afa1580156106c4573d6000803e3d6000fd5b505050506040513d601f19601f820116820180604052508101906106e89190610d2d565b915091506000806106f884610b79565b90508581111561070a5780915061070e565b8591505b8161071884610b83565b61072185610b8e565b89010102633b9aca0002945050505050949350505050565b6000808361080c576040517fdef5ddaa00000000000000000000000000000000000000000000000000000000815273ffffffffffffffffffffffffffffffffffffffff7f0000000000000000000000000000000000000000000000000000000000000000169063def5ddaa906107b59089908990600401610ee0565b60206040518083038186803b1580156107cd57600080fd5b505afa1580156107e1573d6000803e3d6000fd5b505050506040513d601f19601f820116820180604052508101906108059190610d15565b91506108d4565b60006108c37f000000000000000000000000000000000000000000000000000000000000000073ffffffffffffffffffffffffffffffffffffffff166368c13d6b8989896040518463ffffffff1660e01b815260040161086e93929190610f07565b60206040518083038186803b15801561088657600080fd5b505afa15801561089a573d6000803e3d6000fd5b505050506040513d601f19601f820116820180604052508101906108be9190610d15565b610b99565b116108cf5760006108d1565b835b91505b815b80158015906108e457508382105b156109c5576040517f68c13d6b0000000000000000000000000000000000000000000000000000000081526109b89073ffffffffffffffffffffffffffffffffffffffff7f000000000000000000000000000000000000000000000000000000000000000016906368c13d6b90610963908b908b908790600401610f07565b60206040518083038186803b15801561097b57600080fd5b505afa15801561098f573d6000803e3d6000fd5b505050506040513d601f19601f820116820180604052508101906109b39190610d15565b610b6e565b90508160010191506108d6565b5094509492505050565b6109d7610c1a565b6109df610c4f565b6000807f000000000000000000000000000000000000000000000000000000000000000073ffffffffffffffffffffffffffffffffffffffff1663cbf75c9a87876040518363ffffffff1660e01b8152600401610a3d929190610ee0565b604080518083038186803b158015610a5457600080fd5b505afa158015610a68573d6000803e3d6000fd5b505050506040513d601f19601f82011682018060405250810190610a8c9190610d2d565b6040805160c08082018352606085811c835260ff605887901c81161515602080860191909152605088901c821615158587015261ffff88871c81168487015262ffffff60288a901c811660808089019190915299831c8416151560a080890191909152885161010081018a5260f88b901c1515815260e88b901c9093169383019390935263ffffffff60c88a901c169782019790975260b088901c871681850152609888901c871698810198909852609087901c909116151590870152607885901c8416918601919091529290921c1660e08301529450925050509250929050565b60d01c62ffffff1690565b60401c61ffff1690565b60981c62ffffff1690565b60b01c62ffffff1690565b60101c6bffffffffffffffffffffffff1690565b6040518060a0016040528060008152602001600081526020016000815260200160008152602001600081525090565b6040518060800160405280600073ffffffffffffffffffffffffffffffffffffffff1681526020016000815260200160008152602001600081525090565b6040805160c081018252600080825260208201819052918101829052606081018290526080810182905260a081019190915290565b6040518061010001604052806000151581526020016000815260200160008152602001600081526020016000815260200160001515815260200160008152602001600081525090565b60008060408385031215610caa578182fd5b8235610cb5816110ea565b91506020830135610cc5816110ea565b809150509250929050565b60008060008060808587031215610ce5578182fd5b8435610cf0816110ea565b93506020850135610d00816110ea565b93969395505050506040820135916060013590565b600060208284031215610d26578081fd5b5051919050565b60008060408385031215610d3f578182fd5b505080516020909101519092909150565b600080828403610120811215610d64578283fd5b60a0811215610d71578283fd5b6040805160a0810167ffffffffffffffff8282108183111715610d9057fe5b81845287518352602088015160208401528388015184840152606088015160608401526080880151608084015282965060807fffffffffffffffffffffffffffffffffffffffffffffffffffffffffffffff6086011215610def578586fd5b835194506080850192508483108184111715610e0757fe5b5050815260a0850151610e19816110ea565b825260c0850151602083015260e0850151908201526101009093015160608401525092909150565b6000815180845260208085019450808401835b83811015610e7057815187529582019590820190600101610e54565b509495945050505050565b6000815180845260208085019450808401835b83811015610e70578151805173ffffffffffffffffffffffffffffffffffffffff1688528381015184890152604080820151908901526060908101519088015260809096019590820190600101610e8e565b73ffffffffffffffffffffffffffffffffffffffff92831681529116602082015260400190565b73ffffffffffffffffffffffffffffffffffffffff9384168152919092166020820152604081019190915260600190565b60006101c08201905073ffffffffffffffffffffffffffffffffffffffff8451168252602084015115156020830152604084015115156040830152606084015160608301526080840151608083015260a0840151151560a08301528251151560c0830152602083015160e083015260408301516101008301526060830151610120830152608083015161014083015260a0830151151561016083015260c083015161018083015260e08301516101a08301529392505050565b90815260200190565b6000858252608060208301526110136080830186610e41565b82810360408401526110258186610e41565b905082810360608401526110398185610e41565b979650505050505050565b600060808683526020818185015261105e82850188610e41565b848103604086810191909152875180835283890192840190865b818110156110b9578451805184528681015187850152848101518585015260608082015190850152870151878401529385019360a090920191600101611078565b505086810360608801526110cd8189610e7b565b9b9a5050505050505050505050565b918252602082015260400190565b73ffffffffffffffffffffffffffffffffffffffff8116811461110c57600080fd5b5056fea264697066735822122036294d0b076d683628d278eb01539029b35166d906df31c2510c195106a3329864736f6c63430007060033",
  "devdoc": {
    "kind": "dev",
    "methods": {},
    "version": 1
  },
  "userdoc": {
    "kind": "user",
    "methods": {},
    "version": 1
  },
  "storageLayout": {
    "storage": [],
    "types": null
  }
}