{
  "address": "0x69dE7df175444cd44667DdfA74FbEb5095C3dB34",
  "abi": [
    {
      "inputs": [
        {
          "internalType": "address",
          "name": "_mgv",
          "type": "address"
        }
      ],
      "stateMutability": "nonpayable",
      "type": "constructor"
    },
    {
      "inputs": [
        {
          "internalType": "address",
          "name": "outbound_tkn",
          "type": "address"
        },
        {
          "internalType": "address",
          "name": "inbound_tkn",
          "type": "address"
        },
        {
          "internalType": "uint256",
          "name": "ofr_gasreq",
          "type": "uint256"
        },
        {
          "internalType": "uint256",
          "name": "ofr_gasprice",
          "type": "uint256"
        }
      ],
      "name": "getProvision",
      "outputs": [
        {
          "internalType": "uint256",
          "name": "",
          "type": "uint256"
        }
      ],
      "stateMutability": "view",
      "type": "function"
    },
    {
      "inputs": [
        {
          "internalType": "address",
          "name": "outbound_tkn",
          "type": "address"
        },
        {
          "internalType": "address",
          "name": "inbound_tkn",
          "type": "address"
        },
        {
          "internalType": "uint256",
          "name": "fromId",
          "type": "uint256"
        },
        {
          "internalType": "uint256",
          "name": "maxOffers",
          "type": "uint256"
        }
      ],
      "name": "offerList",
      "outputs": [
        {
          "internalType": "uint256",
          "name": "",
          "type": "uint256"
        },
        {
          "internalType": "uint256[]",
          "name": "",
          "type": "uint256[]"
        },
        {
          "components": [
            {
              "internalType": "uint256",
              "name": "prev",
              "type": "uint256"
            },
            {
              "internalType": "uint256",
              "name": "next",
              "type": "uint256"
            },
            {
              "internalType": "uint256",
              "name": "wants",
              "type": "uint256"
            },
            {
              "internalType": "uint256",
              "name": "gives",
              "type": "uint256"
            }
          ],
          "internalType": "struct OfferStruct[]",
          "name": "",
          "type": "tuple[]"
        },
        {
          "components": [
            {
              "internalType": "address",
              "name": "maker",
              "type": "address"
            },
            {
              "internalType": "uint256",
              "name": "gasreq",
              "type": "uint256"
            },
            {
              "internalType": "uint256",
              "name": "offer_gasbase",
              "type": "uint256"
            },
            {
              "internalType": "uint256",
              "name": "gasprice",
              "type": "uint256"
            }
          ],
          "internalType": "struct OfferDetailStruct[]",
          "name": "",
          "type": "tuple[]"
        }
      ],
      "stateMutability": "view",
      "type": "function"
    },
    {
      "inputs": [
        {
          "internalType": "address",
          "name": "outbound_tkn",
          "type": "address"
        },
        {
          "internalType": "address",
          "name": "inbound_tkn",
          "type": "address"
        },
        {
          "internalType": "uint256",
          "name": "fromId",
          "type": "uint256"
        },
        {
          "internalType": "uint256",
          "name": "maxOffers",
          "type": "uint256"
        }
      ],
      "name": "offerListEndPoints",
      "outputs": [
        {
          "internalType": "uint256",
          "name": "startId",
          "type": "uint256"
        },
        {
          "internalType": "uint256",
          "name": "length",
          "type": "uint256"
        }
      ],
      "stateMutability": "view",
      "type": "function"
    },
    {
      "inputs": [
        {
          "internalType": "address",
          "name": "outbound_tkn",
          "type": "address"
        },
        {
          "internalType": "address",
          "name": "inbound_tkn",
          "type": "address"
        },
        {
          "internalType": "uint256",
          "name": "fromId",
          "type": "uint256"
        },
        {
          "internalType": "uint256",
          "name": "maxOffers",
          "type": "uint256"
        }
      ],
      "name": "packedOfferList",
      "outputs": [
        {
          "internalType": "uint256",
          "name": "",
          "type": "uint256"
        },
        {
          "internalType": "uint256[]",
          "name": "",
          "type": "uint256[]"
        },
        {
          "internalType": "Offer.t[]",
          "name": "",
          "type": "bytes32[]"
        },
        {
          "internalType": "OfferDetail.t[]",
          "name": "",
          "type": "bytes32[]"
        }
      ],
      "stateMutability": "view",
      "type": "function"
    }
  ],
  "transactionHash": "0xe06afcccbdc46df8b9c19ccd53bc17906f27a78172f8b4bf19e11d1a7beb9d5f",
  "args": [
    "0x493Bd4Ae961B3C50e1a1C86CC0D433aDa66870D0"
  ],
  "solcInputHash": "ad5bb80ddcfd073848992acffc7882f8",
  "bytecode": "0x60a060405234801561001057600080fd5b50604051610f4b380380610f4b83398101604081905261002f91610040565b6001600160a01b0316608052610070565b60006020828403121561005257600080fd5b81516001600160a01b038116811461006957600080fd5b9392505050565b608051610e966100b5600039600081816102dc0152818161053901528181610615015281816107280152818161082f015281816108fc01526109f60152610e966000f3fe608060405234801561001057600080fd5b506004361061004c5760003560e01c80632c7e545f1461005157806365c99b231461007d57806366690971146100a0578063c81b5654146100c1575b600080fd5b61006461005f366004610aab565b6100e9565b6040516100749493929190610b92565b60405180910390f35b61009061008b366004610aab565b6103c2565b6040516100749493929190610c22565b6100b36100ae366004610aab565b6106d4565b604051908152602001610074565b6100d46100cf366004610aab565b6107da565b60408051928352602083019190915201610074565b600060608060606000806100ff8a8a8a8a6107da565b9150915060008167ffffffffffffffff81111561011e5761011e610cb5565b604051908082528060200260200182016040528015610147578160200160208202803683370190505b50905060008267ffffffffffffffff81111561016557610165610cb5565b6040519080825280602002602001820160405280156101c157816020015b6101ae6040518060800160405280600081526020016000815260200160008152602001600081525090565b8152602001906001900390816101835790505b50905060008367ffffffffffffffff8111156101df576101df610cb5565b60405190808252806020026020018201604052801561025157816020015b61023e6040518060800160405280600073ffffffffffffffffffffffffffffffffffffffff1681526020016000815260200160008152602001600081525090565b8152602001906001900390816101fd5790505b50905060005b851580159061026557508481105b156103ad578584828151811061027d5761027d610ce4565b60209081029190910101526040517f8c66715c00000000000000000000000000000000000000000000000000000000815273ffffffffffffffffffffffffffffffffffffffff8f811660048301528e81166024830152604482018890527f00000000000000000000000000000000000000000000000000000000000000001690638c66715c9060640161010060405180830381865afa158015610324573d6000803e3d6000fd5b505050506040513d601f19601f820116820180604052508101906103489190610d63565b84838151811061035a5761035a610ce4565b6020026020010184848151811061037357610373610ce4565b60200260200101829052829052505082818151811061039457610394610ce4565b6020026020010151602001519550806001019050610257565b50939c919b5099509197509095505050505050565b600060608060606000806103d88a8a8a8a6107da565b9150915060008167ffffffffffffffff8111156103f7576103f7610cb5565b604051908082528060200260200182016040528015610420578160200160208202803683370190505b50905060008267ffffffffffffffff81111561043e5761043e610cb5565b604051908082528060200260200182016040528015610467578160200160208202803683370190505b50905060008367ffffffffffffffff81111561048557610485610cb5565b6040519080825280602002602001820160405280156104ae578160200160208202803683370190505b50905060005b85158015906104c257508481105b156103ad57858482815181106104da576104da610ce4565b60209081029190910101526040517f68c13d6b00000000000000000000000000000000000000000000000000000000815273ffffffffffffffffffffffffffffffffffffffff8f811660048301528e81166024830152604482018890527f000000000000000000000000000000000000000000000000000000000000000016906368c13d6b90606401602060405180830381865afa158015610580573d6000803e3d6000fd5b505050506040513d601f19601f820116820180604052508101906105a49190610e23565b8382815181106105b6576105b6610ce4565b60209081029190910101526040517f5722647b00000000000000000000000000000000000000000000000000000000815273ffffffffffffffffffffffffffffffffffffffff8f811660048301528e81166024830152604482018890527f00000000000000000000000000000000000000000000000000000000000000001690635722647b90606401602060405180830381865afa15801561065c573d6000803e3d6000fd5b505050506040513d601f19601f820116820180604052508101906106809190610e23565b82828151811061069257610692610ce4565b6020026020010181815250506106ca8382815181106106b3576106b3610ce4565b602002602001015163ffffffff60c09190911c1690565b95506001016104b4565b6040517fcbf75c9a00000000000000000000000000000000000000000000000000000000815273ffffffffffffffffffffffffffffffffffffffff85811660048301528481166024830152600091829182917f00000000000000000000000000000000000000000000000000000000000000009091169063cbf75c9a906044016040805180830381865afa158015610770573d6000803e3d6000fd5b505050506040513d601f19601f820116820180604052508101906107949190610e3c565b9092509050600061ffff604084901c16858111156107b4578091506107b8565b8591505b81606084901c62ffffff16880102633b9aca0002945050505050949350505050565b600080836108a1576040517fdef5ddaa00000000000000000000000000000000000000000000000000000000815273ffffffffffffffffffffffffffffffffffffffff878116600483015286811660248301527f0000000000000000000000000000000000000000000000000000000000000000169063def5ddaa90604401602060405180830381865afa158015610876573d6000803e3d6000fd5b505050506040513d601f19601f8201168201806040525081019061089a9190610e23565b9150610989565b6040517f68c13d6b00000000000000000000000000000000000000000000000000000000815273ffffffffffffffffffffffffffffffffffffffff8781166004830152868116602483015260448201869052600091610978917f000000000000000000000000000000000000000000000000000000000000000016906368c13d6b90606401602060405180830381865afa158015610943573d6000803e3d6000fd5b505050506040513d601f19601f820116820180604052508101906109679190610e23565b6bffffffffffffffffffffffff1690565b11610984576000610986565b835b91505b815b801580159061099957508382105b15610a7c576040517f68c13d6b00000000000000000000000000000000000000000000000000000000815273ffffffffffffffffffffffffffffffffffffffff8881166004830152878116602483015260448201839052610a6f917f0000000000000000000000000000000000000000000000000000000000000000909116906368c13d6b90606401602060405180830381865afa158015610a3f573d6000803e3d6000fd5b505050506040513d601f19601f82011682018060405250810190610a639190610e23565b60c01c63ffffffff1690565b905081600101915061098b565b5094509492505050565b73ffffffffffffffffffffffffffffffffffffffff81168114610aa857600080fd5b50565b60008060008060808587031215610ac157600080fd5b8435610acc81610a86565b93506020850135610adc81610a86565b93969395505050506040820135916060013590565b600081518084526020808501945080840160005b83811015610b2157815187529582019590820190600101610b05565b509495945050505050565b600081518084526020808501945080840160005b83811015610b21578151805173ffffffffffffffffffffffffffffffffffffffff1688528381015184890152604080820151908901526060908101519088015260809096019590820190600101610b40565b6000608086835260208181850152610bac82850188610af1565b84810360408681019190915287518083528389019284019060005b81811015610bff5784518051845286810151878501528481015185850152606090810151908401529385019391860191600101610bc7565b50508681036060880152610c138189610b2c565b9b9a5050505050505050505050565b84815260006020608081840152610c3c6080840187610af1565b838103604085015285518082528287019183019060005b81811015610c6f57835183529284019291840191600101610c53565b50508481036060860152855180825290830191508286019060005b81811015610ca657825184529284019291840191600101610c8a565b50919998505050505050505050565b7f4e487b7100000000000000000000000000000000000000000000000000000000600052604160045260246000fd5b7f4e487b7100000000000000000000000000000000000000000000000000000000600052603260045260246000fd5b6040516080810167ffffffffffffffff81118282101715610d5d577f4e487b7100000000000000000000000000000000000000000000000000000000600052604160045260246000fd5b60405290565b600080828403610100811215610d7857600080fd5b6080811215610d8657600080fd5b610d8e610d13565b845181526020850151602082015260408501516040820152606085015160608201528093505060807fffffffffffffffffffffffffffffffffffffffffffffffffffffffffffffff8082011215610de457600080fd5b50610ded610d13565b6080840151610dfb81610a86565b815260a0840151602082015260c0840151604082015260e09093015160608401525092909150565b600060208284031215610e3557600080fd5b5051919050565b60008060408385031215610e4f57600080fd5b50508051602090910151909290915056fea2646970667358221220ddf25271d961d999d6598d84ff249bc3dc37d63d84ae409a6482cb47cff0232664736f6c634300080a0033",
  "devdoc": {
    "kind": "dev",
    "methods": {},
    "version": 1
  },
  "userdoc": {
    "kind": "user",
    "methods": {},
    "version": 1
  },
  "storageLayout": {
    "storage": [],
    "types": null
  }
}