{
  "address": "0xd64C4F1745e26047C379b420C5EEb4923C640Af0",
  "abi": [
    {
      "inputs": [
        {
          "internalType": "address payable",
          "name": "_MGV",
          "type": "address"
        }
      ],
      "stateMutability": "nonpayable",
      "type": "constructor"
    },
    {
      "anonymous": false,
      "inputs": [
        {
          "indexed": true,
          "internalType": "address",
          "name": "user",
          "type": "address"
        },
        {
          "indexed": false,
          "internalType": "uint256",
          "name": "amount",
          "type": "uint256"
        }
      ],
      "name": "CreditMgvUser",
      "type": "event"
    },
    {
      "anonymous": false,
      "inputs": [
        {
          "indexed": true,
          "internalType": "address",
          "name": "user",
          "type": "address"
        },
        {
          "indexed": true,
          "internalType": "address",
          "name": "token",
          "type": "address"
        },
        {
          "indexed": false,
          "internalType": "uint256",
          "name": "amount",
          "type": "uint256"
        }
      ],
      "name": "CreditUserTokenBalance",
      "type": "event"
    },
    {
      "anonymous": false,
      "inputs": [
        {
          "indexed": true,
          "internalType": "address",
          "name": "user",
          "type": "address"
        },
        {
          "indexed": false,
          "internalType": "uint256",
          "name": "amount",
          "type": "uint256"
        }
      ],
      "name": "DebitMgvUser",
      "type": "event"
    },
    {
      "anonymous": false,
      "inputs": [
        {
          "indexed": true,
          "internalType": "address",
          "name": "user",
          "type": "address"
        },
        {
          "indexed": true,
          "internalType": "address",
          "name": "token",
          "type": "address"
        },
        {
          "indexed": false,
          "internalType": "uint256",
          "name": "amount",
          "type": "uint256"
        }
      ],
      "name": "DebitUserTokenBalance",
      "type": "event"
    },
    {
      "anonymous": false,
      "inputs": [
        {
          "indexed": true,
          "internalType": "address",
          "name": "outbound_tkn",
          "type": "address"
        },
        {
          "indexed": true,
          "internalType": "address",
          "name": "inbound_tkn",
          "type": "address"
        },
        {
          "indexed": false,
          "internalType": "uint256",
          "name": "offerId",
          "type": "uint256"
        },
        {
          "indexed": false,
          "internalType": "uint256",
          "name": "missingAmount",
          "type": "uint256"
        }
      ],
      "name": "GetFail",
      "type": "event"
    },
    {
      "anonymous": false,
      "inputs": [
        {
          "indexed": true,
          "internalType": "address",
          "name": "outbound_tkn",
          "type": "address"
        },
        {
          "indexed": true,
          "internalType": "address",
          "name": "inbound_tkn",
          "type": "address"
        },
        {
          "indexed": true,
          "internalType": "uint256",
          "name": "offerId",
          "type": "uint256"
        },
        {
          "indexed": false,
          "internalType": "bytes",
          "name": "error_data",
          "type": "bytes"
        }
      ],
      "name": "LogIncident",
      "type": "event"
    },
    {
      "anonymous": false,
      "inputs": [
        {
          "indexed": true,
          "internalType": "address",
          "name": "outbound_tkn",
          "type": "address"
        },
        {
          "indexed": true,
          "internalType": "address",
          "name": "inbound_tkn",
          "type": "address"
        },
        {
          "indexed": true,
          "internalType": "uint256",
          "name": "offerId",
          "type": "uint256"
        },
        {
          "indexed": false,
          "internalType": "address",
          "name": "owner",
          "type": "address"
        }
      ],
      "name": "NewOwnedOffer",
      "type": "event"
    },
    {
      "anonymous": false,
      "inputs": [
        {
          "indexed": true,
          "internalType": "address",
          "name": "outbound_tkn",
          "type": "address"
        },
        {
          "indexed": true,
          "internalType": "address",
          "name": "inbound_tkn",
          "type": "address"
        },
        {
          "indexed": false,
          "internalType": "uint256",
          "name": "offerId",
          "type": "uint256"
        },
        {
          "indexed": false,
          "internalType": "string",
          "name": "message",
          "type": "string"
        }
      ],
      "name": "PosthookFail",
      "type": "event"
    },
    {
      "anonymous": false,
      "inputs": [
        {
          "indexed": true,
          "internalType": "address",
          "name": "outbound_tkn",
          "type": "address"
        },
        {
          "indexed": true,
          "internalType": "address",
          "name": "inbound_tkn",
          "type": "address"
        },
        {
          "indexed": false,
          "internalType": "uint256",
          "name": "offerId",
          "type": "uint256"
        },
        {
          "indexed": false,
          "internalType": "uint256",
          "name": "missingAmount",
          "type": "uint256"
        }
      ],
      "name": "PutFail",
      "type": "event"
    },
    {
      "anonymous": false,
      "inputs": [
        {
          "indexed": true,
          "internalType": "address",
          "name": "outbound_tkn",
          "type": "address"
        },
        {
          "indexed": true,
          "internalType": "address",
          "name": "inbound_tkn",
          "type": "address"
        },
        {
          "indexed": false,
          "internalType": "uint256",
          "name": "offerId",
          "type": "uint256"
        }
      ],
      "name": "Reneged",
      "type": "event"
    },
    {
      "inputs": [],
      "name": "MGV",
      "outputs": [
        {
          "internalType": "contract IMangrove",
          "name": "",
          "type": "address"
        }
      ],
      "stateMutability": "view",
      "type": "function"
    },
    {
      "inputs": [],
      "name": "OFR_GASREQ",
      "outputs": [
        {
          "internalType": "uint256",
          "name": "",
          "type": "uint256"
        }
      ],
      "stateMutability": "view",
      "type": "function"
    },
    {
      "inputs": [],
      "name": "admin",
      "outputs": [
        {
          "internalType": "address",
          "name": "",
          "type": "address"
        }
      ],
      "stateMutability": "view",
      "type": "function"
    },
    {
      "inputs": [
        {
          "internalType": "address",
          "name": "outbound_tkn",
          "type": "address"
        },
        {
          "internalType": "uint256",
          "name": "amount",
          "type": "uint256"
        }
      ],
      "name": "approveMangrove",
      "outputs": [],
      "stateMutability": "nonpayable",
      "type": "function"
    },
    {
      "inputs": [],
      "name": "balanceOnMangrove",
      "outputs": [
        {
          "internalType": "uint256",
          "name": "",
          "type": "uint256"
        }
      ],
      "stateMutability": "view",
      "type": "function"
    },
    {
      "inputs": [
        {
          "internalType": "address",
          "name": "token",
          "type": "address"
        },
        {
          "internalType": "uint256",
          "name": "amount",
          "type": "uint256"
        }
      ],
      "name": "depositToken",
      "outputs": [
        {
          "internalType": "bool",
          "name": "success",
          "type": "bool"
        }
      ],
      "stateMutability": "nonpayable",
      "type": "function"
    },
    {
      "inputs": [],
      "name": "fundMangrove",
      "outputs": [],
      "stateMutability": "payable",
      "type": "function"
    },
    {
      "inputs": [
        {
          "internalType": "address",
          "name": "outbound_tkn",
          "type": "address"
        },
        {
          "internalType": "address",
          "name": "inbound_tkn",
          "type": "address"
        },
        {
          "internalType": "uint256",
          "name": "gasreq",
          "type": "uint256"
        },
        {
          "internalType": "uint256",
          "name": "gasprice",
          "type": "uint256"
        },
        {
          "internalType": "uint256",
          "name": "offerId",
          "type": "uint256"
        }
      ],
      "name": "getMissingProvision",
      "outputs": [
        {
          "internalType": "uint256",
          "name": "",
          "type": "uint256"
        }
      ],
      "stateMutability": "view",
      "type": "function"
    },
    {
      "inputs": [
        {
          "components": [
            {
              "internalType": "address",
              "name": "outbound_tkn",
              "type": "address"
            },
            {
              "internalType": "address",
              "name": "inbound_tkn",
              "type": "address"
            },
            {
              "internalType": "uint256",
              "name": "offerId",
              "type": "uint256"
            },
            {
              "internalType": "Offer.t",
              "name": "offer",
              "type": "uint256"
            },
            {
              "internalType": "uint256",
              "name": "wants",
              "type": "uint256"
            },
            {
              "internalType": "uint256",
              "name": "gives",
              "type": "uint256"
            },
            {
              "internalType": "OfferDetail.t",
              "name": "offerDetail",
              "type": "uint256"
            },
            {
              "internalType": "Global.t",
              "name": "global",
              "type": "uint256"
            },
            {
              "internalType": "Local.t",
              "name": "local",
              "type": "uint256"
            }
          ],
          "internalType": "struct MgvLib.SingleOrder",
          "name": "order",
          "type": "tuple"
        }
      ],
      "name": "makerExecute",
      "outputs": [
        {
          "internalType": "bytes32",
          "name": "ret",
          "type": "bytes32"
        }
      ],
      "stateMutability": "nonpayable",
      "type": "function"
    },
    {
      "inputs": [
        {
          "components": [
            {
              "internalType": "address",
              "name": "outbound_tkn",
              "type": "address"
            },
            {
              "internalType": "address",
              "name": "inbound_tkn",
              "type": "address"
            },
            {
              "internalType": "uint256",
              "name": "offerId",
              "type": "uint256"
            },
            {
              "internalType": "Offer.t",
              "name": "offer",
              "type": "uint256"
            },
            {
              "internalType": "uint256",
              "name": "wants",
              "type": "uint256"
            },
            {
              "internalType": "uint256",
              "name": "gives",
              "type": "uint256"
            },
            {
              "internalType": "OfferDetail.t",
              "name": "offerDetail",
              "type": "uint256"
            },
            {
              "internalType": "Global.t",
              "name": "global",
              "type": "uint256"
            },
            {
              "internalType": "Local.t",
              "name": "local",
              "type": "uint256"
            }
          ],
          "internalType": "struct MgvLib.SingleOrder",
          "name": "order",
          "type": "tuple"
        },
        {
          "components": [
            {
              "internalType": "bytes32",
              "name": "makerData",
              "type": "bytes32"
            },
            {
              "internalType": "bytes32",
              "name": "mgvData",
              "type": "bytes32"
            }
          ],
          "internalType": "struct MgvLib.OrderResult",
          "name": "result",
          "type": "tuple"
        }
      ],
      "name": "makerPosthook",
      "outputs": [],
      "stateMutability": "nonpayable",
      "type": "function"
    },
    {
      "inputs": [
        {
          "internalType": "address",
          "name": "",
          "type": "address"
        }
      ],
      "name": "mgvBalance",
      "outputs": [
        {
          "internalType": "uint256",
          "name": "",
          "type": "uint256"
        }
      ],
      "stateMutability": "view",
      "type": "function"
    },
    {
      "inputs": [
        {
          "internalType": "address",
          "name": "outbound_tkn",
          "type": "address"
        },
        {
          "internalType": "address",
          "name": "inbound_tkn",
          "type": "address"
        },
        {
          "internalType": "uint256",
          "name": "wants",
          "type": "uint256"
        },
        {
          "internalType": "uint256",
          "name": "gives",
          "type": "uint256"
        },
        {
          "internalType": "uint256",
          "name": "gasreq",
          "type": "uint256"
        },
        {
          "internalType": "uint256",
          "name": "gasprice",
          "type": "uint256"
        },
        {
          "internalType": "uint256",
          "name": "pivotId",
          "type": "uint256"
        }
      ],
      "name": "newOffer",
      "outputs": [
        {
          "internalType": "uint256",
          "name": "offerId",
          "type": "uint256"
        }
      ],
      "stateMutability": "payable",
      "type": "function"
    },
    {
      "inputs": [
        {
          "internalType": "address",
          "name": "reader",
          "type": "address"
        },
        {
          "internalType": "address",
          "name": "outbound_tkn",
          "type": "address"
        },
        {
          "internalType": "address",
          "name": "inbound_tkn",
          "type": "address"
        },
        {
          "internalType": "uint256",
          "name": "fromId",
          "type": "uint256"
        },
        {
          "internalType": "uint256",
          "name": "maxOffers",
          "type": "uint256"
        }
      ],
      "name": "offerOwners",
      "outputs": [
        {
          "internalType": "uint256",
          "name": "nextId",
          "type": "uint256"
        },
        {
          "internalType": "uint256[]",
          "name": "offerIds",
          "type": "uint256[]"
        },
        {
          "internalType": "address[]",
          "name": "__offerOwners",
          "type": "address[]"
        }
      ],
      "stateMutability": "view",
      "type": "function"
    },
    {
      "inputs": [
        {
          "internalType": "address",
          "name": "outbound_tkn",
          "type": "address"
        },
        {
          "internalType": "address",
          "name": "inbound_tkn",
          "type": "address"
        },
        {
          "internalType": "uint256",
          "name": "offerId",
          "type": "uint256"
        }
      ],
      "name": "ownerOf",
      "outputs": [
        {
          "internalType": "address",
          "name": "owner",
          "type": "address"
        }
      ],
      "stateMutability": "view",
      "type": "function"
    },
    {
      "inputs": [
        {
          "internalType": "address",
          "name": "token",
          "type": "address"
        },
        {
          "internalType": "address",
          "name": "receiver",
          "type": "address"
        },
        {
          "internalType": "uint256",
          "name": "amount",
          "type": "uint256"
        }
      ],
      "name": "redeemToken",
      "outputs": [
        {
          "internalType": "bool",
          "name": "success",
          "type": "bool"
        }
      ],
      "stateMutability": "nonpayable",
      "type": "function"
    },
    {
      "inputs": [
        {
          "internalType": "address",
          "name": "outbound_tkn",
          "type": "address"
        },
        {
          "internalType": "address",
          "name": "inbound_tkn",
          "type": "address"
        },
        {
          "internalType": "uint256",
          "name": "offerId",
          "type": "uint256"
        },
        {
          "internalType": "bool",
          "name": "deprovision",
          "type": "bool"
        }
      ],
      "name": "retractOffer",
      "outputs": [
        {
          "internalType": "uint256",
          "name": "received",
          "type": "uint256"
        }
      ],
      "stateMutability": "nonpayable",
      "type": "function"
    },
    {
      "inputs": [
        {
          "internalType": "address",
          "name": "_admin",
          "type": "address"
        }
      ],
      "name": "setAdmin",
      "outputs": [],
      "stateMutability": "nonpayable",
      "type": "function"
    },
    {
      "inputs": [
        {
          "internalType": "uint256",
          "name": "gasreq",
          "type": "uint256"
        }
      ],
      "name": "setGasreq",
      "outputs": [],
      "stateMutability": "nonpayable",
      "type": "function"
    },
    {
      "inputs": [
        {
          "internalType": "address",
          "name": "token",
          "type": "address"
        }
      ],
      "name": "tokenBalance",
      "outputs": [
        {
          "internalType": "uint256",
          "name": "",
          "type": "uint256"
        }
      ],
      "stateMutability": "view",
      "type": "function"
    },
    {
      "inputs": [
        {
          "internalType": "address",
          "name": "",
          "type": "address"
        },
        {
          "internalType": "address",
          "name": "",
          "type": "address"
        }
      ],
      "name": "tokenBalanceOf",
      "outputs": [
        {
          "internalType": "uint256",
          "name": "",
          "type": "uint256"
        }
      ],
      "stateMutability": "view",
      "type": "function"
    },
    {
      "inputs": [
        {
          "internalType": "address",
          "name": "outbound_tkn",
          "type": "address"
        },
        {
          "internalType": "address",
          "name": "inbound_tkn",
          "type": "address"
        },
        {
          "internalType": "uint256",
          "name": "wants",
          "type": "uint256"
        },
        {
          "internalType": "uint256",
          "name": "gives",
          "type": "uint256"
        },
        {
          "internalType": "uint256",
          "name": "gasreq",
          "type": "uint256"
        },
        {
          "internalType": "uint256",
          "name": "gasprice",
          "type": "uint256"
        },
        {
          "internalType": "uint256",
          "name": "pivotId",
          "type": "uint256"
        },
        {
          "internalType": "uint256",
          "name": "offerId",
          "type": "uint256"
        }
      ],
      "name": "updateOffer",
      "outputs": [],
      "stateMutability": "payable",
      "type": "function"
    },
    {
      "inputs": [
        {
          "internalType": "address payable",
          "name": "receiver",
          "type": "address"
        },
        {
          "internalType": "uint256",
          "name": "amount",
          "type": "uint256"
        }
      ],
      "name": "withdrawFromMangrove",
      "outputs": [
        {
          "internalType": "bool",
          "name": "noRevert",
          "type": "bool"
        }
      ],
      "stateMutability": "nonpayable",
      "type": "function"
    },
    {
      "stateMutability": "payable",
      "type": "receive"
    }
  ],
  "transactionHash": "0xda945f08d9deaaf07a46a6cd8a40fcf168f71c8840c20ca445cf78d51b66461b",
  "args": [
    "0xa34b6ADdf822177258Cbd0A9c3a80600C1028Ca8"
  ],
  "solcInputHash": "3541e2eb00f8f89e6f005d4e098215c1",
  "bytecode": "0x6101006040527f4d616e67726f76654f666665722f72656e6567656400000000000000000000006080527f4d616e67726f76654f666665722f7075744661696c757265000000000000000060a0527f4d616e67726f76654f666665722f6f75744f664c69717569646974790000000060c052620186a06001553480156200008557600080fd5b506040516200342538038062003425833981016040819052620000a891620000cc565b600080546001600160a01b031916331790556001600160a01b031660e052620000fe565b600060208284031215620000df57600080fd5b81516001600160a01b0381168114620000f757600080fd5b9392505050565b60805160a05160c05160e051613272620001b36000396000818161031c01528181610902015281816109ff01528181610bce01528181610f520152818161149f0152818161187b01528181611a9e01528181611b8c01528181611c5501528181611db801528181611ec201528181611f5e015281816122a501528181612378015281816124410152818161258e0152612733015260008181610afa0152610e0401526000610d340152600050506132726000f3fe6080604052600436106101795760003560e01c806399fa5e2d116100cb578063e428204d1161007f578063f851a44011610059578063f851a44014610483578063f92495e5146104b0578063faa030ec146104d057600080fd5b8063e428204d146103ff578063e4c34f8414610415578063eedc966a1461043557600080fd5b8063aefe8403116100b0578063aefe840314610383578063d1971159146103a3578063df242667146103d257600080fd5b806399fa5e2d1461030a578063ad97db1b1461036357600080fd5b80633d3d130d1161012d5780636a4f7691116101075780636a4f7691146102b75780636c49c32c146102ca578063704b6c02146102ea57600080fd5b80633d3d130d14610262578063458eda9a1461028257806349f6d2dc146102a457600080fd5b80631bea80061161015e5780631bea8006146101da578063338b5dea1461022057806334bd89311461024057600080fd5b8063063df2d2146101855780630d71bdc3146101ba57600080fd5b3661018057005b600080fd5b34801561019157600080fd5b506101a56101a0366004612894565b6104d8565b60405190151581526020015b60405180910390f35b3480156101c657600080fd5b506101a56101d53660046128c0565b610566565b3480156101e657600080fd5b506102126101f5366004612901565b600460209081526000928352604080842090915290825290205481565b6040519081526020016101b1565b34801561022c57600080fd5b506101a561023b366004612894565b61067e565b34801561024c57600080fd5b5061026061025b36600461293a565b6108c9565b005b34801561026e57600080fd5b5061026061027d366004612966565b6109fd565b34801561028e57600080fd5b5033600090815260036020526040902054610212565b6102126102b23660046129c6565b610b24565b6102606102c5366004612a28565b610bad565b3480156102d657600080fd5b506102126102e5366004612a93565b610bca565b3480156102f657600080fd5b50610260610305366004612ab0565b610e35565b34801561031657600080fd5b5061033e7f000000000000000000000000000000000000000000000000000000000000000081565b60405173ffffffffffffffffffffffffffffffffffffffff90911681526020016101b1565b34801561036f57600080fd5b5061021261037e366004612adb565b610efd565b34801561038f57600080fd5b5061026061039e366004612894565b610f15565b3480156103af57600080fd5b506103c36103be366004612b2e565b611038565b6040516101b193929190612b89565b3480156103de57600080fd5b506102126103ed366004612ab0565b60036020526000908152604090205481565b34801561040b57600080fd5b5061021260015481565b34801561042157600080fd5b50610212610430366004612c25565b6111db565b34801561044157600080fd5b50610212610450366004612ab0565b73ffffffffffffffffffffffffffffffffffffffff16600090815260046020908152604080832033845290915290205490565b34801561048f57600080fd5b5060005461033e9073ffffffffffffffffffffffffffffffffffffffff1681565b3480156104bc57600080fd5b5061033e6104cb3660046128c0565b611233565b6102606112de565b600033301415610549576040517f08c379a000000000000000000000000000000000000000000000000000000000815260206004820152601260248201527f4d75746c692f6e6f5265656e7472616e6379000000000000000000000000000060448201526064015b60405180910390fd5b6105533383611354565b61055d838361146d565b90505b92915050565b6000333014156105d2576040517f08c379a000000000000000000000000000000000000000000000000000000000815260206004820152601260248201527f4d75746c692f6e6f5265656e7472616e637900000000000000000000000000006044820152606401610540565b6105dd843384611639565b6040517fa9059cbb00000000000000000000000000000000000000000000000000000000815273ffffffffffffffffffffffffffffffffffffffff84811660048301526024820184905285169063a9059cbb906044016020604051808303816000875af1158015610652573d6000803e3d6000fd5b505050506040513d601f19601f820116820180604052508101906106769190612c76565b949350505050565b6040517f70a08231000000000000000000000000000000000000000000000000000000008152306004820152600090819073ffffffffffffffffffffffffffffffffffffffff8516906370a0823190602401602060405180830381865afa1580156106ed573d6000803e3d6000fd5b505050506040513d601f19601f820116820180604052508101906107119190612c93565b6040517f23b872dd0000000000000000000000000000000000000000000000000000000081523360048201523060248201526044810185905290915073ffffffffffffffffffffffffffffffffffffffff8516906323b872dd906064016020604051808303816000875af115801561078d573d6000803e3d6000fd5b505050506040513d601f19601f820116820180604052508101906107b19190612c76565b6040517f70a082310000000000000000000000000000000000000000000000000000000081523060048201529092508390829073ffffffffffffffffffffffffffffffffffffffff8716906370a0823190602401602060405180830381865afa158015610822573d6000803e3d6000fd5b505050506040513d601f19601f820116820180604052508101906108469190612c93565b6108509190612cdb565b146108b7576040517f08c379a000000000000000000000000000000000000000000000000000000000815260206004820152601260248201527f4d756c74692f7472616e736665724661696c00000000000000000000000000006044820152606401610540565b6108c2843385611796565b5092915050565b60005473ffffffffffffffffffffffffffffffffffffffff1633148061092457503373ffffffffffffffffffffffffffffffffffffffff7f000000000000000000000000000000000000000000000000000000000000000016145b61098a576040517f08c379a000000000000000000000000000000000000000000000000000000000815260206004820152601860248201527f416363657373436f6e74726f6c6c65642f496e76616c696400000000000000006044820152606401610540565b808162ffffff16146109f8576040517f08c379a000000000000000000000000000000000000000000000000000000000815260206004820152601d60248201527f4d616e67726f76654f666665722f6761737265712f6f766572666c6f770000006044820152606401610540565b600155565b7f000000000000000000000000000000000000000000000000000000000000000073ffffffffffffffffffffffffffffffffffffffff81161580610a5657503373ffffffffffffffffffffffffffffffffffffffff8216145b610abc576040517f08c379a000000000000000000000000000000000000000000000000000000000815260206004820152601860248201527f416363657373436f6e74726f6c6c65642f496e76616c696400000000000000006044820152606401610540565b81602001357f6d67762f747261646553756363657373000000000000000000000000000000001415610af657610af183611840565b505050565b81357f00000000000000000000000000000000000000000000000000000000000000001415610af157505050565b600033301415610b90576040517f08c379a000000000000000000000000000000000000000000000000000000000815260206004820152601260248201527f4d75746c692f6e6f5265656e7472616e637900000000000000000000000000006044820152606401610540565b610ba1888888888888883334611a56565b98975050505050505050565b610bbf88888888888888883334611ce6565b505050505050505050565b60007f000000000000000000000000000000000000000000000000000000000000000073ffffffffffffffffffffffffffffffffffffffff81161580610c2557503373ffffffffffffffffffffffffffffffffffffffff8216145b610c8b576040517f08c379a000000000000000000000000000000000000000000000000000000000815260206004820152601860248201527f416363657373436f6e74726f6c6c65642f496e76616c696400000000000000006044820152606401610540565b6000610c9b8460a0013585611fac565b90508015610d5b57610cb36040850160208601612ab0565b73ffffffffffffffffffffffffffffffffffffffff16610cd66020860186612ab0565b73ffffffffffffffffffffffffffffffffffffffff167f3482722a7c71a098521214cdb975e1d9faa0b0163f768e89566f7acc36cffd0b866040013584604051610d2a929190918252602082015260400190565b60405180910390a37f0000000000000000000000000000000000000000000000000000000000000000925050610e2f565b6000610d6b85608001358661209e565b90508015610e2c57610d836040860160208701612ab0565b73ffffffffffffffffffffffffffffffffffffffff16610da66020870187612ab0565b73ffffffffffffffffffffffffffffffffffffffff167fc99fe658c80b903af0e1270f4a55564b3a7509294ab1052c6ab07f8198baea67876040013584604051610dfa929190918252602082015260400190565b60405180910390a37f000000000000000000000000000000000000000000000000000000000000000093505050610e2f565b50505b50919050565b60005473ffffffffffffffffffffffffffffffffffffffff163314610eb6576040517f08c379a000000000000000000000000000000000000000000000000000000000815260206004820152601860248201527f416363657373436f6e74726f6c6c65642f496e76616c696400000000000000006044820152606401610540565b600080547fffffffffffffffffffffffff00000000000000000000000000000000000000001673ffffffffffffffffffffffffffffffffffffffff92909216919091179055565b6000610f0c858585853361219f565b95945050505050565b6040517f095ea7b300000000000000000000000000000000000000000000000000000000815273ffffffffffffffffffffffffffffffffffffffff7f0000000000000000000000000000000000000000000000000000000000000000811660048301526024820183905283169063095ea7b3906044016020604051808303816000875af1158015610faa573d6000803e3d6000fd5b505050506040513d601f19601f82011682018060405250810190610fce9190612c76565b611034576040517f08c379a000000000000000000000000000000000000000000000000000000000815260206004820152601560248201527f6d67764f666665722f617070726f76652f4661696c00000000000000000000006044820152606401610540565b5050565b6040517f2c7e545f00000000000000000000000000000000000000000000000000000000815273ffffffffffffffffffffffffffffffffffffffff858116600483015284811660248301526044820184905260648201839052600091606091829190891690632c7e545f90608401600060405180830381865afa1580156110c3573d6000803e3d6000fd5b505050506040513d6000823e601f3d9081017fffffffffffffffffffffffffffffffffffffffffffffffffffffffffffffffe01682016040526111099190810190612f0b565b50508051919450925067ffffffffffffffff81111561112a5761112a612cf2565b604051908082528060200260200182016040528015611153578160200160208202803683370190505b50905060005b82518110156111cf57611186888885848151811061117957611179613000565b6020026020010151611233565b82828151811061119857611198613000565b73ffffffffffffffffffffffffffffffffffffffff90921660209283029190910190910152806111c78161302f565b915050611159565b50955095509592505050565b600080821561121a5760006111f1888886611233565b73ffffffffffffffffffffffffffffffffffffffff166000908152600360205260409020549150505b611228818888888888612324565b979650505050505050565b73ffffffffffffffffffffffffffffffffffffffff80841660009081526002602090815260408083208685168452825280832085845290915290205416806112d7576040517f08c379a000000000000000000000000000000000000000000000000000000000815260206004820152601560248201527f6d756c7469557365722f756e6b6f776e4f6666657200000000000000000000006044820152606401610540565b9392505050565b33301415611348576040517f08c379a000000000000000000000000000000000000000000000000000000000815260206004820152601260248201527f4d75746c692f6e6f5265656e7472616e637900000000000000000000000000006044820152606401610540565b611352333461258c565b565b73ffffffffffffffffffffffffffffffffffffffff82166000908152600360205260409020548111156113e3576040517f08c379a000000000000000000000000000000000000000000000000000000000815260206004820152601d60248201527f4d756c74692f64656269744f6e4d67762f696e73756666696369656e740000006044820152606401610540565b73ffffffffffffffffffffffffffffffffffffffff821660009081526003602052604081208054839290611418908490612cdb565b909155505060405181815273ffffffffffffffffffffffffffffffffffffffff8316907fd50b865b3d9d927f026d3b8404e07f25d6beb1d111deab51bdc846bf8d0a860b906020015b60405180910390a25050565b6040517f2e1a7d4d000000000000000000000000000000000000000000000000000000008152600481018290526000907f000000000000000000000000000000000000000000000000000000000000000073ffffffffffffffffffffffffffffffffffffffff1690632e1a7d4d906024016020604051808303816000875af11580156114fd573d6000803e3d6000fd5b505050506040513d601f19601f820116820180604052508101906115219190612c76565b6115ad576040517f08c379a000000000000000000000000000000000000000000000000000000000815260206004820152602360248201527f4d616e67726f76654f666665722f77697468647261772f7472616e736665724660448201527f61696c00000000000000000000000000000000000000000000000000000000006064820152608401610540565b73ffffffffffffffffffffffffffffffffffffffff831630146116305760405173ffffffffffffffffffffffffffffffffffffffff8416908390600081818185875af1925050503d8060008114611620576040519150601f19603f3d011682016040523d82523d6000602084013e611625565b606091505b505080915050610560565b50600192915050565b8061164357505050565b73ffffffffffffffffffffffffffffffffffffffff8084166000908152600460209081526040808320938616835292905220548111156116df576040517f08c379a000000000000000000000000000000000000000000000000000000000815260206004820152601d60248201527f4d756c74692f6465626974546f6b656e2f696e73756666696369656e740000006044820152606401610540565b73ffffffffffffffffffffffffffffffffffffffff808416600090815260046020908152604080832093861683529290529081208054839290611723908490612cdb565b925050819055508273ffffffffffffffffffffffffffffffffffffffff168273ffffffffffffffffffffffffffffffffffffffff167f7a97b405ee1bd89550b225932dbdd0431e30426b7c8f02f05b3cb0e1bdfb84768360405161178991815260200190565b60405180910390a3505050565b73ffffffffffffffffffffffffffffffffffffffff8084166000908152600460209081526040808320938616835292905290812080548392906117da908490613068565b925050819055508273ffffffffffffffffffffffffffffffffffffffff168273ffffffffffffffffffffffffffffffffffffffff167fb2b1ec266d1bab793ae1d020eedf03e575cc390e5fb9e370cb099fdf2f61534d8360405161178991815260200190565b600061184b82612617565b905060006118588361263c565b90508161186457505050565b73ffffffffffffffffffffffffffffffffffffffff7f000000000000000000000000000000000000000000000000000000000000000016636a4f76916118ad6020860186612ab0565b6118bd6040870160208801612ab0565b848660c089013560481c62ffffff1660c08a013560201c61ffff1660608b013560c01c63ffffffff16604080517fffffffff0000000000000000000000000000000000000000000000000000000060e08b901b16815273ffffffffffffffffffffffffffffffffffffffff988916600482015297909616602488015260448701949094526064860192909252608485015260a484015260c483015286013560e482015261010401600060405180830381600087803b15801561197e57600080fd5b505af192505050801561198f575060015b610af15761199b613080565b806308c379a01415611a4757506119b061309c565b806119bb5750611a49565b6119cb6040850160208601612ab0565b73ffffffffffffffffffffffffffffffffffffffff166119ee6020860186612ab0565b73ffffffffffffffffffffffffffffffffffffffff167f768269e5e6803a8bc566de9364d8347774fff5b114c5a2ec556ab0459a172426866040013584604051611a399291906131af565b60405180910390a350505050565b505b3d6000803e3d6000fd5b50565b6040517f70a08231000000000000000000000000000000000000000000000000000000008152306004820152600090819073ffffffffffffffffffffffffffffffffffffffff7f000000000000000000000000000000000000000000000000000000000000000016906370a0823190602401602060405180830381865afa158015611ae5573d6000803e3d6000fd5b505050506040513d601f19601f82011682018060405250810190611b099190612c93565b905062ffffff871115611b1c5760015496505b6040517f49f6d2dc00000000000000000000000000000000000000000000000000000000815273ffffffffffffffffffffffffffffffffffffffff8c811660048301528b81166024830152604482018b9052606482018a90526084820189905260a4820188905260c482018790527f000000000000000000000000000000000000000000000000000000000000000016906349f6d2dc90859060e40160206040518083038185885af193505050508015611c11575060408051601f3d9081017fffffffffffffffffffffffffffffffffffffffffffffffffffffffffffffffe0168201909252611c0e91810190612c93565b60015b611cba57611c1d613080565b806308c379a01415611a475750611c3261309c565b80611c3d5750611a49565b3373ffffffffffffffffffffffffffffffffffffffff7f0000000000000000000000000000000000000000000000000000000000000000161415611c8657600092505050611cd9565b806040517f08c379a000000000000000000000000000000000000000000000000000000000815260040161054091906131c8565b611cc68c8c838861265e565b611cd08583612702565b9150611cd99050565b9998505050505050505050565b6000611cf38b8b86611233565b73ffffffffffffffffffffffffffffffffffffffff168373ffffffffffffffffffffffffffffffffffffffff1614611d87576040517f08c379a000000000000000000000000000000000000000000000000000000000815260206004820152601e60248201527f4d756c74692f7570646174654f666665722f756e617574686f72697a656400006044820152606401610540565b6040517f70a082310000000000000000000000000000000000000000000000000000000081523060048201526000907f000000000000000000000000000000000000000000000000000000000000000073ffffffffffffffffffffffffffffffffffffffff16906370a0823190602401602060405180830381865afa158015611e14573d6000803e3d6000fd5b505050506040513d601f19601f82011682018060405250810190611e389190612c93565b905062ffffff881115611e4b5760015497505b6040517f6a4f769100000000000000000000000000000000000000000000000000000000815273ffffffffffffffffffffffffffffffffffffffff8d811660048301528c81166024830152604482018c9052606482018b9052608482018a905260a4820189905260c4820188905260e482018790527f00000000000000000000000000000000000000000000000000000000000000001690636a4f7691908590610104016000604051808303818588803b158015611f0857600080fd5b505af193505050508015611f1a575060015b611f8f57611f26613080565b806308c379a01415611a475750611f3b61309c565b80611f465750611a49565b3373ffffffffffffffffffffffffffffffffffffffff7f0000000000000000000000000000000000000000000000000000000000000000161415611c8657600092505050611f9e565b611f998482612702565b849150505b9a9950505050505050505050565b600080611fd9611fbf6020850185612ab0565b611fcf6040860160208701612ab0565b8560400135611233565b9050611feb6040840160208501612ab0565b6040517fa9059cbb00000000000000000000000000000000000000000000000000000000815273ffffffffffffffffffffffffffffffffffffffff838116600483015260248201879052919091169063a9059cbb906044016020604051808303816000875af1158015612062573d6000803e3d6000fd5b505050506040513d601f19601f820116820180604052508101906120869190612c76565b15612095576000915050610560565b83915050610560565b6000806120b1611fbf6020850185612ab0565b90506120c06020840184612ab0565b6040517f23b872dd00000000000000000000000000000000000000000000000000000000815273ffffffffffffffffffffffffffffffffffffffff83811660048301523060248301526044820187905291909116906323b872dd906064016020604051808303816000875af1925050508015612177575060408051601f3d9081017fffffffffffffffffffffffffffffffffffffffffffffffffffffffffffffffe016820190925261217491810190612c76565b60015b6121845783915050610560565b801561219557600092505050610560565b8492505050610560565b73ffffffffffffffffffffffffffffffffffffffff8581166000908152600260209081526040808320888516845282528083208784529091528120549091838116911614612249576040517f08c379a000000000000000000000000000000000000000000000000000000000815260206004820152601f60248201527f4d756c74692f726574726163744f666665722f756e617574686f72697a6564006044820152606401610540565b6040517fad97db1b00000000000000000000000000000000000000000000000000000000815273ffffffffffffffffffffffffffffffffffffffff878116600483015286811660248301526044820186905284151560648301527f0000000000000000000000000000000000000000000000000000000000000000169063ad97db1b906084016020604051808303816000875af11580156122ee573d6000803e3d6000fd5b505050506040513d601f19601f820116820180604052508101906123129190612c93565b90508015610f0c57610f0c82826127f0565b6040517fcbf75c9a00000000000000000000000000000000000000000000000000000000815273ffffffffffffffffffffffffffffffffffffffff86811660048301528581166024830152600091829182917f00000000000000000000000000000000000000000000000000000000000000009091169063cbf75c9a906044016040805180830381865afa1580156123c0573d6000803e3d6000fd5b505050506040513d601f19601f820116820180604052508101906123e491906131db565b6040517f5722647b00000000000000000000000000000000000000000000000000000000815273ffffffffffffffffffffffffffffffffffffffff8b811660048301528a81166024830152604482018890529294509092506000917f00000000000000000000000000000000000000000000000000000000000000001690635722647b90606401602060405180830381865afa158015612488573d6000803e3d6000fd5b505050506040513d601f19601f820116820180604052508101906124ac9190612c93565b9050600086604085901c61ffff1611156124cf575061ffff604084901c166124d2565b50855b62ffffff8811156124e35760015497505b6000816124f962ffffff606087901c168b613068565b61250391906131ff565b61251190633b9aca006131ff565b9050600061ffff602085901c1661253862ffffff603087901c811690604888901c16613068565b61254291906131ff565b61255090633b9aca006131ff565b9050600061255e8e83613068565b905082811015612577576125728184612cdb565b61257a565b60005b9e9d5050505050505050505050505050565b7f000000000000000000000000000000000000000000000000000000000000000073ffffffffffffffffffffffffffffffffffffffff1663b60d4288826040518263ffffffff1660e01b81526004016000604051808303818588803b1580156125f457600080fd5b505af1158015612608573d6000803e3d6000fd5b505050505061103482826127f0565b600060808201356bffffffffffffffffffffffff6060840135165b6105609190612cdb565b600060a0820135606080840135901c6bffffffffffffffffffffffff16612632565b73ffffffffffffffffffffffffffffffffffffffff848116600081815260026020908152604080832088861680855290835281842088855283529281902080547fffffffffffffffffffffffff00000000000000000000000000000000000000001695871695861790555193845285939192917fabf04a4ce23225c02bd147297da7ffc10e7d29102d8678f1a63fdd2cfd71ff07910160405180910390a450505050565b6040517f70a082310000000000000000000000000000000000000000000000000000000081523060048201526000907f000000000000000000000000000000000000000000000000000000000000000073ffffffffffffffffffffffffffffffffffffffff16906370a0823190602401602060405180830381865afa15801561278f573d6000803e3d6000fd5b505050506040513d601f19601f820116820180604052508101906127b39190612c93565b9050818114156127c257505050565b818111156127dd57610af1836127d88484612cdb565b6127f0565b610af1836127eb8385612cdb565b611354565b73ffffffffffffffffffffffffffffffffffffffff821660009081526003602052604081208054839290612825908490613068565b909155505060405181815273ffffffffffffffffffffffffffffffffffffffff8316907f2022607feefe24f258126b277628af517f5512dd9499fb3520eeff54cad1370390602001611461565b73ffffffffffffffffffffffffffffffffffffffff81168114611a5357600080fd5b600080604083850312156128a757600080fd5b82356128b281612872565b946020939093013593505050565b6000806000606084860312156128d557600080fd5b83356128e081612872565b925060208401356128f081612872565b929592945050506040919091013590565b6000806040838503121561291457600080fd5b823561291f81612872565b9150602083013561292f81612872565b809150509250929050565b60006020828403121561294c57600080fd5b5035919050565b60006101208284031215610e2f57600080fd5b60008082840361016081121561297b57600080fd5b6129858585612953565b925060407ffffffffffffffffffffffffffffffffffffffffffffffffffffffffffffffee0820112156129b757600080fd5b50610120830190509250929050565b600080600080600080600060e0888a0312156129e157600080fd5b87356129ec81612872565b965060208801356129fc81612872565b96999698505050506040850135946060810135946080820135945060a0820135935060c0909101359150565b600080600080600080600080610100898b031215612a4557600080fd5b8835612a5081612872565b97506020890135612a6081612872565b979a9799505050506040860135956060810135956080820135955060a0820135945060c0820135935060e0909101359150565b60006101208284031215612aa657600080fd5b61055d8383612953565b600060208284031215612ac257600080fd5b81356112d781612872565b8015158114611a5357600080fd5b60008060008060808587031215612af157600080fd5b8435612afc81612872565b93506020850135612b0c81612872565b9250604085013591506060850135612b2381612acd565b939692955090935050565b600080600080600060a08688031215612b4657600080fd5b8535612b5181612872565b94506020860135612b6181612872565b93506040860135612b7181612872565b94979396509394606081013594506080013592915050565b6000606082018583526020606081850152818651808452608086019150828801935060005b81811015612bca57845183529383019391830191600101612bae565b50508481036040860152855180825290820192508186019060005b81811015612c1757825173ffffffffffffffffffffffffffffffffffffffff1685529383019391830191600101612be5565b509298975050505050505050565b600080600080600060a08688031215612c3d57600080fd5b8535612c4881612872565b94506020860135612c5881612872565b94979496505050506040830135926060810135926080909101359150565b600060208284031215612c8857600080fd5b81516112d781612acd565b600060208284031215612ca557600080fd5b5051919050565b7f4e487b7100000000000000000000000000000000000000000000000000000000600052601160045260246000fd5b600082821015612ced57612ced612cac565b500390565b7f4e487b7100000000000000000000000000000000000000000000000000000000600052604160045260246000fd5b6080810181811067ffffffffffffffff82111715612d4157612d41612cf2565b60405250565b7fffffffffffffffffffffffffffffffffffffffffffffffffffffffffffffffe0601f830116810181811067ffffffffffffffff82111715612d8b57612d8b612cf2565b6040525050565b600067ffffffffffffffff821115612dac57612dac612cf2565b5060051b60200190565b600082601f830112612dc757600080fd5b81516020612dd482612d92565b60408051612de28382612d47565b84815260079490941b8601830193838101925087851115612e0257600080fd5b8387015b85811015612e56576080818a031215612e1f5760008081fd5b8251612e2a81612d21565b815181528582015186820152838201518482015260608083015190820152845292840192608001612e06565b50979650505050505050565b600082601f830112612e7357600080fd5b81516020612e8082612d92565b60408051612e8e8382612d47565b84815260079490941b8601830193838101925087851115612eae57600080fd5b8387015b85811015612e56576080818a031215612ecb5760008081fd5b8251612ed681612d21565b8151612ee181612872565b81528186015186820152838201518482015260608083015190820152845292840192608001612eb2565b60008060008060808587031215612f2157600080fd5b8451935060208086015167ffffffffffffffff80821115612f4157600080fd5b818801915088601f830112612f5557600080fd5b8151612f6081612d92565b604051612f6d8282612d47565b82815260059290921b840185019185810191508b831115612f8d57600080fd5b938501935b82851015612fab57845182529385019390850190612f92565b60408b01519098509450505080831115612fc457600080fd5b612fd089848a01612db6565b94506060880151925080831115612fe657600080fd5b5050612ff487828801612e62565b91505092959194509250565b7f4e487b7100000000000000000000000000000000000000000000000000000000600052603260045260246000fd5b60007fffffffffffffffffffffffffffffffffffffffffffffffffffffffffffffffff82141561306157613061612cac565b5060010190565b6000821982111561307b5761307b612cac565b500190565b600060033d11156130995760046000803e5060005160e01c5b90565b600060443d10156130aa5790565b6040517ffffffffffffffffffffffffffffffffffffffffffffffffffffffffffffffffc803d016004833e81513d67ffffffffffffffff81602484011181841117156130f857505050505090565b82850191508151818111156131105750505050505090565b843d870101602082850101111561312a5750505050505090565b61313960208286010187612d47565b509095945050505050565b6000815180845260005b8181101561316a5760208185018101518683018201520161314e565b8181111561317c576000602083870101525b50601f017fffffffffffffffffffffffffffffffffffffffffffffffffffffffffffffffe0169290920160200192915050565b8281526040602082015260006106766040830184613144565b60208152600061055d6020830184613144565b600080604083850312156131ee57600080fd5b505080516020909101519092909150565b6000817fffffffffffffffffffffffffffffffffffffffffffffffffffffffffffffffff048311821515161561323757613237612cac565b50029056fea2646970667358221220b8f830ac485baad739dce3f3bae0eb134e340145e3138fde10bf20202dc82c3564736f6c634300080a0033",
  "devdoc": {
    "kind": "dev",
    "methods": {},
    "version": 1
  },
  "userdoc": {
    "events": {
      "NewOwnedOffer(address,address,uint256,address)": {
        "notice": "Multi offer specific Events "
      },
      "PosthookFail(address,address,uint256,string)": {
        "notice": "Events "
      }
    },
    "kind": "user",
    "methods": {
      "approveMangrove(address,uint256)": {
        "notice": "`this` contract needs to approve Mangrove to let it perform outbound token transfer at the end of the `makerExecute` function NB anyone can call this function"
      },
      "withdrawFromMangrove(address,uint256)": {
        "notice": "withdraws ETH from the bounty vault of the Mangrove. NB: `Mangrove.fund` function need not be called by `this` so is not included here. Warning: this function should not be called internally for msg.sender provision is being checked"
      }
    },
    "version": 1
  },
  "storageLayout": {
    "storage": [
      {
        "astId": 21694,
        "contract": "contracts/Strategies/OfferLogics/MultiUsers/Deployable/OasisLike.sol:OasisLike",
        "label": "admin",
        "offset": 0,
        "slot": "0",
        "type": "t_address"
      },
      {
        "astId": 11508,
        "contract": "contracts/Strategies/OfferLogics/MultiUsers/Deployable/OasisLike.sol:OasisLike",
        "label": "OFR_GASREQ",
        "offset": 0,
        "slot": "1",
        "type": "t_uint256"
      },
      {
        "astId": 13101,
        "contract": "contracts/Strategies/OfferLogics/MultiUsers/Deployable/OasisLike.sol:OasisLike",
        "label": "_offerOwners",
        "offset": 0,
        "slot": "2",
        "type": "t_mapping(t_address,t_mapping(t_address,t_mapping(t_uint256,t_address)))"
      },
      {
        "astId": 13105,
        "contract": "contracts/Strategies/OfferLogics/MultiUsers/Deployable/OasisLike.sol:OasisLike",
        "label": "mgvBalance",
        "offset": 0,
        "slot": "3",
        "type": "t_mapping(t_address,t_uint256)"
      },
      {
        "astId": 13111,
        "contract": "contracts/Strategies/OfferLogics/MultiUsers/Deployable/OasisLike.sol:OasisLike",
        "label": "tokenBalanceOf",
        "offset": 0,
        "slot": "4",
        "type": "t_mapping(t_address,t_mapping(t_address,t_uint256))"
      }
    ],
    "types": {
      "t_address": {
        "encoding": "inplace",
        "label": "address",
        "numberOfBytes": "20"
      },
      "t_mapping(t_address,t_mapping(t_address,t_mapping(t_uint256,t_address)))": {
        "encoding": "mapping",
        "key": "t_address",
        "label": "mapping(address => mapping(address => mapping(uint256 => address)))",
        "numberOfBytes": "32",
        "value": "t_mapping(t_address,t_mapping(t_uint256,t_address))"
      },
      "t_mapping(t_address,t_mapping(t_address,t_uint256))": {
        "encoding": "mapping",
        "key": "t_address",
        "label": "mapping(address => mapping(address => uint256))",
        "numberOfBytes": "32",
        "value": "t_mapping(t_address,t_uint256)"
      },
      "t_mapping(t_address,t_mapping(t_uint256,t_address))": {
        "encoding": "mapping",
        "key": "t_address",
        "label": "mapping(address => mapping(uint256 => address))",
        "numberOfBytes": "32",
        "value": "t_mapping(t_uint256,t_address)"
      },
      "t_mapping(t_address,t_uint256)": {
        "encoding": "mapping",
        "key": "t_address",
        "label": "mapping(address => uint256)",
        "numberOfBytes": "32",
        "value": "t_uint256"
      },
      "t_mapping(t_uint256,t_address)": {
        "encoding": "mapping",
        "key": "t_uint256",
        "label": "mapping(uint256 => address)",
        "numberOfBytes": "32",
        "value": "t_address"
      },
      "t_uint256": {
        "encoding": "inplace",
        "label": "uint256",
        "numberOfBytes": "32"
      }
    }
  }
}