{
  "address": "0x2F1281443072585b2D07D0d6B7242987f4c91533",
  "abi": [
    {
      "inputs": [
        {
          "internalType": "address",
          "name": "_addressesProvider",
          "type": "address"
        },
        {
          "internalType": "address payable",
          "name": "_MGV",
          "type": "address"
        }
      ],
      "stateMutability": "nonpayable",
      "type": "constructor"
    },
    {
      "anonymous": false,
      "inputs": [
        {
          "indexed": true,
          "internalType": "address",
          "name": "user",
          "type": "address"
        },
        {
          "indexed": false,
          "internalType": "uint256",
          "name": "amount",
          "type": "uint256"
        }
      ],
      "name": "CreditMgvUser",
      "type": "event"
    },
    {
      "anonymous": false,
      "inputs": [
        {
          "indexed": true,
          "internalType": "address",
          "name": "user",
          "type": "address"
        },
        {
          "indexed": true,
          "internalType": "address",
          "name": "token",
          "type": "address"
        },
        {
          "indexed": false,
          "internalType": "uint256",
          "name": "amount",
          "type": "uint256"
        }
      ],
      "name": "CreditUserTokenBalance",
      "type": "event"
    },
    {
      "anonymous": false,
      "inputs": [
        {
          "indexed": true,
          "internalType": "address",
          "name": "user",
          "type": "address"
        },
        {
          "indexed": false,
          "internalType": "uint256",
          "name": "amount",
          "type": "uint256"
        }
      ],
      "name": "DebitMgvUser",
      "type": "event"
    },
    {
      "anonymous": false,
      "inputs": [
        {
          "indexed": true,
          "internalType": "address",
          "name": "user",
          "type": "address"
        },
        {
          "indexed": true,
          "internalType": "address",
          "name": "token",
          "type": "address"
        },
        {
          "indexed": false,
          "internalType": "uint256",
          "name": "amount",
          "type": "uint256"
        }
      ],
      "name": "DebitUserTokenBalance",
      "type": "event"
    },
    {
      "anonymous": false,
      "inputs": [
        {
          "indexed": true,
          "internalType": "address",
          "name": "outbound_tkn",
          "type": "address"
        },
        {
          "indexed": true,
          "internalType": "address",
          "name": "inbound_tkn",
          "type": "address"
        },
        {
          "indexed": true,
          "internalType": "uint256",
          "name": "offerId",
          "type": "uint256"
        },
        {
          "indexed": false,
          "internalType": "uint256",
          "name": "amount",
          "type": "uint256"
        },
        {
          "indexed": false,
          "internalType": "string",
          "name": "errorCode",
          "type": "string"
        }
      ],
      "name": "ErrorOnMint",
      "type": "event"
    },
    {
      "anonymous": false,
      "inputs": [
        {
          "indexed": true,
          "internalType": "address",
          "name": "outbound_tkn",
          "type": "address"
        },
        {
          "indexed": true,
          "internalType": "address",
          "name": "inbound_tkn",
          "type": "address"
        },
        {
          "indexed": true,
          "internalType": "uint256",
          "name": "offerId",
          "type": "uint256"
        },
        {
          "indexed": false,
          "internalType": "uint256",
          "name": "amount",
          "type": "uint256"
        },
        {
          "indexed": false,
          "internalType": "string",
          "name": "errorCode",
          "type": "string"
        }
      ],
      "name": "ErrorOnRedeem",
      "type": "event"
    },
    {
      "anonymous": false,
      "inputs": [
        {
          "indexed": true,
          "internalType": "address",
          "name": "outbound_tkn",
          "type": "address"
        },
        {
          "indexed": true,
          "internalType": "address",
          "name": "inbound_tkn",
          "type": "address"
        },
        {
          "indexed": false,
          "internalType": "uint256",
          "name": "offerId",
          "type": "uint256"
        },
        {
          "indexed": false,
          "internalType": "uint256",
          "name": "missingAmount",
          "type": "uint256"
        }
      ],
      "name": "GetFail",
      "type": "event"
    },
    {
      "anonymous": false,
      "inputs": [
        {
          "indexed": true,
          "internalType": "address",
          "name": "outbound_tkn",
          "type": "address"
        },
        {
          "indexed": true,
          "internalType": "address",
          "name": "inbound_tkn",
          "type": "address"
        },
        {
          "indexed": true,
          "internalType": "uint256",
          "name": "offerId",
          "type": "uint256"
        },
        {
          "indexed": false,
          "internalType": "bytes",
          "name": "error_data",
          "type": "bytes"
        }
      ],
      "name": "LogIncident",
      "type": "event"
    },
    {
      "anonymous": false,
      "inputs": [
        {
          "indexed": true,
          "internalType": "address",
          "name": "outbound_tkn",
          "type": "address"
        },
        {
          "indexed": true,
          "internalType": "address",
          "name": "inbound_tkn",
          "type": "address"
        },
        {
          "indexed": true,
          "internalType": "uint256",
          "name": "offerId",
          "type": "uint256"
        },
        {
          "indexed": false,
          "internalType": "address",
          "name": "owner",
          "type": "address"
        }
      ],
      "name": "NewOwnedOffer",
      "type": "event"
    },
    {
      "anonymous": false,
      "inputs": [
        {
          "indexed": true,
          "internalType": "address",
          "name": "outbound_tkn",
          "type": "address"
        },
        {
          "indexed": true,
          "internalType": "address",
          "name": "inbound_tkn",
          "type": "address"
        },
        {
          "indexed": false,
          "internalType": "uint256",
          "name": "offerId",
          "type": "uint256"
        },
        {
          "indexed": false,
          "internalType": "string",
          "name": "message",
          "type": "string"
        }
      ],
      "name": "PosthookFail",
      "type": "event"
    },
    {
      "anonymous": false,
      "inputs": [
        {
          "indexed": true,
          "internalType": "address",
          "name": "outbound_tkn",
          "type": "address"
        },
        {
          "indexed": true,
          "internalType": "address",
          "name": "inbound_tkn",
          "type": "address"
        },
        {
          "indexed": false,
          "internalType": "uint256",
          "name": "offerId",
          "type": "uint256"
        },
        {
          "indexed": false,
          "internalType": "uint256",
          "name": "missingAmount",
          "type": "uint256"
        }
      ],
      "name": "PutFail",
      "type": "event"
    },
    {
      "anonymous": false,
      "inputs": [
        {
          "indexed": true,
          "internalType": "address",
          "name": "outbound_tkn",
          "type": "address"
        },
        {
          "indexed": true,
          "internalType": "address",
          "name": "inbound_tkn",
          "type": "address"
        },
        {
          "indexed": false,
          "internalType": "uint256",
          "name": "offerId",
          "type": "uint256"
        }
      ],
      "name": "Reneged",
      "type": "event"
    },
    {
      "inputs": [],
      "name": "MGV",
      "outputs": [
        {
          "internalType": "contract IMangrove",
          "name": "",
          "type": "address"
        }
      ],
      "stateMutability": "view",
      "type": "function"
    },
    {
      "inputs": [],
      "name": "OFR_GASREQ",
      "outputs": [
        {
          "internalType": "uint256",
          "name": "",
          "type": "uint256"
        }
      ],
      "stateMutability": "view",
      "type": "function"
    },
    {
      "inputs": [],
      "name": "admin",
      "outputs": [
        {
          "internalType": "address",
          "name": "",
          "type": "address"
        }
      ],
      "stateMutability": "view",
      "type": "function"
    },
    {
      "inputs": [
        {
          "internalType": "address",
          "name": "token",
          "type": "address"
        },
        {
          "internalType": "uint256",
          "name": "amount",
          "type": "uint256"
        }
      ],
      "name": "approveLender",
      "outputs": [],
      "stateMutability": "nonpayable",
      "type": "function"
    },
    {
      "inputs": [
        {
          "internalType": "address",
          "name": "outbound_tkn",
          "type": "address"
        },
        {
          "internalType": "uint256",
          "name": "amount",
          "type": "uint256"
        }
      ],
      "name": "approveMangrove",
      "outputs": [],
      "stateMutability": "nonpayable",
      "type": "function"
    },
    {
      "inputs": [],
      "name": "balanceOnMangrove",
      "outputs": [
        {
          "internalType": "uint256",
          "name": "",
          "type": "uint256"
        }
      ],
      "stateMutability": "view",
      "type": "function"
    },
    {
      "inputs": [
        {
          "internalType": "address",
          "name": "token",
          "type": "address"
        },
        {
          "internalType": "uint256",
          "name": "amount",
          "type": "uint256"
        }
      ],
      "name": "depositToken",
      "outputs": [
        {
          "internalType": "bool",
          "name": "success",
          "type": "bool"
        }
      ],
      "stateMutability": "nonpayable",
      "type": "function"
    },
    {
      "inputs": [],
      "name": "fundMangrove",
      "outputs": [],
      "stateMutability": "payable",
      "type": "function"
    },
    {
      "inputs": [
        {
          "internalType": "address",
          "name": "outbound_tkn",
          "type": "address"
        },
        {
          "internalType": "address",
          "name": "inbound_tkn",
          "type": "address"
        },
        {
          "internalType": "uint256",
          "name": "gasreq",
          "type": "uint256"
        },
        {
          "internalType": "uint256",
          "name": "gasprice",
          "type": "uint256"
        },
        {
          "internalType": "uint256",
          "name": "offerId",
          "type": "uint256"
        }
      ],
      "name": "getMissingProvision",
      "outputs": [
        {
          "internalType": "uint256",
          "name": "",
          "type": "uint256"
        }
      ],
      "stateMutability": "view",
      "type": "function"
    },
    {
      "inputs": [],
      "name": "lendingPool",
      "outputs": [
        {
          "internalType": "contract IPool",
          "name": "",
          "type": "address"
        }
      ],
      "stateMutability": "view",
      "type": "function"
    },
    {
      "inputs": [
        {
          "components": [
            {
              "internalType": "address",
              "name": "outbound_tkn",
              "type": "address"
            },
            {
              "internalType": "address",
              "name": "inbound_tkn",
              "type": "address"
            },
            {
              "internalType": "uint256",
              "name": "offerId",
              "type": "uint256"
            },
            {
              "internalType": "Offer.t",
              "name": "offer",
              "type": "uint256"
            },
            {
              "internalType": "uint256",
              "name": "wants",
              "type": "uint256"
            },
            {
              "internalType": "uint256",
              "name": "gives",
              "type": "uint256"
            },
            {
              "internalType": "OfferDetail.t",
              "name": "offerDetail",
              "type": "uint256"
            },
            {
              "internalType": "Global.t",
              "name": "global",
              "type": "uint256"
            },
            {
              "internalType": "Local.t",
              "name": "local",
              "type": "uint256"
            }
          ],
          "internalType": "struct MgvLib.SingleOrder",
          "name": "order",
          "type": "tuple"
        }
      ],
      "name": "makerExecute",
      "outputs": [
        {
          "internalType": "bytes32",
          "name": "ret",
          "type": "bytes32"
        }
      ],
      "stateMutability": "nonpayable",
      "type": "function"
    },
    {
      "inputs": [
        {
          "components": [
            {
              "internalType": "address",
              "name": "outbound_tkn",
              "type": "address"
            },
            {
              "internalType": "address",
              "name": "inbound_tkn",
              "type": "address"
            },
            {
              "internalType": "uint256",
              "name": "offerId",
              "type": "uint256"
            },
            {
              "internalType": "Offer.t",
              "name": "offer",
              "type": "uint256"
            },
            {
              "internalType": "uint256",
              "name": "wants",
              "type": "uint256"
            },
            {
              "internalType": "uint256",
              "name": "gives",
              "type": "uint256"
            },
            {
              "internalType": "OfferDetail.t",
              "name": "offerDetail",
              "type": "uint256"
            },
            {
              "internalType": "Global.t",
              "name": "global",
              "type": "uint256"
            },
            {
              "internalType": "Local.t",
              "name": "local",
              "type": "uint256"
            }
          ],
          "internalType": "struct MgvLib.SingleOrder",
          "name": "order",
          "type": "tuple"
        },
        {
          "components": [
            {
              "internalType": "bytes32",
              "name": "makerData",
              "type": "bytes32"
            },
            {
              "internalType": "bytes32",
              "name": "mgvData",
              "type": "bytes32"
            }
          ],
          "internalType": "struct MgvLib.OrderResult",
          "name": "result",
          "type": "tuple"
        }
      ],
      "name": "makerPosthook",
      "outputs": [],
      "stateMutability": "nonpayable",
      "type": "function"
    },
    {
      "inputs": [
        {
          "internalType": "address",
          "name": "asset",
          "type": "address"
        },
        {
          "internalType": "bool",
          "name": "tryBorrow",
          "type": "bool"
        },
        {
          "internalType": "address",
          "name": "onBehalf",
          "type": "address"
        }
      ],
      "name": "maxGettableUnderlying",
      "outputs": [
        {
          "internalType": "uint256",
          "name": "",
          "type": "uint256"
        },
        {
          "internalType": "uint256",
          "name": "",
          "type": "uint256"
        }
      ],
      "stateMutability": "view",
      "type": "function"
    },
    {
      "inputs": [
        {
          "internalType": "address",
          "name": "",
          "type": "address"
        }
      ],
      "name": "mgvBalance",
      "outputs": [
        {
          "internalType": "uint256",
          "name": "",
          "type": "uint256"
        }
      ],
      "stateMutability": "view",
      "type": "function"
    },
    {
      "inputs": [
        {
          "internalType": "address",
          "name": "outbound_tkn",
          "type": "address"
        },
        {
          "internalType": "address",
          "name": "inbound_tkn",
          "type": "address"
        },
        {
          "internalType": "uint256",
          "name": "wants",
          "type": "uint256"
        },
        {
          "internalType": "uint256",
          "name": "gives",
          "type": "uint256"
        },
        {
          "internalType": "uint256",
          "name": "gasreq",
          "type": "uint256"
        },
        {
          "internalType": "uint256",
          "name": "gasprice",
          "type": "uint256"
        },
        {
          "internalType": "uint256",
          "name": "pivotId",
          "type": "uint256"
        }
      ],
      "name": "newOffer",
      "outputs": [
        {
          "internalType": "uint256",
          "name": "offerId",
          "type": "uint256"
        }
      ],
      "stateMutability": "payable",
      "type": "function"
    },
    {
      "inputs": [
        {
          "internalType": "address",
          "name": "reader",
          "type": "address"
        },
        {
          "internalType": "address",
          "name": "outbound_tkn",
          "type": "address"
        },
        {
          "internalType": "address",
          "name": "inbound_tkn",
          "type": "address"
        },
        {
          "internalType": "uint256",
          "name": "fromId",
          "type": "uint256"
        },
        {
          "internalType": "uint256",
          "name": "maxOffers",
          "type": "uint256"
        }
      ],
      "name": "offerOwners",
      "outputs": [
        {
          "internalType": "uint256",
          "name": "nextId",
          "type": "uint256"
        },
        {
          "internalType": "uint256[]",
          "name": "offerIds",
          "type": "uint256[]"
        },
        {
          "internalType": "address[]",
          "name": "__offerOwners",
          "type": "address[]"
        }
      ],
      "stateMutability": "view",
      "type": "function"
    },
    {
      "inputs": [
        {
          "internalType": "contract IEIP20",
          "name": "asset",
          "type": "address"
        }
      ],
      "name": "overlying",
      "outputs": [
        {
          "internalType": "contract IEIP20",
          "name": "aToken",
          "type": "address"
        }
      ],
      "stateMutability": "view",
      "type": "function"
    },
    {
      "inputs": [
        {
          "internalType": "address",
          "name": "outbound_tkn",
          "type": "address"
        },
        {
          "internalType": "address",
          "name": "inbound_tkn",
          "type": "address"
        },
        {
          "internalType": "uint256",
          "name": "offerId",
          "type": "uint256"
        }
      ],
      "name": "ownerOf",
      "outputs": [
        {
          "internalType": "address",
          "name": "owner",
          "type": "address"
        }
      ],
      "stateMutability": "view",
      "type": "function"
    },
    {
      "inputs": [],
      "name": "priceOracle",
      "outputs": [
        {
          "internalType": "contract IPriceOracleGetter",
          "name": "",
          "type": "address"
        }
      ],
      "stateMutability": "view",
      "type": "function"
    },
    {
      "inputs": [
        {
          "internalType": "address",
          "name": "token",
          "type": "address"
        },
        {
          "internalType": "address",
          "name": "receiver",
          "type": "address"
        },
        {
          "internalType": "uint256",
          "name": "amount",
          "type": "uint256"
        }
      ],
      "name": "redeemToken",
      "outputs": [
        {
          "internalType": "bool",
          "name": "success",
          "type": "bool"
        }
      ],
      "stateMutability": "nonpayable",
      "type": "function"
    },
    {
      "inputs": [
        {
          "internalType": "address",
          "name": "outbound_tkn",
          "type": "address"
        },
        {
          "internalType": "address",
          "name": "inbound_tkn",
          "type": "address"
        },
        {
          "internalType": "uint256",
          "name": "offerId",
          "type": "uint256"
        },
        {
          "internalType": "bool",
          "name": "deprovision",
          "type": "bool"
        }
      ],
      "name": "retractOffer",
      "outputs": [
        {
          "internalType": "uint256",
          "name": "received",
          "type": "uint256"
        }
      ],
      "stateMutability": "nonpayable",
      "type": "function"
    },
    {
      "inputs": [
        {
          "internalType": "address",
          "name": "_admin",
          "type": "address"
        }
      ],
      "name": "setAdmin",
      "outputs": [],
      "stateMutability": "nonpayable",
      "type": "function"
    },
    {
      "inputs": [
        {
          "internalType": "uint256",
          "name": "gasreq",
          "type": "uint256"
        }
      ],
      "name": "setGasreq",
      "outputs": [],
      "stateMutability": "nonpayable",
      "type": "function"
    },
    {
      "inputs": [
        {
          "internalType": "address",
          "name": "token",
          "type": "address"
        }
      ],
      "name": "tokenBalance",
      "outputs": [
        {
          "internalType": "uint256",
          "name": "",
          "type": "uint256"
        }
      ],
      "stateMutability": "view",
      "type": "function"
    },
    {
      "inputs": [
        {
          "internalType": "address",
          "name": "",
          "type": "address"
        },
        {
          "internalType": "address",
          "name": "",
          "type": "address"
        }
      ],
      "name": "tokenBalanceOf",
      "outputs": [
        {
          "internalType": "uint256",
          "name": "",
          "type": "uint256"
        }
      ],
      "stateMutability": "view",
      "type": "function"
    },
    {
      "inputs": [
        {
          "internalType": "address",
          "name": "outbound_tkn",
          "type": "address"
        },
        {
          "internalType": "address",
          "name": "inbound_tkn",
          "type": "address"
        },
        {
          "internalType": "uint256",
          "name": "wants",
          "type": "uint256"
        },
        {
          "internalType": "uint256",
          "name": "gives",
          "type": "uint256"
        },
        {
          "internalType": "uint256",
          "name": "gasreq",
          "type": "uint256"
        },
        {
          "internalType": "uint256",
          "name": "gasprice",
          "type": "uint256"
        },
        {
          "internalType": "uint256",
          "name": "pivotId",
          "type": "uint256"
        },
        {
          "internalType": "uint256",
          "name": "offerId",
          "type": "uint256"
        }
      ],
      "name": "updateOffer",
      "outputs": [],
      "stateMutability": "payable",
      "type": "function"
    },
    {
      "inputs": [
        {
          "internalType": "address payable",
          "name": "receiver",
          "type": "address"
        },
        {
          "internalType": "uint256",
          "name": "amount",
          "type": "uint256"
        }
      ],
      "name": "withdrawFromMangrove",
      "outputs": [
        {
          "internalType": "bool",
          "name": "noRevert",
          "type": "bool"
        }
      ],
      "stateMutability": "nonpayable",
      "type": "function"
    },
    {
      "stateMutability": "payable",
      "type": "receive"
    }
  ],
  "transactionHash": "0x4934d1ef83fdb6ccac7cfb6a57ce017570338856992d1a560b78e37ac8c52f8a",
  "args": [
    "0xA5375B08232a0f5e911c8a92B390662e098a579A",
    "0xa34b6ADdf822177258Cbd0A9c3a80600C1028Ca8"
  ],
  "solcInputHash": "3541e2eb00f8f89e6f005d4e098215c1",
  "bytecode": "0x6101406040527f4d616e67726f76654f666665722f72656e6567656400000000000000000000006080527f4d616e67726f76654f666665722f7075744661696c757265000000000000000060a0527f4d616e67726f76654f666665722f6f75744f664c69717569646974790000000060c052620186a06001553480156200008557600080fd5b506040516200478038038062004780833981016040819052620000a8916200039f565b600080546001600160a01b031916331781556001600160a01b03821660e0528290620000d8565b60405180910390fd5b6005805461ffff811661ffff199091161790556040516321f8a72160e01b81526b50524943455f4f5241434c4560a01b60048201526000906001600160a01b038416906321f8a72190602401602060405180830381865afa15801562000142573d6000803e3d6000fd5b505050506040513d601f19601f82011682018060405250810190620001689190620003de565b90506000836001600160a01b031663026b1d5f6040518163ffffffff1660e01b8152600401602060405180830381865afa158015620001ab573d6000803e3d6000fd5b505050506040513d601f19601f82011682018060405250810190620001d19190620003de565b90506001600160a01b0381166200022b5760405162461bcd60e51b815260206004820152601b60248201527f496e76616c6964206c656e64696e67506f6f6c206164647265737300000000006044820152606401620000cf565b6001600160a01b038216620002835760405162461bcd60e51b815260206004820152601b60248201527f496e76616c69642070726963654f7261636c65206164647265737300000000006044820152606401620000cf565b6001600160a01b0390811661010052166101205250620002a89050620c3500620002b0565b505062000405565b6000546001600160a01b0316331480620002dd575060e0516001600160a01b0316336001600160a01b0316145b6200032b5760405162461bcd60e51b815260206004820152601860248201527f416363657373436f6e74726f6c6c65642f496e76616c696400000000000000006044820152606401620000cf565b808162ffffff1614620003815760405162461bcd60e51b815260206004820152601d60248201527f4d616e67726f76654f666665722f6761737265712f6f766572666c6f770000006044820152606401620000cf565b600155565b6001600160a01b03811681146200039c57600080fd5b50565b60008060408385031215620003b357600080fd5b8251620003c08162000386565b6020840151909250620003d38162000386565b809150509250929050565b600060208284031215620003f157600080fd5b8151620003fe8162000386565b9392505050565b60805160a05160c05160e051610100516101205161427f62000501600039600081816102e30152610b61015260008181610435015281816107da0152818161090e015281816109e2015281816115c80152818161306e01526132d801526000818161040101528181610f900152818161108d0152818161125c0152818161169901528181611be601528181611fdb015281816120c901528181612192015281816123010152818161240b015281816124a701528181612613015281816126e6015281816127af015281816128fc015281816129c00152612c610152600081816111880152611492015260006113c201526000505061427f6000f3fe6080604052600436106101b05760003560e01c8063704b6c02116100ec578063df2426671161008a578063eedc966a11610064578063eedc966a14610549578063f851a44014610597578063f92495e5146105c4578063faa030ec146105e457600080fd5b8063df242667146104e6578063e428204d14610513578063e4c34f841461052957600080fd5b8063a903f25c116100c6578063a903f25c14610457578063ad97db1b14610477578063aefe840314610497578063d1971159146104b757600080fd5b8063704b6c02146103cf57806399fa5e2d146103ef578063a59a99731461042357600080fd5b8063338b5dea11610159578063458eda9a11610133578063458eda9a1461036757806349f6d2dc146103895780636a4f76911461039c5780636c49c32c146103af57600080fd5b8063338b5dea1461030557806334bd8931146103255780633d3d130d1461034757600080fd5b80631bea80061161018a5780631bea8006146102565780632197c31e1461029c5780632630c12f146102d157600080fd5b8063063df2d2146101bc5780630d71bdc3146101f15780630efc8fd21461021157600080fd5b366101b757005b600080fd5b3480156101c857600080fd5b506101dc6101d73660046134bf565b6105ec565b60405190151581526020015b60405180910390f35b3480156101fd57600080fd5b506101dc61020c3660046134eb565b61067a565b34801561021d57600080fd5b5061023161022c36600461352c565b610792565b60405173ffffffffffffffffffffffffffffffffffffffff90911681526020016101e8565b34801561026257600080fd5b5061028e610271366004613549565b600460209081526000928352604080842090915290825290205481565b6040519081526020016101e8565b3480156102a857600080fd5b506102bc6102b7366004613590565b610853565b604080519283526020830191909152016101e8565b3480156102dd57600080fd5b506102317f000000000000000000000000000000000000000000000000000000000000000081565b34801561031157600080fd5b506101dc6103203660046134bf565b610d0c565b34801561033157600080fd5b506103456103403660046135db565b610f57565b005b34801561035357600080fd5b50610345610362366004613607565b61108b565b34801561037357600080fd5b503360009081526003602052604090205461028e565b61028e610397366004613667565b6111b2565b6103456103aa3660046136c9565b61123b565b3480156103bb57600080fd5b5061028e6103ca366004613734565b611258565b3480156103db57600080fd5b506103456103ea36600461352c565b6114c3565b3480156103fb57600080fd5b506102317f000000000000000000000000000000000000000000000000000000000000000081565b34801561042f57600080fd5b506102317f000000000000000000000000000000000000000000000000000000000000000081565b34801561046357600080fd5b506103456104723660046134bf565b61158b565b34801561048357600080fd5b5061028e610492366004613751565b611644565b3480156104a357600080fd5b506103456104b23660046134bf565b61165c565b3480156104c357600080fd5b506104d76104d23660046137a4565b61177f565b6040516101e8939291906137ff565b3480156104f257600080fd5b5061028e61050136600461352c565b60036020526000908152604090205481565b34801561051f57600080fd5b5061028e60015481565b34801561053557600080fd5b5061028e61054436600461389b565b611922565b34801561055557600080fd5b5061028e61056436600461352c565b73ffffffffffffffffffffffffffffffffffffffff16600090815260046020908152604080832033845290915290205490565b3480156105a357600080fd5b506000546102319073ffffffffffffffffffffffffffffffffffffffff1681565b3480156105d057600080fd5b506102316105df3660046134eb565b61197a565b610345611a25565b60003330141561065d576040517f08c379a000000000000000000000000000000000000000000000000000000000815260206004820152601260248201527f4d75746c692f6e6f5265656e7472616e6379000000000000000000000000000060448201526064015b60405180910390fd5b6106673383611a9b565b6106718383611bb4565b90505b92915050565b6000333014156106e6576040517f08c379a000000000000000000000000000000000000000000000000000000000815260206004820152601260248201527f4d75746c692f6e6f5265656e7472616e637900000000000000000000000000006044820152606401610654565b6106f1843384611d80565b6040517fa9059cbb00000000000000000000000000000000000000000000000000000000815273ffffffffffffffffffffffffffffffffffffffff84811660048301526024820184905285169063a9059cbb906044016020604051808303816000875af1158015610766573d6000803e3d6000fd5b505050506040513d601f19601f8201168201806040525081019061078a91906138ec565b949350505050565b6040517f35ea6a7500000000000000000000000000000000000000000000000000000000815273ffffffffffffffffffffffffffffffffffffffff82811660048301526000917f0000000000000000000000000000000000000000000000000000000000000000909116906335ea6a75906024016101e060405180830381865afa158015610824573d6000803e3d6000fd5b505050506040513d601f19601f820116820180604052508101906108489190613a6c565b610100015192915050565b6000806108816040518060800160405280600081526020016000815260200160008152602001600081525090565b6108c960405180610100016040528060008152602001600081526020016000815260200160008152602001600081526020016000815260200160008152602001600081525090565b6040517fbf92857c00000000000000000000000000000000000000000000000000000000815273ffffffffffffffffffffffffffffffffffffffff86811660048301527f0000000000000000000000000000000000000000000000000000000000000000169063bf92857c9060240160c060405180830381865afa158015610955573d6000803e3d6000fd5b505050506040513d601f19601f820116820180604052508101906109799190613b8f565b60c0870152608086015260a08501526040808501919091526020840191909152908252517f35ea6a7500000000000000000000000000000000000000000000000000000000815273ffffffffffffffffffffffffffffffffffffffff88811660048301526000917f0000000000000000000000000000000000000000000000000000000000000000909116906335ea6a75906024016101e060405180830381865afa158015610a2c573d6000803e3d6000fd5b505050506040513d601f19601f82011682018060405250810190610a509190613a6c565b80515160ff603082901c1660408681019190915261ffff601083901c81166020808901919091529216865261010083015181517f70a0823100000000000000000000000000000000000000000000000000000000815273ffffffffffffffffffffffffffffffffffffffff8b8116600483015292519495509116926370a08231926024808401939192918290030181865afa158015610af3573d6000803e3d6000fd5b505050506040513d601f19601f82011682018060405250810190610b179190613bd9565b60e08301526040517fb3596f0700000000000000000000000000000000000000000000000000000000815273ffffffffffffffffffffffffffffffffffffffff89811660048301527f0000000000000000000000000000000000000000000000000000000000000000169063b3596f0790602401602060405180830381865afa158015610ba8573d6000803e3d6000fd5b505050506040513d601f19601f82011682018060405250810190610bcc9190613bd9565b60608401526020820151825160a084015161271091610bea91613c21565b610bf49190613c5e565b610bfe9190613c99565b6060808401919091528301516020840151600091610c1b91613c21565b6040850151610c2b90600a613dd0565b8460600151610c3a9190613c21565b610c4690612710613c21565b610c509190613c5e565b90508260e001518110610c67578260e00151610c69565b805b905087610c7f57945060009350610d0492505050565b835160009061271090610c929084613c21565b610c9c9190613c5e565b9050600085606001518660400151600a610cb69190613dd0565b8660400151610cc59190613c21565b610ccf9190613c5e565b905080821115610ceb5782600097509750505050505050610d04565b6000610cf78383613c99565b9398509296505050505050505b935093915050565b6040517f70a08231000000000000000000000000000000000000000000000000000000008152306004820152600090819073ffffffffffffffffffffffffffffffffffffffff8516906370a0823190602401602060405180830381865afa158015610d7b573d6000803e3d6000fd5b505050506040513d601f19601f82011682018060405250810190610d9f9190613bd9565b6040517f23b872dd0000000000000000000000000000000000000000000000000000000081523360048201523060248201526044810185905290915073ffffffffffffffffffffffffffffffffffffffff8516906323b872dd906064016020604051808303816000875af1158015610e1b573d6000803e3d6000fd5b505050506040513d601f19601f82011682018060405250810190610e3f91906138ec565b6040517f70a082310000000000000000000000000000000000000000000000000000000081523060048201529092508390829073ffffffffffffffffffffffffffffffffffffffff8716906370a0823190602401602060405180830381865afa158015610eb0573d6000803e3d6000fd5b505050506040513d601f19601f82011682018060405250810190610ed49190613bd9565b610ede9190613c99565b14610f45576040517f08c379a000000000000000000000000000000000000000000000000000000000815260206004820152601260248201527f4d756c74692f7472616e736665724661696c00000000000000000000000000006044820152606401610654565b610f50843385611edd565b5092915050565b60005473ffffffffffffffffffffffffffffffffffffffff16331480610fb257503373ffffffffffffffffffffffffffffffffffffffff7f000000000000000000000000000000000000000000000000000000000000000016145b611018576040517f08c379a000000000000000000000000000000000000000000000000000000000815260206004820152601860248201527f416363657373436f6e74726f6c6c65642f496e76616c696400000000000000006044820152606401610654565b808162ffffff1614611086576040517f08c379a000000000000000000000000000000000000000000000000000000000815260206004820152601d60248201527f4d616e67726f76654f666665722f6761737265712f6f766572666c6f770000006044820152606401610654565b600155565b7f000000000000000000000000000000000000000000000000000000000000000073ffffffffffffffffffffffffffffffffffffffff811615806110e457503373ffffffffffffffffffffffffffffffffffffffff8216145b61114a576040517f08c379a000000000000000000000000000000000000000000000000000000000815260206004820152601860248201527f416363657373436f6e74726f6c6c65642f496e76616c696400000000000000006044820152606401610654565b81602001357f6d67762f7472616465537563636573730000000000000000000000000000000014156111845761117f83611f87565b505050565b81357f0000000000000000000000000000000000000000000000000000000000000000141561117f57505050565b60003330141561121e576040517f08c379a000000000000000000000000000000000000000000000000000000000815260206004820152601260248201527f4d75746c692f6e6f5265656e7472616e637900000000000000000000000000006044820152606401610654565b61122f888888888888883334611f93565b98975050505050505050565b61124d8888888888888888333461222f565b505050505050505050565b60007f000000000000000000000000000000000000000000000000000000000000000073ffffffffffffffffffffffffffffffffffffffff811615806112b357503373ffffffffffffffffffffffffffffffffffffffff8216145b611319576040517f08c379a000000000000000000000000000000000000000000000000000000000815260206004820152601860248201527f416363657373436f6e74726f6c6c65642f496e76616c696400000000000000006044820152606401610654565b60006113298460a00135856124f5565b905080156113e957611341604085016020860161352c565b73ffffffffffffffffffffffffffffffffffffffff16611364602086018661352c565b73ffffffffffffffffffffffffffffffffffffffff167f3482722a7c71a098521214cdb975e1d9faa0b0163f768e89566f7acc36cffd0b8660400135846040516113b8929190918252602082015260400190565b60405180910390a37f00000000000000000000000000000000000000000000000000000000000000009250506114bd565b60006113f9856080013586612501565b905080156114ba57611411604086016020870161352c565b73ffffffffffffffffffffffffffffffffffffffff16611434602087018761352c565b73ffffffffffffffffffffffffffffffffffffffff167fc99fe658c80b903af0e1270f4a55564b3a7509294ab1052c6ab07f8198baea67876040013584604051611488929190918252602082015260400190565b60405180910390a37f0000000000000000000000000000000000000000000000000000000000000000935050506114bd565b50505b50919050565b60005473ffffffffffffffffffffffffffffffffffffffff163314611544576040517f08c379a000000000000000000000000000000000000000000000000000000000815260206004820152601860248201527f416363657373436f6e74726f6c6c65642f496e76616c696400000000000000006044820152606401610654565b600080547fffffffffffffffffffffffff00000000000000000000000000000000000000001673ffffffffffffffffffffffffffffffffffffffff92909216919091179055565b6040517f095ea7b300000000000000000000000000000000000000000000000000000000815273ffffffffffffffffffffffffffffffffffffffff7f0000000000000000000000000000000000000000000000000000000000000000811660048301526024820183905283169063095ea7b3906044016020604051808303816000875af1158015611620573d6000803e3d6000fd5b505050506040513d601f19601f8201168201806040525081019061117f91906138ec565b6000611653858585853361250d565b95945050505050565b6040517f095ea7b300000000000000000000000000000000000000000000000000000000815273ffffffffffffffffffffffffffffffffffffffff7f0000000000000000000000000000000000000000000000000000000000000000811660048301526024820183905283169063095ea7b3906044016020604051808303816000875af11580156116f1573d6000803e3d6000fd5b505050506040513d601f19601f8201168201806040525081019061171591906138ec565b61177b576040517f08c379a000000000000000000000000000000000000000000000000000000000815260206004820152601560248201527f6d67764f666665722f617070726f76652f4661696c00000000000000000000006044820152606401610654565b5050565b6040517f2c7e545f00000000000000000000000000000000000000000000000000000000815273ffffffffffffffffffffffffffffffffffffffff858116600483015284811660248301526044820184905260648201839052600091606091829190891690632c7e545f90608401600060405180830381865afa15801561180a573d6000803e3d6000fd5b505050506040513d6000823e601f3d9081017fffffffffffffffffffffffffffffffffffffffffffffffffffffffffffffffe01682016040526118509190810190613f55565b50508051919450925067ffffffffffffffff81111561187157611871613909565b60405190808252806020026020018201604052801561189a578160200160208202803683370190505b50905060005b8251811015611916576118cd88888584815181106118c0576118c061404a565b602002602001015161197a565b8282815181106118df576118df61404a565b73ffffffffffffffffffffffffffffffffffffffff909216602092830291909101909101528061190e81614079565b9150506118a0565b50955095509592505050565b600080821561196157600061193888888661197a565b73ffffffffffffffffffffffffffffffffffffffff166000908152600360205260409020549150505b61196f818888888888612692565b979650505050505050565b73ffffffffffffffffffffffffffffffffffffffff8084166000908152600260209081526040808320868516845282528083208584529091529020541680611a1e576040517f08c379a000000000000000000000000000000000000000000000000000000000815260206004820152601560248201527f6d756c7469557365722f756e6b6f776e4f6666657200000000000000000000006044820152606401610654565b9392505050565b33301415611a8f576040517f08c379a000000000000000000000000000000000000000000000000000000000815260206004820152601260248201527f4d75746c692f6e6f5265656e7472616e637900000000000000000000000000006044820152606401610654565b611a9933346128fa565b565b73ffffffffffffffffffffffffffffffffffffffff8216600090815260036020526040902054811115611b2a576040517f08c379a000000000000000000000000000000000000000000000000000000000815260206004820152601d60248201527f4d756c74692f64656269744f6e4d67762f696e73756666696369656e740000006044820152606401610654565b73ffffffffffffffffffffffffffffffffffffffff821660009081526003602052604081208054839290611b5f908490613c99565b909155505060405181815273ffffffffffffffffffffffffffffffffffffffff8316907fd50b865b3d9d927f026d3b8404e07f25d6beb1d111deab51bdc846bf8d0a860b906020015b60405180910390a25050565b6040517f2e1a7d4d000000000000000000000000000000000000000000000000000000008152600481018290526000907f000000000000000000000000000000000000000000000000000000000000000073ffffffffffffffffffffffffffffffffffffffff1690632e1a7d4d906024016020604051808303816000875af1158015611c44573d6000803e3d6000fd5b505050506040513d601f19601f82011682018060405250810190611c6891906138ec565b611cf4576040517f08c379a000000000000000000000000000000000000000000000000000000000815260206004820152602360248201527f4d616e67726f76654f666665722f77697468647261772f7472616e736665724660448201527f61696c00000000000000000000000000000000000000000000000000000000006064820152608401610654565b73ffffffffffffffffffffffffffffffffffffffff83163014611d775760405173ffffffffffffffffffffffffffffffffffffffff8416908390600081818185875af1925050503d8060008114611d67576040519150601f19603f3d011682016040523d82523d6000602084013e611d6c565b606091505b505080915050610674565b50600192915050565b80611d8a57505050565b73ffffffffffffffffffffffffffffffffffffffff808416600090815260046020908152604080832093861683529290522054811115611e26576040517f08c379a000000000000000000000000000000000000000000000000000000000815260206004820152601d60248201527f4d756c74692f6465626974546f6b656e2f696e73756666696369656e740000006044820152606401610654565b73ffffffffffffffffffffffffffffffffffffffff808416600090815260046020908152604080832093861683529290529081208054839290611e6a908490613c99565b925050819055508273ffffffffffffffffffffffffffffffffffffffff168273ffffffffffffffffffffffffffffffffffffffff167f7a97b405ee1bd89550b225932dbdd0431e30426b7c8f02f05b3cb0e1bdfb847683604051611ed091815260200190565b60405180910390a3505050565b73ffffffffffffffffffffffffffffffffffffffff808416600090815260046020908152604080832093861683529290529081208054839290611f219084906140b2565b925050819055508273ffffffffffffffffffffffffffffffffffffffff168273ffffffffffffffffffffffffffffffffffffffff167fb2b1ec266d1bab793ae1d020eedf03e575cc390e5fb9e370cb099fdf2f61534d83604051611ed091815260200190565b611f9081612985565b50565b6040517f70a08231000000000000000000000000000000000000000000000000000000008152306004820152600090819073ffffffffffffffffffffffffffffffffffffffff7f000000000000000000000000000000000000000000000000000000000000000016906370a0823190602401602060405180830381865afa158015612022573d6000803e3d6000fd5b505050506040513d601f19601f820116820180604052508101906120469190613bd9565b905062ffffff8711156120595760015496505b6040517f49f6d2dc00000000000000000000000000000000000000000000000000000000815273ffffffffffffffffffffffffffffffffffffffff8c811660048301528b81166024830152604482018b9052606482018a90526084820189905260a4820188905260c482018790527f000000000000000000000000000000000000000000000000000000000000000016906349f6d2dc90859060e40160206040518083038185885af19350505050801561214e575060408051601f3d9081017fffffffffffffffffffffffffffffffffffffffffffffffffffffffffffffffe016820190925261214b91810190613bd9565b60015b6122035761215a6140ca565b806308c379a014156121f7575061216f6140e6565b8061217a57506121f9565b3373ffffffffffffffffffffffffffffffffffffffff7f00000000000000000000000000000000000000000000000000000000000000001614156121c357600092505050612222565b806040517f08c379a000000000000000000000000000000000000000000000000000000000815260040161065491906141f9565b505b3d6000803e3d6000fd5b61220f8c8c8388612b8c565b6122198583612c30565b91506122229050565b9998505050505050505050565b600061223c8b8b8661197a565b73ffffffffffffffffffffffffffffffffffffffff168373ffffffffffffffffffffffffffffffffffffffff16146122d0576040517f08c379a000000000000000000000000000000000000000000000000000000000815260206004820152601e60248201527f4d756c74692f7570646174654f666665722f756e617574686f72697a656400006044820152606401610654565b6040517f70a082310000000000000000000000000000000000000000000000000000000081523060048201526000907f000000000000000000000000000000000000000000000000000000000000000073ffffffffffffffffffffffffffffffffffffffff16906370a0823190602401602060405180830381865afa15801561235d573d6000803e3d6000fd5b505050506040513d601f19601f820116820180604052508101906123819190613bd9565b905062ffffff8811156123945760015497505b6040517f6a4f769100000000000000000000000000000000000000000000000000000000815273ffffffffffffffffffffffffffffffffffffffff8d811660048301528c81166024830152604482018c9052606482018b9052608482018a905260a4820189905260c4820188905260e482018790527f00000000000000000000000000000000000000000000000000000000000000001690636a4f7691908590610104016000604051808303818588803b15801561245157600080fd5b505af193505050508015612463575060015b6124d85761246f6140ca565b806308c379a014156121f757506124846140e6565b8061248f57506121f9565b3373ffffffffffffffffffffffffffffffffffffffff7f00000000000000000000000000000000000000000000000000000000000000001614156121c3576000925050506124e7565b6124e28482612c30565b849150505b9a9950505050505050505050565b60006106718383612d1e565b60006106718383612d66565b73ffffffffffffffffffffffffffffffffffffffff85811660009081526002602090815260408083208885168452825280832087845290915281205490918381169116146125b7576040517f08c379a000000000000000000000000000000000000000000000000000000000815260206004820152601f60248201527f4d756c74692f726574726163744f666665722f756e617574686f72697a6564006044820152606401610654565b6040517fad97db1b00000000000000000000000000000000000000000000000000000000815273ffffffffffffffffffffffffffffffffffffffff878116600483015286811660248301526044820186905284151560648301527f0000000000000000000000000000000000000000000000000000000000000000169063ad97db1b906084016020604051808303816000875af115801561265c573d6000803e3d6000fd5b505050506040513d601f19601f820116820180604052508101906126809190613bd9565b90508015611653576116538282612f8c565b6040517fcbf75c9a00000000000000000000000000000000000000000000000000000000815273ffffffffffffffffffffffffffffffffffffffff86811660048301528581166024830152600091829182917f00000000000000000000000000000000000000000000000000000000000000009091169063cbf75c9a906044016040805180830381865afa15801561272e573d6000803e3d6000fd5b505050506040513d601f19601f82011682018060405250810190612752919061420c565b6040517f5722647b00000000000000000000000000000000000000000000000000000000815273ffffffffffffffffffffffffffffffffffffffff8b811660048301528a81166024830152604482018890529294509092506000917f00000000000000000000000000000000000000000000000000000000000000001690635722647b90606401602060405180830381865afa1580156127f6573d6000803e3d6000fd5b505050506040513d601f19601f8201168201806040525081019061281a9190613bd9565b9050600086604085901c61ffff16111561283d575061ffff604084901c16612840565b50855b62ffffff8811156128515760015497505b60008161286762ffffff606087901c168b6140b2565b6128719190613c21565b61287f90633b9aca00613c21565b9050600061ffff602085901c166128a662ffffff603087901c811690604888901c166140b2565b6128b09190613c21565b6128be90633b9aca00613c21565b905060006128cc8e836140b2565b9050828110156128e5576128e08184613c99565b6128e8565b60005b9e9d5050505050505050505050505050565b7f000000000000000000000000000000000000000000000000000000000000000073ffffffffffffffffffffffffffffffffffffffff1663b60d4288826040518263ffffffff1660e01b81526004016000604051808303818588803b15801561296257600080fd5b505af1158015612976573d6000803e3d6000fd5b505050505061177b8282612f8c565b60006129908261300e565b9050600061299d83613033565b9050816129a957505050565b73ffffffffffffffffffffffffffffffffffffffff7f000000000000000000000000000000000000000000000000000000000000000016636a4f76916129f2602086018661352c565b612a02604087016020880161352c565b848660c089013560481c62ffffff1660c08a013560201c61ffff1660608b013560c01c63ffffffff16604080517fffffffff0000000000000000000000000000000000000000000000000000000060e08b901b16815273ffffffffffffffffffffffffffffffffffffffff988916600482015297909616602488015260448701949094526064860192909252608485015260a484015260c483015286013560e482015261010401600060405180830381600087803b158015612ac357600080fd5b505af1925050508015612ad4575060015b61117f57612ae06140ca565b806308c379a014156121f75750612af56140e6565b80612b0057506121f9565b612b10604085016020860161352c565b73ffffffffffffffffffffffffffffffffffffffff16612b33602086018661352c565b73ffffffffffffffffffffffffffffffffffffffff167f768269e5e6803a8bc566de9364d8347774fff5b114c5a2ec556ab0459a172426866040013584604051612b7e929190614230565b60405180910390a350505050565b73ffffffffffffffffffffffffffffffffffffffff848116600081815260026020908152604080832088861680855290835281842088855283529281902080547fffffffffffffffffffffffff00000000000000000000000000000000000000001695871695861790555193845285939192917fabf04a4ce23225c02bd147297da7ffc10e7d29102d8678f1a63fdd2cfd71ff07910160405180910390a450505050565b6040517f70a082310000000000000000000000000000000000000000000000000000000081523060048201526000907f000000000000000000000000000000000000000000000000000000000000000073ffffffffffffffffffffffffffffffffffffffff16906370a0823190602401602060405180830381865afa158015612cbd573d6000803e3d6000fd5b505050506040513d601f19601f82011682018060405250810190612ce19190613bd9565b905081811415612cf057505050565b81811115612d0b5761117f83612d068484613c99565b612f8c565b61117f83612d198385613c99565b611a9b565b600082612d2d57506000610674565b6000612d59612d3f602085018561352c565b612d4f604086016020870161352c565b856040013561197a565b905061078a848285613055565b600080612d79612d3f602085018561352c565b90506000612d95612d8d602086018661352c565b600084610853565b50905080851115612daa578492505050610674565b6000612dbc61022c602087018761352c565b6040517f23b872dd00000000000000000000000000000000000000000000000000000000815273ffffffffffffffffffffffffffffffffffffffff858116600483015230602483015260448201899052919250908216906323b872dd906064016020604051808303816000875af1925050508015612e75575060408051601f3d9081017fffffffffffffffffffffffffffffffffffffffffffffffffffffffffffffffe0168201909252612e72918101906138ec565b60015b612e7e57612ea8565b8015612ea657612e8f8730886132bf565b15612e9957600080fd5b6000945050505050610674565b505b60408501803590612ebc906020880161352c565b73ffffffffffffffffffffffffffffffffffffffff16612edf602088018861352c565b73ffffffffffffffffffffffffffffffffffffffff167f571c6a99fbcd17b1f71790d4830c4a356ad85ab9b87af15ca9cb8bf9e76dafb7604051612f7a9060208082526022908201527f6161766556334c656e6465722f6f7665726c79696e675472616e73666572466160408201527f696c000000000000000000000000000000000000000000000000000000000000606082015260800190565b60405180910390a45093949350505050565b73ffffffffffffffffffffffffffffffffffffffff821660009081526003602052604081208054839290612fc19084906140b2565b909155505060405181815273ffffffffffffffffffffffffffffffffffffffff8316907f2022607feefe24f258126b277628af517f5512dd9499fb3520eeff54cad1370390602001611ba8565b600060808201356bffffffffffffffffffffffff6060840135165b6106749190613c99565b600060a0820135606080840135901c6bffffffffffffffffffffffff16613029565b600073ffffffffffffffffffffffffffffffffffffffff7f00000000000000000000000000000000000000000000000000000000000000001663e8eda9df6130a3604085016020860161352c565b60055460405160e084901b7fffffffff0000000000000000000000000000000000000000000000000000000016815273ffffffffffffffffffffffffffffffffffffffff928316600482015260248101899052918716604483015261ffff166064820152608401600060405180830381600087803b15801561312457600080fd5b505af1925050508015613135575060015b6132af576131416140ca565b806308c379a014156131ed57506131566140e6565b8061316157506131ef565b60408301803590613175906020860161352c565b73ffffffffffffffffffffffffffffffffffffffff16613198602086018661352c565b73ffffffffffffffffffffffffffffffffffffffff167f3f9279e5961b9f7718863c58856167c37214b0eaa73c8ece15967da7ba8431f788856040516131df929190614230565b60405180910390a4506132b7565b505b60408201803590613203906020850161352c565b73ffffffffffffffffffffffffffffffffffffffff16613226602085018561352c565b73ffffffffffffffffffffffffffffffffffffffff167f3f9279e5961b9f7718863c58856167c37214b0eaa73c8ece15967da7ba8431f7876040516132a2918152604060208201819052600a908201527f756e657870656374656400000000000000000000000000000000000000000000606082015260800190565b60405180910390a46132b7565b506000611a1e565b509192915050565b600073ffffffffffffffffffffffffffffffffffffffff7f0000000000000000000000000000000000000000000000000000000000000000166369328dec61330a602085018561352c565b6040517fffffffff0000000000000000000000000000000000000000000000000000000060e084901b16815273ffffffffffffffffffffffffffffffffffffffff91821660048201526024810188905290861660448201526064016020604051808303816000875af19250505080156133be575060408051601f3d9081017fffffffffffffffffffffffffffffffffffffffffffffffffffffffffffffffe01682019092526133bb91810190613bd9565b60015b613479576133ca6140ca565b806308c379a014156121f757506133df6140e6565b806133ea57506121f9565b604083018035906133fe906020860161352c565b73ffffffffffffffffffffffffffffffffffffffff16613421602086018661352c565b73ffffffffffffffffffffffffffffffffffffffff167f3aa32c175e32764fe670a20f7800e840796a2c690e646f8d73ad446ae04628e98885604051613468929190614230565b60405180910390a484915050611a1e565b8085141561348b576000915050611a1e565b6134958186613c99565b915050611a1e565b73ffffffffffffffffffffffffffffffffffffffff81168114611f9057600080fd5b600080604083850312156134d257600080fd5b82356134dd8161349d565b946020939093013593505050565b60008060006060848603121561350057600080fd5b833561350b8161349d565b9250602084013561351b8161349d565b929592945050506040919091013590565b60006020828403121561353e57600080fd5b8135611a1e8161349d565b6000806040838503121561355c57600080fd5b82356135678161349d565b915060208301356135778161349d565b809150509250929050565b8015158114611f9057600080fd5b6000806000606084860312156135a557600080fd5b83356135b08161349d565b925060208401356135c081613582565b915060408401356135d08161349d565b809150509250925092565b6000602082840312156135ed57600080fd5b5035919050565b600061012082840312156114bd57600080fd5b60008082840361016081121561361c57600080fd5b61362685856135f4565b925060407ffffffffffffffffffffffffffffffffffffffffffffffffffffffffffffffee08201121561365857600080fd5b50610120830190509250929050565b600080600080600080600060e0888a03121561368257600080fd5b873561368d8161349d565b9650602088013561369d8161349d565b96999698505050506040850135946060810135946080820135945060a0820135935060c0909101359150565b600080600080600080600080610100898b0312156136e657600080fd5b88356136f18161349d565b975060208901356137018161349d565b979a9799505050506040860135956060810135956080820135955060a0820135945060c0820135935060e0909101359150565b6000610120828403121561374757600080fd5b61067183836135f4565b6000806000806080858703121561376757600080fd5b84356137728161349d565b935060208501356137828161349d565b925060408501359150606085013561379981613582565b939692955090935050565b600080600080600060a086880312156137bc57600080fd5b85356137c78161349d565b945060208601356137d78161349d565b935060408601356137e78161349d565b94979396509394606081013594506080013592915050565b6000606082018583526020606081850152818651808452608086019150828801935060005b8181101561384057845183529383019391830191600101613824565b50508481036040860152855180825290820192508186019060005b8181101561388d57825173ffffffffffffffffffffffffffffffffffffffff168552938301939183019160010161385b565b509298975050505050505050565b600080600080600060a086880312156138b357600080fd5b85356138be8161349d565b945060208601356138ce8161349d565b94979496505050506040830135926060810135926080909101359150565b6000602082840312156138fe57600080fd5b8151611a1e81613582565b7f4e487b7100000000000000000000000000000000000000000000000000000000600052604160045260246000fd5b6080810181811067ffffffffffffffff8211171561395857613958613909565b60405250565b7fffffffffffffffffffffffffffffffffffffffffffffffffffffffffffffffe0601f830116810181811067ffffffffffffffff821117156139a2576139a2613909565b6040525050565b6040516101e0810167ffffffffffffffff811182821017156139cd576139cd613909565b60405290565b6000602082840312156139e557600080fd5b6040516020810181811067ffffffffffffffff82111715613a0857613a08613909565b6040529151825250919050565b80516fffffffffffffffffffffffffffffffff81168114613a3557600080fd5b919050565b805164ffffffffff81168114613a3557600080fd5b805161ffff81168114613a3557600080fd5b8051613a358161349d565b60006101e08284031215613a7f57600080fd5b613a876139a9565b613a9184846139d3565b8152613a9f60208401613a15565b6020820152613ab060408401613a15565b6040820152613ac160608401613a15565b6060820152613ad260808401613a15565b6080820152613ae360a08401613a15565b60a0820152613af460c08401613a3a565b60c0820152613b0560e08401613a4f565b60e0820152610100613b18818501613a61565b90820152610120613b2a848201613a61565b90820152610140613b3c848201613a61565b90820152610160613b4e848201613a61565b90820152610180613b60848201613a15565b908201526101a0613b72848201613a15565b908201526101c0613b84848201613a15565b908201529392505050565b60008060008060008060c08789031215613ba857600080fd5b865195506020870151945060408701519350606087015192506080870151915060a087015190509295509295509295565b600060208284031215613beb57600080fd5b5051919050565b7f4e487b7100000000000000000000000000000000000000000000000000000000600052601160045260246000fd5b6000817fffffffffffffffffffffffffffffffffffffffffffffffffffffffffffffffff0483118215151615613c5957613c59613bf2565b500290565b600082613c94577f4e487b7100000000000000000000000000000000000000000000000000000000600052601260045260246000fd5b500490565b600082821015613cab57613cab613bf2565b500390565b600181815b80851115613d0957817fffffffffffffffffffffffffffffffffffffffffffffffffffffffffffffffff04821115613cef57613cef613bf2565b80851615613cfc57918102915b93841c9390800290613cb5565b509250929050565b600082613d2057506001610674565b81613d2d57506000610674565b8160018114613d435760028114613d4d57613d69565b6001915050610674565b60ff841115613d5e57613d5e613bf2565b50506001821b610674565b5060208310610133831016604e8410600b8410161715613d8c575081810a610674565b613d968383613cb0565b807fffffffffffffffffffffffffffffffffffffffffffffffffffffffffffffffff04821115613dc857613dc8613bf2565b029392505050565b60006106718383613d11565b600067ffffffffffffffff821115613df657613df6613909565b5060051b60200190565b600082601f830112613e1157600080fd5b81516020613e1e82613ddc565b60408051613e2c838261395e565b84815260079490941b8601830193838101925087851115613e4c57600080fd5b8387015b85811015613ea0576080818a031215613e695760008081fd5b8251613e7481613938565b815181528582015186820152838201518482015260608083015190820152845292840192608001613e50565b50979650505050505050565b600082601f830112613ebd57600080fd5b81516020613eca82613ddc565b60408051613ed8838261395e565b84815260079490941b8601830193838101925087851115613ef857600080fd5b8387015b85811015613ea0576080818a031215613f155760008081fd5b8251613f2081613938565b8151613f2b8161349d565b81528186015186820152838201518482015260608083015190820152845292840192608001613efc565b60008060008060808587031215613f6b57600080fd5b8451935060208086015167ffffffffffffffff80821115613f8b57600080fd5b818801915088601f830112613f9f57600080fd5b8151613faa81613ddc565b604051613fb7828261395e565b82815260059290921b840185019185810191508b831115613fd757600080fd5b938501935b82851015613ff557845182529385019390850190613fdc565b60408b0151909850945050508083111561400e57600080fd5b61401a89848a01613e00565b9450606088015192508083111561403057600080fd5b505061403e87828801613eac565b91505092959194509250565b7f4e487b7100000000000000000000000000000000000000000000000000000000600052603260045260246000fd5b60007fffffffffffffffffffffffffffffffffffffffffffffffffffffffffffffffff8214156140ab576140ab613bf2565b5060010190565b600082198211156140c5576140c5613bf2565b500190565b600060033d11156140e35760046000803e5060005160e01c5b90565b600060443d10156140f45790565b6040517ffffffffffffffffffffffffffffffffffffffffffffffffffffffffffffffffc803d016004833e81513d67ffffffffffffffff816024840111818411171561414257505050505090565b828501915081518181111561415a5750505050505090565b843d87010160208285010111156141745750505050505090565b6141836020828601018761395e565b509095945050505050565b6000815180845260005b818110156141b457602081850181015186830182015201614198565b818111156141c6576000602083870101525b50601f017fffffffffffffffffffffffffffffffffffffffffffffffffffffffffffffffe0169290920160200192915050565b602081526000610671602083018461418e565b6000806040838503121561421f57600080fd5b505080516020909101519092909150565b82815260406020820152600061078a604083018461418e56fea264697066735822122098ae58d729072f1d0e5495d5684120a271e2439800a8b29dd1056caf34b547fa64736f6c634300080a0033",
  "devdoc": {
    "kind": "dev",
    "methods": {},
    "version": 1
  },
  "userdoc": {
    "events": {
      "NewOwnedOffer(address,address,uint256,address)": {
        "notice": "Multi offer specific Events "
      },
      "PosthookFail(address,address,uint256,string)": {
        "notice": "Events "
      }
    },
    "kind": "user",
    "methods": {
      "approveLender(address,uint256)": {
        "notice": "approval of overlying contract by the underlying is necessary for minting and repaying borrowuser must use this function to do so."
      },
      "approveMangrove(address,uint256)": {
        "notice": "`this` contract needs to approve Mangrove to let it perform outbound token transfer at the end of the `makerExecute` function NB anyone can call this function"
      },
      "maxGettableUnderlying(address,bool,address)": {
        "notice": "Computes maximal maximal redeem capacity (R) and max borrow capacity (B|R) after R has been redeemed returns (R, B|R)"
      },
      "withdrawFromMangrove(address,uint256)": {
        "notice": "withdraws ETH from the bounty vault of the Mangrove. NB: `Mangrove.fund` function need not be called by `this` so is not included here. Warning: this function should not be called internally for msg.sender provision is being checked"
      }
    },
    "version": 1
  },
  "storageLayout": {
    "storage": [
      {
        "astId": 21694,
        "contract": "contracts/Strategies/OfferLogics/MultiUsers/Deployable/OfferProxy.sol:OfferProxy",
        "label": "admin",
        "offset": 0,
        "slot": "0",
        "type": "t_address"
      },
      {
        "astId": 11508,
        "contract": "contracts/Strategies/OfferLogics/MultiUsers/Deployable/OfferProxy.sol:OfferProxy",
        "label": "OFR_GASREQ",
        "offset": 0,
        "slot": "1",
        "type": "t_uint256"
      },
      {
        "astId": 13101,
        "contract": "contracts/Strategies/OfferLogics/MultiUsers/Deployable/OfferProxy.sol:OfferProxy",
        "label": "_offerOwners",
        "offset": 0,
        "slot": "2",
        "type": "t_mapping(t_address,t_mapping(t_address,t_mapping(t_uint256,t_address)))"
      },
      {
        "astId": 13105,
        "contract": "contracts/Strategies/OfferLogics/MultiUsers/Deployable/OfferProxy.sol:OfferProxy",
        "label": "mgvBalance",
        "offset": 0,
        "slot": "3",
        "type": "t_mapping(t_address,t_uint256)"
      },
      {
        "astId": 13111,
        "contract": "contracts/Strategies/OfferLogics/MultiUsers/Deployable/OfferProxy.sol:OfferProxy",
        "label": "tokenBalanceOf",
        "offset": 0,
        "slot": "4",
        "type": "t_mapping(t_address,t_mapping(t_address,t_uint256))"
      },
      {
        "astId": 10182,
        "contract": "contracts/Strategies/OfferLogics/MultiUsers/Deployable/OfferProxy.sol:OfferProxy",
        "label": "referralCode",
        "offset": 0,
        "slot": "5",
        "type": "t_uint16"
      }
    ],
    "types": {
      "t_address": {
        "encoding": "inplace",
        "label": "address",
        "numberOfBytes": "20"
      },
      "t_mapping(t_address,t_mapping(t_address,t_mapping(t_uint256,t_address)))": {
        "encoding": "mapping",
        "key": "t_address",
        "label": "mapping(address => mapping(address => mapping(uint256 => address)))",
        "numberOfBytes": "32",
        "value": "t_mapping(t_address,t_mapping(t_uint256,t_address))"
      },
      "t_mapping(t_address,t_mapping(t_address,t_uint256))": {
        "encoding": "mapping",
        "key": "t_address",
        "label": "mapping(address => mapping(address => uint256))",
        "numberOfBytes": "32",
        "value": "t_mapping(t_address,t_uint256)"
      },
      "t_mapping(t_address,t_mapping(t_uint256,t_address))": {
        "encoding": "mapping",
        "key": "t_address",
        "label": "mapping(address => mapping(uint256 => address))",
        "numberOfBytes": "32",
        "value": "t_mapping(t_uint256,t_address)"
      },
      "t_mapping(t_address,t_uint256)": {
        "encoding": "mapping",
        "key": "t_address",
        "label": "mapping(address => uint256)",
        "numberOfBytes": "32",
        "value": "t_uint256"
      },
      "t_mapping(t_uint256,t_address)": {
        "encoding": "mapping",
        "key": "t_uint256",
        "label": "mapping(uint256 => address)",
        "numberOfBytes": "32",
        "value": "t_address"
      },
      "t_uint16": {
        "encoding": "inplace",
        "label": "uint16",
        "numberOfBytes": "2"
      },
      "t_uint256": {
        "encoding": "inplace",
        "label": "uint256",
        "numberOfBytes": "32"
      }
    }
  }
}