{
  "address": "0x87d5F8245d70EBF7A62f55984e1513D6936e8E67",
  "abi": [
    {
      "inputs": [
        {
          "internalType": "address",
          "name": "_addressesProvider",
          "type": "address"
        },
        {
          "internalType": "address payable",
          "name": "_MGV",
          "type": "address"
        }
      ],
      "stateMutability": "nonpayable",
      "type": "constructor"
    },
    {
      "anonymous": false,
      "inputs": [
        {
          "indexed": true,
          "internalType": "address",
          "name": "outbound_tkn",
          "type": "address"
        },
        {
          "indexed": true,
          "internalType": "address",
          "name": "inbound_tkn",
          "type": "address"
        },
        {
          "indexed": true,
          "internalType": "uint256",
          "name": "offerId",
          "type": "uint256"
        },
        {
          "indexed": false,
          "internalType": "uint256",
          "name": "amount",
          "type": "uint256"
        },
        {
          "indexed": false,
          "internalType": "string",
          "name": "errorCode",
          "type": "string"
        }
      ],
      "name": "ErrorOnMint",
      "type": "event"
    },
    {
      "anonymous": false,
      "inputs": [
        {
          "indexed": true,
          "internalType": "address",
          "name": "outbound_tkn",
          "type": "address"
        },
        {
          "indexed": true,
          "internalType": "address",
          "name": "inbound_tkn",
          "type": "address"
        },
        {
          "indexed": true,
          "internalType": "uint256",
          "name": "offerId",
          "type": "uint256"
        },
        {
          "indexed": false,
          "internalType": "uint256",
          "name": "amount",
          "type": "uint256"
        },
        {
          "indexed": false,
          "internalType": "string",
          "name": "errorCode",
          "type": "string"
        }
      ],
      "name": "ErrorOnRedeem",
      "type": "event"
    },
    {
      "anonymous": false,
      "inputs": [
        {
          "indexed": true,
          "internalType": "address",
          "name": "outbound_tkn",
          "type": "address"
        },
        {
          "indexed": true,
          "internalType": "address",
          "name": "inbound_tkn",
          "type": "address"
        },
        {
          "indexed": false,
          "internalType": "uint256",
          "name": "offerId",
          "type": "uint256"
        },
        {
          "indexed": false,
          "internalType": "uint256",
          "name": "amount",
          "type": "uint256"
        }
      ],
      "name": "GetFail",
      "type": "event"
    },
    {
      "anonymous": false,
      "inputs": [
        {
          "indexed": true,
          "internalType": "address",
          "name": "outbound_tkn",
          "type": "address"
        },
        {
          "indexed": true,
          "internalType": "address",
          "name": "inbound_tkn",
          "type": "address"
        },
        {
          "indexed": true,
          "internalType": "uint256",
          "name": "offerId",
          "type": "uint256"
        },
        {
          "indexed": false,
          "internalType": "address",
          "name": "owner",
          "type": "address"
        }
      ],
      "name": "NewOffer",
      "type": "event"
    },
    {
      "anonymous": false,
      "inputs": [
        {
          "indexed": true,
          "internalType": "address",
          "name": "outbound_tkn",
          "type": "address"
        },
        {
          "indexed": true,
          "internalType": "address",
          "name": "inbound_tkn",
          "type": "address"
        },
        {
          "indexed": false,
          "internalType": "uint256",
          "name": "offerId",
          "type": "uint256"
        },
        {
          "indexed": false,
          "internalType": "string",
          "name": "message",
          "type": "string"
        }
      ],
      "name": "PosthookFail",
      "type": "event"
    },
    {
      "anonymous": false,
      "inputs": [
        {
          "indexed": true,
          "internalType": "address",
          "name": "outbound_tkn",
          "type": "address"
        },
        {
          "indexed": true,
          "internalType": "address",
          "name": "inbound_tkn",
          "type": "address"
        },
        {
          "indexed": false,
          "internalType": "uint256",
          "name": "offerId",
          "type": "uint256"
        },
        {
          "indexed": false,
          "internalType": "uint256",
          "name": "amount",
          "type": "uint256"
        }
      ],
      "name": "PutFail",
      "type": "event"
    },
    {
      "anonymous": false,
      "inputs": [
        {
          "indexed": true,
          "internalType": "address",
          "name": "outbound_tkn",
          "type": "address"
        },
        {
          "indexed": true,
          "internalType": "address",
          "name": "inbound_tkn",
          "type": "address"
        },
        {
          "indexed": false,
          "internalType": "uint256",
          "name": "offerId",
          "type": "uint256"
        }
      ],
      "name": "Reneged",
      "type": "event"
    },
    {
      "anonymous": false,
      "inputs": [
        {
          "indexed": true,
          "internalType": "address",
          "name": "outbound_tkn",
          "type": "address"
        },
        {
          "indexed": true,
          "internalType": "address",
          "name": "inbound_tkn",
          "type": "address"
        },
        {
          "indexed": true,
          "internalType": "uint256",
          "name": "offerId",
          "type": "uint256"
        }
      ],
      "name": "UnkownOffer",
      "type": "event"
    },
    {
      "inputs": [],
      "name": "OFR_GASREQ",
      "outputs": [
        {
          "internalType": "uint256",
          "name": "",
          "type": "uint256"
        }
      ],
      "stateMutability": "view",
      "type": "function"
    },
    {
      "inputs": [],
      "name": "admin",
      "outputs": [
        {
          "internalType": "address",
          "name": "",
          "type": "address"
        }
      ],
      "stateMutability": "view",
      "type": "function"
    },
    {
      "inputs": [
        {
          "internalType": "address",
          "name": "token",
          "type": "address"
        },
        {
          "internalType": "uint256",
          "name": "amount",
          "type": "uint256"
        }
      ],
      "name": "approveLender",
      "outputs": [],
      "stateMutability": "nonpayable",
      "type": "function"
    },
    {
      "inputs": [
        {
          "internalType": "address",
          "name": "outbound_tkn",
          "type": "address"
        },
        {
          "internalType": "uint256",
          "name": "amount",
          "type": "uint256"
        }
      ],
      "name": "approveMangrove",
      "outputs": [],
      "stateMutability": "nonpayable",
      "type": "function"
    },
    {
      "inputs": [
        {
          "internalType": "address",
          "name": "",
          "type": "address"
        }
      ],
      "name": "balanceOf",
      "outputs": [
        {
          "internalType": "uint256",
          "name": "",
          "type": "uint256"
        }
      ],
      "stateMutability": "view",
      "type": "function"
    },
    {
      "inputs": [
        {
          "internalType": "address",
          "name": "owner",
          "type": "address"
        }
      ],
      "name": "fundMangrove",
      "outputs": [],
      "stateMutability": "payable",
      "type": "function"
    },
    {
      "inputs": [
        {
          "internalType": "address",
          "name": "outbound_tkn",
          "type": "address"
        },
        {
          "internalType": "address",
          "name": "inbound_tkn",
          "type": "address"
        },
        {
          "internalType": "uint256",
          "name": "gasreq",
          "type": "uint256"
        },
        {
          "internalType": "uint256",
          "name": "gasprice",
          "type": "uint256"
        },
        {
          "internalType": "uint256",
          "name": "offerId",
          "type": "uint256"
        }
      ],
      "name": "getMissingProvision",
      "outputs": [
        {
          "internalType": "uint256",
          "name": "",
          "type": "uint256"
        }
      ],
      "stateMutability": "view",
      "type": "function"
    },
    {
      "inputs": [],
      "name": "lendingPool",
      "outputs": [
        {
          "internalType": "contract ILendingPool",
          "name": "",
          "type": "address"
        }
      ],
      "stateMutability": "view",
      "type": "function"
    },
    {
      "inputs": [
        {
          "components": [
            {
              "internalType": "address",
              "name": "outbound_tkn",
              "type": "address"
            },
            {
              "internalType": "address",
              "name": "inbound_tkn",
              "type": "address"
            },
            {
              "internalType": "uint256",
              "name": "offerId",
              "type": "uint256"
            },
            {
              "internalType": "bytes32",
              "name": "offer",
              "type": "bytes32"
            },
            {
              "internalType": "uint256",
              "name": "wants",
              "type": "uint256"
            },
            {
              "internalType": "uint256",
              "name": "gives",
              "type": "uint256"
            },
            {
              "internalType": "bytes32",
              "name": "offerDetail",
              "type": "bytes32"
            },
            {
              "internalType": "bytes32",
              "name": "global",
              "type": "bytes32"
            },
            {
              "internalType": "bytes32",
              "name": "local",
              "type": "bytes32"
            }
          ],
          "internalType": "struct MgvLib.SingleOrder",
          "name": "order",
          "type": "tuple"
        }
      ],
      "name": "makerExecute",
      "outputs": [
        {
          "internalType": "bytes32",
          "name": "ret",
          "type": "bytes32"
        }
      ],
      "stateMutability": "nonpayable",
      "type": "function"
    },
    {
      "inputs": [
        {
          "components": [
            {
              "internalType": "address",
              "name": "outbound_tkn",
              "type": "address"
            },
            {
              "internalType": "address",
              "name": "inbound_tkn",
              "type": "address"
            },
            {
              "internalType": "uint256",
              "name": "offerId",
              "type": "uint256"
            },
            {
              "internalType": "bytes32",
              "name": "offer",
              "type": "bytes32"
            },
            {
              "internalType": "uint256",
              "name": "wants",
              "type": "uint256"
            },
            {
              "internalType": "uint256",
              "name": "gives",
              "type": "uint256"
            },
            {
              "internalType": "bytes32",
              "name": "offerDetail",
              "type": "bytes32"
            },
            {
              "internalType": "bytes32",
              "name": "global",
              "type": "bytes32"
            },
            {
              "internalType": "bytes32",
              "name": "local",
              "type": "bytes32"
            }
          ],
          "internalType": "struct MgvLib.SingleOrder",
          "name": "order",
          "type": "tuple"
        },
        {
          "components": [
            {
              "internalType": "bytes32",
              "name": "makerData",
              "type": "bytes32"
            },
            {
              "internalType": "bytes32",
              "name": "mgvData",
              "type": "bytes32"
            }
          ],
          "internalType": "struct MgvLib.OrderResult",
          "name": "result",
          "type": "tuple"
        }
      ],
      "name": "makerPosthook",
      "outputs": [],
      "stateMutability": "nonpayable",
      "type": "function"
    },
    {
      "inputs": [
        {
          "internalType": "address",
          "name": "asset",
          "type": "address"
        },
        {
          "internalType": "bool",
          "name": "tryBorrow",
          "type": "bool"
        },
        {
          "internalType": "address",
          "name": "onBehalf",
          "type": "address"
        }
      ],
      "name": "maxGettableUnderlying",
      "outputs": [
        {
          "internalType": "uint256",
          "name": "",
          "type": "uint256"
        },
        {
          "internalType": "uint256",
          "name": "",
          "type": "uint256"
        }
      ],
      "stateMutability": "view",
      "type": "function"
    },
    {
      "inputs": [
        {
          "internalType": "address",
          "name": "",
          "type": "address"
        }
      ],
      "name": "mgvBalanceOf",
      "outputs": [
        {
          "internalType": "uint256",
          "name": "",
          "type": "uint256"
        }
      ],
      "stateMutability": "view",
      "type": "function"
    },
    {
      "inputs": [
        {
          "internalType": "uint256",
          "name": "amount",
          "type": "uint256"
        },
        {
          "internalType": "address",
          "name": "asset",
          "type": "address"
        },
        {
          "internalType": "address",
          "name": "onBehalf",
          "type": "address"
        }
      ],
      "name": "mint",
      "outputs": [],
      "stateMutability": "nonpayable",
      "type": "function"
    },
    {
      "inputs": [
        {
          "internalType": "address",
          "name": "outbound_tkn",
          "type": "address"
        },
        {
          "internalType": "address",
          "name": "inbound_tkn",
          "type": "address"
        },
        {
          "internalType": "uint256",
          "name": "wants",
          "type": "uint256"
        },
        {
          "internalType": "uint256",
          "name": "gives",
          "type": "uint256"
        },
        {
          "internalType": "uint256",
          "name": "gasreq",
          "type": "uint256"
        },
        {
          "internalType": "uint256",
          "name": "gasprice",
          "type": "uint256"
        },
        {
          "internalType": "uint256",
          "name": "pivotId",
          "type": "uint256"
        }
      ],
      "name": "newOffer",
      "outputs": [
        {
          "internalType": "uint256",
          "name": "offerId",
          "type": "uint256"
        }
      ],
      "stateMutability": "nonpayable",
      "type": "function"
    },
    {
      "inputs": [
        {
          "internalType": "contract IERC20",
          "name": "asset",
          "type": "address"
        }
      ],
      "name": "overlying",
      "outputs": [
        {
          "internalType": "contract IERC20",
          "name": "aToken",
          "type": "address"
        }
      ],
      "stateMutability": "nonpayable",
      "type": "function"
    },
    {
      "inputs": [
        {
          "internalType": "address",
          "name": "outbound_tkn",
          "type": "address"
        },
        {
          "internalType": "address",
          "name": "inbound_tkn",
          "type": "address"
        },
        {
          "internalType": "uint256",
          "name": "offerId",
          "type": "uint256"
        }
      ],
      "name": "ownerOf",
      "outputs": [
        {
          "internalType": "address",
          "name": "owner",
          "type": "address"
        }
      ],
      "stateMutability": "nonpayable",
      "type": "function"
    },
    {
      "inputs": [],
      "name": "priceOracle",
      "outputs": [
        {
          "internalType": "contract IPriceOracleGetter",
          "name": "",
          "type": "address"
        }
      ],
      "stateMutability": "view",
      "type": "function"
    },
    {
      "inputs": [
        {
          "internalType": "address",
          "name": "outbound_tkn",
          "type": "address"
        },
        {
          "internalType": "address",
          "name": "inbound_tkn",
          "type": "address"
        },
        {
          "internalType": "uint256",
          "name": "offerId",
          "type": "uint256"
        },
        {
          "internalType": "bool",
          "name": "deprovision",
          "type": "bool"
        }
      ],
      "name": "retractOffer",
      "outputs": [
        {
          "internalType": "uint256",
          "name": "received",
          "type": "uint256"
        }
      ],
      "stateMutability": "nonpayable",
      "type": "function"
    },
    {
      "inputs": [
        {
          "internalType": "address",
          "name": "_admin",
          "type": "address"
        }
      ],
      "name": "setAdmin",
      "outputs": [],
      "stateMutability": "nonpayable",
      "type": "function"
    },
    {
      "inputs": [
        {
          "internalType": "uint256",
          "name": "gasreq",
          "type": "uint256"
        }
      ],
      "name": "setGasreq",
      "outputs": [],
      "stateMutability": "nonpayable",
      "type": "function"
    },
    {
      "inputs": [
        {
          "internalType": "address",
          "name": "recipient",
          "type": "address"
        },
        {
          "internalType": "uint256",
          "name": "amount",
          "type": "uint256"
        }
      ],
      "name": "transferETH",
      "outputs": [
        {
          "internalType": "bool",
          "name": "success",
          "type": "bool"
        }
      ],
      "stateMutability": "nonpayable",
      "type": "function"
    },
    {
      "inputs": [
        {
          "internalType": "address",
          "name": "outbound_tkn",
          "type": "address"
        },
        {
          "internalType": "address",
          "name": "inbound_tkn",
          "type": "address"
        },
        {
          "internalType": "uint256",
          "name": "wants",
          "type": "uint256"
        },
        {
          "internalType": "uint256",
          "name": "gives",
          "type": "uint256"
        },
        {
          "internalType": "uint256",
          "name": "gasreq",
          "type": "uint256"
        },
        {
          "internalType": "uint256",
          "name": "gasprice",
          "type": "uint256"
        },
        {
          "internalType": "uint256",
          "name": "pivotId",
          "type": "uint256"
        },
        {
          "internalType": "uint256",
          "name": "offerId",
          "type": "uint256"
        }
      ],
      "name": "updateOffer",
      "outputs": [],
      "stateMutability": "nonpayable",
      "type": "function"
    },
    {
      "inputs": [
        {
          "internalType": "uint256",
          "name": "amount",
          "type": "uint256"
        }
      ],
      "name": "withdraw",
      "outputs": [],
      "stateMutability": "nonpayable",
      "type": "function"
    },
    {
      "inputs": [
        {
          "internalType": "address",
          "name": "receiver",
          "type": "address"
        },
        {
          "internalType": "uint256",
          "name": "amount",
          "type": "uint256"
        }
      ],
      "name": "withdrawFromMangrove",
      "outputs": [
        {
          "internalType": "bool",
          "name": "noRevert",
          "type": "bool"
        }
      ],
      "stateMutability": "nonpayable",
      "type": "function"
    },
    {
      "stateMutability": "payable",
      "type": "receive"
    }
  ],
  "transactionHash": "0xad226f3b11c047f4a4b7329c99cc4992de249aef8faa574797550f734aceae53",
  "args": [
    "0x178113104fEcbcD7fF8669a0150721e231F0FD4B",
    "0xE44FfC50ED6673d6A1C385B76152E1551a6c14a3"
  ],
  "solcInputHash": "5cfa54aeab12cbb2e9e3c4023c15accb",
  "bytecode": "0x60e0604052620186a06001553480156200001857600080fd5b506040516200450f3803806200450f8339810160408190526200003b916200028c565b600080546001600160a01b031916331781556001600160601b0319606083901b16608052829062000070565b60405180910390fd5b6005805461ffff19811661ffff90911617905560408051630261bf8b60e01b815290516000916001600160a01b03851691630261bf8b91600480820192602092909190829003018186803b158015620000c857600080fd5b505afa158015620000dd573d6000803e3d6000fd5b505050506040513d601f19601f8201168201806040525081019062000103919062000266565b90506000836001600160a01b031663fca513a86040518163ffffffff1660e01b815260040160206040518083038186803b1580156200014157600080fd5b505afa15801562000156573d6000803e3d6000fd5b505050506040513d601f19601f820116820180604052508101906200017c919062000266565b90506001600160a01b038216620001a75760405162461bcd60e51b81526004016200006790620002ca565b6001600160a01b038116620001d05760405162461bcd60e51b815260040162000067906200036f565b6001600160601b0319606092831b811660a052911b1660c05250620001fa9050620c350062000202565b5050620003bf565b6000546001600160a01b03163314806200021b57503330145b6200023a5760405162461bcd60e51b8152600401620000679062000301565b808162ffffff1614620002615760405162461bcd60e51b8152600401620000679062000338565b600155565b60006020828403121562000278578081fd5b81516200028581620003a6565b9392505050565b600080604083850312156200029f578081fd5b8251620002ac81620003a6565b6020840151909250620002bf81620003a6565b809150509250929050565b6020808252601b908201527f496e76616c6964206c656e64696e67506f6f6c20616464726573730000000000604082015260600190565b60208082526018908201527f416363657373436f6e74726f6c6c65642f496e76616c69640000000000000000604082015260600190565b6020808252601d908201527f4d616e67726f76654f666665722f6761737265712f6f766572666c6f77000000604082015260600190565b6020808252601b908201527f496e76616c69642070726963654f7261636c6520616464726573730000000000604082015260600190565b6001600160a01b0381168114620003bc57600080fd5b50565b60805160601c60a05160601c60c05160601c6140bb620004546000398061087052806109fa52508061051652806105f652806106dc52806111065280611d99528061201e5280613366525080610b515280610be25280610cae5280610e0b5280610ee252806112a1528061158c52806115c352806118245280611aef5280611ccf5280611e555280611f2c52506140bb6000f3fe60806040526004361061018f5760003560e01c8063a59a9973116100d6578063e34248111161007f578063eb87009e11610059578063eb87009e14610462578063f851a44014610482578063f92495e514610497576101ab565b8063e34248111461040d578063e428204d1461042d578063e4c34f8414610442576101ab565b8063ad97db1b116100b0578063ad97db1b146103ad578063aefe8403146103cd578063da39b3e7146103ed576101ab565b8063a59a997314610358578063a903f25c1461036d578063aab9e0051461038d576101ab565b80633fe3443b11610138578063704b6c0211610112578063704b6c02146102f857806370a08231146103185780637b1a490914610338576101ab565b80633fe3443b1461029857806349f6d2dc146102ab5780636a4f7691146102d8576101ab565b80632630c12f116101695780632630c12f146102415780632e1a7d4d1461025657806334bd893114610278576101ab565b8063063df2d2146101b05780630efc8fd2146101e65780632197c31e14610213576101ab565b366101ab57336000908152600260205260409020805434019055005b600080fd5b3480156101bc57600080fd5b506101d06101cb36600461384e565b6104b7565b6040516101dd9190613c9f565b60405180910390f35b3480156101f257600080fd5b5061020661020136600461361f565b6104d6565b6040516101dd9190613ac4565b34801561021f57600080fd5b5061023361022e366004613804565b6105a6565b6040516101dd929190613f3c565b34801561024d57600080fd5b506102066109f8565b34801561026257600080fd5b50610276610271366004613a3a565b610a1c565b005b34801561028457600080fd5b50610276610293366004613a3a565b610ab1565b6102766102a636600461361f565b610b4f565b3480156102b757600080fd5b506102cb6102c6366004613739565b610bdd565b6040516101dd9190613caa565b3480156102e457600080fd5b506102766102f336600461379a565b610d68565b34801561030457600080fd5b5061027661031336600461361f565b610f99565b34801561032457600080fd5b506102cb61033336600461361f565b611031565b34801561034457600080fd5b506101d061035336600461384e565b611043565b34801561036457600080fd5b50610206611104565b34801561037957600080fd5b5061027661038836600461384e565b611128565b34801561039957600080fd5b506102cb6103a836600461361f565b611183565b3480156103b957600080fd5b506102cb6103c8366004613697565b611195565b3480156103d957600080fd5b506102766103e836600461384e565b611232565b3480156103f957600080fd5b50610276610408366004613a52565b61123c565b34801561041957600080fd5b506102cb6104283660046139c0565b61129d565b34801561043957600080fd5b506102cb61157f565b34801561044e57600080fd5b506102cb61045d3660046136e9565b611585565b34801561046e57600080fd5b5061027661047d3660046139dc565b6115c1565b34801561048e57600080fd5b506102066116f8565b3480156104a357600080fd5b506102066104b2366004613657565b611714565b60006104c33383611755565b6104cd83836117e4565b90505b92915050565b6040517f35ea6a7500000000000000000000000000000000000000000000000000000000815260009073ffffffffffffffffffffffffffffffffffffffff7f000000000000000000000000000000000000000000000000000000000000000016906335ea6a759061054b908590600401613ac4565b6101806040518083038186803b15801561056457600080fd5b505afa158015610578573d6000803e3d6000fd5b505050506040513d601f19601f8201168201806040525081019061059c91906138d0565b60e0015192915050565b6000806105b1613514565b6105b961353c565b6040517fbf92857c00000000000000000000000000000000000000000000000000000000815273ffffffffffffffffffffffffffffffffffffffff7f0000000000000000000000000000000000000000000000000000000000000000169063bf92857c9061062b908890600401613ac4565b60c06040518083038186803b15801561064357600080fd5b505afa158015610657573d6000803e3d6000fd5b505050506040513d601f19601f8201168201806040525081019061067b9190613a78565b60c0870152608086015260a08501526040808501919091526020840191909152908252517f35ea6a7500000000000000000000000000000000000000000000000000000000815260009073ffffffffffffffffffffffffffffffffffffffff7f000000000000000000000000000000000000000000000000000000000000000016906335ea6a7590610711908b90600401613ac4565b6101806040518083038186803b15801561072a57600080fd5b505afa15801561073e573d6000803e3d6000fd5b505050506040513d601f19601f8201168201806040525081019061076291906138d0565b90506107718160000151611924565b5060408088019190915260208701929092525090845260e082015190517f70a0823100000000000000000000000000000000000000000000000000000000815273ffffffffffffffffffffffffffffffffffffffff909116906370a08231906107de908990600401613ac4565b60206040518083038186803b1580156107f657600080fd5b505afa15801561080a573d6000803e3d6000fd5b505050506040513d601f19601f8201168201806040525081019061082e9190613895565b60e08301526040517fb3596f0700000000000000000000000000000000000000000000000000000000815273ffffffffffffffffffffffffffffffffffffffff7f0000000000000000000000000000000000000000000000000000000000000000169063b3596f07906108a5908b90600401613ac4565b60206040518083038186803b1580156108bd57600080fd5b505afa1580156108d1573d6000803e3d6000fd5b505050506040513d601f19601f820116820180604052508101906108f59190613895565b606084015260a082015182516109259161091b91610913919061194f565b612710611991565b83602001516119d3565b826060018181525050600061095c8460400151600a0a846060015102612710026109578660200151876060015161194f565b611991565b905061096c818460e00151611a15565b905087610982579450600093506109f092505050565b600061099561091383876000015161194f565b905060006109bb6109b186604001518860400151600a0a61194f565b8760600151611991565b9050808211156109d757826000975097505050505050506109f0565b60006109e382846119d3565b9398509296505050505050505b935093915050565b7f000000000000000000000000000000000000000000000000000000000000000081565b33600090815260026020526040902054811115610a6e576040517f08c379a0000000000000000000000000000000000000000000000000000000008152600401610a6590613db5565b60405180910390fd5b33600081815260026020526040808220805485900390555183156108fc0291849190818181858888f19350505050158015610aad573d6000803e3d6000fd5b5050565b60005473ffffffffffffffffffffffffffffffffffffffff16331480610ad657503330145b610b0c576040517f08c379a0000000000000000000000000000000000000000000000000000000008152600401610a6590613d47565b808162ffffff1614610b4a576040517f08c379a0000000000000000000000000000000000000000000000000000000008152600401610a6590613d7e565b600155565b7f000000000000000000000000000000000000000000000000000000000000000073ffffffffffffffffffffffffffffffffffffffff1663b60d4288346040518263ffffffff1660e01b81526004016000604051808303818588803b158015610bb757600080fd5b505af1158015610bcb573d6000803e3d6000fd5b5050505050610bda8134611a2b565b50565b6000807f000000000000000000000000000000000000000000000000000000000000000073ffffffffffffffffffffffffffffffffffffffff166370a08231306040518263ffffffff1660e01b8152600401610c399190613ac4565b60206040518083038186803b158015610c5157600080fd5b505afa158015610c65573d6000803e3d6000fd5b505050506040513d601f19601f82011682018060405250810190610c899190613895565b9050610c9a89898989898989611a5a565b9150610ca889898433611b8f565b610d5c337f000000000000000000000000000000000000000000000000000000000000000073ffffffffffffffffffffffffffffffffffffffff166370a08231306040518263ffffffff1660e01b8152600401610d059190613ac4565b60206040518083038186803b158015610d1d57600080fd5b505afa158015610d31573d6000803e3d6000fd5b505050506040513d601f19601f82011682018060405250810190610d559190613895565b8303611755565b50979650505050505050565b30331480610d95575033610d7d898984611714565b73ffffffffffffffffffffffffffffffffffffffff16145b610dcb576040517f08c379a0000000000000000000000000000000000000000000000000000000008152600401610a6590613e12565b6040517f70a0823100000000000000000000000000000000000000000000000000000000815260009073ffffffffffffffffffffffffffffffffffffffff7f000000000000000000000000000000000000000000000000000000000000000016906370a0823190610e40903090600401613ac4565b60206040518083038186803b158015610e5857600080fd5b505afa158015610e6c573d6000803e3d6000fd5b505050506040513d601f19601f82011682018060405250810190610e909190613895565b9050610ea28989898989898989611c3c565b6040517f70a0823100000000000000000000000000000000000000000000000000000000815260009073ffffffffffffffffffffffffffffffffffffffff7f000000000000000000000000000000000000000000000000000000000000000016906370a0823190610f17903090600401613ac4565b60206040518083038186803b158015610f2f57600080fd5b505afa158015610f43573d6000803e3d6000fd5b505050506040513d601f19601f82011682018060405250810190610f679190613895565b9050808210610f8157610f7c33828403611755565b610f8d565b610f8d33838303611a2b565b50505050505050505050565b60005473ffffffffffffffffffffffffffffffffffffffff163314610fea576040517f08c379a0000000000000000000000000000000000000000000000000000000008152600401610a6590613d47565b600080547fffffffffffffffffffffffff00000000000000000000000000000000000000001673ffffffffffffffffffffffffffffffffffffffff92909216919091179055565b60026020526000908152604090205481565b6000805473ffffffffffffffffffffffffffffffffffffffff163314611095576040517f08c379a0000000000000000000000000000000000000000000000000000000008152600401610a6590613d47565b8273ffffffffffffffffffffffffffffffffffffffff16826040516110b990613ac1565b60006040518083038185875af1925050503d80600081146110f6576040519150601f19603f3d011682016040523d82523d6000602084013e6110fb565b606091505b50505092915050565b7f000000000000000000000000000000000000000000000000000000000000000081565b60005473ffffffffffffffffffffffffffffffffffffffff163314611179576040517f08c379a0000000000000000000000000000000000000000000000000000000008152600401610a6590613d47565b610aad8282611d4f565b60046020526000908152604090205481565b73ffffffffffffffffffffffffffffffffffffffff848116600090815260036020908152604080832087851684528252808320868452909152812054909116331461120c576040517f08c379a0000000000000000000000000000000000000000000000000000000008152600401610a6590613e12565b61121885858585611e15565b9050801561122a5761122a3382611a2b565b949350505050565b610aad8282611ee2565b60005473ffffffffffffffffffffffffffffffffffffffff16331461128d576040517f08c379a0000000000000000000000000000000000000000000000000000000008152600401610a6590613d47565b611298838383611fde565b505050565b60007f000000000000000000000000000000000000000000000000000000000000000073ffffffffffffffffffffffffffffffffffffffff811615806112f857503373ffffffffffffffffffffffffffffffffffffffff8216145b61132e576040517f08c379a0000000000000000000000000000000000000000000000000000000008152600401610a6590613d47565b61133783612095565b6113e75761134b604084016020850161361f565b73ffffffffffffffffffffffffffffffffffffffff1661136e602085018561361f565b73ffffffffffffffffffffffffffffffffffffffff167f5c3a327c0caf47aa560dbca16cce241483daac785fd723d9e0fb2af3256373bf85604001356040516113b79190613caa565b60405180910390a37f6d67764f666665722f72656e65676564000000000000000000000000000000009150611579565b60006113f78460a001358561209b565b905080156114ae5761140f604085016020860161361f565b73ffffffffffffffffffffffffffffffffffffffff16611432602086018661361f565b73ffffffffffffffffffffffffffffffffffffffff167f3482722a7c71a098521214cdb975e1d9faa0b0163f768e89566f7acc36cffd0b86604001358460405161147d929190613f3c565b60405180910390a37f6d67764f666665722f7075744661696c75726500000000000000000000000000925050611579565b60006114be8560800135866120a7565b90508015611576576114d6604086016020870161361f565b73ffffffffffffffffffffffffffffffffffffffff166114f9602087018761361f565b73ffffffffffffffffffffffffffffffffffffffff167fc99fe658c80b903af0e1270f4a55564b3a7509294ab1052c6ab07f8198baea67876040013584604051611544929190613f3c565b60405180910390a37f6d67764f666665722f6f75744f664c697175696469747900000000000000000093505050611579565b50505b50919050565b60015481565b60006115b57f000000000000000000000000000000000000000000000000000000000000000087878787876120b3565b90505b95945050505050565b7f000000000000000000000000000000000000000000000000000000000000000073ffffffffffffffffffffffffffffffffffffffff8116158061161a57503373ffffffffffffffffffffffffffffffffffffffff8216145b611650576040517f08c379a0000000000000000000000000000000000000000000000000000000008152600401610a6590613d47565b81602001357f6d67762f74726164655375636365737300000000000000000000000000000000141561168a5761168583612394565b611298565b81357f6d67764f666665722f6f75744f664c697175696469747900000000000000000014156116bc5761168583610bda565b81357f6d67764f666665722f72656e656765640000000000000000000000000000000014156116ee5761168583610bda565b6112988383610aad565b60005473ffffffffffffffffffffffffffffffffffffffff1681565b73ffffffffffffffffffffffffffffffffffffffff928316600090815260036020908152604080832094861683529381528382209282529190915220541690565b73ffffffffffffffffffffffffffffffffffffffff82166000908152600460205260409020548111156117b4576040517f08c379a0000000000000000000000000000000000000000000000000000000008152600401610a6590613cb3565b73ffffffffffffffffffffffffffffffffffffffff90911660009081526004602052604090208054919091039055565b6040517f2e1a7d4d00000000000000000000000000000000000000000000000000000000815260009073ffffffffffffffffffffffffffffffffffffffff7f00000000000000000000000000000000000000000000000000000000000000001690632e1a7d4d90611859908590600401613caa565b602060405180830381600087803b15801561187357600080fd5b505af1158015611887573d6000803e3d6000fd5b505050506040513d601f19601f820116820180604052508101906118ab9190613879565b6118b457600080fd5b8273ffffffffffffffffffffffffffffffffffffffff16826040516118d890613ac1565b60006040518083038185875af1925050503d8060008114611915576040519150601f19603f3d011682016040523d82523d6000602084013e61191a565b606091505b5090949350505050565b5161ffff80821692601083901c821692602081901c831692603082901c60ff169260409290921c1690565b60006104cd83836040518060400160405280601781526020017f6d756c7469706c69636174696f6e206f766572666c6f7700000000000000000081525061239d565b60006104cd83836040518060400160405280600e81526020017f646976696465206279207a65726f000000000000000000000000000000000000815250612475565b60006104cd83836040518060400160405280601581526020017f7375627472616374696f6e20756e646572666c6f7700000000000000000000008152506124f1565b6000818310611a2457816104cd565b5090919050565b73ffffffffffffffffffffffffffffffffffffffff909116600090815260046020526040902080549091019055565b600080611a6b898987876000612565565b90508015611ab257611ab26040518060400160405280601e81526020017f53696e676c65557365722f7570646174652f6f75744f6646756e64733a20000081525082612574565b6040517f49f6d2dc00000000000000000000000000000000000000000000000000000000815273ffffffffffffffffffffffffffffffffffffffff7f000000000000000000000000000000000000000000000000000000000000000016906349f6d2dc90611b30908c908c908c908c908c908c908c90600401613b99565b602060405180830381600087803b158015611b4a57600080fd5b505af1158015611b5e573d6000803e3d6000fd5b505050506040513d601f19601f82011682018060405250810190611b829190613895565b9998505050505050505050565b73ffffffffffffffffffffffffffffffffffffffff84811660008181526003602090815260408083208886168085529083528184208885529092529182902080547fffffffffffffffffffffffff0000000000000000000000000000000000000000169486169490941790935551849291907ff4d6dd56d4e8a2abba2bcbd020eb452fe8213f9b1466dd3f17d342f9a635343590611c2e908690613ac4565b60405180910390a450505050565b6000611c4b8989878786612565565b90508015611c9257611c926040518060400160405280601e81526020017f53696e676c65557365722f7570646174652f6f75744f6646756e64733a20000081525082612574565b6040517f6a4f769100000000000000000000000000000000000000000000000000000000815273ffffffffffffffffffffffffffffffffffffffff7f00000000000000000000000000000000000000000000000000000000000000001690636a4f769190611d12908c908c908c908c908c908c908c908c90600401613be4565b600060405180830381600087803b158015611d2c57600080fd5b505af1158015611d40573d6000803e3d6000fd5b50505050505050505050505050565b6040517f095ea7b300000000000000000000000000000000000000000000000000000000815273ffffffffffffffffffffffffffffffffffffffff83169063095ea7b390611dc3907f0000000000000000000000000000000000000000000000000000000000000000908590600401613ae5565b602060405180830381600087803b158015611ddd57600080fd5b505af1158015611df1573d6000803e3d6000fd5b505050506040513d601f19601f820116820180604052508101906112989190613879565b6040517fad97db1b00000000000000000000000000000000000000000000000000000000815260009073ffffffffffffffffffffffffffffffffffffffff7f0000000000000000000000000000000000000000000000000000000000000000169063ad97db1b90611e90908890889088908890600401613b63565b602060405180830381600087803b158015611eaa57600080fd5b505af1158015611ebe573d6000803e3d6000fd5b505050506040513d601f19601f820116820180604052508101906115b89190613895565b6040517f095ea7b300000000000000000000000000000000000000000000000000000000815273ffffffffffffffffffffffffffffffffffffffff83169063095ea7b390611f56907f0000000000000000000000000000000000000000000000000000000000000000908590600401613ae5565b602060405180830381600087803b158015611f7057600080fd5b505af1158015611f84573d6000803e3d6000fd5b505050506040513d601f19601f82011682018060405250810190611fa89190613879565b610aad576040517f08c379a0000000000000000000000000000000000000000000000000000000008152600401610a6590613d10565b6005546040517fe8eda9df00000000000000000000000000000000000000000000000000000000815273ffffffffffffffffffffffffffffffffffffffff7f0000000000000000000000000000000000000000000000000000000000000000169163e8eda9df9161205e9186918891879161ffff90911690600401613c65565b600060405180830381600087803b15801561207857600080fd5b505af115801561208c573d6000803e3d6000fd5b50505050505050565b50600190565b60006104cd838361259f565b60006104cd83836127a7565b60008060008873ffffffffffffffffffffffffffffffffffffffff1663cbf75c9a89896040518363ffffffff1660e01b81526004016120f3929190613b0b565b604080518083038186803b15801561210a57600080fd5b505afa15801561211e573d6000803e3d6000fd5b505050506040513d601f19601f8201168201806040525081019061214291906138ad565b9150915060008973ffffffffffffffffffffffffffffffffffffffff166368c13d6b8a8a886040518463ffffffff1660e01b815260040161218593929190613b32565b60206040518083038186803b15801561219d57600080fd5b505afa1580156121b1573d6000803e3d6000fd5b505050506040513d601f19601f820116820180604052508101906121d59190613895565b905060008a73ffffffffffffffffffffffffffffffffffffffff16635722647b8b8b896040518463ffffffff1660e01b815260040161221693929190613b32565b60206040518083038186803b15801561222e57600080fd5b505afa158015612242573d6000803e3d6000fd5b505050506040513d601f19601f820116820180604052508101906122669190613895565b905060008761227486612aae565b111561228a5761228385612aae565b905061228d565b50865b60008161229986612abd565b6122a287612ac8565b8c010102633b9aca0002905060006122b985612ad3565b6122c285612ada565b6122cb86612ae5565b6122d487612af0565b010102633b9aca0002905060008e73ffffffffffffffffffffffffffffffffffffffff166370a08231306040518263ffffffff1660e01b815260040161231a9190613ac4565b60206040518083038186803b15801561233257600080fd5b505afa158015612346573d6000803e3d6000fd5b505050506040513d601f19601f8201168201806040525081019061236a9190613895565b820190508281101561237e57808303612381565b60005b9f9e505050505050505050505050505050565b610bda81612afb565b60008315806123aa575082155b156123b75750600061246e565b838302838582816123c457fe5b0414839061246a576040517f08c379a00000000000000000000000000000000000000000000000000000000081526004018080602001828103825283818151815260200191508051906020019080838360005b8381101561242f578181015183820152602001612417565b50505050905090810190601f16801561245c5780820380516001836020036101000a031916815260200191505b509250505060405180910390fd5b5090505b9392505050565b600081836124de576040517f08c379a000000000000000000000000000000000000000000000000000000000815260206004820181815283516024840152835190928392604490910191908501908083836000831561242f578181015183820152602001612417565b508284816124e857fe5b04949350505050565b6000818484111561255d576040517f08c379a000000000000000000000000000000000000000000000000000000000815260206004820181815283516024840152835190928392604490910191908501908083836000831561242f578181015183820152602001612417565b505050900390565b60006115b58686868686612c75565b60008061257f612da7565b9150915061258d8482612e05565b6125978382612e34565b604481510182fd5b60003063f92495e56125b4602085018561361f565b6125c4604086016020870161361f565b85604001356040518463ffffffff1660e01b81526004016125e793929190613b32565b602060405180830381600087803b15801561260157600080fd5b505af192505050801561264f575060408051601f3d9081017fffffffffffffffffffffffffffffffffffffffffffffffffffffffffffffffe016820190925261264c9181019061363b565b60015b6126d15760408201803590612667906020850161361f565b73ffffffffffffffffffffffffffffffffffffffff1661268a602085018561361f565b73ffffffffffffffffffffffffffffffffffffffff167f0183f05915c2215b5d34518a50697296026554d1859e7d82bfade05e870d786a60405160405180910390a4611a24565b6126e1604084016020850161361f565b73ffffffffffffffffffffffffffffffffffffffff1663a9059cbb82866040518363ffffffff1660e01b815260040161271b929190613ae5565b602060405180830381600087803b15801561273557600080fd5b505af1925050508015612783575060408051601f3d9081017fffffffffffffffffffffffffffffffffffffffffffffffffffffffffffffffe016820190925261278091810190613879565b60015b61278c5761279f565b801561279d576000925050506104d0565b505b509192915050565b6000806127d46127ba602085018561361f565b6127ca604086016020870161361f565b8560400135611714565b905073ffffffffffffffffffffffffffffffffffffffff81166128735760408301803590612805906020860161361f565b73ffffffffffffffffffffffffffffffffffffffff16612828602086018661361f565b73ffffffffffffffffffffffffffffffffffffffff167f0183f05915c2215b5d34518a50697296026554d1859e7d82bfade05e870d786a60405160405180910390a4839150506104d0565b600061288d612885602086018661361f565b6000846105a6565b509050808511156128a25784925050506104d0565b60006128b4610201602087018761361f565b6040517f23b872dd00000000000000000000000000000000000000000000000000000000815290915073ffffffffffffffffffffffffffffffffffffffff8216906323b872dd9061290d90869030908b90600401613b32565b602060405180830381600087803b15801561292757600080fd5b505af1925050508015612975575060408051601f3d9081017fffffffffffffffffffffffffffffffffffffffffffffffffffffffffffffffe016820190925261297291810190613879565b60015b612a02576040850180359061298d906020880161361f565b73ffffffffffffffffffffffffffffffffffffffff166129b0602088018861361f565b73ffffffffffffffffffffffffffffffffffffffff167f3aa32c175e32764fe670a20f7800e840796a2c690e646f8d73ad446ae04628e9896040516129f59190613efe565b60405180910390a4612aa4565b612a0d87308861334d565b612a1e5760009450505050506104d0565b60408601803590612a32906020890161361f565b73ffffffffffffffffffffffffffffffffffffffff16612a55602089018961361f565b73ffffffffffffffffffffffffffffffffffffffff167f3aa32c175e32764fe670a20f7800e840796a2c690e646f8d73ad446ae04628e98a604051612a9a9190613ec0565b60405180910390a4505b5093949350505050565b61ffff604082901c165b919050565b60381c62ffffff1690565b60501c62ffffff1690565b61ffff1690565b60181c62ffffff1690565b60301c62ffffff1690565b60481c62ffffff1690565b60008160800135612b0f83606001356134e1565b03905060008260a00135612b2684606001356134f5565b03905030636a4f7691612b3c602086018661361f565b612b4c604087016020880161361f565b8486612b5b8960c00135612af0565b612b688a60600135612ad3565b612b758b60600135613509565b8b604001356040518963ffffffff1660e01b8152600401612b9d989796959493929190613be4565b600060405180830381600087803b158015612bb757600080fd5b505af1925050508015612bc8575060015b61129857612bd4613f74565b80612bdf5750612c6b565b612bef604085016020860161361f565b73ffffffffffffffffffffffffffffffffffffffff16612c12602086018661361f565b73ffffffffffffffffffffffffffffffffffffffff167f768269e5e6803a8bc566de9364d8347774fff5b114c5a2ec556ab0459a172426866040013584604051612c5d929190613e47565b60405180910390a350611685565b3d6000803e3d6000fd5b600080612c858787878787611585565b90508015612d9a576000612c9a888886611714565b905073ffffffffffffffffffffffffffffffffffffffff8116612d1a57838773ffffffffffffffffffffffffffffffffffffffff168973ffffffffffffffffffffffffffffffffffffffff167f0183f05915c2215b5d34518a50697296026554d1859e7d82bfade05e870d786a60405160405180910390a45090506115b8565b6040517f3fe3443b0000000000000000000000000000000000000000000000000000000081523090633fe3443b908490612d58908590600401613ac4565b6000604051808303818588803b158015612d7157600080fd5b505af193505050508015612d83575060015b612d8f575090506115b8565b6000925050506115b8565b5060009695505050505050565b604051600090819081610200821015612dc05761020091505b5061100081016040527f08c379a00000000000000000000000000000000000000000000000000000000081526020600482015260006024820190815290925090509091565b8151815180602001830160005b83811015612e2c5760208187018101518383015201612e12565b505001905250565b604051610200811015612e4657506102005b60405160a082015260605160c082015260805160e082015260a05161010082015260c05161012082015260e0516101408201526101005161016082015261012051610180820152610140516101a08201526130306000527f30313032303330343035303630373038303931303131313231333134313531366020527f31373138313932303231323232333234323532363237323832393330333133326040527f33333334333533363337333833393430343134323433343434353436343734386060527f34393530353135323533353435353536353735383539363036313632363336346080527f363536363637363836393730373137323733373437353736373737383739383060a0527f383138323833383438353836383738383839393039313932393339343935393660c0527f393739383939000000000000000000000000000000000000000000000000000060e05261312a565b600061ffff60646c0c9f2c9cd04674edea4000000084040660011b511660f01b61ffff60646b204fce5e3e2502611000000085040660011b511660e01b0161ffff60646a52b7d2dcc80cd2e400000085040660011b511660d01b61ffff606469d3c21bcecceda100000086040660011b511660c01b010161ffff606469021e19e0c9bab240000085040660011b511660b01b61ffff606468056bc75e2d6310000086040660011b511660a01b0161ffff6064670de0b6b3a764000086040660011b511660901b61ffff6064662386f26fc1000087040660011b511660801b01010161ffff6064655af3107a400085040660011b511660701b61ffff606464e8d4a5100086040660011b511660601b0161ffff60646402540be40086040660011b511660501b61ffff60646305f5e10087040660011b511660401b010161ffff6064620f424086040660011b511660301b61ffff606461271087040660011b511660201b0161ffff60648087040660011b511660101b61ffff6064870660011b5116010101019050919050565b60006101005260006101205261313f83612f9e565b610140526d04ee2d6d415b85acef81000000008304925082156131905761316583612f9e565b610120526d04ee2d6d415b85acef81000000008304925082156131905761318b83612f9e565b610100525b613283565b60ff7f80808080808080808080808080808080808080808080808080808080808080807f4f4f4f4f4f4f4f4f4f4f4f4f4f4f4f4f4f4f4f4f4f4f4f4f4f4f4f4f4f4f4f4f8301908116600191821c7f40404040404040404040404040404040404040404040404040404040404040401617600281901c17600481901c17600881811c909117601081901c17602081901c17604081901c17608081901c17901c017f201f1e1d1c1b1a191817161514131211100f0e0d0c0b0a09080706050403020104167fcfcfcfcfcfcfcfcfcfcfcfcfcfcfcfcfcfcfcfcfcfcfcfcfcfcfcfcfcfcfcfd09190910115150290565b61328f61014051613195565b61012051156132c45760206132a661012051613195565b01905061010051156132c45760406132c061010051613195565b0190505b82516020810184018260600380610100015182528061012001516020830152806101400151604083015250508181018452505060a081015160405260c081015160605260e081015160805261010081015160a05261012081015160c05261014081015160e05261016081015161010052610180810151610120526101a081015161014052505050565b600073ffffffffffffffffffffffffffffffffffffffff7f0000000000000000000000000000000000000000000000000000000000000000166369328dec613398602085018561361f565b86866040518463ffffffff1660e01b81526004016133b893929190613c35565b602060405180830381600087803b1580156133d257600080fd5b505af1925050508015613420575060408051601f3d9081017fffffffffffffffffffffffffffffffffffffffffffffffffffffffffffffffe016820190925261341d91810190613895565b60015b6134c65761342c613f74565b806134375750612c6b565b6040830180359061344b906020860161361f565b73ffffffffffffffffffffffffffffffffffffffff1661346e602086018661361f565b73ffffffffffffffffffffffffffffffffffffffff167f3aa32c175e32764fe670a20f7800e840796a2c690e646f8d73ad446ae04628e988856040516134b5929190613e47565b60405180910390a48491505061246e565b808514156134d857600091505061246e565b8403905061246e565b60101c6bffffffffffffffffffffffff1690565b60701c6bffffffffffffffffffffffff1690565b60d01c62ffffff1690565b6040518060800160405280600081526020016000815260200160008152602001600081525090565b60405180610100016040528060008152602001600081526020016000815260200160008152602001600081526020016000815260200160008152602001600081525090565b8051612ab881614055565b60006020828403121561359d578081fd5b6040516020810181811067ffffffffffffffff821117156135ba57fe5b6040529151825250919050565b60006101208284031215611579578081fd5b80516fffffffffffffffffffffffffffffffff81168114612ab857600080fd5b805164ffffffffff81168114612ab857600080fd5b805160ff81168114612ab857600080fd5b600060208284031215613630578081fd5b813561246e81614055565b60006020828403121561364c578081fd5b815161246e81614055565b60008060006060848603121561366b578182fd5b833561367681614055565b9250602084013561368681614055565b929592945050506040919091013590565b600080600080608085870312156136ac578081fd5b84356136b781614055565b935060208501356136c781614055565b92506040850135915060608501356136de81614077565b939692955090935050565b600080600080600060a08688031215613700578081fd5b853561370b81614055565b9450602086013561371b81614055565b94979496505050506040830135926060810135926080909101359150565b600080600080600080600060e0888a031215613753578182fd5b873561375e81614055565b9650602088013561376e81614055565b96999698505050506040850135946060810135946080820135945060a0820135935060c0909101359150565b600080600080600080600080610100898b0312156137b6578182fd5b88356137c181614055565b975060208901356137d181614055565b979a9799505050506040860135956060810135956080820135955060a0820135945060c0820135935060e0909101359150565b600080600060608486031215613818578081fd5b833561382381614055565b9250602084013561383381614077565b9150604084013561384381614055565b809150509250925092565b60008060408385031215613860578182fd5b823561386b81614055565b946020939093013593505050565b60006020828403121561388a578081fd5b815161246e81614077565b6000602082840312156138a6578081fd5b5051919050565b600080604083850312156138bf578182fd5b505080516020909101519092909150565b60006101808083850312156138e3578182fd5b6138ec81613f4a565b90506138f8848461358c565b8152613906602084016135d9565b6020820152613917604084016135d9565b6040820152613928606084016135d9565b6060820152613939608084016135d9565b608082015261394a60a084016135d9565b60a082015261395b60c084016135f9565b60c082015261396c60e08401613581565b60e082015261010061397f818501613581565b90820152610120613991848201613581565b908201526101406139a3848201613581565b908201526101606139b584820161360e565b908201529392505050565b600061012082840312156139d2578081fd5b6104cd83836135c7565b6000808284036101608112156139f0578283fd5b6139fa85856135c7565b925060407ffffffffffffffffffffffffffffffffffffffffffffffffffffffffffffffee082011215613a2b578182fd5b50610120830190509250929050565b600060208284031215613a4b578081fd5b5035919050565b600080600060608486031215613a66578081fd5b83359250602084013561383381614055565b60008060008060008060c08789031215613a90578384fd5b865195506020870151945060408701519350606087015192506080870151915060a087015190509295509295509295565b90565b73ffffffffffffffffffffffffffffffffffffffff91909116815260200190565b73ffffffffffffffffffffffffffffffffffffffff929092168252602082015260400190565b73ffffffffffffffffffffffffffffffffffffffff92831681529116602082015260400190565b73ffffffffffffffffffffffffffffffffffffffff9384168152919092166020820152604081019190915260600190565b73ffffffffffffffffffffffffffffffffffffffff94851681529290931660208301526040820152901515606082015260800190565b73ffffffffffffffffffffffffffffffffffffffff978816815295909616602086015260408501939093526060840191909152608083015260a082015260c081019190915260e00190565b73ffffffffffffffffffffffffffffffffffffffff988916815296909716602087015260408601949094526060850192909252608084015260a083015260c082015260e08101919091526101000190565b73ffffffffffffffffffffffffffffffffffffffff93841681526020810192909252909116604082015260600190565b73ffffffffffffffffffffffffffffffffffffffff948516815260208101939093529216604082015261ffff909116606082015260800190565b901515815260200190565b90815260200190565b60208082526022908201527f4d756c74694f776e65722f64656269744f6e4d67762f696e737566666963696560408201527f6e74000000000000000000000000000000000000000000000000000000000000606082015260800190565b60208082526015908201527f6d67764f666665722f617070726f76652f4661696c0000000000000000000000604082015260600190565b60208082526018908201527f416363657373436f6e74726f6c6c65642f496e76616c69640000000000000000604082015260600190565b6020808252601d908201527f4d616e67726f76654f666665722f6761737265712f6f766572666c6f77000000604082015260600190565b60208082526022908201527f4d756c7469557365722f77697468647261772f6e6f74456e676f75676846756e60408201527f6473000000000000000000000000000000000000000000000000000000000000606082015260800190565b6020808252818101527f6d67764f666665722f4d756c74694f776e65722f756e617574686f72697a6564604082015260600190565b600083825260206040818401528351806040850152825b81811015613e7a57858101830151858201606001528201613e5e565b81811115613e8b5783606083870101525b50601f017fffffffffffffffffffffffffffffffffffffffffffffffffffffffffffffffe01692909201606001949350505050565b9081526040602082018190526019908201527f6c656e6465722f6d756c74692f72656465656d4661696c656400000000000000606082015260800190565b908152604060208201819052601d908201527f6c656e6465722f6d756c74692f7472616e7366657246726f6d4661696c000000606082015260800190565b918252602082015260400190565b60405181810167ffffffffffffffff81118282101715613f6657fe5b604052919050565b60e01c90565b600060443d1015613f8457613ac1565b600481823e6308c379a0613f988251613f6e565b14613fa257613ac1565b6040517ffffffffffffffffffffffffffffffffffffffffffffffffffffffffffffffffc3d016004823e80513d67ffffffffffffffff8160248401118184111715613ff05750505050613ac1565b8284019250825191508082111561400a5750505050613ac1565b503d8301602082840101111561402257505050613ac1565b601f017fffffffffffffffffffffffffffffffffffffffffffffffffffffffffffffffe016810160200160405291505090565b73ffffffffffffffffffffffffffffffffffffffff81168114610bda57600080fd5b8015158114610bda57600080fdfea264697066735822122099b99d17a4b183077bd0380577a05466102dcf035271f643ede6bb3125e2422d64736f6c63430007060033",
  "devdoc": {
    "kind": "dev",
    "methods": {},
    "version": 1
  },
  "userdoc": {
    "kind": "user",
    "methods": {
      "approveLender(address,uint256)": {
        "notice": "approval of ctoken contract by the underlying is necessary for minting and repaying borrowuser must use this function to do so."
      },
      "approveMangrove(address,uint256)": {
        "notice": "trader needs to approve Mangrove to let it perform outbound token transfer at the end of the `makerExecute` function Warning: anyone can approve here."
      },
      "maxGettableUnderlying(address,bool,address)": {
        "notice": "Computes maximal maximal redeem capacity (R) and max borrow capacity (B|R) after R has been redeemed returns (R, B|R)"
      },
      "withdrawFromMangrove(address,uint256)": {
        "notice": "withdraws ETH from the bounty vault of the Mangrove. NB: `Mangrove.fund` function need not be called by `this` so is not included here. Warning: this function should not be called internally for msg.sender provision is being checked"
      }
    },
    "version": 1
  },
  "storageLayout": {
    "storage": [
      {
        "astId": 15134,
        "contract": "cache/solpp-generated-contracts/Strategies/OfferLogics/MultiUsers/Deployable/OfferProxy.sol:OfferProxy",
        "label": "admin",
        "offset": 0,
        "slot": "0",
        "type": "t_address"
      },
      {
        "astId": 10342,
        "contract": "cache/solpp-generated-contracts/Strategies/OfferLogics/MultiUsers/Deployable/OfferProxy.sol:OfferProxy",
        "label": "OFR_GASREQ",
        "offset": 0,
        "slot": "1",
        "type": "t_uint256"
      },
      {
        "astId": 11195,
        "contract": "cache/solpp-generated-contracts/Strategies/OfferLogics/MultiUsers/Deployable/OfferProxy.sol:OfferProxy",
        "label": "balanceOf",
        "offset": 0,
        "slot": "2",
        "type": "t_mapping(t_address,t_uint256)"
      },
      {
        "astId": 11203,
        "contract": "cache/solpp-generated-contracts/Strategies/OfferLogics/MultiUsers/Deployable/OfferProxy.sol:OfferProxy",
        "label": "_offerOwners",
        "offset": 0,
        "slot": "3",
        "type": "t_mapping(t_address,t_mapping(t_address,t_mapping(t_uint256,t_address)))"
      },
      {
        "astId": 11207,
        "contract": "cache/solpp-generated-contracts/Strategies/OfferLogics/MultiUsers/Deployable/OfferProxy.sol:OfferProxy",
        "label": "mgvBalanceOf",
        "offset": 0,
        "slot": "4",
        "type": "t_mapping(t_address,t_uint256)"
      },
      {
        "astId": 9091,
        "contract": "cache/solpp-generated-contracts/Strategies/OfferLogics/MultiUsers/Deployable/OfferProxy.sol:OfferProxy",
        "label": "referralCode",
        "offset": 0,
        "slot": "5",
        "type": "t_uint16"
      }
    ],
    "types": {
      "t_address": {
        "encoding": "inplace",
        "label": "address",
        "numberOfBytes": "20"
      },
      "t_mapping(t_address,t_mapping(t_address,t_mapping(t_uint256,t_address)))": {
        "encoding": "mapping",
        "key": "t_address",
        "label": "mapping(address => mapping(address => mapping(uint256 => address)))",
        "numberOfBytes": "32",
        "value": "t_mapping(t_address,t_mapping(t_uint256,t_address))"
      },
      "t_mapping(t_address,t_mapping(t_uint256,t_address))": {
        "encoding": "mapping",
        "key": "t_address",
        "label": "mapping(address => mapping(uint256 => address))",
        "numberOfBytes": "32",
        "value": "t_mapping(t_uint256,t_address)"
      },
      "t_mapping(t_address,t_uint256)": {
        "encoding": "mapping",
        "key": "t_address",
        "label": "mapping(address => uint256)",
        "numberOfBytes": "32",
        "value": "t_uint256"
      },
      "t_mapping(t_uint256,t_address)": {
        "encoding": "mapping",
        "key": "t_uint256",
        "label": "mapping(uint256 => address)",
        "numberOfBytes": "32",
        "value": "t_address"
      },
      "t_uint16": {
        "encoding": "inplace",
        "label": "uint16",
        "numberOfBytes": "2"
      },
      "t_uint256": {
        "encoding": "inplace",
        "label": "uint256",
        "numberOfBytes": "32"
      }
    }
  }
}