{
  "address": "0x2ff9988E7FB71deDd0F05d6A282655F70f8884Da",
  "abi": [
    {
      "inputs": [
        {
          "internalType": "address",
          "name": "_addressesProvider",
          "type": "address"
        },
        {
          "internalType": "contract IMangrove",
          "name": "_MGV",
          "type": "address"
        },
        {
          "internalType": "address",
          "name": "deployer",
          "type": "address"
        }
      ],
      "stateMutability": "nonpayable",
      "type": "constructor"
    },
    {
      "anonymous": false,
      "inputs": [
        {
          "indexed": true,
          "internalType": "contract IMangrove",
          "name": "mangrove",
          "type": "address"
        },
        {
          "indexed": true,
          "internalType": "address",
          "name": "user",
          "type": "address"
        },
        {
          "indexed": false,
          "internalType": "uint256",
          "name": "amount",
          "type": "uint256"
        }
      ],
      "name": "CreditMgvUser",
      "type": "event"
    },
    {
      "anonymous": false,
      "inputs": [
        {
          "indexed": true,
          "internalType": "contract IMangrove",
          "name": "mangrove",
          "type": "address"
        },
        {
          "indexed": true,
          "internalType": "address",
          "name": "user",
          "type": "address"
        },
        {
          "indexed": false,
          "internalType": "uint256",
          "name": "amount",
          "type": "uint256"
        }
      ],
      "name": "DebitMgvUser",
      "type": "event"
    },
    {
      "anonymous": false,
      "inputs": [
        {
          "indexed": false,
          "internalType": "contract IMangrove",
          "name": "mangrove",
          "type": "address"
        },
        {
          "indexed": true,
          "internalType": "contract IERC20",
          "name": "outbound_tkn",
          "type": "address"
        },
        {
          "indexed": true,
          "internalType": "contract IERC20",
          "name": "inbound_tkn",
          "type": "address"
        },
        {
          "indexed": true,
          "internalType": "uint256",
          "name": "offerId",
          "type": "uint256"
        },
        {
          "indexed": false,
          "internalType": "bytes32",
          "name": "reason",
          "type": "bytes32"
        }
      ],
      "name": "LogIncident",
      "type": "event"
    },
    {
      "anonymous": false,
      "inputs": [
        {
          "indexed": false,
          "internalType": "contract IMangrove",
          "name": "mangrove",
          "type": "address"
        },
        {
          "indexed": true,
          "internalType": "contract IERC20",
          "name": "outbound_tkn",
          "type": "address"
        },
        {
          "indexed": true,
          "internalType": "contract IERC20",
          "name": "inbound_tkn",
          "type": "address"
        },
        {
          "indexed": true,
          "internalType": "uint256",
          "name": "offerId",
          "type": "uint256"
        },
        {
          "indexed": false,
          "internalType": "address",
          "name": "owner",
          "type": "address"
        }
      ],
      "name": "NewOwnedOffer",
      "type": "event"
    },
    {
      "anonymous": false,
      "inputs": [
        {
          "indexed": false,
          "internalType": "uint256",
          "name": "",
          "type": "uint256"
        }
      ],
      "name": "SetGasreq",
      "type": "event"
    },
    {
      "anonymous": false,
      "inputs": [
        {
          "indexed": false,
          "internalType": "contract AbstractRouter",
          "name": "",
          "type": "address"
        }
      ],
      "name": "SetRouter",
      "type": "event"
    },
    {
      "inputs": [],
      "name": "MGV",
      "outputs": [
        {
          "internalType": "contract IMangrove",
          "name": "",
          "type": "address"
        }
      ],
      "stateMutability": "view",
      "type": "function"
    },
    {
      "inputs": [],
      "name": "admin",
      "outputs": [
        {
          "internalType": "address",
          "name": "",
          "type": "address"
        }
      ],
      "stateMutability": "view",
      "type": "function"
    },
    {
      "inputs": [
        {
          "internalType": "contract IERC20",
          "name": "token",
          "type": "address"
        }
      ],
      "name": "approveLender",
      "outputs": [],
      "stateMutability": "nonpayable",
      "type": "function"
    },
    {
      "inputs": [
        {
          "internalType": "contract IERC20",
          "name": "outbound_tkn",
          "type": "address"
        }
      ],
      "name": "approveMangrove",
      "outputs": [],
      "stateMutability": "nonpayable",
      "type": "function"
    },
    {
      "inputs": [
        {
          "internalType": "contract IERC20",
          "name": "token",
          "type": "address"
        }
      ],
      "name": "approveRouter",
      "outputs": [],
      "stateMutability": "nonpayable",
      "type": "function"
    },
    {
      "inputs": [
        {
          "internalType": "contract IERC20",
          "name": "outbound_tkn",
          "type": "address"
        },
        {
          "internalType": "contract IERC20",
          "name": "inbound_tkn",
          "type": "address"
        },
        {
          "internalType": "uint256",
          "name": "gasreq",
          "type": "uint256"
        },
        {
          "internalType": "uint256",
          "name": "gasprice",
          "type": "uint256"
        },
        {
          "internalType": "uint256",
          "name": "offerId",
          "type": "uint256"
        }
      ],
      "name": "getMissingProvision",
      "outputs": [
        {
          "internalType": "uint256",
          "name": "",
          "type": "uint256"
        }
      ],
      "stateMutability": "view",
      "type": "function"
    },
    {
      "inputs": [],
      "name": "has_router",
      "outputs": [
        {
          "internalType": "bool",
          "name": "",
          "type": "bool"
        }
      ],
      "stateMutability": "view",
      "type": "function"
    },
    {
      "inputs": [
        {
          "components": [
            {
              "internalType": "address",
              "name": "outbound_tkn",
              "type": "address"
            },
            {
              "internalType": "address",
              "name": "inbound_tkn",
              "type": "address"
            },
            {
              "internalType": "uint256",
              "name": "offerId",
              "type": "uint256"
            },
            {
              "internalType": "t",
              "name": "offer",
              "type": "uint256"
            },
            {
              "internalType": "uint256",
              "name": "wants",
              "type": "uint256"
            },
            {
              "internalType": "uint256",
              "name": "gives",
              "type": "uint256"
            },
            {
              "internalType": "t",
              "name": "offerDetail",
              "type": "uint256"
            },
            {
              "internalType": "t",
              "name": "global",
              "type": "uint256"
            },
            {
              "internalType": "t",
              "name": "local",
              "type": "uint256"
            }
          ],
          "internalType": "struct MgvLib.SingleOrder",
          "name": "order",
          "type": "tuple"
        }
      ],
      "name": "makerExecute",
      "outputs": [
        {
          "internalType": "bytes32",
          "name": "ret",
          "type": "bytes32"
        }
      ],
      "stateMutability": "nonpayable",
      "type": "function"
    },
    {
      "inputs": [
        {
          "components": [
            {
              "internalType": "address",
              "name": "outbound_tkn",
              "type": "address"
            },
            {
              "internalType": "address",
              "name": "inbound_tkn",
              "type": "address"
            },
            {
              "internalType": "uint256",
              "name": "offerId",
              "type": "uint256"
            },
            {
              "internalType": "t",
              "name": "offer",
              "type": "uint256"
            },
            {
              "internalType": "uint256",
              "name": "wants",
              "type": "uint256"
            },
            {
              "internalType": "uint256",
              "name": "gives",
              "type": "uint256"
            },
            {
              "internalType": "t",
              "name": "offerDetail",
              "type": "uint256"
            },
            {
              "internalType": "t",
              "name": "global",
              "type": "uint256"
            },
            {
              "internalType": "t",
              "name": "local",
              "type": "uint256"
            }
          ],
          "internalType": "struct MgvLib.SingleOrder",
          "name": "order",
          "type": "tuple"
        },
        {
          "components": [
            {
              "internalType": "bytes32",
              "name": "makerData",
              "type": "bytes32"
            },
            {
              "internalType": "bytes32",
              "name": "mgvData",
              "type": "bytes32"
            }
          ],
          "internalType": "struct MgvLib.OrderResult",
          "name": "result",
          "type": "tuple"
        }
      ],
      "name": "makerPosthook",
      "outputs": [],
      "stateMutability": "nonpayable",
      "type": "function"
    },
    {
      "inputs": [
        {
          "components": [
            {
              "internalType": "contract IERC20",
              "name": "outbound_tkn",
              "type": "address"
            },
            {
              "internalType": "contract IERC20",
              "name": "inbound_tkn",
              "type": "address"
            },
            {
              "internalType": "uint256",
              "name": "wants",
              "type": "uint256"
            },
            {
              "internalType": "uint256",
              "name": "gives",
              "type": "uint256"
            },
            {
              "internalType": "uint256",
              "name": "gasreq",
              "type": "uint256"
            },
            {
              "internalType": "uint256",
              "name": "gasprice",
              "type": "uint256"
            },
            {
              "internalType": "uint256",
              "name": "pivotId",
              "type": "uint256"
            },
            {
              "internalType": "uint256",
              "name": "offerId",
              "type": "uint256"
            }
          ],
          "internalType": "struct IOfferLogic.MakerOrder",
          "name": "mko",
          "type": "tuple"
        }
      ],
      "name": "newOffer",
      "outputs": [
        {
          "internalType": "uint256",
          "name": "offerId",
          "type": "uint256"
        }
      ],
      "stateMutability": "payable",
      "type": "function"
    },
    {
      "inputs": [
        {
          "internalType": "contract IERC20",
          "name": "outbound_tkn",
          "type": "address"
        },
        {
          "internalType": "contract IERC20",
          "name": "inbound_tkn",
          "type": "address"
        },
        {
          "internalType": "uint256[]",
          "name": "offerIds",
          "type": "uint256[]"
        }
      ],
      "name": "offerOwners",
      "outputs": [
        {
          "internalType": "address[]",
          "name": "_offerOwners",
          "type": "address[]"
        }
      ],
      "stateMutability": "view",
      "type": "function"
    },
    {
      "inputs": [],
      "name": "ofr_gasreq",
      "outputs": [
        {
          "internalType": "uint256",
          "name": "",
          "type": "uint256"
        }
      ],
      "stateMutability": "view",
      "type": "function"
    },
    {
      "inputs": [
        {
          "internalType": "contract IERC20",
          "name": "outbound_tkn",
          "type": "address"
        },
        {
          "internalType": "contract IERC20",
          "name": "inbound_tkn",
          "type": "address"
        },
        {
          "internalType": "uint256",
          "name": "offerId",
          "type": "uint256"
        }
      ],
      "name": "ownerOf",
      "outputs": [
        {
          "internalType": "address",
          "name": "owner",
          "type": "address"
        }
      ],
      "stateMutability": "view",
      "type": "function"
    },
    {
      "inputs": [
        {
          "internalType": "contract IERC20",
          "name": "outbound_tkn",
          "type": "address"
        },
        {
          "internalType": "contract IERC20",
          "name": "inbound_tkn",
          "type": "address"
        },
        {
          "internalType": "uint256",
          "name": "offerId",
          "type": "uint256"
        },
        {
          "internalType": "bool",
          "name": "deprovision",
          "type": "bool"
        }
      ],
      "name": "retractOffer",
      "outputs": [
        {
          "internalType": "uint256",
          "name": "free_wei",
          "type": "uint256"
        }
      ],
      "stateMutability": "nonpayable",
      "type": "function"
    },
    {
      "inputs": [],
      "name": "router",
      "outputs": [
        {
          "internalType": "contract AbstractRouter",
          "name": "",
          "type": "address"
        }
      ],
      "stateMutability": "view",
      "type": "function"
    },
    {
      "inputs": [
        {
          "internalType": "address",
          "name": "_admin",
          "type": "address"
        }
      ],
      "name": "setAdmin",
      "outputs": [],
      "stateMutability": "nonpayable",
      "type": "function"
    },
    {
      "inputs": [
        {
          "internalType": "uint256",
          "name": "gasreq",
          "type": "uint256"
        }
      ],
      "name": "set_gasreq",
      "outputs": [],
      "stateMutability": "nonpayable",
      "type": "function"
    },
    {
      "inputs": [
        {
          "internalType": "contract AbstractRouter",
          "name": "router_",
          "type": "address"
        }
      ],
      "name": "set_router",
      "outputs": [],
      "stateMutability": "nonpayable",
      "type": "function"
    },
    {
      "inputs": [
        {
          "internalType": "contract IERC20",
          "name": "token",
          "type": "address"
        }
      ],
      "name": "tokenBalance",
      "outputs": [
        {
          "internalType": "uint256",
          "name": "",
          "type": "uint256"
        }
      ],
      "stateMutability": "view",
      "type": "function"
    },
    {
      "inputs": [
        {
          "components": [
            {
              "internalType": "contract IERC20",
              "name": "outbound_tkn",
              "type": "address"
            },
            {
              "internalType": "contract IERC20",
              "name": "inbound_tkn",
              "type": "address"
            },
            {
              "internalType": "uint256",
              "name": "wants",
              "type": "uint256"
            },
            {
              "internalType": "uint256",
              "name": "gives",
              "type": "uint256"
            },
            {
              "internalType": "uint256",
              "name": "gasreq",
              "type": "uint256"
            },
            {
              "internalType": "uint256",
              "name": "gasprice",
              "type": "uint256"
            },
            {
              "internalType": "uint256",
              "name": "pivotId",
              "type": "uint256"
            },
            {
              "internalType": "uint256",
              "name": "offerId",
              "type": "uint256"
            }
          ],
          "internalType": "struct IOfferLogic.MakerOrder",
          "name": "mko",
          "type": "tuple"
        }
      ],
      "name": "updateOffer",
      "outputs": [],
      "stateMutability": "payable",
      "type": "function"
    },
    {
      "inputs": [
        {
          "internalType": "uint256",
          "name": "amount",
          "type": "uint256"
        },
        {
          "internalType": "address payable",
          "name": "receiver",
          "type": "address"
        }
      ],
      "name": "withdrawFromMangrove",
      "outputs": [],
      "stateMutability": "nonpayable",
      "type": "function"
    },
    {
      "inputs": [
        {
          "internalType": "contract IERC20",
          "name": "token",
          "type": "address"
        },
        {
          "internalType": "address",
          "name": "receiver",
          "type": "address"
        },
        {
          "internalType": "uint256",
          "name": "amount",
          "type": "uint256"
        }
      ],
      "name": "withdrawToken",
      "outputs": [
        {
          "internalType": "bool",
          "name": "success",
          "type": "bool"
        }
      ],
      "stateMutability": "nonpayable",
      "type": "function"
    },
    {
      "stateMutability": "payable",
      "type": "receive"
    }
  ],
  "transactionHash": "0x8e757a61ad9d653b4424977fb85179d17e878a2cc0e6fc8b0a80d6b289ac0d85",
  "args": [
    "0x5343b5bA672Ae99d627A1C87866b8E53F47Db2E6",
    "0xF3e339d8a0B989114412fa157Cc846ebaf4BCbd8",
    "0x47897EE61498D02B18794601Ed3A71896A1Ff894"
  ],
  "numDeployments": 1,
  "solcInputHash": "41808ddd304be4621e830841e310c2e9",
  "bytecode": "0x60a06040523480156200001157600080fd5b50604051620089523803806200895283398101604081905262000034916200062c565b818360006002604051620000489062000605565b6001600160a01b03909316835260208301919091526040820152606001604051809103906000f08015801562000082573d6000803e3d6000fd5b5061c35082828282813380620000df5760405162461bcd60e51b815260206004820152601860248201527f616363657373436f6e74726f6c6c65642f307841646d696e000000000000000060448201526064015b60405180910390fd5b80620000f56200028360201b6200200d1760201c565b80546001600160a01b0319166001600160a01b03929092169190911790555062ffffff811681146200016a5760405162461bcd60e51b815260206004820152601b60248201527f4d616e67726f76654f666665722f676173726571546f6f4869676800000000006044820152606401620000d6565b6001600160a01b038216608052806200018e620002a7602090811b6200203117901c565b5550506001600160a01b038216620001de5760405162461bcd60e51b815260206004820152601260248201527126bab63a34aab9b2b917983c2937baba32b960711b6044820152606401620000d6565b620001e982620002cb565b505050505050620001ff6200047560201b60201c565b604051633825b60160e11b81526001600160a01b038381166004830152919091169063704b6c0290602401600060405180830381600087803b1580156200024557600080fd5b505af11580156200025a573d6000803e3d6000fd5b505050506001600160a01b03811633146200027a576200027a81620004e4565b50505062000680565b7f7d382ebca3e46505071795e192d28166a3d4bd0685585591bc6c5b8df6769fd290565b7fae7e31c3220e851db9f204a28b279dfe52b973600b0a456991089c220ae7222490565b620002d5620005df565b6001600160a01b0316336001600160a01b031614806200030857506080516001600160a01b0316336001600160a01b0316145b620003565760405162461bcd60e51b815260206004820152601860248201527f416363657373436f6e74726f6c6c65642f496e76616c696400000000000000006044820152606401620000d6565b6001600160a01b038116620003ae5760405162461bcd60e51b815260206004820152601c60248201527f6d67764f666665722f7365745f726f757465722f3078526f75746572000000006044820152606401620000d6565b80620003c4620002a760201b620020311760201c565b60010180546001600160a01b0319166001600160a01b039283161790556040516381bac14f60e01b8152306004820152908216906381bac14f90602401600060405180830381600087803b1580156200041c57600080fd5b505af115801562000431573d6000803e3d6000fd5b50506040516001600160a01b03841681527f6de4326a8b9054d72d9dbab97d27bc4edffadee7d966f5af9cc4eafdaf8e54559250602001905060405180910390a150565b6000806200048d620002a760201b620020311760201c565b600101546001600160a01b0316905080620004df5760405162461bcd60e51b815260206004820152601160248201527036b3bb27b33332b917983c2937baba32b960791b6044820152606401620000d6565b919050565b620004ee620005df565b6001600160a01b0316336001600160a01b031614620005505760405162461bcd60e51b815260206004820152601860248201527f416363657373436f6e74726f6c6c65642f496e76616c696400000000000000006044820152606401620000d6565b6001600160a01b038116620005a85760405162461bcd60e51b815260206004820152601860248201527f416363657373436f6e74726f6c6c65642f307841646d696e00000000000000006044820152606401620000d6565b80620005be6200028360201b6200200d1760201c565b80546001600160a01b0319166001600160a01b039290921691909117905550565b6000620005f66200028360201b6200200d1760201c565b546001600160a01b0316919050565b614b398062003e1983390190565b6001600160a01b03811681146200062957600080fd5b50565b6000806000606084860312156200064257600080fd5b83516200064f8162000613565b6020850151909350620006628162000613565b6040850151909250620006758162000613565b809150509250925092565b6080516136e362000736600039600081816102ce0152818161068a015281816107b90152818161084701528181610bd601528181610c8e01528181610e9901528181611002015281816110dc015281816111e0015281816115cb015281816118920152818161195401528181611b2201528181611ef801528181612128015281816121f40152818161227f015281816125800152818161282f01528181612ac901528181612bfa01526130bf01526136e36000f3fe6080604052600436106101795760003560e01c8063ca34f9ec116100cb578063eedc966a1161007f578063f887ea4011610059578063f887ea4014610481578063f92495e514610496578063fc488a38146104b657600080fd5b8063eedc966a146103f7578063f259cd2714610417578063f851a4401461043757600080fd5b8063db11851e116100b0578063db11851e1461038a578063dec8c86b146103aa578063e4c34f84146103d757600080fd5b8063ca34f9ec14610355578063d1baa1ef1461037557600080fd5b8063704b6c021161012d57806399fa5e2d1161010757806399fa5e2d146102bc5780639f2211cb14610315578063ad97db1b1461033557600080fd5b8063704b6c02146102305780637144df241461025057806384b627f91461027057600080fd5b80633d3d130d1161015e5780633d3d130d146101cf5780635486c95f146101ef5780636c49c32c1461021057600080fd5b806301e336671461018557806310aded60146101ba57600080fd5b3661018057005b600080fd5b34801561019157600080fd5b506101a56101a0366004613143565b6104d6565b60405190151581526020015b60405180910390f35b6101cd6101c8366004613184565b610621565b005b3480156101db57600080fd5b506101cd6101ea3660046131aa565b610688565b6102026101fd366004613184565b610822565b6040519081526020016101b1565b34801561021c57600080fd5b5061020261022b36600461320a565b610843565b34801561023c57600080fd5b506101cd61024b366004613227565b6109ac565b34801561025c57600080fd5b506101cd61026b366004613244565b610afb565b34801561027c57600080fd5b507fae7e31c3220e851db9f204a28b279dfe52b973600b0a456991089c220ae722255473ffffffffffffffffffffffffffffffffffffffff1615156101a5565b3480156102c857600080fd5b506102f07f000000000000000000000000000000000000000000000000000000000000000081565b60405173ffffffffffffffffffffffffffffffffffffffff90911681526020016101b1565b34801561032157600080fd5b506101cd610330366004613227565b610e5c565b34801561034157600080fd5b50610202610350366004613282565b610f80565b34801561036157600080fd5b506101cd610370366004613227565b6113d1565b34801561038157600080fd5b5061020261145f565b34801561039657600080fd5b506101cd6103a5366004613227565b611573565b3480156103b657600080fd5b506103ca6103c53660046132d5565b6117b9565b6040516101b1919061336a565b3480156103e357600080fd5b506102026103f23660046133c4565b611877565b34801561040357600080fd5b50610202610412366004613227565b611bc4565b34801561042357600080fd5b506101cd610432366004613227565b611c66565b34801561044357600080fd5b507f7d382ebca3e46505071795e192d28166a3d4bd0685585591bc6c5b8df6769fd25473ffffffffffffffffffffffffffffffffffffffff166102f0565b34801561048d57600080fd5b506102f0611d8b565b3480156104a257600080fd5b506102f06104b1366004613143565b611e18565b3480156104c257600080fd5b506101cd6104d1366004613415565b611ea0565b600073ffffffffffffffffffffffffffffffffffffffff83166105665760405162461bcd60e51b815260206004820152602260248201527f4d756c7469557365722f7769746864726177546f6b656e2f307852656365697660448201527f657200000000000000000000000000000000000000000000000000000000000060648201526084015b60405180910390fd5b61056e611d8b565b6040517f21754d9e00000000000000000000000000000000000000000000000000000000815273ffffffffffffffffffffffffffffffffffffffff868116600483015233602483015285811660448301526064820185905291909116906321754d9e906084016020604051808303816000875af11580156105f3573d6000803e3d6000fd5b505050506040513d601f19601f82011682018060405250810190610617919061342e565b90505b9392505050565b6106396106333683900383018361347a565b34612055565b6106855760405162461bcd60e51b815260206004820152601960248201527f4d756c7469557365722f7570646174654f666665724661696c00000000000000604482015260640161055d565b50565b7f000000000000000000000000000000000000000000000000000000000000000073ffffffffffffffffffffffffffffffffffffffff811615806106e157503373ffffffffffffffffffffffffffffffffffffffff8216145b61072d5760405162461bcd60e51b815260206004820152601860248201527f416363657373436f6e74726f6c6c65642f496e76616c69640000000000000000604482015260640161055d565b81602001357f6d67762f7472616465537563636573730000000000000000000000000000000003610767576107618361269d565b50505050565b6040830180359061077b9060208601613227565b73ffffffffffffffffffffffffffffffffffffffff1661079e6020860186613227565b6040805173ffffffffffffffffffffffffffffffffffffffff7f0000000000000000000000000000000000000000000000000000000000000000811682528735602083015292909216917f736a3993b9f8b1c5603896c76376792887f376b1fe7fc981e09a16530bf1e4e0910160405180910390a4610761838361278e565b505050565b600061083d6108363684900384018461347a565b3334612a6e565b92915050565b60007f000000000000000000000000000000000000000000000000000000000000000073ffffffffffffffffffffffffffffffffffffffff8116158061089e57503373ffffffffffffffffffffffffffffffffffffffff8216145b6108ea5760405162461bcd60e51b815260206004820152601860248201527f416363657373436f6e74726f6c6c65642f496e76616c69640000000000000000604482015260640161055d565b60006108fa8460a0013585612d30565b11156109485760405162461bcd60e51b815260206004820152601860248201527f6d67764f666665722f61626f72742f7075744661696c65640000000000000000604482015260640161055d565b6000610958846080013585612e0f565b11156109a65760405162461bcd60e51b815260206004820152601860248201527f6d67764f666665722f61626f72742f6765744661696c65640000000000000000604482015260640161055d565b50919050565b7f7d382ebca3e46505071795e192d28166a3d4bd0685585591bc6c5b8df6769fd25473ffffffffffffffffffffffffffffffffffffffff163314610a325760405162461bcd60e51b815260206004820152601860248201527f416363657373436f6e74726f6c6c65642f496e76616c69640000000000000000604482015260640161055d565b73ffffffffffffffffffffffffffffffffffffffff8116610a955760405162461bcd60e51b815260206004820152601860248201527f416363657373436f6e74726f6c6c65642f307841646d696e0000000000000000604482015260640161055d565b7f7d382ebca3e46505071795e192d28166a3d4bd0685585591bc6c5b8df6769fd280547fffffffffffffffffffffffff00000000000000000000000000000000000000001673ffffffffffffffffffffffffffffffffffffffff92909216919091179055565b7f7d382ebca3e46505071795e192d28166a3d4bd0685585591bc6c5b8df6769fd25473ffffffffffffffffffffffffffffffffffffffff163314610b815760405162461bcd60e51b815260206004820152601860248201527f416363657373436f6e74726f6c6c65642f496e76616c69640000000000000000604482015260640161055d565b7fffffffffffffffffffffffffffffffffffffffffffffffffffffffffffffffff8203610c5f576040517f70a082310000000000000000000000000000000000000000000000000000000081523060048201527f000000000000000000000000000000000000000000000000000000000000000073ffffffffffffffffffffffffffffffffffffffff16906370a0823190602401602060405180830381865afa158015610c32573d6000803e3d6000fd5b505050506040513d601f19601f82011682018060405250810190610c56919061353f565b91508115610e58575b6040517f2e1a7d4d000000000000000000000000000000000000000000000000000000008152600481018390527f000000000000000000000000000000000000000000000000000000000000000073ffffffffffffffffffffffffffffffffffffffff1690632e1a7d4d906024016020604051808303816000875af1158015610cec573d6000803e3d6000fd5b505050506040513d601f19601f82011682018060405250810190610d10919061342e565b610d825760405162461bcd60e51b815260206004820152602560248201527f6d67764f666665722f776974686472617746726f6d4d67762f7769746864726160448201527f774661696c000000000000000000000000000000000000000000000000000000606482015260840161055d565b60008173ffffffffffffffffffffffffffffffffffffffff168360405160006040518083038185875af1925050503d8060008114610ddc576040519150601f19603f3d011682016040523d82523d6000602084013e610de1565b606091505b505090508061081d5760405162461bcd60e51b815260206004820152602860248201527f6d67764f666665722f776974686472617746726f6d4d67762f70617961626c6560448201527f43616c6c4661696c000000000000000000000000000000000000000000000000606482015260840161055d565b5050565b6040517f095ea7b300000000000000000000000000000000000000000000000000000000815273ffffffffffffffffffffffffffffffffffffffff7f0000000000000000000000000000000000000000000000000000000000000000811660048301527fffffffffffffffffffffffffffffffffffffffffffffffffffffffffffffffff602483015282169063095ea7b3906044016020604051808303816000875af1158015610f10573d6000803e3d6000fd5b505050506040513d601f19601f82011682018060405250810190610f34919061342e565b6106855760405162461bcd60e51b815260206004820152601d60248201527f6d67764f666665722f617070726f76654d616e67726f76652f4661696c000000604482015260640161055d565b73ffffffffffffffffffffffffffffffffffffffff848116600090815260208181526040808320878516845282528083208684528252808320815180830190925254938416808252740100000000000000000000000000000000000000009094046bffffffffffffffffffffffff1691810191909152909133148061103a57507f000000000000000000000000000000000000000000000000000000000000000073ffffffffffffffffffffffffffffffffffffffff1633145b6110865760405162461bcd60e51b815260206004820152601f60248201527f4d756c74692f726574726163744f666665722f756e617574686f72697a656400604482015260640161055d565b60208101516bffffffffffffffffffffffff16156110c557826110aa5760006110b0565b80602001515b6bffffffffffffffffffffffff1691506111ab565b73ffffffffffffffffffffffffffffffffffffffff7f00000000000000000000000000000000000000000000000000000000000000001663ad97db1b87876040517fffffffff0000000000000000000000000000000000000000000000000000000060e085901b16815273ffffffffffffffffffffffffffffffffffffffff9283166004820152911660248201526044810187905285151560648201526084016020604051808303816000875af1158015611184573d6000803e3d6000fd5b505050506040513d601f19601f820116820180604052508101906111a8919061353f565b91505b81156113c8576040517f2e1a7d4d000000000000000000000000000000000000000000000000000000008152600481018390527f000000000000000000000000000000000000000000000000000000000000000073ffffffffffffffffffffffffffffffffffffffff1690632e1a7d4d906024016020604051808303816000875af115801561123e573d6000803e3d6000fd5b505050506040513d601f19601f82011682018060405250810190611262919061342e565b6112ae5760405162461bcd60e51b815260206004820152601660248201527f4d756c7469557365722f77697468647261774661696c00000000000000000000604482015260640161055d565b604080518082018252825173ffffffffffffffffffffffffffffffffffffffff9081168252600060208084018281528b841683528282528583208b8516845282528583208a8452909152848220935190516bffffffffffffffffffffffff16740100000000000000000000000000000000000000000292169190911790915590513390849060006040518083038185875af1925050503d8060008114611370576040519150601f19603f3d011682016040523d82523d6000602084013e611375565b606091505b50509050806113c65760405162461bcd60e51b815260206004820152601960248201527f4d756c7469557365722f7765695472616e736665724661696c00000000000000604482015260640161055d565b505b50949350505050565b6113d9612f13565b6040517fca34f9ec00000000000000000000000000000000000000000000000000000000815273ffffffffffffffffffffffffffffffffffffffff8381166004830152919091169063ca34f9ec90602401600060405180830381600087803b15801561144457600080fd5b505af1158015611458573d6000803e3d6000fd5b5050505050565b60006114a17fae7e31c3220e851db9f204a28b279dfe52b973600b0a456991089c220ae722255473ffffffffffffffffffffffffffffffffffffffff16151590565b1561154d576114ae611d8b565b73ffffffffffffffffffffffffffffffffffffffff16630417ffda6040518163ffffffff1660e01b8152600401602060405180830381865afa1580156114f8573d6000803e3d6000fd5b505050506040513d601f19601f8201168201806040525081019061151c919061353f565b7fae7e31c3220e851db9f204a28b279dfe52b973600b0a456991089c220ae72224546115489190613587565b905090565b507fae7e31c3220e851db9f204a28b279dfe52b973600b0a456991089c220ae722245490565b7f7d382ebca3e46505071795e192d28166a3d4bd0685585591bc6c5b8df6769fd25473ffffffffffffffffffffffffffffffffffffffff163314806115ed57503373ffffffffffffffffffffffffffffffffffffffff7f000000000000000000000000000000000000000000000000000000000000000016145b6116395760405162461bcd60e51b815260206004820152601860248201527f416363657373436f6e74726f6c6c65642f496e76616c69640000000000000000604482015260640161055d565b73ffffffffffffffffffffffffffffffffffffffff811661169c5760405162461bcd60e51b815260206004820152601c60248201527f6d67764f666665722f7365745f726f757465722f3078526f7574657200000000604482015260640161055d565b807fae7e31c3220e851db9f204a28b279dfe52b973600b0a456991089c220ae7222460010180547fffffffffffffffffffffffff00000000000000000000000000000000000000001673ffffffffffffffffffffffffffffffffffffffff9283161790556040517f81bac14f000000000000000000000000000000000000000000000000000000008152306004820152908216906381bac14f90602401600060405180830381600087803b15801561175357600080fd5b505af1158015611767573d6000803e3d6000fd5b505060405173ffffffffffffffffffffffffffffffffffffffff841681527f6de4326a8b9054d72d9dbab97d27bc4edffadee7d966f5af9cc4eafdaf8e5455925060200190505b60405180910390a150565b60608167ffffffffffffffff8111156117d4576117d461344b565b6040519080825280602002602001820160405280156117fd578160200160208202803683370190505b50905060005b828110156113c85761182e86868686858181106118225761182261359f565b90506020020135611e18565b8282815181106118405761184061359f565b73ffffffffffffffffffffffffffffffffffffffff909216602092830291909101909101528061186f816135ce565b915050611803565b6000808073ffffffffffffffffffffffffffffffffffffffff7f00000000000000000000000000000000000000000000000000000000000000001663cbf75c9a89896040517fffffffff0000000000000000000000000000000000000000000000000000000060e085901b16815273ffffffffffffffffffffffffffffffffffffffff9283166004820152911660248201526044016040805180830381865afa158015611928573d6000803e3d6000fd5b505050506040513d601f19601f8201168201806040525081019061194c9190613606565b9150915060007f000000000000000000000000000000000000000000000000000000000000000073ffffffffffffffffffffffffffffffffffffffff16635722647b6119958b90565b8a6040517fffffffff0000000000000000000000000000000000000000000000000000000060e085901b16815273ffffffffffffffffffffffffffffffffffffffff92831660048201529116602482015260448101889052606401602060405180830381865afa158015611a0d573d6000803e3d6000fd5b505050506040513d601f19601f82011682018060405250810190611a31919061353f565b9050600086604085901c61ffff161115611a54575061ffff604084901c16611a57565b50855b62ffffff8810611a6c57611a6961145f565b97505b600081611a8262ffffff606087901c168b613587565b611a8c919061362a565b611a9a90633b9aca0061362a565b9050600061ffff602085901c16611ac162ffffff603087901c811690604888901c16613587565b611acb919061362a565b611ad990633b9aca0061362a565b6040517f70a0823100000000000000000000000000000000000000000000000000000000815230600482015290915060009073ffffffffffffffffffffffffffffffffffffffff7f000000000000000000000000000000000000000000000000000000000000000016906370a0823190602401602060405180830381865afa158015611b69573d6000803e3d6000fd5b505050506040513d601f19601f82011682018060405250810190611b8d919061353f565b611b979083613587565b905082811015611bb057611bab8184613667565b611bb3565b60005b9d9c50505050505050505050505050565b6000611bce611d8b565b6040517f05684fde00000000000000000000000000000000000000000000000000000000815273ffffffffffffffffffffffffffffffffffffffff848116600483015233602483015291909116906305684fde90604401602060405180830381865afa158015611c42573d6000803e3d6000fd5b505050506040513d601f19601f8201168201806040525081019061083d919061353f565b8073ffffffffffffffffffffffffffffffffffffffff1663095ea7b3611c8a611d8b565b6040517fffffffff0000000000000000000000000000000000000000000000000000000060e084901b16815273ffffffffffffffffffffffffffffffffffffffff90911660048201527fffffffffffffffffffffffffffffffffffffffffffffffffffffffffffffffff60248201526044016020604051808303816000875af1158015611d1b573d6000803e3d6000fd5b505050506040513d601f19601f82011682018060405250810190611d3f919061342e565b6106855760405162461bcd60e51b815260206004820152601b60248201527f6d67764f666665722f617070726f7665526f757465722f4661696c0000000000604482015260640161055d565b7fae7e31c3220e851db9f204a28b279dfe52b973600b0a456991089c220ae722255460009073ffffffffffffffffffffffffffffffffffffffff1680611e135760405162461bcd60e51b815260206004820152601160248201527f6d67764f666665722f3078526f75746572000000000000000000000000000000604482015260640161055d565b919050565b73ffffffffffffffffffffffffffffffffffffffff80841660009081526020818152604080832086851684528252808320858452909152902054168061061a5760405162461bcd60e51b815260206004820152601560248201527f6d756c7469557365722f756e6b6f776e4f666665720000000000000000000000604482015260640161055d565b7f7d382ebca3e46505071795e192d28166a3d4bd0685585591bc6c5b8df6769fd25473ffffffffffffffffffffffffffffffffffffffff16331480611f1a57503373ffffffffffffffffffffffffffffffffffffffff7f000000000000000000000000000000000000000000000000000000000000000016145b611f665760405162461bcd60e51b815260206004820152601860248201527f416363657373436f6e74726f6c6c65642f496e76616c69640000000000000000604482015260640161055d565b808162ffffff1614611fba5760405162461bcd60e51b815260206004820152601860248201527f6d67764f666665722f6761737265712f6f766572666c6f770000000000000000604482015260640161055d565b807fae7e31c3220e851db9f204a28b279dfe52b973600b0a456991089c220ae72224556040518181527fafef3ad374c0b972e3c793be825735801fa05cc4c67157d98d9a111b4027988d906020016117ae565b7f7d382ebca3e46505071795e192d28166a3d4bd0685585591bc6c5b8df6769fd290565b7fae7e31c3220e851db9f204a28b279dfe52b973600b0a456991089c220ae7222490565b815173ffffffffffffffffffffffffffffffffffffffff9081166000908152602081815260408083208287015185168452825280832060e0870151845282528083208151808301835290549485168152740100000000000000000000000000000000000000009094046bffffffffffffffffffffffff16848301528051608081018252838152918201839052810182905260608101829052909190815173ffffffffffffffffffffffffffffffffffffffff1633148061214a57503373ffffffffffffffffffffffffffffffffffffffff7f000000000000000000000000000000000000000000000000000000000000000016145b6121965760405162461bcd60e51b815260206004820152601e60248201527f4d756c74692f7570646174654f666665722f756e617574686f72697a65640000604482015260640161055d565b8451602086015160e08701516040517f5722647b00000000000000000000000000000000000000000000000000000000815273ffffffffffffffffffffffffffffffffffffffff9384166004820152918316602483015260448201527f000000000000000000000000000000000000000000000000000000000000000090911690635722647b90606401602060405180830381865afa15801561223d573d6000803e3d6000fd5b505050506040513d601f19601f82011682018060405250810190612261919061353f565b6040820152845173ffffffffffffffffffffffffffffffffffffffff7f0000000000000000000000000000000000000000000000000000000000000000169063cbf75c9a9060208801516040517fffffffff0000000000000000000000000000000000000000000000000000000060e085901b16815273ffffffffffffffffffffffffffffffffffffffff9283166004820152911660248201526044016040805180830381865afa15801561231a573d6000803e3d6000fd5b505050506040513d601f19601f8201168201806040525081019061233e9190613606565b6020830152815260608101849052608085015162ffffff1061236457846080015161236c565b61236c61145f565b6080860152604081015160201c61ffff1660a0860181905260000361247b5760208201516bffffffffffffffffffffffff16156124515781602001516bffffffffffffffffffffffff16816060018181516123c79190613587565b905250604080518082018252835173ffffffffffffffffffffffffffffffffffffffff9081168252600060208084018281528a51841683528282528583208b83015185168452825285832060e08c01518452909152939020915192516bffffffffffffffffffffffff16740100000000000000000000000000000000000000000292169190911790555b6080850151606080830151602084015161247193921c62ffffff16612f1d565b60a08601526124fc565b83156124fc57602081015160601c62ffffff16604082015160481c62ffffff166124a59190613587565b60a08601516124b890633b9aca0061362a565b6124c2919061362a565b816060018181516124d39190613587565b905250608085015160608083015160208401516124f693921c62ffffff16612f1d565b60a08601525b805160401c61ffff168560a00151101561257e5760405162461bcd60e51b815260206004820152602860248201527f4d756c7469557365722f7570646174654f666665722f4e6f74456e6f7567685060448201527f726f766973696f6e000000000000000000000000000000000000000000000000606482015260840161055d565b7f000000000000000000000000000000000000000000000000000000000000000073ffffffffffffffffffffffffffffffffffffffff16636a4f7691856125c6886000015190565b602089015189604001518a606001518b608001518c60a001518d60c001518e60e001516040518a63ffffffff1660e01b815260040161265898979695949392919073ffffffffffffffffffffffffffffffffffffffff988916815296909716602087015260408601949094526060850192909252608084015260a083015260c082015260e08101919091526101000190565b6000604051808303818588803b15801561267157600080fd5b505af193505050508015612683575060015b6126925760009250505061083d565b506001949350505050565b6000806126a983612fc9565b905060006126b684612fee565b9050816000036126ca575060019392505050565b60408051610100810190915261278690806126e86020880188613227565b73ffffffffffffffffffffffffffffffffffffffff1681526020018660200160208101906127169190613227565b73ffffffffffffffffffffffffffffffffffffffff168152602081018490526040810185905260600160c087013560481c62ffffff16815260209081019060c0880135901c61ffff168152602001606087013560c01c63ffffffff16815260200186604001358152506000612055565b949350505050565b60008061279e6020850185613227565b905060006127b26040860160208701613227565b73ffffffffffffffffffffffffffffffffffffffff838116600090815260208181526040808320858516845282528083208a8201358452825280832081518083019092525480851682527401000000000000000000000000000000000000000090046bffffffffffffffffffffffff1681830152939450909182917f00000000000000000000000000000000000000000000000000000000000000009091169063cbf75c9a90612864908b018b613227565b61287460408c0160208d01613227565b6040517fffffffff0000000000000000000000000000000000000000000000000000000060e085901b16815273ffffffffffffffffffffffffffffffffffffffff9283166004820152911660248201526044016040805180830381865afa1580156128e3573d6000803e3d6000fd5b505050506040513d601f19601f820116820180604052508101906129079190613606565b9092509050600061292461ffff604085901c16633b9aca0061362a565b9050600060c08a013560301c62ffffff1660c08b013560481c62ffffff1661294c9190613587565b61296561ffff60c08d013560201c16633b9aca0061362a565b61296f919061362a565b9050600082606085901c62ffffff165a60c08e013560481c62ffffff166129969190613667565b6129a290610bb8613587565b6129ac9190613587565b6129b6919061362a565b90506000828210156129d1576129cc8284613667565b6129d4565b60005b604080518082018252985173ffffffffffffffffffffffffffffffffffffffff9081168a526bffffffffffffffffffffffff9283166020808c019182529c82166000908152808e528381209c831681529b8d52828c209f8301358c529e909b5290982096519b5190971674010000000000000000000000000000000000000000029a90971699909917909355506001979650505050505050565b825160208401516040517fcbf75c9a00000000000000000000000000000000000000000000000000000000815273ffffffffffffffffffffffffffffffffffffffff92831660048201529082166024820152600091829182917f0000000000000000000000000000000000000000000000000000000000000000169063cbf75c9a906044016040805180830381865afa158015612b0f573d6000803e3d6000fd5b505050506040513d601f19601f82011682018060405250810190612b339190613606565b9150915062ffffff8016866080015111612b51578560800151612b59565b612b5961145f565b60808701819052612b749085606084901c62ffffff16612f1d565b60a0870181905261ffff604084901c161115612bf85760405162461bcd60e51b815260206004820152602560248201527f4d756c7469557365722f6e65774f666665722f4e6f74456e6f75676850726f7660448201527f6973696f6e000000000000000000000000000000000000000000000000000000606482015260840161055d565b7f000000000000000000000000000000000000000000000000000000000000000073ffffffffffffffffffffffffffffffffffffffff166349f6d2dc85612c40896000015190565b60208a01518a604001518b606001518c608001518d60a001518e60c001516040518963ffffffff1660e01b8152600401612cc6979695949392919073ffffffffffffffffffffffffffffffffffffffff978816815295909616602086015260408501939093526060840191909152608083015260a082015260c081019190915260e00190565b60206040518083038185885af1158015612ce4573d6000803e3d6000fd5b50505050506040513d601f19601f82011682018060405250810190612d09919061353f565b60e0870181905286516020880151612d219288613010565b50505060e08301519392505050565b600080612d406020840184613227565b90506000612d546040850160208601613227565b90506000612d6783838760400135611e18565b9050612d71611d8b565b6040517f26e8eda200000000000000000000000000000000000000000000000000000000815273ffffffffffffffffffffffffffffffffffffffff848116600483015283811660248301526044820189905291909116906326e8eda290606401600060405180830381600087803b158015612deb57600080fd5b505af1158015612dff573d6000803e3d6000fd5b5060009998505050505050505050565b600080612e1f6020840184613227565b90506000612e336040850160208601613227565b90506000612e4683838760400135611e18565b90506000612e52611d8b565b6040517f333dbb0d00000000000000000000000000000000000000000000000000000000815273ffffffffffffffffffffffffffffffffffffffff86811660048301528481166024830152604482018a905260016064830152919091169063333dbb0d906084016020604051808303816000875af1158015612ed8573d6000803e3d6000fd5b505050506040513d601f19601f82011682018060405250810190612efc919061353f565b9050612f088188613667565b979650505050505050565b6000611548611d8b565b600080612f2a8584613587565b612f3890633b9aca0061362a565b905080841015612fb05760405162461bcd60e51b815260206004820152602c60248201527f4d756c7469557365722f6465726976655f67617370726963652f4e6f74456e6f60448201527f75676850726f766973696f6e0000000000000000000000000000000000000000606482015260840161055d565b808481612fbf57612fbf61367e565b0495945050505050565b600060808201356bffffffffffffffffffffffff6060840135165b61083d9190613667565b600060a0820135606080840135901c6bffffffffffffffffffffffff16612fe4565b60408051808201825273ffffffffffffffffffffffffffffffffffffffff8084168252600060208084018281528984168084528383528684208a86168086529084528785208a865290935292869020945190516bffffffffffffffffffffffff1674010000000000000000000000000000000000000000029316929092179092559151849291907f460a431c86ecaea27134277388c72021356689d9eb62c3b25a5e4a97da7a8a1490613108907f000000000000000000000000000000000000000000000000000000000000000090879073ffffffffffffffffffffffffffffffffffffffff92831681529116602082015260400190565b60405180910390a450505050565b73ffffffffffffffffffffffffffffffffffffffff8116811461068557600080fd5b8035611e1381613116565b60008060006060848603121561315857600080fd5b833561316381613116565b9250602084013561317381613116565b929592945050506040919091013590565b600061010082840312156109a657600080fd5b600061012082840312156109a657600080fd5b6000808284036101608112156131bf57600080fd5b6131c98585613197565b925060407ffffffffffffffffffffffffffffffffffffffffffffffffffffffffffffffee0820112156131fb57600080fd5b50610120830190509250929050565b6000610120828403121561321d57600080fd5b61061a8383613197565b60006020828403121561323957600080fd5b813561061a81613116565b6000806040838503121561325757600080fd5b82359150602083013561326981613116565b809150509250929050565b801515811461068557600080fd5b6000806000806080858703121561329857600080fd5b84356132a381613116565b935060208501356132b381613116565b92506040850135915060608501356132ca81613274565b939692955090935050565b600080600080606085870312156132eb57600080fd5b84356132f681613116565b9350602085013561330681613116565b9250604085013567ffffffffffffffff8082111561332357600080fd5b818701915087601f83011261333757600080fd5b81358181111561334657600080fd5b8860208260051b850101111561335b57600080fd5b95989497505060200194505050565b6020808252825182820181905260009190848201906040850190845b818110156133b857835173ffffffffffffffffffffffffffffffffffffffff1683529284019291840191600101613386565b50909695505050505050565b600080600080600060a086880312156133dc57600080fd5b85356133e781613116565b945060208601356133f781613116565b94979496505050506040830135926060810135926080909101359150565b60006020828403121561342757600080fd5b5035919050565b60006020828403121561344057600080fd5b815161061a81613274565b7f4e487b7100000000000000000000000000000000000000000000000000000000600052604160045260246000fd5b600061010080838503121561348e57600080fd5b6040519081019067ffffffffffffffff821181831017156134d8577f4e487b7100000000000000000000000000000000000000000000000000000000600052604160045260246000fd5b816040526134e584613138565b81526134f360208501613138565b602082015260408401356040820152606084013560608201526080840135608082015260a084013560a082015260c084013560c082015260e084013560e0820152809250505092915050565b60006020828403121561355157600080fd5b5051919050565b7f4e487b7100000000000000000000000000000000000000000000000000000000600052601160045260246000fd5b6000821982111561359a5761359a613558565b500190565b7f4e487b7100000000000000000000000000000000000000000000000000000000600052603260045260246000fd5b60007fffffffffffffffffffffffffffffffffffffffffffffffffffffffffffffffff82036135ff576135ff613558565b5060010190565b6000806040838503121561361957600080fd5b505080516020909101519092909150565b6000817fffffffffffffffffffffffffffffffffffffffffffffffffffffffffffffffff048311821515161561366257613662613558565b500290565b60008282101561367957613679613558565b500390565b7f4e487b7100000000000000000000000000000000000000000000000000000000600052601260045260246000fdfea264697066735822122065e452d61ac10c689ab214e54de96d1d8954581afb037646c760358910ab40be64736f6c634300080e00336101206040523480156200001257600080fd5b5060405162004b3938038062004b398339810160408190526200003591620003fd565b828282828282620aae603380620000935760405162461bcd60e51b815260206004820152601860248201527f616363657373436f6e74726f6c6c65642f307841646d696e000000000000000060448201526064015b60405180910390fd5b80620000a96200038a60201b620019a51760201c565b80546001600160a01b0319166001600160a01b03929092169190911790555062ffffff811681146200011e5760405162461bcd60e51b815260206004820152601e60248201527f4162737472616374526f757465722f6f76657268656164546f6f48696768000060448201526064016200008a565b8062000134620003ae60201b620019c91760201c565b600101555061ffff82166101005260e08190526040516321f8a72160e01b81526b50524943455f4f5241434c4560a01b60048201526000906001600160a01b038516906321f8a72190602401602060405180830381865afa1580156200019e573d6000803e3d6000fd5b505050506040513d601f19601f82011682018060405250810190620001c4919062000435565b90506000846001600160a01b031663026b1d5f6040518163ffffffff1660e01b8152600401602060405180830381865afa15801562000207573d6000803e3d6000fd5b505050506040513d601f19601f820116820180604052508101906200022d919062000435565b90506001600160a01b038216620002875760405162461bcd60e51b815260206004820152601860248201527f416176654d6f64756c652f307850726963654f7261636c65000000000000000060448201526064016200008a565b6001600160a01b038116620002d35760405162461bcd60e51b815260206004820152601160248201527010585d99535bd91d5b194bcc1e141bdbdb607a1b60448201526064016200008a565b6001600160a01b0380821660a052821660c05260405181908390620002f890620003d2565b6001600160a01b03928316815291166020820152604001604051809103906000f0801580156200032c573d6000803e3d6000fd5b506001600160a01b03166080816001600160a01b03168152505050505050505050506205573062000367620003ae60201b620019c91760201c565b60010160008282546200037b91906200045a565b90915550620004819350505050565b7f7d382ebca3e46505071795e192d28166a3d4bd0685585591bc6c5b8df6769fd290565b7ff2910982afb88211fa9894801aaf0314409ca240a0a8904897b9f5ba323ca53390565b6115c5806200357483390190565b80516001600160a01b0381168114620003f857600080fd5b919050565b6000806000606084860312156200041357600080fd5b6200041e84620003e0565b925060208401519150604084015190509250925092565b6000602082840312156200044857600080fd5b6200045382620003e0565b9392505050565b600082198211156200047c57634e487b7160e01b600052601160045260246000fd5b500190565b60805160a05160c05160e0516101005161301b62000559600039600081816102cd01528181611f7b015281816121320152818161238701526124ed01526000818161043301528181610b9301528181611e6c015281816121090152818161236101526124c40152600061035f0152600081816103f90152818161056201528181610bfe01528181610cb9015281816113f301528181611e9a01528181611fa20152818161204101528181612161015261232c01526000818161038601528181610ee90152818161243e01526125b7015261301b6000f3fe608060405234801561001057600080fd5b50600436106101ae5760003560e01c806352da17a4116100ee5780638faf553111610097578063cf5e7bd311610071578063cf5e7bd31461048e578063e5cd487f146104a1578063f850a81c146104b4578063f851a440146104c757600080fd5b80638faf553114610455578063b0a02abe14610468578063ca34f9ec1461047b57600080fd5b80637535d246116100c85780637535d246146103f457806381bac14f1461041b57806383008bd91461042e57600080fd5b806352da17a4146103bb5780635a3e9618146103ce578063704b6c02146103e157600080fd5b806326e8eda21161015b578063362aecb111610135578063362aecb11461030257806338013f021461035a5780633a4741bd14610381578063492fffc7146103a857600080fd5b806326e8eda2146102a0578063333dbb0d146102b55780633583849a146102c857600080fd5b80632026ffa31161018c5780632026ffa31461023457806321754d9e146102555780632197c31e1461027857600080fd5b80630417ffda146101b357806305684fde146101e95780630efc8fd2146101fc575b600080fd5b7ff2910982afb88211fa9894801aaf0314409ca240a0a8904897b9f5ba323ca534545b6040519081526020015b60405180910390f35b6101d66101f7366004612680565b610504565b61020f61020a3660046126b9565b61051a565b60405173ffffffffffffffffffffffffffffffffffffffff90911681526020016101e0565b610247610242366004612722565b6105db565b6040516101e0929190612777565b610268610263366004612808565b6106cd565b60405190151581526020016101e0565b61028b610286366004612867565b61077c565b604080519283526020830191909152016101e0565b6102b36102ae3660046128b2565b610993565b005b6101d66102c33660046128f3565b610a3c565b6102ef7f000000000000000000000000000000000000000000000000000000000000000081565b60405161ffff90911681526020016101e0565b6102686103103660046126b9565b73ffffffffffffffffffffffffffffffffffffffff1660009081527ff2910982afb88211fa9894801aaf0314409ca240a0a8904897b9f5ba323ca533602052604090205460ff1690565b61020f7f000000000000000000000000000000000000000000000000000000000000000081565b61020f7f000000000000000000000000000000000000000000000000000000000000000081565b61020f6103b63660046126b9565b610b8f565b6102b36103c9366004612946565b610d31565b6102b36103dc36600461298e565b610e7b565b6102b36103ef3660046126b9565b610f88565b61020f7f000000000000000000000000000000000000000000000000000000000000000081565b6102b36104293660046126b9565b61110b565b6101d67f000000000000000000000000000000000000000000000000000000000000000081565b6102b3610463366004612946565b611260565b6101d6610476366004612680565b6113a9565b6102b36104893660046126b9565b6115b2565b6102b361049c3660046126b9565b6115df565b6102b36104af366004612946565b6116e0565b6102b36104c2366004612a00565b6117fc565b7f7d382ebca3e46505071795e192d28166a3d4bd0685585591bc6c5b8df6769fd25473ffffffffffffffffffffffffffffffffffffffff1661020f565b60006105128360008461077c565b509392505050565b6040517f35ea6a7500000000000000000000000000000000000000000000000000000000815273ffffffffffffffffffffffffffffffffffffffff82811660048301526000917f0000000000000000000000000000000000000000000000000000000000000000909116906335ea6a75906024016101e060405180830381865afa1580156105ac573d6000803e3d6000fd5b505050506040513d601f19601f820116820180604052508101906105d09190612b8d565b610100015192915050565b60608061061c7f7d382ebca3e46505071795e192d28166a3d4bd0685585591bc6c5b8df6769fd25473ffffffffffffffffffffffffffffffffffffffff1690565b73ffffffffffffffffffffffffffffffffffffffff163373ffffffffffffffffffffffffffffffffffffffff16146106b5576040517f08c379a000000000000000000000000000000000000000000000000000000000815260206004820152601860248201527f416363657373436f6e74726f6c6c65642f496e76616c6964000000000000000060448201526064015b60405180910390fd5b6106c08585856119ed565b915091505b935093915050565b3360009081527ff2910982afb88211fa9894801aaf0314409ca240a0a8904897b9f5ba323ca533602052604081205460ff16610765576040517f08c379a000000000000000000000000000000000000000000000000000000000815260206004820152601360248201527f526f757465722f756e617574686f72697a65640000000000000000000000000060448201526064016106ac565b61077185858585611a9c565b90505b949350505050565b60405173ffffffffffffffffffffffffffffffffffffffff848116602483015283151560448301528216606482015260009081908190819030907f5a3e961800000000000000000000000000000000000000000000000000000000907ffd8c04510000000000000000000000000000000000000000000000000000000090608401604080517fffffffffffffffffffffffffffffffffffffffffffffffffffffffffffffffe08184030181529181526020820180517bffffffffffffffffffffffffffffffffffffffffffffffffffffffff167fffffffff000000000000000000000000000000000000000000000000000000009094169390931790925290516108899190602401612cdc565b604080517fffffffffffffffffffffffffffffffffffffffffffffffffffffffffffffffe08184030181529181526020820180517bffffffffffffffffffffffffffffffffffffffffffffffffffffffff167fffffffff000000000000000000000000000000000000000000000000000000009094169390931790925290516109129190612d2d565b600060405180830381855afa9150503d806000811461094d576040519150601f19603f3d011682016040523d82523d6000602084013e610952565b606091505b50915091508161096a5761096581611bbc565b610989565b8080602001905181019061097e9190612d49565b9350935050506106c5565b5050935093915050565b3360009081527ff2910982afb88211fa9894801aaf0314409ca240a0a8904897b9f5ba323ca533602052604090205460ff16610a2b576040517f08c379a000000000000000000000000000000000000000000000000000000000815260206004820152601360248201527f526f757465722f756e617574686f72697a65640000000000000000000000000060448201526064016106ac565b610a3783833384611c2f565b505050565b3360009081527ff2910982afb88211fa9894801aaf0314409ca240a0a8904897b9f5ba323ca533602052604081205460ff16610ad4576040517f08c379a000000000000000000000000000000000000000000000000000000000815260206004820152601360248201527f526f757465722f756e617574686f72697a65640000000000000000000000000060448201526064016106ac565b6040517f70a0823100000000000000000000000000000000000000000000000000000000815233600482015260009073ffffffffffffffffffffffffffffffffffffffff8716906370a0823190602401602060405180830381865afa158015610b41573d6000803e3d6000fd5b505050506040513d601f19601f82011682018060405250810190610b659190612d6d565b9050838110610b78576000915050610774565b610b858686338787611cac565b9695505050505050565b60007f0000000000000000000000000000000000000000000000000000000000000000600114610c74576040517f35ea6a7500000000000000000000000000000000000000000000000000000000815273ffffffffffffffffffffffffffffffffffffffff83811660048301527f000000000000000000000000000000000000000000000000000000000000000016906335ea6a75906024016101e060405180830381865afa158015610c46573d6000803e3d6000fd5b505050506040513d601f19601f82011682018060405250810190610c6a9190612b8d565b6101400151610d2b565b6040517f35ea6a7500000000000000000000000000000000000000000000000000000000815273ffffffffffffffffffffffffffffffffffffffff83811660048301527f000000000000000000000000000000000000000000000000000000000000000016906335ea6a75906024016101e060405180830381865afa158015610d01573d6000803e3d6000fd5b505050506040513d601f19601f82011682018060405250810190610d259190612b8d565b61012001515b92915050565b7f7d382ebca3e46505071795e192d28166a3d4bd0685585591bc6c5b8df6769fd25473ffffffffffffffffffffffffffffffffffffffff163314610dd1576040517f08c379a000000000000000000000000000000000000000000000000000000000815260206004820152601860248201527f416363657373436f6e74726f6c6c65642f496e76616c6964000000000000000060448201526064016106ac565b610ddd84828585611cbb565b610e69576040517f08c379a000000000000000000000000000000000000000000000000000000000815260206004820152602160248201527f41617665526f757465722f72657061792f7472616e7366657246726f6d46616960448201527f6c0000000000000000000000000000000000000000000000000000000000000060648201526084016106ac565b610e74848385611e18565b5050505050565b333014610ee4576040517f08c379a000000000000000000000000000000000000000000000000000000000815260206004820152601760248201527f416176654d6f64756c652f696e7465726e616c4f6e6c7900000000000000000060448201526064016106ac565b6000807f000000000000000000000000000000000000000000000000000000000000000073ffffffffffffffffffffffffffffffffffffffff168484604051610f2e929190612d86565b600060405180830381855af49150503d8060008114610f69576040519150601f19603f3d011682016040523d82523d6000602084013e610f6e565b606091505b509150915081610f8157610f8181611bbc565b3d60208201f35b7f7d382ebca3e46505071795e192d28166a3d4bd0685585591bc6c5b8df6769fd25473ffffffffffffffffffffffffffffffffffffffff163314611028576040517f08c379a000000000000000000000000000000000000000000000000000000000815260206004820152601860248201527f416363657373436f6e74726f6c6c65642f496e76616c6964000000000000000060448201526064016106ac565b73ffffffffffffffffffffffffffffffffffffffff81166110a5576040517f08c379a000000000000000000000000000000000000000000000000000000000815260206004820152601860248201527f416363657373436f6e74726f6c6c65642f307841646d696e000000000000000060448201526064016106ac565b7f7d382ebca3e46505071795e192d28166a3d4bd0685585591bc6c5b8df6769fd280547fffffffffffffffffffffffff00000000000000000000000000000000000000001673ffffffffffffffffffffffffffffffffffffffff92909216919091179055565b7f7d382ebca3e46505071795e192d28166a3d4bd0685585591bc6c5b8df6769fd25473ffffffffffffffffffffffffffffffffffffffff1633148061117e57503360009081527ff2910982afb88211fa9894801aaf0314409ca240a0a8904897b9f5ba323ca533602052604090205460ff165b6111e4576040517f08c379a000000000000000000000000000000000000000000000000000000000815260206004820152601360248201527f526f757465722f756e617574686f72697a65640000000000000000000000000060448201526064016106ac565b60017ff2910982afb88211fa9894801aaf0314409ca240a0a8904897b9f5ba323ca5335b73ffffffffffffffffffffffffffffffffffffffff929092166000908152602092909252604090912080547fffffffffffffffffffffffffffffffffffffffffffffffffffffffffffffff0016911515919091179055565b7f7d382ebca3e46505071795e192d28166a3d4bd0685585591bc6c5b8df6769fd25473ffffffffffffffffffffffffffffffffffffffff163314611300576040517f08c379a000000000000000000000000000000000000000000000000000000000815260206004820152601860248201527f416363657373436f6e74726f6c6c65642f496e76616c6964000000000000000060448201526064016106ac565b61130c84828585611cbb565b611398576040517f08c379a000000000000000000000000000000000000000000000000000000000815260206004820152602260248201527f41617665526f757465722f737570706c792f7472616e7366657246726f6d466160448201527f696c00000000000000000000000000000000000000000000000000000000000060648201526084016106ac565b6113a3848385611f17565b50505050565b6040517f35ea6a7500000000000000000000000000000000000000000000000000000000815273ffffffffffffffffffffffffffffffffffffffff838116600483015260009182917f000000000000000000000000000000000000000000000000000000000000000016906335ea6a75906024016101e060405180830381865afa15801561143b573d6000803e3d6000fd5b505050506040513d601f19601f8201168201806040525081019061145f9190612b8d565b6101408101516040517f70a0823100000000000000000000000000000000000000000000000000000000815273ffffffffffffffffffffffffffffffffffffffff8681166004830152929350600092909116906370a0823190602401602060405180830381865afa1580156114d8573d6000803e3d6000fd5b505050506040513d601f19601f820116820180604052508101906114fc9190612d6d565b6101208301516040517f70a0823100000000000000000000000000000000000000000000000000000000815273ffffffffffffffffffffffffffffffffffffffff8781166004830152929350600092909116906370a0823190602401602060405180830381865afa158015611575573d6000803e3d6000fd5b505050506040513d601f19601f820116820180604052508101906115999190612d6d565b9050818110156115a95781610b85565b95945050505050565b6115dc817fffffffffffffffffffffffffffffffffffffffffffffffffffffffffffffffff612004565b50565b7f7d382ebca3e46505071795e192d28166a3d4bd0685585591bc6c5b8df6769fd25473ffffffffffffffffffffffffffffffffffffffff1633148061165257503360009081527ff2910982afb88211fa9894801aaf0314409ca240a0a8904897b9f5ba323ca533602052604090205460ff165b6116b8576040517f08c379a000000000000000000000000000000000000000000000000000000000815260206004820152601360248201527f526f757465722f756e617574686f72697a65640000000000000000000000000060448201526064016106ac565b60007ff2910982afb88211fa9894801aaf0314409ca240a0a8904897b9f5ba323ca533611208565b7f7d382ebca3e46505071795e192d28166a3d4bd0685585591bc6c5b8df6769fd25473ffffffffffffffffffffffffffffffffffffffff163314611780576040517f08c379a000000000000000000000000000000000000000000000000000000000815260206004820152601860248201527f416363657373436f6e74726f6c6c65642f496e76616c6964000000000000000060448201526064016106ac565b61178b8483856120bd565b611796848284612190565b6113a3576040517f08c379a000000000000000000000000000000000000000000000000000000000815260206004820152601e60248201527f41617665526f757465722f626f72726f772f7472616e736665724661696c000060448201526064016106ac565b3360009081527ff2910982afb88211fa9894801aaf0314409ca240a0a8904897b9f5ba323ca533602052604090205460ff16611894576040517f08c379a000000000000000000000000000000000000000000000000000000000815260206004820152601360248201527f526f757465722f756e617574686f72697a65640000000000000000000000000060448201526064016106ac565b60005b828110156113a35760008484838181106118b3576118b3612d96565b90506020020160208101906118c891906126b9565b6040517f70a0823100000000000000000000000000000000000000000000000000000000815233600482015273ffffffffffffffffffffffffffffffffffffffff91909116906370a0823190602401602060405180830381865afa158015611934573d6000803e3d6000fd5b505050506040513d601f19601f820116820180604052508101906119589190612d6d565b905080156119925761199285858481811061197557611975612d96565b905060200201602081019061198a91906126b9565b843384611c2f565b508061199d81612dc5565b915050611897565b7f7d382ebca3e46505071795e192d28166a3d4bd0685585591bc6c5b8df6769fd290565b7ff2910982afb88211fa9894801aaf0314409ca240a0a8904897b9f5ba323ca53390565b6060808473ffffffffffffffffffffffffffffffffffffffff1663bf90f63a85856040518363ffffffff1660e01b8152600401611a2b929190612e24565b6000604051808303816000875af1158015611a4a573d6000803e3d6000fd5b505050506040513d6000823e601f3d9081017fffffffffffffffffffffffffffffffffffffffffffffffffffffffffffffffe0168201604052611a909190810190612f03565b90969095509350505050565b6000611ab2611aaa8661051a565b853085611cbb565b611b3e576040517f08c379a000000000000000000000000000000000000000000000000000000000815260206004820152602260248201527f41617665526f757465722f737570706c792f7472616e7366657246726f6d466160448201527f696c00000000000000000000000000000000000000000000000000000000000060648201526084016106ac565b81611b4a8684866122d0565b14611bb1576040517f08c379a000000000000000000000000000000000000000000000000000000000815260206004820152601d60248201527f41617665526f757465722f7769746864726177546f6b656e2f4661696c00000060448201526064016106ac565b506001949350505050565b8051600003611c27576040517f08c379a000000000000000000000000000000000000000000000000000000000815260206004820181905260248201527f416176654d6f64756c6553746f726167652f7265766572744e6f526561736f6e60448201526064016106ac565b805160208201fd5b611c3b84833084611cbb565b611ca1576040517f08c379a000000000000000000000000000000000000000000000000000000000815260206004820152601c60248201527f41617665526f757465722f707573682f7472616e736665724661696c0000000060448201526064016106ac565b6113a384848361235b565b6000610b8586868585886124be565b6000811580611cf557508273ffffffffffffffffffffffffffffffffffffffff168473ffffffffffffffffffffffffffffffffffffffff16145b15611d0257506001610774565b6040805173ffffffffffffffffffffffffffffffffffffffff86811660248301528581166044830152606480830186905283518084039091018152608490920183526020820180517bffffffffffffffffffffffffffffffffffffffffffffffffffffffff167f23b872dd000000000000000000000000000000000000000000000000000000001790529151600092839290891691611da19190612d2d565b6000604051808303816000865af19150503d8060008114611dde576040519150601f19603f3d011682016040523d82523d6000602084013e611de3565b606091505b5091509150818015611e0d575080511580611e0d575080806020019051810190611e0d9190612fc8565b979650505050505050565b60008215611f0d576040517f573ade8100000000000000000000000000000000000000000000000000000000815273ffffffffffffffffffffffffffffffffffffffff8581166004830152602482018590527f0000000000000000000000000000000000000000000000000000000000000000604483015283811660648301527f0000000000000000000000000000000000000000000000000000000000000000169063573ade81906084015b6020604051808303816000875af1158015611ee4573d6000803e3d6000fd5b505050506040513d601f19601f82011682018060405250810190611f089190612d6d565b610774565b6000949350505050565b81600003611f2457505050565b6040517f617ba03700000000000000000000000000000000000000000000000000000000815273ffffffffffffffffffffffffffffffffffffffff848116600483015260248201849052828116604483015261ffff7f00000000000000000000000000000000000000000000000000000000000000001660648301527f0000000000000000000000000000000000000000000000000000000000000000169063617ba037906084015b600060405180830381600087803b158015611fe757600080fd5b505af1158015611ffb573d6000803e3d6000fd5b50505050505050565b6040517f095ea7b300000000000000000000000000000000000000000000000000000000815273ffffffffffffffffffffffffffffffffffffffff7f0000000000000000000000000000000000000000000000000000000000000000811660048301526024820183905283169063095ea7b3906044016020604051808303816000875af1158015612099573d6000803e3d6000fd5b505050506040513d601f19601f82011682018060405250810190610a379190612fc8565b6040517fa415bcad00000000000000000000000000000000000000000000000000000000815273ffffffffffffffffffffffffffffffffffffffff8481166004830152602482018490527f0000000000000000000000000000000000000000000000000000000000000000604483015261ffff7f000000000000000000000000000000000000000000000000000000000000000016606483015282811660848301527f0000000000000000000000000000000000000000000000000000000000000000169063a415bcad9060a401611fcd565b60008115806121b4575073ffffffffffffffffffffffffffffffffffffffff831630145b156121c1575060016122c9565b6040805173ffffffffffffffffffffffffffffffffffffffff8581166024830152604480830186905283518084039091018152606490920183526020820180517bffffffffffffffffffffffffffffffffffffffffffffffffffffffff167fa9059cbb0000000000000000000000000000000000000000000000000000000017905291516000928392908816916122589190612d2d565b6000604051808303816000865af19150503d8060008114612295576040519150601f19603f3d011682016040523d82523d6000602084013e61229a565b606091505b50915091508180156122c45750805115806122c45750808060200190518101906122c49190612fc8565b925050505b9392505050565b60008215611f0d576040517f69328dec00000000000000000000000000000000000000000000000000000000815273ffffffffffffffffffffffffffffffffffffffff85811660048301526024820185905283811660448301527f000000000000000000000000000000000000000000000000000000000000000016906369328dec90606401611ec5565b604080517f000000000000000000000000000000000000000000000000000000000000000060248201527f000000000000000000000000000000000000000000000000000000000000000061ffff16604482015273ffffffffffffffffffffffffffffffffffffffff8581166064830152848116608483015260a48083018590528351808403909101815260c490920183526020820180517bffffffffffffffffffffffffffffffffffffffffffffffffffffffff167f038efb8a00000000000000000000000000000000000000000000000000000000179052915160009283927f00000000000000000000000000000000000000000000000000000000000000009091169161246b9190612d2d565b600060405180830381855af49150503d80600081146124a6576040519150601f19603f3d011682016040523d82523d6000602084013e6124ab565b606091505b509150915081610e7457610e7481611bbc565b604080517f0000000000000000000000000000000000000000000000000000000000000000602482015261ffff7f000000000000000000000000000000000000000000000000000000000000000016604482015273ffffffffffffffffffffffffffffffffffffffff8781166064830152868116608483015260a4820186905284151560c483015283811660e4808401919091528351808403909101815261010490920183526020820180517bffffffffffffffffffffffffffffffffffffffffffffffffffffffff167f9105b83a000000000000000000000000000000000000000000000000000000001790529151600092839283927f0000000000000000000000000000000000000000000000000000000000000000909216916125e49190612d2d565b600060405180830381855af49150503d806000811461261f576040519150601f19603f3d011682016040523d82523d6000602084013e612624565b606091505b5091509150811561264a57808060200190518101906126439190612d6d565b9250612653565b61265381611bbc565b505095945050505050565b73ffffffffffffffffffffffffffffffffffffffff811681146115dc57600080fd5b6000806040838503121561269357600080fd5b823561269e8161265e565b915060208301356126ae8161265e565b809150509250929050565b6000602082840312156126cb57600080fd5b81356122c98161265e565b60008083601f8401126126e857600080fd5b50813567ffffffffffffffff81111561270057600080fd5b6020830191508360208260051b850101111561271b57600080fd5b9250929050565b60008060006040848603121561273757600080fd5b83356127428161265e565b9250602084013567ffffffffffffffff81111561275e57600080fd5b61276a868287016126d6565b9497909650939450505050565b604080825283519082018190526000906020906060840190828701845b828110156127c657815173ffffffffffffffffffffffffffffffffffffffff1684529284019290840190600101612794565b5050508381038285015284518082528583019183019060005b818110156127fb578351835292840192918401916001016127df565b5090979650505050505050565b6000806000806080858703121561281e57600080fd5b84356128298161265e565b935060208501356128398161265e565b925060408501356128498161265e565b9396929550929360600135925050565b80151581146115dc57600080fd5b60008060006060848603121561287c57600080fd5b83356128878161265e565b9250602084013561289781612859565b915060408401356128a78161265e565b809150509250925092565b6000806000606084860312156128c757600080fd5b83356128d28161265e565b925060208401356128e28161265e565b929592945050506040919091013590565b6000806000806080858703121561290957600080fd5b84356129148161265e565b935060208501356129248161265e565b925060408501359150606085013561293b81612859565b939692955090935050565b6000806000806080858703121561295c57600080fd5b84356129678161265e565b935060208501356129778161265e565b925060408501359150606085013561293b8161265e565b600080602083850312156129a157600080fd5b823567ffffffffffffffff808211156129b957600080fd5b818501915085601f8301126129cd57600080fd5b8135818111156129dc57600080fd5b8660208285010111156129ee57600080fd5b60209290920196919550909350505050565b600080600060408486031215612a1557600080fd5b833567ffffffffffffffff811115612a2c57600080fd5b612a38868287016126d6565b90945092505060208401356128a78161265e565b7f4e487b7100000000000000000000000000000000000000000000000000000000600052604160045260246000fd5b6040516101e0810167ffffffffffffffff81118282101715612a9f57612a9f612a4c565b60405290565b604051601f82017fffffffffffffffffffffffffffffffffffffffffffffffffffffffffffffffe016810167ffffffffffffffff81118282101715612aec57612aec612a4c565b604052919050565b600060208284031215612b0657600080fd5b6040516020810181811067ffffffffffffffff82111715612b2957612b29612a4c565b6040529151825250919050565b80516fffffffffffffffffffffffffffffffff81168114612b5657600080fd5b919050565b805164ffffffffff81168114612b5657600080fd5b805161ffff81168114612b5657600080fd5b8051612b568161265e565b60006101e08284031215612ba057600080fd5b612ba8612a7b565b612bb28484612af4565b8152612bc060208401612b36565b6020820152612bd160408401612b36565b6040820152612be260608401612b36565b6060820152612bf360808401612b36565b6080820152612c0460a08401612b36565b60a0820152612c1560c08401612b5b565b60c0820152612c2660e08401612b70565b60e0820152610100612c39818501612b82565b90820152610120612c4b848201612b82565b90820152610140612c5d848201612b82565b90820152610160612c6f848201612b82565b90820152610180612c81848201612b36565b908201526101a0612c93848201612b36565b908201526101c0612ca5848201612b36565b908201529392505050565b60005b83811015612ccb578181015183820152602001612cb3565b838111156113a35750506000910152565b6020815260008251806020840152612cfb816040850160208701612cb0565b601f017fffffffffffffffffffffffffffffffffffffffffffffffffffffffffffffffe0169190910160400192915050565b60008251612d3f818460208701612cb0565b9190910192915050565b60008060408385031215612d5c57600080fd5b505080516020909101519092909150565b600060208284031215612d7f57600080fd5b5051919050565b8183823760009101908152919050565b7f4e487b7100000000000000000000000000000000000000000000000000000000600052603260045260246000fd5b60007fffffffffffffffffffffffffffffffffffffffffffffffffffffffffffffffff8203612e1d577f4e487b7100000000000000000000000000000000000000000000000000000000600052601160045260246000fd5b5060010190565b60208082528181018390526000908460408401835b86811015612e74578235612e4c8161265e565b73ffffffffffffffffffffffffffffffffffffffff1682529183019190830190600101612e39565b509695505050505050565b600067ffffffffffffffff821115612e9957612e99612a4c565b5060051b60200190565b600082601f830112612eb457600080fd5b81516020612ec9612ec483612e7f565b612aa5565b82815260059290921b84018101918181019086841115612ee857600080fd5b8286015b84811015612e745780518352918301918301612eec565b60008060408385031215612f1657600080fd5b825167ffffffffffffffff80821115612f2e57600080fd5b818501915085601f830112612f4257600080fd5b81516020612f52612ec483612e7f565b82815260059290921b84018101918181019089841115612f7157600080fd5b948201945b83861015612f98578551612f898161265e565b82529482019490820190612f76565b91880151919650909350505080821115612fb157600080fd5b50612fbe85828601612ea3565b9150509250929050565b600060208284031215612fda57600080fd5b81516122c98161285956fea264697066735822122057532b6d22e69030a30394715a073c8f46d68f755ce9436a2b73c89003e3e90464736f6c634300080e003360c060405234801561001057600080fd5b506040516115c53803806115c583398101604081905261002f9161005e565b6001600160a01b039182166080521660a052610098565b6001600160a01b038116811461005b57600080fd5b50565b6000806040838503121561007157600080fd5b825161007c81610046565b602084015190925061008d81610046565b809150509250929050565b60805160a0516114d26100f36000396000818160860152610a1401526000818160d7015281816101a5015281816102aa01528181610385015281816104eb015281816105f7015281816107c1015261089501526114d26000f3fe608060405234801561001057600080fd5b50600436106100675760003560e01c80637535d246116100505780637535d246146100d25780639105b83a146100f9578063fd8c04511461011a57600080fd5b8063038efb8a1461006c57806338013f0214610081575b600080fd5b61007f61007a366004610e83565b610142565b005b6100a87f000000000000000000000000000000000000000000000000000000000000000081565b60405173ffffffffffffffffffffffffffffffffffffffff90911681526020015b60405180910390f35b6100a87f000000000000000000000000000000000000000000000000000000000000000081565b61010c610107366004610ee3565b61030f565b6040519081526020016100c9565b61012d610128366004610f5e565b610706565b604080519283526020830191909152016100c9565b8015610308576040517f573ade8100000000000000000000000000000000000000000000000000000000815273ffffffffffffffffffffffffffffffffffffffff84811660048301526024820183905260448201879052838116606483015282917f00000000000000000000000000000000000000000000000000000000000000009091169063573ade81906084016020604051808303816000875af192505050801561022a575060408051601f3d9081017fffffffffffffffffffffffffffffffffffffffffffffffffffffffffffffffe016820190925261022791810190610fa9565b60015b1561024c576102398183610ff1565b91508160000361024a575050610308565b505b6040517f617ba03700000000000000000000000000000000000000000000000000000000815273ffffffffffffffffffffffffffffffffffffffff858116600483015260248201839052848116604483015261ffff871660648301527f0000000000000000000000000000000000000000000000000000000000000000169063617ba03790608401600060405180830381600087803b1580156102ee57600080fd5b505af1158015610302573d6000803e3d6000fd5b50505050505b5050505050565b600080600061032088600189610706565b91509150841561033c578582106103375785610339565b815b91505b6040517f35ea6a7500000000000000000000000000000000000000000000000000000000815273ffffffffffffffffffffffffffffffffffffffff8981166004830152610400917f0000000000000000000000000000000000000000000000000000000000000000909116906335ea6a75906024016101e060405180830381865afa1580156103cf573d6000803e3d6000fd5b505050506040513d601f19601f820116820180604052508101906103f39190611119565b6101000151883085610bbf565b610491576040517f08c379a000000000000000000000000000000000000000000000000000000000815260206004820152602c60248201527f416176654d6f64756c652f72656465656d5468656e426f72726f772f61546b6e60448201527f5472616e736665724661696c000000000000000000000000000000000000000060648201526084015b60405180910390fd5b811561055a576040517f69328dec00000000000000000000000000000000000000000000000000000000815273ffffffffffffffffffffffffffffffffffffffff89811660048301526024820184905285811660448301527f000000000000000000000000000000000000000000000000000000000000000016906369328dec906064016020604051808303816000875af1158015610534573d6000803e3d6000fd5b505050506040513d601f19601f820116820180604052508101906105589190610fa9565b505b8582101580610567575080155b15610574575090506106fb565b61057e8287610ff1565b955085811161058d578061058f565b855b6040517fa415bcad00000000000000000000000000000000000000000000000000000000815273ffffffffffffffffffffffffffffffffffffffff8a8116600483015260248201839052604482018d905261ffff8c16606483015289811660848301529192507f00000000000000000000000000000000000000000000000000000000000000009091169063a415bcad9060a401600060405180830381600087803b15801561063d57600080fd5b505af1158015610651573d6000803e3d6000fd5b50505050610660888583610d1e565b6106ec576040517f08c379a000000000000000000000000000000000000000000000000000000000815260206004820152602b60248201527f416176654d6f64756c652f72656465656d5468656e426f72726f772f546b6e5460448201527f72616e736665724661696c0000000000000000000000000000000000000000006064820152608401610488565b6106f6818361123c565b925050505b979650505050505050565b6000806107346040518060800160405280600081526020016000815260200160008152602001600081525090565b61077c60405180610100016040528060008152602001600081526020016000815260200160008152602001600081526020016000815260200160008152602001600081525090565b6040517fbf92857c00000000000000000000000000000000000000000000000000000000815273ffffffffffffffffffffffffffffffffffffffff86811660048301527f0000000000000000000000000000000000000000000000000000000000000000169063bf92857c9060240160c060405180830381865afa158015610808573d6000803e3d6000fd5b505050506040513d601f19601f8201168201806040525081019061082c9190611254565b60c0870152608086015260a08501526040808501919091526020840191909152908252517f35ea6a7500000000000000000000000000000000000000000000000000000000815273ffffffffffffffffffffffffffffffffffffffff88811660048301526000917f0000000000000000000000000000000000000000000000000000000000000000909116906335ea6a75906024016101e060405180830381865afa1580156108df573d6000803e3d6000fd5b505050506040513d601f19601f820116820180604052508101906109039190611119565b80515160ff603082901c1660408681019190915261ffff601083901c81166020808901919091529216865261010083015181517f70a0823100000000000000000000000000000000000000000000000000000000815273ffffffffffffffffffffffffffffffffffffffff8b8116600483015292519495509116926370a08231926024808401939192918290030181865afa1580156109a6573d6000803e3d6000fd5b505050506040513d601f19601f820116820180604052508101906109ca9190610fa9565b60e08301526040517fb3596f0700000000000000000000000000000000000000000000000000000000815273ffffffffffffffffffffffffffffffffffffffff89811660048301527f0000000000000000000000000000000000000000000000000000000000000000169063b3596f0790602401602060405180830381865afa158015610a5b573d6000803e3d6000fd5b505050506040513d601f19601f82011682018060405250810190610a7f9190610fa9565b60608401526020820151825160a084015161271091610a9d9161129e565b610aa791906112db565b610ab19190610ff1565b6060808401919091528301516020840151600091610ace9161129e565b6040850151610ade90600a611438565b8460600151610aed919061129e565b610af99061271061129e565b610b0391906112db565b90508260e001518110610b1a578260e00151610b1c565b805b905087610b3257945060009350610bb792505050565b835160009061271090610b45908461129e565b610b4f91906112db565b9050600085606001518660400151600a610b699190611438565b8660400151610b78919061129e565b610b8291906112db565b905080821115610b9e5782600097509750505050505050610bb7565b6000610baa8383610ff1565b9398509296505050505050505b935093915050565b6000811580610bf957508273ffffffffffffffffffffffffffffffffffffffff168473ffffffffffffffffffffffffffffffffffffffff16145b15610c0657506001610d16565b6040805173ffffffffffffffffffffffffffffffffffffffff86811660248301528581166044830152606480830186905283518084039091018152608490920183526020820180517bffffffffffffffffffffffffffffffffffffffffffffffffffffffff167f23b872dd000000000000000000000000000000000000000000000000000000001790529151600092839290891691610ca59190611444565b6000604051808303816000865af19150503d8060008114610ce2576040519150601f19603f3d011682016040523d82523d6000602084013e610ce7565b606091505b5091509150818015610d11575080511580610d11575080806020019051810190610d11919061147f565b925050505b949350505050565b6000811580610d42575073ffffffffffffffffffffffffffffffffffffffff831630145b15610d4f57506001610e57565b6040805173ffffffffffffffffffffffffffffffffffffffff8581166024830152604480830186905283518084039091018152606490920183526020820180517bffffffffffffffffffffffffffffffffffffffffffffffffffffffff167fa9059cbb000000000000000000000000000000000000000000000000000000001790529151600092839290881691610de69190611444565b6000604051808303816000865af19150503d8060008114610e23576040519150601f19603f3d011682016040523d82523d6000602084013e610e28565b606091505b5091509150818015610e52575080511580610e52575080806020019051810190610e52919061147f565b925050505b9392505050565b73ffffffffffffffffffffffffffffffffffffffff81168114610e8057600080fd5b50565b600080600080600060a08688031215610e9b57600080fd5b85359450602086013593506040860135610eb481610e5e565b92506060860135610ec481610e5e565b949793965091946080013592915050565b8015158114610e8057600080fd5b600080600080600080600060e0888a031215610efe57600080fd5b87359650602088013595506040880135610f1781610e5e565b94506060880135610f2781610e5e565b93506080880135925060a0880135610f3e81610ed5565b915060c0880135610f4e81610e5e565b8091505092959891949750929550565b600080600060608486031215610f7357600080fd5b8335610f7e81610e5e565b92506020840135610f8e81610ed5565b91506040840135610f9e81610e5e565b809150509250925092565b600060208284031215610fbb57600080fd5b5051919050565b7f4e487b7100000000000000000000000000000000000000000000000000000000600052601160045260246000fd5b60008282101561100357611003610fc2565b500390565b6040516101e0810167ffffffffffffffff81118282101715611053577f4e487b7100000000000000000000000000000000000000000000000000000000600052604160045260246000fd5b60405290565b60006020828403121561106b57600080fd5b6040516020810181811067ffffffffffffffff821117156110b5577f4e487b7100000000000000000000000000000000000000000000000000000000600052604160045260246000fd5b6040529151825250919050565b80516fffffffffffffffffffffffffffffffff811681146110e257600080fd5b919050565b805164ffffffffff811681146110e257600080fd5b805161ffff811681146110e257600080fd5b80516110e281610e5e565b60006101e0828403121561112c57600080fd5b611134611008565b61113e8484611059565b815261114c602084016110c2565b602082015261115d604084016110c2565b604082015261116e606084016110c2565b606082015261117f608084016110c2565b608082015261119060a084016110c2565b60a08201526111a160c084016110e7565b60c08201526111b260e084016110fc565b60e08201526101006111c581850161110e565b908201526101206111d784820161110e565b908201526101406111e984820161110e565b908201526101606111fb84820161110e565b9082015261018061120d8482016110c2565b908201526101a061121f8482016110c2565b908201526101c06112318482016110c2565b908201529392505050565b6000821982111561124f5761124f610fc2565b500190565b60008060008060008060c0878903121561126d57600080fd5b865195506020870151945060408701519350606087015192506080870151915060a087015190509295509295509295565b6000817fffffffffffffffffffffffffffffffffffffffffffffffffffffffffffffffff04831182151516156112d6576112d6610fc2565b500290565b600082611311577f4e487b7100000000000000000000000000000000000000000000000000000000600052601260045260246000fd5b500490565b600181815b8085111561136f57817fffffffffffffffffffffffffffffffffffffffffffffffffffffffffffffffff0482111561135557611355610fc2565b8085161561136257918102915b93841c939080029061131b565b509250929050565b60008261138657506001611432565b8161139357506000611432565b81600181146113a957600281146113b3576113cf565b6001915050611432565b60ff8411156113c4576113c4610fc2565b50506001821b611432565b5060208310610133831016604e8410600b84101617156113f2575081810a611432565b6113fc8383611316565b807fffffffffffffffffffffffffffffffffffffffffffffffffffffffffffffffff0482111561142e5761142e610fc2565b0290505b92915050565b6000610e578383611377565b6000825160005b81811015611465576020818601810151858301520161144b565b81811115611474576000828501525b509190910192915050565b60006020828403121561149157600080fd5b8151610e5781610ed556fea2646970667358221220ec1f324c8d2408015800372b8e9169da14c01518000ff9a89190d270b70e6b5f64736f6c634300080e0033",
  "devdoc": {
    "kind": "dev",
    "methods": {
      "offerOwners(address,address,uint256[])": {
        "params": {
          "offerIds": "an array of offer ids from the `outbound_tkn, inbound_tkn` offer list"
        },
        "returns": {
          "_offerOwners": "an array of the same length where the address at position i is the owner of `offerIds[i]`"
        }
      },
      "retractOffer(address,address,uint256,bool)": {
        "params": {
          "deprovision": "is true if offer owner wishes to have the offer's provision pushed to its reserve"
        }
      },
      "tokenBalance(address)": {
        "returns": {
          "_0": "the  `token` amount that `msg.sender` has in the contract's reserve"
        }
      },
      "updateOffer((address,address,uint256,uint256,uint256,uint256,uint256,uint256))": {
        "details": "mko.gasreq == max_int indicates one wishes to use ofr_gasreq (default value)mko.gasprice is overriden by the value computed by taking into account : * value transfered on current tx * if offer was deprovisioned after a fail, amount of wei (still on this contract balance on Mangrove) that should be counted as offer owner's * if offer is still live, its current locked provision"
      },
      "withdrawFromMangrove(uint256,address)": {
        "details": "for multi user strats, the contract provision account on Mangrove is pooled amongst offer owners so admin should only call this function to recover WEIs (e.g. that were erroneously transferred to Mangrove using `MGV.fund()`) This contract's balance on Mangrove may contain deprovisioned WEIs after an offer has failed (complement between provision and the bounty that was sent to taker) those free WEIs can be retrieved by offer owners by calling `retractOffer` with the `deprovsion` flag. Not by calling this function which is admin only."
      }
    },
    "version": 1
  },
  "userdoc": {
    "events": {
      "LogIncident(address,address,address,uint256,bytes32)": {
        "notice": "Events "
      },
      "NewOwnedOffer(address,address,address,uint256,address)": {
        "notice": "Multi offer specific Events "
      }
    },
    "kind": "user",
    "methods": {
      "approveMangrove(address)": {
        "notice": "`this` contract needs to approve Mangrove to let it perform outbound token transfer at the end of the `makerExecute` function NB if anyone can call this function someone could reset it to 0 for griefing"
      },
      "set_router(address)": {
        "notice": "NB Router might need further approval to work as intended"
      },
      "updateOffer((address,address,uint256,uint256,uint256,uint256,uint256,uint256))": {
        "notice": "update offer with parameters given in `mko`."
      },
      "withdrawFromMangrove(uint256,address)": {
        "notice": "withdraws ETH from the provision account on Mangrove and sends collected WEIs to `receiver`"
      }
    },
    "version": 1
  },
  "storageLayout": {
    "storage": [
      {
        "astId": 14316,
        "contract": "contracts/toy_strategies/multi_user/OfferProxy.sol:OfferProxy",
        "label": "offerData",
        "offset": 0,
        "slot": "0",
        "type": "t_mapping(t_contract(IERC20)2050,t_mapping(t_contract(IERC20)2050,t_mapping(t_uint256,t_struct(OfferData)14304_storage)))"
      }
    ],
    "types": {
      "t_address": {
        "encoding": "inplace",
        "label": "address",
        "numberOfBytes": "20"
      },
      "t_contract(IERC20)2050": {
        "encoding": "inplace",
        "label": "contract IERC20",
        "numberOfBytes": "20"
      },
      "t_mapping(t_contract(IERC20)2050,t_mapping(t_contract(IERC20)2050,t_mapping(t_uint256,t_struct(OfferData)14304_storage)))": {
        "encoding": "mapping",
        "key": "t_contract(IERC20)2050",
        "label": "mapping(contract IERC20 => mapping(contract IERC20 => mapping(uint256 => struct MultiUser.OfferData)))",
        "numberOfBytes": "32",
        "value": "t_mapping(t_contract(IERC20)2050,t_mapping(t_uint256,t_struct(OfferData)14304_storage))"
      },
      "t_mapping(t_contract(IERC20)2050,t_mapping(t_uint256,t_struct(OfferData)14304_storage))": {
        "encoding": "mapping",
        "key": "t_contract(IERC20)2050",
        "label": "mapping(contract IERC20 => mapping(uint256 => struct MultiUser.OfferData))",
        "numberOfBytes": "32",
        "value": "t_mapping(t_uint256,t_struct(OfferData)14304_storage)"
      },
      "t_mapping(t_uint256,t_struct(OfferData)14304_storage)": {
        "encoding": "mapping",
        "key": "t_uint256",
        "label": "mapping(uint256 => struct MultiUser.OfferData)",
        "numberOfBytes": "32",
        "value": "t_struct(OfferData)14304_storage"
      },
      "t_struct(OfferData)14304_storage": {
        "encoding": "inplace",
        "label": "struct MultiUser.OfferData",
        "members": [
          {
            "astId": 14301,
            "contract": "contracts/toy_strategies/multi_user/OfferProxy.sol:OfferProxy",
            "label": "owner",
            "offset": 0,
            "slot": "0",
            "type": "t_address"
          },
          {
            "astId": 14303,
            "contract": "contracts/toy_strategies/multi_user/OfferProxy.sol:OfferProxy",
            "label": "wei_balance",
            "offset": 20,
            "slot": "0",
            "type": "t_uint96"
          }
        ],
        "numberOfBytes": "32"
      },
      "t_uint256": {
        "encoding": "inplace",
        "label": "uint256",
        "numberOfBytes": "32"
      },
      "t_uint96": {
        "encoding": "inplace",
        "label": "uint96",
        "numberOfBytes": "12"
      }
    }
  }
}