{
  "address": "0x4fB36159a84fce9098dd9117695ef48a74D496EB",
  "abi": [
    {
      "inputs": [
        {
          "internalType": "address",
          "name": "_addressesProvider",
          "type": "address"
        },
        {
          "internalType": "address",
          "name": "_MgvReader",
          "type": "address"
        },
        {
          "internalType": "address payable",
          "name": "_MGV",
          "type": "address"
        }
      ],
      "stateMutability": "nonpayable",
      "type": "constructor"
    },
    {
      "anonymous": false,
      "inputs": [
        {
          "indexed": true,
          "internalType": "address",
          "name": "outbound_tkn",
          "type": "address"
        },
        {
          "indexed": true,
          "internalType": "address",
          "name": "inbound_tkn",
          "type": "address"
        },
        {
          "indexed": true,
          "internalType": "uint256",
          "name": "offerId",
          "type": "uint256"
        },
        {
          "indexed": false,
          "internalType": "uint256",
          "name": "amount",
          "type": "uint256"
        },
        {
          "indexed": false,
          "internalType": "string",
          "name": "errorCode",
          "type": "string"
        }
      ],
      "name": "ErrorOnMint",
      "type": "event"
    },
    {
      "anonymous": false,
      "inputs": [
        {
          "indexed": true,
          "internalType": "address",
          "name": "outbound_tkn",
          "type": "address"
        },
        {
          "indexed": true,
          "internalType": "address",
          "name": "inbound_tkn",
          "type": "address"
        },
        {
          "indexed": true,
          "internalType": "uint256",
          "name": "offerId",
          "type": "uint256"
        },
        {
          "indexed": false,
          "internalType": "uint256",
          "name": "amount",
          "type": "uint256"
        },
        {
          "indexed": false,
          "internalType": "string",
          "name": "errorCode",
          "type": "string"
        }
      ],
      "name": "ErrorOnRedeem",
      "type": "event"
    },
    {
      "anonymous": false,
      "inputs": [
        {
          "indexed": true,
          "internalType": "address",
          "name": "outbound_tkn",
          "type": "address"
        },
        {
          "indexed": true,
          "internalType": "address",
          "name": "inbound_tkn",
          "type": "address"
        },
        {
          "indexed": false,
          "internalType": "uint256",
          "name": "offerId",
          "type": "uint256"
        },
        {
          "indexed": false,
          "internalType": "uint256",
          "name": "missingAmount",
          "type": "uint256"
        }
      ],
      "name": "GetFail",
      "type": "event"
    },
    {
      "anonymous": false,
      "inputs": [
        {
          "indexed": true,
          "internalType": "address",
          "name": "outbound_tkn",
          "type": "address"
        },
        {
          "indexed": true,
          "internalType": "address",
          "name": "inbound_tkn",
          "type": "address"
        },
        {
          "indexed": true,
          "internalType": "uint256",
          "name": "offerId",
          "type": "uint256"
        },
        {
          "indexed": false,
          "internalType": "address",
          "name": "owner",
          "type": "address"
        }
      ],
      "name": "NewOffer",
      "type": "event"
    },
    {
      "anonymous": false,
      "inputs": [
        {
          "indexed": true,
          "internalType": "address",
          "name": "outbound_tkn",
          "type": "address"
        },
        {
          "indexed": true,
          "internalType": "address",
          "name": "inbound_tkn",
          "type": "address"
        },
        {
          "indexed": false,
          "internalType": "uint256",
          "name": "offerId",
          "type": "uint256"
        },
        {
          "indexed": false,
          "internalType": "string",
          "name": "message",
          "type": "string"
        }
      ],
      "name": "PosthookFail",
      "type": "event"
    },
    {
      "anonymous": false,
      "inputs": [
        {
          "indexed": true,
          "internalType": "address",
          "name": "outbound_tkn",
          "type": "address"
        },
        {
          "indexed": true,
          "internalType": "address",
          "name": "inbound_tkn",
          "type": "address"
        },
        {
          "indexed": false,
          "internalType": "uint256",
          "name": "offerId",
          "type": "uint256"
        },
        {
          "indexed": false,
          "internalType": "uint256",
          "name": "missingAmount",
          "type": "uint256"
        }
      ],
      "name": "PutFail",
      "type": "event"
    },
    {
      "anonymous": false,
      "inputs": [
        {
          "indexed": true,
          "internalType": "address",
          "name": "outbound_tkn",
          "type": "address"
        },
        {
          "indexed": true,
          "internalType": "address",
          "name": "inbound_tkn",
          "type": "address"
        },
        {
          "indexed": false,
          "internalType": "uint256",
          "name": "offerId",
          "type": "uint256"
        }
      ],
      "name": "Reneged",
      "type": "event"
    },
    {
      "inputs": [],
      "name": "MGV",
      "outputs": [
        {
          "internalType": "contract Mangrove",
          "name": "",
          "type": "address"
        }
      ],
      "stateMutability": "view",
      "type": "function"
    },
    {
      "inputs": [],
      "name": "OFR_GASREQ",
      "outputs": [
        {
          "internalType": "uint256",
          "name": "",
          "type": "uint256"
        }
      ],
      "stateMutability": "view",
      "type": "function"
    },
    {
      "inputs": [],
      "name": "admin",
      "outputs": [
        {
          "internalType": "address",
          "name": "",
          "type": "address"
        }
      ],
      "stateMutability": "view",
      "type": "function"
    },
    {
      "inputs": [
        {
          "internalType": "address",
          "name": "token",
          "type": "address"
        },
        {
          "internalType": "uint256",
          "name": "amount",
          "type": "uint256"
        }
      ],
      "name": "approveLender",
      "outputs": [],
      "stateMutability": "nonpayable",
      "type": "function"
    },
    {
      "inputs": [
        {
          "internalType": "address",
          "name": "outbound_tkn",
          "type": "address"
        },
        {
          "internalType": "uint256",
          "name": "amount",
          "type": "uint256"
        }
      ],
      "name": "approveMangrove",
      "outputs": [],
      "stateMutability": "nonpayable",
      "type": "function"
    },
    {
      "inputs": [],
      "name": "fundMangrove",
      "outputs": [],
      "stateMutability": "payable",
      "type": "function"
    },
    {
      "inputs": [
        {
          "internalType": "address",
          "name": "outbound_tkn",
          "type": "address"
        },
        {
          "internalType": "address",
          "name": "inbound_tkn",
          "type": "address"
        },
        {
          "internalType": "uint256",
          "name": "gasreq",
          "type": "uint256"
        },
        {
          "internalType": "uint256",
          "name": "gasprice",
          "type": "uint256"
        },
        {
          "internalType": "uint256",
          "name": "offerId",
          "type": "uint256"
        }
      ],
      "name": "getMissingProvision",
      "outputs": [
        {
          "internalType": "uint256",
          "name": "",
          "type": "uint256"
        }
      ],
      "stateMutability": "view",
      "type": "function"
    },
    {
      "inputs": [],
      "name": "lendingPool",
      "outputs": [
        {
          "internalType": "contract ILendingPool",
          "name": "",
          "type": "address"
        }
      ],
      "stateMutability": "view",
      "type": "function"
    },
    {
      "inputs": [
        {
          "components": [
            {
              "internalType": "address",
              "name": "outbound_tkn",
              "type": "address"
            },
            {
              "internalType": "address",
              "name": "inbound_tkn",
              "type": "address"
            },
            {
              "internalType": "uint256",
              "name": "offerId",
              "type": "uint256"
            },
            {
              "internalType": "Offer.t",
              "name": "offer",
              "type": "uint256"
            },
            {
              "internalType": "uint256",
              "name": "wants",
              "type": "uint256"
            },
            {
              "internalType": "uint256",
              "name": "gives",
              "type": "uint256"
            },
            {
              "internalType": "OfferDetail.t",
              "name": "offerDetail",
              "type": "uint256"
            },
            {
              "internalType": "Global.t",
              "name": "global",
              "type": "uint256"
            },
            {
              "internalType": "Local.t",
              "name": "local",
              "type": "uint256"
            }
          ],
          "internalType": "struct MgvLib.SingleOrder",
          "name": "order",
          "type": "tuple"
        }
      ],
      "name": "makerExecute",
      "outputs": [
        {
          "internalType": "bytes32",
          "name": "ret",
          "type": "bytes32"
        }
      ],
      "stateMutability": "nonpayable",
      "type": "function"
    },
    {
      "inputs": [
        {
          "components": [
            {
              "internalType": "address",
              "name": "outbound_tkn",
              "type": "address"
            },
            {
              "internalType": "address",
              "name": "inbound_tkn",
              "type": "address"
            },
            {
              "internalType": "uint256",
              "name": "offerId",
              "type": "uint256"
            },
            {
              "internalType": "Offer.t",
              "name": "offer",
              "type": "uint256"
            },
            {
              "internalType": "uint256",
              "name": "wants",
              "type": "uint256"
            },
            {
              "internalType": "uint256",
              "name": "gives",
              "type": "uint256"
            },
            {
              "internalType": "OfferDetail.t",
              "name": "offerDetail",
              "type": "uint256"
            },
            {
              "internalType": "Global.t",
              "name": "global",
              "type": "uint256"
            },
            {
              "internalType": "Local.t",
              "name": "local",
              "type": "uint256"
            }
          ],
          "internalType": "struct MgvLib.SingleOrder",
          "name": "order",
          "type": "tuple"
        },
        {
          "components": [
            {
              "internalType": "bytes32",
              "name": "makerData",
              "type": "bytes32"
            },
            {
              "internalType": "bytes32",
              "name": "mgvData",
              "type": "bytes32"
            }
          ],
          "internalType": "struct MgvLib.OrderResult",
          "name": "result",
          "type": "tuple"
        }
      ],
      "name": "makerPosthook",
      "outputs": [],
      "stateMutability": "nonpayable",
      "type": "function"
    },
    {
      "inputs": [
        {
          "internalType": "address",
          "name": "asset",
          "type": "address"
        },
        {
          "internalType": "bool",
          "name": "tryBorrow",
          "type": "bool"
        },
        {
          "internalType": "address",
          "name": "onBehalf",
          "type": "address"
        }
      ],
      "name": "maxGettableUnderlying",
      "outputs": [
        {
          "internalType": "uint256",
          "name": "",
          "type": "uint256"
        },
        {
          "internalType": "uint256",
          "name": "",
          "type": "uint256"
        }
      ],
      "stateMutability": "view",
      "type": "function"
    },
    {
      "inputs": [
        {
          "internalType": "address",
          "name": "",
          "type": "address"
        }
      ],
      "name": "mgvBalanceOf",
      "outputs": [
        {
          "internalType": "uint256",
          "name": "",
          "type": "uint256"
        }
      ],
      "stateMutability": "view",
      "type": "function"
    },
    {
      "inputs": [
        {
          "internalType": "address",
          "name": "outbound_tkn",
          "type": "address"
        },
        {
          "internalType": "address",
          "name": "inbound_tkn",
          "type": "address"
        },
        {
          "internalType": "uint256",
          "name": "wants",
          "type": "uint256"
        },
        {
          "internalType": "uint256",
          "name": "gives",
          "type": "uint256"
        },
        {
          "internalType": "uint256",
          "name": "gasreq",
          "type": "uint256"
        },
        {
          "internalType": "uint256",
          "name": "gasprice",
          "type": "uint256"
        },
        {
          "internalType": "uint256",
          "name": "pivotId",
          "type": "uint256"
        }
      ],
      "name": "newOffer",
      "outputs": [
        {
          "internalType": "uint256",
          "name": "offerId",
          "type": "uint256"
        }
      ],
      "stateMutability": "payable",
      "type": "function"
    },
    {
      "inputs": [
        {
          "internalType": "address",
          "name": "outbound_tkn",
          "type": "address"
        },
        {
          "internalType": "address",
          "name": "inbound_tkn",
          "type": "address"
        },
        {
          "internalType": "uint256",
          "name": "fromId",
          "type": "uint256"
        },
        {
          "internalType": "uint256",
          "name": "maxOffers",
          "type": "uint256"
        }
      ],
      "name": "offerOwners",
      "outputs": [
        {
          "internalType": "uint256",
          "name": "nextId",
          "type": "uint256"
        },
        {
          "internalType": "uint256[]",
          "name": "offerIds",
          "type": "uint256[]"
        },
        {
          "internalType": "address[]",
          "name": "__offerOwners",
          "type": "address[]"
        }
      ],
      "stateMutability": "view",
      "type": "function"
    },
    {
      "inputs": [
        {
          "internalType": "contract IERC20",
          "name": "asset",
          "type": "address"
        }
      ],
      "name": "overlying",
      "outputs": [
        {
          "internalType": "contract IERC20",
          "name": "aToken",
          "type": "address"
        }
      ],
      "stateMutability": "view",
      "type": "function"
    },
    {
      "inputs": [
        {
          "internalType": "address",
          "name": "outbound_tkn",
          "type": "address"
        },
        {
          "internalType": "address",
          "name": "inbound_tkn",
          "type": "address"
        },
        {
          "internalType": "uint256",
          "name": "offerId",
          "type": "uint256"
        }
      ],
      "name": "ownerOf",
      "outputs": [
        {
          "internalType": "address",
          "name": "owner",
          "type": "address"
        }
      ],
      "stateMutability": "view",
      "type": "function"
    },
    {
      "inputs": [],
      "name": "priceOracle",
      "outputs": [
        {
          "internalType": "contract IPriceOracleGetter",
          "name": "",
          "type": "address"
        }
      ],
      "stateMutability": "view",
      "type": "function"
    },
    {
      "inputs": [
        {
          "internalType": "address",
          "name": "token",
          "type": "address"
        },
        {
          "internalType": "uint256",
          "name": "amount",
          "type": "uint256"
        }
      ],
      "name": "redeemToken",
      "outputs": [
        {
          "internalType": "bool",
          "name": "success",
          "type": "bool"
        }
      ],
      "stateMutability": "nonpayable",
      "type": "function"
    },
    {
      "inputs": [
        {
          "internalType": "address",
          "name": "outbound_tkn",
          "type": "address"
        },
        {
          "internalType": "address",
          "name": "inbound_tkn",
          "type": "address"
        },
        {
          "internalType": "uint256",
          "name": "offerId",
          "type": "uint256"
        },
        {
          "internalType": "bool",
          "name": "deprovision",
          "type": "bool"
        }
      ],
      "name": "retractOffer",
      "outputs": [
        {
          "internalType": "uint256",
          "name": "received",
          "type": "uint256"
        }
      ],
      "stateMutability": "nonpayable",
      "type": "function"
    },
    {
      "inputs": [
        {
          "internalType": "address",
          "name": "_admin",
          "type": "address"
        }
      ],
      "name": "setAdmin",
      "outputs": [],
      "stateMutability": "nonpayable",
      "type": "function"
    },
    {
      "inputs": [
        {
          "internalType": "uint256",
          "name": "gasreq",
          "type": "uint256"
        }
      ],
      "name": "setGasreq",
      "outputs": [],
      "stateMutability": "nonpayable",
      "type": "function"
    },
    {
      "inputs": [
        {
          "internalType": "address",
          "name": "",
          "type": "address"
        },
        {
          "internalType": "address",
          "name": "",
          "type": "address"
        }
      ],
      "name": "tokenBalanceOf",
      "outputs": [
        {
          "internalType": "uint256",
          "name": "",
          "type": "uint256"
        }
      ],
      "stateMutability": "view",
      "type": "function"
    },
    {
      "inputs": [
        {
          "internalType": "address",
          "name": "recipient",
          "type": "address"
        },
        {
          "internalType": "uint256",
          "name": "amount",
          "type": "uint256"
        }
      ],
      "name": "transferETH",
      "outputs": [
        {
          "internalType": "bool",
          "name": "success",
          "type": "bool"
        }
      ],
      "stateMutability": "nonpayable",
      "type": "function"
    },
    {
      "inputs": [
        {
          "internalType": "address",
          "name": "outbound_tkn",
          "type": "address"
        },
        {
          "internalType": "address",
          "name": "inbound_tkn",
          "type": "address"
        },
        {
          "internalType": "uint256",
          "name": "wants",
          "type": "uint256"
        },
        {
          "internalType": "uint256",
          "name": "gives",
          "type": "uint256"
        },
        {
          "internalType": "uint256",
          "name": "gasreq",
          "type": "uint256"
        },
        {
          "internalType": "uint256",
          "name": "gasprice",
          "type": "uint256"
        },
        {
          "internalType": "uint256",
          "name": "pivotId",
          "type": "uint256"
        },
        {
          "internalType": "uint256",
          "name": "offerId",
          "type": "uint256"
        }
      ],
      "name": "updateOffer",
      "outputs": [],
      "stateMutability": "payable",
      "type": "function"
    },
    {
      "inputs": [
        {
          "internalType": "address",
          "name": "receiver",
          "type": "address"
        },
        {
          "internalType": "uint256",
          "name": "amount",
          "type": "uint256"
        }
      ],
      "name": "withdrawFromMangrove",
      "outputs": [
        {
          "internalType": "bool",
          "name": "noRevert",
          "type": "bool"
        }
      ],
      "stateMutability": "nonpayable",
      "type": "function"
    }
  ],
  "transactionHash": "0x09b585abd0b26a1a4c3a78584335d0902f3442993a06aaea7a66a9bd7382a8cb",
  "args": [
    "0x178113104fEcbcD7fF8669a0150721e231F0FD4B",
    "0xa1e2f6EEe41799d44e365135F70fD23b0d0505D6",
    "0xD27139C60ED051b65c3AEe193BCABFfa1067D243"
  ],
  "solcInputHash": "dca7e022ec1acab3066ffde621761c1e",
  "bytecode": "0x610100604052620186a06001553480156200001957600080fd5b506040516200420a3803806200420a8339810160408190526200003c9162000317565b600080546001600160a01b031916331781556001600160a01b03808316608052831660a052839062000072565b60405180910390fd5b6005805461ffff19811661ffff90911617905560408051630261bf8b60e01b815290516000916001600160a01b03851691630261bf8b916004808201926020929091908290030181865afa158015620000cf573d6000803e3d6000fd5b505050506040513d601f19601f82011682018060405250810190620000f591906200036b565b90506000836001600160a01b031663fca513a86040518163ffffffff1660e01b8152600401602060405180830381865afa15801562000138573d6000803e3d6000fd5b505050506040513d601f19601f820116820180604052508101906200015e91906200036b565b90506001600160a01b038216620001b85760405162461bcd60e51b815260206004820152601b60248201527f496e76616c6964206c656e64696e67506f6f6c20616464726573730000000000604482015260640162000069565b6001600160a01b038116620002105760405162461bcd60e51b815260206004820152601b60248201527f496e76616c69642070726963654f7261636c6520616464726573730000000000604482015260640162000069565b6001600160a01b0391821660c0521660e05250620002339050620c35006200023c565b50505062000392565b6000546001600160a01b03163314806200025557503330145b620002a35760405162461bcd60e51b815260206004820152601860248201527f416363657373436f6e74726f6c6c65642f496e76616c69640000000000000000604482015260640162000069565b808162ffffff1614620002f95760405162461bcd60e51b815260206004820152601d60248201527f4d616e67726f76654f666665722f6761737265712f6f766572666c6f77000000604482015260640162000069565b600155565b6001600160a01b03811681146200031457600080fd5b50565b6000806000606084860312156200032d57600080fd5b83516200033a81620002fe565b60208501519093506200034d81620002fe565b60408501519092506200036081620002fe565b809150509250925092565b6000602082840312156200037e57600080fd5b81516200038b81620002fe565b9392505050565b60805160a05160c05160e051613dab6200045f600039600081816102a201526109b6015260008181610421015281816106310152818161076401528181610838015281816123d20152612e5c015260006110460152600081816103ed01528181610c4401528181610dd801528181610e6201528181610f520152818161123c01528181611333015281816113c00152818161145d01528181611a8701528181611b7c01528181611cc901528181611e79015281816120c1015281816124c001526129200152613dab6000f3fe6080604052600436106101965760003560e01c80637b1a4909116100e1578063ad97db1b1161008a578063e4c34f8411610064578063e4c34f84146104e6578063f851a44014610506578063f92495e514610533578063faa030ec1461055357600080fd5b8063ad97db1b14610490578063aefe8403146104b0578063e428204d146104d057600080fd5b8063a59a9973116100bb578063a59a99731461040f578063a903f25c14610443578063aab9e0051461046357600080fd5b80637b1a49091461039b578063830cbbbd146103bb57806399fa5e2d146103db57600080fd5b80633d3d130d116101435780636a4f76911161011d5780636a4f7691146103485780636c49c32c1461035b578063704b6c021461037b57600080fd5b80633d3d130d146102e657806349f6d2dc1461030657806365a1d9f21461031957600080fd5b80632197c31e116101745780632197c31e1461025b5780632630c12f1461029057806334bd8931146102c457600080fd5b8063063df2d21461019b5780630efc8fd2146101d05780631bea800614610215575b600080fd5b3480156101a757600080fd5b506101bb6101b6366004613043565b61055b565b60405190151581526020015b60405180910390f35b3480156101dc57600080fd5b506101f06101eb36600461306f565b6105e9565b60405173ffffffffffffffffffffffffffffffffffffffff90911681526020016101c7565b34801561022157600080fd5b5061024d61023036600461308c565b600460209081526000928352604080842090915290825290205481565b6040519081526020016101c7565b34801561026757600080fd5b5061027b6102763660046130d3565b6106a9565b604080519283526020830191909152016101c7565b34801561029c57600080fd5b506101f07f000000000000000000000000000000000000000000000000000000000000000081565b3480156102d057600080fd5b506102e46102df36600461311e565b610b44565b005b3480156102f257600080fd5b506102e461030136600461314a565b610c42565b61024d6103143660046131aa565b610d3b565b34801561032557600080fd5b5061033961033436600461320c565b610fe3565b6040516101c793929190613252565b6102e46103563660046132ee565b6111a6565b34801561036757600080fd5b5061024d610376366004613359565b611459565b34801561038757600080fd5b506102e461039636600461306f565b6116c4565b3480156103a757600080fd5b506101bb6103b6366004613043565b61178c565b3480156103c757600080fd5b506101bb6103d6366004613043565b611873565b3480156103e757600080fd5b506101f07f000000000000000000000000000000000000000000000000000000000000000081565b34801561041b57600080fd5b506101f07f000000000000000000000000000000000000000000000000000000000000000081565b34801561044f57600080fd5b506102e461045e366004613043565b6118f5565b34801561046f57600080fd5b5061024d61047e36600461306f565b60036020526000908152604090205481565b34801561049c57600080fd5b5061024d6104ab366004613376565b611984565b3480156104bc57600080fd5b506102e46104cb366004613043565b611b0e565b3480156104dc57600080fd5b5061024d60015481565b3480156104f257600080fd5b5061024d6105013660046133c9565b611b18565b34801561051257600080fd5b506000546101f09073ffffffffffffffffffffffffffffffffffffffff1681565b34801561053f57600080fd5b506101f061054e36600461341a565b611bb2565b6102e4611c5d565b6000333014156105cc576040517f08c379a000000000000000000000000000000000000000000000000000000000815260206004820152601660248201527f4d75746c69557365722f6e6f5265656e7472616e63790000000000000000000060448201526064015b60405180910390fd5b6105d63383611d54565b6105e08383611e47565b90505b92915050565b6040517f35ea6a7500000000000000000000000000000000000000000000000000000000815273ffffffffffffffffffffffffffffffffffffffff82811660048301526000917f0000000000000000000000000000000000000000000000000000000000000000909116906335ea6a759060240161018060405180830381865afa15801561067b573d6000803e3d6000fd5b505050506040513d601f19601f8201168201806040525081019061069f91906135bd565b60e0015192915050565b6000806106d76040518060800160405280600081526020016000815260200160008152602001600081525090565b61071f60405180610100016040528060008152602001600081526020016000815260200160008152602001600081526020016000815260200160008152602001600081525090565b6040517fbf92857c00000000000000000000000000000000000000000000000000000000815273ffffffffffffffffffffffffffffffffffffffff86811660048301527f0000000000000000000000000000000000000000000000000000000000000000169063bf92857c9060240160c060405180830381865afa1580156107ab573d6000803e3d6000fd5b505050506040513d601f19601f820116820180604052508101906107cf91906136aa565b60c0870152608086015260a08501526040808501919091526020840191909152908252517f35ea6a7500000000000000000000000000000000000000000000000000000000815273ffffffffffffffffffffffffffffffffffffffff88811660048301526000917f0000000000000000000000000000000000000000000000000000000000000000909116906335ea6a759060240161018060405180830381865afa158015610882573d6000803e3d6000fd5b505050506040513d601f19601f820116820180604052508101906108a691906135bd565b80515160ff603082901c1660408681019190915261ffff601083901c81166020808901919091529216865260e083015181517f70a0823100000000000000000000000000000000000000000000000000000000815273ffffffffffffffffffffffffffffffffffffffff8b8116600483015292519495509116926370a08231926024808401939192918290030181865afa158015610948573d6000803e3d6000fd5b505050506040513d601f19601f8201168201806040525081019061096c91906136f4565b60e08301526040517fb3596f0700000000000000000000000000000000000000000000000000000000815273ffffffffffffffffffffffffffffffffffffffff89811660048301527f0000000000000000000000000000000000000000000000000000000000000000169063b3596f0790602401602060405180830381865afa1580156109fd573d6000803e3d6000fd5b505050506040513d601f19601f82011682018060405250810190610a2191906136f4565b606084015260a08201518251610a5191610a4791610a3f9190611f04565b612710611f46565b8360200151611f88565b60608301526040830151600090610a9f90610a6d90600a61385c565b8460600151610a7c9190613868565b610a8890612710613868565b610a9a86602001518760600151611f04565b611f46565b9050610aaf818460e00151611fca565b905087610ac557945060009350610b3c92505050565b6000610ad8610a3f838760000151611f04565b90506000610b07610afd86604001518860400151600a610af8919061385c565b611f04565b8760600151611f46565b905080821115610b235782600097509750505050505050610b3c565b6000610b2f8284611f88565b9398509296505050505050505b935093915050565b60005473ffffffffffffffffffffffffffffffffffffffff16331480610b6957503330145b610bcf576040517f08c379a000000000000000000000000000000000000000000000000000000000815260206004820152601860248201527f416363657373436f6e74726f6c6c65642f496e76616c6964000000000000000060448201526064016105c3565b808162ffffff1614610c3d576040517f08c379a000000000000000000000000000000000000000000000000000000000815260206004820152601d60248201527f4d616e67726f76654f666665722f6761737265712f6f766572666c6f7700000060448201526064016105c3565b600155565b7f000000000000000000000000000000000000000000000000000000000000000073ffffffffffffffffffffffffffffffffffffffff81161580610c9b57503373ffffffffffffffffffffffffffffffffffffffff8216145b610d01576040517f08c379a000000000000000000000000000000000000000000000000000000000815260206004820152601860248201527f416363657373436f6e74726f6c6c65642f496e76616c6964000000000000000060448201526064016105c3565b81602001357f6d67762f747261646553756363657373000000000000000000000000000000001415610d3657610d3683611fe0565b505050565b600033301415610da7576040517f08c379a000000000000000000000000000000000000000000000000000000000815260206004820152601660248201527f4d75746c69557365722f6e6f5265656e7472616e63790000000000000000000060448201526064016105c3565b6040517f70a082310000000000000000000000000000000000000000000000000000000081523060048201526000907f000000000000000000000000000000000000000000000000000000000000000073ffffffffffffffffffffffffffffffffffffffff16906370a0823190602401602060405180830381865afa158015610e34573d6000803e3d6000fd5b505050506040513d601f19601f82011682018060405250810190610e5891906136f4565b90503415610ee2577f000000000000000000000000000000000000000000000000000000000000000073ffffffffffffffffffffffffffffffffffffffff1663b60d4288346040518263ffffffff1660e01b81526004016000604051808303818588803b158015610ec857600080fd5b505af1158015610edc573d6000803e3d6000fd5b50505050505b6040517f49f6d2dc00000000000000000000000000000000000000000000000000000000815273ffffffffffffffffffffffffffffffffffffffff8a81166004830152898116602483015260448201899052606482018890526084820187905260a4820186905260c482018590527f000000000000000000000000000000000000000000000000000000000000000016906349f6d2dc9060e4016020604051808303816000875af1158015610f9b573d6000803e3d6000fd5b505050506040513d601f19601f82011682018060405250810190610fbf91906136f4565b9150610fcd89898433611fec565b610fd73382612090565b50979650505050505050565b6040517f2c7e545f00000000000000000000000000000000000000000000000000000000815273ffffffffffffffffffffffffffffffffffffffff85811660048301528481166024830152604482018490526064820183905260009160609182917f000000000000000000000000000000000000000000000000000000000000000090911690632c7e545f90608401600060405180830381865afa15801561108f573d6000803e3d6000fd5b505050506040513d6000823e601f3d9081017fffffffffffffffffffffffffffffffffffffffffffffffffffffffffffffffe01682016040526110d59190810190613a12565b50508051919450925067ffffffffffffffff8111156110f6576110f661345b565b60405190808252806020026020018201604052801561111f578160200160208202803683370190505b50905060005b825181101561119b57611152888885848151811061114557611145613b07565b6020026020010151611bb2565b82828151811061116457611164613b07565b73ffffffffffffffffffffffffffffffffffffffff909216602092830291909101909101528061119381613b36565b915050611125565b509450945094915050565b60006111b3898984611bb2565b905073ffffffffffffffffffffffffffffffffffffffff81163314611234576040517f08c379a000000000000000000000000000000000000000000000000000000000815260206004820181905260248201527f6d67764f666665722f4d756c74694f776e65722f756e617574686f72697a656460448201526064016105c3565b34156112bc577f000000000000000000000000000000000000000000000000000000000000000073ffffffffffffffffffffffffffffffffffffffff1663b60d4288346040518263ffffffff1660e01b81526004016000604051808303818588803b1580156112a257600080fd5b505af11580156112b6573d6000803e3d6000fd5b50505050505b6040517f6a4f769100000000000000000000000000000000000000000000000000000000815273ffffffffffffffffffffffffffffffffffffffff8a81166004830152898116602483015260448201899052606482018890526084820187905260a4820186905260c4820185905260e482018490527f00000000000000000000000000000000000000000000000000000000000000001690636a4f76919061010401600060405180830381600087803b15801561137857600080fd5b505af115801561138c573d6000803e3d6000fd5b50506040517f70a08231000000000000000000000000000000000000000000000000000000008152306004820152600092507f000000000000000000000000000000000000000000000000000000000000000073ffffffffffffffffffffffffffffffffffffffff1691506370a0823190602401602060405180830381865afa15801561141d573d6000803e3d6000fd5b505050506040513d601f19601f8201168201806040525081019061144191906136f4565b905061144d8282612090565b50505050505050505050565b60007f000000000000000000000000000000000000000000000000000000000000000073ffffffffffffffffffffffffffffffffffffffff811615806114b457503373ffffffffffffffffffffffffffffffffffffffff8216145b61151a576040517f08c379a000000000000000000000000000000000000000000000000000000000815260206004820152601860248201527f416363657373436f6e74726f6c6c65642f496e76616c6964000000000000000060448201526064016105c3565b600061152a8460a001358561217e565b905080156115ea57611542604085016020860161306f565b73ffffffffffffffffffffffffffffffffffffffff16611565602086018661306f565b73ffffffffffffffffffffffffffffffffffffffff167f3482722a7c71a098521214cdb975e1d9faa0b0163f768e89566f7acc36cffd0b8660400135846040516115b9929190918252602082015260400190565b60405180910390a37f6d67764f666665722f7075744661696c757265000000000000000000000000009250506116be565b60006115fa8560800135866121dc565b905080156116bb57611612604086016020870161306f565b73ffffffffffffffffffffffffffffffffffffffff16611635602087018761306f565b73ffffffffffffffffffffffffffffffffffffffff167fc99fe658c80b903af0e1270f4a55564b3a7509294ab1052c6ab07f8198baea67876040013584604051611689929190918252602082015260400190565b60405180910390a37f6d67764f666665722f6f75744f664c6971756964697479000000000000000000935050506116be565b50505b50919050565b60005473ffffffffffffffffffffffffffffffffffffffff163314611745576040517f08c379a000000000000000000000000000000000000000000000000000000000815260206004820152601860248201527f416363657373436f6e74726f6c6c65642f496e76616c6964000000000000000060448201526064016105c3565b600080547fffffffffffffffffffffffff00000000000000000000000000000000000000001673ffffffffffffffffffffffffffffffffffffffff92909216919091179055565b6000805473ffffffffffffffffffffffffffffffffffffffff16331461180e576040517f08c379a000000000000000000000000000000000000000000000000000000000815260206004820152601860248201527f416363657373436f6e74726f6c6c65642f496e76616c6964000000000000000060448201526064016105c3565b60405173ffffffffffffffffffffffffffffffffffffffff8416908390600081818185875af1925050503d8060008114611864576040519150601f19603f3d011682016040523d82523d6000602084013e611869565b606091505b5090949350505050565b6000333014156118df576040517f08c379a000000000000000000000000000000000000000000000000000000000815260206004820152601660248201527f4d75746c69557365722f6e6f5265656e7472616e63790000000000000000000060448201526064016105c3565b6118ea8333846121e8565b6105e08333846122f8565b60005473ffffffffffffffffffffffffffffffffffffffff163314611976576040517f08c379a000000000000000000000000000000000000000000000000000000000815260206004820152601860248201527f416363657373436f6e74726f6c6c65642f496e76616c6964000000000000000060448201526064016105c3565b6119808282612395565b5050565b73ffffffffffffffffffffffffffffffffffffffff8481166000908152600260209081526040808320878516845282528083208684529091528120549091163314611a2b576040517f08c379a000000000000000000000000000000000000000000000000000000000815260206004820181905260248201527f6d67764f666665722f4d756c74694f776e65722f756e617574686f72697a656460448201526064016105c3565b6040517fad97db1b00000000000000000000000000000000000000000000000000000000815273ffffffffffffffffffffffffffffffffffffffff868116600483015285811660248301526044820185905283151560648301527f0000000000000000000000000000000000000000000000000000000000000000169063ad97db1b906084016020604051808303816000875af1158015611ad0573d6000803e3d6000fd5b505050506040513d601f19601f82011682018060405250810190611af491906136f4565b90508015611b0657611b06338261244e565b949350505050565b6119808282612483565b6000806000611b28888886611bb2565b905073ffffffffffffffffffffffffffffffffffffffff8116611b4e5760009150611b77565b73ffffffffffffffffffffffffffffffffffffffff811660009081526003602052604090205491505b611ba67f0000000000000000000000000000000000000000000000000000000000000000838a8a8a8a8a6125a2565b98975050505050505050565b73ffffffffffffffffffffffffffffffffffffffff8084166000908152600260209081526040808320868516845282528083208584529091529020541680611c56576040517f08c379a000000000000000000000000000000000000000000000000000000000815260206004820152601560248201527f6d756c7469557365722f756e6b6f776e4f66666572000000000000000000000060448201526064016105c3565b9392505050565b33301415611cc7576040517f08c379a000000000000000000000000000000000000000000000000000000000815260206004820152601660248201527f4d75746c69557365722f6e6f5265656e7472616e63790000000000000000000060448201526064016105c3565b7f000000000000000000000000000000000000000000000000000000000000000073ffffffffffffffffffffffffffffffffffffffff1663b60d4288346040518263ffffffff1660e01b81526004016000604051808303818588803b158015611d2f57600080fd5b505af1158015611d43573d6000803e3d6000fd5b5050505050611d52333461244e565b565b73ffffffffffffffffffffffffffffffffffffffff8216600090815260036020526040902054811115611e09576040517f08c379a000000000000000000000000000000000000000000000000000000000815260206004820152602260248201527f4d756c74694f776e65722f64656269744f6e4d67762f696e737566666963696560448201527f6e7400000000000000000000000000000000000000000000000000000000000060648201526084016105c3565b73ffffffffffffffffffffffffffffffffffffffff821660009081526003602052604081208054839290611e3e908490613b6f565b90915550505050565b6040517f2e1a7d4d000000000000000000000000000000000000000000000000000000008152600481018290526000907f000000000000000000000000000000000000000000000000000000000000000073ffffffffffffffffffffffffffffffffffffffff1690632e1a7d4d906024016020604051808303816000875af1158015611ed7573d6000803e3d6000fd5b505050506040513d601f19601f82011682018060405250810190611efb9190613b86565b61180e57600080fd5b60006105e083836040518060400160405280601781526020017f6d756c7469706c69636174696f6e206f766572666c6f770000000000000000008152506127b9565b60006105e083836040518060400160405280600e81526020017f646976696465206279207a65726f00000000000000000000000000000000000081525061282f565b60006105e083836040518060400160405280601581526020017f7375627472616374696f6e20756e646572666c6f770000000000000000000000815250612875565b6000818310611fd957816105e0565b5090919050565b611fe9816128be565b50565b73ffffffffffffffffffffffffffffffffffffffff848116600081815260026020908152604080832088861680855290835281842088855283529281902080547fffffffffffffffffffffffff00000000000000000000000000000000000000001695871695861790555193845285939192917ff4d6dd56d4e8a2abba2bcbd020eb452fe8213f9b1466dd3f17d342f9a6353435910160405180910390a450505050565b6040517f70a082310000000000000000000000000000000000000000000000000000000081523060048201526000907f000000000000000000000000000000000000000000000000000000000000000073ffffffffffffffffffffffffffffffffffffffff16906370a0823190602401602060405180830381865afa15801561211d573d6000803e3d6000fd5b505050506040513d601f19601f8201168201806040525081019061214191906136f4565b90508181141561215057505050565b8181111561216b57610d36836121668484613b6f565b61244e565b610d36836121798385613b6f565b611d54565b600061218a8383612af8565b905060006121b861219e602085018561306f565b6121ae604086016020870161306f565b8560400135611bb2565b90506121d46121cd604085016020860161306f565b8286612b31565b505092915050565b60006105e08383612b49565b73ffffffffffffffffffffffffffffffffffffffff8084166000908152600460209081526040808320938616835292905220548111156122aa576040517f08c379a000000000000000000000000000000000000000000000000000000000815260206004820152602260248201527f4d756c74694f776e65722f6465626974546f6b656e2f696e737566666963696560448201527f6e7400000000000000000000000000000000000000000000000000000000000060648201526084016105c3565b73ffffffffffffffffffffffffffffffffffffffff8084166000908152600460209081526040808320938616835292905290812080548392906122ee908490613b6f565b9091555050505050565b6040517fa9059cbb00000000000000000000000000000000000000000000000000000000815273ffffffffffffffffffffffffffffffffffffffff8381166004830152602482018390526000919085169063a9059cbb906044016020604051808303816000875af1158015612371573d6000803e3d6000fd5b505050506040513d601f19601f82011682018060405250810190611b069190613b86565b6040517f095ea7b300000000000000000000000000000000000000000000000000000000815273ffffffffffffffffffffffffffffffffffffffff7f0000000000000000000000000000000000000000000000000000000000000000811660048301526024820183905283169063095ea7b3906044016020604051808303816000875af115801561242a573d6000803e3d6000fd5b505050506040513d601f19601f82011682018060405250810190610d369190613b86565b73ffffffffffffffffffffffffffffffffffffffff821660009081526003602052604081208054839290611e3e908490613ba3565b6040517f095ea7b300000000000000000000000000000000000000000000000000000000815273ffffffffffffffffffffffffffffffffffffffff7f0000000000000000000000000000000000000000000000000000000000000000811660048301526024820183905283169063095ea7b3906044016020604051808303816000875af1158015612518573d6000803e3d6000fd5b505050506040513d601f19601f8201168201806040525081019061253c9190613b86565b611980576040517f08c379a000000000000000000000000000000000000000000000000000000000815260206004820152601560248201527f6d67764f666665722f617070726f76652f4661696c000000000000000000000060448201526064016105c3565b6040517fcbf75c9a00000000000000000000000000000000000000000000000000000000815273ffffffffffffffffffffffffffffffffffffffff8681166004830152858116602483015260009182918291908b169063cbf75c9a906044016040805180830381865afa15801561261d573d6000803e3d6000fd5b505050506040513d601f19601f820116820180604052508101906126419190613bbb565b6040517f5722647b00000000000000000000000000000000000000000000000000000000815273ffffffffffffffffffffffffffffffffffffffff8b811660048301528a81166024830152604482018890529294509092506000918c1690635722647b90606401602060405180830381865afa1580156126c5573d6000803e3d6000fd5b505050506040513d601f19601f820116820180604052508101906126e991906136f4565b9050600086604085901c61ffff16111561270c575061ffff604084901c1661270f565b50855b60008161272562ffffff606087901c168b613ba3565b61272f9190613868565b61273d90633b9aca00613868565b9050600061ffff602085901c1661276462ffffff603087901c811690604888901c16613ba3565b61276e9190613868565b61277c90633b9aca00613868565b9050600061278a8e83613ba3565b9050828110156127a35761279e8184613b6f565b6127a6565b60005b9f9e505050505050505050505050505050565b60008315806127c6575082155b156127d357506000611c56565b60006127df8486613868565b9050836127ec8683613bdf565b148390612826576040517f08c379a00000000000000000000000000000000000000000000000000000000081526004016105c39190613c85565b50949350505050565b6000818361286a576040517f08c379a00000000000000000000000000000000000000000000000000000000081526004016105c39190613c85565b50611b068385613bdf565b600081848411156128b3576040517f08c379a00000000000000000000000000000000000000000000000000000000081526004016105c39190613c85565b50611b068385613b6f565b60006128e0608083013560608401356bffffffffffffffffffffffff16613b6f565b9050600061290760a08401356bffffffffffffffffffffffff606080870135901c16613b6f565b905073ffffffffffffffffffffffffffffffffffffffff7f000000000000000000000000000000000000000000000000000000000000000016636a4f7691612952602086018661306f565b612962604087016020880161306f565b848660c089013560481c62ffffff1660c08a013560201c61ffff1660608b013560c01c63ffffffff16604080517fffffffff0000000000000000000000000000000000000000000000000000000060e08b901b16815273ffffffffffffffffffffffffffffffffffffffff988916600482015297909616602488015260448701949094526064860192909252608485015260a484015260c483015286013560e482015261010401600060405180830381600087803b158015612a2357600080fd5b505af1925050508015612a34575060015b610d3657612a40613c98565b806308c379a01415612aec5750612a55613cb4565b80612a605750612aee565b612a70604085016020860161306f565b73ffffffffffffffffffffffffffffffffffffffff16612a93602086018661306f565b73ffffffffffffffffffffffffffffffffffffffff167f768269e5e6803a8bc566de9364d8347774fff5b114c5a2ec556ab0459a172426866040013584604051612ade929190613d5c565b60405180910390a350505050565b505b3d6000803e3d6000fd5b600080612b0b61219e602085018561306f565b9050612b27612b20604085016020860161306f565b8286612dff565b5060009392505050565b6000612b3e8484846121e8565b611b068484846122f8565b600080612b5c61219e602085018561306f565b90506000612b78612b70602086018661306f565b6000846106a9565b50905080851115612b8d5784925050506105e3565b6000612b9f6101eb602087018761306f565b6040517f23b872dd00000000000000000000000000000000000000000000000000000000815273ffffffffffffffffffffffffffffffffffffffff858116600483015230602483015260448201899052919250908216906323b872dd906064016020604051808303816000875af1925050508015612c58575060408051601f3d9081017fffffffffffffffffffffffffffffffffffffffffffffffffffffffffffffffe0168201909252612c5591810190613b86565b60015b612d1c5760408501803590612c70906020880161306f565b73ffffffffffffffffffffffffffffffffffffffff16612c93602088018861306f565b73ffffffffffffffffffffffffffffffffffffffff167f3aa32c175e32764fe670a20f7800e840796a2c690e646f8d73ad446ae04628e989604051612d0f918152604060208201819052601d908201527f6c656e6465722f6d756c74692f7472616e7366657246726f6d4661696c000000606082015260800190565b60405180910390a4612df5565b612d27873088612e43565b612d385760009450505050506105e3565b60408601803590612d4c906020890161306f565b73ffffffffffffffffffffffffffffffffffffffff16612d6f602089018961306f565b73ffffffffffffffffffffffffffffffffffffffff167f3aa32c175e32764fe670a20f7800e840796a2c690e646f8d73ad446ae04628e98a604051612deb9181526040602082018190526019908201527f6c656e6465722f6d756c74692f72656465656d4661696c656400000000000000606082015260800190565b60405180910390a4505b5093949350505050565b73ffffffffffffffffffffffffffffffffffffffff8084166000908152600460209081526040808320938616835292905290812080548392906122ee908490613ba3565b600073ffffffffffffffffffffffffffffffffffffffff7f0000000000000000000000000000000000000000000000000000000000000000166369328dec612e8e602085018561306f565b6040517fffffffff0000000000000000000000000000000000000000000000000000000060e084901b16815273ffffffffffffffffffffffffffffffffffffffff91821660048201526024810188905290861660448201526064016020604051808303816000875af1925050508015612f42575060408051601f3d9081017fffffffffffffffffffffffffffffffffffffffffffffffffffffffffffffffe0168201909252612f3f918101906136f4565b60015b612ffd57612f4e613c98565b806308c379a01415612aec5750612f63613cb4565b80612f6e5750612aee565b60408301803590612f82906020860161306f565b73ffffffffffffffffffffffffffffffffffffffff16612fa5602086018661306f565b73ffffffffffffffffffffffffffffffffffffffff167f3aa32c175e32764fe670a20f7800e840796a2c690e646f8d73ad446ae04628e98885604051612fec929190613d5c565b60405180910390a484915050611c56565b8085141561300f576000915050611c56565b6130198186613b6f565b915050611c56565b73ffffffffffffffffffffffffffffffffffffffff81168114611fe957600080fd5b6000806040838503121561305657600080fd5b823561306181613021565b946020939093013593505050565b60006020828403121561308157600080fd5b8135611c5681613021565b6000806040838503121561309f57600080fd5b82356130aa81613021565b915060208301356130ba81613021565b809150509250929050565b8015158114611fe957600080fd5b6000806000606084860312156130e857600080fd5b83356130f381613021565b92506020840135613103816130c5565b9150604084013561311381613021565b809150509250925092565b60006020828403121561313057600080fd5b5035919050565b600061012082840312156116be57600080fd5b60008082840361016081121561315f57600080fd5b6131698585613137565b925060407ffffffffffffffffffffffffffffffffffffffffffffffffffffffffffffffee08201121561319b57600080fd5b50610120830190509250929050565b600080600080600080600060e0888a0312156131c557600080fd5b87356131d081613021565b965060208801356131e081613021565b96999698505050506040850135946060810135946080820135945060a0820135935060c0909101359150565b6000806000806080858703121561322257600080fd5b843561322d81613021565b9350602085013561323d81613021565b93969395505050506040820135916060013590565b6000606082018583526020606081850152818651808452608086019150828801935060005b8181101561329357845183529383019391830191600101613277565b50508481036040860152855180825290820192508186019060005b818110156132e057825173ffffffffffffffffffffffffffffffffffffffff16855293830193918301916001016132ae565b509298975050505050505050565b600080600080600080600080610100898b03121561330b57600080fd5b883561331681613021565b9750602089013561332681613021565b979a9799505050506040860135956060810135956080820135955060a0820135945060c0820135935060e0909101359150565b6000610120828403121561336c57600080fd5b6105e08383613137565b6000806000806080858703121561338c57600080fd5b843561339781613021565b935060208501356133a781613021565b92506040850135915060608501356133be816130c5565b939692955090935050565b600080600080600060a086880312156133e157600080fd5b85356133ec81613021565b945060208601356133fc81613021565b94979496505050506040830135926060810135926080909101359150565b60008060006060848603121561342f57600080fd5b833561343a81613021565b9250602084013561344a81613021565b929592945050506040919091013590565b7f4e487b7100000000000000000000000000000000000000000000000000000000600052604160045260246000fd5b6080810181811067ffffffffffffffff821117156134aa576134aa61345b565b60405250565b7fffffffffffffffffffffffffffffffffffffffffffffffffffffffffffffffe0601f830116810181811067ffffffffffffffff821117156134f4576134f461345b565b6040525050565b604051610180810167ffffffffffffffff8111828210171561351f5761351f61345b565b60405290565b60006020828403121561353757600080fd5b6040516020810181811067ffffffffffffffff8211171561355a5761355a61345b565b6040529151825250919050565b80516fffffffffffffffffffffffffffffffff8116811461358757600080fd5b919050565b805164ffffffffff8116811461358757600080fd5b805161358781613021565b805160ff8116811461358757600080fd5b600061018082840312156135d057600080fd5b6135d86134fb565b6135e28484613525565b81526135f060208401613567565b602082015261360160408401613567565b604082015261361260608401613567565b606082015261362360808401613567565b608082015261363460a08401613567565b60a082015261364560c0840161358c565b60c082015261365660e084016135a1565b60e08201526101006136698185016135a1565b9082015261012061367b8482016135a1565b9082015261014061368d8482016135a1565b9082015261016061369f8482016135ac565b908201529392505050565b60008060008060008060c087890312156136c357600080fd5b865195506020870151945060408701519350606087015192506080870151915060a087015190509295509295509295565b60006020828403121561370657600080fd5b5051919050565b7f4e487b7100000000000000000000000000000000000000000000000000000000600052601160045260246000fd5b600181815b8085111561379557817fffffffffffffffffffffffffffffffffffffffffffffffffffffffffffffffff0482111561377b5761377b61370d565b8085161561378857918102915b93841c9390800290613741565b509250929050565b6000826137ac575060016105e3565b816137b9575060006105e3565b81600181146137cf57600281146137d9576137f5565b60019150506105e3565b60ff8411156137ea576137ea61370d565b50506001821b6105e3565b5060208310610133831016604e8410600b8410161715613818575081810a6105e3565b613822838361373c565b807fffffffffffffffffffffffffffffffffffffffffffffffffffffffffffffffff048211156138545761385461370d565b029392505050565b60006105e0838361379d565b6000817fffffffffffffffffffffffffffffffffffffffffffffffffffffffffffffffff04831182151516156138a0576138a061370d565b500290565b600067ffffffffffffffff8211156138bf576138bf61345b565b5060051b60200190565b600082601f8301126138da57600080fd5b815160206138e7826138a5565b604080516138f583826134b0565b84815260079490941b860183019383810192508785111561391557600080fd5b8387015b85811015610fd7576080818a0312156139325760008081fd5b825161393d8161348a565b815181528582015186820152838201518482015260608083015190820152845292840192608001613919565b600082601f83011261397a57600080fd5b81516020613987826138a5565b6040805161399583826134b0565b84815260079490941b86018301938381019250878511156139b557600080fd5b8387015b85811015610fd7576080818a0312156139d25760008081fd5b82516139dd8161348a565b81516139e881613021565b815281860151868201528382015184820152606080830151908201528452928401926080016139b9565b60008060008060808587031215613a2857600080fd5b8451935060208086015167ffffffffffffffff80821115613a4857600080fd5b818801915088601f830112613a5c57600080fd5b8151613a67816138a5565b604051613a7482826134b0565b82815260059290921b840185019185810191508b831115613a9457600080fd5b938501935b82851015613ab257845182529385019390850190613a99565b60408b01519098509450505080831115613acb57600080fd5b613ad789848a016138c9565b94506060880151925080831115613aed57600080fd5b5050613afb87828801613969565b91505092959194509250565b7f4e487b7100000000000000000000000000000000000000000000000000000000600052603260045260246000fd5b60007fffffffffffffffffffffffffffffffffffffffffffffffffffffffffffffffff821415613b6857613b6861370d565b5060010190565b600082821015613b8157613b8161370d565b500390565b600060208284031215613b9857600080fd5b8151611c56816130c5565b60008219821115613bb657613bb661370d565b500190565b60008060408385031215613bce57600080fd5b505080516020909101519092909150565b600082613c15577f4e487b7100000000000000000000000000000000000000000000000000000000600052601260045260246000fd5b500490565b6000815180845260005b81811015613c4057602081850181015186830182015201613c24565b81811115613c52576000602083870101525b50601f017fffffffffffffffffffffffffffffffffffffffffffffffffffffffffffffffe0169290920160200192915050565b6020815260006105e06020830184613c1a565b600060033d1115613cb15760046000803e5060005160e01c5b90565b600060443d1015613cc25790565b6040517ffffffffffffffffffffffffffffffffffffffffffffffffffffffffffffffffc803d016004833e81513d67ffffffffffffffff8160248401118184111715613d1057505050505090565b8285019150815181811115613d285750505050505090565b843d8701016020828501011115613d425750505050505090565b613d51602082860101876134b0565b509095945050505050565b828152604060208201526000611b066040830184613c1a56fea2646970667358221220eb7048c3579b37c1500cb012c3ffb16f3dfed629af85b24bb6adc4133e27d8a364736f6c634300080a0033",
  "devdoc": {
    "kind": "dev",
    "methods": {},
    "version": 1
  },
  "userdoc": {
    "events": {
      "PosthookFail(address,address,uint256,string)": {
        "notice": "Events "
      }
    },
    "kind": "user",
    "methods": {
      "approveLender(address,uint256)": {
        "notice": "approval of ctoken contract by the underlying is necessary for minting and repaying borrowuser must use this function to do so."
      },
      "approveMangrove(address,uint256)": {
        "notice": "trader needs to approve Mangrove to let it perform outbound token transfer at the end of the `makerExecute` function Warning: anyone can approve here."
      },
      "maxGettableUnderlying(address,bool,address)": {
        "notice": "Computes maximal maximal redeem capacity (R) and max borrow capacity (B|R) after R has been redeemed returns (R, B|R)"
      },
      "withdrawFromMangrove(address,uint256)": {
        "notice": "withdraws ETH from the bounty vault of the Mangrove. NB: `Mangrove.fund` function need not be called by `this` so is not included here. Warning: this function should not be called internally for msg.sender provision is being checked"
      }
    },
    "version": 1
  },
  "storageLayout": {
    "storage": [
      {
        "astId": 15869,
        "contract": "contracts/Strategies/OfferLogics/MultiUsers/Deployable/OfferProxy.sol:OfferProxy",
        "label": "admin",
        "offset": 0,
        "slot": "0",
        "type": "t_address"
      },
      {
        "astId": 10849,
        "contract": "contracts/Strategies/OfferLogics/MultiUsers/Deployable/OfferProxy.sol:OfferProxy",
        "label": "OFR_GASREQ",
        "offset": 0,
        "slot": "1",
        "type": "t_uint256"
      },
      {
        "astId": 11486,
        "contract": "contracts/Strategies/OfferLogics/MultiUsers/Deployable/OfferProxy.sol:OfferProxy",
        "label": "_offerOwners",
        "offset": 0,
        "slot": "2",
        "type": "t_mapping(t_address,t_mapping(t_address,t_mapping(t_uint256,t_address)))"
      },
      {
        "astId": 11490,
        "contract": "contracts/Strategies/OfferLogics/MultiUsers/Deployable/OfferProxy.sol:OfferProxy",
        "label": "mgvBalanceOf",
        "offset": 0,
        "slot": "3",
        "type": "t_mapping(t_address,t_uint256)"
      },
      {
        "astId": 11496,
        "contract": "contracts/Strategies/OfferLogics/MultiUsers/Deployable/OfferProxy.sol:OfferProxy",
        "label": "tokenBalanceOf",
        "offset": 0,
        "slot": "4",
        "type": "t_mapping(t_address,t_mapping(t_address,t_uint256))"
      },
      {
        "astId": 9562,
        "contract": "contracts/Strategies/OfferLogics/MultiUsers/Deployable/OfferProxy.sol:OfferProxy",
        "label": "referralCode",
        "offset": 0,
        "slot": "5",
        "type": "t_uint16"
      }
    ],
    "types": {
      "t_address": {
        "encoding": "inplace",
        "label": "address",
        "numberOfBytes": "20"
      },
      "t_mapping(t_address,t_mapping(t_address,t_mapping(t_uint256,t_address)))": {
        "encoding": "mapping",
        "key": "t_address",
        "label": "mapping(address => mapping(address => mapping(uint256 => address)))",
        "numberOfBytes": "32",
        "value": "t_mapping(t_address,t_mapping(t_uint256,t_address))"
      },
      "t_mapping(t_address,t_mapping(t_address,t_uint256))": {
        "encoding": "mapping",
        "key": "t_address",
        "label": "mapping(address => mapping(address => uint256))",
        "numberOfBytes": "32",
        "value": "t_mapping(t_address,t_uint256)"
      },
      "t_mapping(t_address,t_mapping(t_uint256,t_address))": {
        "encoding": "mapping",
        "key": "t_address",
        "label": "mapping(address => mapping(uint256 => address))",
        "numberOfBytes": "32",
        "value": "t_mapping(t_uint256,t_address)"
      },
      "t_mapping(t_address,t_uint256)": {
        "encoding": "mapping",
        "key": "t_address",
        "label": "mapping(address => uint256)",
        "numberOfBytes": "32",
        "value": "t_uint256"
      },
      "t_mapping(t_uint256,t_address)": {
        "encoding": "mapping",
        "key": "t_uint256",
        "label": "mapping(uint256 => address)",
        "numberOfBytes": "32",
        "value": "t_address"
      },
      "t_uint16": {
        "encoding": "inplace",
        "label": "uint16",
        "numberOfBytes": "2"
      },
      "t_uint256": {
        "encoding": "inplace",
        "label": "uint256",
        "numberOfBytes": "32"
      }
    }
  }
}