{
  "address": "0x8f251D2789c3AE3054C24B4319e357C8AB45697a",
  "abi": [
    {
      "inputs": [
        {
          "internalType": "address",
          "name": "_addressesProvider",
          "type": "address"
        },
        {
          "internalType": "contract IMangrove",
          "name": "_MGV",
          "type": "address"
        },
        {
          "internalType": "address",
          "name": "deployer",
          "type": "address"
        }
      ],
      "stateMutability": "nonpayable",
      "type": "constructor"
    },
    {
      "anonymous": false,
      "inputs": [
        {
          "indexed": true,
          "internalType": "contract IMangrove",
          "name": "mangrove",
          "type": "address"
        },
        {
          "indexed": true,
          "internalType": "address",
          "name": "user",
          "type": "address"
        },
        {
          "indexed": false,
          "internalType": "uint256",
          "name": "amount",
          "type": "uint256"
        }
      ],
      "name": "CreditMgvUser",
      "type": "event"
    },
    {
      "anonymous": false,
      "inputs": [
        {
          "indexed": true,
          "internalType": "contract IMangrove",
          "name": "mangrove",
          "type": "address"
        },
        {
          "indexed": true,
          "internalType": "address",
          "name": "user",
          "type": "address"
        },
        {
          "indexed": false,
          "internalType": "uint256",
          "name": "amount",
          "type": "uint256"
        }
      ],
      "name": "DebitMgvUser",
      "type": "event"
    },
    {
      "anonymous": false,
      "inputs": [
        {
          "indexed": false,
          "internalType": "contract IMangrove",
          "name": "mangrove",
          "type": "address"
        },
        {
          "indexed": true,
          "internalType": "contract IEIP20",
          "name": "outbound_tkn",
          "type": "address"
        },
        {
          "indexed": true,
          "internalType": "contract IEIP20",
          "name": "inbound_tkn",
          "type": "address"
        },
        {
          "indexed": true,
          "internalType": "uint256",
          "name": "offerId",
          "type": "uint256"
        },
        {
          "indexed": false,
          "internalType": "bytes32",
          "name": "reason",
          "type": "bytes32"
        }
      ],
      "name": "LogIncident",
      "type": "event"
    },
    {
      "anonymous": false,
      "inputs": [
        {
          "indexed": false,
          "internalType": "contract IMangrove",
          "name": "mangrove",
          "type": "address"
        },
        {
          "indexed": true,
          "internalType": "contract IEIP20",
          "name": "outbound_tkn",
          "type": "address"
        },
        {
          "indexed": true,
          "internalType": "contract IEIP20",
          "name": "inbound_tkn",
          "type": "address"
        },
        {
          "indexed": true,
          "internalType": "uint256",
          "name": "offerId",
          "type": "uint256"
        },
        {
          "indexed": false,
          "internalType": "address",
          "name": "owner",
          "type": "address"
        }
      ],
      "name": "NewOwnedOffer",
      "type": "event"
    },
    {
      "anonymous": false,
      "inputs": [
        {
          "indexed": false,
          "internalType": "uint256",
          "name": "",
          "type": "uint256"
        }
      ],
      "name": "SetGasreq",
      "type": "event"
    },
    {
      "anonymous": false,
      "inputs": [
        {
          "indexed": false,
          "internalType": "contract AbstractRouter",
          "name": "",
          "type": "address"
        }
      ],
      "name": "SetRouter",
      "type": "event"
    },
    {
      "inputs": [],
      "name": "MGV",
      "outputs": [
        {
          "internalType": "contract IMangrove",
          "name": "",
          "type": "address"
        }
      ],
      "stateMutability": "view",
      "type": "function"
    },
    {
      "inputs": [],
      "name": "admin",
      "outputs": [
        {
          "internalType": "address",
          "name": "",
          "type": "address"
        }
      ],
      "stateMutability": "view",
      "type": "function"
    },
    {
      "inputs": [
        {
          "internalType": "contract IEIP20",
          "name": "token",
          "type": "address"
        }
      ],
      "name": "approveLender",
      "outputs": [],
      "stateMutability": "nonpayable",
      "type": "function"
    },
    {
      "inputs": [
        {
          "internalType": "contract IEIP20",
          "name": "outbound_tkn",
          "type": "address"
        }
      ],
      "name": "approveMangrove",
      "outputs": [],
      "stateMutability": "nonpayable",
      "type": "function"
    },
    {
      "inputs": [
        {
          "internalType": "contract IEIP20",
          "name": "token",
          "type": "address"
        }
      ],
      "name": "approveRouter",
      "outputs": [],
      "stateMutability": "nonpayable",
      "type": "function"
    },
    {
      "inputs": [
        {
          "internalType": "contract IEIP20",
          "name": "outbound_tkn",
          "type": "address"
        },
        {
          "internalType": "contract IEIP20",
          "name": "inbound_tkn",
          "type": "address"
        },
        {
          "internalType": "uint256",
          "name": "gasreq",
          "type": "uint256"
        },
        {
          "internalType": "uint256",
          "name": "gasprice",
          "type": "uint256"
        },
        {
          "internalType": "uint256",
          "name": "offerId",
          "type": "uint256"
        }
      ],
      "name": "getMissingProvision",
      "outputs": [
        {
          "internalType": "uint256",
          "name": "",
          "type": "uint256"
        }
      ],
      "stateMutability": "view",
      "type": "function"
    },
    {
      "inputs": [],
      "name": "has_router",
      "outputs": [
        {
          "internalType": "bool",
          "name": "",
          "type": "bool"
        }
      ],
      "stateMutability": "view",
      "type": "function"
    },
    {
      "inputs": [
        {
          "components": [
            {
              "internalType": "address",
              "name": "outbound_tkn",
              "type": "address"
            },
            {
              "internalType": "address",
              "name": "inbound_tkn",
              "type": "address"
            },
            {
              "internalType": "uint256",
              "name": "offerId",
              "type": "uint256"
            },
            {
              "internalType": "t",
              "name": "offer",
              "type": "uint256"
            },
            {
              "internalType": "uint256",
              "name": "wants",
              "type": "uint256"
            },
            {
              "internalType": "uint256",
              "name": "gives",
              "type": "uint256"
            },
            {
              "internalType": "t",
              "name": "offerDetail",
              "type": "uint256"
            },
            {
              "internalType": "t",
              "name": "global",
              "type": "uint256"
            },
            {
              "internalType": "t",
              "name": "local",
              "type": "uint256"
            }
          ],
          "internalType": "struct MgvLib.SingleOrder",
          "name": "order",
          "type": "tuple"
        }
      ],
      "name": "makerExecute",
      "outputs": [
        {
          "internalType": "bytes32",
          "name": "ret",
          "type": "bytes32"
        }
      ],
      "stateMutability": "nonpayable",
      "type": "function"
    },
    {
      "inputs": [
        {
          "components": [
            {
              "internalType": "address",
              "name": "outbound_tkn",
              "type": "address"
            },
            {
              "internalType": "address",
              "name": "inbound_tkn",
              "type": "address"
            },
            {
              "internalType": "uint256",
              "name": "offerId",
              "type": "uint256"
            },
            {
              "internalType": "t",
              "name": "offer",
              "type": "uint256"
            },
            {
              "internalType": "uint256",
              "name": "wants",
              "type": "uint256"
            },
            {
              "internalType": "uint256",
              "name": "gives",
              "type": "uint256"
            },
            {
              "internalType": "t",
              "name": "offerDetail",
              "type": "uint256"
            },
            {
              "internalType": "t",
              "name": "global",
              "type": "uint256"
            },
            {
              "internalType": "t",
              "name": "local",
              "type": "uint256"
            }
          ],
          "internalType": "struct MgvLib.SingleOrder",
          "name": "order",
          "type": "tuple"
        },
        {
          "components": [
            {
              "internalType": "bytes32",
              "name": "makerData",
              "type": "bytes32"
            },
            {
              "internalType": "bytes32",
              "name": "mgvData",
              "type": "bytes32"
            }
          ],
          "internalType": "struct MgvLib.OrderResult",
          "name": "result",
          "type": "tuple"
        }
      ],
      "name": "makerPosthook",
      "outputs": [],
      "stateMutability": "nonpayable",
      "type": "function"
    },
    {
      "inputs": [
        {
          "components": [
            {
              "internalType": "contract IEIP20",
              "name": "outbound_tkn",
              "type": "address"
            },
            {
              "internalType": "contract IEIP20",
              "name": "inbound_tkn",
              "type": "address"
            },
            {
              "internalType": "uint256",
              "name": "wants",
              "type": "uint256"
            },
            {
              "internalType": "uint256",
              "name": "gives",
              "type": "uint256"
            },
            {
              "internalType": "uint256",
              "name": "gasreq",
              "type": "uint256"
            },
            {
              "internalType": "uint256",
              "name": "gasprice",
              "type": "uint256"
            },
            {
              "internalType": "uint256",
              "name": "pivotId",
              "type": "uint256"
            },
            {
              "internalType": "uint256",
              "name": "offerId",
              "type": "uint256"
            }
          ],
          "internalType": "struct IOfferLogic.MakerOrder",
          "name": "mko",
          "type": "tuple"
        }
      ],
      "name": "newOffer",
      "outputs": [
        {
          "internalType": "uint256",
          "name": "offerId",
          "type": "uint256"
        }
      ],
      "stateMutability": "payable",
      "type": "function"
    },
    {
      "inputs": [
        {
          "internalType": "contract IEIP20",
          "name": "outbound_tkn",
          "type": "address"
        },
        {
          "internalType": "contract IEIP20",
          "name": "inbound_tkn",
          "type": "address"
        },
        {
          "internalType": "uint256[]",
          "name": "offerIds",
          "type": "uint256[]"
        }
      ],
      "name": "offerOwners",
      "outputs": [
        {
          "internalType": "address[]",
          "name": "_offerOwners",
          "type": "address[]"
        }
      ],
      "stateMutability": "view",
      "type": "function"
    },
    {
      "inputs": [],
      "name": "ofr_gasreq",
      "outputs": [
        {
          "internalType": "uint256",
          "name": "",
          "type": "uint256"
        }
      ],
      "stateMutability": "view",
      "type": "function"
    },
    {
      "inputs": [
        {
          "internalType": "contract IEIP20",
          "name": "outbound_tkn",
          "type": "address"
        },
        {
          "internalType": "contract IEIP20",
          "name": "inbound_tkn",
          "type": "address"
        },
        {
          "internalType": "uint256",
          "name": "offerId",
          "type": "uint256"
        }
      ],
      "name": "ownerOf",
      "outputs": [
        {
          "internalType": "address",
          "name": "owner",
          "type": "address"
        }
      ],
      "stateMutability": "view",
      "type": "function"
    },
    {
      "inputs": [
        {
          "internalType": "contract IEIP20",
          "name": "outbound_tkn",
          "type": "address"
        },
        {
          "internalType": "contract IEIP20",
          "name": "inbound_tkn",
          "type": "address"
        },
        {
          "internalType": "uint256",
          "name": "offerId",
          "type": "uint256"
        },
        {
          "internalType": "bool",
          "name": "deprovision",
          "type": "bool"
        }
      ],
      "name": "retractOffer",
      "outputs": [
        {
          "internalType": "uint256",
          "name": "free_wei",
          "type": "uint256"
        }
      ],
      "stateMutability": "nonpayable",
      "type": "function"
    },
    {
      "inputs": [],
      "name": "router",
      "outputs": [
        {
          "internalType": "contract AbstractRouter",
          "name": "",
          "type": "address"
        }
      ],
      "stateMutability": "view",
      "type": "function"
    },
    {
      "inputs": [
        {
          "internalType": "address",
          "name": "_admin",
          "type": "address"
        }
      ],
      "name": "setAdmin",
      "outputs": [],
      "stateMutability": "nonpayable",
      "type": "function"
    },
    {
      "inputs": [
        {
          "internalType": "uint256",
          "name": "gasreq",
          "type": "uint256"
        }
      ],
      "name": "set_gasreq",
      "outputs": [],
      "stateMutability": "nonpayable",
      "type": "function"
    },
    {
      "inputs": [
        {
          "internalType": "contract AbstractRouter",
          "name": "router_",
          "type": "address"
        }
      ],
      "name": "set_router",
      "outputs": [],
      "stateMutability": "nonpayable",
      "type": "function"
    },
    {
      "inputs": [
        {
          "internalType": "contract IEIP20",
          "name": "token",
          "type": "address"
        }
      ],
      "name": "tokenBalance",
      "outputs": [
        {
          "internalType": "uint256",
          "name": "",
          "type": "uint256"
        }
      ],
      "stateMutability": "view",
      "type": "function"
    },
    {
      "inputs": [
        {
          "components": [
            {
              "internalType": "contract IEIP20",
              "name": "outbound_tkn",
              "type": "address"
            },
            {
              "internalType": "contract IEIP20",
              "name": "inbound_tkn",
              "type": "address"
            },
            {
              "internalType": "uint256",
              "name": "wants",
              "type": "uint256"
            },
            {
              "internalType": "uint256",
              "name": "gives",
              "type": "uint256"
            },
            {
              "internalType": "uint256",
              "name": "gasreq",
              "type": "uint256"
            },
            {
              "internalType": "uint256",
              "name": "gasprice",
              "type": "uint256"
            },
            {
              "internalType": "uint256",
              "name": "pivotId",
              "type": "uint256"
            },
            {
              "internalType": "uint256",
              "name": "offerId",
              "type": "uint256"
            }
          ],
          "internalType": "struct IOfferLogic.MakerOrder",
          "name": "mko",
          "type": "tuple"
        }
      ],
      "name": "updateOffer",
      "outputs": [],
      "stateMutability": "payable",
      "type": "function"
    },
    {
      "inputs": [
        {
          "internalType": "uint256",
          "name": "amount",
          "type": "uint256"
        },
        {
          "internalType": "address payable",
          "name": "receiver",
          "type": "address"
        }
      ],
      "name": "withdrawFromMangrove",
      "outputs": [],
      "stateMutability": "nonpayable",
      "type": "function"
    },
    {
      "inputs": [
        {
          "internalType": "contract IEIP20",
          "name": "token",
          "type": "address"
        },
        {
          "internalType": "address",
          "name": "receiver",
          "type": "address"
        },
        {
          "internalType": "uint256",
          "name": "amount",
          "type": "uint256"
        }
      ],
      "name": "withdrawToken",
      "outputs": [
        {
          "internalType": "bool",
          "name": "success",
          "type": "bool"
        }
      ],
      "stateMutability": "nonpayable",
      "type": "function"
    },
    {
      "stateMutability": "payable",
      "type": "receive"
    }
  ],
  "transactionHash": "0x39209bfa2b0cef0fb11ee6a6f16d60d2d07c9928ebae39aa85ca2c27880815c9",
  "args": [
    "0x5343b5bA672Ae99d627A1C87866b8E53F47Db2E6",
    "0xF3e339d8a0B989114412fa157Cc846ebaf4BCbd8",
    "0x47897EE61498D02B18794601Ed3A71896A1Ff894"
  ],
  "numDeployments": 1,
  "solcInputHash": "9dba492192756d33393da8bd535b3df2",
  "bytecode": "0x60a06040523480156200001157600080fd5b506040516200876a3803806200876a83398101604081905262000034916200062c565b818360006002604051620000489062000605565b6001600160a01b03909316835260208301919091526040820152606001604051809103906000f08015801562000082573d6000803e3d6000fd5b5061c35082828282813380620000df5760405162461bcd60e51b815260206004820152601860248201527f616363657373436f6e74726f6c6c65642f307841646d696e000000000000000060448201526064015b60405180910390fd5b80620000f56200028360201b6200200d1760201c565b80546001600160a01b0319166001600160a01b03929092169190911790555062ffffff811681146200016a5760405162461bcd60e51b815260206004820152601b60248201527f4d616e67726f76654f666665722f676173726571546f6f4869676800000000006044820152606401620000d6565b6001600160a01b038216608052806200018e620002a7602090811b6200203117901c565b5550506001600160a01b038216620001de5760405162461bcd60e51b815260206004820152601260248201527126bab63a34aab9b2b917983c2937baba32b960711b6044820152606401620000d6565b620001e982620002cb565b505050505050620001ff6200047560201b60201c565b604051633825b60160e11b81526001600160a01b038381166004830152919091169063704b6c0290602401600060405180830381600087803b1580156200024557600080fd5b505af11580156200025a573d6000803e3d6000fd5b505050506001600160a01b03811633146200027a576200027a81620004e4565b50505062000680565b7f7d382ebca3e46505071795e192d28166a3d4bd0685585591bc6c5b8df6769fd290565b7fae7e31c3220e851db9f204a28b279dfe52b973600b0a456991089c220ae7222490565b620002d5620005df565b6001600160a01b0316336001600160a01b031614806200030857506080516001600160a01b0316336001600160a01b0316145b620003565760405162461bcd60e51b815260206004820152601860248201527f416363657373436f6e74726f6c6c65642f496e76616c696400000000000000006044820152606401620000d6565b6001600160a01b038116620003ae5760405162461bcd60e51b815260206004820152601c60248201527f6d67764f666665722f7365745f726f757465722f3078526f75746572000000006044820152606401620000d6565b80620003c4620002a760201b620020311760201c565b60010180546001600160a01b0319166001600160a01b039283161790556040516381bac14f60e01b8152306004820152908216906381bac14f90602401600060405180830381600087803b1580156200041c57600080fd5b505af115801562000431573d6000803e3d6000fd5b50506040516001600160a01b03841681527f6de4326a8b9054d72d9dbab97d27bc4edffadee7d966f5af9cc4eafdaf8e54559250602001905060405180910390a150565b6000806200048d620002a760201b620020311760201c565b600101546001600160a01b0316905080620004df5760405162461bcd60e51b815260206004820152601160248201527036b3bb27b33332b917983c2937baba32b960791b6044820152606401620000d6565b919050565b620004ee620005df565b6001600160a01b0316336001600160a01b031614620005505760405162461bcd60e51b815260206004820152601860248201527f416363657373436f6e74726f6c6c65642f496e76616c696400000000000000006044820152606401620000d6565b6001600160a01b038116620005a85760405162461bcd60e51b815260206004820152601860248201527f416363657373436f6e74726f6c6c65642f307841646d696e00000000000000006044820152606401620000d6565b80620005be6200028360201b6200200d1760201c565b80546001600160a01b0319166001600160a01b039290921691909117905550565b6000620005f66200028360201b6200200d1760201c565b546001600160a01b0316919050565b6149518062003e1983390190565b6001600160a01b03811681146200062957600080fd5b50565b6000806000606084860312156200064257600080fd5b83516200064f8162000613565b6020850151909350620006628162000613565b6040850151909250620006758162000613565b809150509250925092565b6080516136e362000736600039600081816102ce0152818161068a015281816107b90152818161084701528181610bd601528181610c8e01528181610e9901528181611002015281816110dc015281816111e0015281816115cb015281816118920152818161195401528181611b2201528181611ef801528181612128015281816121f40152818161227f015281816125800152818161282f01528181612ac901528181612bfa01526130bf01526136e36000f3fe6080604052600436106101795760003560e01c8063ca34f9ec116100cb578063eedc966a1161007f578063f887ea4011610059578063f887ea4014610481578063f92495e514610496578063fc488a38146104b657600080fd5b8063eedc966a146103f7578063f259cd2714610417578063f851a4401461043757600080fd5b8063db11851e116100b0578063db11851e1461038a578063dec8c86b146103aa578063e4c34f84146103d757600080fd5b8063ca34f9ec14610355578063d1baa1ef1461037557600080fd5b8063704b6c021161012d57806399fa5e2d1161010757806399fa5e2d146102bc5780639f2211cb14610315578063ad97db1b1461033557600080fd5b8063704b6c02146102305780637144df241461025057806384b627f91461027057600080fd5b80633d3d130d1161015e5780633d3d130d146101cf5780635486c95f146101ef5780636c49c32c1461021057600080fd5b806301e336671461018557806310aded60146101ba57600080fd5b3661018057005b600080fd5b34801561019157600080fd5b506101a56101a0366004613143565b6104d6565b60405190151581526020015b60405180910390f35b6101cd6101c8366004613184565b610621565b005b3480156101db57600080fd5b506101cd6101ea3660046131aa565b610688565b6102026101fd366004613184565b610822565b6040519081526020016101b1565b34801561021c57600080fd5b5061020261022b36600461320a565b610843565b34801561023c57600080fd5b506101cd61024b366004613227565b6109ac565b34801561025c57600080fd5b506101cd61026b366004613244565b610afb565b34801561027c57600080fd5b507fae7e31c3220e851db9f204a28b279dfe52b973600b0a456991089c220ae722255473ffffffffffffffffffffffffffffffffffffffff1615156101a5565b3480156102c857600080fd5b506102f07f000000000000000000000000000000000000000000000000000000000000000081565b60405173ffffffffffffffffffffffffffffffffffffffff90911681526020016101b1565b34801561032157600080fd5b506101cd610330366004613227565b610e5c565b34801561034157600080fd5b50610202610350366004613282565b610f80565b34801561036157600080fd5b506101cd610370366004613227565b6113d1565b34801561038157600080fd5b5061020261145f565b34801561039657600080fd5b506101cd6103a5366004613227565b611573565b3480156103b657600080fd5b506103ca6103c53660046132d5565b6117b9565b6040516101b1919061336a565b3480156103e357600080fd5b506102026103f23660046133c4565b611877565b34801561040357600080fd5b50610202610412366004613227565b611bc4565b34801561042357600080fd5b506101cd610432366004613227565b611c66565b34801561044357600080fd5b507f7d382ebca3e46505071795e192d28166a3d4bd0685585591bc6c5b8df6769fd25473ffffffffffffffffffffffffffffffffffffffff166102f0565b34801561048d57600080fd5b506102f0611d8b565b3480156104a257600080fd5b506102f06104b1366004613143565b611e18565b3480156104c257600080fd5b506101cd6104d1366004613415565b611ea0565b600073ffffffffffffffffffffffffffffffffffffffff83166105665760405162461bcd60e51b815260206004820152602260248201527f4d756c7469557365722f7769746864726177546f6b656e2f307852656365697660448201527f657200000000000000000000000000000000000000000000000000000000000060648201526084015b60405180910390fd5b61056e611d8b565b6040517f21754d9e00000000000000000000000000000000000000000000000000000000815273ffffffffffffffffffffffffffffffffffffffff868116600483015233602483015285811660448301526064820185905291909116906321754d9e906084016020604051808303816000875af11580156105f3573d6000803e3d6000fd5b505050506040513d601f19601f82011682018060405250810190610617919061342e565b90505b9392505050565b6106396106333683900383018361347a565b34612055565b6106855760405162461bcd60e51b815260206004820152601960248201527f4d756c7469557365722f7570646174654f666665724661696c00000000000000604482015260640161055d565b50565b7f000000000000000000000000000000000000000000000000000000000000000073ffffffffffffffffffffffffffffffffffffffff811615806106e157503373ffffffffffffffffffffffffffffffffffffffff8216145b61072d5760405162461bcd60e51b815260206004820152601860248201527f416363657373436f6e74726f6c6c65642f496e76616c69640000000000000000604482015260640161055d565b81602001357f6d67762f7472616465537563636573730000000000000000000000000000000003610767576107618361269d565b50505050565b6040830180359061077b9060208601613227565b73ffffffffffffffffffffffffffffffffffffffff1661079e6020860186613227565b6040805173ffffffffffffffffffffffffffffffffffffffff7f0000000000000000000000000000000000000000000000000000000000000000811682528735602083015292909216917f736a3993b9f8b1c5603896c76376792887f376b1fe7fc981e09a16530bf1e4e0910160405180910390a4610761838361278e565b505050565b600061083d6108363684900384018461347a565b3334612a6e565b92915050565b60007f000000000000000000000000000000000000000000000000000000000000000073ffffffffffffffffffffffffffffffffffffffff8116158061089e57503373ffffffffffffffffffffffffffffffffffffffff8216145b6108ea5760405162461bcd60e51b815260206004820152601860248201527f416363657373436f6e74726f6c6c65642f496e76616c69640000000000000000604482015260640161055d565b60006108fa8460a0013585612d30565b11156109485760405162461bcd60e51b815260206004820152601860248201527f6d67764f666665722f61626f72742f7075744661696c65640000000000000000604482015260640161055d565b6000610958846080013585612e0f565b11156109a65760405162461bcd60e51b815260206004820152601860248201527f6d67764f666665722f61626f72742f6765744661696c65640000000000000000604482015260640161055d565b50919050565b7f7d382ebca3e46505071795e192d28166a3d4bd0685585591bc6c5b8df6769fd25473ffffffffffffffffffffffffffffffffffffffff163314610a325760405162461bcd60e51b815260206004820152601860248201527f416363657373436f6e74726f6c6c65642f496e76616c69640000000000000000604482015260640161055d565b73ffffffffffffffffffffffffffffffffffffffff8116610a955760405162461bcd60e51b815260206004820152601860248201527f416363657373436f6e74726f6c6c65642f307841646d696e0000000000000000604482015260640161055d565b7f7d382ebca3e46505071795e192d28166a3d4bd0685585591bc6c5b8df6769fd280547fffffffffffffffffffffffff00000000000000000000000000000000000000001673ffffffffffffffffffffffffffffffffffffffff92909216919091179055565b7f7d382ebca3e46505071795e192d28166a3d4bd0685585591bc6c5b8df6769fd25473ffffffffffffffffffffffffffffffffffffffff163314610b815760405162461bcd60e51b815260206004820152601860248201527f416363657373436f6e74726f6c6c65642f496e76616c69640000000000000000604482015260640161055d565b7fffffffffffffffffffffffffffffffffffffffffffffffffffffffffffffffff8203610c5f576040517f70a082310000000000000000000000000000000000000000000000000000000081523060048201527f000000000000000000000000000000000000000000000000000000000000000073ffffffffffffffffffffffffffffffffffffffff16906370a0823190602401602060405180830381865afa158015610c32573d6000803e3d6000fd5b505050506040513d601f19601f82011682018060405250810190610c56919061353f565b91508115610e58575b6040517f2e1a7d4d000000000000000000000000000000000000000000000000000000008152600481018390527f000000000000000000000000000000000000000000000000000000000000000073ffffffffffffffffffffffffffffffffffffffff1690632e1a7d4d906024016020604051808303816000875af1158015610cec573d6000803e3d6000fd5b505050506040513d601f19601f82011682018060405250810190610d10919061342e565b610d825760405162461bcd60e51b815260206004820152602560248201527f6d67764f666665722f776974686472617746726f6d4d67762f7769746864726160448201527f774661696c000000000000000000000000000000000000000000000000000000606482015260840161055d565b60008173ffffffffffffffffffffffffffffffffffffffff168360405160006040518083038185875af1925050503d8060008114610ddc576040519150601f19603f3d011682016040523d82523d6000602084013e610de1565b606091505b505090508061081d5760405162461bcd60e51b815260206004820152602860248201527f6d67764f666665722f776974686472617746726f6d4d67762f70617961626c6560448201527f43616c6c4661696c000000000000000000000000000000000000000000000000606482015260840161055d565b5050565b6040517f095ea7b300000000000000000000000000000000000000000000000000000000815273ffffffffffffffffffffffffffffffffffffffff7f0000000000000000000000000000000000000000000000000000000000000000811660048301527fffffffffffffffffffffffffffffffffffffffffffffffffffffffffffffffff602483015282169063095ea7b3906044016020604051808303816000875af1158015610f10573d6000803e3d6000fd5b505050506040513d601f19601f82011682018060405250810190610f34919061342e565b6106855760405162461bcd60e51b815260206004820152601d60248201527f6d67764f666665722f617070726f76654d616e67726f76652f4661696c000000604482015260640161055d565b73ffffffffffffffffffffffffffffffffffffffff848116600090815260208181526040808320878516845282528083208684528252808320815180830190925254938416808252740100000000000000000000000000000000000000009094046bffffffffffffffffffffffff1691810191909152909133148061103a57507f000000000000000000000000000000000000000000000000000000000000000073ffffffffffffffffffffffffffffffffffffffff1633145b6110865760405162461bcd60e51b815260206004820152601f60248201527f4d756c74692f726574726163744f666665722f756e617574686f72697a656400604482015260640161055d565b60208101516bffffffffffffffffffffffff16156110c557826110aa5760006110b0565b80602001515b6bffffffffffffffffffffffff1691506111ab565b73ffffffffffffffffffffffffffffffffffffffff7f00000000000000000000000000000000000000000000000000000000000000001663ad97db1b87876040517fffffffff0000000000000000000000000000000000000000000000000000000060e085901b16815273ffffffffffffffffffffffffffffffffffffffff9283166004820152911660248201526044810187905285151560648201526084016020604051808303816000875af1158015611184573d6000803e3d6000fd5b505050506040513d601f19601f820116820180604052508101906111a8919061353f565b91505b81156113c8576040517f2e1a7d4d000000000000000000000000000000000000000000000000000000008152600481018390527f000000000000000000000000000000000000000000000000000000000000000073ffffffffffffffffffffffffffffffffffffffff1690632e1a7d4d906024016020604051808303816000875af115801561123e573d6000803e3d6000fd5b505050506040513d601f19601f82011682018060405250810190611262919061342e565b6112ae5760405162461bcd60e51b815260206004820152601660248201527f4d756c7469557365722f77697468647261774661696c00000000000000000000604482015260640161055d565b604080518082018252825173ffffffffffffffffffffffffffffffffffffffff9081168252600060208084018281528b841683528282528583208b8516845282528583208a8452909152848220935190516bffffffffffffffffffffffff16740100000000000000000000000000000000000000000292169190911790915590513390849060006040518083038185875af1925050503d8060008114611370576040519150601f19603f3d011682016040523d82523d6000602084013e611375565b606091505b50509050806113c65760405162461bcd60e51b815260206004820152601960248201527f4d756c7469557365722f7765695472616e736665724661696c00000000000000604482015260640161055d565b505b50949350505050565b6113d9612f13565b6040517fca34f9ec00000000000000000000000000000000000000000000000000000000815273ffffffffffffffffffffffffffffffffffffffff8381166004830152919091169063ca34f9ec90602401600060405180830381600087803b15801561144457600080fd5b505af1158015611458573d6000803e3d6000fd5b5050505050565b60006114a17fae7e31c3220e851db9f204a28b279dfe52b973600b0a456991089c220ae722255473ffffffffffffffffffffffffffffffffffffffff16151590565b1561154d576114ae611d8b565b73ffffffffffffffffffffffffffffffffffffffff16630417ffda6040518163ffffffff1660e01b8152600401602060405180830381865afa1580156114f8573d6000803e3d6000fd5b505050506040513d601f19601f8201168201806040525081019061151c919061353f565b7fae7e31c3220e851db9f204a28b279dfe52b973600b0a456991089c220ae72224546115489190613587565b905090565b507fae7e31c3220e851db9f204a28b279dfe52b973600b0a456991089c220ae722245490565b7f7d382ebca3e46505071795e192d28166a3d4bd0685585591bc6c5b8df6769fd25473ffffffffffffffffffffffffffffffffffffffff163314806115ed57503373ffffffffffffffffffffffffffffffffffffffff7f000000000000000000000000000000000000000000000000000000000000000016145b6116395760405162461bcd60e51b815260206004820152601860248201527f416363657373436f6e74726f6c6c65642f496e76616c69640000000000000000604482015260640161055d565b73ffffffffffffffffffffffffffffffffffffffff811661169c5760405162461bcd60e51b815260206004820152601c60248201527f6d67764f666665722f7365745f726f757465722f3078526f7574657200000000604482015260640161055d565b807fae7e31c3220e851db9f204a28b279dfe52b973600b0a456991089c220ae7222460010180547fffffffffffffffffffffffff00000000000000000000000000000000000000001673ffffffffffffffffffffffffffffffffffffffff9283161790556040517f81bac14f000000000000000000000000000000000000000000000000000000008152306004820152908216906381bac14f90602401600060405180830381600087803b15801561175357600080fd5b505af1158015611767573d6000803e3d6000fd5b505060405173ffffffffffffffffffffffffffffffffffffffff841681527f6de4326a8b9054d72d9dbab97d27bc4edffadee7d966f5af9cc4eafdaf8e5455925060200190505b60405180910390a150565b60608167ffffffffffffffff8111156117d4576117d461344b565b6040519080825280602002602001820160405280156117fd578160200160208202803683370190505b50905060005b828110156113c85761182e86868686858181106118225761182261359f565b90506020020135611e18565b8282815181106118405761184061359f565b73ffffffffffffffffffffffffffffffffffffffff909216602092830291909101909101528061186f816135ce565b915050611803565b6000808073ffffffffffffffffffffffffffffffffffffffff7f00000000000000000000000000000000000000000000000000000000000000001663cbf75c9a89896040517fffffffff0000000000000000000000000000000000000000000000000000000060e085901b16815273ffffffffffffffffffffffffffffffffffffffff9283166004820152911660248201526044016040805180830381865afa158015611928573d6000803e3d6000fd5b505050506040513d601f19601f8201168201806040525081019061194c9190613606565b9150915060007f000000000000000000000000000000000000000000000000000000000000000073ffffffffffffffffffffffffffffffffffffffff16635722647b6119958b90565b8a6040517fffffffff0000000000000000000000000000000000000000000000000000000060e085901b16815273ffffffffffffffffffffffffffffffffffffffff92831660048201529116602482015260448101889052606401602060405180830381865afa158015611a0d573d6000803e3d6000fd5b505050506040513d601f19601f82011682018060405250810190611a31919061353f565b9050600086604085901c61ffff161115611a54575061ffff604084901c16611a57565b50855b62ffffff8810611a6c57611a6961145f565b97505b600081611a8262ffffff606087901c168b613587565b611a8c919061362a565b611a9a90633b9aca0061362a565b9050600061ffff602085901c16611ac162ffffff603087901c811690604888901c16613587565b611acb919061362a565b611ad990633b9aca0061362a565b6040517f70a0823100000000000000000000000000000000000000000000000000000000815230600482015290915060009073ffffffffffffffffffffffffffffffffffffffff7f000000000000000000000000000000000000000000000000000000000000000016906370a0823190602401602060405180830381865afa158015611b69573d6000803e3d6000fd5b505050506040513d601f19601f82011682018060405250810190611b8d919061353f565b611b979083613587565b905082811015611bb057611bab8184613667565b611bb3565b60005b9d9c50505050505050505050505050565b6000611bce611d8b565b6040517f05684fde00000000000000000000000000000000000000000000000000000000815273ffffffffffffffffffffffffffffffffffffffff848116600483015233602483015291909116906305684fde90604401602060405180830381865afa158015611c42573d6000803e3d6000fd5b505050506040513d601f19601f8201168201806040525081019061083d919061353f565b8073ffffffffffffffffffffffffffffffffffffffff1663095ea7b3611c8a611d8b565b6040517fffffffff0000000000000000000000000000000000000000000000000000000060e084901b16815273ffffffffffffffffffffffffffffffffffffffff90911660048201527fffffffffffffffffffffffffffffffffffffffffffffffffffffffffffffffff60248201526044016020604051808303816000875af1158015611d1b573d6000803e3d6000fd5b505050506040513d601f19601f82011682018060405250810190611d3f919061342e565b6106855760405162461bcd60e51b815260206004820152601b60248201527f6d67764f666665722f617070726f7665526f757465722f4661696c0000000000604482015260640161055d565b7fae7e31c3220e851db9f204a28b279dfe52b973600b0a456991089c220ae722255460009073ffffffffffffffffffffffffffffffffffffffff1680611e135760405162461bcd60e51b815260206004820152601160248201527f6d67764f666665722f3078526f75746572000000000000000000000000000000604482015260640161055d565b919050565b73ffffffffffffffffffffffffffffffffffffffff80841660009081526020818152604080832086851684528252808320858452909152902054168061061a5760405162461bcd60e51b815260206004820152601560248201527f6d756c7469557365722f756e6b6f776e4f666665720000000000000000000000604482015260640161055d565b7f7d382ebca3e46505071795e192d28166a3d4bd0685585591bc6c5b8df6769fd25473ffffffffffffffffffffffffffffffffffffffff16331480611f1a57503373ffffffffffffffffffffffffffffffffffffffff7f000000000000000000000000000000000000000000000000000000000000000016145b611f665760405162461bcd60e51b815260206004820152601860248201527f416363657373436f6e74726f6c6c65642f496e76616c69640000000000000000604482015260640161055d565b808162ffffff1614611fba5760405162461bcd60e51b815260206004820152601860248201527f6d67764f666665722f6761737265712f6f766572666c6f770000000000000000604482015260640161055d565b807fae7e31c3220e851db9f204a28b279dfe52b973600b0a456991089c220ae72224556040518181527fafef3ad374c0b972e3c793be825735801fa05cc4c67157d98d9a111b4027988d906020016117ae565b7f7d382ebca3e46505071795e192d28166a3d4bd0685585591bc6c5b8df6769fd290565b7fae7e31c3220e851db9f204a28b279dfe52b973600b0a456991089c220ae7222490565b815173ffffffffffffffffffffffffffffffffffffffff9081166000908152602081815260408083208287015185168452825280832060e0870151845282528083208151808301835290549485168152740100000000000000000000000000000000000000009094046bffffffffffffffffffffffff16848301528051608081018252838152918201839052810182905260608101829052909190815173ffffffffffffffffffffffffffffffffffffffff1633148061214a57503373ffffffffffffffffffffffffffffffffffffffff7f000000000000000000000000000000000000000000000000000000000000000016145b6121965760405162461bcd60e51b815260206004820152601e60248201527f4d756c74692f7570646174654f666665722f756e617574686f72697a65640000604482015260640161055d565b8451602086015160e08701516040517f5722647b00000000000000000000000000000000000000000000000000000000815273ffffffffffffffffffffffffffffffffffffffff9384166004820152918316602483015260448201527f000000000000000000000000000000000000000000000000000000000000000090911690635722647b90606401602060405180830381865afa15801561223d573d6000803e3d6000fd5b505050506040513d601f19601f82011682018060405250810190612261919061353f565b6040820152845173ffffffffffffffffffffffffffffffffffffffff7f0000000000000000000000000000000000000000000000000000000000000000169063cbf75c9a9060208801516040517fffffffff0000000000000000000000000000000000000000000000000000000060e085901b16815273ffffffffffffffffffffffffffffffffffffffff9283166004820152911660248201526044016040805180830381865afa15801561231a573d6000803e3d6000fd5b505050506040513d601f19601f8201168201806040525081019061233e9190613606565b6020830152815260608101849052608085015162ffffff1061236457846080015161236c565b61236c61145f565b6080860152604081015160201c61ffff1660a0860181905260000361247b5760208201516bffffffffffffffffffffffff16156124515781602001516bffffffffffffffffffffffff16816060018181516123c79190613587565b905250604080518082018252835173ffffffffffffffffffffffffffffffffffffffff9081168252600060208084018281528a51841683528282528583208b83015185168452825285832060e08c01518452909152939020915192516bffffffffffffffffffffffff16740100000000000000000000000000000000000000000292169190911790555b6080850151606080830151602084015161247193921c62ffffff16612f1d565b60a08601526124fc565b83156124fc57602081015160601c62ffffff16604082015160481c62ffffff166124a59190613587565b60a08601516124b890633b9aca0061362a565b6124c2919061362a565b816060018181516124d39190613587565b905250608085015160608083015160208401516124f693921c62ffffff16612f1d565b60a08601525b805160401c61ffff168560a00151101561257e5760405162461bcd60e51b815260206004820152602860248201527f4d756c7469557365722f7570646174654f666665722f4e6f74456e6f7567685060448201527f726f766973696f6e000000000000000000000000000000000000000000000000606482015260840161055d565b7f000000000000000000000000000000000000000000000000000000000000000073ffffffffffffffffffffffffffffffffffffffff16636a4f7691856125c6886000015190565b602089015189604001518a606001518b608001518c60a001518d60c001518e60e001516040518a63ffffffff1660e01b815260040161265898979695949392919073ffffffffffffffffffffffffffffffffffffffff988916815296909716602087015260408601949094526060850192909252608084015260a083015260c082015260e08101919091526101000190565b6000604051808303818588803b15801561267157600080fd5b505af193505050508015612683575060015b6126925760009250505061083d565b506001949350505050565b6000806126a983612fc9565b905060006126b684612fee565b9050816000036126ca575060019392505050565b60408051610100810190915261278690806126e86020880188613227565b73ffffffffffffffffffffffffffffffffffffffff1681526020018660200160208101906127169190613227565b73ffffffffffffffffffffffffffffffffffffffff168152602081018490526040810185905260600160c087013560481c62ffffff16815260209081019060c0880135901c61ffff168152602001606087013560c01c63ffffffff16815260200186604001358152506000612055565b949350505050565b60008061279e6020850185613227565b905060006127b26040860160208701613227565b73ffffffffffffffffffffffffffffffffffffffff838116600090815260208181526040808320858516845282528083208a8201358452825280832081518083019092525480851682527401000000000000000000000000000000000000000090046bffffffffffffffffffffffff1681830152939450909182917f00000000000000000000000000000000000000000000000000000000000000009091169063cbf75c9a90612864908b018b613227565b61287460408c0160208d01613227565b6040517fffffffff0000000000000000000000000000000000000000000000000000000060e085901b16815273ffffffffffffffffffffffffffffffffffffffff9283166004820152911660248201526044016040805180830381865afa1580156128e3573d6000803e3d6000fd5b505050506040513d601f19601f820116820180604052508101906129079190613606565b9092509050600061292461ffff604085901c16633b9aca0061362a565b9050600060c08a013560301c62ffffff1660c08b013560481c62ffffff1661294c9190613587565b61296561ffff60c08d013560201c16633b9aca0061362a565b61296f919061362a565b9050600082606085901c62ffffff165a60c08e013560481c62ffffff166129969190613667565b6129a290610bb8613587565b6129ac9190613587565b6129b6919061362a565b90506000828210156129d1576129cc8284613667565b6129d4565b60005b604080518082018252985173ffffffffffffffffffffffffffffffffffffffff9081168a526bffffffffffffffffffffffff9283166020808c019182529c82166000908152808e528381209c831681529b8d52828c209f8301358c529e909b5290982096519b5190971674010000000000000000000000000000000000000000029a90971699909917909355506001979650505050505050565b825160208401516040517fcbf75c9a00000000000000000000000000000000000000000000000000000000815273ffffffffffffffffffffffffffffffffffffffff92831660048201529082166024820152600091829182917f0000000000000000000000000000000000000000000000000000000000000000169063cbf75c9a906044016040805180830381865afa158015612b0f573d6000803e3d6000fd5b505050506040513d601f19601f82011682018060405250810190612b339190613606565b9150915062ffffff8016866080015111612b51578560800151612b59565b612b5961145f565b60808701819052612b749085606084901c62ffffff16612f1d565b60a0870181905261ffff604084901c161115612bf85760405162461bcd60e51b815260206004820152602560248201527f4d756c7469557365722f6e65774f666665722f4e6f74456e6f75676850726f7660448201527f6973696f6e000000000000000000000000000000000000000000000000000000606482015260840161055d565b7f000000000000000000000000000000000000000000000000000000000000000073ffffffffffffffffffffffffffffffffffffffff166349f6d2dc85612c40896000015190565b60208a01518a604001518b606001518c608001518d60a001518e60c001516040518963ffffffff1660e01b8152600401612cc6979695949392919073ffffffffffffffffffffffffffffffffffffffff978816815295909616602086015260408501939093526060840191909152608083015260a082015260c081019190915260e00190565b60206040518083038185885af1158015612ce4573d6000803e3d6000fd5b50505050506040513d601f19601f82011682018060405250810190612d09919061353f565b60e0870181905286516020880151612d219288613010565b50505060e08301519392505050565b600080612d406020840184613227565b90506000612d546040850160208601613227565b90506000612d6783838760400135611e18565b9050612d71611d8b565b6040517f26e8eda200000000000000000000000000000000000000000000000000000000815273ffffffffffffffffffffffffffffffffffffffff848116600483015283811660248301526044820189905291909116906326e8eda290606401600060405180830381600087803b158015612deb57600080fd5b505af1158015612dff573d6000803e3d6000fd5b5060009998505050505050505050565b600080612e1f6020840184613227565b90506000612e336040850160208601613227565b90506000612e4683838760400135611e18565b90506000612e52611d8b565b6040517f333dbb0d00000000000000000000000000000000000000000000000000000000815273ffffffffffffffffffffffffffffffffffffffff86811660048301528481166024830152604482018a905260016064830152919091169063333dbb0d906084016020604051808303816000875af1158015612ed8573d6000803e3d6000fd5b505050506040513d601f19601f82011682018060405250810190612efc919061353f565b9050612f088188613667565b979650505050505050565b6000611548611d8b565b600080612f2a8584613587565b612f3890633b9aca0061362a565b905080841015612fb05760405162461bcd60e51b815260206004820152602c60248201527f4d756c7469557365722f6465726976655f67617370726963652f4e6f74456e6f60448201527f75676850726f766973696f6e0000000000000000000000000000000000000000606482015260840161055d565b808481612fbf57612fbf61367e565b0495945050505050565b600060808201356bffffffffffffffffffffffff6060840135165b61083d9190613667565b600060a0820135606080840135901c6bffffffffffffffffffffffff16612fe4565b60408051808201825273ffffffffffffffffffffffffffffffffffffffff8084168252600060208084018281528984168084528383528684208a86168086529084528785208a865290935292869020945190516bffffffffffffffffffffffff1674010000000000000000000000000000000000000000029316929092179092559151849291907f460a431c86ecaea27134277388c72021356689d9eb62c3b25a5e4a97da7a8a1490613108907f000000000000000000000000000000000000000000000000000000000000000090879073ffffffffffffffffffffffffffffffffffffffff92831681529116602082015260400190565b60405180910390a450505050565b73ffffffffffffffffffffffffffffffffffffffff8116811461068557600080fd5b8035611e1381613116565b60008060006060848603121561315857600080fd5b833561316381613116565b9250602084013561317381613116565b929592945050506040919091013590565b600061010082840312156109a657600080fd5b600061012082840312156109a657600080fd5b6000808284036101608112156131bf57600080fd5b6131c98585613197565b925060407ffffffffffffffffffffffffffffffffffffffffffffffffffffffffffffffee0820112156131fb57600080fd5b50610120830190509250929050565b6000610120828403121561321d57600080fd5b61061a8383613197565b60006020828403121561323957600080fd5b813561061a81613116565b6000806040838503121561325757600080fd5b82359150602083013561326981613116565b809150509250929050565b801515811461068557600080fd5b6000806000806080858703121561329857600080fd5b84356132a381613116565b935060208501356132b381613116565b92506040850135915060608501356132ca81613274565b939692955090935050565b600080600080606085870312156132eb57600080fd5b84356132f681613116565b9350602085013561330681613116565b9250604085013567ffffffffffffffff8082111561332357600080fd5b818701915087601f83011261333757600080fd5b81358181111561334657600080fd5b8860208260051b850101111561335b57600080fd5b95989497505060200194505050565b6020808252825182820181905260009190848201906040850190845b818110156133b857835173ffffffffffffffffffffffffffffffffffffffff1683529284019291840191600101613386565b50909695505050505050565b600080600080600060a086880312156133dc57600080fd5b85356133e781613116565b945060208601356133f781613116565b94979496505050506040830135926060810135926080909101359150565b60006020828403121561342757600080fd5b5035919050565b60006020828403121561344057600080fd5b815161061a81613274565b7f4e487b7100000000000000000000000000000000000000000000000000000000600052604160045260246000fd5b600061010080838503121561348e57600080fd5b6040519081019067ffffffffffffffff821181831017156134d8577f4e487b7100000000000000000000000000000000000000000000000000000000600052604160045260246000fd5b816040526134e584613138565b81526134f360208501613138565b602082015260408401356040820152606084013560608201526080840135608082015260a084013560a082015260c084013560c082015260e084013560e0820152809250505092915050565b60006020828403121561355157600080fd5b5051919050565b7f4e487b7100000000000000000000000000000000000000000000000000000000600052601160045260246000fd5b6000821982111561359a5761359a613558565b500190565b7f4e487b7100000000000000000000000000000000000000000000000000000000600052603260045260246000fd5b60007fffffffffffffffffffffffffffffffffffffffffffffffffffffffffffffffff82036135ff576135ff613558565b5060010190565b6000806040838503121561361957600080fd5b505080516020909101519092909150565b6000817fffffffffffffffffffffffffffffffffffffffffffffffffffffffffffffffff048311821515161561366257613662613558565b500290565b60008282101561367957613679613558565b500390565b7f4e487b7100000000000000000000000000000000000000000000000000000000600052601260045260246000fdfea26469706673582212203b6f7b491f9020d711eb3905252ededbd676cd5d66fc782a0844c94c0abffea664736f6c634300080e00336101206040523480156200001257600080fd5b5060405162004951380380620049518339810160408190526200003591620003a3565b828282828282620aae603380620000935760405162461bcd60e51b815260206004820152601860248201527f616363657373436f6e74726f6c6c65642f307841646d696e000000000000000060448201526064015b60405180910390fd5b80620000a96200035460201b6200163a1760201c565b80546001600160a01b0319166001600160a01b03929092169190911790555062ffffff811681146200011e5760405162461bcd60e51b815260206004820152601e60248201527f4162737472616374526f757465722f6f76657268656164546f6f48696768000060448201526064016200008a565b60015561ffff82166101005260e08190526040516321f8a72160e01b81526b50524943455f4f5241434c4560a01b60048201526000906001600160a01b038516906321f8a72190602401602060405180830381865afa15801562000186573d6000803e3d6000fd5b505050506040513d601f19601f82011682018060405250810190620001ac9190620003db565b90506000846001600160a01b031663026b1d5f6040518163ffffffff1660e01b8152600401602060405180830381865afa158015620001ef573d6000803e3d6000fd5b505050506040513d601f19601f82011682018060405250810190620002159190620003db565b90506001600160a01b0382166200026f5760405162461bcd60e51b815260206004820152601860248201527f416176654d6f64756c652f307850726963654f7261636c65000000000000000060448201526064016200008a565b6001600160a01b038116620002bb5760405162461bcd60e51b815260206004820152601160248201527010585d99535bd91d5b194bcc1e141bdbdb607a1b60448201526064016200008a565b6001600160a01b0380821660a052821660c05260405181908390620002e09062000378565b6001600160a01b03928316815291166020820152604001604051809103906000f08015801562000314573d6000803e3d6000fd5b506001600160a01b031660805250506001805462055730975090955060009450620003459350869250905062000400565b90915550620004279350505050565b7f7d382ebca3e46505071795e192d28166a3d4bd0685585591bc6c5b8df6769fd290565b6117d4806200317d83390190565b80516001600160a01b03811681146200039e57600080fd5b919050565b600080600060608486031215620003b957600080fd5b620003c48462000386565b925060208401519150604084015190509250925092565b600060208284031215620003ee57600080fd5b620003f98262000386565b9392505050565b600082198211156200042257634e487b7160e01b600052601160045260246000fd5b500190565b60805160a05160c05160e05161010051612c8c620004f16000396000818161029d01528181611bec01528181611da301528181611ff8015261215e0152600081816103a701528181610a9701528181611add01528181611d7a01528181611fd20152612135015260006102fa01526000818161036d015281816104c301528181610b0201528181610bbd01528181611b0b01528181611c1301528181611cb201528181611dd20152611f9d015260008181610ded015281816120af01526122280152612c8c6000f3fe608060405234801561001057600080fd5b50600436106101985760003560e01c806352da17a4116100e35780638faf55311161008c578063e5cd487f11610066578063e5cd487f14610402578063f850a81c14610415578063f851a4401461042857600080fd5b80638faf5531146103c9578063ca34f9ec146103dc578063cf5e7bd3146103ef57600080fd5b80637535d246116100bd5780637535d2461461036857806381bac14f1461038f57806383008bd9146103a257600080fd5b806352da17a41461032f5780635a3e961814610342578063704b6c021461035557600080fd5b806326e8eda211610145578063362aecb11161011f578063362aecb1146102d257806338013f02146102f5578063492fffc71461031c57600080fd5b806326e8eda214610270578063333dbb0d146102855780633583849a1461029857600080fd5b80632026ffa3116101765780632026ffa31461020457806321754d9e146102255780632197c31e1461024857600080fd5b80630417ffda1461019d57806305684fde146101b95780630efc8fd2146101cc575b600080fd5b6101a660015481565b6040519081526020015b60405180910390f35b6101a66101c73660046122f1565b610465565b6101df6101da36600461232a565b61047b565b60405173ffffffffffffffffffffffffffffffffffffffff90911681526020016101b0565b610217610212366004612393565b61053c565b6040516101b09291906123e8565b610238610233366004612479565b61062e565b60405190151581526020016101b0565b61025b6102563660046124d8565b6106be565b604080519283526020830191909152016101b0565b61028361027e366004612523565b6108d5565b005b6101a6610293366004612564565b61095f565b6102bf7f000000000000000000000000000000000000000000000000000000000000000081565b60405161ffff90911681526020016101b0565b6102386102e036600461232a565b60006020819052908152604090205460ff1681565b6101df7f000000000000000000000000000000000000000000000000000000000000000081565b6101df61032a36600461232a565b610a93565b61028361033d3660046125b7565b610c35565b6102836103503660046125ff565b610d7f565b61028361036336600461232a565b610e8c565b6101df7f000000000000000000000000000000000000000000000000000000000000000081565b61028361039d36600461232a565b61100f565b6101a67f000000000000000000000000000000000000000000000000000000000000000081565b6102836103d73660046125b7565b611118565b6102836103ea36600461232a565b611261565b6102836103fd36600461232a565b61128e565b6102836104103660046125b7565b611394565b610283610423366004612671565b6114b0565b7f7d382ebca3e46505071795e192d28166a3d4bd0685585591bc6c5b8df6769fd25473ffffffffffffffffffffffffffffffffffffffff166101df565b6000610473836000846106be565b509392505050565b6040517f35ea6a7500000000000000000000000000000000000000000000000000000000815273ffffffffffffffffffffffffffffffffffffffff82811660048301526000917f0000000000000000000000000000000000000000000000000000000000000000909116906335ea6a75906024016101e060405180830381865afa15801561050d573d6000803e3d6000fd5b505050506040513d601f19601f8201168201806040525081019061053191906127fe565b610100015192915050565b60608061057d7f7d382ebca3e46505071795e192d28166a3d4bd0685585591bc6c5b8df6769fd25473ffffffffffffffffffffffffffffffffffffffff1690565b73ffffffffffffffffffffffffffffffffffffffff163373ffffffffffffffffffffffffffffffffffffffff1614610616576040517f08c379a000000000000000000000000000000000000000000000000000000000815260206004820152601860248201527f416363657373436f6e74726f6c6c65642f496e76616c6964000000000000000060448201526064015b60405180910390fd5b61062185858561165e565b915091505b935093915050565b3360009081526020819052604081205460ff166106a7576040517f08c379a000000000000000000000000000000000000000000000000000000000815260206004820152601360248201527f526f757465722f756e617574686f72697a656400000000000000000000000000604482015260640161060d565b6106b38585858561170d565b90505b949350505050565b60405173ffffffffffffffffffffffffffffffffffffffff848116602483015283151560448301528216606482015260009081908190819030907f5a3e961800000000000000000000000000000000000000000000000000000000907ffd8c04510000000000000000000000000000000000000000000000000000000090608401604080517fffffffffffffffffffffffffffffffffffffffffffffffffffffffffffffffe08184030181529181526020820180517bffffffffffffffffffffffffffffffffffffffffffffffffffffffff167fffffffff000000000000000000000000000000000000000000000000000000009094169390931790925290516107cb919060240161294d565b604080517fffffffffffffffffffffffffffffffffffffffffffffffffffffffffffffffe08184030181529181526020820180517bffffffffffffffffffffffffffffffffffffffffffffffffffffffff167fffffffff00000000000000000000000000000000000000000000000000000000909416939093179092529051610854919061299e565b600060405180830381855afa9150503d806000811461088f576040519150601f19603f3d011682016040523d82523d6000602084013e610894565b606091505b5091509150816108ac576108a78161182d565b6108cb565b808060200190518101906108c091906129ba565b935093505050610626565b5050935093915050565b3360009081526020819052604090205460ff1661094e576040517f08c379a000000000000000000000000000000000000000000000000000000000815260206004820152601360248201527f526f757465722f756e617574686f72697a656400000000000000000000000000604482015260640161060d565b61095a838333846118a0565b505050565b3360009081526020819052604081205460ff166109d8576040517f08c379a000000000000000000000000000000000000000000000000000000000815260206004820152601360248201527f526f757465722f756e617574686f72697a656400000000000000000000000000604482015260640161060d565b6040517f70a0823100000000000000000000000000000000000000000000000000000000815233600482015260009073ffffffffffffffffffffffffffffffffffffffff8716906370a0823190602401602060405180830381865afa158015610a45573d6000803e3d6000fd5b505050506040513d601f19601f82011682018060405250810190610a6991906129de565b9050838110610a7c5760009150506106b6565b610a89868633878761191d565b9695505050505050565b60007f0000000000000000000000000000000000000000000000000000000000000000600114610b78576040517f35ea6a7500000000000000000000000000000000000000000000000000000000815273ffffffffffffffffffffffffffffffffffffffff83811660048301527f000000000000000000000000000000000000000000000000000000000000000016906335ea6a75906024016101e060405180830381865afa158015610b4a573d6000803e3d6000fd5b505050506040513d601f19601f82011682018060405250810190610b6e91906127fe565b6101400151610c2f565b6040517f35ea6a7500000000000000000000000000000000000000000000000000000000815273ffffffffffffffffffffffffffffffffffffffff83811660048301527f000000000000000000000000000000000000000000000000000000000000000016906335ea6a75906024016101e060405180830381865afa158015610c05573d6000803e3d6000fd5b505050506040513d601f19601f82011682018060405250810190610c2991906127fe565b61012001515b92915050565b7f7d382ebca3e46505071795e192d28166a3d4bd0685585591bc6c5b8df6769fd25473ffffffffffffffffffffffffffffffffffffffff163314610cd5576040517f08c379a000000000000000000000000000000000000000000000000000000000815260206004820152601860248201527f416363657373436f6e74726f6c6c65642f496e76616c69640000000000000000604482015260640161060d565b610ce18482858561192c565b610d6d576040517f08c379a000000000000000000000000000000000000000000000000000000000815260206004820152602160248201527f41617665526f757465722f72657061792f7472616e7366657246726f6d46616960448201527f6c00000000000000000000000000000000000000000000000000000000000000606482015260840161060d565b610d78848385611a89565b5050505050565b333014610de8576040517f08c379a000000000000000000000000000000000000000000000000000000000815260206004820152601760248201527f416176654d6f64756c652f696e7465726e616c4f6e6c79000000000000000000604482015260640161060d565b6000807f000000000000000000000000000000000000000000000000000000000000000073ffffffffffffffffffffffffffffffffffffffff168484604051610e329291906129f7565b600060405180830381855af49150503d8060008114610e6d576040519150601f19603f3d011682016040523d82523d6000602084013e610e72565b606091505b509150915081610e8557610e858161182d565b3d60208201f35b7f7d382ebca3e46505071795e192d28166a3d4bd0685585591bc6c5b8df6769fd25473ffffffffffffffffffffffffffffffffffffffff163314610f2c576040517f08c379a000000000000000000000000000000000000000000000000000000000815260206004820152601860248201527f416363657373436f6e74726f6c6c65642f496e76616c69640000000000000000604482015260640161060d565b73ffffffffffffffffffffffffffffffffffffffff8116610fa9576040517f08c379a000000000000000000000000000000000000000000000000000000000815260206004820152601860248201527f416363657373436f6e74726f6c6c65642f307841646d696e0000000000000000604482015260640161060d565b7f7d382ebca3e46505071795e192d28166a3d4bd0685585591bc6c5b8df6769fd280547fffffffffffffffffffffffff00000000000000000000000000000000000000001673ffffffffffffffffffffffffffffffffffffffff92909216919091179055565b7f7d382ebca3e46505071795e192d28166a3d4bd0685585591bc6c5b8df6769fd25473ffffffffffffffffffffffffffffffffffffffff1633148061106357503360009081526020819052604090205460ff165b6110c9576040517f08c379a000000000000000000000000000000000000000000000000000000000815260206004820152601360248201527f526f757465722f756e617574686f72697a656400000000000000000000000000604482015260640161060d565b73ffffffffffffffffffffffffffffffffffffffff16600090815260208190526040902080547fffffffffffffffffffffffffffffffffffffffffffffffffffffffffffffff00166001179055565b7f7d382ebca3e46505071795e192d28166a3d4bd0685585591bc6c5b8df6769fd25473ffffffffffffffffffffffffffffffffffffffff1633146111b8576040517f08c379a000000000000000000000000000000000000000000000000000000000815260206004820152601860248201527f416363657373436f6e74726f6c6c65642f496e76616c69640000000000000000604482015260640161060d565b6111c48482858561192c565b611250576040517f08c379a000000000000000000000000000000000000000000000000000000000815260206004820152602260248201527f41617665526f757465722f737570706c792f7472616e7366657246726f6d466160448201527f696c000000000000000000000000000000000000000000000000000000000000606482015260840161060d565b61125b848385611b88565b50505050565b61128b817fffffffffffffffffffffffffffffffffffffffffffffffffffffffffffffffff611c75565b50565b7f7d382ebca3e46505071795e192d28166a3d4bd0685585591bc6c5b8df6769fd25473ffffffffffffffffffffffffffffffffffffffff163314806112e257503360009081526020819052604090205460ff165b611348576040517f08c379a000000000000000000000000000000000000000000000000000000000815260206004820152601360248201527f526f757465722f756e617574686f72697a656400000000000000000000000000604482015260640161060d565b73ffffffffffffffffffffffffffffffffffffffff16600090815260208190526040902080547fffffffffffffffffffffffffffffffffffffffffffffffffffffffffffffff00169055565b7f7d382ebca3e46505071795e192d28166a3d4bd0685585591bc6c5b8df6769fd25473ffffffffffffffffffffffffffffffffffffffff163314611434576040517f08c379a000000000000000000000000000000000000000000000000000000000815260206004820152601860248201527f416363657373436f6e74726f6c6c65642f496e76616c69640000000000000000604482015260640161060d565b61143f848385611d2e565b61144a848284611e01565b61125b576040517f08c379a000000000000000000000000000000000000000000000000000000000815260206004820152601e60248201527f41617665526f757465722f626f72726f772f7472616e736665724661696c0000604482015260640161060d565b3360009081526020819052604090205460ff16611529576040517f08c379a000000000000000000000000000000000000000000000000000000000815260206004820152601360248201527f526f757465722f756e617574686f72697a656400000000000000000000000000604482015260640161060d565b60005b8281101561125b57600084848381811061154857611548612a07565b905060200201602081019061155d919061232a565b6040517f70a0823100000000000000000000000000000000000000000000000000000000815233600482015273ffffffffffffffffffffffffffffffffffffffff91909116906370a0823190602401602060405180830381865afa1580156115c9573d6000803e3d6000fd5b505050506040513d601f19601f820116820180604052508101906115ed91906129de565b905080156116275761162785858481811061160a5761160a612a07565b905060200201602081019061161f919061232a565b8433846118a0565b508061163281612a36565b91505061152c565b7f7d382ebca3e46505071795e192d28166a3d4bd0685585591bc6c5b8df6769fd290565b6060808473ffffffffffffffffffffffffffffffffffffffff1663bf90f63a85856040518363ffffffff1660e01b815260040161169c929190612a95565b6000604051808303816000875af11580156116bb573d6000803e3d6000fd5b505050506040513d6000823e601f3d9081017fffffffffffffffffffffffffffffffffffffffffffffffffffffffffffffffe01682016040526117019190810190612b74565b90969095509350505050565b600061172361171b8661047b565b85308561192c565b6117af576040517f08c379a000000000000000000000000000000000000000000000000000000000815260206004820152602260248201527f41617665526f757465722f737570706c792f7472616e7366657246726f6d466160448201527f696c000000000000000000000000000000000000000000000000000000000000606482015260840161060d565b816117bb868486611f41565b14611822576040517f08c379a000000000000000000000000000000000000000000000000000000000815260206004820152601d60248201527f41617665526f757465722f7769746864726177546f6b656e2f4661696c000000604482015260640161060d565b506001949350505050565b8051600003611898576040517f08c379a000000000000000000000000000000000000000000000000000000000815260206004820181905260248201527f416176654d6f64756c6553746f726167652f7265766572744e6f526561736f6e604482015260640161060d565b805160208201fd5b6118ac8483308461192c565b611912576040517f08c379a000000000000000000000000000000000000000000000000000000000815260206004820152601c60248201527f41617665526f757465722f707573682f7472616e736665724661696c00000000604482015260640161060d565b61125b848483611fcc565b6000610a89868685858861212f565b600081158061196657508273ffffffffffffffffffffffffffffffffffffffff168473ffffffffffffffffffffffffffffffffffffffff16145b15611973575060016106b6565b6040805173ffffffffffffffffffffffffffffffffffffffff86811660248301528581166044830152606480830186905283518084039091018152608490920183526020820180517bffffffffffffffffffffffffffffffffffffffffffffffffffffffff167f23b872dd000000000000000000000000000000000000000000000000000000001790529151600092839290891691611a12919061299e565b6000604051808303816000865af19150503d8060008114611a4f576040519150601f19603f3d011682016040523d82523d6000602084013e611a54565b606091505b5091509150818015611a7e575080511580611a7e575080806020019051810190611a7e9190612c39565b979650505050505050565b60008215611b7e576040517f573ade8100000000000000000000000000000000000000000000000000000000815273ffffffffffffffffffffffffffffffffffffffff8581166004830152602482018590527f0000000000000000000000000000000000000000000000000000000000000000604483015283811660648301527f0000000000000000000000000000000000000000000000000000000000000000169063573ade81906084015b6020604051808303816000875af1158015611b55573d6000803e3d6000fd5b505050506040513d601f19601f82011682018060405250810190611b7991906129de565b6106b6565b6000949350505050565b81600003611b9557505050565b6040517f617ba03700000000000000000000000000000000000000000000000000000000815273ffffffffffffffffffffffffffffffffffffffff848116600483015260248201849052828116604483015261ffff7f00000000000000000000000000000000000000000000000000000000000000001660648301527f0000000000000000000000000000000000000000000000000000000000000000169063617ba037906084015b600060405180830381600087803b158015611c5857600080fd5b505af1158015611c6c573d6000803e3d6000fd5b50505050505050565b6040517f095ea7b300000000000000000000000000000000000000000000000000000000815273ffffffffffffffffffffffffffffffffffffffff7f0000000000000000000000000000000000000000000000000000000000000000811660048301526024820183905283169063095ea7b3906044016020604051808303816000875af1158015611d0a573d6000803e3d6000fd5b505050506040513d601f19601f8201168201806040525081019061095a9190612c39565b6040517fa415bcad00000000000000000000000000000000000000000000000000000000815273ffffffffffffffffffffffffffffffffffffffff8481166004830152602482018490527f0000000000000000000000000000000000000000000000000000000000000000604483015261ffff7f000000000000000000000000000000000000000000000000000000000000000016606483015282811660848301527f0000000000000000000000000000000000000000000000000000000000000000169063a415bcad9060a401611c3e565b6000811580611e25575073ffffffffffffffffffffffffffffffffffffffff831630145b15611e3257506001611f3a565b6040805173ffffffffffffffffffffffffffffffffffffffff8581166024830152604480830186905283518084039091018152606490920183526020820180517bffffffffffffffffffffffffffffffffffffffffffffffffffffffff167fa9059cbb000000000000000000000000000000000000000000000000000000001790529151600092839290881691611ec9919061299e565b6000604051808303816000865af19150503d8060008114611f06576040519150601f19603f3d011682016040523d82523d6000602084013e611f0b565b606091505b5091509150818015611f35575080511580611f35575080806020019051810190611f359190612c39565b925050505b9392505050565b60008215611b7e576040517f69328dec00000000000000000000000000000000000000000000000000000000815273ffffffffffffffffffffffffffffffffffffffff85811660048301526024820185905283811660448301527f000000000000000000000000000000000000000000000000000000000000000016906369328dec90606401611b36565b604080517f000000000000000000000000000000000000000000000000000000000000000060248201527f000000000000000000000000000000000000000000000000000000000000000061ffff16604482015273ffffffffffffffffffffffffffffffffffffffff8581166064830152848116608483015260a48083018590528351808403909101815260c490920183526020820180517bffffffffffffffffffffffffffffffffffffffffffffffffffffffff167f038efb8a00000000000000000000000000000000000000000000000000000000179052915160009283927f0000000000000000000000000000000000000000000000000000000000000000909116916120dc919061299e565b600060405180830381855af49150503d8060008114612117576040519150601f19603f3d011682016040523d82523d6000602084013e61211c565b606091505b509150915081610d7857610d788161182d565b604080517f0000000000000000000000000000000000000000000000000000000000000000602482015261ffff7f000000000000000000000000000000000000000000000000000000000000000016604482015273ffffffffffffffffffffffffffffffffffffffff8781166064830152868116608483015260a4820186905284151560c483015283811660e4808401919091528351808403909101815261010490920183526020820180517bffffffffffffffffffffffffffffffffffffffffffffffffffffffff167f9105b83a000000000000000000000000000000000000000000000000000000001790529151600092839283927f000000000000000000000000000000000000000000000000000000000000000090921691612255919061299e565b600060405180830381855af49150503d8060008114612290576040519150601f19603f3d011682016040523d82523d6000602084013e612295565b606091505b509150915081156122bb57808060200190518101906122b491906129de565b92506122c4565b6122c48161182d565b505095945050505050565b73ffffffffffffffffffffffffffffffffffffffff8116811461128b57600080fd5b6000806040838503121561230457600080fd5b823561230f816122cf565b9150602083013561231f816122cf565b809150509250929050565b60006020828403121561233c57600080fd5b8135611f3a816122cf565b60008083601f84011261235957600080fd5b50813567ffffffffffffffff81111561237157600080fd5b6020830191508360208260051b850101111561238c57600080fd5b9250929050565b6000806000604084860312156123a857600080fd5b83356123b3816122cf565b9250602084013567ffffffffffffffff8111156123cf57600080fd5b6123db86828701612347565b9497909650939450505050565b604080825283519082018190526000906020906060840190828701845b8281101561243757815173ffffffffffffffffffffffffffffffffffffffff1684529284019290840190600101612405565b5050508381038285015284518082528583019183019060005b8181101561246c57835183529284019291840191600101612450565b5090979650505050505050565b6000806000806080858703121561248f57600080fd5b843561249a816122cf565b935060208501356124aa816122cf565b925060408501356124ba816122cf565b9396929550929360600135925050565b801515811461128b57600080fd5b6000806000606084860312156124ed57600080fd5b83356124f8816122cf565b92506020840135612508816124ca565b91506040840135612518816122cf565b809150509250925092565b60008060006060848603121561253857600080fd5b8335612543816122cf565b92506020840135612553816122cf565b929592945050506040919091013590565b6000806000806080858703121561257a57600080fd5b8435612585816122cf565b93506020850135612595816122cf565b92506040850135915060608501356125ac816124ca565b939692955090935050565b600080600080608085870312156125cd57600080fd5b84356125d8816122cf565b935060208501356125e8816122cf565b92506040850135915060608501356125ac816122cf565b6000806020838503121561261257600080fd5b823567ffffffffffffffff8082111561262a57600080fd5b818501915085601f83011261263e57600080fd5b81358181111561264d57600080fd5b86602082850101111561265f57600080fd5b60209290920196919550909350505050565b60008060006040848603121561268657600080fd5b833567ffffffffffffffff81111561269d57600080fd5b6126a986828701612347565b9094509250506020840135612518816122cf565b7f4e487b7100000000000000000000000000000000000000000000000000000000600052604160045260246000fd5b6040516101e0810167ffffffffffffffff81118282101715612710576127106126bd565b60405290565b604051601f82017fffffffffffffffffffffffffffffffffffffffffffffffffffffffffffffffe016810167ffffffffffffffff8111828210171561275d5761275d6126bd565b604052919050565b60006020828403121561277757600080fd5b6040516020810181811067ffffffffffffffff8211171561279a5761279a6126bd565b6040529151825250919050565b80516fffffffffffffffffffffffffffffffff811681146127c757600080fd5b919050565b805164ffffffffff811681146127c757600080fd5b805161ffff811681146127c757600080fd5b80516127c7816122cf565b60006101e0828403121561281157600080fd5b6128196126ec565b6128238484612765565b8152612831602084016127a7565b6020820152612842604084016127a7565b6040820152612853606084016127a7565b6060820152612864608084016127a7565b608082015261287560a084016127a7565b60a082015261288660c084016127cc565b60c082015261289760e084016127e1565b60e08201526101006128aa8185016127f3565b908201526101206128bc8482016127f3565b908201526101406128ce8482016127f3565b908201526101606128e08482016127f3565b908201526101806128f28482016127a7565b908201526101a06129048482016127a7565b908201526101c06129168482016127a7565b908201529392505050565b60005b8381101561293c578181015183820152602001612924565b8381111561125b5750506000910152565b602081526000825180602084015261296c816040850160208701612921565b601f017fffffffffffffffffffffffffffffffffffffffffffffffffffffffffffffffe0169190910160400192915050565b600082516129b0818460208701612921565b9190910192915050565b600080604083850312156129cd57600080fd5b505080516020909101519092909150565b6000602082840312156129f057600080fd5b5051919050565b8183823760009101908152919050565b7f4e487b7100000000000000000000000000000000000000000000000000000000600052603260045260246000fd5b60007fffffffffffffffffffffffffffffffffffffffffffffffffffffffffffffffff8203612a8e577f4e487b7100000000000000000000000000000000000000000000000000000000600052601160045260246000fd5b5060010190565b60208082528181018390526000908460408401835b86811015612ae5578235612abd816122cf565b73ffffffffffffffffffffffffffffffffffffffff1682529183019190830190600101612aaa565b509695505050505050565b600067ffffffffffffffff821115612b0a57612b0a6126bd565b5060051b60200190565b600082601f830112612b2557600080fd5b81516020612b3a612b3583612af0565b612716565b82815260059290921b84018101918181019086841115612b5957600080fd5b8286015b84811015612ae55780518352918301918301612b5d565b60008060408385031215612b8757600080fd5b825167ffffffffffffffff80821115612b9f57600080fd5b818501915085601f830112612bb357600080fd5b81516020612bc3612b3583612af0565b82815260059290921b84018101918181019089841115612be257600080fd5b948201945b83861015612c09578551612bfa816122cf565b82529482019490820190612be7565b91880151919650909350505080821115612c2257600080fd5b50612c2f85828601612b14565b9150509250929050565b600060208284031215612c4b57600080fd5b8151611f3a816124ca56fea2646970667358221220d789590688fd6663de5aa3756f4b35fd1a8a78e3f506a7a1b74bc031a01fe06164736f6c634300080e003360c060405234801561001057600080fd5b50604051620017d4380380620017d483398101604081905261003191610060565b6001600160a01b039182166080521660a05261009a565b6001600160a01b038116811461005d57600080fd5b50565b6000806040838503121561007357600080fd5b825161007e81610048565b602084015190925061008f81610048565b809150509250929050565b60805160a0516116d7620000fd6000396000818160860152610c1901526000818160d701528181610192015281816103a8015281816104ad0152818161058a015281816106f0015281816107fc015281816109c60152610a9a01526116d76000f3fe608060405234801561001057600080fd5b50600436106100675760003560e01c80637535d246116100505780637535d246146100d25780639105b83a146100f9578063fd8c04511461011a57600080fd5b8063038efb8a1461006c57806338013f0214610081575b600080fd5b61007f61007a366004611088565b610142565b005b6100a87f000000000000000000000000000000000000000000000000000000000000000081565b60405173ffffffffffffffffffffffffffffffffffffffff90911681526020015b60405180910390f35b6100a87f000000000000000000000000000000000000000000000000000000000000000081565b61010c6101073660046110e8565b610514565b6040519081526020016100c9565b61012d610128366004611163565b61090b565b604080519283526020830191909152016100c9565b801561050d576040517f35ea6a7500000000000000000000000000000000000000000000000000000000815273ffffffffffffffffffffffffffffffffffffffff848116600483015260009182917f000000000000000000000000000000000000000000000000000000000000000016906335ea6a75906024016101e060405180830381865afa1580156101da573d6000803e3d6000fd5b505050506040513d601f19601f820116820180604052508101906101fe91906112bf565b9050866001036102a4576101208101516040517f70a0823100000000000000000000000000000000000000000000000000000000815230600482015273ffffffffffffffffffffffffffffffffffffffff909116906370a0823190602401602060405180830381865afa158015610279573d6000803e3d6000fd5b505050506040513d601f19601f8201168201806040525081019061029d91906113e2565b915061033c565b6101408101516040517f70a0823100000000000000000000000000000000000000000000000000000000815230600482015273ffffffffffffffffffffffffffffffffffffffff909116906370a0823190602401602060405180830381865afa158015610315573d6000803e3d6000fd5b505050506040513d601f19601f8201168201806040525081019061033991906113e2565b91505b82600083900361034d57508261044f565b6040517f573ade8100000000000000000000000000000000000000000000000000000000815273ffffffffffffffffffffffffffffffffffffffff878116600483015260248201869052604482018a905286811660648301527f0000000000000000000000000000000000000000000000000000000000000000169063573ade81906084016020604051808303816000875af192505050801561042b575060408051601f3d9081017fffffffffffffffffffffffffffffffffffffffffffffffffffffffffffffffe0168201909252610428918101906113e2565b60015b1561044f5761043a818361142a565b91508160000361044d575050505061050d565b505b6040517f617ba03700000000000000000000000000000000000000000000000000000000815273ffffffffffffffffffffffffffffffffffffffff878116600483015260248201839052868116604483015261ffff891660648301527f0000000000000000000000000000000000000000000000000000000000000000169063617ba03790608401600060405180830381600087803b1580156104f157600080fd5b505af1158015610505573d6000803e3d6000fd5b505050505050505b5050505050565b60008060006105258860018961090b565b9150915084156105415785821061053c578561053e565b815b91505b6040517f35ea6a7500000000000000000000000000000000000000000000000000000000815273ffffffffffffffffffffffffffffffffffffffff8981166004830152610605917f0000000000000000000000000000000000000000000000000000000000000000909116906335ea6a75906024016101e060405180830381865afa1580156105d4573d6000803e3d6000fd5b505050506040513d601f19601f820116820180604052508101906105f891906112bf565b6101000151883085610dc4565b610696576040517f08c379a000000000000000000000000000000000000000000000000000000000815260206004820152602c60248201527f416176654d6f64756c652f72656465656d5468656e426f72726f772f61546b6e60448201527f5472616e736665724661696c000000000000000000000000000000000000000060648201526084015b60405180910390fd5b811561075f576040517f69328dec00000000000000000000000000000000000000000000000000000000815273ffffffffffffffffffffffffffffffffffffffff89811660048301526024820184905285811660448301527f000000000000000000000000000000000000000000000000000000000000000016906369328dec906064016020604051808303816000875af1158015610739573d6000803e3d6000fd5b505050506040513d601f19601f8201168201806040525081019061075d91906113e2565b505b858210158061076c575080155b1561077957509050610900565b610783828761142a565b95508581116107925780610794565b855b6040517fa415bcad00000000000000000000000000000000000000000000000000000000815273ffffffffffffffffffffffffffffffffffffffff8a8116600483015260248201839052604482018d905261ffff8c16606483015289811660848301529192507f00000000000000000000000000000000000000000000000000000000000000009091169063a415bcad9060a401600060405180830381600087803b15801561084257600080fd5b505af1158015610856573d6000803e3d6000fd5b50505050610865888583610f23565b6108f1576040517f08c379a000000000000000000000000000000000000000000000000000000000815260206004820152602b60248201527f416176654d6f64756c652f72656465656d5468656e426f72726f772f546b6e5460448201527f72616e736665724661696c000000000000000000000000000000000000000000606482015260840161068d565b6108fb8183611441565b925050505b979650505050505050565b6000806109396040518060800160405280600081526020016000815260200160008152602001600081525090565b61098160405180610100016040528060008152602001600081526020016000815260200160008152602001600081526020016000815260200160008152602001600081525090565b6040517fbf92857c00000000000000000000000000000000000000000000000000000000815273ffffffffffffffffffffffffffffffffffffffff86811660048301527f0000000000000000000000000000000000000000000000000000000000000000169063bf92857c9060240160c060405180830381865afa158015610a0d573d6000803e3d6000fd5b505050506040513d601f19601f82011682018060405250810190610a319190611459565b60c0870152608086015260a08501526040808501919091526020840191909152908252517f35ea6a7500000000000000000000000000000000000000000000000000000000815273ffffffffffffffffffffffffffffffffffffffff88811660048301526000917f0000000000000000000000000000000000000000000000000000000000000000909116906335ea6a75906024016101e060405180830381865afa158015610ae4573d6000803e3d6000fd5b505050506040513d601f19601f82011682018060405250810190610b0891906112bf565b80515160ff603082901c1660408681019190915261ffff601083901c81166020808901919091529216865261010083015181517f70a0823100000000000000000000000000000000000000000000000000000000815273ffffffffffffffffffffffffffffffffffffffff8b8116600483015292519495509116926370a08231926024808401939192918290030181865afa158015610bab573d6000803e3d6000fd5b505050506040513d601f19601f82011682018060405250810190610bcf91906113e2565b60e08301526040517fb3596f0700000000000000000000000000000000000000000000000000000000815273ffffffffffffffffffffffffffffffffffffffff89811660048301527f0000000000000000000000000000000000000000000000000000000000000000169063b3596f0790602401602060405180830381865afa158015610c60573d6000803e3d6000fd5b505050506040513d601f19601f82011682018060405250810190610c8491906113e2565b60608401526020820151825160a084015161271091610ca2916114a3565b610cac91906114e0565b610cb6919061142a565b6060808401919091528301516020840151600091610cd3916114a3565b6040850151610ce390600a61163d565b8460600151610cf291906114a3565b610cfe906127106114a3565b610d0891906114e0565b90508260e001518110610d1f578260e00151610d21565b805b905087610d3757945060009350610dbc92505050565b835160009061271090610d4a90846114a3565b610d5491906114e0565b9050600085606001518660400151600a610d6e919061163d565b8660400151610d7d91906114a3565b610d8791906114e0565b905080821115610da35782600097509750505050505050610dbc565b6000610daf838361142a565b9398509296505050505050505b935093915050565b6000811580610dfe57508273ffffffffffffffffffffffffffffffffffffffff168473ffffffffffffffffffffffffffffffffffffffff16145b15610e0b57506001610f1b565b6040805173ffffffffffffffffffffffffffffffffffffffff86811660248301528581166044830152606480830186905283518084039091018152608490920183526020820180517bffffffffffffffffffffffffffffffffffffffffffffffffffffffff167f23b872dd000000000000000000000000000000000000000000000000000000001790529151600092839290891691610eaa9190611649565b6000604051808303816000865af19150503d8060008114610ee7576040519150601f19603f3d011682016040523d82523d6000602084013e610eec565b606091505b5091509150818015610f16575080511580610f16575080806020019051810190610f169190611684565b925050505b949350505050565b6000811580610f47575073ffffffffffffffffffffffffffffffffffffffff831630145b15610f545750600161105c565b6040805173ffffffffffffffffffffffffffffffffffffffff8581166024830152604480830186905283518084039091018152606490920183526020820180517bffffffffffffffffffffffffffffffffffffffffffffffffffffffff167fa9059cbb000000000000000000000000000000000000000000000000000000001790529151600092839290881691610feb9190611649565b6000604051808303816000865af19150503d8060008114611028576040519150601f19603f3d011682016040523d82523d6000602084013e61102d565b606091505b50915091508180156110575750805115806110575750808060200190518101906110579190611684565b925050505b9392505050565b73ffffffffffffffffffffffffffffffffffffffff8116811461108557600080fd5b50565b600080600080600060a086880312156110a057600080fd5b853594506020860135935060408601356110b981611063565b925060608601356110c981611063565b949793965091946080013592915050565b801515811461108557600080fd5b600080600080600080600060e0888a03121561110357600080fd5b8735965060208801359550604088013561111c81611063565b9450606088013561112c81611063565b93506080880135925060a0880135611143816110da565b915060c088013561115381611063565b8091505092959891949750929550565b60008060006060848603121561117857600080fd5b833561118381611063565b92506020840135611193816110da565b915060408401356111a381611063565b809150509250925092565b6040516101e0810167ffffffffffffffff811182821017156111f9577f4e487b7100000000000000000000000000000000000000000000000000000000600052604160045260246000fd5b60405290565b60006020828403121561121157600080fd5b6040516020810181811067ffffffffffffffff8211171561125b577f4e487b7100000000000000000000000000000000000000000000000000000000600052604160045260246000fd5b6040529151825250919050565b80516fffffffffffffffffffffffffffffffff8116811461128857600080fd5b919050565b805164ffffffffff8116811461128857600080fd5b805161ffff8116811461128857600080fd5b805161128881611063565b60006101e082840312156112d257600080fd5b6112da6111ae565b6112e484846111ff565b81526112f260208401611268565b602082015261130360408401611268565b604082015261131460608401611268565b606082015261132560808401611268565b608082015261133660a08401611268565b60a082015261134760c0840161128d565b60c082015261135860e084016112a2565b60e082015261010061136b8185016112b4565b9082015261012061137d8482016112b4565b9082015261014061138f8482016112b4565b908201526101606113a18482016112b4565b908201526101806113b3848201611268565b908201526101a06113c5848201611268565b908201526101c06113d7848201611268565b908201529392505050565b6000602082840312156113f457600080fd5b5051919050565b7f4e487b7100000000000000000000000000000000000000000000000000000000600052601160045260246000fd5b60008282101561143c5761143c6113fb565b500390565b60008219821115611454576114546113fb565b500190565b60008060008060008060c0878903121561147257600080fd5b865195506020870151945060408701519350606087015192506080870151915060a087015190509295509295509295565b6000817fffffffffffffffffffffffffffffffffffffffffffffffffffffffffffffffff04831182151516156114db576114db6113fb565b500290565b600082611516577f4e487b7100000000000000000000000000000000000000000000000000000000600052601260045260246000fd5b500490565b600181815b8085111561157457817fffffffffffffffffffffffffffffffffffffffffffffffffffffffffffffffff0482111561155a5761155a6113fb565b8085161561156757918102915b93841c9390800290611520565b509250929050565b60008261158b57506001611637565b8161159857506000611637565b81600181146115ae57600281146115b8576115d4565b6001915050611637565b60ff8411156115c9576115c96113fb565b50506001821b611637565b5060208310610133831016604e8410600b84101617156115f7575081810a611637565b611601838361151b565b807fffffffffffffffffffffffffffffffffffffffffffffffffffffffffffffffff04821115611633576116336113fb565b0290505b92915050565b600061105c838361157c565b6000825160005b8181101561166a5760208186018101518583015201611650565b81811115611679576000828501525b509190910192915050565b60006020828403121561169657600080fd5b815161105c816110da56fea26469706673582212205ff7c45411e16043a6070a8e893f36e45c3f7adc5e0911eafd2fc1d0deec0ba164736f6c634300080e0033",
  "devdoc": {
    "kind": "dev",
    "methods": {
      "offerOwners(address,address,uint256[])": {
        "params": {
          "offerIds": "an array of offer ids from the `outbound_tkn, inbound_tkn` offer list"
        },
        "returns": {
          "_offerOwners": "an array of the same length where the address at position i is the owner of `offerIds[i]`"
        }
      },
      "retractOffer(address,address,uint256,bool)": {
        "params": {
          "deprovision": "is true if offer owner wishes to have the offer's provision pushed to its reserve"
        }
      },
      "tokenBalance(address)": {
        "returns": {
          "_0": "the  `token` amount that `msg.sender` has in the contract's reserve"
        }
      },
      "updateOffer((address,address,uint256,uint256,uint256,uint256,uint256,uint256))": {
        "details": "mko.gasreq == max_int indicates one wishes to use ofr_gasreq (default value)mko.gasprice is overriden by the value computed by taking into account : * value transfered on current tx * if offer was deprovisioned after a fail, amount of wei (still on this contract balance on Mangrove) that should be counted as offer owner's * if offer is still live, its current locked provision"
      },
      "withdrawFromMangrove(uint256,address)": {
        "details": "for multi user strats, the contract provision account on Mangrove is pooled amongst offer owners so admin should only call this function to recover WEIs (e.g. that were erroneously transferred to Mangrove using `MGV.fund()`) This contract's balance on Mangrove may contain deprovisioned WEIs after an offer has failed (complement between provision and the bounty that was sent to taker) those free WEIs can be retrieved by offer owners by calling `retractOffer` with the `deprovsion` flag. Not by calling this function which is admin only."
      }
    },
    "version": 1
  },
  "userdoc": {
    "events": {
      "LogIncident(address,address,address,uint256,bytes32)": {
        "notice": "Events "
      },
      "NewOwnedOffer(address,address,address,uint256,address)": {
        "notice": "Multi offer specific Events "
      }
    },
    "kind": "user",
    "methods": {
      "approveMangrove(address)": {
        "notice": "`this` contract needs to approve Mangrove to let it perform outbound token transfer at the end of the `makerExecute` function NB if anyone can call this function someone could reset it to 0 for griefing"
      },
      "set_router(address)": {
        "notice": "NB Router might need further approval to work as intended"
      },
      "updateOffer((address,address,uint256,uint256,uint256,uint256,uint256,uint256))": {
        "notice": "update offer with parameters given in `mko`."
      },
      "withdrawFromMangrove(uint256,address)": {
        "notice": "withdraws ETH from the provision account on Mangrove and sends collected WEIs to `receiver`"
      }
    },
    "version": 1
  },
  "storageLayout": {
    "storage": [
      {
        "astId": 13762,
        "contract": "contracts/Strategies/OfferLogics/MultiUsers/Deployable/OfferProxy.sol:OfferProxy",
        "label": "offerData",
        "offset": 0,
        "slot": "0",
        "type": "t_mapping(t_contract(IEIP20)20638,t_mapping(t_contract(IEIP20)20638,t_mapping(t_uint256,t_struct(OfferData)13750_storage)))"
      }
    ],
    "types": {
      "t_address": {
        "encoding": "inplace",
        "label": "address",
        "numberOfBytes": "20"
      },
      "t_contract(IEIP20)20638": {
        "encoding": "inplace",
        "label": "contract IEIP20",
        "numberOfBytes": "20"
      },
      "t_mapping(t_contract(IEIP20)20638,t_mapping(t_contract(IEIP20)20638,t_mapping(t_uint256,t_struct(OfferData)13750_storage)))": {
        "encoding": "mapping",
        "key": "t_contract(IEIP20)20638",
        "label": "mapping(contract IEIP20 => mapping(contract IEIP20 => mapping(uint256 => struct MultiUser.OfferData)))",
        "numberOfBytes": "32",
        "value": "t_mapping(t_contract(IEIP20)20638,t_mapping(t_uint256,t_struct(OfferData)13750_storage))"
      },
      "t_mapping(t_contract(IEIP20)20638,t_mapping(t_uint256,t_struct(OfferData)13750_storage))": {
        "encoding": "mapping",
        "key": "t_contract(IEIP20)20638",
        "label": "mapping(contract IEIP20 => mapping(uint256 => struct MultiUser.OfferData))",
        "numberOfBytes": "32",
        "value": "t_mapping(t_uint256,t_struct(OfferData)13750_storage)"
      },
      "t_mapping(t_uint256,t_struct(OfferData)13750_storage)": {
        "encoding": "mapping",
        "key": "t_uint256",
        "label": "mapping(uint256 => struct MultiUser.OfferData)",
        "numberOfBytes": "32",
        "value": "t_struct(OfferData)13750_storage"
      },
      "t_struct(OfferData)13750_storage": {
        "encoding": "inplace",
        "label": "struct MultiUser.OfferData",
        "members": [
          {
            "astId": 13747,
            "contract": "contracts/Strategies/OfferLogics/MultiUsers/Deployable/OfferProxy.sol:OfferProxy",
            "label": "owner",
            "offset": 0,
            "slot": "0",
            "type": "t_address"
          },
          {
            "astId": 13749,
            "contract": "contracts/Strategies/OfferLogics/MultiUsers/Deployable/OfferProxy.sol:OfferProxy",
            "label": "wei_balance",
            "offset": 20,
            "slot": "0",
            "type": "t_uint96"
          }
        ],
        "numberOfBytes": "32"
      },
      "t_uint256": {
        "encoding": "inplace",
        "label": "uint256",
        "numberOfBytes": "32"
      },
      "t_uint96": {
        "encoding": "inplace",
        "label": "uint96",
        "numberOfBytes": "12"
      }
    }
  }
}