{
  "address": "0xC1638d698B2225e53F5fbF98E1a9b1c3da370C76",
  "abi": [
    {
      "inputs": [
        {
          "internalType": "address",
          "name": "_addressesProvider",
          "type": "address"
        },
        {
          "internalType": "address",
          "name": "_MgvReader",
          "type": "address"
        },
        {
          "internalType": "address payable",
          "name": "_MGV",
          "type": "address"
        }
      ],
      "stateMutability": "nonpayable",
      "type": "constructor"
    },
    {
      "anonymous": false,
      "inputs": [
        {
          "indexed": true,
          "internalType": "address",
          "name": "outbound_tkn",
          "type": "address"
        },
        {
          "indexed": true,
          "internalType": "address",
          "name": "inbound_tkn",
          "type": "address"
        },
        {
          "indexed": true,
          "internalType": "uint256",
          "name": "offerId",
          "type": "uint256"
        },
        {
          "indexed": false,
          "internalType": "uint256",
          "name": "amount",
          "type": "uint256"
        },
        {
          "indexed": false,
          "internalType": "string",
          "name": "errorCode",
          "type": "string"
        }
      ],
      "name": "ErrorOnMint",
      "type": "event"
    },
    {
      "anonymous": false,
      "inputs": [
        {
          "indexed": true,
          "internalType": "address",
          "name": "outbound_tkn",
          "type": "address"
        },
        {
          "indexed": true,
          "internalType": "address",
          "name": "inbound_tkn",
          "type": "address"
        },
        {
          "indexed": true,
          "internalType": "uint256",
          "name": "offerId",
          "type": "uint256"
        },
        {
          "indexed": false,
          "internalType": "uint256",
          "name": "amount",
          "type": "uint256"
        },
        {
          "indexed": false,
          "internalType": "string",
          "name": "errorCode",
          "type": "string"
        }
      ],
      "name": "ErrorOnRedeem",
      "type": "event"
    },
    {
      "anonymous": false,
      "inputs": [
        {
          "indexed": true,
          "internalType": "address",
          "name": "outbound_tkn",
          "type": "address"
        },
        {
          "indexed": true,
          "internalType": "address",
          "name": "inbound_tkn",
          "type": "address"
        },
        {
          "indexed": false,
          "internalType": "uint256",
          "name": "offerId",
          "type": "uint256"
        },
        {
          "indexed": false,
          "internalType": "uint256",
          "name": "missingAmount",
          "type": "uint256"
        }
      ],
      "name": "GetFail",
      "type": "event"
    },
    {
      "anonymous": false,
      "inputs": [
        {
          "indexed": true,
          "internalType": "address",
          "name": "outbound_tkn",
          "type": "address"
        },
        {
          "indexed": true,
          "internalType": "address",
          "name": "inbound_tkn",
          "type": "address"
        },
        {
          "indexed": true,
          "internalType": "uint256",
          "name": "offerId",
          "type": "uint256"
        },
        {
          "indexed": false,
          "internalType": "address",
          "name": "owner",
          "type": "address"
        }
      ],
      "name": "NewOffer",
      "type": "event"
    },
    {
      "anonymous": false,
      "inputs": [
        {
          "indexed": true,
          "internalType": "address",
          "name": "outbound_tkn",
          "type": "address"
        },
        {
          "indexed": true,
          "internalType": "address",
          "name": "inbound_tkn",
          "type": "address"
        },
        {
          "indexed": false,
          "internalType": "uint256",
          "name": "offerId",
          "type": "uint256"
        },
        {
          "indexed": false,
          "internalType": "string",
          "name": "message",
          "type": "string"
        }
      ],
      "name": "PosthookFail",
      "type": "event"
    },
    {
      "anonymous": false,
      "inputs": [
        {
          "indexed": true,
          "internalType": "address",
          "name": "outbound_tkn",
          "type": "address"
        },
        {
          "indexed": true,
          "internalType": "address",
          "name": "inbound_tkn",
          "type": "address"
        },
        {
          "indexed": false,
          "internalType": "uint256",
          "name": "offerId",
          "type": "uint256"
        },
        {
          "indexed": false,
          "internalType": "uint256",
          "name": "missingAmount",
          "type": "uint256"
        }
      ],
      "name": "PutFail",
      "type": "event"
    },
    {
      "anonymous": false,
      "inputs": [
        {
          "indexed": true,
          "internalType": "address",
          "name": "outbound_tkn",
          "type": "address"
        },
        {
          "indexed": true,
          "internalType": "address",
          "name": "inbound_tkn",
          "type": "address"
        },
        {
          "indexed": false,
          "internalType": "uint256",
          "name": "offerId",
          "type": "uint256"
        }
      ],
      "name": "Reneged",
      "type": "event"
    },
    {
      "inputs": [],
      "name": "OFR_GASREQ",
      "outputs": [
        {
          "internalType": "uint256",
          "name": "",
          "type": "uint256"
        }
      ],
      "stateMutability": "view",
      "type": "function"
    },
    {
      "inputs": [],
      "name": "admin",
      "outputs": [
        {
          "internalType": "address",
          "name": "",
          "type": "address"
        }
      ],
      "stateMutability": "view",
      "type": "function"
    },
    {
      "inputs": [
        {
          "internalType": "address",
          "name": "token",
          "type": "address"
        },
        {
          "internalType": "uint256",
          "name": "amount",
          "type": "uint256"
        }
      ],
      "name": "approveLender",
      "outputs": [],
      "stateMutability": "nonpayable",
      "type": "function"
    },
    {
      "inputs": [
        {
          "internalType": "address",
          "name": "outbound_tkn",
          "type": "address"
        },
        {
          "internalType": "uint256",
          "name": "amount",
          "type": "uint256"
        }
      ],
      "name": "approveMangrove",
      "outputs": [],
      "stateMutability": "nonpayable",
      "type": "function"
    },
    {
      "inputs": [],
      "name": "fundMangrove",
      "outputs": [],
      "stateMutability": "payable",
      "type": "function"
    },
    {
      "inputs": [
        {
          "internalType": "address",
          "name": "outbound_tkn",
          "type": "address"
        },
        {
          "internalType": "address",
          "name": "inbound_tkn",
          "type": "address"
        },
        {
          "internalType": "uint256",
          "name": "gasreq",
          "type": "uint256"
        },
        {
          "internalType": "uint256",
          "name": "gasprice",
          "type": "uint256"
        },
        {
          "internalType": "uint256",
          "name": "offerId",
          "type": "uint256"
        }
      ],
      "name": "getMissingProvision",
      "outputs": [
        {
          "internalType": "uint256",
          "name": "",
          "type": "uint256"
        }
      ],
      "stateMutability": "view",
      "type": "function"
    },
    {
      "inputs": [],
      "name": "lendingPool",
      "outputs": [
        {
          "internalType": "contract ILendingPool",
          "name": "",
          "type": "address"
        }
      ],
      "stateMutability": "view",
      "type": "function"
    },
    {
      "inputs": [
        {
          "components": [
            {
              "internalType": "address",
              "name": "outbound_tkn",
              "type": "address"
            },
            {
              "internalType": "address",
              "name": "inbound_tkn",
              "type": "address"
            },
            {
              "internalType": "uint256",
              "name": "offerId",
              "type": "uint256"
            },
            {
              "internalType": "bytes32",
              "name": "offer",
              "type": "bytes32"
            },
            {
              "internalType": "uint256",
              "name": "wants",
              "type": "uint256"
            },
            {
              "internalType": "uint256",
              "name": "gives",
              "type": "uint256"
            },
            {
              "internalType": "bytes32",
              "name": "offerDetail",
              "type": "bytes32"
            },
            {
              "internalType": "bytes32",
              "name": "global",
              "type": "bytes32"
            },
            {
              "internalType": "bytes32",
              "name": "local",
              "type": "bytes32"
            }
          ],
          "internalType": "struct MgvLib.SingleOrder",
          "name": "order",
          "type": "tuple"
        }
      ],
      "name": "makerExecute",
      "outputs": [
        {
          "internalType": "bytes32",
          "name": "ret",
          "type": "bytes32"
        }
      ],
      "stateMutability": "nonpayable",
      "type": "function"
    },
    {
      "inputs": [
        {
          "components": [
            {
              "internalType": "address",
              "name": "outbound_tkn",
              "type": "address"
            },
            {
              "internalType": "address",
              "name": "inbound_tkn",
              "type": "address"
            },
            {
              "internalType": "uint256",
              "name": "offerId",
              "type": "uint256"
            },
            {
              "internalType": "bytes32",
              "name": "offer",
              "type": "bytes32"
            },
            {
              "internalType": "uint256",
              "name": "wants",
              "type": "uint256"
            },
            {
              "internalType": "uint256",
              "name": "gives",
              "type": "uint256"
            },
            {
              "internalType": "bytes32",
              "name": "offerDetail",
              "type": "bytes32"
            },
            {
              "internalType": "bytes32",
              "name": "global",
              "type": "bytes32"
            },
            {
              "internalType": "bytes32",
              "name": "local",
              "type": "bytes32"
            }
          ],
          "internalType": "struct MgvLib.SingleOrder",
          "name": "order",
          "type": "tuple"
        },
        {
          "components": [
            {
              "internalType": "bytes32",
              "name": "makerData",
              "type": "bytes32"
            },
            {
              "internalType": "bytes32",
              "name": "mgvData",
              "type": "bytes32"
            }
          ],
          "internalType": "struct MgvLib.OrderResult",
          "name": "result",
          "type": "tuple"
        }
      ],
      "name": "makerPosthook",
      "outputs": [],
      "stateMutability": "nonpayable",
      "type": "function"
    },
    {
      "inputs": [
        {
          "internalType": "address",
          "name": "asset",
          "type": "address"
        },
        {
          "internalType": "bool",
          "name": "tryBorrow",
          "type": "bool"
        },
        {
          "internalType": "address",
          "name": "onBehalf",
          "type": "address"
        }
      ],
      "name": "maxGettableUnderlying",
      "outputs": [
        {
          "internalType": "uint256",
          "name": "",
          "type": "uint256"
        },
        {
          "internalType": "uint256",
          "name": "",
          "type": "uint256"
        }
      ],
      "stateMutability": "view",
      "type": "function"
    },
    {
      "inputs": [
        {
          "internalType": "address",
          "name": "",
          "type": "address"
        }
      ],
      "name": "mgvBalanceOf",
      "outputs": [
        {
          "internalType": "uint256",
          "name": "",
          "type": "uint256"
        }
      ],
      "stateMutability": "view",
      "type": "function"
    },
    {
      "inputs": [
        {
          "internalType": "address",
          "name": "outbound_tkn",
          "type": "address"
        },
        {
          "internalType": "address",
          "name": "inbound_tkn",
          "type": "address"
        },
        {
          "internalType": "uint256",
          "name": "wants",
          "type": "uint256"
        },
        {
          "internalType": "uint256",
          "name": "gives",
          "type": "uint256"
        },
        {
          "internalType": "uint256",
          "name": "gasreq",
          "type": "uint256"
        },
        {
          "internalType": "uint256",
          "name": "gasprice",
          "type": "uint256"
        },
        {
          "internalType": "uint256",
          "name": "pivotId",
          "type": "uint256"
        }
      ],
      "name": "newOffer",
      "outputs": [
        {
          "internalType": "uint256",
          "name": "offerId",
          "type": "uint256"
        }
      ],
      "stateMutability": "payable",
      "type": "function"
    },
    {
      "inputs": [
        {
          "internalType": "address",
          "name": "outbound_tkn",
          "type": "address"
        },
        {
          "internalType": "address",
          "name": "inbound_tkn",
          "type": "address"
        },
        {
          "internalType": "uint256",
          "name": "fromId",
          "type": "uint256"
        },
        {
          "internalType": "uint256",
          "name": "maxOffers",
          "type": "uint256"
        }
      ],
      "name": "offerOwners",
      "outputs": [
        {
          "internalType": "uint256",
          "name": "nextId",
          "type": "uint256"
        },
        {
          "internalType": "uint256[]",
          "name": "offerIds",
          "type": "uint256[]"
        },
        {
          "internalType": "address[]",
          "name": "owners",
          "type": "address[]"
        }
      ],
      "stateMutability": "view",
      "type": "function"
    },
    {
      "inputs": [
        {
          "internalType": "contract IERC20",
          "name": "asset",
          "type": "address"
        }
      ],
      "name": "overlying",
      "outputs": [
        {
          "internalType": "contract IERC20",
          "name": "aToken",
          "type": "address"
        }
      ],
      "stateMutability": "nonpayable",
      "type": "function"
    },
    {
      "inputs": [
        {
          "internalType": "address",
          "name": "outbound_tkn",
          "type": "address"
        },
        {
          "internalType": "address",
          "name": "inbound_tkn",
          "type": "address"
        },
        {
          "internalType": "uint256",
          "name": "offerId",
          "type": "uint256"
        }
      ],
      "name": "ownerOf",
      "outputs": [
        {
          "internalType": "address",
          "name": "owner",
          "type": "address"
        }
      ],
      "stateMutability": "view",
      "type": "function"
    },
    {
      "inputs": [],
      "name": "priceOracle",
      "outputs": [
        {
          "internalType": "contract IPriceOracleGetter",
          "name": "",
          "type": "address"
        }
      ],
      "stateMutability": "view",
      "type": "function"
    },
    {
      "inputs": [
        {
          "internalType": "address",
          "name": "token",
          "type": "address"
        },
        {
          "internalType": "uint256",
          "name": "amount",
          "type": "uint256"
        }
      ],
      "name": "redeemToken",
      "outputs": [
        {
          "internalType": "bool",
          "name": "success",
          "type": "bool"
        }
      ],
      "stateMutability": "nonpayable",
      "type": "function"
    },
    {
      "inputs": [
        {
          "internalType": "address",
          "name": "outbound_tkn",
          "type": "address"
        },
        {
          "internalType": "address",
          "name": "inbound_tkn",
          "type": "address"
        },
        {
          "internalType": "uint256",
          "name": "offerId",
          "type": "uint256"
        },
        {
          "internalType": "bool",
          "name": "deprovision",
          "type": "bool"
        }
      ],
      "name": "retractOffer",
      "outputs": [
        {
          "internalType": "uint256",
          "name": "received",
          "type": "uint256"
        }
      ],
      "stateMutability": "nonpayable",
      "type": "function"
    },
    {
      "inputs": [
        {
          "internalType": "address",
          "name": "_admin",
          "type": "address"
        }
      ],
      "name": "setAdmin",
      "outputs": [],
      "stateMutability": "nonpayable",
      "type": "function"
    },
    {
      "inputs": [
        {
          "internalType": "uint256",
          "name": "gasreq",
          "type": "uint256"
        }
      ],
      "name": "setGasreq",
      "outputs": [],
      "stateMutability": "nonpayable",
      "type": "function"
    },
    {
      "inputs": [
        {
          "internalType": "address",
          "name": "",
          "type": "address"
        },
        {
          "internalType": "address",
          "name": "",
          "type": "address"
        }
      ],
      "name": "tokenBalanceOf",
      "outputs": [
        {
          "internalType": "uint256",
          "name": "",
          "type": "uint256"
        }
      ],
      "stateMutability": "view",
      "type": "function"
    },
    {
      "inputs": [
        {
          "internalType": "address",
          "name": "outbound_tkn",
          "type": "address"
        },
        {
          "internalType": "address",
          "name": "inbound_tkn",
          "type": "address"
        },
        {
          "internalType": "uint256",
          "name": "wants",
          "type": "uint256"
        },
        {
          "internalType": "uint256",
          "name": "gives",
          "type": "uint256"
        },
        {
          "internalType": "uint256",
          "name": "gasreq",
          "type": "uint256"
        },
        {
          "internalType": "uint256",
          "name": "gasprice",
          "type": "uint256"
        },
        {
          "internalType": "uint256",
          "name": "pivotId",
          "type": "uint256"
        },
        {
          "internalType": "uint256",
          "name": "offerId",
          "type": "uint256"
        }
      ],
      "name": "updateOffer",
      "outputs": [],
      "stateMutability": "payable",
      "type": "function"
    },
    {
      "inputs": [
        {
          "internalType": "address",
          "name": "receiver",
          "type": "address"
        },
        {
          "internalType": "uint256",
          "name": "amount",
          "type": "uint256"
        }
      ],
      "name": "withdrawFromMangrove",
      "outputs": [
        {
          "internalType": "bool",
          "name": "noRevert",
          "type": "bool"
        }
      ],
      "stateMutability": "nonpayable",
      "type": "function"
    }
  ],
  "transactionHash": "0x2839ff67bd0d81100d682d97603b869aedf60ab18ae74c5bcb2b0d9a2d05470d",
  "args": [
    "0x178113104fEcbcD7fF8669a0150721e231F0FD4B",
    "0xc00d2da52195b123d3c994aaf2eb1e8da8999d4f",
    "0xE44FfC50ED6673d6A1C385B76152E1551a6c14a3"
  ],
  "solcInputHash": "f3f2c5df0f03d65f7171955d387f9212",
  "bytecode": "0x610100604052620186a06001553480156200001957600080fd5b50604051620041ee380380620041ee8339810160408190526200003c9162000296565b600080546001600160a01b031916331781556001600160601b0319606083811b821660805284901b1660a052839062000079565b60405180910390fd5b6005805461ffff19811661ffff90911617905560408051630261bf8b60e01b815290516000916001600160a01b03851691630261bf8b91600480820192602092909190829003018186803b158015620000d157600080fd5b505afa158015620000e6573d6000803e3d6000fd5b505050506040513d601f19601f820116820180604052508101906200010c919062000270565b90506000836001600160a01b031663fca513a86040518163ffffffff1660e01b815260040160206040518083038186803b1580156200014a57600080fd5b505afa1580156200015f573d6000803e3d6000fd5b505050506040513d601f19601f8201168201806040525081019062000185919062000270565b90506001600160a01b038216620001b05760405162461bcd60e51b81526004016200007090620002e9565b6001600160a01b038116620001d95760405162461bcd60e51b815260040162000070906200038e565b6001600160601b0319606092831b811660c052911b1660e05250620002039050620c35006200020c565b505050620003de565b6000546001600160a01b03163314806200022557503330145b620002445760405162461bcd60e51b8152600401620000709062000320565b808162ffffff16146200026b5760405162461bcd60e51b8152600401620000709062000357565b600155565b60006020828403121562000282578081fd5b81516200028f81620003c5565b9392505050565b600080600060608486031215620002ab578182fd5b8351620002b881620003c5565b6020850151909350620002cb81620003c5565b6040850151909250620002de81620003c5565b809150509250925092565b6020808252601b908201527f496e76616c6964206c656e64696e67506f6f6c20616464726573730000000000604082015260600190565b60208082526018908201527f416363657373436f6e74726f6c6c65642f496e76616c69640000000000000000604082015260600190565b6020808252601d908201527f4d616e67726f76654f666665722f6761737265712f6f766572666c6f77000000604082015260600190565b6020808252601b908201527f496e76616c69642070726963654f7261636c6520616464726573730000000000604082015260600190565b6001600160a01b0381168114620003db57600080fd5b50565b60805160601c60a05160601c60c05160601c60e05160601c613d65620004896000398061086f52806109f95250806104f852806105f552806106db52806112f1528061211c5280612c56525080610d3f525080610b355280610bc45280610c815280610f665280610ff552806110b25280611166528061143852806114ed5280611835528061186d5280611a7a5280611bd45280611ec852806122115280612a935250613d656000f3fe6080604052600436106101805760003560e01c8063a59a9973116100d6578063e428204d1161007f578063f851a44011610059578063f851a44014610419578063f92495e51461042e578063faa030ec1461044e57610180565b8063e428204d146103c4578063e4c34f84146103d9578063eb87009e146103f957610180565b8063ad97db1b116100b0578063ad97db1b14610364578063aefe840314610384578063e3424811146103a457610180565b8063a59a99731461030f578063a903f25c14610324578063aab9e0051461034457610180565b806334bd8931116101385780636a4f7691116101125780636a4f7691146102bc578063704b6c02146102cf578063830cbbbd146102ef57610180565b806334bd89311461025857806349f6d2dc1461027a57806365a1d9f21461028d57610180565b80631bea8006116101695780631bea8006146101e85780632197c31e146102155780632630c12f1461024357610180565b8063063df2d2146101855780630efc8fd2146101bb575b600080fd5b34801561019157600080fd5b506101a56101a0366004613315565b610456565b6040516101b29190613823565b60405180910390f35b3480156101c757600080fd5b506101db6101d6366004613085565b6104b8565b6040516101b2919061364c565b3480156101f457600080fd5b506102086102033660046130a1565b610588565b6040516101b2919061382e565b34801561022157600080fd5b506102356102303660046132cb565b6105a5565b6040516101b2929190613bc8565b34801561024f57600080fd5b506101db6109f7565b34801561026457600080fd5b50610278610273366004613501565b610a1b565b005b610208610288366004613200565b610ab9565b34801561029957600080fd5b506102ad6102a836600461316b565b610d38565b6040516101b293929190613a39565b6102786102ca366004613261565b610ec8565b3480156102db57600080fd5b506102786102ea366004613085565b611205565b3480156102fb57600080fd5b506101a561030a366004613315565b61129d565b34801561031b57600080fd5b506101db6112ef565b34801561033057600080fd5b5061027861033f366004613315565b611313565b34801561035057600080fd5b5061020861035f366004613085565b611372565b34801561037057600080fd5b5061020861037f366004613119565b611384565b34801561039057600080fd5b5061027861039f366004613315565b6114df565b3480156103b057600080fd5b506102086103bf366004613487565b6114e9565b3480156103d057600080fd5b506102086117cb565b3480156103e557600080fd5b506102086103f43660046131b0565b6117d1565b34801561040557600080fd5b506102786104143660046134a3565b61186b565b34801561042557600080fd5b506101db6119a7565b34801561043a57600080fd5b506101db6104493660046130d9565b6119c3565b610278611a3e565b60003330141561049b576040517f08c379a000000000000000000000000000000000000000000000000000000000815260040161049290613939565b60405180910390fd5b6104a53383611b05565b6104af8383611b94565b90505b92915050565b6040517f35ea6a7500000000000000000000000000000000000000000000000000000000815260009073ffffffffffffffffffffffffffffffffffffffff7f000000000000000000000000000000000000000000000000000000000000000016906335ea6a759061052d90859060040161364c565b6101806040518083038186803b15801561054657600080fd5b505afa15801561055a573d6000803e3d6000fd5b505050506040513d601f19601f8201168201806040525081019061057e9190613397565b60e0015192915050565b600460209081526000928352604080842090915290825290205481565b6000806105b0612e04565b6105b8612e2c565b6040517fbf92857c00000000000000000000000000000000000000000000000000000000815273ffffffffffffffffffffffffffffffffffffffff7f0000000000000000000000000000000000000000000000000000000000000000169063bf92857c9061062a90889060040161364c565b60c06040518083038186803b15801561064257600080fd5b505afa158015610656573d6000803e3d6000fd5b505050506040513d601f19601f8201168201806040525081019061067a9190613600565b60c0870152608086015260a08501526040808501919091526020840191909152908252517f35ea6a7500000000000000000000000000000000000000000000000000000000815260009073ffffffffffffffffffffffffffffffffffffffff7f000000000000000000000000000000000000000000000000000000000000000016906335ea6a7590610710908b9060040161364c565b6101806040518083038186803b15801561072957600080fd5b505afa15801561073d573d6000803e3d6000fd5b505050506040513d601f19601f820116820180604052508101906107619190613397565b90506107708160000151611cd4565b5060408088019190915260208701929092525090845260e082015190517f70a0823100000000000000000000000000000000000000000000000000000000815273ffffffffffffffffffffffffffffffffffffffff909116906370a08231906107dd90899060040161364c565b60206040518083038186803b1580156107f557600080fd5b505afa158015610809573d6000803e3d6000fd5b505050506040513d601f19601f8201168201806040525081019061082d919061335c565b60e08301526040517fb3596f0700000000000000000000000000000000000000000000000000000000815273ffffffffffffffffffffffffffffffffffffffff7f0000000000000000000000000000000000000000000000000000000000000000169063b3596f07906108a4908b9060040161364c565b60206040518083038186803b1580156108bc57600080fd5b505afa1580156108d0573d6000803e3d6000fd5b505050506040513d601f19601f820116820180604052508101906108f4919061335c565b606084015260a082015182516109249161091a916109129190611cff565b612710611d41565b8360200151611d83565b826060018181525050600061095b8460400151600a0a8460600151026127100261095686602001518760600151611cff565b611d41565b905061096b818460e00151611dc5565b905087610981579450600093506109ef92505050565b6000610994610912838760000151611cff565b905060006109ba6109b086604001518860400151600a0a611cff565b8760600151611d41565b9050808211156109d657826000975097505050505050506109ef565b60006109e28284611d83565b9398509296505050505050505b935093915050565b7f000000000000000000000000000000000000000000000000000000000000000081565b60005473ffffffffffffffffffffffffffffffffffffffff16331480610a4057503330145b610a76576040517f08c379a0000000000000000000000000000000000000000000000000000000008152600401610492906138cb565b808162ffffff1614610ab4576040517f08c379a000000000000000000000000000000000000000000000000000000000815260040161049290613902565b600155565b600033301415610af5576040517f08c379a000000000000000000000000000000000000000000000000000000000815260040161049290613939565b6040517f70a0823100000000000000000000000000000000000000000000000000000000815260009073ffffffffffffffffffffffffffffffffffffffff7f000000000000000000000000000000000000000000000000000000000000000016906370a0823190610b6a90309060040161364c565b60206040518083038186803b158015610b8257600080fd5b505afa158015610b96573d6000803e3d6000fd5b505050506040513d601f19601f82011682018060405250810190610bba919061335c565b90503415610c44577f000000000000000000000000000000000000000000000000000000000000000073ffffffffffffffffffffffffffffffffffffffff1663b60d4288346040518263ffffffff1660e01b81526004016000604051808303818588803b158015610c2a57600080fd5b505af1158015610c3e573d6000803e3d6000fd5b50505050505b6040517f49f6d2dc00000000000000000000000000000000000000000000000000000000815273ffffffffffffffffffffffffffffffffffffffff7f000000000000000000000000000000000000000000000000000000000000000016906349f6d2dc90610cc2908c908c908c908c908c908c908c90600401613757565b602060405180830381600087803b158015610cdc57600080fd5b505af1158015610cf0573d6000803e3d6000fd5b505050506040513d601f19601f82011682018060405250810190610d14919061335c565b9150610d2289898433611ddb565b610d2c3382611e88565b50979650505050505050565b60006060807f000000000000000000000000000000000000000000000000000000000000000073ffffffffffffffffffffffffffffffffffffffff16632c7e545f888888886040518563ffffffff1660e01b8152600401610d9c9493929190613721565b60006040518083038186803b158015610db457600080fd5b505afa158015610dc8573d6000803e3d6000fd5b505050506040513d6000823e601f3d9081017fffffffffffffffffffffffffffffffffffffffffffffffffffffffffffffffe0168201604052610e0e9190810190613519565b50508051919450925067ffffffffffffffff81118015610e2d57600080fd5b50604051908082528060200260200182016040528015610e57578160200160208202803683370190505b50905060005b8251811015610ebd57610e848888858481518110610e7757fe5b60200260200101516119c3565b828281518110610e9057fe5b73ffffffffffffffffffffffffffffffffffffffff90921660209283029190910190910152600101610e5d565b509450945094915050565b6000610ed58989846119c3565b905073ffffffffffffffffffffffffffffffffffffffff81163314610f26576040517f08c379a0000000000000000000000000000000000000000000000000000000008152600401610492906139cd565b6040517f70a0823100000000000000000000000000000000000000000000000000000000815260009073ffffffffffffffffffffffffffffffffffffffff7f000000000000000000000000000000000000000000000000000000000000000016906370a0823190610f9b90309060040161364c565b60206040518083038186803b158015610fb357600080fd5b505afa158015610fc7573d6000803e3d6000fd5b505050506040513d601f19601f82011682018060405250810190610feb919061335c565b90503415611075577f000000000000000000000000000000000000000000000000000000000000000073ffffffffffffffffffffffffffffffffffffffff1663b60d4288346040518263ffffffff1660e01b81526004016000604051808303818588803b15801561105b57600080fd5b505af115801561106f573d6000803e3d6000fd5b50505050505b6040517f6a4f769100000000000000000000000000000000000000000000000000000000815273ffffffffffffffffffffffffffffffffffffffff7f00000000000000000000000000000000000000000000000000000000000000001690636a4f7691906110f5908d908d908d908d908d908d908d908d906004016137a2565b600060405180830381600087803b15801561110f57600080fd5b505af1158015611123573d6000803e3d6000fd5b50506040517f70a082310000000000000000000000000000000000000000000000000000000081526000925073ffffffffffffffffffffffffffffffffffffffff7f00000000000000000000000000000000000000000000000000000000000000001691506370a082319061119c90309060040161364c565b60206040518083038186803b1580156111b457600080fd5b505afa1580156111c8573d6000803e3d6000fd5b505050506040513d601f19601f820116820180604052508101906111ec919061335c565b90506111f88382611e88565b5050505050505050505050565b60005473ffffffffffffffffffffffffffffffffffffffff163314611256576040517f08c379a0000000000000000000000000000000000000000000000000000000008152600401610492906138cb565b600080547fffffffffffffffffffffffff00000000000000000000000000000000000000001673ffffffffffffffffffffffffffffffffffffffff92909216919091179055565b6000333014156112d9576040517f08c379a000000000000000000000000000000000000000000000000000000000815260040161049290613939565b6112e4833384611f7d565b6104af833384612029565b7f000000000000000000000000000000000000000000000000000000000000000081565b60005473ffffffffffffffffffffffffffffffffffffffff163314611364576040517f08c379a0000000000000000000000000000000000000000000000000000000008152600401610492906138cb565b61136e82826120d2565b5050565b60036020526000908152604090205481565b73ffffffffffffffffffffffffffffffffffffffff84811660009081526002602090815260408083208785168452825280832086845290915281205490911633146113fb576040517f08c379a0000000000000000000000000000000000000000000000000000000008152600401610492906139cd565b6040517fad97db1b00000000000000000000000000000000000000000000000000000000815273ffffffffffffffffffffffffffffffffffffffff7f0000000000000000000000000000000000000000000000000000000000000000169063ad97db1b906114739088908890889088906004016136eb565b602060405180830381600087803b15801561148d57600080fd5b505af11580156114a1573d6000803e3d6000fd5b505050506040513d601f19601f820116820180604052508101906114c5919061335c565b905080156114d7576114d73382612198565b949350505050565b61136e82826121c7565b60007f000000000000000000000000000000000000000000000000000000000000000073ffffffffffffffffffffffffffffffffffffffff8116158061154457503373ffffffffffffffffffffffffffffffffffffffff8216145b61157a576040517f08c379a0000000000000000000000000000000000000000000000000000000008152600401610492906138cb565b611583836122c3565b611633576115976040840160208501613085565b73ffffffffffffffffffffffffffffffffffffffff166115ba6020850185613085565b73ffffffffffffffffffffffffffffffffffffffff167f5c3a327c0caf47aa560dbca16cce241483daac785fd723d9e0fb2af3256373bf8560400135604051611603919061382e565b60405180910390a37f6d67764f666665722f72656e656765640000000000000000000000000000000091506117c5565b60006116438460a00135856122c9565b905080156116fa5761165b6040850160208601613085565b73ffffffffffffffffffffffffffffffffffffffff1661167e6020860186613085565b73ffffffffffffffffffffffffffffffffffffffff167f3482722a7c71a098521214cdb975e1d9faa0b0163f768e89566f7acc36cffd0b8660400135846040516116c9929190613bc8565b60405180910390a37f6d67764f666665722f7075744661696c757265000000000000000000000000009250506117c5565b600061170a856080013586612327565b905080156117c2576117226040860160208701613085565b73ffffffffffffffffffffffffffffffffffffffff166117456020870187613085565b73ffffffffffffffffffffffffffffffffffffffff167fc99fe658c80b903af0e1270f4a55564b3a7509294ab1052c6ab07f8198baea67876040013584604051611790929190613bc8565b60405180910390a37f6d67764f666665722f6f75744f664c6971756964697479000000000000000000935050506117c5565b50505b50919050565b60015481565b60008060006117e18888866119c3565b905073ffffffffffffffffffffffffffffffffffffffff81166118075760009150611830565b73ffffffffffffffffffffffffffffffffffffffff811660009081526003602052604090205491505b61185f7f0000000000000000000000000000000000000000000000000000000000000000838a8a8a8a8a612333565b98975050505050505050565b7f000000000000000000000000000000000000000000000000000000000000000073ffffffffffffffffffffffffffffffffffffffff811615806118c457503373ffffffffffffffffffffffffffffffffffffffff8216145b6118fa576040517f08c379a0000000000000000000000000000000000000000000000000000000008152600401610492906138cb565b81602001357f6d67762f7472616465537563636573730000000000000000000000000000000014156119345761192f8361258e565b6119a2565b81357f6d67764f666665722f6f75744f664c697175696469747900000000000000000014156119665761192f83612597565b81357f6d67764f666665722f72656e656765640000000000000000000000000000000014156119985761192f83612597565b6119a2838361136e565b505050565b60005473ffffffffffffffffffffffffffffffffffffffff1681565b73ffffffffffffffffffffffffffffffffffffffff8084166000908152600260209081526040808320868516845282528083208584529091529020541680611a37576040517f08c379a000000000000000000000000000000000000000000000000000000000815260040161049290613a02565b9392505050565b33301415611a78576040517f08c379a000000000000000000000000000000000000000000000000000000000815260040161049290613939565b7f000000000000000000000000000000000000000000000000000000000000000073ffffffffffffffffffffffffffffffffffffffff1663b60d4288346040518263ffffffff1660e01b81526004016000604051808303818588803b158015611ae057600080fd5b505af1158015611af4573d6000803e3d6000fd5b5050505050611b033334612198565b565b73ffffffffffffffffffffffffffffffffffffffff8216600090815260036020526040902054811115611b64576040517f08c379a000000000000000000000000000000000000000000000000000000000815260040161049290613837565b73ffffffffffffffffffffffffffffffffffffffff90911660009081526003602052604090208054919091039055565b6040517f2e1a7d4d00000000000000000000000000000000000000000000000000000000815260009073ffffffffffffffffffffffffffffffffffffffff7f00000000000000000000000000000000000000000000000000000000000000001690632e1a7d4d90611c0990859060040161382e565b602060405180830381600087803b158015611c2357600080fd5b505af1158015611c37573d6000803e3d6000fd5b505050506040513d601f19601f82011682018060405250810190611c5b9190613340565b611c6457600080fd5b8273ffffffffffffffffffffffffffffffffffffffff1682604051611c8890613649565b60006040518083038185875af1925050503d8060008114611cc5576040519150601f19603f3d011682016040523d82523d6000602084013e611cca565b606091505b5090949350505050565b5161ffff80821692601083901c821692602081901c831692603082901c60ff169260409290921c1690565b60006104af83836040518060400160405280601781526020017f6d756c7469706c69636174696f6e206f766572666c6f7700000000000000000081525061259a565b60006104af83836040518060400160405280600e81526020017f646976696465206279207a65726f000000000000000000000000000000000000815250612670565b60006104af83836040518060400160405280601581526020017f7375627472616374696f6e20756e646572666c6f7700000000000000000000008152506126ec565b6000818310611dd457816104af565b5090919050565b73ffffffffffffffffffffffffffffffffffffffff84811660008181526002602090815260408083208886168085529083528184208885529092529182902080547fffffffffffffffffffffffff0000000000000000000000000000000000000000169486169490941790935551849291907ff4d6dd56d4e8a2abba2bcbd020eb452fe8213f9b1466dd3f17d342f9a635343590611e7a90869061364c565b60405180910390a450505050565b6040517f70a0823100000000000000000000000000000000000000000000000000000000815260009073ffffffffffffffffffffffffffffffffffffffff7f000000000000000000000000000000000000000000000000000000000000000016906370a0823190611efd90309060040161364c565b60206040518083038186803b158015611f1557600080fd5b505afa158015611f29573d6000803e3d6000fd5b505050506040513d601f19601f82011682018060405250810190611f4d919061335c565b905081811415611f5d575061136e565b81811115611f715761192f83838303612198565b6119a283828403611b05565b73ffffffffffffffffffffffffffffffffffffffff808416600090815260046020908152604080832093861683529290522054811115611fe9576040517f08c379a000000000000000000000000000000000000000000000000000000000815260040161049290613970565b73ffffffffffffffffffffffffffffffffffffffff9283166000908152600460209081526040808320949095168252929092529190208054919091039055565b6040517fa9059cbb00000000000000000000000000000000000000000000000000000000815260009073ffffffffffffffffffffffffffffffffffffffff85169063a9059cbb90612080908690869060040161366d565b602060405180830381600087803b15801561209a57600080fd5b505af11580156120ae573d6000803e3d6000fd5b505050506040513d601f19601f820116820180604052508101906114d79190613340565b6040517f095ea7b300000000000000000000000000000000000000000000000000000000815273ffffffffffffffffffffffffffffffffffffffff83169063095ea7b390612146907f000000000000000000000000000000000000000000000000000000000000000090859060040161366d565b602060405180830381600087803b15801561216057600080fd5b505af1158015612174573d6000803e3d6000fd5b505050506040513d601f19601f820116820180604052508101906119a29190613340565b73ffffffffffffffffffffffffffffffffffffffff909116600090815260036020526040902080549091019055565b6040517f095ea7b300000000000000000000000000000000000000000000000000000000815273ffffffffffffffffffffffffffffffffffffffff83169063095ea7b39061223b907f000000000000000000000000000000000000000000000000000000000000000090859060040161366d565b602060405180830381600087803b15801561225557600080fd5b505af1158015612269573d6000803e3d6000fd5b505050506040513d601f19601f8201168201806040525081019061228d9190613340565b61136e576040517f08c379a000000000000000000000000000000000000000000000000000000000815260040161049290613894565b50600190565b60006122d58383612760565b905060006123036122e96020850185613085565b6122f96040860160208701613085565b85604001356119c3565b905061231f6123186040850160208601613085565b8286612799565b505092915050565b60006104af83836127b1565b60008060008973ffffffffffffffffffffffffffffffffffffffff1663cbf75c9a89896040518363ffffffff1660e01b8152600401612373929190613693565b604080518083038186803b15801561238a57600080fd5b505afa15801561239e573d6000803e3d6000fd5b505050506040513d601f19601f820116820180604052508101906123c29190613374565b9150915060008a73ffffffffffffffffffffffffffffffffffffffff166368c13d6b8a8a886040518463ffffffff1660e01b8152600401612405939291906136ba565b60206040518083038186803b15801561241d57600080fd5b505afa158015612431573d6000803e3d6000fd5b505050506040513d601f19601f82011682018060405250810190612455919061335c565b905060008b73ffffffffffffffffffffffffffffffffffffffff16635722647b8b8b896040518463ffffffff1660e01b8152600401612496939291906136ba565b60206040518083038186803b1580156124ae57600080fd5b505afa1580156124c2573d6000803e3d6000fd5b505050506040513d601f19601f820116820180604052508101906124e6919061335c565b90506000876124f486612a01565b111561250a5761250385612a01565b905061250d565b50865b60008161251986612a10565b61252287612a1b565b8c010102633b9aca00029050600061253985612a26565b61254285612a2d565b61254b86612a38565b61255487612a43565b010102633b9aca0002905060008e820190508281101561257657808303612579565b60005b98505050505050505050979650505050505050565b61259781612a4e565b50565b60008315806125a7575082155b156125b457506000611a37565b838302838582816125c157fe5b04148390612667576040517f08c379a00000000000000000000000000000000000000000000000000000000081526004018080602001828103825283818151815260200191508051906020019080838360005b8381101561262c578181015183820152602001612614565b50505050905090810190601f1680156126595780820380516001836020036101000a031916815260200191505b509250505060405180910390fd5b50949350505050565b600081836126d9576040517f08c379a000000000000000000000000000000000000000000000000000000000815260206004820181815283516024840152835190928392604490910191908501908083836000831561262c578181015183820152602001612614565b508284816126e357fe5b04949350505050565b60008184841115612758576040517f08c379a000000000000000000000000000000000000000000000000000000000815260206004820181815283516024840152835190928392604490910191908501908083836000831561262c578181015183820152602001612614565b505050900390565b6000806127736122e96020850185613085565b905061278f6127886040850160208601613085565b8286612bfe565b5060009392505050565b60006127a6848484611f7d565b6114d7848484612029565b6000806127c46122e96020850185613085565b905060006127e06127d86020860186613085565b6000846105a5565b509050808511156127f55784925050506104b2565b60006128076101d66020870187613085565b6040517f23b872dd00000000000000000000000000000000000000000000000000000000815290915073ffffffffffffffffffffffffffffffffffffffff8216906323b872dd9061286090869030908b906004016136ba565b602060405180830381600087803b15801561287a57600080fd5b505af19250505080156128c8575060408051601f3d9081017fffffffffffffffffffffffffffffffffffffffffffffffffffffffffffffffe01682019092526128c591810190613340565b60015b61295557604085018035906128e09060208801613085565b73ffffffffffffffffffffffffffffffffffffffff166129036020880188613085565b73ffffffffffffffffffffffffffffffffffffffff167f3aa32c175e32764fe670a20f7800e840796a2c690e646f8d73ad446ae04628e9896040516129489190613b8a565b60405180910390a46129f7565b612960873088612c3d565b6129715760009450505050506104b2565b604086018035906129859060208901613085565b73ffffffffffffffffffffffffffffffffffffffff166129a86020890189613085565b73ffffffffffffffffffffffffffffffffffffffff167f3aa32c175e32764fe670a20f7800e840796a2c690e646f8d73ad446ae04628e98a6040516129ed9190613b4c565b60405180910390a4505b5093949350505050565b61ffff604082901c165b919050565b60381c62ffffff1690565b60501c62ffffff1690565b61ffff1690565b60181c62ffffff1690565b60301c62ffffff1690565b60481c62ffffff1690565b60008160800135612a628360600135612dd1565b03905060008260a00135612a798460600135612de5565b03905073ffffffffffffffffffffffffffffffffffffffff7f000000000000000000000000000000000000000000000000000000000000000016636a4f7691612ac56020860186613085565b612ad56040870160208801613085565b8486612ae48960c00135612a43565b612af18a60600135612a26565b612afe8b60600135612df9565b8b604001356040518963ffffffff1660e01b8152600401612b269897969594939291906137a2565b600060405180830381600087803b158015612b4057600080fd5b505af1925050508015612b51575060015b6119a257612b5d613c1e565b80612b685750612bf4565b612b786040850160208601613085565b73ffffffffffffffffffffffffffffffffffffffff16612b9b6020860186613085565b73ffffffffffffffffffffffffffffffffffffffff167f768269e5e6803a8bc566de9364d8347774fff5b114c5a2ec556ab0459a172426866040013584604051612be6929190613ad3565b60405180910390a35061192f565b3d6000803e3d6000fd5b73ffffffffffffffffffffffffffffffffffffffff92831660009081526004602090815260408083209490951682529290925291902080549091019055565b600073ffffffffffffffffffffffffffffffffffffffff7f0000000000000000000000000000000000000000000000000000000000000000166369328dec612c886020850185613085565b86866040518463ffffffff1660e01b8152600401612ca8939291906137f3565b602060405180830381600087803b158015612cc257600080fd5b505af1925050508015612d10575060408051601f3d9081017fffffffffffffffffffffffffffffffffffffffffffffffffffffffffffffffe0168201909252612d0d9181019061335c565b60015b612db657612d1c613c1e565b80612d275750612bf4565b60408301803590612d3b9060208601613085565b73ffffffffffffffffffffffffffffffffffffffff16612d5e6020860186613085565b73ffffffffffffffffffffffffffffffffffffffff167f3aa32c175e32764fe670a20f7800e840796a2c690e646f8d73ad446ae04628e98885604051612da5929190613ad3565b60405180910390a484915050611a37565b80851415612dc8576000915050611a37565b84039050611a37565b60101c6bffffffffffffffffffffffff1690565b60701c6bffffffffffffffffffffffff1690565b60d01c62ffffff1690565b6040518060800160405280600081526020016000815260200160008152602001600081525090565b60405180610100016040528060008152602001600081526020016000815260200160008152602001600081526020016000815260200160008152602001600081525090565b8051612a0b81613cff565b600082601f830112612e8c578081fd5b81516020612ea1612e9c83613bfa565b613bd6565b82815281810190858301608080860288018501891015612ebf578687fd5b865b86811015612f325781838b031215612ed7578788fd5b6040805183810181811067ffffffffffffffff82111715612ef457fe5b82528451612f0181613cff565b8152848801518882015281850151918101919091526060808501519082015285529385019391810191600101612ec1565b509198975050505050505050565b600082601f830112612f50578081fd5b81516020612f60612e9c83613bfa565b8281528181019085830160a080860288018501891015612f7e578687fd5b865b86811015612f325781838b031215612f96578788fd5b6040805183810181811067ffffffffffffffff82111715612fb357fe5b82528451815287850151888201528482015191810191909152606080850151908201526080808501519082015285529385019391810191600101612f80565b600060208284031215613003578081fd5b6040516020810181811067ffffffffffffffff8211171561302057fe5b6040529151825250919050565b600061012082840312156117c5578081fd5b80516fffffffffffffffffffffffffffffffff81168114612a0b57600080fd5b805164ffffffffff81168114612a0b57600080fd5b805160ff81168114612a0b57600080fd5b600060208284031215613096578081fd5b8135611a3781613cff565b600080604083850312156130b3578081fd5b82356130be81613cff565b915060208301356130ce81613cff565b809150509250929050565b6000806000606084860312156130ed578081fd5b83356130f881613cff565b9250602084013561310881613cff565b929592945050506040919091013590565b6000806000806080858703121561312e578182fd5b843561313981613cff565b9350602085013561314981613cff565b925060408501359150606085013561316081613d21565b939692955090935050565b60008060008060808587031215613180578182fd5b843561318b81613cff565b9350602085013561319b81613cff565b93969395505050506040820135916060013590565b600080600080600060a086880312156131c7578283fd5b85356131d281613cff565b945060208601356131e281613cff565b94979496505050506040830135926060810135926080909101359150565b600080600080600080600060e0888a03121561321a578485fd5b873561322581613cff565b9650602088013561323581613cff565b96999698505050506040850135946060810135946080820135945060a0820135935060c0909101359150565b600080600080600080600080610100898b03121561327d578182fd5b883561328881613cff565b9750602089013561329881613cff565b979a9799505050506040860135956060810135956080820135955060a0820135945060c0820135935060e0909101359150565b6000806000606084860312156132df578081fd5b83356132ea81613cff565b925060208401356132fa81613d21565b9150604084013561330a81613cff565b809150509250925092565b60008060408385031215613327578182fd5b823561333281613cff565b946020939093013593505050565b600060208284031215613351578081fd5b8151611a3781613d21565b60006020828403121561336d578081fd5b5051919050565b60008060408385031215613386578182fd5b505080516020909101519092909150565b60006101808083850312156133aa578182fd5b6133b381613bd6565b90506133bf8484612ff2565b81526133cd6020840161303f565b60208201526133de6040840161303f565b60408201526133ef6060840161303f565b60608201526134006080840161303f565b608082015261341160a0840161303f565b60a082015261342260c0840161305f565b60c082015261343360e08401612e71565b60e0820152610100613446818501612e71565b90820152610120613458848201612e71565b9082015261014061346a848201612e71565b9082015261016061347c848201613074565b908201529392505050565b60006101208284031215613499578081fd5b6104af838361302d565b6000808284036101608112156134b7578283fd5b6134c1858561302d565b925060407ffffffffffffffffffffffffffffffffffffffffffffffffffffffffffffffee0820112156134f2578182fd5b50610120830190509250929050565b600060208284031215613512578081fd5b5035919050565b6000806000806080858703121561352e578182fd5b8451935060208086015167ffffffffffffffff8082111561354d578485fd5b818801915088601f830112613560578485fd5b815161356e612e9c82613bfa565b81815284810190848601868402860187018d101561358a578889fd5b8895505b838610156135ac57805183526001959095019491860191860161358e565b5060408b015190985094505050808311156135c5578485fd5b6135d189848a01612f40565b945060608801519250808311156135e6578384fd5b50506135f487828801612e7c565b91505092959194509250565b60008060008060008060c08789031215613618578384fd5b865195506020870151945060408701519350606087015192506080870151915060a087015190509295509295509295565b90565b73ffffffffffffffffffffffffffffffffffffffff91909116815260200190565b73ffffffffffffffffffffffffffffffffffffffff929092168252602082015260400190565b73ffffffffffffffffffffffffffffffffffffffff92831681529116602082015260400190565b73ffffffffffffffffffffffffffffffffffffffff9384168152919092166020820152604081019190915260600190565b73ffffffffffffffffffffffffffffffffffffffff94851681529290931660208301526040820152901515606082015260800190565b73ffffffffffffffffffffffffffffffffffffffff94851681529290931660208301526040820152606081019190915260800190565b73ffffffffffffffffffffffffffffffffffffffff978816815295909616602086015260408501939093526060840191909152608083015260a082015260c081019190915260e00190565b73ffffffffffffffffffffffffffffffffffffffff988916815296909716602087015260408601949094526060850192909252608084015260a083015260c082015260e08101919091526101000190565b73ffffffffffffffffffffffffffffffffffffffff93841681526020810192909252909116604082015260600190565b901515815260200190565b90815260200190565b60208082526022908201527f4d756c74694f776e65722f64656269744f6e4d67762f696e737566666963696560408201527f6e74000000000000000000000000000000000000000000000000000000000000606082015260800190565b60208082526015908201527f6d67764f666665722f617070726f76652f4661696c0000000000000000000000604082015260600190565b60208082526018908201527f416363657373436f6e74726f6c6c65642f496e76616c69640000000000000000604082015260600190565b6020808252601d908201527f4d616e67726f76654f666665722f6761737265712f6f766572666c6f77000000604082015260600190565b60208082526016908201527f4d75746c69557365722f6e6f5265656e7472616e637900000000000000000000604082015260600190565b60208082526022908201527f4d756c74694f776e65722f6465626974546f6b656e2f696e737566666963696560408201527f6e74000000000000000000000000000000000000000000000000000000000000606082015260800190565b6020808252818101527f6d67764f666665722f4d756c74694f776e65722f756e617574686f72697a6564604082015260600190565b60208082526015908201527f6d756c7469557365722f756e6b6f776e4f666665720000000000000000000000604082015260600190565b60006060820185835260206060818501528186518084526080860191508288019350845b81811015613a7957845183529383019391830191600101613a5d565b505084810360408601528551808252908201925081860190845b81811015613ac557825173ffffffffffffffffffffffffffffffffffffffff1685529383019391830191600101613a93565b509298975050505050505050565b600083825260206040818401528351806040850152825b81811015613b0657858101830151858201606001528201613aea565b81811115613b175783606083870101525b50601f017fffffffffffffffffffffffffffffffffffffffffffffffffffffffffffffffe01692909201606001949350505050565b9081526040602082018190526019908201527f6c656e6465722f6d756c74692f72656465656d4661696c656400000000000000606082015260800190565b908152604060208201819052601d908201527f6c656e6465722f6d756c74692f7472616e7366657246726f6d4661696c000000606082015260800190565b918252602082015260400190565b60405181810167ffffffffffffffff81118282101715613bf257fe5b604052919050565b600067ffffffffffffffff821115613c0e57fe5b5060209081020190565b60e01c90565b600060443d1015613c2e57613649565b600481823e6308c379a0613c428251613c18565b14613c4c57613649565b6040517ffffffffffffffffffffffffffffffffffffffffffffffffffffffffffffffffc3d016004823e80513d67ffffffffffffffff8160248401118184111715613c9a5750505050613649565b82840192508251915080821115613cb45750505050613649565b503d83016020828401011115613ccc57505050613649565b601f017fffffffffffffffffffffffffffffffffffffffffffffffffffffffffffffffe016810160200160405291505090565b73ffffffffffffffffffffffffffffffffffffffff8116811461259757600080fd5b801515811461259757600080fdfea2646970667358221220d57b0f5afb39e06ec2565d404f39519458a564cfcf1aa8f0ac63608210a1ee5e64736f6c63430007060033",
  "devdoc": {
    "kind": "dev",
    "methods": {},
    "version": 1
  },
  "userdoc": {
    "events": {
      "PosthookFail(address,address,uint256,string)": {
        "notice": "Events "
      }
    },
    "kind": "user",
    "methods": {
      "approveLender(address,uint256)": {
        "notice": "approval of ctoken contract by the underlying is necessary for minting and repaying borrowuser must use this function to do so."
      },
      "approveMangrove(address,uint256)": {
        "notice": "trader needs to approve Mangrove to let it perform outbound token transfer at the end of the `makerExecute` function Warning: anyone can approve here."
      },
      "maxGettableUnderlying(address,bool,address)": {
        "notice": "Computes maximal maximal redeem capacity (R) and max borrow capacity (B|R) after R has been redeemed returns (R, B|R)"
      },
      "withdrawFromMangrove(address,uint256)": {
        "notice": "withdraws ETH from the bounty vault of the Mangrove. NB: `Mangrove.fund` function need not be called by `this` so is not included here. Warning: this function should not be called internally for msg.sender provision is being checked"
      }
    },
    "version": 1
  },
  "storageLayout": {
    "storage": [
      {
        "astId": 15273,
        "contract": "cache/solpp-generated-contracts/Strategies/OfferLogics/MultiUsers/Deployable/OfferProxy.sol:OfferProxy",
        "label": "admin",
        "offset": 0,
        "slot": "0",
        "type": "t_address"
      },
      {
        "astId": 10344,
        "contract": "cache/solpp-generated-contracts/Strategies/OfferLogics/MultiUsers/Deployable/OfferProxy.sol:OfferProxy",
        "label": "OFR_GASREQ",
        "offset": 0,
        "slot": "1",
        "type": "t_uint256"
      },
      {
        "astId": 10942,
        "contract": "cache/solpp-generated-contracts/Strategies/OfferLogics/MultiUsers/Deployable/OfferProxy.sol:OfferProxy",
        "label": "_offerOwners",
        "offset": 0,
        "slot": "2",
        "type": "t_mapping(t_address,t_mapping(t_address,t_mapping(t_uint256,t_address)))"
      },
      {
        "astId": 10946,
        "contract": "cache/solpp-generated-contracts/Strategies/OfferLogics/MultiUsers/Deployable/OfferProxy.sol:OfferProxy",
        "label": "mgvBalanceOf",
        "offset": 0,
        "slot": "3",
        "type": "t_mapping(t_address,t_uint256)"
      },
      {
        "astId": 10952,
        "contract": "cache/solpp-generated-contracts/Strategies/OfferLogics/MultiUsers/Deployable/OfferProxy.sol:OfferProxy",
        "label": "tokenBalanceOf",
        "offset": 0,
        "slot": "4",
        "type": "t_mapping(t_address,t_mapping(t_address,t_uint256))"
      },
      {
        "astId": 9091,
        "contract": "cache/solpp-generated-contracts/Strategies/OfferLogics/MultiUsers/Deployable/OfferProxy.sol:OfferProxy",
        "label": "referralCode",
        "offset": 0,
        "slot": "5",
        "type": "t_uint16"
      }
    ],
    "types": {
      "t_address": {
        "encoding": "inplace",
        "label": "address",
        "numberOfBytes": "20"
      },
      "t_mapping(t_address,t_mapping(t_address,t_mapping(t_uint256,t_address)))": {
        "encoding": "mapping",
        "key": "t_address",
        "label": "mapping(address => mapping(address => mapping(uint256 => address)))",
        "numberOfBytes": "32",
        "value": "t_mapping(t_address,t_mapping(t_uint256,t_address))"
      },
      "t_mapping(t_address,t_mapping(t_address,t_uint256))": {
        "encoding": "mapping",
        "key": "t_address",
        "label": "mapping(address => mapping(address => uint256))",
        "numberOfBytes": "32",
        "value": "t_mapping(t_address,t_uint256)"
      },
      "t_mapping(t_address,t_mapping(t_uint256,t_address))": {
        "encoding": "mapping",
        "key": "t_address",
        "label": "mapping(address => mapping(uint256 => address))",
        "numberOfBytes": "32",
        "value": "t_mapping(t_uint256,t_address)"
      },
      "t_mapping(t_address,t_uint256)": {
        "encoding": "mapping",
        "key": "t_address",
        "label": "mapping(address => uint256)",
        "numberOfBytes": "32",
        "value": "t_uint256"
      },
      "t_mapping(t_uint256,t_address)": {
        "encoding": "mapping",
        "key": "t_uint256",
        "label": "mapping(uint256 => address)",
        "numberOfBytes": "32",
        "value": "t_address"
      },
      "t_uint16": {
        "encoding": "inplace",
        "label": "uint16",
        "numberOfBytes": "2"
      },
      "t_uint256": {
        "encoding": "inplace",
        "label": "uint256",
        "numberOfBytes": "32"
      }
    }
  }
}