{
  "address": "0xA4B155b7e5b9D73548971c5842D5835fE9C006fb",
  "abi": [
    {
      "inputs": [
        {
          "internalType": "address payable",
          "name": "_MGV",
          "type": "address"
        }
      ],
      "stateMutability": "nonpayable",
      "type": "constructor"
    },
    {
      "anonymous": false,
      "inputs": [
        {
          "indexed": false,
          "internalType": "address",
          "name": "token",
          "type": "address"
        },
        {
          "indexed": false,
          "internalType": "uint256",
          "name": "amountMissing",
          "type": "uint256"
        }
      ],
      "name": "NotEnoughLiquidity",
      "type": "event"
    },
    {
      "anonymous": false,
      "inputs": [
        {
          "indexed": false,
          "internalType": "address",
          "name": "outbound_tkn",
          "type": "address"
        },
        {
          "indexed": false,
          "internalType": "address",
          "name": "inbound_tkn",
          "type": "address"
        },
        {
          "indexed": false,
          "internalType": "uint256",
          "name": "offerId",
          "type": "uint256"
        }
      ],
      "name": "PostHookError",
      "type": "event"
    },
    {
      "anonymous": false,
      "inputs": [
        {
          "indexed": true,
          "internalType": "address",
          "name": "outbound_tkn",
          "type": "address"
        },
        {
          "indexed": true,
          "internalType": "address",
          "name": "inbound_tkn",
          "type": "address"
        },
        {
          "indexed": false,
          "internalType": "uint256",
          "name": "offerId",
          "type": "uint256"
        },
        {
          "indexed": false,
          "internalType": "string",
          "name": "message",
          "type": "string"
        }
      ],
      "name": "PosthookFail",
      "type": "event"
    },
    {
      "inputs": [],
      "name": "OFR_GASREQ",
      "outputs": [
        {
          "internalType": "uint256",
          "name": "",
          "type": "uint256"
        }
      ],
      "stateMutability": "view",
      "type": "function"
    },
    {
      "inputs": [],
      "name": "admin",
      "outputs": [
        {
          "internalType": "address",
          "name": "",
          "type": "address"
        }
      ],
      "stateMutability": "view",
      "type": "function"
    },
    {
      "inputs": [
        {
          "internalType": "address",
          "name": "outbound_tkn",
          "type": "address"
        },
        {
          "internalType": "uint256",
          "name": "amount",
          "type": "uint256"
        }
      ],
      "name": "approveMangrove",
      "outputs": [],
      "stateMutability": "nonpayable",
      "type": "function"
    },
    {
      "inputs": [
        {
          "internalType": "address",
          "name": "outbound_tkn",
          "type": "address"
        },
        {
          "internalType": "address",
          "name": "inbound_tkn",
          "type": "address"
        },
        {
          "internalType": "uint256",
          "name": "gasreq",
          "type": "uint256"
        },
        {
          "internalType": "uint256",
          "name": "gasprice",
          "type": "uint256"
        },
        {
          "internalType": "uint256",
          "name": "offerId",
          "type": "uint256"
        }
      ],
      "name": "getMissingProvision",
      "outputs": [
        {
          "internalType": "uint256",
          "name": "",
          "type": "uint256"
        }
      ],
      "stateMutability": "view",
      "type": "function"
    },
    {
      "inputs": [
        {
          "components": [
            {
              "internalType": "address",
              "name": "outbound_tkn",
              "type": "address"
            },
            {
              "internalType": "address",
              "name": "inbound_tkn",
              "type": "address"
            },
            {
              "internalType": "uint256",
              "name": "offerId",
              "type": "uint256"
            },
            {
              "internalType": "bytes32",
              "name": "offer",
              "type": "bytes32"
            },
            {
              "internalType": "uint256",
              "name": "wants",
              "type": "uint256"
            },
            {
              "internalType": "uint256",
              "name": "gives",
              "type": "uint256"
            },
            {
              "internalType": "bytes32",
              "name": "offerDetail",
              "type": "bytes32"
            },
            {
              "internalType": "bytes32",
              "name": "global",
              "type": "bytes32"
            },
            {
              "internalType": "bytes32",
              "name": "local",
              "type": "bytes32"
            }
          ],
          "internalType": "struct MgvLib.SingleOrder",
          "name": "order",
          "type": "tuple"
        }
      ],
      "name": "makerExecute",
      "outputs": [
        {
          "internalType": "bytes32",
          "name": "ret",
          "type": "bytes32"
        }
      ],
      "stateMutability": "nonpayable",
      "type": "function"
    },
    {
      "inputs": [
        {
          "components": [
            {
              "internalType": "address",
              "name": "outbound_tkn",
              "type": "address"
            },
            {
              "internalType": "address",
              "name": "inbound_tkn",
              "type": "address"
            },
            {
              "internalType": "uint256",
              "name": "offerId",
              "type": "uint256"
            },
            {
              "internalType": "bytes32",
              "name": "offer",
              "type": "bytes32"
            },
            {
              "internalType": "uint256",
              "name": "wants",
              "type": "uint256"
            },
            {
              "internalType": "uint256",
              "name": "gives",
              "type": "uint256"
            },
            {
              "internalType": "bytes32",
              "name": "offerDetail",
              "type": "bytes32"
            },
            {
              "internalType": "bytes32",
              "name": "global",
              "type": "bytes32"
            },
            {
              "internalType": "bytes32",
              "name": "local",
              "type": "bytes32"
            }
          ],
          "internalType": "struct MgvLib.SingleOrder",
          "name": "order",
          "type": "tuple"
        },
        {
          "components": [
            {
              "internalType": "bytes32",
              "name": "makerData",
              "type": "bytes32"
            },
            {
              "internalType": "bytes32",
              "name": "mgvData",
              "type": "bytes32"
            }
          ],
          "internalType": "struct MgvLib.OrderResult",
          "name": "result",
          "type": "tuple"
        }
      ],
      "name": "makerPosthook",
      "outputs": [],
      "stateMutability": "nonpayable",
      "type": "function"
    },
    {
      "inputs": [
        {
          "internalType": "address",
          "name": "outbound_tkn",
          "type": "address"
        },
        {
          "internalType": "address",
          "name": "inbound_tkn",
          "type": "address"
        },
        {
          "internalType": "uint256",
          "name": "wants",
          "type": "uint256"
        },
        {
          "internalType": "uint256",
          "name": "gives",
          "type": "uint256"
        },
        {
          "internalType": "uint256",
          "name": "gasreq",
          "type": "uint256"
        },
        {
          "internalType": "uint256",
          "name": "gasprice",
          "type": "uint256"
        },
        {
          "internalType": "uint256",
          "name": "pivotId",
          "type": "uint256"
        }
      ],
      "name": "newOffer",
      "outputs": [
        {
          "internalType": "uint256",
          "name": "offerId",
          "type": "uint256"
        }
      ],
      "stateMutability": "nonpayable",
      "type": "function"
    },
    {
      "inputs": [
        {
          "internalType": "address",
          "name": "outbound_tkn",
          "type": "address"
        },
        {
          "internalType": "address",
          "name": "inbound_tkn",
          "type": "address"
        },
        {
          "internalType": "uint256",
          "name": "offerId",
          "type": "uint256"
        },
        {
          "internalType": "bool",
          "name": "deprovision",
          "type": "bool"
        }
      ],
      "name": "retractOffer",
      "outputs": [
        {
          "internalType": "uint256",
          "name": "",
          "type": "uint256"
        }
      ],
      "stateMutability": "nonpayable",
      "type": "function"
    },
    {
      "inputs": [
        {
          "internalType": "address",
          "name": "_admin",
          "type": "address"
        }
      ],
      "name": "setAdmin",
      "outputs": [],
      "stateMutability": "nonpayable",
      "type": "function"
    },
    {
      "inputs": [
        {
          "internalType": "address",
          "name": "token",
          "type": "address"
        },
        {
          "internalType": "address",
          "name": "recipient",
          "type": "address"
        },
        {
          "internalType": "uint256",
          "name": "amount",
          "type": "uint256"
        }
      ],
      "name": "transferToken",
      "outputs": [
        {
          "internalType": "bool",
          "name": "success",
          "type": "bool"
        }
      ],
      "stateMutability": "nonpayable",
      "type": "function"
    },
    {
      "inputs": [
        {
          "internalType": "address",
          "name": "outbound_tkn",
          "type": "address"
        },
        {
          "internalType": "address",
          "name": "inbound_tkn",
          "type": "address"
        },
        {
          "internalType": "uint256",
          "name": "wants",
          "type": "uint256"
        },
        {
          "internalType": "uint256",
          "name": "gives",
          "type": "uint256"
        },
        {
          "internalType": "uint256",
          "name": "gasreq",
          "type": "uint256"
        },
        {
          "internalType": "uint256",
          "name": "gasprice",
          "type": "uint256"
        },
        {
          "internalType": "uint256",
          "name": "pivotId",
          "type": "uint256"
        },
        {
          "internalType": "uint256",
          "name": "offerId",
          "type": "uint256"
        }
      ],
      "name": "updateOffer",
      "outputs": [],
      "stateMutability": "nonpayable",
      "type": "function"
    },
    {
      "inputs": [
        {
          "internalType": "address",
          "name": "receiver",
          "type": "address"
        },
        {
          "internalType": "uint256",
          "name": "amount",
          "type": "uint256"
        }
      ],
      "name": "withdraw",
      "outputs": [
        {
          "internalType": "bool",
          "name": "noRevert",
          "type": "bool"
        }
      ],
      "stateMutability": "nonpayable",
      "type": "function"
    },
    {
      "stateMutability": "payable",
      "type": "receive"
    }
  ],
  "transactionHash": "0x1bb551a5bee73ae1b36653c88f7caae853628c5b38a08d0c12e26069ec99cfc3",
  "args": [
    "0xE44FfC50ED6673d6A1C385B76152E1551a6c14a3"
  ],
  "solcInputHash": "fc21119c32fdeac2f3d2c128da754e27",
  "bytecode": "0x60a0604052620f42406001553480156200001857600080fd5b5060405162002611380380620026118339810160408190526200003b916200013c565b600080546001600160a01b031916331781556040516365fbae4d60e11b81528291906001600160a01b0383169063cbf75c9a9062000080908490819060040162000190565b604080518083038186803b1580156200009857600080fd5b505afa158015620000ad573d6000803e3d6000fd5b505050506040513d601f19601f82011682018060405250810190620000d391906200016c565b5090506000620000ee826200013360201b62000e6c1760201c565b905080156200011a5760405162461bcd60e51b81526004016200011190620001aa565b60405180910390fd5b505060601b6001600160601b03191660805250620001f3565b60201c60ff1690565b6000602082840312156200014e578081fd5b81516001600160a01b038116811462000165578182fd5b9392505050565b600080604083850312156200017f578081fd5b505080516020909101519092909150565b6001600160a01b0392831681529116602082015260400190565b60208082526029908201527f4d616e67726f766520636f6e7472616374206973207065726d616e656e746c7960408201526808191a5cd8589b195960ba1b606082015260800190565b60805160601c6123d8620002396000398061039a528061052852806106d9528061080a52806108c45280610a055280610a3a5280610c035280610e9452506123d86000f3fe6080604052600436106100cb5760003560e01c8063e428204d11610074578063f3fef3a31161004e578063f3fef3a314610204578063f5537ede14610231578063f851a44014610251576100d2565b8063e428204d146101af578063e4c34f84146101c4578063eb87009e146101e4576100d2565b8063ad97db1b116100a5578063ad97db1b1461014f578063aefe84031461016f578063e34248111461018f576100d2565b806349f6d2dc146100d75780636a4f76911461010d578063704b6c021461012f576100d2565b366100d257005b600080fd5b3480156100e357600080fd5b506100f76100f2366004611de6565b610273565b6040516101049190612122565b60405180910390f35b34801561011957600080fd5b5061012d610128366004611e43565b61043a565b005b34801561013b57600080fd5b5061012d61014a366004611cf0565b6105a8565b34801561015b57600080fd5b506100f761016a366004611d4c565b610640565b34801561017b57600080fd5b5061012d61018a366004611ea9565b61076f565b34801561019b57600080fd5b506100f76101aa366004611f29565b6108c0565b3480156101bb57600080fd5b506100f76109f8565b3480156101d057600080fd5b506100f76101df366004611d9a565b6109fe565b3480156101f057600080fd5b5061012d6101ff366004611f45565b610a38565b34801561021057600080fd5b5061022461021f366004611ea9565b610b74565b6040516101049190612117565b34801561023d57600080fd5b5061022461024c366004611d11565b610d50565b34801561025d57600080fd5b50610266610e50565b6040516101049190611fa6565b6000805473ffffffffffffffffffffffffffffffffffffffff1633148061029957503330145b6102d8576040517f08c379a00000000000000000000000000000000000000000000000000000000081526004016102cf906121bf565b60405180910390fd5b7fffffffffffffffffffffffffffffffffffffffffffffffffffffffffffffffff8414156103065760015493505b6000610316898987876000610e7a565b9050801561035d5761035d6040518060400160405280601981526020017f6d67764f666665722f6e65772f6f75744f6646756e64733a200000000000000081525082610f2e565b6040517f49f6d2dc00000000000000000000000000000000000000000000000000000000815273ffffffffffffffffffffffffffffffffffffffff7f000000000000000000000000000000000000000000000000000000000000000016906349f6d2dc906103db908c908c908c908c908c908c908c906004016120cc565b602060405180830381600087803b1580156103f557600080fd5b505af1158015610409573d6000803e3d6000fd5b505050506040513d601f19601f8201168201806040525081019061042d9190611eee565b9998505050505050505050565b60005473ffffffffffffffffffffffffffffffffffffffff1633148061045f57503330145b610495576040517f08c379a00000000000000000000000000000000000000000000000000000000081526004016102cf906121bf565b60006104a48989878786610e7a565b905080156104eb576104eb6040518060400160405280601c81526020017f6d67764f666665722f7570646174652f6f75744f6646756e64733a200000000081525082610f2e565b6040517f6a4f769100000000000000000000000000000000000000000000000000000000815273ffffffffffffffffffffffffffffffffffffffff7f00000000000000000000000000000000000000000000000000000000000000001690636a4f76919061056b908c908c908c908c908c908c908c908c9060040161207b565b600060405180830381600087803b15801561058557600080fd5b505af1158015610599573d6000803e3d6000fd5b50505050505050505050505050565b60005473ffffffffffffffffffffffffffffffffffffffff1633146105f9576040517f08c379a00000000000000000000000000000000000000000000000000000000081526004016102cf906121bf565b600080547fffffffffffffffffffffffff00000000000000000000000000000000000000001673ffffffffffffffffffffffffffffffffffffffff92909216919091179055565b6000805473ffffffffffffffffffffffffffffffffffffffff1633148061066657503330145b61069c576040517f08c379a00000000000000000000000000000000000000000000000000000000081526004016102cf906121bf565b6040517fad97db1b00000000000000000000000000000000000000000000000000000000815273ffffffffffffffffffffffffffffffffffffffff7f0000000000000000000000000000000000000000000000000000000000000000169063ad97db1b90610714908890889088908890600401612045565b602060405180830381600087803b15801561072e57600080fd5b505af1158015610742573d6000803e3d6000fd5b505050506040513d601f19601f820116820180604052508101906107669190611eee565b95945050505050565b60005473ffffffffffffffffffffffffffffffffffffffff1633146107c0576040517f08c379a00000000000000000000000000000000000000000000000000000000081526004016102cf906121bf565b6040517f095ea7b300000000000000000000000000000000000000000000000000000000815273ffffffffffffffffffffffffffffffffffffffff83169063095ea7b390610834907f0000000000000000000000000000000000000000000000000000000000000000908590600401611fc7565b602060405180830381600087803b15801561084e57600080fd5b505af1158015610862573d6000803e3d6000fd5b505050506040513d601f19601f820116820180604052508101906108869190611ed2565b6108bc576040517f08c379a00000000000000000000000000000000000000000000000000000000081526004016102cf9061212b565b5050565b60007f000000000000000000000000000000000000000000000000000000000000000073ffffffffffffffffffffffffffffffffffffffff8116158061091b57503373ffffffffffffffffffffffffffffffffffffffff8216145b610951576040517f08c379a00000000000000000000000000000000000000000000000000000000081526004016102cf906121bf565b61095a83610f59565b610986577f6d67764f666665722f72656e656765640000000000000000000000000000000091506109f2565b6109a36109996040850160208601611cf0565b8460a001356108bc565b60006109bf6109b56020860186611cf0565b8560800135610f5f565b905080156109f0577f6d67764f666665722f6f75744f664c69717569646974790000000000000000009250506109f2565b505b50919050565b60015481565b6000610a2e7f00000000000000000000000000000000000000000000000000000000000000008787878787611006565b9695505050505050565b7f000000000000000000000000000000000000000000000000000000000000000073ffffffffffffffffffffffffffffffffffffffff81161580610a9157503373ffffffffffffffffffffffffffffffffffffffff8216145b610ac7576040517f08c379a00000000000000000000000000000000000000000000000000000000081526004016102cf906121bf565b81602001357f6d67762f747261646553756363657373000000000000000000000000000000001415610b0157610afc836112e7565b610b6f565b81357f6d67764f666665722f6f75744f664c69717569646974790000000000000000001415610b3357610afc836114e4565b81357f6d67764f666665722f72656e65676564000000000000000000000000000000001415610b6557610afc836115cc565b610b6f83836115cf565b505050565b6000805473ffffffffffffffffffffffffffffffffffffffff163314610bc6576040517f08c379a00000000000000000000000000000000000000000000000000000000081526004016102cf906121bf565b6040517f2e1a7d4d00000000000000000000000000000000000000000000000000000000815273ffffffffffffffffffffffffffffffffffffffff7f00000000000000000000000000000000000000000000000000000000000000001690632e1a7d4d90610c38908590600401612122565b602060405180830381600087803b158015610c5257600080fd5b505af1158015610c66573d6000803e3d6000fd5b505050506040513d601f19601f82011682018060405250810190610c8a9190611ed2565b610c9357600080fd5b73ffffffffffffffffffffffffffffffffffffffff8316610ce0576040517f08c379a00000000000000000000000000000000000000000000000000000000081526004016102cf90612162565b8273ffffffffffffffffffffffffffffffffffffffff1682604051610d0490611fa3565b60006040518083038185875af1925050503d8060008114610d41576040519150601f19603f3d011682016040523d82523d6000602084013e610d46565b606091505b5090949350505050565b6000805473ffffffffffffffffffffffffffffffffffffffff163314610da2576040517f08c379a00000000000000000000000000000000000000000000000000000000081526004016102cf906121bf565b6040517fa9059cbb00000000000000000000000000000000000000000000000000000000815273ffffffffffffffffffffffffffffffffffffffff85169063a9059cbb90610df69086908690600401611fc7565b602060405180830381600087803b158015610e1057600080fd5b505af1158015610e24573d6000803e3d6000fd5b505050506040513d601f19601f82011682018060405250810190610e489190611ed2565b949350505050565b60005473ffffffffffffffffffffffffffffffffffffffff1681565b60ff602082901c165b919050565b600080610e8a87878787876109fe565b90508015610f21577f000000000000000000000000000000000000000000000000000000000000000073ffffffffffffffffffffffffffffffffffffffff1663b60d4288826040518263ffffffff1660e01b81526004016000604051808303818588803b158015610efa57600080fd5b505af193505050508015610f0c575060015b610f17579050610766565b6000915050610766565b5060009695505050505050565b600080610f39611665565b91509150610f4784826116c3565b610f5183826116f2565b604481510182fd5b50600190565b6000808373ffffffffffffffffffffffffffffffffffffffff166370a08231306040518263ffffffff1660e01b8152600401610f9b9190611fa6565b60206040518083038186803b158015610fb357600080fd5b505afa158015610fc7573d6000803e3d6000fd5b505050506040513d601f19601f82011682018060405250810190610feb9190611eee565b9050828111610ffc57808303610e48565b6000949350505050565b60008060008873ffffffffffffffffffffffffffffffffffffffff1663cbf75c9a89896040518363ffffffff1660e01b8152600401611046929190611fed565b604080518083038186803b15801561105d57600080fd5b505afa158015611071573d6000803e3d6000fd5b505050506040513d601f19601f820116820180604052508101906110959190611f06565b9150915060008973ffffffffffffffffffffffffffffffffffffffff166368c13d6b8a8a886040518463ffffffff1660e01b81526004016110d893929190612014565b60206040518083038186803b1580156110f057600080fd5b505afa158015611104573d6000803e3d6000fd5b505050506040513d601f19601f820116820180604052508101906111289190611eee565b905060008a73ffffffffffffffffffffffffffffffffffffffff16635722647b8b8b896040518463ffffffff1660e01b815260040161116993929190612014565b60206040518083038186803b15801561118157600080fd5b505afa158015611195573d6000803e3d6000fd5b505050506040513d601f19601f820116820180604052508101906111b99190611eee565b90506000876111c786611c0b565b11156111dd576111d685611c0b565b90506111e0565b50865b6000816111ec86611c15565b6111f587611c20565b8c010102633b9aca00029050600061120c85611c2b565b61121585611c32565b61121e86611c3d565b61122787611c48565b010102633b9aca0002905060008e73ffffffffffffffffffffffffffffffffffffffff166370a08231306040518263ffffffff1660e01b815260040161126d9190611fa6565b60206040518083038186803b15801561128557600080fd5b505afa158015611299573d6000803e3d6000fd5b505050506040513d601f19601f820116820180604052508101906112bd9190611eee565b82019050828110156112d1578083036112d4565b60005b9f9e505050505050505050505050505050565b60006112f66020830183611cf0565b9050600061130a6040840160208501611cf0565b9050600080600061131e8660600135611c53565b945094509450505060006113358760c00135611c48565b905030636a4f769161134a60208a018a611cf0565b61135a60408b0160208c01611cf0565b8688868860008f604001356040518963ffffffff1660e01b815260040161138898979695949392919061207b565b600060405180830381600087803b1580156113a257600080fd5b505af19250505080156113b3575060015b6114db576113bf6122b3565b806113ca5750611456565b6113da6040890160208a01611cf0565b73ffffffffffffffffffffffffffffffffffffffff166113fd60208a018a611cf0565b73ffffffffffffffffffffffffffffffffffffffff167f768269e5e6803a8bc566de9364d8347774fff5b114c5a2ec556ab0459a1724268a60400135846040516114489291906121f6565b60405180910390a3506114db565b6114666040880160208901611cf0565b73ffffffffffffffffffffffffffffffffffffffff166114896020890189611cf0565b73ffffffffffffffffffffffffffffffffffffffff167f768269e5e6803a8bc566de9364d8347774fff5b114c5a2ec556ab0459a17242689604001356040516114d2919061226f565b60405180910390a35b50505050505050565b60006114f36020830183611cf0565b73ffffffffffffffffffffffffffffffffffffffff166370a08231306040518263ffffffff1660e01b815260040161152b9190611fa6565b60206040518083038186803b15801561154357600080fd5b505afa158015611557573d6000803e3d6000fd5b505050506040513d601f19601f8201168201806040525081019061157b9190611eee565b60808301350390507f7987d58a37b53925855fa5d7536c576a67784c1221b88fc56f519f81d5fbab8d6115b16020840184611cf0565b826040516115c0929190611fc7565b60405180910390a15050565b50565b6115df6040830160208401611cf0565b73ffffffffffffffffffffffffffffffffffffffff166116026020840184611cf0565b73ffffffffffffffffffffffffffffffffffffffff167f768269e5e6803a8bc566de9364d8347774fff5b114c5a2ec556ab0459a172426846040013561164b8560200135611c89565b6040516116599291906121f6565b60405180910390a35050565b60405160009081908161020082101561167e5761020091505b5061100081016040527f08c379a00000000000000000000000000000000000000000000000000000000081526020600482015260006024820190815290925090509091565b8151815180602001830160005b838110156116ea57602081870181015183830152016116d0565b505001905250565b60405161020081101561170457506102005b60405160a082015260605160c082015260805160e082015260a05161010082015260c05161012082015260e0516101408201526101005161016082015261012051610180820152610140516101a08201526130306000527f30313032303330343035303630373038303931303131313231333134313531366020527f31373138313932303231323232333234323532363237323832393330333133326040527f33333334333533363337333833393430343134323433343434353436343734386060527f34393530353135323533353435353536353735383539363036313632363336346080527f363536363637363836393730373137323733373437353736373737383739383060a0527f383138323833383438353836383738383839393039313932393339343935393660c0527f393739383939000000000000000000000000000000000000000000000000000060e0526119e8565b600061ffff60646c0c9f2c9cd04674edea4000000084040660011b511660f01b61ffff60646b204fce5e3e2502611000000085040660011b511660e01b0161ffff60646a52b7d2dcc80cd2e400000085040660011b511660d01b61ffff606469d3c21bcecceda100000086040660011b511660c01b010161ffff606469021e19e0c9bab240000085040660011b511660b01b61ffff606468056bc75e2d6310000086040660011b511660a01b0161ffff6064670de0b6b3a764000086040660011b511660901b61ffff6064662386f26fc1000087040660011b511660801b01010161ffff6064655af3107a400085040660011b511660701b61ffff606464e8d4a5100086040660011b511660601b0161ffff60646402540be40086040660011b511660501b61ffff60646305f5e10087040660011b511660401b010161ffff6064620f424086040660011b511660301b61ffff606461271087040660011b511660201b0161ffff60648087040660011b511660101b61ffff6064870660011b5116010101019050919050565b6000610100526000610120526119fd8361185c565b610140526d04ee2d6d415b85acef8100000000830492508215611a4e57611a238361185c565b610120526d04ee2d6d415b85acef8100000000830492508215611a4e57611a498361185c565b610100525b611b41565b60ff7f80808080808080808080808080808080808080808080808080808080808080807f4f4f4f4f4f4f4f4f4f4f4f4f4f4f4f4f4f4f4f4f4f4f4f4f4f4f4f4f4f4f4f4f8301908116600191821c7f40404040404040404040404040404040404040404040404040404040404040401617600281901c17600481901c17600881811c909117601081901c17602081901c17604081901c17608081901c17901c017f201f1e1d1c1b1a191817161514131211100f0e0d0c0b0a09080706050403020104167fcfcfcfcfcfcfcfcfcfcfcfcfcfcfcfcfcfcfcfcfcfcfcfcfcfcfcfcfcfcfcfd09190910115150290565b611b4d61014051611a53565b6101205115611b82576020611b6461012051611a53565b0190506101005115611b82576040611b7e61010051611a53565b0190505b82516020810184018260600380610100015182528061012001516020830152806101400151604083015250508181018452505060a081015160405260c081015160605260e081015160805261010081015160a05261012081015160c05261014081015160e05261016081015161010052610180810151610120526101a081015161014052505050565b60401c61ffff1690565b60381c62ffffff1690565b60501c62ffffff1690565b61ffff1690565b60181c62ffffff1690565b60301c62ffffff1690565b60481c62ffffff1690565b60e881901c9162ffffff60d083901c16916bffffffffffffffffffffffff607082901c811692601083901c9091169161ffff1690565b6040805160208082528183019092526060916000919060208201818036833750505060208101939093525090919050565b803573ffffffffffffffffffffffffffffffffffffffff81168114610e7557600080fd5b600061012082840312156109f2578081fd5b600060208284031215611d01578081fd5b611d0a82611cba565b9392505050565b600080600060608486031215611d25578182fd5b611d2e84611cba565b9250611d3c60208501611cba565b9150604084013590509250925092565b60008060008060808587031215611d61578081fd5b611d6a85611cba565b9350611d7860208601611cba565b9250604085013591506060850135611d8f81612394565b939692955090935050565b600080600080600060a08688031215611db1578081fd5b611dba86611cba565b9450611dc860208701611cba565b94979496505050506040830135926060810135926080909101359150565b600080600080600080600060e0888a031215611e00578182fd5b611e0988611cba565b9650611e1760208901611cba565b96999698505050506040850135946060810135946080820135945060a0820135935060c0909101359150565b600080600080600080600080610100898b031215611e5f578081fd5b611e6889611cba565b9750611e7660208a01611cba565b979a9799505050506040860135956060810135956080820135955060a0820135945060c0820135935060e0909101359150565b60008060408385031215611ebb578182fd5b611ec483611cba565b946020939093013593505050565b600060208284031215611ee3578081fd5b8151611d0a81612394565b600060208284031215611eff578081fd5b5051919050565b60008060408385031215611f18578182fd5b505080516020909101519092909150565b60006101208284031215611f3b578081fd5b611d0a8383611cde565b600080828403610160811215611f59578283fd5b611f638585611cde565b925060407ffffffffffffffffffffffffffffffffffffffffffffffffffffffffffffffee082011215611f94578182fd5b50610120830190509250929050565b90565b73ffffffffffffffffffffffffffffffffffffffff91909116815260200190565b73ffffffffffffffffffffffffffffffffffffffff929092168252602082015260400190565b73ffffffffffffffffffffffffffffffffffffffff92831681529116602082015260400190565b73ffffffffffffffffffffffffffffffffffffffff9384168152919092166020820152604081019190915260600190565b73ffffffffffffffffffffffffffffffffffffffff94851681529290931660208301526040820152901515606082015260800190565b73ffffffffffffffffffffffffffffffffffffffff988916815296909716602087015260408601949094526060850192909252608084015260a083015260c082015260e08101919091526101000190565b73ffffffffffffffffffffffffffffffffffffffff978816815295909616602086015260408501939093526060840191909152608083015260a082015260c081019190915260e00190565b901515815260200190565b90815260200190565b6020808252601a908201527f4661696c656420746f20617070726f7665204d616e67726f7665000000000000604082015260600190565b60208082526023908201527f43616e6e6f74207472616e73666572205745497320746f20307830206164647260408201527f6573730000000000000000000000000000000000000000000000000000000000606082015260800190565b60208082526018908201527f416363657373436f6e74726f6c6c65642f496e76616c69640000000000000000604082015260600190565b600083825260206040818401528351806040850152825b818110156122295785810183015185820160600152820161220d565b8181111561223a5783606083870101525b50601f017fffffffffffffffffffffffffffffffffffffffffffffffffffffffffffffffe01692909201606001949350505050565b908152604060208201819052600a908201527f756e657870656374656400000000000000000000000000000000000000000000606082015260800190565b60e01c90565b600060443d10156122c357611fa3565b600481823e6308c379a06122d782516122ad565b146122e157611fa3565b6040517ffffffffffffffffffffffffffffffffffffffffffffffffffffffffffffffffc3d016004823e80513d67ffffffffffffffff816024840111818411171561232f5750505050611fa3565b828401925082519150808211156123495750505050611fa3565b503d8301602082840101111561236157505050611fa3565b601f017fffffffffffffffffffffffffffffffffffffffffffffffffffffffffffffffe016810160200160405291505090565b80151581146115cc57600080fdfea264697066735822122069911444b0476c5358c8480e52782e37563a5f85c675d192a697859912c2a29c64736f6c63430007060033",
  "devdoc": {
    "kind": "dev",
    "methods": {},
    "version": 1
  },
  "userdoc": {
    "kind": "user",
    "methods": {
      "approveMangrove(address,uint256)": {
        "notice": "trader needs to approve Mangrove to let it perform outbound token transfer at the end of the `makerExecute` function"
      },
      "transferToken(address,address,uint256)": {
        "notice": "transfers token stored in `this` contract to some recipient address"
      },
      "withdraw(address,uint256)": {
        "notice": "withdraws ETH from the bounty vault of the Mangrove. NB: `Mangrove.fund` function need not be called by `this` so is not included here."
      }
    },
    "version": 1
  },
  "storageLayout": {
    "storage": [
      {
        "astId": 13734,
        "contract": "cache/solpp-generated-contracts/Strategies/OfferLogics/Deployable/Reposting.sol:Reposting",
        "label": "admin",
        "offset": 0,
        "slot": "0",
        "type": "t_address"
      },
      {
        "astId": 12048,
        "contract": "cache/solpp-generated-contracts/Strategies/OfferLogics/Deployable/Reposting.sol:Reposting",
        "label": "OFR_GASREQ",
        "offset": 0,
        "slot": "1",
        "type": "t_uint256"
      }
    ],
    "types": {
      "t_address": {
        "encoding": "inplace",
        "label": "address",
        "numberOfBytes": "20"
      },
      "t_uint256": {
        "encoding": "inplace",
        "label": "uint256",
        "numberOfBytes": "32"
      }
    }
  }
}