{
  "abi": [
    {
      "inputs": [
        {
          "internalType": "address",
          "name": "_unitroller",
          "type": "address"
        },
        {
          "internalType": "address",
          "name": "wethAddress",
          "type": "address"
        }
      ],
      "stateMutability": "nonpayable",
      "type": "constructor"
    },
    {
      "anonymous": false,
      "inputs": [
        {
          "indexed": false,
          "internalType": "address",
          "name": "comp",
          "type": "address"
        },
        {
          "indexed": false,
          "internalType": "uint256",
          "name": "errorCode",
          "type": "uint256"
        }
      ],
      "name": "ComptrollerError",
      "type": "event"
    },
    {
      "anonymous": false,
      "inputs": [
        {
          "indexed": true,
          "internalType": "address",
          "name": "outbound_tkn",
          "type": "address"
        },
        {
          "indexed": true,
          "internalType": "address",
          "name": "inbound_tkn",
          "type": "address"
        },
        {
          "indexed": true,
          "internalType": "uint256",
          "name": "offerId",
          "type": "uint256"
        },
        {
          "indexed": false,
          "internalType": "uint256",
          "name": "amount",
          "type": "uint256"
        },
        {
          "indexed": false,
          "internalType": "uint256",
          "name": "errorCode",
          "type": "uint256"
        }
      ],
      "name": "ErrorOnMint",
      "type": "event"
    },
    {
      "anonymous": false,
      "inputs": [
        {
          "indexed": true,
          "internalType": "address",
          "name": "outbound_tkn",
          "type": "address"
        },
        {
          "indexed": true,
          "internalType": "address",
          "name": "inbound_tkn",
          "type": "address"
        },
        {
          "indexed": true,
          "internalType": "uint256",
          "name": "offerId",
          "type": "uint256"
        },
        {
          "indexed": false,
          "internalType": "uint256",
          "name": "amount",
          "type": "uint256"
        },
        {
          "indexed": false,
          "internalType": "uint256",
          "name": "errorCode",
          "type": "uint256"
        }
      ],
      "name": "ErrorOnRedeem",
      "type": "event"
    },
    {
      "inputs": [],
      "name": "comptroller",
      "outputs": [
        {
          "internalType": "contract IComptroller",
          "name": "",
          "type": "address"
        }
      ],
      "stateMutability": "view",
      "type": "function"
    },
    {
      "inputs": [
        {
          "internalType": "contract IERC20",
          "name": "token",
          "type": "address"
        }
      ],
      "name": "isPooled",
      "outputs": [
        {
          "internalType": "bool",
          "name": "",
          "type": "bool"
        }
      ],
      "stateMutability": "view",
      "type": "function"
    },
    {
      "inputs": [
        {
          "internalType": "address",
          "name": "_ctoken",
          "type": "address"
        },
        {
          "internalType": "address",
          "name": "account",
          "type": "address"
        }
      ],
      "name": "maxGettableUnderlying",
      "outputs": [
        {
          "internalType": "uint256",
          "name": "",
          "type": "uint256"
        },
        {
          "internalType": "uint256",
          "name": "",
          "type": "uint256"
        }
      ],
      "stateMutability": "view",
      "type": "function"
    },
    {
      "inputs": [],
      "name": "oracle",
      "outputs": [
        {
          "internalType": "contract ICompoundPriceOracle",
          "name": "",
          "type": "address"
        }
      ],
      "stateMutability": "view",
      "type": "function"
    }
  ],
  "bytecode": {
    "object": "0x60e06040523480156200001157600080fd5b50604051620010083803806200100883398101604081905262000034916200018a565b6001600160a01b0382166080819052620000955760405162461bcd60e51b815260206004820152601b60248201527f496e76616c696420636f6d7074726f6c6c65722061646472657373000000000060448201526064015b60405180910390fd5b6000826001600160a01b0316637dc0d1d06040518163ffffffff1660e01b81526004016020604051808303816000875af1158015620000d8573d6000803e3d6000fd5b505050506040513d601f19601f82011682018060405250810190620000fe9190620001c9565b90506001600160a01b038116620001585760405162461bcd60e51b815260206004820152601a60248201527f4661696c656420746f20676574207072696365206f7261636c6500000000000060448201526064016200008c565b6001600160a01b0390811660a0521660c05250620001f0565b6001600160a01b03811681146200018757600080fd5b50565b600080604083850312156200019e57600080fd5b8251620001ab8162000171565b6020840151909250620001be8162000171565b809150509250929050565b600060208284031215620001dc57600080fd5b8151620001e98162000171565b9392505050565b60805160a05160c051610dca6200023e600039600050506000818160e50152610255015260008181607e01528181610142015281816103530152818161045c01526104ff0152610dca6000f3fe608060405234801561001057600080fd5b506004361061004c5760003560e01c80630e00389f146100515780635fe3b567146100795780637c64e5ec146100b85780637dc0d1d0146100e0575b600080fd5b61006461005f366004610b7c565b610107565b60405190151581526020015b60405180910390f35b6100a07f000000000000000000000000000000000000000000000000000000000000000081565b6040516001600160a01b039091168152602001610070565b6100cb6100c6366004610b99565b6101b4565b60408051928352602083019190915201610070565b6100a07f000000000000000000000000000000000000000000000000000000000000000081565b6001600160a01b0381811660009081526020819052604080822054905163929fe9a160e01b81523060048201529083166024820181905291927f0000000000000000000000000000000000000000000000000000000000000000169063929fe9a190604401602060405180830381865afa158015610189573d6000803e3d6000fd5b505050506040513d601f19601f820116820180604052508101906101ad9190610be7565b9392505050565b600080836101c0610af2565b6040516361bfb47160e11b81523060048201526001600160a01b0383169063c37f68e290602401608060405180830381865afa158015610204573d6000803e3d6000fd5b505050506040513d601f19601f820116820180604052508101906102289190610c02565b606085015250825261016082015260405163fc57d4df60e01b81526001600160a01b0383811660048301527f0000000000000000000000000000000000000000000000000000000000000000169063fc57d4df90602401602060405180830381865afa15801561029c573d6000803e3d6000fd5b505050506040513d601f19601f820116820180604052508101906102c09190610c38565b61010082015260408051602081019091526060820151815281516102e49190610666565b60e08301819052610140830182600381111561030257610302610c51565b600381111561031357610313610c51565b8152505050610321816106ab565b156103345760008093509350505061065f565b604051635ec88c7960e01b81526001600160a01b0386811660048301527f00000000000000000000000000000000000000000000000000000000000000001690635ec88c7990602401606060405180830381865afa15801561039a573d6000803e3d6000fd5b505050506040513d601f19601f820116820180604052508101906103be9190610c67565b5060808301819052610160830191909152604080516020810190915261010083015181526103ec91906106df565b6101208301819052610140830182600381111561040b5761040b610c51565b600381111561041c5761041c610c51565b815250505061042a816106ab565b1561043d5760008093509350505061065f565b604051638e8f294b60e01b81526001600160a01b0383811660048301527f00000000000000000000000000000000000000000000000000000000000000001690638e8f294b90602401606060405180830381865afa1580156104a3573d6000803e3d6000fd5b505050506040513d601f19601f820116820180604052508101906104c79190610c95565b5060a083018190521590508061056c575060405163929fe9a160e01b81526001600160a01b03868116600483015283811660248301527f0000000000000000000000000000000000000000000000000000000000000000169063929fe9a190604401602060405180830381865afa158015610546573d6000803e3d6000fd5b505050506040513d601f19601f8201168201806040525081019061056a9190610be7565b155b15610587578060e0015181610120015193509350505061065f565b6105c381608001516105be60405180602001604052808560a0015181525060405180602001604052808661010001518152506106ef565b6106df565b60c0830181905261014083018260038111156105e1576105e1610c51565b60038111156105f2576105f2610c51565b8152505050610600816106ab565b156106135760008093509350505061065f565b6106258160c001518260e00151610737565b60c08201818152610120830151604080516020810190915260a085015181529151610658926106539161074d565b61076d565b9350935050505b9250929050565b60008060008061067686866107a7565b9092509050600082600381111561068f5761068f610c51565b146106a0575091506000905061065f565b600061065882610823565b600081610160015160001415806106d95750600082610140015160038111156106d6576106d6610c51565b14155b92915050565b600080600080610676868661083b565b6040805160208101909152600081526040518060200160405280670de0b6b3a7640000610724866000015186600001516108ae565b61072e9190610ce7565b90529392505050565b600081831061074657816101ad565b5090919050565b60008061075a84846108f0565b905061076581610823565b949350505050565b60006101ad8383604051806040016040528060158152602001747375627472616374696f6e20756e646572666c6f7760581b815250610918565b60006107bf6040518060200160405280600081525090565b6000806107d0866000015186610950565b909250905060008260038111156107e9576107e9610c51565b146108085750604080516020810190915260008152909250905061065f565b60408051602081019091529081526000969095509350505050565b80516000906106d990670de0b6b3a764000090610ce7565b60006108536040518060200160405280600081525090565b600080610868670de0b6b3a764000087610950565b9092509050600082600381111561088157610881610c51565b146108a05750604080516020810190915260008152909250905061065f565b61065881866000015161099d565b60006101ad83836040518060400160405280601781526020017f6d756c7469706c69636174696f6e206f766572666c6f77000000000000000000815250610a68565b604080516020810190915260008152604051806020016040528061072e8560000151856108ae565b600081848411156109455760405162461bcd60e51b815260040161093c9190610d09565b60405180910390fd5b506107658385610d5e565b600080836000036109665750600090508061065f565b60006109728486610d75565b90508361097f8683610ce7565b146109925760026000925092505061065f565b60009250905061065f565b60006109b56040518060200160405280600081525090565b6000806109ca86670de0b6b3a7640000610950565b909250905060008260038111156109e3576109e3610c51565b14610a025750604080516020810190915260008152909250905061065f565b600080610a0f8388610ac4565b90925090506000826003811115610a2857610a28610c51565b14610a4b578160405180602001604052806000815250955095505050505061065f565b604080516020810190915290815260009890975095505050505050565b6000831580610a75575082155b15610a82575060006101ad565b6000610a8e8486610d75565b905083610a9b8683610ce7565b148390610abb5760405162461bcd60e51b815260040161093c9190610d09565b50949350505050565b60008082600003610adb575060019050600061065f565b6000610ae78486610ce7565b915091509250929050565b6040518061018001604052806000815260200160008152602001600081526020016000815260200160008152602001600081526020016000815260200160008152602001600081526020016000815260200160006003811115610b5757610b57610c51565b8152602001600081525090565b6001600160a01b0381168114610b7957600080fd5b50565b600060208284031215610b8e57600080fd5b81356101ad81610b64565b60008060408385031215610bac57600080fd5b8235610bb781610b64565b91506020830135610bc781610b64565b809150509250929050565b80518015158114610be257600080fd5b919050565b600060208284031215610bf957600080fd5b6101ad82610bd2565b60008060008060808587031215610c1857600080fd5b505082516020840151604085015160609095015191969095509092509050565b600060208284031215610c4a57600080fd5b5051919050565b634e487b7160e01b600052602160045260246000fd5b600080600060608486031215610c7c57600080fd5b8351925060208401519150604084015190509250925092565b600080600060608486031215610caa57600080fd5b610cb384610bd2565b925060208401519150610cc860408501610bd2565b90509250925092565b634e487b7160e01b600052601160045260246000fd5b600082610d0457634e487b7160e01b600052601260045260246000fd5b500490565b600060208083528351808285015260005b81811015610d3657858101830151858201604001528201610d1a565b81811115610d48576000604083870101525b50601f01601f1916929092016040019392505050565b600082821015610d7057610d70610cd1565b500390565b6000816000190483118215151615610d8f57610d8f610cd1565b50029056fea26469706673582212208e48e38675acdcbcfe056d4f73fd37cc3051537b544feb79fcbb58753b6ae8b664736f6c634300080e0033",
    "linkReferences": {}
  },
  "methodIdentifiers": {
    "comptroller()": "5fe3b567",
    "isPooled(address)": "0e00389f",
    "maxGettableUnderlying(address,address)": "7c64e5ec",
    "oracle()": "7dc0d1d0"
  },
  "id": 38
}